{
  "contractName": "Asami",
  "abi": [
    {
      "inputs": [
        {
          "internalType": "address",
          "name": "_dollarOnChainAddress",
          "type": "address"
        }
      ],
      "stateMutability": "nonpayable",
      "type": "constructor"
    },
    {
      "anonymous": false,
      "inputs": [
        {
          "components": [
            {
              "internalType": "uint256",
              "name": "id",
              "type": "uint256"
            },
            {
              "internalType": "address",
              "name": "addr",
              "type": "address"
            },
            {
              "internalType": "uint256",
              "name": "unclaimedAsamiTokens",
              "type": "uint256"
            },
            {
              "internalType": "uint256",
              "name": "unclaimedDocRewards",
              "type": "uint256"
            },
            {
              "internalType": "uint256[]",
              "name": "handles",
              "type": "uint256[]"
            },
            {
              "internalType": "uint256[]",
              "name": "campaigns",
              "type": "uint256[]"
            },
            {
              "internalType": "uint256[]",
              "name": "collabs",
              "type": "uint256[]"
            }
          ],
          "indexed": false,
          "internalType": "struct Asami.Account",
          "name": "account",
          "type": "tuple"
        }
      ],
      "name": "AccountSaved",
      "type": "event"
    },
    {
      "anonymous": false,
      "inputs": [
        {
          "components": [
            {
              "internalType": "uint256",
              "name": "votes",
              "type": "uint256"
            },
            {
              "internalType": "address",
              "name": "candidate",
              "type": "address"
            },
            {
              "internalType": "uint256",
              "name": "cycle",
              "type": "uint256"
            },
            {
              "internalType": "bool",
              "name": "vested",
              "type": "bool"
            }
          ],
          "indexed": false,
          "internalType": "struct Asami.AdminVote",
          "name": "vote",
          "type": "tuple"
        }
      ],
      "name": "AdminVoteSaved",
      "type": "event"
    },
    {
      "anonymous": false,
      "inputs": [
        {
          "indexed": true,
          "internalType": "address",
          "name": "owner",
          "type": "address"
        },
        {
          "indexed": true,
          "internalType": "address",
          "name": "spender",
          "type": "address"
        },
        {
          "indexed": false,
          "internalType": "uint256",
          "name": "value",
          "type": "uint256"
        }
      ],
      "name": "Approval",
      "type": "event"
    },
    {
      "anonymous": false,
      "inputs": [
        {
          "components": [
            {
              "internalType": "uint256",
              "name": "id",
              "type": "uint256"
            },
            {
              "internalType": "uint256",
              "name": "accountId",
              "type": "uint256"
            },
            {
              "internalType": "enum Asami.Site",
              "name": "site",
              "type": "uint8"
            },
            {
              "internalType": "uint256",
              "name": "budget",
              "type": "uint256"
            },
            {
              "internalType": "uint256",
              "name": "remaining",
              "type": "uint256"
            },
            {
              "internalType": "string",
              "name": "contentId",
              "type": "string"
            },
            {
              "internalType": "uint256",
              "name": "priceScoreRatio",
              "type": "uint256"
            },
            {
              "internalType": "uint256[]",
              "name": "topics",
              "type": "uint256[]"
            },
            {
              "internalType": "uint256",
              "name": "validUntil",
              "type": "uint256"
            },
            {
              "internalType": "bool",
              "name": "fundedByAdmin",
              "type": "bool"
            }
          ],
          "indexed": false,
          "internalType": "struct Asami.Campaign",
          "name": "campaign",
          "type": "tuple"
        }
      ],
      "name": "CampaignSaved",
      "type": "event"
    },
    {
      "anonymous": false,
      "inputs": [
        {
          "components": [
            {
              "internalType": "uint256",
              "name": "id",
              "type": "uint256"
            },
            {
              "internalType": "uint256",
              "name": "handleId",
              "type": "uint256"
            },
            {
              "internalType": "uint256",
              "name": "campaignId",
              "type": "uint256"
            },
            {
              "internalType": "uint256",
              "name": "gross",
              "type": "uint256"
            },
            {
              "internalType": "uint256",
              "name": "fee",
              "type": "uint256"
            },
            {
              "internalType": "string",
              "name": "proof",
              "type": "string"
            },
            {
              "internalType": "uint256",
              "name": "createdAt",
              "type": "uint256"
            }
          ],
          "indexed": false,
          "internalType": "struct Asami.Collab",
          "name": "collab",
          "type": "tuple"
        }
      ],
      "name": "CollabSaved",
      "type": "event"
    },
    {
      "anonymous": false,
      "inputs": [
        {
          "components": [
            {
              "internalType": "uint256",
              "name": "id",
              "type": "uint256"
            },
            {
              "internalType": "uint256",
              "name": "accountId",
              "type": "uint256"
            },
            {
              "internalType": "enum Asami.Site",
              "name": "site",
              "type": "uint8"
            },
            {
              "internalType": "uint256",
              "name": "price",
              "type": "uint256"
            },
            {
              "internalType": "uint256",
              "name": "score",
              "type": "uint256"
            },
            {
              "internalType": "uint256[]",
              "name": "topics",
              "type": "uint256[]"
            },
            {
              "internalType": "string",
              "name": "username",
              "type": "string"
            },
            {
              "internalType": "string",
              "name": "userId",
              "type": "string"
            },
            {
              "internalType": "bool",
              "name": "needsUpdate",
              "type": "bool"
            },
            {
              "internalType": "string",
              "name": "newUsername",
              "type": "string"
            },
            {
              "internalType": "uint256",
              "name": "newPrice",
              "type": "uint256"
            },
            {
              "internalType": "uint256",
              "name": "newScore",
              "type": "uint256"
            },
            {
              "internalType": "uint256[]",
              "name": "newTopics",
              "type": "uint256[]"
            },
            {
              "internalType": "uint256",
              "name": "lastUpdated",
              "type": "uint256"
            }
          ],
          "indexed": false,
          "internalType": "struct Asami.Handle",
          "name": "handle",
          "type": "tuple"
        }
      ],
      "name": "HandleSaved",
      "type": "event"
    },
    {
      "anonymous": false,
      "inputs": [
        {
          "indexed": true,
          "internalType": "address",
          "name": "previousOwner",
          "type": "address"
        },
        {
          "indexed": true,
          "internalType": "address",
          "name": "newOwner",
          "type": "address"
        }
      ],
      "name": "OwnershipTransferred",
      "type": "event"
    },
    {
      "anonymous": false,
      "inputs": [
        {
          "indexed": false,
          "internalType": "uint256",
          "name": "id",
          "type": "uint256"
        },
        {
          "indexed": false,
          "internalType": "string",
          "name": "name",
          "type": "string"
        }
      ],
      "name": "TopicSaved",
      "type": "event"
    },
    {
      "anonymous": false,
      "inputs": [
        {
          "indexed": true,
          "internalType": "address",
          "name": "from",
          "type": "address"
        },
        {
          "indexed": true,
          "internalType": "address",
          "name": "to",
          "type": "address"
        },
        {
          "indexed": false,
          "internalType": "uint256",
          "name": "value",
          "type": "uint256"
        }
      ],
      "name": "Transfer",
      "type": "event"
    },
    {
      "inputs": [
        {
          "internalType": "address",
          "name": "",
          "type": "address"
        }
      ],
      "name": "accountIdByAddress",
      "outputs": [
        {
          "internalType": "uint256",
          "name": "",
          "type": "uint256"
        }
      ],
      "stateMutability": "view",
      "type": "function",
      "constant": true
    },
    {
      "inputs": [
        {
          "internalType": "uint256",
          "name": "",
          "type": "uint256"
        }
      ],
      "name": "accountIds",
      "outputs": [
        {
          "internalType": "uint256",
          "name": "",
          "type": "uint256"
        }
      ],
      "stateMutability": "view",
      "type": "function",
      "constant": true
    },
    {
      "inputs": [
        {
          "internalType": "uint256",
          "name": "",
          "type": "uint256"
        }
      ],
      "name": "accounts",
      "outputs": [
        {
          "internalType": "uint256",
          "name": "id",
          "type": "uint256"
        },
        {
          "internalType": "address",
          "name": "addr",
          "type": "address"
        },
        {
          "internalType": "uint256",
          "name": "unclaimedAsamiTokens",
          "type": "uint256"
        },
        {
          "internalType": "uint256",
          "name": "unclaimedDocRewards",
          "type": "uint256"
        }
      ],
      "stateMutability": "view",
      "type": "function",
      "constant": true
    },
    {
      "inputs": [],
      "name": "admin",
      "outputs": [
        {
          "internalType": "address",
          "name": "",
          "type": "address"
        }
      ],
      "stateMutability": "view",
      "type": "function",
      "constant": true
    },
    {
      "inputs": [],
      "name": "adminTreasury",
      "outputs": [
        {
          "internalType": "address",
          "name": "",
          "type": "address"
        }
      ],
      "stateMutability": "view",
      "type": "function",
      "constant": true
    },
    {
      "inputs": [
        {
          "internalType": "address",
          "name": "",
          "type": "address"
        }
      ],
      "name": "adminVoteCountIdByCandidate",
      "outputs": [
        {
          "internalType": "uint256",
          "name": "",
          "type": "uint256"
        }
      ],
      "stateMutability": "view",
      "type": "function",
      "constant": true
    },
    {
      "inputs": [
        {
          "internalType": "uint256",
          "name": "",
          "type": "uint256"
        }
      ],
      "name": "adminVoteCounts",
      "outputs": [
        {
          "internalType": "uint256",
          "name": "votes",
          "type": "uint256"
        },
        {
          "internalType": "address",
          "name": "candidate",
          "type": "address"
        }
      ],
      "stateMutability": "view",
      "type": "function",
      "constant": true
    },
    {
      "inputs": [
        {
          "internalType": "address",
          "name": "owner",
          "type": "address"
        },
        {
          "internalType": "address",
          "name": "spender",
          "type": "address"
        }
      ],
      "name": "allowance",
      "outputs": [
        {
          "internalType": "uint256",
          "name": "",
          "type": "uint256"
        }
      ],
      "stateMutability": "view",
      "type": "function",
      "constant": true
    },
    {
      "inputs": [
        {
          "internalType": "address",
          "name": "spender",
          "type": "address"
        },
        {
          "internalType": "uint256",
          "name": "amount",
          "type": "uint256"
        }
      ],
      "name": "approve",
      "outputs": [
        {
          "internalType": "bool",
          "name": "",
          "type": "bool"
        }
      ],
      "stateMutability": "nonpayable",
      "type": "function"
    },
    {
      "inputs": [
        {
          "internalType": "address",
          "name": "account",
          "type": "address"
        }
      ],
      "name": "balanceOf",
      "outputs": [
        {
          "internalType": "uint256",
          "name": "",
          "type": "uint256"
        }
      ],
      "stateMutability": "view",
      "type": "function",
      "constant": true
    },
    {
      "inputs": [],
      "name": "batchSize",
      "outputs": [
        {
          "internalType": "uint256",
          "name": "",
          "type": "uint256"
        }
      ],
      "stateMutability": "view",
      "type": "function",
      "constant": true
    },
    {
      "inputs": [
        {
          "internalType": "uint256",
          "name": "",
          "type": "uint256"
        }
      ],
      "name": "campaigns",
      "outputs": [
        {
          "internalType": "uint256",
          "name": "id",
          "type": "uint256"
        },
        {
          "internalType": "uint256",
          "name": "accountId",
          "type": "uint256"
        },
        {
          "internalType": "enum Asami.Site",
          "name": "site",
          "type": "uint8"
        },
        {
          "internalType": "uint256",
          "name": "budget",
          "type": "uint256"
        },
        {
          "internalType": "uint256",
          "name": "remaining",
          "type": "uint256"
        },
        {
          "internalType": "string",
          "name": "contentId",
          "type": "string"
        },
        {
          "internalType": "uint256",
          "name": "priceScoreRatio",
          "type": "uint256"
        },
        {
          "internalType": "uint256",
          "name": "validUntil",
          "type": "uint256"
        },
        {
          "internalType": "bool",
          "name": "fundedByAdmin",
          "type": "bool"
        }
      ],
      "stateMutability": "view",
      "type": "function",
      "constant": true
    },
    {
      "inputs": [],
      "name": "cap",
      "outputs": [
        {
          "internalType": "uint256",
          "name": "",
          "type": "uint256"
        }
      ],
      "stateMutability": "view",
      "type": "function",
      "constant": true
    },
    {
      "inputs": [],
      "name": "claimedAsamiTokens",
      "outputs": [
        {
          "internalType": "uint256",
          "name": "",
          "type": "uint256"
        }
      ],
      "stateMutability": "view",
      "type": "function",
      "constant": true
    },
    {
      "inputs": [
        {
          "internalType": "uint256",
          "name": "",
          "type": "uint256"
        }
      ],
      "name": "collabs",
      "outputs": [
        {
          "internalType": "uint256",
          "name": "id",
          "type": "uint256"
        },
        {
          "internalType": "uint256",
          "name": "handleId",
          "type": "uint256"
        },
        {
          "internalType": "uint256",
          "name": "campaignId",
          "type": "uint256"
        },
        {
          "internalType": "uint256",
          "name": "gross",
          "type": "uint256"
        },
        {
          "internalType": "uint256",
          "name": "fee",
          "type": "uint256"
        },
        {
          "internalType": "string",
          "name": "proof",
          "type": "string"
        },
        {
          "internalType": "uint256",
          "name": "createdAt",
          "type": "uint256"
        }
      ],
      "stateMutability": "view",
      "type": "function",
      "constant": true
    },
    {
      "inputs": [],
      "name": "decimals",
      "outputs": [
        {
          "internalType": "uint8",
          "name": "",
          "type": "uint8"
        }
      ],
      "stateMutability": "view",
      "type": "function",
      "constant": true
    },
    {
      "inputs": [
        {
          "internalType": "address",
          "name": "spender",
          "type": "address"
        },
        {
          "internalType": "uint256",
          "name": "subtractedValue",
          "type": "uint256"
        }
      ],
      "name": "decreaseAllowance",
      "outputs": [
        {
          "internalType": "bool",
          "name": "",
          "type": "bool"
        }
      ],
      "stateMutability": "nonpayable",
      "type": "function"
    },
    {
      "inputs": [],
      "name": "defaultFeeRate",
      "outputs": [
        {
          "internalType": "uint256",
          "name": "",
          "type": "uint256"
        }
      ],
      "stateMutability": "view",
      "type": "function",
      "constant": true
    },
    {
      "inputs": [],
      "name": "feePool",
      "outputs": [
        {
          "internalType": "uint256",
          "name": "",
          "type": "uint256"
        }
      ],
      "stateMutability": "view",
      "type": "function",
      "constant": true
    },
    {
      "inputs": [],
      "name": "feePoolRemainder",
      "outputs": [
        {
          "internalType": "uint256",
          "name": "",
          "type": "uint256"
        }
      ],
      "stateMutability": "view",
      "type": "function",
      "constant": true
    },
    {
      "inputs": [],
      "name": "feeRate",
      "outputs": [
        {
          "internalType": "uint256",
          "name": "",
          "type": "uint256"
        }
      ],
      "stateMutability": "view",
      "type": "function",
      "constant": true
    },
    {
      "inputs": [
        {
          "internalType": "address",
          "name": "",
          "type": "address"
        }
      ],
      "name": "feeRateVotes",
      "outputs": [
        {
          "internalType": "uint256",
          "name": "votes",
          "type": "uint256"
        },
        {
          "internalType": "uint256",
          "name": "rate",
          "type": "uint256"
        }
      ],
      "stateMutability": "view",
      "type": "function",
      "constant": true
    },
    {
      "inputs": [
        {
          "internalType": "uint256",
          "name": "",
          "type": "uint256"
        }
      ],
      "name": "handles",
      "outputs": [
        {
          "internalType": "uint256",
          "name": "id",
          "type": "uint256"
        },
        {
          "internalType": "uint256",
          "name": "accountId",
          "type": "uint256"
        },
        {
          "internalType": "enum Asami.Site",
          "name": "site",
          "type": "uint8"
        },
        {
          "internalType": "uint256",
          "name": "price",
          "type": "uint256"
        },
        {
          "internalType": "uint256",
          "name": "score",
          "type": "uint256"
        },
        {
          "internalType": "string",
          "name": "username",
          "type": "string"
        },
        {
          "internalType": "string",
          "name": "userId",
          "type": "string"
        },
        {
          "internalType": "bool",
          "name": "needsUpdate",
          "type": "bool"
        },
        {
          "internalType": "string",
          "name": "newUsername",
          "type": "string"
        },
        {
          "internalType": "uint256",
          "name": "newPrice",
          "type": "uint256"
        },
        {
          "internalType": "uint256",
          "name": "newScore",
          "type": "uint256"
        },
        {
          "internalType": "uint256",
          "name": "lastUpdated",
          "type": "uint256"
        }
      ],
      "stateMutability": "view",
      "type": "function",
      "constant": true
    },
    {
      "inputs": [
        {
          "internalType": "uint256",
          "name": "",
          "type": "uint256"
        }
      ],
      "name": "holders",
      "outputs": [
        {
          "internalType": "address",
          "name": "",
          "type": "address"
        }
      ],
      "stateMutability": "view",
      "type": "function",
      "constant": true
    },
    {
      "inputs": [
        {
          "internalType": "address",
          "name": "spender",
          "type": "address"
        },
        {
          "internalType": "uint256",
          "name": "addedValue",
          "type": "uint256"
        }
      ],
      "name": "increaseAllowance",
      "outputs": [
        {
          "internalType": "bool",
          "name": "",
          "type": "bool"
        }
      ],
      "stateMutability": "nonpayable",
      "type": "function"
    },
    {
      "inputs": [],
      "name": "lastAdminElection",
      "outputs": [
        {
          "internalType": "uint256",
          "name": "",
          "type": "uint256"
        }
      ],
      "stateMutability": "view",
      "type": "function",
      "constant": true
    },
    {
      "inputs": [],
      "name": "lastPayoutCycle",
      "outputs": [
        {
          "internalType": "uint256",
          "name": "",
          "type": "uint256"
        }
      ],
      "stateMutability": "view",
      "type": "function",
      "constant": true
    },
    {
      "inputs": [],
      "name": "lastVotedFeeRateAppliedOn",
      "outputs": [
        {
          "internalType": "uint256",
          "name": "",
          "type": "uint256"
        }
      ],
      "stateMutability": "view",
      "type": "function",
      "constant": true
    },
    {
      "inputs": [
        {
          "internalType": "uint256",
          "name": "",
          "type": "uint256"
        }
      ],
      "name": "latestAdminElections",
      "outputs": [
        {
          "internalType": "address",
          "name": "",
          "type": "address"
        }
      ],
      "stateMutability": "view",
      "type": "function",
      "constant": true
    },
    {
      "inputs": [],
      "name": "name",
      "outputs": [
        {
          "internalType": "string",
          "name": "",
          "type": "string"
        }
      ],
      "stateMutability": "view",
      "type": "function",
      "constant": true
    },
    {
      "inputs": [],
      "name": "owner",
      "outputs": [
        {
          "internalType": "address",
          "name": "",
          "type": "address"
        }
      ],
      "stateMutability": "view",
      "type": "function",
      "constant": true
    },
    {
      "inputs": [],
      "name": "payoutsRemaining",
      "outputs": [
        {
          "internalType": "uint256",
          "name": "",
          "type": "uint256"
        }
      ],
      "stateMutability": "view",
      "type": "function",
      "constant": true
    },
    {
      "inputs": [],
      "name": "payoutsTotal",
      "outputs": [
        {
          "internalType": "uint256",
          "name": "",
          "type": "uint256"
        }
      ],
      "stateMutability": "view",
      "type": "function",
      "constant": true
    },
    {
      "inputs": [],
      "name": "renounceOwnership",
      "outputs": [],
      "stateMutability": "nonpayable",
      "type": "function"
    },
    {
      "inputs": [
        {
          "internalType": "address",
          "name": "",
          "type": "address"
        }
      ],
      "name": "submittedAdminVotes",
      "outputs": [
        {
          "internalType": "uint256",
          "name": "votes",
          "type": "uint256"
        },
        {
          "internalType": "address",
          "name": "candidate",
          "type": "address"
        },
        {
          "internalType": "uint256",
          "name": "cycle",
          "type": "uint256"
        },
        {
          "internalType": "bool",
          "name": "vested",
          "type": "bool"
        }
      ],
      "stateMutability": "view",
      "type": "function",
      "constant": true
    },
    {
      "inputs": [],
      "name": "symbol",
      "outputs": [
        {
          "internalType": "string",
          "name": "",
          "type": "string"
        }
      ],
      "stateMutability": "view",
      "type": "function",
      "constant": true
    },
    {
      "inputs": [
        {
          "internalType": "uint256",
          "name": "",
          "type": "uint256"
        }
      ],
      "name": "topics",
      "outputs": [
        {
          "internalType": "string",
          "name": "",
          "type": "string"
        }
      ],
      "stateMutability": "view",
      "type": "function",
      "constant": true
    },
    {
      "inputs": [],
      "name": "totalSupply",
      "outputs": [
        {
          "internalType": "uint256",
          "name": "",
          "type": "uint256"
        }
      ],
      "stateMutability": "view",
      "type": "function",
      "constant": true
    },
    {
      "inputs": [
        {
          "internalType": "address",
          "name": "",
          "type": "address"
        }
      ],
      "name": "trackedHolders",
      "outputs": [
        {
          "internalType": "bool",
          "name": "",
          "type": "bool"
        }
      ],
      "stateMutability": "view",
      "type": "function",
      "constant": true
    },
    {
      "inputs": [
        {
          "internalType": "address",
          "name": "to",
          "type": "address"
        },
        {
          "internalType": "uint256",
          "name": "amount",
          "type": "uint256"
        }
      ],
      "name": "transfer",
      "outputs": [
        {
          "internalType": "bool",
          "name": "",
          "type": "bool"
        }
      ],
      "stateMutability": "nonpayable",
      "type": "function"
    },
    {
      "inputs": [
        {
          "internalType": "address",
          "name": "from",
          "type": "address"
        },
        {
          "internalType": "address",
          "name": "to",
          "type": "address"
        },
        {
          "internalType": "uint256",
          "name": "amount",
          "type": "uint256"
        }
      ],
      "name": "transferFrom",
      "outputs": [
        {
          "internalType": "bool",
          "name": "",
          "type": "bool"
        }
      ],
      "stateMutability": "nonpayable",
      "type": "function"
    },
    {
      "inputs": [
        {
          "internalType": "address",
          "name": "newOwner",
          "type": "address"
        }
      ],
      "name": "transferOwnership",
      "outputs": [],
      "stateMutability": "nonpayable",
      "type": "function"
    },
    {
      "inputs": [],
      "name": "vestedAdminVotesTotal",
      "outputs": [
        {
          "internalType": "uint256",
          "name": "",
          "type": "uint256"
        }
      ],
      "stateMutability": "view",
      "type": "function",
      "constant": true
    },
    {
      "inputs": [],
      "name": "votedFeeRate",
      "outputs": [
        {
          "internalType": "uint256",
          "name": "",
          "type": "uint256"
        }
      ],
      "stateMutability": "view",
      "type": "function",
      "constant": true
    },
    {
      "inputs": [],
      "name": "votedFeeRateVoteCount",
      "outputs": [
        {
          "internalType": "uint256",
          "name": "",
          "type": "uint256"
        }
      ],
      "stateMutability": "view",
      "type": "function",
      "constant": true
    },
    {
      "inputs": [],
      "name": "getHandles",
      "outputs": [
        {
          "components": [
            {
              "internalType": "uint256",
              "name": "id",
              "type": "uint256"
            },
            {
              "internalType": "uint256",
              "name": "accountId",
              "type": "uint256"
            },
            {
              "internalType": "enum Asami.Site",
              "name": "site",
              "type": "uint8"
            },
            {
              "internalType": "uint256",
              "name": "price",
              "type": "uint256"
            },
            {
              "internalType": "uint256",
              "name": "score",
              "type": "uint256"
            },
            {
              "internalType": "uint256[]",
              "name": "topics",
              "type": "uint256[]"
            },
            {
              "internalType": "string",
              "name": "username",
              "type": "string"
            },
            {
              "internalType": "string",
              "name": "userId",
              "type": "string"
            },
            {
              "internalType": "bool",
              "name": "needsUpdate",
              "type": "bool"
            },
            {
              "internalType": "string",
              "name": "newUsername",
              "type": "string"
            },
            {
              "internalType": "uint256",
              "name": "newPrice",
              "type": "uint256"
            },
            {
              "internalType": "uint256",
              "name": "newScore",
              "type": "uint256"
            },
            {
              "internalType": "uint256[]",
              "name": "newTopics",
              "type": "uint256[]"
            },
            {
              "internalType": "uint256",
              "name": "lastUpdated",
              "type": "uint256"
            }
          ],
          "internalType": "struct Asami.Handle[]",
          "name": "",
          "type": "tuple[]"
        }
      ],
      "stateMutability": "view",
      "type": "function",
      "constant": true
    },
    {
      "inputs": [],
      "name": "getCampaigns",
      "outputs": [
        {
          "components": [
            {
              "internalType": "uint256",
              "name": "id",
              "type": "uint256"
            },
            {
              "internalType": "uint256",
              "name": "accountId",
              "type": "uint256"
            },
            {
              "internalType": "enum Asami.Site",
              "name": "site",
              "type": "uint8"
            },
            {
              "internalType": "uint256",
              "name": "budget",
              "type": "uint256"
            },
            {
              "internalType": "uint256",
              "name": "remaining",
              "type": "uint256"
            },
            {
              "internalType": "string",
              "name": "contentId",
              "type": "string"
            },
            {
              "internalType": "uint256",
              "name": "priceScoreRatio",
              "type": "uint256"
            },
            {
              "internalType": "uint256[]",
              "name": "topics",
              "type": "uint256[]"
            },
            {
              "internalType": "uint256",
              "name": "validUntil",
              "type": "uint256"
            },
            {
              "internalType": "bool",
              "name": "fundedByAdmin",
              "type": "bool"
            }
          ],
          "internalType": "struct Asami.Campaign[]",
          "name": "",
          "type": "tuple[]"
        }
      ],
      "stateMutability": "view",
      "type": "function",
      "constant": true
    },
    {
      "inputs": [],
      "name": "allAdminVoteCounts",
      "outputs": [
        {
          "components": [
            {
              "internalType": "uint256",
              "name": "votes",
              "type": "uint256"
            },
            {
              "internalType": "address",
              "name": "candidate",
              "type": "address"
            }
          ],
          "internalType": "struct Asami.AdminVoteCount[]",
          "name": "",
          "type": "tuple[]"
        }
      ],
      "stateMutability": "view",
      "type": "function",
      "constant": true
    },
    {
      "inputs": [],
      "name": "getLatestAdminElections",
      "outputs": [
        {
          "internalType": "address[3]",
          "name": "",
          "type": "address[3]"
        }
      ],
      "stateMutability": "view",
      "type": "function",
      "constant": true
    },
    {
      "inputs": [
        {
          "internalType": "address",
          "name": "_admin",
          "type": "address"
        },
        {
          "internalType": "address",
          "name": "_adminTreasury",
          "type": "address"
        }
      ],
      "name": "setAdmin",
      "outputs": [],
      "stateMutability": "nonpayable",
      "type": "function"
    },
    {
      "inputs": [],
      "name": "getHolders",
      "outputs": [
        {
          "internalType": "address[]",
          "name": "",
          "type": "address[]"
        }
      ],
      "stateMutability": "view",
      "type": "function",
      "constant": true
    },
    {
      "inputs": [],
      "name": "getClaimedAsamiTokens",
      "outputs": [
        {
          "internalType": "uint256",
          "name": "",
          "type": "uint256"
        }
      ],
      "stateMutability": "view",
      "type": "function",
      "constant": true
    },
    {
      "inputs": [],
      "name": "getTopics",
      "outputs": [
        {
          "internalType": "string[]",
          "name": "",
          "type": "string[]"
        }
      ],
      "stateMutability": "view",
      "type": "function",
      "constant": true
    },
    {
      "inputs": [
        {
          "internalType": "string[]",
          "name": "_names",
          "type": "string[]"
        }
      ],
      "name": "adminAddTopics",
      "outputs": [],
      "stateMutability": "nonpayable",
      "type": "function"
    },
    {
      "inputs": [
        {
          "components": [
            {
              "internalType": "uint256",
              "name": "accountId",
              "type": "uint256"
            },
            {
              "internalType": "address",
              "name": "addr",
              "type": "address"
            }
          ],
          "internalType": "struct Asami.AdminClaimAccountsInput[]",
          "name": "_input",
          "type": "tuple[]"
        }
      ],
      "name": "claimAccounts",
      "outputs": [],
      "stateMutability": "nonpayable",
      "type": "function"
    },
    {
      "inputs": [
        {
          "components": [
            {
              "internalType": "uint256",
              "name": "id",
              "type": "uint256"
            },
            {
              "internalType": "uint256",
              "name": "accountId",
              "type": "uint256"
            },
            {
              "internalType": "enum Asami.Site",
              "name": "site",
              "type": "uint8"
            },
            {
              "internalType": "uint256",
              "name": "price",
              "type": "uint256"
            },
            {
              "internalType": "uint256",
              "name": "score",
              "type": "uint256"
            },
            {
              "internalType": "uint256[]",
              "name": "topics",
              "type": "uint256[]"
            },
            {
              "internalType": "string",
              "name": "username",
              "type": "string"
            },
            {
              "internalType": "string",
              "name": "userId",
              "type": "string"
            },
            {
              "internalType": "bool",
              "name": "needsUpdate",
              "type": "bool"
            },
            {
              "internalType": "string",
              "name": "newUsername",
              "type": "string"
            },
            {
              "internalType": "uint256",
              "name": "newPrice",
              "type": "uint256"
            },
            {
              "internalType": "uint256",
              "name": "newScore",
              "type": "uint256"
            },
            {
              "internalType": "uint256[]",
              "name": "newTopics",
              "type": "uint256[]"
            },
            {
              "internalType": "uint256",
              "name": "lastUpdated",
              "type": "uint256"
            }
          ],
          "internalType": "struct Asami.Handle[]",
          "name": "_inputs",
          "type": "tuple[]"
        }
      ],
      "name": "adminMakeHandles",
      "outputs": [],
      "stateMutability": "nonpayable",
      "type": "function"
    },
    {
      "inputs": [
        {
          "components": [
            {
              "internalType": "enum Asami.Site",
              "name": "site",
              "type": "uint8"
            },
            {
              "internalType": "uint256",
              "name": "budget",
              "type": "uint256"
            },
            {
              "internalType": "string",
              "name": "contentId",
              "type": "string"
            },
            {
              "internalType": "uint256",
              "name": "priceScoreRatio",
              "type": "uint256"
            },
            {
              "internalType": "uint256[]",
              "name": "topics",
              "type": "uint256[]"
            },
            {
              "internalType": "uint256",
              "name": "validUntil",
              "type": "uint256"
            }
          ],
          "internalType": "struct Asami.CampaignInput[]",
          "name": "_inputs",
          "type": "tuple[]"
        }
      ],
      "name": "makeCampaigns",
      "outputs": [],
      "stateMutability": "nonpayable",
      "type": "function"
    },
    {
      "inputs": [
        {
          "components": [
            {
              "internalType": "uint256",
              "name": "accountId",
              "type": "uint256"
            },
            {
              "components": [
                {
                  "internalType": "enum Asami.Site",
                  "name": "site",
                  "type": "uint8"
                },
                {
                  "internalType": "uint256",
                  "name": "budget",
                  "type": "uint256"
                },
                {
                  "internalType": "string",
                  "name": "contentId",
                  "type": "string"
                },
                {
                  "internalType": "uint256",
                  "name": "priceScoreRatio",
                  "type": "uint256"
                },
                {
                  "internalType": "uint256[]",
                  "name": "topics",
                  "type": "uint256[]"
                },
                {
                  "internalType": "uint256",
                  "name": "validUntil",
                  "type": "uint256"
                }
              ],
              "internalType": "struct Asami.CampaignInput",
              "name": "attrs",
              "type": "tuple"
            }
          ],
          "internalType": "struct Asami.AdminCampaignInput[]",
          "name": "_inputs",
          "type": "tuple[]"
        }
      ],
      "name": "adminMakeCampaigns",
      "outputs": [],
      "stateMutability": "nonpayable",
      "type": "function"
    },
    {
      "inputs": [
        {
          "components": [
            {
              "internalType": "uint256",
              "name": "campaignId",
              "type": "uint256"
            },
            {
              "internalType": "uint256",
              "name": "handleId",
              "type": "uint256"
            }
          ],
          "internalType": "struct Asami.AdminMakeCollabsInput[]",
          "name": "_collabs",
          "type": "tuple[]"
        }
      ],
      "name": "adminMakeCollabs",
      "outputs": [],
      "stateMutability": "nonpayable",
      "type": "function"
    },
    {
      "inputs": [
        {
          "internalType": "uint256[]",
          "name": "_campaignIds",
          "type": "uint256[]"
        }
      ],
      "name": "reimburseDueCampaigns",
      "outputs": [],
      "stateMutability": "nonpayable",
      "type": "function"
    },
    {
      "inputs": [
        {
          "components": [
            {
              "internalType": "uint256",
              "name": "handleId",
              "type": "uint256"
            },
            {
              "internalType": "uint256",
              "name": "price",
              "type": "uint256"
            }
          ],
          "internalType": "struct Asami.AdminSetPriceInput[]",
          "name": "_inputs",
          "type": "tuple[]"
        }
      ],
      "name": "adminSetPrice",
      "outputs": [],
      "stateMutability": "nonpayable",
      "type": "function"
    },
    {
      "inputs": [
        {
          "internalType": "uint256",
          "name": "_handleId",
          "type": "uint256"
        },
        {
          "internalType": "uint256",
          "name": "_price",
          "type": "uint256"
        }
      ],
      "name": "setPrice",
      "outputs": [],
      "stateMutability": "nonpayable",
      "type": "function"
    },
    {
      "inputs": [
        {
          "components": [
            {
              "internalType": "uint256",
              "name": "handleId",
              "type": "uint256"
            },
            {
              "internalType": "uint256",
              "name": "score",
              "type": "uint256"
            },
            {
              "internalType": "uint256[]",
              "name": "topics",
              "type": "uint256[]"
            }
          ],
          "internalType": "struct Asami.AdminSetScoreAndTopicsInput[]",
          "name": "_inputs",
          "type": "tuple[]"
        }
      ],
      "name": "adminSetScoreAndTopics",
      "outputs": [],
      "stateMutability": "nonpayable",
      "type": "function"
    },
    {
      "inputs": [],
      "name": "getCycleLength",
      "outputs": [
        {
          "internalType": "uint256",
          "name": "",
          "type": "uint256"
        }
      ],
      "stateMutability": "pure",
      "type": "function",
      "constant": true
    },
    {
      "inputs": [],
      "name": "getCurrentCycle",
      "outputs": [
        {
          "internalType": "uint256",
          "name": "",
          "type": "uint256"
        }
      ],
      "stateMutability": "view",
      "type": "function",
      "constant": true
    },
    {
      "inputs": [],
      "name": "getNextCycle",
      "outputs": [
        {
          "internalType": "uint256",
          "name": "",
          "type": "uint256"
        }
      ],
      "stateMutability": "view",
      "type": "function",
      "constant": true
    },
    {
      "inputs": [],
      "name": "distributeFeePool",
      "outputs": [],
      "stateMutability": "nonpayable",
      "type": "function"
    },
    {
      "inputs": [
        {
          "internalType": "uint256[]",
          "name": "_indexes",
          "type": "uint256[]"
        }
      ],
      "name": "applyHandleUpdates",
      "outputs": [],
      "stateMutability": "nonpayable",
      "type": "function"
    },
    {
      "inputs": [],
      "name": "applyVotedFeeRate",
      "outputs": [],
      "stateMutability": "nonpayable",
      "type": "function"
    },
    {
      "inputs": [
        {
          "internalType": "uint256",
          "name": "_rate",
          "type": "uint256"
        }
      ],
      "name": "submitFeeRateVote",
      "outputs": [],
      "stateMutability": "nonpayable",
      "type": "function"
    },
    {
      "inputs": [],
      "name": "removeFeeRateVote",
      "outputs": [],
      "stateMutability": "nonpayable",
      "type": "function"
    },
    {
      "inputs": [
        {
          "internalType": "address",
          "name": "_candidate",
          "type": "address"
        }
      ],
      "name": "submitAdminVote",
      "outputs": [],
      "stateMutability": "nonpayable",
      "type": "function"
    },
    {
      "inputs": [
        {
          "internalType": "address[]",
          "name": "_holders",
          "type": "address[]"
        }
      ],
      "name": "vestAdminVotes",
      "outputs": [],
      "stateMutability": "nonpayable",
      "type": "function"
    },
    {
      "inputs": [
        {
          "internalType": "address",
          "name": "_candidate",
          "type": "address"
        }
      ],
      "name": "proclaimCycleAdminWinner",
      "outputs": [],
      "stateMutability": "nonpayable",
      "type": "function"
    },
    {
      "inputs": [],
      "name": "removeAdminVote",
      "outputs": [],
      "stateMutability": "nonpayable",
      "type": "function"
    },
    {
      "inputs": [
        {
          "internalType": "address",
          "name": "_admin",
          "type": "address"
        }
      ],
      "name": "setAdminAddress",
      "outputs": [],
      "stateMutability": "nonpayable",
      "type": "function"
    },
    {
      "inputs": [
        {
          "internalType": "uint256[]",
          "name": "mainSet",
          "type": "uint256[]"
        },
        {
          "internalType": "uint256[]",
          "name": "subset",
          "type": "uint256[]"
        }
      ],
      "name": "isSubset",
      "outputs": [
        {
          "internalType": "bool",
          "name": "",
          "type": "bool"
        }
      ],
      "stateMutability": "pure",
      "type": "function",
      "constant": true
    }
  ],
  "bytecode": "0x60a0604052678ac7230489e80000600c55600c54600d55600c54600e556000600f556000601055600060225560006023556000602455600060255560646026553480156200004c57600080fd5b5060405162005e6538038062005e658339810160408190526200006f91620001c8565b6a115eec47f6cf7e350000006040518060400160405280600a81526020016920b9b0b6b4aa37b5b2b760b11b815250604051806040016040528060058152602001644153414d4960d81b815250620000d6620000d06200017460201b60201c565b62000178565b6004620000e483826200029f565b506005620000f382826200029f565b505050600081116200014b5760405162461bcd60e51b815260206004820152601560248201527f45524332304361707065643a2063617020697320300000000000000000000000604482015260640160405180910390fd5b608052601b80546001600160a01b0319166001600160a01b03929092169190911790556200036b565b3390565b600080546001600160a01b038381166001600160a01b0319831681178455604051919092169283917f8be0079c531659141344cd1fd0a4f28419497f9722a3daafe3b4186f6b6457e09190a35050565b600060208284031215620001db57600080fd5b81516001600160a01b0381168114620001f357600080fd5b9392505050565b634e487b7160e01b600052604160045260246000fd5b600181811c908216806200022557607f821691505b6020821081036200024657634e487b7160e01b600052602260045260246000fd5b50919050565b601f8211156200029a57600081815260208120601f850160051c81016020861015620002755750805b601f850160051c820191505b81811015620002965782815560010162000281565b5050505b505050565b81516001600160401b03811115620002bb57620002bb620001fa565b620002d381620002cc845462000210565b846200024c565b602080601f8311600181146200030b5760008415620002f25750858301515b600019600386901b1c1916600185901b17855562000296565b600085815260208120601f198616915b828110156200033c578886015182559484019460019091019084016200031b565b50858210156200035b5787850151600019600388901b60f8161c191681555b5050505050600190811b01905550565b608051615ade620003876000396000610cca0152615ade6000f3fe608060405234801561001057600080fd5b506004361061036f5760003560e01c806306fdde031461037457806307d3345514610392578063095ea7b3146103a9578063141961bc146103cc5780631677aa3d146103f457806318160ddd146103fd57806318d9adab146104055780631b06cfbc1461041857806323b872dd1461044357806325076468146104565780632a11ced01461045f5780632c1e816d14610472578063313ce5671461048757806333c24bd314610496578063355274ea146104a957806339509351146104b15780633ca75e56146104c45780633ec62c0b146104d7578063402c5133146104ea578063419a7c5d146104fd5780634259d8a21461051257806346c33dd51461051b5780634969a9691461052e5780634ba593c6146105375780634bd38e261461054a57806358cea7d21461056a5780635d03e4871461057d5780635e613423146105905780635fe8e7cc146105995780636717d7a8146105ae57806368841a46146105ce5780636b6a4ad0146105d75780636f1c7617146105fa57806370a0823114610602578063715018a61461061557806379dec48b1461061d5780637d98e20f1461062557806381b08a8e1461064b57806381d036f514610654578063894d71e1146106905780638b69633d146106a35780638bec13cf146106b65780638da5cb5b146106bf57806390537d1f146106c75780639314b214146106da57806395d89b41146106e357806396cad0db146106eb578063978bbdb9146106fe5780639938e929146107075780639bd40aee1461071a5780639dfceaaa1461072d578063a457c2d714610740578063a6b0363314610753578063a9059cbb14610768578063ae2e933b1461077b578063be26ed7f14610784578063c3d03cd41461078c578063c55b6bb7146107a1578063cdada3b6146107b4578063d0b0ce95146107c9578063d8c44f50146107d1578063dbc5bdc4146107d9578063dd62ed3e146107ec578063e4c1be2e146107ff578063ec8b436c14610808578063f1a12cbc14610874578063f2a40db81461087d578063f2fde38b146108e4578063f3401bc3146108f7578063f398c2411461090a578063f4daaba114610912578063f7d975771461091b578063f851a4401461092e578063fa7fb4d814610941578063fdb265b014610971578063fee011771461099c578063ff3f1886146109b1575b600080fd5b61037c6109b9565b6040516103899190614521565b60405180910390f35b61039b600c5481565b604051908152602001610389565b6103bc6103b7366004614557565b610a4b565b6040519015158152602001610389565b6103df6103da366004614581565b610a65565b604051610389999897969594939291906145d2565b61039b60205481565b60035461039b565b61037c610413366004614581565b610b54565b61042b610426366004614581565b610c00565b6040516001600160a01b039091168152602001610389565b6103bc610451366004614630565b610c20565b61039b60225481565b61042b61046d366004614581565b610c44565b61048561048036600461466c565b610c6e565b005b60405160128152602001610389565b61039b6104a4366004614581565b610ca7565b61039b610cc8565b6103bc6104bf366004614557565b610cec565b6104856104d23660046146d2565b610d0e565b6104856104e53660046146d2565b610f52565b6104856104f8366004614757565b6110a2565b6105056112a3565b604051610389919061478c565b6213c68061039b565b6104856105293660046146d2565b6112e8565b61039b60255481565b610485610545366004614757565b61142d565b61039b61055836600461466c565b60146020526000908152604090205481565b6104856105783660046146d2565b611531565b61048561058b36600461466c565b6116a1565b61039b600e5481565b6105a161184a565b60405161038991906147c6565b61039b6105bc36600461466c565b60086020526000908152604090205481565b61039b60105481565b6103bc6105e536600461466c565b601d6020526000908152604090205460ff1681565b6104856118aa565b61039b61061036600461466c565b6118cf565b6104856118ea565b61039b6118fe565b610638610633366004614581565b61191b565b6040516103899796959493929190614813565b61039b60245481565b61067b61066236600461466c565b6011602052600090815260409020805460019091015482565b60408051928352602083019190915201610389565b61048561069e3660046146d2565b6119f5565b6103bc6106b1366004614945565b611b2a565b61039b60165481565b61042b611bc6565b6104856106d53660046146d2565b611bd5565b61039b600f5481565b61037c611d33565b601f5461042b906001600160a01b031681565b61039b600d5481565b610485610715366004614757565b611d42565b6104856107283660046146d2565b6125a3565b61048561073b366004614581565b612825565b6103bc61074e366004614557565b612938565b61075b6129b3565b6040516103899190614a85565b6103bc610776366004614557565b612b87565b61039b60215481565b61039b612b95565b610794612ba4565b6040516103899190614ae7565b6104856107af366004614c3a565b612ef3565b6107bc612f54565b6040516103899190614c6d565b610485612fc0565b61048561322a565b6104856107e73660046146d2565b613233565b61039b6107fa366004614c3a565b613331565b61039b60155481565b61084a61081636600461466c565b601260205260009081526040902080546001820154600283015460039093015491926001600160a01b039091169160ff1684565b604080519485526001600160a01b0390931660208501529183015215156060820152608001610389565b61039b60235481565b6108bc61088b366004614581565b600760205260009081526040902080546001820154600283015460039093015491926001600160a01b039091169184565b604080519485526001600160a01b039093166020850152918301526060820152608001610389565b6104856108f236600461466c565b61335c565b61048561090536600461466c565b6133d5565b61048561352b565b61039b60265481565b610485610929366004614cc5565b613534565b601e5461042b906001600160a01b031681565b61095461094f366004614581565b6135c2565b604080519283526001600160a01b03909116602083015201610389565b61098461097f366004614581565b6135f9565b6040516103899c9b9a99989796959493929190614ce7565b6109a461380e565b6040516103899190614d79565b60205461039b565b6060600480546109c890614dce565b80601f01602080910402602001604051908101604052809291908181526020018280546109f490614dce565b8015610a415780601f10610a1657610100808354040283529160200191610a41565b820191906000526020600020905b815481529060010190602001808311610a2457829003601f168201915b5050505050905090565b600033610a598185856138de565b60019150505b92915050565b600a8181548110610a7557600080fd5b60009182526020909120600a9091020180546001820154600283015460038401546004850154600586018054959750939560ff909316949193909291610aba90614dce565b80601f0160208091040260200160405190810160405280929190818152602001828054610ae690614dce565b8015610b335780601f10610b0857610100808354040283529160200191610b33565b820191906000526020600020905b815481529060010190602001808311610b1657829003601f168201915b50505050600683015460088401546009909401549293909290915060ff1689565b601a8181548110610b6457600080fd5b906000526020600020016000915090508054610b7f90614dce565b80601f0160208091040260200160405190810160405280929190818152602001828054610bab90614dce565b8015610bf85780601f10610bcd57610100808354040283529160200191610bf8565b820191906000526020600020905b815481529060010190602001808311610bdb57829003601f168201915b505050505081565b60178160038110610c1057600080fd5b01546001600160a01b0316905081565b600033610c2e858285613a02565b610c39858585613a76565b506001949350505050565b601c8181548110610c5457600080fd5b6000918252602090912001546001600160a01b0316905081565b601f546001600160a01b03163314610c8557600080fd5b601e80546001600160a01b0319166001600160a01b0392909216919091179055565b60068181548110610cb757600080fd5b600091825260209091200154905081565b7f000000000000000000000000000000000000000000000000000000000000000090565b600033610a59818585610cff8383613331565b610d099190614e1e565b6138de565b60005b81811015610f4d576000600a6001858585818110610d3157610d31614e31565b90506020020135610d429190614e47565b81548110610d5257610d52614e31565b90600052602060002090600a020190506000816000015411610da35760405162461bcd60e51b8152602060048201526005602482015264072646320360dc1b60448201526064015b60405180910390fd5b6000816004015411610ddf5760405162461bcd60e51b8152602060048201526005602482015264726463203160d81b6044820152606401610d9a565b42816008015410610e1a5760405162461bcd60e51b8152602060048201526005602482015264393231901960d91b6044820152606401610d9a565b600181015460009081526007602052604081206004830180549083905560098401549192909160ff16610e5a5760018301546001600160a01b0316610e67565b601e546001600160a01b03165b601b5460405163a9059cbb60e01b81529192506001600160a01b03169063a9059cbb90610e9a9084908690600401614e5a565b6020604051808303816000875af1158015610eb9573d6000803e3d6000fd5b505050506040513d601f19601f82011682018060405250810190610edd9190614e81565b610f115760405162461bcd60e51b8152602060048201526005602482015264726463203360d81b6044820152606401610d9a565b600080516020615a8983398151915284604051610f2e9190614f50565b60405180910390a1505050508080610f4590614ffd565b915050610d11565b505050565b601e546001600160a01b0316331480610f835750610f6e611bc6565b6001600160a01b0316336001600160a01b0316145b610f8c57600080fd5b60005b81811015610f4d57600060096001858585818110610faf57610faf614e31565b9050602002810190610fc19190615016565b610fcc919035614e47565b81548110610fdc57610fdc614e31565b90600052602060002090600e02019050838383818110610ffe57610ffe614e31565b90506020028101906110109190615016565b60200135600b82015583838381811061102b5761102b614e31565b905060200281019061103d9190615016565b61104b906040810190615036565b61105991600c8401916143e2565b5060088101805460ff19166001179055604051600080516020615a298339815191529061108790839061507f565b60405180910390a1508061109a81614ffd565b915050610f8f565b601e546001600160a01b03163314806110d357506110be611bc6565b6001600160a01b0316336001600160a01b0316145b6110dc57600080fd5b60005b81811015610f4d57368383838181106110fa576110fa614e31565b905060400201905061110f8160000135613c1a565b8035600090815260076020526040902060018101546001600160a01b03161561113757600080fd5b81356008600061114d604086016020870161466c565b6001600160a01b03166001600160a01b0316815260200190815260200160002081905550816020016020810190611184919061466c565b6001820180546001600160a01b0319166001600160a01b03929092169190911790556002810154156111d65760028101805460009091556111d46111ce604085016020860161466c565b82613c71565b505b600381015415611269576003810180546000909155601b54600183015460405163a9059cbb60e01b81526001600160a01b039283169263a9059cbb92611223929116908590600401614e5a565b6020604051808303816000875af1158015611242573d6000803e3d6000fd5b505050506040513d601f19601f820116820180604052508101906112669190614e81565b50505b600080516020615a4983398151915281604051611286919061518b565b60405180910390a15050808061129b90614ffd565b9150506110df565b6112ab61442d565b6040805160608101918290529060179060039082845b81546001600160a01b031681526001909101906020018083116112c1575050505050905090565b3360009081526008602090815260408083205483526007909152902060018101546001600160a01b03166113475760405162461bcd60e51b8152600401610d9a9060208082526004908201526306d6320360e41b604082015260600190565b60005b8281101561142757600084848381811061136657611366614e31565b90506020028101906113789190615213565b6113819061534d565b905061141483604051806101400160405280600a8054905060016113a59190614e1e565b815286546020820152845160409091019060048111156113c7576113c761459a565b815260200184602001518152602001846020015181526020018460400151815260200184606001518152602001846080015181526020018460a00151815260200160001515815250613cb8565b508061141f81614ffd565b91505061134a565b50505050565b601e546001600160a01b031633148061145e5750611449611bc6565b6001600160a01b0316336001600160a01b0316145b61146757600080fd5b60005b81811015610f4d5760006009600185858581811061148a5761148a614e31565b9050604002016000013561149e9190614e47565b815481106114ae576114ae614e31565b600091825260208083206001600e909302018281015484526007909152604090922090810154919250906001600160a01b03161580156114ee5750805415155b6114f757600080fd5b61151c8286868681811061150d5761150d614e31565b90506040020160200135613ece565b5050808061152990614ffd565b91505061146a565b601e546001600160a01b0316331480611562575061154d611bc6565b6001600160a01b0316336001600160a01b0316145b61156b57600080fd5b60005b81811015610f4d57600083838381811061158a5761158a614e31565b905060200281019061159c9190615359565b6115a59061536f565b90506115b48160000151613c1a565b8051600090815260076020526040902060018101546001600160a01b0316156115dc57600080fd5b61168c81604051806101400160405280600a8054905060016115fe9190614e1e565b81526020018460000154815260200185602001516000015160048111156116275761162761459a565b815260200185602001516020015181526020018560200151602001518152602001856020015160400151815260200185602001516060015181526020018560200151608001518152602001856020015160a00151815260200160011515815250613cb8565b5050808061169990614ffd565b91505061156e565b6001600160a01b038116600090815260146020526040902054806116c457600080fd5b600060136116d3600184614e47565b815481106116e3576116e3614e31565b90600052602060002090600202019050600260155461170291906153d9565b8154116117395760405162461bcd60e51b8152602060048201526005602482015264070637720360dc1b6044820152606401610d9a565b6000601554116117735760405162461bcd60e51b8152602060048201526005602482015264706377203160d81b6044820152606401610d9a565b600061177d612b95565b905080601654106117b85760405162461bcd60e51b81526020600482015260056024820152643831bb901960d91b6044820152606401610d9a565b601681905560188054601980546001600160a01b038084166001600160a01b031992831617909255601780548084169483168517909555931690871690811790925514801561181457506019546001600160a01b038581169116145b1561142757601e80546001600160a01b0386166001600160a01b03199182168117909255601f8054909116909117905550505050565b6060601c805480602002602001604051908101604052809291908181526020018280548015610a41576020028201919060005260206000209081546001600160a01b031681526001909101906020018083116112c1575050505050905090565b60006118b4612b95565b905060105481036118c457600080fd5b600e54600d55601055565b6001600160a01b031660009081526001602052604090205490565b6118f2613f0f565b6118fc6000613f6e565b565b60006213c68061190c612b95565b6119169190614e1e565b905090565b600b818154811061192b57600080fd5b906000526020600020906007020160009150905080600001549080600101549080600201549080600301549080600401549080600501805461196c90614dce565b80601f016020809104026020016040519081016040528092919081815260200182805461199890614dce565b80156119e55780601f106119ba576101008083540402835291602001916119e5565b820191906000526020600020905b8154815290600101906020018083116119c857829003601f168201915b5050505050908060060154905087565b601e546001600160a01b0316331480611a265750611a11611bc6565b6001600160a01b0316336001600160a01b0316145b611a2f57600080fd5b60005b81811015610f4d57611a6a838383818110611a4f57611a4f614e31565b9050602002810190611a6191906153fb565b60200135613c1a565b6009838383818110611a7e57611a7e614e31565b9050602002810190611a9091906153fb565b8154600181018355600092835260209092209091600e0201611ab28282615660565b50506009805460009190611ac890600190614e47565b81548110611ad857611ad8614e31565b60009182526020909120600954600e90920201908155604051909150600080516020615a2983398151915290611b0f90839061507f565b60405180910390a15080611b2281614ffd565b915050611a32565b6000805b8251811015611bbc576000805b8551811015611b9857858181518110611b5657611b56614e31565b6020026020010151858481518110611b7057611b70614e31565b602002602001015103611b865760019150611b98565b80611b9081614ffd565b915050611b3b565b5080611ba957600092505050610a5f565b5080611bb481614ffd565b915050611b2e565b5060019392505050565b6000546001600160a01b031690565b6000611bdf612b95565b905060005b828110156114275760006009858584818110611c0257611c02614e31565b9050602002013581548110611c1957611c19614e31565b90600052602060002090600e020190508281600d015403611c4c5760405162461bcd60e51b8152600401610d9a9061577b565b600881015460ff16611c705760405162461bcd60e51b8152600401610d9a9061577b565b60088101805460ff19169055600d810183905560098101805460009190611c9690614dce565b90501115611cb15760068101611caf600983018261579a565b505b600a81015415611cc657600a81015460038201555b600481015415611cdb57600b81015460048201555b600c81015415611cfb57600c81018054611cf991600584019161444b565b505b600080516020615a2983398151915281604051611d18919061507f565b60405180910390a15080611d2b81614ffd565b915050611be4565b6060600580546109c890614dce565b601e546001600160a01b0316331480611d735750611d5e611bc6565b6001600160a01b0316336001600160a01b0316145b611d7c57600080fd5b60005b81811015610f4d57600060096001858585818110611d9f57611d9f614e31565b90506040020160200135611db39190614e47565b81548110611dc357611dc3614e31565b90600052602060002090600e020190506000816000015411611e0b5760405162461bcd60e51b81526020600482015260016024820152603160f81b6044820152606401610d9a565b600180820154600090815260076020526040812091600a90878787818110611e3557611e35614e31565b90506040020160000135611e499190614e47565b81548110611e5957611e59614e31565b90600052602060002090600a020190506000816000015411611ea15760405162461bcd60e51b81526020600482015260016024820152603360f81b6044820152606401610d9a565b42816008015411611ed85760405162461bcd60e51b81526020600482015260016024820152600d60fa1b6044820152606401610d9a565b611f8683600501805480602002602001604051908101604052809291908181526020018280548015611f2957602002820191906000526020600020905b815481526020019060010190808311611f15575b505050505082600701805480602002602001604051908101604052809291908181526020018280548015611f7c57602002820191906000526020600020905b815481526020019060010190808311611f68575b5050505050611b2a565b611fb65760405162461bcd60e51b81526020600482015260016024820152603560f81b6044820152606401610d9a565b826003015481600401541015611ff25760405162461bcd60e51b81526020600482015260016024820152601b60f91b6044820152606401610d9a565b600283015460ff16600481111561200b5761200b61459a565b600282015460ff1660048111156120245761202461459a565b146120555760405162461bcd60e51b81526020600482015260016024820152603760f81b6044820152606401610d9a565b80600601548360040154846003015461206e91906153d9565b11156120a05760405162461bcd60e51b81526020600482015260016024820152600760fb1b6044820152606401610d9a565b600181015460009081526007602052604081206003850154600d549192909168056bc75e2d63100000906120d49084615450565b6120de91906153d9565b905060006120ec8284614e47565b905060006040518060e00160405280600b80549050600161210d9190614e1e565b8152895460208083019190915288546040808401919091526060808401899052608080850189905282518085018452600080825260a0808801929092524260c090970196909652600b80546001810182559652865160079096027f0175b7a638427703f0dbe7bb9bbf987a2551717b34e79f33b5b1008d1fa01db98101968755948701517f0175b7a638427703f0dbe7bb9bbf987a2551717b34e79f33b5b1008d1fa01dba860155928601517f0175b7a638427703f0dbe7bb9bbf987a2551717b34e79f33b5b1008d1fa01dbb850155908501517f0175b7a638427703f0dbe7bb9bbf987a2551717b34e79f33b5b1008d1fa01dbc8401558401517f0175b7a638427703f0dbe7bb9bbf987a2551717b34e79f33b5b1008d1fa01dbd83015583015192935083927f0175b7a638427703f0dbe7bb9bbf987a2551717b34e79f33b5b1008d1fa01dbe909101906122639082615870565b5060c091909101516006918201558151908801805460018101825560009182526020822001919091556004870180548692906122a0908490614e47565b9250508190555082602160008282546122b99190614e1e565b90915550506020546000906122cc610cc8565b6122d69190614e47565b905060008185116122e757846122e9565b815b905080602060008282546122fd9190614e1e565b909155506000905068056bc75e2d6310000061231a83600a615450565b61232c90670de0b6b3a7640000615450565b61233691906153d9565b9050600068056bc75e2d6310000061234f84600f615450565b61236190670de0b6b3a7640000615450565b61236b91906153d9565b905060008161237a8486614e47565b6123849190614e47565b905080156123a257601f546123a2906001600160a01b031682613c71565b60018c01546001600160a01b03166124185781156123d457818c60020160008282546123ce9190614e1e565b90915550505b868c60030160008282546123e89190614e1e565b9091555050604051600080516020615a498339815191529061240b908e9061518b565b60405180910390a16124b3565b81156124365760018c0154612436906001600160a01b031683613c71565b601b5460018d015460405163a9059cbb60e01b81526001600160a01b039283169263a9059cbb9261246e929116908b90600401614e5a565b6020604051808303816000875af115801561248d573d6000803e3d6000fd5b505050506040513d601f19601f820116820180604052508101906124b19190614e81565b505b82156125275760018a01546001600160a01b031661250f57828a60020160008282546124df9190614e1e565b9091555050604051600080516020615a4983398151915290612502908c9061518b565b60405180910390a1612527565b60018a0154612527906001600160a01b031684613c71565b7f163f215ebbfd927d87234e39d082b1b03b551dadbca611aab6568ee11a75e8d7866040516125569190615921565b60405180910390a1600080516020615a898339815191528b60405161257b9190614f50565b60405180910390a150505050505050505050505050808061259b90614ffd565b915050611d7f565b60006125ad612b95565b905060005b82811015611427576000601260008686858181106125d2576125d2614e31565b90506020020160208101906125e7919061466c565b6001600160a01b03166001600160a01b03168152602001908152602001600020905060008160020154116126455760405162461bcd60e51b8152602060048201526005602482015264076617620360dc1b6044820152606401610d9a565b828160020154106126805760405162461bcd60e51b8152602060048201526005602482015264766176203160d81b6044820152606401610d9a565b600381015460ff16156126bd5760405162461bcd60e51b81526020600482015260056024820152643b30bb101960d91b6044820152606401610d9a565b60038101805460ff191660011790558054601580546000906126e0908490614e1e565b909155505060018101546001600160a01b0316600090815260146020526040902054801561275b5760006013612717600184614e47565b8154811061272757612727614e31565b90600052602060002090600202019050826000015481600001600082825461274f9190614e1e565b909155506127eb915050565b6013805460018181018355845460029092027f66de8ffda797e3de9c05e8fc57b3bf0ec28a930d40b0d285d93c06501cf6a090810192909255840180547f66de8ffda797e3de9c05e8fc57b3bf0ec28a930d40b0d285d93c06501cf6a09190920180546001600160a01b0319166001600160a01b0393841617905591549154166000908152601460205260409020555b600080516020615a09833981519152826040516128089190615986565b60405180910390a15050808061281d90614ffd565b9150506125b2565b60008111801561283d575068056bc75e2d6310000081105b6128725760405162461bcd60e51b815260206004820152600660248201526507366727620360d41b6044820152606401610d9a565b3360009081526011602052604090208054156128915761289133613fbe565b600061289c336118cf565b9050600081116128d75760405162461bcd60e51b815260206004820152600660248201526573667276203160d01b6044820152606401610d9a565b80600f546128e59190614e1e565b6128ef8483615450565b600f54600e546128ff9190615450565b6129099190614e1e565b61291391906153d9565b600e8190555080600f600082825461292b9190614e1e565b9091555050815560010155565b600033816129468286613331565b9050838110156129a65760405162461bcd60e51b815260206004820152602560248201527f45524332303a2064656372656173656420616c6c6f77616e63652062656c6f77604482015264207a65726f60d81b6064820152608401610d9a565b610c3982868684036138de565b6060600a805480602002602001604051908101604052809291908181526020016000905b82821015612b7e57838290600052602060002090600a02016040518061014001604052908160008201548152602001600182015481526020016002820160009054906101000a900460ff166004811115612a3357612a3361459a565b6004811115612a4457612a4461459a565b81526020016003820154815260200160048201548152602001600582018054612a6c90614dce565b80601f0160208091040260200160405190810160405280929190818152602001828054612a9890614dce565b8015612ae55780601f10612aba57610100808354040283529160200191612ae5565b820191906000526020600020905b815481529060010190602001808311612ac857829003601f168201915b505050505081526020016006820154815260200160078201805480602002602001604051908101604052809291908181526020018280548015612b4757602002820191906000526020600020905b815481526020019060010190808311612b33575b5050509183525050600882015460208083019190915260099092015460ff16151560409091015290825260019290920191016129d7565b50505050905090565b600033610a59818585613a76565b60006119166213c680426153d9565b60606009805480602002602001604051908101604052809291908181526020016000905b82821015612b7e57838290600052602060002090600e0201604051806101c001604052908160008201548152602001600182015481526020016002820160009054906101000a900460ff166004811115612c2457612c2461459a565b6004811115612c3557612c3561459a565b8152602001600382015481526020016004820154815260200160058201805480602002602001604051908101604052809291908181526020018280548015612c9c57602002820191906000526020600020905b815481526020019060010190808311612c88575b50505050508152602001600682018054612cb590614dce565b80601f0160208091040260200160405190810160405280929190818152602001828054612ce190614dce565b8015612d2e5780601f10612d0357610100808354040283529160200191612d2e565b820191906000526020600020905b815481529060010190602001808311612d1157829003601f168201915b50505050508152602001600782018054612d4790614dce565b80601f0160208091040260200160405190810160405280929190818152602001828054612d7390614dce565b8015612dc05780601f10612d9557610100808354040283529160200191612dc0565b820191906000526020600020905b815481529060010190602001808311612da357829003601f168201915b5050509183525050600882015460ff1615156020820152600982018054604090920191612dec90614dce565b80601f0160208091040260200160405190810160405280929190818152602001828054612e1890614dce565b8015612e655780601f10612e3a57610100808354040283529160200191612e65565b820191906000526020600020905b815481529060010190602001808311612e4857829003601f168201915b50505050508152602001600a8201548152602001600b8201548152602001600c8201805480602002602001604051908101604052809291908181526020018280548015612ed157602002820191906000526020600020905b815481526020019060010190808311612ebd575b50505050508152602001600d8201548152505081526020019060010190612bc8565b612efb613f0f565b601e546001600160a01b0316158015612f1d5750601f546001600160a01b0316155b612f2657600080fd5b601e80546001600160a01b039384166001600160a01b031991821617909155601f8054929093169116179055565b60606013805480602002602001604051908101604052809291908181526020016000905b82821015612b7e5760008481526020908190206040805180820190915260028502909101805482526001908101546001600160a01b0316828401529083529092019101612f78565b6000612fcb60035490565b90506000612fd7612b95565b9050600082116130115760405162461bcd60e51b8152602060048201526005602482015264064667020360dc1b6044820152606401610d9a565b6025548114158061302457506000602254115b6130585760405162461bcd60e51b8152602060048201526005602482015264646670203160d81b6044820152606401610d9a565b6021546000036130685760255550565b60225460000361308957601c54602381905560215460245560225560258190555b600060225460235461309b9190614e47565b90506000602254602654116130bc576026546130b79083614e1e565b6130c9565b6022546130c99083614e1e565b60245460225491925090835b83811015613207576000601c82815481106130f2576130f2614e31565b60009182526020822001546001600160a01b03169150613111826118cf565b9050600089602154836131249190615450565b61312e91906153d9565b905061313a8187614e47565b9550613147600186614e47565b601b5460405163a9059cbb60e01b81529196506001600160a01b03169063a9059cbb9061317a9086908590600401614e5a565b6020604051808303816000875af1158015613199573d6000803e3d6000fd5b505050506040513d601f19601f820116820180604052508101906131bd9190614e81565b6131f15760405162461bcd60e51b8152602060048201526005602482015264646670203360d81b6044820152606401610d9a565b50505080806131ff90614ffd565b9150506130d5565b50602482905560228190556000819003613222576024546021555b505050505050565b6118fc33613fbe565b601e546001600160a01b0316331480613264575061324f611bc6565b6001600160a01b0316336001600160a01b0316145b61326d57600080fd5b60005b81811015610f4d57601a83838381811061328c5761328c614e31565b905060200281019061329e91906154ff565b825460018101845560009384526020909320909201916132be918361559a565b50601a547f08581e03117d96ad4b36d978f525bfe879526d97ffb59cecf67eb24a801e03cf908484848181106132f6576132f6614e31565b905060200281019061330891906154ff565b604051613317939291906159bf565b60405180910390a18061332981614ffd565b915050613270565b6001600160a01b03918216600090815260026020908152604080832093909416825291909152205490565b613364613f0f565b6001600160a01b0381166133c95760405162461bcd60e51b815260206004820152602660248201527f4f776e61626c653a206e6577206f776e657220697320746865207a65726f206160448201526564647265737360d01b6064820152608401610d9a565b6133d281613f6e565b50565b6001600160a01b0381166134135760405162461bcd60e51b8152602060048201526005602482015264073617620360dc1b6044820152606401610d9a565b600061341e336118cf565b9050600081116134585760405162461bcd60e51b8152602060048201526005602482015264736176203160d81b6044820152606401610d9a565b33600090815260126020526040902080541561347757613477336140b8565b6040518060800160405280838152602001846001600160a01b0316815260200161349f612b95565b8152600060209182018190523381526012825260409081902083518155918301516001830180546001600160a01b0319166001600160a01b0390921691909117905582810151600283015560609092015160038201805460ff19169115159190911790559051600080516020615a098339815191529161351e91615986565b60405180910390a1505050565b6118fc336140b8565b3360009081526008602090815260408083205483526007909152902060018101546001600160a01b031661356757600080fd5b60006009613576600186614e47565b8154811061358657613586614e31565b90600052602060002090600e0201905060008160000154116135a757600080fd5b81546001820154146135b857600080fd5b6114278184613ece565b601381815481106135d257600080fd5b6000918252602090912060029091020180546001909101549091506001600160a01b031682565b6009818154811061360957600080fd5b60009182526020909120600e9091020180546001820154600283015460038401546004850154600686018054959750939560ff90931694919390929161364e90614dce565b80601f016020809104026020016040519081016040528092919081815260200182805461367a90614dce565b80156136c75780601f1061369c576101008083540402835291602001916136c7565b820191906000526020600020905b8154815290600101906020018083116136aa57829003601f168201915b5050505050908060070180546136dc90614dce565b80601f016020809104026020016040519081016040528092919081815260200182805461370890614dce565b80156137555780601f1061372a57610100808354040283529160200191613755565b820191906000526020600020905b81548152906001019060200180831161373857829003601f168201915b5050506008840154600985018054949560ff90921694919350915061377990614dce565b80601f01602080910402602001604051908101604052809291908181526020018280546137a590614dce565b80156137f25780601f106137c7576101008083540402835291602001916137f2565b820191906000526020600020905b8154815290600101906020018083116137d557829003601f168201915b50505050509080600a01549080600b01549080600d015490508c565b6060601a805480602002602001604051908101604052809291908181526020016000905b82821015612b7e57838290600052602060002001805461385190614dce565b80601f016020809104026020016040519081016040528092919081815260200182805461387d90614dce565b80156138ca5780601f1061389f576101008083540402835291602001916138ca565b820191906000526020600020905b8154815290600101906020018083116138ad57829003601f168201915b505050505081526020019060010190613832565b6001600160a01b0383166139405760405162461bcd60e51b8152602060048201526024808201527f45524332303a20617070726f76652066726f6d20746865207a65726f206164646044820152637265737360e01b6064820152608401610d9a565b6001600160a01b0382166139a15760405162461bcd60e51b815260206004820152602260248201527f45524332303a20617070726f766520746f20746865207a65726f206164647265604482015261737360f01b6064820152608401610d9a565b6001600160a01b0383811660008181526002602090815260408083209487168084529482529182902085905590518481527f8c5be1e5ebec7d5bd14f71427d1e84f3dd0314c0f7b2291e5b200ac8c7c3b925910160405180910390a3505050565b6000613a0e8484613331565b905060001981146114275781811015613a695760405162461bcd60e51b815260206004820152601d60248201527f45524332303a20696e73756666696369656e7420616c6c6f77616e63650000006044820152606401610d9a565b61142784848484036138de565b6001600160a01b038316613ada5760405162461bcd60e51b815260206004820152602560248201527f45524332303a207472616e736665722066726f6d20746865207a65726f206164604482015264647265737360d81b6064820152608401610d9a565b6001600160a01b038216613b3c5760405162461bcd60e51b815260206004820152602360248201527f45524332303a207472616e7366657220746f20746865207a65726f206164647260448201526265737360e81b6064820152608401610d9a565b613b478383836141dc565b6001600160a01b03831660009081526001602052604090205481811015613bbf5760405162461bcd60e51b815260206004820152602660248201527f45524332303a207472616e7366657220616d6f756e7420657863656564732062604482015265616c616e636560d01b6064820152608401610d9a565b6001600160a01b038085166000818152600160205260408082208686039055928616808252908390208054860190559151600080516020615a6983398151915290613c0d9086815260200190565b60405180910390a3611427565b60008181526007602052604081205490036133d25760008181526007602052604081208290556006805460018101825591527ff652222313e28459528d920b65115c16c04f3efc82aaedc97be59f3f377c0d3f0155565b60225415613caa5760405162461bcd60e51b8152600401610d9a906020808252600490820152630534d20360e41b604082015260600190565b613cb482826142bc565b5050565b6000816060015111613cc957600080fd5b60008160a001515111613cdb57600080fd5b601b5460608201516040516323b872dd60e01b815233600482015230602482015260448101919091526001600160a01b03909116906323b872dd906064016020604051808303816000875af1158015613d38573d6000803e3d6000fd5b505050506040513d601f19601f82011682018060405250810190613d5c9190614e81565b613d6557600080fd5b600a80546001818101835560008390528351919092027fc65a7bb8d6351c1cf70c95a316cc6a92839c986682d98bc35f958f4883f9d2a8810191825560208401517fc65a7bb8d6351c1cf70c95a316cc6a92839c986682d98bc35f958f4883f9d2a982015560408401517fc65a7bb8d6351c1cf70c95a316cc6a92839c986682d98bc35f958f4883f9d2aa9091018054859460ff1990911690836004811115613e1057613e1061459a565b0217905550606082015160038201556080820151600482015560a08201516005820190613e3d9082615870565b5060c0820151600682015560e08201518051613e6391600784019160209091019061448b565b506101008201516008820155610120909101516009909101805460ff19169115159190911790558051600583018054600181018255600091825260209091200155604051600080516020615a8983398151915290613ec29083906159f5565b60405180910390a15050565b60008111613edb57600080fd5b600a820181905560088201805460ff19166001179055604051600080516020615a2983398151915290613ec290849061507f565b33613f18611bc6565b6001600160a01b0316146118fc5760405162461bcd60e51b815260206004820181905260248201527f4f776e61626c653a2063616c6c6572206973206e6f7420746865206f776e65726044820152606401610d9a565b600080546001600160a01b038381166001600160a01b0319831681178455604051919092169283917f8be0079c531659141344cd1fd0a4f28419497f9722a3daafe3b4186f6b6457e09190a35050565b6001600160a01b0381166000908152601160205260409020805461400d5760405162461bcd60e51b815260206004820152600660248201526507266727620360d41b6044820152606401610d9a565b8054600f5460009161401e91614e47565b90506000600f54600e546140329190615450565b905060008360010154846000015461404a9190615450565b9050600081831161405c576000614066565b6140668284614e47565b905083156140855761407884826153d9565b600e55600f849055614091565b600c54600e556000600f555b5050506001600160a01b039092166000908152601160205260408120818155600101555050565b6001600160a01b038116600090815260126020526040902080546141075760405162461bcd60e51b815260206004820152600660248201526507261766820360d41b6044820152606401610d9a565b600381015460ff161561419a57805460158054600090614128908490614e47565b909155505060018101546001600160a01b03166000908152601460205260409020548061415457600080fd5b81546013614163600184614e47565b8154811061417357614173614e31565b906000526020600020906002020160000160008282546141939190614e47565b9091555050505b506001600160a01b031660009081526012602052604081208181556001810180546001600160a01b03191690556002810191909155600301805460ff19169055565b6001600160a01b0382166000908152601d602052604090205460ff161580156142055750600081115b1561426e57601c805460018082019092557f0e4562a10381dec21b205ed72637e6b1b523bdd0e4d4d50af5cd23dd4500a2110180546001600160a01b0319166001600160a01b0385169081179091556000908152601d60205260409020805460ff191690911790555b6001600160a01b038316600090815260116020526040902054156142955761429583613fbe565b6001600160a01b03831660009081526012602052604090205415610f4d57610f4d836140b8565b6142c4610cc8565b816142ce60035490565b6142d89190614e1e565b11156143225760405162461bcd60e51b8152602060048201526019602482015278115490cc8c10d85c1c19590e8818d85c08195e18d959591959603a1b6044820152606401610d9a565b613cb482826001600160a01b03821661437d5760405162461bcd60e51b815260206004820152601f60248201527f45524332303a206d696e7420746f20746865207a65726f2061646472657373006044820152606401610d9a565b614389600083836141dc565b806003600082825461439b9190614e1e565b90915550506001600160a01b038216600081815260016020908152604080832080548601905551848152600080516020615a69833981519152910160405180910390a35050565b82805482825590600052602060002090810192821561441d579160200282015b8281111561441d578235825591602001919060010190614402565b506144299291506144c6565b5090565b60405180606001604052806003906020820280368337509192915050565b82805482825590600052602060002090810192821561441d5760005260206000209182015b8281111561441d578254825591600101919060010190614470565b82805482825590600052602060002090810192821561441d579160200282015b8281111561441d5782518255916020019190600101906144ab565b5b8082111561442957600081556001016144c7565b6000815180845260005b81811015614501576020818501810151868301820152016144e5565b506000602082860101526020601f19601f83011685010191505092915050565b60208152600061453460208301846144db565b9392505050565b80356001600160a01b038116811461455257600080fd5b919050565b6000806040838503121561456a57600080fd5b6145738361453b565b946020939093013593505050565b60006020828403121561459357600080fd5b5035919050565b634e487b7160e01b600052602160045260246000fd5b600581106145ce57634e487b7160e01b600052602160045260246000fd5b9052565b60006101208b83528a60208401526145ed604084018b6145b0565b8860608401528760808401528060a084015261460b818401886144db565b60c0840196909652505060e08101929092521515610100909101529695505050505050565b60008060006060848603121561464557600080fd5b61464e8461453b565b925061465c6020850161453b565b9150604084013590509250925092565b60006020828403121561467e57600080fd5b6145348261453b565b60008083601f84011261469957600080fd5b5081356001600160401b038111156146b057600080fd5b6020830191508360208260051b85010111156146cb57600080fd5b9250929050565b600080602083850312156146e557600080fd5b82356001600160401b038111156146fb57600080fd5b61470785828601614687565b90969095509350505050565b60008083601f84011261472557600080fd5b5081356001600160401b0381111561473c57600080fd5b6020830191508360208260061b85010111156146cb57600080fd5b6000806020838503121561476a57600080fd5b82356001600160401b0381111561478057600080fd5b61470785828601614713565b60608101818360005b60038110156147bd5781516001600160a01b0316835260209283019290910190600101614795565b50505092915050565b6020808252825182820181905260009190848201906040850190845b818110156148075783516001600160a01b0316835292840192918401916001016147e2565b50909695505050505050565b87815286602082015285604082015284606082015283608082015260e060a0820152600061484460e08301856144db565b90508260c083015298975050505050505050565b634e487b7160e01b600052604160045260246000fd5b60405160c081016001600160401b038111828210171561489057614890614858565b60405290565b604051601f8201601f191681016001600160401b03811182821017156148be576148be614858565b604052919050565b600082601f8301126148d757600080fd5b813560206001600160401b038211156148f2576148f2614858565b8160051b614901828201614896565b928352848101820192828101908785111561491b57600080fd5b83870192505b8483101561493a57823582529183019190830190614921565b979650505050505050565b6000806040838503121561495857600080fd5b82356001600160401b038082111561496f57600080fd5b61497b868387016148c6565b9350602085013591508082111561499157600080fd5b5061499e858286016148c6565b9150509250929050565b600081518084526020808501945080840160005b838110156149d8578151875295820195908201906001016149bc565b509495945050505050565b600061014082518452602083015160208501526040830151614a0860408601826145b0565b50606083015160608501526080830151608085015260a08301518160a0860152614a34828601826144db565b91505060c083015160c085015260e083015184820360e0860152614a5882826149a8565b91505061010080840151818601525061012080840151614a7b8287018215159052565b5090949350505050565b6000602080830181845280855180835260408601915060408160051b870101925083870160005b82811015614ada57603f19888603018452614ac88583516149e3565b94509285019290850190600101614aac565b5092979650505050505050565b60006020808301818452808551808352604092508286019150828160051b87010184880160005b83811015614c2c57603f1989840301855281516101c081518552888201518986015287820151614b40898701826145b0565b50606082810151908601526080808301519086015260a080830151818701839052614b6d838801826149a8565b9250505060c08083015186830382880152614b8883826144db565b9250505060e08083015186830382880152614ba383826144db565b9250505061010080830151614bbb8288018215159052565b50506101208083015186830382880152614bd583826144db565b925050506101408083015181870152506101608083015181870152506101808083015186830382880152614c0983826149a8565b6101a0948501519790940196909652505094870194925090860190600101614b0e565b509098975050505050505050565b60008060408385031215614c4d57600080fd5b614c568361453b565b9150614c646020840161453b565b90509250929050565b602080825282518282018190526000919060409081850190868401855b82811015614cb8578151805185528601516001600160a01b0316868501529284019290850190600101614c8a565b5091979650505050505050565b60008060408385031215614cd857600080fd5b50508035926020909101359150565b60006101808e83528d6020840152614d02604084018e6145b0565b8b60608401528a60808401528060a0840152614d208184018b6144db565b905082810360c0840152614d34818a6144db565b905087151560e0840152828103610100840152614d5181886144db565b6101208401969096525050610140810192909252610160909101529998505050505050505050565b6000602080830181845280855180835260408601915060408160051b870101925083870160005b82811015614ada57603f19888603018452614dbc8583516144db565b94509285019290850190600101614da0565b600181811c90821680614de257607f821691505b602082108103614e0257634e487b7160e01b600052602260045260246000fd5b50919050565b634e487b7160e01b600052601160045260246000fd5b80820180821115610a5f57610a5f614e08565b634e487b7160e01b600052603260045260246000fd5b81810381811115610a5f57610a5f614e08565b6001600160a01b03929092168252602082015260400190565b80151581146133d257600080fd5b600060208284031215614e9357600080fd5b815161453481614e73565b60008154614eab81614dce565b808552602060018381168015614ec85760018114614ee257614f10565b60ff1985168884015283151560051b880183019550614f10565b866000528260002060005b85811015614f085781548a8201860152908301908401614eed565b890184019650505b505050505092915050565b6000815480845260208085019450836000528060002060005b838110156149d857815487529582019560019182019101614f34565b6020815281546020820152600182015460408201526000614f75600284015460ff1690565b614f8260608401826145b0565b5060038301546080830152600483015460a08301526101408060c0840152614fb1610160840160058601614e9e565b600685015460e0850152838103601f1901610100850152614fd58160078701614f1b565b90506008850154610120850152614ff0600986015460ff1690565b1515919093015250919050565b60006001820161500f5761500f614e08565b5060010190565b60008235605e1983360301811261502c57600080fd5b9190910192915050565b6000808335601e1984360301811261504d57600080fd5b8301803591506001600160401b0382111561506757600080fd5b6020019150600581901b36038213156146cb57600080fd5b60208152815460208201526001820154604082015260006150a4600284015460ff1690565b6150b160608401826145b0565b5060038301546080830152600483015460a08301526101c08060c08401526150e06101e0840160058601614f1b565b601f19808583030160e08601526150fa8260068801614e9e565b915080858303016101008601526151148260078801614e9e565b9150615124600887015460ff1690565b151561012086015284820381016101408601526151448260098801614e9e565b9150600a860154610160860152600b86015461018086015280858303016101a08601525061517581600c8701614f1b565b9050600d85015482850152809250505092915050565b602080825282549082015260018201546001600160a01b03166040820152600282015460608201526003820154608082015260e060a082015260006151d7610100830160048501614f1b565b601f19808483030160c08501526151f18260058701614f1b565b9150808483030160e08501525061520b8160068601614f1b565b949350505050565b6000823560be1983360301811261502c57600080fd5b600581106133d257600080fd5b803561455281615229565b600082601f83011261525257600080fd5b81356001600160401b0381111561526b5761526b614858565b61527e601f8201601f1916602001614896565b81815284602083860101111561529357600080fd5b816020850160208301376000918101602001919091529392505050565b600060c082840312156152c257600080fd5b6152ca61486e565b90506152d582615236565b81526020828101359082015260408201356001600160401b03808211156152fb57600080fd5b61530785838601615241565b604084015260608401356060840152608084013591508082111561532a57600080fd5b50615337848285016148c6565b60808301525060a082013560a082015292915050565b6000610a5f36836152b0565b60008235603e1983360301811261502c57600080fd5b60006040823603121561538157600080fd5b604080519081016001600160401b0380821183831017156153a4576153a4614858565b816040528435835260208501359150808211156153c057600080fd5b506153cd368286016152b0565b60208301525092915050565b6000826153f657634e487b7160e01b600052601260045260246000fd5b500490565b600082356101be1983360301811261502c57600080fd5b60008135610a5f81615229565b6005821061543d57634e487b7160e01b600052602160045260246000fd5b60ff1981541660ff831681178255505050565b8082028115828204841417610a5f57610a5f614e08565b5b81811015613cb45760008155600101615468565b6001600160401b0383111561549357615493614858565b600160401b8311156154a7576154a7614858565b8054838255808410156154cd578160005260206000206154cb828201868301615467565b505b50818160005260208060002060005b868110156154f657833582820155928201926001016154dc565b50505050505050565b6000808335601e1984360301811261551657600080fd5b8301803591506001600160401b0382111561553057600080fd5b6020019150368190038213156146cb57600080fd5b601f821115610f4d57806000526020600020601f840160051c8101602085101561556c5750805b61557e601f850160051c830182615467565b5050505050565b600019600383901b1c191660019190911b1790565b6001600160401b038311156155b1576155b1614858565b6155c5836155bf8354614dce565b83615545565b6000601f8411600181146155f357600085156155e15750838201355b6155eb8682615585565b84555061557e565b600083815260209020601f19861690835b828110156156245786850135825560209485019460019092019101615604565b50868210156156415760001960f88860031b161c19848701351681555b505060018560011b0183555050505050565b60008135610a5f81614e73565b813581556020820135600182015561568661567d60408401615412565b6002830161541f565b60608201356003820155608082013560048201556156a760a0830183615036565b6156b581836005860161547c565b50506156c460c08301836154ff565b6156d281836006860161559a565b50506156e160e08301836154ff565b6156ef81836007860161559a565b505061571a6157016101008401615653565b6008830160ff1981541660ff8315151681178255505050565b6157286101208301836154ff565b61573681836009860161559a565b5050610140820135600a820155610160820135600b82015561575c610180830183615036565b61576a8183600c860161547c565b50506101a0820135600d8201555050565b602080825260059082015264061687520360dc1b604082015260600190565b8181036157a5575050565b6157af8254614dce565b6001600160401b038111156157c6576157c6614858565b6157da816157d48454614dce565b84615545565b6000601f82116001811461580857600083156157f65750848201545b6158008482615585565b85555061557e565b600085815260209020601f19841690600086815260209020845b838110156158425782860154825560019586019590910190602001615822565b50858310156158605781850154600019600388901b60f8161c191681555b5050505050600190811b01905550565b81516001600160401b0381111561588957615889614858565b615897816157d48454614dce565b602080601f8311600181146158c657600084156158b45750858301515b6158be8582615585565b865550613222565b600085815260208120601f198616915b828110156158f5578886015182559484019460019091019084016158d6565b508582101561586057939096015160001960f8600387901b161c19169092555050600190811b01905550565b6020815281516020820152602082015160408201526040820151606082015260608201516080820152608082015160a0820152600060a083015160e060c08401526159706101008401826144db565b905060c084015160e08401528091505092915050565b8154815260018201546001600160a01b0316602082015260028201546040820152600382015460ff161515606082015260808101610a5f565b83815260406020820152816040820152818360608301376000818301606090810191909152601f909201601f1916010192915050565b60208152600061453460208301846149e356fee08472d1275fefbb15ff0aea278bb1f42c491be3fa4358160826ba7e420ae61396e9914f87caf53079f3441ee12036434bc4ea93f85df92beb30c7c918984e9fe1ab017037dfdbe8aeea88ca10733a62fe91b3791c7ab2f30b54a9e2a0b0d319ddf252ad1be2c89b69c2b068fc378daa952ba7f163c4a11628f55a4df523b3efe4aca3c0fc408b3a8ce278b40b298311b8dca09ac3c3d5d1068f014e01ac551ba2646970667358221220d656697e87f9fac68163ca0deb3813b6b6244bc4205254aafe8ef9b87cfee24864736f6c63430008130033",
  "immutableReferences": {
    "785": [
      {
        "length": 32,
        "start": 3274
      }
    ]
  },
  "source": "// SPDX-License-Identifier: MIT\npragma solidity ^0.8.9;\nimport \"@openzeppelin/contracts/access/Ownable.sol\";\nimport \"@openzeppelin/contracts/token/ERC20/extensions/ERC20Capped.sol\";\n\ncontract Asami is Ownable, ERC20Capped {\n  enum Site { X, Instagram, LinkedIn, Facebook, Nostr}\n\n  struct Account {\n    uint256 id;\n    address addr;\n    uint256 unclaimedAsamiTokens;\n    uint256 unclaimedDocRewards;\n    uint256[] handles;\n    uint256[] campaigns;\n    uint256[] collabs;\n  }\n  uint256[] public accountIds;\n  mapping(uint256 => Account) public accounts;\n  mapping(address => uint256) public accountIdByAddress;\n  event AccountSaved(Account account);\n\n  struct Handle {\n    uint256 id;\n    uint256 accountId;\n    Site site;\n    uint256 price;\n    uint256 score;\n    uint256[] topics;\n    string username;\n    string userId;\n    bool needsUpdate;\n    string newUsername;\n    uint256 newPrice;\n    uint256 newScore;\n    uint256[] newTopics;\n    uint256 lastUpdated;\n  }\n  Handle[] public handles;\n  event HandleSaved(Handle handle);\n\n  function getHandles() public view returns (Handle[] memory) {\n    return handles;\n  }\n\n  struct Campaign {\n    uint256 id;\n    uint256 accountId;\n    Site site;\n    uint256 budget;\n    uint256 remaining;\n    string contentId;\n    uint256 priceScoreRatio;\n    uint256[] topics;\n    uint256 validUntil;\n    bool fundedByAdmin;\n  }\n  Campaign[] public campaigns;\n  event CampaignSaved(Campaign campaign);\n  function getCampaigns() public view returns (Campaign[] memory) {\n    return campaigns;\n  }\n\n  struct Collab {\n    uint256 id;\n    uint256 handleId;\n    uint256 campaignId;\n    uint256 gross;\n    uint256 fee;\n    string proof;\n    uint256 createdAt;\n  }\n  Collab[] public collabs;\n  event CollabSaved(Collab collab);\n\n  uint256 public defaultFeeRate = 10 * 1e18;\n  uint256 public feeRate = defaultFeeRate;\n  uint256 public votedFeeRate = defaultFeeRate;\n  uint256 public votedFeeRateVoteCount = 0;\n  /* To make the protocol more predictable, changes are applied only once every period */\n  uint256 public lastVotedFeeRateAppliedOn = 0;\n\n  struct FeeRateVote {\n    uint256 votes;\n    uint256 rate;\n  }\n  mapping(address => FeeRateVote) public feeRateVotes;\n\n  struct AdminVote {\n    uint256 votes;\n    address candidate;\n    uint256 cycle;\n    bool vested;\n  }\n  /* Maps holders to their vote */\n  mapping(address => AdminVote) public submittedAdminVotes;\n  event AdminVoteSaved(AdminVote vote);\n\n  struct AdminVoteCount {\n    uint256 votes;\n    address candidate;\n  }\n\n  /*\n  We're only storing all historic vote counts to have a view function that helps find out\n  which candidate to proclaim without relying on events.\n  */\n  AdminVoteCount[] public adminVoteCounts;\n  mapping(address => uint256) public adminVoteCountIdByCandidate;\n\n  function allAdminVoteCounts() public view returns (AdminVoteCount[] memory) {\n    return adminVoteCounts;\n  }\n\n  uint256 public vestedAdminVotesTotal;\n  uint256 public lastAdminElection;\n  address[3] public latestAdminElections;\n\n  function getLatestAdminElections() public view returns (address[3] memory) {\n    return latestAdminElections;\n  }\n\n  string[] public topics;\n  event TopicSaved(uint256 id, string name);\n\n  IERC20 internal doc;\n  address[] public holders;\n  mapping(address => bool) public trackedHolders;\n\n  address public admin; // An address that may be stored on a server.\n  address public adminTreasury; // A cold storage address for admin money.\n\n  uint256 public claimedAsamiTokens;\n\n  modifier onlyAdmin() {\n    require(msg.sender == admin || msg.sender == owner());\n    _;\n  }\n\n  constructor(address _dollarOnChainAddress) ERC20(\"AsamiToken\", \"ASAMI\") ERC20Capped(21 * 1e24) {\n    doc = IERC20(_dollarOnChainAddress);\n  }\n\n  function _beforeTokenTransfer(address from, address to, uint256 amount) internal override {\n    super._beforeTokenTransfer(from, to, amount);\n    if (!trackedHolders[to] && amount > 0) {\n      holders.push(to);\n      trackedHolders[to] = true;\n    }\n\n    if (feeRateVotes[from].votes > 0) { removeFeeRateVoteHelper(from); }\n    if (submittedAdminVotes[from].votes > 0) { removeAdminVoteHelper(from); }\n  }\n\n  function setAdmin(address _admin, address _adminTreasury) external onlyOwner {\n    require(admin == address(0) && adminTreasury == address(0));\n    admin = _admin;\n    adminTreasury = _adminTreasury;\n  }\n\n  function getHolders() public view returns (address[] memory) {\n    return holders;\n  }\n\n  function getClaimedAsamiTokens() public view returns (uint256) {\n    return claimedAsamiTokens;\n  }\n\n  function getTopics() public view returns (string[] memory) {\n    return topics;\n  }\n\n  function adminAddTopics(string[] calldata _names) public onlyAdmin {\n    for( uint256 i = 0; i < _names.length; i++) {\n      topics.push(_names[i]);\n      emit TopicSaved(topics.length, _names[i]);\n    }\n  }\n\n  function ensureAccount(uint256 _accountId) private {\n    if(accounts[_accountId].id == 0) {\n      accounts[_accountId].id = _accountId;\n      accountIds.push(_accountId);\n    }\n  }\n\n  struct AdminClaimAccountsInput {\n    uint256 accountId;\n    address addr;\n  }\n\n  function claimAccounts (\n    AdminClaimAccountsInput[] calldata _input\n  ) public onlyAdmin {\n    for( uint256 i = 0; i < _input.length; i++) {\n      AdminClaimAccountsInput calldata claim = _input[i];\n      ensureAccount(claim.accountId);\n\n      Account storage account = accounts[claim.accountId];\n      require(account.addr == address(0));\n\n      accountIdByAddress[claim.addr] = claim.accountId;\n      account.addr = claim.addr;\n\n      if(account.unclaimedAsamiTokens > 0) {\n        uint256 unclaimed = account.unclaimedAsamiTokens;\n        account.unclaimedAsamiTokens = 0;\n        _safeMint(claim.addr, unclaimed);\n      }\n\n      if(account.unclaimedDocRewards > 0) {\n        uint256 unclaimed = account.unclaimedDocRewards;\n        account.unclaimedDocRewards = 0;\n        doc.transfer(account.addr, unclaimed);\n      }\n\n      emit AccountSaved(account);\n    }\n  }\n\n  function adminMakeHandles (\n    Handle[] calldata _inputs\n  ) external onlyAdmin {\n\n    for( uint256 i = 0; i < _inputs.length; i++) {\n      ensureAccount(_inputs[i].accountId);\n\n      handles.push(_inputs[i]);\n      Handle storage h = handles[handles.length - 1];\n      h.id = handles.length;\n      emit HandleSaved(h);\n    }\n  }\n\n  struct CampaignInput {\n    Site site;\n    uint256 budget;\n    string contentId;\n    uint256 priceScoreRatio;\n    uint256[] topics;\n    uint256 validUntil;\n  }\n  function makeCampaigns(\n    CampaignInput[] calldata _inputs\n  ) public {\n    Account storage account = accounts[accountIdByAddress[msg.sender]];\n    require(account.addr != address(0), \"mc 0\");\n\n    for( uint i = 0; i < _inputs.length; i++) {\n      CampaignInput memory input = _inputs[i];\n      _saveCampaignHelper(account, Campaign({\n        id: campaigns.length + 1,\n        accountId: account.id,\n        site: input.site,\n        budget: input.budget,\n        remaining: input.budget,\n        contentId: input.contentId,\n        priceScoreRatio: input.priceScoreRatio,\n        topics: input.topics,\n        validUntil: input.validUntil,\n        fundedByAdmin: false\n      }));\n    }\n  }\n\n  struct AdminCampaignInput {\n    uint256 accountId;\n    CampaignInput attrs;\n  }\n\n  function adminMakeCampaigns(\n    AdminCampaignInput[] calldata _inputs\n  ) public onlyAdmin {\n\n    for( uint i = 0; i < _inputs.length; i++) {\n      AdminCampaignInput memory input = _inputs[i];\n      ensureAccount(input.accountId);\n      Account storage account = accounts[input.accountId];\n      require(account.addr == address(0));\n\n      _saveCampaignHelper(account, Campaign({\n        id: campaigns.length + 1,\n        accountId: account.id,\n        site: input.attrs.site,\n        budget: input.attrs.budget,\n        remaining: input.attrs.budget,\n        contentId: input.attrs.contentId,\n        priceScoreRatio: input.attrs.priceScoreRatio,\n        topics: input.attrs.topics,\n        validUntil: input.attrs.validUntil,\n        fundedByAdmin: true\n      }));\n    }\n  }\n\n  function _saveCampaignHelper(\n    Account storage _account,\n    Campaign memory _campaign\n  ) private {\n    require(_campaign.budget > 0);\n    require(bytes(_campaign.contentId).length > 0);\n    require(doc.transferFrom(msg.sender, address(this), _campaign.budget));\n\n    campaigns.push(_campaign);\n    _account.campaigns.push(_campaign.id);\n    emit CampaignSaved(_campaign);\n  }\n\n  struct AdminMakeCollabsInput {\n    uint256 campaignId;\n    uint256 handleId;\n  }\n\n  function adminMakeCollabs(AdminMakeCollabsInput[] calldata _collabs) external onlyAdmin {\n    for( uint256 i = 0; i < _collabs.length; i++) {\n      Handle storage handle = handles[_collabs[i].handleId - 1];\n      require(handle.id > 0, \"1\");\n      Account storage member = accounts[handle.accountId];\n\n      Campaign storage campaign = campaigns[_collabs[i].campaignId - 1];\n      require(campaign.id > 0, \"3\");\n      require(campaign.validUntil > block.timestamp, \"4\");\n      require(isSubset(handle.topics, campaign.topics), \"5\");\n\n      require(campaign.remaining >= handle.price, \"6\");\n      require(campaign.site == handle.site, \"7\");\n      require((handle.price / handle.score) <= campaign.priceScoreRatio, \"8\");\n\n      Account storage advertiser = accounts[campaign.accountId];\n\n      uint256 gross = handle.price;\n      uint256 fee = (gross * feeRate) / 1e20;\n      uint256 reward = gross - fee;\n\n      Collab memory collab = Collab({\n        id: collabs.length + 1,\n        handleId: handle.id,\n        campaignId: campaign.id,\n        gross: gross,\n        fee: fee,\n        proof: \"\",\n        createdAt: block.timestamp\n      });\n      collabs.push(collab);\n      member.collabs.push(collab.id);\n\n      campaign.remaining -= gross;\n      feePool += fee;\n\n      uint256 remainingToCap = cap() - claimedAsamiTokens;\n      uint256 newTokens = (fee > remainingToCap) ? remainingToCap : fee;\n      claimedAsamiTokens += newTokens;\n\n      uint256 advertiserTokens = (newTokens * 10 * 1e18) / 100e18;\n      uint256 memberTokens = (newTokens * 15 * 1e18) / 100e18;\n      uint256 adminTokens = newTokens - advertiserTokens - memberTokens;\n\n      if (adminTokens > 0) {\n        _safeMint(adminTreasury, adminTokens);\n      }\n\n      if ( member.addr == address(0) ) {\n        if( memberTokens > 0) {\n          member.unclaimedAsamiTokens += memberTokens;\n        }\n        member.unclaimedDocRewards += reward;\n        emit AccountSaved(member);\n      } else {\n        if( memberTokens > 0) {\n          _safeMint(member.addr, memberTokens);\n        }\n        doc.transfer(member.addr, reward);\n      }\n\n      if ( advertiserTokens > 0 ) {\n        if ( advertiser.addr == address(0) ) {\n          advertiser.unclaimedAsamiTokens += advertiserTokens;\n          emit AccountSaved(advertiser);\n        } else {\n          _safeMint(advertiser.addr, advertiserTokens);\n        }\n      }\n\n      emit CollabSaved(collab);\n      emit CampaignSaved(campaign);\n    }\n  }\n\n  function reimburseDueCampaigns(uint256[] calldata _campaignIds) external {\n    for(uint i = 0; i < _campaignIds.length; i++) {\n      Campaign storage campaign = campaigns[_campaignIds[i] - 1];\n      require(campaign.id > 0, \"rdc 0\");\n      require(campaign.remaining > 0, \"rdc 1\");\n      require(campaign.validUntil < block.timestamp, \"rdc 2\");\n\n      Account storage advertiser = accounts[campaign.accountId];\n      uint256 remaining = campaign.remaining;\n      campaign.remaining = 0;\n      address fundedBy = campaign.fundedByAdmin ? admin : advertiser.addr;\n      require(doc.transfer(fundedBy, remaining), \"rdc 3\");\n      emit CampaignSaved(campaign);\n    }\n  }\n\n  // To prevent race conditions, we never mint while we're in the middle of a payout.\n  function _safeMint(address _addr, uint256 _amount) private {\n    require(payoutsRemaining == 0, \"SM 0\");\n    _mint(_addr, _amount);\n  }\n\n  struct AdminSetPriceInput {\n    uint256 handleId;\n    uint256 price;\n  }\n\n  function adminSetPrice(AdminSetPriceInput[] calldata _inputs) external onlyAdmin {\n    for( uint256 i = 0; i < _inputs.length; i++) {\n      Handle storage handle = handles[_inputs[i].handleId - 1];\n      Account storage account = accounts[handle.accountId];\n      require(account.addr == address(0) && account.id > 0);\n\n      _setPriceHelper(handle, _inputs[i].price);\n    }\n  }\n\n  function setPrice(uint256 _handleId, uint256 _price) external {\n    Account storage account = accounts[accountIdByAddress[msg.sender]];\n    require(account.addr != address(0));\n\n    Handle storage handle = handles[_handleId - 1];\n    require(handle.id > 0);\n    require(handle.accountId == account.id);\n\n    _setPriceHelper(handle, _price);\n  }\n\n  function _setPriceHelper(Handle storage handle, uint256 _price) private {\n    require(_price > 0);\n    handle.newPrice = _price;\n    handle.needsUpdate = true;\n    emit HandleSaved(handle);\n  }\n\n  struct AdminSetScoreAndTopicsInput {\n    uint256 handleId;\n    uint256 score;\n    uint256[] topics;\n  }\n\n  function adminSetScoreAndTopics(\n    AdminSetScoreAndTopicsInput[] calldata _inputs\n  ) external onlyAdmin {\n    for( uint256 i = 0; i < _inputs.length; i++) {\n      Handle storage handle = handles[_inputs[i].handleId - 1];\n      handle.newScore = _inputs[i].score;\n      handle.newTopics = _inputs[i].topics;\n      handle.needsUpdate = true;\n      emit HandleSaved(handle);\n    }\n  }\n\n  function getCycleLength() public pure returns (uint256) {\n    return 60 * 60 * 24 * 15;\n  }\n\n  function getCurrentCycle() public view returns (uint256) {\n     return block.timestamp / getCycleLength();\n  }\n\n  function getNextCycle() public view returns (uint256) {\n    return getCurrentCycle() + getCycleLength();\n  }\n\n  /*\n    Distributes the fee pool among token holders.\n    To prevent going over the gas limit, it does up to 100 a time, and can be called many times in a row.\n    Always returns the pending holders.\n    Anyone can call this at any time, but just once per period. It would usually be the admin though.\n  */\n  uint256 public feePool;\n  uint256 public payoutsRemaining = 0;\n  uint256 public payoutsTotal = 0;\n  uint256 public feePoolRemainder = 0;\n  uint256 public lastPayoutCycle = 0;\n  uint256 public batchSize = 100;\n\n  function distributeFeePool() external {\n    uint256 totalSupply = totalSupply();\n    uint256 currentCycle = getCurrentCycle();\n\n    require(totalSupply > 0, \"dfp 0\");\n    require(currentCycle != lastPayoutCycle || payoutsRemaining > 0 , \"dfp 1\");\n\n    /* Just mark the distribution was attempted on this cycle if there's nothing ot distribute */\n    if (feePool == 0) {\n      lastPayoutCycle = currentCycle;\n      return;\n    }\n\n    if(payoutsRemaining == 0) {\n      // We're starting a new payout of the feePool.\n      // We can only start one payout in each 15 day period.\n      payoutsTotal = holders.length;\n      feePoolRemainder = feePool;\n      payoutsRemaining = payoutsTotal;\n      lastPayoutCycle = currentCycle;\n    }\n\n    uint256 startAt = payoutsTotal - payoutsRemaining;\n\n    uint256 until = (batchSize > payoutsRemaining) ? (startAt + payoutsRemaining) : (startAt + batchSize);\n\n    uint256 localFeePoolRemainder = feePoolRemainder;\n    uint256 localPayoutsRemaining = payoutsRemaining;\n\n    for (uint256 i = startAt; i < until; i++) {\n      address holder = holders[i];\n      uint256 balance = balanceOf(holder);\n      uint256 reward = (balance * feePool) / totalSupply;\n      localFeePoolRemainder -= reward;\n      localPayoutsRemaining -= 1;\n      require(doc.transfer(holder, reward), \"dfp 3\");\n    }\n\n    feePoolRemainder = localFeePoolRemainder;\n    payoutsRemaining = localPayoutsRemaining;\n\n    if(payoutsRemaining == 0) {\n      feePool = feePoolRemainder;\n    }\n  }\n\n  function applyHandleUpdates(uint256[] calldata _indexes) external {\n    uint256 currentCycle = getCurrentCycle();\n\n    for (uint256 i = 0; i < _indexes.length; i++) {\n      Handle storage handle = handles[_indexes[i]];\n      require(handle.lastUpdated != currentCycle, \"ahu 0\");\n      require(handle.needsUpdate, \"ahu 0\");\n\n      handle.needsUpdate = false;\n      handle.lastUpdated = currentCycle;\n\n      if (bytes(handle.newUsername).length > 0) {\n        handle.username = handle.newUsername;\n      }\n\n      if (handle.newPrice != 0) {\n        handle.price = handle.newPrice;\n      }\n\n      if (handle.score != 0) {\n        handle.score = handle.newScore;\n      }\n\n      if (handle.newTopics.length > 0) {\n        handle.topics = handle.newTopics;\n      }\n\n      emit HandleSaved(handle);\n    }\n  }\n\n  function applyVotedFeeRate() external {\n    uint256 currentCycle = getCurrentCycle();\n    require(currentCycle != lastVotedFeeRateAppliedOn);\n    feeRate = votedFeeRate;\n    lastVotedFeeRateAppliedOn = currentCycle;\n  }\n\n  function submitFeeRateVote(uint256 _rate) external {\n    require(_rate > 0 && _rate < 1e20, \"sfrv 0\");\n\n    FeeRateVote storage vote = feeRateVotes[msg.sender];\n    if (vote.votes > 0) { removeFeeRateVoteHelper(msg.sender); }\n\n    uint256 votes = balanceOf(msg.sender);\n    require(votes > 0, \"sfrv 1\");\n\n    votedFeeRate = ((votedFeeRate * votedFeeRateVoteCount) + (votes * _rate)) / (votedFeeRateVoteCount + votes);\n    votedFeeRateVoteCount += votes;\n    vote.votes = votes;\n    vote.rate = _rate;\n  }\n\n  function removeFeeRateVote() external {\n    removeFeeRateVoteHelper(msg.sender);\n  }\n\n  function removeFeeRateVoteHelper(address _holder) private {\n    FeeRateVote storage vote = feeRateVotes[_holder];\n    require(vote.votes > 0, \"rfrv 0\");\n    uint256 nextVoteCount = votedFeeRateVoteCount - vote.votes;\n    uint256 currentVolume = votedFeeRate * votedFeeRateVoteCount;\n    uint256 removedVolume = vote.votes * vote.rate;\n    uint256 nextVolume = currentVolume > removedVolume ? currentVolume - removedVolume : 0;\n\n    if (nextVoteCount > 0) {\n      votedFeeRate = nextVolume / nextVoteCount;\n      votedFeeRateVoteCount = nextVoteCount;\n    } else {\n      votedFeeRate = defaultFeeRate;\n      votedFeeRateVoteCount = 0;\n    }\n    delete feeRateVotes[_holder];\n  }\n\n  function submitAdminVote(address _candidate) external {\n    require(_candidate != address(0), \"sav 0\");\n    uint256 votes = balanceOf(msg.sender);\n    require(votes > 0, \"sav 1\");\n\n    AdminVote storage existing = submittedAdminVotes[msg.sender];\n    if (existing.votes > 0 ){\n      removeAdminVoteHelper(msg.sender);\n    }\n\n    submittedAdminVotes[msg.sender] = AdminVote({\n      candidate: _candidate,\n      votes: votes,\n      cycle: getCurrentCycle(),\n      vested: false\n    });\n\n    emit AdminVoteSaved(submittedAdminVotes[msg.sender]);\n  }\n\n  function vestAdminVotes(address[] calldata _holders) external {\n    uint256 thisCycle = getCurrentCycle();\n\n    for (uint256 i = 0; i < _holders.length; i++) {\n      AdminVote storage vote = submittedAdminVotes[_holders[i]];\n      require(vote.cycle > 0, \"vav 0\");\n      require(vote.cycle < thisCycle, \"vav 1\");\n      require(!vote.vested, \"vav 2\");\n      vote.vested = true;\n      vestedAdminVotesTotal += vote.votes;\n\n      uint256 voteCountId = adminVoteCountIdByCandidate[vote.candidate];\n      if (voteCountId > 0) {\n        AdminVoteCount storage count = adminVoteCounts[voteCountId - 1];\n        count.votes += vote.votes;\n      } else {\n        AdminVoteCount storage count = adminVoteCounts.push();\n        count.votes = vote.votes;\n        count.candidate = vote.candidate; \n        adminVoteCountIdByCandidate[vote.candidate] = adminVoteCounts.length;\n      }\n      emit AdminVoteSaved(vote);\n    }\n  }\n\n  function proclaimCycleAdminWinner(address _candidate) external {\n    uint256 voteCountId = adminVoteCountIdByCandidate[_candidate];\n    require(voteCountId > 0);\n    AdminVoteCount storage count = adminVoteCounts[voteCountId - 1];\n\n    require(count.votes > vestedAdminVotesTotal / 2, \"pcw 0\");\n    require(vestedAdminVotesTotal > 0, \"pcw 1\");\n    uint256 thisCycle = getCurrentCycle();\n    require(lastAdminElection < thisCycle, \"pcw 2\");\n\n    lastAdminElection = thisCycle;\n    latestAdminElections[2] = latestAdminElections[1];\n    latestAdminElections[1] = latestAdminElections[0];\n    latestAdminElections[0] = _candidate;\n\n    if (_candidate == latestAdminElections[1] && _candidate == latestAdminElections[2]) {\n      admin = _candidate;\n      adminTreasury = _candidate;\n    }\n  }\n\n  function removeAdminVote() external {\n    removeAdminVoteHelper(msg.sender);\n  }\n\n  function removeAdminVoteHelper(address _holder) private {\n    AdminVote storage vote = submittedAdminVotes[_holder];\n    require(vote.votes > 0, \"ravh 0\");\n    if ( vote.vested ) {\n      vestedAdminVotesTotal -= vote.votes;\n\n      uint256 voteCountId = adminVoteCountIdByCandidate[vote.candidate];\n      require(voteCountId > 0);\n      adminVoteCounts[voteCountId - 1].votes -= vote.votes;\n    }\n    delete submittedAdminVotes[_holder];\n  }\n\n  function setAdminAddress(address _admin) external {\n    require(msg.sender == adminTreasury);\n    admin = _admin;\n  }\n\n  function isSubset(uint256[] memory mainSet, uint256[] memory subset) public pure returns (bool) {\n    for (uint256 i = 0; i < subset.length; i++) {\n      bool found = false;\n\n      for (uint256 j = 0; j < mainSet.length; j++) {\n        if (subset[i] == mainSet[j]) {\n          found = true;\n          break;\n        }\n      }\n\n      if (!found) {\n        return false;\n      }\n    }\n\n    return true;\n  }\n}\n",
  "sourcePath": "/home/nubis/asami/contract/contracts/Asami.sol",
  "compiler": {
    "name": "solc",
    "version": "0.8.19+commit.7dd6d404.Emscripten.clang"
  },
  "schemaVersion": "3.4.15",
  "updatedAt": "2024-02-15T10:03:53.571Z",
  "networkType": "ethereum",
  "devdoc": {
    "events": {
      "Approval(address,address,uint256)": {
        "details": "Emitted when the allowance of a `spender` for an `owner` is set by a call to {approve}. `value` is the new allowance."
      },
      "Transfer(address,address,uint256)": {
        "details": "Emitted when `value` tokens are moved from one account (`from`) to another (`to`). Note that `value` may be zero."
      }
    },
    "kind": "dev",
    "methods": {
      "allowance(address,address)": {
        "details": "See {IERC20-allowance}."
      },
      "approve(address,uint256)": {
        "details": "See {IERC20-approve}. NOTE: If `amount` is the maximum `uint256`, the allowance is not updated on `transferFrom`. This is semantically equivalent to an infinite approval. Requirements: - `spender` cannot be the zero address."
      },
      "balanceOf(address)": {
        "details": "See {IERC20-balanceOf}."
      },
      "cap()": {
        "details": "Returns the cap on the token's total supply."
      },
      "decimals()": {
        "details": "Returns the number of decimals used to get its user representation. For example, if `decimals` equals `2`, a balance of `505` tokens should be displayed to a user as `5.05` (`505 / 10 ** 2`). Tokens usually opt for a value of 18, imitating the relationship between Ether and Wei. This is the default value returned by this function, unless it's overridden. NOTE: This information is only used for _display_ purposes: it in no way affects any of the arithmetic of the contract, including {IERC20-balanceOf} and {IERC20-transfer}."
      },
      "decreaseAllowance(address,uint256)": {
        "details": "Atomically decreases the allowance granted to `spender` by the caller. This is an alternative to {approve} that can be used as a mitigation for problems described in {IERC20-approve}. Emits an {Approval} event indicating the updated allowance. Requirements: - `spender` cannot be the zero address. - `spender` must have allowance for the caller of at least `subtractedValue`."
      },
      "increaseAllowance(address,uint256)": {
        "details": "Atomically increases the allowance granted to `spender` by the caller. This is an alternative to {approve} that can be used as a mitigation for problems described in {IERC20-approve}. Emits an {Approval} event indicating the updated allowance. Requirements: - `spender` cannot be the zero address."
      },
      "name()": {
        "details": "Returns the name of the token."
      },
      "owner()": {
        "details": "Returns the address of the current owner."
      },
      "renounceOwnership()": {
        "details": "Leaves the contract without owner. It will not be possible to call `onlyOwner` functions. Can only be called by the current owner. NOTE: Renouncing ownership will leave the contract without an owner, thereby disabling any functionality that is only available to the owner."
      },
      "symbol()": {
        "details": "Returns the symbol of the token, usually a shorter version of the name."
      },
      "totalSupply()": {
        "details": "See {IERC20-totalSupply}."
      },
      "transfer(address,uint256)": {
        "details": "See {IERC20-transfer}. Requirements: - `to` cannot be the zero address. - the caller must have a balance of at least `amount`."
      },
      "transferFrom(address,address,uint256)": {
        "details": "See {IERC20-transferFrom}. Emits an {Approval} event indicating the updated allowance. This is not required by the EIP. See the note at the beginning of {ERC20}. NOTE: Does not update the allowance if the current allowance is the maximum `uint256`. Requirements: - `from` and `to` cannot be the zero address. - `from` must have a balance of at least `amount`. - the caller must have allowance for ``from``'s tokens of at least `amount`."
      },
      "transferOwnership(address)": {
        "details": "Transfers ownership of the contract to a new account (`newOwner`). Can only be called by the current owner."
      }
    },
    "version": 1
  },
  "userdoc": {
    "kind": "user",
    "methods": {},
    "version": 1
  }
}