{
  "contractName": "Asami",
  "abi": [
    {
      "inputs": [
        {
          "internalType": "address",
          "name": "_dollarOnChainAddress",
          "type": "address"
        }
      ],
      "stateMutability": "nonpayable",
      "type": "constructor"
    },
    {
      "anonymous": false,
      "inputs": [
        {
          "components": [
            {
              "internalType": "uint256",
              "name": "id",
              "type": "uint256"
            },
            {
              "internalType": "address",
              "name": "addr",
              "type": "address"
            },
            {
              "internalType": "uint256",
              "name": "unclaimedAsamiTokens",
              "type": "uint256"
            },
            {
              "internalType": "uint256",
              "name": "unclaimedDocRewards",
              "type": "uint256"
            },
            {
              "internalType": "uint256[]",
              "name": "handles",
              "type": "uint256[]"
            },
            {
              "internalType": "uint256[]",
              "name": "campaigns",
              "type": "uint256[]"
            },
            {
              "internalType": "uint256[]",
              "name": "collabs",
              "type": "uint256[]"
            }
          ],
          "indexed": false,
          "internalType": "struct Asami.Account",
          "name": "account",
          "type": "tuple"
        }
      ],
      "name": "AccountSaved",
      "type": "event"
    },
    {
      "anonymous": false,
      "inputs": [
        {
          "components": [
            {
              "internalType": "uint256",
              "name": "votes",
              "type": "uint256"
            },
            {
              "internalType": "address",
              "name": "candidate",
              "type": "address"
            },
            {
              "internalType": "uint256",
              "name": "cycle",
              "type": "uint256"
            },
            {
              "internalType": "bool",
              "name": "vested",
              "type": "bool"
            }
          ],
          "indexed": false,
          "internalType": "struct Asami.AdminVote",
          "name": "vote",
          "type": "tuple"
        }
      ],
      "name": "AdminVoteSaved",
      "type": "event"
    },
    {
      "anonymous": false,
      "inputs": [
        {
          "indexed": true,
          "internalType": "address",
          "name": "owner",
          "type": "address"
        },
        {
          "indexed": true,
          "internalType": "address",
          "name": "spender",
          "type": "address"
        },
        {
          "indexed": false,
          "internalType": "uint256",
          "name": "value",
          "type": "uint256"
        }
      ],
      "name": "Approval",
      "type": "event"
    },
    {
      "anonymous": false,
      "inputs": [
        {
          "components": [
            {
              "internalType": "uint256",
              "name": "id",
              "type": "uint256"
            },
            {
              "internalType": "uint256",
              "name": "accountId",
              "type": "uint256"
            },
            {
              "internalType": "enum Asami.Site",
              "name": "site",
              "type": "uint8"
            },
            {
              "internalType": "uint256",
              "name": "budget",
              "type": "uint256"
            },
            {
              "internalType": "uint256",
              "name": "remaining",
              "type": "uint256"
            },
            {
              "internalType": "string",
              "name": "contentId",
              "type": "string"
            },
            {
              "internalType": "uint256",
              "name": "priceScoreRatio",
              "type": "uint256"
            },
            {
              "internalType": "uint256[]",
              "name": "topics",
              "type": "uint256[]"
            },
            {
              "internalType": "uint256",
              "name": "validUntil",
              "type": "uint256"
            },
            {
              "internalType": "bool",
              "name": "fundedByAdmin",
              "type": "bool"
            }
          ],
          "indexed": false,
          "internalType": "struct Asami.Campaign",
          "name": "campaign",
          "type": "tuple"
        }
      ],
      "name": "CampaignSaved",
      "type": "event"
    },
    {
      "anonymous": false,
      "inputs": [
        {
          "components": [
            {
              "internalType": "uint256",
              "name": "id",
              "type": "uint256"
            },
            {
              "internalType": "uint256",
              "name": "handleId",
              "type": "uint256"
            },
            {
              "internalType": "uint256",
              "name": "campaignId",
              "type": "uint256"
            },
            {
              "internalType": "uint256",
              "name": "gross",
              "type": "uint256"
            },
            {
              "internalType": "uint256",
              "name": "fee",
              "type": "uint256"
            },
            {
              "internalType": "string",
              "name": "proof",
              "type": "string"
            },
            {
              "internalType": "uint256",
              "name": "createdAt",
              "type": "uint256"
            }
          ],
          "indexed": false,
          "internalType": "struct Asami.Collab",
          "name": "collab",
          "type": "tuple"
        }
      ],
      "name": "CollabSaved",
      "type": "event"
    },
    {
      "anonymous": false,
      "inputs": [
        {
          "components": [
            {
              "internalType": "uint256",
              "name": "id",
              "type": "uint256"
            },
            {
              "internalType": "uint256",
              "name": "accountId",
              "type": "uint256"
            },
            {
              "internalType": "enum Asami.Site",
              "name": "site",
              "type": "uint8"
            },
            {
              "internalType": "uint256",
              "name": "price",
              "type": "uint256"
            },
            {
              "internalType": "uint256",
              "name": "score",
              "type": "uint256"
            },
            {
              "internalType": "uint256[]",
              "name": "topics",
              "type": "uint256[]"
            },
            {
              "internalType": "string",
              "name": "username",
              "type": "string"
            },
            {
              "internalType": "string",
              "name": "userId",
              "type": "string"
            },
            {
              "internalType": "bool",
              "name": "needsUpdate",
              "type": "bool"
            },
            {
              "internalType": "string",
              "name": "newUsername",
              "type": "string"
            },
            {
              "internalType": "uint256",
              "name": "newPrice",
              "type": "uint256"
            },
            {
              "internalType": "uint256",
              "name": "newScore",
              "type": "uint256"
            },
            {
              "internalType": "uint256[]",
              "name": "newTopics",
              "type": "uint256[]"
            },
            {
              "internalType": "uint256",
              "name": "lastUpdated",
              "type": "uint256"
            }
          ],
          "indexed": false,
          "internalType": "struct Asami.Handle",
          "name": "handle",
          "type": "tuple"
        }
      ],
      "name": "HandleSaved",
      "type": "event"
    },
    {
      "anonymous": false,
      "inputs": [
        {
          "indexed": true,
          "internalType": "address",
          "name": "previousOwner",
          "type": "address"
        },
        {
          "indexed": true,
          "internalType": "address",
          "name": "newOwner",
          "type": "address"
        }
      ],
      "name": "OwnershipTransferred",
      "type": "event"
    },
    {
      "anonymous": false,
      "inputs": [
        {
          "indexed": false,
          "internalType": "uint256",
          "name": "id",
          "type": "uint256"
        },
        {
          "indexed": false,
          "internalType": "string",
          "name": "name",
          "type": "string"
        }
      ],
      "name": "TopicSaved",
      "type": "event"
    },
    {
      "anonymous": false,
      "inputs": [
        {
          "indexed": true,
          "internalType": "address",
          "name": "from",
          "type": "address"
        },
        {
          "indexed": true,
          "internalType": "address",
          "name": "to",
          "type": "address"
        },
        {
          "indexed": false,
          "internalType": "uint256",
          "name": "value",
          "type": "uint256"
        }
      ],
      "name": "Transfer",
      "type": "event"
    },
    {
      "inputs": [
        {
          "internalType": "address",
          "name": "",
          "type": "address"
        }
      ],
      "name": "accountIdByAddress",
      "outputs": [
        {
          "internalType": "uint256",
          "name": "",
          "type": "uint256"
        }
      ],
      "stateMutability": "view",
      "type": "function",
      "constant": true
    },
    {
      "inputs": [
        {
          "internalType": "uint256",
          "name": "",
          "type": "uint256"
        }
      ],
      "name": "accountIds",
      "outputs": [
        {
          "internalType": "uint256",
          "name": "",
          "type": "uint256"
        }
      ],
      "stateMutability": "view",
      "type": "function",
      "constant": true
    },
    {
      "inputs": [
        {
          "internalType": "uint256",
          "name": "",
          "type": "uint256"
        }
      ],
      "name": "accounts",
      "outputs": [
        {
          "internalType": "uint256",
          "name": "id",
          "type": "uint256"
        },
        {
          "internalType": "address",
          "name": "addr",
          "type": "address"
        },
        {
          "internalType": "uint256",
          "name": "unclaimedAsamiTokens",
          "type": "uint256"
        },
        {
          "internalType": "uint256",
          "name": "unclaimedDocRewards",
          "type": "uint256"
        }
      ],
      "stateMutability": "view",
      "type": "function",
      "constant": true
    },
    {
      "inputs": [],
      "name": "admin",
      "outputs": [
        {
          "internalType": "address",
          "name": "",
          "type": "address"
        }
      ],
      "stateMutability": "view",
      "type": "function",
      "constant": true
    },
    {
      "inputs": [],
      "name": "adminTreasury",
      "outputs": [
        {
          "internalType": "address",
          "name": "",
          "type": "address"
        }
      ],
      "stateMutability": "view",
      "type": "function",
      "constant": true
    },
    {
      "inputs": [
        {
          "internalType": "address",
          "name": "",
          "type": "address"
        }
      ],
      "name": "adminVoteCountIdByCandidate",
      "outputs": [
        {
          "internalType": "uint256",
          "name": "",
          "type": "uint256"
        }
      ],
      "stateMutability": "view",
      "type": "function",
      "constant": true
    },
    {
      "inputs": [
        {
          "internalType": "uint256",
          "name": "",
          "type": "uint256"
        }
      ],
      "name": "adminVoteCounts",
      "outputs": [
        {
          "internalType": "uint256",
          "name": "votes",
          "type": "uint256"
        },
        {
          "internalType": "address",
          "name": "candidate",
          "type": "address"
        }
      ],
      "stateMutability": "view",
      "type": "function",
      "constant": true
    },
    {
      "inputs": [
        {
          "internalType": "address",
          "name": "owner",
          "type": "address"
        },
        {
          "internalType": "address",
          "name": "spender",
          "type": "address"
        }
      ],
      "name": "allowance",
      "outputs": [
        {
          "internalType": "uint256",
          "name": "",
          "type": "uint256"
        }
      ],
      "stateMutability": "view",
      "type": "function",
      "constant": true
    },
    {
      "inputs": [
        {
          "internalType": "address",
          "name": "spender",
          "type": "address"
        },
        {
          "internalType": "uint256",
          "name": "amount",
          "type": "uint256"
        }
      ],
      "name": "approve",
      "outputs": [
        {
          "internalType": "bool",
          "name": "",
          "type": "bool"
        }
      ],
      "stateMutability": "nonpayable",
      "type": "function"
    },
    {
      "inputs": [
        {
          "internalType": "address",
          "name": "account",
          "type": "address"
        }
      ],
      "name": "balanceOf",
      "outputs": [
        {
          "internalType": "uint256",
          "name": "",
          "type": "uint256"
        }
      ],
      "stateMutability": "view",
      "type": "function",
      "constant": true
    },
    {
      "inputs": [
        {
          "internalType": "uint256",
          "name": "",
          "type": "uint256"
        }
      ],
      "name": "campaigns",
      "outputs": [
        {
          "internalType": "uint256",
          "name": "id",
          "type": "uint256"
        },
        {
          "internalType": "uint256",
          "name": "accountId",
          "type": "uint256"
        },
        {
          "internalType": "enum Asami.Site",
          "name": "site",
          "type": "uint8"
        },
        {
          "internalType": "uint256",
          "name": "budget",
          "type": "uint256"
        },
        {
          "internalType": "uint256",
          "name": "remaining",
          "type": "uint256"
        },
        {
          "internalType": "string",
          "name": "contentId",
          "type": "string"
        },
        {
          "internalType": "uint256",
          "name": "priceScoreRatio",
          "type": "uint256"
        },
        {
          "internalType": "uint256",
          "name": "validUntil",
          "type": "uint256"
        },
        {
          "internalType": "bool",
          "name": "fundedByAdmin",
          "type": "bool"
        }
      ],
      "stateMutability": "view",
      "type": "function",
      "constant": true
    },
    {
      "inputs": [],
      "name": "cap",
      "outputs": [
        {
          "internalType": "uint256",
          "name": "",
          "type": "uint256"
        }
      ],
      "stateMutability": "view",
      "type": "function",
      "constant": true
    },
    {
      "inputs": [],
      "name": "claimedAsamiTokens",
      "outputs": [
        {
          "internalType": "uint256",
          "name": "",
          "type": "uint256"
        }
      ],
      "stateMutability": "view",
      "type": "function",
      "constant": true
    },
    {
      "inputs": [
        {
          "internalType": "uint256",
          "name": "",
          "type": "uint256"
        }
      ],
      "name": "collabs",
      "outputs": [
        {
          "internalType": "uint256",
          "name": "id",
          "type": "uint256"
        },
        {
          "internalType": "uint256",
          "name": "handleId",
          "type": "uint256"
        },
        {
          "internalType": "uint256",
          "name": "campaignId",
          "type": "uint256"
        },
        {
          "internalType": "uint256",
          "name": "gross",
          "type": "uint256"
        },
        {
          "internalType": "uint256",
          "name": "fee",
          "type": "uint256"
        },
        {
          "internalType": "string",
          "name": "proof",
          "type": "string"
        },
        {
          "internalType": "uint256",
          "name": "createdAt",
          "type": "uint256"
        }
      ],
      "stateMutability": "view",
      "type": "function",
      "constant": true
    },
    {
      "inputs": [],
      "name": "decimals",
      "outputs": [
        {
          "internalType": "uint8",
          "name": "",
          "type": "uint8"
        }
      ],
      "stateMutability": "view",
      "type": "function",
      "constant": true
    },
    {
      "inputs": [
        {
          "internalType": "address",
          "name": "spender",
          "type": "address"
        },
        {
          "internalType": "uint256",
          "name": "subtractedValue",
          "type": "uint256"
        }
      ],
      "name": "decreaseAllowance",
      "outputs": [
        {
          "internalType": "bool",
          "name": "",
          "type": "bool"
        }
      ],
      "stateMutability": "nonpayable",
      "type": "function"
    },
    {
      "inputs": [],
      "name": "defaultFeeRate",
      "outputs": [
        {
          "internalType": "uint256",
          "name": "",
          "type": "uint256"
        }
      ],
      "stateMutability": "view",
      "type": "function",
      "constant": true
    },
    {
      "inputs": [],
      "name": "feePool",
      "outputs": [
        {
          "internalType": "uint256",
          "name": "",
          "type": "uint256"
        }
      ],
      "stateMutability": "view",
      "type": "function",
      "constant": true
    },
    {
      "inputs": [],
      "name": "feeRate",
      "outputs": [
        {
          "internalType": "uint256",
          "name": "",
          "type": "uint256"
        }
      ],
      "stateMutability": "view",
      "type": "function",
      "constant": true
    },
    {
      "inputs": [
        {
          "internalType": "address",
          "name": "",
          "type": "address"
        }
      ],
      "name": "feeRateVotes",
      "outputs": [
        {
          "internalType": "uint256",
          "name": "votes",
          "type": "uint256"
        },
        {
          "internalType": "uint256",
          "name": "rate",
          "type": "uint256"
        }
      ],
      "stateMutability": "view",
      "type": "function",
      "constant": true
    },
    {
      "inputs": [
        {
          "internalType": "uint256",
          "name": "",
          "type": "uint256"
        }
      ],
      "name": "handles",
      "outputs": [
        {
          "internalType": "uint256",
          "name": "id",
          "type": "uint256"
        },
        {
          "internalType": "uint256",
          "name": "accountId",
          "type": "uint256"
        },
        {
          "internalType": "enum Asami.Site",
          "name": "site",
          "type": "uint8"
        },
        {
          "internalType": "uint256",
          "name": "price",
          "type": "uint256"
        },
        {
          "internalType": "uint256",
          "name": "score",
          "type": "uint256"
        },
        {
          "internalType": "string",
          "name": "username",
          "type": "string"
        },
        {
          "internalType": "string",
          "name": "userId",
          "type": "string"
        },
        {
          "internalType": "bool",
          "name": "needsUpdate",
          "type": "bool"
        },
        {
          "internalType": "string",
          "name": "newUsername",
          "type": "string"
        },
        {
          "internalType": "uint256",
          "name": "newPrice",
          "type": "uint256"
        },
        {
          "internalType": "uint256",
          "name": "newScore",
          "type": "uint256"
        },
        {
          "internalType": "uint256",
          "name": "lastUpdated",
          "type": "uint256"
        }
      ],
      "stateMutability": "view",
      "type": "function",
      "constant": true
    },
    {
      "inputs": [
        {
          "internalType": "uint256",
          "name": "",
          "type": "uint256"
        }
      ],
      "name": "holders",
      "outputs": [
        {
          "internalType": "address",
          "name": "",
          "type": "address"
        }
      ],
      "stateMutability": "view",
      "type": "function",
      "constant": true
    },
    {
      "inputs": [
        {
          "internalType": "address",
          "name": "spender",
          "type": "address"
        },
        {
          "internalType": "uint256",
          "name": "addedValue",
          "type": "uint256"
        }
      ],
      "name": "increaseAllowance",
      "outputs": [
        {
          "internalType": "bool",
          "name": "",
          "type": "bool"
        }
      ],
      "stateMutability": "nonpayable",
      "type": "function"
    },
    {
      "inputs": [],
      "name": "lastAdminElection",
      "outputs": [
        {
          "internalType": "uint256",
          "name": "",
          "type": "uint256"
        }
      ],
      "stateMutability": "view",
      "type": "function",
      "constant": true
    },
    {
      "inputs": [],
      "name": "lastPayoutCycle",
      "outputs": [
        {
          "internalType": "uint256",
          "name": "",
          "type": "uint256"
        }
      ],
      "stateMutability": "view",
      "type": "function",
      "constant": true
    },
    {
      "inputs": [],
      "name": "lastVotedFeeRateAppliedOn",
      "outputs": [
        {
          "internalType": "uint256",
          "name": "",
          "type": "uint256"
        }
      ],
      "stateMutability": "view",
      "type": "function",
      "constant": true
    },
    {
      "inputs": [
        {
          "internalType": "uint256",
          "name": "",
          "type": "uint256"
        }
      ],
      "name": "latestAdminElections",
      "outputs": [
        {
          "internalType": "address",
          "name": "",
          "type": "address"
        }
      ],
      "stateMutability": "view",
      "type": "function",
      "constant": true
    },
    {
      "inputs": [],
      "name": "name",
      "outputs": [
        {
          "internalType": "string",
          "name": "",
          "type": "string"
        }
      ],
      "stateMutability": "view",
      "type": "function",
      "constant": true
    },
    {
      "inputs": [],
      "name": "owner",
      "outputs": [
        {
          "internalType": "address",
          "name": "",
          "type": "address"
        }
      ],
      "stateMutability": "view",
      "type": "function",
      "constant": true
    },
    {
      "inputs": [],
      "name": "payoutsRemaining",
      "outputs": [
        {
          "internalType": "uint256",
          "name": "",
          "type": "uint256"
        }
      ],
      "stateMutability": "view",
      "type": "function",
      "constant": true
    },
    {
      "inputs": [],
      "name": "payoutsTotal",
      "outputs": [
        {
          "internalType": "uint256",
          "name": "",
          "type": "uint256"
        }
      ],
      "stateMutability": "view",
      "type": "function",
      "constant": true
    },
    {
      "inputs": [],
      "name": "renounceOwnership",
      "outputs": [],
      "stateMutability": "nonpayable",
      "type": "function"
    },
    {
      "inputs": [
        {
          "internalType": "address",
          "name": "",
          "type": "address"
        }
      ],
      "name": "submittedAdminVotes",
      "outputs": [
        {
          "internalType": "uint256",
          "name": "votes",
          "type": "uint256"
        },
        {
          "internalType": "address",
          "name": "candidate",
          "type": "address"
        },
        {
          "internalType": "uint256",
          "name": "cycle",
          "type": "uint256"
        },
        {
          "internalType": "bool",
          "name": "vested",
          "type": "bool"
        }
      ],
      "stateMutability": "view",
      "type": "function",
      "constant": true
    },
    {
      "inputs": [],
      "name": "symbol",
      "outputs": [
        {
          "internalType": "string",
          "name": "",
          "type": "string"
        }
      ],
      "stateMutability": "view",
      "type": "function",
      "constant": true
    },
    {
      "inputs": [
        {
          "internalType": "uint256",
          "name": "",
          "type": "uint256"
        }
      ],
      "name": "topics",
      "outputs": [
        {
          "internalType": "string",
          "name": "",
          "type": "string"
        }
      ],
      "stateMutability": "view",
      "type": "function",
      "constant": true
    },
    {
      "inputs": [],
      "name": "totalSupply",
      "outputs": [
        {
          "internalType": "uint256",
          "name": "",
          "type": "uint256"
        }
      ],
      "stateMutability": "view",
      "type": "function",
      "constant": true
    },
    {
      "inputs": [
        {
          "internalType": "address",
          "name": "",
          "type": "address"
        }
      ],
      "name": "trackedHolders",
      "outputs": [
        {
          "internalType": "bool",
          "name": "",
          "type": "bool"
        }
      ],
      "stateMutability": "view",
      "type": "function",
      "constant": true
    },
    {
      "inputs": [
        {
          "internalType": "address",
          "name": "to",
          "type": "address"
        },
        {
          "internalType": "uint256",
          "name": "amount",
          "type": "uint256"
        }
      ],
      "name": "transfer",
      "outputs": [
        {
          "internalType": "bool",
          "name": "",
          "type": "bool"
        }
      ],
      "stateMutability": "nonpayable",
      "type": "function"
    },
    {
      "inputs": [
        {
          "internalType": "address",
          "name": "from",
          "type": "address"
        },
        {
          "internalType": "address",
          "name": "to",
          "type": "address"
        },
        {
          "internalType": "uint256",
          "name": "amount",
          "type": "uint256"
        }
      ],
      "name": "transferFrom",
      "outputs": [
        {
          "internalType": "bool",
          "name": "",
          "type": "bool"
        }
      ],
      "stateMutability": "nonpayable",
      "type": "function"
    },
    {
      "inputs": [
        {
          "internalType": "address",
          "name": "newOwner",
          "type": "address"
        }
      ],
      "name": "transferOwnership",
      "outputs": [],
      "stateMutability": "nonpayable",
      "type": "function"
    },
    {
      "inputs": [],
      "name": "vestedAdminVotesTotal",
      "outputs": [
        {
          "internalType": "uint256",
          "name": "",
          "type": "uint256"
        }
      ],
      "stateMutability": "view",
      "type": "function",
      "constant": true
    },
    {
      "inputs": [],
      "name": "votedFeeRate",
      "outputs": [
        {
          "internalType": "uint256",
          "name": "",
          "type": "uint256"
        }
      ],
      "stateMutability": "view",
      "type": "function",
      "constant": true
    },
    {
      "inputs": [],
      "name": "votedFeeRateVoteCount",
      "outputs": [
        {
          "internalType": "uint256",
          "name": "",
          "type": "uint256"
        }
      ],
      "stateMutability": "view",
      "type": "function",
      "constant": true
    },
    {
      "inputs": [],
      "name": "getHandles",
      "outputs": [
        {
          "components": [
            {
              "internalType": "uint256",
              "name": "id",
              "type": "uint256"
            },
            {
              "internalType": "uint256",
              "name": "accountId",
              "type": "uint256"
            },
            {
              "internalType": "enum Asami.Site",
              "name": "site",
              "type": "uint8"
            },
            {
              "internalType": "uint256",
              "name": "price",
              "type": "uint256"
            },
            {
              "internalType": "uint256",
              "name": "score",
              "type": "uint256"
            },
            {
              "internalType": "uint256[]",
              "name": "topics",
              "type": "uint256[]"
            },
            {
              "internalType": "string",
              "name": "username",
              "type": "string"
            },
            {
              "internalType": "string",
              "name": "userId",
              "type": "string"
            },
            {
              "internalType": "bool",
              "name": "needsUpdate",
              "type": "bool"
            },
            {
              "internalType": "string",
              "name": "newUsername",
              "type": "string"
            },
            {
              "internalType": "uint256",
              "name": "newPrice",
              "type": "uint256"
            },
            {
              "internalType": "uint256",
              "name": "newScore",
              "type": "uint256"
            },
            {
              "internalType": "uint256[]",
              "name": "newTopics",
              "type": "uint256[]"
            },
            {
              "internalType": "uint256",
              "name": "lastUpdated",
              "type": "uint256"
            }
          ],
          "internalType": "struct Asami.Handle[]",
          "name": "",
          "type": "tuple[]"
        }
      ],
      "stateMutability": "view",
      "type": "function",
      "constant": true
    },
    {
      "inputs": [],
      "name": "getCampaigns",
      "outputs": [
        {
          "components": [
            {
              "internalType": "uint256",
              "name": "id",
              "type": "uint256"
            },
            {
              "internalType": "uint256",
              "name": "accountId",
              "type": "uint256"
            },
            {
              "internalType": "enum Asami.Site",
              "name": "site",
              "type": "uint8"
            },
            {
              "internalType": "uint256",
              "name": "budget",
              "type": "uint256"
            },
            {
              "internalType": "uint256",
              "name": "remaining",
              "type": "uint256"
            },
            {
              "internalType": "string",
              "name": "contentId",
              "type": "string"
            },
            {
              "internalType": "uint256",
              "name": "priceScoreRatio",
              "type": "uint256"
            },
            {
              "internalType": "uint256[]",
              "name": "topics",
              "type": "uint256[]"
            },
            {
              "internalType": "uint256",
              "name": "validUntil",
              "type": "uint256"
            },
            {
              "internalType": "bool",
              "name": "fundedByAdmin",
              "type": "bool"
            }
          ],
          "internalType": "struct Asami.Campaign[]",
          "name": "",
          "type": "tuple[]"
        }
      ],
      "stateMutability": "view",
      "type": "function",
      "constant": true
    },
    {
      "inputs": [],
      "name": "allAdminVoteCounts",
      "outputs": [
        {
          "components": [
            {
              "internalType": "uint256",
              "name": "votes",
              "type": "uint256"
            },
            {
              "internalType": "address",
              "name": "candidate",
              "type": "address"
            }
          ],
          "internalType": "struct Asami.AdminVoteCount[]",
          "name": "",
          "type": "tuple[]"
        }
      ],
      "stateMutability": "view",
      "type": "function",
      "constant": true
    },
    {
      "inputs": [],
      "name": "getLatestAdminElections",
      "outputs": [
        {
          "internalType": "address[3]",
          "name": "",
          "type": "address[3]"
        }
      ],
      "stateMutability": "view",
      "type": "function",
      "constant": true
    },
    {
      "inputs": [
        {
          "internalType": "address",
          "name": "_admin",
          "type": "address"
        },
        {
          "internalType": "address",
          "name": "_adminTreasury",
          "type": "address"
        }
      ],
      "name": "setAdmin",
      "outputs": [],
      "stateMutability": "nonpayable",
      "type": "function"
    },
    {
      "inputs": [],
      "name": "getHolders",
      "outputs": [
        {
          "internalType": "string[]",
          "name": "",
          "type": "string[]"
        }
      ],
      "stateMutability": "view",
      "type": "function",
      "constant": true
    },
    {
      "inputs": [],
      "name": "getClaimedAsamiTokens",
      "outputs": [
        {
          "internalType": "uint256",
          "name": "",
          "type": "uint256"
        }
      ],
      "stateMutability": "view",
      "type": "function",
      "constant": true
    },
    {
      "inputs": [],
      "name": "getTopics",
      "outputs": [
        {
          "internalType": "string[]",
          "name": "",
          "type": "string[]"
        }
      ],
      "stateMutability": "view",
      "type": "function",
      "constant": true
    },
    {
      "inputs": [
        {
          "internalType": "string[]",
          "name": "_names",
          "type": "string[]"
        }
      ],
      "name": "adminAddTopics",
      "outputs": [],
      "stateMutability": "nonpayable",
      "type": "function"
    },
    {
      "inputs": [
        {
          "components": [
            {
              "internalType": "uint256",
              "name": "accountId",
              "type": "uint256"
            },
            {
              "internalType": "address",
              "name": "addr",
              "type": "address"
            }
          ],
          "internalType": "struct Asami.AdminClaimAccountsInput[]",
          "name": "_input",
          "type": "tuple[]"
        }
      ],
      "name": "claimAccounts",
      "outputs": [],
      "stateMutability": "nonpayable",
      "type": "function"
    },
    {
      "inputs": [
        {
          "components": [
            {
              "internalType": "uint256",
              "name": "id",
              "type": "uint256"
            },
            {
              "internalType": "uint256",
              "name": "accountId",
              "type": "uint256"
            },
            {
              "internalType": "enum Asami.Site",
              "name": "site",
              "type": "uint8"
            },
            {
              "internalType": "uint256",
              "name": "price",
              "type": "uint256"
            },
            {
              "internalType": "uint256",
              "name": "score",
              "type": "uint256"
            },
            {
              "internalType": "uint256[]",
              "name": "topics",
              "type": "uint256[]"
            },
            {
              "internalType": "string",
              "name": "username",
              "type": "string"
            },
            {
              "internalType": "string",
              "name": "userId",
              "type": "string"
            },
            {
              "internalType": "bool",
              "name": "needsUpdate",
              "type": "bool"
            },
            {
              "internalType": "string",
              "name": "newUsername",
              "type": "string"
            },
            {
              "internalType": "uint256",
              "name": "newPrice",
              "type": "uint256"
            },
            {
              "internalType": "uint256",
              "name": "newScore",
              "type": "uint256"
            },
            {
              "internalType": "uint256[]",
              "name": "newTopics",
              "type": "uint256[]"
            },
            {
              "internalType": "uint256",
              "name": "lastUpdated",
              "type": "uint256"
            }
          ],
          "internalType": "struct Asami.Handle[]",
          "name": "_inputs",
          "type": "tuple[]"
        }
      ],
      "name": "adminMakeHandles",
      "outputs": [],
      "stateMutability": "nonpayable",
      "type": "function"
    },
    {
      "inputs": [
        {
          "components": [
            {
              "internalType": "enum Asami.Site",
              "name": "site",
              "type": "uint8"
            },
            {
              "internalType": "uint256",
              "name": "budget",
              "type": "uint256"
            },
            {
              "internalType": "string",
              "name": "contentId",
              "type": "string"
            },
            {
              "internalType": "uint256",
              "name": "priceScoreRatio",
              "type": "uint256"
            },
            {
              "internalType": "uint256[]",
              "name": "topics",
              "type": "uint256[]"
            },
            {
              "internalType": "uint256",
              "name": "validUntil",
              "type": "uint256"
            }
          ],
          "internalType": "struct Asami.CampaignInput[]",
          "name": "_inputs",
          "type": "tuple[]"
        }
      ],
      "name": "makeCampaigns",
      "outputs": [],
      "stateMutability": "nonpayable",
      "type": "function"
    },
    {
      "inputs": [
        {
          "components": [
            {
              "internalType": "uint256",
              "name": "accountId",
              "type": "uint256"
            },
            {
              "components": [
                {
                  "internalType": "enum Asami.Site",
                  "name": "site",
                  "type": "uint8"
                },
                {
                  "internalType": "uint256",
                  "name": "budget",
                  "type": "uint256"
                },
                {
                  "internalType": "string",
                  "name": "contentId",
                  "type": "string"
                },
                {
                  "internalType": "uint256",
                  "name": "priceScoreRatio",
                  "type": "uint256"
                },
                {
                  "internalType": "uint256[]",
                  "name": "topics",
                  "type": "uint256[]"
                },
                {
                  "internalType": "uint256",
                  "name": "validUntil",
                  "type": "uint256"
                }
              ],
              "internalType": "struct Asami.CampaignInput",
              "name": "attrs",
              "type": "tuple"
            }
          ],
          "internalType": "struct Asami.AdminCampaignInput[]",
          "name": "_inputs",
          "type": "tuple[]"
        }
      ],
      "name": "adminMakeCampaigns",
      "outputs": [],
      "stateMutability": "nonpayable",
      "type": "function"
    },
    {
      "inputs": [
        {
          "components": [
            {
              "internalType": "uint256",
              "name": "campaignId",
              "type": "uint256"
            },
            {
              "internalType": "uint256",
              "name": "handleId",
              "type": "uint256"
            }
          ],
          "internalType": "struct Asami.AdminMakeCollabsInput[]",
          "name": "_collabs",
          "type": "tuple[]"
        }
      ],
      "name": "adminMakeCollabs",
      "outputs": [],
      "stateMutability": "nonpayable",
      "type": "function"
    },
    {
      "inputs": [
        {
          "internalType": "uint256[]",
          "name": "_campaignIds",
          "type": "uint256[]"
        }
      ],
      "name": "reimburseDueCampaigns",
      "outputs": [],
      "stateMutability": "nonpayable",
      "type": "function"
    },
    {
      "inputs": [
        {
          "components": [
            {
              "internalType": "uint256",
              "name": "handleId",
              "type": "uint256"
            },
            {
              "internalType": "uint256",
              "name": "price",
              "type": "uint256"
            }
          ],
          "internalType": "struct Asami.AdminSetPriceInput[]",
          "name": "_inputs",
          "type": "tuple[]"
        }
      ],
      "name": "adminSetPrice",
      "outputs": [],
      "stateMutability": "nonpayable",
      "type": "function"
    },
    {
      "inputs": [
        {
          "internalType": "uint256",
          "name": "_handleId",
          "type": "uint256"
        },
        {
          "internalType": "uint256",
          "name": "_price",
          "type": "uint256"
        }
      ],
      "name": "setPrice",
      "outputs": [],
      "stateMutability": "nonpayable",
      "type": "function"
    },
    {
      "inputs": [
        {
          "components": [
            {
              "internalType": "uint256",
              "name": "handleId",
              "type": "uint256"
            },
            {
              "internalType": "uint256",
              "name": "score",
              "type": "uint256"
            },
            {
              "internalType": "uint256[]",
              "name": "topics",
              "type": "uint256[]"
            }
          ],
          "internalType": "struct Asami.AdminSetScoreAndTopicsInput[]",
          "name": "_inputs",
          "type": "tuple[]"
        }
      ],
      "name": "adminSetScoreAndTopics",
      "outputs": [],
      "stateMutability": "nonpayable",
      "type": "function"
    },
    {
      "inputs": [],
      "name": "getCycleLength",
      "outputs": [
        {
          "internalType": "uint256",
          "name": "",
          "type": "uint256"
        }
      ],
      "stateMutability": "pure",
      "type": "function",
      "constant": true
    },
    {
      "inputs": [],
      "name": "getCurrentCycle",
      "outputs": [
        {
          "internalType": "uint256",
          "name": "",
          "type": "uint256"
        }
      ],
      "stateMutability": "view",
      "type": "function",
      "constant": true
    },
    {
      "inputs": [],
      "name": "getNextCycle",
      "outputs": [
        {
          "internalType": "uint256",
          "name": "",
          "type": "uint256"
        }
      ],
      "stateMutability": "view",
      "type": "function",
      "constant": true
    },
    {
      "inputs": [],
      "name": "distributeFeePool",
      "outputs": [],
      "stateMutability": "nonpayable",
      "type": "function"
    },
    {
      "inputs": [
        {
          "internalType": "uint256[]",
          "name": "_indexes",
          "type": "uint256[]"
        }
      ],
      "name": "applyHandleUpdates",
      "outputs": [],
      "stateMutability": "nonpayable",
      "type": "function"
    },
    {
      "inputs": [],
      "name": "applyVotedFeeRate",
      "outputs": [],
      "stateMutability": "nonpayable",
      "type": "function"
    },
    {
      "inputs": [
        {
          "internalType": "uint256",
          "name": "_rate",
          "type": "uint256"
        }
      ],
      "name": "submitFeeRateVote",
      "outputs": [],
      "stateMutability": "nonpayable",
      "type": "function"
    },
    {
      "inputs": [],
      "name": "removeFeeRateVote",
      "outputs": [],
      "stateMutability": "nonpayable",
      "type": "function"
    },
    {
      "inputs": [
        {
          "internalType": "address",
          "name": "_candidate",
          "type": "address"
        }
      ],
      "name": "submitAdminVote",
      "outputs": [],
      "stateMutability": "nonpayable",
      "type": "function"
    },
    {
      "inputs": [
        {
          "internalType": "address[]",
          "name": "_holders",
          "type": "address[]"
        }
      ],
      "name": "vestAdminVotes",
      "outputs": [],
      "stateMutability": "nonpayable",
      "type": "function"
    },
    {
      "inputs": [
        {
          "internalType": "address",
          "name": "_candidate",
          "type": "address"
        }
      ],
      "name": "proclaimCycleAdminWinner",
      "outputs": [],
      "stateMutability": "nonpayable",
      "type": "function"
    },
    {
      "inputs": [],
      "name": "removeAdminVote",
      "outputs": [],
      "stateMutability": "nonpayable",
      "type": "function"
    },
    {
      "inputs": [
        {
          "internalType": "address",
          "name": "_admin",
          "type": "address"
        }
      ],
      "name": "setAdminAddress",
      "outputs": [],
      "stateMutability": "nonpayable",
      "type": "function"
    },
    {
      "inputs": [
        {
          "internalType": "uint256[]",
          "name": "mainSet",
          "type": "uint256[]"
        },
        {
          "internalType": "uint256[]",
          "name": "subset",
          "type": "uint256[]"
        }
      ],
      "name": "isSubset",
      "outputs": [
        {
          "internalType": "bool",
          "name": "",
          "type": "bool"
        }
      ],
      "stateMutability": "pure",
      "type": "function",
      "constant": true
    }
  ],
  "bytecode": "0x60a0604052678ac7230489e80000600c55600c54600d55600c54600e556000600f5560006010556000602255600060235560006024553480156200004257600080fd5b5060405162005cda38038062005cda8339810160408190526200006591620001be565b6a115eec47f6cf7e350000006040518060400160405280600a81526020016920b9b0b6b4aa37b5b2b760b11b815250604051806040016040528060058152602001644153414d4960d81b815250620000cc620000c66200016a60201b60201c565b6200016e565b6004620000da838262000295565b506005620000e9828262000295565b50505060008111620001415760405162461bcd60e51b815260206004820152601560248201527f45524332304361707065643a2063617020697320300000000000000000000000604482015260640160405180910390fd5b608052601b80546001600160a01b0319166001600160a01b039290921691909117905562000361565b3390565b600080546001600160a01b038381166001600160a01b0319831681178455604051919092169283917f8be0079c531659141344cd1fd0a4f28419497f9722a3daafe3b4186f6b6457e09190a35050565b600060208284031215620001d157600080fd5b81516001600160a01b0381168114620001e957600080fd5b9392505050565b634e487b7160e01b600052604160045260246000fd5b600181811c908216806200021b57607f821691505b6020821081036200023c57634e487b7160e01b600052602260045260246000fd5b50919050565b601f8211156200029057600081815260208120601f850160051c810160208610156200026b5750805b601f850160051c820191505b818110156200028c5782815560010162000277565b5050505b505050565b81516001600160401b03811115620002b157620002b1620001f0565b620002c981620002c2845462000206565b8462000242565b602080601f831160018114620003015760008415620002e85750858301515b600019600386901b1c1916600185901b1785556200028c565b600085815260208120601f198616915b82811015620003325788860151825594840194600190910190840162000311565b5085821015620003515787850151600019600388901b60f8161c191681555b5050505050600190811b01905550565b60805161595d6200037d6000396000610c95015261595d6000f3fe608060405234801561001057600080fd5b50600436106103595760003560e01c806306fdde031461035e57806307d334551461037c578063095ea7b314610393578063141961bc146103b65780631677aa3d146103de57806318160ddd146103e757806318d9adab146103ef5780631b06cfbc1461040257806323b872dd1461042d57806325076468146104405780632a11ced0146104495780632c1e816d1461045c578063313ce5671461047157806333c24bd314610480578063355274ea14610493578063395093511461049b5780633ca75e56146104ae5780633ec62c0b146104c1578063402c5133146104d4578063419a7c5d146104e75780634259d8a2146104fc57806346c33dd5146105055780634969a969146105185780634ba593c6146105215780634bd38e261461053457806358cea7d2146105545780635d03e487146105675780635e6134231461057a5780635fe8e7cc146105835780636717d7a81461059857806368841a46146105b85780636b6a4ad0146105c15780636f1c7617146105e457806370a08231146105ec578063715018a6146105ff57806379dec48b146106075780637d98e20f1461060f57806381d036f514610635578063894d71e1146106715780638b69633d146106845780638bec13cf146106975780638da5cb5b146106a057806390537d1f146106a85780639314b214146106bb57806395d89b41146106c457806396cad0db146106cc578063978bbdb9146106df5780639938e929146106e85780639bd40aee146106fb5780639dfceaaa1461070e578063a457c2d714610721578063a6b0363314610734578063a9059cbb14610749578063ae2e933b1461075c578063be26ed7f14610765578063c3d03cd41461076d578063c55b6bb714610782578063cdada3b614610795578063d0b0ce95146107aa578063d8c44f50146107b2578063dbc5bdc4146107ba578063dd62ed3e146107cd578063e4c1be2e146107e0578063ec8b436c146107e9578063f1a12cbc14610855578063f2a40db81461085e578063f2fde38b146108c5578063f3401bc3146108d8578063f398c241146108eb578063f7d97577146108f3578063f851a44014610906578063fa7fb4d814610919578063fdb265b014610949578063fee0117714610974578063ff3f18861461097c575b600080fd5b610366610984565b60405161037391906143e7565b60405180910390f35b610385600c5481565b604051908152602001610373565b6103a66103a136600461441d565b610a16565b6040519015158152602001610373565b6103c96103c4366004614447565b610a30565b60405161037399989796959493929190614498565b61038560205481565b600354610385565b6103666103fd366004614447565b610b1f565b610415610410366004614447565b610bcb565b6040516001600160a01b039091168152602001610373565b6103a661043b3660046144f6565b610beb565b61038560225481565b610415610457366004614447565b610c0f565b61046f61046a366004614532565b610c39565b005b60405160128152602001610373565b61038561048e366004614447565b610c72565b610385610c93565b6103a66104a936600461441d565b610cb7565b61046f6104bc366004614598565b610cd9565b61046f6104cf366004614598565b610e6c565b61046f6104e236600461461d565b610fbc565b6104ef6111bd565b6040516103739190614652565b6213c680610385565b61046f610513366004614598565b611202565b61038560245481565b61046f61052f36600461461d565b611350565b610385610542366004614532565b60146020526000908152604090205481565b61046f610562366004614598565b611454565b61046f610575366004614532565b6115c4565b610385600e5481565b61058b61176d565b604051610373919061468c565b6103856105a6366004614532565b60086020526000908152604090205481565b61038560105481565b6103a66105cf366004614532565b601d6020526000908152604090205460ff1681565b61046f611846565b6103856105fa366004614532565b61186b565b61046f611886565b61038561189a565b61062261061d366004614447565b6118b7565b60405161037397969594939291906146ee565b61065c610643366004614532565b6011602052600090815260409020805460019091015482565b60408051928352602083019190915201610373565b61046f61067f366004614598565b611991565b6103a6610692366004614820565b611ac6565b61038560165481565b610415611b62565b61046f6106b6366004614598565b611b71565b610385600f5481565b610366611ccf565b601f54610415906001600160a01b031681565b610385600d5481565b61046f6106f636600461461d565b611cde565b61046f610709366004614598565b61253f565b61046f61071c366004614447565b6127c1565b6103a661072f36600461441d565b6128d4565b61073c61294f565b6040516103739190614960565b6103a661075736600461441d565b612b1a565b61038560215481565b610385612b28565b610775612b37565b60405161037391906149b5565b61046f610790366004614b08565b612e86565b61079d612ee7565b6040516103739190614b3b565b61046f612f53565b61046f6130f0565b61046f6107c8366004614598565b6130f9565b6103856107db366004614b08565b6131f7565b61038560155481565b61082b6107f7366004614532565b601260205260009081526040902080546001820154600283015460039093015491926001600160a01b039091169160ff1684565b604080519485526001600160a01b0390931660208501529183015215156060820152608001610373565b61038560235481565b61089d61086c366004614447565b600760205260009081526040902080546001820154600283015460039093015491926001600160a01b039091169184565b604080519485526001600160a01b039093166020850152918301526060820152608001610373565b61046f6108d3366004614532565b613222565b61046f6108e6366004614532565b61329b565b61046f6133f1565b61046f610901366004614b93565b6133fa565b601e54610415906001600160a01b031681565b61092c610927366004614447565b613488565b604080519283526001600160a01b03909116602083015201610373565b61095c610957366004614447565b6134bf565b6040516103739c9b9a99989796959493929190614bb5565b61058b6136d4565b602054610385565b60606004805461099390614c47565b80601f01602080910402602001604051908101604052809291908181526020018280546109bf90614c47565b8015610a0c5780601f106109e157610100808354040283529160200191610a0c565b820191906000526020600020905b8154815290600101906020018083116109ef57829003601f168201915b5050505050905090565b600033610a248185856137a4565b60019150505b92915050565b600a8181548110610a4057600080fd5b60009182526020909120600a9091020180546001820154600283015460038401546004850154600586018054959750939560ff909316949193909291610a8590614c47565b80601f0160208091040260200160405190810160405280929190818152602001828054610ab190614c47565b8015610afe5780601f10610ad357610100808354040283529160200191610afe565b820191906000526020600020905b815481529060010190602001808311610ae157829003601f168201915b50505050600683015460088401546009909401549293909290915060ff1689565b601a8181548110610b2f57600080fd5b906000526020600020016000915090508054610b4a90614c47565b80601f0160208091040260200160405190810160405280929190818152602001828054610b7690614c47565b8015610bc35780601f10610b9857610100808354040283529160200191610bc3565b820191906000526020600020905b815481529060010190602001808311610ba657829003601f168201915b505050505081565b60178160038110610bdb57600080fd5b01546001600160a01b0316905081565b600033610bf98582856138c8565b610c0485858561393c565b506001949350505050565b601c8181548110610c1f57600080fd5b6000918252602090912001546001600160a01b0316905081565b601f546001600160a01b03163314610c5057600080fd5b601e80546001600160a01b0319166001600160a01b0392909216919091179055565b60068181548110610c8257600080fd5b600091825260209091200154905081565b7f000000000000000000000000000000000000000000000000000000000000000090565b600033610a24818585610cca83836131f7565b610cd49190614c97565b6137a4565b60005b81811015610e67576000600a6001858585818110610cfc57610cfc614caa565b90506020020135610d0d9190614cc0565b81548110610d1d57610d1d614caa565b90600052602060002090600a020190506000816000015411610d3e57600080fd5b6000816004015411610d4f57600080fd5b42816008015410610d5f57600080fd5b600181015460009081526007602052604081206004830180549083905560098401549192909160ff16610d9f5760018301546001600160a01b0316610dac565b601e546001600160a01b03165b601b5460405163a9059cbb60e01b81529192506001600160a01b03169063a9059cbb90610ddf9084908690600401614cd3565b6020604051808303816000875af1158015610dfe573d6000803e3d6000fd5b505050506040513d601f19601f82011682018060405250810190610e229190614cfa565b610e2b57600080fd5b60008051602061590883398151915284604051610e489190614dc9565b60405180910390a1505050508080610e5f90614e76565b915050610cdc565b505050565b601e546001600160a01b0316331480610e9d5750610e88611b62565b6001600160a01b0316336001600160a01b0316145b610ea657600080fd5b60005b81811015610e6757600060096001858585818110610ec957610ec9614caa565b9050602002810190610edb9190614e8f565b610ee6919035614cc0565b81548110610ef657610ef6614caa565b90600052602060002090600e02019050838383818110610f1857610f18614caa565b9050602002810190610f2a9190614e8f565b60200135600b820155838383818110610f4557610f45614caa565b9050602002810190610f579190614e8f565b610f65906040810190614eaf565b610f7391600c8401916142a8565b5060088101805460ff191660011790556040516000805160206158a883398151915290610fa1908390614ef8565b60405180910390a15080610fb481614e76565b915050610ea9565b601e546001600160a01b0316331480610fed5750610fd8611b62565b6001600160a01b0316336001600160a01b0316145b610ff657600080fd5b60005b81811015610e67573683838381811061101457611014614caa565b90506040020190506110298160000135613ae0565b8035600090815260076020526040902060018101546001600160a01b03161561105157600080fd5b8135600860006110676040860160208701614532565b6001600160a01b03166001600160a01b031681526020019081526020016000208190555081602001602081019061109e9190614532565b6001820180546001600160a01b0319166001600160a01b03929092169190911790556002810154156110f05760028101805460009091556110ee6110e86040850160208601614532565b82613b37565b505b600381015415611183576003810180546000909155601b54600183015460405163a9059cbb60e01b81526001600160a01b039283169263a9059cbb9261113d929116908590600401614cd3565b6020604051808303816000875af115801561115c573d6000803e3d6000fd5b505050506040513d601f19601f820116820180604052508101906111809190614cfa565b50505b6000805160206158c8833981519152816040516111a09190615004565b60405180910390a1505080806111b590614e76565b915050610ff9565b6111c56142f3565b6040805160608101918290529060179060039082845b81546001600160a01b031681526001909101906020018083116111db575050505050905090565b3360009081526008602090815260408083205483526007909152902060018101546001600160a01b031661126a5760405162461bcd60e51b81526004016112619060208082526004908201526306d6320360e41b604082015260600190565b60405180910390fd5b60005b8281101561134a57600084848381811061128957611289614caa565b905060200281019061129b919061508c565b6112a4906151c6565b905061133783604051806101400160405280600a8054905060016112c89190614c97565b815286546020820152845160409091019060048111156112ea576112ea614460565b815260200184602001518152602001846020015181526020018460400151815260200184606001518152602001846080015181526020018460a00151815260200160001515815250613b7e565b508061134281614e76565b91505061126d565b50505050565b601e546001600160a01b0316331480611381575061136c611b62565b6001600160a01b0316336001600160a01b0316145b61138a57600080fd5b60005b81811015610e67576000600960018585858181106113ad576113ad614caa565b905060400201600001356113c19190614cc0565b815481106113d1576113d1614caa565b600091825260208083206001600e909302018281015484526007909152604090922090810154919250906001600160a01b03161580156114115750805415155b61141a57600080fd5b61143f8286868681811061143057611430614caa565b90506040020160200135613d94565b5050808061144c90614e76565b91505061138d565b601e546001600160a01b03163314806114855750611470611b62565b6001600160a01b0316336001600160a01b0316145b61148e57600080fd5b60005b81811015610e675760008383838181106114ad576114ad614caa565b90506020028101906114bf91906151d2565b6114c8906151e8565b90506114d78160000151613ae0565b8051600090815260076020526040902060018101546001600160a01b0316156114ff57600080fd5b6115af81604051806101400160405280600a8054905060016115219190614c97565b815260200184600001548152602001856020015160000151600481111561154a5761154a614460565b815260200185602001516020015181526020018560200151602001518152602001856020015160400151815260200185602001516060015181526020018560200151608001518152602001856020015160a00151815260200160011515815250613b7e565b505080806115bc90614e76565b915050611491565b6001600160a01b038116600090815260146020526040902054806115e757600080fd5b600060136115f6600184614cc0565b8154811061160657611606614caa565b9060005260206000209060020201905060026015546116259190615252565b81541161165c5760405162461bcd60e51b8152602060048201526005602482015264070637720360dc1b6044820152606401611261565b6000601554116116965760405162461bcd60e51b8152602060048201526005602482015264706377203160d81b6044820152606401611261565b60006116a0612b28565b905080601654106116db5760405162461bcd60e51b81526020600482015260056024820152643831bb901960d91b6044820152606401611261565b601681905560188054601980546001600160a01b038084166001600160a01b031992831617909255601780548084169483168517909555931690871690811790925514801561173757506019546001600160a01b038581169116145b1561134a57601e80546001600160a01b0386166001600160a01b03199182168117909255601f8054909116909117905550505050565b6060601a805480602002602001604051908101604052809291908181526020016000905b8282101561183d5783829060005260206000200180546117b090614c47565b80601f01602080910402602001604051908101604052809291908181526020018280546117dc90614c47565b80156118295780601f106117fe57610100808354040283529160200191611829565b820191906000526020600020905b81548152906001019060200180831161180c57829003601f168201915b505050505081526020019060010190611791565b50505050905090565b6000611850612b28565b9050601054810361186057600080fd5b600e54600d55601055565b6001600160a01b031660009081526001602052604090205490565b61188e613dd5565b6118986000613e34565b565b60006213c6806118a8612b28565b6118b29190614c97565b905090565b600b81815481106118c757600080fd5b906000526020600020906007020160009150905080600001549080600101549080600201549080600301549080600401549080600501805461190890614c47565b80601f016020809104026020016040519081016040528092919081815260200182805461193490614c47565b80156119815780601f1061195657610100808354040283529160200191611981565b820191906000526020600020905b81548152906001019060200180831161196457829003601f168201915b5050505050908060060154905087565b601e546001600160a01b03163314806119c257506119ad611b62565b6001600160a01b0316336001600160a01b0316145b6119cb57600080fd5b60005b81811015610e6757611a068383838181106119eb576119eb614caa565b90506020028101906119fd9190615274565b60200135613ae0565b6009838383818110611a1a57611a1a614caa565b9050602002810190611a2c9190615274565b8154600181018355600092835260209092209091600e0201611a4e82826154d9565b50506009805460009190611a6490600190614cc0565b81548110611a7457611a74614caa565b60009182526020909120600954600e909202019081556040519091506000805160206158a883398151915290611aab908390614ef8565b60405180910390a15080611abe81614e76565b9150506119ce565b6000805b8251811015611b58576000805b8551811015611b3457858181518110611af257611af2614caa565b6020026020010151858481518110611b0c57611b0c614caa565b602002602001015103611b225760019150611b34565b80611b2c81614e76565b915050611ad7565b5080611b4557600092505050610a2a565b5080611b5081614e76565b915050611aca565b5060019392505050565b6000546001600160a01b031690565b6000611b7b612b28565b905060005b8281101561134a5760006009858584818110611b9e57611b9e614caa565b9050602002013581548110611bb557611bb5614caa565b90600052602060002090600e020190508281600d015403611be85760405162461bcd60e51b8152600401611261906155f4565b600881015460ff16611c0c5760405162461bcd60e51b8152600401611261906155f4565b60088101805460ff19169055600d810183905560098101805460009190611c3290614c47565b90501115611c4d5760068101611c4b6009830182615613565b505b600a81015415611c6257600a81015460038201555b600481015415611c7757600b81015460048201555b600c81015415611c9757600c81018054611c95916005840191614311565b505b6000805160206158a883398151915281604051611cb49190614ef8565b60405180910390a15080611cc781614e76565b915050611b80565b60606005805461099390614c47565b601e546001600160a01b0316331480611d0f5750611cfa611b62565b6001600160a01b0316336001600160a01b0316145b611d1857600080fd5b60005b81811015610e6757600060096001858585818110611d3b57611d3b614caa565b90506040020160200135611d4f9190614cc0565b81548110611d5f57611d5f614caa565b90600052602060002090600e020190506000816000015411611da75760405162461bcd60e51b81526020600482015260016024820152603160f81b6044820152606401611261565b600180820154600090815260076020526040812091600a90878787818110611dd157611dd1614caa565b90506040020160000135611de59190614cc0565b81548110611df557611df5614caa565b90600052602060002090600a020190506000816000015411611e3d5760405162461bcd60e51b81526020600482015260016024820152603360f81b6044820152606401611261565b42816008015411611e745760405162461bcd60e51b81526020600482015260016024820152600d60fa1b6044820152606401611261565b611f2283600501805480602002602001604051908101604052809291908181526020018280548015611ec557602002820191906000526020600020905b815481526020019060010190808311611eb1575b505050505082600701805480602002602001604051908101604052809291908181526020018280548015611f1857602002820191906000526020600020905b815481526020019060010190808311611f04575b5050505050611ac6565b611f525760405162461bcd60e51b81526020600482015260016024820152603560f81b6044820152606401611261565b826003015481600401541015611f8e5760405162461bcd60e51b81526020600482015260016024820152601b60f91b6044820152606401611261565b600283015460ff166004811115611fa757611fa7614460565b600282015460ff166004811115611fc057611fc0614460565b14611ff15760405162461bcd60e51b81526020600482015260016024820152603760f81b6044820152606401611261565b80600601548360040154846003015461200a9190615252565b111561203c5760405162461bcd60e51b81526020600482015260016024820152600760fb1b6044820152606401611261565b600181015460009081526007602052604081206003850154600d549192909168056bc75e2d631000009061207090846152c9565b61207a9190615252565b905060006120888284614cc0565b905060006040518060e00160405280600b8054905060016120a99190614c97565b8152895460208083019190915288546040808401919091526060808401899052608080850189905282518085018452600080825260a0808801929092524260c090970196909652600b80546001810182559652865160079096027f0175b7a638427703f0dbe7bb9bbf987a2551717b34e79f33b5b1008d1fa01db98101968755948701517f0175b7a638427703f0dbe7bb9bbf987a2551717b34e79f33b5b1008d1fa01dba860155928601517f0175b7a638427703f0dbe7bb9bbf987a2551717b34e79f33b5b1008d1fa01dbb850155908501517f0175b7a638427703f0dbe7bb9bbf987a2551717b34e79f33b5b1008d1fa01dbc8401558401517f0175b7a638427703f0dbe7bb9bbf987a2551717b34e79f33b5b1008d1fa01dbd83015583015192935083927f0175b7a638427703f0dbe7bb9bbf987a2551717b34e79f33b5b1008d1fa01dbe909101906121ff90826156e9565b5060c0919091015160069182015581519088018054600181018255600091825260208220019190915560048701805486929061223c908490614cc0565b9250508190555082602160008282546122559190614c97565b9091555050602054600090612268610c93565b6122729190614cc0565b905060008185116122835784612285565b815b905080602060008282546122999190614c97565b909155506000905068056bc75e2d631000006122b683600a6152c9565b6122c890670de0b6b3a76400006152c9565b6122d29190615252565b9050600068056bc75e2d631000006122eb84600f6152c9565b6122fd90670de0b6b3a76400006152c9565b6123079190615252565b90506000816123168486614cc0565b6123209190614cc0565b9050801561233e57601f5461233e906001600160a01b031682613b37565b60018c01546001600160a01b03166123b457811561237057818c600201600082825461236a9190614c97565b90915550505b868c60030160008282546123849190614c97565b90915550506040516000805160206158c8833981519152906123a7908e90615004565b60405180910390a161244f565b81156123d25760018c01546123d2906001600160a01b031683613b37565b601b5460018d015460405163a9059cbb60e01b81526001600160a01b039283169263a9059cbb9261240a929116908b90600401614cd3565b6020604051808303816000875af1158015612429573d6000803e3d6000fd5b505050506040513d601f19601f8201168201806040525081019061244d9190614cfa565b505b82156124c35760018a01546001600160a01b03166124ab57828a600201600082825461247b9190614c97565b90915550506040516000805160206158c88339815191529061249e908c90615004565b60405180910390a16124c3565b60018a01546124c3906001600160a01b031684613b37565b7f163f215ebbfd927d87234e39d082b1b03b551dadbca611aab6568ee11a75e8d7866040516124f291906157a0565b60405180910390a16000805160206159088339815191528b6040516125179190614dc9565b60405180910390a150505050505050505050505050808061253790614e76565b915050611d1b565b6000612549612b28565b905060005b8281101561134a5760006012600086868581811061256e5761256e614caa565b90506020020160208101906125839190614532565b6001600160a01b03166001600160a01b03168152602001908152602001600020905060008160020154116125e15760405162461bcd60e51b8152602060048201526005602482015264076617620360dc1b6044820152606401611261565b8281600201541061261c5760405162461bcd60e51b8152602060048201526005602482015264766176203160d81b6044820152606401611261565b600381015460ff16156126595760405162461bcd60e51b81526020600482015260056024820152643b30bb101960d91b6044820152606401611261565b60038101805460ff1916600117905580546015805460009061267c908490614c97565b909155505060018101546001600160a01b031660009081526014602052604090205480156126f757600060136126b3600184614cc0565b815481106126c3576126c3614caa565b9060005260206000209060020201905082600001548160000160008282546126eb9190614c97565b90915550612787915050565b6013805460018181018355845460029092027f66de8ffda797e3de9c05e8fc57b3bf0ec28a930d40b0d285d93c06501cf6a090810192909255840180547f66de8ffda797e3de9c05e8fc57b3bf0ec28a930d40b0d285d93c06501cf6a09190920180546001600160a01b0319166001600160a01b0393841617905591549154166000908152601460205260409020555b600080516020615888833981519152826040516127a49190615805565b60405180910390a1505080806127b990614e76565b91505061254e565b6000811180156127d9575068056bc75e2d6310000081105b61280e5760405162461bcd60e51b815260206004820152600660248201526507366727620360d41b6044820152606401611261565b33600090815260116020526040902080541561282d5761282d33613e84565b60006128383361186b565b9050600081116128735760405162461bcd60e51b815260206004820152600660248201526573667276203160d01b6044820152606401611261565b80600f546128819190614c97565b61288b84836152c9565b600f54600e5461289b91906152c9565b6128a59190614c97565b6128af9190615252565b600e8190555080600f60008282546128c79190614c97565b9091555050815560010155565b600033816128e282866131f7565b9050838110156129425760405162461bcd60e51b815260206004820152602560248201527f45524332303a2064656372656173656420616c6c6f77616e63652062656c6f77604482015264207a65726f60d81b6064820152608401611261565b610c0482868684036137a4565b6060600a805480602002602001604051908101604052809291908181526020016000905b8282101561183d57838290600052602060002090600a02016040518061014001604052908160008201548152602001600182015481526020016002820160009054906101000a900460ff1660048111156129cf576129cf614460565b60048111156129e0576129e0614460565b81526020016003820154815260200160048201548152602001600582018054612a0890614c47565b80601f0160208091040260200160405190810160405280929190818152602001828054612a3490614c47565b8015612a815780601f10612a5657610100808354040283529160200191612a81565b820191906000526020600020905b815481529060010190602001808311612a6457829003601f168201915b505050505081526020016006820154815260200160078201805480602002602001604051908101604052809291908181526020018280548015612ae357602002820191906000526020600020905b815481526020019060010190808311612acf575b5050509183525050600882015460208083019190915260099092015460ff1615156040909101529082526001929092019101612973565b600033610a2481858561393c565b60006118b26213c68042615252565b60606009805480602002602001604051908101604052809291908181526020016000905b8282101561183d57838290600052602060002090600e0201604051806101c001604052908160008201548152602001600182015481526020016002820160009054906101000a900460ff166004811115612bb757612bb7614460565b6004811115612bc857612bc8614460565b8152602001600382015481526020016004820154815260200160058201805480602002602001604051908101604052809291908181526020018280548015612c2f57602002820191906000526020600020905b815481526020019060010190808311612c1b575b50505050508152602001600682018054612c4890614c47565b80601f0160208091040260200160405190810160405280929190818152602001828054612c7490614c47565b8015612cc15780601f10612c9657610100808354040283529160200191612cc1565b820191906000526020600020905b815481529060010190602001808311612ca457829003601f168201915b50505050508152602001600782018054612cda90614c47565b80601f0160208091040260200160405190810160405280929190818152602001828054612d0690614c47565b8015612d535780601f10612d2857610100808354040283529160200191612d53565b820191906000526020600020905b815481529060010190602001808311612d3657829003601f168201915b5050509183525050600882015460ff1615156020820152600982018054604090920191612d7f90614c47565b80601f0160208091040260200160405190810160405280929190818152602001828054612dab90614c47565b8015612df85780601f10612dcd57610100808354040283529160200191612df8565b820191906000526020600020905b815481529060010190602001808311612ddb57829003601f168201915b50505050508152602001600a8201548152602001600b8201548152602001600c8201805480602002602001604051908101604052809291908181526020018280548015612e6457602002820191906000526020600020905b815481526020019060010190808311612e50575b50505050508152602001600d8201548152505081526020019060010190612b5b565b612e8e613dd5565b601e546001600160a01b0316158015612eb05750601f546001600160a01b0316155b612eb957600080fd5b601e80546001600160a01b039384166001600160a01b031991821617909155601f8054929093169116179055565b60606013805480602002602001604051908101604052809291908181526020016000905b8282101561183d5760008481526020908190206040805180820190915260028502909101805482526001908101546001600160a01b0316828401529083529092019101612f0b565b6000612f5e60035490565b9050602254600003612f9357601c5460238190556022556000612f7f612b28565b90506024548103612f8f57600080fd5b6024555b6000602254602354612fa59190614cc0565b90506000602254826064612fb99190614c97565b1115612fc757602254612fd2565b612fd2826064614c97565b9050815b818110156130c4576000601c8281548110612ff357612ff3614caa565b60009182526020822001546001600160a01b031691506130128261186b565b90506000866021548361302591906152c9565b61302f9190615252565b601b5460405163a9059cbb60e01b81529192506001600160a01b03169063a9059cbb906130629086908590600401614cd3565b6020604051808303816000875af1158015613081573d6000803e3d6000fd5b505050506040513d601f19601f820116820180604052508101906130a59190614cfa565b6130ae57600080fd5b50505080806130bc90614e76565b915050612fd6565b5080602260008282546130d79190614cc0565b9091555050602254600003610e67576000602155505050565b61189833613e84565b601e546001600160a01b031633148061312a5750613115611b62565b6001600160a01b0316336001600160a01b0316145b61313357600080fd5b60005b81811015610e6757601a83838381811061315257613152614caa565b90506020028101906131649190615378565b825460018101845560009384526020909320909201916131849183615413565b50601a547f08581e03117d96ad4b36d978f525bfe879526d97ffb59cecf67eb24a801e03cf908484848181106131bc576131bc614caa565b90506020028101906131ce9190615378565b6040516131dd9392919061583e565b60405180910390a1806131ef81614e76565b915050613136565b6001600160a01b03918216600090815260026020908152604080832093909416825291909152205490565b61322a613dd5565b6001600160a01b03811661328f5760405162461bcd60e51b815260206004820152602660248201527f4f776e61626c653a206e6577206f776e657220697320746865207a65726f206160448201526564647265737360d01b6064820152608401611261565b61329881613e34565b50565b6001600160a01b0381166132d95760405162461bcd60e51b8152602060048201526005602482015264073617620360dc1b6044820152606401611261565b60006132e43361186b565b90506000811161331e5760405162461bcd60e51b8152602060048201526005602482015264736176203160d81b6044820152606401611261565b33600090815260126020526040902080541561333d5761333d33613f7e565b6040518060800160405280838152602001846001600160a01b03168152602001613365612b28565b8152600060209182018190523381526012825260409081902083518155918301516001830180546001600160a01b0319166001600160a01b0390921691909117905582810151600283015560609092015160038201805460ff19169115159190911790559051600080516020615888833981519152916133e491615805565b60405180910390a1505050565b61189833613f7e565b3360009081526008602090815260408083205483526007909152902060018101546001600160a01b031661342d57600080fd5b6000600961343c600186614cc0565b8154811061344c5761344c614caa565b90600052602060002090600e02019050600081600001541161346d57600080fd5b815460018201541461347e57600080fd5b61134a8184613d94565b6013818154811061349857600080fd5b6000918252602090912060029091020180546001909101549091506001600160a01b031682565b600981815481106134cf57600080fd5b60009182526020909120600e9091020180546001820154600283015460038401546004850154600686018054959750939560ff90931694919390929161351490614c47565b80601f016020809104026020016040519081016040528092919081815260200182805461354090614c47565b801561358d5780601f106135625761010080835404028352916020019161358d565b820191906000526020600020905b81548152906001019060200180831161357057829003601f168201915b5050505050908060070180546135a290614c47565b80601f01602080910402602001604051908101604052809291908181526020018280546135ce90614c47565b801561361b5780601f106135f05761010080835404028352916020019161361b565b820191906000526020600020905b8154815290600101906020018083116135fe57829003601f168201915b5050506008840154600985018054949560ff90921694919350915061363f90614c47565b80601f016020809104026020016040519081016040528092919081815260200182805461366b90614c47565b80156136b85780601f1061368d576101008083540402835291602001916136b8565b820191906000526020600020905b81548152906001019060200180831161369b57829003601f168201915b50505050509080600a01549080600b01549080600d015490508c565b6060601a805480602002602001604051908101604052809291908181526020016000905b8282101561183d57838290600052602060002001805461371790614c47565b80601f016020809104026020016040519081016040528092919081815260200182805461374390614c47565b80156137905780601f1061376557610100808354040283529160200191613790565b820191906000526020600020905b81548152906001019060200180831161377357829003601f168201915b5050505050815260200190600101906136f8565b6001600160a01b0383166138065760405162461bcd60e51b8152602060048201526024808201527f45524332303a20617070726f76652066726f6d20746865207a65726f206164646044820152637265737360e01b6064820152608401611261565b6001600160a01b0382166138675760405162461bcd60e51b815260206004820152602260248201527f45524332303a20617070726f766520746f20746865207a65726f206164647265604482015261737360f01b6064820152608401611261565b6001600160a01b0383811660008181526002602090815260408083209487168084529482529182902085905590518481527f8c5be1e5ebec7d5bd14f71427d1e84f3dd0314c0f7b2291e5b200ac8c7c3b925910160405180910390a3505050565b60006138d484846131f7565b9050600019811461134a578181101561392f5760405162461bcd60e51b815260206004820152601d60248201527f45524332303a20696e73756666696369656e7420616c6c6f77616e63650000006044820152606401611261565b61134a84848484036137a4565b6001600160a01b0383166139a05760405162461bcd60e51b815260206004820152602560248201527f45524332303a207472616e736665722066726f6d20746865207a65726f206164604482015264647265737360d81b6064820152608401611261565b6001600160a01b038216613a025760405162461bcd60e51b815260206004820152602360248201527f45524332303a207472616e7366657220746f20746865207a65726f206164647260448201526265737360e81b6064820152608401611261565b613a0d8383836140a2565b6001600160a01b03831660009081526001602052604090205481811015613a855760405162461bcd60e51b815260206004820152602660248201527f45524332303a207472616e7366657220616d6f756e7420657863656564732062604482015265616c616e636560d01b6064820152608401611261565b6001600160a01b0380851660008181526001602052604080822086860390559286168082529083902080548601905591516000805160206158e883398151915290613ad39086815260200190565b60405180910390a361134a565b60008181526007602052604081205490036132985760008181526007602052604081208290556006805460018101825591527ff652222313e28459528d920b65115c16c04f3efc82aaedc97be59f3f377c0d3f0155565b60225415613b705760405162461bcd60e51b8152600401611261906020808252600490820152630534d20360e41b604082015260600190565b613b7a8282614182565b5050565b6000816060015111613b8f57600080fd5b60008160a001515111613ba157600080fd5b601b5460608201516040516323b872dd60e01b815233600482015230602482015260448101919091526001600160a01b03909116906323b872dd906064016020604051808303816000875af1158015613bfe573d6000803e3d6000fd5b505050506040513d601f19601f82011682018060405250810190613c229190614cfa565b613c2b57600080fd5b600a80546001818101835560008390528351919092027fc65a7bb8d6351c1cf70c95a316cc6a92839c986682d98bc35f958f4883f9d2a8810191825560208401517fc65a7bb8d6351c1cf70c95a316cc6a92839c986682d98bc35f958f4883f9d2a982015560408401517fc65a7bb8d6351c1cf70c95a316cc6a92839c986682d98bc35f958f4883f9d2aa9091018054859460ff1990911690836004811115613cd657613cd6614460565b0217905550606082015160038201556080820151600482015560a08201516005820190613d0390826156e9565b5060c0820151600682015560e08201518051613d29916007840191602090910190614351565b506101008201516008820155610120909101516009909101805460ff1916911515919091179055805160058301805460018101825560009182526020909120015560405160008051602061590883398151915290613d88908390615874565b60405180910390a15050565b60008111613da157600080fd5b600a820181905560088201805460ff191660011790556040516000805160206158a883398151915290613d88908490614ef8565b33613dde611b62565b6001600160a01b0316146118985760405162461bcd60e51b815260206004820181905260248201527f4f776e61626c653a2063616c6c6572206973206e6f7420746865206f776e65726044820152606401611261565b600080546001600160a01b038381166001600160a01b0319831681178455604051919092169283917f8be0079c531659141344cd1fd0a4f28419497f9722a3daafe3b4186f6b6457e09190a35050565b6001600160a01b03811660009081526011602052604090208054613ed35760405162461bcd60e51b815260206004820152600660248201526507266727620360d41b6044820152606401611261565b8054600f54600091613ee491614cc0565b90506000600f54600e54613ef891906152c9565b9050600083600101548460000154613f1091906152c9565b90506000818311613f22576000613f2c565b613f2c8284614cc0565b90508315613f4b57613f3e8482615252565b600e55600f849055613f57565b600c54600e556000600f555b5050506001600160a01b039092166000908152601160205260408120818155600101555050565b6001600160a01b03811660009081526012602052604090208054613fcd5760405162461bcd60e51b815260206004820152600660248201526507261766820360d41b6044820152606401611261565b600381015460ff161561406057805460158054600090613fee908490614cc0565b909155505060018101546001600160a01b03166000908152601460205260409020548061401a57600080fd5b81546013614029600184614cc0565b8154811061403957614039614caa565b906000526020600020906002020160000160008282546140599190614cc0565b9091555050505b506001600160a01b031660009081526012602052604081208181556001810180546001600160a01b03191690556002810191909155600301805460ff19169055565b6001600160a01b0382166000908152601d602052604090205460ff161580156140cb5750600081115b1561413457601c805460018082019092557f0e4562a10381dec21b205ed72637e6b1b523bdd0e4d4d50af5cd23dd4500a2110180546001600160a01b0319166001600160a01b0385169081179091556000908152601d60205260409020805460ff191690911790555b6001600160a01b0383166000908152601160205260409020541561415b5761415b83613e84565b6001600160a01b03831660009081526012602052604090205415610e6757610e6783613f7e565b61418a610c93565b8161419460035490565b61419e9190614c97565b11156141e85760405162461bcd60e51b8152602060048201526019602482015278115490cc8c10d85c1c19590e8818d85c08195e18d959591959603a1b6044820152606401611261565b613b7a82826001600160a01b0382166142435760405162461bcd60e51b815260206004820152601f60248201527f45524332303a206d696e7420746f20746865207a65726f2061646472657373006044820152606401611261565b61424f600083836140a2565b80600360008282546142619190614c97565b90915550506001600160a01b0382166000818152600160209081526040808320805486019055518481526000805160206158e8833981519152910160405180910390a35050565b8280548282559060005260206000209081019282156142e3579160200282015b828111156142e35782358255916020019190600101906142c8565b506142ef92915061438c565b5090565b60405180606001604052806003906020820280368337509192915050565b8280548282559060005260206000209081019282156142e35760005260206000209182015b828111156142e3578254825591600101919060010190614336565b8280548282559060005260206000209081019282156142e3579160200282015b828111156142e3578251825591602001919060010190614371565b5b808211156142ef576000815560010161438d565b6000815180845260005b818110156143c7576020818501810151868301820152016143ab565b506000602082860101526020601f19601f83011685010191505092915050565b6020815260006143fa60208301846143a1565b9392505050565b80356001600160a01b038116811461441857600080fd5b919050565b6000806040838503121561443057600080fd5b61443983614401565b946020939093013593505050565b60006020828403121561445957600080fd5b5035919050565b634e487b7160e01b600052602160045260246000fd5b6005811061449457634e487b7160e01b600052602160045260246000fd5b9052565b60006101208b83528a60208401526144b3604084018b614476565b8860608401528760808401528060a08401526144d1818401886143a1565b60c0840196909652505060e08101929092521515610100909101529695505050505050565b60008060006060848603121561450b57600080fd5b61451484614401565b925061452260208501614401565b9150604084013590509250925092565b60006020828403121561454457600080fd5b6143fa82614401565b60008083601f84011261455f57600080fd5b5081356001600160401b0381111561457657600080fd5b6020830191508360208260051b850101111561459157600080fd5b9250929050565b600080602083850312156145ab57600080fd5b82356001600160401b038111156145c157600080fd5b6145cd8582860161454d565b90969095509350505050565b60008083601f8401126145eb57600080fd5b5081356001600160401b0381111561460257600080fd5b6020830191508360208260061b850101111561459157600080fd5b6000806020838503121561463057600080fd5b82356001600160401b0381111561464657600080fd5b6145cd858286016145d9565b60608101818360005b60038110156146835781516001600160a01b031683526020928301929091019060010161465b565b50505092915050565b6000602080830181845280855180835260408601915060408160051b870101925083870160005b828110156146e157603f198886030184526146cf8583516143a1565b945092850192908501906001016146b3565b5092979650505050505050565b87815286602082015285604082015284606082015283608082015260e060a0820152600061471f60e08301856143a1565b90508260c083015298975050505050505050565b634e487b7160e01b600052604160045260246000fd5b60405160c081016001600160401b038111828210171561476b5761476b614733565b60405290565b604051601f8201601f191681016001600160401b038111828210171561479957614799614733565b604052919050565b600082601f8301126147b257600080fd5b813560206001600160401b038211156147cd576147cd614733565b8160051b6147dc828201614771565b92835284810182019282810190878511156147f657600080fd5b83870192505b84831015614815578235825291830191908301906147fc565b979650505050505050565b6000806040838503121561483357600080fd5b82356001600160401b038082111561484a57600080fd5b614856868387016147a1565b9350602085013591508082111561486c57600080fd5b50614879858286016147a1565b9150509250929050565b600081518084526020808501945080840160005b838110156148b357815187529582019590820190600101614897565b509495945050505050565b6000610140825184526020830151602085015260408301516148e36040860182614476565b50606083015160608501526080830151608085015260a08301518160a086015261490f828601826143a1565b91505060c083015160c085015260e083015184820360e08601526149338282614883565b915050610100808401518186015250610120808401516149568287018215159052565b5090949350505050565b6000602080830181845280855180835260408601915060408160051b870101925083870160005b828110156146e157603f198886030184526149a38583516148be565b94509285019290850190600101614987565b60006020808301818452808551808352604092508286019150828160051b87010184880160005b83811015614afa57603f1989840301855281516101c081518552888201518986015287820151614a0e89870182614476565b50606082810151908601526080808301519086015260a080830151818701839052614a3b83880182614883565b9250505060c08083015186830382880152614a5683826143a1565b9250505060e08083015186830382880152614a7183826143a1565b9250505061010080830151614a898288018215159052565b50506101208083015186830382880152614aa383826143a1565b925050506101408083015181870152506101608083015181870152506101808083015186830382880152614ad78382614883565b6101a09485015197909401969096525050948701949250908601906001016149dc565b509098975050505050505050565b60008060408385031215614b1b57600080fd5b614b2483614401565b9150614b3260208401614401565b90509250929050565b602080825282518282018190526000919060409081850190868401855b82811015614b86578151805185528601516001600160a01b0316868501529284019290850190600101614b58565b5091979650505050505050565b60008060408385031215614ba657600080fd5b50508035926020909101359150565b60006101808e83528d6020840152614bd0604084018e614476565b8b60608401528a60808401528060a0840152614bee8184018b6143a1565b905082810360c0840152614c02818a6143a1565b905087151560e0840152828103610100840152614c1f81886143a1565b6101208401969096525050610140810192909252610160909101529998505050505050505050565b600181811c90821680614c5b57607f821691505b602082108103614c7b57634e487b7160e01b600052602260045260246000fd5b50919050565b634e487b7160e01b600052601160045260246000fd5b80820180821115610a2a57610a2a614c81565b634e487b7160e01b600052603260045260246000fd5b81810381811115610a2a57610a2a614c81565b6001600160a01b03929092168252602082015260400190565b801515811461329857600080fd5b600060208284031215614d0c57600080fd5b81516143fa81614cec565b60008154614d2481614c47565b808552602060018381168015614d415760018114614d5b57614d89565b60ff1985168884015283151560051b880183019550614d89565b866000528260002060005b85811015614d815781548a8201860152908301908401614d66565b890184019650505b505050505092915050565b6000815480845260208085019450836000528060002060005b838110156148b357815487529582019560019182019101614dad565b6020815281546020820152600182015460408201526000614dee600284015460ff1690565b614dfb6060840182614476565b5060038301546080830152600483015460a08301526101408060c0840152614e2a610160840160058601614d17565b600685015460e0850152838103601f1901610100850152614e4e8160078701614d94565b90506008850154610120850152614e69600986015460ff1690565b1515919093015250919050565b600060018201614e8857614e88614c81565b5060010190565b60008235605e19833603018112614ea557600080fd5b9190910192915050565b6000808335601e19843603018112614ec657600080fd5b8301803591506001600160401b03821115614ee057600080fd5b6020019150600581901b360382131561459157600080fd5b6020815281546020820152600182015460408201526000614f1d600284015460ff1690565b614f2a6060840182614476565b5060038301546080830152600483015460a08301526101c08060c0840152614f596101e0840160058601614d94565b601f19808583030160e0860152614f738260068801614d17565b91508085830301610100860152614f8d8260078801614d17565b9150614f9d600887015460ff1690565b15156101208601528482038101610140860152614fbd8260098801614d17565b9150600a860154610160860152600b86015461018086015280858303016101a086015250614fee81600c8701614d94565b9050600d85015482850152809250505092915050565b602080825282549082015260018201546001600160a01b03166040820152600282015460608201526003820154608082015260e060a08201526000615050610100830160048501614d94565b601f19808483030160c085015261506a8260058701614d94565b9150808483030160e0850152506150848160068601614d94565b949350505050565b6000823560be19833603018112614ea557600080fd5b6005811061329857600080fd5b8035614418816150a2565b600082601f8301126150cb57600080fd5b81356001600160401b038111156150e4576150e4614733565b6150f7601f8201601f1916602001614771565b81815284602083860101111561510c57600080fd5b816020850160208301376000918101602001919091529392505050565b600060c0828403121561513b57600080fd5b615143614749565b905061514e826150af565b81526020828101359082015260408201356001600160401b038082111561517457600080fd5b615180858386016150ba565b60408401526060840135606084015260808401359150808211156151a357600080fd5b506151b0848285016147a1565b60808301525060a082013560a082015292915050565b6000610a2a3683615129565b60008235603e19833603018112614ea557600080fd5b6000604082360312156151fa57600080fd5b604080519081016001600160401b03808211838310171561521d5761521d614733565b8160405284358352602085013591508082111561523957600080fd5b5061524636828601615129565b60208301525092915050565b60008261526f57634e487b7160e01b600052601260045260246000fd5b500490565b600082356101be19833603018112614ea557600080fd5b60008135610a2a816150a2565b600582106152b657634e487b7160e01b600052602160045260246000fd5b60ff1981541660ff831681178255505050565b8082028115828204841417610a2a57610a2a614c81565b5b81811015613b7a57600081556001016152e1565b6001600160401b0383111561530c5761530c614733565b600160401b83111561532057615320614733565b805483825580841015615346578160005260206000206153448282018683016152e0565b505b50818160005260208060002060005b8681101561536f5783358282015592820192600101615355565b50505050505050565b6000808335601e1984360301811261538f57600080fd5b8301803591506001600160401b038211156153a957600080fd5b60200191503681900382131561459157600080fd5b601f821115610e6757806000526020600020601f840160051c810160208510156153e55750805b6153f7601f850160051c8301826152e0565b5050505050565b600019600383901b1c191660019190911b1790565b6001600160401b0383111561542a5761542a614733565b61543e836154388354614c47565b836153be565b6000601f84116001811461546c576000851561545a5750838201355b61546486826153fe565b8455506153f7565b600083815260209020601f19861690835b8281101561549d578685013582556020948501946001909201910161547d565b50868210156154ba5760001960f88860031b161c19848701351681555b505060018560011b0183555050505050565b60008135610a2a81614cec565b81358155602082013560018201556154ff6154f66040840161528b565b60028301615298565b606082013560038201556080820135600482015561552060a0830183614eaf565b61552e8183600586016152f5565b505061553d60c0830183615378565b61554b818360068601615413565b505061555a60e0830183615378565b615568818360078601615413565b505061559361557a61010084016154cc565b6008830160ff1981541660ff8315151681178255505050565b6155a1610120830183615378565b6155af818360098601615413565b5050610140820135600a820155610160820135600b8201556155d5610180830183614eaf565b6155e38183600c86016152f5565b50506101a0820135600d8201555050565b602080825260059082015264061687520360dc1b604082015260600190565b81810361561e575050565b6156288254614c47565b6001600160401b0381111561563f5761563f614733565b6156538161564d8454614c47565b846153be565b6000601f821160018114615681576000831561566f5750848201545b61567984826153fe565b8555506153f7565b600085815260209020601f19841690600086815260209020845b838110156156bb578286015482556001958601959091019060200161569b565b50858310156156d95781850154600019600388901b60f8161c191681555b5050505050600190811b01905550565b81516001600160401b0381111561570257615702614733565b6157108161564d8454614c47565b602080601f83116001811461573f576000841561572d5750858301515b61573785826153fe565b865550615798565b600085815260208120601f198616915b8281101561576e5788860151825594840194600190910190840161574f565b508582101561578c5787850151600019600388901b60f8161c191681555b505060018460011b0185555b505050505050565b6020815281516020820152602082015160408201526040820151606082015260608201516080820152608082015160a0820152600060a083015160e060c08401526157ef6101008401826143a1565b905060c084015160e08401528091505092915050565b8154815260018201546001600160a01b0316602082015260028201546040820152600382015460ff161515606082015260808101610a2a565b83815260406020820152816040820152818360608301376000818301606090810191909152601f909201601f1916010192915050565b6020815260006143fa60208301846148be56fee08472d1275fefbb15ff0aea278bb1f42c491be3fa4358160826ba7e420ae61396e9914f87caf53079f3441ee12036434bc4ea93f85df92beb30c7c918984e9fe1ab017037dfdbe8aeea88ca10733a62fe91b3791c7ab2f30b54a9e2a0b0d319ddf252ad1be2c89b69c2b068fc378daa952ba7f163c4a11628f55a4df523b3efe4aca3c0fc408b3a8ce278b40b298311b8dca09ac3c3d5d1068f014e01ac551ba26469706673582212203f98096d1f482328c2b49ae5b6e4e378a3ed943a9b2e2339adc5f7e3aa9e9bf964736f6c63430008130033",
  "immutableReferences": {
    "785": [
      {
        "length": 32,
        "start": 3221
      }
    ]
  },
  "source": "// SPDX-License-Identifier: MIT\npragma solidity ^0.8.9;\nimport \"@openzeppelin/contracts/access/Ownable.sol\";\nimport \"@openzeppelin/contracts/token/ERC20/extensions/ERC20Capped.sol\";\n\ncontract Asami is Ownable, ERC20Capped {\n  enum Site { X, Instagram, LinkedIn, Facebook, Nostr}\n\n  struct Account {\n    uint256 id;\n    address addr;\n    uint256 unclaimedAsamiTokens;\n    uint256 unclaimedDocRewards;\n    uint256[] handles;\n    uint256[] campaigns;\n    uint256[] collabs;\n  }\n  uint256[] public accountIds;\n  mapping(uint256 => Account) public accounts;\n  mapping(address => uint256) public accountIdByAddress;\n  event AccountSaved(Account account);\n\n  struct Handle {\n    uint256 id;\n    uint256 accountId;\n    Site site;\n    uint256 price;\n    uint256 score;\n    uint256[] topics;\n    string username;\n    string userId;\n    bool needsUpdate;\n    string newUsername;\n    uint256 newPrice;\n    uint256 newScore;\n    uint256[] newTopics;\n    uint256 lastUpdated;\n  }\n  Handle[] public handles;\n  event HandleSaved(Handle handle);\n\n  function getHandles() public view returns (Handle[] memory) {\n    return handles;\n  }\n\n  struct Campaign {\n    uint256 id;\n    uint256 accountId;\n    Site site;\n    uint256 budget;\n    uint256 remaining;\n    string contentId;\n    uint256 priceScoreRatio;\n    uint256[] topics;\n    uint256 validUntil;\n    bool fundedByAdmin;\n  }\n  Campaign[] public campaigns;\n  event CampaignSaved(Campaign campaign);\n  function getCampaigns() public view returns (Campaign[] memory) {\n    return campaigns;\n  }\n\n  struct Collab {\n    uint256 id;\n    uint256 handleId;\n    uint256 campaignId;\n    uint256 gross;\n    uint256 fee;\n    string proof;\n    uint256 createdAt;\n  }\n  Collab[] public collabs;\n  event CollabSaved(Collab collab);\n\n  uint256 public defaultFeeRate = 10 * 1e18;\n  uint256 public feeRate = defaultFeeRate;\n  uint256 public votedFeeRate = defaultFeeRate;\n  uint256 public votedFeeRateVoteCount = 0;\n  /* To make the protocol more predictable, changes are applied only once every period */\n  uint256 public lastVotedFeeRateAppliedOn = 0;\n\n  struct FeeRateVote {\n    uint256 votes;\n    uint256 rate;\n  }\n  mapping(address => FeeRateVote) public feeRateVotes;\n\n  struct AdminVote {\n    uint256 votes;\n    address candidate;\n    uint256 cycle;\n    bool vested;\n  }\n  /* Maps holders to their vote */\n  mapping(address => AdminVote) public submittedAdminVotes;\n  event AdminVoteSaved(AdminVote vote);\n\n  struct AdminVoteCount {\n    uint256 votes;\n    address candidate;\n  }\n\n  /*\n  We're only storing all historic vote counts to have a view function that helps find out\n  which candidate to proclaim without relying on events.\n  */\n  AdminVoteCount[] public adminVoteCounts;\n  mapping(address => uint256) public adminVoteCountIdByCandidate;\n\n  function allAdminVoteCounts() public view returns (AdminVoteCount[] memory) {\n    return adminVoteCounts;\n  }\n\n  uint256 public vestedAdminVotesTotal;\n  uint256 public lastAdminElection;\n  address[3] public latestAdminElections;\n\n  function getLatestAdminElections() public view returns (address[3] memory) {\n    return latestAdminElections;\n  }\n\n  string[] public topics;\n  event TopicSaved(uint256 id, string name);\n\n  IERC20 internal doc;\n  address[] public holders;\n  mapping(address => bool) public trackedHolders;\n\n  address public admin; // An address that may be stored on a server.\n  address public adminTreasury; // A cold storage address for admin money.\n\n  uint256 public claimedAsamiTokens;\n\n  modifier onlyAdmin() {\n    require(msg.sender == admin || msg.sender == owner());\n    _;\n  }\n\n  constructor(address _dollarOnChainAddress) ERC20(\"AsamiToken\", \"ASAMI\") ERC20Capped(21 * 1e24) {\n    doc = IERC20(_dollarOnChainAddress);\n  }\n\n  function _beforeTokenTransfer(address from, address to, uint256 amount) internal override {\n    super._beforeTokenTransfer(from, to, amount);\n    if (!trackedHolders[to] && amount > 0) {\n      holders.push(to);\n      trackedHolders[to] = true;\n    }\n\n    if (feeRateVotes[from].votes > 0) { removeFeeRateVoteHelper(from); }\n    if (submittedAdminVotes[from].votes > 0) { removeAdminVoteHelper(from); }\n  }\n\n  function setAdmin(address _admin, address _adminTreasury) external onlyOwner {\n    require(admin == address(0) && adminTreasury == address(0));\n    admin = _admin;\n    adminTreasury = _adminTreasury;\n  }\n\n  function getHolders() public view returns (string[] memory) {\n    return topics;\n  }\n\n  function getClaimedAsamiTokens() public view returns (uint256) {\n    return claimedAsamiTokens;\n  }\n\n  function getTopics() public view returns (string[] memory) {\n    return topics;\n  }\n\n  function adminAddTopics(string[] calldata _names) public onlyAdmin {\n    for( uint256 i = 0; i < _names.length; i++) {\n      topics.push(_names[i]);\n      emit TopicSaved(topics.length, _names[i]);\n    }\n  }\n\n  function ensureAccount(uint256 _accountId) private {\n    if(accounts[_accountId].id == 0) {\n      accounts[_accountId].id = _accountId;\n      accountIds.push(_accountId);\n    }\n  }\n\n  struct AdminClaimAccountsInput {\n    uint256 accountId;\n    address addr;\n  }\n\n  function claimAccounts (\n    AdminClaimAccountsInput[] calldata _input\n  ) public onlyAdmin {\n    for( uint256 i = 0; i < _input.length; i++) {\n      AdminClaimAccountsInput calldata claim = _input[i];\n      ensureAccount(claim.accountId);\n\n      Account storage account = accounts[claim.accountId];\n      require(account.addr == address(0));\n\n      accountIdByAddress[claim.addr] = claim.accountId;\n      account.addr = claim.addr;\n\n      if(account.unclaimedAsamiTokens > 0) {\n        uint256 unclaimed = account.unclaimedAsamiTokens;\n        account.unclaimedAsamiTokens = 0;\n        _safeMint(claim.addr, unclaimed);\n      }\n\n      if(account.unclaimedDocRewards > 0) {\n        uint256 unclaimed = account.unclaimedDocRewards;\n        account.unclaimedDocRewards = 0;\n        doc.transfer(account.addr, unclaimed);\n      }\n\n      emit AccountSaved(account);\n    }\n  }\n\n  function adminMakeHandles (\n    Handle[] calldata _inputs\n  ) external onlyAdmin {\n\n    for( uint256 i = 0; i < _inputs.length; i++) {\n      ensureAccount(_inputs[i].accountId);\n\n      handles.push(_inputs[i]);\n      Handle storage h = handles[handles.length - 1];\n      h.id = handles.length;\n      emit HandleSaved(h);\n    }\n  }\n\n  struct CampaignInput {\n    Site site;\n    uint256 budget;\n    string contentId;\n    uint256 priceScoreRatio;\n    uint256[] topics;\n    uint256 validUntil;\n  }\n  function makeCampaigns(\n    CampaignInput[] calldata _inputs\n  ) public {\n    Account storage account = accounts[accountIdByAddress[msg.sender]];\n    require(account.addr != address(0), \"mc 0\");\n\n    for( uint i = 0; i < _inputs.length; i++) {\n      CampaignInput memory input = _inputs[i];\n      _saveCampaignHelper(account, Campaign({\n        id: campaigns.length + 1,\n        accountId: account.id,\n        site: input.site,\n        budget: input.budget,\n        remaining: input.budget,\n        contentId: input.contentId,\n        priceScoreRatio: input.priceScoreRatio,\n        topics: input.topics,\n        validUntil: input.validUntil,\n        fundedByAdmin: false\n      }));\n    }\n  }\n\n  struct AdminCampaignInput {\n    uint256 accountId;\n    CampaignInput attrs;\n  }\n\n  function adminMakeCampaigns(\n    AdminCampaignInput[] calldata _inputs\n  ) public onlyAdmin {\n\n    for( uint i = 0; i < _inputs.length; i++) {\n      AdminCampaignInput memory input = _inputs[i];\n      ensureAccount(input.accountId);\n      Account storage account = accounts[input.accountId];\n      require(account.addr == address(0));\n\n      _saveCampaignHelper(account, Campaign({\n        id: campaigns.length + 1,\n        accountId: account.id,\n        site: input.attrs.site,\n        budget: input.attrs.budget,\n        remaining: input.attrs.budget,\n        contentId: input.attrs.contentId,\n        priceScoreRatio: input.attrs.priceScoreRatio,\n        topics: input.attrs.topics,\n        validUntil: input.attrs.validUntil,\n        fundedByAdmin: true\n      }));\n    }\n  }\n\n  function _saveCampaignHelper(\n    Account storage _account,\n    Campaign memory _campaign\n  ) private {\n    require(_campaign.budget > 0);\n    require(bytes(_campaign.contentId).length > 0);\n    require(doc.transferFrom(msg.sender, address(this), _campaign.budget));\n\n    campaigns.push(_campaign);\n    _account.campaigns.push(_campaign.id);\n    emit CampaignSaved(_campaign);\n  }\n\n  struct AdminMakeCollabsInput {\n    uint256 campaignId;\n    uint256 handleId;\n  }\n\n  function adminMakeCollabs(AdminMakeCollabsInput[] calldata _collabs) external onlyAdmin {\n    for( uint256 i = 0; i < _collabs.length; i++) {\n      Handle storage handle = handles[_collabs[i].handleId - 1];\n      require(handle.id > 0, \"1\");\n      Account storage member = accounts[handle.accountId];\n\n      Campaign storage campaign = campaigns[_collabs[i].campaignId - 1];\n      require(campaign.id > 0, \"3\");\n      require(campaign.validUntil > block.timestamp, \"4\");\n      require(isSubset(handle.topics, campaign.topics), \"5\");\n\n      require(campaign.remaining >= handle.price, \"6\");\n      require(campaign.site == handle.site, \"7\");\n      require((handle.price / handle.score) <= campaign.priceScoreRatio, \"8\");\n\n      Account storage advertiser = accounts[campaign.accountId];\n\n      uint256 gross = handle.price;\n      uint256 fee = (gross * feeRate) / 1e20;\n      uint256 reward = gross - fee;\n\n      Collab memory collab = Collab({\n        id: collabs.length + 1,\n        handleId: handle.id,\n        campaignId: campaign.id,\n        gross: gross,\n        fee: fee,\n        proof: \"\",\n        createdAt: block.timestamp\n      });\n      collabs.push(collab);\n      member.collabs.push(collab.id);\n\n      campaign.remaining -= gross;\n      feePool += fee;\n\n      uint256 remainingToCap = cap() - claimedAsamiTokens;\n      uint256 newTokens = (fee > remainingToCap) ? remainingToCap : fee;\n      claimedAsamiTokens += newTokens;\n\n      uint256 advertiserTokens = (newTokens * 10 * 1e18) / 100e18;\n      uint256 memberTokens = (newTokens * 15 * 1e18) / 100e18;\n      uint256 adminTokens = newTokens - advertiserTokens - memberTokens;\n\n      if (adminTokens > 0) {\n        _safeMint(adminTreasury, adminTokens);\n      }\n\n      if ( member.addr == address(0) ) {\n        if( memberTokens > 0) {\n          member.unclaimedAsamiTokens += memberTokens;\n        }\n        member.unclaimedDocRewards += reward;\n        emit AccountSaved(member);\n      } else {\n        if( memberTokens > 0) {\n          _safeMint(member.addr, memberTokens);\n        }\n        doc.transfer(member.addr, reward);\n      }\n\n      if ( advertiserTokens > 0 ) {\n        if ( advertiser.addr == address(0) ) {\n          advertiser.unclaimedAsamiTokens += advertiserTokens;\n          emit AccountSaved(advertiser);\n        } else {\n          _safeMint(advertiser.addr, advertiserTokens);\n        }\n      }\n\n      emit CollabSaved(collab);\n      emit CampaignSaved(campaign);\n    }\n  }\n\n  function reimburseDueCampaigns(uint256[] calldata _campaignIds) public {\n    for(uint i = 0; i < _campaignIds.length; i++) {\n      Campaign storage campaign = campaigns[_campaignIds[i] - 1];\n      require(campaign.id > 0);\n      require(campaign.remaining > 0);\n      require(campaign.validUntil < block.timestamp);\n\n      Account storage advertiser = accounts[campaign.accountId];\n      uint256 remaining = campaign.remaining;\n      campaign.remaining = 0;\n      address fundedBy = campaign.fundedByAdmin ? admin : advertiser.addr;\n      require(doc.transfer(fundedBy, remaining));\n      emit CampaignSaved(campaign);\n    }\n  }\n\n  // To prevent race conditions, we never mint while we're in the middle of a payout.\n  function _safeMint(address _addr, uint256 _amount) private {\n    require(payoutsRemaining == 0, \"SM 0\");\n    _mint(_addr, _amount);\n  }\n\n  struct AdminSetPriceInput {\n    uint256 handleId;\n    uint256 price;\n  }\n\n  function adminSetPrice(AdminSetPriceInput[] calldata _inputs) external onlyAdmin {\n    for( uint256 i = 0; i < _inputs.length; i++) {\n      Handle storage handle = handles[_inputs[i].handleId - 1];\n      Account storage account = accounts[handle.accountId];\n      require(account.addr == address(0) && account.id > 0);\n\n      _setPriceHelper(handle, _inputs[i].price);\n    }\n  }\n\n  function setPrice(uint256 _handleId, uint256 _price) external {\n    Account storage account = accounts[accountIdByAddress[msg.sender]];\n    require(account.addr != address(0));\n\n    Handle storage handle = handles[_handleId - 1];\n    require(handle.id > 0);\n    require(handle.accountId == account.id);\n\n    _setPriceHelper(handle, _price);\n  }\n\n  function _setPriceHelper(Handle storage handle, uint256 _price) private {\n    require(_price > 0);\n    handle.newPrice = _price;\n    handle.needsUpdate = true;\n    emit HandleSaved(handle);\n  }\n\n  struct AdminSetScoreAndTopicsInput {\n    uint256 handleId;\n    uint256 score;\n    uint256[] topics;\n  }\n\n  function adminSetScoreAndTopics(\n    AdminSetScoreAndTopicsInput[] calldata _inputs\n  ) external onlyAdmin {\n    for( uint256 i = 0; i < _inputs.length; i++) {\n      Handle storage handle = handles[_inputs[i].handleId - 1];\n      handle.newScore = _inputs[i].score;\n      handle.newTopics = _inputs[i].topics;\n      handle.needsUpdate = true;\n      emit HandleSaved(handle);\n    }\n  }\n\n  function getCycleLength() public pure returns (uint256) {\n    return 60 * 60 * 24 * 15;\n  }\n\n  function getCurrentCycle() public view returns (uint256) {\n     return block.timestamp / getCycleLength();\n  }\n\n  function getNextCycle() public view returns (uint256) {\n    return getCurrentCycle() + getCycleLength();\n  }\n\n  /*\n    Distributes the fee pool among token holders.\n    To prevent going over the gas limit, it does up to 100 a time, and can be called many times in a row.\n    Always returns the pending holders.\n    Anyone can call this at any time, but just once per period. It would usually be the admin though.\n  */\n  uint256 public feePool;\n  uint256 public payoutsRemaining = 0;\n  uint256 public payoutsTotal = 0;\n  uint256 public lastPayoutCycle = 0;\n\n  function distributeFeePool() external {\n    uint256 totalSupply = totalSupply();\n\n    if(payoutsRemaining == 0) {\n      // We're starting a new payout of the feePool.\n      // We can only start one payout in each 15 day period.\n      payoutsTotal = holders.length;\n      payoutsRemaining = payoutsTotal;\n      uint256 currentCycle = getCurrentCycle();\n      require(currentCycle != lastPayoutCycle);\n      lastPayoutCycle = currentCycle;\n    }\n\n    uint256 startAt = payoutsTotal - payoutsRemaining;\n\n    uint256 until = (startAt + 100) <= payoutsRemaining ? (startAt + 100) : payoutsRemaining;\n\n    for (uint256 i = startAt; i < until; i++) {\n      address holder = holders[i];\n      uint256 balance = balanceOf(holder);\n      uint256 reward = (balance * feePool) / totalSupply;\n      require(doc.transfer(holder, reward));\n    }\n\n    payoutsRemaining -= until;\n\n    if(payoutsRemaining == 0) {\n      feePool = 0;\n    }\n  }\n\n  function applyHandleUpdates(uint256[] calldata _indexes) external {\n    uint256 currentCycle = getCurrentCycle();\n\n    for (uint256 i = 0; i < _indexes.length; i++) {\n      Handle storage handle = handles[_indexes[i]];\n      require(handle.lastUpdated != currentCycle, \"ahu 0\");\n      require(handle.needsUpdate, \"ahu 0\");\n\n      handle.needsUpdate = false;\n      handle.lastUpdated = currentCycle;\n\n      if (bytes(handle.newUsername).length > 0) {\n        handle.username = handle.newUsername;\n      }\n\n      if (handle.newPrice != 0) {\n        handle.price = handle.newPrice;\n      }\n\n      if (handle.score != 0) {\n        handle.score = handle.newScore;\n      }\n\n      if (handle.newTopics.length > 0) {\n        handle.topics = handle.newTopics;\n      }\n\n      emit HandleSaved(handle);\n    }\n  }\n\n  function applyVotedFeeRate() external {\n    uint256 currentCycle = getCurrentCycle();\n    require(currentCycle != lastVotedFeeRateAppliedOn);\n    feeRate = votedFeeRate;\n    lastVotedFeeRateAppliedOn = currentCycle;\n  }\n\n  function submitFeeRateVote(uint256 _rate) external {\n    require(_rate > 0 && _rate < 1e20, \"sfrv 0\");\n\n    FeeRateVote storage vote = feeRateVotes[msg.sender];\n    if (vote.votes > 0) { removeFeeRateVoteHelper(msg.sender); }\n\n    uint256 votes = balanceOf(msg.sender);\n    require(votes > 0, \"sfrv 1\");\n\n    votedFeeRate = ((votedFeeRate * votedFeeRateVoteCount) + (votes * _rate)) / (votedFeeRateVoteCount + votes);\n    votedFeeRateVoteCount += votes;\n    vote.votes = votes;\n    vote.rate = _rate;\n  }\n\n  function removeFeeRateVote() external {\n    removeFeeRateVoteHelper(msg.sender);\n  }\n\n  function removeFeeRateVoteHelper(address _holder) private {\n    FeeRateVote storage vote = feeRateVotes[_holder];\n    require(vote.votes > 0, \"rfrv 0\");\n    uint256 nextVoteCount = votedFeeRateVoteCount - vote.votes;\n    uint256 currentVolume = votedFeeRate * votedFeeRateVoteCount;\n    uint256 removedVolume = vote.votes * vote.rate;\n    uint256 nextVolume = currentVolume > removedVolume ? currentVolume - removedVolume : 0;\n\n    if (nextVoteCount > 0) {\n      votedFeeRate = nextVolume / nextVoteCount;\n      votedFeeRateVoteCount = nextVoteCount;\n    } else {\n      votedFeeRate = defaultFeeRate;\n      votedFeeRateVoteCount = 0;\n    }\n    delete feeRateVotes[_holder];\n  }\n\n  function submitAdminVote(address _candidate) external {\n    require(_candidate != address(0), \"sav 0\");\n    uint256 votes = balanceOf(msg.sender);\n    require(votes > 0, \"sav 1\");\n\n    AdminVote storage existing = submittedAdminVotes[msg.sender];\n    if (existing.votes > 0 ){\n      removeAdminVoteHelper(msg.sender);\n    }\n\n    submittedAdminVotes[msg.sender] = AdminVote({\n      candidate: _candidate,\n      votes: votes,\n      cycle: getCurrentCycle(),\n      vested: false\n    });\n\n    emit AdminVoteSaved(submittedAdminVotes[msg.sender]);\n  }\n\n  function vestAdminVotes(address[] calldata _holders) external {\n    uint256 thisCycle = getCurrentCycle();\n\n    for (uint256 i = 0; i < _holders.length; i++) {\n      AdminVote storage vote = submittedAdminVotes[_holders[i]];\n      require(vote.cycle > 0, \"vav 0\");\n      require(vote.cycle < thisCycle, \"vav 1\");\n      require(!vote.vested, \"vav 2\");\n      vote.vested = true;\n      vestedAdminVotesTotal += vote.votes;\n\n      uint256 voteCountId = adminVoteCountIdByCandidate[vote.candidate];\n      if (voteCountId > 0) {\n        AdminVoteCount storage count = adminVoteCounts[voteCountId - 1];\n        count.votes += vote.votes;\n      } else {\n        AdminVoteCount storage count = adminVoteCounts.push();\n        count.votes = vote.votes;\n        count.candidate = vote.candidate; \n        adminVoteCountIdByCandidate[vote.candidate] = adminVoteCounts.length;\n      }\n      emit AdminVoteSaved(vote);\n    }\n  }\n\n  function proclaimCycleAdminWinner(address _candidate) external {\n    uint256 voteCountId = adminVoteCountIdByCandidate[_candidate];\n    require(voteCountId > 0);\n    AdminVoteCount storage count = adminVoteCounts[voteCountId - 1];\n\n    require(count.votes > vestedAdminVotesTotal / 2, \"pcw 0\");\n    require(vestedAdminVotesTotal > 0, \"pcw 1\");\n    uint256 thisCycle = getCurrentCycle();\n    require(lastAdminElection < thisCycle, \"pcw 2\");\n\n    lastAdminElection = thisCycle;\n    latestAdminElections[2] = latestAdminElections[1];\n    latestAdminElections[1] = latestAdminElections[0];\n    latestAdminElections[0] = _candidate;\n\n    if (_candidate == latestAdminElections[1] && _candidate == latestAdminElections[2]) {\n      admin = _candidate;\n      adminTreasury = _candidate;\n    }\n  }\n\n  function removeAdminVote() external {\n    removeAdminVoteHelper(msg.sender);\n  }\n\n  function removeAdminVoteHelper(address _holder) private {\n    AdminVote storage vote = submittedAdminVotes[_holder];\n    require(vote.votes > 0, \"ravh 0\");\n    if ( vote.vested ) {\n      vestedAdminVotesTotal -= vote.votes;\n\n      uint256 voteCountId = adminVoteCountIdByCandidate[vote.candidate];\n      require(voteCountId > 0);\n      adminVoteCounts[voteCountId - 1].votes -= vote.votes;\n    }\n    delete submittedAdminVotes[_holder];\n  }\n\n  function setAdminAddress(address _admin) external {\n    require(msg.sender == adminTreasury);\n    admin = _admin;\n  }\n\n  function isSubset(uint256[] memory mainSet, uint256[] memory subset) public pure returns (bool) {\n    for (uint256 i = 0; i < subset.length; i++) {\n      bool found = false;\n\n      for (uint256 j = 0; j < mainSet.length; j++) {\n        if (subset[i] == mainSet[j]) {\n          found = true;\n          break;\n        }\n      }\n\n      if (!found) {\n        return false;\n      }\n    }\n\n    return true;\n  }\n}\n",
  "sourcePath": "/home/nubis/asami/contract/contracts/Asami.sol",
  "compiler": {
    "name": "solc",
    "version": "0.8.19+commit.7dd6d404.Emscripten.clang"
  },
  "schemaVersion": "3.4.15",
  "updatedAt": "2024-02-12T09:35:31.729Z",
  "networkType": "ethereum",
  "devdoc": {
    "events": {
      "Approval(address,address,uint256)": {
        "details": "Emitted when the allowance of a `spender` for an `owner` is set by a call to {approve}. `value` is the new allowance."
      },
      "Transfer(address,address,uint256)": {
        "details": "Emitted when `value` tokens are moved from one account (`from`) to another (`to`). Note that `value` may be zero."
      }
    },
    "kind": "dev",
    "methods": {
      "allowance(address,address)": {
        "details": "See {IERC20-allowance}."
      },
      "approve(address,uint256)": {
        "details": "See {IERC20-approve}. NOTE: If `amount` is the maximum `uint256`, the allowance is not updated on `transferFrom`. This is semantically equivalent to an infinite approval. Requirements: - `spender` cannot be the zero address."
      },
      "balanceOf(address)": {
        "details": "See {IERC20-balanceOf}."
      },
      "cap()": {
        "details": "Returns the cap on the token's total supply."
      },
      "decimals()": {
        "details": "Returns the number of decimals used to get its user representation. For example, if `decimals` equals `2`, a balance of `505` tokens should be displayed to a user as `5.05` (`505 / 10 ** 2`). Tokens usually opt for a value of 18, imitating the relationship between Ether and Wei. This is the default value returned by this function, unless it's overridden. NOTE: This information is only used for _display_ purposes: it in no way affects any of the arithmetic of the contract, including {IERC20-balanceOf} and {IERC20-transfer}."
      },
      "decreaseAllowance(address,uint256)": {
        "details": "Atomically decreases the allowance granted to `spender` by the caller. This is an alternative to {approve} that can be used as a mitigation for problems described in {IERC20-approve}. Emits an {Approval} event indicating the updated allowance. Requirements: - `spender` cannot be the zero address. - `spender` must have allowance for the caller of at least `subtractedValue`."
      },
      "increaseAllowance(address,uint256)": {
        "details": "Atomically increases the allowance granted to `spender` by the caller. This is an alternative to {approve} that can be used as a mitigation for problems described in {IERC20-approve}. Emits an {Approval} event indicating the updated allowance. Requirements: - `spender` cannot be the zero address."
      },
      "name()": {
        "details": "Returns the name of the token."
      },
      "owner()": {
        "details": "Returns the address of the current owner."
      },
      "renounceOwnership()": {
        "details": "Leaves the contract without owner. It will not be possible to call `onlyOwner` functions. Can only be called by the current owner. NOTE: Renouncing ownership will leave the contract without an owner, thereby disabling any functionality that is only available to the owner."
      },
      "symbol()": {
        "details": "Returns the symbol of the token, usually a shorter version of the name."
      },
      "totalSupply()": {
        "details": "See {IERC20-totalSupply}."
      },
      "transfer(address,uint256)": {
        "details": "See {IERC20-transfer}. Requirements: - `to` cannot be the zero address. - the caller must have a balance of at least `amount`."
      },
      "transferFrom(address,address,uint256)": {
        "details": "See {IERC20-transferFrom}. Emits an {Approval} event indicating the updated allowance. This is not required by the EIP. See the note at the beginning of {ERC20}. NOTE: Does not update the allowance if the current allowance is the maximum `uint256`. Requirements: - `from` and `to` cannot be the zero address. - `from` must have a balance of at least `amount`. - the caller must have allowance for ``from``'s tokens of at least `amount`."
      },
      "transferOwnership(address)": {
        "details": "Transfers ownership of the contract to a new account (`newOwner`). Can only be called by the current owner."
      }
    },
    "version": 1
  },
  "userdoc": {
    "kind": "user",
    "methods": {},
    "version": 1
  }
}