{
  "contractName": "Asami",
  "abi": [
    {
      "anonymous": false,
      "inputs": [
        {
          "indexed": true,
          "internalType": "address",
          "name": "previousOwner",
          "type": "address"
        },
        {
          "indexed": true,
          "internalType": "address",
          "name": "newOwner",
          "type": "address"
        }
      ],
      "name": "OwnershipTransferred",
      "type": "event"
    },
    {
      "inputs": [
        {
          "internalType": "uint256",
          "name": "",
          "type": "uint256"
        }
      ],
      "name": "accounts",
      "outputs": [
        {
          "internalType": "uint256",
          "name": "id",
          "type": "uint256"
        },
        {
          "components": [
            {
              "internalType": "string",
              "name": "value",
              "type": "string"
            },
            {
              "internalType": "string",
              "name": "fixedId",
              "type": "string"
            },
            {
              "internalType": "uint256",
              "name": "price",
              "type": "uint256"
            },
            {
              "internalType": "uint256",
              "name": "score",
              "type": "uint256"
            },
            {
              "internalType": "uint256[]",
              "name": "topics",
              "type": "uint256[]"
            },
            {
              "internalType": "string",
              "name": "verificationMessageId",
              "type": "string"
            }
          ],
          "internalType": "struct Asami.Handle",
          "name": "x",
          "type": "tuple"
        },
        {
          "components": [
            {
              "internalType": "string",
              "name": "value",
              "type": "string"
            },
            {
              "internalType": "string",
              "name": "fixedId",
              "type": "string"
            },
            {
              "internalType": "uint256",
              "name": "price",
              "type": "uint256"
            },
            {
              "internalType": "uint256",
              "name": "score",
              "type": "uint256"
            },
            {
              "internalType": "uint256[]",
              "name": "topics",
              "type": "uint256[]"
            },
            {
              "internalType": "string",
              "name": "verificationMessageId",
              "type": "string"
            }
          ],
          "internalType": "struct Asami.Handle",
          "name": "nostr",
          "type": "tuple"
        },
        {
          "components": [
            {
              "internalType": "string",
              "name": "value",
              "type": "string"
            },
            {
              "internalType": "string",
              "name": "fixedId",
              "type": "string"
            },
            {
              "internalType": "uint256",
              "name": "price",
              "type": "uint256"
            },
            {
              "internalType": "uint256",
              "name": "score",
              "type": "uint256"
            },
            {
              "internalType": "uint256[]",
              "name": "topics",
              "type": "uint256[]"
            },
            {
              "internalType": "string",
              "name": "verificationMessageId",
              "type": "string"
            }
          ],
          "internalType": "struct Asami.Handle",
          "name": "instagram",
          "type": "tuple"
        }
      ],
      "stateMutability": "view",
      "type": "function",
      "constant": true
    },
    {
      "inputs": [],
      "name": "owner",
      "outputs": [
        {
          "internalType": "address",
          "name": "",
          "type": "address"
        }
      ],
      "stateMutability": "view",
      "type": "function",
      "constant": true
    },
    {
      "inputs": [],
      "name": "renounceOwnership",
      "outputs": [],
      "stateMutability": "nonpayable",
      "type": "function"
    },
    {
      "inputs": [
        {
          "internalType": "uint256",
          "name": "",
          "type": "uint256"
        }
      ],
      "name": "topics",
      "outputs": [
        {
          "internalType": "string",
          "name": "",
          "type": "string"
        }
      ],
      "stateMutability": "view",
      "type": "function",
      "constant": true
    },
    {
      "inputs": [
        {
          "internalType": "address",
          "name": "newOwner",
          "type": "address"
        }
      ],
      "name": "transferOwnership",
      "outputs": [],
      "stateMutability": "nonpayable",
      "type": "function"
    },
    {
      "inputs": [],
      "name": "getTopics",
      "outputs": [
        {
          "internalType": "string[]",
          "name": "",
          "type": "string[]"
        }
      ],
      "stateMutability": "view",
      "type": "function",
      "constant": true
    },
    {
      "inputs": [
        {
          "internalType": "address",
          "name": "_admin",
          "type": "address"
        }
      ],
      "name": "setAdmin",
      "outputs": [],
      "stateMutability": "nonpayable",
      "type": "function"
    },
    {
      "inputs": [
        {
          "internalType": "string",
          "name": "_name",
          "type": "string"
        }
      ],
      "name": "addTopic",
      "outputs": [],
      "stateMutability": "nonpayable",
      "type": "function"
    },
    {
      "inputs": [
        {
          "internalType": "uint256",
          "name": "_account_id",
          "type": "uint256"
        },
        {
          "components": [
            {
              "internalType": "string",
              "name": "value",
              "type": "string"
            },
            {
              "internalType": "string",
              "name": "fixedId",
              "type": "string"
            },
            {
              "internalType": "uint256",
              "name": "price",
              "type": "uint256"
            },
            {
              "internalType": "uint256",
              "name": "score",
              "type": "uint256"
            },
            {
              "internalType": "uint256[]",
              "name": "topics",
              "type": "uint256[]"
            },
            {
              "internalType": "string",
              "name": "verificationMessageId",
              "type": "string"
            }
          ],
          "internalType": "struct Asami.Handle",
          "name": "_handle",
          "type": "tuple"
        }
      ],
      "name": "addXHandle",
      "outputs": [],
      "stateMutability": "nonpayable",
      "type": "function"
    }
  ],
  "bytecode": "0x608060405234801561001057600080fd5b5061001a3361001f565b61006f565b600080546001600160a01b038381166001600160a01b0319831681178455604051919092169283917f8be0079c531659141344cd1fd0a4f28419497f9722a3daafe3b4186f6b6457e09190a35050565b6112808061007e6000396000f3fe608060405234801561001057600080fd5b50600436106100835760003560e01c806318d9adab14610088578063704b6c02146100b1578063715018a6146100c65780638da5cb5b146100ce578063b41fcb94146100ee578063c4ac65b714610101578063f2a40db814610114578063f2fde38b14610137578063fee011771461014a575b600080fd5b61009b610096366004610be4565b61015f565b6040516100a89190610c43565b60405180910390f35b6100c46100bf366004610c5d565b61020b565b005b6100c4610235565b6100d6610249565b6040516001600160a01b0390911681526020016100a8565b6100c46100fc366004610c86565b610258565b6100c461010f366004610cd3565b6102b6565b610127610122366004610be4565b610332565b6040516100a89493929190610df0565b6100c4610145366004610c5d565b6109de565b610152610a5c565b6040516100a89190610e2f565b6003818154811061016f57600080fd5b90600052602060002001600091509050805461018a90610e91565b80601f01602080910402602001604051908101604052809291908181526020018280546101b690610e91565b80156102035780601f106101d857610100808354040283529160200191610203565b820191906000526020600020905b8154815290600101906020018083116101e657829003601f168201915b505050505081565b610213610b35565b600180546001600160a01b0319166001600160a01b0392909216919091179055565b61023d610b35565b6102476000610b94565b565b6000546001600160a01b031690565b6001546001600160a01b03163314806102895750610274610249565b6001600160a01b0316336001600160a01b0316145b61029257600080fd5b600082815260026020526040902081600182016102af828261111a565b5050505050565b6001546001600160a01b03163314806102e757506102d2610249565b6001600160a01b0316336001600160a01b0316145b6102f057600080fd5b600380546001810182556000919091527fc2575a0e9e593c00f959f8c92f12db2869c3395a3b0502d05e2516446f71f85b0161032d828483610f95565b505050565b600260205260009081526040908190208054825160c081019093526001820180549193918290829061036390610e91565b80601f016020809104026020016040519081016040528092919081815260200182805461038f90610e91565b80156103dc5780601f106103b1576101008083540402835291602001916103dc565b820191906000526020600020905b8154815290600101906020018083116103bf57829003601f168201915b505050505081526020016001820180546103f590610e91565b80601f016020809104026020016040519081016040528092919081815260200182805461042190610e91565b801561046e5780601f106104435761010080835404028352916020019161046e565b820191906000526020600020905b81548152906001019060200180831161045157829003601f168201915b505050505081526020016002820154815260200160038201548152602001600482018054806020026020016040519081016040528092919081815260200182805480156104da57602002820191906000526020600020905b8154815260200190600101908083116104c6575b505050505081526020016005820180546104f390610e91565b80601f016020809104026020016040519081016040528092919081815260200182805461051f90610e91565b801561056c5780601f106105415761010080835404028352916020019161056c565b820191906000526020600020905b81548152906001019060200180831161054f57829003601f168201915b50505050508152505090806007016040518060c001604052908160008201805461059590610e91565b80601f01602080910402602001604051908101604052809291908181526020018280546105c190610e91565b801561060e5780601f106105e35761010080835404028352916020019161060e565b820191906000526020600020905b8154815290600101906020018083116105f157829003601f168201915b5050505050815260200160018201805461062790610e91565b80601f016020809104026020016040519081016040528092919081815260200182805461065390610e91565b80156106a05780601f10610675576101008083540402835291602001916106a0565b820191906000526020600020905b81548152906001019060200180831161068357829003601f168201915b5050505050815260200160028201548152602001600382015481526020016004820180548060200260200160405190810160405280929190818152602001828054801561070c57602002820191906000526020600020905b8154815260200190600101908083116106f8575b5050505050815260200160058201805461072590610e91565b80601f016020809104026020016040519081016040528092919081815260200182805461075190610e91565b801561079e5780601f106107735761010080835404028352916020019161079e565b820191906000526020600020905b81548152906001019060200180831161078157829003601f168201915b5050505050815250509080600d016040518060c00160405290816000820180546107c790610e91565b80601f01602080910402602001604051908101604052809291908181526020018280546107f390610e91565b80156108405780601f1061081557610100808354040283529160200191610840565b820191906000526020600020905b81548152906001019060200180831161082357829003601f168201915b5050505050815260200160018201805461085990610e91565b80601f016020809104026020016040519081016040528092919081815260200182805461088590610e91565b80156108d25780601f106108a7576101008083540402835291602001916108d2565b820191906000526020600020905b8154815290600101906020018083116108b557829003601f168201915b5050505050815260200160028201548152602001600382015481526020016004820180548060200260200160405190810160405280929190818152602001828054801561093e57602002820191906000526020600020905b81548152602001906001019080831161092a575b5050505050815260200160058201805461095790610e91565b80601f016020809104026020016040519081016040528092919081815260200182805461098390610e91565b80156109d05780601f106109a5576101008083540402835291602001916109d0565b820191906000526020600020905b8154815290600101906020018083116109b357829003601f168201915b505050505081525050905084565b6109e6610b35565b6001600160a01b038116610a505760405162461bcd60e51b815260206004820152602660248201527f4f776e61626c653a206e6577206f776e657220697320746865207a65726f206160448201526564647265737360d01b60648201526084015b60405180910390fd5b610a5981610b94565b50565b60606003805480602002602001604051908101604052809291908181526020016000905b82821015610b2c578382906000526020600020018054610a9f90610e91565b80601f0160208091040260200160405190810160405280929190818152602001828054610acb90610e91565b8015610b185780601f10610aed57610100808354040283529160200191610b18565b820191906000526020600020905b815481529060010190602001808311610afb57829003601f168201915b505050505081526020019060010190610a80565b50505050905090565b33610b3e610249565b6001600160a01b0316146102475760405162461bcd60e51b815260206004820181905260248201527f4f776e61626c653a2063616c6c6572206973206e6f7420746865206f776e65726044820152606401610a47565b600080546001600160a01b038381166001600160a01b0319831681178455604051919092169283917f8be0079c531659141344cd1fd0a4f28419497f9722a3daafe3b4186f6b6457e09190a35050565b600060208284031215610bf657600080fd5b5035919050565b6000815180845260005b81811015610c2357602081850181015186830182015201610c07565b506000602082860101526020601f19601f83011685010191505092915050565b602081526000610c566020830184610bfd565b9392505050565b600060208284031215610c6f57600080fd5b81356001600160a01b0381168114610c5657600080fd5b60008060408385031215610c9957600080fd5b8235915060208301356001600160401b03811115610cb657600080fd5b830160c08186031215610cc857600080fd5b809150509250929050565b60008060208385031215610ce657600080fd5b82356001600160401b0380821115610cfd57600080fd5b818501915085601f830112610d1157600080fd5b813581811115610d2057600080fd5b866020828501011115610d3257600080fd5b60209290920196919550909350505050565b6000815160c08452610d5960c0850182610bfd565b905060208084015185830382870152610d728382610bfd565b92505060408401516040860152606084015160608601526080840151858303608087015282815180855283850191508383019450600092505b80831015610dcb5784518252938301936001929092019190830190610dab565b5060a0860151935086810360a0880152610de58185610bfd565b979650505050505050565b848152608060208201526000610e096080830186610d44565b8281036040840152610e1b8186610d44565b90508281036060840152610de58185610d44565b6000602080830181845280855180835260408601915060408160051b870101925083870160005b82811015610e8457603f19888603018452610e72858351610bfd565b94509285019290850190600101610e56565b5092979650505050505050565b600181811c90821680610ea557607f821691505b602082108103610ec557634e487b7160e01b600052602260045260246000fd5b50919050565b6000808335601e19843603018112610ee257600080fd5b8301803591506001600160401b03821115610efc57600080fd5b602001915036819003821315610f1157600080fd5b9250929050565b634e487b7160e01b600052604160045260246000fd5b5b81811015610f435760008155600101610f2f565b5050565b601f82111561032d57806000526020600020601f840160051c81016020851015610f6e5750805b6102af601f850160051c830182610f2e565b600019600383901b1c191660019190911b1790565b6001600160401b03831115610fac57610fac610f18565b610fc083610fba8354610e91565b83610f47565b6000601f841160018114610fee5760008515610fdc5750838201355b610fe68682610f80565b8455506102af565b600083815260209020601f19861690835b8281101561101f5786850135825560209485019460019092019101610fff565b508682101561103c5760001960f88860031b161c19848701351681555b505060018560011b0183555050505050565b6000808335601e1984360301811261106557600080fd5b8301803591506001600160401b0382111561107f57600080fd5b6020019150600581901b3603821315610f1157600080fd5b6001600160401b038311156110ae576110ae610f18565b600160401b8311156110c2576110c2610f18565b8054838255808410156110e8578160005260206000206110e6828201868301610f2e565b505b50818160005260208060002060005b8681101561111157833582820155928201926001016110f7565b50505050505050565b6111248283610ecb565b6001600160401b0381111561113b5761113b610f18565b61114f816111498554610e91565b85610f47565b6000601f82116001811461117d576000831561116b5750838201355b6111758482610f80565b8655506111d7565b600085815260209020601f19841690835b828110156111ae578685013582556020948501946001909201910161118e565b50848210156111cb5760001960f88660031b161c19848701351681555b505060018360011b0185555b505050506111e86020830183610ecb565b6111f6818360018601610f95565b50506040820135600282015560608201356003820155611219608083018361104e565b611227818360048601611097565b505061123660a0830183610ecb565b611244818360058601610f95565b5050505056fea26469706673582212207540d5d09b755fff101871046c64bb5a13d2569b14730d3f90855bdc93c8af6164736f6c63430008130033",
  "immutableReferences": {},
  "source": "// SPDX-License-Identifier: MIT\npragma solidity ^0.8.9;\nimport \"@openzeppelin/contracts/utils/Strings.sol\";\nimport \"@openzeppelin/contracts/token/ERC20/ERC20.sol\";\nimport \"@openzeppelin/contracts/access/Ownable.sol\";\n//import \"./AsamiClassic.sol\";\n//import \"./AsamiNostr.sol\";\n\ncontract Asami is Ownable {\n  address admin;\n\n  mapping(uint256 => Account) public accounts;\n  string[] public topics;\n\n  struct Account {\n      uint256 id;\n      Handle x;\n      Handle nostr;\n      Handle instagram;\n  }\n\n  struct Handle {\n    string value;\n    string fixedId;\n    uint256 price;\n    uint256 score;\n    uint256[] topics;\n    string verificationMessageId;\n  }\n\n  function getTopics() external view returns (string[] memory) {\n    return topics;\n  }\n\n  function setAdmin(address _admin) external onlyOwner {\n    admin = _admin;\n  }\n\n  function addTopic(string calldata _name) external {\n    require(msg.sender == admin || msg.sender == owner());\n    topics.push(_name);\n  }\n\n  function addXHandle (\n    uint256 _account_id,\n    Handle calldata _handle\n  ) external {\n    require(msg.sender == admin || msg.sender == owner());\n\n    Account storage account = accounts[_account_id];\n    account.x = _handle;\n  }\n\n  /*\n  function addHandleTopicsForX(\n    uint256 calldata _account_id,\n    Handle calldata _handle\n  ) external onlyOwner {\n  }\n  */\n  \n  /*\n    uint constant oneDay = 60 * 60 * 24;\n    uint constant campaignDuration = oneDay * 14;\n\n    uint internal feePerOffer = 1e18;\n    uint internal maxFeePerCampaign = 50e18 ;\n    uint internal fees = 0;\n    address internal feesAddress;\n\n    event DebugEvent(string);\n\n    struct Campaign {\n        uint256 funding;\n        address advertiser;\n        uint256 startDate;\n        AsamiNostr.Terms nostrTerms;\n        AsamiClassic.Terms classicTerms;\n    }\n\n    Campaign[] internal campaigns;\n\n    string[] internal socialNetworks;\n\n    struct DeletionPenalty {\n        address payable creditor;\n        uint256 amount;\n    }\n    mapping(address => DeletionPenalty[]) internal deletionPenalties;\n\n    mapping(address => uint256) internal oracleFees;\n\n    struct OfferPointer {\n        uint campaignId;\n        uint offerId;\n    }\n\n    IERC20 internal rewardToken;\n    \n    constructor(address _dollarOnChainAddress) {\n        rewardToken = IERC20(_dollarOnChainAddress);\n    }\n\n    function nostrCreateCampaign(\n      uint256 _funding,\n      uint256 _startDate,\n      string calldata _requestedContent,\n      AsamiNostr.NewOffer[] calldata _newOffers\n    ) external {\n        require(_newOffers.length > 0);\n        require(_funding > 0);\n        require(bytes(_requestedContent).length > 0);\n\n        Campaign storage campaign = campaigns.push();\n        campaign.funding = _funding;\n        campaign.startDate = _startDate;\n        campaign.advertiser = payable(msg.sender);\n        campaign.nostrTerms.requestedContent = _requestedContent;\n\n        uint256 totalRewards = 0;\n        uint256 totalFees = 0;\n        for (uint i = 0; i < _newOffers.length; i++) {\n            require(_newOffers[i].rewardAmount > 0);\n            totalRewards += _newOffers[i].rewardAmount;\n            totalFees += feePerOffer;\n            AsamiNostr.Offer storage offer = campaign.nostrTerms.offers.push();\n            offer.state = AsamiNostr.OfferState.Assumed;\n            offer.collected = false;\n            offer.nostrHexPubkey = _newOffers[i].nostrHexPubkey;\n            offer.rewardAmount = _newOffers[i].rewardAmount;\n            offer.rewardAddress = payable(_newOffers[i].rewardAddress);\n            offer.nostrAffineX = _newOffers[i].nostrAffineX;\n            offer.nostrAffineY = _newOffers[i].nostrAffineY;\n            offer.messageId = bytes32(0);\n        }\n\n        if (totalFees > maxFeePerCampaign) {\n          totalFees = maxFeePerCampaign;\n        }\n\n        require((totalRewards + totalFees) == _funding);\n        require(rewardToken.transferFrom(msg.sender, address(this), _funding));\n    }\n\n    struct NewClassicCampaign{\n      uint256 funding;\n      uint256 startDate;\n      uint socialNetworkId;\n      string rulesUrl;\n      bytes32 rulesHash;\n      address oracleAddress;\n      uint256 oracleFee;\n      AsamiClassic.NewOffer[] newOffers;\n    }\n\n    function classicCreateCampaign(\n      NewClassicCampaign calldata _c\n    ) external {\n        require(_c.newOffers.length > 0, \"0\");\n        require(_c.funding > 0, \"1\");\n        require(bytes(_c.rulesUrl).length > 5, \"2\");\n        require(_c.rulesHash != bytes32(0), \"3\");\n        require(_c.oracleAddress != address(0), \"4\");\n        require(_c.oracleFee > 0, \"5\");\n        require(_c.socialNetworkId < socialNetworks.length, \"6\");\n\n        Campaign storage campaign = campaigns.push();\n        campaign.funding = _c.funding;\n        campaign.startDate = _c.startDate;\n        campaign.advertiser = payable(msg.sender);\n\n        AsamiClassic.Terms storage terms = campaign.classicTerms;\n        terms.socialNetworkId = _c.socialNetworkId;\n        terms.rulesUrl = _c.rulesUrl;\n        terms.rulesHash = _c.rulesHash;\n        terms.oracleAddress = _c.oracleAddress;\n        terms.oracleFee = _c.oracleFee;\n\n        uint256 totalRewards = 0;\n        uint256 totalFees = 0;\n        for (uint i = 0; i < _c.newOffers.length; i++) {\n            require(_c.newOffers[i].rewardAmount > 0);\n            totalRewards += _c.newOffers[i].rewardAmount;\n            totalFees += feePerOffer;\n\n            AsamiClassic.Offer storage offer = campaign.classicTerms.offers.push();\n            offer.state = AsamiClassic.OfferState.Assumed;\n            offer.username = _c.newOffers[i].username;\n            offer.rewardAmount = _c.newOffers[i].rewardAmount;\n            offer.rewardAddress = payable(_c.newOffers[i].rewardAddress);\n        }\n\n        if (totalFees > maxFeePerCampaign) {\n          totalFees = maxFeePerCampaign;\n        }\n\n        require((totalRewards + totalFees) == _c.funding, \"7\");\n        require(rewardToken.transferFrom(msg.sender, address(this), _c.funding), \"8\");\n    }\n\n    function nostrChallenge(OfferPointer calldata _p) public {\n        Campaign storage campaign = getCampaignInTimeWindow(_p, 0, oneDay);\n        require(campaign.advertiser == msg.sender);\n\n        AsamiNostr.Offer storage offer = campaign.nostrTerms.offers[_p.offerId];\n        require(offer.state == AsamiNostr.OfferState.Assumed, \"1\");\n        offer.state = AsamiNostr.OfferState.Challenged;\n    }\n\n    // Anyone can submit proof of a message being published, likely a Collaborator or someone on their behalf.\n    // The r value is the first 32 bytes of the signature, and the s value are the remaining 32,\n    function nostrConfirm(\n        OfferPointer calldata _p,\n        AsamiNostr.MessageProof calldata _proof\n    ) external {\n        Campaign storage campaign = getCampaignInTimeWindow(_p, 0, oneDay * 2);\n\n        AsamiNostr.Offer storage offer = campaign.nostrTerms.offers[_p.offerId];\n        require(offer.state == AsamiNostr.OfferState.Challenged);\n\n        bytes32 messageId = AsamiNostr.verifyCampaignMessage(\n          campaign.nostrTerms.requestedContent,\n          offer.nostrHexPubkey,\n          _proof,\n          offer.nostrAffineX,\n          offer.nostrAffineY\n        );\n\n        offer.messageId = messageId;\n        offer.state = AsamiNostr.OfferState.Confirmed;\n    }\n\n    function nostrRenounce(OfferPointer calldata _p) external {\n        Campaign storage campaign = getCampaignInTimeWindow(_p, 0, campaignDuration);\n        AsamiNostr.Offer storage offer = campaign.nostrTerms.offers[_p.offerId];\n\n        require(offer.rewardAddress == msg.sender);\n\n        require(\n          offer.state == AsamiNostr.OfferState.Assumed ||\n          offer.state == AsamiNostr.OfferState.Challenged ||\n          offer.state == AsamiNostr.OfferState.Confirmed\n        );\n\n        offer.state = AsamiNostr.OfferState.Renounced;\n    }\n\n    function nostrReportConfirmed(\n        OfferPointer calldata _p,\n        AsamiNostr.DeletionProof calldata _deletionProof\n    ) external {\n        uint256 startGas = gasleft();\n\n        Campaign storage campaign = getCampaignInTimeWindow(_p, 0, campaignDuration);\n\n        AsamiNostr.Offer storage offer = campaign.nostrTerms.offers[_p.offerId];\n        require(offer.state == AsamiNostr.OfferState.Confirmed);\n\n        require(AsamiNostr.idInTags(offer.messageId, _deletionProof.tags));\n\n        AsamiNostr.verifyDeletionMessage(\n          offer.nostrHexPubkey,\n          _deletionProof,\n          offer.nostrAffineX,\n          offer.nostrAffineY\n        );\n\n        offer.state = AsamiNostr.OfferState.ReportedDeletion;\n\n        uint256 refund = ((startGas - gasleft()) * 11) / 10;\n        deletionPenalties[offer.rewardAddress].push(DeletionPenalty(payable(msg.sender), refund));\n    }\n\n    function nostrReportAssumed (\n        OfferPointer calldata _p,\n        AsamiNostr.MessageProof calldata _messageProof,\n        AsamiNostr.DeletionProof calldata _deletionProof\n    )\n        external \n    {\n        uint256 startGas = gasleft();\n\n        Campaign storage campaign = getCampaignInTimeWindow(_p, 0, campaignDuration);\n\n        AsamiNostr.Offer storage offer = campaign.nostrTerms.offers[_p.offerId];\n        require(offer.state == AsamiNostr.OfferState.Assumed);\n\n        bytes32 messageId = AsamiNostr.verifyCampaignMessage(\n            campaign.nostrTerms.requestedContent,\n            offer.nostrHexPubkey,\n            _messageProof,\n            offer.nostrAffineX,\n            offer.nostrAffineY\n        );\n\n        offer.messageId = messageId;\n\n        require(AsamiNostr.idInTags(offer.messageId, _deletionProof.tags));\n\n        AsamiNostr.verifyDeletionMessage(\n          offer.nostrHexPubkey,\n          _deletionProof,\n          offer.nostrAffineX,\n          offer.nostrAffineY\n        );\n\n        offer.state = AsamiNostr.OfferState.ReportedDeletion;\n\n        uint256 refund = ((startGas - gasleft()) * 11) / 10;\n        deletionPenalties[offer.rewardAddress].push(DeletionPenalty(payable(msg.sender), refund));\n    }\n\n    function classicChallenge(\n      OfferPointer calldata _p\n    ) external {\n        Campaign storage campaign = getCampaignInTimeWindow(_p, 0, oneDay);\n        require(campaign.advertiser == msg.sender);\n\n        AsamiClassic.Offer storage offer = campaign.classicTerms.offers[_p.offerId];\n        require(offer.state == AsamiClassic.OfferState.Assumed);\n\n        offer.state = AsamiClassic.OfferState.Challenged;\n    }\n\n    function classicRequestConfirmation(\n      OfferPointer calldata _p\n    ) external {\n        Campaign storage campaign = getCampaignInTimeWindow(_p, 0, oneDay * 2 );\n\n        AsamiClassic.Offer storage offer = campaign.classicTerms.offers[_p.offerId];\n        require(offer.state == AsamiClassic.OfferState.Challenged);\n\n        require(rewardToken.transferFrom(msg.sender, address(this), campaign.classicTerms.oracleFee));\n\n        offer.state = AsamiClassic.OfferState.ConfirmationRequested;\n    }\n\n    function classicConfirm(\n      OfferPointer calldata _p,\n      bool _found\n    ) external {\n        Campaign storage campaign = getCampaignInTimeWindow(_p, 0, oneDay * 3 );\n        require(campaign.classicTerms.oracleAddress == msg.sender);\n\n        AsamiClassic.Offer storage offer = campaign.classicTerms.offers[_p.offerId];\n        require(offer.state == AsamiClassic.OfferState.ConfirmationRequested);\n        \n        oracleFees[campaign.classicTerms.oracleAddress] += campaign.classicTerms.oracleFee;\n\n        if (_found) {\n          offer.state = AsamiClassic.OfferState.Confirmed;\n        } else {\n          offer.state = AsamiClassic.OfferState.Refuted;\n        }\n    }\n\n    function classicConfirmFree(\n      OfferPointer calldata _p,\n      bool _found\n    ) external {\n        Campaign storage campaign = getCampaignInTimeWindow(_p, 0, oneDay * 3 );\n\n        require(campaign.classicTerms.oracleAddress == msg.sender);\n\n        AsamiClassic.Offer storage offer = campaign.classicTerms.offers[_p.offerId];\n        require(offer.state == AsamiClassic.OfferState.Challenged);\n        \n        if (_found) {\n          offer.state = AsamiClassic.OfferState.Confirmed;\n        } else {\n          offer.state = AsamiClassic.OfferState.Refuted;\n        }\n    }\n\n    function classicRenounce(\n      OfferPointer calldata _p\n    ) external {\n        Campaign storage campaign = getCampaignInTimeWindow(_p, 0, campaignDuration);\n        AsamiClassic.Offer storage offer = campaign.classicTerms.offers[_p.offerId];\n\n        require(offer.rewardAddress == msg.sender);\n\n        require(\n          offer.state == AsamiClassic.OfferState.Assumed ||\n          offer.state == AsamiClassic.OfferState.Challenged ||\n          offer.state == AsamiClassic.OfferState.Confirmed\n        );\n\n        offer.state = AsamiClassic.OfferState.Renounced;\n    }\n\n    function classicReportDeletion(\n      OfferPointer calldata _p\n    ) external {\n        Campaign storage campaign = getCampaignInTimeWindow(_p, 0, campaignDuration);\n        require(campaign.advertiser == msg.sender);\n\n        AsamiClassic.Offer storage offer = campaign.classicTerms.offers[_p.offerId];\n\n        require(\n          offer.state == AsamiClassic.OfferState.Assumed ||\n          offer.state == AsamiClassic.OfferState.Confirmed\n        );\n\n        require(rewardToken.transferFrom(msg.sender, address(this), campaign.classicTerms.oracleFee));\n\n        offer.deletionReportedAt = block.timestamp;\n        offer.state = AsamiClassic.OfferState.DeletionReported;\n    }\n\n    function classicConfirmDeletion(\n      OfferPointer calldata _p,\n      bool _wasDeleted\n    ) external {\n        Campaign storage campaign = getCampaignInTimeWindow(_p, 0, campaignDuration);\n        require(campaign.classicTerms.oracleAddress == msg.sender);\n\n        AsamiClassic.Offer storage offer = campaign.classicTerms.offers[_p.offerId];\n        require(offer.state == AsamiClassic.OfferState.DeletionReported);\n\n        oracleFees[campaign.classicTerms.oracleAddress] += campaign.classicTerms.oracleFee;\n\n        if (_wasDeleted) {\n          offer.state = AsamiClassic.OfferState.DeletionConfirmed;\n        } else {\n          offer.state = AsamiClassic.OfferState.Confirmed;\n        }\n    }\n\n    function getCollectableCollaboratorOffers(\n        address _collaborator\n    )\n        external view returns (OfferPointer[] memory, OfferPointer[] memory) \n    {\n        OfferPointer[] memory nostrPointers = new OfferPointer[](0);\n        OfferPointer[] memory classicPointers = new OfferPointer[](0);\n\n        for(uint i = 0; i < campaigns.length; i++) {\n          Campaign storage campaign = campaigns[i];\n          if( block.timestamp < (campaign.startDate + campaignDuration) ) {\n            continue;\n          }\n\n          if (campaign.nostrTerms.offers.length > 0) {\n            for(uint j = 0; j < campaign.nostrTerms.offers.length; j++) {\n              AsamiNostr.Offer storage offer = campaign.nostrTerms.offers[j];\n              if(\n                offer.rewardAddress == _collaborator && \n                AsamiNostr.collaboratorCanCollect(offer)\n              ) {\n                nostrPointers = pushPointer(nostrPointers, i, j);\n              }\n            }\n          } else {\n            for(uint j = 0; j < campaign.classicTerms.offers.length; j++) {\n              AsamiClassic.Offer memory offer = campaign.classicTerms.offers[j];\n              if(\n                offer.rewardAddress == _collaborator && \n                !offer.collaboratorCollected &&\n                offer.state != AsamiClassic.OfferState.Challenged &&\n                offer.state != AsamiClassic.OfferState.Refuted &&\n                offer.state != AsamiClassic.OfferState.Renounced &&\n                offer.state != AsamiClassic.OfferState.DeletionConfirmed\n              ) {\n                classicPointers = pushPointer(classicPointers, i, j);\n              }\n            }\n          }\n        }\n        return (nostrPointers, classicPointers);\n    }\n\n    function collectCollaboratorOffers(\n        address _collaborator,\n        OfferPointer[] calldata _nostrPointers,\n        OfferPointer[] calldata _classicPointers\n    ) external {\n        require(deletionPenalties[_collaborator].length == 0);\n\n        uint256 total = 0;\n\n        for (uint i = 0; i < _nostrPointers.length; i++) {\n            Campaign storage campaign = campaigns[_nostrPointers[i].campaignId];\n            require(block.timestamp >= (campaign.startDate + campaignDuration), \"1\"); // Campaign not ended.\n\n            AsamiNostr.Offer storage offer = campaign.nostrTerms.offers[_nostrPointers[i].offerId];\n\n            require(offer.rewardAddress == _collaborator, \"2\"); // Wrong collaborator.\n            require(AsamiNostr.collaboratorCanCollect(offer));\n\n            total = offer.rewardAmount;\n            offer.collected = true;\n        }\n\n        for (uint i = 0; i < _classicPointers.length; i++) {\n            Campaign storage campaign = campaigns[_classicPointers[i].campaignId];\n            require(block.timestamp >= (campaign.startDate + campaignDuration));\n\n            AsamiClassic.Offer storage offer = campaign.classicTerms.offers[_classicPointers[i].offerId];\n\n            require(offer.rewardAddress == _collaborator);\n            require(!offer.collaboratorCollected);\n\n            if( offer.state == AsamiClassic.OfferState.Assumed || offer.state == AsamiClassic.OfferState.Confirmed) {\n              total += offer.rewardAmount;\n            } else if( offer.state == AsamiClassic.OfferState.ConfirmationRequested ) {\n              total += campaign.classicTerms.oracleFee;\n            } else if( offer.state == AsamiClassic.OfferState.DeletionReported ) {\n              total += (offer.deletionReportedAt - campaign.startDate) * offer.rewardAmount / campaignDuration;\n            } else {\n              revert();\n            }\n            offer.collaboratorCollected = true;\n        }\n\n        require(rewardToken.transfer(_collaborator, total));\n    }\n\n    function getCollectableAdvertiserOffers(\n      address _advertiser\n    )\n        external view returns (OfferPointer[] memory, OfferPointer[] memory) \n    {\n        OfferPointer[] memory nostrPointers = new OfferPointer[](0);\n        OfferPointer[] memory classicPointers = new OfferPointer[](0);\n\n        for(uint i = 0; i < campaigns.length; i++) {\n          Campaign storage campaign = campaigns[i];\n\n          if( \n            campaign.advertiser != _advertiser ||\n            block.timestamp < (campaign.startDate + campaignDuration)\n          ){\n            continue;\n          }\n\n          if (campaign.nostrTerms.offers.length > 0) {\n            for(uint j = 0; j < campaign.nostrTerms.offers.length; j++) {\n              AsamiNostr.Offer storage offer = campaign.nostrTerms.offers[j];\n              if( AsamiNostr.advertiserCanCollect(offer) ) {\n                nostrPointers = pushPointer(nostrPointers, i, j);\n              }\n            }\n          } else {\n            for(uint j = 0; j < campaign.classicTerms.offers.length; j++) {\n              AsamiClassic.Offer memory offer = campaign.classicTerms.offers[j];\n              if(\n                !offer.advertiserCollected &&\n                offer.state != AsamiClassic.OfferState.Assumed &&\n                offer.state != AsamiClassic.OfferState.Confirmed\n              ) {\n                nostrPointers = pushPointer(nostrPointers, i, j);\n              }\n            }\n          }\n        }\n        return (nostrPointers, classicPointers);\n    }\n\n    function collectAdvertiserOffers(\n      address payable _advertiser,\n      OfferPointer[] calldata _nostrOffers,\n      OfferPointer[] calldata _classicOffers\n    ) external {\n        uint256 total = 0;\n\n        for (uint i = 0; i < _nostrOffers.length; i++) {\n            OfferPointer memory p = _nostrOffers[i];\n\n            Campaign storage campaign = campaigns[p.campaignId];\n            require(campaign.advertiser == _advertiser);\n            require(block.timestamp >= (campaign.startDate + campaignDuration));\n\n            AsamiNostr.Offer storage offer = campaign.nostrTerms.offers[p.offerId];\n\n            require(AsamiNostr.advertiserCanCollect(offer));\n\n            total += offer.rewardAmount;\n            offer.collected = true;\n        }\n\n        for (uint i = 0; i < _classicOffers.length; i++) {\n            OfferPointer memory p = _classicOffers[i];\n\n            Campaign storage campaign = campaigns[p.campaignId];\n            require(campaign.advertiser == _advertiser);\n            require(block.timestamp >= (campaign.startDate + campaignDuration));\n\n            AsamiClassic.Offer storage offer = campaign.classicTerms.offers[p.offerId];\n            require(!offer.advertiserCollected);\n\n            if(\n              offer.state == AsamiClassic.OfferState.Challenged ||\n              offer.state == AsamiClassic.OfferState.ConfirmationRequested ||\n              offer.state == AsamiClassic.OfferState.Refuted ||\n              offer.state == AsamiClassic.OfferState.Renounced ||\n              offer.state == AsamiClassic.OfferState.DeletionConfirmed\n            ) {\n              total += offer.rewardAmount;\n            } else if( offer.state == AsamiClassic.OfferState.DeletionReported ) {\n              total += (campaignDuration - (offer.deletionReportedAt - campaign.startDate)) * offer.rewardAmount / campaignDuration;\n            } else {\n              revert();\n            }\n            offer.advertiserCollected = true;\n        }\n\n        require(rewardToken.transfer(_advertiser, total));\n    }\n\n    function payDeletionPenalties(\n      address _debtor\n    ) external payable {\n        DeletionPenalty[] storage penalties = deletionPenalties[_debtor];\n        uint256 total = 0;\n\n        for (uint256 i = 0; i < penalties.length; i++) {\n            total += penalties[i].amount;\n        }\n\n        require(total > 0);\n        require(msg.value == total);\n\n        for (uint256 i = 0; i < penalties.length; i++) {\n            payable(penalties[i].creditor).transfer(penalties[i].amount);\n        }\n\n        delete deletionPenalties[_debtor];\n    }\n\n\n    function setAsamiFeePerOffer(uint256 _fee) external onlyOwner {\n        feePerOffer = _fee;\n    }\n\n    function setAsamiMaxFeePerCampaign(uint256 _fee) external onlyOwner {\n        maxFeePerCampaign = _fee;\n    }\n\n    function setAsamiFeesAddress(address _feesAddress) external onlyOwner {\n        feesAddress = _feesAddress;\n    }\n\n    function collectAsamiFees() external {\n        require(fees > 0);\n        require(rewardToken.transferFrom(address(this), feesAddress, fees));\n        fees = 0;\n    }\n\n    function collectOracleFees(address _oracle) external {\n        require(oracleFees[_oracle] > 0);\n        require(rewardToken.transferFrom(address(this), _oracle, oracleFees[_oracle]));\n        oracleFees[_oracle] = 0;\n    }\n\n    function nostrGetCampaignOffer(OfferPointer memory _p) external view returns (AsamiNostr.Offer memory) {\n        return campaigns[_p.campaignId].nostrTerms.offers[_p.offerId];\n    }\n\n    function classicGetCampaignOffer(OfferPointer memory _p) external view returns (AsamiClassic.Offer memory) {\n        return campaigns[_p.campaignId].classicTerms.offers[_p.offerId];\n    }\n\n    function calculateCampaignFees(uint _offerCount) external view returns (uint256) {\n        uint256 total = _offerCount * feePerOffer;\n        return total > maxFeePerCampaign ? maxFeePerCampaign : total;\n    }\n\n    function getCampaigns() external view returns (Campaign[] memory) {\n        return campaigns;\n    }\n\n    function getSocialNetworks() external view returns (string[] memory) {\n        return socialNetworks;\n    }\n\n    function getCampaignInTimeWindow(\n      OfferPointer calldata _p,\n      uint256 _offset,\n      uint256 _duration\n    ) internal view returns (Campaign storage) {\n        Campaign storage campaign = campaigns[_p.campaignId];\n        require(block.timestamp >= (campaign.startDate + _offset), \"99\");\n        require(block.timestamp <= (campaign.startDate + _offset + _duration), \"99\");\n        return campaign;\n    }\n\n    function pushPointer(\n      OfferPointer[] memory _pointers,\n      uint256 _campaignId,\n      uint256 _offerId\n    ) internal pure returns (OfferPointer[] memory) {\n      OfferPointer[] memory tmp = new OfferPointer[](_pointers.length + 1);\n      for (uint k = 0; k < _pointers.length; k++) {\n          tmp[k] = _pointers[k];\n      }\n      tmp[_pointers.length] = OfferPointer(_campaignId, _offerId);\n      return tmp;\n    }\n  */\n}\n",
  "sourcePath": "/home/nubis/asami/contract/contracts/Asami.sol",
  "compiler": {
    "name": "solc",
    "version": "0.8.19+commit.7dd6d404.Emscripten.clang"
  },
  "schemaVersion": "3.4.15",
  "updatedAt": "2023-10-21T14:16:32.425Z",
  "networkType": "ethereum",
  "devdoc": {
    "kind": "dev",
    "methods": {
      "owner()": {
        "details": "Returns the address of the current owner."
      },
      "renounceOwnership()": {
        "details": "Leaves the contract without owner. It will not be possible to call `onlyOwner` functions. Can only be called by the current owner. NOTE: Renouncing ownership will leave the contract without an owner, thereby disabling any functionality that is only available to the owner."
      },
      "transferOwnership(address)": {
        "details": "Transfers ownership of the contract to a new account (`newOwner`). Can only be called by the current owner."
      }
    },
    "version": 1
  },
  "userdoc": {
    "kind": "user",
    "methods": {},
    "version": 1
  }
}