{
  "contractName": "Asami",
  "abi": [
    {
      "inputs": [
        {
          "internalType": "address",
          "name": "_dollarOnChainAddress",
          "type": "address"
        }
      ],
      "stateMutability": "nonpayable",
      "type": "constructor"
    },
    {
      "anonymous": false,
      "inputs": [
        {
          "indexed": false,
          "internalType": "string",
          "name": "",
          "type": "string"
        }
      ],
      "name": "DebugEvent",
      "type": "event"
    },
    {
      "anonymous": false,
      "inputs": [
        {
          "indexed": true,
          "internalType": "address",
          "name": "previousOwner",
          "type": "address"
        },
        {
          "indexed": true,
          "internalType": "address",
          "name": "newOwner",
          "type": "address"
        }
      ],
      "name": "OwnershipTransferred",
      "type": "event"
    },
    {
      "inputs": [],
      "name": "owner",
      "outputs": [
        {
          "internalType": "address",
          "name": "",
          "type": "address"
        }
      ],
      "stateMutability": "view",
      "type": "function",
      "constant": true
    },
    {
      "inputs": [],
      "name": "renounceOwnership",
      "outputs": [],
      "stateMutability": "nonpayable",
      "type": "function"
    },
    {
      "inputs": [
        {
          "internalType": "uint256",
          "name": "",
          "type": "uint256"
        }
      ],
      "name": "socialNetworks",
      "outputs": [
        {
          "internalType": "string",
          "name": "",
          "type": "string"
        }
      ],
      "stateMutability": "view",
      "type": "function",
      "constant": true
    },
    {
      "inputs": [
        {
          "internalType": "address",
          "name": "newOwner",
          "type": "address"
        }
      ],
      "name": "transferOwnership",
      "outputs": [],
      "stateMutability": "nonpayable",
      "type": "function"
    },
    {
      "inputs": [
        {
          "internalType": "uint256",
          "name": "_funding",
          "type": "uint256"
        },
        {
          "internalType": "uint256",
          "name": "_startDate",
          "type": "uint256"
        },
        {
          "internalType": "string",
          "name": "_requestedContent",
          "type": "string"
        },
        {
          "components": [
            {
              "internalType": "uint256",
              "name": "rewardAmount",
              "type": "uint256"
            },
            {
              "internalType": "address",
              "name": "rewardAddress",
              "type": "address"
            },
            {
              "internalType": "string",
              "name": "nostrHexPubkey",
              "type": "string"
            },
            {
              "internalType": "uint256",
              "name": "nostrAffineX",
              "type": "uint256"
            },
            {
              "internalType": "uint256",
              "name": "nostrAffineY",
              "type": "uint256"
            }
          ],
          "internalType": "struct AsamiNostr.NewOffer[]",
          "name": "_newOffers",
          "type": "tuple[]"
        }
      ],
      "name": "nostrCreateCampaign",
      "outputs": [],
      "stateMutability": "nonpayable",
      "type": "function"
    },
    {
      "inputs": [
        {
          "components": [
            {
              "internalType": "uint256",
              "name": "funding",
              "type": "uint256"
            },
            {
              "internalType": "uint256",
              "name": "startDate",
              "type": "uint256"
            },
            {
              "internalType": "uint256",
              "name": "socialNetworkId",
              "type": "uint256"
            },
            {
              "internalType": "string",
              "name": "rulesUrl",
              "type": "string"
            },
            {
              "internalType": "bytes32",
              "name": "rulesHash",
              "type": "bytes32"
            },
            {
              "internalType": "address",
              "name": "oracleAddress",
              "type": "address"
            },
            {
              "internalType": "uint256",
              "name": "oracleFee",
              "type": "uint256"
            },
            {
              "components": [
                {
                  "internalType": "uint256",
                  "name": "rewardAmount",
                  "type": "uint256"
                },
                {
                  "internalType": "address",
                  "name": "rewardAddress",
                  "type": "address"
                },
                {
                  "internalType": "string",
                  "name": "username",
                  "type": "string"
                }
              ],
              "internalType": "struct AsamiClassic.NewOffer[]",
              "name": "newOffers",
              "type": "tuple[]"
            }
          ],
          "internalType": "struct Asami.NewClassicCampaign",
          "name": "_c",
          "type": "tuple"
        }
      ],
      "name": "classicCreateCampaign",
      "outputs": [],
      "stateMutability": "nonpayable",
      "type": "function"
    },
    {
      "inputs": [
        {
          "components": [
            {
              "internalType": "uint256",
              "name": "campaignId",
              "type": "uint256"
            },
            {
              "internalType": "uint256",
              "name": "offerId",
              "type": "uint256"
            }
          ],
          "internalType": "struct Asami.OfferPointer",
          "name": "_p",
          "type": "tuple"
        }
      ],
      "name": "nostrChallenge",
      "outputs": [],
      "stateMutability": "nonpayable",
      "type": "function"
    },
    {
      "inputs": [
        {
          "components": [
            {
              "internalType": "uint256",
              "name": "campaignId",
              "type": "uint256"
            },
            {
              "internalType": "uint256",
              "name": "offerId",
              "type": "uint256"
            }
          ],
          "internalType": "struct Asami.OfferPointer",
          "name": "_p",
          "type": "tuple"
        },
        {
          "components": [
            {
              "internalType": "uint256",
              "name": "createdAt",
              "type": "uint256"
            },
            {
              "internalType": "uint256",
              "name": "sigR",
              "type": "uint256"
            },
            {
              "internalType": "uint256",
              "name": "sigS",
              "type": "uint256"
            }
          ],
          "internalType": "struct AsamiNostr.MessageProof",
          "name": "_proof",
          "type": "tuple"
        }
      ],
      "name": "nostrConfirm",
      "outputs": [],
      "stateMutability": "nonpayable",
      "type": "function"
    },
    {
      "inputs": [
        {
          "components": [
            {
              "internalType": "uint256",
              "name": "campaignId",
              "type": "uint256"
            },
            {
              "internalType": "uint256",
              "name": "offerId",
              "type": "uint256"
            }
          ],
          "internalType": "struct Asami.OfferPointer",
          "name": "_p",
          "type": "tuple"
        }
      ],
      "name": "nostrRenounce",
      "outputs": [],
      "stateMutability": "nonpayable",
      "type": "function"
    },
    {
      "inputs": [
        {
          "components": [
            {
              "internalType": "uint256",
              "name": "campaignId",
              "type": "uint256"
            },
            {
              "internalType": "uint256",
              "name": "offerId",
              "type": "uint256"
            }
          ],
          "internalType": "struct Asami.OfferPointer",
          "name": "_p",
          "type": "tuple"
        },
        {
          "components": [
            {
              "internalType": "string",
              "name": "content",
              "type": "string"
            },
            {
              "internalType": "string",
              "name": "tags",
              "type": "string"
            },
            {
              "internalType": "uint256",
              "name": "createdAt",
              "type": "uint256"
            },
            {
              "internalType": "uint256",
              "name": "sigR",
              "type": "uint256"
            },
            {
              "internalType": "uint256",
              "name": "sigS",
              "type": "uint256"
            }
          ],
          "internalType": "struct AsamiNostr.DeletionProof",
          "name": "_deletionProof",
          "type": "tuple"
        }
      ],
      "name": "nostrReportConfirmed",
      "outputs": [],
      "stateMutability": "nonpayable",
      "type": "function"
    },
    {
      "inputs": [
        {
          "components": [
            {
              "internalType": "uint256",
              "name": "campaignId",
              "type": "uint256"
            },
            {
              "internalType": "uint256",
              "name": "offerId",
              "type": "uint256"
            }
          ],
          "internalType": "struct Asami.OfferPointer",
          "name": "_p",
          "type": "tuple"
        },
        {
          "components": [
            {
              "internalType": "uint256",
              "name": "createdAt",
              "type": "uint256"
            },
            {
              "internalType": "uint256",
              "name": "sigR",
              "type": "uint256"
            },
            {
              "internalType": "uint256",
              "name": "sigS",
              "type": "uint256"
            }
          ],
          "internalType": "struct AsamiNostr.MessageProof",
          "name": "_messageProof",
          "type": "tuple"
        },
        {
          "components": [
            {
              "internalType": "string",
              "name": "content",
              "type": "string"
            },
            {
              "internalType": "string",
              "name": "tags",
              "type": "string"
            },
            {
              "internalType": "uint256",
              "name": "createdAt",
              "type": "uint256"
            },
            {
              "internalType": "uint256",
              "name": "sigR",
              "type": "uint256"
            },
            {
              "internalType": "uint256",
              "name": "sigS",
              "type": "uint256"
            }
          ],
          "internalType": "struct AsamiNostr.DeletionProof",
          "name": "_deletionProof",
          "type": "tuple"
        }
      ],
      "name": "nostrReportAssumed",
      "outputs": [],
      "stateMutability": "nonpayable",
      "type": "function"
    },
    {
      "inputs": [
        {
          "components": [
            {
              "internalType": "uint256",
              "name": "campaignId",
              "type": "uint256"
            },
            {
              "internalType": "uint256",
              "name": "offerId",
              "type": "uint256"
            }
          ],
          "internalType": "struct Asami.OfferPointer",
          "name": "_p",
          "type": "tuple"
        }
      ],
      "name": "classicChallenge",
      "outputs": [],
      "stateMutability": "nonpayable",
      "type": "function"
    },
    {
      "inputs": [
        {
          "components": [
            {
              "internalType": "uint256",
              "name": "campaignId",
              "type": "uint256"
            },
            {
              "internalType": "uint256",
              "name": "offerId",
              "type": "uint256"
            }
          ],
          "internalType": "struct Asami.OfferPointer",
          "name": "_p",
          "type": "tuple"
        }
      ],
      "name": "classicRequestConfirmation",
      "outputs": [],
      "stateMutability": "nonpayable",
      "type": "function"
    },
    {
      "inputs": [
        {
          "components": [
            {
              "internalType": "uint256",
              "name": "campaignId",
              "type": "uint256"
            },
            {
              "internalType": "uint256",
              "name": "offerId",
              "type": "uint256"
            }
          ],
          "internalType": "struct Asami.OfferPointer",
          "name": "_p",
          "type": "tuple"
        },
        {
          "internalType": "bool",
          "name": "_found",
          "type": "bool"
        }
      ],
      "name": "classicConfirm",
      "outputs": [],
      "stateMutability": "nonpayable",
      "type": "function"
    },
    {
      "inputs": [
        {
          "components": [
            {
              "internalType": "uint256",
              "name": "campaignId",
              "type": "uint256"
            },
            {
              "internalType": "uint256",
              "name": "offerId",
              "type": "uint256"
            }
          ],
          "internalType": "struct Asami.OfferPointer",
          "name": "_p",
          "type": "tuple"
        },
        {
          "internalType": "bool",
          "name": "_found",
          "type": "bool"
        }
      ],
      "name": "classicConfirmFree",
      "outputs": [],
      "stateMutability": "nonpayable",
      "type": "function"
    },
    {
      "inputs": [
        {
          "components": [
            {
              "internalType": "uint256",
              "name": "campaignId",
              "type": "uint256"
            },
            {
              "internalType": "uint256",
              "name": "offerId",
              "type": "uint256"
            }
          ],
          "internalType": "struct Asami.OfferPointer",
          "name": "_p",
          "type": "tuple"
        }
      ],
      "name": "classicRenounce",
      "outputs": [],
      "stateMutability": "nonpayable",
      "type": "function"
    },
    {
      "inputs": [
        {
          "components": [
            {
              "internalType": "uint256",
              "name": "campaignId",
              "type": "uint256"
            },
            {
              "internalType": "uint256",
              "name": "offerId",
              "type": "uint256"
            }
          ],
          "internalType": "struct Asami.OfferPointer",
          "name": "_p",
          "type": "tuple"
        }
      ],
      "name": "classicReportDeletion",
      "outputs": [],
      "stateMutability": "nonpayable",
      "type": "function"
    },
    {
      "inputs": [
        {
          "components": [
            {
              "internalType": "uint256",
              "name": "campaignId",
              "type": "uint256"
            },
            {
              "internalType": "uint256",
              "name": "offerId",
              "type": "uint256"
            }
          ],
          "internalType": "struct Asami.OfferPointer",
          "name": "_p",
          "type": "tuple"
        },
        {
          "internalType": "bool",
          "name": "_wasDeleted",
          "type": "bool"
        }
      ],
      "name": "classicConfirmDeletion",
      "outputs": [],
      "stateMutability": "nonpayable",
      "type": "function"
    },
    {
      "inputs": [
        {
          "internalType": "address",
          "name": "_collaborator",
          "type": "address"
        }
      ],
      "name": "getCollectableCollaboratorOffers",
      "outputs": [
        {
          "components": [
            {
              "internalType": "uint256",
              "name": "campaignId",
              "type": "uint256"
            },
            {
              "internalType": "uint256",
              "name": "offerId",
              "type": "uint256"
            }
          ],
          "internalType": "struct Asami.OfferPointer[]",
          "name": "",
          "type": "tuple[]"
        },
        {
          "components": [
            {
              "internalType": "uint256",
              "name": "campaignId",
              "type": "uint256"
            },
            {
              "internalType": "uint256",
              "name": "offerId",
              "type": "uint256"
            }
          ],
          "internalType": "struct Asami.OfferPointer[]",
          "name": "",
          "type": "tuple[]"
        }
      ],
      "stateMutability": "view",
      "type": "function",
      "constant": true
    },
    {
      "inputs": [
        {
          "internalType": "address",
          "name": "_collaborator",
          "type": "address"
        },
        {
          "components": [
            {
              "internalType": "uint256",
              "name": "campaignId",
              "type": "uint256"
            },
            {
              "internalType": "uint256",
              "name": "offerId",
              "type": "uint256"
            }
          ],
          "internalType": "struct Asami.OfferPointer[]",
          "name": "_nostrPointers",
          "type": "tuple[]"
        },
        {
          "components": [
            {
              "internalType": "uint256",
              "name": "campaignId",
              "type": "uint256"
            },
            {
              "internalType": "uint256",
              "name": "offerId",
              "type": "uint256"
            }
          ],
          "internalType": "struct Asami.OfferPointer[]",
          "name": "_classicPointers",
          "type": "tuple[]"
        }
      ],
      "name": "collectCollaboratorOffers",
      "outputs": [],
      "stateMutability": "nonpayable",
      "type": "function"
    },
    {
      "inputs": [
        {
          "internalType": "address",
          "name": "_advertiser",
          "type": "address"
        }
      ],
      "name": "getCollectableAdvertiserOffers",
      "outputs": [
        {
          "components": [
            {
              "internalType": "uint256",
              "name": "campaignId",
              "type": "uint256"
            },
            {
              "internalType": "uint256",
              "name": "offerId",
              "type": "uint256"
            }
          ],
          "internalType": "struct Asami.OfferPointer[]",
          "name": "",
          "type": "tuple[]"
        },
        {
          "components": [
            {
              "internalType": "uint256",
              "name": "campaignId",
              "type": "uint256"
            },
            {
              "internalType": "uint256",
              "name": "offerId",
              "type": "uint256"
            }
          ],
          "internalType": "struct Asami.OfferPointer[]",
          "name": "",
          "type": "tuple[]"
        }
      ],
      "stateMutability": "view",
      "type": "function",
      "constant": true
    },
    {
      "inputs": [
        {
          "internalType": "address payable",
          "name": "_advertiser",
          "type": "address"
        },
        {
          "components": [
            {
              "internalType": "uint256",
              "name": "campaignId",
              "type": "uint256"
            },
            {
              "internalType": "uint256",
              "name": "offerId",
              "type": "uint256"
            }
          ],
          "internalType": "struct Asami.OfferPointer[]",
          "name": "_nostrOffers",
          "type": "tuple[]"
        },
        {
          "components": [
            {
              "internalType": "uint256",
              "name": "campaignId",
              "type": "uint256"
            },
            {
              "internalType": "uint256",
              "name": "offerId",
              "type": "uint256"
            }
          ],
          "internalType": "struct Asami.OfferPointer[]",
          "name": "_classicOffers",
          "type": "tuple[]"
        }
      ],
      "name": "collectAdvertiserOffers",
      "outputs": [],
      "stateMutability": "nonpayable",
      "type": "function"
    },
    {
      "inputs": [
        {
          "internalType": "address",
          "name": "_debtor",
          "type": "address"
        }
      ],
      "name": "payDeletionPenalties",
      "outputs": [],
      "stateMutability": "payable",
      "type": "function",
      "payable": true
    },
    {
      "inputs": [
        {
          "internalType": "uint256",
          "name": "_fee",
          "type": "uint256"
        }
      ],
      "name": "setAsamiFeePerOffer",
      "outputs": [],
      "stateMutability": "nonpayable",
      "type": "function"
    },
    {
      "inputs": [
        {
          "internalType": "uint256",
          "name": "_fee",
          "type": "uint256"
        }
      ],
      "name": "setAsamiMaxFeePerCampaign",
      "outputs": [],
      "stateMutability": "nonpayable",
      "type": "function"
    },
    {
      "inputs": [
        {
          "internalType": "address",
          "name": "_feesAddress",
          "type": "address"
        }
      ],
      "name": "setAsamiFeesAddress",
      "outputs": [],
      "stateMutability": "nonpayable",
      "type": "function"
    },
    {
      "inputs": [
        {
          "internalType": "string",
          "name": "_name",
          "type": "string"
        }
      ],
      "name": "addSocialNetwork",
      "outputs": [],
      "stateMutability": "nonpayable",
      "type": "function"
    },
    {
      "inputs": [],
      "name": "collectAsamiFees",
      "outputs": [],
      "stateMutability": "nonpayable",
      "type": "function"
    },
    {
      "inputs": [
        {
          "internalType": "address",
          "name": "_oracle",
          "type": "address"
        }
      ],
      "name": "collectOracleFees",
      "outputs": [],
      "stateMutability": "nonpayable",
      "type": "function"
    },
    {
      "inputs": [
        {
          "components": [
            {
              "internalType": "uint256",
              "name": "campaignId",
              "type": "uint256"
            },
            {
              "internalType": "uint256",
              "name": "offerId",
              "type": "uint256"
            }
          ],
          "internalType": "struct Asami.OfferPointer",
          "name": "_p",
          "type": "tuple"
        }
      ],
      "name": "nostrGetCampaignOffer",
      "outputs": [
        {
          "components": [
            {
              "internalType": "enum AsamiNostr.OfferState",
              "name": "state",
              "type": "uint8"
            },
            {
              "internalType": "bool",
              "name": "collected",
              "type": "bool"
            },
            {
              "internalType": "string",
              "name": "nostrHexPubkey",
              "type": "string"
            },
            {
              "internalType": "uint256",
              "name": "rewardAmount",
              "type": "uint256"
            },
            {
              "internalType": "address",
              "name": "rewardAddress",
              "type": "address"
            },
            {
              "internalType": "uint256",
              "name": "nostrAffineX",
              "type": "uint256"
            },
            {
              "internalType": "uint256",
              "name": "nostrAffineY",
              "type": "uint256"
            },
            {
              "internalType": "bytes32",
              "name": "messageId",
              "type": "bytes32"
            }
          ],
          "internalType": "struct AsamiNostr.Offer",
          "name": "",
          "type": "tuple"
        }
      ],
      "stateMutability": "view",
      "type": "function",
      "constant": true
    },
    {
      "inputs": [
        {
          "components": [
            {
              "internalType": "uint256",
              "name": "campaignId",
              "type": "uint256"
            },
            {
              "internalType": "uint256",
              "name": "offerId",
              "type": "uint256"
            }
          ],
          "internalType": "struct Asami.OfferPointer",
          "name": "_p",
          "type": "tuple"
        }
      ],
      "name": "classicGetCampaignOffer",
      "outputs": [
        {
          "components": [
            {
              "internalType": "enum AsamiClassic.OfferState",
              "name": "state",
              "type": "uint8"
            },
            {
              "internalType": "string",
              "name": "username",
              "type": "string"
            },
            {
              "internalType": "uint256",
              "name": "rewardAmount",
              "type": "uint256"
            },
            {
              "internalType": "address",
              "name": "rewardAddress",
              "type": "address"
            },
            {
              "internalType": "string",
              "name": "publicationUrl",
              "type": "string"
            },
            {
              "internalType": "uint256",
              "name": "deletionReportedAt",
              "type": "uint256"
            },
            {
              "internalType": "bool",
              "name": "advertiserCollected",
              "type": "bool"
            },
            {
              "internalType": "bool",
              "name": "collaboratorCollected",
              "type": "bool"
            },
            {
              "internalType": "bool",
              "name": "oracleCollected",
              "type": "bool"
            }
          ],
          "internalType": "struct AsamiClassic.Offer",
          "name": "",
          "type": "tuple"
        }
      ],
      "stateMutability": "view",
      "type": "function",
      "constant": true
    },
    {
      "inputs": [
        {
          "internalType": "uint256",
          "name": "_offerCount",
          "type": "uint256"
        }
      ],
      "name": "calculateCampaignFees",
      "outputs": [
        {
          "internalType": "uint256",
          "name": "",
          "type": "uint256"
        }
      ],
      "stateMutability": "view",
      "type": "function",
      "constant": true
    }
  ],
  "bytecode": "0x6080604052670de0b6b3a76400006001556802b5e3af16b188000060025560006003553480156200002f57600080fd5b50604051620056bf380380620056bf8339810160408190526200005291620000d3565b6200005d3362000083565b600980546001600160a01b0319166001600160a01b039290921691909117905562000105565b600080546001600160a01b038381166001600160a01b0319831681178455604051919092169283917f8be0079c531659141344cd1fd0a4f28419497f9722a3daafe3b4186f6b6457e09190a35050565b600060208284031215620000e657600080fd5b81516001600160a01b0381168114620000fe57600080fd5b9392505050565b6155aa80620001156000396000f3fe6080604052600436106101735760003560e01c80630500db4e1461017857806305ac9a461461019a57806312ad0808146101ba57806313188616146101f05780631dd489d014610210578063224f29b11461023057806323c7a79c146102505780632d48b9691461027057806333e93a0c146102835780633d11e6da146102a35780634c670d05146102c35780634ee47dcd146102e35780635b036bf9146103035780635e3490e214610323578063694ac1b3146103515780636dbcf8fc146103715780636facf85c14610391578063715018a6146103b15780637aeb9581146103c65780637aed528e146103f35780638da5cb5b146104135780639cfd58d914610440578063a89054f314610460578063b1693ad014610480578063bf000e28146104a0578063d3a43a86146104ce578063dc407bb0146104ee578063e6a8dc0c1461051b578063eae0d0fb14610530578063ebb7593414610550578063ed8dd3bf14610570578063f2fde38b14610590575b600080fd5b34801561018457600080fd5b50610198610193366004614877565b6105b0565b005b3480156101a657600080fd5b506101986101b53660046148a1565b6106ba565b3480156101c657600080fd5b506101da6101d53660046148ef565b6107af565b6040516101e791906149b0565b60405180910390f35b3480156101fc57600080fd5b5061019861020b366004614a58565b610969565b34801561021c57600080fd5b5061019861022b366004614a8d565b610b29565b34801561023c57600080fd5b5061019861024b366004614ab8565b610b36565b34801561025c57600080fd5b5061019861026b366004614877565b610d43565b61019861027e366004614b1b565b610e1a565b34801561028f57600080fd5b5061019861029e366004614b83565b610f65565b3480156102af57600080fd5b506101986102be366004614a8d565b61135b565b3480156102cf57600080fd5b506101986102de366004614877565b611368565b3480156102ef57600080fd5b506101986102fe3660046148a1565b6114a4565b34801561030f57600080fd5b5061019861031e366004614877565b61158b565b34801561032f57600080fd5b5061034361033e366004614b1b565b611619565b6040516101e7929190614c4b565b34801561035d57600080fd5b5061019861036c366004614cb1565b611a02565b34801561037d57600080fd5b5061019861038c366004614b83565b611d72565b34801561039d57600080fd5b506101986103ac366004614877565b6120cd565b3480156103bd57600080fd5b506101986121a4565b3480156103d257600080fd5b506103e66103e13660046148ef565b6121b8565b6040516101e79190614d76565b3480156103ff57600080fd5b5061034361040e366004614b1b565b61242e565b34801561041f57600080fd5b5061042861286b565b6040516001600160a01b0390911681526020016101e7565b34801561044c57600080fd5b5061019861045b3660046148a1565b61287a565b34801561046c57600080fd5b5061019861047b366004614877565b612916565b34801561048c57600080fd5b5061019861049b366004614e28565b6129a5565b3480156104ac57600080fd5b506104c06104bb366004614a8d565b6129ea565b6040519081526020016101e7565b3480156104da57600080fd5b506101986104e9366004614b1b565b612a17565b3480156104fa57600080fd5b5061050e610509366004614a8d565b612ae6565b6040516101e79190614e69565b34801561052757600080fd5b50610198612b92565b34801561053c57600080fd5b5061019861054b366004614e7c565b612c2c565b34801561055c57600080fd5b5061019861056b366004614edb565b612f34565b34801561057c57600080fd5b5061019861058b366004614b1b565b613371565b34801561059c57600080fd5b506101986105ab366004614b1b565b61339b565b60006105ca82826105c5620151806002614f2c565b613414565b90506000816005016005018360200135815481106105ea576105ea614f43565b6000918252602090912060079091020190506001815460ff1660078111156106145761061461493d565b1461061e57600080fd5b60098054908301546040516323b872dd60e01b81526001600160a01b03909216916323b872dd916106559133913091600401614f59565b6020604051808303816000875af1158015610674573d6000803e3d6000fd5b505050506040513d601f19601f820116820180604052508101906106989190614f7d565b6106a157600080fd5b8054600290829060ff19166001835b0217905550505050565b60006106cf83826105c5620151806003614f2c565b60088101549091506001600160a01b031633146106eb57600080fd5b60008160050160050184602001358154811061070957610709614f43565b6000918252602090912060079091020190506002815460ff1660078111156107335761073361493d565b1461073d57600080fd5b60098201546008808401546001600160a01b03166000908152602091909152604081208054909190610770908490614f9a565b90915550508215610794578054600390829060ff19166001835b02179055506107a9565b8054600490829060ff19166001835b02179055505b50505050565b6107f8604080516101008101909152806000815260006020820181905260606040830181905282018190526080820181905260a0820181905260c0820181905260e09091015290565b600582600001518154811061080f5761080f614f43565b90600052602060002090600b020160030160010182602001518154811061083857610838614f43565b600091825260209091206040805161010081019091526007909202018054829060ff16600481111561086c5761086c61493d565b600481111561087d5761087d61493d565b81528154610100900460ff16151560208201526001820180546040909201916108a590614fad565b80601f01602080910402602001604051908101604052809291908181526020018280546108d190614fad565b801561091e5780601f106108f35761010080835404028352916020019161091e565b820191906000526020600020905b81548152906001019060200180831161090157829003601f168201915b50505091835250506002820154602082015260038201546001600160a01b03166040820152600482015460608201526005820154608082015260069091015460a09091015292915050565b600061097e83826105c5620151806002614f2c565b905060008160030160010184602001358154811061099e5761099e614f43565b6000918252602090912060079091020190506001815460ff1660048111156109c8576109c861493d565b146109d257600080fd5b6000610b138360030160000180546109e990614fad565b80601f0160208091040260200160405190810160405280929190818152602001828054610a1590614fad565b8015610a625780601f10610a3757610100808354040283529160200191610a62565b820191906000526020600020905b815481529060010190602001808311610a4557829003601f168201915b5050505050836001018054610a7690614fad565b80601f0160208091040260200160405190810160405280929190818152602001828054610aa290614fad565b8015610aef5780601f10610ac457610100808354040283529160200191610aef565b820191906000526020600020905b815481529060010190602001808311610ad257829003601f168201915b50610b04935050505036889003880188614fe1565b856004015486600501546134af565b600683015550805460ff19166002179055505050565b610b31613596565b600255565b60005a90506000610b5084826105c562015180600e614f2c565b9050600081600301600101856020013581548110610b7057610b70614f43565b6000918252602090912060079091020190506002815460ff166004811115610b9a57610b9a61493d565b14610ba457600080fd5b6006810154610bf490610bba602087018761503c565b8080601f0160208091040260200160405190810160405280939291908181526020018383808284376000920191909152506135f592505050565b610bfd57600080fd5b610ca6816001018054610c0f90614fad565b80601f0160208091040260200160405190810160405280929190818152602001828054610c3b90614fad565b8015610c885780601f10610c5d57610100808354040283529160200191610c88565b820191906000526020600020905b815481529060010190602001808311610c6b57829003601f168201915b505050505085610c979061510e565b836004015484600501546136ee565b805460ff191660041781556000600a5a610cc090866151b4565b610ccb90600b614f2c565b610cd591906151dd565b600392909201546001600160a01b039081166000908152600760209081526040808320815180830190925233825281830196875280546001808201835591855292909320905160029092020180546001600160a01b0319169190931617825592519201919091555050505050565b6000610d5882826105c562015180600e614f2c565b9050600081600301600101836020013581548110610d7857610d78614f43565b600091825260209091206003600790920201908101549091506001600160a01b03163314610da557600080fd5b6000815460ff166004811115610dbd57610dbd61493d565b1480610dde57506001815460ff166004811115610ddc57610ddc61493d565b145b80610dfe57506002815460ff166004811115610dfc57610dfc61493d565b145b610e0757600080fd5b8054600390829060ff19166001836106b0565b6001600160a01b038116600090815260076020526040812090805b8254811015610e8157828181548110610e5057610e50614f43565b90600052602060002090600202016001015482610e6d9190614f9a565b915080610e79816151f1565b915050610e35565b5060008111610e8f57600080fd5b803414610e9b57600080fd5b60005b8254811015610f3e57828181548110610eb957610eb9614f43565b600091825260209091206002909102015483546001600160a01b03909116906108fc90859084908110610eee57610eee614f43565b9060005260206000209060020201600101549081150290604051600060405180830381858888f19350505050158015610f2b573d6000803e3d6000fd5b5080610f36816151f1565b915050610e9e565b506001600160a01b0383166000908152600760205260408120610f60916147dc565b505050565b6001600160a01b03851660009081526007602052604090205415610f8857600080fd5b6000805b848110156110de5760006005878784818110610faa57610faa614f43565b9050604002016000013581548110610fc457610fc4614f43565b90600052602060002090600b0201905062015180600e610fe49190614f2c565b8160020154610ff39190614f9a565b42101561101b5760405162461bcd60e51b81526004016110129061520a565b60405180910390fd5b60006004820188888581811061103357611033614f43565b905060400201602001358154811061104d5761104d614f43565b6000918252602090912060079091020160038101549091506001600160a01b038a81169116146110a35760405162461bcd60e51b81526020600482015260016024820152601960f91b6044820152606401611012565b6110ac816137cf565b6110b557600080fd5b6002810154815461ff0019166101001790915592508190506110d6816151f1565b915050610f8c565b5060005b828110156112d2576000600585858481811061110057611100614f43565b905060400201600001358154811061111a5761111a614f43565b90600052602060002090600b0201905062015180600e61113a9190614f2c565b81600201546111499190614f9a565b42101561115557600080fd5b6000600a820186868581811061116d5761116d614f43565b905060400201602001358154811061118757611187614f43565b6000918252602090912060079091020160038101549091506001600160a01b038a81169116146111b657600080fd5b6006810154610100900460ff16156111cd57600080fd5b6000815460ff1660078111156111e5576111e561493d565b148061120657506003815460ff1660078111156112045761120461493d565b145b1561122157600281015461121a9085614f9a565b93506112af565b6002815460ff1660078111156112395761123961493d565b0361124d57600982015461121a9085614f9a565b6006815460ff1660078111156112655761126561493d565b036101735761127862015180600e614f2c565b81600201548360020154836005015461129191906151b4565b61129b9190614f2c565b6112a591906151dd565b61121a9085614f9a565b600601805461ff00191661010017905550806112ca816151f1565b9150506110e2565b5060095460405163a9059cbb60e01b81526001600160a01b038881166004830152602482018490529091169063a9059cbb906044016020604051808303816000875af1158015611326573d6000803e3d6000fd5b505050506040513d601f19601f8201168201806040525081019061134a9190614f7d565b61135357600080fd5b505050505050565b611363613596565b600155565b600061137d82826105c562015180600e614f2c565b60018101549091506001600160a01b0316331461139957600080fd5b6000816005016005018360200135815481106113b7576113b7614f43565b6000918252602082206007909102019150815460ff1660078111156113de576113de61493d565b14806113ff57506003815460ff1660078111156113fd576113fd61493d565b145b61140857600080fd5b60098054908301546040516323b872dd60e01b81526001600160a01b03909216916323b872dd9161143f9133913091600401614f59565b6020604051808303816000875af115801561145e573d6000803e3d6000fd5b505050506040513d601f19601f820116820180604052508101906114829190614f7d565b61148b57600080fd5b4260058201558054600690829060ff19166001836106b0565b60006114b983826105c562015180600e614f2c565b60088101549091506001600160a01b031633146114d557600080fd5b6000816005016005018460200135815481106114f3576114f3614f43565b6000918252602090912060079091020190506006815460ff16600781111561151d5761151d61493d565b1461152757600080fd5b60098201546008808401546001600160a01b0316600090815260209190915260408120805490919061155a908490614f9a565b90915550508215611578578054600790829060ff191660018361078a565b8054600390829060ff19166001836107a3565b600061159c82600062015180613414565b60018101549091506001600160a01b031633146115b857600080fd5b6000816005016005018360200135815481106115d6576115d6614f43565b6000918252602082206007909102019150815460ff1660078111156115fd576115fd61493d565b1461160757600080fd5b8054600190829060ff191682806106b0565b6040805160008082526020820190925260609182918161164f565b61163c6147fd565b8152602001906001900390816116345790505b50604080516000808252602082019092529192509081611685565b6116726147fd565b81526020019060019003908161166a5790505b50905060005b6005548110156119f7576000600582815481106116aa576116aa614f43565b60009182526020909120600b9091020160018101549091506001600160a01b0388811691161415806116f757506116e562015180600e614f2c565b81600201546116f49190614f9a565b42105b1561170257506119e5565b60048101541561177a5760005b600482015481101561177457600082600301600101828154811061173557611735614f43565b9060005260206000209060070201905061174e81613823565b156117615761175e86858461387e565b95505b508061176c816151f1565b91505061170f565b506119e3565b60005b600a8201548110156119e15760008260050160050182815481106117a3576117a3614f43565b9060005260206000209060070201604051806101200160405290816000820160009054906101000a900460ff1660078111156117e1576117e161493d565b60078111156117f2576117f261493d565b815260200160018201805461180690614fad565b80601f016020809104026020016040519081016040528092919081815260200182805461183290614fad565b801561187f5780601f106118545761010080835404028352916020019161187f565b820191906000526020600020905b81548152906001019060200180831161186257829003601f168201915b50505091835250506002820154602082015260038201546001600160a01b031660408201526004820180546060909201916118b990614fad565b80601f01602080910402602001604051908101604052809291908181526020018280546118e590614fad565b80156119325780601f1061190757610100808354040283529160200191611932565b820191906000526020600020905b81548152906001019060200180831161191557829003601f168201915b50505091835250506005820154602082015260069091015460ff8082161515604084015261010082048116151560608401526201000090910416151560809091015260c081015190915015801561199c57506000815160078111156119995761199961493d565b14155b80156119bb57506003815160078111156119b8576119b861493d565b14155b156119ce576119cb86858461387e565b95505b50806119d9816151f1565b91505061177d565b505b505b806119ef816151f1565b91505061168b565b509094909350915050565b80611a0c57600080fd5b60008611611a1957600080fd5b82611a2357600080fd5b60058054600181018255600091909152600b027f036b6384b5eca791c62761152d0c79bb0604c104a5fb6f4eb0703f3154bb3db081018781557f036b6384b5eca791c62761152d0c79bb0604c104a5fb6f4eb0703f3154bb3db282018790557f036b6384b5eca791c62761152d0c79bb0604c104a5fb6f4eb0703f3154bb3db1820180546001600160a01b03191633179055907f036b6384b5eca791c62761152d0c79bb0604c104a5fb6f4eb0703f3154bb3db301611ae385878361526b565b5060008060005b84811015611cc2576000868683818110611b0657611b06614f43565b9050602002810190611b18919061532a565b3511611b2357600080fd5b858582818110611b3557611b35614f43565b9050602002810190611b47919061532a565b611b52903584614f9a565b925060015482611b629190614f9a565b60048501805460018101825560009182526020909120600790910201805461ffff19168155909250868683818110611b9c57611b9c614f43565b9050602002810190611bae919061532a565b611bbc90604081019061503c565b6001830191611bcc91908361526b565b50868683818110611bdf57611bdf614f43565b9050602002810190611bf1919061532a565b356002820155868683818110611c0957611c09614f43565b9050602002810190611c1b919061532a565b611c2c906040810190602001614b1b565b6003820180546001600160a01b0319166001600160a01b0392909216919091179055868683818110611c6057611c60614f43565b9050602002810190611c72919061532a565b606001356004820155868683818110611c8d57611c8d614f43565b9050602002810190611c9f919061532a565b608001356005820155600060069091015580611cba816151f1565b915050611aea565b50600254811115611cd257506002545b88611cdd8284614f9a565b14611ce757600080fd5b6009546040516323b872dd60e01b81526001600160a01b03909116906323b872dd90611d1b90339030908e90600401614f59565b6020604051808303816000875af1158015611d3a573d6000803e3d6000fd5b505050506040513d601f19601f82011682018060405250810190611d5e9190614f7d565b611d6757600080fd5b505050505050505050565b6000805b84811015611e90576000868683818110611d9257611d92614f43565b905060400201803603810190611da891906148ef565b905060006005826000015181548110611dc357611dc3614f43565b60009182526020909120600b9091020160018101549091506001600160a01b038a8116911614611df257600080fd5b611e0062015180600e614f2c565b8160020154611e0f9190614f9a565b421015611e1b57600080fd5b600081600301600101836020015181548110611e3957611e39614f43565b90600052602060002090600702019050611e5281613823565b611e5b57600080fd5b6002810154611e6a9086614f9a565b815461ff001916610100179091559350829150611e889050816151f1565b915050611d76565b5060005b828110156112d2576000848483818110611eb057611eb0614f43565b905060400201803603810190611ec691906148ef565b905060006005826000015181548110611ee157611ee1614f43565b60009182526020909120600b9091020160018101549091506001600160a01b038a8116911614611f1057600080fd5b611f1e62015180600e614f2c565b8160020154611f2d9190614f9a565b421015611f3957600080fd5b600081600501600501836020015181548110611f5757611f57614f43565b60009182526020909120600790910201600681015490915060ff1615611f7c57600080fd5b6001815460ff166007811115611f9457611f9461493d565b1480611fb557506002815460ff166007811115611fb357611fb361493d565b145b80611fd557506004815460ff166007811115611fd357611fd361493d565b145b80611ff557506005815460ff166007811115611ff357611ff361493d565b145b8061201557506007815460ff1660078111156120135761201361493d565b145b156120305760028101546120299086614f9a565b94506120aa565b6006815460ff1660078111156120485761204861493d565b036101735761205b62015180600e614f2c565b81600201548360020154836005015461207491906151b4565b61208262015180600e614f2c565b61208c91906151b4565b6120969190614f2c565b6120a091906151dd565b6120299086614f9a565b600601805460ff19166001179055508190506120c5816151f1565b915050611e94565b60006120e282826105c562015180600e614f2c565b905060008160050160050183602001358154811061210257612102614f43565b600091825260209091206003600790920201908101549091506001600160a01b0316331461212f57600080fd5b6000815460ff1660078111156121475761214761493d565b148061216857506001815460ff1660078111156121665761216661493d565b145b8061218857506003815460ff1660078111156121865761218661493d565b145b61219157600080fd5b8054600590829060ff19166001836106b0565b6121ac613596565b6121b66000613975565b565b6122176040805161012081019091528060008152602001606081526020016000815260200160006001600160a01b0316815260200160608152602001600081526020016000151581526020016000151581526020016000151581525090565b600582600001518154811061222e5761222e614f43565b90600052602060002090600b020160050160050182602001518154811061225757612257614f43565b9060005260206000209060070201604051806101200160405290816000820160009054906101000a900460ff1660078111156122955761229561493d565b60078111156122a6576122a661493d565b81526020016001820180546122ba90614fad565b80601f01602080910402602001604051908101604052809291908181526020018280546122e690614fad565b80156123335780601f1061230857610100808354040283529160200191612333565b820191906000526020600020905b81548152906001019060200180831161231657829003601f168201915b50505091835250506002820154602082015260038201546001600160a01b0316604082015260048201805460609092019161236d90614fad565b80601f016020809104026020016040519081016040528092919081815260200182805461239990614fad565b80156123e65780601f106123bb576101008083540402835291602001916123e6565b820191906000526020600020905b8154815290600101906020018083116123c957829003601f168201915b50505091835250506005820154602082015260069091015460ff8082161515604084015261010082048116151560608401526201000090910416151560809091015292915050565b60408051600080825260208201909252606091829181612464565b6124516147fd565b8152602001906001900390816124495790505b5060408051600080825260208201909252919250908161249a565b6124876147fd565b81526020019060019003908161247f5790505b50905060005b6005548110156119f7576000600582815481106124bf576124bf614f43565b90600052602060002090600b0201905062015180600e6124df9190614f2c565b81600201546124ee9190614f9a565b4210156124fb5750612859565b6004810154156125905760005b600482015481101561258a57600082600301600101828154811061252e5761252e614f43565b6000918252602090912060079091020160038101549091506001600160a01b038a811691161480156125645750612564816137cf565b156125775761257486858461387e565b95505b5080612582816151f1565b915050612508565b50612857565b60005b600a8201548110156128555760008260050160050182815481106125b9576125b9614f43565b9060005260206000209060070201604051806101200160405290816000820160009054906101000a900460ff1660078111156125f7576125f761493d565b60078111156126085761260861493d565b815260200160018201805461261c90614fad565b80601f016020809104026020016040519081016040528092919081815260200182805461264890614fad565b80156126955780601f1061266a57610100808354040283529160200191612695565b820191906000526020600020905b81548152906001019060200180831161267857829003601f168201915b50505091835250506002820154602082015260038201546001600160a01b031660408201526004820180546060909201916126cf90614fad565b80601f01602080910402602001604051908101604052809291908181526020018280546126fb90614fad565b80156127485780601f1061271d57610100808354040283529160200191612748565b820191906000526020600020905b81548152906001019060200180831161272b57829003601f168201915b50505091835250506005820154602082015260069091015460ff80821615156040840152610100820481161515606080850191909152620100009092041615156080909201919091528101519091506001600160a01b038a811691161480156127b357508060e00151155b80156127d257506001815160078111156127cf576127cf61493d565b14155b80156127f157506004815160078111156127ee576127ee61493d565b14155b8015612810575060058151600781111561280d5761280d61493d565b14155b801561282f575060078151600781111561282c5761282c61493d565b14155b156128425761283f85858461387e565b94505b508061284d816151f1565b915050612593565b505b505b80612863816151f1565b9150506124a0565b6000546001600160a01b031690565b600061288f83826105c5620151806003614f2c565b60088101549091506001600160a01b031633146128ab57600080fd5b6000816005016005018460200135815481106128c9576128c9614f43565b6000918252602090912060079091020190506001815460ff1660078111156128f3576128f361493d565b146128fd57600080fd5b8215610794578054600390829060ff191660018361078a565b600061292782600062015180613414565b60018101549091506001600160a01b0316331461294357600080fd5b60008160030160010183602001358154811061296157612961614f43565b6000918252602082206007909102019150815460ff1660048111156129885761298861493d565b146116075760405162461bcd60e51b81526004016110129061520a565b6129ad613596565b600680546001810182556000919091527ff652222313e28459528d920b65115c16c04f3efc82aaedc97be59f3f377c0d3f01610f6082848361526b565b600080600154836129fb9190614f2c565b90506002548111612a0c5780612a10565b6002545b9392505050565b6001600160a01b038116600090815260086020526040902054612a3957600080fd5b6009546001600160a01b03828116600090815260086020526040908190205490516323b872dd60e01b815291909216916323b872dd91612a80913091869190600401614f59565b6020604051808303816000875af1158015612a9f573d6000803e3d6000fd5b505050506040513d601f19601f82011682018060405250810190612ac39190614f7d565b612acc57600080fd5b6001600160a01b0316600090815260086020526040812055565b60068181548110612af657600080fd5b906000526020600020016000915090508054612b1190614fad565b80601f0160208091040260200160405190810160405280929190818152602001828054612b3d90614fad565b8015612b8a5780601f10612b5f57610100808354040283529160200191612b8a565b820191906000526020600020905b815481529060010190602001808311612b6d57829003601f168201915b505050505081565b600060035411612ba157600080fd5b600954600480546003546040516323b872dd60e01b81526001600160a01b03948516946323b872dd94612bd994309492169201614f59565b6020604051808303816000875af1158015612bf8573d6000803e3d6000fd5b505050506040513d601f19601f82011682018060405250810190612c1c9190614f7d565b612c2557600080fd5b6000600355565b60005a90506000612c4685826105c562015180600e614f2c565b9050600081600301600101866020013581548110612c6657612c66614f43565b6000918252602082206007909102019150815460ff166004811115612c8d57612c8d61493d565b14612c9757600080fd5b6000612dc9836003016000018054612cae90614fad565b80601f0160208091040260200160405190810160405280929190818152602001828054612cda90614fad565b8015612d275780601f10612cfc57610100808354040283529160200191612d27565b820191906000526020600020905b815481529060010190602001808311612d0a57829003601f168201915b5050505050836001018054612d3b90614fad565b80601f0160208091040260200160405190810160405280929190818152602001828054612d6790614fad565b8015612db45780601f10612d8957610100808354040283529160200191612db4565b820191906000526020600020905b815481529060010190602001808311612d9757829003601f168201915b50610b049350505050368a90038a018a614fe1565b600683018190559050612de381610bba602088018861503c565b612dec57600080fd5b612e95826001018054612dfe90614fad565b80601f0160208091040260200160405190810160405280929190818152602001828054612e2a90614fad565b8015612e775780601f10612e4c57610100808354040283529160200191612e77565b820191906000526020600020905b815481529060010190602001808311612e5a57829003601f168201915b505050505086612e869061510e565b846004015485600501546136ee565b815460ff191660041782556000600a5a612eaf90876151b4565b612eba90600b614f2c565b612ec491906151dd565b600393909301546001600160a01b039081166000908152600760209081526040808320815180830190925233825281830197885280546001808201835591855292909320905160029092020180546001600160a01b03191691909316178255935193019290925550505050505050565b6000612f4360e083018361534a565b905011612f4f57600080fd5b8035612f5a57600080fd5b6005612f69606083018361503c565b905011612f7557600080fd5b6080810135612f8357600080fd5b6000612f9560c0830160a08401614b1b565b6001600160a01b031603612fa857600080fd5b60008160c0013511612fb957600080fd5b600654604082013510612fcb57600080fd5b600580546001810182556000919091528135600b9091027f036b6384b5eca791c62761152d0c79bb0604c104a5fb6f4eb0703f3154bb3db0810191825560208301357f036b6384b5eca791c62761152d0c79bb0604c104a5fb6f4eb0703f3154bb3db28201557f036b6384b5eca791c62761152d0c79bb0604c104a5fb6f4eb0703f3154bb3db1810180546001600160a01b0319163317905560408301357f036b6384b5eca791c62761152d0c79bb0604c104a5fb6f4eb0703f3154bb3db590910190815561309d606084018461503c565b60018301916130ad91908361526b565b50608083013560028201556130c860c0840160a08501614b1b565b6003820180546001600160a01b0319166001600160a01b039290921691909117905560c08301356004820155600080805b61310660e087018761534a565b90508110156132c357600061311e60e088018861534a565b8381811061312e5761312e614f43565b90506020028101906131409190615393565b351161314b57600080fd5b61315860e087018761534a565b8281811061316857613168614f43565b905060200281019061317a9190615393565b613185903584614f9a565b9250600154826131959190614f9a565b915060008560050160050182815481106131b1576131b1614f43565b60009182526020909120600790910201805460ff1916815590506131d860e088018861534a565b838181106131e8576131e8614f43565b90506020028101906131fa9190615393565b61320890604081019061503c565b600183019161321891908361526b565b5061322660e088018861534a565b8381811061323657613236614f43565b90506020028101906132489190615393565b35600282015561325b60e088018861534a565b8381811061326b5761326b614f43565b905060200281019061327d9190615393565b61328e906040810190602001614b1b565b60039190910180546001600160a01b0319166001600160a01b03909216919091179055806132bb816151f1565b9150506130f9565b506002548111156132d357506002545b84356132df8284614f9a565b146132e957600080fd5b6009546040516323b872dd60e01b81526001600160a01b03909116906323b872dd9061331e90339030908a3590600401614f59565b6020604051808303816000875af115801561333d573d6000803e3d6000fd5b505050506040513d601f19601f820116820180604052508101906133619190614f7d565b61336a57600080fd5b5050505050565b613379613596565b600480546001600160a01b0319166001600160a01b0392909216919091179055565b6133a3613596565b6001600160a01b0381166134085760405162461bcd60e51b815260206004820152602660248201527f4f776e61626c653a206e6577206f776e657220697320746865207a65726f206160448201526564647265737360d01b6064820152608401611012565b61341181613975565b50565b600080600585600001358154811061342e5761342e614f43565b90600052602060002090600b0201905083816002015461344e9190614f9a565b42101561346d5760405162461bcd60e51b8152600401611012906153a9565b8284826002015461347e9190614f9a565b6134889190614f9a565b4211156134a75760405162461bcd60e51b8152600401611012906153a9565b949350505050565b600080856134c086600001516139c5565b886040516020016134d3939291906153c5565b604051602081830303815290604052905060006002826040516134f6919061544b565b602060405180830381855afa158015613513573d6000803e3d6000fd5b5050506040513d601f19601f82011682018060405250810190613536919061545d565b905061354d81868689602001518a60400151613a57565b6135895760405162461bcd60e51b815260206004820152600d60248201526c34b73b30b634b22fb83937b7b360991b6044820152606401611012565b9150505b95945050505050565b3361359f61286b565b6001600160a01b0316146121b65760405162461bcd60e51b815260206004820181905260248201527f4f776e61626c653a2063616c6c6572206973206e6f7420746865206f776e65726044820152606401611012565b60008061360184613b99565b9050808360005b8251825161361691906151b4565b613621906001614f9a565b8110156136df57600160005b6002855161363b91906151b4565b8110156136b7578461364e826002614f9a565b8151811061365e5761365e614f43565b01602001516001600160f81b031916846136788386614f9a565b8151811061368857613688614f43565b01602001516001600160f81b031916146136a557600091506136b7565b806136af816151f1565b91505061362d565b5080156136cc576001955050505050506136e8565b50806136d7816151f1565b915050613608565b50600093505050505b92915050565b6000846136fe85604001516139c5565b602080870151875160405161371595949301615476565b604051602081830303815290604052905061378a600282604051613739919061544b565b602060405180830381855afa158015613756573d6000803e3d6000fd5b5050506040513d601f19601f82011682018060405250810190613779919061545d565b848487606001518860800151613a57565b61336a5760405162461bcd60e51b815260206004820152601660248201527534b73b30b634b22fb232b632ba34b7b72fb83937b7b360511b6044820152606401611012565b8054600090610100900460ff161580156136e857506000825460ff1660048111156137fc576137fc61493d565b14806136e8575060025b825460ff16600481111561381c5761381c61493d565b1492915050565b8054600090610100900460ff161580156136e857506001825460ff1660048111156138505761385061493d565b148061387157506003825460ff16600481111561386f5761386f61493d565b145b806136e857506004613806565b60606000845160016138909190614f9a565b6001600160401b038111156138a7576138a76148d9565b6040519080825280602002602001820160405280156138e057816020015b6138cd6147fd565b8152602001906001900390816138c55790505b50905060005b85518110156139395785818151811061390157613901614f43565b602002602001015182828151811061391b5761391b614f43565b60200260200101819052508080613931906151f1565b9150506138e6565b506040518060400160405280858152602001848152508186518151811061396257613962614f43565b6020908102919091010152949350505050565b600080546001600160a01b038381166001600160a01b0319831681178455604051919092169283917f8be0079c531659141344cd1fd0a4f28419497f9722a3daafe3b4186f6b6457e09190a35050565b606060006139d283613bb0565b60010190506000816001600160401b038111156139f1576139f16148d9565b6040519080825280601f01601f191660200182016040528015613a1b576020820181803683370190505b5090508181016020015b600019016f181899199a1a9b1b9c1cb0b131b232b360811b600a86061a8153600a8504945084613a2557509392505050565b600070014551231950b75fc4402da1732fc9bebe1983101580613a8c575070014551231950b75fc4402da1732fc9bebe198210155b15613a995750600061358d565b6000613aa6848789613c86565b9050600080613aff857f79be667ef9dcbbac55a06295ce870b07029bfcdb2dce28d959f2815b16f817987f483ada7726a3c4655da4fbfc0e1108a8fd17b448a68554199c47d08ffb10d4b860006401000003d019613dc9565b91509150600080613b1a858b8b60006401000003d019613dc9565b9092509050600080613b518686866401000003d019613b3988826151b4565b613b43919061551c565b60006401000003d019613e03565b915091508982148015613b6c5750613b6a60028261551c565b155b8015613b885750613b888282600060076401000003d019613e8b565b9d9c50505050505050505050505050565b60606136e882613ba884613f44565b600101613fae565b60008072184f03e93ff9f4daa797ed6e38ed64bf6a1f0160401b8310613bef5772184f03e93ff9f4daa797ed6e38ed64bf6a1f0160401b830492506040015b6904ee2d6d415b85acef8160201b8310613c19576904ee2d6d415b85acef8160201b830492506020015b662386f26fc100008310613c3757662386f26fc10000830492506010015b6305f5e1008310613c4f576305f5e100830492506008015b6127108310613c6357612710830492506004015b60648310613c75576064830492506002015b600a83106136e85760010192915050565b604080516020810185905290810183905260608101829052600090819060800160408051601f1981840301815282820182526011835270424950303334302f6368616c6c656e676560781b60208401529051909250600091600291613ceb919061544b565b602060405180830381855afa158015613d08573d6000803e3d6000fd5b5050506040513d601f19601f82011682018060405250810190613d2b919061545d565b905060006002828385604051602001613d4693929190615530565b60408051601f1981840301815290829052613d609161544b565b602060405180830381855afa158015613d7d573d6000803e3d6000fd5b5050506040513d601f19601f82011682018060405250810190613da0919061545d565b9050613dbe70014551231950b75fc4402da1732fc9bebe198261551c565b979650505050505050565b6000806000806000613de08a8a8a60018b8b614149565b925092509250613df2838383896141cb565b945094505050509550959350505050565b6000806000806000888b03613e53578580613e2057613e206151c7565b888b08600003613e395760008094509450505050613e80565b613e478b8b60018a8a61423a565b91945092509050613e6c565b613e648b8b60018c8c60018c6143dd565b919450925090505b613e78838383896141cb565b945094505050505b965096945050505050565b6000851580613e9a5750818610155b80613ea3575084155b80613eae5750818510155b15613ebb5750600061358d565b60008280613ecb57613ecb6151c7565b868709905060008380613ee057613ee06151c7565b888580613eef57613eef6151c7565b8a8b090990508515613f1f578380613f0957613f096151c7565b8480613f1757613f176151c7565b878a09820890505b8415613f39578380613f3357613f336151c7565b85820890505b149695505050505050565b600080608083901c15613f5c5760809290921c916010015b604083901c15613f715760409290921c916008015b602083901c15613f865760209290921c916004015b601083901c15613f9b5760109290921c916002015b600883901c156136e85760010192915050565b60606000613fbd836002614f2c565b613fc8906002614f9a565b6001600160401b03811115613fdf57613fdf6148d9565b6040519080825280601f01601f191660200182016040528015614009576020820181803683370190505b509050600360fc1b8160008151811061402457614024614f43565b60200101906001600160f81b031916908160001a905350600f60fb1b8160018151811061405357614053614f43565b60200101906001600160f81b031916908160001a9053506000614077846002614f2c565b614082906001614f9a565b90505b60018111156140fa576f181899199a1a9b1b9c1cb0b131b232b360811b85600f16601081106140b6576140b6614f43565b1a60f81b8282815181106140cc576140cc614f43565b60200101906001600160f81b031916908160001a90535060049490941c936140f38161555d565b9050614085565b508315612a105760405162461bcd60e51b815260206004820181905260248201527f537472696e67733a20686578206c656e67746820696e73756666696369656e746044820152606401611012565b6000806000886000036141635750869150859050846141bf565b8860008060015b83156141b6576001841615614190576141888383838f8f8f8e6143dd565b919450925090505b61419b6002856151dd565b93506141aa8c8c8c8c8c61423a565b919d509b50995061416a565b91955093509150505b96509650969350505050565b60008060006141da8585614710565b9050600084806141ec576141ec6151c7565b828309905060008580614201576142016151c7565b828a09905060008680614216576142166151c7565b8780614224576142246151c7565b8486098a09919a91995090975050505050505050565b6000806000856000036142545750869150859050846143d2565b60008480614264576142646151c7565b898a09905060008580614279576142796151c7565b898a0990506000868061428e5761428e6151c7565b898a099050600087806142a3576142a36151c7565b88806142b1576142b16151c7565b848e096004099050600088806142c9576142c96151c7565b89806142d7576142d76151c7565b8a806142e5576142e56151c7565b8586098c098a806142f8576142f86151c7565b87600309089050888061430d5761430d6151c7565b898061431b5761431b6151c7565b838408614328908b6151b4565b8a80614336576143366151c7565b838409089450888061434a5761434a6151c7565b8980614358576143586151c7565b8a80614366576143666151c7565b868709600809614376908b6151b4565b8a80614384576143846151c7565b8b80614392576143926151c7565b61439c898e6151b4565b8608840908935088806143b1576143b16151c7565b89806143bf576143bf6151c7565b8c8e096002099497509295509293505050505b955095509592505050565b60008080891580156143ed575088155b156143ff575085915084905083614703565b8615801561440b575085155b1561441d575088915087905086614703565b614425614817565b8480614433576144336151c7565b898a0981528480614446576144466151c7565b81518a096020820152848061445d5761445d6151c7565b86870960408201528480614473576144736151c7565b6040820151870960608201526040805160808101909152808680614499576144996151c7565b60408401518e09815260200186806144b3576144b36151c7565b60608401518d09815260200186806144cd576144cd6151c7565b83518b09815260200186806144e4576144e46151c7565b60208401518a0990526040810151815191925014158061450c57506060810151602082015114155b6145585760405162461bcd60e51b815260206004820152601e60248201527f557365206a6163446f75626c652066756e6374696f6e20696e737465616400006044820152606401611012565b614560614817565b858061456e5761456e6151c7565b825161457a90886151b4565b60408401510881528580614590576145906151c7565b602083015161459f90886151b4565b606084015108602082015285806145b8576145b86151c7565b81518009604082015285806145cf576145cf6151c7565b81516040830151096060820152600086806145ec576145ec6151c7565b60608301516145fb90896151b4565b8880614609576146096151c7565b602085015180090890508680614621576146216151c7565b878061462f5761462f6151c7565b888061463d5761463d6151c7565b604085015186510960020961465290896151b4565b8208905060008780614666576146666151c7565b8880614674576146746151c7565b61467e848b6151b4565b8a8061468c5761468c6151c7565b604087015188510908602085015109905087806146ab576146ab6151c7565b88806146b9576146b96151c7565b60608501516020870151096146ce908a6151b4565b82089050600088806146e2576146e26151c7565b89806146f0576146f06151c7565b8b8f098551099297509095509093505050505b9750975097945050505050565b600082158015906147215750818314155b801561472c57508115155b6147695760405162461bcd60e51b815260206004820152600e60248201526d24b73b30b634b210373ab6b132b960911b6044820152606401611012565b6000600183825b86156147d15761478087836151dd565b9050828680614791576147916151c7565b878061479f5761479f6151c7565b8584096147ac90896151b4565b86089094509250866147be8183614f2c565b6147c890846151b4565b97509150614770565b509195945050505050565b50805460008255600202906000526020600020908101906134119190614835565b604051806040016040528060008152602001600081525090565b60405180608001604052806004906020820280368337509192915050565b5b8082111561485b5780546001600160a01b031916815560006001820155600201614836565b5090565b60006040828403121561487157600080fd5b50919050565b60006040828403121561488957600080fd5b612a10838361485f565b801515811461341157600080fd5b600080606083850312156148b457600080fd5b6148be848461485f565b915060408301356148ce81614893565b809150509250929050565b634e487b7160e01b600052604160045260246000fd5b60006040828403121561490157600080fd5b604051604081018181106001600160401b0382111715614923576149236148d9565b604052823581526020928301359281019290925250919050565b634e487b7160e01b600052602160045260246000fd5b60005b8381101561496e578181015183820152602001614956565b50506000910152565b6000815180845261498f816020860160208601614953565b601f01601f19169290920160200192915050565b6001600160a01b03169052565b6020815260008251600581106149c8576149c861493d565b8060208401525060208301516149e2604084018215159052565b5060408301516101008060608501526149ff610120850183614977565b9150606085015160808501526080850151614a1d60a08601826149a3565b5060a085015160c085015260c085015160e085015260e085015181850152508091505092915050565b60006060828403121561487157600080fd5b60008060a08385031215614a6b57600080fd5b614a75848461485f565b9150614a848460408501614a46565b90509250929050565b600060208284031215614a9f57600080fd5b5035919050565b600060a0828403121561487157600080fd5b60008060608385031215614acb57600080fd5b614ad5848461485f565b915060408301356001600160401b03811115614af057600080fd5b614afc85828601614aa6565b9150509250929050565b6001600160a01b038116811461341157600080fd5b600060208284031215614b2d57600080fd5b8135612a1081614b06565b60008083601f840112614b4a57600080fd5b5081356001600160401b03811115614b6157600080fd5b6020830191508360208260061b8501011115614b7c57600080fd5b9250929050565b600080600080600060608688031215614b9b57600080fd5b8535614ba681614b06565b945060208601356001600160401b0380821115614bc257600080fd5b614bce89838a01614b38565b90965094506040880135915080821115614be757600080fd5b50614bf488828901614b38565b969995985093965092949392505050565b600081518084526020808501945080840160005b83811015614c40578151805188528301518388015260409096019590820190600101614c19565b509495945050505050565b604081526000614c5e6040830185614c05565b828103602084015261358d8185614c05565b60008083601f840112614c8257600080fd5b5081356001600160401b03811115614c9957600080fd5b602083019150836020828501011115614b7c57600080fd5b60008060008060008060808789031215614cca57600080fd5b863595506020870135945060408701356001600160401b0380821115614cef57600080fd5b614cfb8a838b01614c70565b90965094506060890135915080821115614d1457600080fd5b818901915089601f830112614d2857600080fd5b813581811115614d3757600080fd5b8a60208260051b8501011115614d4c57600080fd5b6020830194508093505050509295509295509295565b60088110614d7257614d7261493d565b9052565b60208152614d88602082018351614d62565b60006020830151610120806040850152614da6610140850183614977565b9150604085015160608501526060850151614dc460808601826149a3565b506080850151848303601f190160a0860152614de08382614977565b92505060a085015160c085015260c0850151614e0060e086018215159052565b5060e0850151610100614e168187018315159052565b90950151151593019290925250919050565b60008060208385031215614e3b57600080fd5b82356001600160401b03811115614e5157600080fd5b614e5d85828601614c70565b90969095509350505050565b602081526000612a106020830184614977565b600080600060c08486031215614e9157600080fd5b614e9b858561485f565b9250614eaa8560408601614a46565b915060a08401356001600160401b03811115614ec557600080fd5b614ed186828701614aa6565b9150509250925092565b600060208284031215614eed57600080fd5b81356001600160401b03811115614f0357600080fd5b82016101008185031215612a1057600080fd5b634e487b7160e01b600052601160045260246000fd5b80820281158282048414176136e8576136e8614f16565b634e487b7160e01b600052603260045260246000fd5b6001600160a01b039384168152919092166020820152604081019190915260600190565b600060208284031215614f8f57600080fd5b8151612a1081614893565b808201808211156136e8576136e8614f16565b600181811c90821680614fc157607f821691505b60208210810361487157634e487b7160e01b600052602260045260246000fd5b600060608284031215614ff357600080fd5b604051606081018181106001600160401b0382111715615015576150156148d9565b80604052508235815260208301356020820152604083013560408201528091505092915050565b6000808335601e1984360301811261505357600080fd5b8301803591506001600160401b0382111561506d57600080fd5b602001915036819003821315614b7c57600080fd5b600082601f83011261509357600080fd5b81356001600160401b03808211156150ad576150ad6148d9565b604051601f8301601f19908116603f011681019082821181831017156150d5576150d56148d9565b816040528381528660208588010111156150ee57600080fd5b836020870160208301376000602085830101528094505050505092915050565b600060a0823603121561512057600080fd5b60405160a081016001600160401b038282108183111715615143576151436148d9565b81604052843591508082111561515857600080fd5b61516436838701615082565b8352602085013591508082111561517a57600080fd5b5061518736828601615082565b60208301525060408301356040820152606083013560608201526080830135608082015280915050919050565b818103818111156136e8576136e8614f16565b634e487b7160e01b600052601260045260246000fd5b6000826151ec576151ec6151c7565b500490565b60006001820161520357615203614f16565b5060010190565b6020808252600190820152603160f81b604082015260600190565b601f821115610f6057600081815260208120601f850160051c8101602086101561524c5750805b601f850160051c820191505b8181101561135357828155600101615258565b6001600160401b03831115615282576152826148d9565b615296836152908354614fad565b83615225565b6000601f8411600181146152ca57600085156152b25750838201355b600019600387901b1c1916600186901b17835561336a565b600083815260209020601f19861690835b828110156152fb57868501358255602094850194600190920191016152db565b50868210156153185760001960f88860031b161c19848701351681555b505060018560011b0183555050505050565b60008235609e1983360301811261534057600080fd5b9190910192915050565b6000808335601e1984360301811261536157600080fd5b8301803591506001600160401b0382111561537b57600080fd5b6020019150600581901b3603821315614b7c57600080fd5b60008235605e1983360301811261534057600080fd5b602080825260029082015261393960f01b604082015260600190565b632d98161160e11b815283516000906153e5816004850160208901614953565b61088b60f21b6004918401918201528451615407816006840160208901614953565b661618962dae961160c91b60069290910191820152835161542f81600d840160208801614953565b61225d60f01b600d9290910191820152600f0195945050505050565b60008251615340818460208701614953565b60006020828403121561546f57600080fd5b5051919050565b632d98161160e11b81528451600090615496816004850160208a01614953565b61088b60f21b60049184019182015285516154b8816006840160208a01614953565b620b0d4b60ea1b6006929091019182015284516154dc816009840160208901614953565b61161160f11b6009929091019182015283516154ff81600b840160208801614953565b61225d60f01b600b9290910191820152600d019695505050505050565b60008261552b5761552b6151c7565b500690565b8381528260208201526000825161554e816040850160208701614953565b91909101604001949350505050565b60008161556c5761556c614f16565b50600019019056fea26469706673582212204aee4138af0a3d44c98e26eccae5a113a036283e2275f816644468a45a000c5064736f6c63430008130033",
  "immutableReferences": {},
  "source": "// SPDX-License-Identifier: MIT\npragma solidity ^0.8.9;\nimport \"@openzeppelin/contracts/utils/Strings.sol\";\nimport \"@openzeppelin/contracts/token/ERC20/ERC20.sol\";\nimport \"@openzeppelin/contracts/access/Ownable.sol\";\nimport \"./AsamiClassic.sol\";\nimport \"./AsamiNostr.sol\";\n\ncontract Asami is Ownable {\n    uint constant oneDay = 60 * 60 * 24;\n    uint constant campaignDuration = oneDay * 14;\n\n    uint internal feePerOffer = 1e18;\n    uint internal maxFeePerCampaign = 50e18 ;\n    uint internal fees = 0;\n    address internal feesAddress;\n\n    event DebugEvent(string);\n\n    struct Campaign {\n        uint256 funding;\n        address advertiser;\n        uint256 startDate;\n        AsamiNostr.Terms nostrTerms;\n        AsamiClassic.Terms classicTerms;\n    }\n\n    Campaign[] internal campaigns;\n\n    string[] public socialNetworks;\n\n    struct DeletionPenalty {\n        address payable creditor;\n        uint256 amount;\n    }\n    mapping(address => DeletionPenalty[]) internal deletionPenalties;\n\n    mapping(address => uint256) internal oracleFees;\n\n    /* An offer pointer represents a specific offer made in a campaign */\n    struct OfferPointer {\n        uint campaignId;\n        uint offerId;\n    }\n\n    IERC20 internal rewardToken;\n    \n    constructor(address _dollarOnChainAddress) {\n        rewardToken = IERC20(_dollarOnChainAddress);\n    }\n\n    function nostrCreateCampaign(\n      uint256 _funding,\n      uint256 _startDate,\n      string calldata _requestedContent,\n      AsamiNostr.NewOffer[] calldata _newOffers\n    ) external {\n        require(_newOffers.length > 0);\n        require(_funding > 0);\n        require(bytes(_requestedContent).length > 0);\n\n        Campaign storage campaign = campaigns.push();\n        campaign.funding = _funding;\n        campaign.startDate = _startDate;\n        campaign.advertiser = payable(msg.sender);\n        campaign.nostrTerms.requestedContent = _requestedContent;\n\n        uint256 totalRewards = 0;\n        uint256 totalFees = 0;\n        for (uint i = 0; i < _newOffers.length; i++) {\n            require(_newOffers[i].rewardAmount > 0);\n            totalRewards += _newOffers[i].rewardAmount;\n            totalFees += feePerOffer;\n            AsamiNostr.Offer storage offer = campaign.nostrTerms.offers.push();\n            offer.state = AsamiNostr.OfferState.Assumed;\n            offer.collected = false;\n            offer.nostrHexPubkey = _newOffers[i].nostrHexPubkey;\n            offer.rewardAmount = _newOffers[i].rewardAmount;\n            offer.rewardAddress = payable(_newOffers[i].rewardAddress);\n            offer.nostrAffineX = _newOffers[i].nostrAffineX;\n            offer.nostrAffineY = _newOffers[i].nostrAffineY;\n            offer.messageId = bytes32(0);\n        }\n\n        if (totalFees > maxFeePerCampaign) {\n          totalFees = maxFeePerCampaign;\n        }\n\n        require((totalRewards + totalFees) == _funding);\n        require(rewardToken.transferFrom(msg.sender, address(this), _funding));\n    }\n\n    struct NewClassicCampaign{\n      uint256 funding;\n      uint256 startDate;\n      uint socialNetworkId;\n      string rulesUrl;\n      bytes32 rulesHash;\n      address oracleAddress;\n      uint256 oracleFee;\n      AsamiClassic.NewOffer[] newOffers;\n    }\n\n    function classicCreateCampaign(\n      NewClassicCampaign calldata _c\n    ) external {\n        require(_c.newOffers.length > 0);\n        require(_c.funding > 0);\n        require(bytes(_c.rulesUrl).length > 5);\n        require(_c.rulesHash != bytes32(0));\n        require(_c.oracleAddress != address(0));\n        require(_c.oracleFee > 0);\n        require(_c.socialNetworkId < socialNetworks.length);\n\n        Campaign storage campaign = campaigns.push();\n        campaign.funding = _c.funding;\n        campaign.startDate = _c.startDate;\n        campaign.advertiser = payable(msg.sender);\n\n        AsamiClassic.Terms storage terms = campaign.classicTerms;\n        terms.socialNetworkId = _c.socialNetworkId;\n        terms.rulesUrl = _c.rulesUrl;\n        terms.rulesHash = _c.rulesHash;\n        terms.oracleAddress = _c.oracleAddress;\n        terms.oracleFee = _c.oracleFee;\n\n        uint256 totalRewards = 0;\n        uint256 totalFees = 0;\n        for (uint i = 0; i < _c.newOffers.length; i++) {\n            require(_c.newOffers[i].rewardAmount > 0);\n            totalRewards += _c.newOffers[i].rewardAmount;\n            totalFees += feePerOffer;\n\n            AsamiClassic.Offer storage offer = campaign.classicTerms.offers[i];\n            offer.state = AsamiClassic.OfferState.Assumed;\n            offer.username = _c.newOffers[i].username;\n            offer.rewardAmount = _c.newOffers[i].rewardAmount;\n            offer.rewardAddress = payable(_c.newOffers[i].rewardAddress);\n        }\n\n        if (totalFees > maxFeePerCampaign) {\n          totalFees = maxFeePerCampaign;\n        }\n\n        require((totalRewards + totalFees) == _c.funding);\n        require(rewardToken.transferFrom(msg.sender, address(this), _c.funding));\n    }\n\n    function nostrChallenge(OfferPointer calldata _p) public {\n        Campaign storage campaign = getCampaignInTimeWindow(_p, 0, oneDay);\n        require(campaign.advertiser == msg.sender);\n\n        AsamiNostr.Offer storage offer = campaign.nostrTerms.offers[_p.offerId];\n        require(offer.state == AsamiNostr.OfferState.Assumed, \"1\");\n        offer.state = AsamiNostr.OfferState.Challenged;\n    }\n\n    // Anyone can submit proof of a message being published, likely a Collaborator or someone on their behalf.\n    // The r value is the first 32 bytes of the signature, and the s value are the remaining 32,\n    function nostrConfirm(\n        OfferPointer calldata _p,\n        AsamiNostr.MessageProof calldata _proof\n    ) external {\n        Campaign storage campaign = getCampaignInTimeWindow(_p, 0, oneDay * 2);\n\n        AsamiNostr.Offer storage offer = campaign.nostrTerms.offers[_p.offerId];\n        require(offer.state == AsamiNostr.OfferState.Challenged);\n\n        bytes32 messageId = AsamiNostr.verifyCampaignMessage(\n          campaign.nostrTerms.requestedContent,\n          offer.nostrHexPubkey,\n          _proof,\n          offer.nostrAffineX,\n          offer.nostrAffineY\n        );\n\n        offer.messageId = messageId;\n        offer.state = AsamiNostr.OfferState.Confirmed;\n    }\n\n    /*\n     The collaborator can always force a refund.\n     If the collaborator deletes a message, the advertiser can submit proof of deletion\n     to prevent payment from happening.\n     Submitting the proof of deletion for a message may be very costly for the advertiser,\n     so when this happens a penalty is applied on the collaborator in favor of the advertiser.\n     To prevent this penalty, the collaborator may forfeit the reward\n     voluntarily before deleting the message.\n    */\n    function nostrRenounce(OfferPointer calldata _p) external {\n        Campaign storage campaign = getCampaignInTimeWindow(_p, 0, campaignDuration);\n        AsamiNostr.Offer storage offer = campaign.nostrTerms.offers[_p.offerId];\n\n        require(offer.rewardAddress == msg.sender);\n\n        require(\n          offer.state == AsamiNostr.OfferState.Assumed ||\n          offer.state == AsamiNostr.OfferState.Challenged ||\n          offer.state == AsamiNostr.OfferState.Confirmed\n        );\n\n        offer.state = AsamiNostr.OfferState.Renounced;\n    }\n\n    /*\n      Submitting a deletion proof is very costly on the advertiser, so if it comes to that,\n      the collaborator gets penalized and is banned from the system until he pays for the penalties.\n      To reduce gas usage, this method does not parse the tags json, it just does a raw string search,\n      which initially may be enough.\n      The r value is the first 32 bytes of the signature, and the s value are the remaining 32,\n    */\n    function nostrReportConfirmed(\n        OfferPointer calldata _p,\n        AsamiNostr.DeletionProof calldata _deletionProof\n    ) external {\n        uint256 startGas = gasleft();\n\n        Campaign storage campaign = getCampaignInTimeWindow(_p, 0, campaignDuration);\n\n        AsamiNostr.Offer storage offer = campaign.nostrTerms.offers[_p.offerId];\n        require(offer.state == AsamiNostr.OfferState.Confirmed);\n\n        require(AsamiNostr.idInTags(offer.messageId, _deletionProof.tags));\n\n        AsamiNostr.verifyDeletionMessage(\n          offer.nostrHexPubkey,\n          _deletionProof,\n          offer.nostrAffineX,\n          offer.nostrAffineY\n        );\n\n        offer.state = AsamiNostr.OfferState.ReportedDeletion;\n\n        uint256 refund = ((startGas - gasleft()) * 11) / 10;\n        deletionPenalties[offer.rewardAddress].push(DeletionPenalty(payable(msg.sender), refund));\n    }\n\n    function nostrReportAssumed (\n        OfferPointer calldata _p,\n        AsamiNostr.MessageProof calldata _messageProof,\n        AsamiNostr.DeletionProof calldata _deletionProof\n    )\n        external \n    {\n        uint256 startGas = gasleft();\n\n        Campaign storage campaign = getCampaignInTimeWindow(_p, 0, campaignDuration);\n\n        AsamiNostr.Offer storage offer = campaign.nostrTerms.offers[_p.offerId];\n        require(offer.state == AsamiNostr.OfferState.Assumed);\n\n        bytes32 messageId = AsamiNostr.verifyCampaignMessage(\n            campaign.nostrTerms.requestedContent,\n            offer.nostrHexPubkey,\n            _messageProof,\n            offer.nostrAffineX,\n            offer.nostrAffineY\n        );\n\n        offer.messageId = messageId;\n\n        require(AsamiNostr.idInTags(offer.messageId, _deletionProof.tags));\n\n        AsamiNostr.verifyDeletionMessage(\n          offer.nostrHexPubkey,\n          _deletionProof,\n          offer.nostrAffineX,\n          offer.nostrAffineY\n        );\n\n        offer.state = AsamiNostr.OfferState.ReportedDeletion;\n\n        uint256 refund = ((startGas - gasleft()) * 11) / 10;\n        deletionPenalties[offer.rewardAddress].push(DeletionPenalty(payable(msg.sender), refund));\n    }\n\n    function classicChallenge(\n      OfferPointer calldata _p\n    ) external {\n        Campaign storage campaign = getCampaignInTimeWindow(_p, 0, oneDay);\n        require(campaign.advertiser == msg.sender);\n\n        AsamiClassic.Offer storage offer = campaign.classicTerms.offers[_p.offerId];\n        require(offer.state == AsamiClassic.OfferState.Assumed);\n\n        offer.state = AsamiClassic.OfferState.Challenged;\n    }\n\n    function classicRequestConfirmation(\n      OfferPointer calldata _p\n    ) external {\n        Campaign storage campaign = getCampaignInTimeWindow(_p, 0, oneDay * 2 );\n\n        AsamiClassic.Offer storage offer = campaign.classicTerms.offers[_p.offerId];\n        require(offer.state == AsamiClassic.OfferState.Challenged);\n\n        require(rewardToken.transferFrom(msg.sender, address(this), campaign.classicTerms.oracleFee));\n\n        offer.state = AsamiClassic.OfferState.ConfirmationRequested;\n    }\n\n    function classicConfirm(\n      OfferPointer calldata _p,\n      bool _found\n    ) external {\n        Campaign storage campaign = getCampaignInTimeWindow(_p, 0, oneDay * 3 );\n        require(campaign.classicTerms.oracleAddress == msg.sender);\n\n        AsamiClassic.Offer storage offer = campaign.classicTerms.offers[_p.offerId];\n        require(offer.state == AsamiClassic.OfferState.ConfirmationRequested);\n        \n        oracleFees[campaign.classicTerms.oracleAddress] += campaign.classicTerms.oracleFee;\n\n        if (_found) {\n          offer.state = AsamiClassic.OfferState.Confirmed;\n        } else {\n          offer.state = AsamiClassic.OfferState.Refuted;\n        }\n    }\n\n    function classicConfirmFree(\n      OfferPointer calldata _p,\n      bool _found\n    ) external {\n        Campaign storage campaign = getCampaignInTimeWindow(_p, 0, oneDay * 3 );\n\n        require(campaign.classicTerms.oracleAddress == msg.sender);\n\n        AsamiClassic.Offer storage offer = campaign.classicTerms.offers[_p.offerId];\n        require(offer.state == AsamiClassic.OfferState.Challenged);\n        \n        if (_found) {\n          offer.state = AsamiClassic.OfferState.Confirmed;\n        } else {\n          offer.state = AsamiClassic.OfferState.Refuted;\n        }\n    }\n\n    function classicRenounce(\n      OfferPointer calldata _p\n    ) external {\n        Campaign storage campaign = getCampaignInTimeWindow(_p, 0, campaignDuration);\n        AsamiClassic.Offer storage offer = campaign.classicTerms.offers[_p.offerId];\n\n        require(offer.rewardAddress == msg.sender);\n\n        require(\n          offer.state == AsamiClassic.OfferState.Assumed ||\n          offer.state == AsamiClassic.OfferState.Challenged ||\n          offer.state == AsamiClassic.OfferState.Confirmed\n        );\n\n        offer.state = AsamiClassic.OfferState.Renounced;\n    }\n\n    function classicReportDeletion(\n      OfferPointer calldata _p\n    ) external {\n        Campaign storage campaign = getCampaignInTimeWindow(_p, 0, campaignDuration);\n        require(campaign.advertiser == msg.sender);\n\n        AsamiClassic.Offer storage offer = campaign.classicTerms.offers[_p.offerId];\n\n        require(\n          offer.state == AsamiClassic.OfferState.Assumed ||\n          offer.state == AsamiClassic.OfferState.Confirmed\n        );\n\n        require(rewardToken.transferFrom(msg.sender, address(this), campaign.classicTerms.oracleFee));\n\n        offer.deletionReportedAt = block.timestamp;\n        offer.state = AsamiClassic.OfferState.DeletionReported;\n    }\n\n    function classicConfirmDeletion(\n      OfferPointer calldata _p,\n      bool _wasDeleted\n    ) external {\n        Campaign storage campaign = getCampaignInTimeWindow(_p, 0, campaignDuration);\n        require(campaign.classicTerms.oracleAddress == msg.sender);\n\n        AsamiClassic.Offer storage offer = campaign.classicTerms.offers[_p.offerId];\n        require(offer.state == AsamiClassic.OfferState.DeletionReported);\n\n        oracleFees[campaign.classicTerms.oracleAddress] += campaign.classicTerms.oracleFee;\n\n        if (_wasDeleted) {\n          offer.state = AsamiClassic.OfferState.DeletionConfirmed;\n        } else {\n          offer.state = AsamiClassic.OfferState.Confirmed;\n        }\n    }\n\n    /*\n      Collects pointers to all offers which are interesting for a collaborator.\n      It could be because the collaborator has a reward to receive or a refund of oracle fees.\n    */\n    function getCollectableCollaboratorOffers(\n        address _collaborator\n    )\n        external view returns (OfferPointer[] memory, OfferPointer[] memory) \n    {\n        OfferPointer[] memory nostrPointers = new OfferPointer[](0);\n        OfferPointer[] memory classicPointers = new OfferPointer[](0);\n\n        for(uint i = 0; i < campaigns.length; i++) {\n          Campaign storage campaign = campaigns[i];\n          if( block.timestamp < (campaign.startDate + campaignDuration) ) {\n            continue;\n          }\n\n          if (campaign.nostrTerms.offers.length > 0) {\n            for(uint j = 0; j < campaign.nostrTerms.offers.length; j++) {\n              AsamiNostr.Offer storage offer = campaign.nostrTerms.offers[j];\n              if(\n                offer.rewardAddress == _collaborator && \n                AsamiNostr.collaboratorCanCollect(offer)\n              ) {\n                nostrPointers = pushPointer(nostrPointers, i, j);\n              }\n            }\n          } else {\n            for(uint j = 0; j < campaign.classicTerms.offers.length; j++) {\n              AsamiClassic.Offer memory offer = campaign.classicTerms.offers[j];\n              if(\n                offer.rewardAddress == _collaborator && \n                !offer.collaboratorCollected &&\n                offer.state != AsamiClassic.OfferState.Challenged &&\n                offer.state != AsamiClassic.OfferState.Refuted &&\n                offer.state != AsamiClassic.OfferState.Renounced &&\n                offer.state != AsamiClassic.OfferState.DeletionConfirmed\n              ) {\n                classicPointers = pushPointer(classicPointers, i, j);\n              }\n            }\n          }\n        }\n        return (nostrPointers, classicPointers);\n    }\n\n    /*\n      This function can be called by anyone to collect offers for a collaborator.\n    */\n    function collectCollaboratorOffers(\n        address _collaborator,\n        OfferPointer[] calldata _nostrPointers,\n        OfferPointer[] calldata _classicPointers\n    ) external {\n        require(deletionPenalties[_collaborator].length == 0);\n\n        uint256 total = 0;\n\n        for (uint i = 0; i < _nostrPointers.length; i++) {\n            Campaign storage campaign = campaigns[_nostrPointers[i].campaignId];\n            require(block.timestamp >= (campaign.startDate + campaignDuration), \"1\"); // Campaign not ended.\n\n            AsamiNostr.Offer storage offer = campaign.nostrTerms.offers[_nostrPointers[i].offerId];\n\n            require(offer.rewardAddress == _collaborator, \"2\"); // Wrong collaborator.\n            require(AsamiNostr.collaboratorCanCollect(offer));\n\n            total = offer.rewardAmount;\n            offer.collected = true;\n        }\n\n        for (uint i = 0; i < _classicPointers.length; i++) {\n            Campaign storage campaign = campaigns[_classicPointers[i].campaignId];\n            require(block.timestamp >= (campaign.startDate + campaignDuration));\n\n            AsamiClassic.Offer storage offer = campaign.classicTerms.offers[_classicPointers[i].offerId];\n\n            require(offer.rewardAddress == _collaborator);\n            require(!offer.collaboratorCollected);\n\n            if( offer.state == AsamiClassic.OfferState.Assumed || offer.state == AsamiClassic.OfferState.Confirmed) {\n              total += offer.rewardAmount;\n            } else if( offer.state == AsamiClassic.OfferState.ConfirmationRequested ) {\n              total += campaign.classicTerms.oracleFee;\n            } else if( offer.state == AsamiClassic.OfferState.DeletionReported ) {\n              total += (offer.deletionReportedAt - campaign.startDate) * offer.rewardAmount / campaignDuration;\n            } else {\n              revert();\n            }\n            offer.collaboratorCollected = true;\n        }\n\n        require(rewardToken.transfer(_collaborator, total));\n    }\n\n    function getCollectableAdvertiserOffers(\n      address _advertiser\n    )\n        external view returns (OfferPointer[] memory, OfferPointer[] memory) \n    {\n        OfferPointer[] memory nostrPointers = new OfferPointer[](0);\n        OfferPointer[] memory classicPointers = new OfferPointer[](0);\n\n        for(uint i = 0; i < campaigns.length; i++) {\n          Campaign storage campaign = campaigns[i];\n\n          if( \n            campaign.advertiser != _advertiser ||\n            block.timestamp < (campaign.startDate + campaignDuration)\n          ){\n            continue;\n          }\n\n          if (campaign.nostrTerms.offers.length > 0) {\n            for(uint j = 0; j < campaign.nostrTerms.offers.length; j++) {\n              AsamiNostr.Offer storage offer = campaign.nostrTerms.offers[j];\n              if( AsamiNostr.advertiserCanCollect(offer) ) {\n                nostrPointers = pushPointer(nostrPointers, i, j);\n              }\n            }\n          } else {\n            for(uint j = 0; j < campaign.classicTerms.offers.length; j++) {\n              AsamiClassic.Offer memory offer = campaign.classicTerms.offers[j];\n              if(\n                !offer.advertiserCollected &&\n                offer.state != AsamiClassic.OfferState.Assumed &&\n                offer.state != AsamiClassic.OfferState.Confirmed\n              ) {\n                nostrPointers = pushPointer(nostrPointers, i, j);\n              }\n            }\n          }\n        }\n        return (nostrPointers, classicPointers);\n    }\n\n    /*\n      This function is called by the Advertiser to collect refunds from non-awarded offers.\n      It may also be called by third parties to give the refunds to the Advertiser.\n      The Advertiser must provide a known list of offers that are ready to be refunded.\n      The list can be built by calling the getCollectableRefunds function in the contract.\n    */\n    function collectAdvertiserOffers(\n      address payable _advertiser,\n      OfferPointer[] calldata _nostrOffers,\n      OfferPointer[] calldata _classicOffers\n    ) external {\n        uint256 total = 0;\n\n        for (uint i = 0; i < _nostrOffers.length; i++) {\n            OfferPointer memory p = _nostrOffers[i];\n\n            Campaign storage campaign = campaigns[p.campaignId];\n            require(campaign.advertiser == _advertiser);\n            require(block.timestamp >= (campaign.startDate + campaignDuration));\n\n            AsamiNostr.Offer storage offer = campaign.nostrTerms.offers[p.offerId];\n\n            require(AsamiNostr.advertiserCanCollect(offer));\n\n            total += offer.rewardAmount;\n            offer.collected = true;\n        }\n\n        for (uint i = 0; i < _classicOffers.length; i++) {\n            OfferPointer memory p = _classicOffers[i];\n\n            Campaign storage campaign = campaigns[p.campaignId];\n            require(campaign.advertiser == _advertiser);\n            require(block.timestamp >= (campaign.startDate + campaignDuration));\n\n            AsamiClassic.Offer storage offer = campaign.classicTerms.offers[p.offerId];\n            require(!offer.advertiserCollected);\n\n            if(\n              offer.state == AsamiClassic.OfferState.Challenged ||\n              offer.state == AsamiClassic.OfferState.ConfirmationRequested ||\n              offer.state == AsamiClassic.OfferState.Refuted ||\n              offer.state == AsamiClassic.OfferState.Renounced ||\n              offer.state == AsamiClassic.OfferState.DeletionConfirmed\n            ) {\n              total += offer.rewardAmount;\n            } else if( offer.state == AsamiClassic.OfferState.DeletionReported ) {\n              total += (campaignDuration - (offer.deletionReportedAt - campaign.startDate)) * offer.rewardAmount / campaignDuration;\n            } else {\n              revert();\n            }\n            offer.advertiserCollected = true;\n        }\n\n        require(rewardToken.transfer(_advertiser, total));\n    }\n\n    function payDeletionPenalties(\n      address _debtor\n    ) external payable {\n        DeletionPenalty[] storage penalties = deletionPenalties[_debtor];\n        uint256 total = 0;\n\n        for (uint256 i = 0; i < penalties.length; i++) {\n            total += penalties[i].amount;\n        }\n\n        require(total > 0);\n        require(msg.value == total);\n\n        for (uint256 i = 0; i < penalties.length; i++) {\n            payable(penalties[i].creditor).transfer(penalties[i].amount);\n        }\n\n        delete deletionPenalties[_debtor];\n    }\n\n\n    function setAsamiFeePerOffer(uint256 _fee) external onlyOwner {\n        feePerOffer = _fee;\n    }\n\n    function setAsamiMaxFeePerCampaign(uint256 _fee) external onlyOwner {\n        maxFeePerCampaign = _fee;\n    }\n\n    function setAsamiFeesAddress(address _feesAddress) external onlyOwner {\n        feesAddress = _feesAddress;\n    }\n\n    function addSocialNetwork(string calldata _name) external onlyOwner {\n        socialNetworks.push(_name);\n    }\n\n    function collectAsamiFees() external {\n        require(fees > 0);\n        require(rewardToken.transferFrom(address(this), feesAddress, fees));\n        fees = 0;\n    }\n\n    function collectOracleFees(address _oracle) external {\n        require(oracleFees[_oracle] > 0);\n        require(rewardToken.transferFrom(address(this), _oracle, oracleFees[_oracle]));\n        oracleFees[_oracle] = 0;\n    }\n\n    function nostrGetCampaignOffer(OfferPointer memory _p) external view returns (AsamiNostr.Offer memory) {\n        return campaigns[_p.campaignId].nostrTerms.offers[_p.offerId];\n    }\n\n    function classicGetCampaignOffer(OfferPointer memory _p) external view returns (AsamiClassic.Offer memory) {\n        return campaigns[_p.campaignId].classicTerms.offers[_p.offerId];\n    }\n\n    function calculateCampaignFees(uint _offerCount) external view returns (uint256) {\n        uint256 total = _offerCount * feePerOffer;\n        return total > maxFeePerCampaign ? maxFeePerCampaign : total;\n    }\n\n    function getCampaignInTimeWindow(\n      OfferPointer calldata _p,\n      uint256 _offset,\n      uint256 _duration\n    ) internal view returns (Campaign storage) {\n        Campaign storage campaign = campaigns[_p.campaignId];\n        require(block.timestamp >= (campaign.startDate + _offset), \"99\");\n        require(block.timestamp <= (campaign.startDate + _offset + _duration), \"99\");\n        return campaign;\n    }\n\n    function pushPointer(\n      OfferPointer[] memory _pointers,\n      uint256 _campaignId,\n      uint256 _offerId\n    ) internal pure returns (OfferPointer[] memory) {\n      OfferPointer[] memory tmp = new OfferPointer[](_pointers.length + 1);\n      for (uint k = 0; k < _pointers.length; k++) {\n          tmp[k] = _pointers[k];\n      }\n      tmp[_pointers.length] = OfferPointer(_campaignId, _offerId);\n      return tmp;\n    }\n}\n",
  "sourcePath": "/home/nubis/asami/contract/contracts/Asami.sol",
  "compiler": {
    "name": "solc",
    "version": "0.8.19+commit.7dd6d404.Emscripten.clang"
  },
  "schemaVersion": "3.4.15",
  "updatedAt": "2023-09-03T21:26:37.119Z",
  "networkType": "ethereum",
  "devdoc": {
    "kind": "dev",
    "methods": {
      "owner()": {
        "details": "Returns the address of the current owner."
      },
      "renounceOwnership()": {
        "details": "Leaves the contract without owner. It will not be possible to call `onlyOwner` functions. Can only be called by the current owner. NOTE: Renouncing ownership will leave the contract without an owner, thereby disabling any functionality that is only available to the owner."
      },
      "transferOwnership(address)": {
        "details": "Transfers ownership of the contract to a new account (`newOwner`). Can only be called by the current owner."
      }
    },
    "version": 1
  },
  "userdoc": {
    "kind": "user",
    "methods": {},
    "version": 1
  }
}