{
  "contractName": "Asami",
  "abi": [
    {
      "inputs": [
        {
          "internalType": "address",
          "name": "_dollarOnChainAddress",
          "type": "address"
        },
        {
          "internalType": "address",
          "name": "_nostrUtilsAddress",
          "type": "address"
        }
      ],
      "stateMutability": "nonpayable",
      "type": "constructor"
    },
    {
      "anonymous": false,
      "inputs": [
        {
          "components": [
            {
              "internalType": "uint256",
              "name": "id",
              "type": "uint256"
            },
            {
              "internalType": "address",
              "name": "addr",
              "type": "address"
            },
            {
              "internalType": "uint256",
              "name": "unclaimedAsamiTokens",
              "type": "uint256"
            },
            {
              "internalType": "uint256",
              "name": "unclaimedDocRewards",
              "type": "uint256"
            },
            {
              "internalType": "bool",
              "name": "nostrSelfManaged",
              "type": "bool"
            },
            {
              "internalType": "bool",
              "name": "nostrAbuseProven",
              "type": "bool"
            },
            {
              "internalType": "uint256[]",
              "name": "handles",
              "type": "uint256[]"
            },
            {
              "internalType": "uint256[]",
              "name": "campaigns",
              "type": "uint256[]"
            },
            {
              "internalType": "uint256[]",
              "name": "collabs",
              "type": "uint256[]"
            }
          ],
          "indexed": false,
          "internalType": "struct Asami.Account",
          "name": "account",
          "type": "tuple"
        }
      ],
      "name": "AccountSaved",
      "type": "event"
    },
    {
      "anonymous": false,
      "inputs": [
        {
          "indexed": true,
          "internalType": "address",
          "name": "owner",
          "type": "address"
        },
        {
          "indexed": true,
          "internalType": "address",
          "name": "spender",
          "type": "address"
        },
        {
          "indexed": false,
          "internalType": "uint256",
          "name": "value",
          "type": "uint256"
        }
      ],
      "name": "Approval",
      "type": "event"
    },
    {
      "anonymous": false,
      "inputs": [
        {
          "components": [
            {
              "internalType": "uint256",
              "name": "id",
              "type": "uint256"
            },
            {
              "internalType": "uint256",
              "name": "accountId",
              "type": "uint256"
            },
            {
              "internalType": "enum Asami.Site",
              "name": "site",
              "type": "uint8"
            },
            {
              "internalType": "uint256",
              "name": "budget",
              "type": "uint256"
            },
            {
              "internalType": "uint256",
              "name": "remaining",
              "type": "uint256"
            },
            {
              "internalType": "string",
              "name": "contentId",
              "type": "string"
            },
            {
              "internalType": "uint256",
              "name": "priceScoreRatio",
              "type": "uint256"
            },
            {
              "internalType": "uint256[]",
              "name": "topics",
              "type": "uint256[]"
            },
            {
              "internalType": "uint256",
              "name": "validUntil",
              "type": "uint256"
            }
          ],
          "indexed": false,
          "internalType": "struct Asami.Campaign",
          "name": "campaign",
          "type": "tuple"
        }
      ],
      "name": "CampaignSaved",
      "type": "event"
    },
    {
      "anonymous": false,
      "inputs": [
        {
          "components": [
            {
              "internalType": "uint256",
              "name": "id",
              "type": "uint256"
            },
            {
              "internalType": "uint256",
              "name": "handleId",
              "type": "uint256"
            },
            {
              "internalType": "uint256",
              "name": "campaignId",
              "type": "uint256"
            },
            {
              "internalType": "uint256",
              "name": "gross",
              "type": "uint256"
            },
            {
              "internalType": "uint256",
              "name": "fee",
              "type": "uint256"
            },
            {
              "internalType": "string",
              "name": "proof",
              "type": "string"
            },
            {
              "internalType": "uint256",
              "name": "createdAt",
              "type": "uint256"
            }
          ],
          "indexed": false,
          "internalType": "struct Asami.Collab",
          "name": "collab",
          "type": "tuple"
        }
      ],
      "name": "CollabSaved",
      "type": "event"
    },
    {
      "anonymous": false,
      "inputs": [
        {
          "components": [
            {
              "internalType": "uint256",
              "name": "id",
              "type": "uint256"
            },
            {
              "internalType": "uint256",
              "name": "accountId",
              "type": "uint256"
            },
            {
              "internalType": "enum Asami.Site",
              "name": "site",
              "type": "uint8"
            },
            {
              "internalType": "uint256",
              "name": "price",
              "type": "uint256"
            },
            {
              "internalType": "uint256",
              "name": "score",
              "type": "uint256"
            },
            {
              "internalType": "uint256[]",
              "name": "topics",
              "type": "uint256[]"
            },
            {
              "internalType": "string",
              "name": "username",
              "type": "string"
            },
            {
              "internalType": "string",
              "name": "userId",
              "type": "string"
            },
            {
              "internalType": "uint256",
              "name": "nostrAffineX",
              "type": "uint256"
            },
            {
              "internalType": "uint256",
              "name": "nostrAffineY",
              "type": "uint256"
            }
          ],
          "indexed": false,
          "internalType": "struct Asami.Handle",
          "name": "handle",
          "type": "tuple"
        }
      ],
      "name": "HandleSaved",
      "type": "event"
    },
    {
      "anonymous": false,
      "inputs": [
        {
          "components": [
            {
              "internalType": "uint256",
              "name": "id",
              "type": "uint256"
            },
            {
              "internalType": "uint256",
              "name": "handleId",
              "type": "uint256"
            },
            {
              "internalType": "string",
              "name": "username",
              "type": "string"
            },
            {
              "internalType": "uint256",
              "name": "price",
              "type": "uint256"
            },
            {
              "internalType": "uint256",
              "name": "score",
              "type": "uint256"
            },
            {
              "internalType": "uint256[]",
              "name": "topics",
              "type": "uint256[]"
            }
          ],
          "indexed": false,
          "internalType": "struct Asami.HandleUpdate",
          "name": "handleUpdate",
          "type": "tuple"
        }
      ],
      "name": "HandleUpdateSaved",
      "type": "event"
    },
    {
      "anonymous": false,
      "inputs": [
        {
          "indexed": true,
          "internalType": "address",
          "name": "previousOwner",
          "type": "address"
        },
        {
          "indexed": true,
          "internalType": "address",
          "name": "newOwner",
          "type": "address"
        }
      ],
      "name": "OwnershipTransferred",
      "type": "event"
    },
    {
      "anonymous": false,
      "inputs": [
        {
          "indexed": true,
          "internalType": "address",
          "name": "from",
          "type": "address"
        },
        {
          "indexed": true,
          "internalType": "address",
          "name": "to",
          "type": "address"
        },
        {
          "indexed": false,
          "internalType": "uint256",
          "name": "value",
          "type": "uint256"
        }
      ],
      "name": "Transfer",
      "type": "event"
    },
    {
      "inputs": [
        {
          "internalType": "address",
          "name": "",
          "type": "address"
        }
      ],
      "name": "accountIdByAddress",
      "outputs": [
        {
          "internalType": "uint256",
          "name": "",
          "type": "uint256"
        }
      ],
      "stateMutability": "view",
      "type": "function",
      "constant": true
    },
    {
      "inputs": [
        {
          "internalType": "uint256",
          "name": "",
          "type": "uint256"
        }
      ],
      "name": "accountIds",
      "outputs": [
        {
          "internalType": "uint256",
          "name": "",
          "type": "uint256"
        }
      ],
      "stateMutability": "view",
      "type": "function",
      "constant": true
    },
    {
      "inputs": [
        {
          "internalType": "uint256",
          "name": "",
          "type": "uint256"
        }
      ],
      "name": "accounts",
      "outputs": [
        {
          "internalType": "uint256",
          "name": "id",
          "type": "uint256"
        },
        {
          "internalType": "address",
          "name": "addr",
          "type": "address"
        },
        {
          "internalType": "uint256",
          "name": "unclaimedAsamiTokens",
          "type": "uint256"
        },
        {
          "internalType": "uint256",
          "name": "unclaimedDocRewards",
          "type": "uint256"
        },
        {
          "internalType": "bool",
          "name": "nostrSelfManaged",
          "type": "bool"
        },
        {
          "internalType": "bool",
          "name": "nostrAbuseProven",
          "type": "bool"
        }
      ],
      "stateMutability": "view",
      "type": "function",
      "constant": true
    },
    {
      "inputs": [],
      "name": "admin",
      "outputs": [
        {
          "internalType": "address",
          "name": "",
          "type": "address"
        }
      ],
      "stateMutability": "view",
      "type": "function",
      "constant": true
    },
    {
      "inputs": [],
      "name": "adminTreasury",
      "outputs": [
        {
          "internalType": "address",
          "name": "",
          "type": "address"
        }
      ],
      "stateMutability": "view",
      "type": "function",
      "constant": true
    },
    {
      "inputs": [
        {
          "internalType": "address",
          "name": "owner",
          "type": "address"
        },
        {
          "internalType": "address",
          "name": "spender",
          "type": "address"
        }
      ],
      "name": "allowance",
      "outputs": [
        {
          "internalType": "uint256",
          "name": "",
          "type": "uint256"
        }
      ],
      "stateMutability": "view",
      "type": "function",
      "constant": true
    },
    {
      "inputs": [
        {
          "internalType": "address",
          "name": "spender",
          "type": "address"
        },
        {
          "internalType": "uint256",
          "name": "amount",
          "type": "uint256"
        }
      ],
      "name": "approve",
      "outputs": [
        {
          "internalType": "bool",
          "name": "",
          "type": "bool"
        }
      ],
      "stateMutability": "nonpayable",
      "type": "function"
    },
    {
      "inputs": [
        {
          "internalType": "address",
          "name": "account",
          "type": "address"
        }
      ],
      "name": "balanceOf",
      "outputs": [
        {
          "internalType": "uint256",
          "name": "",
          "type": "uint256"
        }
      ],
      "stateMutability": "view",
      "type": "function",
      "constant": true
    },
    {
      "inputs": [
        {
          "internalType": "uint256",
          "name": "",
          "type": "uint256"
        }
      ],
      "name": "campaigns",
      "outputs": [
        {
          "internalType": "uint256",
          "name": "id",
          "type": "uint256"
        },
        {
          "internalType": "uint256",
          "name": "accountId",
          "type": "uint256"
        },
        {
          "internalType": "enum Asami.Site",
          "name": "site",
          "type": "uint8"
        },
        {
          "internalType": "uint256",
          "name": "budget",
          "type": "uint256"
        },
        {
          "internalType": "uint256",
          "name": "remaining",
          "type": "uint256"
        },
        {
          "internalType": "string",
          "name": "contentId",
          "type": "string"
        },
        {
          "internalType": "uint256",
          "name": "priceScoreRatio",
          "type": "uint256"
        },
        {
          "internalType": "uint256",
          "name": "validUntil",
          "type": "uint256"
        }
      ],
      "stateMutability": "view",
      "type": "function",
      "constant": true
    },
    {
      "inputs": [
        {
          "internalType": "uint256",
          "name": "",
          "type": "uint256"
        }
      ],
      "name": "collabs",
      "outputs": [
        {
          "internalType": "uint256",
          "name": "id",
          "type": "uint256"
        },
        {
          "internalType": "uint256",
          "name": "handleId",
          "type": "uint256"
        },
        {
          "internalType": "uint256",
          "name": "campaignId",
          "type": "uint256"
        },
        {
          "internalType": "uint256",
          "name": "gross",
          "type": "uint256"
        },
        {
          "internalType": "uint256",
          "name": "fee",
          "type": "uint256"
        },
        {
          "internalType": "string",
          "name": "proof",
          "type": "string"
        },
        {
          "internalType": "uint256",
          "name": "createdAt",
          "type": "uint256"
        }
      ],
      "stateMutability": "view",
      "type": "function",
      "constant": true
    },
    {
      "inputs": [],
      "name": "decimals",
      "outputs": [
        {
          "internalType": "uint8",
          "name": "",
          "type": "uint8"
        }
      ],
      "stateMutability": "view",
      "type": "function",
      "constant": true
    },
    {
      "inputs": [
        {
          "internalType": "address",
          "name": "spender",
          "type": "address"
        },
        {
          "internalType": "uint256",
          "name": "subtractedValue",
          "type": "uint256"
        }
      ],
      "name": "decreaseAllowance",
      "outputs": [
        {
          "internalType": "bool",
          "name": "",
          "type": "bool"
        }
      ],
      "stateMutability": "nonpayable",
      "type": "function"
    },
    {
      "inputs": [],
      "name": "feePool",
      "outputs": [
        {
          "internalType": "uint256",
          "name": "",
          "type": "uint256"
        }
      ],
      "stateMutability": "view",
      "type": "function",
      "constant": true
    },
    {
      "inputs": [],
      "name": "feeRate",
      "outputs": [
        {
          "internalType": "uint256",
          "name": "",
          "type": "uint256"
        }
      ],
      "stateMutability": "view",
      "type": "function",
      "constant": true
    },
    {
      "inputs": [
        {
          "internalType": "uint256",
          "name": "",
          "type": "uint256"
        }
      ],
      "name": "handleUpdateByHandleId",
      "outputs": [
        {
          "internalType": "uint256",
          "name": "",
          "type": "uint256"
        }
      ],
      "stateMutability": "view",
      "type": "function",
      "constant": true
    },
    {
      "inputs": [
        {
          "internalType": "uint256",
          "name": "",
          "type": "uint256"
        }
      ],
      "name": "handleUpdates",
      "outputs": [
        {
          "internalType": "uint256",
          "name": "id",
          "type": "uint256"
        },
        {
          "internalType": "uint256",
          "name": "handleId",
          "type": "uint256"
        },
        {
          "internalType": "string",
          "name": "username",
          "type": "string"
        },
        {
          "internalType": "uint256",
          "name": "price",
          "type": "uint256"
        },
        {
          "internalType": "uint256",
          "name": "score",
          "type": "uint256"
        }
      ],
      "stateMutability": "view",
      "type": "function",
      "constant": true
    },
    {
      "inputs": [
        {
          "internalType": "uint256",
          "name": "",
          "type": "uint256"
        }
      ],
      "name": "handles",
      "outputs": [
        {
          "internalType": "uint256",
          "name": "id",
          "type": "uint256"
        },
        {
          "internalType": "uint256",
          "name": "accountId",
          "type": "uint256"
        },
        {
          "internalType": "enum Asami.Site",
          "name": "site",
          "type": "uint8"
        },
        {
          "internalType": "uint256",
          "name": "price",
          "type": "uint256"
        },
        {
          "internalType": "uint256",
          "name": "score",
          "type": "uint256"
        },
        {
          "internalType": "string",
          "name": "username",
          "type": "string"
        },
        {
          "internalType": "string",
          "name": "userId",
          "type": "string"
        },
        {
          "internalType": "uint256",
          "name": "nostrAffineX",
          "type": "uint256"
        },
        {
          "internalType": "uint256",
          "name": "nostrAffineY",
          "type": "uint256"
        }
      ],
      "stateMutability": "view",
      "type": "function",
      "constant": true
    },
    {
      "inputs": [
        {
          "internalType": "uint256",
          "name": "",
          "type": "uint256"
        }
      ],
      "name": "holders",
      "outputs": [
        {
          "internalType": "address",
          "name": "",
          "type": "address"
        }
      ],
      "stateMutability": "view",
      "type": "function",
      "constant": true
    },
    {
      "inputs": [
        {
          "internalType": "address",
          "name": "spender",
          "type": "address"
        },
        {
          "internalType": "uint256",
          "name": "addedValue",
          "type": "uint256"
        }
      ],
      "name": "increaseAllowance",
      "outputs": [
        {
          "internalType": "bool",
          "name": "",
          "type": "bool"
        }
      ],
      "stateMutability": "nonpayable",
      "type": "function"
    },
    {
      "inputs": [],
      "name": "lastPayoutCycle",
      "outputs": [
        {
          "internalType": "uint256",
          "name": "",
          "type": "uint256"
        }
      ],
      "stateMutability": "view",
      "type": "function",
      "constant": true
    },
    {
      "inputs": [],
      "name": "lastUpdateCycle",
      "outputs": [
        {
          "internalType": "uint256",
          "name": "",
          "type": "uint256"
        }
      ],
      "stateMutability": "view",
      "type": "function",
      "constant": true
    },
    {
      "inputs": [],
      "name": "lastVoteCycle",
      "outputs": [
        {
          "internalType": "uint256",
          "name": "",
          "type": "uint256"
        }
      ],
      "stateMutability": "view",
      "type": "function",
      "constant": true
    },
    {
      "inputs": [],
      "name": "name",
      "outputs": [
        {
          "internalType": "string",
          "name": "",
          "type": "string"
        }
      ],
      "stateMutability": "view",
      "type": "function",
      "constant": true
    },
    {
      "inputs": [],
      "name": "nostrUtils",
      "outputs": [
        {
          "internalType": "contract NostrUtils",
          "name": "",
          "type": "address"
        }
      ],
      "stateMutability": "view",
      "type": "function",
      "constant": true
    },
    {
      "inputs": [],
      "name": "owner",
      "outputs": [
        {
          "internalType": "address",
          "name": "",
          "type": "address"
        }
      ],
      "stateMutability": "view",
      "type": "function",
      "constant": true
    },
    {
      "inputs": [],
      "name": "payoutsRemaining",
      "outputs": [
        {
          "internalType": "uint256",
          "name": "",
          "type": "uint256"
        }
      ],
      "stateMutability": "view",
      "type": "function",
      "constant": true
    },
    {
      "inputs": [],
      "name": "payoutsTotal",
      "outputs": [
        {
          "internalType": "uint256",
          "name": "",
          "type": "uint256"
        }
      ],
      "stateMutability": "view",
      "type": "function",
      "constant": true
    },
    {
      "inputs": [],
      "name": "renounceOwnership",
      "outputs": [],
      "stateMutability": "nonpayable",
      "type": "function"
    },
    {
      "inputs": [],
      "name": "symbol",
      "outputs": [
        {
          "internalType": "string",
          "name": "",
          "type": "string"
        }
      ],
      "stateMutability": "view",
      "type": "function",
      "constant": true
    },
    {
      "inputs": [
        {
          "internalType": "uint256",
          "name": "",
          "type": "uint256"
        }
      ],
      "name": "topics",
      "outputs": [
        {
          "internalType": "string",
          "name": "",
          "type": "string"
        }
      ],
      "stateMutability": "view",
      "type": "function",
      "constant": true
    },
    {
      "inputs": [],
      "name": "totalSupply",
      "outputs": [
        {
          "internalType": "uint256",
          "name": "",
          "type": "uint256"
        }
      ],
      "stateMutability": "view",
      "type": "function",
      "constant": true
    },
    {
      "inputs": [
        {
          "internalType": "address",
          "name": "to",
          "type": "address"
        },
        {
          "internalType": "uint256",
          "name": "amount",
          "type": "uint256"
        }
      ],
      "name": "transfer",
      "outputs": [
        {
          "internalType": "bool",
          "name": "",
          "type": "bool"
        }
      ],
      "stateMutability": "nonpayable",
      "type": "function"
    },
    {
      "inputs": [
        {
          "internalType": "address",
          "name": "from",
          "type": "address"
        },
        {
          "internalType": "address",
          "name": "to",
          "type": "address"
        },
        {
          "internalType": "uint256",
          "name": "amount",
          "type": "uint256"
        }
      ],
      "name": "transferFrom",
      "outputs": [
        {
          "internalType": "bool",
          "name": "",
          "type": "bool"
        }
      ],
      "stateMutability": "nonpayable",
      "type": "function"
    },
    {
      "inputs": [
        {
          "internalType": "address",
          "name": "newOwner",
          "type": "address"
        }
      ],
      "name": "transferOwnership",
      "outputs": [],
      "stateMutability": "nonpayable",
      "type": "function"
    },
    {
      "inputs": [],
      "name": "updatesRemaining",
      "outputs": [
        {
          "internalType": "uint256",
          "name": "",
          "type": "uint256"
        }
      ],
      "stateMutability": "view",
      "type": "function",
      "constant": true
    },
    {
      "inputs": [],
      "name": "updatesTotal",
      "outputs": [
        {
          "internalType": "uint256",
          "name": "",
          "type": "uint256"
        }
      ],
      "stateMutability": "view",
      "type": "function",
      "constant": true
    },
    {
      "inputs": [
        {
          "internalType": "uint256",
          "name": "",
          "type": "uint256"
        }
      ],
      "name": "voteIdByAccountId",
      "outputs": [
        {
          "internalType": "uint256",
          "name": "",
          "type": "uint256"
        }
      ],
      "stateMutability": "view",
      "type": "function",
      "constant": true
    },
    {
      "inputs": [],
      "name": "votedAverage",
      "outputs": [
        {
          "internalType": "uint256",
          "name": "",
          "type": "uint256"
        }
      ],
      "stateMutability": "view",
      "type": "function",
      "constant": true
    },
    {
      "inputs": [
        {
          "internalType": "uint256",
          "name": "",
          "type": "uint256"
        }
      ],
      "name": "votes",
      "outputs": [
        {
          "internalType": "uint256",
          "name": "",
          "type": "uint256"
        }
      ],
      "stateMutability": "view",
      "type": "function",
      "constant": true
    },
    {
      "inputs": [],
      "name": "votesRemaining",
      "outputs": [
        {
          "internalType": "uint256",
          "name": "",
          "type": "uint256"
        }
      ],
      "stateMutability": "view",
      "type": "function",
      "constant": true
    },
    {
      "inputs": [],
      "name": "votesTotal",
      "outputs": [
        {
          "internalType": "uint256",
          "name": "",
          "type": "uint256"
        }
      ],
      "stateMutability": "view",
      "type": "function",
      "constant": true
    },
    {
      "inputs": [
        {
          "internalType": "address",
          "name": "_admin",
          "type": "address"
        },
        {
          "internalType": "address",
          "name": "_adminTreasury",
          "type": "address"
        }
      ],
      "name": "setAdmin",
      "outputs": [],
      "stateMutability": "nonpayable",
      "type": "function"
    },
    {
      "inputs": [],
      "name": "getTopics",
      "outputs": [
        {
          "internalType": "string[]",
          "name": "",
          "type": "string[]"
        }
      ],
      "stateMutability": "view",
      "type": "function",
      "constant": true
    },
    {
      "inputs": [
        {
          "internalType": "string",
          "name": "_name",
          "type": "string"
        }
      ],
      "name": "addTopic",
      "outputs": [],
      "stateMutability": "nonpayable",
      "type": "function"
    },
    {
      "inputs": [
        {
          "internalType": "uint256",
          "name": "_accountId",
          "type": "uint256"
        },
        {
          "internalType": "address",
          "name": "_addr",
          "type": "address"
        }
      ],
      "name": "claimAccount",
      "outputs": [],
      "stateMutability": "nonpayable",
      "type": "function"
    },
    {
      "inputs": [
        {
          "components": [
            {
              "internalType": "uint256",
              "name": "id",
              "type": "uint256"
            },
            {
              "internalType": "uint256",
              "name": "accountId",
              "type": "uint256"
            },
            {
              "internalType": "enum Asami.Site",
              "name": "site",
              "type": "uint8"
            },
            {
              "internalType": "uint256",
              "name": "price",
              "type": "uint256"
            },
            {
              "internalType": "uint256",
              "name": "score",
              "type": "uint256"
            },
            {
              "internalType": "uint256[]",
              "name": "topics",
              "type": "uint256[]"
            },
            {
              "internalType": "string",
              "name": "username",
              "type": "string"
            },
            {
              "internalType": "string",
              "name": "userId",
              "type": "string"
            },
            {
              "internalType": "uint256",
              "name": "nostrAffineX",
              "type": "uint256"
            },
            {
              "internalType": "uint256",
              "name": "nostrAffineY",
              "type": "uint256"
            }
          ],
          "internalType": "struct Asami.Handle[]",
          "name": "_inputs",
          "type": "tuple[]"
        }
      ],
      "name": "adminMakeHandles",
      "outputs": [],
      "stateMutability": "nonpayable",
      "type": "function"
    },
    {
      "inputs": [
        {
          "components": [
            {
              "internalType": "enum Asami.Site",
              "name": "site",
              "type": "uint8"
            },
            {
              "internalType": "uint256",
              "name": "budget",
              "type": "uint256"
            },
            {
              "internalType": "string",
              "name": "contentId",
              "type": "string"
            },
            {
              "internalType": "uint256",
              "name": "priceScoreRatio",
              "type": "uint256"
            },
            {
              "internalType": "uint256[]",
              "name": "topics",
              "type": "uint256[]"
            },
            {
              "internalType": "uint256",
              "name": "validUntil",
              "type": "uint256"
            }
          ],
          "internalType": "struct Asami.CampaignInput[]",
          "name": "_inputs",
          "type": "tuple[]"
        }
      ],
      "name": "makeCampaigns",
      "outputs": [],
      "stateMutability": "nonpayable",
      "type": "function"
    },
    {
      "inputs": [
        {
          "components": [
            {
              "internalType": "uint256",
              "name": "accountId",
              "type": "uint256"
            },
            {
              "components": [
                {
                  "internalType": "enum Asami.Site",
                  "name": "site",
                  "type": "uint8"
                },
                {
                  "internalType": "uint256",
                  "name": "budget",
                  "type": "uint256"
                },
                {
                  "internalType": "string",
                  "name": "contentId",
                  "type": "string"
                },
                {
                  "internalType": "uint256",
                  "name": "priceScoreRatio",
                  "type": "uint256"
                },
                {
                  "internalType": "uint256[]",
                  "name": "topics",
                  "type": "uint256[]"
                },
                {
                  "internalType": "uint256",
                  "name": "validUntil",
                  "type": "uint256"
                }
              ],
              "internalType": "struct Asami.CampaignInput",
              "name": "attrs",
              "type": "tuple"
            }
          ],
          "internalType": "struct Asami.AdminCampaignInput[]",
          "name": "_inputs",
          "type": "tuple[]"
        }
      ],
      "name": "adminMakeCampaigns",
      "outputs": [],
      "stateMutability": "nonpayable",
      "type": "function"
    },
    {
      "inputs": [
        {
          "components": [
            {
              "internalType": "uint256",
              "name": "campaignId",
              "type": "uint256"
            },
            {
              "internalType": "uint256",
              "name": "handleId",
              "type": "uint256"
            }
          ],
          "internalType": "struct Asami.AdminMakeCollabsInput[]",
          "name": "_collabs",
          "type": "tuple[]"
        }
      ],
      "name": "adminMakeCollabs",
      "outputs": [],
      "stateMutability": "nonpayable",
      "type": "function"
    },
    {
      "inputs": [
        {
          "internalType": "uint256[]",
          "name": "_campaignIds",
          "type": "uint256[]"
        }
      ],
      "name": "reimburseDueCampaigns",
      "outputs": [],
      "stateMutability": "nonpayable",
      "type": "function"
    },
    {
      "inputs": [
        {
          "internalType": "uint256",
          "name": "_handleId",
          "type": "uint256"
        },
        {
          "internalType": "uint256",
          "name": "_price",
          "type": "uint256"
        }
      ],
      "name": "adminSetPrice",
      "outputs": [],
      "stateMutability": "nonpayable",
      "type": "function"
    },
    {
      "inputs": [
        {
          "internalType": "uint256",
          "name": "_handleId",
          "type": "uint256"
        },
        {
          "internalType": "uint256",
          "name": "_price",
          "type": "uint256"
        }
      ],
      "name": "setPrice",
      "outputs": [],
      "stateMutability": "nonpayable",
      "type": "function"
    },
    {
      "inputs": [
        {
          "internalType": "uint256",
          "name": "_handleId",
          "type": "uint256"
        },
        {
          "internalType": "uint256",
          "name": "_score",
          "type": "uint256"
        },
        {
          "internalType": "uint256[]",
          "name": "_topics",
          "type": "uint256[]"
        }
      ],
      "name": "adminSetScoreAndTopics",
      "outputs": [],
      "stateMutability": "nonpayable",
      "type": "function"
    },
    {
      "inputs": [],
      "name": "getCycleLength",
      "outputs": [
        {
          "internalType": "uint256",
          "name": "",
          "type": "uint256"
        }
      ],
      "stateMutability": "pure",
      "type": "function",
      "constant": true
    },
    {
      "inputs": [],
      "name": "getCurrentCycle",
      "outputs": [
        {
          "internalType": "uint256",
          "name": "",
          "type": "uint256"
        }
      ],
      "stateMutability": "view",
      "type": "function",
      "constant": true
    },
    {
      "inputs": [],
      "name": "getNextCycle",
      "outputs": [
        {
          "internalType": "uint256",
          "name": "",
          "type": "uint256"
        }
      ],
      "stateMutability": "view",
      "type": "function",
      "constant": true
    },
    {
      "inputs": [],
      "name": "distributeFeePool",
      "outputs": [],
      "stateMutability": "nonpayable",
      "type": "function"
    },
    {
      "inputs": [],
      "name": "applyHandleUpdates",
      "outputs": [],
      "stateMutability": "nonpayable",
      "type": "function"
    },
    {
      "inputs": [
        {
          "internalType": "uint256",
          "name": "_feeRate",
          "type": "uint256"
        }
      ],
      "name": "makeVote",
      "outputs": [],
      "stateMutability": "nonpayable",
      "type": "function"
    },
    {
      "inputs": [],
      "name": "tallyVotes",
      "outputs": [],
      "stateMutability": "nonpayable",
      "type": "function"
    },
    {
      "inputs": [
        {
          "internalType": "uint256",
          "name": "_handleId",
          "type": "uint256"
        },
        {
          "internalType": "uint256",
          "name": "_campaignId",
          "type": "uint256"
        },
        {
          "internalType": "string",
          "name": "_tagsAfterPostId",
          "type": "string"
        },
        {
          "internalType": "uint256",
          "name": "_createdAt",
          "type": "uint256"
        },
        {
          "internalType": "uint256",
          "name": "_sigR",
          "type": "uint256"
        },
        {
          "internalType": "uint256",
          "name": "_sigS",
          "type": "uint256"
        }
      ],
      "name": "makeNostrCollab",
      "outputs": [],
      "stateMutability": "nonpayable",
      "type": "function"
    },
    {
      "inputs": [
        {
          "internalType": "uint256",
          "name": "_collabId",
          "type": "uint256"
        },
        {
          "internalType": "string",
          "name": "_content",
          "type": "string"
        },
        {
          "internalType": "string",
          "name": "_tags",
          "type": "string"
        },
        {
          "internalType": "uint256",
          "name": "_createdAt",
          "type": "uint256"
        },
        {
          "internalType": "uint256",
          "name": "_sigR",
          "type": "uint256"
        },
        {
          "internalType": "uint256",
          "name": "_sigS",
          "type": "uint256"
        }
      ],
      "name": "reportNostrAbuse",
      "outputs": [],
      "stateMutability": "nonpayable",
      "type": "function"
    },
    {
      "inputs": [
        {
          "internalType": "uint256",
          "name": "_handleId",
          "type": "uint256"
        },
        {
          "internalType": "bool",
          "name": "_value",
          "type": "bool"
        }
      ],
      "name": "setNostrSelfManaged",
      "outputs": [],
      "stateMutability": "nonpayable",
      "type": "function"
    },
    {
      "inputs": [
        {
          "internalType": "uint256",
          "name": "_a",
          "type": "uint256"
        },
        {
          "internalType": "uint256",
          "name": "_b",
          "type": "uint256"
        }
      ],
      "name": "max",
      "outputs": [
        {
          "internalType": "uint256",
          "name": "",
          "type": "uint256"
        }
      ],
      "stateMutability": "pure",
      "type": "function",
      "constant": true
    },
    {
      "inputs": [
        {
          "internalType": "uint256",
          "name": "_a",
          "type": "uint256"
        },
        {
          "internalType": "uint256",
          "name": "_b",
          "type": "uint256"
        }
      ],
      "name": "min",
      "outputs": [
        {
          "internalType": "uint256",
          "name": "",
          "type": "uint256"
        }
      ],
      "stateMutability": "pure",
      "type": "function",
      "constant": true
    },
    {
      "inputs": [
        {
          "internalType": "uint256[]",
          "name": "mainSet",
          "type": "uint256[]"
        },
        {
          "internalType": "uint256[]",
          "name": "subset",
          "type": "uint256[]"
        }
      ],
      "name": "isSubset",
      "outputs": [
        {
          "internalType": "bool",
          "name": "",
          "type": "bool"
        }
      ],
      "stateMutability": "pure",
      "type": "function",
      "constant": true
    }
  ],
  "bytecode": "0x60806040526000601755600060185560006019556000601a556000601b556000601c55600a601d556000601e556000601f55600060205560006021553480156200004857600080fd5b506040516200536d3803806200536d8339810160408190526200006b916200018d565b6040518060400160405280600a81526020016920b9b0b6b4aa37b5b2b760b11b815250604051806040016040528060058152602001644153414d4960d81b815250620000c6620000c06200011c60201b60201c565b62000120565b6004620000d483826200026a565b506005620000e382826200026a565b5050601280546001600160a01b039485166001600160a01b03199182161790915560068054939094169216919091179091555062000336565b3390565b600080546001600160a01b038381166001600160a01b0319831681178455604051919092169283917f8be0079c531659141344cd1fd0a4f28419497f9722a3daafe3b4186f6b6457e09190a35050565b80516001600160a01b03811681146200018857600080fd5b919050565b60008060408385031215620001a157600080fd5b620001ac8362000170565b9150620001bc6020840162000170565b90509250929050565b634e487b7160e01b600052604160045260246000fd5b600181811c90821680620001f057607f821691505b6020821081036200021157634e487b7160e01b600052602260045260246000fd5b50919050565b601f8211156200026557600081815260208120601f850160051c81016020861015620002405750805b601f850160051c820191505b8181101562000261578281556001016200024c565b5050505b505050565b81516001600160401b03811115620002865762000286620001c5565b6200029e81620002978454620001db565b8462000217565b602080601f831160018114620002d65760008415620002bd5750858301515b600019600386901b1c1916600185901b17855562000261565b600085815260208120601f198616915b828110156200030757888601518255948401946001909101908401620002e6565b5085821015620003265787850151600019600388901b60f8161c191681555b5050505050600190811b01905550565b61502780620003466000396000f3fe608060405234801561001057600080fd5b50600436106102f55760003560e01c8062f84a36146102fa57806306fdde031461030f578063095ea7b31461032d57806313e9da5114610350578063141961bc1461036757806318160ddd1461038e57806318d9adab146103965780631aa4bf35146103a95780631b430983146103b257806323b872dd146103dd57806325076468146103f05780632a11ced0146103f957806330370ba01461040c578063313ce5671461042c57806333c24bd31461043b578063378a21781461044e578063378f448f1461045657806339509351146104695780633c4fa48a1461047c5780633ca75e56146104855780633eaf7591146104985780634259d8a2146104ab57806346c33dd5146104b4578063479b563a146104c75780634969a969146104d057806354218cd8146104d957806358cea7d2146104e25780635df81330146104f55780636717d7a8146105085780636d5433e61461052857806370a082311461053b578063715018a61461054e57806379dec48b146105565780637ae2b5c71461055e5780637d98e20f146105715780637dfed63b146105975780638202c073146105bb5780638b69633d146105ce5780638da5cb5b146105e15780638e1e6de2146105e957806395d89b41146105f157806396cad0db146105f9578063978bbdb91461060c57806398435ee0146106155780639938e92914610635578063995a666314610648578063a091a8701461065b578063a457c2d71461066e578063a9059cbb14610681578063ae2e933b14610694578063b448e95c1461069d578063be26ed7f146106a6578063c08b8f3d146106ae578063c4890d05146106c1578063c4ac65b7146106ca578063c55b6bb7146106dd578063d0b0ce95146106f0578063dd62ed3e146106f8578063f1a12cbc1461070b578063f2a40db814610714578063f2fde38b146107a0578063f7d97577146107b3578063f851a440146107c6578063fdb265b0146107d9578063fe95e88614610801578063fee0117714610814575b600080fd5b61030d610308366004613976565b610829565b005b610317610a43565b6040516103249190613a56565b60405180910390f35b61034061033b366004613a85565b610ad5565b6040519015158152602001610324565b610359601f5481565b604051908152602001610324565b61037a610375366004613aaf565b610aef565b604051610324989796959493929190613b00565b600354610359565b6103176103a4366004613aaf565b610bd3565b610359601a5481565b6006546103c5906001600160a01b031681565b6040516001600160a01b039091168152602001610324565b6103406103eb366004613b51565b610c7f565b61035960175481565b6103c5610407366004613aaf565b610ca3565b61035961041a366004613aaf565b600c6020526000908152604090205481565b60405160128152602001610324565b610359610449366004613aaf565b610ccd565b61030d610cee565b61030d610464366004613b9b565b610e07565b610340610477366004613a85565b610ed9565b61035960215481565b61030d610493366004613c0f565b610efb565b61030d6104a6366004613aaf565b611062565b6213c680610359565b61030d6104c2366004613c0f565b611128565b610359601b5481565b61035960195481565b610359601e5481565b61030d6104f0366004613c0f565b611238565b610359610503366004613aaf565b61139f565b610359610516366004613c50565b60096020526000908152604090205481565b610359610536366004613c6b565b6113af565b610359610549366004613c50565b6113c7565b61030d6113e2565b6103596113f6565b61035961056c366004613c6b565b611413565b61058461057f366004613aaf565b611428565b6040516103249796959493929190613c8d565b6105aa6105a5366004613aaf565b611502565b604051610324959493929190613cd2565b61030d6105c9366004613d05565b6115d0565b6103406105dc366004613e44565b611659565b6103c56116f5565b61030d611704565b6103176118be565b6015546103c5906001600160a01b031681565b610359601d5481565b610359610623366004613aaf565b60106020526000908152604090205481565b61030d610643366004613ea7565b6118cd565b61030d610656366004613f1b565b612090565b61030d610669366004613fc4565b612204565b61034061067c366004613a85565b6126c3565b61034061068f366004613a85565b61273e565b61035960165481565b61035960205481565b61035961274c565b61030d6106bc366004613c6b565b61275b565b610359601c5481565b61030d6106d836600461402f565b612807565b61030d6106eb366004614064565b61287e565b61030d6128b4565b610359610706366004614064565b612a51565b61035960185481565b610767610722366004613aaf565b6008602052600090815260409020805460018201546002830154600384015460049094015492936001600160a01b039092169290919060ff8082169161010090041686565b604080519687526001600160a01b03909516602087015293850192909252606084015215156080830152151560a082015260c001610324565b61030d6107ae366004613c50565b612a7c565b61030d6107c1366004613c6b565b612af5565b6014546103c5906001600160a01b031681565b6107ec6107e7366004613aaf565b612b83565b6040516103249998979695949392919061408e565b61030d61080f366004613c0f565b612cf5565b61081c612e28565b60405161032491906140f5565b6000600e61083860018b61416d565b8154811061084857610848614180565b906000526020600020906007020190506203f48081600601548561086c919061416d565b1061087657600080fd5b6006546040516302dc501f60e21b81526001600160a01b0390911690630b71407c906108ad9060058501908a908a90600401614270565b602060405180830381865afa1580156108ca573d6000803e3d6000fd5b505050506040513d601f19601f820116820180604052508101906108ee91906142a0565b6108f757600080fd5b6000600a6001836001015461090c919061416d565b8154811061091c5761091c614180565b60009182526020909120600a909102019050600160028083015460ff169081111561094957610949613ac8565b1461095357600080fd5b60018101546000908152600860205260409020805461097157600080fd5b600660009054906101000a90046001600160a01b03166001600160a01b0316630d9e0f38836007018c8c8c8c8c89600801548a600901548e8e6040518b63ffffffff1660e01b81526004016109cf9a999897969594939291906142bd565b60006040518083038186803b1580156109e757600080fd5b505afa1580156109fb573d6000803e3d6000fd5b50505060048201805461ff00191661010017905550604051600080516020614f3283398151915290610a2e908490614369565b60405180910390a15050505050505050505050565b606060048054610a5290614196565b80601f0160208091040260200160405190810160405280929190818152602001828054610a7e90614196565b8015610acb5780601f10610aa057610100808354040283529160200191610acb565b820191906000526020600020905b815481529060010190602001808311610aae57829003601f168201915b5050505050905090565b600033610ae3818585612f01565b60019150505b92915050565b600d8181548110610aff57600080fd5b6000918252602090912060099091020180546001820154600283015460038401546004850154600586018054959750939560ff909316949193909291610b4490614196565b80601f0160208091040260200160405190810160405280929190818152602001828054610b7090614196565b8015610bbd5780601f10610b9257610100808354040283529160200191610bbd565b820191906000526020600020905b815481529060010190602001808311610ba057829003601f168201915b5050505050908060060154908060080154905088565b60118181548110610be357600080fd5b906000526020600020016000915090508054610bfe90614196565b80601f0160208091040260200160405190810160405280929190818152602001828054610c2a90614196565b8015610c775780601f10610c4c57610100808354040283529160200191610c77565b820191906000526020600020905b815481529060010190602001808311610c5a57829003601f168201915b505050505081565b600033610c8d858285613025565b610c98858585613099565b506001949350505050565b60138181548110610cb357600080fd5b6000918252602090912001546001600160a01b0316905081565b60078181548110610cdd57600080fd5b600091825260209091200154905081565b601f54600003610d2157600f54601e819055601f556000610d0d61274c565b90506020548103610d1d57600080fd5b6020555b6000601f54601e54610d33919061416d565b90506000610d4d610d4583606461441c565b601e54611413565b90506000825b82811015610d9857600f8181548110610d6e57610d6e614180565b906000526020600020015482610d84919061441c565b915080610d908161442f565b915050610d53565b50818184602154610da99190614448565b610db3919061441c565b610dbd919061445f565b60218190555081601f6000828254610dd5919061416d565b9091555050601f54600003610e025760218054601d556000601e81905590819055610e0290600f90613790565b505050565b6000600a610e1660018561416d565b81548110610e2657610e26614180565b60009182526020808320338452600982526040808520548552600890925292206001810154600a90920290920192506001600160a01b0316610e6757600080fd5b6001820154815414610e7857600080fd5b600160028084015460ff1690811115610e9357610e93613ac8565b14610e9d57600080fd5b60048101805460ff1916841515179055604051600080516020614f3283398151915290610ecb908490614369565b60405180910390a150505050565b600033610ae3818585610eec8383612a51565b610ef6919061441c565b612f01565b60005b81811015610e02576000600d6001858585818110610f1e57610f1e614180565b90506020020135610f2f919061416d565b81548110610f3f57610f3f614180565b906000526020600020906009020190506000816000015411610f6057600080fd5b6000816004015411610f7157600080fd5b42816008015410610f8157600080fd5b6001808201546000908152600860205260409081902060125492810154600480860154935163a9059cbb60e01b815292946001600160a01b039081169463a9059cbb94610fd49490921692909101614481565b6020604051808303816000875af1158015610ff3573d6000803e3d6000fd5b505050506040513d601f19601f8201168201806040525081019061101791906142a0565b61102057600080fd5b60006004830155604051600080516020614ef28339815191529061104590849061449a565b60405180910390a15050808061105a9061442f565b915050610efe565b61106d6032826113af565b336000908152600960209081526040808320548352600890915290206001810154919250906001600160a01b03166110a457600080fd5b80546000908152601060205260408120549081900361110357600f80546001810182557f8d1108e10bcb7c27dddfc02ed9d693a074039d026cf4ea4240b40f7d581ac80201849055548254600090815260106020526040902055505050565b82600f828154811061111757611117614180565b600091825260209091200155505050565b3360009081526009602090815260408083205483526008909152902060018101546001600160a01b031661115b57600080fd5b60005b8281101561123257600084848381811061117a5761117a614180565b905060200281019061118c9190614535565b6111959061460a565b905061121f83604051806101200160405280600d8054905060016111b9919061441c565b815286546020820152845160409091019060028111156111db576111db613ac8565b815260200184602001518152602001846020015181526020018460400151815260200184606001518152602001846080015181526020018460a0015181525061323d565b508061122a8161442f565b91505061115e565b50505050565b6014546001600160a01b031633148061126957506112546116f5565b6001600160a01b0316336001600160a01b0316145b61127257600080fd5b60005b81811015610e0257600083838381811061129157611291614180565b90506020028101906112a39190614616565b6112ac9061462c565b90506112bb816000015161343d565b8051600090815260086020526040902060018101546001600160a01b0316156112e357600080fd5b61138a81604051806101200160405280600d805490506001611305919061441c565b815260200184600001548152602001856020015160000151600281111561132e5761132e613ac8565b815260200185602001516020015181526020018560200151602001518152602001856020015160400151815260200185602001516060015181526020018560200151608001518152602001856020015160a0015181525061323d565b505080806113979061442f565b915050611275565b600f8181548110610cdd57600080fd5b60008183116113be57816113c0565b825b9392505050565b6001600160a01b031660009081526001602052604090205490565b6113ea613494565b6113f460006134f3565b565b60006213c68061140461274c565b61140e919061441c565b905090565b600081831161142257826113c0565b50919050565b600e818154811061143857600080fd5b906000526020600020906007020160009150905080600001549080600101549080600201549080600301549080600401549080600501805461147990614196565b80601f01602080910402602001604051908101604052809291908181526020018280546114a590614196565b80156114f25780601f106114c7576101008083540402835291602001916114f2565b820191906000526020600020905b8154815290600101906020018083116114d557829003601f168201915b5050505050908060060154905087565b600b818154811061151257600080fd5b906000526020600020906006020160009150905080600001549080600101549080600201805461154190614196565b80601f016020809104026020016040519081016040528092919081815260200182805461156d90614196565b80156115ba5780601f1061158f576101008083540402835291602001916115ba565b820191906000526020600020905b81548152906001019060200180831161159d57829003601f168201915b5050505050908060030154908060040154905085565b6014546001600160a01b031633148061160157506115ec6116f5565b6001600160a01b0316336001600160a01b0316145b61160a57600080fd5b600061161585613543565b60048101859055905061162c6005820184846137ae565b50600080516020614f128339815191528160405161164a9190614696565b60405180910390a15050505050565b6000805b82518110156116eb576000805b85518110156116c75785818151811061168557611685614180565b602002602001015185848151811061169f5761169f614180565b6020026020010151036116b557600191506116c7565b806116bf8161442f565b91505061166a565b50806116d857600092505050610ae9565b50806116e38161442f565b91505061165d565b5060019392505050565b6000546001600160a01b031690565b601a5460000361173757600b54601b819055601a55600061172361274c565b9050601c54810361173357600080fd5b601c555b6000601a54601b54611749919061416d565b90506000601b5482606461175d919061441c565b111561176b57601b54611776565b61177682606461441c565b9050815b8181101561188c576000600b828154811061179757611797614180565b906000526020600020906006020190506000600a600183600101546117bc919061416d565b815481106117cc576117cc614180565b90600052602060002090600a0201905060008260020180546117ed90614196565b9050111561180857600681016118066002840182614763565b505b60038201541561181d57600380830154908201555b60048201541561183257600480830154908201555b600582015415611852576005808301805461185092840191906137f9565b505b600080516020614f328339815191528160405161186f9190614369565b60405180910390a1505080806118849061442f565b91505061177a565b5080601a600082825461189f919061416d565b9091555050601a546000036118ba576118ba600b6000613839565b5050565b606060058054610a5290614196565b6014546001600160a01b03163314806118fe57506118e96116f5565b6001600160a01b0316336001600160a01b0316145b61190757600080fd5b60005b81811015610e02576000600a600185858581811061192a5761192a614180565b9050604002016020013561193e919061416d565b8154811061194e5761194e614180565b90600052602060002090600a02019050600081600001541161199b5760405162461bcd60e51b81526020600482015260016024820152603160f81b60448201526064015b60405180910390fd5b60018082015460009081526008602052604090209060028084015460ff16908111156119c9576119c9613ac8565b1415806119f05750600481015460ff161580156119f057506004810154610100900460ff16155b611a205760405162461bcd60e51b81526020600482015260016024820152601960f91b6044820152606401611992565b6000600d6001878787818110611a3857611a38614180565b90506040020160000135611a4c919061416d565b81548110611a5c57611a5c614180565b906000526020600020906009020190506000816000015411611aa45760405162461bcd60e51b81526020600482015260016024820152603360f81b6044820152606401611992565b42816008015411611adb5760405162461bcd60e51b81526020600482015260016024820152600d60fa1b6044820152606401611992565b611b8983600501805480602002602001604051908101604052809291908181526020018280548015611b2c57602002820191906000526020600020905b815481526020019060010190808311611b18575b505050505082600701805480602002602001604051908101604052809291908181526020018280548015611b7f57602002820191906000526020600020905b815481526020019060010190808311611b6b575b5050505050611659565b611bb95760405162461bcd60e51b81526020600482015260016024820152603560f81b6044820152606401611992565b8260030154816004015411611bf45760405162461bcd60e51b81526020600482015260016024820152601b60f91b6044820152606401611992565b60028084015460ff1690811115611c0d57611c0d613ac8565b60028083015460ff1690811115611c2657611c26613ac8565b14611c575760405162461bcd60e51b81526020600482015260016024820152603760f81b6044820152606401611992565b806006015483600401548460030154611c70919061445f565b1115611ca25760405162461bcd60e51b81526020600482015260016024820152600760fb1b6044820152606401611992565b600181015460009081526008602052604081206003850154601d5491929091606490611cce9084614448565b611cd8919061445f565b90506000611ce6828461416d565b905060006040518060e00160405280600e805490506001611d07919061441c565b8152895460208083019190915288546040808401919091526060808401899052608080850189905282518085018452600080825260a0808801929092524260c090970196909652600e8054600181018255965286516007909602600080516020614e72833981519152810196875594870151600080516020614e9283398151915286015592860151600080516020614eb283398151915285015590850151600080516020614ed2833981519152840155840151600080516020614fd28339815191528301558301519293508392600080516020614f9283398151915290910190611df19082614839565b5060c0919091015160069091015580516007880180546001810182556000918252602082200191909155600487018054869290611e2f90849061416d565b925050819055508260166000828254611e48919061441c565b90915550600090506064611e5d85604b614448565b611e67919061445f565b905060006064611e7886600f614448565b611e82919061445f565b9050600081611e91848861416d565b611e9b919061416d565b601554909150611eb4906001600160a01b03168461360d565b60018a01546001600160a01b0316611f2557818a6002016000828254611eda919061441c565b92505081905550848a6003016000828254611ef5919061441c565b9091555050604051600080516020614f5283398151915290611f18908c906148f0565b60405180910390a1611fba565b60018a0154611f3d906001600160a01b03168361360d565b60125460018b015460405163a9059cbb60e01b81526001600160a01b039283169263a9059cbb92611f75929116908990600401614481565b6020604051808303816000875af1158015611f94573d6000803e3d6000fd5b505050506040513d601f19601f82011682018060405250810190611fb891906142a0565b505b60018801546001600160a01b03166120105780886002016000828254611fe0919061441c565b9091555050604051600080516020614f5283398151915290612003908a906148f0565b60405180910390a1612028565b6001880154612028906001600160a01b03168261360d565b600080516020614fb28339815191528460405161204591906149a9565b60405180910390a1600080516020614ef28339815191528960405161206a919061449a565b60405180910390a1505050505050505050505080806120889061442f565b91505061190a565b6014546001600160a01b03163314806120c157506120ac6116f5565b6001600160a01b0316336001600160a01b0316145b6120ca57600080fd5b6120d38261343d565b600082815260086020526040902060018101546001600160a01b0316156120f957600080fd5b6001600160a01b03821660008181526009602052604090208490556001820180546001600160a01b03191690911790556002810154156121495761214182826002015461360d565b600060028201555b6003810154156121da576012546001820154600383015460405163a9059cbb60e01b81526001600160a01b039384169363a9059cbb9361218e93911691600401614481565b6020604051808303816000875af11580156121ad573d6000803e3d6000fd5b505050506040513d601f19601f820116820180604052508101906121d191906142a0565b50600060038201555b600080516020614f52833981519152816040516121f791906148f0565b60405180910390a1505050565b6000600a61221360018961416d565b8154811061222357612223614180565b600091825260208083206001600a909302018281015484526008909152604090922090810154919250906001600160a01b031661225f57600080fd5b600160028084015460ff169081111561227a5761227a613ac8565b1461228457600080fd5b600481015460ff1661229557600080fd5b6004810154610100900460ff16156122ac57600080fd5b6000600d6122bb60018a61416d565b815481106122cb576122cb614180565b906000526020600020906009020190506000600860008360010154815260200190815260200160002090506000600660009054906101000a90046001600160a01b03166001600160a01b031663e224d97a86600701856005018c8c8a600801548b600901548e8e6040518963ffffffff1660e01b8152600401612355989796959493929190614a0e565b600060405180830381865afa158015612372573d6000803e3d6000fd5b505050506040513d6000823e601f3d908101601f1916820160405261239a9190810190614a76565b9050600085600301549050600060646003601d546123b8919061445f565b6123c29084614448565b6123cc919061445f565b905060006123da828461416d565b905060006040518060e00160405280600e8054905060016123fb919061441c565b81528a5460208083019190915289546040808401919091526060808401899052608080850189905260a08086018c90524260c090960195909552600e805460018101825560009190915286516007909102600080516020614e72833981519152810191825594870151600080516020614e9283398151915286015592860151600080516020614eb283398151915285015590850151600080516020614ed2833981519152840155840151600080516020614fd2833981519152830155918301519293508392600080516020614f92833981519152909101906124dd9082614839565b5060c091909101516006909101558051600789018054600181018255600091825260208220019190915560048801805486929061251b90849061416d565b925050819055508260166000828254612534919061441c565b9091555060009050606461254985603c614448565b612553919061445f565b90506000612561828661416d565b60018b015490915061257c906001600160a01b03168361360d565b60125460018b015460405163a9059cbb60e01b81526001600160a01b039283169263a9059cbb926125b4929116908890600401614481565b6020604051808303816000875af11580156125d3573d6000803e3d6000fd5b505050506040513d601f19601f820116820180604052508101906125f791906142a0565b5060018801546001600160a01b031661264e578088600201600082825461261e919061441c565b9091555050604051600080516020614f5283398151915290612641908a906148f0565b60405180910390a1612666565b6001880154612666906001600160a01b03168261360d565b600080516020614fb28339815191528360405161268391906149a9565b60405180910390a1600080516020614ef2833981519152896040516126a8919061449a565b60405180910390a15050505050505050505050505050505050565b600033816126d18286612a51565b9050838110156127315760405162461bcd60e51b815260206004820152602560248201527f45524332303a2064656372656173656420616c6c6f77616e63652062656c6f77604482015264207a65726f60d81b6064820152608401611992565b610c988286868403612f01565b600033610ae3818585613099565b600061140e6213c6804261445f565b6014546001600160a01b031633148061278c57506127776116f5565b6001600160a01b0316336001600160a01b0316145b61279557600080fd5b6000600a6127a460018561416d565b815481106127b4576127b4614180565b600091825260208083206001600a909302018281015484526008909152604090922090810154919250906001600160a01b03161580156127f45750805415155b6127fd57600080fd5b6112328284613624565b6014546001600160a01b031633148061283857506128236116f5565b6001600160a01b0316336001600160a01b0316145b61284157600080fd5b601180546001810182556000919091527f31ecc21a745e3968a04e9570e4425bc18fa8019c68028196b546d1669c200c6801610e02828483614ae3565b612886613494565b601480546001600160a01b039384166001600160a01b03199182161790915560158054929093169116179055565b60006128bf60035490565b90506017546000036128f457601354601881905560175560006128e061274c565b905060195481036128f057600080fd5b6019555b6000601754601854612906919061416d565b9050600060175482606461291a919061441c565b111561292857601754612933565b61293382606461441c565b9050815b81811015612a255760006013828154811061295457612954614180565b60009182526020822001546001600160a01b03169150612973826113c7565b9050600086601654836129869190614448565b612990919061445f565b60125460405163a9059cbb60e01b81529192506001600160a01b03169063a9059cbb906129c39086908590600401614481565b6020604051808303816000875af11580156129e2573d6000803e3d6000fd5b505050506040513d601f19601f82011682018060405250810190612a0691906142a0565b612a0f57600080fd5b5050508080612a1d9061442f565b915050612937565b508060176000828254612a38919061416d565b9091555050601754600003610e02576000601655505050565b6001600160a01b03918216600090815260026020908152604080832093909416825291909152205490565b612a84613494565b6001600160a01b038116612ae95760405162461bcd60e51b815260206004820152602660248201527f4f776e61626c653a206e6577206f776e657220697320746865207a65726f206160448201526564647265737360d01b6064820152608401611992565b612af2816134f3565b50565b3360009081526009602090815260408083205483526008909152902060018101546001600160a01b0316612b2857600080fd5b6000600a612b3760018661416d565b81548110612b4757612b47614180565b90600052602060002090600a020190506000816000015411612b6857600080fd5b8154600182015414612b7957600080fd5b6112328184613624565b600a8181548110612b9357600080fd5b60009182526020909120600a9091020180546001820154600283015460038401546004850154600686018054959750939560ff909316949193909291612bd890614196565b80601f0160208091040260200160405190810160405280929190818152602001828054612c0490614196565b8015612c515780601f10612c2657610100808354040283529160200191612c51565b820191906000526020600020905b815481529060010190602001808311612c3457829003601f168201915b505050505090806007018054612c6690614196565b80601f0160208091040260200160405190810160405280929190818152602001828054612c9290614196565b8015612cdf5780601f10612cb457610100808354040283529160200191612cdf565b820191906000526020600020905b815481529060010190602001808311612cc257829003601f168201915b5050505050908060080154908060090154905089565b6014546001600160a01b0316331480612d265750612d116116f5565b6001600160a01b0316336001600160a01b0316145b612d2f57600080fd5b60005b81811015610e0257612d6a838383818110612d4f57612d4f614180565b9050602002810190612d619190614b9c565b6020013561343d565b600a838383818110612d7e57612d7e614180565b9050602002810190612d909190614b9c565b8154600181018355600092835260209092209091600a0201612db28282614d03565b5050600a805460009190612dc89060019061416d565b81548110612dd857612dd8614180565b60009182526020909120600a8054920201908155604051909150600080516020614f3283398151915290612e0d908390614369565b60405180910390a15080612e208161442f565b915050612d32565b60606011805480602002602001604051908101604052809291908181526020016000905b82821015612ef8578382906000526020600020018054612e6b90614196565b80601f0160208091040260200160405190810160405280929190818152602001828054612e9790614196565b8015612ee45780601f10612eb957610100808354040283529160200191612ee4565b820191906000526020600020905b815481529060010190602001808311612ec757829003601f168201915b505050505081526020019060010190612e4c565b50505050905090565b6001600160a01b038316612f635760405162461bcd60e51b8152602060048201526024808201527f45524332303a20617070726f76652066726f6d20746865207a65726f206164646044820152637265737360e01b6064820152608401611992565b6001600160a01b038216612fc45760405162461bcd60e51b815260206004820152602260248201527f45524332303a20617070726f766520746f20746865207a65726f206164647265604482015261737360f01b6064820152608401611992565b6001600160a01b0383811660008181526002602090815260408083209487168084529482529182902085905590518481527f8c5be1e5ebec7d5bd14f71427d1e84f3dd0314c0f7b2291e5b200ac8c7c3b925910160405180910390a3505050565b60006130318484612a51565b90506000198114611232578181101561308c5760405162461bcd60e51b815260206004820152601d60248201527f45524332303a20696e73756666696369656e7420616c6c6f77616e63650000006044820152606401611992565b6112328484848403612f01565b6001600160a01b0383166130fd5760405162461bcd60e51b815260206004820152602560248201527f45524332303a207472616e736665722066726f6d20746865207a65726f206164604482015264647265737360d81b6064820152608401611992565b6001600160a01b03821661315f5760405162461bcd60e51b815260206004820152602360248201527f45524332303a207472616e7366657220746f20746865207a65726f206164647260448201526265737360e81b6064820152608401611992565b61316a838383613668565b6001600160a01b038316600090815260016020526040902054818110156131e25760405162461bcd60e51b815260206004820152602660248201527f45524332303a207472616e7366657220616d6f756e7420657863656564732062604482015265616c616e636560d01b6064820152608401611992565b6001600160a01b038085166000818152600160205260408082208686039055928616808252908390208054860190559151600080516020614f72833981519152906132309086815260200190565b60405180910390a3611232565b600081606001511161324e57600080fd5b60008160a00151511161326057600080fd5b60125460608201516040516323b872dd60e01b815233600482015230602482015260448101919091526001600160a01b03909116906323b872dd906064016020604051808303816000875af11580156132bd573d6000803e3d6000fd5b505050506040513d601f19601f820116820180604052508101906132e191906142a0565b6132ea57600080fd5b600d805460018181018355600092909252825160099091027fd7b6990105719101dabeb77144f2a3385c8033acd3af97e9423a695e81ad1eb5810191825560208401517fd7b6990105719101dabeb77144f2a3385c8033acd3af97e9423a695e81ad1eb682015560408401517fd7b6990105719101dabeb77144f2a3385c8033acd3af97e9423a695e81ad1eb79091018054859460ff199091169083600281111561339757613397613ac8565b0217905550606082015160038201556080820151600482015560a082015160058201906133c49082614839565b5060c0820151600682015560e082015180516133ea91600784019160209091019061385a565b5061010091909101516008909101558051600683018054600181018255600091825260209091200155604051600080516020614ef283398151915290613431908390614dde565b60405180910390a15050565b6000818152600860205260408120549003612af25760008181526008602052604081208290556007805460018101825591527fa66cc928b5edb82af9bd49922954155ab7b0942694bea4ce44661d9a8736c6880155565b3361349d6116f5565b6001600160a01b0316146113f45760405162461bcd60e51b815260206004820181905260248201527f4f776e61626c653a2063616c6c6572206973206e6f7420746865206f776e65726044820152606401611992565b600080546001600160a01b038381166001600160a01b0319831681178455604051919092169283917f8be0079c531659141344cd1fd0a4f28419497f9722a3daafe3b4186f6b6457e09190a35050565b6000601a5460001461355457600080fd5b6000828152600c6020526040902054801561359c57600b61357660018361416d565b8154811061358657613586614180565b9060005260206000209060060201915050919050565b5050600b805460018101918290556006027f0175b7a638427703f0dbe7bb9bbf987a2551717b34e79f33b5b1008d1fa01db981018281557f0175b7a638427703f0dbe7bb9bbf987a2551717b34e79f33b5b1008d1fa01dba9091018390556000928352600c60205260409092205590565b6017541561361a57600080fd5b6118ba82826136d5565b6000811161363157600080fd5b60006136408360000154613543565b9050818160030181905550600080516020614f12833981519152816040516121f79190614696565b613671826113c7565b15801561367e5750600081115b15610e0257601380546001810182556000919091527f66de8ffda797e3de9c05e8fc57b3bf0ec28a930d40b0d285d93c06501cf6a0900180546001600160a01b0384166001600160a01b0319909116179055505050565b6001600160a01b03821661372b5760405162461bcd60e51b815260206004820152601f60248201527f45524332303a206d696e7420746f20746865207a65726f2061646472657373006044820152606401611992565b61373760008383613668565b8060036000828254613749919061441c565b90915550506001600160a01b038216600081815260016020908152604080832080548601905551848152600080516020614f72833981519152910160405180910390a35050565b5080546000825590600052602060002090810190612af29190613895565b8280548282559060005260206000209081019282156137e9579160200282015b828111156137e95782358255916020019190600101906137ce565b506137f5929150613895565b5090565b8280548282559060005260206000209081019282156137e95760005260206000209182015b828111156137e957825482559160010191906001019061381e565b5080546000825560060290600052602060002090810190612af291906138aa565b8280548282559060005260206000209081019282156137e9579160200282015b828111156137e957825182559160200191906001019061387a565b5b808211156137f55760008155600101613896565b808211156137f5576000808255600182018190556138cb60028301826138f4565b600382016000905560048201600090556005820160006138eb9190613790565b506006016138aa565b50805461390090614196565b6000825580601f10613910575050565b601f016020900490600052602060002090810190612af29190613895565b60008083601f84011261394057600080fd5b5081356001600160401b0381111561395757600080fd5b60208301915083602082850101111561396f57600080fd5b9250929050565b60008060008060008060008060c0898b03121561399257600080fd5b8835975060208901356001600160401b03808211156139b057600080fd5b6139bc8c838d0161392e565b909950975060408b01359150808211156139d557600080fd5b506139e28b828c0161392e565b999c989b5096999698976060880135976080810135975060a0013595509350505050565b60005b83811015613a21578181015183820152602001613a09565b50506000910152565b60008151808452613a42816020860160208601613a06565b601f01601f19169290920160200192915050565b6020815260006113c06020830184613a2a565b80356001600160a01b0381168114613a8057600080fd5b919050565b60008060408385031215613a9857600080fd5b613aa183613a69565b946020939093013593505050565b600060208284031215613ac157600080fd5b5035919050565b634e487b7160e01b600052602160045260246000fd5b60038110613afc57634e487b7160e01b600052602160045260246000fd5b9052565b60006101008a8352896020840152613b1b604084018a613ade565b8760608401528660808401528060a0840152613b3981840187613a2a565b60c0840195909552505060e001529695505050505050565b600080600060608486031215613b6657600080fd5b613b6f84613a69565b9250613b7d60208501613a69565b9150604084013590509250925092565b8015158114612af257600080fd5b60008060408385031215613bae57600080fd5b823591506020830135613bc081613b8d565b809150509250929050565b60008083601f840112613bdd57600080fd5b5081356001600160401b03811115613bf457600080fd5b6020830191508360208260051b850101111561396f57600080fd5b60008060208385031215613c2257600080fd5b82356001600160401b03811115613c3857600080fd5b613c4485828601613bcb565b90969095509350505050565b600060208284031215613c6257600080fd5b6113c082613a69565b60008060408385031215613c7e57600080fd5b50508035926020909101359150565b87815286602082015285604082015284606082015283608082015260e060a08201526000613cbe60e0830185613a2a565b90508260c083015298975050505050505050565b85815284602082015260a060408201526000613cf160a0830186613a2a565b606083019490945250608001529392505050565b60008060008060608587031215613d1b57600080fd5b843593506020850135925060408501356001600160401b03811115613d3f57600080fd5b613d4b87828801613bcb565b95989497509550505050565b634e487b7160e01b600052604160045260246000fd5b60405160c081016001600160401b0381118282101715613d8f57613d8f613d57565b60405290565b604051601f8201601f191681016001600160401b0381118282101715613dbd57613dbd613d57565b604052919050565b600082601f830112613dd657600080fd5b813560206001600160401b03821115613df157613df1613d57565b8160051b613e00828201613d95565b9283528481018201928281019087851115613e1a57600080fd5b83870192505b84831015613e3957823582529183019190830190613e20565b979650505050505050565b60008060408385031215613e5757600080fd5b82356001600160401b0380821115613e6e57600080fd5b613e7a86838701613dc5565b93506020850135915080821115613e9057600080fd5b50613e9d85828601613dc5565b9150509250929050565b60008060208385031215613eba57600080fd5b82356001600160401b0380821115613ed157600080fd5b818501915085601f830112613ee557600080fd5b813581811115613ef457600080fd5b8660208260061b8501011115613f0957600080fd5b60209290920196919550909350505050565b60008060408385031215613f2e57600080fd5b82359150613f3e60208401613a69565b90509250929050565b60006001600160401b03821115613f6057613f60613d57565b50601f01601f191660200190565b600082601f830112613f7f57600080fd5b8135613f92613f8d82613f47565b613d95565b818152846020838601011115613fa757600080fd5b816020850160208301376000918101602001919091529392505050565b60008060008060008060c08789031215613fdd57600080fd5b863595506020870135945060408701356001600160401b0381111561400157600080fd5b61400d89828a01613f6e565b945050606087013592506080870135915060a087013590509295509295509295565b6000806020838503121561404257600080fd5b82356001600160401b0381111561405857600080fd5b613c448582860161392e565b6000806040838503121561407757600080fd5b61408083613a69565b9150613f3e60208401613a69565b60006101208b83528a60208401526140a9604084018b613ade565b8860608401528760808401528060a08401526140c781840188613a2a565b905082810360c08401526140db8187613a2a565b60e084019590955250506101000152979650505050505050565b6000602080830181845280855180835260408601915060408160051b870101925083870160005b8281101561414a57603f19888603018452614138858351613a2a565b9450928501929085019060010161411c565b5092979650505050505050565b634e487b7160e01b600052601160045260246000fd5b81810381811115610ae957610ae9614157565b634e487b7160e01b600052603260045260246000fd5b600181811c908216806141aa57607f821691505b60208210810361142257634e487b7160e01b600052602260045260246000fd5b600081546141d781614196565b8085526020600183811680156141f4576001811461420e5761423c565b60ff1985168884015283151560051b88018301955061423c565b866000528260002060005b858110156142345781548a8201860152908301908401614219565b890184019650505b505050505092915050565b81835281816020850137506000828201602090810191909152601f909101601f19169091010190565b60408152600061428360408301866141ca565b8281036020840152614296818587614247565b9695505050505050565b6000602082840312156142b257600080fd5b81516113c081613b8d565b60006101008083526142d18184018e6141ca565b905082810360208401526142e6818c8e614247565b905082810360408401526142fb818a8c614247565b60608401989098525050608081019490945260a084019290925260c083015260e09091015295945050505050565b6000815480845260208085019450836000528060002060005b8381101561435e57815487529582019560019182019101614342565b509495945050505050565b602081528154602082015260018201546040820152600061438e600284015460ff1690565b61439b6060840182613ade565b5060038301546080830152600483015460a08301526101408060c08401526143ca610160840160058601614329565b601f19808583030160e08601526143e482600688016141ca565b91508085830301610100860152506143ff81600787016141ca565b600886015461012086015260099095015491909301525090919050565b80820180821115610ae957610ae9614157565b60006001820161444157614441614157565b5060010190565b8082028115828204841417610ae957610ae9614157565b60008261447c57634e487b7160e01b600052601260045260246000fd5b500490565b6001600160a01b03929092168252602082015260400190565b60208152815460208201526001820154604082015260006144bf600284015460ff1690565b6144cc6060840182613ade565b5060038301546080830152600483015460a08301526101208060c08401526144fb6101408401600586016141ca565b600685015460e0850152838103601f190161010085015261451f8160078701614329565b9050600885015482850152809250505092915050565b6000823560be1983360301811261454b57600080fd5b9190910192915050565b60038110612af257600080fd5b8035613a8081614555565b600060c0828403121561457f57600080fd5b614587613d6d565b905061459282614562565b81526020828101359082015260408201356001600160401b03808211156145b857600080fd5b6145c485838601613f6e565b60408401526060840135606084015260808401359150808211156145e757600080fd5b506145f484828501613dc5565b60808301525060a082013560a082015292915050565b6000610ae9368361456d565b60008235603e1983360301811261454b57600080fd5b60006040823603121561463e57600080fd5b604080519081016001600160401b03808211838310171561466157614661613d57565b8160405284358352602085013591508082111561467d57600080fd5b5061468a3682860161456d565b60208301525092915050565b60208152815460208201526001820154604082015260c0606082015260006146c460e08301600285016141ca565b60038401546080840152600484015460a0840152828103601f190160c08401526146f18160058601614329565b949350505050565b5b818110156118ba57600081556001016146fa565b601f821115610e0257806000526020600020601f840160051c810160208510156147355750805b614747601f850160051c8301826146f9565b5050505050565b600019600383901b1c191660019190911b1790565b81810361476e575050565b6147788254614196565b6001600160401b0381111561478f5761478f613d57565b6147a38161479d8454614196565b8461470e565b6000601f8211600181146147d157600083156147bf5750848201545b6147c9848261474e565b855550614747565b600085815260209020601f19841690600086815260209020845b8381101561480b57828601548255600195860195909101906020016147eb565b50858310156148295781850154600019600388901b60f8161c191681555b5050505050600190811b01905550565b81516001600160401b0381111561485257614852613d57565b6148608161479d8454614196565b602080601f83116001811461488f576000841561487d5750858301515b614887858261474e565b8655506148e8565b600085815260208120601f198616915b828110156148be5788860151825594840194600190910190840161489f565b50858210156148dc5787850151600019600388901b60f8161c191681555b505060018460011b0185555b505050505050565b6020815281546020820152600061491160018401546001600160a01b031690565b6001600160a01b031660408301526002830154606083015260038301546080830152600483015460ff808216151560a0850152600882901c16151560c0840152506101208060e084015261496c610140840160058601614329565b601f1980858303016101008601526149878260068801614329565b9150808583030183860152506149a08160078701614329565b95945050505050565b6020815281516020820152602082015160408201526040820151606082015260608201516080820152608082015160a0820152600060a083015160e060c08401526149f8610100840182613a2a565b905060c084015160e08401528091505092915050565b6000610100808352614a228184018c6141ca565b90508281036020840152614a36818b6141ca565b90508281036040840152614a4a818a613a2a565b60608401989098525050608081019490945260a084019290925260c083015260e0909101529392505050565b600060208284031215614a8857600080fd5b81516001600160401b03811115614a9e57600080fd5b8201601f81018413614aaf57600080fd5b8051614abd613f8d82613f47565b818152856020838501011115614ad257600080fd5b6149a0826020830160208601613a06565b6001600160401b03831115614afa57614afa613d57565b614b0e83614b088354614196565b8361470e565b6000601f841160018114614b3c5760008515614b2a5750838201355b614b34868261474e565b845550614747565b600083815260209020601f19861690835b82811015614b6d5786850135825560209485019460019092019101614b4d565b5086821015614b8a5760001960f88860031b161c19848701351681555b505060018560011b0183555050505050565b6000823561013e1983360301811261454b57600080fd5b60008135610ae981614555565b60038210614bde57634e487b7160e01b600052602160045260246000fd5b60ff1981541660ff831681178255505050565b6000808335601e19843603018112614c0857600080fd5b8301803591506001600160401b03821115614c2257600080fd5b6020019150600581901b360382131561396f57600080fd5b6001600160401b03831115614c5157614c51613d57565b600160401b831115614c6557614c65613d57565b805483825580841015614c8b57816000526020600020614c898282018683016146f9565b505b50818160005260208060002060005b86811015614cb45783358282015592820192600101614c9a565b50505050505050565b6000808335601e19843603018112614cd457600080fd5b8301803591506001600160401b03821115614cee57600080fd5b60200191503681900382131561396f57600080fd5b8135815560208201356001820155614d29614d2060408401614bb3565b60028301614bc0565b6060820135600382015560808201356004820155614d4a60a0830183614bf1565b614d58818360058601614c3a565b5050614d6760c0830183614cbd565b614d75818360068601614ae3565b5050614d8460e0830183614cbd565b614d92818360078601614ae3565b5050610100820135600882015561012082013560098201555050565b600081518084526020808501945080840160005b8381101561435e57815187529582019590820190600101614dc2565b60208152815160208201526020820151604082015260006040830151614e076060840182613ade565b5060608301516080830152608083015160a083015260a08301516101208060c0850152614e38610140850183613a2a565b915060c085015160e085015260e0850151610100601f198685030181870152614e618483614dae565b960151919094015250919291505056febb7b4a454dc3493923482f07822329ed19e8244eff582cc204f8554c3620c3fdbb7b4a454dc3493923482f07822329ed19e8244eff582cc204f8554c3620c3febb7b4a454dc3493923482f07822329ed19e8244eff582cc204f8554c3620c3ffbb7b4a454dc3493923482f07822329ed19e8244eff582cc204f8554c3620c400988cbfdf9710a9b89faec272f5e449b4eb56c67d8b31a40c3eec1f6b6cc544af5fec2c3deda50104f2a05317dee057b5944c230a7ccc2c95ed3b4f5c064d8e5d7170a8c13a0ec09eb2cc60e12bc4ad4b30635af27c32fd3c5c87802f65721e7fb1abe14dd3c958ed70ece94cbd936792522f4e0fc6571cc55102f4f3f63418e7ddf252ad1be2c89b69c2b068fc378daa952ba7f163c4a11628f55a4df523b3efbb7b4a454dc3493923482f07822329ed19e8244eff582cc204f8554c3620c402163f215ebbfd927d87234e39d082b1b03b551dadbca611aab6568ee11a75e8d7bb7b4a454dc3493923482f07822329ed19e8244eff582cc204f8554c3620c401a26469706673582212203fc2a8783f584ff9f5b7e585ebf39936388a408f48b4a25c992928c6c9c1417c64736f6c63430008130033",
  "immutableReferences": {},
  "source": "// SPDX-License-Identifier: MIT\npragma solidity ^0.8.9;\nimport \"@openzeppelin/contracts/token/ERC20/ERC20.sol\";\nimport \"@openzeppelin/contracts/access/Ownable.sol\";\nimport \"./NostrUtils.sol\";\n\ncontract Asami is Ownable, ERC20 {\n  NostrUtils public nostrUtils;\n\n  enum Site { X, Nostr, Instagram }\n\n  struct Account {\n    uint256 id;\n    address addr;\n    uint256 unclaimedAsamiTokens;\n    uint256 unclaimedDocRewards;\n    bool nostrSelfManaged;\n    bool nostrAbuseProven;\n    uint256[] handles;\n    uint256[] campaigns;\n    uint256[] collabs;\n  }\n  uint256[] public accountIds;\n  mapping(uint256 => Account) public accounts;\n  mapping(address => uint256) public accountIdByAddress;\n  event AccountSaved(Account account);\n\n  struct Handle {\n    uint256 id;\n    uint256 accountId;\n    Site site;\n    uint256 price;\n    uint256 score;\n    uint256[] topics;\n    string username;\n    string userId;\n    // Only when Site is Nostr.\n    uint256 nostrAffineX;\n    uint256 nostrAffineY;\n  }\n  Handle[] public handles;\n  event HandleSaved(Handle handle);\n\n  struct HandleUpdate {\n    uint256 id;\n    uint256 handleId;\n    string username;\n    uint256 price;\n    uint256 score;\n    uint256[] topics;\n  }\n  HandleUpdate[] public handleUpdates;\n  mapping(uint256 => uint256) public handleUpdateByHandleId;\n  event HandleUpdateSaved(HandleUpdate handleUpdate);\n\n  struct Campaign {\n    uint256 id;\n    uint256 accountId;\n    Site site;\n    uint256 budget;\n    uint256 remaining;\n    string contentId;\n    uint256 priceScoreRatio;\n    uint256[] topics;\n    uint256 validUntil;\n  }\n  Campaign[] public campaigns;\n  event CampaignSaved(Campaign campaign);\n\n  struct Collab {\n    uint256 id;\n    uint256 handleId;\n    uint256 campaignId;\n    uint256 gross;\n    uint256 fee;\n    string proof;\n    uint256 createdAt;\n  }\n  Collab[] public collabs;\n  event CollabSaved(Collab collab);\n\n  uint256[] public votes;\n  mapping(uint256 => uint256) public voteIdByAccountId;\n\n  string[] public topics;\n\n  IERC20 internal doc;\n  address[] public holders;\n\n  address public admin; // An address that may be stored on a server.\n  address public adminTreasury; // A cold storage address for admin money.\n\n  modifier onlyAdmin() {\n    require(msg.sender == admin || msg.sender == owner());\n    _;\n  }\n\n  constructor(address _dollarOnChainAddress, address _nostrUtilsAddress) ERC20(\"AsamiToken\", \"ASAMI\") {\n    doc = IERC20(_dollarOnChainAddress);\n    nostrUtils = NostrUtils(_nostrUtilsAddress);\n  }\n\n  function _beforeTokenTransfer(address from, address to, uint256 amount) internal override {\n    super._beforeTokenTransfer(from, to, amount);\n    if (balanceOf(to) == 0 && amount > 0) {\n      holders.push(to);\n    }\n  }\n\n  function setAdmin(address _admin, address _adminTreasury) external onlyOwner {\n    admin = _admin;\n    adminTreasury = _adminTreasury;\n  }\n\n  function getTopics() public view returns (string[] memory) {\n    return topics;\n  }\n\n  function addTopic(string calldata _name) public onlyAdmin {\n    topics.push(_name);\n  }\n\n  function ensureAccount(uint256 _accountId) private {\n    if(accounts[_accountId].id == 0) {\n      accounts[_accountId].id = _accountId;\n      accountIds.push(_accountId);\n    }\n  }\n\n  function claimAccount (\n    uint256 _accountId,\n    address _addr\n  ) public onlyAdmin {\n    ensureAccount(_accountId);\n\n    Account storage account = accounts[_accountId];\n    require(account.addr == address(0));\n\n    accountIdByAddress[_addr] = _accountId;\n    account.addr = _addr;\n\n    if(account.unclaimedAsamiTokens > 0) {\n      _safeMint(_addr, account.unclaimedAsamiTokens);\n      account.unclaimedAsamiTokens = 0;\n    }\n\n    if(account.unclaimedDocRewards > 0) {\n      doc.transfer(account.addr, account.unclaimedDocRewards);\n      account.unclaimedDocRewards = 0;\n    }\n\n    emit AccountSaved(account);\n  }\n\n  function adminMakeHandles (\n    Handle[] calldata _inputs\n  ) external onlyAdmin {\n\n    for( uint256 i = 0; i < _inputs.length; i++) {\n      ensureAccount(_inputs[i].accountId);\n\n      handles.push(_inputs[i]);\n      Handle storage h = handles[handles.length - 1];\n      h.id = handles.length;\n      emit HandleSaved(h);\n    }\n  }\n\n  struct CampaignInput {\n    Site site;\n    uint256 budget;\n    string contentId;\n    uint256 priceScoreRatio;\n    uint256[] topics;\n    uint256 validUntil;\n  }\n  function makeCampaigns(\n    CampaignInput[] calldata _inputs\n  ) public {\n    Account storage account = accounts[accountIdByAddress[msg.sender]];\n    require(account.addr != address(0));\n\n    for( uint i = 0; i < _inputs.length; i++) {\n      CampaignInput memory input = _inputs[i];\n      _saveCampaignHelper(account, Campaign({\n        id: campaigns.length + 1,\n        accountId: account.id,\n        site: input.site,\n        budget: input.budget,\n        remaining: input.budget,\n        contentId: input.contentId,\n        priceScoreRatio: input.priceScoreRatio,\n        topics: input.topics,\n        validUntil: input.validUntil\n      }));\n    }\n  }\n\n  struct AdminCampaignInput {\n    uint256 accountId;\n    CampaignInput attrs;\n  }\n\n  function adminMakeCampaigns(\n    AdminCampaignInput[] calldata _inputs\n  ) public onlyAdmin {\n\n    for( uint i = 0; i < _inputs.length; i++) {\n      AdminCampaignInput memory input = _inputs[i];\n      ensureAccount(input.accountId);\n      Account storage account = accounts[input.accountId];\n      require(account.addr == address(0));\n\n      _saveCampaignHelper(account, Campaign({\n        id: campaigns.length + 1,\n        accountId: account.id,\n        site: input.attrs.site,\n        budget: input.attrs.budget,\n        remaining: input.attrs.budget,\n        contentId: input.attrs.contentId,\n        priceScoreRatio: input.attrs.priceScoreRatio,\n        topics: input.attrs.topics,\n        validUntil: input.attrs.validUntil\n      }));\n    }\n  }\n\n  function _saveCampaignHelper(\n    Account storage _account,\n    Campaign memory _campaign\n  ) private {\n    require(_campaign.budget > 0);\n    require(bytes(_campaign.contentId).length > 0);\n    require(doc.transferFrom(msg.sender, address(this), _campaign.budget));\n\n    campaigns.push(_campaign);\n    _account.campaigns.push(_campaign.id);\n    emit CampaignSaved(_campaign);\n  }\n\n  struct AdminMakeCollabsInput {\n    uint256 campaignId;\n    uint256 handleId;\n  }\n\n  function adminMakeCollabs(AdminMakeCollabsInput[] calldata _collabs) external onlyAdmin {\n    for( uint256 i = 0; i < _collabs.length; i++) {\n      Handle storage handle = handles[_collabs[i].handleId - 1];\n      require(handle.id > 0, \"1\");\n      Account storage member = accounts[handle.accountId];\n\n      require(\n        handle.site != Site.Nostr ||\n        (!member.nostrSelfManaged && !member.nostrAbuseProven),\n        \"2\"\n      );\n\n      Campaign storage campaign = campaigns[_collabs[i].campaignId - 1];\n      require(campaign.id > 0, \"3\");\n      require(campaign.validUntil > block.timestamp, \"4\");\n      require(isSubset(handle.topics, campaign.topics), \"5\");\n\n      require(campaign.remaining > handle.price, \"6\");\n      require(campaign.site == handle.site, \"7\");\n      require((handle.price / handle.score) <= campaign.priceScoreRatio, \"8\");\n\n      Account storage advertiser = accounts[campaign.accountId];\n\n      uint256 gross = handle.price;\n      uint256 fee = (gross * feeRate) / 100;\n      uint256 reward = gross - fee;\n\n      Collab memory collab = Collab({\n        id: collabs.length + 1,\n        handleId: handle.id,\n        campaignId: campaign.id,\n        gross: gross,\n        fee: fee,\n        proof: \"\",\n        createdAt: block.timestamp\n      });\n      collabs.push(collab);\n      member.collabs.push(collab.id);\n\n      campaign.remaining -= gross;\n      feePool += fee;\n\n      uint256 adminTokens = (fee * 75) / 100;\n      uint256 memberTokens = (fee * 15) / 100;\n      uint256 advertiserTokens = fee - adminTokens - memberTokens;\n\n      _safeMint(adminTreasury, adminTokens);\n\n      if ( member.addr == address(0) ) {\n        member.unclaimedAsamiTokens += memberTokens;\n        member.unclaimedDocRewards += reward;\n        emit AccountSaved(member);\n      } else {\n        _safeMint(member.addr, memberTokens);\n        doc.transfer(member.addr, reward);\n      }\n\n      if ( advertiser.addr == address(0) ) {\n        advertiser.unclaimedAsamiTokens += advertiserTokens;\n        emit AccountSaved(advertiser);\n      } else {\n        _safeMint(advertiser.addr, advertiserTokens);\n      }\n\n      emit CollabSaved(collab);\n      emit CampaignSaved(campaign);\n    }\n  }\n\n  function reimburseDueCampaigns(uint256[] calldata _campaignIds) public {\n    for(uint i = 0; i < _campaignIds.length; i++) {\n      Campaign storage campaign = campaigns[_campaignIds[i] - 1];\n      require(campaign.id > 0);\n      require(campaign.remaining > 0);\n      require(campaign.validUntil < block.timestamp);\n\n      Account storage advertiser = accounts[campaign.accountId];\n      require(doc.transfer(advertiser.addr, campaign.remaining));\n\n      campaign.remaining = 0;\n      emit CampaignSaved(campaign);\n    }\n  }\n\n  // To prevent race conditions, we never mint while we're in the middle of a payout.\n  function _safeMint(address _addr, uint256 _amount) private {\n    require(payoutsRemaining == 0);\n    _mint(_addr, _amount);\n  }\n\n  function adminSetPrice(uint256 _handleId, uint256 _price) external onlyAdmin {\n    Handle storage handle = handles[_handleId - 1];\n    Account storage account = accounts[handle.accountId];\n    require(account.addr == address(0) && account.id > 0);\n\n    _setPriceHelper(handle, _price);\n  }\n\n  function setPrice(uint256 _handleId, uint256 _price) external {\n    Account storage account = accounts[accountIdByAddress[msg.sender]];\n    require(account.addr != address(0));\n\n    Handle storage handle = handles[_handleId - 1];\n    require(handle.id > 0);\n    require(handle.accountId == account.id);\n\n    _setPriceHelper(handle, _price);\n  }\n\n  function _setPriceHelper(Handle storage handle, uint256 _price) private {\n    require(_price > 0);\n    HandleUpdate storage update = _getOrCreateHandleUpdate(handle.id);\n    update.price = _price;\n    emit HandleUpdateSaved(update);\n  }\n\n  function adminSetScoreAndTopics(\n    uint256 _handleId,\n    uint256 _score,\n    uint256[] calldata _topics\n  ) external onlyAdmin {\n    HandleUpdate storage update = _getOrCreateHandleUpdate(_handleId);\n    update.score = _score;\n    update.topics = _topics;\n    emit HandleUpdateSaved(update);\n  }\n\n  function _getOrCreateHandleUpdate(uint256 _handleId) private returns (HandleUpdate storage) {\n    // To prevent race conditions in the incremental updating process,\n    // handle updates are inaccesible while they are being applied to handles.\n    require(updatesRemaining == 0);\n\n    uint256 existingId = handleUpdateByHandleId[_handleId];\n\n    if(existingId > 0) {\n      return handleUpdates[existingId - 1];\n    } else {\n      HandleUpdate storage update = handleUpdates.push();\n      update.id = handleUpdates.length;\n      update.handleId = _handleId;\n      handleUpdateByHandleId[_handleId] = update.id;\n      return update;\n    }\n  }\n\n  function getCycleLength() public pure returns (uint256) {\n    return 60 * 60 * 24 * 15;\n  }\n\n  function getCurrentCycle() public view returns (uint256) {\n     return block.timestamp / getCycleLength();\n  }\n\n  function getNextCycle() public view returns (uint256) {\n    return getCurrentCycle() + getCycleLength();\n  }\n\n  /*\n    Distributes the fee pool among token holders.\n    To prevent going over the gas limit, it does up to 100 a time, and can be called many times in a row.\n    Always returns the pending holders.\n    Anyone can call this at any time, but just once per period. It would usually be the admin though.\n  */\n  uint256 public feePool;\n  uint256 public payoutsRemaining = 0;\n  uint256 public payoutsTotal = 0;\n  uint256 public lastPayoutCycle = 0;\n\n  function distributeFeePool() external {\n    uint256 totalSupply = totalSupply();\n\n    if(payoutsRemaining == 0) {\n      // We're starting a new payout of the feePool.\n      // We can only start one payout in each 15 day period.\n      payoutsTotal = holders.length;\n      payoutsRemaining = payoutsTotal;\n      uint256 currentCycle = getCurrentCycle();\n      require(currentCycle != lastPayoutCycle);\n      lastPayoutCycle = currentCycle;\n    }\n\n    uint256 startAt = payoutsTotal - payoutsRemaining;\n\n    uint256 until = (startAt + 100) <= payoutsRemaining ? (startAt + 100) : payoutsRemaining;\n\n    for (uint256 i = startAt; i < until; i++) {\n      address holder = holders[i];\n      uint256 balance = balanceOf(holder);\n      uint256 reward = (balance * feePool) / totalSupply;\n      require(doc.transfer(holder, reward));\n    }\n\n    payoutsRemaining -= until;\n\n    if(payoutsRemaining == 0) {\n      feePool = 0;\n    }\n  }\n\n  uint256 public updatesRemaining = 0;\n  uint256 public updatesTotal = 0;\n  uint256 public lastUpdateCycle = 0;\n\n  function applyHandleUpdates() external {\n    if(updatesRemaining == 0) {\n      // We're starting a new updates cycle.\n      // We can only start one payout in each 15 day period.\n      updatesTotal = handleUpdates.length;\n      updatesRemaining = updatesTotal;\n      uint256 currentCycle = getCurrentCycle();\n      require(currentCycle != lastUpdateCycle);\n      lastUpdateCycle = currentCycle;\n    }\n\n    uint256 startAt = updatesTotal - updatesRemaining;\n\n    uint256 until = (startAt + 100) <= updatesTotal ? (startAt + 100) : updatesTotal;\n\n    for (uint256 i = startAt; i < until; i++) {\n      HandleUpdate storage update = handleUpdates[i];\n      Handle storage handle = handles[update.handleId - 1];\n\n      if (bytes(update.username).length > 0) {\n        handle.username = update.username;\n      }\n\n      if (update.price != 0) {\n        handle.price = update.price;\n      }\n\n      if (update.score != 0) {\n        handle.score = update.score;\n      }\n\n      if (update.topics.length > 0) {\n        handle.topics = update.topics;\n      }\n\n      emit HandleSaved(handle);\n    }\n\n    updatesRemaining -= until;\n\n    if(updatesRemaining == 0) {\n      delete handleUpdates;\n    }\n  }\n\n  uint256 public feeRate = 10; // It's a percentage.\n\n  function makeVote(\n    uint256 _feeRate\n  ) external {\n    _feeRate = max(50, _feeRate);\n    Account storage account = accounts[accountIdByAddress[msg.sender]];\n    require(account.addr != address(0));\n    uint256 voteId = voteIdByAccountId[account.id];\n    if(voteId == 0) {\n      votes.push(_feeRate);\n      voteIdByAccountId[account.id] = votes.length;\n    } else {\n      votes[voteId] = _feeRate;\n    }\n  }\n\n  uint256 public votesTotal = 0;\n  uint256 public votesRemaining = 0;\n  uint256 public lastVoteCycle = 0;\n  uint256 public votedAverage = 0;\n\n  function tallyVotes() external {\n    if(votesRemaining == 0) {\n      // We're starting a new updates cycle.\n      // We can only start one payout in each 15 day period.\n      votesTotal = votes.length;\n      votesRemaining = votesTotal;\n      uint256 currentCycle = getCurrentCycle();\n      require(currentCycle != lastVoteCycle);\n      lastVoteCycle = currentCycle;\n    }\n\n    uint256 startAt = votesTotal - votesRemaining;\n    uint256 until = min((startAt + 100), votesTotal);\n\n    uint256 sum = 0;\n    for (uint256 i = startAt; i < until; i++) {\n      sum += votes[i];\n    }\n\n    votedAverage = ((votedAverage * startAt) + sum) / until;\n    votesRemaining -= until;\n\n    if(votesRemaining == 0) {\n      feeRate = votedAverage;\n      votesTotal = 0;\n      votedAverage = 0;\n      delete votes;\n    }\n  }\n\n  // Accounts can choose to submit their own Nostr collaborations.\n  // Sending the collaboration themselves is a bit more expensive in terms of on-chain fees.\n  // But they get a big discount in the Asami fee (they pay just one third).\n  // Also, all new tokens issued for that fee are split 60-40 between the member and the advertiser.\n  // The admin does not get any tokens issued for this transaction.\n  // Nostr collabs can be submitted by accounts themselves.\n\n  function makeNostrCollab(\n    uint256 _handleId,\n    uint256 _campaignId,\n    string memory _tagsAfterPostId,\n    uint256 _createdAt,\n    uint256 _sigR,\n    uint256 _sigS\n  ) external {\n    Handle storage handle = handles[_handleId - 1];\n    Account storage member = accounts[handle.accountId];\n    require(member.addr != address(0));\n\n    require(handle.site == Site.Nostr);\n    require(member.nostrSelfManaged);\n    require(!member.nostrAbuseProven);\n\n    Campaign storage campaign = campaigns[_campaignId - 1];\n    Account storage advertiser = accounts[campaign.accountId];\n\n    string memory messageId = nostrUtils.verifyRepost(\n      handle.userId,\n      campaign.contentId,\n      _tagsAfterPostId,\n      _createdAt,\n      handle.nostrAffineX,\n      handle.nostrAffineY,\n      _sigR,\n      _sigS\n    );\n\n    uint256 gross = handle.price;\n    uint256 fee = (gross * (feeRate / 3) ) / 100;\n    uint256 reward = gross - fee;\n\n    Collab memory collab = Collab({\n      id: collabs.length + 1,\n      handleId: handle.id,\n      campaignId: campaign.id,\n      gross: gross,\n      fee: fee,\n      proof: messageId,\n      createdAt: block.timestamp\n    });\n    collabs.push(collab);\n    member.collabs.push(collab.id);\n\n    campaign.remaining -= gross;\n    feePool += fee;\n\n    uint256 memberTokens = (fee * 60) / 100;\n    uint256 advertiserTokens = fee - memberTokens;\n\n    _safeMint(member.addr, memberTokens);\n    doc.transfer(member.addr, reward);\n\n    if ( advertiser.addr == address(0) ) {\n      advertiser.unclaimedAsamiTokens += advertiserTokens;\n      emit AccountSaved(advertiser);\n    } else {\n      _safeMint(advertiser.addr, advertiserTokens);\n    }\n\n    emit CollabSaved(collab);\n    emit CampaignSaved(campaign);\n  }\n\n  // If a Nostr handle is caught reposting and deleting their reposts\n  // to get paid without reposting, the deletion message may be posted which\n  // will disable their nostr handle for all future campaigns.\n  // The contract admin may re-enable their account.\n  function reportNostrAbuse(\n    uint256 _collabId,\n    string calldata _content,\n    string calldata _tags,\n    uint256 _createdAt,\n    uint256 _sigR,\n    uint256 _sigS\n  ) external {\n    Collab storage collab = collabs[_collabId - 1];\n    require((_createdAt - collab.createdAt) < 60 * 60 * 24 * 3);\n    require(nostrUtils.idInTags(collab.proof, _tags));\n\n    Handle storage handle = handles[collab.handleId - 1];\n    require(handle.site == Site.Nostr);\n\n    Account storage account = accounts[handle.accountId];\n    require(account.id > 0);\n\n    nostrUtils.verifyDeletionMessage(\n      handle.userId,\n      _content,\n      _tags,\n      _createdAt,\n      handle.nostrAffineX,\n      handle.nostrAffineY,\n      _sigR,\n      _sigS);\n    \n    account.nostrAbuseProven = true;\n    emit HandleSaved(handle);\n  }\n\n  function setNostrSelfManaged(\n    uint256 _handleId,\n    bool _value\n  ) external {\n    Handle storage handle = handles[_handleId - 1];\n    Account storage account = accounts[accountIdByAddress[msg.sender]];\n    require(account.addr != address(0));\n    require(account.id == handle.accountId);\n    require(handle.site == Site.Nostr);\n    account.nostrSelfManaged = _value;\n    emit HandleSaved(handle);\n  }\n\n  function max(uint256 _a, uint256 _b) public pure returns (uint256) {\n    return _a > _b ? _a : _b;\n  }\n\n  function min(uint256 _a, uint256 _b) public pure returns (uint256) {\n    return _a > _b ? _b : _a;\n  }\n\n  function isSubset(uint256[] memory mainSet, uint256[] memory subset) public pure returns (bool) {\n    for (uint256 i = 0; i < subset.length; i++) {\n      bool found = false;\n\n      for (uint256 j = 0; j < mainSet.length; j++) {\n        if (subset[i] == mainSet[j]) {\n          found = true;\n          break;\n        }\n      }\n\n      if (!found) {\n        return false;\n      }\n    }\n\n    return true;\n  }\n}\n",
  "sourcePath": "/home/nubis/asami/contract/contracts/Asami.sol",
  "compiler": {
    "name": "solc",
    "version": "0.8.19+commit.7dd6d404.Emscripten.clang"
  },
  "schemaVersion": "3.4.15",
  "updatedAt": "2023-11-13T22:03:44.320Z",
  "networkType": "ethereum",
  "devdoc": {
    "events": {
      "Approval(address,address,uint256)": {
        "details": "Emitted when the allowance of a `spender` for an `owner` is set by a call to {approve}. `value` is the new allowance."
      },
      "Transfer(address,address,uint256)": {
        "details": "Emitted when `value` tokens are moved from one account (`from`) to another (`to`). Note that `value` may be zero."
      }
    },
    "kind": "dev",
    "methods": {
      "allowance(address,address)": {
        "details": "See {IERC20-allowance}."
      },
      "approve(address,uint256)": {
        "details": "See {IERC20-approve}. NOTE: If `amount` is the maximum `uint256`, the allowance is not updated on `transferFrom`. This is semantically equivalent to an infinite approval. Requirements: - `spender` cannot be the zero address."
      },
      "balanceOf(address)": {
        "details": "See {IERC20-balanceOf}."
      },
      "decimals()": {
        "details": "Returns the number of decimals used to get its user representation. For example, if `decimals` equals `2`, a balance of `505` tokens should be displayed to a user as `5.05` (`505 / 10 ** 2`). Tokens usually opt for a value of 18, imitating the relationship between Ether and Wei. This is the default value returned by this function, unless it's overridden. NOTE: This information is only used for _display_ purposes: it in no way affects any of the arithmetic of the contract, including {IERC20-balanceOf} and {IERC20-transfer}."
      },
      "decreaseAllowance(address,uint256)": {
        "details": "Atomically decreases the allowance granted to `spender` by the caller. This is an alternative to {approve} that can be used as a mitigation for problems described in {IERC20-approve}. Emits an {Approval} event indicating the updated allowance. Requirements: - `spender` cannot be the zero address. - `spender` must have allowance for the caller of at least `subtractedValue`."
      },
      "increaseAllowance(address,uint256)": {
        "details": "Atomically increases the allowance granted to `spender` by the caller. This is an alternative to {approve} that can be used as a mitigation for problems described in {IERC20-approve}. Emits an {Approval} event indicating the updated allowance. Requirements: - `spender` cannot be the zero address."
      },
      "name()": {
        "details": "Returns the name of the token."
      },
      "owner()": {
        "details": "Returns the address of the current owner."
      },
      "renounceOwnership()": {
        "details": "Leaves the contract without owner. It will not be possible to call `onlyOwner` functions. Can only be called by the current owner. NOTE: Renouncing ownership will leave the contract without an owner, thereby disabling any functionality that is only available to the owner."
      },
      "symbol()": {
        "details": "Returns the symbol of the token, usually a shorter version of the name."
      },
      "totalSupply()": {
        "details": "See {IERC20-totalSupply}."
      },
      "transfer(address,uint256)": {
        "details": "See {IERC20-transfer}. Requirements: - `to` cannot be the zero address. - the caller must have a balance of at least `amount`."
      },
      "transferFrom(address,address,uint256)": {
        "details": "See {IERC20-transferFrom}. Emits an {Approval} event indicating the updated allowance. This is not required by the EIP. See the note at the beginning of {ERC20}. NOTE: Does not update the allowance if the current allowance is the maximum `uint256`. Requirements: - `from` and `to` cannot be the zero address. - `from` must have a balance of at least `amount`. - the caller must have allowance for ``from``'s tokens of at least `amount`."
      },
      "transferOwnership(address)": {
        "details": "Transfers ownership of the contract to a new account (`newOwner`). Can only be called by the current owner."
      }
    },
    "version": 1
  },
  "userdoc": {
    "kind": "user",
    "methods": {},
    "version": 1
  }
}