{
  "contractName": "Asami",
  "abi": [
    {
      "inputs": [
        {
          "internalType": "address",
          "name": "_dollarOnChainAddress",
          "type": "address"
        }
      ],
      "stateMutability": "nonpayable",
      "type": "constructor"
    },
    {
      "anonymous": false,
      "inputs": [
        {
          "components": [
            {
              "internalType": "uint256",
              "name": "id",
              "type": "uint256"
            },
            {
              "internalType": "address",
              "name": "addr",
              "type": "address"
            },
            {
              "internalType": "uint256",
              "name": "unclaimedAsamiTokens",
              "type": "uint256"
            },
            {
              "internalType": "uint256",
              "name": "unclaimedDocRewards",
              "type": "uint256"
            },
            {
              "internalType": "uint256[]",
              "name": "handles",
              "type": "uint256[]"
            },
            {
              "internalType": "uint256[]",
              "name": "campaigns",
              "type": "uint256[]"
            },
            {
              "internalType": "uint256[]",
              "name": "collabs",
              "type": "uint256[]"
            }
          ],
          "indexed": false,
          "internalType": "struct Asami.Account",
          "name": "account",
          "type": "tuple"
        }
      ],
      "name": "AccountSaved",
      "type": "event"
    },
    {
      "anonymous": false,
      "inputs": [
        {
          "components": [
            {
              "internalType": "uint256",
              "name": "votes",
              "type": "uint256"
            },
            {
              "internalType": "address",
              "name": "candidate",
              "type": "address"
            },
            {
              "internalType": "uint256",
              "name": "cycle",
              "type": "uint256"
            },
            {
              "internalType": "bool",
              "name": "vested",
              "type": "bool"
            }
          ],
          "indexed": false,
          "internalType": "struct Asami.AdminVote",
          "name": "vote",
          "type": "tuple"
        }
      ],
      "name": "AdminVoteSaved",
      "type": "event"
    },
    {
      "anonymous": false,
      "inputs": [
        {
          "indexed": true,
          "internalType": "address",
          "name": "owner",
          "type": "address"
        },
        {
          "indexed": true,
          "internalType": "address",
          "name": "spender",
          "type": "address"
        },
        {
          "indexed": false,
          "internalType": "uint256",
          "name": "value",
          "type": "uint256"
        }
      ],
      "name": "Approval",
      "type": "event"
    },
    {
      "anonymous": false,
      "inputs": [
        {
          "components": [
            {
              "internalType": "uint256",
              "name": "id",
              "type": "uint256"
            },
            {
              "internalType": "uint256",
              "name": "accountId",
              "type": "uint256"
            },
            {
              "internalType": "enum Asami.Site",
              "name": "site",
              "type": "uint8"
            },
            {
              "internalType": "uint256",
              "name": "budget",
              "type": "uint256"
            },
            {
              "internalType": "uint256",
              "name": "remaining",
              "type": "uint256"
            },
            {
              "internalType": "string",
              "name": "contentId",
              "type": "string"
            },
            {
              "internalType": "uint256",
              "name": "priceScoreRatio",
              "type": "uint256"
            },
            {
              "internalType": "uint256[]",
              "name": "topics",
              "type": "uint256[]"
            },
            {
              "internalType": "uint256",
              "name": "validUntil",
              "type": "uint256"
            },
            {
              "internalType": "bool",
              "name": "fundedByAdmin",
              "type": "bool"
            }
          ],
          "indexed": false,
          "internalType": "struct Asami.Campaign",
          "name": "campaign",
          "type": "tuple"
        }
      ],
      "name": "CampaignSaved",
      "type": "event"
    },
    {
      "anonymous": false,
      "inputs": [
        {
          "components": [
            {
              "internalType": "uint256",
              "name": "id",
              "type": "uint256"
            },
            {
              "internalType": "uint256",
              "name": "handleId",
              "type": "uint256"
            },
            {
              "internalType": "uint256",
              "name": "campaignId",
              "type": "uint256"
            },
            {
              "internalType": "uint256",
              "name": "gross",
              "type": "uint256"
            },
            {
              "internalType": "uint256",
              "name": "fee",
              "type": "uint256"
            },
            {
              "internalType": "string",
              "name": "proof",
              "type": "string"
            },
            {
              "internalType": "uint256",
              "name": "createdAt",
              "type": "uint256"
            }
          ],
          "indexed": false,
          "internalType": "struct Asami.Collab",
          "name": "collab",
          "type": "tuple"
        }
      ],
      "name": "CollabSaved",
      "type": "event"
    },
    {
      "anonymous": false,
      "inputs": [
        {
          "components": [
            {
              "internalType": "uint256",
              "name": "id",
              "type": "uint256"
            },
            {
              "internalType": "uint256",
              "name": "accountId",
              "type": "uint256"
            },
            {
              "internalType": "enum Asami.Site",
              "name": "site",
              "type": "uint8"
            },
            {
              "internalType": "uint256",
              "name": "price",
              "type": "uint256"
            },
            {
              "internalType": "uint256",
              "name": "score",
              "type": "uint256"
            },
            {
              "internalType": "uint256[]",
              "name": "topics",
              "type": "uint256[]"
            },
            {
              "internalType": "string",
              "name": "username",
              "type": "string"
            },
            {
              "internalType": "string",
              "name": "userId",
              "type": "string"
            },
            {
              "internalType": "bool",
              "name": "needsUpdate",
              "type": "bool"
            },
            {
              "internalType": "string",
              "name": "newUsername",
              "type": "string"
            },
            {
              "internalType": "uint256",
              "name": "newPrice",
              "type": "uint256"
            },
            {
              "internalType": "uint256",
              "name": "newScore",
              "type": "uint256"
            },
            {
              "internalType": "uint256[]",
              "name": "newTopics",
              "type": "uint256[]"
            },
            {
              "internalType": "uint256",
              "name": "lastUpdated",
              "type": "uint256"
            }
          ],
          "indexed": false,
          "internalType": "struct Asami.Handle",
          "name": "handle",
          "type": "tuple"
        }
      ],
      "name": "HandleSaved",
      "type": "event"
    },
    {
      "anonymous": false,
      "inputs": [
        {
          "indexed": true,
          "internalType": "address",
          "name": "previousOwner",
          "type": "address"
        },
        {
          "indexed": true,
          "internalType": "address",
          "name": "newOwner",
          "type": "address"
        }
      ],
      "name": "OwnershipTransferred",
      "type": "event"
    },
    {
      "anonymous": false,
      "inputs": [
        {
          "indexed": false,
          "internalType": "uint256",
          "name": "id",
          "type": "uint256"
        },
        {
          "indexed": false,
          "internalType": "string",
          "name": "name",
          "type": "string"
        }
      ],
      "name": "TopicSaved",
      "type": "event"
    },
    {
      "anonymous": false,
      "inputs": [
        {
          "indexed": true,
          "internalType": "address",
          "name": "from",
          "type": "address"
        },
        {
          "indexed": true,
          "internalType": "address",
          "name": "to",
          "type": "address"
        },
        {
          "indexed": false,
          "internalType": "uint256",
          "name": "value",
          "type": "uint256"
        }
      ],
      "name": "Transfer",
      "type": "event"
    },
    {
      "inputs": [
        {
          "internalType": "address",
          "name": "",
          "type": "address"
        }
      ],
      "name": "accountIdByAddress",
      "outputs": [
        {
          "internalType": "uint256",
          "name": "",
          "type": "uint256"
        }
      ],
      "stateMutability": "view",
      "type": "function",
      "constant": true
    },
    {
      "inputs": [
        {
          "internalType": "uint256",
          "name": "",
          "type": "uint256"
        }
      ],
      "name": "accountIds",
      "outputs": [
        {
          "internalType": "uint256",
          "name": "",
          "type": "uint256"
        }
      ],
      "stateMutability": "view",
      "type": "function",
      "constant": true
    },
    {
      "inputs": [
        {
          "internalType": "uint256",
          "name": "",
          "type": "uint256"
        }
      ],
      "name": "accounts",
      "outputs": [
        {
          "internalType": "uint256",
          "name": "id",
          "type": "uint256"
        },
        {
          "internalType": "address",
          "name": "addr",
          "type": "address"
        },
        {
          "internalType": "uint256",
          "name": "unclaimedAsamiTokens",
          "type": "uint256"
        },
        {
          "internalType": "uint256",
          "name": "unclaimedDocRewards",
          "type": "uint256"
        }
      ],
      "stateMutability": "view",
      "type": "function",
      "constant": true
    },
    {
      "inputs": [],
      "name": "admin",
      "outputs": [
        {
          "internalType": "address",
          "name": "",
          "type": "address"
        }
      ],
      "stateMutability": "view",
      "type": "function",
      "constant": true
    },
    {
      "inputs": [],
      "name": "adminTreasury",
      "outputs": [
        {
          "internalType": "address",
          "name": "",
          "type": "address"
        }
      ],
      "stateMutability": "view",
      "type": "function",
      "constant": true
    },
    {
      "inputs": [
        {
          "internalType": "address",
          "name": "",
          "type": "address"
        }
      ],
      "name": "adminVoteCountIdByCandidate",
      "outputs": [
        {
          "internalType": "uint256",
          "name": "",
          "type": "uint256"
        }
      ],
      "stateMutability": "view",
      "type": "function",
      "constant": true
    },
    {
      "inputs": [
        {
          "internalType": "uint256",
          "name": "",
          "type": "uint256"
        }
      ],
      "name": "adminVoteCounts",
      "outputs": [
        {
          "internalType": "uint256",
          "name": "votes",
          "type": "uint256"
        },
        {
          "internalType": "address",
          "name": "candidate",
          "type": "address"
        }
      ],
      "stateMutability": "view",
      "type": "function",
      "constant": true
    },
    {
      "inputs": [
        {
          "internalType": "address",
          "name": "owner",
          "type": "address"
        },
        {
          "internalType": "address",
          "name": "spender",
          "type": "address"
        }
      ],
      "name": "allowance",
      "outputs": [
        {
          "internalType": "uint256",
          "name": "",
          "type": "uint256"
        }
      ],
      "stateMutability": "view",
      "type": "function",
      "constant": true
    },
    {
      "inputs": [
        {
          "internalType": "address",
          "name": "spender",
          "type": "address"
        },
        {
          "internalType": "uint256",
          "name": "amount",
          "type": "uint256"
        }
      ],
      "name": "approve",
      "outputs": [
        {
          "internalType": "bool",
          "name": "",
          "type": "bool"
        }
      ],
      "stateMutability": "nonpayable",
      "type": "function"
    },
    {
      "inputs": [
        {
          "internalType": "address",
          "name": "account",
          "type": "address"
        }
      ],
      "name": "balanceOf",
      "outputs": [
        {
          "internalType": "uint256",
          "name": "",
          "type": "uint256"
        }
      ],
      "stateMutability": "view",
      "type": "function",
      "constant": true
    },
    {
      "inputs": [],
      "name": "batchSize",
      "outputs": [
        {
          "internalType": "uint256",
          "name": "",
          "type": "uint256"
        }
      ],
      "stateMutability": "view",
      "type": "function",
      "constant": true
    },
    {
      "inputs": [
        {
          "internalType": "uint256",
          "name": "",
          "type": "uint256"
        }
      ],
      "name": "campaigns",
      "outputs": [
        {
          "internalType": "uint256",
          "name": "id",
          "type": "uint256"
        },
        {
          "internalType": "uint256",
          "name": "accountId",
          "type": "uint256"
        },
        {
          "internalType": "enum Asami.Site",
          "name": "site",
          "type": "uint8"
        },
        {
          "internalType": "uint256",
          "name": "budget",
          "type": "uint256"
        },
        {
          "internalType": "uint256",
          "name": "remaining",
          "type": "uint256"
        },
        {
          "internalType": "string",
          "name": "contentId",
          "type": "string"
        },
        {
          "internalType": "uint256",
          "name": "priceScoreRatio",
          "type": "uint256"
        },
        {
          "internalType": "uint256",
          "name": "validUntil",
          "type": "uint256"
        },
        {
          "internalType": "bool",
          "name": "fundedByAdmin",
          "type": "bool"
        }
      ],
      "stateMutability": "view",
      "type": "function",
      "constant": true
    },
    {
      "inputs": [],
      "name": "cap",
      "outputs": [
        {
          "internalType": "uint256",
          "name": "",
          "type": "uint256"
        }
      ],
      "stateMutability": "view",
      "type": "function",
      "constant": true
    },
    {
      "inputs": [],
      "name": "claimedAsamiTokens",
      "outputs": [
        {
          "internalType": "uint256",
          "name": "",
          "type": "uint256"
        }
      ],
      "stateMutability": "view",
      "type": "function",
      "constant": true
    },
    {
      "inputs": [
        {
          "internalType": "uint256",
          "name": "",
          "type": "uint256"
        }
      ],
      "name": "collabs",
      "outputs": [
        {
          "internalType": "uint256",
          "name": "id",
          "type": "uint256"
        },
        {
          "internalType": "uint256",
          "name": "handleId",
          "type": "uint256"
        },
        {
          "internalType": "uint256",
          "name": "campaignId",
          "type": "uint256"
        },
        {
          "internalType": "uint256",
          "name": "gross",
          "type": "uint256"
        },
        {
          "internalType": "uint256",
          "name": "fee",
          "type": "uint256"
        },
        {
          "internalType": "string",
          "name": "proof",
          "type": "string"
        },
        {
          "internalType": "uint256",
          "name": "createdAt",
          "type": "uint256"
        }
      ],
      "stateMutability": "view",
      "type": "function",
      "constant": true
    },
    {
      "inputs": [],
      "name": "decimals",
      "outputs": [
        {
          "internalType": "uint8",
          "name": "",
          "type": "uint8"
        }
      ],
      "stateMutability": "view",
      "type": "function",
      "constant": true
    },
    {
      "inputs": [
        {
          "internalType": "address",
          "name": "spender",
          "type": "address"
        },
        {
          "internalType": "uint256",
          "name": "subtractedValue",
          "type": "uint256"
        }
      ],
      "name": "decreaseAllowance",
      "outputs": [
        {
          "internalType": "bool",
          "name": "",
          "type": "bool"
        }
      ],
      "stateMutability": "nonpayable",
      "type": "function"
    },
    {
      "inputs": [],
      "name": "defaultFeeRate",
      "outputs": [
        {
          "internalType": "uint256",
          "name": "",
          "type": "uint256"
        }
      ],
      "stateMutability": "view",
      "type": "function",
      "constant": true
    },
    {
      "inputs": [],
      "name": "feePool",
      "outputs": [
        {
          "internalType": "uint256",
          "name": "",
          "type": "uint256"
        }
      ],
      "stateMutability": "view",
      "type": "function",
      "constant": true
    },
    {
      "inputs": [],
      "name": "feePoolRemainder",
      "outputs": [
        {
          "internalType": "uint256",
          "name": "",
          "type": "uint256"
        }
      ],
      "stateMutability": "view",
      "type": "function",
      "constant": true
    },
    {
      "inputs": [],
      "name": "feeRate",
      "outputs": [
        {
          "internalType": "uint256",
          "name": "",
          "type": "uint256"
        }
      ],
      "stateMutability": "view",
      "type": "function",
      "constant": true
    },
    {
      "inputs": [
        {
          "internalType": "address",
          "name": "",
          "type": "address"
        }
      ],
      "name": "feeRateVotes",
      "outputs": [
        {
          "internalType": "uint256",
          "name": "votes",
          "type": "uint256"
        },
        {
          "internalType": "uint256",
          "name": "rate",
          "type": "uint256"
        }
      ],
      "stateMutability": "view",
      "type": "function",
      "constant": true
    },
    {
      "inputs": [
        {
          "internalType": "uint256",
          "name": "",
          "type": "uint256"
        }
      ],
      "name": "handles",
      "outputs": [
        {
          "internalType": "uint256",
          "name": "id",
          "type": "uint256"
        },
        {
          "internalType": "uint256",
          "name": "accountId",
          "type": "uint256"
        },
        {
          "internalType": "enum Asami.Site",
          "name": "site",
          "type": "uint8"
        },
        {
          "internalType": "uint256",
          "name": "price",
          "type": "uint256"
        },
        {
          "internalType": "uint256",
          "name": "score",
          "type": "uint256"
        },
        {
          "internalType": "string",
          "name": "username",
          "type": "string"
        },
        {
          "internalType": "string",
          "name": "userId",
          "type": "string"
        },
        {
          "internalType": "bool",
          "name": "needsUpdate",
          "type": "bool"
        },
        {
          "internalType": "string",
          "name": "newUsername",
          "type": "string"
        },
        {
          "internalType": "uint256",
          "name": "newPrice",
          "type": "uint256"
        },
        {
          "internalType": "uint256",
          "name": "newScore",
          "type": "uint256"
        },
        {
          "internalType": "uint256",
          "name": "lastUpdated",
          "type": "uint256"
        }
      ],
      "stateMutability": "view",
      "type": "function",
      "constant": true
    },
    {
      "inputs": [
        {
          "internalType": "uint256",
          "name": "",
          "type": "uint256"
        }
      ],
      "name": "holders",
      "outputs": [
        {
          "internalType": "address",
          "name": "",
          "type": "address"
        }
      ],
      "stateMutability": "view",
      "type": "function",
      "constant": true
    },
    {
      "inputs": [
        {
          "internalType": "address",
          "name": "spender",
          "type": "address"
        },
        {
          "internalType": "uint256",
          "name": "addedValue",
          "type": "uint256"
        }
      ],
      "name": "increaseAllowance",
      "outputs": [
        {
          "internalType": "bool",
          "name": "",
          "type": "bool"
        }
      ],
      "stateMutability": "nonpayable",
      "type": "function"
    },
    {
      "inputs": [],
      "name": "lastAdminElection",
      "outputs": [
        {
          "internalType": "uint256",
          "name": "",
          "type": "uint256"
        }
      ],
      "stateMutability": "view",
      "type": "function",
      "constant": true
    },
    {
      "inputs": [],
      "name": "lastPayoutCycle",
      "outputs": [
        {
          "internalType": "uint256",
          "name": "",
          "type": "uint256"
        }
      ],
      "stateMutability": "view",
      "type": "function",
      "constant": true
    },
    {
      "inputs": [],
      "name": "lastVotedFeeRateAppliedOn",
      "outputs": [
        {
          "internalType": "uint256",
          "name": "",
          "type": "uint256"
        }
      ],
      "stateMutability": "view",
      "type": "function",
      "constant": true
    },
    {
      "inputs": [
        {
          "internalType": "uint256",
          "name": "",
          "type": "uint256"
        }
      ],
      "name": "latestAdminElections",
      "outputs": [
        {
          "internalType": "address",
          "name": "",
          "type": "address"
        }
      ],
      "stateMutability": "view",
      "type": "function",
      "constant": true
    },
    {
      "inputs": [],
      "name": "name",
      "outputs": [
        {
          "internalType": "string",
          "name": "",
          "type": "string"
        }
      ],
      "stateMutability": "view",
      "type": "function",
      "constant": true
    },
    {
      "inputs": [],
      "name": "owner",
      "outputs": [
        {
          "internalType": "address",
          "name": "",
          "type": "address"
        }
      ],
      "stateMutability": "view",
      "type": "function",
      "constant": true
    },
    {
      "inputs": [],
      "name": "payoutsRemaining",
      "outputs": [
        {
          "internalType": "uint256",
          "name": "",
          "type": "uint256"
        }
      ],
      "stateMutability": "view",
      "type": "function",
      "constant": true
    },
    {
      "inputs": [],
      "name": "payoutsTotal",
      "outputs": [
        {
          "internalType": "uint256",
          "name": "",
          "type": "uint256"
        }
      ],
      "stateMutability": "view",
      "type": "function",
      "constant": true
    },
    {
      "inputs": [],
      "name": "renounceOwnership",
      "outputs": [],
      "stateMutability": "nonpayable",
      "type": "function"
    },
    {
      "inputs": [
        {
          "internalType": "address",
          "name": "",
          "type": "address"
        }
      ],
      "name": "submittedAdminVotes",
      "outputs": [
        {
          "internalType": "uint256",
          "name": "votes",
          "type": "uint256"
        },
        {
          "internalType": "address",
          "name": "candidate",
          "type": "address"
        },
        {
          "internalType": "uint256",
          "name": "cycle",
          "type": "uint256"
        },
        {
          "internalType": "bool",
          "name": "vested",
          "type": "bool"
        }
      ],
      "stateMutability": "view",
      "type": "function",
      "constant": true
    },
    {
      "inputs": [],
      "name": "symbol",
      "outputs": [
        {
          "internalType": "string",
          "name": "",
          "type": "string"
        }
      ],
      "stateMutability": "view",
      "type": "function",
      "constant": true
    },
    {
      "inputs": [
        {
          "internalType": "uint256",
          "name": "",
          "type": "uint256"
        }
      ],
      "name": "topics",
      "outputs": [
        {
          "internalType": "string",
          "name": "",
          "type": "string"
        }
      ],
      "stateMutability": "view",
      "type": "function",
      "constant": true
    },
    {
      "inputs": [],
      "name": "totalSupply",
      "outputs": [
        {
          "internalType": "uint256",
          "name": "",
          "type": "uint256"
        }
      ],
      "stateMutability": "view",
      "type": "function",
      "constant": true
    },
    {
      "inputs": [
        {
          "internalType": "address",
          "name": "",
          "type": "address"
        }
      ],
      "name": "trackedHolders",
      "outputs": [
        {
          "internalType": "bool",
          "name": "",
          "type": "bool"
        }
      ],
      "stateMutability": "view",
      "type": "function",
      "constant": true
    },
    {
      "inputs": [
        {
          "internalType": "address",
          "name": "to",
          "type": "address"
        },
        {
          "internalType": "uint256",
          "name": "amount",
          "type": "uint256"
        }
      ],
      "name": "transfer",
      "outputs": [
        {
          "internalType": "bool",
          "name": "",
          "type": "bool"
        }
      ],
      "stateMutability": "nonpayable",
      "type": "function"
    },
    {
      "inputs": [
        {
          "internalType": "address",
          "name": "from",
          "type": "address"
        },
        {
          "internalType": "address",
          "name": "to",
          "type": "address"
        },
        {
          "internalType": "uint256",
          "name": "amount",
          "type": "uint256"
        }
      ],
      "name": "transferFrom",
      "outputs": [
        {
          "internalType": "bool",
          "name": "",
          "type": "bool"
        }
      ],
      "stateMutability": "nonpayable",
      "type": "function"
    },
    {
      "inputs": [
        {
          "internalType": "address",
          "name": "newOwner",
          "type": "address"
        }
      ],
      "name": "transferOwnership",
      "outputs": [],
      "stateMutability": "nonpayable",
      "type": "function"
    },
    {
      "inputs": [],
      "name": "vestedAdminVotesTotal",
      "outputs": [
        {
          "internalType": "uint256",
          "name": "",
          "type": "uint256"
        }
      ],
      "stateMutability": "view",
      "type": "function",
      "constant": true
    },
    {
      "inputs": [],
      "name": "votedFeeRate",
      "outputs": [
        {
          "internalType": "uint256",
          "name": "",
          "type": "uint256"
        }
      ],
      "stateMutability": "view",
      "type": "function",
      "constant": true
    },
    {
      "inputs": [],
      "name": "votedFeeRateVoteCount",
      "outputs": [
        {
          "internalType": "uint256",
          "name": "",
          "type": "uint256"
        }
      ],
      "stateMutability": "view",
      "type": "function",
      "constant": true
    },
    {
      "inputs": [],
      "name": "getHandles",
      "outputs": [
        {
          "components": [
            {
              "internalType": "uint256",
              "name": "id",
              "type": "uint256"
            },
            {
              "internalType": "uint256",
              "name": "accountId",
              "type": "uint256"
            },
            {
              "internalType": "enum Asami.Site",
              "name": "site",
              "type": "uint8"
            },
            {
              "internalType": "uint256",
              "name": "price",
              "type": "uint256"
            },
            {
              "internalType": "uint256",
              "name": "score",
              "type": "uint256"
            },
            {
              "internalType": "uint256[]",
              "name": "topics",
              "type": "uint256[]"
            },
            {
              "internalType": "string",
              "name": "username",
              "type": "string"
            },
            {
              "internalType": "string",
              "name": "userId",
              "type": "string"
            },
            {
              "internalType": "bool",
              "name": "needsUpdate",
              "type": "bool"
            },
            {
              "internalType": "string",
              "name": "newUsername",
              "type": "string"
            },
            {
              "internalType": "uint256",
              "name": "newPrice",
              "type": "uint256"
            },
            {
              "internalType": "uint256",
              "name": "newScore",
              "type": "uint256"
            },
            {
              "internalType": "uint256[]",
              "name": "newTopics",
              "type": "uint256[]"
            },
            {
              "internalType": "uint256",
              "name": "lastUpdated",
              "type": "uint256"
            }
          ],
          "internalType": "struct Asami.Handle[]",
          "name": "",
          "type": "tuple[]"
        }
      ],
      "stateMutability": "view",
      "type": "function",
      "constant": true
    },
    {
      "inputs": [],
      "name": "getCampaigns",
      "outputs": [
        {
          "components": [
            {
              "internalType": "uint256",
              "name": "id",
              "type": "uint256"
            },
            {
              "internalType": "uint256",
              "name": "accountId",
              "type": "uint256"
            },
            {
              "internalType": "enum Asami.Site",
              "name": "site",
              "type": "uint8"
            },
            {
              "internalType": "uint256",
              "name": "budget",
              "type": "uint256"
            },
            {
              "internalType": "uint256",
              "name": "remaining",
              "type": "uint256"
            },
            {
              "internalType": "string",
              "name": "contentId",
              "type": "string"
            },
            {
              "internalType": "uint256",
              "name": "priceScoreRatio",
              "type": "uint256"
            },
            {
              "internalType": "uint256[]",
              "name": "topics",
              "type": "uint256[]"
            },
            {
              "internalType": "uint256",
              "name": "validUntil",
              "type": "uint256"
            },
            {
              "internalType": "bool",
              "name": "fundedByAdmin",
              "type": "bool"
            }
          ],
          "internalType": "struct Asami.Campaign[]",
          "name": "",
          "type": "tuple[]"
        }
      ],
      "stateMutability": "view",
      "type": "function",
      "constant": true
    },
    {
      "inputs": [],
      "name": "allAdminVoteCounts",
      "outputs": [
        {
          "components": [
            {
              "internalType": "uint256",
              "name": "votes",
              "type": "uint256"
            },
            {
              "internalType": "address",
              "name": "candidate",
              "type": "address"
            }
          ],
          "internalType": "struct Asami.AdminVoteCount[]",
          "name": "",
          "type": "tuple[]"
        }
      ],
      "stateMutability": "view",
      "type": "function",
      "constant": true
    },
    {
      "inputs": [],
      "name": "getLatestAdminElections",
      "outputs": [
        {
          "internalType": "address[3]",
          "name": "",
          "type": "address[3]"
        }
      ],
      "stateMutability": "view",
      "type": "function",
      "constant": true
    },
    {
      "inputs": [
        {
          "internalType": "address",
          "name": "_admin",
          "type": "address"
        },
        {
          "internalType": "address",
          "name": "_adminTreasury",
          "type": "address"
        }
      ],
      "name": "setAdmin",
      "outputs": [],
      "stateMutability": "nonpayable",
      "type": "function"
    },
    {
      "inputs": [],
      "name": "getHolders",
      "outputs": [
        {
          "internalType": "address[]",
          "name": "",
          "type": "address[]"
        }
      ],
      "stateMutability": "view",
      "type": "function",
      "constant": true
    },
    {
      "inputs": [],
      "name": "getClaimedAsamiTokens",
      "outputs": [
        {
          "internalType": "uint256",
          "name": "",
          "type": "uint256"
        }
      ],
      "stateMutability": "view",
      "type": "function",
      "constant": true
    },
    {
      "inputs": [],
      "name": "getTopics",
      "outputs": [
        {
          "internalType": "string[]",
          "name": "",
          "type": "string[]"
        }
      ],
      "stateMutability": "view",
      "type": "function",
      "constant": true
    },
    {
      "inputs": [
        {
          "internalType": "string[]",
          "name": "_names",
          "type": "string[]"
        }
      ],
      "name": "adminAddTopics",
      "outputs": [],
      "stateMutability": "nonpayable",
      "type": "function"
    },
    {
      "inputs": [
        {
          "components": [
            {
              "internalType": "uint256",
              "name": "accountId",
              "type": "uint256"
            },
            {
              "internalType": "address",
              "name": "addr",
              "type": "address"
            }
          ],
          "internalType": "struct Asami.AdminClaimAccountsInput[]",
          "name": "_input",
          "type": "tuple[]"
        }
      ],
      "name": "claimAccounts",
      "outputs": [],
      "stateMutability": "nonpayable",
      "type": "function"
    },
    {
      "inputs": [
        {
          "components": [
            {
              "internalType": "uint256",
              "name": "id",
              "type": "uint256"
            },
            {
              "internalType": "uint256",
              "name": "accountId",
              "type": "uint256"
            },
            {
              "internalType": "enum Asami.Site",
              "name": "site",
              "type": "uint8"
            },
            {
              "internalType": "uint256",
              "name": "price",
              "type": "uint256"
            },
            {
              "internalType": "uint256",
              "name": "score",
              "type": "uint256"
            },
            {
              "internalType": "uint256[]",
              "name": "topics",
              "type": "uint256[]"
            },
            {
              "internalType": "string",
              "name": "username",
              "type": "string"
            },
            {
              "internalType": "string",
              "name": "userId",
              "type": "string"
            },
            {
              "internalType": "bool",
              "name": "needsUpdate",
              "type": "bool"
            },
            {
              "internalType": "string",
              "name": "newUsername",
              "type": "string"
            },
            {
              "internalType": "uint256",
              "name": "newPrice",
              "type": "uint256"
            },
            {
              "internalType": "uint256",
              "name": "newScore",
              "type": "uint256"
            },
            {
              "internalType": "uint256[]",
              "name": "newTopics",
              "type": "uint256[]"
            },
            {
              "internalType": "uint256",
              "name": "lastUpdated",
              "type": "uint256"
            }
          ],
          "internalType": "struct Asami.Handle[]",
          "name": "_inputs",
          "type": "tuple[]"
        }
      ],
      "name": "adminMakeHandles",
      "outputs": [],
      "stateMutability": "nonpayable",
      "type": "function"
    },
    {
      "inputs": [
        {
          "components": [
            {
              "internalType": "enum Asami.Site",
              "name": "site",
              "type": "uint8"
            },
            {
              "internalType": "uint256",
              "name": "budget",
              "type": "uint256"
            },
            {
              "internalType": "string",
              "name": "contentId",
              "type": "string"
            },
            {
              "internalType": "uint256",
              "name": "priceScoreRatio",
              "type": "uint256"
            },
            {
              "internalType": "uint256[]",
              "name": "topics",
              "type": "uint256[]"
            },
            {
              "internalType": "uint256",
              "name": "validUntil",
              "type": "uint256"
            }
          ],
          "internalType": "struct Asami.CampaignInput[]",
          "name": "_inputs",
          "type": "tuple[]"
        }
      ],
      "name": "makeCampaigns",
      "outputs": [],
      "stateMutability": "nonpayable",
      "type": "function"
    },
    {
      "inputs": [
        {
          "components": [
            {
              "internalType": "uint256",
              "name": "accountId",
              "type": "uint256"
            },
            {
              "components": [
                {
                  "internalType": "enum Asami.Site",
                  "name": "site",
                  "type": "uint8"
                },
                {
                  "internalType": "uint256",
                  "name": "budget",
                  "type": "uint256"
                },
                {
                  "internalType": "string",
                  "name": "contentId",
                  "type": "string"
                },
                {
                  "internalType": "uint256",
                  "name": "priceScoreRatio",
                  "type": "uint256"
                },
                {
                  "internalType": "uint256[]",
                  "name": "topics",
                  "type": "uint256[]"
                },
                {
                  "internalType": "uint256",
                  "name": "validUntil",
                  "type": "uint256"
                }
              ],
              "internalType": "struct Asami.CampaignInput",
              "name": "attrs",
              "type": "tuple"
            }
          ],
          "internalType": "struct Asami.AdminCampaignInput[]",
          "name": "_inputs",
          "type": "tuple[]"
        }
      ],
      "name": "adminMakeCampaigns",
      "outputs": [],
      "stateMutability": "nonpayable",
      "type": "function"
    },
    {
      "inputs": [
        {
          "components": [
            {
              "internalType": "uint256",
              "name": "campaignId",
              "type": "uint256"
            },
            {
              "internalType": "uint256",
              "name": "handleId",
              "type": "uint256"
            }
          ],
          "internalType": "struct Asami.AdminMakeCollabsInput[]",
          "name": "_collabs",
          "type": "tuple[]"
        }
      ],
      "name": "adminMakeCollabs",
      "outputs": [],
      "stateMutability": "nonpayable",
      "type": "function"
    },
    {
      "inputs": [
        {
          "internalType": "uint256[]",
          "name": "_campaignIds",
          "type": "uint256[]"
        }
      ],
      "name": "reimburseDueCampaigns",
      "outputs": [],
      "stateMutability": "nonpayable",
      "type": "function"
    },
    {
      "inputs": [
        {
          "components": [
            {
              "internalType": "uint256",
              "name": "handleId",
              "type": "uint256"
            },
            {
              "internalType": "uint256",
              "name": "price",
              "type": "uint256"
            }
          ],
          "internalType": "struct Asami.AdminSetPriceInput[]",
          "name": "_inputs",
          "type": "tuple[]"
        }
      ],
      "name": "adminSetPrice",
      "outputs": [],
      "stateMutability": "nonpayable",
      "type": "function"
    },
    {
      "inputs": [
        {
          "internalType": "uint256",
          "name": "_handleId",
          "type": "uint256"
        },
        {
          "internalType": "uint256",
          "name": "_price",
          "type": "uint256"
        }
      ],
      "name": "setPrice",
      "outputs": [],
      "stateMutability": "nonpayable",
      "type": "function"
    },
    {
      "inputs": [
        {
          "components": [
            {
              "internalType": "uint256",
              "name": "handleId",
              "type": "uint256"
            },
            {
              "internalType": "uint256",
              "name": "score",
              "type": "uint256"
            },
            {
              "internalType": "uint256[]",
              "name": "topics",
              "type": "uint256[]"
            }
          ],
          "internalType": "struct Asami.AdminSetScoreAndTopicsInput[]",
          "name": "_inputs",
          "type": "tuple[]"
        }
      ],
      "name": "adminSetScoreAndTopics",
      "outputs": [],
      "stateMutability": "nonpayable",
      "type": "function"
    },
    {
      "inputs": [],
      "name": "getCycleLength",
      "outputs": [
        {
          "internalType": "uint256",
          "name": "",
          "type": "uint256"
        }
      ],
      "stateMutability": "pure",
      "type": "function",
      "constant": true
    },
    {
      "inputs": [],
      "name": "getCurrentCycle",
      "outputs": [
        {
          "internalType": "uint256",
          "name": "",
          "type": "uint256"
        }
      ],
      "stateMutability": "view",
      "type": "function",
      "constant": true
    },
    {
      "inputs": [],
      "name": "getNextCycle",
      "outputs": [
        {
          "internalType": "uint256",
          "name": "",
          "type": "uint256"
        }
      ],
      "stateMutability": "view",
      "type": "function",
      "constant": true
    },
    {
      "inputs": [],
      "name": "distributeFeePool",
      "outputs": [],
      "stateMutability": "nonpayable",
      "type": "function"
    },
    {
      "inputs": [
        {
          "internalType": "uint256[]",
          "name": "_indexes",
          "type": "uint256[]"
        }
      ],
      "name": "applyHandleUpdates",
      "outputs": [],
      "stateMutability": "nonpayable",
      "type": "function"
    },
    {
      "inputs": [],
      "name": "applyVotedFeeRate",
      "outputs": [],
      "stateMutability": "nonpayable",
      "type": "function"
    },
    {
      "inputs": [
        {
          "internalType": "uint256",
          "name": "_rate",
          "type": "uint256"
        }
      ],
      "name": "submitFeeRateVote",
      "outputs": [],
      "stateMutability": "nonpayable",
      "type": "function"
    },
    {
      "inputs": [],
      "name": "removeFeeRateVote",
      "outputs": [],
      "stateMutability": "nonpayable",
      "type": "function"
    },
    {
      "inputs": [
        {
          "internalType": "address",
          "name": "_candidate",
          "type": "address"
        }
      ],
      "name": "submitAdminVote",
      "outputs": [],
      "stateMutability": "nonpayable",
      "type": "function"
    },
    {
      "inputs": [
        {
          "internalType": "address[]",
          "name": "_holders",
          "type": "address[]"
        }
      ],
      "name": "vestAdminVotes",
      "outputs": [],
      "stateMutability": "nonpayable",
      "type": "function"
    },
    {
      "inputs": [
        {
          "internalType": "address",
          "name": "_candidate",
          "type": "address"
        }
      ],
      "name": "proclaimCycleAdminWinner",
      "outputs": [],
      "stateMutability": "nonpayable",
      "type": "function"
    },
    {
      "inputs": [],
      "name": "removeAdminVote",
      "outputs": [],
      "stateMutability": "nonpayable",
      "type": "function"
    },
    {
      "inputs": [
        {
          "internalType": "address",
          "name": "_admin",
          "type": "address"
        }
      ],
      "name": "setAdminAddress",
      "outputs": [],
      "stateMutability": "nonpayable",
      "type": "function"
    },
    {
      "inputs": [
        {
          "internalType": "uint256[]",
          "name": "mainSet",
          "type": "uint256[]"
        },
        {
          "internalType": "uint256[]",
          "name": "subset",
          "type": "uint256[]"
        }
      ],
      "name": "isSubset",
      "outputs": [
        {
          "internalType": "bool",
          "name": "",
          "type": "bool"
        }
      ],
      "stateMutability": "pure",
      "type": "function",
      "constant": true
    }
  ],
  "bytecode": "0x60a0604052678ac7230489e80000600d55600d54600e55600d54600f5560006010556000601155600060235560006024556000602555600060265560646027553480156200004c57600080fd5b5060405162005f1938038062005f198339810160408190526200006f91620001cd565b6a115eec47f6cf7e350000006040518060400160405280600a81526020016920b9b0b6b4aa37b5b2b760b11b815250604051806040016040528060058152602001644153414d4960d81b815250620000d6620000d06200017960201b60201c565b6200017d565b6004620000e48382620002a4565b506005620000f38282620002a4565b505050600081116200014b5760405162461bcd60e51b815260206004820152601560248201527f45524332304361707065643a2063617020697320300000000000000000000000604482015260640160405180910390fd5b6080526001600655601c80546001600160a01b0319166001600160a01b039290921691909117905562000370565b3390565b600080546001600160a01b038381166001600160a01b0319831681178455604051919092169283917f8be0079c531659141344cd1fd0a4f28419497f9722a3daafe3b4186f6b6457e09190a35050565b600060208284031215620001e057600080fd5b81516001600160a01b0381168114620001f857600080fd5b9392505050565b634e487b7160e01b600052604160045260246000fd5b600181811c908216806200022a57607f821691505b6020821081036200024b57634e487b7160e01b600052602260045260246000fd5b50919050565b601f8211156200029f57600081815260208120601f850160051c810160208610156200027a5750805b601f850160051c820191505b818110156200029b5782815560010162000286565b5050505b505050565b81516001600160401b03811115620002c057620002c0620001ff565b620002d881620002d1845462000215565b8462000251565b602080601f831160018114620003105760008415620002f75750858301515b600019600386901b1c1916600185901b1785556200029b565b600085815260208120601f198616915b82811015620003415788860151825594840194600190910190840162000320565b5085821015620003605787850151600019600388901b60f8161c191681555b5050505050600190811b01905550565b608051615b8d6200038c6000396000610cca0152615b8d6000f3fe608060405234801561001057600080fd5b506004361061036f5760003560e01c806306fdde031461037457806307d3345514610392578063095ea7b3146103a9578063141961bc146103cc5780631677aa3d146103f457806318160ddd146103fd57806318d9adab146104055780631b06cfbc1461041857806323b872dd1461044357806325076468146104565780632a11ced01461045f5780632c1e816d14610472578063313ce5671461048757806333c24bd314610496578063355274ea146104a957806339509351146104b15780633ca75e56146104c45780633ec62c0b146104d7578063402c5133146104ea578063419a7c5d146104fd5780634259d8a21461051257806346c33dd51461051b5780634969a9691461052e5780634ba593c6146105375780634bd38e261461054a57806358cea7d21461056a5780635d03e4871461057d5780635e613423146105905780635fe8e7cc146105995780636717d7a8146105ae57806368841a46146105ce5780636b6a4ad0146105d75780636f1c7617146105fa57806370a0823114610602578063715018a61461061557806379dec48b1461061d5780637d98e20f1461062557806381b08a8e1461064b57806381d036f514610654578063894d71e1146106905780638b69633d146106a35780638bec13cf146106b65780638da5cb5b146106bf57806390537d1f146106c75780639314b214146106da57806395d89b41146106e357806396cad0db146106eb578063978bbdb9146106fe5780639938e929146107075780639bd40aee1461071a5780639dfceaaa1461072d578063a457c2d714610740578063a6b0363314610753578063a9059cbb14610768578063ae2e933b1461077b578063be26ed7f14610784578063c3d03cd41461078c578063c55b6bb7146107a1578063cdada3b6146107b4578063d0b0ce95146107c9578063d8c44f50146107d1578063dbc5bdc4146107d9578063dd62ed3e146107ec578063e4c1be2e146107ff578063ec8b436c14610808578063f1a12cbc14610874578063f2a40db81461087d578063f2fde38b146108e4578063f3401bc3146108f7578063f398c2411461090a578063f4daaba114610912578063f7d975771461091b578063f851a4401461092e578063fa7fb4d814610941578063fdb265b014610971578063fee011771461099c578063ff3f1886146109b1575b600080fd5b61037c6109b9565b60405161038991906145ca565b60405180910390f35b61039b600d5481565b604051908152602001610389565b6103bc6103b7366004614600565b610a4b565b6040519015158152602001610389565b6103df6103da36600461462a565b610a65565b6040516103899998979695949392919061467b565b61039b60215481565b60035461039b565b61037c61041336600461462a565b610b54565b61042b61042636600461462a565b610c00565b6040516001600160a01b039091168152602001610389565b6103bc6104513660046146d9565b610c20565b61039b60235481565b61042b61046d36600461462a565b610c44565b610485610480366004614715565b610c6e565b005b60405160128152602001610389565b61039b6104a436600461462a565b610ca7565b61039b610cc8565b6103bc6104bf366004614600565b610cec565b6104856104d236600461477b565b610d0e565b6104856104e536600461477b565b610f64565b6104856104f8366004614800565b6110b9565b6105056112c2565b6040516103899190614835565b6213c68061039b565b61048561052936600461477b565b611307565b61039b60265481565b610485610545366004614800565b61145a565b61039b610558366004614715565b60156020526000908152604090205481565b61048561057836600461477b565b61155e565b61048561058b366004614715565b6116d6565b61039b600f5481565b6105a1611880565b604051610389919061486f565b61039b6105bc366004614715565b60096020526000908152604090205481565b61039b60115481565b6103bc6105e5366004614715565b601e6020526000908152604090205460ff1681565b6104856118e0565b61039b610610366004614715565b611905565b610485611920565b61039b611934565b61063861063336600461462a565b611951565b60405161038997969594939291906148bc565b61039b60255481565b61067b610662366004614715565b6012602052600090815260409020805460019091015482565b60408051928352602083019190915201610389565b61048561069e36600461477b565b611a2b565b6103bc6106b13660046149ee565b611b60565b61039b60175481565b61042b611bfc565b6104856106d536600461477b565b611c0b565b61039b60105481565b61037c611d69565b60205461042b906001600160a01b031681565b61039b600e5481565b610485610715366004614800565b611d78565b61048561072836600461477b565b6125e1565b61048561073b36600461462a565b612863565b6103bc61074e366004614600565b612976565b61075b6129f1565b6040516103899190614b2e565b6103bc610776366004614600565b612bc5565b61039b60225481565b61039b612bd3565b610794612be2565b6040516103899190614b90565b6104856107af366004614ce3565b612f31565b6107bc612f92565b6040516103899190614d16565b610485612ffe565b61048561327c565b6104856107e736600461477b565b613285565b61039b6107fa366004614ce3565b613383565b61039b60165481565b61084a610816366004614715565b601360205260009081526040902080546001820154600283015460039093015491926001600160a01b039091169160ff1684565b604080519485526001600160a01b0390931660208501529183015215156060820152608001610389565b61039b60245481565b6108bc61088b36600461462a565b600860205260009081526040902080546001820154600283015460039093015491926001600160a01b039091169184565b604080519485526001600160a01b039093166020850152918301526060820152608001610389565b6104856108f2366004614715565b6133ae565b610485610905366004614715565b613427565b61048561357d565b61039b60275481565b610485610929366004614d6e565b613586565b601f5461042b906001600160a01b031681565b61095461094f36600461462a565b613614565b604080519283526001600160a01b03909116602083015201610389565b61098461097f36600461462a565b61364b565b6040516103899c9b9a99989796959493929190614d90565b6109a4613860565b6040516103899190614e22565b60215461039b565b6060600480546109c890614e77565b80601f01602080910402602001604051908101604052809291908181526020018280546109f490614e77565b8015610a415780601f10610a1657610100808354040283529160200191610a41565b820191906000526020600020905b815481529060010190602001808311610a2457829003601f168201915b5050505050905090565b600033610a59818585613930565b60019150505b92915050565b600b8181548110610a7557600080fd5b60009182526020909120600a9091020180546001820154600283015460038401546004850154600586018054959750939560ff909316949193909291610aba90614e77565b80601f0160208091040260200160405190810160405280929190818152602001828054610ae690614e77565b8015610b335780601f10610b0857610100808354040283529160200191610b33565b820191906000526020600020905b815481529060010190602001808311610b1657829003601f168201915b50505050600683015460088401546009909401549293909290915060ff1689565b601b8181548110610b6457600080fd5b906000526020600020016000915090508054610b7f90614e77565b80601f0160208091040260200160405190810160405280929190818152602001828054610bab90614e77565b8015610bf85780601f10610bcd57610100808354040283529160200191610bf8565b820191906000526020600020905b815481529060010190602001808311610bdb57829003601f168201915b505050505081565b60188160038110610c1057600080fd5b01546001600160a01b0316905081565b600033610c2e858285613a54565b610c39858585613ac8565b506001949350505050565b601d8181548110610c5457600080fd5b6000918252602090912001546001600160a01b0316905081565b6020546001600160a01b03163314610c8557600080fd5b601f80546001600160a01b0319166001600160a01b0392909216919091179055565b60078181548110610cb757600080fd5b600091825260209091200154905081565b7f000000000000000000000000000000000000000000000000000000000000000090565b600033610a59818585610cff8383613383565b610d099190614ec7565b613930565b610d16613c6c565b60005b81811015610f55576000600b6001858585818110610d3957610d39614eda565b90506020020135610d4a9190614ef0565b81548110610d5a57610d5a614eda565b90600052602060002090600a020190506000816000015411610dab5760405162461bcd60e51b8152602060048201526005602482015264072646320360dc1b60448201526064015b60405180910390fd5b6000816004015411610de75760405162461bcd60e51b8152602060048201526005602482015264726463203160d81b6044820152606401610da2565b42816008015410610e225760405162461bcd60e51b8152602060048201526005602482015264393231901960d91b6044820152606401610da2565b600181015460009081526008602052604081206004830180549083905560098401549192909160ff16610e625760018301546001600160a01b0316610e6f565b601f546001600160a01b03165b601c5460405163a9059cbb60e01b81529192506001600160a01b03169063a9059cbb90610ea29084908690600401614f03565b6020604051808303816000875af1158015610ec1573d6000803e3d6000fd5b505050506040513d601f19601f82011682018060405250810190610ee59190614f2a565b610f195760405162461bcd60e51b8152602060048201526005602482015264726463203360d81b6044820152606401610da2565b600080516020615b3883398151915284604051610f369190614ff9565b60405180910390a1505050508080610f4d906150a6565b915050610d19565b50610f606001600655565b5050565b601f546001600160a01b0316331480610f955750610f80611bfc565b6001600160a01b0316336001600160a01b0316145b610f9e57600080fd5b60005b818110156110b4576000600a6001858585818110610fc157610fc1614eda565b9050602002810190610fd391906150bf565b610fde919035614ef0565b81548110610fee57610fee614eda565b90600052602060002090600e0201905083838381811061101057611010614eda565b905060200281019061102291906150bf565b60200135600b82015583838381811061103d5761103d614eda565b905060200281019061104f91906150bf565b61105d9060408101906150df565b61106b91600c84019161448b565b5060088101805460ff19166001179055604051600080516020615ad883398151915290611099908390615128565b60405180910390a150806110ac816150a6565b915050610fa1565b505050565b601f546001600160a01b03163314806110ea57506110d5611bfc565b6001600160a01b0316336001600160a01b0316145b6110f357600080fd5b6110fb613c6c565b60005b81811015610f55573683838381811061111957611119614eda565b905060400201905061112e8160000135613cc5565b8035600090815260086020526040902060018101546001600160a01b03161561115657600080fd5b81356009600061116c6040860160208701614715565b6001600160a01b03166001600160a01b03168152602001908152602001600020819055508160200160208101906111a39190614715565b6001820180546001600160a01b0319166001600160a01b03929092169190911790556002810154156111f55760028101805460009091556111f36111ed6040850160208601614715565b82613d1c565b505b600381015415611288576003810180546000909155601c54600183015460405163a9059cbb60e01b81526001600160a01b039283169263a9059cbb92611242929116908590600401614f03565b6020604051808303816000875af1158015611261573d6000803e3d6000fd5b505050506040513d601f19601f820116820180604052508101906112859190614f2a565b50505b600080516020615af8833981519152816040516112a59190615234565b60405180910390a1505080806112ba906150a6565b9150506110fe565b6112ca6144d6565b6040805160608101918290529060189060039082845b81546001600160a01b031681526001909101906020018083116112e0575050505050905090565b61130f613c6c565b3360009081526009602090815260408083205483526008909152902060018101546001600160a01b031661136e5760405162461bcd60e51b8152600401610da29060208082526004908201526306d6320360e41b604082015260600190565b60005b8281101561144e57600084848381811061138d5761138d614eda565b905060200281019061139f91906152bc565b6113a8906153f6565b905061143b83604051806101400160405280600b8054905060016113cc9190614ec7565b8152865460208201528451604090910190600d8111156113ee576113ee614643565b815260200184602001518152602001846020015181526020018460400151815260200184606001518152602001846080015181526020018460a00151815260200160001515815250613d5f565b5080611446816150a6565b915050611371565b5050610f606001600655565b601f546001600160a01b031633148061148b5750611476611bfc565b6001600160a01b0316336001600160a01b0316145b61149457600080fd5b60005b818110156110b4576000600a60018585858181106114b7576114b7614eda565b905060400201600001356114cb9190614ef0565b815481106114db576114db614eda565b600091825260208083206001600e909302018281015484526008909152604090922090810154919250906001600160a01b031615801561151b5750805415155b61152457600080fd5b6115498286868681811061153a5761153a614eda565b90506040020160200135613f77565b50508080611556906150a6565b915050611497565b601f546001600160a01b031633148061158f575061157a611bfc565b6001600160a01b0316336001600160a01b0316145b61159857600080fd5b6115a0613c6c565b60005b81811015610f555760008383838181106115bf576115bf614eda565b90506020028101906115d19190615402565b6115da90615418565b90506115e98160000151613cc5565b8051600090815260086020526040902060018101546001600160a01b03161561161157600080fd5b6116c181604051806101400160405280600b8054905060016116339190614ec7565b815260200184600001548152602001856020015160000151600d81111561165c5761165c614643565b815260200185602001516020015181526020018560200151602001518152602001856020015160400151815260200185602001516060015181526020018560200151608001518152602001856020015160a00151815260200160011515815250613d5f565b505080806116ce906150a6565b9150506115a3565b6001600160a01b038116600090815260156020526040902054806116f957600080fd5b60006014611708600184614ef0565b8154811061171857611718614eda565b9060005260206000209060020201905060026016546117379190615482565b81541161176e5760405162461bcd60e51b8152602060048201526005602482015264070637720360dc1b6044820152606401610da2565b6000601654116117a85760405162461bcd60e51b8152602060048201526005602482015264706377203160d81b6044820152606401610da2565b60006117b2612bd3565b905080601754106117ed5760405162461bcd60e51b81526020600482015260056024820152643831bb901960d91b6044820152606401610da2565b601781905560198054601a80546001600160a01b038084166001600160a01b03199283161790925560188054808416948316851790955593169087169081179092551480156118495750601a546001600160a01b038581169116145b1561187a57601f80546001600160a01b0386166001600160a01b031991821681179092556020805490911690911790555b50505050565b6060601d805480602002602001604051908101604052809291908181526020018280548015610a41576020028201919060005260206000209081546001600160a01b031681526001909101906020018083116112e0575050505050905090565b60006118ea612bd3565b905060115481036118fa57600080fd5b600f54600e55601155565b6001600160a01b031660009081526001602052604090205490565b611928613fb8565b6119326000614017565b565b60006213c680611942612bd3565b61194c9190614ec7565b905090565b600c818154811061196157600080fd5b90600052602060002090600702016000915090508060000154908060010154908060020154908060030154908060040154908060050180546119a290614e77565b80601f01602080910402602001604051908101604052809291908181526020018280546119ce90614e77565b8015611a1b5780601f106119f057610100808354040283529160200191611a1b565b820191906000526020600020905b8154815290600101906020018083116119fe57829003601f168201915b5050505050908060060154905087565b601f546001600160a01b0316331480611a5c5750611a47611bfc565b6001600160a01b0316336001600160a01b0316145b611a6557600080fd5b60005b818110156110b457611aa0838383818110611a8557611a85614eda565b9050602002810190611a9791906154a4565b60200135613cc5565b600a838383818110611ab457611ab4614eda565b9050602002810190611ac691906154a4565b8154600181018355600092835260209092209091600e0201611ae88282615709565b5050600a805460009190611afe90600190614ef0565b81548110611b0e57611b0e614eda565b60009182526020909120600a54600e90920201908155604051909150600080516020615ad883398151915290611b45908390615128565b60405180910390a15080611b58816150a6565b915050611a68565b6000805b8251811015611bf2576000805b8551811015611bce57858181518110611b8c57611b8c614eda565b6020026020010151858481518110611ba657611ba6614eda565b602002602001015103611bbc5760019150611bce565b80611bc6816150a6565b915050611b71565b5080611bdf57600092505050610a5f565b5080611bea816150a6565b915050611b64565b5060019392505050565b6000546001600160a01b031690565b6000611c15612bd3565b905060005b8281101561187a576000600a858584818110611c3857611c38614eda565b9050602002013581548110611c4f57611c4f614eda565b90600052602060002090600e020190508281600d015403611c825760405162461bcd60e51b8152600401610da290615824565b600881015460ff16611ca65760405162461bcd60e51b8152600401610da290615824565b60088101805460ff19169055600d810183905560098101805460009190611ccc90614e77565b90501115611ce75760068101611ce56009830182615843565b505b600a81015415611cfc57600a81015460038201555b600481015415611d1157600b81015460048201555b600c81015415611d3157600c81018054611d2f9160058401916144f4565b505b600080516020615ad883398151915281604051611d4e9190615128565b60405180910390a15080611d61816150a6565b915050611c1a565b6060600580546109c890614e77565b601f546001600160a01b0316331480611da95750611d94611bfc565b6001600160a01b0316336001600160a01b0316145b611db257600080fd5b611dba613c6c565b60005b81811015610f55576000600a6001858585818110611ddd57611ddd614eda565b90506040020160200135611df19190614ef0565b81548110611e0157611e01614eda565b90600052602060002090600e020190506000816000015411611e495760405162461bcd60e51b81526020600482015260016024820152603160f81b6044820152606401610da2565b600180820154600090815260086020526040812091600b90878787818110611e7357611e73614eda565b90506040020160000135611e879190614ef0565b81548110611e9757611e97614eda565b90600052602060002090600a020190506000816000015411611edf5760405162461bcd60e51b81526020600482015260016024820152603360f81b6044820152606401610da2565b42816008015411611f165760405162461bcd60e51b81526020600482015260016024820152600d60fa1b6044820152606401610da2565b611fc483600501805480602002602001604051908101604052809291908181526020018280548015611f6757602002820191906000526020600020905b815481526020019060010190808311611f53575b505050505082600701805480602002602001604051908101604052809291908181526020018280548015611fba57602002820191906000526020600020905b815481526020019060010190808311611fa6575b5050505050611b60565b611ff45760405162461bcd60e51b81526020600482015260016024820152603560f81b6044820152606401610da2565b8260030154816004015410156120305760405162461bcd60e51b81526020600482015260016024820152601b60f91b6044820152606401610da2565b600283015460ff16600d81111561204957612049614643565b600282015460ff16600d81111561206257612062614643565b146120935760405162461bcd60e51b81526020600482015260016024820152603760f81b6044820152606401610da2565b8060060154836004015484600301546120ac9190615482565b11156120de5760405162461bcd60e51b81526020600482015260016024820152600760fb1b6044820152606401610da2565b600181015460009081526008602052604081206003850154600e549192909168056bc75e2d631000009061211290846154f9565b61211c9190615482565b9050600061212a8284614ef0565b905060006040518060e00160405280600c80549050600161214b9190614ec7565b8152895460208083019190915288546040808401919091526060808401899052608080850189905282518085018452600080825260a0808801929092524260c090970196909652600c80546001810182559652865160079096027fdf6966c971051c3d54ec59162606531493a51404a002842f56009d7e5cf4a8c78101968755948701517fdf6966c971051c3d54ec59162606531493a51404a002842f56009d7e5cf4a8c8860155928601517fdf6966c971051c3d54ec59162606531493a51404a002842f56009d7e5cf4a8c9850155908501517fdf6966c971051c3d54ec59162606531493a51404a002842f56009d7e5cf4a8ca8401558401517fdf6966c971051c3d54ec59162606531493a51404a002842f56009d7e5cf4a8cb83015583015192935083927fdf6966c971051c3d54ec59162606531493a51404a002842f56009d7e5cf4a8cc909101906122a19082615919565b5060c091909101516006918201558151908801805460018101825560009182526020822001919091556004870180548692906122de908490614ef0565b9250508190555082602260008282546122f79190614ec7565b909155505060215460009061230a610cc8565b6123149190614ef0565b905060008185116123255784612327565b815b9050806021600082825461233b9190614ec7565b909155506000905068056bc75e2d6310000061235883600a6154f9565b61236a90670de0b6b3a76400006154f9565b6123749190615482565b9050600068056bc75e2d6310000061238d84600f6154f9565b61239f90670de0b6b3a76400006154f9565b6123a99190615482565b90506000816123b88486614ef0565b6123c29190614ef0565b905080156123e0576020546123e0906001600160a01b031682613d1c565b60018c01546001600160a01b031661245657811561241257818c600201600082825461240c9190614ec7565b90915550505b868c60030160008282546124269190614ec7565b9091555050604051600080516020615af883398151915290612449908e90615234565b60405180910390a16124f1565b81156124745760018c0154612474906001600160a01b031683613d1c565b601c5460018d015460405163a9059cbb60e01b81526001600160a01b039283169263a9059cbb926124ac929116908b90600401614f03565b6020604051808303816000875af11580156124cb573d6000803e3d6000fd5b505050506040513d601f19601f820116820180604052508101906124ef9190614f2a565b505b82156125655760018a01546001600160a01b031661254d57828a600201600082825461251d9190614ec7565b9091555050604051600080516020615af883398151915290612540908c90615234565b60405180910390a1612565565b60018a0154612565906001600160a01b031684613d1c565b7f163f215ebbfd927d87234e39d082b1b03b551dadbca611aab6568ee11a75e8d78660405161259491906159d0565b60405180910390a1600080516020615b388339815191528b6040516125b99190614ff9565b60405180910390a15050505050505050505050505080806125d9906150a6565b915050611dbd565b60006125eb612bd3565b905060005b8281101561187a5760006013600086868581811061261057612610614eda565b90506020020160208101906126259190614715565b6001600160a01b03166001600160a01b03168152602001908152602001600020905060008160020154116126835760405162461bcd60e51b8152602060048201526005602482015264076617620360dc1b6044820152606401610da2565b828160020154106126be5760405162461bcd60e51b8152602060048201526005602482015264766176203160d81b6044820152606401610da2565b600381015460ff16156126fb5760405162461bcd60e51b81526020600482015260056024820152643b30bb101960d91b6044820152606401610da2565b60038101805460ff1916600117905580546016805460009061271e908490614ec7565b909155505060018101546001600160a01b031660009081526015602052604090205480156127995760006014612755600184614ef0565b8154811061276557612765614eda565b90600052602060002090600202019050826000015481600001600082825461278d9190614ec7565b90915550612829915050565b6014805460018181018355845460029092027fce6d7b5282bd9a3661ae061feed1dbda4e52ab073b1f9285be6e155d9c38d4ec810192909255840180547fce6d7b5282bd9a3661ae061feed1dbda4e52ab073b1f9285be6e155d9c38d4ed90920180546001600160a01b0319166001600160a01b0393841617905591549154166000908152601560205260409020555b600080516020615ab8833981519152826040516128469190615a35565b60405180910390a15050808061285b906150a6565b9150506125f0565b60008111801561287b575068056bc75e2d6310000081105b6128b05760405162461bcd60e51b815260206004820152600660248201526507366727620360d41b6044820152606401610da2565b3360009081526012602052604090208054156128cf576128cf33614067565b60006128da33611905565b9050600081116129155760405162461bcd60e51b815260206004820152600660248201526573667276203160d01b6044820152606401610da2565b806010546129239190614ec7565b61292d84836154f9565b601054600f5461293d91906154f9565b6129479190614ec7565b6129519190615482565b600f8190555080601060008282546129699190614ec7565b9091555050815560010155565b600033816129848286613383565b9050838110156129e45760405162461bcd60e51b815260206004820152602560248201527f45524332303a2064656372656173656420616c6c6f77616e63652062656c6f77604482015264207a65726f60d81b6064820152608401610da2565b610c398286868403613930565b6060600b805480602002602001604051908101604052809291908181526020016000905b82821015612bbc57838290600052602060002090600a02016040518061014001604052908160008201548152602001600182015481526020016002820160009054906101000a900460ff16600d811115612a7157612a71614643565b600d811115612a8257612a82614643565b81526020016003820154815260200160048201548152602001600582018054612aaa90614e77565b80601f0160208091040260200160405190810160405280929190818152602001828054612ad690614e77565b8015612b235780601f10612af857610100808354040283529160200191612b23565b820191906000526020600020905b815481529060010190602001808311612b0657829003601f168201915b505050505081526020016006820154815260200160078201805480602002602001604051908101604052809291908181526020018280548015612b8557602002820191906000526020600020905b815481526020019060010190808311612b71575b5050509183525050600882015460208083019190915260099092015460ff1615156040909101529082526001929092019101612a15565b50505050905090565b600033610a59818585613ac8565b600061194c6213c68042615482565b6060600a805480602002602001604051908101604052809291908181526020016000905b82821015612bbc57838290600052602060002090600e0201604051806101c001604052908160008201548152602001600182015481526020016002820160009054906101000a900460ff16600d811115612c6257612c62614643565b600d811115612c7357612c73614643565b8152602001600382015481526020016004820154815260200160058201805480602002602001604051908101604052809291908181526020018280548015612cda57602002820191906000526020600020905b815481526020019060010190808311612cc6575b50505050508152602001600682018054612cf390614e77565b80601f0160208091040260200160405190810160405280929190818152602001828054612d1f90614e77565b8015612d6c5780601f10612d4157610100808354040283529160200191612d6c565b820191906000526020600020905b815481529060010190602001808311612d4f57829003601f168201915b50505050508152602001600782018054612d8590614e77565b80601f0160208091040260200160405190810160405280929190818152602001828054612db190614e77565b8015612dfe5780601f10612dd357610100808354040283529160200191612dfe565b820191906000526020600020905b815481529060010190602001808311612de157829003601f168201915b5050509183525050600882015460ff1615156020820152600982018054604090920191612e2a90614e77565b80601f0160208091040260200160405190810160405280929190818152602001828054612e5690614e77565b8015612ea35780601f10612e7857610100808354040283529160200191612ea3565b820191906000526020600020905b815481529060010190602001808311612e8657829003601f168201915b50505050508152602001600a8201548152602001600b8201548152602001600c8201805480602002602001604051908101604052809291908181526020018280548015612f0f57602002820191906000526020600020905b815481526020019060010190808311612efb575b50505050508152602001600d8201548152505081526020019060010190612c06565b612f39613fb8565b601f546001600160a01b0316158015612f5b57506020546001600160a01b0316155b612f6457600080fd5b601f80546001600160a01b039384166001600160a01b03199182161790915560208054929093169116179055565b60606014805480602002602001604051908101604052809291908181526020016000905b82821015612bbc5760008481526020908190206040805180820190915260028502909101805482526001908101546001600160a01b0316828401529083529092019101612fb6565b613006613c6c565b600061301160035490565b9050600061301d612bd3565b9050600082116130575760405162461bcd60e51b8152602060048201526005602482015264064667020360dc1b6044820152606401610da2565b6026548114158061306a57506000602354115b61309e5760405162461bcd60e51b8152602060048201526005602482015264646670203160d81b6044820152606401610da2565b6022546000036130b15760265550613272565b6023546000036130d257601d54602481905560225460255560235560268190555b60006023546024546130e49190614ef0565b9050600060235460275411613105576027546131009083614ec7565b613112565b6023546131129083614ec7565b60255460235491925090835b83811015613250576000601d828154811061313b5761313b614eda565b60009182526020822001546001600160a01b0316915061315a82611905565b90506000896022548361316d91906154f9565b6131779190615482565b90506131838187614ef0565b9550613190600186614ef0565b601c5460405163a9059cbb60e01b81529196506001600160a01b03169063a9059cbb906131c39086908590600401614f03565b6020604051808303816000875af11580156131e2573d6000803e3d6000fd5b505050506040513d601f19601f820116820180604052508101906132069190614f2a565b61323a5760405162461bcd60e51b8152602060048201526005602482015264646670203360d81b6044820152606401610da2565b5050508080613248906150a6565b91505061311e565b5060258290556023819055600081900361326b576025546022555b5050505050505b6119326001600655565b61193233614067565b601f546001600160a01b03163314806132b657506132a1611bfc565b6001600160a01b0316336001600160a01b0316145b6132bf57600080fd5b60005b818110156110b457601b8383838181106132de576132de614eda565b90506020028101906132f091906155a8565b825460018101845560009384526020909320909201916133109183615643565b50601b547f08581e03117d96ad4b36d978f525bfe879526d97ffb59cecf67eb24a801e03cf9084848481811061334857613348614eda565b905060200281019061335a91906155a8565b60405161336993929190615a6e565b60405180910390a18061337b816150a6565b9150506132c2565b6001600160a01b03918216600090815260026020908152604080832093909416825291909152205490565b6133b6613fb8565b6001600160a01b03811661341b5760405162461bcd60e51b815260206004820152602660248201527f4f776e61626c653a206e6577206f776e657220697320746865207a65726f206160448201526564647265737360d01b6064820152608401610da2565b61342481614017565b50565b6001600160a01b0381166134655760405162461bcd60e51b8152602060048201526005602482015264073617620360dc1b6044820152606401610da2565b600061347033611905565b9050600081116134aa5760405162461bcd60e51b8152602060048201526005602482015264736176203160d81b6044820152606401610da2565b3360009081526013602052604090208054156134c9576134c933614161565b6040518060800160405280838152602001846001600160a01b031681526020016134f1612bd3565b8152600060209182018190523381526013825260409081902083518155918301516001830180546001600160a01b0319166001600160a01b0390921691909117905582810151600283015560609092015160038201805460ff19169115159190911790559051600080516020615ab88339815191529161357091615a35565b60405180910390a1505050565b61193233614161565b3360009081526009602090815260408083205483526008909152902060018101546001600160a01b03166135b957600080fd5b6000600a6135c8600186614ef0565b815481106135d8576135d8614eda565b90600052602060002090600e0201905060008160000154116135f957600080fd5b815460018201541461360a57600080fd5b61187a8184613f77565b6014818154811061362457600080fd5b6000918252602090912060029091020180546001909101549091506001600160a01b031682565b600a818154811061365b57600080fd5b60009182526020909120600e9091020180546001820154600283015460038401546004850154600686018054959750939560ff9093169491939092916136a090614e77565b80601f01602080910402602001604051908101604052809291908181526020018280546136cc90614e77565b80156137195780601f106136ee57610100808354040283529160200191613719565b820191906000526020600020905b8154815290600101906020018083116136fc57829003601f168201915b50505050509080600701805461372e90614e77565b80601f016020809104026020016040519081016040528092919081815260200182805461375a90614e77565b80156137a75780601f1061377c576101008083540402835291602001916137a7565b820191906000526020600020905b81548152906001019060200180831161378a57829003601f168201915b5050506008840154600985018054949560ff9092169491935091506137cb90614e77565b80601f01602080910402602001604051908101604052809291908181526020018280546137f790614e77565b80156138445780601f1061381957610100808354040283529160200191613844565b820191906000526020600020905b81548152906001019060200180831161382757829003601f168201915b50505050509080600a01549080600b01549080600d015490508c565b6060601b805480602002602001604051908101604052809291908181526020016000905b82821015612bbc5783829060005260206000200180546138a390614e77565b80601f01602080910402602001604051908101604052809291908181526020018280546138cf90614e77565b801561391c5780601f106138f15761010080835404028352916020019161391c565b820191906000526020600020905b8154815290600101906020018083116138ff57829003601f168201915b505050505081526020019060010190613884565b6001600160a01b0383166139925760405162461bcd60e51b8152602060048201526024808201527f45524332303a20617070726f76652066726f6d20746865207a65726f206164646044820152637265737360e01b6064820152608401610da2565b6001600160a01b0382166139f35760405162461bcd60e51b815260206004820152602260248201527f45524332303a20617070726f766520746f20746865207a65726f206164647265604482015261737360f01b6064820152608401610da2565b6001600160a01b0383811660008181526002602090815260408083209487168084529482529182902085905590518481527f8c5be1e5ebec7d5bd14f71427d1e84f3dd0314c0f7b2291e5b200ac8c7c3b925910160405180910390a3505050565b6000613a608484613383565b9050600019811461187a5781811015613abb5760405162461bcd60e51b815260206004820152601d60248201527f45524332303a20696e73756666696369656e7420616c6c6f77616e63650000006044820152606401610da2565b61187a8484848403613930565b6001600160a01b038316613b2c5760405162461bcd60e51b815260206004820152602560248201527f45524332303a207472616e736665722066726f6d20746865207a65726f206164604482015264647265737360d81b6064820152608401610da2565b6001600160a01b038216613b8e5760405162461bcd60e51b815260206004820152602360248201527f45524332303a207472616e7366657220746f20746865207a65726f206164647260448201526265737360e81b6064820152608401610da2565b613b99838383614285565b6001600160a01b03831660009081526001602052604090205481811015613c115760405162461bcd60e51b815260206004820152602660248201527f45524332303a207472616e7366657220616d6f756e7420657863656564732062604482015265616c616e636560d01b6064820152608401610da2565b6001600160a01b038085166000818152600160205260408082208686039055928616808252908390208054860190559151600080516020615b1883398151915290613c5f9086815260200190565b60405180910390a361187a565b600260065403613cbe5760405162461bcd60e51b815260206004820152601f60248201527f5265656e7472616e637947756172643a207265656e7472616e742063616c6c006044820152606401610da2565b6002600655565b60008181526008602052604081205490036134245760008181526008602052604081208290556007805460018101825591527fa66cc928b5edb82af9bd49922954155ab7b0942694bea4ce44661d9a8736c6880155565b60235415613d555760405162461bcd60e51b8152600401610da2906020808252600490820152630534d20360e41b604082015260600190565b610f608282614365565b6000816060015111613d7057600080fd5b60008160a001515111613d8257600080fd5b601c5460608201516040516323b872dd60e01b815233600482015230602482015260448101919091526001600160a01b03909116906323b872dd906064016020604051808303816000875af1158015613ddf573d6000803e3d6000fd5b505050506040513d601f19601f82011682018060405250810190613e039190614f2a565b613e0c57600080fd5b600b8054600181810183556000929092528251600a9091027f0175b7a638427703f0dbe7bb9bbf987a2551717b34e79f33b5b1008d1fa01db9810191825560208401517f0175b7a638427703f0dbe7bb9bbf987a2551717b34e79f33b5b1008d1fa01dba82015560408401517f0175b7a638427703f0dbe7bb9bbf987a2551717b34e79f33b5b1008d1fa01dbb9091018054859460ff199091169083600d811115613eb957613eb9614643565b0217905550606082015160038201556080820151600482015560a08201516005820190613ee69082615919565b5060c0820151600682015560e08201518051613f0c916007840191602090910190614534565b506101008201516008820155610120909101516009909101805460ff19169115159190911790558051600583018054600181018255600091825260209091200155604051600080516020615b3883398151915290613f6b908390615aa4565b60405180910390a15050565b60008111613f8457600080fd5b600a820181905560088201805460ff19166001179055604051600080516020615ad883398151915290613f6b908490615128565b33613fc1611bfc565b6001600160a01b0316146119325760405162461bcd60e51b815260206004820181905260248201527f4f776e61626c653a2063616c6c6572206973206e6f7420746865206f776e65726044820152606401610da2565b600080546001600160a01b038381166001600160a01b0319831681178455604051919092169283917f8be0079c531659141344cd1fd0a4f28419497f9722a3daafe3b4186f6b6457e09190a35050565b6001600160a01b038116600090815260126020526040902080546140b65760405162461bcd60e51b815260206004820152600660248201526507266727620360d41b6044820152606401610da2565b80546010546000916140c791614ef0565b90506000601054600f546140db91906154f9565b90506000836001015484600001546140f391906154f9565b9050600081831161410557600061410f565b61410f8284614ef0565b9050831561412e576141218482615482565b600f55601084905561413a565b600d54600f5560006010555b5050506001600160a01b039092166000908152601260205260408120818155600101555050565b6001600160a01b038116600090815260136020526040902080546141b05760405162461bcd60e51b815260206004820152600660248201526507261766820360d41b6044820152606401610da2565b600381015460ff1615614243578054601680546000906141d1908490614ef0565b909155505060018101546001600160a01b0316600090815260156020526040902054806141fd57600080fd5b8154601461420c600184614ef0565b8154811061421c5761421c614eda565b9060005260206000209060020201600001600082825461423c9190614ef0565b9091555050505b506001600160a01b031660009081526013602052604081208181556001810180546001600160a01b03191690556002810191909155600301805460ff19169055565b6001600160a01b0382166000908152601e602052604090205460ff161580156142ae5750600081115b1561431757601d805460018082019092557f6d4407e7be21f808e6509aa9fa9143369579dd7d760fe20a2c09680fc146134f0180546001600160a01b0319166001600160a01b0385169081179091556000908152601e60205260409020805460ff191690911790555b6001600160a01b0383166000908152601260205260409020541561433e5761433e83614067565b6001600160a01b038316600090815260136020526040902054156110b4576110b483614161565b61436d610cc8565b8161437760035490565b6143819190614ec7565b11156143cb5760405162461bcd60e51b8152602060048201526019602482015278115490cc8c10d85c1c19590e8818d85c08195e18d959591959603a1b6044820152606401610da2565b610f6082826001600160a01b0382166144265760405162461bcd60e51b815260206004820152601f60248201527f45524332303a206d696e7420746f20746865207a65726f2061646472657373006044820152606401610da2565b61443260008383614285565b80600360008282546144449190614ec7565b90915550506001600160a01b038216600081815260016020908152604080832080548601905551848152600080516020615b18833981519152910160405180910390a35050565b8280548282559060005260206000209081019282156144c6579160200282015b828111156144c65782358255916020019190600101906144ab565b506144d292915061456f565b5090565b60405180606001604052806003906020820280368337509192915050565b8280548282559060005260206000209081019282156144c65760005260206000209182015b828111156144c6578254825591600101919060010190614519565b8280548282559060005260206000209081019282156144c6579160200282015b828111156144c6578251825591602001919060010190614554565b5b808211156144d25760008155600101614570565b6000815180845260005b818110156145aa5760208185018101518683018201520161458e565b506000602082860101526020601f19601f83011685010191505092915050565b6020815260006145dd6020830184614584565b9392505050565b80356001600160a01b03811681146145fb57600080fd5b919050565b6000806040838503121561461357600080fd5b61461c836145e4565b946020939093013593505050565b60006020828403121561463c57600080fd5b5035919050565b634e487b7160e01b600052602160045260246000fd5b600e811061467757634e487b7160e01b600052602160045260246000fd5b9052565b60006101208b83528a6020840152614696604084018b614659565b8860608401528760808401528060a08401526146b481840188614584565b60c0840196909652505060e08101929092521515610100909101529695505050505050565b6000806000606084860312156146ee57600080fd5b6146f7846145e4565b9250614705602085016145e4565b9150604084013590509250925092565b60006020828403121561472757600080fd5b6145dd826145e4565b60008083601f84011261474257600080fd5b5081356001600160401b0381111561475957600080fd5b6020830191508360208260051b850101111561477457600080fd5b9250929050565b6000806020838503121561478e57600080fd5b82356001600160401b038111156147a457600080fd5b6147b085828601614730565b90969095509350505050565b60008083601f8401126147ce57600080fd5b5081356001600160401b038111156147e557600080fd5b6020830191508360208260061b850101111561477457600080fd5b6000806020838503121561481357600080fd5b82356001600160401b0381111561482957600080fd5b6147b0858286016147bc565b60608101818360005b60038110156148665781516001600160a01b031683526020928301929091019060010161483e565b50505092915050565b6020808252825182820181905260009190848201906040850190845b818110156148b05783516001600160a01b03168352928401929184019160010161488b565b50909695505050505050565b87815286602082015285604082015284606082015283608082015260e060a082015260006148ed60e0830185614584565b90508260c083015298975050505050505050565b634e487b7160e01b600052604160045260246000fd5b60405160c081016001600160401b038111828210171561493957614939614901565b60405290565b604051601f8201601f191681016001600160401b038111828210171561496757614967614901565b604052919050565b600082601f83011261498057600080fd5b813560206001600160401b0382111561499b5761499b614901565b8160051b6149aa82820161493f565b92835284810182019282810190878511156149c457600080fd5b83870192505b848310156149e3578235825291830191908301906149ca565b979650505050505050565b60008060408385031215614a0157600080fd5b82356001600160401b0380821115614a1857600080fd5b614a248683870161496f565b93506020850135915080821115614a3a57600080fd5b50614a478582860161496f565b9150509250929050565b600081518084526020808501945080840160005b83811015614a8157815187529582019590820190600101614a65565b509495945050505050565b600061014082518452602083015160208501526040830151614ab16040860182614659565b50606083015160608501526080830151608085015260a08301518160a0860152614add82860182614584565b91505060c083015160c085015260e083015184820360e0860152614b018282614a51565b91505061010080840151818601525061012080840151614b248287018215159052565b5090949350505050565b6000602080830181845280855180835260408601915060408160051b870101925083870160005b82811015614b8357603f19888603018452614b71858351614a8c565b94509285019290850190600101614b55565b5092979650505050505050565b60006020808301818452808551808352604092508286019150828160051b87010184880160005b83811015614cd557603f1989840301855281516101c081518552888201518986015287820151614be989870182614659565b50606082810151908601526080808301519086015260a080830151818701839052614c1683880182614a51565b9250505060c08083015186830382880152614c318382614584565b9250505060e08083015186830382880152614c4c8382614584565b9250505061010080830151614c648288018215159052565b50506101208083015186830382880152614c7e8382614584565b925050506101408083015181870152506101608083015181870152506101808083015186830382880152614cb28382614a51565b6101a0948501519790940196909652505094870194925090860190600101614bb7565b509098975050505050505050565b60008060408385031215614cf657600080fd5b614cff836145e4565b9150614d0d602084016145e4565b90509250929050565b602080825282518282018190526000919060409081850190868401855b82811015614d61578151805185528601516001600160a01b0316868501529284019290850190600101614d33565b5091979650505050505050565b60008060408385031215614d8157600080fd5b50508035926020909101359150565b60006101808e83528d6020840152614dab604084018e614659565b8b60608401528a60808401528060a0840152614dc98184018b614584565b905082810360c0840152614ddd818a614584565b905087151560e0840152828103610100840152614dfa8188614584565b6101208401969096525050610140810192909252610160909101529998505050505050505050565b6000602080830181845280855180835260408601915060408160051b870101925083870160005b82811015614b8357603f19888603018452614e65858351614584565b94509285019290850190600101614e49565b600181811c90821680614e8b57607f821691505b602082108103614eab57634e487b7160e01b600052602260045260246000fd5b50919050565b634e487b7160e01b600052601160045260246000fd5b80820180821115610a5f57610a5f614eb1565b634e487b7160e01b600052603260045260246000fd5b81810381811115610a5f57610a5f614eb1565b6001600160a01b03929092168252602082015260400190565b801515811461342457600080fd5b600060208284031215614f3c57600080fd5b81516145dd81614f1c565b60008154614f5481614e77565b808552602060018381168015614f715760018114614f8b57614fb9565b60ff1985168884015283151560051b880183019550614fb9565b866000528260002060005b85811015614fb15781548a8201860152908301908401614f96565b890184019650505b505050505092915050565b6000815480845260208085019450836000528060002060005b83811015614a8157815487529582019560019182019101614fdd565b602081528154602082015260018201546040820152600061501e600284015460ff1690565b61502b6060840182614659565b5060038301546080830152600483015460a08301526101408060c084015261505a610160840160058601614f47565b600685015460e0850152838103601f190161010085015261507e8160078701614fc4565b90506008850154610120850152615099600986015460ff1690565b1515919093015250919050565b6000600182016150b8576150b8614eb1565b5060010190565b60008235605e198336030181126150d557600080fd5b9190910192915050565b6000808335601e198436030181126150f657600080fd5b8301803591506001600160401b0382111561511057600080fd5b6020019150600581901b360382131561477457600080fd5b602081528154602082015260018201546040820152600061514d600284015460ff1690565b61515a6060840182614659565b5060038301546080830152600483015460a08301526101c08060c08401526151896101e0840160058601614fc4565b601f19808583030160e08601526151a38260068801614f47565b915080858303016101008601526151bd8260078801614f47565b91506151cd600887015460ff1690565b151561012086015284820381016101408601526151ed8260098801614f47565b9150600a860154610160860152600b86015461018086015280858303016101a08601525061521e81600c8701614fc4565b9050600d85015482850152809250505092915050565b602080825282549082015260018201546001600160a01b03166040820152600282015460608201526003820154608082015260e060a08201526000615280610100830160048501614fc4565b601f19808483030160c085015261529a8260058701614fc4565b9150808483030160e0850152506152b48160068601614fc4565b949350505050565b6000823560be198336030181126150d557600080fd5b600e811061342457600080fd5b80356145fb816152d2565b600082601f8301126152fb57600080fd5b81356001600160401b0381111561531457615314614901565b615327601f8201601f191660200161493f565b81815284602083860101111561533c57600080fd5b816020850160208301376000918101602001919091529392505050565b600060c0828403121561536b57600080fd5b615373614917565b905061537e826152df565b81526020828101359082015260408201356001600160401b03808211156153a457600080fd5b6153b0858386016152ea565b60408401526060840135606084015260808401359150808211156153d357600080fd5b506153e08482850161496f565b60808301525060a082013560a082015292915050565b6000610a5f3683615359565b60008235603e198336030181126150d557600080fd5b60006040823603121561542a57600080fd5b604080519081016001600160401b03808211838310171561544d5761544d614901565b8160405284358352602085013591508082111561546957600080fd5b5061547636828601615359565b60208301525092915050565b60008261549f57634e487b7160e01b600052601260045260246000fd5b500490565b600082356101be198336030181126150d557600080fd5b60008135610a5f816152d2565b600e82106154e657634e487b7160e01b600052602160045260246000fd5b60ff1981541660ff831681178255505050565b8082028115828204841417610a5f57610a5f614eb1565b5b81811015610f605760008155600101615511565b6001600160401b0383111561553c5761553c614901565b600160401b83111561555057615550614901565b80548382558084101561557657816000526020600020615574828201868301615510565b505b50818160005260208060002060005b8681101561559f5783358282015592820192600101615585565b50505050505050565b6000808335601e198436030181126155bf57600080fd5b8301803591506001600160401b038211156155d957600080fd5b60200191503681900382131561477457600080fd5b601f8211156110b457806000526020600020601f840160051c810160208510156156155750805b615627601f850160051c830182615510565b5050505050565b600019600383901b1c191660019190911b1790565b6001600160401b0383111561565a5761565a614901565b61566e836156688354614e77565b836155ee565b6000601f84116001811461569c576000851561568a5750838201355b615694868261562e565b845550615627565b600083815260209020601f19861690835b828110156156cd57868501358255602094850194600190920191016156ad565b50868210156156ea5760001960f88860031b161c19848701351681555b505060018560011b0183555050505050565b60008135610a5f81614f1c565b813581556020820135600182015561572f615726604084016154bb565b600283016154c8565b606082013560038201556080820135600482015561575060a08301836150df565b61575e818360058601615525565b505061576d60c08301836155a8565b61577b818360068601615643565b505061578a60e08301836155a8565b615798818360078601615643565b50506157c36157aa61010084016156fc565b6008830160ff1981541660ff8315151681178255505050565b6157d16101208301836155a8565b6157df818360098601615643565b5050610140820135600a820155610160820135600b8201556158056101808301836150df565b6158138183600c8601615525565b50506101a0820135600d8201555050565b602080825260059082015264061687520360dc1b604082015260600190565b81810361584e575050565b6158588254614e77565b6001600160401b0381111561586f5761586f614901565b6158838161587d8454614e77565b846155ee565b6000601f8211600181146158b1576000831561589f5750848201545b6158a9848261562e565b855550615627565b600085815260209020601f19841690600086815260209020845b838110156158eb57828601548255600195860195909101906020016158cb565b50858310156159095781850154600019600388901b60f8161c191681555b5050505050600190811b01905550565b81516001600160401b0381111561593257615932614901565b6159408161587d8454614e77565b602080601f83116001811461596f576000841561595d5750858301515b615967858261562e565b8655506159c8565b600085815260208120601f198616915b8281101561599e5788860151825594840194600190910190840161597f565b50858210156159bc5787850151600019600388901b60f8161c191681555b505060018460011b0185555b505050505050565b6020815281516020820152602082015160408201526040820151606082015260608201516080820152608082015160a0820152600060a083015160e060c0840152615a1f610100840182614584565b905060c084015160e08401528091505092915050565b8154815260018201546001600160a01b0316602082015260028201546040820152600382015460ff161515606082015260808101610a5f565b83815260406020820152816040820152818360608301376000818301606090810191909152601f909201601f1916010192915050565b6020815260006145dd6020830184614a8c56fee08472d1275fefbb15ff0aea278bb1f42c491be3fa4358160826ba7e420ae61396e9914f87caf53079f3441ee12036434bc4ea93f85df92beb30c7c918984e9fe1ab017037dfdbe8aeea88ca10733a62fe91b3791c7ab2f30b54a9e2a0b0d319ddf252ad1be2c89b69c2b068fc378daa952ba7f163c4a11628f55a4df523b3efe4aca3c0fc408b3a8ce278b40b298311b8dca09ac3c3d5d1068f014e01ac551ba2646970667358221220da4102c6ec31551db3129ea782135c95c4703d32d6dfd87b35c61514234c500064736f6c63430008130033",
  "immutableReferences": {
    "850": [
      {
        "length": 32,
        "start": 3274
      }
    ]
  },
  "source": "// SPDX-License-Identifier: MIT\npragma solidity ^0.8.9;\nimport \"@openzeppelin/contracts/access/Ownable.sol\";\nimport \"@openzeppelin/contracts/token/ERC20/extensions/ERC20Capped.sol\";\nimport \"@openzeppelin/contracts/security/ReentrancyGuard.sol\";\n\ncontract Asami is Ownable, ERC20Capped, ReentrancyGuard {\n    enum Site {\n      X,\n      Instagram,\n      LinkedIn,\n      Facebook,\n      TikTok,\n      Youtube,\n      Nostr,\n      Bluesky,\n      Reserved1,\n      Reserved2,\n      Reserved3,\n      Reserved4,\n      Reserved5,\n      Reserved6\n    }\n\n    struct Account {\n        uint256 id;\n        address addr;\n        uint256 unclaimedAsamiTokens;\n        uint256 unclaimedDocRewards;\n        uint256[] handles;\n        uint256[] campaigns;\n        uint256[] collabs;\n    }\n    uint256[] public accountIds;\n    mapping(uint256 => Account) public accounts;\n    mapping(address => uint256) public accountIdByAddress;\n    event AccountSaved(Account account);\n\n    struct Handle {\n        uint256 id;\n        uint256 accountId;\n        Site site;\n        uint256 price;\n        uint256 score;\n        uint256[] topics;\n        string username;\n        string userId;\n        bool needsUpdate;\n        string newUsername;\n        uint256 newPrice;\n        uint256 newScore;\n        uint256[] newTopics;\n        uint256 lastUpdated;\n    }\n    Handle[] public handles;\n    event HandleSaved(Handle handle);\n\n    function getHandles() public view returns (Handle[] memory) {\n        return handles;\n    }\n\n    struct Campaign {\n        uint256 id;\n        uint256 accountId;\n        Site site;\n        uint256 budget;\n        uint256 remaining;\n        string contentId;\n        uint256 priceScoreRatio;\n        uint256[] topics;\n        uint256 validUntil;\n        bool fundedByAdmin;\n    }\n    Campaign[] public campaigns;\n    event CampaignSaved(Campaign campaign);\n    function getCampaigns() public view returns (Campaign[] memory) {\n        return campaigns;\n    }\n\n    struct Collab {\n        uint256 id;\n        uint256 handleId;\n        uint256 campaignId;\n        uint256 gross;\n        uint256 fee;\n        string proof;\n        uint256 createdAt;\n    }\n    Collab[] public collabs;\n    event CollabSaved(Collab collab);\n\n    uint256 public defaultFeeRate = 10 * 1e18;\n    uint256 public feeRate = defaultFeeRate;\n    uint256 public votedFeeRate = defaultFeeRate;\n    uint256 public votedFeeRateVoteCount = 0;\n    /* To make the protocol more predictable, changes are applied only once every period */\n    uint256 public lastVotedFeeRateAppliedOn = 0;\n\n    struct FeeRateVote {\n        uint256 votes;\n        uint256 rate;\n    }\n    mapping(address => FeeRateVote) public feeRateVotes;\n\n    struct AdminVote {\n        uint256 votes;\n        address candidate;\n        uint256 cycle;\n        bool vested;\n    }\n    /* Maps holders to their vote */\n    mapping(address => AdminVote) public submittedAdminVotes;\n    event AdminVoteSaved(AdminVote vote);\n\n    struct AdminVoteCount {\n        uint256 votes;\n        address candidate;\n    }\n\n    /*\n  We're only storing all historic vote counts to have a view function that helps find out\n  which candidate to proclaim without relying on events.\n  */\n    AdminVoteCount[] public adminVoteCounts;\n    mapping(address => uint256) public adminVoteCountIdByCandidate;\n\n    function allAdminVoteCounts()\n        public\n        view\n        returns (AdminVoteCount[] memory)\n    {\n        return adminVoteCounts;\n    }\n\n    uint256 public vestedAdminVotesTotal;\n    uint256 public lastAdminElection;\n    address[3] public latestAdminElections;\n\n    function getLatestAdminElections() public view returns (address[3] memory) {\n        return latestAdminElections;\n    }\n\n    string[] public topics;\n    event TopicSaved(uint256 id, string name);\n\n    IERC20 internal doc;\n    address[] public holders;\n    mapping(address => bool) public trackedHolders;\n\n    address public admin; // An address that may be stored on a server.\n    address public adminTreasury; // A cold storage address for admin money.\n\n    uint256 public claimedAsamiTokens;\n\n    modifier onlyAdmin() {\n        require(msg.sender == admin || msg.sender == owner());\n        _;\n    }\n\n    constructor(\n        address _dollarOnChainAddress\n    ) ERC20(\"AsamiToken\", \"ASAMI\") ERC20Capped(21 * 1e24) {\n        doc = IERC20(_dollarOnChainAddress);\n    }\n\n    function _beforeTokenTransfer(\n        address from,\n        address to,\n        uint256 amount\n    ) internal override {\n        super._beforeTokenTransfer(from, to, amount);\n        if (!trackedHolders[to] && amount > 0) {\n            holders.push(to);\n            trackedHolders[to] = true;\n        }\n\n        if (feeRateVotes[from].votes > 0) {\n            removeFeeRateVoteHelper(from);\n        }\n        if (submittedAdminVotes[from].votes > 0) {\n            removeAdminVoteHelper(from);\n        }\n    }\n\n    function setAdmin(\n        address _admin,\n        address _adminTreasury\n    ) external onlyOwner {\n        require(admin == address(0) && adminTreasury == address(0));\n        admin = _admin;\n        adminTreasury = _adminTreasury;\n    }\n\n    function getHolders() public view returns (address[] memory) {\n        return holders;\n    }\n\n    function getClaimedAsamiTokens() public view returns (uint256) {\n        return claimedAsamiTokens;\n    }\n\n    function getTopics() public view returns (string[] memory) {\n        return topics;\n    }\n\n    function adminAddTopics(string[] calldata _names) public onlyAdmin {\n        for (uint256 i = 0; i < _names.length; i++) {\n            topics.push(_names[i]);\n            emit TopicSaved(topics.length, _names[i]);\n        }\n    }\n\n    function ensureAccount(uint256 _accountId) private {\n        if (accounts[_accountId].id == 0) {\n            accounts[_accountId].id = _accountId;\n            accountIds.push(_accountId);\n        }\n    }\n\n    struct AdminClaimAccountsInput {\n        uint256 accountId;\n        address addr;\n    }\n\n    function claimAccounts(\n        AdminClaimAccountsInput[] calldata _input\n    ) external onlyAdmin nonReentrant {\n        for (uint256 i = 0; i < _input.length; i++) {\n            AdminClaimAccountsInput calldata claim = _input[i];\n            ensureAccount(claim.accountId);\n\n            Account storage account = accounts[claim.accountId];\n            require(account.addr == address(0));\n\n            accountIdByAddress[claim.addr] = claim.accountId;\n            account.addr = claim.addr;\n\n            if (account.unclaimedAsamiTokens > 0) {\n                uint256 unclaimed = account.unclaimedAsamiTokens;\n                account.unclaimedAsamiTokens = 0;\n                _safeMint(claim.addr, unclaimed);\n            }\n\n            if (account.unclaimedDocRewards > 0) {\n                uint256 unclaimed = account.unclaimedDocRewards;\n                account.unclaimedDocRewards = 0;\n                doc.transfer(account.addr, unclaimed);\n            }\n\n            emit AccountSaved(account);\n        }\n    }\n\n    function adminMakeHandles(Handle[] calldata _inputs) external onlyAdmin {\n        for (uint256 i = 0; i < _inputs.length; i++) {\n            ensureAccount(_inputs[i].accountId);\n\n            handles.push(_inputs[i]);\n            Handle storage h = handles[handles.length - 1];\n            h.id = handles.length;\n            emit HandleSaved(h);\n        }\n    }\n\n    struct CampaignInput {\n        Site site;\n        uint256 budget;\n        string contentId;\n        uint256 priceScoreRatio;\n        uint256[] topics;\n        uint256 validUntil;\n    }\n    function makeCampaigns(\n        CampaignInput[] calldata _inputs\n    ) public nonReentrant {\n        Account storage account = accounts[accountIdByAddress[msg.sender]];\n        require(account.addr != address(0), \"mc 0\");\n\n        for (uint i = 0; i < _inputs.length; i++) {\n            CampaignInput memory input = _inputs[i];\n            _saveCampaignHelper(\n                account,\n                Campaign({\n                    id: campaigns.length + 1,\n                    accountId: account.id,\n                    site: input.site,\n                    budget: input.budget,\n                    remaining: input.budget,\n                    contentId: input.contentId,\n                    priceScoreRatio: input.priceScoreRatio,\n                    topics: input.topics,\n                    validUntil: input.validUntil,\n                    fundedByAdmin: false\n                })\n            );\n        }\n    }\n\n    struct AdminCampaignInput {\n        uint256 accountId;\n        CampaignInput attrs;\n    }\n\n    function adminMakeCampaigns(\n        AdminCampaignInput[] calldata _inputs\n    ) public onlyAdmin nonReentrant {\n        for (uint i = 0; i < _inputs.length; i++) {\n            AdminCampaignInput memory input = _inputs[i];\n            ensureAccount(input.accountId);\n            Account storage account = accounts[input.accountId];\n            require(account.addr == address(0));\n\n            _saveCampaignHelper(\n                account,\n                Campaign({\n                    id: campaigns.length + 1,\n                    accountId: account.id,\n                    site: input.attrs.site,\n                    budget: input.attrs.budget,\n                    remaining: input.attrs.budget,\n                    contentId: input.attrs.contentId,\n                    priceScoreRatio: input.attrs.priceScoreRatio,\n                    topics: input.attrs.topics,\n                    validUntil: input.attrs.validUntil,\n                    fundedByAdmin: true\n                })\n            );\n        }\n    }\n\n    function _saveCampaignHelper(\n        Account storage _account,\n        Campaign memory _campaign\n    ) private {\n        require(_campaign.budget > 0);\n        require(bytes(_campaign.contentId).length > 0);\n        require(doc.transferFrom(msg.sender, address(this), _campaign.budget));\n\n        campaigns.push(_campaign);\n        _account.campaigns.push(_campaign.id);\n        emit CampaignSaved(_campaign);\n    }\n\n    struct AdminMakeCollabsInput {\n        uint256 campaignId;\n        uint256 handleId;\n    }\n\n    function adminMakeCollabs(\n        AdminMakeCollabsInput[] calldata _collabs\n    ) external onlyAdmin nonReentrant {\n        for (uint256 i = 0; i < _collabs.length; i++) {\n            Handle storage handle = handles[_collabs[i].handleId - 1];\n            require(handle.id > 0, \"1\");\n            Account storage member = accounts[handle.accountId];\n\n            Campaign storage campaign = campaigns[_collabs[i].campaignId - 1];\n            require(campaign.id > 0, \"3\");\n            require(campaign.validUntil > block.timestamp, \"4\");\n            require(isSubset(handle.topics, campaign.topics), \"5\");\n\n            require(campaign.remaining >= handle.price, \"6\");\n            require(campaign.site == handle.site, \"7\");\n            require(\n                (handle.price / handle.score) <= campaign.priceScoreRatio,\n                \"8\"\n            );\n\n            Account storage advertiser = accounts[campaign.accountId];\n\n            uint256 gross = handle.price;\n            uint256 fee = (gross * feeRate) / 1e20;\n            uint256 reward = gross - fee;\n\n            Collab memory collab = Collab({\n                id: collabs.length + 1,\n                handleId: handle.id,\n                campaignId: campaign.id,\n                gross: gross,\n                fee: fee,\n                proof: \"\",\n                createdAt: block.timestamp\n            });\n            collabs.push(collab);\n            member.collabs.push(collab.id);\n\n            campaign.remaining -= gross;\n            feePool += fee;\n\n            uint256 remainingToCap = cap() - claimedAsamiTokens;\n            uint256 newTokens = (fee > remainingToCap) ? remainingToCap : fee;\n            claimedAsamiTokens += newTokens;\n\n            uint256 advertiserTokens = (newTokens * 10 * 1e18) / 100e18;\n            uint256 memberTokens = (newTokens * 15 * 1e18) / 100e18;\n            uint256 adminTokens = newTokens - advertiserTokens - memberTokens;\n\n            if (adminTokens > 0) {\n                _safeMint(adminTreasury, adminTokens);\n            }\n\n            if (member.addr == address(0)) {\n                if (memberTokens > 0) {\n                    member.unclaimedAsamiTokens += memberTokens;\n                }\n                member.unclaimedDocRewards += reward;\n                emit AccountSaved(member);\n            } else {\n                if (memberTokens > 0) {\n                    _safeMint(member.addr, memberTokens);\n                }\n                doc.transfer(member.addr, reward);\n            }\n\n            if (advertiserTokens > 0) {\n                if (advertiser.addr == address(0)) {\n                    advertiser.unclaimedAsamiTokens += advertiserTokens;\n                    emit AccountSaved(advertiser);\n                } else {\n                    _safeMint(advertiser.addr, advertiserTokens);\n                }\n            }\n\n            emit CollabSaved(collab);\n            emit CampaignSaved(campaign);\n        }\n    }\n\n    function reimburseDueCampaigns(\n        uint256[] calldata _campaignIds\n    ) external nonReentrant {\n        for (uint i = 0; i < _campaignIds.length; i++) {\n            Campaign storage campaign = campaigns[_campaignIds[i] - 1];\n            require(campaign.id > 0, \"rdc 0\");\n            require(campaign.remaining > 0, \"rdc 1\");\n            require(campaign.validUntil < block.timestamp, \"rdc 2\");\n\n            Account storage advertiser = accounts[campaign.accountId];\n            uint256 remaining = campaign.remaining;\n            campaign.remaining = 0;\n            address fundedBy = campaign.fundedByAdmin ? admin : advertiser.addr;\n            require(doc.transfer(fundedBy, remaining), \"rdc 3\");\n            emit CampaignSaved(campaign);\n        }\n    }\n\n    // To prevent race conditions, we never mint while we're in the middle of a payout.\n    function _safeMint(address _addr, uint256 _amount) private {\n        require(payoutsRemaining == 0, \"SM 0\");\n        _mint(_addr, _amount);\n    }\n\n    struct AdminSetPriceInput {\n        uint256 handleId;\n        uint256 price;\n    }\n\n    function adminSetPrice(\n        AdminSetPriceInput[] calldata _inputs\n    ) external onlyAdmin {\n        for (uint256 i = 0; i < _inputs.length; i++) {\n            Handle storage handle = handles[_inputs[i].handleId - 1];\n            Account storage account = accounts[handle.accountId];\n            require(account.addr == address(0) && account.id > 0);\n\n            _setPriceHelper(handle, _inputs[i].price);\n        }\n    }\n\n    function setPrice(uint256 _handleId, uint256 _price) external {\n        Account storage account = accounts[accountIdByAddress[msg.sender]];\n        require(account.addr != address(0));\n\n        Handle storage handle = handles[_handleId - 1];\n        require(handle.id > 0);\n        require(handle.accountId == account.id);\n\n        _setPriceHelper(handle, _price);\n    }\n\n    function _setPriceHelper(Handle storage handle, uint256 _price) private {\n        require(_price > 0);\n        handle.newPrice = _price;\n        handle.needsUpdate = true;\n        emit HandleSaved(handle);\n    }\n\n    struct AdminSetScoreAndTopicsInput {\n        uint256 handleId;\n        uint256 score;\n        uint256[] topics;\n    }\n\n    function adminSetScoreAndTopics(\n        AdminSetScoreAndTopicsInput[] calldata _inputs\n    ) external onlyAdmin {\n        for (uint256 i = 0; i < _inputs.length; i++) {\n            Handle storage handle = handles[_inputs[i].handleId - 1];\n            handle.newScore = _inputs[i].score;\n            handle.newTopics = _inputs[i].topics;\n            handle.needsUpdate = true;\n            emit HandleSaved(handle);\n        }\n    }\n\n    function getCycleLength() public pure returns (uint256) {\n        return 60 * 60 * 24 * 15;\n    }\n\n    function getCurrentCycle() public view returns (uint256) {\n        return block.timestamp / getCycleLength();\n    }\n\n    function getNextCycle() public view returns (uint256) {\n        return getCurrentCycle() + getCycleLength();\n    }\n\n    /*\n    Distributes the fee pool among token holders.\n    To prevent going over the gas limit, it does up to 100 a time, and can be called many times in a row.\n    Always returns the pending holders.\n    Anyone can call this at any time, but just once per period. It would usually be the admin though.\n  */\n    uint256 public feePool;\n    uint256 public payoutsRemaining = 0;\n    uint256 public payoutsTotal = 0;\n    uint256 public feePoolRemainder = 0;\n    uint256 public lastPayoutCycle = 0;\n    uint256 public batchSize = 100;\n\n    function distributeFeePool() external nonReentrant {\n        uint256 totalSupply = totalSupply();\n        uint256 currentCycle = getCurrentCycle();\n\n        require(totalSupply > 0, \"dfp 0\");\n        require(\n            currentCycle != lastPayoutCycle || payoutsRemaining > 0,\n            \"dfp 1\"\n        );\n\n        /* Just mark the distribution was attempted on this cycle if there's nothing ot distribute */\n        if (feePool == 0) {\n            lastPayoutCycle = currentCycle;\n            return;\n        }\n\n        if (payoutsRemaining == 0) {\n            // We're starting a new payout of the feePool.\n            // We can only start one payout in each 15 day period.\n            payoutsTotal = holders.length;\n            feePoolRemainder = feePool;\n            payoutsRemaining = payoutsTotal;\n            lastPayoutCycle = currentCycle;\n        }\n\n        uint256 startAt = payoutsTotal - payoutsRemaining;\n\n        uint256 until = (batchSize > payoutsRemaining)\n            ? (startAt + payoutsRemaining)\n            : (startAt + batchSize);\n\n        uint256 localFeePoolRemainder = feePoolRemainder;\n        uint256 localPayoutsRemaining = payoutsRemaining;\n\n        for (uint256 i = startAt; i < until; i++) {\n            address holder = holders[i];\n            uint256 balance = balanceOf(holder);\n            uint256 reward = (balance * feePool) / totalSupply;\n            localFeePoolRemainder -= reward;\n            localPayoutsRemaining -= 1;\n            require(doc.transfer(holder, reward), \"dfp 3\");\n        }\n\n        feePoolRemainder = localFeePoolRemainder;\n        payoutsRemaining = localPayoutsRemaining;\n\n        if (payoutsRemaining == 0) {\n            feePool = feePoolRemainder;\n        }\n    }\n\n    function applyHandleUpdates(uint256[] calldata _indexes) external {\n        uint256 currentCycle = getCurrentCycle();\n\n        for (uint256 i = 0; i < _indexes.length; i++) {\n            Handle storage handle = handles[_indexes[i]];\n            require(handle.lastUpdated != currentCycle, \"ahu 0\");\n            require(handle.needsUpdate, \"ahu 0\");\n\n            handle.needsUpdate = false;\n            handle.lastUpdated = currentCycle;\n\n            if (bytes(handle.newUsername).length > 0) {\n                handle.username = handle.newUsername;\n            }\n\n            if (handle.newPrice != 0) {\n                handle.price = handle.newPrice;\n            }\n\n            if (handle.score != 0) {\n                handle.score = handle.newScore;\n            }\n\n            if (handle.newTopics.length > 0) {\n                handle.topics = handle.newTopics;\n            }\n\n            emit HandleSaved(handle);\n        }\n    }\n\n    function applyVotedFeeRate() external {\n        uint256 currentCycle = getCurrentCycle();\n        require(currentCycle != lastVotedFeeRateAppliedOn);\n        feeRate = votedFeeRate;\n        lastVotedFeeRateAppliedOn = currentCycle;\n    }\n\n    function submitFeeRateVote(uint256 _rate) external {\n        require(_rate > 0 && _rate < 1e20, \"sfrv 0\");\n\n        FeeRateVote storage vote = feeRateVotes[msg.sender];\n        if (vote.votes > 0) {\n            removeFeeRateVoteHelper(msg.sender);\n        }\n\n        uint256 votes = balanceOf(msg.sender);\n        require(votes > 0, \"sfrv 1\");\n\n        votedFeeRate =\n            ((votedFeeRate * votedFeeRateVoteCount) + (votes * _rate)) /\n            (votedFeeRateVoteCount + votes);\n        votedFeeRateVoteCount += votes;\n        vote.votes = votes;\n        vote.rate = _rate;\n    }\n\n    function removeFeeRateVote() external {\n        removeFeeRateVoteHelper(msg.sender);\n    }\n\n    function removeFeeRateVoteHelper(address _holder) private {\n        FeeRateVote storage vote = feeRateVotes[_holder];\n        require(vote.votes > 0, \"rfrv 0\");\n        uint256 nextVoteCount = votedFeeRateVoteCount - vote.votes;\n        uint256 currentVolume = votedFeeRate * votedFeeRateVoteCount;\n        uint256 removedVolume = vote.votes * vote.rate;\n        uint256 nextVolume = currentVolume > removedVolume\n            ? currentVolume - removedVolume\n            : 0;\n\n        if (nextVoteCount > 0) {\n            votedFeeRate = nextVolume / nextVoteCount;\n            votedFeeRateVoteCount = nextVoteCount;\n        } else {\n            votedFeeRate = defaultFeeRate;\n            votedFeeRateVoteCount = 0;\n        }\n        delete feeRateVotes[_holder];\n    }\n\n    function submitAdminVote(address _candidate) external {\n        require(_candidate != address(0), \"sav 0\");\n        uint256 votes = balanceOf(msg.sender);\n        require(votes > 0, \"sav 1\");\n\n        AdminVote storage existing = submittedAdminVotes[msg.sender];\n        if (existing.votes > 0) {\n            removeAdminVoteHelper(msg.sender);\n        }\n\n        submittedAdminVotes[msg.sender] = AdminVote({\n            candidate: _candidate,\n            votes: votes,\n            cycle: getCurrentCycle(),\n            vested: false\n        });\n\n        emit AdminVoteSaved(submittedAdminVotes[msg.sender]);\n    }\n\n    function vestAdminVotes(address[] calldata _holders) external {\n        uint256 thisCycle = getCurrentCycle();\n\n        for (uint256 i = 0; i < _holders.length; i++) {\n            AdminVote storage vote = submittedAdminVotes[_holders[i]];\n            require(vote.cycle > 0, \"vav 0\");\n            require(vote.cycle < thisCycle, \"vav 1\");\n            require(!vote.vested, \"vav 2\");\n            vote.vested = true;\n            vestedAdminVotesTotal += vote.votes;\n\n            uint256 voteCountId = adminVoteCountIdByCandidate[vote.candidate];\n            if (voteCountId > 0) {\n                AdminVoteCount storage count = adminVoteCounts[voteCountId - 1];\n                count.votes += vote.votes;\n            } else {\n                AdminVoteCount storage count = adminVoteCounts.push();\n                count.votes = vote.votes;\n                count.candidate = vote.candidate;\n                adminVoteCountIdByCandidate[vote.candidate] = adminVoteCounts\n                    .length;\n            }\n            emit AdminVoteSaved(vote);\n        }\n    }\n\n    function proclaimCycleAdminWinner(address _candidate) external {\n        uint256 voteCountId = adminVoteCountIdByCandidate[_candidate];\n        require(voteCountId > 0);\n        AdminVoteCount storage count = adminVoteCounts[voteCountId - 1];\n\n        require(count.votes > vestedAdminVotesTotal / 2, \"pcw 0\");\n        require(vestedAdminVotesTotal > 0, \"pcw 1\");\n        uint256 thisCycle = getCurrentCycle();\n        require(lastAdminElection < thisCycle, \"pcw 2\");\n\n        lastAdminElection = thisCycle;\n        latestAdminElections[2] = latestAdminElections[1];\n        latestAdminElections[1] = latestAdminElections[0];\n        latestAdminElections[0] = _candidate;\n\n        if (\n            _candidate == latestAdminElections[1] &&\n            _candidate == latestAdminElections[2]\n        ) {\n            admin = _candidate;\n            adminTreasury = _candidate;\n        }\n    }\n\n    function removeAdminVote() external {\n        removeAdminVoteHelper(msg.sender);\n    }\n\n    function removeAdminVoteHelper(address _holder) private {\n        AdminVote storage vote = submittedAdminVotes[_holder];\n        require(vote.votes > 0, \"ravh 0\");\n        if (vote.vested) {\n            vestedAdminVotesTotal -= vote.votes;\n\n            uint256 voteCountId = adminVoteCountIdByCandidate[vote.candidate];\n            require(voteCountId > 0);\n            adminVoteCounts[voteCountId - 1].votes -= vote.votes;\n        }\n        delete submittedAdminVotes[_holder];\n    }\n\n    function setAdminAddress(address _admin) external {\n        require(msg.sender == adminTreasury);\n        admin = _admin;\n    }\n\n    function isSubset(\n        uint256[] memory mainSet,\n        uint256[] memory subset\n    ) public pure returns (bool) {\n        for (uint256 i = 0; i < subset.length; i++) {\n            bool found = false;\n\n            for (uint256 j = 0; j < mainSet.length; j++) {\n                if (subset[i] == mainSet[j]) {\n                    found = true;\n                    break;\n                }\n            }\n\n            if (!found) {\n                return false;\n            }\n        }\n\n        return true;\n    }\n}\n",
  "sourcePath": "/home/nubis/asami/contract/contracts/Asami.sol",
  "compiler": {
    "name": "solc",
    "version": "0.8.19+commit.7dd6d404.Emscripten.clang"
  },
  "schemaVersion": "3.4.15",
  "updatedAt": "2024-02-17T20:17:39.581Z",
  "networkType": "ethereum",
  "devdoc": {
    "events": {
      "Approval(address,address,uint256)": {
        "details": "Emitted when the allowance of a `spender` for an `owner` is set by a call to {approve}. `value` is the new allowance."
      },
      "Transfer(address,address,uint256)": {
        "details": "Emitted when `value` tokens are moved from one account (`from`) to another (`to`). Note that `value` may be zero."
      }
    },
    "kind": "dev",
    "methods": {
      "allowance(address,address)": {
        "details": "See {IERC20-allowance}."
      },
      "approve(address,uint256)": {
        "details": "See {IERC20-approve}. NOTE: If `amount` is the maximum `uint256`, the allowance is not updated on `transferFrom`. This is semantically equivalent to an infinite approval. Requirements: - `spender` cannot be the zero address."
      },
      "balanceOf(address)": {
        "details": "See {IERC20-balanceOf}."
      },
      "cap()": {
        "details": "Returns the cap on the token's total supply."
      },
      "decimals()": {
        "details": "Returns the number of decimals used to get its user representation. For example, if `decimals` equals `2`, a balance of `505` tokens should be displayed to a user as `5.05` (`505 / 10 ** 2`). Tokens usually opt for a value of 18, imitating the relationship between Ether and Wei. This is the default value returned by this function, unless it's overridden. NOTE: This information is only used for _display_ purposes: it in no way affects any of the arithmetic of the contract, including {IERC20-balanceOf} and {IERC20-transfer}."
      },
      "decreaseAllowance(address,uint256)": {
        "details": "Atomically decreases the allowance granted to `spender` by the caller. This is an alternative to {approve} that can be used as a mitigation for problems described in {IERC20-approve}. Emits an {Approval} event indicating the updated allowance. Requirements: - `spender` cannot be the zero address. - `spender` must have allowance for the caller of at least `subtractedValue`."
      },
      "increaseAllowance(address,uint256)": {
        "details": "Atomically increases the allowance granted to `spender` by the caller. This is an alternative to {approve} that can be used as a mitigation for problems described in {IERC20-approve}. Emits an {Approval} event indicating the updated allowance. Requirements: - `spender` cannot be the zero address."
      },
      "name()": {
        "details": "Returns the name of the token."
      },
      "owner()": {
        "details": "Returns the address of the current owner."
      },
      "renounceOwnership()": {
        "details": "Leaves the contract without owner. It will not be possible to call `onlyOwner` functions. Can only be called by the current owner. NOTE: Renouncing ownership will leave the contract without an owner, thereby disabling any functionality that is only available to the owner."
      },
      "symbol()": {
        "details": "Returns the symbol of the token, usually a shorter version of the name."
      },
      "totalSupply()": {
        "details": "See {IERC20-totalSupply}."
      },
      "transfer(address,uint256)": {
        "details": "See {IERC20-transfer}. Requirements: - `to` cannot be the zero address. - the caller must have a balance of at least `amount`."
      },
      "transferFrom(address,address,uint256)": {
        "details": "See {IERC20-transferFrom}. Emits an {Approval} event indicating the updated allowance. This is not required by the EIP. See the note at the beginning of {ERC20}. NOTE: Does not update the allowance if the current allowance is the maximum `uint256`. Requirements: - `from` and `to` cannot be the zero address. - `from` must have a balance of at least `amount`. - the caller must have allowance for ``from``'s tokens of at least `amount`."
      },
      "transferOwnership(address)": {
        "details": "Transfers ownership of the contract to a new account (`newOwner`). Can only be called by the current owner."
      }
    },
    "version": 1
  },
  "userdoc": {
    "kind": "user",
    "methods": {},
    "version": 1
  }
}