{
  "contractName": "AsamiCore",
  "abi": [
    {
      "inputs": [
        {
          "internalType": "address",
          "name": "_dollarOnChainAddress",
          "type": "address"
        },
        {
          "internalType": "address",
          "name": "_adminAddress",
          "type": "address"
        }
      ],
      "stateMutability": "nonpayable",
      "type": "constructor"
    },
    {
      "anonymous": false,
      "inputs": [
        {
          "indexed": false,
          "internalType": "uint256",
          "name": "accountId",
          "type": "uint256"
        }
      ],
      "name": "AccountUpdated",
      "type": "event"
    },
    {
      "anonymous": false,
      "inputs": [
        {
          "components": [
            {
              "internalType": "uint256",
              "name": "votes",
              "type": "uint256"
            },
            {
              "internalType": "address",
              "name": "candidate",
              "type": "address"
            },
            {
              "internalType": "uint256",
              "name": "cycle",
              "type": "uint256"
            },
            {
              "internalType": "bool",
              "name": "vested",
              "type": "bool"
            }
          ],
          "indexed": false,
          "internalType": "struct AsamiCore.AdminVote",
          "name": "vote",
          "type": "tuple"
        }
      ],
      "name": "AdminVoteSaved",
      "type": "event"
    },
    {
      "anonymous": false,
      "inputs": [
        {
          "indexed": true,
          "internalType": "address",
          "name": "owner",
          "type": "address"
        },
        {
          "indexed": true,
          "internalType": "address",
          "name": "spender",
          "type": "address"
        },
        {
          "indexed": false,
          "internalType": "uint256",
          "name": "value",
          "type": "uint256"
        }
      ],
      "name": "Approval",
      "type": "event"
    },
    {
      "anonymous": false,
      "inputs": [
        {
          "indexed": false,
          "internalType": "uint256",
          "name": "accountId",
          "type": "uint256"
        },
        {
          "indexed": false,
          "internalType": "uint256",
          "name": "briefing",
          "type": "uint256"
        }
      ],
      "name": "CampaignCreated",
      "type": "event"
    },
    {
      "anonymous": false,
      "inputs": [
        {
          "indexed": false,
          "internalType": "uint256",
          "name": "campaignId",
          "type": "uint256"
        }
      ],
      "name": "CampaignReimbursed",
      "type": "event"
    },
    {
      "anonymous": false,
      "inputs": [
        {
          "indexed": false,
          "internalType": "uint256",
          "name": "campaignId",
          "type": "uint256"
        }
      ],
      "name": "CampaignSaved",
      "type": "event"
    },
    {
      "anonymous": false,
      "inputs": [
        {
          "indexed": false,
          "internalType": "uint256",
          "name": "advertiserId",
          "type": "uint256"
        },
        {
          "indexed": false,
          "internalType": "uint256",
          "name": "briefing",
          "type": "uint256"
        },
        {
          "indexed": false,
          "internalType": "uint256",
          "name": "accountId",
          "type": "uint256"
        },
        {
          "indexed": false,
          "internalType": "uint256",
          "name": "gross",
          "type": "uint256"
        },
        {
          "indexed": false,
          "internalType": "uint256",
          "name": "fee",
          "type": "uint256"
        }
      ],
      "name": "CollabSaved",
      "type": "event"
    },
    {
      "anonymous": false,
      "inputs": [
        {
          "indexed": true,
          "internalType": "address",
          "name": "from",
          "type": "address"
        },
        {
          "indexed": true,
          "internalType": "address",
          "name": "to",
          "type": "address"
        },
        {
          "indexed": false,
          "internalType": "uint256",
          "name": "value",
          "type": "uint256"
        }
      ],
      "name": "Transfer",
      "type": "event"
    },
    {
      "inputs": [
        {
          "internalType": "address",
          "name": "",
          "type": "address"
        }
      ],
      "name": "accountIdByAddress",
      "outputs": [
        {
          "internalType": "uint256",
          "name": "",
          "type": "uint256"
        }
      ],
      "stateMutability": "view",
      "type": "function",
      "constant": true
    },
    {
      "inputs": [
        {
          "internalType": "uint256",
          "name": "",
          "type": "uint256"
        }
      ],
      "name": "accounts",
      "outputs": [
        {
          "internalType": "address",
          "name": "addr",
          "type": "address"
        },
        {
          "internalType": "uint256",
          "name": "approvedGaslessAmount",
          "type": "uint256"
        },
        {
          "internalType": "uint256",
          "name": "unclaimedAsamiBalance",
          "type": "uint256"
        },
        {
          "internalType": "uint256",
          "name": "unclaimedDocBalance",
          "type": "uint256"
        }
      ],
      "stateMutability": "view",
      "type": "function",
      "constant": true
    },
    {
      "inputs": [],
      "name": "admin",
      "outputs": [
        {
          "internalType": "address",
          "name": "",
          "type": "address"
        }
      ],
      "stateMutability": "view",
      "type": "function",
      "constant": true
    },
    {
      "inputs": [],
      "name": "adminGaslessClaimAccountPrice",
      "outputs": [
        {
          "internalType": "uint256",
          "name": "",
          "type": "uint256"
        }
      ],
      "stateMutability": "view",
      "type": "function",
      "constant": true
    },
    {
      "inputs": [],
      "name": "adminGaslessClaimRewardPrice",
      "outputs": [
        {
          "internalType": "uint256",
          "name": "",
          "type": "uint256"
        }
      ],
      "stateMutability": "view",
      "type": "function",
      "constant": true
    },
    {
      "inputs": [],
      "name": "adminTreasury",
      "outputs": [
        {
          "internalType": "address",
          "name": "",
          "type": "address"
        }
      ],
      "stateMutability": "view",
      "type": "function",
      "constant": true
    },
    {
      "inputs": [],
      "name": "adminUnclaimedAsamiBalance",
      "outputs": [
        {
          "internalType": "uint256",
          "name": "",
          "type": "uint256"
        }
      ],
      "stateMutability": "view",
      "type": "function",
      "constant": true
    },
    {
      "inputs": [],
      "name": "adminUnclaimedDoc",
      "outputs": [
        {
          "internalType": "uint256",
          "name": "",
          "type": "uint256"
        }
      ],
      "stateMutability": "view",
      "type": "function",
      "constant": true
    },
    {
      "inputs": [],
      "name": "adminUnclaimedDocBalance",
      "outputs": [
        {
          "internalType": "uint256",
          "name": "",
          "type": "uint256"
        }
      ],
      "stateMutability": "view",
      "type": "function",
      "constant": true
    },
    {
      "inputs": [],
      "name": "adminUnclaimedTokens",
      "outputs": [
        {
          "internalType": "uint256",
          "name": "",
          "type": "uint256"
        }
      ],
      "stateMutability": "view",
      "type": "function",
      "constant": true
    },
    {
      "inputs": [
        {
          "internalType": "address",
          "name": "",
          "type": "address"
        }
      ],
      "name": "adminVoteCountIdByCandidate",
      "outputs": [
        {
          "internalType": "uint256",
          "name": "",
          "type": "uint256"
        }
      ],
      "stateMutability": "view",
      "type": "function",
      "constant": true
    },
    {
      "inputs": [
        {
          "internalType": "uint256",
          "name": "",
          "type": "uint256"
        }
      ],
      "name": "adminVoteCounts",
      "outputs": [
        {
          "internalType": "uint256",
          "name": "votes",
          "type": "uint256"
        },
        {
          "internalType": "address",
          "name": "candidate",
          "type": "address"
        }
      ],
      "stateMutability": "view",
      "type": "function",
      "constant": true
    },
    {
      "inputs": [
        {
          "internalType": "address",
          "name": "owner",
          "type": "address"
        },
        {
          "internalType": "address",
          "name": "spender",
          "type": "address"
        }
      ],
      "name": "allowance",
      "outputs": [
        {
          "internalType": "uint256",
          "name": "",
          "type": "uint256"
        }
      ],
      "stateMutability": "view",
      "type": "function",
      "constant": true
    },
    {
      "inputs": [
        {
          "internalType": "address",
          "name": "spender",
          "type": "address"
        },
        {
          "internalType": "uint256",
          "name": "amount",
          "type": "uint256"
        }
      ],
      "name": "approve",
      "outputs": [
        {
          "internalType": "bool",
          "name": "",
          "type": "bool"
        }
      ],
      "stateMutability": "nonpayable",
      "type": "function"
    },
    {
      "inputs": [],
      "name": "assignedAsamiTokens",
      "outputs": [
        {
          "internalType": "uint256",
          "name": "",
          "type": "uint256"
        }
      ],
      "stateMutability": "view",
      "type": "function",
      "constant": true
    },
    {
      "inputs": [
        {
          "internalType": "address",
          "name": "account",
          "type": "address"
        }
      ],
      "name": "balanceOf",
      "outputs": [
        {
          "internalType": "uint256",
          "name": "",
          "type": "uint256"
        }
      ],
      "stateMutability": "view",
      "type": "function",
      "constant": true
    },
    {
      "inputs": [],
      "name": "cap",
      "outputs": [
        {
          "internalType": "uint256",
          "name": "",
          "type": "uint256"
        }
      ],
      "stateMutability": "view",
      "type": "function",
      "constant": true
    },
    {
      "inputs": [],
      "name": "decimals",
      "outputs": [
        {
          "internalType": "uint8",
          "name": "",
          "type": "uint8"
        }
      ],
      "stateMutability": "view",
      "type": "function",
      "constant": true
    },
    {
      "inputs": [
        {
          "internalType": "address",
          "name": "spender",
          "type": "address"
        },
        {
          "internalType": "uint256",
          "name": "subtractedValue",
          "type": "uint256"
        }
      ],
      "name": "decreaseAllowance",
      "outputs": [
        {
          "internalType": "bool",
          "name": "",
          "type": "bool"
        }
      ],
      "stateMutability": "nonpayable",
      "type": "function"
    },
    {
      "inputs": [],
      "name": "defaultFeeRate",
      "outputs": [
        {
          "internalType": "uint256",
          "name": "",
          "type": "uint256"
        }
      ],
      "stateMutability": "view",
      "type": "function",
      "constant": true
    },
    {
      "inputs": [],
      "name": "feePool",
      "outputs": [
        {
          "internalType": "uint256",
          "name": "",
          "type": "uint256"
        }
      ],
      "stateMutability": "view",
      "type": "function",
      "constant": true
    },
    {
      "inputs": [],
      "name": "feeRate",
      "outputs": [
        {
          "internalType": "uint256",
          "name": "",
          "type": "uint256"
        }
      ],
      "stateMutability": "view",
      "type": "function",
      "constant": true
    },
    {
      "inputs": [
        {
          "internalType": "address",
          "name": "",
          "type": "address"
        }
      ],
      "name": "feeRateVotes",
      "outputs": [
        {
          "internalType": "uint256",
          "name": "votes",
          "type": "uint256"
        },
        {
          "internalType": "uint256",
          "name": "rate",
          "type": "uint256"
        }
      ],
      "stateMutability": "view",
      "type": "function",
      "constant": true
    },
    {
      "inputs": [
        {
          "internalType": "uint256",
          "name": "",
          "type": "uint256"
        }
      ],
      "name": "holders",
      "outputs": [
        {
          "internalType": "address",
          "name": "",
          "type": "address"
        }
      ],
      "stateMutability": "view",
      "type": "function",
      "constant": true
    },
    {
      "inputs": [
        {
          "internalType": "address",
          "name": "spender",
          "type": "address"
        },
        {
          "internalType": "uint256",
          "name": "addedValue",
          "type": "uint256"
        }
      ],
      "name": "increaseAllowance",
      "outputs": [
        {
          "internalType": "bool",
          "name": "",
          "type": "bool"
        }
      ],
      "stateMutability": "nonpayable",
      "type": "function"
    },
    {
      "inputs": [],
      "name": "lastAdminElection",
      "outputs": [
        {
          "internalType": "uint256",
          "name": "",
          "type": "uint256"
        }
      ],
      "stateMutability": "view",
      "type": "function",
      "constant": true
    },
    {
      "inputs": [
        {
          "internalType": "address",
          "name": "",
          "type": "address"
        }
      ],
      "name": "lastFeePoolShareCycles",
      "outputs": [
        {
          "internalType": "uint256",
          "name": "",
          "type": "uint256"
        }
      ],
      "stateMutability": "view",
      "type": "function",
      "constant": true
    },
    {
      "inputs": [],
      "name": "lastVotedFeeRateAppliedOn",
      "outputs": [
        {
          "internalType": "uint256",
          "name": "",
          "type": "uint256"
        }
      ],
      "stateMutability": "view",
      "type": "function",
      "constant": true
    },
    {
      "inputs": [
        {
          "internalType": "uint256",
          "name": "",
          "type": "uint256"
        }
      ],
      "name": "latestAdminElections",
      "outputs": [
        {
          "internalType": "address",
          "name": "",
          "type": "address"
        }
      ],
      "stateMutability": "view",
      "type": "function",
      "constant": true
    },
    {
      "inputs": [],
      "name": "migrationDone",
      "outputs": [
        {
          "internalType": "bool",
          "name": "",
          "type": "bool"
        }
      ],
      "stateMutability": "view",
      "type": "function",
      "constant": true
    },
    {
      "inputs": [],
      "name": "name",
      "outputs": [
        {
          "internalType": "string",
          "name": "",
          "type": "string"
        }
      ],
      "stateMutability": "view",
      "type": "function",
      "constant": true
    },
    {
      "inputs": [
        {
          "internalType": "uint256",
          "name": "",
          "type": "uint256"
        },
        {
          "internalType": "address",
          "name": "",
          "type": "address"
        }
      ],
      "name": "recentBalanceChanges",
      "outputs": [
        {
          "internalType": "uint256",
          "name": "added",
          "type": "uint256"
        },
        {
          "internalType": "uint256",
          "name": "substracted",
          "type": "uint256"
        }
      ],
      "stateMutability": "view",
      "type": "function",
      "constant": true
    },
    {
      "inputs": [
        {
          "internalType": "uint256",
          "name": "",
          "type": "uint256"
        }
      ],
      "name": "recentFeePoolChanges",
      "outputs": [
        {
          "internalType": "uint256",
          "name": "added",
          "type": "uint256"
        },
        {
          "internalType": "uint256",
          "name": "substracted",
          "type": "uint256"
        }
      ],
      "stateMutability": "view",
      "type": "function",
      "constant": true
    },
    {
      "inputs": [
        {
          "internalType": "uint256",
          "name": "",
          "type": "uint256"
        }
      ],
      "name": "recentTokens",
      "outputs": [
        {
          "internalType": "uint256",
          "name": "",
          "type": "uint256"
        }
      ],
      "stateMutability": "view",
      "type": "function",
      "constant": true
    },
    {
      "inputs": [
        {
          "internalType": "address",
          "name": "",
          "type": "address"
        }
      ],
      "name": "submittedAdminVotes",
      "outputs": [
        {
          "internalType": "uint256",
          "name": "votes",
          "type": "uint256"
        },
        {
          "internalType": "address",
          "name": "candidate",
          "type": "address"
        },
        {
          "internalType": "uint256",
          "name": "cycle",
          "type": "uint256"
        },
        {
          "internalType": "bool",
          "name": "vested",
          "type": "bool"
        }
      ],
      "stateMutability": "view",
      "type": "function",
      "constant": true
    },
    {
      "inputs": [],
      "name": "symbol",
      "outputs": [
        {
          "internalType": "string",
          "name": "",
          "type": "string"
        }
      ],
      "stateMutability": "view",
      "type": "function",
      "constant": true
    },
    {
      "inputs": [],
      "name": "totalSupply",
      "outputs": [
        {
          "internalType": "uint256",
          "name": "",
          "type": "uint256"
        }
      ],
      "stateMutability": "view",
      "type": "function",
      "constant": true
    },
    {
      "inputs": [
        {
          "internalType": "address",
          "name": "",
          "type": "address"
        }
      ],
      "name": "trackedHolders",
      "outputs": [
        {
          "internalType": "bool",
          "name": "",
          "type": "bool"
        }
      ],
      "stateMutability": "view",
      "type": "function",
      "constant": true
    },
    {
      "inputs": [
        {
          "internalType": "address",
          "name": "to",
          "type": "address"
        },
        {
          "internalType": "uint256",
          "name": "amount",
          "type": "uint256"
        }
      ],
      "name": "transfer",
      "outputs": [
        {
          "internalType": "bool",
          "name": "",
          "type": "bool"
        }
      ],
      "stateMutability": "nonpayable",
      "type": "function"
    },
    {
      "inputs": [
        {
          "internalType": "address",
          "name": "from",
          "type": "address"
        },
        {
          "internalType": "address",
          "name": "to",
          "type": "address"
        },
        {
          "internalType": "uint256",
          "name": "amount",
          "type": "uint256"
        }
      ],
      "name": "transferFrom",
      "outputs": [
        {
          "internalType": "bool",
          "name": "",
          "type": "bool"
        }
      ],
      "stateMutability": "nonpayable",
      "type": "function"
    },
    {
      "inputs": [],
      "name": "vestedAdminVotesTotal",
      "outputs": [
        {
          "internalType": "uint256",
          "name": "",
          "type": "uint256"
        }
      ],
      "stateMutability": "view",
      "type": "function",
      "constant": true
    },
    {
      "inputs": [],
      "name": "votedFeeRate",
      "outputs": [
        {
          "internalType": "uint256",
          "name": "",
          "type": "uint256"
        }
      ],
      "stateMutability": "view",
      "type": "function",
      "constant": true
    },
    {
      "inputs": [],
      "name": "votedFeeRateVoteCount",
      "outputs": [
        {
          "internalType": "uint256",
          "name": "",
          "type": "uint256"
        }
      ],
      "stateMutability": "view",
      "type": "function",
      "constant": true
    },
    {
      "inputs": [],
      "name": "allAdminVoteCounts",
      "outputs": [
        {
          "components": [
            {
              "internalType": "uint256",
              "name": "votes",
              "type": "uint256"
            },
            {
              "internalType": "address",
              "name": "candidate",
              "type": "address"
            }
          ],
          "internalType": "struct AsamiCore.AdminVoteCount[]",
          "name": "",
          "type": "tuple[]"
        }
      ],
      "stateMutability": "view",
      "type": "function",
      "constant": true
    },
    {
      "inputs": [],
      "name": "getLatestAdminElections",
      "outputs": [
        {
          "internalType": "address[3]",
          "name": "",
          "type": "address[3]"
        }
      ],
      "stateMutability": "view",
      "type": "function",
      "constant": true
    },
    {
      "inputs": [],
      "name": "getHolders",
      "outputs": [
        {
          "internalType": "address[]",
          "name": "",
          "type": "address[]"
        }
      ],
      "stateMutability": "view",
      "type": "function",
      "constant": true
    },
    {
      "inputs": [],
      "name": "getClaimedAsamiTokens",
      "outputs": [
        {
          "internalType": "uint256",
          "name": "",
          "type": "uint256"
        }
      ],
      "stateMutability": "view",
      "type": "function",
      "constant": true
    },
    {
      "inputs": [
        {
          "components": [
            {
              "internalType": "uint256",
              "name": "accountId",
              "type": "uint256"
            },
            {
              "internalType": "address",
              "name": "addr",
              "type": "address"
            }
          ],
          "internalType": "struct AsamiCore.ClaimAccountsParam[]",
          "name": "_input",
          "type": "tuple[]"
        }
      ],
      "name": "claimAccounts",
      "outputs": [],
      "stateMutability": "nonpayable",
      "type": "function"
    },
    {
      "inputs": [
        {
          "internalType": "uint256[]",
          "name": "_accountIds",
          "type": "uint256[]"
        }
      ],
      "name": "claimBalances",
      "outputs": [],
      "stateMutability": "nonpayable",
      "type": "function"
    },
    {
      "inputs": [
        {
          "internalType": "uint256",
          "name": "_fee",
          "type": "uint256"
        },
        {
          "internalType": "uint256",
          "name": "_rbtcAmount",
          "type": "uint256"
        },
        {
          "internalType": "uint256[]",
          "name": "_accountIds",
          "type": "uint256[]"
        }
      ],
      "name": "gaslessClaimBalances",
      "outputs": [],
      "stateMutability": "payable",
      "type": "function",
      "payable": true
    },
    {
      "inputs": [
        {
          "internalType": "uint256",
          "name": "newAmount",
          "type": "uint256"
        }
      ],
      "name": "changeGaslessApproval",
      "outputs": [],
      "stateMutability": "nonpayable",
      "type": "function"
    },
    {
      "inputs": [],
      "name": "claimAdminUnclaimedBalances",
      "outputs": [],
      "stateMutability": "nonpayable",
      "type": "function"
    },
    {
      "inputs": [],
      "name": "withdrawAccidentallySentRbtc",
      "outputs": [],
      "stateMutability": "nonpayable",
      "type": "function"
    },
    {
      "inputs": [
        {
          "components": [
            {
              "internalType": "uint256",
              "name": "budget",
              "type": "uint256"
            },
            {
              "internalType": "uint256",
              "name": "validUntil",
              "type": "uint256"
            },
            {
              "internalType": "uint256",
              "name": "briefing",
              "type": "uint256"
            }
          ],
          "internalType": "struct AsamiCore.MakeCampaignsParam[]",
          "name": "_inputs",
          "type": "tuple[]"
        }
      ],
      "name": "makeCampaigns",
      "outputs": [],
      "stateMutability": "nonpayable",
      "type": "function"
    },
    {
      "inputs": [
        {
          "components": [
            {
              "internalType": "uint256",
              "name": "advertiserId",
              "type": "uint256"
            },
            {
              "internalType": "uint256",
              "name": "briefing",
              "type": "uint256"
            },
            {
              "components": [
                {
                  "internalType": "uint256",
                  "name": "accountId",
                  "type": "uint256"
                },
                {
                  "internalType": "uint256",
                  "name": "docReward",
                  "type": "uint256"
                }
              ],
              "internalType": "struct AsamiCore.MakeCollabsParamItem[]",
              "name": "collabs",
              "type": "tuple[]"
            }
          ],
          "internalType": "struct AsamiCore.MakeCollabsParam[]",
          "name": "_input",
          "type": "tuple[]"
        }
      ],
      "name": "adminMakeCollabs",
      "outputs": [],
      "stateMutability": "nonpayable",
      "type": "function"
    },
    {
      "inputs": [],
      "name": "getCycleLength",
      "outputs": [
        {
          "internalType": "uint256",
          "name": "",
          "type": "uint256"
        }
      ],
      "stateMutability": "pure",
      "type": "function",
      "constant": true
    },
    {
      "inputs": [],
      "name": "getCurrentCycle",
      "outputs": [
        {
          "internalType": "uint256",
          "name": "",
          "type": "uint256"
        }
      ],
      "stateMutability": "view",
      "type": "function",
      "constant": true
    },
    {
      "inputs": [],
      "name": "getNextCycle",
      "outputs": [
        {
          "internalType": "uint256",
          "name": "",
          "type": "uint256"
        }
      ],
      "stateMutability": "view",
      "type": "function",
      "constant": true
    },
    {
      "inputs": [
        {
          "internalType": "address",
          "name": "_holder",
          "type": "address"
        }
      ],
      "name": "getRecentBalanceChange",
      "outputs": [
        {
          "components": [
            {
              "internalType": "uint256",
              "name": "added",
              "type": "uint256"
            },
            {
              "internalType": "uint256",
              "name": "substracted",
              "type": "uint256"
            }
          ],
          "internalType": "struct AsamiCore.BalanceChange",
          "name": "",
          "type": "tuple"
        }
      ],
      "stateMutability": "view",
      "type": "function",
      "constant": true
    },
    {
      "inputs": [
        {
          "internalType": "address",
          "name": "_holder",
          "type": "address"
        }
      ],
      "name": "getBalanceBeforeRecentChanges",
      "outputs": [
        {
          "internalType": "uint256",
          "name": "",
          "type": "uint256"
        }
      ],
      "stateMutability": "view",
      "type": "function",
      "constant": true
    },
    {
      "inputs": [],
      "name": "getFeePoolBeforeRecentChanges",
      "outputs": [
        {
          "internalType": "uint256",
          "name": "",
          "type": "uint256"
        }
      ],
      "stateMutability": "view",
      "type": "function",
      "constant": true
    },
    {
      "inputs": [
        {
          "internalType": "address[]",
          "name": "_holders",
          "type": "address[]"
        }
      ],
      "name": "claimFeePoolShare",
      "outputs": [],
      "stateMutability": "nonpayable",
      "type": "function"
    },
    {
      "inputs": [],
      "name": "applyVotedFeeRate",
      "outputs": [],
      "stateMutability": "nonpayable",
      "type": "function"
    },
    {
      "inputs": [
        {
          "internalType": "uint256",
          "name": "_rate",
          "type": "uint256"
        }
      ],
      "name": "submitFeeRateVote",
      "outputs": [],
      "stateMutability": "nonpayable",
      "type": "function"
    },
    {
      "inputs": [],
      "name": "removeFeeRateVote",
      "outputs": [],
      "stateMutability": "nonpayable",
      "type": "function"
    },
    {
      "inputs": [
        {
          "internalType": "address",
          "name": "_candidate",
          "type": "address"
        }
      ],
      "name": "submitAdminVote",
      "outputs": [],
      "stateMutability": "nonpayable",
      "type": "function"
    },
    {
      "inputs": [
        {
          "internalType": "address[]",
          "name": "_holders",
          "type": "address[]"
        }
      ],
      "name": "vestAdminVotes",
      "outputs": [],
      "stateMutability": "nonpayable",
      "type": "function"
    },
    {
      "inputs": [
        {
          "internalType": "address",
          "name": "_candidate",
          "type": "address"
        }
      ],
      "name": "proclaimCycleAdminWinner",
      "outputs": [],
      "stateMutability": "nonpayable",
      "type": "function"
    },
    {
      "inputs": [],
      "name": "removeAdminVote",
      "outputs": [],
      "stateMutability": "nonpayable",
      "type": "function"
    },
    {
      "inputs": [
        {
          "internalType": "address",
          "name": "_admin",
          "type": "address"
        }
      ],
      "name": "setAdminAddress",
      "outputs": [],
      "stateMutability": "nonpayable",
      "type": "function"
    },
    {
      "inputs": [
        {
          "internalType": "address",
          "name": "_oldContract",
          "type": "address"
        }
      ],
      "name": "migrateTokensFromOldContract",
      "outputs": [],
      "stateMutability": "nonpayable",
      "type": "function"
    }
  ],
  "bytecode": "0x60a060405260006008556000600955678ac7230489e80000600a55600a54600b55600a54600c556000600d556000600e553480156200003d57600080fd5b506040516200404938038062004049833981016040819052620000609162000186565b6a115eec47f6cf7e350000006040518060400160405280600a8152602001694173616d6920436f726560b01b815250604051806040016040528060058152602001644153414d4960d81b8152508160039081620000be919062000263565b506004620000cd828262000263565b50505060008111620001255760405162461bcd60e51b815260206004820152601560248201527f45524332304361707065643a2063617020697320300000000000000000000000604482015260640160405180910390fd5b6080526001600555601880546001600160a01b039384166001600160a01b031991821617909155601c8054821633179055601b80549290931691161790556200032f565b80516001600160a01b03811681146200018157600080fd5b919050565b600080604083850312156200019a57600080fd5b620001a58362000169565b9150620001b56020840162000169565b90509250929050565b634e487b7160e01b600052604160045260246000fd5b600181811c90821680620001e957607f821691505b6020821081036200020a57634e487b7160e01b600052602260045260246000fd5b50919050565b601f8211156200025e57600081815260208120601f850160051c81016020861015620002395750805b601f850160051c820191505b818110156200025a5782815560010162000245565b5050505b505050565b81516001600160401b038111156200027f576200027f620001be565b6200029781620002908454620001d4565b8462000210565b602080601f831160018114620002cf5760008415620002b65750858301515b600019600386901b1c1916600185901b1785556200025a565b600085815260208120601f198616915b828110156200030057888601518255948401946001909101908401620002df565b50858210156200031f5787850151600019600388901b60f8161c191681555b5050505050600190811b01905550565b608051613cf062000359600039600081816106520152818161208f01526134440152613cf06000f3fe6080604052600436106104105760003560e01c806374f1ea161161021e578063be81462511610123578063ec8b436c116100ab578063f3401bc31161007a578063f3401bc314610d17578063f398c24114610d37578063f851a44014610d4c578063fa7fb4d814610d6c578063ff3f188614610da957600080fd5b8063ec8b436c14610bfd578063ecaed41f14610c76578063eea1bf8314610c8c578063f2a40db814610ca157600080fd5b8063cdada3b6116100f2578063cdada3b614610b70578063d8c44f5014610b92578063dd62ed3e14610ba7578063e4c1be2e14610bc7578063e7ea312814610bdd57600080fd5b8063be81462514610b04578063c31b3b5514610b1a578063c5187a9114610b3a578063c966948514610b5a57600080fd5b8063978bbdb9116101a6578063a457c2d711610175578063a457c2d714610a79578063a9059cbb14610a99578063ae2e933b14610ab9578063bd5ff42314610acf578063be26ed7f14610aef57600080fd5b8063978bbdb914610a0d5780639bd40aee14610a235780639dfceaaa14610a43578063a45753ed14610a6357600080fd5b8063882d1b54116101ed578063882d1b541461098c5780638bec13cf146109ac5780639314b214146109c257806395d89b41146109d857806396cad0db146109ed57600080fd5b806374f1ea16146108f557806379dec48b146109305780637cf2fcdf1461094557806381d036f51461095857600080fd5b8063402c5133116103245780635fe8e7cc116102ac57806368841a461161027b57806368841a46146108375780636b6a4ad01461084d5780636bd1c2301461087d5780636f1c7617146108aa57806370a08231146108bf57600080fd5b80635fe8e7cc146107b357806365e5d1bc146107d55780636717d7a8146107ea5780636782eb0d1461081757600080fd5b80634a8bcf14116102f35780634a8bcf14146107245780634bd38e261461073a57806357b53ae5146107675780635d03e4871461077d5780635e6134231461079d57600080fd5b8063402c5133146106ac57806340bbced0146106cc578063419a7c5d146106ec5780634259d8a21461070e57600080fd5b80631b06cfbc116103a75780632c1e816d116103765780632c1e816d14610605578063313ce56714610627578063355274ea14610643578063368e600f14610676578063395093511461068c57600080fd5b80631b06cfbc1461057857806320841544146105b057806323b872dd146105c55780632a11ced0146105e557600080fd5b80630d81a570116103e35780630d81a570146104e85780630dff55ed14610502578063139fd1c21461053657806318160ddd1461056357600080fd5b806306fdde031461041557806307d3345514610440578063080b064814610464578063095ea7b3146104b8575b600080fd5b34801561042157600080fd5b5061042a610dbe565b604051610437919061363d565b60405180910390f35b34801561044c57600080fd5b50610456600a5481565b604051908152602001610437565b34801561047057600080fd5b506104a361047f3660046136a0565b60236020908152600092835260408084209091529082529020805460019091015482565b60408051928352602083019190915201610437565b3480156104c457600080fd5b506104d86104d33660046136d0565b610e50565b6040519015158152602001610437565b3480156104f457600080fd5b506027546104d89060ff1681565b34801561050e57600080fd5b506104a361051d3660046136fc565b6024602052600090815260409020805460019091015482565b34801561054257600080fd5b506104566105513660046136fc565b60256020526000908152604090205481565b34801561056f57600080fd5b50600254610456565b34801561058457600080fd5b506105986105933660046136fc565b610e6a565b6040516001600160a01b039091168152602001610437565b3480156105bc57600080fd5b50610456610e8a565b3480156105d157600080fd5b506104d86105e0366004613715565b610ed0565b3480156105f157600080fd5b506105986106003660046136fc565b610ef4565b34801561061157600080fd5b50610625610620366004613756565b610f1e565b005b34801561063357600080fd5b5060405160128152602001610437565b34801561064f57600080fd5b507f0000000000000000000000000000000000000000000000000000000000000000610456565b34801561068257600080fd5b5061045660205481565b34801561069857600080fd5b506104d86106a73660046136d0565b610f57565b3480156106b857600080fd5b506106256106c7366004613773565b610f79565b3480156106d857600080fd5b506106256106e73660046136fc565b611127565b3480156106f857600080fd5b5061070161118f565b60405161043791906137e8565b34801561071a57600080fd5b506213c680610456565b34801561073057600080fd5b5061045660085481565b34801561074657600080fd5b50610456610755366004613756565b60126020526000908152604090205481565b34801561077357600080fd5b50610456601d5481565b34801561078957600080fd5b50610625610798366004613756565b6111d4565b3480156107a957600080fd5b50610456600c5481565b3480156107bf57600080fd5b506107c861137e565b6040516104379190613822565b3480156107e157600080fd5b506106256113de565b3480156107f657600080fd5b50610456610805366004613756565b60076020526000908152604090205481565b34801561082357600080fd5b50610456610832366004613756565b611446565b34801561084357600080fd5b50610456600e5481565b34801561085957600080fd5b506104d8610868366004613756565b601a6020526000908152604090205460ff1681565b34801561088957600080fd5b50610456610898366004613756565b60266020526000908152604090205481565b3480156108b657600080fd5b506106256114aa565b3480156108cb57600080fd5b506104566108da366004613756565b6001600160a01b031660009081526020819052604090205490565b34801561090157600080fd5b50610915610910366004613756565b6114cf565b60408051825181526020928301519281019290925201610437565b34801561093c57600080fd5b50610456611530565b6106256109533660046138bb565b61154d565b34801561096457600080fd5b506104a3610973366004613756565b600f602052600090815260409020805460019091015482565b34801561099857600080fd5b506106256109a736600461390e565b611828565b3480156109b857600080fd5b5061045660145481565b3480156109ce57600080fd5b50610456600d5481565b3480156109e457600080fd5b5061042a61197b565b3480156109f957600080fd5b50601c54610598906001600160a01b031681565b348015610a1957600080fd5b50610456600b5481565b348015610a2f57600080fd5b50610625610a3e36600461390e565b61198a565b348015610a4f57600080fd5b50610625610a5e3660046136fc565b611c1e565b348015610a6f57600080fd5b5061045660215481565b348015610a8557600080fd5b506104d8610a943660046136d0565b611d31565b348015610aa557600080fd5b506104d8610ab43660046136d0565b611dac565b348015610ac557600080fd5b5061045660225481565b348015610adb57600080fd5b50610625610aea36600461390e565b611dba565b348015610afb57600080fd5b5061045661204a565b348015610b1057600080fd5b50610456601f5481565b348015610b2657600080fd5b50610625610b3536600461390e565b612059565b348015610b4657600080fd5b50610625610b55366004613950565b612469565b348015610b6657600080fd5b5061045660095481565b348015610b7c57600080fd5b50610b85612671565b60405161043791906139b3565b348015610b9e57600080fd5b506106256126e6565b348015610bb357600080fd5b50610456610bc2366004613a0b565b6126f1565b348015610bd357600080fd5b5061045660135481565b348015610be957600080fd5b50610625610bf8366004613756565b61271c565b348015610c0957600080fd5b50610c4c610c18366004613756565b601060205260009081526040902080546001820154600283015460039093015491926001600160a01b039091169160ff1684565b604080519485526001600160a01b0390931660208501529183015215156060820152608001610437565b348015610c8257600080fd5b50610456601e5481565b348015610c9857600080fd5b50610625612a30565b348015610cad57600080fd5b50610ced610cbc3660046136fc565b60066020526000908152604090208054600182015460028301546003909301546001600160a01b0390921692909184565b604080516001600160a01b0390951685526020850193909352918301526060820152608001610437565b348015610d2357600080fd5b50610625610d32366004613756565b612af5565b348015610d4357600080fd5b50610625612c5d565b348015610d5857600080fd5b50601b54610598906001600160a01b031681565b348015610d7857600080fd5b50610d8c610d873660046136fc565b612c66565b604080519283526001600160a01b03909116602083015201610437565b348015610db557600080fd5b50601d54610456565b606060038054610dcd90613a39565b80601f0160208091040260200160405190810160405280929190818152602001828054610df990613a39565b8015610e465780601f10610e1b57610100808354040283529160200191610e46565b820191906000526020600020905b815481529060010190602001808311610e2957829003601f168201915b5050505050905090565b600033610e5e818585612c9d565b60019150505b92915050565b60158160038110610e7a57600080fd5b01546001600160a01b0316905081565b60008060246000610e9961204a565b8152602001908152602001600020905080600001548160010154602254610ec09190613a89565b610eca9190613a9c565b91505090565b600033610ede858285612dc1565b610ee9858585612e35565b506001949350505050565b60198181548110610f0457600080fd5b6000918252602090912001546001600160a01b0316905081565b601c546001600160a01b03163314610f3557600080fd5b601b80546001600160a01b0319166001600160a01b0392909216919091179055565b600033610e5e818585610f6a83836126f1565b610f749190613a89565b612c9d565b601b546001600160a01b0316331480610f9c5750601c546001600160a01b031633145b610fa557600080fd5b610fad612fe4565b60005b818110156111185736838383818110610fcb57610fcb613aaf565b604090810292909201803560009081526006602052929092208054929350916001600160a01b031615905061102d5760405162461bcd60e51b815260206004820152600360248201526206361360ec1b60448201526064015b60405180910390fd5b600760006110416040850160208601613756565b6001600160a01b031681526020810191909152604001600020541561108e5760405162461bcd60e51b815260206004820152600360248201526263613160e81b6044820152606401611024565b8135600760006110a46040860160208701613756565b6001600160a01b03166001600160a01b03168152602001908152602001600020819055508160200160208101906110db9190613756565b81546001600160a01b0319166001600160a01b0391909116178155674563918244f40000600190910155508061111081613ac5565b915050610fb0565b506111236001600555565b5050565b33600090815260076020908152604080832054808452600690925290912080546001600160a01b03166111855760405162461bcd60e51b8152600401611024906020808252600490820152630636761360e41b604082015260600190565b6001019190915550565b61119761361f565b6040805160608101918290529060159060039082845b81546001600160a01b031681526001909101906020018083116111ad575050505050905090565b6001600160a01b038116600090815260126020526040902054806111f757600080fd5b60006011611206600184613a9c565b8154811061121657611216613aaf565b9060005260206000209060020201905060026013546112359190613ade565b81541161126c5760405162461bcd60e51b8152602060048201526005602482015264070637720360dc1b6044820152606401611024565b6000601354116112a65760405162461bcd60e51b8152602060048201526005602482015264706377203160d81b6044820152606401611024565b60006112b061204a565b905080601454106112eb5760405162461bcd60e51b81526020600482015260056024820152643831bb901960d91b6044820152606401611024565b601481905560168054601780546001600160a01b038084166001600160a01b031992831617909255601580548084169483168517909555931690871690811790925514801561134757506017546001600160a01b038581169116145b1561137857601b80546001600160a01b0386166001600160a01b03199182168117909255601c805490911690911790555b50505050565b60606019805480602002602001604051908101604052809291908181526020018280548015610e46576020028201919060005260206000209081546001600160a01b031681526001909101906020018083116111ad575050505050905090565b601b546001600160a01b03163314806114015750601c546001600160a01b031633145b61140a57600080fd5b601c546040516001600160a01b03909116904780156108fc02916000818181858888f19350505050158015611443573d6000803e3d6000fd5b50565b6000806023600061145561204a565b8152602080820192909252604090810160009081206001600160a01b0387168252835281812080546001820154948390529290912054909350909161149991613a89565b6114a39190613a9c565b9392505050565b60006114b461204a565b9050600e5481036114c457600080fd5b600c54600b55600e55565b6040805180820190915260008082526020820152602360006114ef61204a565b8152602080820192909252604090810160009081206001600160a01b0390951681529382529283902083518085019094528054845260010154908301525090565b60006213c68061153e61204a565b6115489190613a89565b905090565b611555612fe4565b601b546001600160a01b03163314806115785750601c546001600160a01b031633145b61158157600080fd5b64174876e80083116115be5760405162461bcd60e51b8152600401611024906020808252600490820152630676362360e41b604082015260600190565b6115c88184613b00565b34146115ff5760405162461bcd60e51b8152600401611024906020808252600490820152636763623160e01b604082015260600190565b60005b8181101561181d5760006006600085858581811061162257611622613aaf565b6020908102929092013583525081019190915260400160002080549091506001600160a01b031661167e5760405162461bcd60e51b81526004016110249060208082526004908201526333b1b11960e11b604082015260600190565b858160030154116116ba5760405162461bcd60e51b8152600401611024906020808252600490820152636763623360e01b604082015260600190565b85816001015410156116f75760405162461bcd60e51b81526004016110249060208082526004908201526319d8d88d60e21b604082015260600190565b60008682600301546117099190613a9c565b60006003840155601854835460405163a9059cbb60e01b81526001600160a01b03918216600482015260248101849052929350169063a9059cbb906044016020604051808303816000875af1158015611766573d6000803e3d6000fd5b505050506040513d601f19601f8201168201806040525081019061178a9190613b17565b50866009600082825461179d9190613a89565b909155505081546040516001600160a01b039091169087156108fc029088906000818181858888f193505050501580156117db573d6000803e3d6000fd5b506002820154156118085760028201805460009091558254611806906001600160a01b03168261303d565b505b5050808061181590613ac5565b915050611602565b506113786001600555565b611830612fe4565b60005b818110156111185760006006600085858581811061185357611853613aaf565b6020908102929092013583525081019190915260400160002080549091506001600160a01b03166118ac5760405162461bcd60e51b815260206004820152600360248201526206362360ec1b6044820152606401611024565b6002810154156118d857600281018054600090915581546118d6906001600160a01b03168261303d565b505b600381015415611968576003810180546000909155601854825460405163a9059cbb60e01b81526001600160a01b0391821660048201526024810184905291169063a9059cbb906044016020604051808303816000875af1158015611941573d6000803e3d6000fd5b505050506040513d601f19601f820116820180604052508101906119659190613b17565b50505b508061197381613ac5565b915050611833565b606060048054610dcd90613a39565b600061199461204a565b905060005b82811015611378576000601060008686858181106119b9576119b9613aaf565b90506020020160208101906119ce9190613756565b6001600160a01b03166001600160a01b0316815260200190815260200160002090506000816002015411611a2c5760405162461bcd60e51b8152602060048201526005602482015264076617620360dc1b6044820152606401611024565b82816002015410611a675760405162461bcd60e51b8152602060048201526005602482015264766176203160d81b6044820152606401611024565b600381015460ff1615611aa45760405162461bcd60e51b81526020600482015260056024820152643b30bb101960d91b6044820152606401611024565b60038101805460ff19166001179055805460138054600090611ac7908490613a89565b909155505060018101546001600160a01b03166000908152601260205260409020548015611b425760006011611afe600184613a9c565b81548110611b0e57611b0e613aaf565b906000526020600020906002020190508260000154816000016000828254611b369190613a89565b90915550611bd2915050565b6011805460018181018355845460029092027f31ecc21a745e3968a04e9570e4425bc18fa8019c68028196b546d1669c200c68810192909255840180547f31ecc21a745e3968a04e9570e4425bc18fa8019c68028196b546d1669c200c6990920180546001600160a01b0319166001600160a01b0393841617905591549154166000908152601260205260409020555b7fe08472d1275fefbb15ff0aea278bb1f42c491be3fa4358160826ba7e420ae61382604051611c019190613b39565b60405180910390a150508080611c1690613ac5565b915050611999565b600081118015611c36575068056bc75e2d6310000081105b611c6b5760405162461bcd60e51b815260206004820152600660248201526507366727620360d41b6044820152606401611024565b336000908152600f60205260409020805415611c8a57611c8a33613077565b3360009081526020819052604090205480611cd05760405162461bcd60e51b815260206004820152600660248201526573667276203160d01b6044820152606401611024565b80600d54611cde9190613a89565b611ce88483613b00565b600d54600c54611cf89190613b00565b611d029190613a89565b611d0c9190613ade565b600c8190555080600d6000828254611d249190613a89565b9091555050815560010155565b60003381611d3f82866126f1565b905083811015611d9f5760405162461bcd60e51b815260206004820152602560248201527f45524332303a2064656372656173656420616c6c6f77616e63652062656c6f77604482015264207a65726f60d81b6064820152608401611024565b610ee98286868403612c9d565b600033610e5e818585612e35565b611dc2612fe4565b6000611dcc61204a565b60008181526025602052604081205491925090611de860025490565b611df29190613a9c565b90506000611dfe610e8a565b905060008211611e385760405162461bcd60e51b8152602060048201526005602482015264063667073360dc1b6044820152606401611024565b60008111611e705760405162461bcd60e51b8152602060048201526005602482015264636670733160d81b6044820152606401611024565b60005b8481101561203c576000868683818110611e8f57611e8f613aaf565b9050602002016020810190611ea49190613756565b6001600160a01b0381166000908152602660205260409020549091508511611ef65760405162461bcd60e51b815260206004820152600560248201526431b338399960d91b6044820152606401611024565b6000611f0182611446565b905060008111611f3b5760405162461bcd60e51b8152602060048201526005602482015264636670733360d81b6044820152606401611024565b600085611f488684613b00565b611f529190613ade565b6001600160a01b0384166000908152602660205260408120899055909150611f7b908290613171565b60185460405163a9059cbb60e01b81526001600160a01b038581166004830152602482018490529091169063a9059cbb906044016020604051808303816000875af1158015611fce573d6000803e3d6000fd5b505050506040513d601f19601f82011682018060405250810190611ff29190613b17565b6120265760405162461bcd60e51b815260206004820152600560248201526418d99c1ccd60da1b6044820152606401611024565b505050808061203490613ac5565b915050611e73565b505050506111236001600555565b60006115486213c68042613ade565b601b546001600160a01b031633148061207c5750601c546001600160a01b031633145b61208557600080fd5b61208d612fe4565b7f000000000000000000000000000000000000000000000000000000000000000060005b8281101561245d576000600660008686858181106120d1576120d1613aaf565b90506020028101906120e39190613b72565b6000013581526020019081526020016000209050600081600401600087878681811061211157612111613aaf565b90506020028101906121239190613b72565b60200135815260200190815260200160002090506000806000836000015490504284600101541161217f5760405162461bcd60e51b815260040161102490602080825260049082015263616d633160e01b604082015260600190565b60005b89898881811061219457612194613aaf565b90506020028101906121a69190613b72565b6121b4906040810190613b92565b905081101561241857368a8a898181106121d0576121d0613aaf565b90506020028101906121e29190613b72565b6121f0906040810190613b92565b8381811061220057612200613aaf565b905060400201905060008160000135116122455760405162461bcd60e51b81526004016110249060208082526004908201526330b6b19960e11b604082015260600190565b8035600090815260066020908152604090912090820135808510156122955760405162461bcd60e51b815260040161102490602080825260049082015263185b58cd60e21b604082015260600190565b61229f8186613a9c565b9450600068056bc75e2d63100000600b54836122bb9190613b00565b6122c59190613ade565b905060006122d38284613a9c565b90506000601d548e6122e59190613a9c565b905060008184116122f657836122f8565b815b9050600068056bc75e2d6310000061231183600a613b00565b61232390670de0b6b3a7640000613b00565b61232d9190613ade565b9050600068056bc75e2d6310000061234684600f613b00565b61235890670de0b6b3a7640000613b00565b6123629190613ade565b90506000816123718486613a9c565b61237b9190613a9c565b9050806008600082825461238f9190613a89565b9091555061239f9050838f613a89565b9d50818960020160008282546123b59190613a89565b92505081905550858960030160008282546123d09190613a89565b9250508190555083601d60008282546123e99190613a89565b909155506123f99050878e613a89565b9c5050505050505050505050808061241090613ac5565b915050612182565b50612424826001613171565b80845560028501805484919060009061243e908490613a89565b925050819055505050505050808061245590613ac5565b9150506120b1565b50506111236001600555565b612471612fe4565b33600090815260076020908152604080832054808452600690925290912080546001600160a01b03166124cf5760405162461bcd60e51b81526004016110249060208082526004908201526306d6320360e41b604082015260600190565b60005b838110156126645760008585838181106124ee576124ee613aaf565b9050606002018036038101906125049190613bdc565b805190915061253e5760405162461bcd60e51b8152600401611024906020808252600490820152636d63203160e01b604082015260600190565b60185481516040516323b872dd60e01b815233600482015230602482015260448101919091526001600160a01b03909116906323b872dd906064016020604051808303816000875af1158015612598573d6000803e3d6000fd5b505050506040513d601f19601f820116820180604052508101906125bc9190613b17565b6125f15760405162461bcd60e51b81526004016110249060208082526004908201526336b1901960e11b604082015260600190565b6040818101805160009081526004860160209081529083902084518155818501516001820155915183518881529182015290917fdf1ccadd90c8987aa73568b11e0c57744db13dccf98de0a82f2b9bc6edb3d104910160405180910390a15050808061265c90613ac5565b9150506124d2565b5050506111236001600555565b60606011805480602002602001604051908101604052809291908181526020016000905b828210156126dd5760008481526020908190206040805180820190915260028502909101805482526001908101546001600160a01b0316828401529083529092019101612695565b50505050905090565b6126ef33613077565b565b6001600160a01b03918216600090815260016020908152604080832093909416825291909152205490565b60275460ff16156127585760405162461bcd60e51b81526004016110249060208082526004908201526306d6967360e41b604082015260600190565b8060005b6040516302a11ced60e41b8152600481018290526001600160a01b03831690632a11ced090602401602060405180830381865afa9250505080156127bd575060408051601f3d908101601f191682019092526127ba91810190613c46565b60015b156128c257816127cc81613ac5565b6040516370a0823160e01b81526001600160a01b03848116600483015291945060009250908516906370a0823190602401602060405180830381865afa15801561281a573d6000803e3d6000fd5b505050506040513d601f19601f8201168201806040525081019061283e9190613c63565b905080156128bb576040516370a0823160e01b81526001600160a01b0380841660048301526128bb9184918716906370a0823190602401602060405180830381865afa158015612892573d6000803e3d6000fd5b505050506040513d601f19601f820116820180604052508101906128b69190613c63565b61303d565b505061275c565b60005b6040516333c24bd360e01b8152600481018290526001600160a01b038416906333c24bd390602401602060405180830381865afa925050508015612926575060408051601f3d908101601f1916820190925261292391810190613c63565b60015b15612a1d578161293581613ac5565b925050600080856001600160a01b031663f2a40db8846040518263ffffffff1660e01b815260040161296991815260200190565b608060405180830381865afa158015612986573d6000803e3d6000fd5b505050506040513d601f19601f820116820180604052508101906129aa9190613c7c565b506000868152600660205260409020919450925090506001600160a01b03831615612a0c576001600160a01b038316600081815260076020526040902085905581546001600160a01b031916178155674563918244f400006001820155612a14565b600281018290555b505050506128c5565b50506027805460ff191660011790555050565b612a38612fe4565b60085415612a5f57601c54600854612a59916001600160a01b03169061303d565b60006008555b60095415612aeb57601854601c5460095460405163a9059cbb60e01b81526001600160a01b039283166004820152602481019190915291169063a9059cbb906044016020604051808303816000875af1158015612ac0573d6000803e3d6000fd5b505050506040513d601f19601f82011682018060405250810190612ae49190613b17565b5060006009555b6126ef6001600555565b6001600160a01b038116612b335760405162461bcd60e51b8152602060048201526005602482015264073617620360dc1b6044820152606401611024565b3360009081526020819052604090205480612b785760405162461bcd60e51b8152602060048201526005602482015264736176203160d81b6044820152606401611024565b336000908152601060205260409020805415612b9757612b9733613203565b6040518060800160405280838152602001846001600160a01b03168152602001612bbf61204a565b8152600060209182018190523381526010825260409081902083518155918301516001830180546001600160a01b0319166001600160a01b0390921691909117905582810151600283015560609092015160038201805460ff191691151591909117905590517fe08472d1275fefbb15ff0aea278bb1f42c491be3fa4358160826ba7e420ae61391612c5091613b39565b60405180910390a1505050565b6126ef33613203565b60118181548110612c7657600080fd5b6000918252602090912060029091020180546001909101549091506001600160a01b031682565b6001600160a01b038316612cff5760405162461bcd60e51b8152602060048201526024808201527f45524332303a20617070726f76652066726f6d20746865207a65726f206164646044820152637265737360e01b6064820152608401611024565b6001600160a01b038216612d605760405162461bcd60e51b815260206004820152602260248201527f45524332303a20617070726f766520746f20746865207a65726f206164647265604482015261737360f01b6064820152608401611024565b6001600160a01b0383811660008181526001602090815260408083209487168084529482529182902085905590518481527f8c5be1e5ebec7d5bd14f71427d1e84f3dd0314c0f7b2291e5b200ac8c7c3b925910160405180910390a3505050565b6000612dcd84846126f1565b905060001981146113785781811015612e285760405162461bcd60e51b815260206004820152601d60248201527f45524332303a20696e73756666696369656e7420616c6c6f77616e63650000006044820152606401611024565b6113788484848403612c9d565b6001600160a01b038316612e995760405162461bcd60e51b815260206004820152602560248201527f45524332303a207472616e736665722066726f6d20746865207a65726f206164604482015264647265737360d81b6064820152608401611024565b6001600160a01b038216612efb5760405162461bcd60e51b815260206004820152602360248201527f45524332303a207472616e7366657220746f20746865207a65726f206164647260448201526265737360e81b6064820152608401611024565b612f06838383613327565b6001600160a01b03831660009081526020819052604090205481811015612f7e5760405162461bcd60e51b815260206004820152602660248201527f45524332303a207472616e7366657220616d6f756e7420657863656564732062604482015265616c616e636560d01b6064820152608401611024565b6001600160a01b03848116600081815260208181526040808320878703905593871680835291849020805487019055925185815290927fddf252ad1be2c89b69c2b068fc378daa952ba7f163c4a11628f55a4df523b3ef910160405180910390a3611378565b6002600554036130365760405162461bcd60e51b815260206004820152601f60248201527f5265656e7472616e637947756172643a207265656e7472616e742063616c6c006044820152606401611024565b6002600555565b806025600061304a61204a565b815260200190815260200160002060008282546130679190613a89565b9091555061112390508282613442565b6001600160a01b0381166000908152600f6020526040902080546130c65760405162461bcd60e51b815260206004820152600660248201526507266727620360d41b6044820152606401611024565b8054600d546000916130d791613a9c565b90506000600d54600c546130eb9190613b00565b90506000836001015484600001546131039190613b00565b9050600081831161311557600061311f565b61311f8284613a9c565b9050831561313e576131318482613ade565b600c55600d84905561314a565b600a54600c556000600d555b5050506001600160a01b039092166000908152600f60205260408120818155600101555050565b60006024600061317f61204a565b8152602001908152602001600020905081156131cb5782602260008282546131a79190613a89565b90915550508054839082906000906131c0908490613a89565b909155506131fe9050565b82602260008282546131dd9190613a9c565b92505081905550828160010160008282546131f89190613a89565b90915550505b505050565b6001600160a01b038116600090815260106020526040902080546132525760405162461bcd60e51b815260206004820152600660248201526507261766820360d41b6044820152606401611024565b600381015460ff16156132e557805460138054600090613273908490613a9c565b909155505060018101546001600160a01b03166000908152601260205260409020548061329f57600080fd5b815460116132ae600184613a9c565b815481106132be576132be613aaf565b906000526020600020906002020160000160008282546132de9190613a9c565b9091555050505b506001600160a01b031660009081526010602052604081208181556001810180546001600160a01b03191690556002810191909155600301805460ff19169055565b6001600160a01b0383161561339057613342838260006134cf565b6001600160a01b0383166000908152600f6020526040902054156133695761336983613077565b6001600160a01b038316600090815260106020526040902054156133905761339083613203565b6001600160a01b038216156131fe576133ab828260016134cf565b6001600160a01b0382166000908152601a602052604090205460ff161580156133d45750600081115b156131fe576019805460018181019092557f944998273e477b495144fb8794c914197f3ccb46be2900f4698fd0ef743c96950180546001600160a01b0385166001600160a01b031990911681179091556000908152601a60205260409020805460ff19169091179055505050565b7f00000000000000000000000000000000000000000000000000000000000000008161346d60025490565b6134779190613a89565b11156134c55760405162461bcd60e51b815260206004820152601960248201527f45524332304361707065643a20636170206578636565646564000000000000006044820152606401611024565b6111238282613554565b6000602360006134dd61204a565b81526020019081526020016000206000856001600160a01b03166001600160a01b0316815260200190815260200160002090508115613535578281600001600082825461352a9190613a89565b909155506113789050565b828160010160008282546135499190613a89565b909155505050505050565b6001600160a01b0382166135aa5760405162461bcd60e51b815260206004820152601f60248201527f45524332303a206d696e7420746f20746865207a65726f2061646472657373006044820152606401611024565b6135b660008383613327565b80600260008282546135c89190613a89565b90915550506001600160a01b038216600081815260208181526040808320805486019055518481527fddf252ad1be2c89b69c2b068fc378daa952ba7f163c4a11628f55a4df523b3ef910160405180910390a35050565b60405180606001604052806003906020820280368337509192915050565b600060208083528351808285015260005b8181101561366a5785810183015185820160400152820161364e565b506000604082860101526040601f19601f8301168501019250505092915050565b6001600160a01b038116811461144357600080fd5b600080604083850312156136b357600080fd5b8235915060208301356136c58161368b565b809150509250929050565b600080604083850312156136e357600080fd5b82356136ee8161368b565b946020939093013593505050565b60006020828403121561370e57600080fd5b5035919050565b60008060006060848603121561372a57600080fd5b83356137358161368b565b925060208401356137458161368b565b929592945050506040919091013590565b60006020828403121561376857600080fd5b81356114a38161368b565b6000806020838503121561378657600080fd5b823567ffffffffffffffff8082111561379e57600080fd5b818501915085601f8301126137b257600080fd5b8135818111156137c157600080fd5b8660208260061b85010111156137d657600080fd5b60209290920196919550909350505050565b60608101818360005b60038110156138195781516001600160a01b03168352602092830192909101906001016137f1565b50505092915050565b6020808252825182820181905260009190848201906040850190845b818110156138635783516001600160a01b03168352928401929184019160010161383e565b50909695505050505050565b60008083601f84011261388157600080fd5b50813567ffffffffffffffff81111561389957600080fd5b6020830191508360208260051b85010111156138b457600080fd5b9250929050565b600080600080606085870312156138d157600080fd5b8435935060208501359250604085013567ffffffffffffffff8111156138f657600080fd5b6139028782880161386f565b95989497509550505050565b6000806020838503121561392157600080fd5b823567ffffffffffffffff81111561393857600080fd5b6139448582860161386f565b90969095509350505050565b6000806020838503121561396357600080fd5b823567ffffffffffffffff8082111561397b57600080fd5b818501915085601f83011261398f57600080fd5b81358181111561399e57600080fd5b8660206060830285010111156137d657600080fd5b602080825282518282018190526000919060409081850190868401855b828110156139fe578151805185528601516001600160a01b03168685015292840192908501906001016139d0565b5091979650505050505050565b60008060408385031215613a1e57600080fd5b8235613a298161368b565b915060208301356136c58161368b565b600181811c90821680613a4d57607f821691505b602082108103613a6d57634e487b7160e01b600052602260045260246000fd5b50919050565b634e487b7160e01b600052601160045260246000fd5b80820180821115610e6457610e64613a73565b81810381811115610e6457610e64613a73565b634e487b7160e01b600052603260045260246000fd5b600060018201613ad757613ad7613a73565b5060010190565b600082613afb57634e487b7160e01b600052601260045260246000fd5b500490565b8082028115828204841417610e6457610e64613a73565b600060208284031215613b2957600080fd5b815180151581146114a357600080fd5b8154815260018201546001600160a01b0316602082015260028201546040820152600382015460ff161515606082015260808101610e64565b60008235605e19833603018112613b8857600080fd5b9190910192915050565b6000808335601e19843603018112613ba957600080fd5b83018035915067ffffffffffffffff821115613bc457600080fd5b6020019150600681901b36038213156138b457600080fd5b600060608284031215613bee57600080fd5b6040516060810181811067ffffffffffffffff82111715613c1f57634e487b7160e01b600052604160045260246000fd5b80604052508235815260208301356020820152604083013560408201528091505092915050565b600060208284031215613c5857600080fd5b81516114a38161368b565b600060208284031215613c7557600080fd5b5051919050565b60008060008060808587031215613c9257600080fd5b845193506020850151613ca48161368b565b604086015160609096015194979096509250505056fea26469706673582212207bbfd5f03606a155873a712854d6c0c9b92018ecc01f5b96ddcb1759f977344c64736f6c63430008130033",
  "immutableReferences": {
    "737": [
      {
        "length": 32,
        "start": 1618
      },
      {
        "length": 32,
        "start": 8335
      },
      {
        "length": 32,
        "start": 13380
      }
    ]
  },
  "source": "// SPDX-License-Identifier: MIT\npragma solidity 0.8.19;\nimport \"@openzeppelin/contracts/token/ERC20/extensions/ERC20Capped.sol\";\nimport \"@openzeppelin/contracts/security/ReentrancyGuard.sol\";\nimport \"./Asami.sol\";\n\ncontract AsamiCore is ERC20Capped, ReentrancyGuard {\n    struct Account {\n      address addr;\n      uint256 approvedGaslessAmount;\n      uint256 unclaimedAsamiBalance;\n      uint256 unclaimedDocBalance;\n      mapping( uint256 => Campaign ) campaigns;\n    }\n    mapping(uint256 => Account) public accounts;\n    mapping(address => uint256) public accountIdByAddress;\n\n    struct Campaign {\n        uint256 budget;\n        uint256 validUntil;\n        uint256 reportHash;\n        mapping( uint256 => bool ) collabMemberIds;\n    }\n\n    uint256 public adminUnclaimedAsamiBalance = 0;\n    uint256 public adminUnclaimedDocBalance = 0;\n\n    uint256 public defaultFeeRate = 10 * 1e18;\n    uint256 public feeRate = defaultFeeRate;\n    uint256 public votedFeeRate = defaultFeeRate;\n    uint256 public votedFeeRateVoteCount = 0;\n    /* To make the protocol more predictable, changes are applied only once every period */\n    uint256 public lastVotedFeeRateAppliedOn = 0;\n\n    struct FeeRateVote {\n        uint256 votes;\n        uint256 rate;\n    }\n    mapping(address => FeeRateVote) public feeRateVotes;\n\n    struct AdminVote {\n        uint256 votes;\n        address candidate;\n        uint256 cycle;\n        bool vested;\n    }\n    /* Maps holders to their vote */\n    mapping(address => AdminVote) public submittedAdminVotes;\n\n    struct AdminVoteCount {\n        uint256 votes;\n        address candidate;\n    }\n\n    /*\n    We're only storing all historic vote counts to have a view function that helps find out\n    which candidate to proclaim without relying on events.\n    */\n    AdminVoteCount[] public adminVoteCounts;\n    mapping(address => uint256) public adminVoteCountIdByCandidate;\n\n    function allAdminVoteCounts()\n        public\n        view\n        returns (AdminVoteCount[] memory)\n    {\n        return adminVoteCounts;\n    }\n\n    uint256 public vestedAdminVotesTotal;\n    uint256 public lastAdminElection;\n    address[3] public latestAdminElections;\n\n    function getLatestAdminElections() public view returns (address[3] memory) {\n        return latestAdminElections;\n    }\n\n    IERC20 internal doc;\n    address[] public holders;\n    mapping(address => bool) public trackedHolders;\n\n    address public admin; // An address that may be stored on a server.\n    address public adminTreasury; // A cold storage address for admin money.\n\n    uint256 public assignedAsamiTokens;\n\n    event AdminVoteSaved(AdminVote vote);\n    event AccountUpdated(uint256 accountId);\n    event CampaignCreated(uint256 accountId, uint256 briefing);\n    event CampaignSaved(uint256 campaignId);\n    event CampaignReimbursed(uint256 campaignId);\n    event CollabSaved(uint256 advertiserId, uint256 briefing, uint256 accountId, uint256 gross, uint256 fee);\n\n    modifier onlyAdmin() {\n        require(msg.sender == admin || msg.sender == adminTreasury);\n        _;\n    }\n\n    constructor(\n        address _dollarOnChainAddress,\n        address _adminAddress\n    ) ERC20(\"Asami Core\", \"ASAMI\") ERC20Capped(21 * 1e24) {\n        doc = IERC20(_dollarOnChainAddress);\n        adminTreasury = msg.sender;\n        admin = _adminAddress;\n        // TODO: Create accounts, populate asami tokens and pending balances from previous contract.\n    }\n\n    function _beforeTokenTransfer(\n        address from,\n        address to,\n        uint256 amount\n    ) internal override {\n        super._beforeTokenTransfer(from, to, amount);\n\n        if (from != address(0)) {\n          _registerRecentBalanceChange(from, amount, false);\n\n          if (feeRateVotes[from].votes > 0) {\n              removeFeeRateVoteHelper(from);\n          }\n          if (submittedAdminVotes[from].votes > 0) {\n              removeAdminVoteHelper(from);\n          }\n        }\n\n        if (to != address(0)) {\n          _registerRecentBalanceChange(to, amount, true);\n\n          if (!trackedHolders[to] && amount > 0) {\n              holders.push(to);\n              trackedHolders[to] = true;\n          }\n        }\n    }\n\n    function getHolders() public view returns (address[] memory) {\n        return holders;\n    }\n\n    function getClaimedAsamiTokens() public view returns (uint256) {\n        return assignedAsamiTokens;\n    }\n\n    struct ClaimAccountsParam {\n        uint256 accountId;\n        address addr;\n    }\n\n    function claimAccounts(\n        ClaimAccountsParam[] calldata _input\n    ) external onlyAdmin nonReentrant {\n        for (uint256 i = 0; i < _input.length; i++) {\n            ClaimAccountsParam calldata claim = _input[i];\n\n            Account storage account = accounts[claim.accountId];\n            require(account.addr == address(0), \"ca0\");\n            require(accountIdByAddress[claim.addr] == 0, \"ca1\");\n\n            accountIdByAddress[claim.addr] = claim.accountId;\n            account.addr = claim.addr;\n            account.approvedGaslessAmount = 5e18; \n        }\n    }\n\n    function claimBalances(uint256[] calldata _accountIds) external nonReentrant {\n      for (uint256 i = 0; i < _accountIds.length; i++){\n        Account storage account = accounts[_accountIds[i]];\n        require(account.addr != address(0), \"cb0\");\n\n        if (account.unclaimedAsamiBalance > 0) {\n          uint256 balance = account.unclaimedAsamiBalance;\n          account.unclaimedAsamiBalance = 0;\n          _safeMint(account.addr, balance);\n        }\n\n        if (account.unclaimedDocBalance > 0) {\n          uint256 balance = account.unclaimedDocBalance;\n          account.unclaimedDocBalance = 0;\n          doc.transfer(account.addr, balance);\n        }\n      }\n    }\n\n    function gaslessClaimBalances(\n      uint256 _fee,\n      uint256 _rbtcAmount,\n      uint256[] calldata _accountIds\n    ) external payable nonReentrant onlyAdmin {\n      require(_rbtcAmount > 1e11, \"gcb0\");\n      require(msg.value == (_rbtcAmount * _accountIds.length), \"gcb1\");\n\n      for (uint256 i = 0; i < _accountIds.length; i++){\n        Account storage account = accounts[_accountIds[i]];\n        require(account.addr != address(0), \"gcb2\");\n        require(account.unclaimedDocBalance > _fee, \"gcb3\");\n        require(account.approvedGaslessAmount >= _fee, \"gcb4\");\n\n        uint256 docs = account.unclaimedDocBalance - _fee;\n        account.unclaimedDocBalance = 0;\n        doc.transfer(account.addr, docs);\n        adminUnclaimedDocBalance += _fee;\n        payable(account.addr).transfer(_rbtcAmount);\n\n        if (account.unclaimedAsamiBalance > 0) {\n          uint256 balance = account.unclaimedAsamiBalance;\n          account.unclaimedAsamiBalance = 0;\n          _safeMint(account.addr, balance);\n        }\n      }\n    }\n\n    function changeGaslessApproval(uint256 newAmount) external {\n        uint256 accountId = accountIdByAddress[msg.sender];\n        Account storage account = accounts[accountId];\n        require(account.addr != address(0), \"cga0\");\n        account.approvedGaslessAmount = newAmount;\n    }\n\n    function claimAdminUnclaimedBalances() external nonReentrant {\n      if (adminUnclaimedAsamiBalance > 0) {\n        _safeMint(adminTreasury, adminUnclaimedAsamiBalance);\n        adminUnclaimedAsamiBalance = 0;\n      }\n\n      if (adminUnclaimedDocBalance > 0) {\n        doc.transfer(adminTreasury, adminUnclaimedDocBalance);\n        adminUnclaimedDocBalance = 0;\n      }\n    }\n\n    function withdrawAccidentallySentRbtc() external onlyAdmin {\n      payable(adminTreasury).transfer(address(this).balance);\n    }\n\n    struct MakeCampaignsParam {\n        uint256 budget;\n        uint256 validUntil;\n        uint256 briefing;\n    }\n\n    function makeCampaigns(\n        MakeCampaignsParam[] calldata _inputs\n    ) public nonReentrant {\n        uint256 accountId = accountIdByAddress[msg.sender];\n        Account storage account = accounts[accountId];\n        require(account.addr != address(0), \"mc 0\");\n\n        for (uint i = 0; i < _inputs.length; i++) {\n            MakeCampaignsParam memory input = _inputs[i];\n            require(input.budget > 0, \"mc 1\");\n            require(doc.transferFrom(msg.sender, address(this), input.budget), \"mc 2\");\n            Campaign storage c = account.campaigns[input.briefing];\n            c.budget = input.budget;\n            c.validUntil = input.validUntil;\n\n            emit CampaignCreated(accountId, input.briefing);\n        }\n    }\n\n    struct MakeCollabsParam {\n        uint256 advertiserId;\n        uint256 briefing;\n        MakeCollabsParamItem[] collabs;\n    }\n\n    struct MakeCollabsParamItem {\n        uint256 accountId;\n        uint256 docReward;\n    }\n\n    function adminMakeCollabs(\n        MakeCollabsParam[] calldata _input\n    ) external onlyAdmin nonReentrant {\n        uint256 asamiTokenCap = cap();\n\n        for (uint256 i = 0; i < _input.length; i++) {\n          Account storage advertiser = accounts[_input[i].advertiserId];\n          Campaign storage campaign = advertiser.campaigns[_input[i].briefing];\n          uint256 newAdvertiserTokens = 0;\n          uint256 newFees = 0;\n          uint256 budget = campaign.budget;\n          require(campaign.validUntil > block.timestamp, \"amc1\");\n\n          for (uint256 j = 0; j < _input[i].collabs.length; j++) {\n            MakeCollabsParamItem calldata item = _input[i].collabs[j];\n            require(item.accountId > 0, \"amc2\");\n\n            Account storage member = accounts[item.accountId];\n\n            uint256 gross = item.docReward;\n            require(budget >= gross, \"amc4\");\n            budget -= gross;\n\n            uint256 fee = (gross * feeRate) / 1e20;\n            uint256 reward = gross - fee;\n\n            uint256 remainingToCap = asamiTokenCap - assignedAsamiTokens;\n            uint256 newTokens = (fee > remainingToCap) ? remainingToCap : fee;\n            uint256 advertiserTokens = (newTokens * 10 * 1e18) / 100e18;\n            uint256 memberTokens = (newTokens * 15 * 1e18) / 100e18;\n            uint256 adminTokens = newTokens - advertiserTokens - memberTokens;\n\n            adminUnclaimedAsamiBalance += adminTokens;\n            newAdvertiserTokens += advertiserTokens;\n            member.unclaimedAsamiBalance += memberTokens;\n            member.unclaimedDocBalance += reward;\n            assignedAsamiTokens += newTokens;\n            newFees += fee;\n          }\n          changeFeePool(newFees, true);\n          campaign.budget = budget;\n          advertiser.unclaimedAsamiBalance += newAdvertiserTokens;\n      }\n    }\n\n    function _safeMint(address _addr, uint256 _amount) private {\n        recentTokens[getCurrentCycle()] += _amount;\n        _mint(_addr, _amount);\n    }\n\n    function getCycleLength() public pure returns (uint256) {\n        return 60 * 60 * 24 * 15;\n    }\n\n    function getCurrentCycle() public view returns (uint256) {\n        return block.timestamp / getCycleLength();\n    }\n\n    function getNextCycle() public view returns (uint256) {\n        return getCurrentCycle() + getCycleLength();\n    }\n\n    /* Accounts with unclaimed DOC rewards always have an option to have their funds sent by the admin paying for the transaction fees. */\n    uint256 public adminUnclaimedDoc;\n    uint256 public adminUnclaimedTokens;\n    uint256 public adminGaslessClaimRewardPrice;\n    uint256 public adminGaslessClaimAccountPrice;\n\n    uint256 public feePool;\n\n    struct BalanceChange {\n      uint256 added;\n      uint256 substracted;\n    }\n    mapping (uint256 => mapping(address => BalanceChange)) public recentBalanceChanges;\n    mapping (uint256 => BalanceChange) public recentFeePoolChanges;\n    mapping (uint256 => uint256) public recentTokens;\n    mapping(address => uint256) public lastFeePoolShareCycles;\n\n    function getRecentBalanceChange(address _holder) public view returns (BalanceChange memory) {\n      return recentBalanceChanges[getCurrentCycle()][_holder];\n    }\n\n    function getBalanceBeforeRecentChanges(address _holder) public view returns (uint256) {\n      BalanceChange storage recent = recentBalanceChanges[getCurrentCycle()][_holder];\n      return (balanceOf(_holder) + recent.substracted) - recent.added;\n    }\n\n    function _registerRecentBalanceChange(address _holder, uint256 _amount, bool _added) private {\n      BalanceChange storage recent = recentBalanceChanges[getCurrentCycle()][_holder];\n      if(_added){\n        recent.added += _amount;\n      } else {\n        recent.substracted += _amount;\n      }\n    }\n\n    function changeFeePool(uint256 _amount, bool _added) private {\n      BalanceChange storage recent = recentFeePoolChanges[getCurrentCycle()];\n      if(_added){\n        feePool += _amount;\n        recent.added += _amount;\n      } else {\n        feePool -= _amount;\n        recent.substracted += _amount;\n      }\n    }\n\n    function getFeePoolBeforeRecentChanges() public view returns (uint256) {\n      BalanceChange storage recent = recentFeePoolChanges[getCurrentCycle()];\n      return (feePool + recent.substracted) - recent.added;\n    }\n\n    /* Claiming the fee poll share */ \n    function claimFeePoolShare(address[] calldata _holders) external nonReentrant {\n        uint256 current = getCurrentCycle();\n        uint256 supply = totalSupply() - recentTokens[current];\n        uint256 pool = getFeePoolBeforeRecentChanges();\n        require(supply > 0, \"cfps0\");\n        require(pool > 0, \"cfps1\");\n\n        for (uint256 i = 0; i < _holders.length; i++) {\n          address holder = _holders[i];\n\n          require(lastFeePoolShareCycles[holder] < current, \"cfps2\");\n\n          uint256 balance = getBalanceBeforeRecentChanges(holder);\n          require(balance > 0, \"cfps3\");\n          uint256 reward = (balance * pool) / supply;\n\n          lastFeePoolShareCycles[holder] = current;\n          changeFeePool(reward, false);\n\n          require(doc.transfer(holder, reward), \"cfps4\");\n        }\n    }\n\n    function applyVotedFeeRate() external {\n        uint256 currentCycle = getCurrentCycle();\n        require(currentCycle != lastVotedFeeRateAppliedOn);\n        feeRate = votedFeeRate;\n        lastVotedFeeRateAppliedOn = currentCycle;\n    }\n\n    function submitFeeRateVote(uint256 _rate) external {\n        require(_rate > 0 && _rate < 1e20, \"sfrv 0\");\n\n        FeeRateVote storage vote = feeRateVotes[msg.sender];\n        if (vote.votes > 0) {\n            removeFeeRateVoteHelper(msg.sender);\n        }\n\n        uint256 votes = balanceOf(msg.sender);\n        require(votes > 0, \"sfrv 1\");\n\n        votedFeeRate =\n            ((votedFeeRate * votedFeeRateVoteCount) + (votes * _rate)) /\n            (votedFeeRateVoteCount + votes);\n        votedFeeRateVoteCount += votes;\n        vote.votes = votes;\n        vote.rate = _rate;\n    }\n\n    function removeFeeRateVote() external {\n        removeFeeRateVoteHelper(msg.sender);\n    }\n\n    function removeFeeRateVoteHelper(address _holder) private {\n        FeeRateVote storage vote = feeRateVotes[_holder];\n        require(vote.votes > 0, \"rfrv 0\");\n        uint256 nextVoteCount = votedFeeRateVoteCount - vote.votes;\n        uint256 currentVolume = votedFeeRate * votedFeeRateVoteCount;\n        uint256 removedVolume = vote.votes * vote.rate;\n        uint256 nextVolume = currentVolume > removedVolume\n            ? currentVolume - removedVolume\n            : 0;\n\n        if (nextVoteCount > 0) {\n            votedFeeRate = nextVolume / nextVoteCount;\n            votedFeeRateVoteCount = nextVoteCount;\n        } else {\n            votedFeeRate = defaultFeeRate;\n            votedFeeRateVoteCount = 0;\n        }\n        delete feeRateVotes[_holder];\n    }\n\n    function submitAdminVote(address _candidate) external {\n        require(_candidate != address(0), \"sav 0\");\n        uint256 votes = balanceOf(msg.sender);\n        require(votes > 0, \"sav 1\");\n\n        AdminVote storage existing = submittedAdminVotes[msg.sender];\n        if (existing.votes > 0) {\n            removeAdminVoteHelper(msg.sender);\n        }\n\n        submittedAdminVotes[msg.sender] = AdminVote({\n            candidate: _candidate,\n            votes: votes,\n            cycle: getCurrentCycle(),\n            vested: false\n        });\n\n        emit AdminVoteSaved(submittedAdminVotes[msg.sender]);\n    }\n\n    function vestAdminVotes(address[] calldata _holders) external {\n        uint256 thisCycle = getCurrentCycle();\n\n        for (uint256 i = 0; i < _holders.length; i++) {\n            AdminVote storage vote = submittedAdminVotes[_holders[i]];\n            require(vote.cycle > 0, \"vav 0\");\n            require(vote.cycle < thisCycle, \"vav 1\");\n            require(!vote.vested, \"vav 2\");\n            vote.vested = true;\n            vestedAdminVotesTotal += vote.votes;\n\n            uint256 voteCountId = adminVoteCountIdByCandidate[vote.candidate];\n            if (voteCountId > 0) {\n                AdminVoteCount storage count = adminVoteCounts[voteCountId - 1];\n                count.votes += vote.votes;\n            } else {\n                AdminVoteCount storage count = adminVoteCounts.push();\n                count.votes = vote.votes;\n                count.candidate = vote.candidate;\n                adminVoteCountIdByCandidate[vote.candidate] = adminVoteCounts\n                    .length;\n            }\n            emit AdminVoteSaved(vote);\n        }\n    }\n\n    function proclaimCycleAdminWinner(address _candidate) external {\n        uint256 voteCountId = adminVoteCountIdByCandidate[_candidate];\n        require(voteCountId > 0);\n        AdminVoteCount storage count = adminVoteCounts[voteCountId - 1];\n\n        require(count.votes > vestedAdminVotesTotal / 2, \"pcw 0\");\n        require(vestedAdminVotesTotal > 0, \"pcw 1\");\n        uint256 thisCycle = getCurrentCycle();\n        require(lastAdminElection < thisCycle, \"pcw 2\");\n\n        lastAdminElection = thisCycle;\n        latestAdminElections[2] = latestAdminElections[1];\n        latestAdminElections[1] = latestAdminElections[0];\n        latestAdminElections[0] = _candidate;\n\n        if (\n            _candidate == latestAdminElections[1] &&\n            _candidate == latestAdminElections[2]\n        ) {\n            admin = _candidate;\n            adminTreasury = _candidate;\n        }\n    }\n\n    function removeAdminVote() external {\n        removeAdminVoteHelper(msg.sender);\n    }\n\n    function removeAdminVoteHelper(address _holder) private {\n        AdminVote storage vote = submittedAdminVotes[_holder];\n        require(vote.votes > 0, \"ravh 0\");\n        if (vote.vested) {\n            vestedAdminVotesTotal -= vote.votes;\n\n            uint256 voteCountId = adminVoteCountIdByCandidate[vote.candidate];\n            require(voteCountId > 0);\n            adminVoteCounts[voteCountId - 1].votes -= vote.votes;\n        }\n        delete submittedAdminVotes[_holder];\n    }\n\n    function setAdminAddress(address _admin) external {\n        require(msg.sender == adminTreasury);\n        admin = _admin;\n    }\n\n    bool public migrationDone;\n\n    function migrateTokensFromOldContract(address _oldContract) external {\n      require(!migrationDone, \"mig0\");\n      Asami oldContract = Asami(_oldContract);\n\n      uint256 i = 0;\n      while (true) {\n          try oldContract.holders(i) returns (address holder) {\n            i++;\n            uint256 balance = oldContract.balanceOf(holder);\n            if(balance > 0){\n              _safeMint(holder, oldContract.balanceOf(holder));\n            }\n          } catch {\n              break;\n          }\n      }\n\n      uint256 j = 0;\n      while (true) {\n          try oldContract.accountIds(j) returns (uint256 oldAccountId) {\n            j++;\n            ( , address addr, uint256 oldUnclaimedAsami,) = oldContract.accounts(oldAccountId);\n            Account storage account = accounts[oldAccountId];\n            if(addr != address(0)) {\n              accountIdByAddress[addr] = oldAccountId;\n              account.addr = addr;\n              account.approvedGaslessAmount = 5e18; \n            } else {\n              account.unclaimedAsamiBalance = oldUnclaimedAsami;\n            }\n          } catch {\n              break;\n          }\n      }\n\n      migrationDone = true;\n    }\n}\n",
  "sourcePath": "/home/nubis/asami/contract/contracts/AsamiCore.sol",
  "compiler": {
    "name": "solc",
    "version": "0.8.19+commit.7dd6d404.Emscripten.clang"
  },
  "schemaVersion": "3.4.15",
  "updatedAt": "2024-04-08T20:44:47.057Z",
  "networkType": "ethereum",
  "devdoc": {
    "events": {
      "Approval(address,address,uint256)": {
        "details": "Emitted when the allowance of a `spender` for an `owner` is set by a call to {approve}. `value` is the new allowance."
      },
      "Transfer(address,address,uint256)": {
        "details": "Emitted when `value` tokens are moved from one account (`from`) to another (`to`). Note that `value` may be zero."
      }
    },
    "kind": "dev",
    "methods": {
      "allowance(address,address)": {
        "details": "See {IERC20-allowance}."
      },
      "approve(address,uint256)": {
        "details": "See {IERC20-approve}. NOTE: If `amount` is the maximum `uint256`, the allowance is not updated on `transferFrom`. This is semantically equivalent to an infinite approval. Requirements: - `spender` cannot be the zero address."
      },
      "balanceOf(address)": {
        "details": "See {IERC20-balanceOf}."
      },
      "cap()": {
        "details": "Returns the cap on the token's total supply."
      },
      "decimals()": {
        "details": "Returns the number of decimals used to get its user representation. For example, if `decimals` equals `2`, a balance of `505` tokens should be displayed to a user as `5.05` (`505 / 10 ** 2`). Tokens usually opt for a value of 18, imitating the relationship between Ether and Wei. This is the default value returned by this function, unless it's overridden. NOTE: This information is only used for _display_ purposes: it in no way affects any of the arithmetic of the contract, including {IERC20-balanceOf} and {IERC20-transfer}."
      },
      "decreaseAllowance(address,uint256)": {
        "details": "Atomically decreases the allowance granted to `spender` by the caller. This is an alternative to {approve} that can be used as a mitigation for problems described in {IERC20-approve}. Emits an {Approval} event indicating the updated allowance. Requirements: - `spender` cannot be the zero address. - `spender` must have allowance for the caller of at least `subtractedValue`."
      },
      "increaseAllowance(address,uint256)": {
        "details": "Atomically increases the allowance granted to `spender` by the caller. This is an alternative to {approve} that can be used as a mitigation for problems described in {IERC20-approve}. Emits an {Approval} event indicating the updated allowance. Requirements: - `spender` cannot be the zero address."
      },
      "name()": {
        "details": "Returns the name of the token."
      },
      "symbol()": {
        "details": "Returns the symbol of the token, usually a shorter version of the name."
      },
      "totalSupply()": {
        "details": "See {IERC20-totalSupply}."
      },
      "transfer(address,uint256)": {
        "details": "See {IERC20-transfer}. Requirements: - `to` cannot be the zero address. - the caller must have a balance of at least `amount`."
      },
      "transferFrom(address,address,uint256)": {
        "details": "See {IERC20-transferFrom}. Emits an {Approval} event indicating the updated allowance. This is not required by the EIP. See the note at the beginning of {ERC20}. NOTE: Does not update the allowance if the current allowance is the maximum `uint256`. Requirements: - `from` and `to` cannot be the zero address. - `from` must have a balance of at least `amount`. - the caller must have allowance for ``from``'s tokens of at least `amount`."
      }
    },
    "version": 1
  },
  "userdoc": {
    "kind": "user",
    "methods": {},
    "version": 1
  }
}