{
  "contractName": "AsamiCore",
  "abi": [
    {
      "inputs": [
        {
          "internalType": "address",
          "name": "_dollarOnChainAddress",
          "type": "address"
        },
        {
          "internalType": "address",
          "name": "_adminAddress",
          "type": "address"
        }
      ],
      "stateMutability": "nonpayable",
      "type": "constructor"
    },
    {
      "anonymous": false,
      "inputs": [
        {
          "indexed": false,
          "internalType": "uint256",
          "name": "accountId",
          "type": "uint256"
        }
      ],
      "name": "AccountUpdated",
      "type": "event"
    },
    {
      "anonymous": false,
      "inputs": [
        {
          "components": [
            {
              "internalType": "uint256",
              "name": "votes",
              "type": "uint256"
            },
            {
              "internalType": "address",
              "name": "candidate",
              "type": "address"
            },
            {
              "internalType": "uint256",
              "name": "cycle",
              "type": "uint256"
            },
            {
              "internalType": "bool",
              "name": "vested",
              "type": "bool"
            }
          ],
          "indexed": false,
          "internalType": "struct AsamiCore.AdminVote",
          "name": "vote",
          "type": "tuple"
        }
      ],
      "name": "AdminVoteSaved",
      "type": "event"
    },
    {
      "anonymous": false,
      "inputs": [
        {
          "indexed": true,
          "internalType": "address",
          "name": "owner",
          "type": "address"
        },
        {
          "indexed": true,
          "internalType": "address",
          "name": "spender",
          "type": "address"
        },
        {
          "indexed": false,
          "internalType": "uint256",
          "name": "value",
          "type": "uint256"
        }
      ],
      "name": "Approval",
      "type": "event"
    },
    {
      "anonymous": false,
      "inputs": [
        {
          "indexed": false,
          "internalType": "uint256",
          "name": "accountId",
          "type": "uint256"
        },
        {
          "indexed": false,
          "internalType": "uint256",
          "name": "briefing",
          "type": "uint256"
        }
      ],
      "name": "CampaignCreated",
      "type": "event"
    },
    {
      "anonymous": false,
      "inputs": [
        {
          "indexed": false,
          "internalType": "uint256",
          "name": "campaignId",
          "type": "uint256"
        }
      ],
      "name": "CampaignReimbursed",
      "type": "event"
    },
    {
      "anonymous": false,
      "inputs": [
        {
          "indexed": false,
          "internalType": "uint256",
          "name": "campaignId",
          "type": "uint256"
        }
      ],
      "name": "CampaignSaved",
      "type": "event"
    },
    {
      "anonymous": false,
      "inputs": [
        {
          "indexed": false,
          "internalType": "uint256",
          "name": "advertiserId",
          "type": "uint256"
        },
        {
          "indexed": false,
          "internalType": "uint256",
          "name": "briefing",
          "type": "uint256"
        },
        {
          "indexed": false,
          "internalType": "uint256",
          "name": "accountId",
          "type": "uint256"
        },
        {
          "indexed": false,
          "internalType": "uint256",
          "name": "gross",
          "type": "uint256"
        },
        {
          "indexed": false,
          "internalType": "uint256",
          "name": "fee",
          "type": "uint256"
        }
      ],
      "name": "CollabSaved",
      "type": "event"
    },
    {
      "anonymous": false,
      "inputs": [
        {
          "indexed": true,
          "internalType": "address",
          "name": "from",
          "type": "address"
        },
        {
          "indexed": true,
          "internalType": "address",
          "name": "to",
          "type": "address"
        },
        {
          "indexed": false,
          "internalType": "uint256",
          "name": "value",
          "type": "uint256"
        }
      ],
      "name": "Transfer",
      "type": "event"
    },
    {
      "inputs": [
        {
          "internalType": "address",
          "name": "",
          "type": "address"
        }
      ],
      "name": "accountIdByAddress",
      "outputs": [
        {
          "internalType": "uint256",
          "name": "",
          "type": "uint256"
        }
      ],
      "stateMutability": "view",
      "type": "function",
      "constant": true
    },
    {
      "inputs": [
        {
          "internalType": "uint256",
          "name": "",
          "type": "uint256"
        }
      ],
      "name": "accounts",
      "outputs": [
        {
          "internalType": "address",
          "name": "addr",
          "type": "address"
        },
        {
          "internalType": "uint256",
          "name": "approvedGaslessAmount",
          "type": "uint256"
        },
        {
          "internalType": "uint256",
          "name": "unclaimedAsamiBalance",
          "type": "uint256"
        },
        {
          "internalType": "uint256",
          "name": "unclaimedDocBalance",
          "type": "uint256"
        }
      ],
      "stateMutability": "view",
      "type": "function",
      "constant": true
    },
    {
      "inputs": [],
      "name": "admin",
      "outputs": [
        {
          "internalType": "address",
          "name": "",
          "type": "address"
        }
      ],
      "stateMutability": "view",
      "type": "function",
      "constant": true
    },
    {
      "inputs": [],
      "name": "adminGaslessClaimAccountPrice",
      "outputs": [
        {
          "internalType": "uint256",
          "name": "",
          "type": "uint256"
        }
      ],
      "stateMutability": "view",
      "type": "function",
      "constant": true
    },
    {
      "inputs": [],
      "name": "adminGaslessClaimRewardPrice",
      "outputs": [
        {
          "internalType": "uint256",
          "name": "",
          "type": "uint256"
        }
      ],
      "stateMutability": "view",
      "type": "function",
      "constant": true
    },
    {
      "inputs": [],
      "name": "adminTreasury",
      "outputs": [
        {
          "internalType": "address",
          "name": "",
          "type": "address"
        }
      ],
      "stateMutability": "view",
      "type": "function",
      "constant": true
    },
    {
      "inputs": [],
      "name": "adminUnclaimedAsamiBalance",
      "outputs": [
        {
          "internalType": "uint256",
          "name": "",
          "type": "uint256"
        }
      ],
      "stateMutability": "view",
      "type": "function",
      "constant": true
    },
    {
      "inputs": [],
      "name": "adminUnclaimedDoc",
      "outputs": [
        {
          "internalType": "uint256",
          "name": "",
          "type": "uint256"
        }
      ],
      "stateMutability": "view",
      "type": "function",
      "constant": true
    },
    {
      "inputs": [],
      "name": "adminUnclaimedDocBalance",
      "outputs": [
        {
          "internalType": "uint256",
          "name": "",
          "type": "uint256"
        }
      ],
      "stateMutability": "view",
      "type": "function",
      "constant": true
    },
    {
      "inputs": [],
      "name": "adminUnclaimedTokens",
      "outputs": [
        {
          "internalType": "uint256",
          "name": "",
          "type": "uint256"
        }
      ],
      "stateMutability": "view",
      "type": "function",
      "constant": true
    },
    {
      "inputs": [
        {
          "internalType": "address",
          "name": "",
          "type": "address"
        }
      ],
      "name": "adminVoteCountIdByCandidate",
      "outputs": [
        {
          "internalType": "uint256",
          "name": "",
          "type": "uint256"
        }
      ],
      "stateMutability": "view",
      "type": "function",
      "constant": true
    },
    {
      "inputs": [
        {
          "internalType": "uint256",
          "name": "",
          "type": "uint256"
        }
      ],
      "name": "adminVoteCounts",
      "outputs": [
        {
          "internalType": "uint256",
          "name": "votes",
          "type": "uint256"
        },
        {
          "internalType": "address",
          "name": "candidate",
          "type": "address"
        }
      ],
      "stateMutability": "view",
      "type": "function",
      "constant": true
    },
    {
      "inputs": [
        {
          "internalType": "address",
          "name": "owner",
          "type": "address"
        },
        {
          "internalType": "address",
          "name": "spender",
          "type": "address"
        }
      ],
      "name": "allowance",
      "outputs": [
        {
          "internalType": "uint256",
          "name": "",
          "type": "uint256"
        }
      ],
      "stateMutability": "view",
      "type": "function",
      "constant": true
    },
    {
      "inputs": [
        {
          "internalType": "address",
          "name": "spender",
          "type": "address"
        },
        {
          "internalType": "uint256",
          "name": "amount",
          "type": "uint256"
        }
      ],
      "name": "approve",
      "outputs": [
        {
          "internalType": "bool",
          "name": "",
          "type": "bool"
        }
      ],
      "stateMutability": "nonpayable",
      "type": "function"
    },
    {
      "inputs": [],
      "name": "assignedAsamiTokens",
      "outputs": [
        {
          "internalType": "uint256",
          "name": "",
          "type": "uint256"
        }
      ],
      "stateMutability": "view",
      "type": "function",
      "constant": true
    },
    {
      "inputs": [
        {
          "internalType": "address",
          "name": "account",
          "type": "address"
        }
      ],
      "name": "balanceOf",
      "outputs": [
        {
          "internalType": "uint256",
          "name": "",
          "type": "uint256"
        }
      ],
      "stateMutability": "view",
      "type": "function",
      "constant": true
    },
    {
      "inputs": [],
      "name": "cap",
      "outputs": [
        {
          "internalType": "uint256",
          "name": "",
          "type": "uint256"
        }
      ],
      "stateMutability": "view",
      "type": "function",
      "constant": true
    },
    {
      "inputs": [],
      "name": "decimals",
      "outputs": [
        {
          "internalType": "uint8",
          "name": "",
          "type": "uint8"
        }
      ],
      "stateMutability": "view",
      "type": "function",
      "constant": true
    },
    {
      "inputs": [
        {
          "internalType": "address",
          "name": "spender",
          "type": "address"
        },
        {
          "internalType": "uint256",
          "name": "subtractedValue",
          "type": "uint256"
        }
      ],
      "name": "decreaseAllowance",
      "outputs": [
        {
          "internalType": "bool",
          "name": "",
          "type": "bool"
        }
      ],
      "stateMutability": "nonpayable",
      "type": "function"
    },
    {
      "inputs": [],
      "name": "defaultFeeRate",
      "outputs": [
        {
          "internalType": "uint256",
          "name": "",
          "type": "uint256"
        }
      ],
      "stateMutability": "view",
      "type": "function",
      "constant": true
    },
    {
      "inputs": [],
      "name": "feePool",
      "outputs": [
        {
          "internalType": "uint256",
          "name": "",
          "type": "uint256"
        }
      ],
      "stateMutability": "view",
      "type": "function",
      "constant": true
    },
    {
      "inputs": [],
      "name": "feeRate",
      "outputs": [
        {
          "internalType": "uint256",
          "name": "",
          "type": "uint256"
        }
      ],
      "stateMutability": "view",
      "type": "function",
      "constant": true
    },
    {
      "inputs": [
        {
          "internalType": "address",
          "name": "",
          "type": "address"
        }
      ],
      "name": "feeRateVotes",
      "outputs": [
        {
          "internalType": "uint256",
          "name": "votes",
          "type": "uint256"
        },
        {
          "internalType": "uint256",
          "name": "rate",
          "type": "uint256"
        }
      ],
      "stateMutability": "view",
      "type": "function",
      "constant": true
    },
    {
      "inputs": [
        {
          "internalType": "uint256",
          "name": "",
          "type": "uint256"
        }
      ],
      "name": "holders",
      "outputs": [
        {
          "internalType": "address",
          "name": "",
          "type": "address"
        }
      ],
      "stateMutability": "view",
      "type": "function",
      "constant": true
    },
    {
      "inputs": [
        {
          "internalType": "address",
          "name": "spender",
          "type": "address"
        },
        {
          "internalType": "uint256",
          "name": "addedValue",
          "type": "uint256"
        }
      ],
      "name": "increaseAllowance",
      "outputs": [
        {
          "internalType": "bool",
          "name": "",
          "type": "bool"
        }
      ],
      "stateMutability": "nonpayable",
      "type": "function"
    },
    {
      "inputs": [],
      "name": "lastAdminElection",
      "outputs": [
        {
          "internalType": "uint256",
          "name": "",
          "type": "uint256"
        }
      ],
      "stateMutability": "view",
      "type": "function",
      "constant": true
    },
    {
      "inputs": [
        {
          "internalType": "address",
          "name": "",
          "type": "address"
        }
      ],
      "name": "lastFeePoolShareCycles",
      "outputs": [
        {
          "internalType": "uint256",
          "name": "",
          "type": "uint256"
        }
      ],
      "stateMutability": "view",
      "type": "function",
      "constant": true
    },
    {
      "inputs": [],
      "name": "lastVotedFeeRateAppliedOn",
      "outputs": [
        {
          "internalType": "uint256",
          "name": "",
          "type": "uint256"
        }
      ],
      "stateMutability": "view",
      "type": "function",
      "constant": true
    },
    {
      "inputs": [
        {
          "internalType": "uint256",
          "name": "",
          "type": "uint256"
        }
      ],
      "name": "latestAdminElections",
      "outputs": [
        {
          "internalType": "address",
          "name": "",
          "type": "address"
        }
      ],
      "stateMutability": "view",
      "type": "function",
      "constant": true
    },
    {
      "inputs": [],
      "name": "name",
      "outputs": [
        {
          "internalType": "string",
          "name": "",
          "type": "string"
        }
      ],
      "stateMutability": "view",
      "type": "function",
      "constant": true
    },
    {
      "inputs": [
        {
          "internalType": "uint256",
          "name": "",
          "type": "uint256"
        },
        {
          "internalType": "address",
          "name": "",
          "type": "address"
        }
      ],
      "name": "recentBalanceChanges",
      "outputs": [
        {
          "internalType": "uint256",
          "name": "added",
          "type": "uint256"
        },
        {
          "internalType": "uint256",
          "name": "substracted",
          "type": "uint256"
        }
      ],
      "stateMutability": "view",
      "type": "function",
      "constant": true
    },
    {
      "inputs": [
        {
          "internalType": "uint256",
          "name": "",
          "type": "uint256"
        }
      ],
      "name": "recentFeePoolChanges",
      "outputs": [
        {
          "internalType": "uint256",
          "name": "added",
          "type": "uint256"
        },
        {
          "internalType": "uint256",
          "name": "substracted",
          "type": "uint256"
        }
      ],
      "stateMutability": "view",
      "type": "function",
      "constant": true
    },
    {
      "inputs": [
        {
          "internalType": "uint256",
          "name": "",
          "type": "uint256"
        }
      ],
      "name": "recentTokens",
      "outputs": [
        {
          "internalType": "uint256",
          "name": "",
          "type": "uint256"
        }
      ],
      "stateMutability": "view",
      "type": "function",
      "constant": true
    },
    {
      "inputs": [
        {
          "internalType": "address",
          "name": "",
          "type": "address"
        }
      ],
      "name": "submittedAdminVotes",
      "outputs": [
        {
          "internalType": "uint256",
          "name": "votes",
          "type": "uint256"
        },
        {
          "internalType": "address",
          "name": "candidate",
          "type": "address"
        },
        {
          "internalType": "uint256",
          "name": "cycle",
          "type": "uint256"
        },
        {
          "internalType": "bool",
          "name": "vested",
          "type": "bool"
        }
      ],
      "stateMutability": "view",
      "type": "function",
      "constant": true
    },
    {
      "inputs": [],
      "name": "symbol",
      "outputs": [
        {
          "internalType": "string",
          "name": "",
          "type": "string"
        }
      ],
      "stateMutability": "view",
      "type": "function",
      "constant": true
    },
    {
      "inputs": [],
      "name": "totalSupply",
      "outputs": [
        {
          "internalType": "uint256",
          "name": "",
          "type": "uint256"
        }
      ],
      "stateMutability": "view",
      "type": "function",
      "constant": true
    },
    {
      "inputs": [
        {
          "internalType": "address",
          "name": "",
          "type": "address"
        }
      ],
      "name": "trackedHolders",
      "outputs": [
        {
          "internalType": "bool",
          "name": "",
          "type": "bool"
        }
      ],
      "stateMutability": "view",
      "type": "function",
      "constant": true
    },
    {
      "inputs": [
        {
          "internalType": "address",
          "name": "to",
          "type": "address"
        },
        {
          "internalType": "uint256",
          "name": "amount",
          "type": "uint256"
        }
      ],
      "name": "transfer",
      "outputs": [
        {
          "internalType": "bool",
          "name": "",
          "type": "bool"
        }
      ],
      "stateMutability": "nonpayable",
      "type": "function"
    },
    {
      "inputs": [
        {
          "internalType": "address",
          "name": "from",
          "type": "address"
        },
        {
          "internalType": "address",
          "name": "to",
          "type": "address"
        },
        {
          "internalType": "uint256",
          "name": "amount",
          "type": "uint256"
        }
      ],
      "name": "transferFrom",
      "outputs": [
        {
          "internalType": "bool",
          "name": "",
          "type": "bool"
        }
      ],
      "stateMutability": "nonpayable",
      "type": "function"
    },
    {
      "inputs": [],
      "name": "vestedAdminVotesTotal",
      "outputs": [
        {
          "internalType": "uint256",
          "name": "",
          "type": "uint256"
        }
      ],
      "stateMutability": "view",
      "type": "function",
      "constant": true
    },
    {
      "inputs": [],
      "name": "votedFeeRate",
      "outputs": [
        {
          "internalType": "uint256",
          "name": "",
          "type": "uint256"
        }
      ],
      "stateMutability": "view",
      "type": "function",
      "constant": true
    },
    {
      "inputs": [],
      "name": "votedFeeRateVoteCount",
      "outputs": [
        {
          "internalType": "uint256",
          "name": "",
          "type": "uint256"
        }
      ],
      "stateMutability": "view",
      "type": "function",
      "constant": true
    },
    {
      "inputs": [],
      "name": "allAdminVoteCounts",
      "outputs": [
        {
          "components": [
            {
              "internalType": "uint256",
              "name": "votes",
              "type": "uint256"
            },
            {
              "internalType": "address",
              "name": "candidate",
              "type": "address"
            }
          ],
          "internalType": "struct AsamiCore.AdminVoteCount[]",
          "name": "",
          "type": "tuple[]"
        }
      ],
      "stateMutability": "view",
      "type": "function",
      "constant": true
    },
    {
      "inputs": [],
      "name": "getLatestAdminElections",
      "outputs": [
        {
          "internalType": "address[3]",
          "name": "",
          "type": "address[3]"
        }
      ],
      "stateMutability": "view",
      "type": "function",
      "constant": true
    },
    {
      "inputs": [],
      "name": "getHolders",
      "outputs": [
        {
          "internalType": "address[]",
          "name": "",
          "type": "address[]"
        }
      ],
      "stateMutability": "view",
      "type": "function",
      "constant": true
    },
    {
      "inputs": [],
      "name": "getClaimedAsamiTokens",
      "outputs": [
        {
          "internalType": "uint256",
          "name": "",
          "type": "uint256"
        }
      ],
      "stateMutability": "view",
      "type": "function",
      "constant": true
    },
    {
      "inputs": [
        {
          "components": [
            {
              "internalType": "uint256",
              "name": "accountId",
              "type": "uint256"
            },
            {
              "internalType": "address",
              "name": "addr",
              "type": "address"
            }
          ],
          "internalType": "struct AsamiCore.ClaimAccountsParam[]",
          "name": "_input",
          "type": "tuple[]"
        }
      ],
      "name": "claimAccounts",
      "outputs": [],
      "stateMutability": "nonpayable",
      "type": "function"
    },
    {
      "inputs": [
        {
          "internalType": "uint256[]",
          "name": "_accountIds",
          "type": "uint256[]"
        }
      ],
      "name": "claimBalances",
      "outputs": [],
      "stateMutability": "nonpayable",
      "type": "function"
    },
    {
      "inputs": [
        {
          "internalType": "uint256",
          "name": "_fee",
          "type": "uint256"
        },
        {
          "internalType": "uint256",
          "name": "_rbtcAmount",
          "type": "uint256"
        },
        {
          "internalType": "uint256[]",
          "name": "_accountIds",
          "type": "uint256[]"
        }
      ],
      "name": "gaslessClaimBalances",
      "outputs": [],
      "stateMutability": "payable",
      "type": "function",
      "payable": true
    },
    {
      "inputs": [],
      "name": "claimAdminUnclaimedBalances",
      "outputs": [],
      "stateMutability": "nonpayable",
      "type": "function"
    },
    {
      "inputs": [],
      "name": "withdrawAccidentallySentRbtc",
      "outputs": [],
      "stateMutability": "nonpayable",
      "type": "function"
    },
    {
      "inputs": [
        {
          "components": [
            {
              "internalType": "uint256",
              "name": "budget",
              "type": "uint256"
            },
            {
              "internalType": "uint256",
              "name": "validUntil",
              "type": "uint256"
            },
            {
              "internalType": "uint256",
              "name": "briefing",
              "type": "uint256"
            }
          ],
          "internalType": "struct AsamiCore.MakeCampaignsParam[]",
          "name": "_inputs",
          "type": "tuple[]"
        }
      ],
      "name": "makeCampaigns",
      "outputs": [],
      "stateMutability": "nonpayable",
      "type": "function"
    },
    {
      "inputs": [
        {
          "components": [
            {
              "internalType": "uint256",
              "name": "advertiserId",
              "type": "uint256"
            },
            {
              "internalType": "uint256",
              "name": "briefing",
              "type": "uint256"
            },
            {
              "components": [
                {
                  "internalType": "uint256",
                  "name": "accountId",
                  "type": "uint256"
                },
                {
                  "internalType": "uint256",
                  "name": "docReward",
                  "type": "uint256"
                }
              ],
              "internalType": "struct AsamiCore.MakeCollabsParamItem[]",
              "name": "collabs",
              "type": "tuple[]"
            }
          ],
          "internalType": "struct AsamiCore.MakeCollabsParam[]",
          "name": "_input",
          "type": "tuple[]"
        }
      ],
      "name": "adminMakeCollabs",
      "outputs": [],
      "stateMutability": "nonpayable",
      "type": "function"
    },
    {
      "inputs": [],
      "name": "getCycleLength",
      "outputs": [
        {
          "internalType": "uint256",
          "name": "",
          "type": "uint256"
        }
      ],
      "stateMutability": "pure",
      "type": "function",
      "constant": true
    },
    {
      "inputs": [],
      "name": "getCurrentCycle",
      "outputs": [
        {
          "internalType": "uint256",
          "name": "",
          "type": "uint256"
        }
      ],
      "stateMutability": "view",
      "type": "function",
      "constant": true
    },
    {
      "inputs": [],
      "name": "getNextCycle",
      "outputs": [
        {
          "internalType": "uint256",
          "name": "",
          "type": "uint256"
        }
      ],
      "stateMutability": "view",
      "type": "function",
      "constant": true
    },
    {
      "inputs": [
        {
          "internalType": "address",
          "name": "_holder",
          "type": "address"
        }
      ],
      "name": "getRecentBalanceChange",
      "outputs": [
        {
          "components": [
            {
              "internalType": "uint256",
              "name": "added",
              "type": "uint256"
            },
            {
              "internalType": "uint256",
              "name": "substracted",
              "type": "uint256"
            }
          ],
          "internalType": "struct AsamiCore.BalanceChange",
          "name": "",
          "type": "tuple"
        }
      ],
      "stateMutability": "view",
      "type": "function",
      "constant": true
    },
    {
      "inputs": [
        {
          "internalType": "address",
          "name": "_holder",
          "type": "address"
        }
      ],
      "name": "getBalanceBeforeRecentChanges",
      "outputs": [
        {
          "internalType": "uint256",
          "name": "",
          "type": "uint256"
        }
      ],
      "stateMutability": "view",
      "type": "function",
      "constant": true
    },
    {
      "inputs": [],
      "name": "getFeePoolBeforeRecentChanges",
      "outputs": [
        {
          "internalType": "uint256",
          "name": "",
          "type": "uint256"
        }
      ],
      "stateMutability": "view",
      "type": "function",
      "constant": true
    },
    {
      "inputs": [
        {
          "internalType": "address[]",
          "name": "_holders",
          "type": "address[]"
        }
      ],
      "name": "claimFeePoolShare",
      "outputs": [],
      "stateMutability": "nonpayable",
      "type": "function"
    },
    {
      "inputs": [],
      "name": "applyVotedFeeRate",
      "outputs": [],
      "stateMutability": "nonpayable",
      "type": "function"
    },
    {
      "inputs": [
        {
          "internalType": "uint256",
          "name": "_rate",
          "type": "uint256"
        }
      ],
      "name": "submitFeeRateVote",
      "outputs": [],
      "stateMutability": "nonpayable",
      "type": "function"
    },
    {
      "inputs": [],
      "name": "removeFeeRateVote",
      "outputs": [],
      "stateMutability": "nonpayable",
      "type": "function"
    },
    {
      "inputs": [
        {
          "internalType": "address",
          "name": "_candidate",
          "type": "address"
        }
      ],
      "name": "submitAdminVote",
      "outputs": [],
      "stateMutability": "nonpayable",
      "type": "function"
    },
    {
      "inputs": [
        {
          "internalType": "address[]",
          "name": "_holders",
          "type": "address[]"
        }
      ],
      "name": "vestAdminVotes",
      "outputs": [],
      "stateMutability": "nonpayable",
      "type": "function"
    },
    {
      "inputs": [
        {
          "internalType": "address",
          "name": "_candidate",
          "type": "address"
        }
      ],
      "name": "proclaimCycleAdminWinner",
      "outputs": [],
      "stateMutability": "nonpayable",
      "type": "function"
    },
    {
      "inputs": [],
      "name": "removeAdminVote",
      "outputs": [],
      "stateMutability": "nonpayable",
      "type": "function"
    },
    {
      "inputs": [
        {
          "internalType": "address",
          "name": "_admin",
          "type": "address"
        }
      ],
      "name": "setAdminAddress",
      "outputs": [],
      "stateMutability": "nonpayable",
      "type": "function"
    }
  ],
  "bytecode": "0x60a060405260006008556000600955678ac7230489e80000600a55600a54600b55600a54600c556000600d556000600e553480156200003d57600080fd5b5060405162003b0538038062003b05833981016040819052620000609162000186565b6a115eec47f6cf7e350000006040518060400160405280600a8152602001694173616d6920436f726560b01b815250604051806040016040528060058152602001644153414d4960d81b8152508160039081620000be919062000263565b506004620000cd828262000263565b50505060008111620001255760405162461bcd60e51b815260206004820152601560248201527f45524332304361707065643a2063617020697320300000000000000000000000604482015260640160405180910390fd5b6080526001600555601880546001600160a01b039384166001600160a01b031991821617909155601c8054821633179055601b80549290931691161790556200032f565b80516001600160a01b03811681146200018157600080fd5b919050565b600080604083850312156200019a57600080fd5b620001a58362000169565b9150620001b56020840162000169565b90509250929050565b634e487b7160e01b600052604160045260246000fd5b600181811c90821680620001e957607f821691505b6020821081036200020a57634e487b7160e01b600052602260045260246000fd5b50919050565b601f8211156200025e57600081815260208120601f850160051c81016020861015620002395750805b601f850160051c820191505b818110156200025a5782815560010162000245565b5050505b505050565b81516001600160401b038111156200027f576200027f620001be565b6200029781620002908454620001d4565b8462000210565b602080601f831160018114620002cf5760008415620002b65750858301515b600019600386901b1c1916600185901b1785556200025a565b600085815260208120601f198616915b828110156200030057888601518255948401946001909101908401620002df565b50858210156200031f5787850151600019600388901b60f8161c191681555b5050505050600190811b01905550565b6080516137ac620003596000396000818161061701528181611ec00152612f6101526137ac6000f3fe6080604052600436106103ef5760003560e01c806379dec48b11610208578063be81462511610118578063ec8b436c116100ab578063f3401bc31161007a578063f3401bc314610c9c578063f398c24114610cbc578063f851a44014610cd1578063fa7fb4d814610cf1578063ff3f188614610d2e57600080fd5b8063ec8b436c14610b82578063ecaed41f14610bfb578063eea1bf8314610c11578063f2a40db814610c2657600080fd5b8063cdada3b6116100e7578063cdada3b614610b15578063d8c44f5014610b37578063dd62ed3e14610b4c578063e4c1be2e14610b6c57600080fd5b8063be81462514610aa9578063c31b3b5514610abf578063c5187a9114610adf578063c966948514610aff57600080fd5b8063978bbdb91161019b578063a457c2d71161016a578063a457c2d714610a1e578063a9059cbb14610a3e578063ae2e933b14610a5e578063bd5ff42314610a74578063be26ed7f14610a9457600080fd5b8063978bbdb9146109b25780639bd40aee146109c85780639dfceaaa146109e8578063a45753ed14610a0857600080fd5b80638bec13cf116101d75780638bec13cf146109515780639314b2141461096757806395d89b411461097d57806396cad0db1461099257600080fd5b806379dec48b146108d55780637cf2fcdf146108ea57806381d036f5146108fd578063882d1b541461093157600080fd5b8063419a7c5d1161030357806365e5d1bc116102965780636b6a4ad0116102655780636b6a4ad0146107f25780636bd1c230146108225780636f1c76171461084f57806370a082311461086457806374f1ea161461089a57600080fd5b806365e5d1bc1461077a5780636717d7a81461078f5780636782eb0d146107bc57806368841a46146107dc57600080fd5b806357b53ae5116102d257806357b53ae51461070c5780635d03e487146107225780635e613423146107425780635fe8e7cc1461075857600080fd5b8063419a7c5d146106915780634259d8a2146106b35780634a8bcf14146106c95780634bd38e26146106df57600080fd5b80632084154411610386578063313ce56711610355578063313ce567146105ec578063355274ea14610608578063368e600f1461063b5780633950935114610651578063402c51331461067157600080fd5b8063208415441461057557806323b872dd1461058a5780632a11ced0146105aa5780632c1e816d146105ca57600080fd5b80630dff55ed116103c25780630dff55ed146104c7578063139fd1c2146104fb57806318160ddd146105285780631b06cfbc1461053d57600080fd5b806306fdde03146103f457806307d334551461041f578063080b064814610443578063095ea7b314610497575b600080fd5b34801561040057600080fd5b50610409610d43565b604051610416919061315a565b60405180910390f35b34801561042b57600080fd5b50610435600a5481565b604051908152602001610416565b34801561044f57600080fd5b5061048261045e3660046131c4565b60236020908152600092835260408084209091529082529020805460019091015482565b60408051928352602083019190915201610416565b3480156104a357600080fd5b506104b76104b23660046131f0565b610dd5565b6040519015158152602001610416565b3480156104d357600080fd5b506104826104e236600461321a565b6024602052600090815260409020805460019091015482565b34801561050757600080fd5b5061043561051636600461321a565b60256020526000908152604090205481565b34801561053457600080fd5b50600254610435565b34801561054957600080fd5b5061055d61055836600461321a565b610def565b6040516001600160a01b039091168152602001610416565b34801561058157600080fd5b50610435610e0f565b34801561059657600080fd5b506104b76105a5366004613233565b610e55565b3480156105b657600080fd5b5061055d6105c536600461321a565b610e79565b3480156105d657600080fd5b506105ea6105e536600461326f565b610ea3565b005b3480156105f857600080fd5b5060405160128152602001610416565b34801561061457600080fd5b507f0000000000000000000000000000000000000000000000000000000000000000610435565b34801561064757600080fd5b5061043560205481565b34801561065d57600080fd5b506104b761066c3660046131f0565b610edc565b34801561067d57600080fd5b506105ea61068c36600461328a565b610efe565b34801561069d57600080fd5b506106a661104b565b60405161041691906132ff565b3480156106bf57600080fd5b506213c680610435565b3480156106d557600080fd5b5061043560085481565b3480156106eb57600080fd5b506104356106fa36600461326f565b60126020526000908152604090205481565b34801561071857600080fd5b50610435601d5481565b34801561072e57600080fd5b506105ea61073d36600461326f565b611090565b34801561074e57600080fd5b50610435600c5481565b34801561076457600080fd5b5061076d61123a565b6040516104169190613339565b34801561078657600080fd5b506105ea61129a565b34801561079b57600080fd5b506104356107aa36600461326f565b60076020526000908152604090205481565b3480156107c857600080fd5b506104356107d736600461326f565b611302565b3480156107e857600080fd5b50610435600e5481565b3480156107fe57600080fd5b506104b761080d36600461326f565b601a6020526000908152604090205460ff1681565b34801561082e57600080fd5b5061043561083d36600461326f565b60266020526000908152604090205481565b34801561085b57600080fd5b506105ea611366565b34801561087057600080fd5b5061043561087f36600461326f565b6001600160a01b031660009081526020819052604090205490565b3480156108a657600080fd5b506108ba6108b536600461326f565b61138b565b60408051825181526020928301519281019290925201610416565b3480156108e157600080fd5b506104356113ec565b6105ea6108f83660046133d2565b611409565b34801561090957600080fd5b5061048261091836600461326f565b600f602052600090815260409020805460019091015482565b34801561093d57600080fd5b506105ea61094c366004613425565b61166f565b34801561095d57600080fd5b5061043560145481565b34801561097357600080fd5b50610435600d5481565b34801561098957600080fd5b506104096117ac565b34801561099e57600080fd5b50601c5461055d906001600160a01b031681565b3480156109be57600080fd5b50610435600b5481565b3480156109d457600080fd5b506105ea6109e3366004613425565b6117bb565b3480156109f457600080fd5b506105ea610a0336600461321a565b611a4f565b348015610a1457600080fd5b5061043560215481565b348015610a2a57600080fd5b506104b7610a393660046131f0565b611b62565b348015610a4a57600080fd5b506104b7610a593660046131f0565b611bdd565b348015610a6a57600080fd5b5061043560225481565b348015610a8057600080fd5b506105ea610a8f366004613425565b611beb565b348015610aa057600080fd5b50610435611e7b565b348015610ab557600080fd5b50610435601f5481565b348015610acb57600080fd5b506105ea610ada366004613425565b611e8a565b348015610aeb57600080fd5b506105ea610afa366004613467565b61229a565b348015610b0b57600080fd5b5061043560095481565b348015610b2157600080fd5b50610b2a6124a2565b60405161041691906134ca565b348015610b4357600080fd5b506105ea612517565b348015610b5857600080fd5b50610435610b67366004613522565b612522565b348015610b7857600080fd5b5061043560135481565b348015610b8e57600080fd5b50610bd1610b9d36600461326f565b601060205260009081526040902080546001820154600283015460039093015491926001600160a01b039091169160ff1684565b604080519485526001600160a01b0390931660208501529183015215156060820152608001610416565b348015610c0757600080fd5b50610435601e5481565b348015610c1d57600080fd5b506105ea61254d565b348015610c3257600080fd5b50610c72610c4136600461321a565b60066020526000908152604090208054600182015460028301546003909301546001600160a01b0390921692909184565b604080516001600160a01b0390951685526020850193909352918301526060820152608001610416565b348015610ca857600080fd5b506105ea610cb736600461326f565b612612565b348015610cc857600080fd5b506105ea61277a565b348015610cdd57600080fd5b50601b5461055d906001600160a01b031681565b348015610cfd57600080fd5b50610d11610d0c36600461321a565b612783565b604080519283526001600160a01b03909116602083015201610416565b348015610d3a57600080fd5b50601d54610435565b606060038054610d529061354c565b80601f0160208091040260200160405190810160405280929190818152602001828054610d7e9061354c565b8015610dcb5780601f10610da057610100808354040283529160200191610dcb565b820191906000526020600020905b815481529060010190602001808311610dae57829003601f168201915b5050505050905090565b600033610de38185856127ba565b60019150505b92915050565b60158160038110610dff57600080fd5b01546001600160a01b0316905081565b60008060246000610e1e611e7b565b8152602001908152602001600020905080600001548160010154602254610e45919061359c565b610e4f91906135af565b91505090565b600033610e638582856128de565b610e6e858585612952565b506001949350505050565b60198181548110610e8957600080fd5b6000918252602090912001546001600160a01b0316905081565b601c546001600160a01b03163314610eba57600080fd5b601b80546001600160a01b0319166001600160a01b0392909216919091179055565b600033610de3818585610eef8383612522565b610ef9919061359c565b6127ba565b601b546001600160a01b0316331480610f215750601c546001600160a01b031633145b610f2a57600080fd5b610f32612b01565b60005b8181101561103c5736838383818110610f5057610f506135c2565b604090810292909201803560009081526006602052929092208054929350916001600160a01b0316159050610fb25760405162461bcd60e51b815260206004820152600360248201526206361360ec1b60448201526064015b60405180910390fd5b813560076000610fc8604086016020870161326f565b6001600160a01b03166001600160a01b0316815260200190815260200160002081905550816020016020810190610fff919061326f565b81546001600160a01b0319166001600160a01b0391909116178155674563918244f400006001909101555080611034816135d8565b915050610f35565b506110476001600555565b5050565b61105361313c565b6040805160608101918290529060159060039082845b81546001600160a01b03168152600190910190602001808311611069575050505050905090565b6001600160a01b038116600090815260126020526040902054806110b357600080fd5b600060116110c26001846135af565b815481106110d2576110d26135c2565b9060005260206000209060020201905060026013546110f191906135f1565b8154116111285760405162461bcd60e51b8152602060048201526005602482015264070637720360dc1b6044820152606401610fa9565b6000601354116111625760405162461bcd60e51b8152602060048201526005602482015264706377203160d81b6044820152606401610fa9565b600061116c611e7b565b905080601454106111a75760405162461bcd60e51b81526020600482015260056024820152643831bb901960d91b6044820152606401610fa9565b601481905560168054601780546001600160a01b038084166001600160a01b031992831617909255601580548084169483168517909555931690871690811790925514801561120357506017546001600160a01b038581169116145b1561123457601b80546001600160a01b0386166001600160a01b03199182168117909255601c805490911690911790555b50505050565b60606019805480602002602001604051908101604052809291908181526020018280548015610dcb576020028201919060005260206000209081546001600160a01b03168152600190910190602001808311611069575050505050905090565b601b546001600160a01b03163314806112bd5750601c546001600160a01b031633145b6112c657600080fd5b601c546040516001600160a01b03909116904780156108fc02916000818181858888f193505050501580156112ff573d6000803e3d6000fd5b50565b60008060236000611311611e7b565b8152602080820192909252604090810160009081206001600160a01b038716825283528181208054600182015494839052929091205490935090916113559161359c565b61135f91906135af565b9392505050565b6000611370611e7b565b9050600e54810361138057600080fd5b600c54600b55600e55565b6040805180820190915260008082526020820152602360006113ab611e7b565b8152602080820192909252604090810160009081206001600160a01b0390951681529382529283902083518085019094528054845260010154908301525090565b60006213c6806113fa611e7b565b611404919061359c565b905090565b611411612b01565b601b546001600160a01b03163314806114345750601c546001600160a01b031633145b61143d57600080fd5b64174876e80083116114615760405162461bcd60e51b8152600401610fa990613613565b61146b8184613630565b34146114895760405162461bcd60e51b8152600401610fa990613613565b60005b81811015611664576000600660008585858181106114ac576114ac6135c2565b6020908102929092013583525081019190915260400160002080549091506001600160a01b03166115055760405162461bcd60e51b815260206004820152600360248201526263623160e81b6044820152606401610fa9565b8581600301541161153e5760405162461bcd60e51b815260206004820152600360248201526231b11960e91b6044820152606401610fa9565b600086826003015461155091906135af565b60006003840155601854835460405163a9059cbb60e01b81526001600160a01b03918216600482015260248101849052929350169063a9059cbb906044016020604051808303816000875af11580156115ad573d6000803e3d6000fd5b505050506040513d601f19601f820116820180604052508101906115d19190613647565b5086600960008282546115e4919061359c565b909155505081546040516001600160a01b039091169087156108fc029088906000818181858888f19350505050158015611622573d6000803e3d6000fd5b5060028201541561164f576002820180546000909155825461164d906001600160a01b031682612b5a565b505b5050808061165c906135d8565b91505061148c565b506112346001600555565b611677612b01565b60005b8181101561103c5760006006600085858581811061169a5761169a6135c2565b6020908102929092013583525081019190915260400160002080549091506001600160a01b03166116dd5760405162461bcd60e51b8152600401610fa990613613565b6002810154156117095760028101805460009091558154611707906001600160a01b031682612b5a565b505b600381015415611799576003810180546000909155601854825460405163a9059cbb60e01b81526001600160a01b0391821660048201526024810184905291169063a9059cbb906044016020604051808303816000875af1158015611772573d6000803e3d6000fd5b505050506040513d601f19601f820116820180604052508101906117969190613647565b50505b50806117a4816135d8565b91505061167a565b606060048054610d529061354c565b60006117c5611e7b565b905060005b82811015611234576000601060008686858181106117ea576117ea6135c2565b90506020020160208101906117ff919061326f565b6001600160a01b03166001600160a01b031681526020019081526020016000209050600081600201541161185d5760405162461bcd60e51b8152602060048201526005602482015264076617620360dc1b6044820152606401610fa9565b828160020154106118985760405162461bcd60e51b8152602060048201526005602482015264766176203160d81b6044820152606401610fa9565b600381015460ff16156118d55760405162461bcd60e51b81526020600482015260056024820152643b30bb101960d91b6044820152606401610fa9565b60038101805460ff191660011790558054601380546000906118f890849061359c565b909155505060018101546001600160a01b03166000908152601260205260409020548015611973576000601161192f6001846135af565b8154811061193f5761193f6135c2565b906000526020600020906002020190508260000154816000016000828254611967919061359c565b90915550611a03915050565b6011805460018181018355845460029092027f31ecc21a745e3968a04e9570e4425bc18fa8019c68028196b546d1669c200c68810192909255840180547f31ecc21a745e3968a04e9570e4425bc18fa8019c68028196b546d1669c200c6990920180546001600160a01b0319166001600160a01b0393841617905591549154166000908152601260205260409020555b7fe08472d1275fefbb15ff0aea278bb1f42c491be3fa4358160826ba7e420ae61382604051611a329190613669565b60405180910390a150508080611a47906135d8565b9150506117ca565b600081118015611a67575068056bc75e2d6310000081105b611a9c5760405162461bcd60e51b815260206004820152600660248201526507366727620360d41b6044820152606401610fa9565b336000908152600f60205260409020805415611abb57611abb33612b94565b3360009081526020819052604090205480611b015760405162461bcd60e51b815260206004820152600660248201526573667276203160d01b6044820152606401610fa9565b80600d54611b0f919061359c565b611b198483613630565b600d54600c54611b299190613630565b611b33919061359c565b611b3d91906135f1565b600c8190555080600d6000828254611b55919061359c565b9091555050815560010155565b60003381611b708286612522565b905083811015611bd05760405162461bcd60e51b815260206004820152602560248201527f45524332303a2064656372656173656420616c6c6f77616e63652062656c6f77604482015264207a65726f60d81b6064820152608401610fa9565b610e6e82868684036127ba565b600033610de3818585612952565b611bf3612b01565b6000611bfd611e7b565b60008181526025602052604081205491925090611c1960025490565b611c2391906135af565b90506000611c2f610e0f565b905060008211611c695760405162461bcd60e51b8152602060048201526005602482015264063667073360dc1b6044820152606401610fa9565b60008111611ca15760405162461bcd60e51b8152602060048201526005602482015264636670733160d81b6044820152606401610fa9565b60005b84811015611e6d576000868683818110611cc057611cc06135c2565b9050602002016020810190611cd5919061326f565b6001600160a01b0381166000908152602660205260409020549091508511611d275760405162461bcd60e51b815260206004820152600560248201526431b338399960d91b6044820152606401610fa9565b6000611d3282611302565b905060008111611d6c5760405162461bcd60e51b8152602060048201526005602482015264636670733360d81b6044820152606401610fa9565b600085611d798684613630565b611d8391906135f1565b6001600160a01b0384166000908152602660205260408120899055909150611dac908290612c8e565b60185460405163a9059cbb60e01b81526001600160a01b038581166004830152602482018490529091169063a9059cbb906044016020604051808303816000875af1158015611dff573d6000803e3d6000fd5b505050506040513d601f19601f82011682018060405250810190611e239190613647565b611e575760405162461bcd60e51b815260206004820152600560248201526418d99c1ccd60da1b6044820152606401610fa9565b5050508080611e65906135d8565b915050611ca4565b505050506110476001600555565b60006114046213c680426135f1565b601b546001600160a01b0316331480611ead5750601c546001600160a01b031633145b611eb657600080fd5b611ebe612b01565b7f000000000000000000000000000000000000000000000000000000000000000060005b8281101561228e57600060066000868685818110611f0257611f026135c2565b9050602002810190611f1491906136a2565b60000135815260200190815260200160002090506000816004016000878786818110611f4257611f426135c2565b9050602002810190611f5491906136a2565b602001358152602001908152602001600020905060008060008360000154905042846001015411611fb05760405162461bcd60e51b8152600401610fa990602080825260049082015263616d633160e01b604082015260600190565b60005b898988818110611fc557611fc56135c2565b9050602002810190611fd791906136a2565b611fe59060408101906136c2565b905081101561224957368a8a89818110612001576120016135c2565b905060200281019061201391906136a2565b6120219060408101906136c2565b83818110612031576120316135c2565b905060400201905060008160000135116120765760405162461bcd60e51b8152600401610fa99060208082526004908201526330b6b19960e11b604082015260600190565b8035600090815260066020908152604090912090820135808510156120c65760405162461bcd60e51b8152600401610fa990602080825260049082015263185b58cd60e21b604082015260600190565b6120d081866135af565b9450600068056bc75e2d63100000600b54836120ec9190613630565b6120f691906135f1565b9050600061210482846135af565b90506000601d548e61211691906135af565b905060008184116121275783612129565b815b9050600068056bc75e2d6310000061214283600a613630565b61215490670de0b6b3a7640000613630565b61215e91906135f1565b9050600068056bc75e2d6310000061217784600f613630565b61218990670de0b6b3a7640000613630565b61219391906135f1565b90506000816121a284866135af565b6121ac91906135af565b905080600860008282546121c0919061359c565b909155506121d09050838f61359c565b9d50818960020160008282546121e6919061359c565b9250508190555085896003016000828254612201919061359c565b9250508190555083601d600082825461221a919061359c565b9091555061222a9050878e61359c565b9c50505050505050505050508080612241906135d8565b915050611fb3565b50612255826001612c8e565b80845560028501805484919060009061226f90849061359c565b9250508190555050505050508080612286906135d8565b915050611ee2565b50506110476001600555565b6122a2612b01565b33600090815260076020908152604080832054808452600690925290912080546001600160a01b03166123005760405162461bcd60e51b8152600401610fa99060208082526004908201526306d6320360e41b604082015260600190565b60005b8381101561249557600085858381811061231f5761231f6135c2565b905060600201803603810190612335919061370c565b805190915061236f5760405162461bcd60e51b8152600401610fa9906020808252600490820152636d63203160e01b604082015260600190565b60185481516040516323b872dd60e01b815233600482015230602482015260448101919091526001600160a01b03909116906323b872dd906064016020604051808303816000875af11580156123c9573d6000803e3d6000fd5b505050506040513d601f19601f820116820180604052508101906123ed9190613647565b6124225760405162461bcd60e51b8152600401610fa99060208082526004908201526336b1901960e11b604082015260600190565b6040818101805160009081526004860160209081529083902084518155818501516001820155915183518881529182015290917fdf1ccadd90c8987aa73568b11e0c57744db13dccf98de0a82f2b9bc6edb3d104910160405180910390a15050808061248d906135d8565b915050612303565b5050506110476001600555565b60606011805480602002602001604051908101604052809291908181526020016000905b8282101561250e5760008481526020908190206040805180820190915260028502909101805482526001908101546001600160a01b03168284015290835290920191016124c6565b50505050905090565b61252033612b94565b565b6001600160a01b03918216600090815260016020908152604080832093909416825291909152205490565b612555612b01565b6008541561257c57601c54600854612576916001600160a01b031690612b5a565b60006008555b6009541561260857601854601c5460095460405163a9059cbb60e01b81526001600160a01b039283166004820152602481019190915291169063a9059cbb906044016020604051808303816000875af11580156125dd573d6000803e3d6000fd5b505050506040513d601f19601f820116820180604052508101906126019190613647565b5060006009555b6125206001600555565b6001600160a01b0381166126505760405162461bcd60e51b8152602060048201526005602482015264073617620360dc1b6044820152606401610fa9565b33600090815260208190526040902054806126955760405162461bcd60e51b8152602060048201526005602482015264736176203160d81b6044820152606401610fa9565b3360009081526010602052604090208054156126b4576126b433612d20565b6040518060800160405280838152602001846001600160a01b031681526020016126dc611e7b565b8152600060209182018190523381526010825260409081902083518155918301516001830180546001600160a01b0319166001600160a01b0390921691909117905582810151600283015560609092015160038201805460ff191691151591909117905590517fe08472d1275fefbb15ff0aea278bb1f42c491be3fa4358160826ba7e420ae6139161276d91613669565b60405180910390a1505050565b61252033612d20565b6011818154811061279357600080fd5b6000918252602090912060029091020180546001909101549091506001600160a01b031682565b6001600160a01b03831661281c5760405162461bcd60e51b8152602060048201526024808201527f45524332303a20617070726f76652066726f6d20746865207a65726f206164646044820152637265737360e01b6064820152608401610fa9565b6001600160a01b03821661287d5760405162461bcd60e51b815260206004820152602260248201527f45524332303a20617070726f766520746f20746865207a65726f206164647265604482015261737360f01b6064820152608401610fa9565b6001600160a01b0383811660008181526001602090815260408083209487168084529482529182902085905590518481527f8c5be1e5ebec7d5bd14f71427d1e84f3dd0314c0f7b2291e5b200ac8c7c3b925910160405180910390a3505050565b60006128ea8484612522565b9050600019811461123457818110156129455760405162461bcd60e51b815260206004820152601d60248201527f45524332303a20696e73756666696369656e7420616c6c6f77616e63650000006044820152606401610fa9565b61123484848484036127ba565b6001600160a01b0383166129b65760405162461bcd60e51b815260206004820152602560248201527f45524332303a207472616e736665722066726f6d20746865207a65726f206164604482015264647265737360d81b6064820152608401610fa9565b6001600160a01b038216612a185760405162461bcd60e51b815260206004820152602360248201527f45524332303a207472616e7366657220746f20746865207a65726f206164647260448201526265737360e81b6064820152608401610fa9565b612a23838383612e44565b6001600160a01b03831660009081526020819052604090205481811015612a9b5760405162461bcd60e51b815260206004820152602660248201527f45524332303a207472616e7366657220616d6f756e7420657863656564732062604482015265616c616e636560d01b6064820152608401610fa9565b6001600160a01b03848116600081815260208181526040808320878703905593871680835291849020805487019055925185815290927fddf252ad1be2c89b69c2b068fc378daa952ba7f163c4a11628f55a4df523b3ef910160405180910390a3611234565b600260055403612b535760405162461bcd60e51b815260206004820152601f60248201527f5265656e7472616e637947756172643a207265656e7472616e742063616c6c006044820152606401610fa9565b6002600555565b8060256000612b67611e7b565b81526020019081526020016000206000828254612b84919061359c565b9091555061104790508282612f5f565b6001600160a01b0381166000908152600f602052604090208054612be35760405162461bcd60e51b815260206004820152600660248201526507266727620360d41b6044820152606401610fa9565b8054600d54600091612bf4916135af565b90506000600d54600c54612c089190613630565b9050600083600101548460000154612c209190613630565b90506000818311612c32576000612c3c565b612c3c82846135af565b90508315612c5b57612c4e84826135f1565b600c55600d849055612c67565b600a54600c556000600d555b5050506001600160a01b039092166000908152600f60205260408120818155600101555050565b600060246000612c9c611e7b565b815260200190815260200160002090508115612ce8578260226000828254612cc4919061359c565b9091555050805483908290600090612cdd90849061359c565b90915550612d1b9050565b8260226000828254612cfa91906135af565b9250508190555082816001016000828254612d15919061359c565b90915550505b505050565b6001600160a01b03811660009081526010602052604090208054612d6f5760405162461bcd60e51b815260206004820152600660248201526507261766820360d41b6044820152606401610fa9565b600381015460ff1615612e0257805460138054600090612d909084906135af565b909155505060018101546001600160a01b031660009081526012602052604090205480612dbc57600080fd5b81546011612dcb6001846135af565b81548110612ddb57612ddb6135c2565b90600052602060002090600202016000016000828254612dfb91906135af565b9091555050505b506001600160a01b031660009081526010602052604081208181556001810180546001600160a01b03191690556002810191909155600301805460ff19169055565b6001600160a01b03831615612ead57612e5f83826000612fec565b6001600160a01b0383166000908152600f602052604090205415612e8657612e8683612b94565b6001600160a01b03831660009081526010602052604090205415612ead57612ead83612d20565b6001600160a01b03821615612d1b57612ec882826001612fec565b6001600160a01b0382166000908152601a602052604090205460ff16158015612ef15750600081115b15612d1b576019805460018181019092557f944998273e477b495144fb8794c914197f3ccb46be2900f4698fd0ef743c96950180546001600160a01b0385166001600160a01b031990911681179091556000908152601a60205260409020805460ff19169091179055505050565b7f000000000000000000000000000000000000000000000000000000000000000081612f8a60025490565b612f94919061359c565b1115612fe25760405162461bcd60e51b815260206004820152601960248201527f45524332304361707065643a20636170206578636565646564000000000000006044820152606401610fa9565b6110478282613071565b600060236000612ffa611e7b565b81526020019081526020016000206000856001600160a01b03166001600160a01b03168152602001908152602001600020905081156130525782816000016000828254613047919061359c565b909155506112349050565b82816001016000828254613066919061359c565b909155505050505050565b6001600160a01b0382166130c75760405162461bcd60e51b815260206004820152601f60248201527f45524332303a206d696e7420746f20746865207a65726f2061646472657373006044820152606401610fa9565b6130d360008383612e44565b80600260008282546130e5919061359c565b90915550506001600160a01b038216600081815260208181526040808320805486019055518481527fddf252ad1be2c89b69c2b068fc378daa952ba7f163c4a11628f55a4df523b3ef910160405180910390a35050565b60405180606001604052806003906020820280368337509192915050565b600060208083528351808285015260005b818110156131875785810183015185820160400152820161316b565b506000604082860101526040601f19601f8301168501019250505092915050565b80356001600160a01b03811681146131bf57600080fd5b919050565b600080604083850312156131d757600080fd5b823591506131e7602084016131a8565b90509250929050565b6000806040838503121561320357600080fd5b61320c836131a8565b946020939093013593505050565b60006020828403121561322c57600080fd5b5035919050565b60008060006060848603121561324857600080fd5b613251846131a8565b925061325f602085016131a8565b9150604084013590509250925092565b60006020828403121561328157600080fd5b61135f826131a8565b6000806020838503121561329d57600080fd5b823567ffffffffffffffff808211156132b557600080fd5b818501915085601f8301126132c957600080fd5b8135818111156132d857600080fd5b8660208260061b85010111156132ed57600080fd5b60209290920196919550909350505050565b60608101818360005b60038110156133305781516001600160a01b0316835260209283019290910190600101613308565b50505092915050565b6020808252825182820181905260009190848201906040850190845b8181101561337a5783516001600160a01b031683529284019291840191600101613355565b50909695505050505050565b60008083601f84011261339857600080fd5b50813567ffffffffffffffff8111156133b057600080fd5b6020830191508360208260051b85010111156133cb57600080fd5b9250929050565b600080600080606085870312156133e857600080fd5b8435935060208501359250604085013567ffffffffffffffff81111561340d57600080fd5b61341987828801613386565b95989497509550505050565b6000806020838503121561343857600080fd5b823567ffffffffffffffff81111561344f57600080fd5b61345b85828601613386565b90969095509350505050565b6000806020838503121561347a57600080fd5b823567ffffffffffffffff8082111561349257600080fd5b818501915085601f8301126134a657600080fd5b8135818111156134b557600080fd5b8660206060830285010111156132ed57600080fd5b602080825282518282018190526000919060409081850190868401855b82811015613515578151805185528601516001600160a01b03168685015292840192908501906001016134e7565b5091979650505050505050565b6000806040838503121561353557600080fd5b61353e836131a8565b91506131e7602084016131a8565b600181811c9082168061356057607f821691505b60208210810361358057634e487b7160e01b600052602260045260246000fd5b50919050565b634e487b7160e01b600052601160045260246000fd5b80820180821115610de957610de9613586565b81810381811115610de957610de9613586565b634e487b7160e01b600052603260045260246000fd5b6000600182016135ea576135ea613586565b5060010190565b60008261360e57634e487b7160e01b600052601260045260246000fd5b500490565b60208082526003908201526206362360ec1b604082015260600190565b8082028115828204841417610de957610de9613586565b60006020828403121561365957600080fd5b8151801515811461135f57600080fd5b8154815260018201546001600160a01b0316602082015260028201546040820152600382015460ff161515606082015260808101610de9565b60008235605e198336030181126136b857600080fd5b9190910192915050565b6000808335601e198436030181126136d957600080fd5b83018035915067ffffffffffffffff8211156136f457600080fd5b6020019150600681901b36038213156133cb57600080fd5b60006060828403121561371e57600080fd5b6040516060810181811067ffffffffffffffff8211171561374f57634e487b7160e01b600052604160045260246000fd5b8060405250823581526020830135602082015260408301356040820152809150509291505056fea2646970667358221220b939d1d10f768ff7ac902335f1d7f07f3dcfff3772cf60b346271a75b3aef3f164736f6c63430008130033",
  "immutableReferences": {
    "737": [
      {
        "length": 32,
        "start": 1559
      },
      {
        "length": 32,
        "start": 7872
      },
      {
        "length": 32,
        "start": 12129
      }
    ]
  },
  "source": "// SPDX-License-Identifier: MIT\npragma solidity 0.8.19;\nimport \"@openzeppelin/contracts/token/ERC20/extensions/ERC20Capped.sol\";\nimport \"@openzeppelin/contracts/security/ReentrancyGuard.sol\";\n\ncontract AsamiCore is ERC20Capped, ReentrancyGuard {\n    struct Account {\n      address addr;\n      uint256 approvedGaslessAmount;\n      uint256 unclaimedAsamiBalance;\n      uint256 unclaimedDocBalance;\n      mapping( uint256 => Campaign ) campaigns;\n    }\n    mapping(uint256 => Account) public accounts;\n    mapping(address => uint256) public accountIdByAddress;\n\n    struct Campaign {\n        uint256 budget;\n        uint256 validUntil;\n        uint256 reportHash;\n        mapping( uint256 => bool ) collabMemberIds;\n    }\n\n    uint256 public adminUnclaimedAsamiBalance = 0;\n    uint256 public adminUnclaimedDocBalance = 0;\n\n    uint256 public defaultFeeRate = 10 * 1e18;\n    uint256 public feeRate = defaultFeeRate;\n    uint256 public votedFeeRate = defaultFeeRate;\n    uint256 public votedFeeRateVoteCount = 0;\n    /* To make the protocol more predictable, changes are applied only once every period */\n    uint256 public lastVotedFeeRateAppliedOn = 0;\n\n    struct FeeRateVote {\n        uint256 votes;\n        uint256 rate;\n    }\n    mapping(address => FeeRateVote) public feeRateVotes;\n\n    struct AdminVote {\n        uint256 votes;\n        address candidate;\n        uint256 cycle;\n        bool vested;\n    }\n    /* Maps holders to their vote */\n    mapping(address => AdminVote) public submittedAdminVotes;\n\n    struct AdminVoteCount {\n        uint256 votes;\n        address candidate;\n    }\n\n    /*\n    We're only storing all historic vote counts to have a view function that helps find out\n    which candidate to proclaim without relying on events.\n    */\n    AdminVoteCount[] public adminVoteCounts;\n    mapping(address => uint256) public adminVoteCountIdByCandidate;\n\n    function allAdminVoteCounts()\n        public\n        view\n        returns (AdminVoteCount[] memory)\n    {\n        return adminVoteCounts;\n    }\n\n    uint256 public vestedAdminVotesTotal;\n    uint256 public lastAdminElection;\n    address[3] public latestAdminElections;\n\n    function getLatestAdminElections() public view returns (address[3] memory) {\n        return latestAdminElections;\n    }\n\n    IERC20 internal doc;\n    address[] public holders;\n    mapping(address => bool) public trackedHolders;\n\n    address public admin; // An address that may be stored on a server.\n    address public adminTreasury; // A cold storage address for admin money.\n\n    uint256 public assignedAsamiTokens;\n\n    event AdminVoteSaved(AdminVote vote);\n    event AccountUpdated(uint256 accountId);\n    event CampaignCreated(uint256 accountId, uint256 briefing);\n    event CampaignSaved(uint256 campaignId);\n    event CampaignReimbursed(uint256 campaignId);\n    event CollabSaved(uint256 advertiserId, uint256 briefing, uint256 accountId, uint256 gross, uint256 fee);\n\n    modifier onlyAdmin() {\n        require(msg.sender == admin || msg.sender == adminTreasury);\n        _;\n    }\n\n    constructor(\n        address _dollarOnChainAddress,\n        address _adminAddress\n    ) ERC20(\"Asami Core\", \"ASAMI\") ERC20Capped(21 * 1e24) {\n        doc = IERC20(_dollarOnChainAddress);\n        adminTreasury = msg.sender;\n        admin = _adminAddress;\n        // TODO: Create accounts, populate asami tokens and pending balances from previous contract.\n    }\n\n    function _beforeTokenTransfer(\n        address from,\n        address to,\n        uint256 amount\n    ) internal override {\n        super._beforeTokenTransfer(from, to, amount);\n\n        if (from != address(0)) {\n          _registerRecentBalanceChange(from, amount, false);\n\n          if (feeRateVotes[from].votes > 0) {\n              removeFeeRateVoteHelper(from);\n          }\n          if (submittedAdminVotes[from].votes > 0) {\n              removeAdminVoteHelper(from);\n          }\n        }\n\n        if (to != address(0)) {\n          _registerRecentBalanceChange(to, amount, true);\n\n          if (!trackedHolders[to] && amount > 0) {\n              holders.push(to);\n              trackedHolders[to] = true;\n          }\n        }\n    }\n\n    function getHolders() public view returns (address[] memory) {\n        return holders;\n    }\n\n    function getClaimedAsamiTokens() public view returns (uint256) {\n        return assignedAsamiTokens;\n    }\n\n    struct ClaimAccountsParam {\n        uint256 accountId;\n        address addr;\n    }\n\n    function claimAccounts(\n        ClaimAccountsParam[] calldata _input\n    ) external onlyAdmin nonReentrant {\n        for (uint256 i = 0; i < _input.length; i++) {\n            ClaimAccountsParam calldata claim = _input[i];\n\n            Account storage account = accounts[claim.accountId];\n            require(account.addr == address(0), \"ca0\");\n\n            accountIdByAddress[claim.addr] = claim.accountId;\n            account.addr = claim.addr;\n            account.approvedGaslessAmount = 5e18; \n        }\n    }\n\n    function claimBalances(uint256[] calldata _accountIds) external nonReentrant {\n      for (uint256 i = 0; i < _accountIds.length; i++){\n        Account storage account = accounts[_accountIds[i]];\n        require(account.addr != address(0), \"cb0\");\n\n        if (account.unclaimedAsamiBalance > 0) {\n          uint256 balance = account.unclaimedAsamiBalance;\n          account.unclaimedAsamiBalance = 0;\n          _safeMint(account.addr, balance);\n        }\n\n        if (account.unclaimedDocBalance > 0) {\n          uint256 balance = account.unclaimedDocBalance;\n          account.unclaimedDocBalance = 0;\n          doc.transfer(account.addr, balance);\n        }\n      }\n    }\n\n    function gaslessClaimBalances(\n      uint256 _fee,\n      uint256 _rbtcAmount,\n      uint256[] calldata _accountIds\n    ) external payable nonReentrant onlyAdmin {\n      require(_rbtcAmount > 1e11, \"cb0\");\n      require(msg.value == (_rbtcAmount * _accountIds.length), \"cb0\");\n\n      for (uint256 i = 0; i < _accountIds.length; i++){\n        Account storage account = accounts[_accountIds[i]];\n        require(account.addr != address(0), \"cb1\");\n        require(account.unclaimedDocBalance > _fee, \"cb2\");\n\n        uint256 docs = account.unclaimedDocBalance - _fee;\n        account.unclaimedDocBalance = 0;\n        doc.transfer(account.addr, docs);\n        adminUnclaimedDocBalance += _fee;\n        payable(account.addr).transfer(_rbtcAmount);\n\n        if (account.unclaimedAsamiBalance > 0) {\n          uint256 balance = account.unclaimedAsamiBalance;\n          account.unclaimedAsamiBalance = 0;\n          _safeMint(account.addr, balance);\n        }\n      }\n    }\n\n    function claimAdminUnclaimedBalances() external nonReentrant {\n      if (adminUnclaimedAsamiBalance > 0) {\n        _safeMint(adminTreasury, adminUnclaimedAsamiBalance);\n        adminUnclaimedAsamiBalance = 0;\n      }\n\n      if (adminUnclaimedDocBalance > 0) {\n        doc.transfer(adminTreasury, adminUnclaimedDocBalance);\n        adminUnclaimedDocBalance = 0;\n      }\n    }\n\n    function withdrawAccidentallySentRbtc() external onlyAdmin {\n      payable(adminTreasury).transfer(address(this).balance);\n    }\n\n    struct MakeCampaignsParam {\n        uint256 budget;\n        uint256 validUntil;\n        uint256 briefing;\n    }\n\n    function makeCampaigns(\n        MakeCampaignsParam[] calldata _inputs\n    ) public nonReentrant {\n        uint256 accountId = accountIdByAddress[msg.sender];\n        Account storage account = accounts[accountId];\n        require(account.addr != address(0), \"mc 0\");\n\n        for (uint i = 0; i < _inputs.length; i++) {\n            MakeCampaignsParam memory input = _inputs[i];\n            require(input.budget > 0, \"mc 1\");\n            require(doc.transferFrom(msg.sender, address(this), input.budget), \"mc 2\");\n            Campaign storage c = account.campaigns[input.briefing];\n            c.budget = input.budget;\n            c.validUntil = input.validUntil;\n\n            emit CampaignCreated(accountId, input.briefing);\n        }\n    }\n\n    struct MakeCollabsParam {\n        uint256 advertiserId;\n        uint256 briefing;\n        MakeCollabsParamItem[] collabs;\n    }\n\n    struct MakeCollabsParamItem {\n        uint256 accountId;\n        uint256 docReward;\n    }\n\n    function adminMakeCollabs(\n        MakeCollabsParam[] calldata _input\n    ) external onlyAdmin nonReentrant {\n        uint256 asamiTokenCap = cap();\n\n        for (uint256 i = 0; i < _input.length; i++) {\n          Account storage advertiser = accounts[_input[i].advertiserId];\n          Campaign storage campaign = advertiser.campaigns[_input[i].briefing];\n          uint256 newAdvertiserTokens = 0;\n          uint256 newFees = 0;\n          uint256 budget = campaign.budget;\n          require(campaign.validUntil > block.timestamp, \"amc1\");\n\n          for (uint256 j = 0; j < _input[i].collabs.length; j++) {\n            MakeCollabsParamItem calldata item = _input[i].collabs[j];\n            require(item.accountId > 0, \"amc2\");\n\n            Account storage member = accounts[item.accountId];\n\n            uint256 gross = item.docReward;\n            require(budget >= gross, \"amc4\");\n            budget -= gross;\n\n            uint256 fee = (gross * feeRate) / 1e20;\n            uint256 reward = gross - fee;\n\n            uint256 remainingToCap = asamiTokenCap - assignedAsamiTokens;\n            uint256 newTokens = (fee > remainingToCap) ? remainingToCap : fee;\n            uint256 advertiserTokens = (newTokens * 10 * 1e18) / 100e18;\n            uint256 memberTokens = (newTokens * 15 * 1e18) / 100e18;\n            uint256 adminTokens = newTokens - advertiserTokens - memberTokens;\n\n            adminUnclaimedAsamiBalance += adminTokens;\n            newAdvertiserTokens += advertiserTokens;\n            member.unclaimedAsamiBalance += memberTokens;\n            member.unclaimedDocBalance += reward;\n            assignedAsamiTokens += newTokens;\n            newFees += fee;\n          }\n          changeFeePool(newFees, true);\n          campaign.budget = budget;\n          advertiser.unclaimedAsamiBalance += newAdvertiserTokens;\n      }\n    }\n\n    function _safeMint(address _addr, uint256 _amount) private {\n        recentTokens[getCurrentCycle()] += _amount;\n        _mint(_addr, _amount);\n    }\n\n    function getCycleLength() public pure returns (uint256) {\n        return 60 * 60 * 24 * 15;\n    }\n\n    function getCurrentCycle() public view returns (uint256) {\n        return block.timestamp / getCycleLength();\n    }\n\n    function getNextCycle() public view returns (uint256) {\n        return getCurrentCycle() + getCycleLength();\n    }\n\n    /* Accounts with unclaimed DOC rewards always have an option to have their funds sent by the admin paying for the transaction fees. */\n    uint256 public adminUnclaimedDoc;\n    uint256 public adminUnclaimedTokens;\n    uint256 public adminGaslessClaimRewardPrice;\n    uint256 public adminGaslessClaimAccountPrice;\n\n    uint256 public feePool;\n\n    struct BalanceChange {\n      uint256 added;\n      uint256 substracted;\n    }\n    mapping (uint256 => mapping(address => BalanceChange)) public recentBalanceChanges;\n    mapping (uint256 => BalanceChange) public recentFeePoolChanges;\n    mapping (uint256 => uint256) public recentTokens;\n    mapping(address => uint256) public lastFeePoolShareCycles;\n\n    function getRecentBalanceChange(address _holder) public view returns (BalanceChange memory) {\n      return recentBalanceChanges[getCurrentCycle()][_holder];\n    }\n\n    function getBalanceBeforeRecentChanges(address _holder) public view returns (uint256) {\n      BalanceChange storage recent = recentBalanceChanges[getCurrentCycle()][_holder];\n      return (balanceOf(_holder) + recent.substracted) - recent.added;\n    }\n\n    function _registerRecentBalanceChange(address _holder, uint256 _amount, bool _added) private {\n      BalanceChange storage recent = recentBalanceChanges[getCurrentCycle()][_holder];\n      if(_added){\n        recent.added += _amount;\n      } else {\n        recent.substracted += _amount;\n      }\n    }\n\n    function changeFeePool(uint256 _amount, bool _added) private {\n      BalanceChange storage recent = recentFeePoolChanges[getCurrentCycle()];\n      if(_added){\n        feePool += _amount;\n        recent.added += _amount;\n      } else {\n        feePool -= _amount;\n        recent.substracted += _amount;\n      }\n    }\n\n    function getFeePoolBeforeRecentChanges() public view returns (uint256) {\n      BalanceChange storage recent = recentFeePoolChanges[getCurrentCycle()];\n      return (feePool + recent.substracted) - recent.added;\n    }\n\n    /* Claiming the fee poll share */ \n    function claimFeePoolShare(address[] calldata _holders) external nonReentrant {\n        uint256 current = getCurrentCycle();\n        uint256 supply = totalSupply() - recentTokens[current];\n        uint256 pool = getFeePoolBeforeRecentChanges();\n        require(supply > 0, \"cfps0\");\n        require(pool > 0, \"cfps1\");\n\n        for (uint256 i = 0; i < _holders.length; i++) {\n          address holder = _holders[i];\n\n          require(lastFeePoolShareCycles[holder] < current, \"cfps2\");\n\n          uint256 balance = getBalanceBeforeRecentChanges(holder);\n          require(balance > 0, \"cfps3\");\n          uint256 reward = (balance * pool) / supply;\n\n          lastFeePoolShareCycles[holder] = current;\n          changeFeePool(reward, false);\n\n          require(doc.transfer(holder, reward), \"cfps4\");\n        }\n    }\n\n    function applyVotedFeeRate() external {\n        uint256 currentCycle = getCurrentCycle();\n        require(currentCycle != lastVotedFeeRateAppliedOn);\n        feeRate = votedFeeRate;\n        lastVotedFeeRateAppliedOn = currentCycle;\n    }\n\n    function submitFeeRateVote(uint256 _rate) external {\n        require(_rate > 0 && _rate < 1e20, \"sfrv 0\");\n\n        FeeRateVote storage vote = feeRateVotes[msg.sender];\n        if (vote.votes > 0) {\n            removeFeeRateVoteHelper(msg.sender);\n        }\n\n        uint256 votes = balanceOf(msg.sender);\n        require(votes > 0, \"sfrv 1\");\n\n        votedFeeRate =\n            ((votedFeeRate * votedFeeRateVoteCount) + (votes * _rate)) /\n            (votedFeeRateVoteCount + votes);\n        votedFeeRateVoteCount += votes;\n        vote.votes = votes;\n        vote.rate = _rate;\n    }\n\n    function removeFeeRateVote() external {\n        removeFeeRateVoteHelper(msg.sender);\n    }\n\n    function removeFeeRateVoteHelper(address _holder) private {\n        FeeRateVote storage vote = feeRateVotes[_holder];\n        require(vote.votes > 0, \"rfrv 0\");\n        uint256 nextVoteCount = votedFeeRateVoteCount - vote.votes;\n        uint256 currentVolume = votedFeeRate * votedFeeRateVoteCount;\n        uint256 removedVolume = vote.votes * vote.rate;\n        uint256 nextVolume = currentVolume > removedVolume\n            ? currentVolume - removedVolume\n            : 0;\n\n        if (nextVoteCount > 0) {\n            votedFeeRate = nextVolume / nextVoteCount;\n            votedFeeRateVoteCount = nextVoteCount;\n        } else {\n            votedFeeRate = defaultFeeRate;\n            votedFeeRateVoteCount = 0;\n        }\n        delete feeRateVotes[_holder];\n    }\n\n    function submitAdminVote(address _candidate) external {\n        require(_candidate != address(0), \"sav 0\");\n        uint256 votes = balanceOf(msg.sender);\n        require(votes > 0, \"sav 1\");\n\n        AdminVote storage existing = submittedAdminVotes[msg.sender];\n        if (existing.votes > 0) {\n            removeAdminVoteHelper(msg.sender);\n        }\n\n        submittedAdminVotes[msg.sender] = AdminVote({\n            candidate: _candidate,\n            votes: votes,\n            cycle: getCurrentCycle(),\n            vested: false\n        });\n\n        emit AdminVoteSaved(submittedAdminVotes[msg.sender]);\n    }\n\n    function vestAdminVotes(address[] calldata _holders) external {\n        uint256 thisCycle = getCurrentCycle();\n\n        for (uint256 i = 0; i < _holders.length; i++) {\n            AdminVote storage vote = submittedAdminVotes[_holders[i]];\n            require(vote.cycle > 0, \"vav 0\");\n            require(vote.cycle < thisCycle, \"vav 1\");\n            require(!vote.vested, \"vav 2\");\n            vote.vested = true;\n            vestedAdminVotesTotal += vote.votes;\n\n            uint256 voteCountId = adminVoteCountIdByCandidate[vote.candidate];\n            if (voteCountId > 0) {\n                AdminVoteCount storage count = adminVoteCounts[voteCountId - 1];\n                count.votes += vote.votes;\n            } else {\n                AdminVoteCount storage count = adminVoteCounts.push();\n                count.votes = vote.votes;\n                count.candidate = vote.candidate;\n                adminVoteCountIdByCandidate[vote.candidate] = adminVoteCounts\n                    .length;\n            }\n            emit AdminVoteSaved(vote);\n        }\n    }\n\n    function proclaimCycleAdminWinner(address _candidate) external {\n        uint256 voteCountId = adminVoteCountIdByCandidate[_candidate];\n        require(voteCountId > 0);\n        AdminVoteCount storage count = adminVoteCounts[voteCountId - 1];\n\n        require(count.votes > vestedAdminVotesTotal / 2, \"pcw 0\");\n        require(vestedAdminVotesTotal > 0, \"pcw 1\");\n        uint256 thisCycle = getCurrentCycle();\n        require(lastAdminElection < thisCycle, \"pcw 2\");\n\n        lastAdminElection = thisCycle;\n        latestAdminElections[2] = latestAdminElections[1];\n        latestAdminElections[1] = latestAdminElections[0];\n        latestAdminElections[0] = _candidate;\n\n        if (\n            _candidate == latestAdminElections[1] &&\n            _candidate == latestAdminElections[2]\n        ) {\n            admin = _candidate;\n            adminTreasury = _candidate;\n        }\n    }\n\n    function removeAdminVote() external {\n        removeAdminVoteHelper(msg.sender);\n    }\n\n    function removeAdminVoteHelper(address _holder) private {\n        AdminVote storage vote = submittedAdminVotes[_holder];\n        require(vote.votes > 0, \"ravh 0\");\n        if (vote.vested) {\n            vestedAdminVotesTotal -= vote.votes;\n\n            uint256 voteCountId = adminVoteCountIdByCandidate[vote.candidate];\n            require(voteCountId > 0);\n            adminVoteCounts[voteCountId - 1].votes -= vote.votes;\n        }\n        delete submittedAdminVotes[_holder];\n    }\n\n    function setAdminAddress(address _admin) external {\n        require(msg.sender == adminTreasury);\n        admin = _admin;\n    }\n}\n",
  "sourcePath": "/home/nubis/asami/contract/contracts/AsamiCore.sol",
  "compiler": {
    "name": "solc",
    "version": "0.8.19+commit.7dd6d404.Emscripten.clang"
  },
  "schemaVersion": "3.4.15",
  "updatedAt": "2024-04-07T09:34:23.421Z",
  "networkType": "ethereum",
  "devdoc": {
    "events": {
      "Approval(address,address,uint256)": {
        "details": "Emitted when the allowance of a `spender` for an `owner` is set by a call to {approve}. `value` is the new allowance."
      },
      "Transfer(address,address,uint256)": {
        "details": "Emitted when `value` tokens are moved from one account (`from`) to another (`to`). Note that `value` may be zero."
      }
    },
    "kind": "dev",
    "methods": {
      "allowance(address,address)": {
        "details": "See {IERC20-allowance}."
      },
      "approve(address,uint256)": {
        "details": "See {IERC20-approve}. NOTE: If `amount` is the maximum `uint256`, the allowance is not updated on `transferFrom`. This is semantically equivalent to an infinite approval. Requirements: - `spender` cannot be the zero address."
      },
      "balanceOf(address)": {
        "details": "See {IERC20-balanceOf}."
      },
      "cap()": {
        "details": "Returns the cap on the token's total supply."
      },
      "decimals()": {
        "details": "Returns the number of decimals used to get its user representation. For example, if `decimals` equals `2`, a balance of `505` tokens should be displayed to a user as `5.05` (`505 / 10 ** 2`). Tokens usually opt for a value of 18, imitating the relationship between Ether and Wei. This is the default value returned by this function, unless it's overridden. NOTE: This information is only used for _display_ purposes: it in no way affects any of the arithmetic of the contract, including {IERC20-balanceOf} and {IERC20-transfer}."
      },
      "decreaseAllowance(address,uint256)": {
        "details": "Atomically decreases the allowance granted to `spender` by the caller. This is an alternative to {approve} that can be used as a mitigation for problems described in {IERC20-approve}. Emits an {Approval} event indicating the updated allowance. Requirements: - `spender` cannot be the zero address. - `spender` must have allowance for the caller of at least `subtractedValue`."
      },
      "increaseAllowance(address,uint256)": {
        "details": "Atomically increases the allowance granted to `spender` by the caller. This is an alternative to {approve} that can be used as a mitigation for problems described in {IERC20-approve}. Emits an {Approval} event indicating the updated allowance. Requirements: - `spender` cannot be the zero address."
      },
      "name()": {
        "details": "Returns the name of the token."
      },
      "symbol()": {
        "details": "Returns the symbol of the token, usually a shorter version of the name."
      },
      "totalSupply()": {
        "details": "See {IERC20-totalSupply}."
      },
      "transfer(address,uint256)": {
        "details": "See {IERC20-transfer}. Requirements: - `to` cannot be the zero address. - the caller must have a balance of at least `amount`."
      },
      "transferFrom(address,address,uint256)": {
        "details": "See {IERC20-transferFrom}. Emits an {Approval} event indicating the updated allowance. This is not required by the EIP. See the note at the beginning of {ERC20}. NOTE: Does not update the allowance if the current allowance is the maximum `uint256`. Requirements: - `from` and `to` cannot be the zero address. - `from` must have a balance of at least `amount`. - the caller must have allowance for ``from``'s tokens of at least `amount`."
      }
    },
    "version": 1
  },
  "userdoc": {
    "kind": "user",
    "methods": {},
    "version": 1
  }
}