{
  "contractName": "Asami",
  "abi": [
    {
      "inputs": [
        {
          "internalType": "address",
          "name": "_dollarOnChainAddress",
          "type": "address"
        }
      ],
      "stateMutability": "nonpayable",
      "type": "constructor"
    },
    {
      "anonymous": false,
      "inputs": [
        {
          "components": [
            {
              "internalType": "uint256",
              "name": "id",
              "type": "uint256"
            },
            {
              "internalType": "address",
              "name": "addr",
              "type": "address"
            },
            {
              "internalType": "uint256",
              "name": "unclaimedAsamiTokens",
              "type": "uint256"
            },
            {
              "internalType": "uint256",
              "name": "unclaimedDocRewards",
              "type": "uint256"
            },
            {
              "internalType": "uint256[]",
              "name": "handles",
              "type": "uint256[]"
            },
            {
              "internalType": "uint256[]",
              "name": "campaigns",
              "type": "uint256[]"
            },
            {
              "internalType": "uint256[]",
              "name": "collabs",
              "type": "uint256[]"
            }
          ],
          "indexed": false,
          "internalType": "struct Asami.Account",
          "name": "account",
          "type": "tuple"
        }
      ],
      "name": "AccountSaved",
      "type": "event"
    },
    {
      "anonymous": false,
      "inputs": [
        {
          "components": [
            {
              "internalType": "uint256",
              "name": "votes",
              "type": "uint256"
            },
            {
              "internalType": "address",
              "name": "candidate",
              "type": "address"
            },
            {
              "internalType": "uint256",
              "name": "cycle",
              "type": "uint256"
            },
            {
              "internalType": "bool",
              "name": "vested",
              "type": "bool"
            }
          ],
          "indexed": false,
          "internalType": "struct Asami.AdminVote",
          "name": "vote",
          "type": "tuple"
        }
      ],
      "name": "AdminVoteSaved",
      "type": "event"
    },
    {
      "anonymous": false,
      "inputs": [
        {
          "indexed": true,
          "internalType": "address",
          "name": "owner",
          "type": "address"
        },
        {
          "indexed": true,
          "internalType": "address",
          "name": "spender",
          "type": "address"
        },
        {
          "indexed": false,
          "internalType": "uint256",
          "name": "value",
          "type": "uint256"
        }
      ],
      "name": "Approval",
      "type": "event"
    },
    {
      "anonymous": false,
      "inputs": [
        {
          "components": [
            {
              "internalType": "uint256",
              "name": "id",
              "type": "uint256"
            },
            {
              "internalType": "uint256",
              "name": "accountId",
              "type": "uint256"
            },
            {
              "internalType": "enum Asami.Site",
              "name": "site",
              "type": "uint8"
            },
            {
              "internalType": "uint256",
              "name": "budget",
              "type": "uint256"
            },
            {
              "internalType": "uint256",
              "name": "remaining",
              "type": "uint256"
            },
            {
              "internalType": "string",
              "name": "contentId",
              "type": "string"
            },
            {
              "internalType": "uint256",
              "name": "priceScoreRatio",
              "type": "uint256"
            },
            {
              "internalType": "uint256[]",
              "name": "topics",
              "type": "uint256[]"
            },
            {
              "internalType": "uint256",
              "name": "validUntil",
              "type": "uint256"
            }
          ],
          "indexed": false,
          "internalType": "struct Asami.Campaign",
          "name": "campaign",
          "type": "tuple"
        }
      ],
      "name": "CampaignSaved",
      "type": "event"
    },
    {
      "anonymous": false,
      "inputs": [
        {
          "components": [
            {
              "internalType": "uint256",
              "name": "id",
              "type": "uint256"
            },
            {
              "internalType": "uint256",
              "name": "handleId",
              "type": "uint256"
            },
            {
              "internalType": "uint256",
              "name": "campaignId",
              "type": "uint256"
            },
            {
              "internalType": "uint256",
              "name": "gross",
              "type": "uint256"
            },
            {
              "internalType": "uint256",
              "name": "fee",
              "type": "uint256"
            },
            {
              "internalType": "string",
              "name": "proof",
              "type": "string"
            },
            {
              "internalType": "uint256",
              "name": "createdAt",
              "type": "uint256"
            }
          ],
          "indexed": false,
          "internalType": "struct Asami.Collab",
          "name": "collab",
          "type": "tuple"
        }
      ],
      "name": "CollabSaved",
      "type": "event"
    },
    {
      "anonymous": false,
      "inputs": [
        {
          "components": [
            {
              "internalType": "uint256",
              "name": "id",
              "type": "uint256"
            },
            {
              "internalType": "uint256",
              "name": "accountId",
              "type": "uint256"
            },
            {
              "internalType": "enum Asami.Site",
              "name": "site",
              "type": "uint8"
            },
            {
              "internalType": "uint256",
              "name": "price",
              "type": "uint256"
            },
            {
              "internalType": "uint256",
              "name": "score",
              "type": "uint256"
            },
            {
              "internalType": "uint256[]",
              "name": "topics",
              "type": "uint256[]"
            },
            {
              "internalType": "string",
              "name": "username",
              "type": "string"
            },
            {
              "internalType": "string",
              "name": "userId",
              "type": "string"
            }
          ],
          "indexed": false,
          "internalType": "struct Asami.Handle",
          "name": "handle",
          "type": "tuple"
        }
      ],
      "name": "HandleSaved",
      "type": "event"
    },
    {
      "anonymous": false,
      "inputs": [
        {
          "components": [
            {
              "internalType": "uint256",
              "name": "id",
              "type": "uint256"
            },
            {
              "internalType": "uint256",
              "name": "handleId",
              "type": "uint256"
            },
            {
              "internalType": "string",
              "name": "username",
              "type": "string"
            },
            {
              "internalType": "uint256",
              "name": "price",
              "type": "uint256"
            },
            {
              "internalType": "uint256",
              "name": "score",
              "type": "uint256"
            },
            {
              "internalType": "uint256[]",
              "name": "topics",
              "type": "uint256[]"
            }
          ],
          "indexed": false,
          "internalType": "struct Asami.HandleUpdate",
          "name": "handleUpdate",
          "type": "tuple"
        }
      ],
      "name": "HandleUpdateSaved",
      "type": "event"
    },
    {
      "anonymous": false,
      "inputs": [
        {
          "indexed": true,
          "internalType": "address",
          "name": "previousOwner",
          "type": "address"
        },
        {
          "indexed": true,
          "internalType": "address",
          "name": "newOwner",
          "type": "address"
        }
      ],
      "name": "OwnershipTransferred",
      "type": "event"
    },
    {
      "anonymous": false,
      "inputs": [
        {
          "indexed": true,
          "internalType": "address",
          "name": "from",
          "type": "address"
        },
        {
          "indexed": true,
          "internalType": "address",
          "name": "to",
          "type": "address"
        },
        {
          "indexed": false,
          "internalType": "uint256",
          "name": "value",
          "type": "uint256"
        }
      ],
      "name": "Transfer",
      "type": "event"
    },
    {
      "inputs": [
        {
          "internalType": "address",
          "name": "",
          "type": "address"
        }
      ],
      "name": "accountIdByAddress",
      "outputs": [
        {
          "internalType": "uint256",
          "name": "",
          "type": "uint256"
        }
      ],
      "stateMutability": "view",
      "type": "function",
      "constant": true
    },
    {
      "inputs": [
        {
          "internalType": "uint256",
          "name": "",
          "type": "uint256"
        }
      ],
      "name": "accountIds",
      "outputs": [
        {
          "internalType": "uint256",
          "name": "",
          "type": "uint256"
        }
      ],
      "stateMutability": "view",
      "type": "function",
      "constant": true
    },
    {
      "inputs": [
        {
          "internalType": "uint256",
          "name": "",
          "type": "uint256"
        }
      ],
      "name": "accounts",
      "outputs": [
        {
          "internalType": "uint256",
          "name": "id",
          "type": "uint256"
        },
        {
          "internalType": "address",
          "name": "addr",
          "type": "address"
        },
        {
          "internalType": "uint256",
          "name": "unclaimedAsamiTokens",
          "type": "uint256"
        },
        {
          "internalType": "uint256",
          "name": "unclaimedDocRewards",
          "type": "uint256"
        }
      ],
      "stateMutability": "view",
      "type": "function",
      "constant": true
    },
    {
      "inputs": [],
      "name": "admin",
      "outputs": [
        {
          "internalType": "address",
          "name": "",
          "type": "address"
        }
      ],
      "stateMutability": "view",
      "type": "function",
      "constant": true
    },
    {
      "inputs": [],
      "name": "adminTreasury",
      "outputs": [
        {
          "internalType": "address",
          "name": "",
          "type": "address"
        }
      ],
      "stateMutability": "view",
      "type": "function",
      "constant": true
    },
    {
      "inputs": [
        {
          "internalType": "address",
          "name": "",
          "type": "address"
        }
      ],
      "name": "adminVoteCountIdByCandidate",
      "outputs": [
        {
          "internalType": "uint256",
          "name": "",
          "type": "uint256"
        }
      ],
      "stateMutability": "view",
      "type": "function",
      "constant": true
    },
    {
      "inputs": [
        {
          "internalType": "uint256",
          "name": "",
          "type": "uint256"
        }
      ],
      "name": "adminVoteCounts",
      "outputs": [
        {
          "internalType": "uint256",
          "name": "votes",
          "type": "uint256"
        },
        {
          "internalType": "address",
          "name": "candidate",
          "type": "address"
        }
      ],
      "stateMutability": "view",
      "type": "function",
      "constant": true
    },
    {
      "inputs": [
        {
          "internalType": "address",
          "name": "owner",
          "type": "address"
        },
        {
          "internalType": "address",
          "name": "spender",
          "type": "address"
        }
      ],
      "name": "allowance",
      "outputs": [
        {
          "internalType": "uint256",
          "name": "",
          "type": "uint256"
        }
      ],
      "stateMutability": "view",
      "type": "function",
      "constant": true
    },
    {
      "inputs": [
        {
          "internalType": "address",
          "name": "spender",
          "type": "address"
        },
        {
          "internalType": "uint256",
          "name": "amount",
          "type": "uint256"
        }
      ],
      "name": "approve",
      "outputs": [
        {
          "internalType": "bool",
          "name": "",
          "type": "bool"
        }
      ],
      "stateMutability": "nonpayable",
      "type": "function"
    },
    {
      "inputs": [
        {
          "internalType": "address",
          "name": "account",
          "type": "address"
        }
      ],
      "name": "balanceOf",
      "outputs": [
        {
          "internalType": "uint256",
          "name": "",
          "type": "uint256"
        }
      ],
      "stateMutability": "view",
      "type": "function",
      "constant": true
    },
    {
      "inputs": [
        {
          "internalType": "uint256",
          "name": "",
          "type": "uint256"
        }
      ],
      "name": "campaigns",
      "outputs": [
        {
          "internalType": "uint256",
          "name": "id",
          "type": "uint256"
        },
        {
          "internalType": "uint256",
          "name": "accountId",
          "type": "uint256"
        },
        {
          "internalType": "enum Asami.Site",
          "name": "site",
          "type": "uint8"
        },
        {
          "internalType": "uint256",
          "name": "budget",
          "type": "uint256"
        },
        {
          "internalType": "uint256",
          "name": "remaining",
          "type": "uint256"
        },
        {
          "internalType": "string",
          "name": "contentId",
          "type": "string"
        },
        {
          "internalType": "uint256",
          "name": "priceScoreRatio",
          "type": "uint256"
        },
        {
          "internalType": "uint256",
          "name": "validUntil",
          "type": "uint256"
        }
      ],
      "stateMutability": "view",
      "type": "function",
      "constant": true
    },
    {
      "inputs": [],
      "name": "cap",
      "outputs": [
        {
          "internalType": "uint256",
          "name": "",
          "type": "uint256"
        }
      ],
      "stateMutability": "view",
      "type": "function",
      "constant": true
    },
    {
      "inputs": [],
      "name": "claimedAsamiTokens",
      "outputs": [
        {
          "internalType": "uint256",
          "name": "",
          "type": "uint256"
        }
      ],
      "stateMutability": "view",
      "type": "function",
      "constant": true
    },
    {
      "inputs": [
        {
          "internalType": "uint256",
          "name": "",
          "type": "uint256"
        }
      ],
      "name": "collabs",
      "outputs": [
        {
          "internalType": "uint256",
          "name": "id",
          "type": "uint256"
        },
        {
          "internalType": "uint256",
          "name": "handleId",
          "type": "uint256"
        },
        {
          "internalType": "uint256",
          "name": "campaignId",
          "type": "uint256"
        },
        {
          "internalType": "uint256",
          "name": "gross",
          "type": "uint256"
        },
        {
          "internalType": "uint256",
          "name": "fee",
          "type": "uint256"
        },
        {
          "internalType": "string",
          "name": "proof",
          "type": "string"
        },
        {
          "internalType": "uint256",
          "name": "createdAt",
          "type": "uint256"
        }
      ],
      "stateMutability": "view",
      "type": "function",
      "constant": true
    },
    {
      "inputs": [],
      "name": "decimals",
      "outputs": [
        {
          "internalType": "uint8",
          "name": "",
          "type": "uint8"
        }
      ],
      "stateMutability": "view",
      "type": "function",
      "constant": true
    },
    {
      "inputs": [
        {
          "internalType": "address",
          "name": "spender",
          "type": "address"
        },
        {
          "internalType": "uint256",
          "name": "subtractedValue",
          "type": "uint256"
        }
      ],
      "name": "decreaseAllowance",
      "outputs": [
        {
          "internalType": "bool",
          "name": "",
          "type": "bool"
        }
      ],
      "stateMutability": "nonpayable",
      "type": "function"
    },
    {
      "inputs": [],
      "name": "defaultFeeRate",
      "outputs": [
        {
          "internalType": "uint256",
          "name": "",
          "type": "uint256"
        }
      ],
      "stateMutability": "view",
      "type": "function",
      "constant": true
    },
    {
      "inputs": [],
      "name": "feePool",
      "outputs": [
        {
          "internalType": "uint256",
          "name": "",
          "type": "uint256"
        }
      ],
      "stateMutability": "view",
      "type": "function",
      "constant": true
    },
    {
      "inputs": [],
      "name": "feeRate",
      "outputs": [
        {
          "internalType": "uint256",
          "name": "",
          "type": "uint256"
        }
      ],
      "stateMutability": "view",
      "type": "function",
      "constant": true
    },
    {
      "inputs": [
        {
          "internalType": "address",
          "name": "",
          "type": "address"
        }
      ],
      "name": "feeRateVotes",
      "outputs": [
        {
          "internalType": "uint256",
          "name": "votes",
          "type": "uint256"
        },
        {
          "internalType": "uint256",
          "name": "rate",
          "type": "uint256"
        }
      ],
      "stateMutability": "view",
      "type": "function",
      "constant": true
    },
    {
      "inputs": [
        {
          "internalType": "uint256",
          "name": "",
          "type": "uint256"
        }
      ],
      "name": "handleUpdateByHandleId",
      "outputs": [
        {
          "internalType": "uint256",
          "name": "",
          "type": "uint256"
        }
      ],
      "stateMutability": "view",
      "type": "function",
      "constant": true
    },
    {
      "inputs": [
        {
          "internalType": "uint256",
          "name": "",
          "type": "uint256"
        }
      ],
      "name": "handleUpdates",
      "outputs": [
        {
          "internalType": "uint256",
          "name": "id",
          "type": "uint256"
        },
        {
          "internalType": "uint256",
          "name": "handleId",
          "type": "uint256"
        },
        {
          "internalType": "string",
          "name": "username",
          "type": "string"
        },
        {
          "internalType": "uint256",
          "name": "price",
          "type": "uint256"
        },
        {
          "internalType": "uint256",
          "name": "score",
          "type": "uint256"
        }
      ],
      "stateMutability": "view",
      "type": "function",
      "constant": true
    },
    {
      "inputs": [
        {
          "internalType": "uint256",
          "name": "",
          "type": "uint256"
        }
      ],
      "name": "handles",
      "outputs": [
        {
          "internalType": "uint256",
          "name": "id",
          "type": "uint256"
        },
        {
          "internalType": "uint256",
          "name": "accountId",
          "type": "uint256"
        },
        {
          "internalType": "enum Asami.Site",
          "name": "site",
          "type": "uint8"
        },
        {
          "internalType": "uint256",
          "name": "price",
          "type": "uint256"
        },
        {
          "internalType": "uint256",
          "name": "score",
          "type": "uint256"
        },
        {
          "internalType": "string",
          "name": "username",
          "type": "string"
        },
        {
          "internalType": "string",
          "name": "userId",
          "type": "string"
        }
      ],
      "stateMutability": "view",
      "type": "function",
      "constant": true
    },
    {
      "inputs": [
        {
          "internalType": "uint256",
          "name": "",
          "type": "uint256"
        }
      ],
      "name": "holders",
      "outputs": [
        {
          "internalType": "address",
          "name": "",
          "type": "address"
        }
      ],
      "stateMutability": "view",
      "type": "function",
      "constant": true
    },
    {
      "inputs": [
        {
          "internalType": "address",
          "name": "spender",
          "type": "address"
        },
        {
          "internalType": "uint256",
          "name": "addedValue",
          "type": "uint256"
        }
      ],
      "name": "increaseAllowance",
      "outputs": [
        {
          "internalType": "bool",
          "name": "",
          "type": "bool"
        }
      ],
      "stateMutability": "nonpayable",
      "type": "function"
    },
    {
      "inputs": [],
      "name": "lastAdminElection",
      "outputs": [
        {
          "internalType": "uint256",
          "name": "",
          "type": "uint256"
        }
      ],
      "stateMutability": "view",
      "type": "function",
      "constant": true
    },
    {
      "inputs": [],
      "name": "lastPayoutCycle",
      "outputs": [
        {
          "internalType": "uint256",
          "name": "",
          "type": "uint256"
        }
      ],
      "stateMutability": "view",
      "type": "function",
      "constant": true
    },
    {
      "inputs": [],
      "name": "lastUpdateCycle",
      "outputs": [
        {
          "internalType": "uint256",
          "name": "",
          "type": "uint256"
        }
      ],
      "stateMutability": "view",
      "type": "function",
      "constant": true
    },
    {
      "inputs": [],
      "name": "lastVotedFeeRateAppliedOn",
      "outputs": [
        {
          "internalType": "uint256",
          "name": "",
          "type": "uint256"
        }
      ],
      "stateMutability": "view",
      "type": "function",
      "constant": true
    },
    {
      "inputs": [
        {
          "internalType": "uint256",
          "name": "",
          "type": "uint256"
        }
      ],
      "name": "latestAdminElections",
      "outputs": [
        {
          "internalType": "address",
          "name": "",
          "type": "address"
        }
      ],
      "stateMutability": "view",
      "type": "function",
      "constant": true
    },
    {
      "inputs": [],
      "name": "name",
      "outputs": [
        {
          "internalType": "string",
          "name": "",
          "type": "string"
        }
      ],
      "stateMutability": "view",
      "type": "function",
      "constant": true
    },
    {
      "inputs": [],
      "name": "owner",
      "outputs": [
        {
          "internalType": "address",
          "name": "",
          "type": "address"
        }
      ],
      "stateMutability": "view",
      "type": "function",
      "constant": true
    },
    {
      "inputs": [],
      "name": "payoutsRemaining",
      "outputs": [
        {
          "internalType": "uint256",
          "name": "",
          "type": "uint256"
        }
      ],
      "stateMutability": "view",
      "type": "function",
      "constant": true
    },
    {
      "inputs": [],
      "name": "payoutsTotal",
      "outputs": [
        {
          "internalType": "uint256",
          "name": "",
          "type": "uint256"
        }
      ],
      "stateMutability": "view",
      "type": "function",
      "constant": true
    },
    {
      "inputs": [],
      "name": "renounceOwnership",
      "outputs": [],
      "stateMutability": "nonpayable",
      "type": "function"
    },
    {
      "inputs": [
        {
          "internalType": "address",
          "name": "",
          "type": "address"
        }
      ],
      "name": "submittedAdminVotes",
      "outputs": [
        {
          "internalType": "uint256",
          "name": "votes",
          "type": "uint256"
        },
        {
          "internalType": "address",
          "name": "candidate",
          "type": "address"
        },
        {
          "internalType": "uint256",
          "name": "cycle",
          "type": "uint256"
        },
        {
          "internalType": "bool",
          "name": "vested",
          "type": "bool"
        }
      ],
      "stateMutability": "view",
      "type": "function",
      "constant": true
    },
    {
      "inputs": [],
      "name": "symbol",
      "outputs": [
        {
          "internalType": "string",
          "name": "",
          "type": "string"
        }
      ],
      "stateMutability": "view",
      "type": "function",
      "constant": true
    },
    {
      "inputs": [
        {
          "internalType": "uint256",
          "name": "",
          "type": "uint256"
        }
      ],
      "name": "topics",
      "outputs": [
        {
          "internalType": "string",
          "name": "",
          "type": "string"
        }
      ],
      "stateMutability": "view",
      "type": "function",
      "constant": true
    },
    {
      "inputs": [],
      "name": "totalSupply",
      "outputs": [
        {
          "internalType": "uint256",
          "name": "",
          "type": "uint256"
        }
      ],
      "stateMutability": "view",
      "type": "function",
      "constant": true
    },
    {
      "inputs": [
        {
          "internalType": "address",
          "name": "",
          "type": "address"
        }
      ],
      "name": "trackedHolders",
      "outputs": [
        {
          "internalType": "bool",
          "name": "",
          "type": "bool"
        }
      ],
      "stateMutability": "view",
      "type": "function",
      "constant": true
    },
    {
      "inputs": [
        {
          "internalType": "address",
          "name": "to",
          "type": "address"
        },
        {
          "internalType": "uint256",
          "name": "amount",
          "type": "uint256"
        }
      ],
      "name": "transfer",
      "outputs": [
        {
          "internalType": "bool",
          "name": "",
          "type": "bool"
        }
      ],
      "stateMutability": "nonpayable",
      "type": "function"
    },
    {
      "inputs": [
        {
          "internalType": "address",
          "name": "from",
          "type": "address"
        },
        {
          "internalType": "address",
          "name": "to",
          "type": "address"
        },
        {
          "internalType": "uint256",
          "name": "amount",
          "type": "uint256"
        }
      ],
      "name": "transferFrom",
      "outputs": [
        {
          "internalType": "bool",
          "name": "",
          "type": "bool"
        }
      ],
      "stateMutability": "nonpayable",
      "type": "function"
    },
    {
      "inputs": [
        {
          "internalType": "address",
          "name": "newOwner",
          "type": "address"
        }
      ],
      "name": "transferOwnership",
      "outputs": [],
      "stateMutability": "nonpayable",
      "type": "function"
    },
    {
      "inputs": [],
      "name": "updatesRemaining",
      "outputs": [
        {
          "internalType": "uint256",
          "name": "",
          "type": "uint256"
        }
      ],
      "stateMutability": "view",
      "type": "function",
      "constant": true
    },
    {
      "inputs": [],
      "name": "updatesTotal",
      "outputs": [
        {
          "internalType": "uint256",
          "name": "",
          "type": "uint256"
        }
      ],
      "stateMutability": "view",
      "type": "function",
      "constant": true
    },
    {
      "inputs": [],
      "name": "vestedAdminVotesTotal",
      "outputs": [
        {
          "internalType": "uint256",
          "name": "",
          "type": "uint256"
        }
      ],
      "stateMutability": "view",
      "type": "function",
      "constant": true
    },
    {
      "inputs": [],
      "name": "votedFeeRate",
      "outputs": [
        {
          "internalType": "uint256",
          "name": "",
          "type": "uint256"
        }
      ],
      "stateMutability": "view",
      "type": "function",
      "constant": true
    },
    {
      "inputs": [],
      "name": "votedFeeRateVoteCount",
      "outputs": [
        {
          "internalType": "uint256",
          "name": "",
          "type": "uint256"
        }
      ],
      "stateMutability": "view",
      "type": "function",
      "constant": true
    },
    {
      "inputs": [],
      "name": "allAdminVoteCounts",
      "outputs": [
        {
          "components": [
            {
              "internalType": "uint256",
              "name": "votes",
              "type": "uint256"
            },
            {
              "internalType": "address",
              "name": "candidate",
              "type": "address"
            }
          ],
          "internalType": "struct Asami.AdminVoteCount[]",
          "name": "",
          "type": "tuple[]"
        }
      ],
      "stateMutability": "view",
      "type": "function",
      "constant": true
    },
    {
      "inputs": [],
      "name": "getLatestAdminElections",
      "outputs": [
        {
          "internalType": "address[3]",
          "name": "",
          "type": "address[3]"
        }
      ],
      "stateMutability": "view",
      "type": "function",
      "constant": true
    },
    {
      "inputs": [
        {
          "internalType": "address",
          "name": "_admin",
          "type": "address"
        },
        {
          "internalType": "address",
          "name": "_adminTreasury",
          "type": "address"
        }
      ],
      "name": "setAdmin",
      "outputs": [],
      "stateMutability": "nonpayable",
      "type": "function"
    },
    {
      "inputs": [],
      "name": "getHolders",
      "outputs": [
        {
          "internalType": "string[]",
          "name": "",
          "type": "string[]"
        }
      ],
      "stateMutability": "view",
      "type": "function",
      "constant": true
    },
    {
      "inputs": [],
      "name": "getClaimedAsamiTokens",
      "outputs": [
        {
          "internalType": "uint256",
          "name": "",
          "type": "uint256"
        }
      ],
      "stateMutability": "view",
      "type": "function",
      "constant": true
    },
    {
      "inputs": [],
      "name": "getTopics",
      "outputs": [
        {
          "internalType": "string[]",
          "name": "",
          "type": "string[]"
        }
      ],
      "stateMutability": "view",
      "type": "function",
      "constant": true
    },
    {
      "inputs": [
        {
          "internalType": "string",
          "name": "_name",
          "type": "string"
        }
      ],
      "name": "addTopic",
      "outputs": [],
      "stateMutability": "nonpayable",
      "type": "function"
    },
    {
      "inputs": [
        {
          "components": [
            {
              "internalType": "uint256",
              "name": "accountId",
              "type": "uint256"
            },
            {
              "internalType": "address",
              "name": "addr",
              "type": "address"
            }
          ],
          "internalType": "struct Asami.AdminClaimAccountsInput[]",
          "name": "_input",
          "type": "tuple[]"
        }
      ],
      "name": "claimAccounts",
      "outputs": [],
      "stateMutability": "nonpayable",
      "type": "function"
    },
    {
      "inputs": [
        {
          "components": [
            {
              "internalType": "uint256",
              "name": "id",
              "type": "uint256"
            },
            {
              "internalType": "uint256",
              "name": "accountId",
              "type": "uint256"
            },
            {
              "internalType": "enum Asami.Site",
              "name": "site",
              "type": "uint8"
            },
            {
              "internalType": "uint256",
              "name": "price",
              "type": "uint256"
            },
            {
              "internalType": "uint256",
              "name": "score",
              "type": "uint256"
            },
            {
              "internalType": "uint256[]",
              "name": "topics",
              "type": "uint256[]"
            },
            {
              "internalType": "string",
              "name": "username",
              "type": "string"
            },
            {
              "internalType": "string",
              "name": "userId",
              "type": "string"
            }
          ],
          "internalType": "struct Asami.Handle[]",
          "name": "_inputs",
          "type": "tuple[]"
        }
      ],
      "name": "adminMakeHandles",
      "outputs": [],
      "stateMutability": "nonpayable",
      "type": "function"
    },
    {
      "inputs": [
        {
          "components": [
            {
              "internalType": "enum Asami.Site",
              "name": "site",
              "type": "uint8"
            },
            {
              "internalType": "uint256",
              "name": "budget",
              "type": "uint256"
            },
            {
              "internalType": "string",
              "name": "contentId",
              "type": "string"
            },
            {
              "internalType": "uint256",
              "name": "priceScoreRatio",
              "type": "uint256"
            },
            {
              "internalType": "uint256[]",
              "name": "topics",
              "type": "uint256[]"
            },
            {
              "internalType": "uint256",
              "name": "validUntil",
              "type": "uint256"
            }
          ],
          "internalType": "struct Asami.CampaignInput[]",
          "name": "_inputs",
          "type": "tuple[]"
        }
      ],
      "name": "makeCampaigns",
      "outputs": [],
      "stateMutability": "nonpayable",
      "type": "function"
    },
    {
      "inputs": [
        {
          "components": [
            {
              "internalType": "uint256",
              "name": "accountId",
              "type": "uint256"
            },
            {
              "components": [
                {
                  "internalType": "enum Asami.Site",
                  "name": "site",
                  "type": "uint8"
                },
                {
                  "internalType": "uint256",
                  "name": "budget",
                  "type": "uint256"
                },
                {
                  "internalType": "string",
                  "name": "contentId",
                  "type": "string"
                },
                {
                  "internalType": "uint256",
                  "name": "priceScoreRatio",
                  "type": "uint256"
                },
                {
                  "internalType": "uint256[]",
                  "name": "topics",
                  "type": "uint256[]"
                },
                {
                  "internalType": "uint256",
                  "name": "validUntil",
                  "type": "uint256"
                }
              ],
              "internalType": "struct Asami.CampaignInput",
              "name": "attrs",
              "type": "tuple"
            }
          ],
          "internalType": "struct Asami.AdminCampaignInput[]",
          "name": "_inputs",
          "type": "tuple[]"
        }
      ],
      "name": "adminMakeCampaigns",
      "outputs": [],
      "stateMutability": "nonpayable",
      "type": "function"
    },
    {
      "inputs": [
        {
          "components": [
            {
              "internalType": "uint256",
              "name": "campaignId",
              "type": "uint256"
            },
            {
              "internalType": "uint256",
              "name": "handleId",
              "type": "uint256"
            }
          ],
          "internalType": "struct Asami.AdminMakeCollabsInput[]",
          "name": "_collabs",
          "type": "tuple[]"
        }
      ],
      "name": "adminMakeCollabs",
      "outputs": [],
      "stateMutability": "nonpayable",
      "type": "function"
    },
    {
      "inputs": [
        {
          "internalType": "uint256[]",
          "name": "_campaignIds",
          "type": "uint256[]"
        }
      ],
      "name": "reimburseDueCampaigns",
      "outputs": [],
      "stateMutability": "nonpayable",
      "type": "function"
    },
    {
      "inputs": [
        {
          "internalType": "uint256",
          "name": "_handleId",
          "type": "uint256"
        },
        {
          "internalType": "uint256",
          "name": "_price",
          "type": "uint256"
        }
      ],
      "name": "adminSetPrice",
      "outputs": [],
      "stateMutability": "nonpayable",
      "type": "function"
    },
    {
      "inputs": [
        {
          "internalType": "uint256",
          "name": "_handleId",
          "type": "uint256"
        },
        {
          "internalType": "uint256",
          "name": "_price",
          "type": "uint256"
        }
      ],
      "name": "setPrice",
      "outputs": [],
      "stateMutability": "nonpayable",
      "type": "function"
    },
    {
      "inputs": [
        {
          "internalType": "uint256",
          "name": "_handleId",
          "type": "uint256"
        },
        {
          "internalType": "uint256",
          "name": "_score",
          "type": "uint256"
        },
        {
          "internalType": "uint256[]",
          "name": "_topics",
          "type": "uint256[]"
        }
      ],
      "name": "adminSetScoreAndTopics",
      "outputs": [],
      "stateMutability": "nonpayable",
      "type": "function"
    },
    {
      "inputs": [],
      "name": "getCycleLength",
      "outputs": [
        {
          "internalType": "uint256",
          "name": "",
          "type": "uint256"
        }
      ],
      "stateMutability": "pure",
      "type": "function",
      "constant": true
    },
    {
      "inputs": [],
      "name": "getCurrentCycle",
      "outputs": [
        {
          "internalType": "uint256",
          "name": "",
          "type": "uint256"
        }
      ],
      "stateMutability": "view",
      "type": "function",
      "constant": true
    },
    {
      "inputs": [],
      "name": "getNextCycle",
      "outputs": [
        {
          "internalType": "uint256",
          "name": "",
          "type": "uint256"
        }
      ],
      "stateMutability": "view",
      "type": "function",
      "constant": true
    },
    {
      "inputs": [],
      "name": "distributeFeePool",
      "outputs": [],
      "stateMutability": "nonpayable",
      "type": "function"
    },
    {
      "inputs": [],
      "name": "applyHandleUpdates",
      "outputs": [],
      "stateMutability": "nonpayable",
      "type": "function"
    },
    {
      "inputs": [],
      "name": "applyVotedFeeRate",
      "outputs": [],
      "stateMutability": "nonpayable",
      "type": "function"
    },
    {
      "inputs": [
        {
          "internalType": "uint256",
          "name": "_rate",
          "type": "uint256"
        }
      ],
      "name": "submitFeeRateVote",
      "outputs": [],
      "stateMutability": "nonpayable",
      "type": "function"
    },
    {
      "inputs": [],
      "name": "removeFeeRateVote",
      "outputs": [],
      "stateMutability": "nonpayable",
      "type": "function"
    },
    {
      "inputs": [
        {
          "internalType": "address",
          "name": "_candidate",
          "type": "address"
        }
      ],
      "name": "submitAdminVote",
      "outputs": [],
      "stateMutability": "nonpayable",
      "type": "function"
    },
    {
      "inputs": [
        {
          "internalType": "address[]",
          "name": "_holders",
          "type": "address[]"
        }
      ],
      "name": "vestAdminVotes",
      "outputs": [],
      "stateMutability": "nonpayable",
      "type": "function"
    },
    {
      "inputs": [
        {
          "internalType": "address",
          "name": "_candidate",
          "type": "address"
        }
      ],
      "name": "proclaimCycleAdminWinner",
      "outputs": [],
      "stateMutability": "nonpayable",
      "type": "function"
    },
    {
      "inputs": [],
      "name": "removeAdminVote",
      "outputs": [],
      "stateMutability": "nonpayable",
      "type": "function"
    },
    {
      "inputs": [
        {
          "internalType": "address",
          "name": "_admin",
          "type": "address"
        }
      ],
      "name": "setAdminAddress",
      "outputs": [],
      "stateMutability": "nonpayable",
      "type": "function"
    },
    {
      "inputs": [
        {
          "internalType": "uint256[]",
          "name": "mainSet",
          "type": "uint256[]"
        },
        {
          "internalType": "uint256[]",
          "name": "subset",
          "type": "uint256[]"
        }
      ],
      "name": "isSubset",
      "outputs": [
        {
          "internalType": "bool",
          "name": "",
          "type": "bool"
        }
      ],
      "stateMutability": "pure",
      "type": "function",
      "constant": true
    }
  ],
  "bytecode": "0x60a0604052678ac7230489e80000600e55600e54600f55600e54601055600060115560006012556000602455600060255560006026556000602755600060285560006029553480156200005157600080fd5b50604051620055a4380380620055a48339810160408190526200007491620001cd565b6a115eec47f6cf7e350000006040518060400160405280600a81526020016920b9b0b6b4aa37b5b2b760b11b815250604051806040016040528060058152602001644153414d4960d81b815250620000db620000d56200017960201b60201c565b6200017d565b6004620000e98382620002a4565b506005620000f88282620002a4565b50505060008111620001505760405162461bcd60e51b815260206004820152601560248201527f45524332304361707065643a2063617020697320300000000000000000000000604482015260640160405180910390fd5b608052601d80546001600160a01b0319166001600160a01b039290921691909117905562000370565b3390565b600080546001600160a01b038381166001600160a01b0319831681178455604051919092169283917f8be0079c531659141344cd1fd0a4f28419497f9722a3daafe3b4186f6b6457e09190a35050565b600060208284031215620001e057600080fd5b81516001600160a01b0381168114620001f857600080fd5b9392505050565b634e487b7160e01b600052604160045260246000fd5b600181811c908216806200022a57607f821691505b6020821081036200024b57634e487b7160e01b600052602260045260246000fd5b50919050565b601f8211156200029f57600081815260208120601f850160051c810160208610156200027a5750805b601f850160051c820191505b818110156200029b5782815560010162000286565b5050505b505050565b81516001600160401b03811115620002c057620002c0620001ff565b620002d881620002d1845462000215565b8462000251565b602080601f831160018114620003105760008415620002f75750858301515b600019600386901b1c1916600185901b1785556200029b565b600085815260208120601f198616915b82811015620003415788860151825594840194600190910190840162000320565b5085821015620003605787850151600019600388901b60f8161c191681555b5050505050600190811b01905550565b6080516152186200038c6000396000610ccf01526152186000f3fe608060405234801561001057600080fd5b506004361061037a5760003560e01c806306fdde031461037f57806307d334551461039d578063095ea7b3146103b4578063141961bc146103d75780631677aa3d146103fe57806318160ddd1461040757806318d9adab1461040f5780631aa4bf35146104225780631b06cfbc1461042b57806323b872dd1461045657806325076468146104695780632a11ced0146104725780632c1e816d1461048557806330370ba01461049a578063313ce567146104ba57806333c24bd3146104c9578063355274ea146104dc57806339509351146104e45780633ca75e56146104f7578063402c51331461050a578063419a7c5d1461051d5780634259d8a21461053257806346c33dd51461053b578063479b563a1461054e5780634969a969146105575780634bd38e261461056057806358cea7d2146105805780635d03e487146105935780635e613423146105a65780635fe8e7cc146105af5780636717d7a8146105c457806368841a46146105e45780636b6a4ad0146105ed5780636f1c76171461061057806370a0823114610618578063715018a61461062b57806379dec48b146106335780637d98e20f1461063b5780637dfed63b1461066157806381d036f5146106855780638202c073146106c15780638b69633d146106d45780638bec13cf146106e75780638da5cb5b146106f05780638e1e6de2146106f85780639314b2141461070057806395d89b411461070957806396cad0db14610711578063978bbdb9146107245780639938e9291461072d5780639bd40aee146107405780639dfceaaa14610753578063a457c2d714610766578063a9059cbb14610779578063ae2e933b1461078c578063be26ed7f14610795578063c08b8f3d1461079d578063c4890d05146107b0578063c4ac65b7146107b9578063c55b6bb7146107cc578063cdada3b6146107df578063d0b0ce95146107f4578063d8c44f50146107fc578063dd62ed3e14610804578063e4c1be2e14610817578063ec8b436c14610820578063f1a12cbc1461088c578063f2a40db814610895578063f2fde38b146108fc578063f3401bc31461090f578063f398c24114610922578063f7d975771461092a578063f851a4401461093d578063fa7fb4d814610950578063fdb265b014610980578063fdb4b822146109a6578063fee01177146109b9578063ff3f1886146109c1575b600080fd5b6103876109c9565b6040516103949190613eec565b60405180910390f35b6103a6600e5481565b604051908152602001610394565b6103c76103c2366004613f22565b610a5b565b6040519015158152602001610394565b6103ea6103e5366004613f4c565b610a75565b604051610394989796959493929190613f9d565b6103a660225481565b6003546103a6565b61038761041d366004613f4c565b610b59565b6103a660275481565b61043e610439366004613f4c565b610c05565b6040516001600160a01b039091168152602001610394565b6103c7610464366004613fee565b610c25565b6103a660245481565b61043e610480366004613f4c565b610c49565b61049861049336600461402a565b610c73565b005b6103a66104a8366004613f4c565b600b6020526000908152604090205481565b60405160128152602001610394565b6103a66104d7366004613f4c565b610cac565b6103a6610ccd565b6103c76104f2366004613f22565b610cf1565b610498610505366004614090565b610d13565b610498610518366004614115565b610e7f565b61052561107d565b604051610394919061414a565b6213c6806103a6565b610498610549366004614090565b6110c2565b6103a660285481565b6103a660265481565b6103a661056e36600461402a565b60166020526000908152604090205481565b61049861058e366004614090565b6111d2565b6104986105a136600461402a565b611339565b6103a660105481565b6105b76114e7565b6040516103949190614184565b6103a66105d236600461402a565b60086020526000908152604090205481565b6103a660125481565b6103c76105fb36600461402a565b601f6020526000908152604090205460ff1681565b6104986115c0565b6103a661062636600461402a565b6115e5565b610498611600565b6103a6611614565b61064e610649366004613f4c565b611631565b60405161039497969594939291906141e6565b61067461066f366004613f4c565b61170b565b60405161039495949392919061422b565b6106ac61069336600461402a565b6013602052600090815260409020805460019091015482565b60408051928352602083019190915201610394565b6104986106cf36600461425e565b6117d9565b6103c76106e236600461439d565b611862565b6103a660185481565b61043e6118fe565b61049861190d565b6103a660115481565b610387611ac7565b60215461043e906001600160a01b031681565b6103a6600f5481565b61049861073b366004614115565b611ad6565b61049861074e366004614090565b612337565b610498610761366004613f4c565b6125b9565b6103c7610774366004613f22565b6126cc565b6103c7610787366004613f22565b612747565b6103a660235481565b6103a6612755565b6104986107ab366004614400565b612764565b6103a660295481565b6104986107c7366004614422565b612810565b6104986107da366004614493565b612887565b6107e76128e8565b60405161039491906144c6565b610498612954565b610498612af1565b6103a6610812366004614493565b612afa565b6103a660175481565b61086261082e36600461402a565b601460205260009081526040902080546001820154600283015460039093015491926001600160a01b039091169160ff1684565b604080519485526001600160a01b0390931660208501529183015215156060820152608001610394565b6103a660255481565b6108d46108a3366004613f4c565b600760205260009081526040902080546001820154600283015460039093015491926001600160a01b039091169184565b604080519485526001600160a01b039093166020850152918301526060820152608001610394565b61049861090a36600461402a565b612b25565b61049861091d36600461402a565b612b9e565b610498612cf4565b610498610938366004614400565b612cfd565b60205461043e906001600160a01b031681565b61096361095e366004613f4c565b612d8b565b604080519283526001600160a01b03909116602083015201610394565b61099361098e366004613f4c565b612dc2565b604051610394979695949392919061451e565b6104986109b4366004614090565b612f28565b6105b761305d565b6022546103a6565b6060600480546109d890614576565b80601f0160208091040260200160405190810160405280929190818152602001828054610a0490614576565b8015610a515780601f10610a2657610100808354040283529160200191610a51565b820191906000526020600020905b815481529060010190602001808311610a3457829003601f168201915b5050505050905090565b600033610a6981858561312d565b60019150505b92915050565b600c8181548110610a8557600080fd5b6000918252602090912060099091020180546001820154600283015460038401546004850154600586018054959750939560ff909316949193909291610aca90614576565b80601f0160208091040260200160405190810160405280929190818152602001828054610af690614576565b8015610b435780601f10610b1857610100808354040283529160200191610b43565b820191906000526020600020905b815481529060010190602001808311610b2657829003601f168201915b5050505050908060060154908060080154905088565b601c8181548110610b6957600080fd5b906000526020600020016000915090508054610b8490614576565b80601f0160208091040260200160405190810160405280929190818152602001828054610bb090614576565b8015610bfd5780601f10610bd257610100808354040283529160200191610bfd565b820191906000526020600020905b815481529060010190602001808311610be057829003601f168201915b505050505081565b60198160038110610c1557600080fd5b01546001600160a01b0316905081565b600033610c33858285613251565b610c3e8585856132c5565b506001949350505050565b601e8181548110610c5957600080fd5b6000918252602090912001546001600160a01b0316905081565b6021546001600160a01b03163314610c8a57600080fd5b602080546001600160a01b0319166001600160a01b0392909216919091179055565b60068181548110610cbc57600080fd5b600091825260209091200154905081565b7f000000000000000000000000000000000000000000000000000000000000000090565b600033610a69818585610d048383612afa565b610d0e91906145c0565b61312d565b60005b81811015610e7a576000600c6001858585818110610d3657610d366145d3565b90506020020135610d4791906145e9565b81548110610d5757610d576145d3565b906000526020600020906009020190506000816000015411610d7857600080fd5b6000816004015411610d8957600080fd5b42816008015410610d9957600080fd5b60018082015460009081526007602052604090819020601d5492810154600480860154935163a9059cbb60e01b815292946001600160a01b039081169463a9059cbb94610dec94909216929091016145fc565b6020604051808303816000875af1158015610e0b573d6000803e3d6000fd5b505050506040513d601f19601f82011682018060405250810190610e2f9190614615565b610e3857600080fd5b6000600483015560405160008051602061514383398151915290610e5d9084906146f4565b60405180910390a150508080610e729061478f565b915050610d16565b505050565b6020546001600160a01b0316331480610eb05750610e9b6118fe565b6001600160a01b0316336001600160a01b0316145b610eb957600080fd5b60005b81811015610e7a5736838383818110610ed757610ed76145d3565b9050604002019050610eec8160000135613469565b8035600090815260076020526040902060018101546001600160a01b031615610f1457600080fd5b813560086000610f2a604086016020870161402a565b6001600160a01b03166001600160a01b0316815260200190815260200160002081905550816020016020810190610f61919061402a565b6001820180546001600160a01b0319166001600160a01b0392909216919091179055600281015415610fb257610faa610fa0604084016020850161402a565b82600201546134c0565b600060028201555b60038101541561104357601d546001820154600383015460405163a9059cbb60e01b81526001600160a01b039384169363a9059cbb93610ff7939116916004016145fc565b6020604051808303816000875af1158015611016573d6000803e3d6000fd5b505050506040513d601f19601f8201168201806040525081019061103a9190614615565b50600060038201555b6000805160206151a38339815191528160405161106091906147a8565b60405180910390a1505080806110759061478f565b915050610ebc565b611085613cea565b6040805160608101918290529060199060039082845b81546001600160a01b0316815260019091019060200180831161109b575050505050905090565b3360009081526008602090815260408083205483526007909152902060018101546001600160a01b03166110f557600080fd5b60005b828110156111cc576000848483818110611114576111146145d3565b90506020028101906111269190614830565b61112f90614974565b90506111b983604051806101200160405280600c80549050600161115391906145c0565b8152865460208201528451604090910190600481111561117557611175613f65565b815260200184602001518152602001846020015181526020018460400151815260200184606001518152602001846080015181526020018460a00151815250613503565b50806111c48161478f565b9150506110f8565b50505050565b6020546001600160a01b031633148061120357506111ee6118fe565b6001600160a01b0316336001600160a01b0316145b61120c57600080fd5b60005b81811015610e7a57600083838381811061122b5761122b6145d3565b905060200281019061123d9190614980565b61124690614996565b90506112558160000151613469565b8051600090815260076020526040902060018101546001600160a01b03161561127d57600080fd5b61132481604051806101200160405280600c80549050600161129f91906145c0565b81526020018460000154815260200185602001516000015160048111156112c8576112c8613f65565b815260200185602001516020015181526020018560200151602001518152602001856020015160400151815260200185602001516060015181526020018560200151608001518152602001856020015160a00151815250613503565b505080806113319061478f565b91505061120f565b6001600160a01b0381166000908152601660205260409020548061135c57600080fd5b6000601561136b6001846145e9565b8154811061137b5761137b6145d3565b90600052602060002090600202019050600260175461139a9190614a00565b8154116113d65760405162461bcd60e51b8152602060048201526005602482015264070637720360dc1b60448201526064015b60405180910390fd5b6000601754116114105760405162461bcd60e51b8152602060048201526005602482015264706377203160d81b60448201526064016113cd565b600061141a612755565b905080601854106114555760405162461bcd60e51b81526020600482015260056024820152643831bb901960d91b60448201526064016113cd565b6018819055601a8054601b80546001600160a01b038084166001600160a01b03199283161790925560198054808416948316851790955593169087169081179092551480156114b15750601b546001600160a01b038581169116145b156111cc57602080546001600160a01b0386166001600160a01b0319918216811790925560218054909116909117905550505050565b6060601c805480602002602001604051908101604052809291908181526020016000905b828210156115b757838290600052602060002001805461152a90614576565b80601f016020809104026020016040519081016040528092919081815260200182805461155690614576565b80156115a35780601f10611578576101008083540402835291602001916115a3565b820191906000526020600020905b81548152906001019060200180831161158657829003601f168201915b50505050508152602001906001019061150b565b50505050905090565b60006115ca612755565b905060125481036115da57600080fd5b601054600f55601255565b6001600160a01b031660009081526001602052604090205490565b611608613703565b6116126000613762565b565b60006213c680611622612755565b61162c91906145c0565b905090565b600d818154811061164157600080fd5b906000526020600020906007020160009150905080600001549080600101549080600201549080600301549080600401549080600501805461168290614576565b80601f01602080910402602001604051908101604052809291908181526020018280546116ae90614576565b80156116fb5780601f106116d0576101008083540402835291602001916116fb565b820191906000526020600020905b8154815290600101906020018083116116de57829003601f168201915b5050505050908060060154905087565b600a818154811061171b57600080fd5b906000526020600020906006020160009150905080600001549080600101549080600201805461174a90614576565b80601f016020809104026020016040519081016040528092919081815260200182805461177690614576565b80156117c35780601f10611798576101008083540402835291602001916117c3565b820191906000526020600020905b8154815290600101906020018083116117a657829003601f168201915b5050505050908060030154908060040154905085565b6020546001600160a01b031633148061180a57506117f56118fe565b6001600160a01b0316336001600160a01b0316145b61181357600080fd5b600061181e856137b2565b600481018590559050611835600582018484613d08565b50600080516020615163833981519152816040516118539190614a22565b60405180910390a15050505050565b6000805b82518110156118f4576000805b85518110156118d05785818151811061188e5761188e6145d3565b60200260200101518584815181106118a8576118a86145d3565b6020026020010151036118be57600191506118d0565b806118c88161478f565b915050611873565b50806118e157600092505050610a6f565b50806118ec8161478f565b915050611866565b5060019392505050565b6000546001600160a01b031690565b60275460000361194057600a546028819055602755600061192c612755565b9050602954810361193c57600080fd5b6029555b600060275460285461195291906145e9565b9050600060285482606461196691906145c0565b11156119745760285461197f565b61197f8260646145c0565b9050815b81811015611a95576000600a82815481106119a0576119a06145d3565b9060005260206000209060060201905060006009600183600101546119c591906145e9565b815481106119d5576119d56145d3565b9060005260206000209060080201905060008260020180546119f690614576565b90501115611a115760068101611a0f6002840182614ae7565b505b600382015415611a2657600380830154908201555b600482015415611a3b57600480830154908201555b600582015415611a5b5760058083018054611a599284019190613d53565b505b60008051602061518383398151915281604051611a789190614bbd565b60405180910390a150508080611a8d9061478f565b915050611983565b508060276000828254611aa891906145e9565b9091555050602754600003611ac357611ac3600a6000613d93565b5050565b6060600580546109d890614576565b6020546001600160a01b0316331480611b075750611af26118fe565b6001600160a01b0316336001600160a01b0316145b611b1057600080fd5b60005b81811015610e7a57600060096001858585818110611b3357611b336145d3565b90506040020160200135611b4791906145e9565b81548110611b5757611b576145d3565b906000526020600020906008020190506000816000015411611b9f5760405162461bcd60e51b81526020600482015260016024820152603160f81b60448201526064016113cd565b600180820154600090815260076020526040812091600c90878787818110611bc957611bc96145d3565b90506040020160000135611bdd91906145e9565b81548110611bed57611bed6145d3565b906000526020600020906009020190506000816000015411611c355760405162461bcd60e51b81526020600482015260016024820152603360f81b60448201526064016113cd565b42816008015411611c6c5760405162461bcd60e51b81526020600482015260016024820152600d60fa1b60448201526064016113cd565b611d1a83600501805480602002602001604051908101604052809291908181526020018280548015611cbd57602002820191906000526020600020905b815481526020019060010190808311611ca9575b505050505082600701805480602002602001604051908101604052809291908181526020018280548015611d1057602002820191906000526020600020905b815481526020019060010190808311611cfc575b5050505050611862565b611d4a5760405162461bcd60e51b81526020600482015260016024820152603560f81b60448201526064016113cd565b826003015481600401541015611d865760405162461bcd60e51b81526020600482015260016024820152601b60f91b60448201526064016113cd565b600283015460ff166004811115611d9f57611d9f613f65565b600282015460ff166004811115611db857611db8613f65565b14611de95760405162461bcd60e51b81526020600482015260016024820152603760f81b60448201526064016113cd565b806006015483600401548460030154611e029190614a00565b1115611e345760405162461bcd60e51b81526020600482015260016024820152600760fb1b60448201526064016113cd565b600181015460009081526007602052604081206003850154600f549192909168056bc75e2d6310000090611e689084614c5a565b611e729190614a00565b90506000611e8082846145e9565b905060006040518060e00160405280600d805490506001611ea191906145c0565b8152895460208083019190915288546040808401919091526060808401899052608080850189905282518085018452600080825260a0808801929092524260c090970196909652600d80546001810182559652865160079096027fd7b6990105719101dabeb77144f2a3385c8033acd3af97e9423a695e81ad1eb58101968755948701517fd7b6990105719101dabeb77144f2a3385c8033acd3af97e9423a695e81ad1eb6860155928601517fd7b6990105719101dabeb77144f2a3385c8033acd3af97e9423a695e81ad1eb7850155908501517fd7b6990105719101dabeb77144f2a3385c8033acd3af97e9423a695e81ad1eb88401558401517fd7b6990105719101dabeb77144f2a3385c8033acd3af97e9423a695e81ad1eb983015583015192935083927fd7b6990105719101dabeb77144f2a3385c8033acd3af97e9423a695e81ad1eba90910190611ff79082614c71565b5060c091909101516006918201558151908801805460018101825560009182526020822001919091556004870180548692906120349084906145e9565b92505081905550826023600082825461204d91906145c0565b9091555050602254600090612060610ccd565b61206a91906145e9565b9050600081851161207b578461207d565b815b9050806022600082825461209191906145c0565b909155506000905068056bc75e2d631000006120ae83600a614c5a565b6120c090670de0b6b3a7640000614c5a565b6120ca9190614a00565b9050600068056bc75e2d631000006120e384600f614c5a565b6120f590670de0b6b3a7640000614c5a565b6120ff9190614a00565b905060008161210e84866145e9565b61211891906145e9565b9050801561213657602154612136906001600160a01b0316826134c0565b60018c01546001600160a01b03166121ac57811561216857818c600201600082825461216291906145c0565b90915550505b868c600301600082825461217c91906145c0565b90915550506040516000805160206151a38339815191529061219f908e906147a8565b60405180910390a1612247565b81156121ca5760018c01546121ca906001600160a01b0316836134c0565b601d5460018d015460405163a9059cbb60e01b81526001600160a01b039283169263a9059cbb92612202929116908b906004016145fc565b6020604051808303816000875af1158015612221573d6000803e3d6000fd5b505050506040513d601f19601f820116820180604052508101906122459190614615565b505b82156122bb5760018a01546001600160a01b03166122a357828a600201600082825461227391906145c0565b90915550506040516000805160206151a383398151915290612296908c906147a8565b60405180910390a16122bb565b60018a01546122bb906001600160a01b0316846134c0565b7f163f215ebbfd927d87234e39d082b1b03b551dadbca611aab6568ee11a75e8d7866040516122ea9190614d28565b60405180910390a16000805160206151438339815191528b60405161230f91906146f4565b60405180910390a150505050505050505050505050808061232f9061478f565b915050611b13565b6000612341612755565b905060005b828110156111cc57600060146000868685818110612366576123666145d3565b905060200201602081019061237b919061402a565b6001600160a01b03166001600160a01b03168152602001908152602001600020905060008160020154116123d95760405162461bcd60e51b8152602060048201526005602482015264076617620360dc1b60448201526064016113cd565b828160020154106124145760405162461bcd60e51b8152602060048201526005602482015264766176203160d81b60448201526064016113cd565b600381015460ff16156124515760405162461bcd60e51b81526020600482015260056024820152643b30bb101960d91b60448201526064016113cd565b60038101805460ff191660011790558054601780546000906124749084906145c0565b909155505060018101546001600160a01b031660009081526016602052604090205480156124ef57600060156124ab6001846145e9565b815481106124bb576124bb6145d3565b9060005260206000209060020201905082600001548160000160008282546124e391906145c0565b9091555061257f915050565b6015805460018181018355845460029092027f55f448fdea98c4d29eb340757ef0a66cd03dbb9538908a6a81d96026b71ec475810192909255840180547f55f448fdea98c4d29eb340757ef0a66cd03dbb9538908a6a81d96026b71ec47690920180546001600160a01b0319166001600160a01b0393841617905591549154166000908152601660205260409020555b6000805160206151238339815191528260405161259c9190614d8d565b60405180910390a1505080806125b19061478f565b915050612346565b6000811180156125d1575068056bc75e2d6310000081105b6126065760405162461bcd60e51b815260206004820152600660248201526507366727620360d41b60448201526064016113cd565b3360009081526013602052604090208054156126255761262533613882565b6000612630336115e5565b90506000811161266b5760405162461bcd60e51b815260206004820152600660248201526573667276203160d01b60448201526064016113cd565b8060115461267991906145c0565b6126838483614c5a565b6011546010546126939190614c5a565b61269d91906145c0565b6126a79190614a00565b60108190555080601160008282546126bf91906145c0565b9091555050815560010155565b600033816126da8286612afa565b90508381101561273a5760405162461bcd60e51b815260206004820152602560248201527f45524332303a2064656372656173656420616c6c6f77616e63652062656c6f77604482015264207a65726f60d81b60648201526084016113cd565b610c3e828686840361312d565b600033610a698185856132c5565b600061162c6213c68042614a00565b6020546001600160a01b031633148061279557506127806118fe565b6001600160a01b0316336001600160a01b0316145b61279e57600080fd5b600060096127ad6001856145e9565b815481106127bd576127bd6145d3565b6000918252602080832060016008909302018281015484526007909152604090922090810154919250906001600160a01b03161580156127fd5750805415155b61280657600080fd5b6111cc828461397c565b6020546001600160a01b0316331480612841575061282c6118fe565b6001600160a01b0316336001600160a01b0316145b61284a57600080fd5b601c80546001810182556000919091527f0e4562a10381dec21b205ed72637e6b1b523bdd0e4d4d50af5cd23dd4500a21101610e7a828483614dc6565b61288f613703565b6020546001600160a01b03161580156128b157506021546001600160a01b0316155b6128ba57600080fd5b602080546001600160a01b039384166001600160a01b03199182161790915560218054929093169116179055565b60606015805480602002602001604051908101604052809291908181526020016000905b828210156115b75760008481526020908190206040805180820190915260028502909101805482526001908101546001600160a01b031682840152908352909201910161290c565b600061295f60035490565b905060245460000361299457601e5460258190556024556000612980612755565b9050602654810361299057600080fd5b6026555b60006024546025546129a691906145e9565b905060006024548260646129ba91906145c0565b11156129c8576024546129d3565b6129d38260646145c0565b9050815b81811015612ac5576000601e82815481106129f4576129f46145d3565b60009182526020822001546001600160a01b03169150612a13826115e5565b905060008660235483612a269190614c5a565b612a309190614a00565b601d5460405163a9059cbb60e01b81529192506001600160a01b03169063a9059cbb90612a6390869085906004016145fc565b6020604051808303816000875af1158015612a82573d6000803e3d6000fd5b505050506040513d601f19601f82011682018060405250810190612aa69190614615565b612aaf57600080fd5b5050508080612abd9061478f565b9150506129d7565b508060246000828254612ad891906145e9565b9091555050602454600003610e7a576000602355505050565b61161233613882565b6001600160a01b03918216600090815260026020908152604080832093909416825291909152205490565b612b2d613703565b6001600160a01b038116612b925760405162461bcd60e51b815260206004820152602660248201527f4f776e61626c653a206e6577206f776e657220697320746865207a65726f206160448201526564647265737360d01b60648201526084016113cd565b612b9b81613762565b50565b6001600160a01b038116612bdc5760405162461bcd60e51b8152602060048201526005602482015264073617620360dc1b60448201526064016113cd565b6000612be7336115e5565b905060008111612c215760405162461bcd60e51b8152602060048201526005602482015264736176203160d81b60448201526064016113cd565b336000908152601460205260409020805415612c4057612c40336139c0565b6040518060800160405280838152602001846001600160a01b03168152602001612c68612755565b8152600060209182018190523381526014825260409081902083518155918301516001830180546001600160a01b0319166001600160a01b0390921691909117905582810151600283015560609092015160038201805460ff1916911515919091179055905160008051602061512383398151915291612ce791614d8d565b60405180910390a1505050565b611612336139c0565b3360009081526008602090815260408083205483526007909152902060018101546001600160a01b0316612d3057600080fd5b60006009612d3f6001866145e9565b81548110612d4f57612d4f6145d3565b906000526020600020906008020190506000816000015411612d7057600080fd5b8154600182015414612d8157600080fd5b6111cc818461397c565b60158181548110612d9b57600080fd5b6000918252602090912060029091020180546001909101549091506001600160a01b031682565b60098181548110612dd257600080fd5b6000918252602090912060089091020180546001820154600283015460038401546004850154600686018054959750939560ff909316949193909291612e1790614576565b80601f0160208091040260200160405190810160405280929190818152602001828054612e4390614576565b8015612e905780601f10612e6557610100808354040283529160200191612e90565b820191906000526020600020905b815481529060010190602001808311612e7357829003601f168201915b505050505090806007018054612ea590614576565b80601f0160208091040260200160405190810160405280929190818152602001828054612ed190614576565b8015612f1e5780601f10612ef357610100808354040283529160200191612f1e565b820191906000526020600020905b815481529060010190602001808311612f0157829003601f168201915b5050505050905087565b6020546001600160a01b0316331480612f595750612f446118fe565b6001600160a01b0316336001600160a01b0316145b612f6257600080fd5b60005b81811015610e7a57612f9d838383818110612f8257612f826145d3565b9050602002810190612f949190614e7f565b60200135613469565b6009838383818110612fb157612fb16145d3565b9050602002810190612fc39190614e7f565b815460018101835560009283526020909220909160080201612fe58282614fa7565b50506009805460009190612ffb906001906145e9565b8154811061300b5761300b6145d3565b6000918252602090912060095460089092020190815560405190915060008051602061518383398151915290613042908390614bbd565b60405180910390a150806130558161478f565b915050612f65565b6060601c805480602002602001604051908101604052809291908181526020016000905b828210156115b75783829060005260206000200180546130a090614576565b80601f01602080910402602001604051908101604052809291908181526020018280546130cc90614576565b80156131195780601f106130ee57610100808354040283529160200191613119565b820191906000526020600020905b8154815290600101906020018083116130fc57829003601f168201915b505050505081526020019060010190613081565b6001600160a01b03831661318f5760405162461bcd60e51b8152602060048201526024808201527f45524332303a20617070726f76652066726f6d20746865207a65726f206164646044820152637265737360e01b60648201526084016113cd565b6001600160a01b0382166131f05760405162461bcd60e51b815260206004820152602260248201527f45524332303a20617070726f766520746f20746865207a65726f206164647265604482015261737360f01b60648201526084016113cd565b6001600160a01b0383811660008181526002602090815260408083209487168084529482529182902085905590518481527f8c5be1e5ebec7d5bd14f71427d1e84f3dd0314c0f7b2291e5b200ac8c7c3b925910160405180910390a3505050565b600061325d8484612afa565b905060001981146111cc57818110156132b85760405162461bcd60e51b815260206004820152601d60248201527f45524332303a20696e73756666696369656e7420616c6c6f77616e636500000060448201526064016113cd565b6111cc848484840361312d565b6001600160a01b0383166133295760405162461bcd60e51b815260206004820152602560248201527f45524332303a207472616e736665722066726f6d20746865207a65726f206164604482015264647265737360d81b60648201526084016113cd565b6001600160a01b03821661338b5760405162461bcd60e51b815260206004820152602360248201527f45524332303a207472616e7366657220746f20746865207a65726f206164647260448201526265737360e81b60648201526084016113cd565b613396838383613ae4565b6001600160a01b0383166000908152600160205260409020548181101561340e5760405162461bcd60e51b815260206004820152602660248201527f45524332303a207472616e7366657220616d6f756e7420657863656564732062604482015265616c616e636560d01b60648201526084016113cd565b6001600160a01b0380851660008181526001602052604080822086860390559286168082529083902080548601905591516000805160206151c38339815191529061345c9086815260200190565b60405180910390a36111cc565b6000818152600760205260408120549003612b9b5760008181526007602052604081208290556006805460018101825591527ff652222313e28459528d920b65115c16c04f3efc82aaedc97be59f3f377c0d3f0155565b602454156134f95760405162461bcd60e51b81526004016113cd906020808252600490820152630534d20360e41b604082015260600190565b611ac38282613bc4565b600081606001511161351457600080fd5b60008160a00151511161352657600080fd5b601d5460608201516040516323b872dd60e01b815233600482015230602482015260448101919091526001600160a01b03909116906323b872dd906064016020604051808303816000875af1158015613583573d6000803e3d6000fd5b505050506040513d601f19601f820116820180604052508101906135a79190614615565b6135b057600080fd5b600c805460018181018355600092909252825160099091027fdf6966c971051c3d54ec59162606531493a51404a002842f56009d7e5cf4a8c7810191825560208401517fdf6966c971051c3d54ec59162606531493a51404a002842f56009d7e5cf4a8c882015560408401517fdf6966c971051c3d54ec59162606531493a51404a002842f56009d7e5cf4a8c99091018054859460ff199091169083600481111561365d5761365d613f65565b0217905550606082015160038201556080820151600482015560a0820151600582019061368a9082614c71565b5060c0820151600682015560e082015180516136b0916007840191602090910190613db4565b5061010091909101516008909101558051600583018054600181018255600091825260209091200155604051600080516020615143833981519152906136f790839061508f565b60405180910390a15050565b3361370c6118fe565b6001600160a01b0316146116125760405162461bcd60e51b815260206004820181905260248201527f4f776e61626c653a2063616c6c6572206973206e6f7420746865206f776e657260448201526064016113cd565b600080546001600160a01b038381166001600160a01b0319831681178455604051919092169283917f8be0079c531659141344cd1fd0a4f28419497f9722a3daafe3b4186f6b6457e09190a35050565b60006027546000146137c357600080fd5b6000828152600b6020526040902054801561380b57600a6137e56001836145e9565b815481106137f5576137f56145d3565b9060005260206000209060060201915050919050565b5050600a805460018101918290556006027fc65a7bb8d6351c1cf70c95a316cc6a92839c986682d98bc35f958f4883f9d2a881018281557fc65a7bb8d6351c1cf70c95a316cc6a92839c986682d98bc35f958f4883f9d2a99091018390556000928352600b60205260409092205590565b50919050565b6001600160a01b038116600090815260136020526040902080546138d15760405162461bcd60e51b815260206004820152600660248201526507266727620360d41b60448201526064016113cd565b80546011546000916138e2916145e9565b905060006011546010546138f69190614c5a565b905060008360010154846000015461390e9190614c5a565b9050600081831161392057600061392a565b61392a82846145e9565b905083156139495761393c8482614a00565b6010556011849055613955565b600e5460105560006011555b5050506001600160a01b039092166000908152601360205260408120818155600101555050565b6000811161398957600080fd5b600061399883600001546137b2565b905081816003018190555060008051602061516383398151915281604051612ce79190614a22565b6001600160a01b03811660009081526014602052604090208054613a0f5760405162461bcd60e51b815260206004820152600660248201526507261766820360d41b60448201526064016113cd565b600381015460ff1615613aa257805460178054600090613a309084906145e9565b909155505060018101546001600160a01b031660009081526016602052604090205480613a5c57600080fd5b81546015613a6b6001846145e9565b81548110613a7b57613a7b6145d3565b90600052602060002090600202016000016000828254613a9b91906145e9565b9091555050505b506001600160a01b031660009081526014602052604081208181556001810180546001600160a01b03191690556002810191909155600301805460ff19169055565b6001600160a01b0382166000908152601f602052604090205460ff16158015613b0d5750600081115b15613b7657601e805460018082019092557f50bb669a95c7b50b7e8a6f09454034b2b14cf2b85c730dca9a539ca82cb6e3500180546001600160a01b0319166001600160a01b0385169081179091556000908152601f60205260409020805460ff191690911790555b6001600160a01b03831660009081526013602052604090205415613b9d57613b9d83613882565b6001600160a01b03831660009081526014602052604090205415610e7a57610e7a836139c0565b613bcc610ccd565b81613bd660035490565b613be091906145c0565b1115613c2a5760405162461bcd60e51b8152602060048201526019602482015278115490cc8c10d85c1c19590e8818d85c08195e18d959591959603a1b60448201526064016113cd565b611ac382826001600160a01b038216613c855760405162461bcd60e51b815260206004820152601f60248201527f45524332303a206d696e7420746f20746865207a65726f20616464726573730060448201526064016113cd565b613c9160008383613ae4565b8060036000828254613ca391906145c0565b90915550506001600160a01b0382166000818152600160209081526040808320805486019055518481526000805160206151c3833981519152910160405180910390a35050565b60405180606001604052806003906020820280368337509192915050565b828054828255906000526020600020908101928215613d43579160200282015b82811115613d43578235825591602001919060010190613d28565b50613d4f929150613def565b5090565b828054828255906000526020600020908101928215613d435760005260206000209182015b82811115613d43578254825591600101919060010190613d78565b5080546000825560060290600052602060002090810190612b9b9190613e04565b828054828255906000526020600020908101928215613d43579160200282015b82811115613d43578251825591602001919060010190613dd4565b5b80821115613d4f5760008155600101613df0565b80821115613d4f57600080825560018201819055613e256002830182613e4e565b60038201600090556004820160009055600582016000613e459190613e88565b50600601613e04565b508054613e5a90614576565b6000825580601f10613e6a575050565b601f016020900490600052602060002090810190612b9b9190613def565b5080546000825590600052602060002090810190612b9b9190613def565b6000815180845260005b81811015613ecc57602081850181015186830182015201613eb0565b506000602082860101526020601f19601f83011685010191505092915050565b602081526000613eff6020830184613ea6565b9392505050565b80356001600160a01b0381168114613f1d57600080fd5b919050565b60008060408385031215613f3557600080fd5b613f3e83613f06565b946020939093013593505050565b600060208284031215613f5e57600080fd5b5035919050565b634e487b7160e01b600052602160045260246000fd5b60058110613f9957634e487b7160e01b600052602160045260246000fd5b9052565b60006101008a8352896020840152613fb8604084018a613f7b565b8760608401528660808401528060a0840152613fd681840187613ea6565b60c0840195909552505060e001529695505050505050565b60008060006060848603121561400357600080fd5b61400c84613f06565b925061401a60208501613f06565b9150604084013590509250925092565b60006020828403121561403c57600080fd5b613eff82613f06565b60008083601f84011261405757600080fd5b5081356001600160401b0381111561406e57600080fd5b6020830191508360208260051b850101111561408957600080fd5b9250929050565b600080602083850312156140a357600080fd5b82356001600160401b038111156140b957600080fd5b6140c585828601614045565b90969095509350505050565b60008083601f8401126140e357600080fd5b5081356001600160401b038111156140fa57600080fd5b6020830191508360208260061b850101111561408957600080fd5b6000806020838503121561412857600080fd5b82356001600160401b0381111561413e57600080fd5b6140c5858286016140d1565b60608101818360005b600381101561417b5781516001600160a01b0316835260209283019290910190600101614153565b50505092915050565b6000602080830181845280855180835260408601915060408160051b870101925083870160005b828110156141d957603f198886030184526141c7858351613ea6565b945092850192908501906001016141ab565b5092979650505050505050565b87815286602082015285604082015284606082015283608082015260e060a0820152600061421760e0830185613ea6565b90508260c083015298975050505050505050565b85815284602082015260a06040820152600061424a60a0830186613ea6565b606083019490945250608001529392505050565b6000806000806060858703121561427457600080fd5b843593506020850135925060408501356001600160401b0381111561429857600080fd5b6142a487828801614045565b95989497509550505050565b634e487b7160e01b600052604160045260246000fd5b60405160c081016001600160401b03811182821017156142e8576142e86142b0565b60405290565b604051601f8201601f191681016001600160401b0381118282101715614316576143166142b0565b604052919050565b600082601f83011261432f57600080fd5b813560206001600160401b0382111561434a5761434a6142b0565b8160051b6143598282016142ee565b928352848101820192828101908785111561437357600080fd5b83870192505b8483101561439257823582529183019190830190614379565b979650505050505050565b600080604083850312156143b057600080fd5b82356001600160401b03808211156143c757600080fd5b6143d38683870161431e565b935060208501359150808211156143e957600080fd5b506143f68582860161431e565b9150509250929050565b6000806040838503121561441357600080fd5b50508035926020909101359150565b6000806020838503121561443557600080fd5b82356001600160401b038082111561444c57600080fd5b818501915085601f83011261446057600080fd5b81358181111561446f57600080fd5b86602082850101111561448157600080fd5b60209290920196919550909350505050565b600080604083850312156144a657600080fd5b6144af83613f06565b91506144bd60208401613f06565b90509250929050565b602080825282518282018190526000919060409081850190868401855b82811015614511578151805185528601516001600160a01b03168685015292840192908501906001016144e3565b5091979650505050505050565b8781528660208201526145346040820187613f7b565b84606082015283608082015260e060a0820152600061455660e0830185613ea6565b82810360c08401526145688185613ea6565b9a9950505050505050505050565b600181811c9082168061458a57607f821691505b60208210810361387c57634e487b7160e01b600052602260045260246000fd5b634e487b7160e01b600052601160045260246000fd5b80820180821115610a6f57610a6f6145aa565b634e487b7160e01b600052603260045260246000fd5b81810381811115610a6f57610a6f6145aa565b6001600160a01b03929092168252602082015260400190565b60006020828403121561462757600080fd5b81518015158114613eff57600080fd5b6000815461464481614576565b808552602060018381168015614661576001811461467b576146a9565b60ff1985168884015283151560051b8801830195506146a9565b866000528260002060005b858110156146a15781548a8201860152908301908401614686565b890184019650505b505050505092915050565b6000815480845260208085019450836000528060002060005b838110156146e9578154875295820195600191820191016146cd565b509495945050505050565b6020815281546020820152600182015460408201526000614719600284015460ff1690565b6147266060840182613f7b565b5060038301546080830152600483015460a08301526101208060c0840152614755610140840160058601614637565b600685015460e0850152838103601f190161010085015261477981600787016146b4565b9050600885015482850152809250505092915050565b6000600182016147a1576147a16145aa565b5060010190565b602080825282549082015260018201546001600160a01b03166040820152600282015460608201526003820154608082015260e060a082015260006147f46101008301600485016146b4565b601f19808483030160c085015261480e82600587016146b4565b9150808483030160e08501525061482881600686016146b4565b949350505050565b6000823560be1983360301811261484657600080fd5b9190910192915050565b60058110612b9b57600080fd5b8035613f1d81614850565b600082601f83011261487957600080fd5b81356001600160401b03811115614892576148926142b0565b6148a5601f8201601f19166020016142ee565b8181528460208386010111156148ba57600080fd5b816020850160208301376000918101602001919091529392505050565b600060c082840312156148e957600080fd5b6148f16142c6565b90506148fc8261485d565b81526020828101359082015260408201356001600160401b038082111561492257600080fd5b61492e85838601614868565b604084015260608401356060840152608084013591508082111561495157600080fd5b5061495e8482850161431e565b60808301525060a082013560a082015292915050565b6000610a6f36836148d7565b60008235603e1983360301811261484657600080fd5b6000604082360312156149a857600080fd5b604080519081016001600160401b0380821183831017156149cb576149cb6142b0565b816040528435835260208501359150808211156149e757600080fd5b506149f4368286016148d7565b60208301525092915050565b600082614a1d57634e487b7160e01b600052601260045260246000fd5b500490565b60208152815460208201526001820154604082015260c060608201526000614a5060e0830160028501614637565b60038401546080840152600484015460a0840152828103601f190160c084015261482881600586016146b4565b5b81811015611ac35760008155600101614a7e565b601f821115610e7a57806000526020600020601f840160051c81016020851015614ab95750805b614acb601f850160051c830182614a7d565b5050505050565b600019600383901b1c191660019190911b1790565b818103614af2575050565b614afc8254614576565b6001600160401b03811115614b1357614b136142b0565b614b2781614b218454614576565b84614a92565b6000601f821160018114614b555760008315614b435750848201545b614b4d8482614ad2565b855550614acb565b600085815260209020601f19841690600086815260209020845b83811015614b8f5782860154825560019586019590910190602001614b6f565b5085831015614bad5781850154600019600388901b60f8161c191681555b5050505050600190811b01905550565b6020815281546020820152600182015460408201526000614be2600284015460ff1690565b614bef6060840182613f7b565b5060038301546080830152600483015460a08301526101008060c0840152614c1e6101208401600586016146b4565b601f19808583030160e0860152614c388260068801614637565b915080858303018386015250614c518160078701614637565b95945050505050565b8082028115828204841417610a6f57610a6f6145aa565b81516001600160401b03811115614c8a57614c8a6142b0565b614c9881614b218454614576565b602080601f831160018114614cc75760008415614cb55750858301515b614cbf8582614ad2565b865550614d20565b600085815260208120601f198616915b82811015614cf657888601518255948401946001909101908401614cd7565b5085821015614d145787850151600019600388901b60f8161c191681555b505060018460011b0185555b505050505050565b6020815281516020820152602082015160408201526040820151606082015260608201516080820152608082015160a0820152600060a083015160e060c0840152614d77610100840182613ea6565b905060c084015160e08401528091505092915050565b8154815260018201546001600160a01b0316602082015260028201546040820152600382015460ff161515606082015260808101610a6f565b6001600160401b03831115614ddd57614ddd6142b0565b614df183614deb8354614576565b83614a92565b6000601f841160018114614e1f5760008515614e0d5750838201355b614e178682614ad2565b845550614acb565b600083815260209020601f19861690835b82811015614e505786850135825560209485019460019092019101614e30565b5086821015614e6d5760001960f88860031b161c19848701351681555b505060018560011b0183555050505050565b6000823560fe1983360301811261484657600080fd5b6000808335601e19843603018112614eac57600080fd5b8301803591506001600160401b03821115614ec657600080fd5b6020019150600581901b360382131561408957600080fd5b6001600160401b03831115614ef557614ef56142b0565b600160401b831115614f0957614f096142b0565b805483825580841015614f2f57816000526020600020614f2d828201868301614a7d565b505b50818160005260208060002060005b86811015614f585783358282015592820192600101614f3e565b50505050505050565b6000808335601e19843603018112614f7857600080fd5b8301803591506001600160401b03821115614f9257600080fd5b60200191503681900382131561408957600080fd5b8135815560208201356001820155600281016040830135614fc781614850565b60058110614fe557634e487b7160e01b600052602160045260246000fd5b60ff1982541660ff821681178355505050606082013560038201556080820135600482015561501760a0830183614e95565b615025818360058601614ede565b505061503460c0830183614f61565b615042818360068601614dc6565b505061505160e0830183614f61565b6111cc818360078601614dc6565b600081518084526020808501945080840160005b838110156146e957815187529582019590820190600101615073565b602081528151602082015260208201516040820152600060408301516150b86060840182613f7b565b5060608301516080830152608083015160a083015260a08301516101208060c08501526150e9610140850183613ea6565b915060c085015160e085015260e0850151610100601f198685030181870152615112848361505f565b960151919094015250919291505056fee08472d1275fefbb15ff0aea278bb1f42c491be3fa4358160826ba7e420ae613988cbfdf9710a9b89faec272f5e449b4eb56c67d8b31a40c3eec1f6b6cc544af5fec2c3deda50104f2a05317dee057b5944c230a7ccc2c95ed3b4f5c064d8e5dedd5439ee2c38625cd5c8112e1cf787e9018e2d495cde02f0c9414216bfc9282e1ab017037dfdbe8aeea88ca10733a62fe91b3791c7ab2f30b54a9e2a0b0d319ddf252ad1be2c89b69c2b068fc378daa952ba7f163c4a11628f55a4df523b3efa2646970667358221220c46d74c1ce87bcc9613ff239b1e882f84c8d4f6bde328322dd6d494f038f485064736f6c63430008130033",
  "immutableReferences": {
    "785": [
      {
        "length": 32,
        "start": 3279
      }
    ]
  },
  "source": "// SPDX-License-Identifier: MIT\npragma solidity ^0.8.9;\nimport \"@openzeppelin/contracts/access/Ownable.sol\";\nimport \"@openzeppelin/contracts/token/ERC20/extensions/ERC20Capped.sol\";\n\ncontract Asami is Ownable, ERC20Capped {\n  enum Site { X, Instagram, LinkedIn, Facebook, Nostr}\n\n  struct Account {\n    uint256 id;\n    address addr;\n    uint256 unclaimedAsamiTokens;\n    uint256 unclaimedDocRewards;\n    uint256[] handles;\n    uint256[] campaigns;\n    uint256[] collabs;\n  }\n  uint256[] public accountIds;\n  mapping(uint256 => Account) public accounts;\n  mapping(address => uint256) public accountIdByAddress;\n  event AccountSaved(Account account);\n\n  struct Handle {\n    uint256 id;\n    uint256 accountId;\n    Site site;\n    uint256 price;\n    uint256 score;\n    uint256[] topics;\n    string username;\n    string userId;\n  }\n  Handle[] public handles;\n  event HandleSaved(Handle handle);\n\n  struct HandleUpdate {\n    uint256 id;\n    uint256 handleId;\n    string username;\n    uint256 price;\n    uint256 score;\n    uint256[] topics;\n  }\n  HandleUpdate[] public handleUpdates;\n  mapping(uint256 => uint256) public handleUpdateByHandleId;\n  event HandleUpdateSaved(HandleUpdate handleUpdate);\n\n  struct Campaign {\n    uint256 id;\n    uint256 accountId;\n    Site site;\n    uint256 budget;\n    uint256 remaining;\n    string contentId;\n    uint256 priceScoreRatio;\n    uint256[] topics;\n    uint256 validUntil;\n  }\n  Campaign[] public campaigns;\n  event CampaignSaved(Campaign campaign);\n\n  struct Collab {\n    uint256 id;\n    uint256 handleId;\n    uint256 campaignId;\n    uint256 gross;\n    uint256 fee;\n    string proof;\n    uint256 createdAt;\n  }\n  Collab[] public collabs;\n  event CollabSaved(Collab collab);\n\n  uint256 public defaultFeeRate = 10 * 1e18;\n  uint256 public feeRate = defaultFeeRate;\n  uint256 public votedFeeRate = defaultFeeRate;\n  uint256 public votedFeeRateVoteCount = 0;\n  /* To make the protocol more predictable, changes are applied only once every period */\n  uint256 public lastVotedFeeRateAppliedOn = 0;\n\n  struct FeeRateVote {\n    uint256 votes;\n    uint256 rate;\n  }\n  mapping(address => FeeRateVote) public feeRateVotes;\n\n  struct AdminVote {\n    uint256 votes;\n    address candidate;\n    uint256 cycle;\n    bool vested;\n  }\n  /* Maps holders to their vote */\n  mapping(address => AdminVote) public submittedAdminVotes;\n  event AdminVoteSaved(AdminVote vote);\n\n  struct AdminVoteCount {\n    uint256 votes;\n    address candidate;\n  }\n\n  /*\n  We're only storing all historic vote counts to have a view function that helps find out\n  which candidate to proclaim without relying on events.\n  */\n  AdminVoteCount[] public adminVoteCounts;\n  mapping(address => uint256) public adminVoteCountIdByCandidate;\n\n  function allAdminVoteCounts() public view returns (AdminVoteCount[] memory) {\n    return adminVoteCounts;\n  }\n\n  uint256 public vestedAdminVotesTotal;\n  uint256 public lastAdminElection;\n  address[3] public latestAdminElections;\n\n  function getLatestAdminElections() public view returns (address[3] memory) {\n    return latestAdminElections;\n  }\n\n  string[] public topics;\n\n  IERC20 internal doc;\n  address[] public holders;\n  mapping(address => bool) public trackedHolders;\n\n  address public admin; // An address that may be stored on a server.\n  address public adminTreasury; // A cold storage address for admin money.\n\n  uint256 public claimedAsamiTokens;\n\n  modifier onlyAdmin() {\n    require(msg.sender == admin || msg.sender == owner());\n    _;\n  }\n\n  constructor(address _dollarOnChainAddress) ERC20(\"AsamiToken\", \"ASAMI\") ERC20Capped(21 * 1e24) {\n    doc = IERC20(_dollarOnChainAddress);\n  }\n\n  function _beforeTokenTransfer(address from, address to, uint256 amount) internal override {\n    super._beforeTokenTransfer(from, to, amount);\n    if (!trackedHolders[to] && amount > 0) {\n      holders.push(to);\n      trackedHolders[to] = true;\n    }\n\n    if (feeRateVotes[from].votes > 0) { removeFeeRateVoteHelper(from); }\n    if (submittedAdminVotes[from].votes > 0) { removeAdminVoteHelper(from); }\n  }\n\n  function setAdmin(address _admin, address _adminTreasury) external onlyOwner {\n    require(admin == address(0) && adminTreasury == address(0));\n    admin = _admin;\n    adminTreasury = _adminTreasury;\n  }\n\n  function getHolders() public view returns (string[] memory) {\n    return topics;\n  }\n\n  function getClaimedAsamiTokens() public view returns (uint256) {\n    return claimedAsamiTokens;\n  }\n\n  function getTopics() public view returns (string[] memory) {\n    return topics;\n  }\n\n  function addTopic(string calldata _name) public onlyAdmin {\n    topics.push(_name);\n  }\n\n  function ensureAccount(uint256 _accountId) private {\n    if(accounts[_accountId].id == 0) {\n      accounts[_accountId].id = _accountId;\n      accountIds.push(_accountId);\n    }\n  }\n\n  struct AdminClaimAccountsInput {\n    uint256 accountId;\n    address addr;\n  }\n\n  function claimAccounts (\n    AdminClaimAccountsInput[] calldata _input\n  ) public onlyAdmin {\n    for( uint256 i = 0; i < _input.length; i++) {\n      AdminClaimAccountsInput calldata claim = _input[i];\n      ensureAccount(claim.accountId);\n\n      Account storage account = accounts[claim.accountId];\n      require(account.addr == address(0));\n\n      accountIdByAddress[claim.addr] = claim.accountId;\n      account.addr = claim.addr;\n\n      if(account.unclaimedAsamiTokens > 0) {\n        _safeMint(claim.addr, account.unclaimedAsamiTokens);\n        account.unclaimedAsamiTokens = 0;\n      }\n\n      if(account.unclaimedDocRewards > 0) {\n        doc.transfer(account.addr, account.unclaimedDocRewards);\n        account.unclaimedDocRewards = 0;\n      }\n\n      emit AccountSaved(account);\n    }\n  }\n\n  function adminMakeHandles (\n    Handle[] calldata _inputs\n  ) external onlyAdmin {\n\n    for( uint256 i = 0; i < _inputs.length; i++) {\n      ensureAccount(_inputs[i].accountId);\n\n      handles.push(_inputs[i]);\n      Handle storage h = handles[handles.length - 1];\n      h.id = handles.length;\n      emit HandleSaved(h);\n    }\n  }\n\n  struct CampaignInput {\n    Site site;\n    uint256 budget;\n    string contentId;\n    uint256 priceScoreRatio;\n    uint256[] topics;\n    uint256 validUntil;\n  }\n  function makeCampaigns(\n    CampaignInput[] calldata _inputs\n  ) public {\n    Account storage account = accounts[accountIdByAddress[msg.sender]];\n    require(account.addr != address(0));\n\n    for( uint i = 0; i < _inputs.length; i++) {\n      CampaignInput memory input = _inputs[i];\n      _saveCampaignHelper(account, Campaign({\n        id: campaigns.length + 1,\n        accountId: account.id,\n        site: input.site,\n        budget: input.budget,\n        remaining: input.budget,\n        contentId: input.contentId,\n        priceScoreRatio: input.priceScoreRatio,\n        topics: input.topics,\n        validUntil: input.validUntil\n      }));\n    }\n  }\n\n  struct AdminCampaignInput {\n    uint256 accountId;\n    CampaignInput attrs;\n  }\n\n  function adminMakeCampaigns(\n    AdminCampaignInput[] calldata _inputs\n  ) public onlyAdmin {\n\n    for( uint i = 0; i < _inputs.length; i++) {\n      AdminCampaignInput memory input = _inputs[i];\n      ensureAccount(input.accountId);\n      Account storage account = accounts[input.accountId];\n      require(account.addr == address(0));\n\n      _saveCampaignHelper(account, Campaign({\n        id: campaigns.length + 1,\n        accountId: account.id,\n        site: input.attrs.site,\n        budget: input.attrs.budget,\n        remaining: input.attrs.budget,\n        contentId: input.attrs.contentId,\n        priceScoreRatio: input.attrs.priceScoreRatio,\n        topics: input.attrs.topics,\n        validUntil: input.attrs.validUntil\n      }));\n    }\n  }\n\n  function _saveCampaignHelper(\n    Account storage _account,\n    Campaign memory _campaign\n  ) private {\n    require(_campaign.budget > 0);\n    require(bytes(_campaign.contentId).length > 0);\n    require(doc.transferFrom(msg.sender, address(this), _campaign.budget));\n\n    campaigns.push(_campaign);\n    _account.campaigns.push(_campaign.id);\n    emit CampaignSaved(_campaign);\n  }\n\n  struct AdminMakeCollabsInput {\n    uint256 campaignId;\n    uint256 handleId;\n  }\n\n  function adminMakeCollabs(AdminMakeCollabsInput[] calldata _collabs) external onlyAdmin {\n    for( uint256 i = 0; i < _collabs.length; i++) {\n      Handle storage handle = handles[_collabs[i].handleId - 1];\n      require(handle.id > 0, \"1\");\n      Account storage member = accounts[handle.accountId];\n\n      Campaign storage campaign = campaigns[_collabs[i].campaignId - 1];\n      require(campaign.id > 0, \"3\");\n      require(campaign.validUntil > block.timestamp, \"4\");\n      require(isSubset(handle.topics, campaign.topics), \"5\");\n\n      require(campaign.remaining >= handle.price, \"6\");\n      require(campaign.site == handle.site, \"7\");\n      require((handle.price / handle.score) <= campaign.priceScoreRatio, \"8\");\n\n      Account storage advertiser = accounts[campaign.accountId];\n\n      uint256 gross = handle.price;\n      uint256 fee = (gross * feeRate) / 1e20;\n      uint256 reward = gross - fee;\n\n      Collab memory collab = Collab({\n        id: collabs.length + 1,\n        handleId: handle.id,\n        campaignId: campaign.id,\n        gross: gross,\n        fee: fee,\n        proof: \"\",\n        createdAt: block.timestamp\n      });\n      collabs.push(collab);\n      member.collabs.push(collab.id);\n\n      campaign.remaining -= gross;\n      feePool += fee;\n\n      uint256 remainingToCap = cap() - claimedAsamiTokens;\n      uint256 newTokens = (fee > remainingToCap) ? remainingToCap : fee;\n      claimedAsamiTokens += newTokens;\n\n      uint256 advertiserTokens = (newTokens * 10 * 1e18) / 100e18;\n      uint256 memberTokens = (newTokens * 15 * 1e18) / 100e18;\n      uint256 adminTokens = newTokens - advertiserTokens - memberTokens;\n\n      if (adminTokens > 0) {\n        _safeMint(adminTreasury, adminTokens);\n      }\n\n      if ( member.addr == address(0) ) {\n        if( memberTokens > 0) {\n          member.unclaimedAsamiTokens += memberTokens;\n        }\n        member.unclaimedDocRewards += reward;\n        emit AccountSaved(member);\n      } else {\n        if( memberTokens > 0) {\n          _safeMint(member.addr, memberTokens);\n        }\n        doc.transfer(member.addr, reward);\n      }\n\n      if ( advertiserTokens > 0 ) {\n        if ( advertiser.addr == address(0) ) {\n          advertiser.unclaimedAsamiTokens += advertiserTokens;\n          emit AccountSaved(advertiser);\n        } else {\n          _safeMint(advertiser.addr, advertiserTokens);\n        }\n      }\n\n      emit CollabSaved(collab);\n      emit CampaignSaved(campaign);\n    }\n  }\n\n  function reimburseDueCampaigns(uint256[] calldata _campaignIds) public {\n    for(uint i = 0; i < _campaignIds.length; i++) {\n      Campaign storage campaign = campaigns[_campaignIds[i] - 1];\n      require(campaign.id > 0);\n      require(campaign.remaining > 0);\n      require(campaign.validUntil < block.timestamp);\n\n      Account storage advertiser = accounts[campaign.accountId];\n      require(doc.transfer(advertiser.addr, campaign.remaining));\n\n      campaign.remaining = 0;\n      emit CampaignSaved(campaign);\n    }\n  }\n\n  // To prevent race conditions, we never mint while we're in the middle of a payout.\n  function _safeMint(address _addr, uint256 _amount) private {\n    require(payoutsRemaining == 0, \"SM 0\");\n    _mint(_addr, _amount);\n  }\n\n  function adminSetPrice(uint256 _handleId, uint256 _price) external onlyAdmin {\n    Handle storage handle = handles[_handleId - 1];\n    Account storage account = accounts[handle.accountId];\n    require(account.addr == address(0) && account.id > 0);\n\n    _setPriceHelper(handle, _price);\n  }\n\n  function setPrice(uint256 _handleId, uint256 _price) external {\n    Account storage account = accounts[accountIdByAddress[msg.sender]];\n    require(account.addr != address(0));\n\n    Handle storage handle = handles[_handleId - 1];\n    require(handle.id > 0);\n    require(handle.accountId == account.id);\n\n    _setPriceHelper(handle, _price);\n  }\n\n  function _setPriceHelper(Handle storage handle, uint256 _price) private {\n    require(_price > 0);\n    HandleUpdate storage update = _getOrCreateHandleUpdate(handle.id);\n    update.price = _price;\n    emit HandleUpdateSaved(update);\n  }\n\n  function adminSetScoreAndTopics(\n    uint256 _handleId,\n    uint256 _score,\n    uint256[] calldata _topics\n  ) external onlyAdmin {\n    HandleUpdate storage update = _getOrCreateHandleUpdate(_handleId);\n    update.score = _score;\n    update.topics = _topics;\n    emit HandleUpdateSaved(update);\n  }\n\n  function _getOrCreateHandleUpdate(uint256 _handleId) private returns (HandleUpdate storage) {\n    // To prevent race conditions in the incremental updating process,\n    // handle updates are inaccesible while they are being applied to handles.\n    require(updatesRemaining == 0);\n\n    uint256 existingId = handleUpdateByHandleId[_handleId];\n\n    if(existingId > 0) {\n      return handleUpdates[existingId - 1];\n    } else {\n      HandleUpdate storage update = handleUpdates.push();\n      update.id = handleUpdates.length;\n      update.handleId = _handleId;\n      handleUpdateByHandleId[_handleId] = update.id;\n      return update;\n    }\n  }\n\n  function getCycleLength() public pure returns (uint256) {\n    return 60 * 60 * 24 * 15;\n  }\n\n  function getCurrentCycle() public view returns (uint256) {\n     return block.timestamp / getCycleLength();\n  }\n\n  function getNextCycle() public view returns (uint256) {\n    return getCurrentCycle() + getCycleLength();\n  }\n\n  /*\n    Distributes the fee pool among token holders.\n    To prevent going over the gas limit, it does up to 100 a time, and can be called many times in a row.\n    Always returns the pending holders.\n    Anyone can call this at any time, but just once per period. It would usually be the admin though.\n  */\n  uint256 public feePool;\n  uint256 public payoutsRemaining = 0;\n  uint256 public payoutsTotal = 0;\n  uint256 public lastPayoutCycle = 0;\n\n  function distributeFeePool() external {\n    uint256 totalSupply = totalSupply();\n\n    if(payoutsRemaining == 0) {\n      // We're starting a new payout of the feePool.\n      // We can only start one payout in each 15 day period.\n      payoutsTotal = holders.length;\n      payoutsRemaining = payoutsTotal;\n      uint256 currentCycle = getCurrentCycle();\n      require(currentCycle != lastPayoutCycle);\n      lastPayoutCycle = currentCycle;\n    }\n\n    uint256 startAt = payoutsTotal - payoutsRemaining;\n\n    uint256 until = (startAt + 100) <= payoutsRemaining ? (startAt + 100) : payoutsRemaining;\n\n    for (uint256 i = startAt; i < until; i++) {\n      address holder = holders[i];\n      uint256 balance = balanceOf(holder);\n      uint256 reward = (balance * feePool) / totalSupply;\n      require(doc.transfer(holder, reward));\n    }\n\n    payoutsRemaining -= until;\n\n    if(payoutsRemaining == 0) {\n      feePool = 0;\n    }\n  }\n\n  uint256 public updatesRemaining = 0;\n  uint256 public updatesTotal = 0;\n  uint256 public lastUpdateCycle = 0;\n\n  function applyHandleUpdates() external {\n    if(updatesRemaining == 0) {\n      // We're starting a new updates cycle.\n      // We can only start one payout in each 15 day period.\n      updatesTotal = handleUpdates.length;\n      updatesRemaining = updatesTotal;\n      uint256 currentCycle = getCurrentCycle();\n      require(currentCycle != lastUpdateCycle);\n      lastUpdateCycle = currentCycle;\n    }\n\n    uint256 startAt = updatesTotal - updatesRemaining;\n\n    uint256 until = (startAt + 100) <= updatesTotal ? (startAt + 100) : updatesTotal;\n\n    for (uint256 i = startAt; i < until; i++) {\n      HandleUpdate storage update = handleUpdates[i];\n      Handle storage handle = handles[update.handleId - 1];\n\n      if (bytes(update.username).length > 0) {\n        handle.username = update.username;\n      }\n\n      if (update.price != 0) {\n        handle.price = update.price;\n      }\n\n      if (update.score != 0) {\n        handle.score = update.score;\n      }\n\n      if (update.topics.length > 0) {\n        handle.topics = update.topics;\n      }\n\n      emit HandleSaved(handle);\n    }\n\n    updatesRemaining -= until;\n\n    if(updatesRemaining == 0) {\n      delete handleUpdates;\n    }\n  }\n\n  function applyVotedFeeRate() external {\n    uint256 currentCycle = getCurrentCycle();\n    require(currentCycle != lastVotedFeeRateAppliedOn);\n    feeRate = votedFeeRate;\n    lastVotedFeeRateAppliedOn = currentCycle;\n  }\n\n  function submitFeeRateVote(uint256 _rate) external {\n    require(_rate > 0 && _rate < 1e20, \"sfrv 0\");\n\n    FeeRateVote storage vote = feeRateVotes[msg.sender];\n    if (vote.votes > 0) { removeFeeRateVoteHelper(msg.sender); }\n\n    uint256 votes = balanceOf(msg.sender);\n    require(votes > 0, \"sfrv 1\");\n\n    votedFeeRate = ((votedFeeRate * votedFeeRateVoteCount) + (votes * _rate)) / (votedFeeRateVoteCount + votes);\n    votedFeeRateVoteCount += votes;\n    vote.votes = votes;\n    vote.rate = _rate;\n  }\n\n  function removeFeeRateVote() external {\n    removeFeeRateVoteHelper(msg.sender);\n  }\n\n  function removeFeeRateVoteHelper(address _holder) private {\n    FeeRateVote storage vote = feeRateVotes[_holder];\n    require(vote.votes > 0, \"rfrv 0\");\n    uint256 nextVoteCount = votedFeeRateVoteCount - vote.votes;\n    uint256 currentVolume = votedFeeRate * votedFeeRateVoteCount;\n    uint256 removedVolume = vote.votes * vote.rate;\n    uint256 nextVolume = currentVolume > removedVolume ? currentVolume - removedVolume : 0;\n\n    if (nextVoteCount > 0) {\n      votedFeeRate = nextVolume / nextVoteCount;\n      votedFeeRateVoteCount = nextVoteCount;\n    } else {\n      votedFeeRate = defaultFeeRate;\n      votedFeeRateVoteCount = 0;\n    }\n    delete feeRateVotes[_holder];\n  }\n\n  function submitAdminVote(address _candidate) external {\n    require(_candidate != address(0), \"sav 0\");\n    uint256 votes = balanceOf(msg.sender);\n    require(votes > 0, \"sav 1\");\n\n    AdminVote storage existing = submittedAdminVotes[msg.sender];\n    if (existing.votes > 0 ){\n      removeAdminVoteHelper(msg.sender);\n    }\n\n    submittedAdminVotes[msg.sender] = AdminVote({\n      candidate: _candidate,\n      votes: votes,\n      cycle: getCurrentCycle(),\n      vested: false\n    });\n\n    emit AdminVoteSaved(submittedAdminVotes[msg.sender]);\n  }\n\n  function vestAdminVotes(address[] calldata _holders) external {\n    uint256 thisCycle = getCurrentCycle();\n\n    for (uint256 i = 0; i < _holders.length; i++) {\n      AdminVote storage vote = submittedAdminVotes[_holders[i]];\n      require(vote.cycle > 0, \"vav 0\");\n      require(vote.cycle < thisCycle, \"vav 1\");\n      require(!vote.vested, \"vav 2\");\n      vote.vested = true;\n      vestedAdminVotesTotal += vote.votes;\n\n      uint256 voteCountId = adminVoteCountIdByCandidate[vote.candidate];\n      if (voteCountId > 0) {\n        AdminVoteCount storage count = adminVoteCounts[voteCountId - 1];\n        count.votes += vote.votes;\n      } else {\n        AdminVoteCount storage count = adminVoteCounts.push();\n        count.votes = vote.votes;\n        count.candidate = vote.candidate; \n        adminVoteCountIdByCandidate[vote.candidate] = adminVoteCounts.length;\n      }\n      emit AdminVoteSaved(vote);\n    }\n  }\n\n  function proclaimCycleAdminWinner(address _candidate) external {\n    uint256 voteCountId = adminVoteCountIdByCandidate[_candidate];\n    require(voteCountId > 0);\n    AdminVoteCount storage count = adminVoteCounts[voteCountId - 1];\n\n    require(count.votes > vestedAdminVotesTotal / 2, \"pcw 0\");\n    require(vestedAdminVotesTotal > 0, \"pcw 1\");\n    uint256 thisCycle = getCurrentCycle();\n    require(lastAdminElection < thisCycle, \"pcw 2\");\n\n    lastAdminElection = thisCycle;\n    latestAdminElections[2] = latestAdminElections[1];\n    latestAdminElections[1] = latestAdminElections[0];\n    latestAdminElections[0] = _candidate;\n\n    if (_candidate == latestAdminElections[1] && _candidate == latestAdminElections[2]) {\n      admin = _candidate;\n      adminTreasury = _candidate;\n    }\n  }\n\n  function removeAdminVote() external {\n    removeAdminVoteHelper(msg.sender);\n  }\n\n  function removeAdminVoteHelper(address _holder) private {\n    AdminVote storage vote = submittedAdminVotes[_holder];\n    require(vote.votes > 0, \"ravh 0\");\n    if ( vote.vested ) {\n      vestedAdminVotesTotal -= vote.votes;\n\n      uint256 voteCountId = adminVoteCountIdByCandidate[vote.candidate];\n      require(voteCountId > 0);\n      adminVoteCounts[voteCountId - 1].votes -= vote.votes;\n    }\n    delete submittedAdminVotes[_holder];\n  }\n\n  function setAdminAddress(address _admin) external {\n    require(msg.sender == adminTreasury);\n    admin = _admin;\n  }\n\n  function isSubset(uint256[] memory mainSet, uint256[] memory subset) public pure returns (bool) {\n    for (uint256 i = 0; i < subset.length; i++) {\n      bool found = false;\n\n      for (uint256 j = 0; j < mainSet.length; j++) {\n        if (subset[i] == mainSet[j]) {\n          found = true;\n          break;\n        }\n      }\n\n      if (!found) {\n        return false;\n      }\n    }\n\n    return true;\n  }\n}\n",
  "sourcePath": "/home/nubis/asami/contract/contracts/Asami.sol",
  "compiler": {
    "name": "solc",
    "version": "0.8.19+commit.7dd6d404.Emscripten.clang"
  },
  "schemaVersion": "3.4.15",
  "updatedAt": "2024-01-19T12:07:22.658Z",
  "networkType": "ethereum",
  "devdoc": {
    "events": {
      "Approval(address,address,uint256)": {
        "details": "Emitted when the allowance of a `spender` for an `owner` is set by a call to {approve}. `value` is the new allowance."
      },
      "Transfer(address,address,uint256)": {
        "details": "Emitted when `value` tokens are moved from one account (`from`) to another (`to`). Note that `value` may be zero."
      }
    },
    "kind": "dev",
    "methods": {
      "allowance(address,address)": {
        "details": "See {IERC20-allowance}."
      },
      "approve(address,uint256)": {
        "details": "See {IERC20-approve}. NOTE: If `amount` is the maximum `uint256`, the allowance is not updated on `transferFrom`. This is semantically equivalent to an infinite approval. Requirements: - `spender` cannot be the zero address."
      },
      "balanceOf(address)": {
        "details": "See {IERC20-balanceOf}."
      },
      "cap()": {
        "details": "Returns the cap on the token's total supply."
      },
      "decimals()": {
        "details": "Returns the number of decimals used to get its user representation. For example, if `decimals` equals `2`, a balance of `505` tokens should be displayed to a user as `5.05` (`505 / 10 ** 2`). Tokens usually opt for a value of 18, imitating the relationship between Ether and Wei. This is the default value returned by this function, unless it's overridden. NOTE: This information is only used for _display_ purposes: it in no way affects any of the arithmetic of the contract, including {IERC20-balanceOf} and {IERC20-transfer}."
      },
      "decreaseAllowance(address,uint256)": {
        "details": "Atomically decreases the allowance granted to `spender` by the caller. This is an alternative to {approve} that can be used as a mitigation for problems described in {IERC20-approve}. Emits an {Approval} event indicating the updated allowance. Requirements: - `spender` cannot be the zero address. - `spender` must have allowance for the caller of at least `subtractedValue`."
      },
      "increaseAllowance(address,uint256)": {
        "details": "Atomically increases the allowance granted to `spender` by the caller. This is an alternative to {approve} that can be used as a mitigation for problems described in {IERC20-approve}. Emits an {Approval} event indicating the updated allowance. Requirements: - `spender` cannot be the zero address."
      },
      "name()": {
        "details": "Returns the name of the token."
      },
      "owner()": {
        "details": "Returns the address of the current owner."
      },
      "renounceOwnership()": {
        "details": "Leaves the contract without owner. It will not be possible to call `onlyOwner` functions. Can only be called by the current owner. NOTE: Renouncing ownership will leave the contract without an owner, thereby disabling any functionality that is only available to the owner."
      },
      "symbol()": {
        "details": "Returns the symbol of the token, usually a shorter version of the name."
      },
      "totalSupply()": {
        "details": "See {IERC20-totalSupply}."
      },
      "transfer(address,uint256)": {
        "details": "See {IERC20-transfer}. Requirements: - `to` cannot be the zero address. - the caller must have a balance of at least `amount`."
      },
      "transferFrom(address,address,uint256)": {
        "details": "See {IERC20-transferFrom}. Emits an {Approval} event indicating the updated allowance. This is not required by the EIP. See the note at the beginning of {ERC20}. NOTE: Does not update the allowance if the current allowance is the maximum `uint256`. Requirements: - `from` and `to` cannot be the zero address. - `from` must have a balance of at least `amount`. - the caller must have allowance for ``from``'s tokens of at least `amount`."
      },
      "transferOwnership(address)": {
        "details": "Transfers ownership of the contract to a new account (`newOwner`). Can only be called by the current owner."
      }
    },
    "version": 1
  },
  "userdoc": {
    "kind": "user",
    "methods": {},
    "version": 1
  }
}