{
  "contractName": "AsamiCore",
  "abi": [
    {
      "inputs": [
        {
          "internalType": "address",
          "name": "_dollarOnChainAddress",
          "type": "address"
        },
        {
          "internalType": "address",
          "name": "_adminAddress",
          "type": "address"
        }
      ],
      "stateMutability": "nonpayable",
      "type": "constructor"
    },
    {
      "anonymous": false,
      "inputs": [
        {
          "indexed": false,
          "internalType": "uint256",
          "name": "accountId",
          "type": "uint256"
        }
      ],
      "name": "AccountUpdated",
      "type": "event"
    },
    {
      "anonymous": false,
      "inputs": [
        {
          "components": [
            {
              "internalType": "uint256",
              "name": "votes",
              "type": "uint256"
            },
            {
              "internalType": "address",
              "name": "candidate",
              "type": "address"
            },
            {
              "internalType": "uint256",
              "name": "cycle",
              "type": "uint256"
            },
            {
              "internalType": "bool",
              "name": "vested",
              "type": "bool"
            }
          ],
          "indexed": false,
          "internalType": "struct AsamiCore.AdminVote",
          "name": "vote",
          "type": "tuple"
        }
      ],
      "name": "AdminVoteSaved",
      "type": "event"
    },
    {
      "anonymous": false,
      "inputs": [
        {
          "indexed": true,
          "internalType": "address",
          "name": "owner",
          "type": "address"
        },
        {
          "indexed": true,
          "internalType": "address",
          "name": "spender",
          "type": "address"
        },
        {
          "indexed": false,
          "internalType": "uint256",
          "name": "value",
          "type": "uint256"
        }
      ],
      "name": "Approval",
      "type": "event"
    },
    {
      "anonymous": false,
      "inputs": [
        {
          "indexed": false,
          "internalType": "uint256",
          "name": "accountId",
          "type": "uint256"
        },
        {
          "indexed": false,
          "internalType": "uint256",
          "name": "campaignId",
          "type": "uint256"
        }
      ],
      "name": "CampaignCreated",
      "type": "event"
    },
    {
      "anonymous": false,
      "inputs": [
        {
          "indexed": false,
          "internalType": "uint256",
          "name": "accountId",
          "type": "uint256"
        },
        {
          "indexed": false,
          "internalType": "uint256",
          "name": "campaignId",
          "type": "uint256"
        }
      ],
      "name": "CampaignExtended",
      "type": "event"
    },
    {
      "anonymous": false,
      "inputs": [
        {
          "indexed": false,
          "internalType": "uint256",
          "name": "accountId",
          "type": "uint256"
        },
        {
          "indexed": false,
          "internalType": "uint256",
          "name": "campaignId",
          "type": "uint256"
        }
      ],
      "name": "CampaignReimbursed",
      "type": "event"
    },
    {
      "anonymous": false,
      "inputs": [
        {
          "indexed": false,
          "internalType": "uint256",
          "name": "accountId",
          "type": "uint256"
        },
        {
          "indexed": false,
          "internalType": "uint256",
          "name": "campaignId",
          "type": "uint256"
        }
      ],
      "name": "CampaignSaved",
      "type": "event"
    },
    {
      "anonymous": false,
      "inputs": [
        {
          "indexed": false,
          "internalType": "uint256",
          "name": "accountId",
          "type": "uint256"
        },
        {
          "indexed": false,
          "internalType": "uint256",
          "name": "campaignId",
          "type": "uint256"
        }
      ],
      "name": "CampaignToppedUp",
      "type": "event"
    },
    {
      "anonymous": false,
      "inputs": [
        {
          "indexed": false,
          "internalType": "uint256",
          "name": "advertiserId",
          "type": "uint256"
        },
        {
          "indexed": false,
          "internalType": "uint256",
          "name": "briefing",
          "type": "uint256"
        },
        {
          "indexed": false,
          "internalType": "uint256",
          "name": "accountId",
          "type": "uint256"
        },
        {
          "indexed": false,
          "internalType": "uint256",
          "name": "gross",
          "type": "uint256"
        },
        {
          "indexed": false,
          "internalType": "uint256",
          "name": "fee",
          "type": "uint256"
        }
      ],
      "name": "CollabSaved",
      "type": "event"
    },
    {
      "anonymous": false,
      "inputs": [
        {
          "indexed": false,
          "internalType": "uint256",
          "name": "accountId",
          "type": "uint256"
        },
        {
          "indexed": false,
          "internalType": "uint256",
          "name": "campaignId",
          "type": "uint256"
        }
      ],
      "name": "ReportSubmitted",
      "type": "event"
    },
    {
      "anonymous": false,
      "inputs": [
        {
          "indexed": true,
          "internalType": "address",
          "name": "from",
          "type": "address"
        },
        {
          "indexed": true,
          "internalType": "address",
          "name": "to",
          "type": "address"
        },
        {
          "indexed": false,
          "internalType": "uint256",
          "name": "value",
          "type": "uint256"
        }
      ],
      "name": "Transfer",
      "type": "event"
    },
    {
      "inputs": [
        {
          "internalType": "address",
          "name": "",
          "type": "address"
        }
      ],
      "name": "accountIdByAddress",
      "outputs": [
        {
          "internalType": "uint256",
          "name": "",
          "type": "uint256"
        }
      ],
      "stateMutability": "view",
      "type": "function",
      "constant": true
    },
    {
      "inputs": [
        {
          "internalType": "uint256",
          "name": "",
          "type": "uint256"
        }
      ],
      "name": "accounts",
      "outputs": [
        {
          "internalType": "address",
          "name": "addr",
          "type": "address"
        },
        {
          "internalType": "uint256",
          "name": "approvedGaslessAmount",
          "type": "uint256"
        },
        {
          "internalType": "uint256",
          "name": "unclaimedAsamiBalance",
          "type": "uint256"
        },
        {
          "internalType": "uint256",
          "name": "unclaimedDocBalance",
          "type": "uint256"
        }
      ],
      "stateMutability": "view",
      "type": "function",
      "constant": true
    },
    {
      "inputs": [],
      "name": "admin",
      "outputs": [
        {
          "internalType": "address",
          "name": "",
          "type": "address"
        }
      ],
      "stateMutability": "view",
      "type": "function",
      "constant": true
    },
    {
      "inputs": [],
      "name": "adminGaslessClaimAccountPrice",
      "outputs": [
        {
          "internalType": "uint256",
          "name": "",
          "type": "uint256"
        }
      ],
      "stateMutability": "view",
      "type": "function",
      "constant": true
    },
    {
      "inputs": [],
      "name": "adminGaslessClaimRewardPrice",
      "outputs": [
        {
          "internalType": "uint256",
          "name": "",
          "type": "uint256"
        }
      ],
      "stateMutability": "view",
      "type": "function",
      "constant": true
    },
    {
      "inputs": [],
      "name": "adminTreasury",
      "outputs": [
        {
          "internalType": "address",
          "name": "",
          "type": "address"
        }
      ],
      "stateMutability": "view",
      "type": "function",
      "constant": true
    },
    {
      "inputs": [],
      "name": "adminUnclaimedAsamiBalance",
      "outputs": [
        {
          "internalType": "uint256",
          "name": "",
          "type": "uint256"
        }
      ],
      "stateMutability": "view",
      "type": "function",
      "constant": true
    },
    {
      "inputs": [],
      "name": "adminUnclaimedDoc",
      "outputs": [
        {
          "internalType": "uint256",
          "name": "",
          "type": "uint256"
        }
      ],
      "stateMutability": "view",
      "type": "function",
      "constant": true
    },
    {
      "inputs": [],
      "name": "adminUnclaimedDocBalance",
      "outputs": [
        {
          "internalType": "uint256",
          "name": "",
          "type": "uint256"
        }
      ],
      "stateMutability": "view",
      "type": "function",
      "constant": true
    },
    {
      "inputs": [],
      "name": "adminUnclaimedTokens",
      "outputs": [
        {
          "internalType": "uint256",
          "name": "",
          "type": "uint256"
        }
      ],
      "stateMutability": "view",
      "type": "function",
      "constant": true
    },
    {
      "inputs": [
        {
          "internalType": "address",
          "name": "",
          "type": "address"
        }
      ],
      "name": "adminVoteCountIdByCandidate",
      "outputs": [
        {
          "internalType": "uint256",
          "name": "",
          "type": "uint256"
        }
      ],
      "stateMutability": "view",
      "type": "function",
      "constant": true
    },
    {
      "inputs": [
        {
          "internalType": "uint256",
          "name": "",
          "type": "uint256"
        }
      ],
      "name": "adminVoteCounts",
      "outputs": [
        {
          "internalType": "uint256",
          "name": "votes",
          "type": "uint256"
        },
        {
          "internalType": "address",
          "name": "candidate",
          "type": "address"
        }
      ],
      "stateMutability": "view",
      "type": "function",
      "constant": true
    },
    {
      "inputs": [
        {
          "internalType": "address",
          "name": "owner",
          "type": "address"
        },
        {
          "internalType": "address",
          "name": "spender",
          "type": "address"
        }
      ],
      "name": "allowance",
      "outputs": [
        {
          "internalType": "uint256",
          "name": "",
          "type": "uint256"
        }
      ],
      "stateMutability": "view",
      "type": "function",
      "constant": true
    },
    {
      "inputs": [
        {
          "internalType": "address",
          "name": "spender",
          "type": "address"
        },
        {
          "internalType": "uint256",
          "name": "amount",
          "type": "uint256"
        }
      ],
      "name": "approve",
      "outputs": [
        {
          "internalType": "bool",
          "name": "",
          "type": "bool"
        }
      ],
      "stateMutability": "nonpayable",
      "type": "function"
    },
    {
      "inputs": [],
      "name": "assignedAsamiTokens",
      "outputs": [
        {
          "internalType": "uint256",
          "name": "",
          "type": "uint256"
        }
      ],
      "stateMutability": "view",
      "type": "function",
      "constant": true
    },
    {
      "inputs": [
        {
          "internalType": "address",
          "name": "account",
          "type": "address"
        }
      ],
      "name": "balanceOf",
      "outputs": [
        {
          "internalType": "uint256",
          "name": "",
          "type": "uint256"
        }
      ],
      "stateMutability": "view",
      "type": "function",
      "constant": true
    },
    {
      "inputs": [],
      "name": "cap",
      "outputs": [
        {
          "internalType": "uint256",
          "name": "",
          "type": "uint256"
        }
      ],
      "stateMutability": "view",
      "type": "function",
      "constant": true
    },
    {
      "inputs": [],
      "name": "decimals",
      "outputs": [
        {
          "internalType": "uint8",
          "name": "",
          "type": "uint8"
        }
      ],
      "stateMutability": "view",
      "type": "function",
      "constant": true
    },
    {
      "inputs": [
        {
          "internalType": "address",
          "name": "spender",
          "type": "address"
        },
        {
          "internalType": "uint256",
          "name": "subtractedValue",
          "type": "uint256"
        }
      ],
      "name": "decreaseAllowance",
      "outputs": [
        {
          "internalType": "bool",
          "name": "",
          "type": "bool"
        }
      ],
      "stateMutability": "nonpayable",
      "type": "function"
    },
    {
      "inputs": [],
      "name": "defaultFeeRate",
      "outputs": [
        {
          "internalType": "uint256",
          "name": "",
          "type": "uint256"
        }
      ],
      "stateMutability": "view",
      "type": "function",
      "constant": true
    },
    {
      "inputs": [],
      "name": "feePool",
      "outputs": [
        {
          "internalType": "uint256",
          "name": "",
          "type": "uint256"
        }
      ],
      "stateMutability": "view",
      "type": "function",
      "constant": true
    },
    {
      "inputs": [],
      "name": "feeRate",
      "outputs": [
        {
          "internalType": "uint256",
          "name": "",
          "type": "uint256"
        }
      ],
      "stateMutability": "view",
      "type": "function",
      "constant": true
    },
    {
      "inputs": [
        {
          "internalType": "address",
          "name": "",
          "type": "address"
        }
      ],
      "name": "feeRateVotes",
      "outputs": [
        {
          "internalType": "uint256",
          "name": "votes",
          "type": "uint256"
        },
        {
          "internalType": "uint256",
          "name": "rate",
          "type": "uint256"
        }
      ],
      "stateMutability": "view",
      "type": "function",
      "constant": true
    },
    {
      "inputs": [
        {
          "internalType": "address",
          "name": "spender",
          "type": "address"
        },
        {
          "internalType": "uint256",
          "name": "addedValue",
          "type": "uint256"
        }
      ],
      "name": "increaseAllowance",
      "outputs": [
        {
          "internalType": "bool",
          "name": "",
          "type": "bool"
        }
      ],
      "stateMutability": "nonpayable",
      "type": "function"
    },
    {
      "inputs": [],
      "name": "lastAdminElection",
      "outputs": [
        {
          "internalType": "uint256",
          "name": "",
          "type": "uint256"
        }
      ],
      "stateMutability": "view",
      "type": "function",
      "constant": true
    },
    {
      "inputs": [
        {
          "internalType": "address",
          "name": "",
          "type": "address"
        }
      ],
      "name": "lastFeePoolShareCycles",
      "outputs": [
        {
          "internalType": "uint256",
          "name": "",
          "type": "uint256"
        }
      ],
      "stateMutability": "view",
      "type": "function",
      "constant": true
    },
    {
      "inputs": [],
      "name": "lastVotedFeeRateAppliedOn",
      "outputs": [
        {
          "internalType": "uint256",
          "name": "",
          "type": "uint256"
        }
      ],
      "stateMutability": "view",
      "type": "function",
      "constant": true
    },
    {
      "inputs": [
        {
          "internalType": "uint256",
          "name": "",
          "type": "uint256"
        }
      ],
      "name": "latestAdminElections",
      "outputs": [
        {
          "internalType": "address",
          "name": "",
          "type": "address"
        }
      ],
      "stateMutability": "view",
      "type": "function",
      "constant": true
    },
    {
      "inputs": [],
      "name": "migrationAccountsDone",
      "outputs": [
        {
          "internalType": "bool",
          "name": "",
          "type": "bool"
        }
      ],
      "stateMutability": "view",
      "type": "function",
      "constant": true
    },
    {
      "inputs": [],
      "name": "migrationCursor",
      "outputs": [
        {
          "internalType": "uint256",
          "name": "",
          "type": "uint256"
        }
      ],
      "stateMutability": "view",
      "type": "function",
      "constant": true
    },
    {
      "inputs": [],
      "name": "migrationHoldersDone",
      "outputs": [
        {
          "internalType": "bool",
          "name": "",
          "type": "bool"
        }
      ],
      "stateMutability": "view",
      "type": "function",
      "constant": true
    },
    {
      "inputs": [],
      "name": "name",
      "outputs": [
        {
          "internalType": "string",
          "name": "",
          "type": "string"
        }
      ],
      "stateMutability": "view",
      "type": "function",
      "constant": true
    },
    {
      "inputs": [
        {
          "internalType": "uint256",
          "name": "",
          "type": "uint256"
        },
        {
          "internalType": "address",
          "name": "",
          "type": "address"
        }
      ],
      "name": "recentBalanceChanges",
      "outputs": [
        {
          "internalType": "uint256",
          "name": "added",
          "type": "uint256"
        },
        {
          "internalType": "uint256",
          "name": "substracted",
          "type": "uint256"
        }
      ],
      "stateMutability": "view",
      "type": "function",
      "constant": true
    },
    {
      "inputs": [
        {
          "internalType": "uint256",
          "name": "",
          "type": "uint256"
        }
      ],
      "name": "recentFeePoolChanges",
      "outputs": [
        {
          "internalType": "uint256",
          "name": "added",
          "type": "uint256"
        },
        {
          "internalType": "uint256",
          "name": "substracted",
          "type": "uint256"
        }
      ],
      "stateMutability": "view",
      "type": "function",
      "constant": true
    },
    {
      "inputs": [
        {
          "internalType": "uint256",
          "name": "",
          "type": "uint256"
        }
      ],
      "name": "recentTokens",
      "outputs": [
        {
          "internalType": "uint256",
          "name": "",
          "type": "uint256"
        }
      ],
      "stateMutability": "view",
      "type": "function",
      "constant": true
    },
    {
      "inputs": [
        {
          "internalType": "address",
          "name": "",
          "type": "address"
        }
      ],
      "name": "submittedAdminVotes",
      "outputs": [
        {
          "internalType": "uint256",
          "name": "votes",
          "type": "uint256"
        },
        {
          "internalType": "address",
          "name": "candidate",
          "type": "address"
        },
        {
          "internalType": "uint256",
          "name": "cycle",
          "type": "uint256"
        },
        {
          "internalType": "bool",
          "name": "vested",
          "type": "bool"
        }
      ],
      "stateMutability": "view",
      "type": "function",
      "constant": true
    },
    {
      "inputs": [],
      "name": "symbol",
      "outputs": [
        {
          "internalType": "string",
          "name": "",
          "type": "string"
        }
      ],
      "stateMutability": "view",
      "type": "function",
      "constant": true
    },
    {
      "inputs": [],
      "name": "totalSupply",
      "outputs": [
        {
          "internalType": "uint256",
          "name": "",
          "type": "uint256"
        }
      ],
      "stateMutability": "view",
      "type": "function",
      "constant": true
    },
    {
      "inputs": [
        {
          "internalType": "address",
          "name": "to",
          "type": "address"
        },
        {
          "internalType": "uint256",
          "name": "amount",
          "type": "uint256"
        }
      ],
      "name": "transfer",
      "outputs": [
        {
          "internalType": "bool",
          "name": "",
          "type": "bool"
        }
      ],
      "stateMutability": "nonpayable",
      "type": "function"
    },
    {
      "inputs": [
        {
          "internalType": "address",
          "name": "from",
          "type": "address"
        },
        {
          "internalType": "address",
          "name": "to",
          "type": "address"
        },
        {
          "internalType": "uint256",
          "name": "amount",
          "type": "uint256"
        }
      ],
      "name": "transferFrom",
      "outputs": [
        {
          "internalType": "bool",
          "name": "",
          "type": "bool"
        }
      ],
      "stateMutability": "nonpayable",
      "type": "function"
    },
    {
      "inputs": [],
      "name": "vestedAdminVotesTotal",
      "outputs": [
        {
          "internalType": "uint256",
          "name": "",
          "type": "uint256"
        }
      ],
      "stateMutability": "view",
      "type": "function",
      "constant": true
    },
    {
      "inputs": [],
      "name": "votedFeeRate",
      "outputs": [
        {
          "internalType": "uint256",
          "name": "",
          "type": "uint256"
        }
      ],
      "stateMutability": "view",
      "type": "function",
      "constant": true
    },
    {
      "inputs": [],
      "name": "votedFeeRateVoteCount",
      "outputs": [
        {
          "internalType": "uint256",
          "name": "",
          "type": "uint256"
        }
      ],
      "stateMutability": "view",
      "type": "function",
      "constant": true
    },
    {
      "inputs": [
        {
          "internalType": "uint256",
          "name": "_accountId",
          "type": "uint256"
        },
        {
          "internalType": "uint256",
          "name": "_briefing",
          "type": "uint256"
        }
      ],
      "name": "getCampaign",
      "outputs": [
        {
          "components": [
            {
              "internalType": "uint256",
              "name": "budget",
              "type": "uint256"
            },
            {
              "internalType": "uint256",
              "name": "validUntil",
              "type": "uint256"
            },
            {
              "internalType": "uint256",
              "name": "reportHash",
              "type": "uint256"
            }
          ],
          "internalType": "struct AsamiCore.Campaign",
          "name": "",
          "type": "tuple"
        }
      ],
      "stateMutability": "view",
      "type": "function",
      "constant": true
    },
    {
      "inputs": [],
      "name": "allAdminVoteCounts",
      "outputs": [
        {
          "components": [
            {
              "internalType": "uint256",
              "name": "votes",
              "type": "uint256"
            },
            {
              "internalType": "address",
              "name": "candidate",
              "type": "address"
            }
          ],
          "internalType": "struct AsamiCore.AdminVoteCount[]",
          "name": "",
          "type": "tuple[]"
        }
      ],
      "stateMutability": "view",
      "type": "function",
      "constant": true
    },
    {
      "inputs": [],
      "name": "getLatestAdminElections",
      "outputs": [
        {
          "internalType": "address[3]",
          "name": "",
          "type": "address[3]"
        }
      ],
      "stateMutability": "view",
      "type": "function",
      "constant": true
    },
    {
      "inputs": [
        {
          "components": [
            {
              "internalType": "uint256",
              "name": "accountId",
              "type": "uint256"
            },
            {
              "internalType": "address",
              "name": "addr",
              "type": "address"
            }
          ],
          "internalType": "struct AsamiCore.ClaimAccountsParam[]",
          "name": "_input",
          "type": "tuple[]"
        }
      ],
      "name": "claimAccounts",
      "outputs": [],
      "stateMutability": "nonpayable",
      "type": "function"
    },
    {
      "inputs": [
        {
          "internalType": "uint256[]",
          "name": "_accountIds",
          "type": "uint256[]"
        }
      ],
      "name": "claimBalances",
      "outputs": [],
      "stateMutability": "nonpayable",
      "type": "function"
    },
    {
      "inputs": [
        {
          "internalType": "uint256",
          "name": "_fee",
          "type": "uint256"
        },
        {
          "internalType": "uint256",
          "name": "_rbtcAmount",
          "type": "uint256"
        },
        {
          "internalType": "uint256[]",
          "name": "_accountIds",
          "type": "uint256[]"
        }
      ],
      "name": "gaslessClaimBalances",
      "outputs": [],
      "stateMutability": "payable",
      "type": "function",
      "payable": true
    },
    {
      "inputs": [
        {
          "internalType": "uint256",
          "name": "newAmount",
          "type": "uint256"
        }
      ],
      "name": "changeGaslessApproval",
      "outputs": [],
      "stateMutability": "nonpayable",
      "type": "function"
    },
    {
      "inputs": [],
      "name": "claimAdminUnclaimedBalances",
      "outputs": [],
      "stateMutability": "nonpayable",
      "type": "function"
    },
    {
      "inputs": [],
      "name": "withdrawAccidentallySentRbtc",
      "outputs": [],
      "stateMutability": "nonpayable",
      "type": "function"
    },
    {
      "inputs": [
        {
          "components": [
            {
              "internalType": "uint256",
              "name": "budget",
              "type": "uint256"
            },
            {
              "internalType": "uint256",
              "name": "validUntil",
              "type": "uint256"
            },
            {
              "internalType": "uint256",
              "name": "briefing",
              "type": "uint256"
            }
          ],
          "internalType": "struct AsamiCore.MakeCampaignsParam[]",
          "name": "_inputs",
          "type": "tuple[]"
        }
      ],
      "name": "makeCampaigns",
      "outputs": [],
      "stateMutability": "nonpayable",
      "type": "function"
    },
    {
      "inputs": [
        {
          "components": [
            {
              "internalType": "uint256",
              "name": "validUntil",
              "type": "uint256"
            },
            {
              "internalType": "uint256",
              "name": "briefing",
              "type": "uint256"
            }
          ],
          "internalType": "struct AsamiCore.ExtendCampaignsParam[]",
          "name": "_inputs",
          "type": "tuple[]"
        }
      ],
      "name": "extendCampaigns",
      "outputs": [],
      "stateMutability": "nonpayable",
      "type": "function"
    },
    {
      "inputs": [
        {
          "components": [
            {
              "internalType": "uint256",
              "name": "accountId",
              "type": "uint256"
            },
            {
              "internalType": "uint256",
              "name": "budget",
              "type": "uint256"
            },
            {
              "internalType": "uint256",
              "name": "briefing",
              "type": "uint256"
            }
          ],
          "internalType": "struct AsamiCore.TopUpCampaignsParam[]",
          "name": "_inputs",
          "type": "tuple[]"
        }
      ],
      "name": "topUpCampaigns",
      "outputs": [],
      "stateMutability": "nonpayable",
      "type": "function"
    },
    {
      "inputs": [
        {
          "components": [
            {
              "internalType": "uint256",
              "name": "accountId",
              "type": "uint256"
            },
            {
              "internalType": "uint256",
              "name": "briefing",
              "type": "uint256"
            }
          ],
          "internalType": "struct AsamiCore.ReimburseCampaignsParam[]",
          "name": "_inputs",
          "type": "tuple[]"
        }
      ],
      "name": "reimburseCampaigns",
      "outputs": [],
      "stateMutability": "nonpayable",
      "type": "function"
    },
    {
      "inputs": [
        {
          "components": [
            {
              "internalType": "uint256",
              "name": "accountId",
              "type": "uint256"
            },
            {
              "internalType": "uint256",
              "name": "briefing",
              "type": "uint256"
            },
            {
              "internalType": "uint256",
              "name": "reportHash",
              "type": "uint256"
            }
          ],
          "internalType": "struct AsamiCore.SubmitReportsParam[]",
          "name": "_inputs",
          "type": "tuple[]"
        }
      ],
      "name": "submitReports",
      "outputs": [],
      "stateMutability": "nonpayable",
      "type": "function"
    },
    {
      "inputs": [
        {
          "components": [
            {
              "internalType": "uint256",
              "name": "advertiserId",
              "type": "uint256"
            },
            {
              "internalType": "uint256",
              "name": "briefing",
              "type": "uint256"
            },
            {
              "components": [
                {
                  "internalType": "uint256",
                  "name": "accountId",
                  "type": "uint256"
                },
                {
                  "internalType": "uint256",
                  "name": "docReward",
                  "type": "uint256"
                }
              ],
              "internalType": "struct AsamiCore.MakeCollabsParamItem[]",
              "name": "collabs",
              "type": "tuple[]"
            }
          ],
          "internalType": "struct AsamiCore.MakeCollabsParam[]",
          "name": "_input",
          "type": "tuple[]"
        }
      ],
      "name": "adminMakeCollabs",
      "outputs": [],
      "stateMutability": "nonpayable",
      "type": "function"
    },
    {
      "inputs": [],
      "name": "getCycleLength",
      "outputs": [
        {
          "internalType": "uint256",
          "name": "",
          "type": "uint256"
        }
      ],
      "stateMutability": "pure",
      "type": "function",
      "constant": true
    },
    {
      "inputs": [],
      "name": "getCurrentCycle",
      "outputs": [
        {
          "internalType": "uint256",
          "name": "",
          "type": "uint256"
        }
      ],
      "stateMutability": "view",
      "type": "function",
      "constant": true
    },
    {
      "inputs": [],
      "name": "getNextCycle",
      "outputs": [
        {
          "internalType": "uint256",
          "name": "",
          "type": "uint256"
        }
      ],
      "stateMutability": "view",
      "type": "function",
      "constant": true
    },
    {
      "inputs": [
        {
          "internalType": "address",
          "name": "_holder",
          "type": "address"
        }
      ],
      "name": "getRecentBalanceChange",
      "outputs": [
        {
          "components": [
            {
              "internalType": "uint256",
              "name": "added",
              "type": "uint256"
            },
            {
              "internalType": "uint256",
              "name": "substracted",
              "type": "uint256"
            }
          ],
          "internalType": "struct AsamiCore.BalanceChange",
          "name": "",
          "type": "tuple"
        }
      ],
      "stateMutability": "view",
      "type": "function",
      "constant": true
    },
    {
      "inputs": [
        {
          "internalType": "address",
          "name": "_holder",
          "type": "address"
        }
      ],
      "name": "getBalanceBeforeRecentChanges",
      "outputs": [
        {
          "internalType": "uint256",
          "name": "",
          "type": "uint256"
        }
      ],
      "stateMutability": "view",
      "type": "function",
      "constant": true
    },
    {
      "inputs": [],
      "name": "getFeePoolBeforeRecentChanges",
      "outputs": [
        {
          "internalType": "uint256",
          "name": "",
          "type": "uint256"
        }
      ],
      "stateMutability": "view",
      "type": "function",
      "constant": true
    },
    {
      "inputs": [
        {
          "internalType": "address[]",
          "name": "_holders",
          "type": "address[]"
        }
      ],
      "name": "claimFeePoolShare",
      "outputs": [],
      "stateMutability": "nonpayable",
      "type": "function"
    },
    {
      "inputs": [],
      "name": "applyVotedFeeRate",
      "outputs": [],
      "stateMutability": "nonpayable",
      "type": "function"
    },
    {
      "inputs": [
        {
          "internalType": "uint256",
          "name": "_rate",
          "type": "uint256"
        }
      ],
      "name": "submitFeeRateVote",
      "outputs": [],
      "stateMutability": "nonpayable",
      "type": "function"
    },
    {
      "inputs": [],
      "name": "removeFeeRateVote",
      "outputs": [],
      "stateMutability": "nonpayable",
      "type": "function"
    },
    {
      "inputs": [
        {
          "internalType": "address",
          "name": "_candidate",
          "type": "address"
        }
      ],
      "name": "submitAdminVote",
      "outputs": [],
      "stateMutability": "nonpayable",
      "type": "function"
    },
    {
      "inputs": [
        {
          "internalType": "address[]",
          "name": "_holders",
          "type": "address[]"
        }
      ],
      "name": "vestAdminVotes",
      "outputs": [],
      "stateMutability": "nonpayable",
      "type": "function"
    },
    {
      "inputs": [
        {
          "internalType": "address",
          "name": "_candidate",
          "type": "address"
        }
      ],
      "name": "proclaimCycleAdminWinner",
      "outputs": [],
      "stateMutability": "nonpayable",
      "type": "function"
    },
    {
      "inputs": [],
      "name": "removeAdminVote",
      "outputs": [],
      "stateMutability": "nonpayable",
      "type": "function"
    },
    {
      "inputs": [
        {
          "internalType": "address",
          "name": "_admin",
          "type": "address"
        }
      ],
      "name": "setAdminAddress",
      "outputs": [],
      "stateMutability": "nonpayable",
      "type": "function"
    },
    {
      "inputs": [
        {
          "internalType": "address",
          "name": "_oldContract",
          "type": "address"
        },
        {
          "internalType": "uint256",
          "name": "_items",
          "type": "uint256"
        }
      ],
      "name": "migrateTokensFromOldContract",
      "outputs": [],
      "stateMutability": "nonpayable",
      "type": "function"
    }
  ],
  "bytecode": "0x60a060405260006008556000600955678ac7230489e80000600a55600a54600b55600a54600c556000600d556000600e553480156200003d57600080fd5b5060405162004a0338038062004a03833981016040819052620000609162000186565b6a115eec47f6cf7e350000006040518060400160405280600a8152602001694173616d6920436f726560b01b815250604051806040016040528060058152602001644153414d4960d81b8152508160039081620000be919062000263565b506004620000cd828262000263565b50505060008111620001255760405162461bcd60e51b815260206004820152601560248201527f45524332304361707065643a2063617020697320300000000000000000000000604482015260640160405180910390fd5b6080526001600555601880546001600160a01b039384166001600160a01b031991821617909155601a8054821633179055601980549290931691161790556200032f565b80516001600160a01b03811681146200018157600080fd5b919050565b600080604083850312156200019a57600080fd5b620001a58362000169565b9150620001b56020840162000169565b90509250929050565b634e487b7160e01b600052604160045260246000fd5b600181811c90821680620001e957607f821691505b6020821081036200020a57634e487b7160e01b600052602260045260246000fd5b50919050565b601f8211156200025e57600081815260208120601f850160051c81016020861015620002395750805b601f850160051c820191505b818110156200025a5782815560010162000245565b5050505b505050565b81516001600160401b038111156200027f576200027f620001be565b6200029781620002908454620001d4565b8462000210565b602080601f831160018114620002cf5760008415620002b65750858301515b600019600386901b1c1916600185901b1785556200025a565b600085815260208120601f198616915b828110156200030057888601518255948401946001909101908401620002df565b50858210156200031f5787850151600019600388901b60f8161c191681555b5050505050600190811b01905550565b6080516146aa620003596000396000818161065901528181612adc0152613cf201526146aa6000f3fe6080604052600436106104315760003560e01c806374f1ea1611610229578063be26ed7f1161012e578063ec8b436c116100b6578063f398c2411161007a578063f398c24114610d7b578063f851a44014610d90578063f88b969a14610db0578063fa7fb4d814610df2578063faefbc7a14610e2f57600080fd5b8063ec8b436c14610c41578063ecaed41f14610cba578063eea1bf8314610cd0578063f2a40db814610ce5578063f3401bc314610d5b57600080fd5b8063c9669485116100fd578063c966948514610bbe578063cdada3b614610bd4578063d8c44f5014610bf6578063dd62ed3e14610c0b578063e4c1be2e14610c2b57600080fd5b8063be26ed7f14610b53578063be81462514610b68578063c31b3b5514610b7e578063c5187a9114610b9e57600080fd5b806396cad0db116101b1578063a45753ed11610180578063a45753ed14610ac7578063a457c2d714610add578063a9059cbb14610afd578063ae2e933b14610b1d578063bd5ff42314610b3357600080fd5b806396cad0db14610a51578063978bbdb914610a715780639bd40aee14610a875780639dfceaaa14610aa757600080fd5b8063882d1b54116101f8578063882d1b54146109da5780638a89a2d8146109fa5780638bec13cf14610a105780639314b21414610a2657806395d89b4114610a3c57600080fd5b806374f1ea161461094357806379dec48b1461097e5780637cf2fcdf1461099357806381d036f5146109a657600080fd5b806340bbced01161033a5780635d03e487116102c25780636782eb0d116102865780636782eb0d1461089557806368841a46146108b55780636bd1c230146108cb5780636f1c7617146108f857806370a082311461090d57600080fd5b80635d03e487146107fd5780635e6134231461081d57806362fe54761461083357806365e5d1bc146108535780636717d7a81461086857600080fd5b80634a8bcf14116103095780634a8bcf141461076a5780634bd38e261461078057806352c6dd73146107ad57806354e97496146107cd57806357b53ae5146107e757600080fd5b806340bbced0146106f3578063419a7c5d146107135780634259d8a21461073557806348a23ba81461074b57600080fd5b806320841544116103bd578063355274ea1161038c578063355274ea1461064a578063368e600f1461067d57806337c212181461069357806339509351146106b3578063402c5133146106d357600080fd5b806320841544146105d957806323b872dd146105ee5780632c1e816d1461060e578063313ce5671461062e57600080fd5b80630dff55ed116104045780630dff55ed14610509578063139fd1c21461053d57806318160ddd1461056a5780631b06cfbc1461057f5780631b152127146105b757600080fd5b806306fdde031461043657806307d3345514610461578063080b064814610485578063095ea7b3146104d9575b600080fd5b34801561044257600080fd5b5061044b610e4f565b6040516104589190613f6f565b60405180910390f35b34801561046d57600080fd5b50610477600a5481565b604051908152602001610458565b34801561049157600080fd5b506104c46104a0366004613fd2565b60216020908152600092835260408084209091529082529020805460019091015482565b60408051928352602083019190915201610458565b3480156104e557600080fd5b506104f96104f4366004614002565b610ee1565b6040519015158152602001610458565b34801561051557600080fd5b506104c461052436600461402e565b6022602052600090815260409020805460019091015482565b34801561054957600080fd5b5061047761055836600461402e565b60236020526000908152604090205481565b34801561057657600080fd5b50600254610477565b34801561058b57600080fd5b5061059f61059a36600461402e565b610efb565b6040516001600160a01b039091168152602001610458565b3480156105c357600080fd5b506105d76105d2366004614002565b610f1b565b005b3480156105e557600080fd5b506104776112c7565b3480156105fa57600080fd5b506104f9610609366004614047565b61130d565b34801561061a57600080fd5b506105d7610629366004614088565b611331565b34801561063a57600080fd5b5060405160128152602001610458565b34801561065657600080fd5b507f0000000000000000000000000000000000000000000000000000000000000000610477565b34801561068957600080fd5b50610477601e5481565b34801561069f57600080fd5b506105d76106ae3660046140f1565b611396565b3480156106bf57600080fd5b506104f96106ce366004614002565b6115da565b3480156106df57600080fd5b506105d76106ee366004614178565b6115fc565b3480156106ff57600080fd5b506105d761070e36600461402e565b611796565b34801561071f57600080fd5b506107286117fe565b60405161045891906141ae565b34801561074157600080fd5b506213c680610477565b34801561075757600080fd5b506026546104f990610100900460ff1681565b34801561077657600080fd5b5061047760085481565b34801561078c57600080fd5b5061047761079b366004614088565b60126020526000908152604090205481565b3480156107b957600080fd5b506105d76107c8366004614178565b611843565b3480156107d957600080fd5b506026546104f99060ff1681565b3480156107f357600080fd5b50610477601b5481565b34801561080957600080fd5b506105d7610818366004614088565b611a0b565b34801561082957600080fd5b50610477600c5481565b34801561083f57600080fd5b506105d761084e366004614178565b611be4565b34801561085f57600080fd5b506105d7611dfa565b34801561087457600080fd5b50610477610883366004614088565b60076020526000908152604090205481565b3480156108a157600080fd5b506104776108b0366004614088565b611e62565b3480156108c157600080fd5b50610477600e5481565b3480156108d757600080fd5b506104776108e6366004614088565b60246020526000908152604090205481565b34801561090457600080fd5b506105d7611ec6565b34801561091957600080fd5b50610477610928366004614088565b6001600160a01b031660009081526020819052604090205490565b34801561094f57600080fd5b5061096361095e366004614088565b611f17565b60408051825181526020928301519281019290925201610458565b34801561098a57600080fd5b50610477611f78565b6105d76109a136600461422d565b611f95565b3480156109b257600080fd5b506104c46109c1366004614088565b600f602052600090815260409020805460019091015482565b3480156109e657600080fd5b506105d76109f5366004614280565b612270565b348015610a0657600080fd5b5061047760255481565b348015610a1c57600080fd5b5061047760145481565b348015610a3257600080fd5b50610477600d5481565b348015610a4857600080fd5b5061044b6123c3565b348015610a5d57600080fd5b50601a5461059f906001600160a01b031681565b348015610a7d57600080fd5b50610477600b5481565b348015610a9357600080fd5b506105d7610aa2366004614280565b6123d2565b348015610ab357600080fd5b506105d7610ac236600461402e565b612666565b348015610ad357600080fd5b50610477601f5481565b348015610ae957600080fd5b506104f9610af8366004614002565b612779565b348015610b0957600080fd5b506104f9610b18366004614002565b6127f4565b348015610b2957600080fd5b5061047760205481565b348015610b3f57600080fd5b506105d7610b4e366004614280565b612802565b348015610b5f57600080fd5b50610477612a97565b348015610b7457600080fd5b50610477601d5481565b348015610b8a57600080fd5b506105d7610b99366004614280565b612aa6565b348015610baa57600080fd5b506105d7610bb93660046140f1565b612eb6565b348015610bca57600080fd5b5061047760095481565b348015610be057600080fd5b50610be96130e7565b60405161045891906142b6565b348015610c0257600080fd5b506105d761315c565b348015610c1757600080fd5b50610477610c2636600461430e565b613167565b348015610c3757600080fd5b5061047760135481565b348015610c4d57600080fd5b50610c90610c5c366004614088565b601060205260009081526040902080546001820154600283015460039093015491926001600160a01b039091169160ff1684565b604080519485526001600160a01b0390931660208501529183015215156060820152608001610458565b348015610cc657600080fd5b50610477601c5481565b348015610cdc57600080fd5b506105d7613192565b348015610cf157600080fd5b50610d31610d0036600461402e565b60066020526000908152604090208054600182015460028301546003909301546001600160a01b0390921692909184565b604080516001600160a01b0390951685526020850193909352918301526060820152608001610458565b348015610d6757600080fd5b506105d7610d76366004614088565b613257565b348015610d8757600080fd5b506105d76133c1565b348015610d9c57600080fd5b5060195461059f906001600160a01b031681565b348015610dbc57600080fd5b50610dd0610dcb36600461433c565b6133ca565b6040805182518152602080840151908201529181015190820152606001610458565b348015610dfe57600080fd5b50610e12610e0d36600461402e565b613431565b604080519283526001600160a01b03909116602083015201610458565b348015610e3b57600080fd5b506105d7610e4a3660046140f1565b613468565b606060038054610e5e9061435e565b80601f0160208091040260200160405190810160405280929190818152602001828054610e8a9061435e565b8015610ed75780601f10610eac57610100808354040283529160200191610ed7565b820191906000526020600020905b815481529060010190602001808311610eba57829003601f168201915b5050505050905090565b600033610eef818585613672565b60019150505b92915050565b60158160038110610f0b57600080fd5b01546001600160a01b0316905081565b60265460ff161580610f355750602654610100900460ff16155b610f735760405162461bcd60e51b8152600401610f6a9060208082526004908201526306d6967360e41b604082015260600190565b60405180910390fd5b602654829060ff166111155760005b8281101561111357816001600160a01b0316632a11ced082602554610fa791906143ae565b6040518263ffffffff1660e01b8152600401610fc591815260200190565b602060405180830381865afa925050508015610ffe575060408051601f3d908101601f19168201909252610ffb918101906143c1565b60015b611014576026805460ff19166001179055611113565b6040516370a0823160e01b81526001600160a01b038281166004830152600091908516906370a0823190602401602060405180830381865afa15801561105e573d6000803e3d6000fd5b505050506040513d601f19601f8201168201806040525081019061108291906143de565b905080156110ff576040516370a0823160e01b81526001600160a01b0380841660048301526110ff9184918716906370a0823190602401602060405180830381865afa1580156110d6573d6000803e3d6000fd5b505050506040513d601f19601f820116820180604052508101906110fa91906143de565b613796565b50508061110b816143f7565b915050610f82565b505b602654610100900460ff166112ab5760005b828110156112a957816001600160a01b03166333c24bd38260255461114c91906143ae565b6040518263ffffffff1660e01b815260040161116a91815260200190565b602060405180830381865afa9250505080156111a3575060408051601f3d908101601f191682019092526111a0918101906143de565b60015b6111bb576026805461ff0019166101001790556112a9565b604051631e5481b760e31b81526004810182905260009081906001600160a01b0386169063f2a40db890602401608060405180830381865afa158015611205573d6000803e3d6000fd5b505050506040513d601f19601f820116820180604052508101906112299190614410565b506000868152600660205260409020919450925090506001600160a01b0383161561128b576001600160a01b038316600081815260076020526040902085905581546001600160a01b031916178155674563918244f400006001820155611293565b600281018290555b50505050806112a1816143f7565b915050611127565b505b81602560008282546112bd91906143ae565b9091555050505050565b600080602260006112d6612a97565b81526020019081526020016000209050806000015481600101546020546112fd91906143ae565b611307919061444e565b91505090565b60003361131b8582856137d0565b611326858585613844565b506001949350505050565b601a546001600160a01b031633146113745760405162461bcd60e51b8152600401610f6a906020808252600490820152630736161360e41b604082015260600190565b601980546001600160a01b0319166001600160a01b0392909216919091179055565b61139e6139f3565b60005b818110156115cb5760008383838181106113bd576113bd614461565b9050606002018036038101906113d391906144e1565b9050600081602001511161140f5760405162461bcd60e51b815260206004820152600360248201526207463360ec1b6044820152606401610f6a565b8051600090815260066020526040902080546001600160a01b031661145c5760405162461bcd60e51b815260206004820152600360248201526274633160e81b6044820152606401610f6a565b60408083015160009081526004830160205220600181015442106114a85760405162461bcd60e51b81526020600482015260036024820152623a319960e91b6044820152606401610f6a565b82602001518160000160008282546114c091906143ae565b909155505060185460208401516040516323b872dd60e01b815233600482015230602482015260448101919091526001600160a01b03909116906323b872dd906064016020604051808303816000875af1158015611522573d6000803e3d6000fd5b505050506040513d601f19601f8201168201806040525081019061154691906144fd565b6115785760405162461bcd60e51b815260206004820152600360248201526274633360e81b6044820152606401610f6a565b8251604080850151815192835260208301527f40eae7a18bc81654e21c6d5e46b95db6cd0f33215e30ad2290eddf65b8cd7dd7910160405180910390a150505080806115c3906143f7565b9150506113a1565b506115d66001600555565b5050565b600033610eef8185856115ed8383613167565b6115f791906143ae565b613672565b6019546001600160a01b031633148061161f5750601a546001600160a01b031633145b61162857600080fd5b6116306139f3565b60005b818110156115cb573683838381811061164e5761164e614461565b604090810292909201803560009081526006602052929092208054929350916001600160a01b03161590506116ab5760405162461bcd60e51b815260206004820152600360248201526206361360ec1b6044820152606401610f6a565b600760006116bf6040850160208601614088565b6001600160a01b031681526020810191909152604001600020541561170c5760405162461bcd60e51b815260206004820152600360248201526263613160e81b6044820152606401610f6a565b8135600760006117226040860160208701614088565b6001600160a01b03166001600160a01b03168152602001908152602001600020819055508160200160208101906117599190614088565b81546001600160a01b0319166001600160a01b0391909116178155674563918244f40000600190910155508061178e816143f7565b915050611633565b33600090815260076020908152604080832054808452600690925290912080546001600160a01b03166117f45760405162461bcd60e51b8152600401610f6a906020808252600490820152630636761360e41b604082015260600190565b6001019190915550565b611806613f51565b6040805160608101918290529060159060039082845b81546001600160a01b0316815260019091019060200180831161181c575050505050905090565b61184b6139f3565b33600090815260076020908152604080832054808452600690925290912080546001600160a01b03166118a65760405162461bcd60e51b815260206004820152600360248201526206563360ec1b6044820152606401610f6a565b60005b838110156119fe5760008585838181106118c5576118c5614461565b9050604002018036038101906118db919061457c565b80519091506119125760405162461bcd60e51b815260206004820152600360248201526265633160e81b6044820152606401610f6a565b6020808201516000908152600485019091526040812060018101549091036119625760405162461bcd60e51b815260206004820152600360248201526232b19960e91b6044820152606401610f6a565b600181015482511161199c5760405162461bcd60e51b815260206004820152600360248201526265633360e81b6044820152606401610f6a565b815160018201556000600282015560208083015160408051888152928301919091527f82af348969d5c135dd3d4575b63546e69ae5b40a4eead1ffcaff306ad0b6939e910160405180910390a1505080806119f6906143f7565b9150506118a9565b5050506115d66001600555565b6001600160a01b03811660009081526012602052604090205480611a5a5760405162461bcd60e51b8152600401610f6a906020808252600490820152630706377360e41b604082015260600190565b60006011611a6960018461444e565b81548110611a7957611a79614461565b90600052602060002090600202019050600060135411611ac45760405162461bcd60e51b8152600401610f6a906020808252600490820152637063773160e01b604082015260600190565b6002601354611ad39190614598565b815411611b0b5760405162461bcd60e51b8152600401610f6a906020808252600490820152633831bb9960e11b604082015260600190565b6000611b15612a97565b90508060145410611b515760405162461bcd60e51b8152600401610f6a906020808252600490820152637063773360e01b604082015260600190565b601481905560168054601780546001600160a01b038084166001600160a01b0319928316179092556015805480841694831685179095559316908716908117909255148015611bad57506017546001600160a01b038581169116145b15611bde57601980546001600160a01b0386166001600160a01b03199182168117909255601a805490911690911790555b50505050565b611bec6139f3565b60005b818110156115cb576000838383818110611c0b57611c0b614461565b905060400201803603810190611c21919061457c565b805160009081526006602052604090208054919250906001600160a01b0316611c725760405162461bcd60e51b815260206004820152600360248201526272633160e81b6044820152606401610f6a565b602080830151600090815260048301909152604090208054611cbc5760405162461bcd60e51b815260206004820152600360248201526239319960e91b6044820152606401610f6a565b42816001015410611cf55760405162461bcd60e51b815260206004820152600360248201526272633360e81b6044820152606401610f6a565b6000808255601854835460405163a9059cbb60e01b81526001600160a01b0391821660048201526024810193909352169063a9059cbb906044016020604051808303816000875af1158015611d4e573d6000803e3d6000fd5b505050506040513d601f19601f82011682018060405250810190611d7291906144fd565b611da65760405162461bcd60e51b81526020600482015260056024820152641c9918c80d60da1b6044820152606401610f6a565b825160208085015160408051938452918301527f7945675f4e090adfce7c577f8350470aa272dcf11cfd491c49a057f5fa23265b910160405180910390a15050508080611df2906143f7565b915050611bef565b6019546001600160a01b0316331480611e1d5750601a546001600160a01b031633145b611e2657600080fd5b601a546040516001600160a01b03909116904780156108fc02916000818181858888f19350505050158015611e5f573d6000803e3d6000fd5b50565b60008060216000611e71612a97565b8152602080820192909252604090810160009081206001600160a01b03871682528352818120805460018201549483905292909120549093509091611eb5916143ae565b611ebf919061444e565b9392505050565b6000611ed0612a97565b9050600e548103611f0c5760405162461bcd60e51b8152600401610f6a906020808252600490820152630616672360e41b604082015260600190565b600c54600b55600e55565b604080518082019091526000808252602082015260216000611f37612a97565b8152602080820192909252604090810160009081206001600160a01b0390951681529382529283902083518085019094528054845260010154908301525090565b60006213c680611f86612a97565b611f9091906143ae565b905090565b611f9d6139f3565b6019546001600160a01b0316331480611fc05750601a546001600160a01b031633145b611fc957600080fd5b64174876e80083116120065760405162461bcd60e51b8152600401610f6a906020808252600490820152630676362360e41b604082015260600190565b61201081846145ba565b34146120475760405162461bcd60e51b8152600401610f6a906020808252600490820152636763623160e01b604082015260600190565b60005b818110156122655760006006600085858581811061206a5761206a614461565b6020908102929092013583525081019190915260400160002080549091506001600160a01b03166120c65760405162461bcd60e51b8152600401610f6a9060208082526004908201526333b1b11960e11b604082015260600190565b858160030154116121025760405162461bcd60e51b8152600401610f6a906020808252600490820152636763623360e01b604082015260600190565b858160010154101561213f5760405162461bcd60e51b8152600401610f6a9060208082526004908201526319d8d88d60e21b604082015260600190565b6000868260030154612151919061444e565b60006003840155601854835460405163a9059cbb60e01b81526001600160a01b03918216600482015260248101849052929350169063a9059cbb906044016020604051808303816000875af11580156121ae573d6000803e3d6000fd5b505050506040513d601f19601f820116820180604052508101906121d291906144fd565b5086600960008282546121e591906143ae565b909155505081546040516001600160a01b039091169087156108fc029088906000818181858888f19350505050158015612223573d6000803e3d6000fd5b50600282015415612250576002820180546000909155825461224e906001600160a01b031682613796565b505b5050808061225d906143f7565b91505061204a565b50611bde6001600555565b6122786139f3565b60005b818110156115cb5760006006600085858581811061229b5761229b614461565b6020908102929092013583525081019190915260400160002080549091506001600160a01b03166122f45760405162461bcd60e51b815260206004820152600360248201526206362360ec1b6044820152606401610f6a565b600281015415612320576002810180546000909155815461231e906001600160a01b031682613796565b505b6003810154156123b0576003810180546000909155601854825460405163a9059cbb60e01b81526001600160a01b0391821660048201526024810184905291169063a9059cbb906044016020604051808303816000875af1158015612389573d6000803e3d6000fd5b505050506040513d601f19601f820116820180604052508101906123ad91906144fd565b50505b50806123bb816143f7565b91505061227b565b606060048054610e5e9061435e565b60006123dc612a97565b905060005b82811015611bde5760006010600086868581811061240157612401614461565b90506020020160208101906124169190614088565b6001600160a01b03166001600160a01b03168152602001908152602001600020905060008160020154116124745760405162461bcd60e51b8152602060048201526005602482015264076617620360dc1b6044820152606401610f6a565b828160020154106124af5760405162461bcd60e51b8152602060048201526005602482015264766176203160d81b6044820152606401610f6a565b600381015460ff16156124ec5760405162461bcd60e51b81526020600482015260056024820152643b30bb101960d91b6044820152606401610f6a565b60038101805460ff1916600117905580546013805460009061250f9084906143ae565b909155505060018101546001600160a01b0316600090815260126020526040902054801561258a576000601161254660018461444e565b8154811061255657612556614461565b90600052602060002090600202019050826000015481600001600082825461257e91906143ae565b9091555061261a915050565b6011805460018181018355845460029092027f31ecc21a745e3968a04e9570e4425bc18fa8019c68028196b546d1669c200c68810192909255840180547f31ecc21a745e3968a04e9570e4425bc18fa8019c68028196b546d1669c200c6990920180546001600160a01b0319166001600160a01b0393841617905591549154166000908152601260205260409020555b7fe08472d1275fefbb15ff0aea278bb1f42c491be3fa4358160826ba7e420ae6138260405161264991906145d1565b60405180910390a15050808061265e906143f7565b9150506123e1565b60008111801561267e575068056bc75e2d6310000081105b6126b35760405162461bcd60e51b8152600401610f6a906020808252600490820152630737276360e41b604082015260600190565b336000908152600f602052604090208054156126d2576126d233613a4c565b33600090815260208190526040902054806127185760405162461bcd60e51b8152600401610f6a906020808252600490820152637372763160e01b604082015260600190565b80600d5461272691906143ae565b61273084836145ba565b600d54600c5461274091906145ba565b61274a91906143ae565b6127549190614598565b600c8190555080600d600082825461276c91906143ae565b9091555050815560010155565b600033816127878286613167565b9050838110156127e75760405162461bcd60e51b815260206004820152602560248201527f45524332303a2064656372656173656420616c6c6f77616e63652062656c6f77604482015264207a65726f60d81b6064820152608401610f6a565b6113268286868403613672565b600033610eef818585613844565b61280a6139f3565b6000612814612a97565b6000818152602360205260408120549192509061283060025490565b61283a919061444e565b905060006128466112c7565b9050600082116128815760405162461bcd60e51b8152600401610f6a906020808252600490820152630636670360e41b604082015260600190565b600081116128ba5760405162461bcd60e51b8152600401610f6a906020808252600490820152636366703160e01b604082015260600190565b60005b84811015612a895760008686838181106128d9576128d9614461565b90506020020160208101906128ee9190614088565b6001600160a01b03811660009081526024602052604090205490915085116129415760405162461bcd60e51b8152600401610f6a9060208082526004908201526331b3381960e11b604082015260600190565b600061294c82611e62565b9050600081116129875760405162461bcd60e51b8152600401610f6a906020808252600490820152636366703360e01b604082015260600190565b60008561299486846145ba565b61299e9190614598565b6001600160a01b03841660009081526024602052604081208990559091506129c7908290613b46565b60185460405163a9059cbb60e01b81526001600160a01b038581166004830152602482018490529091169063a9059cbb906044016020604051808303816000875af1158015612a1a573d6000803e3d6000fd5b505050506040513d601f19601f82011682018060405250810190612a3e91906144fd565b612a735760405162461bcd60e51b8152600401610f6a9060208082526004908201526318d99c0d60e21b604082015260600190565b5050508080612a81906143f7565b9150506128bd565b505050506115d66001600555565b6000611f906213c68042614598565b6019546001600160a01b0316331480612ac95750601a546001600160a01b031633145b612ad257600080fd5b612ada6139f3565b7f000000000000000000000000000000000000000000000000000000000000000060005b82811015612eaa57600060066000868685818110612b1e57612b1e614461565b9050602002810190612b30919061460a565b60000135815260200190815260200160002090506000816004016000878786818110612b5e57612b5e614461565b9050602002810190612b70919061460a565b602001358152602001908152602001600020905060008060008360000154905042846001015411612bcc5760405162461bcd60e51b8152600401610f6a90602080825260049082015263616d633160e01b604082015260600190565b60005b898988818110612be157612be1614461565b9050602002810190612bf3919061460a565b612c0190604081019061462a565b9050811015612e6557368a8a89818110612c1d57612c1d614461565b9050602002810190612c2f919061460a565b612c3d90604081019061462a565b83818110612c4d57612c4d614461565b90506040020190506000816000013511612c925760405162461bcd60e51b8152600401610f6a9060208082526004908201526330b6b19960e11b604082015260600190565b803560009081526006602090815260409091209082013580851015612ce25760405162461bcd60e51b8152600401610f6a90602080825260049082015263185b58cd60e21b604082015260600190565b612cec818661444e565b9450600068056bc75e2d63100000600b5483612d0891906145ba565b612d129190614598565b90506000612d20828461444e565b90506000601b548e612d32919061444e565b90506000818411612d435783612d45565b815b9050600068056bc75e2d63100000612d5e83600a6145ba565b612d7090670de0b6b3a76400006145ba565b612d7a9190614598565b9050600068056bc75e2d63100000612d9384600f6145ba565b612da590670de0b6b3a76400006145ba565b612daf9190614598565b9050600081612dbe848661444e565b612dc8919061444e565b90508060086000828254612ddc91906143ae565b90915550612dec9050838f6143ae565b9d5081896002016000828254612e0291906143ae565b9250508190555085896003016000828254612e1d91906143ae565b9250508190555083601b6000828254612e3691906143ae565b90915550612e469050878e6143ae565b9c50505050505050505050508080612e5d906143f7565b915050612bcf565b50612e71826001613b46565b808455600285018054849190600090612e8b9084906143ae565b9250508190555050505050508080612ea2906143f7565b915050612afe565b50506115d66001600555565b612ebe6139f3565b33600090815260076020908152604080832054808452600690925290912080546001600160a01b0316612f195760405162461bcd60e51b815260206004820152600360248201526206d63360ec1b6044820152606401610f6a565b60005b838110156119fe576000858583818110612f3857612f38614461565b905060600201803603810190612f4e91906144e1565b8051909150612f855760405162461bcd60e51b81526020600482015260036024820152626d633160e81b6044820152606401610f6a565b42816020015111612fbe5760405162461bcd60e51b815260206004820152600360248201526236b19960e91b6044820152606401610f6a565b60408181015160009081526004858101602090815291839020845180825592850151600182015560185493516323b872dd60e01b81523392810192909252306024830152604482019290925290916001600160a01b0316906323b872dd906064016020604051808303816000875af115801561303e573d6000803e3d6000fd5b505050506040513d601f19601f8201168201806040525081019061306291906144fd565b6130945760405162461bcd60e51b81526020600482015260036024820152626d633360e81b6044820152606401610f6a565b604080830151815187815260208101919091527fdf1ccadd90c8987aa73568b11e0c57744db13dccf98de0a82f2b9bc6edb3d104910160405180910390a1505080806130df906143f7565b915050612f1c565b60606011805480602002602001604051908101604052809291908181526020016000905b828210156131535760008481526020908190206040805180820190915260028502909101805482526001908101546001600160a01b031682840152908352909201910161310b565b50505050905090565b61316533613a4c565b565b6001600160a01b03918216600090815260016020908152604080832093909416825291909152205490565b61319a6139f3565b600854156131c1576019546008546131bb916001600160a01b031690613796565b60006008555b6009541561324d57601854601a5460095460405163a9059cbb60e01b81526001600160a01b039283166004820152602481019190915291169063a9059cbb906044016020604051808303816000875af1158015613222573d6000803e3d6000fd5b505050506040513d601f19601f8201168201806040525081019061324691906144fd565b5060006009555b6131656001600555565b6001600160a01b0381166132965760405162461bcd60e51b8152600401610f6a906020808252600490820152630736176360e41b604082015260600190565b33600090815260208190526040902054806132dc5760405162461bcd60e51b8152600401610f6a906020808252600490820152637361763160e01b604082015260600190565b3360009081526010602052604090208054156132fb576132fb33613bcd565b6040518060800160405280838152602001846001600160a01b03168152602001613323612a97565b8152600060209182018190523381526010825260409081902083518155918301516001830180546001600160a01b0319166001600160a01b0390921691909117905582810151600283015560609092015160038201805460ff191691151591909117905590517fe08472d1275fefbb15ff0aea278bb1f42c491be3fa4358160826ba7e420ae613916133b4916145d1565b60405180910390a1505050565b61316533613bcd565b6133ee60405180606001604052806000815260200160008152602001600081525090565b5060009182526006602090815260408084209284526004909201815291819020815160608101835281548152600182015493810193909352600201549082015290565b6011818154811061344157600080fd5b6000918252602090912060029091020180546001909101549091506001600160a01b031682565b6019546001600160a01b031633148061348b5750601a546001600160a01b031633145b61349457600080fd5b60005b8181101561366d5760008383838181106134b3576134b3614461565b9050606002018036038101906134c991906144e1565b905060008160400151116135055760405162461bcd60e51b815260206004820152600360248201526207372360ec1b6044820152606401610f6a565b8051600090815260066020526040902080546001600160a01b03166135525760405162461bcd60e51b815260206004820152600360248201526273723160e81b6044820152606401610f6a565b60208083015160009081526004830190915260409020600181015461359f5760405162461bcd60e51b815260206004820152600360248201526239b91960e91b6044820152606401610f6a565b428160010154106135d85760405162461bcd60e51b815260206004820152600360248201526273723360e81b6044820152606401610f6a565b6002810154156136105760405162461bcd60e51b81526020600482015260036024820152621cdc8d60ea1b6044820152606401610f6a565b604083810151600283015583516020808601518351928352908201527fe705624d526f73216e03ddbd1769e05ec39ccc421f51fc00dd3bfa77d6f6e970910160405180910390a15050508080613665906143f7565b915050613497565b505050565b6001600160a01b0383166136d45760405162461bcd60e51b8152602060048201526024808201527f45524332303a20617070726f76652066726f6d20746865207a65726f206164646044820152637265737360e01b6064820152608401610f6a565b6001600160a01b0382166137355760405162461bcd60e51b815260206004820152602260248201527f45524332303a20617070726f766520746f20746865207a65726f206164647265604482015261737360f01b6064820152608401610f6a565b6001600160a01b0383811660008181526001602090815260408083209487168084529482529182902085905590518481527f8c5be1e5ebec7d5bd14f71427d1e84f3dd0314c0f7b2291e5b200ac8c7c3b925910160405180910390a3505050565b80602360006137a3612a97565b815260200190815260200160002060008282546137c091906143ae565b909155506115d690508282613cf0565b60006137dc8484613167565b90506000198114611bde57818110156138375760405162461bcd60e51b815260206004820152601d60248201527f45524332303a20696e73756666696369656e7420616c6c6f77616e63650000006044820152606401610f6a565b611bde8484848403613672565b6001600160a01b0383166138a85760405162461bcd60e51b815260206004820152602560248201527f45524332303a207472616e736665722066726f6d20746865207a65726f206164604482015264647265737360d81b6064820152608401610f6a565b6001600160a01b03821661390a5760405162461bcd60e51b815260206004820152602360248201527f45524332303a207472616e7366657220746f20746865207a65726f206164647260448201526265737360e81b6064820152608401610f6a565b613915838383613d7d565b6001600160a01b0383166000908152602081905260409020548181101561398d5760405162461bcd60e51b815260206004820152602660248201527f45524332303a207472616e7366657220616d6f756e7420657863656564732062604482015265616c616e636560d01b6064820152608401610f6a565b6001600160a01b03848116600081815260208181526040808320878703905593871680835291849020805487019055925185815290927fddf252ad1be2c89b69c2b068fc378daa952ba7f163c4a11628f55a4df523b3ef910160405180910390a3611bde565b600260055403613a455760405162461bcd60e51b815260206004820152601f60248201527f5265656e7472616e637947756172643a207265656e7472616e742063616c6c006044820152606401610f6a565b6002600555565b6001600160a01b0381166000908152600f602052604090208054613a9b5760405162461bcd60e51b815260206004820152600660248201526507266727620360d41b6044820152606401610f6a565b8054600d54600091613aac9161444e565b90506000600d54600c54613ac091906145ba565b9050600083600101548460000154613ad891906145ba565b90506000818311613aea576000613af4565b613af4828461444e565b90508315613b1357613b068482614598565b600c55600d849055613b1f565b600a54600c556000600d555b5050506001600160a01b039092166000908152600f60205260408120818155600101555050565b600060226000613b54612a97565b815260200190815260200160002090508115613ba0578260206000828254613b7c91906143ae565b9091555050805483908290600090613b959084906143ae565b9091555061366d9050565b8260206000828254613bb2919061444e565b92505081905550828160010160008282546112bd91906143ae565b6001600160a01b03811660009081526010602052604090208054613c1b5760405162461bcd60e51b8152602060048201526005602482015264072617668360dc1b6044820152606401610f6a565b600381015460ff1615613cae57805460138054600090613c3c90849061444e565b909155505060018101546001600160a01b031660009081526012602052604090205480613c6857600080fd5b81546011613c7760018461444e565b81548110613c8757613c87614461565b90600052602060002090600202016000016000828254613ca7919061444e565b9091555050505b506001600160a01b031660009081526010602052604081208181556001810180546001600160a01b03191690556002810191909155600301805460ff19169055565b7f000000000000000000000000000000000000000000000000000000000000000081613d1b60025490565b613d2591906143ae565b1115613d735760405162461bcd60e51b815260206004820152601960248201527f45524332304361707065643a20636170206578636565646564000000000000006044820152606401610f6a565b6115d68282613e01565b6001600160a01b03831615613de657613d9883826000613ecc565b6001600160a01b0383166000908152600f602052604090205415613dbf57613dbf83613a4c565b6001600160a01b03831660009081526010602052604090205415613de657613de683613bcd565b6001600160a01b0382161561366d5761366d82826001613ecc565b6001600160a01b038216613e575760405162461bcd60e51b815260206004820152601f60248201527f45524332303a206d696e7420746f20746865207a65726f2061646472657373006044820152606401610f6a565b613e6360008383613d7d565b8060026000828254613e7591906143ae565b90915550506001600160a01b038216600081815260208181526040808320805486019055518481527fddf252ad1be2c89b69c2b068fc378daa952ba7f163c4a11628f55a4df523b3ef910160405180910390a35050565b600060216000613eda612a97565b81526020019081526020016000206000856001600160a01b03166001600160a01b0316815260200190815260200160002090508115613f325782816000016000828254613f2791906143ae565b90915550611bde9050565b82816001016000828254613f4691906143ae565b909155505050505050565b60405180606001604052806003906020820280368337509192915050565b600060208083528351808285015260005b81811015613f9c57858101830151858201604001528201613f80565b506000604082860101526040601f19601f8301168501019250505092915050565b6001600160a01b0381168114611e5f57600080fd5b60008060408385031215613fe557600080fd5b823591506020830135613ff781613fbd565b809150509250929050565b6000806040838503121561401557600080fd5b823561402081613fbd565b946020939093013593505050565b60006020828403121561404057600080fd5b5035919050565b60008060006060848603121561405c57600080fd5b833561406781613fbd565b9250602084013561407781613fbd565b929592945050506040919091013590565b60006020828403121561409a57600080fd5b8135611ebf81613fbd565b60008083601f8401126140b757600080fd5b50813567ffffffffffffffff8111156140cf57600080fd5b6020830191508360206060830285010111156140ea57600080fd5b9250929050565b6000806020838503121561410457600080fd5b823567ffffffffffffffff81111561411b57600080fd5b614127858286016140a5565b90969095509350505050565b60008083601f84011261414557600080fd5b50813567ffffffffffffffff81111561415d57600080fd5b6020830191508360208260061b85010111156140ea57600080fd5b6000806020838503121561418b57600080fd5b823567ffffffffffffffff8111156141a257600080fd5b61412785828601614133565b60608101818360005b60038110156141df5781516001600160a01b03168352602092830192909101906001016141b7565b50505092915050565b60008083601f8401126141fa57600080fd5b50813567ffffffffffffffff81111561421257600080fd5b6020830191508360208260051b85010111156140ea57600080fd5b6000806000806060858703121561424357600080fd5b8435935060208501359250604085013567ffffffffffffffff81111561426857600080fd5b614274878288016141e8565b95989497509550505050565b6000806020838503121561429357600080fd5b823567ffffffffffffffff8111156142aa57600080fd5b614127858286016141e8565b602080825282518282018190526000919060409081850190868401855b82811015614301578151805185528601516001600160a01b03168685015292840192908501906001016142d3565b5091979650505050505050565b6000806040838503121561432157600080fd5b823561432c81613fbd565b91506020830135613ff781613fbd565b6000806040838503121561434f57600080fd5b50508035926020909101359150565b600181811c9082168061437257607f821691505b60208210810361439257634e487b7160e01b600052602260045260246000fd5b50919050565b634e487b7160e01b600052601160045260246000fd5b80820180821115610ef557610ef5614398565b6000602082840312156143d357600080fd5b8151611ebf81613fbd565b6000602082840312156143f057600080fd5b5051919050565b60006001820161440957614409614398565b5060010190565b6000806000806080858703121561442657600080fd5b84519350602085015161443881613fbd565b6040860151606090960151949790965092505050565b81810381811115610ef557610ef5614398565b634e487b7160e01b600052603260045260246000fd5b60006060828403121561448957600080fd5b6040516060810181811067ffffffffffffffff821117156144ba57634e487b7160e01b600052604160045260246000fd5b80604052508091508235815260208301356020820152604083013560408201525092915050565b6000606082840312156144f357600080fd5b611ebf8383614477565b60006020828403121561450f57600080fd5b81518015158114611ebf57600080fd5b60006040828403121561453157600080fd5b6040516040810181811067ffffffffffffffff8211171561456257634e487b7160e01b600052604160045260246000fd5b604052823581526020928301359281019290925250919050565b60006040828403121561458e57600080fd5b611ebf838361451f565b6000826145b557634e487b7160e01b600052601260045260246000fd5b500490565b8082028115828204841417610ef557610ef5614398565b8154815260018201546001600160a01b0316602082015260028201546040820152600382015460ff161515606082015260808101610ef5565b60008235605e1983360301811261462057600080fd5b9190910192915050565b6000808335601e1984360301811261464157600080fd5b83018035915067ffffffffffffffff82111561465c57600080fd5b6020019150600681901b36038213156140ea57600080fdfea2646970667358221220844e29903ff72fbefb6512ff5534118aa4a7db8e680662e47d36da551207ba8664736f6c63430008130033",
  "immutableReferences": {
    "737": [
      {
        "length": 32,
        "start": 1625
      },
      {
        "length": 32,
        "start": 10972
      },
      {
        "length": 32,
        "start": 15602
      }
    ]
  },
  "source": "// SPDX-License-Identifier: MIT\npragma solidity 0.8.19;\nimport \"@openzeppelin/contracts/token/ERC20/extensions/ERC20Capped.sol\";\nimport \"@openzeppelin/contracts/security/ReentrancyGuard.sol\";\nimport \"./Asami.sol\";\n\ncontract AsamiCore is ERC20Capped, ReentrancyGuard {\n    struct Account {\n      address addr;\n      uint256 approvedGaslessAmount;\n      uint256 unclaimedAsamiBalance;\n      uint256 unclaimedDocBalance;\n      mapping( uint256 => Campaign ) campaigns;\n    }\n    mapping(uint256 => Account) public accounts;\n    mapping(address => uint256) public accountIdByAddress;\n\n    function getCampaign(uint256 _accountId, uint256 _briefing) public view returns (Campaign memory) {\n        return accounts[_accountId].campaigns[_briefing];\n    }\n\n    struct Campaign {\n        uint256 budget;\n        uint256 validUntil;\n        uint256 reportHash;\n    }\n\n    uint256 public adminUnclaimedAsamiBalance = 0;\n    uint256 public adminUnclaimedDocBalance = 0;\n\n    uint256 public defaultFeeRate = 10 * 1e18;\n    uint256 public feeRate = defaultFeeRate;\n    uint256 public votedFeeRate = defaultFeeRate;\n    uint256 public votedFeeRateVoteCount = 0;\n    /* To make the protocol more predictable, changes are applied only once every period */\n    uint256 public lastVotedFeeRateAppliedOn = 0;\n\n    struct FeeRateVote {\n        uint256 votes;\n        uint256 rate;\n    }\n    mapping(address => FeeRateVote) public feeRateVotes;\n\n    struct AdminVote {\n        uint256 votes;\n        address candidate;\n        uint256 cycle;\n        bool vested;\n    }\n    /* Maps holders to their vote */\n    mapping(address => AdminVote) public submittedAdminVotes;\n\n    struct AdminVoteCount {\n        uint256 votes;\n        address candidate;\n    }\n\n    /*\n    We're only storing all historic vote counts to have a view function that helps find out\n    which candidate to proclaim without relying on events.\n    */\n    AdminVoteCount[] public adminVoteCounts;\n    mapping(address => uint256) public adminVoteCountIdByCandidate;\n\n    function allAdminVoteCounts()\n        public\n        view\n        returns (AdminVoteCount[] memory)\n    {\n        return adminVoteCounts;\n    }\n\n    uint256 public vestedAdminVotesTotal;\n    uint256 public lastAdminElection;\n    address[3] public latestAdminElections;\n\n    function getLatestAdminElections() public view returns (address[3] memory) {\n        return latestAdminElections;\n    }\n\n    IERC20 internal doc;\n    address public admin; // An address that may be stored on a server.\n    address public adminTreasury; // A cold storage address for admin money.\n\n    uint256 public assignedAsamiTokens;\n\n    event AdminVoteSaved(AdminVote vote);\n    event AccountUpdated(uint256 accountId);\n    event CampaignCreated(uint256 accountId, uint256 campaignId);\n    event CampaignSaved(uint256 accountId, uint256 campaignId);\n    event CampaignExtended(uint256 accountId, uint256 campaignId);\n    event CampaignToppedUp(uint256 accountId, uint256 campaignId);\n    event CampaignReimbursed(uint256 accountId, uint256 campaignId);\n    event ReportSubmitted(uint256 accountId, uint256 campaignId);\n    event CollabSaved(uint256 advertiserId, uint256 briefing, uint256 accountId, uint256 gross, uint256 fee);\n\n    modifier onlyAdmin() {\n        require(msg.sender == admin || msg.sender == adminTreasury);\n        _;\n    }\n\n    constructor(\n        address _dollarOnChainAddress,\n        address _adminAddress\n    ) ERC20(\"Asami Core\", \"ASAMI\") ERC20Capped(21 * 1e24) {\n        doc = IERC20(_dollarOnChainAddress);\n        adminTreasury = msg.sender;\n        admin = _adminAddress;\n    }\n\n    function _beforeTokenTransfer(\n        address from,\n        address to,\n        uint256 amount\n    ) internal override {\n        super._beforeTokenTransfer(from, to, amount);\n        if (from != address(0)) {\n          _registerRecentBalanceChange(from, amount, false);\n\n          if (feeRateVotes[from].votes > 0) {\n              removeFeeRateVoteHelper(from);\n          }\n          if (submittedAdminVotes[from].votes > 0) {\n              removeAdminVoteHelper(from);\n          }\n        }\n\n        if (to != address(0)) {\n          _registerRecentBalanceChange(to, amount, true);\n        }\n    }\n\n    struct ClaimAccountsParam {\n        uint256 accountId;\n        address addr;\n    }\n\n    function claimAccounts(\n        ClaimAccountsParam[] calldata _input\n    ) external onlyAdmin nonReentrant {\n        for (uint256 i = 0; i < _input.length; i++) {\n            ClaimAccountsParam calldata claim = _input[i];\n\n            Account storage account = accounts[claim.accountId];\n            require(account.addr == address(0), \"ca0\");\n            require(accountIdByAddress[claim.addr] == 0, \"ca1\");\n\n            accountIdByAddress[claim.addr] = claim.accountId;\n            account.addr = claim.addr;\n            account.approvedGaslessAmount = 5e18; \n        }\n    }\n\n    function claimBalances(uint256[] calldata _accountIds) external nonReentrant {\n      for (uint256 i = 0; i < _accountIds.length; i++){\n        Account storage account = accounts[_accountIds[i]];\n        require(account.addr != address(0), \"cb0\");\n\n        if (account.unclaimedAsamiBalance > 0) {\n          uint256 balance = account.unclaimedAsamiBalance;\n          account.unclaimedAsamiBalance = 0;\n          _safeMint(account.addr, balance);\n        }\n\n        if (account.unclaimedDocBalance > 0) {\n          uint256 balance = account.unclaimedDocBalance;\n          account.unclaimedDocBalance = 0;\n          doc.transfer(account.addr, balance);\n        }\n      }\n    }\n\n    function gaslessClaimBalances(\n      uint256 _fee,\n      uint256 _rbtcAmount,\n      uint256[] calldata _accountIds\n    ) external payable nonReentrant onlyAdmin {\n      require(_rbtcAmount > 1e11, \"gcb0\");\n      require(msg.value == (_rbtcAmount * _accountIds.length), \"gcb1\");\n\n      for (uint256 i = 0; i < _accountIds.length; i++){\n        Account storage account = accounts[_accountIds[i]];\n        require(account.addr != address(0), \"gcb2\");\n        require(account.unclaimedDocBalance > _fee, \"gcb3\");\n        require(account.approvedGaslessAmount >= _fee, \"gcb4\");\n\n        uint256 docs = account.unclaimedDocBalance - _fee;\n        account.unclaimedDocBalance = 0;\n        doc.transfer(account.addr, docs);\n        adminUnclaimedDocBalance += _fee;\n        payable(account.addr).transfer(_rbtcAmount);\n\n        if (account.unclaimedAsamiBalance > 0) {\n          uint256 balance = account.unclaimedAsamiBalance;\n          account.unclaimedAsamiBalance = 0;\n          _safeMint(account.addr, balance);\n        }\n      }\n    }\n\n    function changeGaslessApproval(uint256 newAmount) external {\n        uint256 accountId = accountIdByAddress[msg.sender];\n        Account storage account = accounts[accountId];\n        require(account.addr != address(0), \"cga0\");\n        account.approvedGaslessAmount = newAmount;\n    }\n\n    function claimAdminUnclaimedBalances() external nonReentrant {\n      if (adminUnclaimedAsamiBalance > 0) {\n        _safeMint(admin, adminUnclaimedAsamiBalance);\n        adminUnclaimedAsamiBalance = 0;\n      }\n\n      if (adminUnclaimedDocBalance > 0) {\n        doc.transfer(adminTreasury, adminUnclaimedDocBalance);\n        adminUnclaimedDocBalance = 0;\n      }\n    }\n\n    function withdrawAccidentallySentRbtc() external onlyAdmin {\n      payable(adminTreasury).transfer(address(this).balance);\n    }\n\n    struct MakeCampaignsParam {\n        uint256 budget;\n        uint256 validUntil;\n        uint256 briefing;\n    }\n\n    function makeCampaigns(\n        MakeCampaignsParam[] calldata _inputs\n    ) public nonReentrant {\n        uint256 accountId = accountIdByAddress[msg.sender];\n        Account storage account = accounts[accountId];\n        require(account.addr != address(0), \"mc0\");\n\n        for (uint i = 0; i < _inputs.length; i++) {\n            MakeCampaignsParam memory input = _inputs[i];\n            require(input.budget > 0, \"mc1\");\n            require(input.validUntil > block.timestamp, \"mc2\");\n            Campaign storage c = account.campaigns[input.briefing];\n            c.budget = input.budget;\n            c.validUntil = input.validUntil;\n            require(doc.transferFrom(msg.sender, address(this), input.budget), \"mc3\");\n\n            emit CampaignCreated(accountId, input.briefing);\n        }\n    }\n\n    struct ExtendCampaignsParam {\n        uint256 validUntil;\n        uint256 briefing;\n    }\n\n    function extendCampaigns(\n        ExtendCampaignsParam[] calldata _inputs\n    ) public nonReentrant {\n        uint256 accountId = accountIdByAddress[msg.sender];\n        Account storage account = accounts[accountId];\n        require(account.addr != address(0), \"ec0\");\n\n        for (uint i = 0; i < _inputs.length; i++) {\n            ExtendCampaignsParam memory input = _inputs[i];\n            require(input.validUntil > 0, \"ec1\");\n            Campaign storage c = account.campaigns[input.briefing];\n            require(c.validUntil != 0, \"ec2\");\n            require(input.validUntil > c.validUntil, \"ec3\");\n            c.validUntil = input.validUntil;\n            c.reportHash = 0;\n\n            emit CampaignExtended(accountId, input.briefing);\n        }\n    }\n\n    struct TopUpCampaignsParam {\n        uint256 accountId;\n        uint256 budget;\n        uint256 briefing;\n    }\n\n    function topUpCampaigns(\n        TopUpCampaignsParam[] calldata _inputs\n    ) public nonReentrant {\n        for (uint i = 0; i < _inputs.length; i++) {\n            TopUpCampaignsParam memory input = _inputs[i];\n            require(input.budget > 0, \"tc0\");\n\n            Account storage account = accounts[input.accountId];\n            require(account.addr != address(0), \"tc1\");\n\n            Campaign storage c = account.campaigns[input.briefing];\n            require(c.validUntil > block.timestamp, \"tc2\");\n            c.budget += input.budget;\n\n            require(doc.transferFrom(msg.sender, address(this), input.budget), \"tc3\");\n            emit CampaignToppedUp(input.accountId, input.briefing);\n        }\n    }\n\n    struct ReimburseCampaignsParam {\n        uint256 accountId;\n        uint256 briefing;\n    }\n\n    function reimburseCampaigns(\n        ReimburseCampaignsParam[] calldata _inputs\n    ) external nonReentrant {\n        for (uint i = 0; i < _inputs.length; i++) {\n            ReimburseCampaignsParam memory input = _inputs[i];\n\n            Account storage account = accounts[input.accountId];\n            require(account.addr != address(0), \"rc1\");\n\n            Campaign storage campaign = account.campaigns[input.briefing];\n            require(campaign.budget > 0, \"rc2\");\n            require(campaign.validUntil < block.timestamp, \"rc3\");\n\n            campaign.budget = 0;\n            require(doc.transfer(account.addr, campaign.budget), \"rdc 4\");\n            emit CampaignReimbursed(input.accountId, input.briefing);\n        }\n    }\n\n    struct SubmitReportsParam {\n        uint256 accountId;\n        uint256 briefing;\n        uint256 reportHash;\n    }\n\n    function submitReports(\n        SubmitReportsParam[] calldata _inputs\n    ) external onlyAdmin {\n        for (uint i = 0; i < _inputs.length; i++) {\n            SubmitReportsParam memory input = _inputs[i];\n            require(input.reportHash > 0, \"sr0\");\n\n            Account storage account = accounts[input.accountId];\n            require(account.addr != address(0), \"sr1\");\n\n            Campaign storage campaign = account.campaigns[input.briefing];\n            require(campaign.validUntil > 0, \"sr2\");\n            require(campaign.validUntil < block.timestamp, \"sr3\");\n            require(campaign.reportHash == 0, \"sr4\");\n            campaign.reportHash = input.reportHash;\n            emit ReportSubmitted(input.accountId, input.briefing);\n        }\n    }\n\n    struct MakeCollabsParam {\n        uint256 advertiserId;\n        uint256 briefing;\n        MakeCollabsParamItem[] collabs;\n    }\n\n    struct MakeCollabsParamItem {\n        uint256 accountId;\n        uint256 docReward;\n    }\n\n    function adminMakeCollabs(\n        MakeCollabsParam[] calldata _input\n    ) external onlyAdmin nonReentrant {\n        uint256 asamiTokenCap = cap();\n\n        for (uint256 i = 0; i < _input.length; i++) {\n          Account storage advertiser = accounts[_input[i].advertiserId];\n          Campaign storage campaign = advertiser.campaigns[_input[i].briefing];\n          uint256 newAdvertiserTokens = 0;\n          uint256 newFees = 0;\n          uint256 budget = campaign.budget;\n          require(campaign.validUntil > block.timestamp, \"amc1\");\n\n          for (uint256 j = 0; j < _input[i].collabs.length; j++) {\n            MakeCollabsParamItem calldata item = _input[i].collabs[j];\n            require(item.accountId > 0, \"amc2\");\n\n            Account storage member = accounts[item.accountId];\n\n            uint256 gross = item.docReward;\n            require(budget >= gross, \"amc4\");\n            budget -= gross;\n\n            uint256 fee = (gross * feeRate) / 1e20;\n            uint256 reward = gross - fee;\n\n            uint256 remainingToCap = asamiTokenCap - assignedAsamiTokens;\n            uint256 newTokens = (fee > remainingToCap) ? remainingToCap : fee;\n            uint256 advertiserTokens = (newTokens * 10 * 1e18) / 100e18;\n            uint256 memberTokens = (newTokens * 15 * 1e18) / 100e18;\n            uint256 adminTokens = newTokens - advertiserTokens - memberTokens;\n\n            adminUnclaimedAsamiBalance += adminTokens;\n            newAdvertiserTokens += advertiserTokens;\n            member.unclaimedAsamiBalance += memberTokens;\n            member.unclaimedDocBalance += reward;\n            assignedAsamiTokens += newTokens;\n            newFees += fee;\n          }\n          changeFeePool(newFees, true);\n          campaign.budget = budget;\n          advertiser.unclaimedAsamiBalance += newAdvertiserTokens;\n      }\n    }\n\n    function _safeMint(address _addr, uint256 _amount) private {\n        recentTokens[getCurrentCycle()] += _amount;\n        _mint(_addr, _amount);\n    }\n\n    function getCycleLength() public pure returns (uint256) {\n        return 60 * 60 * 24 * 15;\n    }\n\n    function getCurrentCycle() public view returns (uint256) {\n        return block.timestamp / getCycleLength();\n    }\n\n    function getNextCycle() public view returns (uint256) {\n        return getCurrentCycle() + getCycleLength();\n    }\n\n    /* Accounts with unclaimed DOC rewards always have an option to have their funds sent by the admin paying for the transaction fees. */\n    uint256 public adminUnclaimedDoc;\n    uint256 public adminUnclaimedTokens;\n    uint256 public adminGaslessClaimRewardPrice;\n    uint256 public adminGaslessClaimAccountPrice;\n\n    uint256 public feePool;\n\n    struct BalanceChange {\n      uint256 added;\n      uint256 substracted;\n    }\n    mapping (uint256 => mapping(address => BalanceChange)) public recentBalanceChanges;\n    mapping (uint256 => BalanceChange) public recentFeePoolChanges;\n    mapping (uint256 => uint256) public recentTokens;\n    mapping(address => uint256) public lastFeePoolShareCycles;\n\n    function getRecentBalanceChange(address _holder) public view returns (BalanceChange memory) {\n      return recentBalanceChanges[getCurrentCycle()][_holder];\n    }\n\n    function getBalanceBeforeRecentChanges(address _holder) public view returns (uint256) {\n      BalanceChange storage recent = recentBalanceChanges[getCurrentCycle()][_holder];\n      return (balanceOf(_holder) + recent.substracted) - recent.added;\n    }\n\n    function _registerRecentBalanceChange(address _holder, uint256 _amount, bool _added) private {\n      BalanceChange storage recent = recentBalanceChanges[getCurrentCycle()][_holder];\n      if(_added){\n        recent.added += _amount;\n      } else {\n        recent.substracted += _amount;\n      }\n    }\n\n    function changeFeePool(uint256 _amount, bool _added) private {\n      BalanceChange storage recent = recentFeePoolChanges[getCurrentCycle()];\n      if(_added){\n        feePool += _amount;\n        recent.added += _amount;\n      } else {\n        feePool -= _amount;\n        recent.substracted += _amount;\n      }\n    }\n\n    function getFeePoolBeforeRecentChanges() public view returns (uint256) {\n      BalanceChange storage recent = recentFeePoolChanges[getCurrentCycle()];\n      return (feePool + recent.substracted) - recent.added;\n    }\n\n    function claimFeePoolShare(address[] calldata _holders) external nonReentrant {\n        uint256 current = getCurrentCycle();\n        uint256 supply = totalSupply() - recentTokens[current];\n        uint256 pool = getFeePoolBeforeRecentChanges();\n        require(supply > 0, \"cfp0\");\n        require(pool > 0, \"cfp1\");\n\n        for (uint256 i = 0; i < _holders.length; i++) {\n          address holder = _holders[i];\n\n          require(lastFeePoolShareCycles[holder] < current, \"cfp2\");\n\n          uint256 balance = getBalanceBeforeRecentChanges(holder);\n          require(balance > 0, \"cfp3\");\n          uint256 reward = (balance * pool) / supply;\n\n          lastFeePoolShareCycles[holder] = current;\n          changeFeePool(reward, false);\n\n          require(doc.transfer(holder, reward), \"cfp4\");\n        }\n    }\n\n    function applyVotedFeeRate() external {\n        uint256 currentCycle = getCurrentCycle();\n        require(currentCycle != lastVotedFeeRateAppliedOn, \"afr0\");\n        feeRate = votedFeeRate;\n        lastVotedFeeRateAppliedOn = currentCycle;\n    }\n\n    function submitFeeRateVote(uint256 _rate) external {\n        require(_rate > 0 && _rate < 1e20, \"srv0\");\n\n        FeeRateVote storage vote = feeRateVotes[msg.sender];\n        if (vote.votes > 0) {\n            removeFeeRateVoteHelper(msg.sender);\n        }\n\n        uint256 votes = balanceOf(msg.sender);\n        require(votes > 0, \"srv1\");\n\n        votedFeeRate =\n            ((votedFeeRate * votedFeeRateVoteCount) + (votes * _rate)) /\n            (votedFeeRateVoteCount + votes);\n        votedFeeRateVoteCount += votes;\n        vote.votes = votes;\n        vote.rate = _rate;\n    }\n\n    function removeFeeRateVote() external {\n        removeFeeRateVoteHelper(msg.sender);\n    }\n\n    function removeFeeRateVoteHelper(address _holder) private {\n        FeeRateVote storage vote = feeRateVotes[_holder];\n        require(vote.votes > 0, \"rfrv 0\");\n        uint256 nextVoteCount = votedFeeRateVoteCount - vote.votes;\n        uint256 currentVolume = votedFeeRate * votedFeeRateVoteCount;\n        uint256 removedVolume = vote.votes * vote.rate;\n        uint256 nextVolume = currentVolume > removedVolume\n            ? currentVolume - removedVolume\n            : 0;\n\n        if (nextVoteCount > 0) {\n            votedFeeRate = nextVolume / nextVoteCount;\n            votedFeeRateVoteCount = nextVoteCount;\n        } else {\n            votedFeeRate = defaultFeeRate;\n            votedFeeRateVoteCount = 0;\n        }\n        delete feeRateVotes[_holder];\n    }\n\n    function submitAdminVote(address _candidate) external {\n        require(_candidate != address(0), \"sav0\");\n        uint256 votes = balanceOf(msg.sender);\n        require(votes > 0, \"sav1\");\n\n        AdminVote storage existing = submittedAdminVotes[msg.sender];\n        if (existing.votes > 0) {\n            removeAdminVoteHelper(msg.sender);\n        }\n\n        submittedAdminVotes[msg.sender] = AdminVote({\n            candidate: _candidate,\n            votes: votes,\n            cycle: getCurrentCycle(),\n            vested: false\n        });\n\n        emit AdminVoteSaved(submittedAdminVotes[msg.sender]);\n    }\n\n    function vestAdminVotes(address[] calldata _holders) external {\n        uint256 thisCycle = getCurrentCycle();\n\n        for (uint256 i = 0; i < _holders.length; i++) {\n            AdminVote storage vote = submittedAdminVotes[_holders[i]];\n            require(vote.cycle > 0, \"vav 0\");\n            require(vote.cycle < thisCycle, \"vav 1\");\n            require(!vote.vested, \"vav 2\");\n            vote.vested = true;\n            vestedAdminVotesTotal += vote.votes;\n\n            uint256 voteCountId = adminVoteCountIdByCandidate[vote.candidate];\n            if (voteCountId > 0) {\n                AdminVoteCount storage count = adminVoteCounts[voteCountId - 1];\n                count.votes += vote.votes;\n            } else {\n                AdminVoteCount storage count = adminVoteCounts.push();\n                count.votes = vote.votes;\n                count.candidate = vote.candidate;\n                adminVoteCountIdByCandidate[vote.candidate] = adminVoteCounts\n                    .length;\n            }\n            emit AdminVoteSaved(vote);\n        }\n    }\n\n    function proclaimCycleAdminWinner(address _candidate) external {\n        uint256 voteCountId = adminVoteCountIdByCandidate[_candidate];\n        require(voteCountId > 0, \"pcw0\");\n        AdminVoteCount storage count = adminVoteCounts[voteCountId - 1];\n\n        require(vestedAdminVotesTotal > 0, \"pcw1\");\n        require(count.votes > vestedAdminVotesTotal / 2, \"pcw2\");\n        uint256 thisCycle = getCurrentCycle();\n        require(lastAdminElection < thisCycle, \"pcw3\");\n\n        lastAdminElection = thisCycle;\n        latestAdminElections[2] = latestAdminElections[1];\n        latestAdminElections[1] = latestAdminElections[0];\n        latestAdminElections[0] = _candidate;\n\n        if (\n            _candidate == latestAdminElections[1] &&\n            _candidate == latestAdminElections[2]\n        ) {\n            admin = _candidate;\n            adminTreasury = _candidate;\n        }\n    }\n\n    function removeAdminVote() external {\n        removeAdminVoteHelper(msg.sender);\n    }\n\n    function removeAdminVoteHelper(address _holder) private {\n        AdminVote storage vote = submittedAdminVotes[_holder];\n        require(vote.votes > 0, \"ravh0\");\n        if (vote.vested) {\n            vestedAdminVotesTotal -= vote.votes;\n\n            uint256 voteCountId = adminVoteCountIdByCandidate[vote.candidate];\n            require(voteCountId > 0);\n            adminVoteCounts[voteCountId - 1].votes -= vote.votes;\n        }\n        delete submittedAdminVotes[_holder];\n    }\n\n    function setAdminAddress(address _admin) external {\n        require(msg.sender == adminTreasury, \"saa0\");\n        admin = _admin;\n    }\n\n    uint256 public migrationCursor;\n    bool public migrationHoldersDone;\n    bool public migrationAccountsDone;\n\n    function migrateTokensFromOldContract(address _oldContract, uint256 _items) external {\n      require(!migrationHoldersDone || !migrationAccountsDone, \"mig0\");\n      Asami oldContract = Asami(_oldContract);\n\n      if (!migrationHoldersDone) {\n        for (uint256 i = 0; i < _items; i++) {\n          try oldContract.holders(migrationCursor+i) returns (address holder) {\n            uint256 balance = oldContract.balanceOf(holder);\n            if(balance > 0){\n              _safeMint(holder, oldContract.balanceOf(holder));\n            }\n          } catch {\n              migrationHoldersDone = true;\n              break;\n          }\n        }\n      }\n\n      if (!migrationAccountsDone) {\n        for (uint256 i = 0; i < _items; i++) {\n          try oldContract.accountIds(migrationCursor + i) returns (uint256 oldAccountId) {\n            ( , address addr, uint256 oldUnclaimedAsami,) = oldContract.accounts(oldAccountId);\n            Account storage account = accounts[oldAccountId];\n            if(addr != address(0)) {\n              accountIdByAddress[addr] = oldAccountId;\n              account.addr = addr;\n              account.approvedGaslessAmount = 5e18; \n            } else {\n              account.unclaimedAsamiBalance = oldUnclaimedAsami;\n            }\n          } catch {\n              migrationAccountsDone = true;\n              break;\n          }\n        }\n      }\n\n      migrationCursor += _items;\n    }\n}\n",
  "sourcePath": "/home/nubis/asami/contract/contracts/AsamiCore.sol",
  "compiler": {
    "name": "solc",
    "version": "0.8.19+commit.7dd6d404.Emscripten.clang"
  },
  "schemaVersion": "3.4.15",
  "updatedAt": "2024-04-12T13:27:45.042Z",
  "networkType": "ethereum",
  "devdoc": {
    "events": {
      "Approval(address,address,uint256)": {
        "details": "Emitted when the allowance of a `spender` for an `owner` is set by a call to {approve}. `value` is the new allowance."
      },
      "Transfer(address,address,uint256)": {
        "details": "Emitted when `value` tokens are moved from one account (`from`) to another (`to`). Note that `value` may be zero."
      }
    },
    "kind": "dev",
    "methods": {
      "allowance(address,address)": {
        "details": "See {IERC20-allowance}."
      },
      "approve(address,uint256)": {
        "details": "See {IERC20-approve}. NOTE: If `amount` is the maximum `uint256`, the allowance is not updated on `transferFrom`. This is semantically equivalent to an infinite approval. Requirements: - `spender` cannot be the zero address."
      },
      "balanceOf(address)": {
        "details": "See {IERC20-balanceOf}."
      },
      "cap()": {
        "details": "Returns the cap on the token's total supply."
      },
      "decimals()": {
        "details": "Returns the number of decimals used to get its user representation. For example, if `decimals` equals `2`, a balance of `505` tokens should be displayed to a user as `5.05` (`505 / 10 ** 2`). Tokens usually opt for a value of 18, imitating the relationship between Ether and Wei. This is the default value returned by this function, unless it's overridden. NOTE: This information is only used for _display_ purposes: it in no way affects any of the arithmetic of the contract, including {IERC20-balanceOf} and {IERC20-transfer}."
      },
      "decreaseAllowance(address,uint256)": {
        "details": "Atomically decreases the allowance granted to `spender` by the caller. This is an alternative to {approve} that can be used as a mitigation for problems described in {IERC20-approve}. Emits an {Approval} event indicating the updated allowance. Requirements: - `spender` cannot be the zero address. - `spender` must have allowance for the caller of at least `subtractedValue`."
      },
      "increaseAllowance(address,uint256)": {
        "details": "Atomically increases the allowance granted to `spender` by the caller. This is an alternative to {approve} that can be used as a mitigation for problems described in {IERC20-approve}. Emits an {Approval} event indicating the updated allowance. Requirements: - `spender` cannot be the zero address."
      },
      "name()": {
        "details": "Returns the name of the token."
      },
      "symbol()": {
        "details": "Returns the symbol of the token, usually a shorter version of the name."
      },
      "totalSupply()": {
        "details": "See {IERC20-totalSupply}."
      },
      "transfer(address,uint256)": {
        "details": "See {IERC20-transfer}. Requirements: - `to` cannot be the zero address. - the caller must have a balance of at least `amount`."
      },
      "transferFrom(address,address,uint256)": {
        "details": "See {IERC20-transferFrom}. Emits an {Approval} event indicating the updated allowance. This is not required by the EIP. See the note at the beginning of {ERC20}. NOTE: Does not update the allowance if the current allowance is the maximum `uint256`. Requirements: - `from` and `to` cannot be the zero address. - `from` must have a balance of at least `amount`. - the caller must have allowance for ``from``'s tokens of at least `amount`."
      }
    },
    "version": 1
  },
  "userdoc": {
    "kind": "user",
    "methods": {},
    "version": 1
  }
}