{
  "contractName": "Asami",
  "abi": [
    {
      "inputs": [
        {
          "internalType": "address",
          "name": "_dollarOnChainAddress",
          "type": "address"
        }
      ],
      "stateMutability": "nonpayable",
      "type": "constructor"
    },
    {
      "anonymous": false,
      "inputs": [
        {
          "components": [
            {
              "internalType": "uint256",
              "name": "id",
              "type": "uint256"
            },
            {
              "internalType": "address",
              "name": "addr",
              "type": "address"
            },
            {
              "internalType": "uint256",
              "name": "unclaimedAsamiTokens",
              "type": "uint256"
            },
            {
              "internalType": "uint256",
              "name": "unclaimedDocRewards",
              "type": "uint256"
            },
            {
              "internalType": "uint256[]",
              "name": "handles",
              "type": "uint256[]"
            },
            {
              "internalType": "uint256[]",
              "name": "campaigns",
              "type": "uint256[]"
            },
            {
              "internalType": "uint256[]",
              "name": "collabs",
              "type": "uint256[]"
            }
          ],
          "indexed": false,
          "internalType": "struct Asami.Account",
          "name": "account",
          "type": "tuple"
        }
      ],
      "name": "AccountSaved",
      "type": "event"
    },
    {
      "anonymous": false,
      "inputs": [
        {
          "components": [
            {
              "internalType": "uint256",
              "name": "votes",
              "type": "uint256"
            },
            {
              "internalType": "address",
              "name": "candidate",
              "type": "address"
            },
            {
              "internalType": "uint256",
              "name": "cycle",
              "type": "uint256"
            },
            {
              "internalType": "bool",
              "name": "vested",
              "type": "bool"
            }
          ],
          "indexed": false,
          "internalType": "struct Asami.AdminVote",
          "name": "vote",
          "type": "tuple"
        }
      ],
      "name": "AdminVoteSaved",
      "type": "event"
    },
    {
      "anonymous": false,
      "inputs": [
        {
          "indexed": true,
          "internalType": "address",
          "name": "owner",
          "type": "address"
        },
        {
          "indexed": true,
          "internalType": "address",
          "name": "spender",
          "type": "address"
        },
        {
          "indexed": false,
          "internalType": "uint256",
          "name": "value",
          "type": "uint256"
        }
      ],
      "name": "Approval",
      "type": "event"
    },
    {
      "anonymous": false,
      "inputs": [
        {
          "components": [
            {
              "internalType": "uint256",
              "name": "id",
              "type": "uint256"
            },
            {
              "internalType": "uint256",
              "name": "accountId",
              "type": "uint256"
            },
            {
              "internalType": "enum Asami.Site",
              "name": "site",
              "type": "uint8"
            },
            {
              "internalType": "uint256",
              "name": "budget",
              "type": "uint256"
            },
            {
              "internalType": "uint256",
              "name": "remaining",
              "type": "uint256"
            },
            {
              "internalType": "string",
              "name": "contentId",
              "type": "string"
            },
            {
              "internalType": "uint256",
              "name": "priceScoreRatio",
              "type": "uint256"
            },
            {
              "internalType": "uint256[]",
              "name": "topics",
              "type": "uint256[]"
            },
            {
              "internalType": "uint256",
              "name": "validUntil",
              "type": "uint256"
            }
          ],
          "indexed": false,
          "internalType": "struct Asami.Campaign",
          "name": "campaign",
          "type": "tuple"
        }
      ],
      "name": "CampaignSaved",
      "type": "event"
    },
    {
      "anonymous": false,
      "inputs": [
        {
          "components": [
            {
              "internalType": "uint256",
              "name": "id",
              "type": "uint256"
            },
            {
              "internalType": "uint256",
              "name": "handleId",
              "type": "uint256"
            },
            {
              "internalType": "uint256",
              "name": "campaignId",
              "type": "uint256"
            },
            {
              "internalType": "uint256",
              "name": "gross",
              "type": "uint256"
            },
            {
              "internalType": "uint256",
              "name": "fee",
              "type": "uint256"
            },
            {
              "internalType": "string",
              "name": "proof",
              "type": "string"
            },
            {
              "internalType": "uint256",
              "name": "createdAt",
              "type": "uint256"
            }
          ],
          "indexed": false,
          "internalType": "struct Asami.Collab",
          "name": "collab",
          "type": "tuple"
        }
      ],
      "name": "CollabSaved",
      "type": "event"
    },
    {
      "anonymous": false,
      "inputs": [
        {
          "components": [
            {
              "internalType": "uint256",
              "name": "id",
              "type": "uint256"
            },
            {
              "internalType": "uint256",
              "name": "accountId",
              "type": "uint256"
            },
            {
              "internalType": "enum Asami.Site",
              "name": "site",
              "type": "uint8"
            },
            {
              "internalType": "uint256",
              "name": "price",
              "type": "uint256"
            },
            {
              "internalType": "uint256",
              "name": "score",
              "type": "uint256"
            },
            {
              "internalType": "uint256[]",
              "name": "topics",
              "type": "uint256[]"
            },
            {
              "internalType": "string",
              "name": "username",
              "type": "string"
            },
            {
              "internalType": "string",
              "name": "userId",
              "type": "string"
            },
            {
              "internalType": "bool",
              "name": "needsUpdate",
              "type": "bool"
            },
            {
              "internalType": "string",
              "name": "newUsername",
              "type": "string"
            },
            {
              "internalType": "uint256",
              "name": "newPrice",
              "type": "uint256"
            },
            {
              "internalType": "uint256",
              "name": "newScore",
              "type": "uint256"
            },
            {
              "internalType": "uint256[]",
              "name": "newTopics",
              "type": "uint256[]"
            },
            {
              "internalType": "uint256",
              "name": "lastUpdated",
              "type": "uint256"
            }
          ],
          "indexed": false,
          "internalType": "struct Asami.Handle",
          "name": "handle",
          "type": "tuple"
        }
      ],
      "name": "HandleSaved",
      "type": "event"
    },
    {
      "anonymous": false,
      "inputs": [
        {
          "indexed": true,
          "internalType": "address",
          "name": "previousOwner",
          "type": "address"
        },
        {
          "indexed": true,
          "internalType": "address",
          "name": "newOwner",
          "type": "address"
        }
      ],
      "name": "OwnershipTransferred",
      "type": "event"
    },
    {
      "anonymous": false,
      "inputs": [
        {
          "indexed": false,
          "internalType": "uint256",
          "name": "id",
          "type": "uint256"
        },
        {
          "indexed": false,
          "internalType": "string",
          "name": "name",
          "type": "string"
        }
      ],
      "name": "TopicSaved",
      "type": "event"
    },
    {
      "anonymous": false,
      "inputs": [
        {
          "indexed": true,
          "internalType": "address",
          "name": "from",
          "type": "address"
        },
        {
          "indexed": true,
          "internalType": "address",
          "name": "to",
          "type": "address"
        },
        {
          "indexed": false,
          "internalType": "uint256",
          "name": "value",
          "type": "uint256"
        }
      ],
      "name": "Transfer",
      "type": "event"
    },
    {
      "inputs": [
        {
          "internalType": "address",
          "name": "",
          "type": "address"
        }
      ],
      "name": "accountIdByAddress",
      "outputs": [
        {
          "internalType": "uint256",
          "name": "",
          "type": "uint256"
        }
      ],
      "stateMutability": "view",
      "type": "function",
      "constant": true
    },
    {
      "inputs": [
        {
          "internalType": "uint256",
          "name": "",
          "type": "uint256"
        }
      ],
      "name": "accountIds",
      "outputs": [
        {
          "internalType": "uint256",
          "name": "",
          "type": "uint256"
        }
      ],
      "stateMutability": "view",
      "type": "function",
      "constant": true
    },
    {
      "inputs": [
        {
          "internalType": "uint256",
          "name": "",
          "type": "uint256"
        }
      ],
      "name": "accounts",
      "outputs": [
        {
          "internalType": "uint256",
          "name": "id",
          "type": "uint256"
        },
        {
          "internalType": "address",
          "name": "addr",
          "type": "address"
        },
        {
          "internalType": "uint256",
          "name": "unclaimedAsamiTokens",
          "type": "uint256"
        },
        {
          "internalType": "uint256",
          "name": "unclaimedDocRewards",
          "type": "uint256"
        }
      ],
      "stateMutability": "view",
      "type": "function",
      "constant": true
    },
    {
      "inputs": [],
      "name": "admin",
      "outputs": [
        {
          "internalType": "address",
          "name": "",
          "type": "address"
        }
      ],
      "stateMutability": "view",
      "type": "function",
      "constant": true
    },
    {
      "inputs": [],
      "name": "adminTreasury",
      "outputs": [
        {
          "internalType": "address",
          "name": "",
          "type": "address"
        }
      ],
      "stateMutability": "view",
      "type": "function",
      "constant": true
    },
    {
      "inputs": [
        {
          "internalType": "address",
          "name": "",
          "type": "address"
        }
      ],
      "name": "adminVoteCountIdByCandidate",
      "outputs": [
        {
          "internalType": "uint256",
          "name": "",
          "type": "uint256"
        }
      ],
      "stateMutability": "view",
      "type": "function",
      "constant": true
    },
    {
      "inputs": [
        {
          "internalType": "uint256",
          "name": "",
          "type": "uint256"
        }
      ],
      "name": "adminVoteCounts",
      "outputs": [
        {
          "internalType": "uint256",
          "name": "votes",
          "type": "uint256"
        },
        {
          "internalType": "address",
          "name": "candidate",
          "type": "address"
        }
      ],
      "stateMutability": "view",
      "type": "function",
      "constant": true
    },
    {
      "inputs": [
        {
          "internalType": "address",
          "name": "owner",
          "type": "address"
        },
        {
          "internalType": "address",
          "name": "spender",
          "type": "address"
        }
      ],
      "name": "allowance",
      "outputs": [
        {
          "internalType": "uint256",
          "name": "",
          "type": "uint256"
        }
      ],
      "stateMutability": "view",
      "type": "function",
      "constant": true
    },
    {
      "inputs": [
        {
          "internalType": "address",
          "name": "spender",
          "type": "address"
        },
        {
          "internalType": "uint256",
          "name": "amount",
          "type": "uint256"
        }
      ],
      "name": "approve",
      "outputs": [
        {
          "internalType": "bool",
          "name": "",
          "type": "bool"
        }
      ],
      "stateMutability": "nonpayable",
      "type": "function"
    },
    {
      "inputs": [
        {
          "internalType": "address",
          "name": "account",
          "type": "address"
        }
      ],
      "name": "balanceOf",
      "outputs": [
        {
          "internalType": "uint256",
          "name": "",
          "type": "uint256"
        }
      ],
      "stateMutability": "view",
      "type": "function",
      "constant": true
    },
    {
      "inputs": [
        {
          "internalType": "uint256",
          "name": "",
          "type": "uint256"
        }
      ],
      "name": "campaigns",
      "outputs": [
        {
          "internalType": "uint256",
          "name": "id",
          "type": "uint256"
        },
        {
          "internalType": "uint256",
          "name": "accountId",
          "type": "uint256"
        },
        {
          "internalType": "enum Asami.Site",
          "name": "site",
          "type": "uint8"
        },
        {
          "internalType": "uint256",
          "name": "budget",
          "type": "uint256"
        },
        {
          "internalType": "uint256",
          "name": "remaining",
          "type": "uint256"
        },
        {
          "internalType": "string",
          "name": "contentId",
          "type": "string"
        },
        {
          "internalType": "uint256",
          "name": "priceScoreRatio",
          "type": "uint256"
        },
        {
          "internalType": "uint256",
          "name": "validUntil",
          "type": "uint256"
        }
      ],
      "stateMutability": "view",
      "type": "function",
      "constant": true
    },
    {
      "inputs": [],
      "name": "cap",
      "outputs": [
        {
          "internalType": "uint256",
          "name": "",
          "type": "uint256"
        }
      ],
      "stateMutability": "view",
      "type": "function",
      "constant": true
    },
    {
      "inputs": [],
      "name": "claimedAsamiTokens",
      "outputs": [
        {
          "internalType": "uint256",
          "name": "",
          "type": "uint256"
        }
      ],
      "stateMutability": "view",
      "type": "function",
      "constant": true
    },
    {
      "inputs": [
        {
          "internalType": "uint256",
          "name": "",
          "type": "uint256"
        }
      ],
      "name": "collabs",
      "outputs": [
        {
          "internalType": "uint256",
          "name": "id",
          "type": "uint256"
        },
        {
          "internalType": "uint256",
          "name": "handleId",
          "type": "uint256"
        },
        {
          "internalType": "uint256",
          "name": "campaignId",
          "type": "uint256"
        },
        {
          "internalType": "uint256",
          "name": "gross",
          "type": "uint256"
        },
        {
          "internalType": "uint256",
          "name": "fee",
          "type": "uint256"
        },
        {
          "internalType": "string",
          "name": "proof",
          "type": "string"
        },
        {
          "internalType": "uint256",
          "name": "createdAt",
          "type": "uint256"
        }
      ],
      "stateMutability": "view",
      "type": "function",
      "constant": true
    },
    {
      "inputs": [],
      "name": "decimals",
      "outputs": [
        {
          "internalType": "uint8",
          "name": "",
          "type": "uint8"
        }
      ],
      "stateMutability": "view",
      "type": "function",
      "constant": true
    },
    {
      "inputs": [
        {
          "internalType": "address",
          "name": "spender",
          "type": "address"
        },
        {
          "internalType": "uint256",
          "name": "subtractedValue",
          "type": "uint256"
        }
      ],
      "name": "decreaseAllowance",
      "outputs": [
        {
          "internalType": "bool",
          "name": "",
          "type": "bool"
        }
      ],
      "stateMutability": "nonpayable",
      "type": "function"
    },
    {
      "inputs": [],
      "name": "defaultFeeRate",
      "outputs": [
        {
          "internalType": "uint256",
          "name": "",
          "type": "uint256"
        }
      ],
      "stateMutability": "view",
      "type": "function",
      "constant": true
    },
    {
      "inputs": [],
      "name": "feePool",
      "outputs": [
        {
          "internalType": "uint256",
          "name": "",
          "type": "uint256"
        }
      ],
      "stateMutability": "view",
      "type": "function",
      "constant": true
    },
    {
      "inputs": [],
      "name": "feeRate",
      "outputs": [
        {
          "internalType": "uint256",
          "name": "",
          "type": "uint256"
        }
      ],
      "stateMutability": "view",
      "type": "function",
      "constant": true
    },
    {
      "inputs": [
        {
          "internalType": "address",
          "name": "",
          "type": "address"
        }
      ],
      "name": "feeRateVotes",
      "outputs": [
        {
          "internalType": "uint256",
          "name": "votes",
          "type": "uint256"
        },
        {
          "internalType": "uint256",
          "name": "rate",
          "type": "uint256"
        }
      ],
      "stateMutability": "view",
      "type": "function",
      "constant": true
    },
    {
      "inputs": [
        {
          "internalType": "uint256",
          "name": "",
          "type": "uint256"
        }
      ],
      "name": "handles",
      "outputs": [
        {
          "internalType": "uint256",
          "name": "id",
          "type": "uint256"
        },
        {
          "internalType": "uint256",
          "name": "accountId",
          "type": "uint256"
        },
        {
          "internalType": "enum Asami.Site",
          "name": "site",
          "type": "uint8"
        },
        {
          "internalType": "uint256",
          "name": "price",
          "type": "uint256"
        },
        {
          "internalType": "uint256",
          "name": "score",
          "type": "uint256"
        },
        {
          "internalType": "string",
          "name": "username",
          "type": "string"
        },
        {
          "internalType": "string",
          "name": "userId",
          "type": "string"
        },
        {
          "internalType": "bool",
          "name": "needsUpdate",
          "type": "bool"
        },
        {
          "internalType": "string",
          "name": "newUsername",
          "type": "string"
        },
        {
          "internalType": "uint256",
          "name": "newPrice",
          "type": "uint256"
        },
        {
          "internalType": "uint256",
          "name": "newScore",
          "type": "uint256"
        },
        {
          "internalType": "uint256",
          "name": "lastUpdated",
          "type": "uint256"
        }
      ],
      "stateMutability": "view",
      "type": "function",
      "constant": true
    },
    {
      "inputs": [
        {
          "internalType": "uint256",
          "name": "",
          "type": "uint256"
        }
      ],
      "name": "holders",
      "outputs": [
        {
          "internalType": "address",
          "name": "",
          "type": "address"
        }
      ],
      "stateMutability": "view",
      "type": "function",
      "constant": true
    },
    {
      "inputs": [
        {
          "internalType": "address",
          "name": "spender",
          "type": "address"
        },
        {
          "internalType": "uint256",
          "name": "addedValue",
          "type": "uint256"
        }
      ],
      "name": "increaseAllowance",
      "outputs": [
        {
          "internalType": "bool",
          "name": "",
          "type": "bool"
        }
      ],
      "stateMutability": "nonpayable",
      "type": "function"
    },
    {
      "inputs": [],
      "name": "lastAdminElection",
      "outputs": [
        {
          "internalType": "uint256",
          "name": "",
          "type": "uint256"
        }
      ],
      "stateMutability": "view",
      "type": "function",
      "constant": true
    },
    {
      "inputs": [],
      "name": "lastPayoutCycle",
      "outputs": [
        {
          "internalType": "uint256",
          "name": "",
          "type": "uint256"
        }
      ],
      "stateMutability": "view",
      "type": "function",
      "constant": true
    },
    {
      "inputs": [],
      "name": "lastVotedFeeRateAppliedOn",
      "outputs": [
        {
          "internalType": "uint256",
          "name": "",
          "type": "uint256"
        }
      ],
      "stateMutability": "view",
      "type": "function",
      "constant": true
    },
    {
      "inputs": [
        {
          "internalType": "uint256",
          "name": "",
          "type": "uint256"
        }
      ],
      "name": "latestAdminElections",
      "outputs": [
        {
          "internalType": "address",
          "name": "",
          "type": "address"
        }
      ],
      "stateMutability": "view",
      "type": "function",
      "constant": true
    },
    {
      "inputs": [],
      "name": "name",
      "outputs": [
        {
          "internalType": "string",
          "name": "",
          "type": "string"
        }
      ],
      "stateMutability": "view",
      "type": "function",
      "constant": true
    },
    {
      "inputs": [],
      "name": "owner",
      "outputs": [
        {
          "internalType": "address",
          "name": "",
          "type": "address"
        }
      ],
      "stateMutability": "view",
      "type": "function",
      "constant": true
    },
    {
      "inputs": [],
      "name": "payoutsRemaining",
      "outputs": [
        {
          "internalType": "uint256",
          "name": "",
          "type": "uint256"
        }
      ],
      "stateMutability": "view",
      "type": "function",
      "constant": true
    },
    {
      "inputs": [],
      "name": "payoutsTotal",
      "outputs": [
        {
          "internalType": "uint256",
          "name": "",
          "type": "uint256"
        }
      ],
      "stateMutability": "view",
      "type": "function",
      "constant": true
    },
    {
      "inputs": [],
      "name": "renounceOwnership",
      "outputs": [],
      "stateMutability": "nonpayable",
      "type": "function"
    },
    {
      "inputs": [
        {
          "internalType": "address",
          "name": "",
          "type": "address"
        }
      ],
      "name": "submittedAdminVotes",
      "outputs": [
        {
          "internalType": "uint256",
          "name": "votes",
          "type": "uint256"
        },
        {
          "internalType": "address",
          "name": "candidate",
          "type": "address"
        },
        {
          "internalType": "uint256",
          "name": "cycle",
          "type": "uint256"
        },
        {
          "internalType": "bool",
          "name": "vested",
          "type": "bool"
        }
      ],
      "stateMutability": "view",
      "type": "function",
      "constant": true
    },
    {
      "inputs": [],
      "name": "symbol",
      "outputs": [
        {
          "internalType": "string",
          "name": "",
          "type": "string"
        }
      ],
      "stateMutability": "view",
      "type": "function",
      "constant": true
    },
    {
      "inputs": [
        {
          "internalType": "uint256",
          "name": "",
          "type": "uint256"
        }
      ],
      "name": "topics",
      "outputs": [
        {
          "internalType": "string",
          "name": "",
          "type": "string"
        }
      ],
      "stateMutability": "view",
      "type": "function",
      "constant": true
    },
    {
      "inputs": [],
      "name": "totalSupply",
      "outputs": [
        {
          "internalType": "uint256",
          "name": "",
          "type": "uint256"
        }
      ],
      "stateMutability": "view",
      "type": "function",
      "constant": true
    },
    {
      "inputs": [
        {
          "internalType": "address",
          "name": "",
          "type": "address"
        }
      ],
      "name": "trackedHolders",
      "outputs": [
        {
          "internalType": "bool",
          "name": "",
          "type": "bool"
        }
      ],
      "stateMutability": "view",
      "type": "function",
      "constant": true
    },
    {
      "inputs": [
        {
          "internalType": "address",
          "name": "to",
          "type": "address"
        },
        {
          "internalType": "uint256",
          "name": "amount",
          "type": "uint256"
        }
      ],
      "name": "transfer",
      "outputs": [
        {
          "internalType": "bool",
          "name": "",
          "type": "bool"
        }
      ],
      "stateMutability": "nonpayable",
      "type": "function"
    },
    {
      "inputs": [
        {
          "internalType": "address",
          "name": "from",
          "type": "address"
        },
        {
          "internalType": "address",
          "name": "to",
          "type": "address"
        },
        {
          "internalType": "uint256",
          "name": "amount",
          "type": "uint256"
        }
      ],
      "name": "transferFrom",
      "outputs": [
        {
          "internalType": "bool",
          "name": "",
          "type": "bool"
        }
      ],
      "stateMutability": "nonpayable",
      "type": "function"
    },
    {
      "inputs": [
        {
          "internalType": "address",
          "name": "newOwner",
          "type": "address"
        }
      ],
      "name": "transferOwnership",
      "outputs": [],
      "stateMutability": "nonpayable",
      "type": "function"
    },
    {
      "inputs": [],
      "name": "vestedAdminVotesTotal",
      "outputs": [
        {
          "internalType": "uint256",
          "name": "",
          "type": "uint256"
        }
      ],
      "stateMutability": "view",
      "type": "function",
      "constant": true
    },
    {
      "inputs": [],
      "name": "votedFeeRate",
      "outputs": [
        {
          "internalType": "uint256",
          "name": "",
          "type": "uint256"
        }
      ],
      "stateMutability": "view",
      "type": "function",
      "constant": true
    },
    {
      "inputs": [],
      "name": "votedFeeRateVoteCount",
      "outputs": [
        {
          "internalType": "uint256",
          "name": "",
          "type": "uint256"
        }
      ],
      "stateMutability": "view",
      "type": "function",
      "constant": true
    },
    {
      "inputs": [],
      "name": "getHandles",
      "outputs": [
        {
          "components": [
            {
              "internalType": "uint256",
              "name": "id",
              "type": "uint256"
            },
            {
              "internalType": "uint256",
              "name": "accountId",
              "type": "uint256"
            },
            {
              "internalType": "enum Asami.Site",
              "name": "site",
              "type": "uint8"
            },
            {
              "internalType": "uint256",
              "name": "price",
              "type": "uint256"
            },
            {
              "internalType": "uint256",
              "name": "score",
              "type": "uint256"
            },
            {
              "internalType": "uint256[]",
              "name": "topics",
              "type": "uint256[]"
            },
            {
              "internalType": "string",
              "name": "username",
              "type": "string"
            },
            {
              "internalType": "string",
              "name": "userId",
              "type": "string"
            },
            {
              "internalType": "bool",
              "name": "needsUpdate",
              "type": "bool"
            },
            {
              "internalType": "string",
              "name": "newUsername",
              "type": "string"
            },
            {
              "internalType": "uint256",
              "name": "newPrice",
              "type": "uint256"
            },
            {
              "internalType": "uint256",
              "name": "newScore",
              "type": "uint256"
            },
            {
              "internalType": "uint256[]",
              "name": "newTopics",
              "type": "uint256[]"
            },
            {
              "internalType": "uint256",
              "name": "lastUpdated",
              "type": "uint256"
            }
          ],
          "internalType": "struct Asami.Handle[]",
          "name": "",
          "type": "tuple[]"
        }
      ],
      "stateMutability": "view",
      "type": "function",
      "constant": true
    },
    {
      "inputs": [],
      "name": "allAdminVoteCounts",
      "outputs": [
        {
          "components": [
            {
              "internalType": "uint256",
              "name": "votes",
              "type": "uint256"
            },
            {
              "internalType": "address",
              "name": "candidate",
              "type": "address"
            }
          ],
          "internalType": "struct Asami.AdminVoteCount[]",
          "name": "",
          "type": "tuple[]"
        }
      ],
      "stateMutability": "view",
      "type": "function",
      "constant": true
    },
    {
      "inputs": [],
      "name": "getLatestAdminElections",
      "outputs": [
        {
          "internalType": "address[3]",
          "name": "",
          "type": "address[3]"
        }
      ],
      "stateMutability": "view",
      "type": "function",
      "constant": true
    },
    {
      "inputs": [
        {
          "internalType": "address",
          "name": "_admin",
          "type": "address"
        },
        {
          "internalType": "address",
          "name": "_adminTreasury",
          "type": "address"
        }
      ],
      "name": "setAdmin",
      "outputs": [],
      "stateMutability": "nonpayable",
      "type": "function"
    },
    {
      "inputs": [],
      "name": "getHolders",
      "outputs": [
        {
          "internalType": "string[]",
          "name": "",
          "type": "string[]"
        }
      ],
      "stateMutability": "view",
      "type": "function",
      "constant": true
    },
    {
      "inputs": [],
      "name": "getClaimedAsamiTokens",
      "outputs": [
        {
          "internalType": "uint256",
          "name": "",
          "type": "uint256"
        }
      ],
      "stateMutability": "view",
      "type": "function",
      "constant": true
    },
    {
      "inputs": [],
      "name": "getTopics",
      "outputs": [
        {
          "internalType": "string[]",
          "name": "",
          "type": "string[]"
        }
      ],
      "stateMutability": "view",
      "type": "function",
      "constant": true
    },
    {
      "inputs": [
        {
          "internalType": "string[]",
          "name": "_names",
          "type": "string[]"
        }
      ],
      "name": "adminAddTopics",
      "outputs": [],
      "stateMutability": "nonpayable",
      "type": "function"
    },
    {
      "inputs": [
        {
          "components": [
            {
              "internalType": "uint256",
              "name": "accountId",
              "type": "uint256"
            },
            {
              "internalType": "address",
              "name": "addr",
              "type": "address"
            }
          ],
          "internalType": "struct Asami.AdminClaimAccountsInput[]",
          "name": "_input",
          "type": "tuple[]"
        }
      ],
      "name": "claimAccounts",
      "outputs": [],
      "stateMutability": "nonpayable",
      "type": "function"
    },
    {
      "inputs": [
        {
          "components": [
            {
              "internalType": "uint256",
              "name": "id",
              "type": "uint256"
            },
            {
              "internalType": "uint256",
              "name": "accountId",
              "type": "uint256"
            },
            {
              "internalType": "enum Asami.Site",
              "name": "site",
              "type": "uint8"
            },
            {
              "internalType": "uint256",
              "name": "price",
              "type": "uint256"
            },
            {
              "internalType": "uint256",
              "name": "score",
              "type": "uint256"
            },
            {
              "internalType": "uint256[]",
              "name": "topics",
              "type": "uint256[]"
            },
            {
              "internalType": "string",
              "name": "username",
              "type": "string"
            },
            {
              "internalType": "string",
              "name": "userId",
              "type": "string"
            },
            {
              "internalType": "bool",
              "name": "needsUpdate",
              "type": "bool"
            },
            {
              "internalType": "string",
              "name": "newUsername",
              "type": "string"
            },
            {
              "internalType": "uint256",
              "name": "newPrice",
              "type": "uint256"
            },
            {
              "internalType": "uint256",
              "name": "newScore",
              "type": "uint256"
            },
            {
              "internalType": "uint256[]",
              "name": "newTopics",
              "type": "uint256[]"
            },
            {
              "internalType": "uint256",
              "name": "lastUpdated",
              "type": "uint256"
            }
          ],
          "internalType": "struct Asami.Handle[]",
          "name": "_inputs",
          "type": "tuple[]"
        }
      ],
      "name": "adminMakeHandles",
      "outputs": [],
      "stateMutability": "nonpayable",
      "type": "function"
    },
    {
      "inputs": [
        {
          "components": [
            {
              "internalType": "enum Asami.Site",
              "name": "site",
              "type": "uint8"
            },
            {
              "internalType": "uint256",
              "name": "budget",
              "type": "uint256"
            },
            {
              "internalType": "string",
              "name": "contentId",
              "type": "string"
            },
            {
              "internalType": "uint256",
              "name": "priceScoreRatio",
              "type": "uint256"
            },
            {
              "internalType": "uint256[]",
              "name": "topics",
              "type": "uint256[]"
            },
            {
              "internalType": "uint256",
              "name": "validUntil",
              "type": "uint256"
            }
          ],
          "internalType": "struct Asami.CampaignInput[]",
          "name": "_inputs",
          "type": "tuple[]"
        }
      ],
      "name": "makeCampaigns",
      "outputs": [],
      "stateMutability": "nonpayable",
      "type": "function"
    },
    {
      "inputs": [
        {
          "components": [
            {
              "internalType": "uint256",
              "name": "accountId",
              "type": "uint256"
            },
            {
              "components": [
                {
                  "internalType": "enum Asami.Site",
                  "name": "site",
                  "type": "uint8"
                },
                {
                  "internalType": "uint256",
                  "name": "budget",
                  "type": "uint256"
                },
                {
                  "internalType": "string",
                  "name": "contentId",
                  "type": "string"
                },
                {
                  "internalType": "uint256",
                  "name": "priceScoreRatio",
                  "type": "uint256"
                },
                {
                  "internalType": "uint256[]",
                  "name": "topics",
                  "type": "uint256[]"
                },
                {
                  "internalType": "uint256",
                  "name": "validUntil",
                  "type": "uint256"
                }
              ],
              "internalType": "struct Asami.CampaignInput",
              "name": "attrs",
              "type": "tuple"
            }
          ],
          "internalType": "struct Asami.AdminCampaignInput[]",
          "name": "_inputs",
          "type": "tuple[]"
        }
      ],
      "name": "adminMakeCampaigns",
      "outputs": [],
      "stateMutability": "nonpayable",
      "type": "function"
    },
    {
      "inputs": [
        {
          "components": [
            {
              "internalType": "uint256",
              "name": "campaignId",
              "type": "uint256"
            },
            {
              "internalType": "uint256",
              "name": "handleId",
              "type": "uint256"
            }
          ],
          "internalType": "struct Asami.AdminMakeCollabsInput[]",
          "name": "_collabs",
          "type": "tuple[]"
        }
      ],
      "name": "adminMakeCollabs",
      "outputs": [],
      "stateMutability": "nonpayable",
      "type": "function"
    },
    {
      "inputs": [
        {
          "internalType": "uint256[]",
          "name": "_campaignIds",
          "type": "uint256[]"
        }
      ],
      "name": "reimburseDueCampaigns",
      "outputs": [],
      "stateMutability": "nonpayable",
      "type": "function"
    },
    {
      "inputs": [
        {
          "components": [
            {
              "internalType": "uint256",
              "name": "handleId",
              "type": "uint256"
            },
            {
              "internalType": "uint256",
              "name": "price",
              "type": "uint256"
            }
          ],
          "internalType": "struct Asami.AdminSetPriceInput[]",
          "name": "_inputs",
          "type": "tuple[]"
        }
      ],
      "name": "adminSetPrice",
      "outputs": [],
      "stateMutability": "nonpayable",
      "type": "function"
    },
    {
      "inputs": [
        {
          "internalType": "uint256",
          "name": "_handleId",
          "type": "uint256"
        },
        {
          "internalType": "uint256",
          "name": "_price",
          "type": "uint256"
        }
      ],
      "name": "setPrice",
      "outputs": [],
      "stateMutability": "nonpayable",
      "type": "function"
    },
    {
      "inputs": [
        {
          "components": [
            {
              "internalType": "uint256",
              "name": "handleId",
              "type": "uint256"
            },
            {
              "internalType": "uint256",
              "name": "score",
              "type": "uint256"
            },
            {
              "internalType": "uint256[]",
              "name": "topics",
              "type": "uint256[]"
            }
          ],
          "internalType": "struct Asami.AdminSetScoreAndTopicsInput[]",
          "name": "_inputs",
          "type": "tuple[]"
        }
      ],
      "name": "adminSetScoreAndTopics",
      "outputs": [],
      "stateMutability": "nonpayable",
      "type": "function"
    },
    {
      "inputs": [],
      "name": "getCycleLength",
      "outputs": [
        {
          "internalType": "uint256",
          "name": "",
          "type": "uint256"
        }
      ],
      "stateMutability": "pure",
      "type": "function",
      "constant": true
    },
    {
      "inputs": [],
      "name": "getCurrentCycle",
      "outputs": [
        {
          "internalType": "uint256",
          "name": "",
          "type": "uint256"
        }
      ],
      "stateMutability": "view",
      "type": "function",
      "constant": true
    },
    {
      "inputs": [],
      "name": "getNextCycle",
      "outputs": [
        {
          "internalType": "uint256",
          "name": "",
          "type": "uint256"
        }
      ],
      "stateMutability": "view",
      "type": "function",
      "constant": true
    },
    {
      "inputs": [],
      "name": "distributeFeePool",
      "outputs": [],
      "stateMutability": "nonpayable",
      "type": "function"
    },
    {
      "inputs": [
        {
          "internalType": "uint256[]",
          "name": "_indexes",
          "type": "uint256[]"
        }
      ],
      "name": "applyHandleUpdates",
      "outputs": [],
      "stateMutability": "nonpayable",
      "type": "function"
    },
    {
      "inputs": [],
      "name": "applyVotedFeeRate",
      "outputs": [],
      "stateMutability": "nonpayable",
      "type": "function"
    },
    {
      "inputs": [
        {
          "internalType": "uint256",
          "name": "_rate",
          "type": "uint256"
        }
      ],
      "name": "submitFeeRateVote",
      "outputs": [],
      "stateMutability": "nonpayable",
      "type": "function"
    },
    {
      "inputs": [],
      "name": "removeFeeRateVote",
      "outputs": [],
      "stateMutability": "nonpayable",
      "type": "function"
    },
    {
      "inputs": [
        {
          "internalType": "address",
          "name": "_candidate",
          "type": "address"
        }
      ],
      "name": "submitAdminVote",
      "outputs": [],
      "stateMutability": "nonpayable",
      "type": "function"
    },
    {
      "inputs": [
        {
          "internalType": "address[]",
          "name": "_holders",
          "type": "address[]"
        }
      ],
      "name": "vestAdminVotes",
      "outputs": [],
      "stateMutability": "nonpayable",
      "type": "function"
    },
    {
      "inputs": [
        {
          "internalType": "address",
          "name": "_candidate",
          "type": "address"
        }
      ],
      "name": "proclaimCycleAdminWinner",
      "outputs": [],
      "stateMutability": "nonpayable",
      "type": "function"
    },
    {
      "inputs": [],
      "name": "removeAdminVote",
      "outputs": [],
      "stateMutability": "nonpayable",
      "type": "function"
    },
    {
      "inputs": [
        {
          "internalType": "address",
          "name": "_admin",
          "type": "address"
        }
      ],
      "name": "setAdminAddress",
      "outputs": [],
      "stateMutability": "nonpayable",
      "type": "function"
    },
    {
      "inputs": [
        {
          "internalType": "uint256[]",
          "name": "mainSet",
          "type": "uint256[]"
        },
        {
          "internalType": "uint256[]",
          "name": "subset",
          "type": "uint256[]"
        }
      ],
      "name": "isSubset",
      "outputs": [
        {
          "internalType": "bool",
          "name": "",
          "type": "bool"
        }
      ],
      "stateMutability": "pure",
      "type": "function",
      "constant": true
    }
  ],
  "bytecode": "0x60a0604052678ac7230489e80000600c55600c54600d55600c54600e556000600f5560006010556000602255600060235560006024553480156200004257600080fd5b50604051620059c6380380620059c68339810160408190526200006591620001be565b6a115eec47f6cf7e350000006040518060400160405280600a81526020016920b9b0b6b4aa37b5b2b760b11b815250604051806040016040528060058152602001644153414d4960d81b815250620000cc620000c66200016a60201b60201c565b6200016e565b6004620000da838262000295565b506005620000e9828262000295565b50505060008111620001415760405162461bcd60e51b815260206004820152601560248201527f45524332304361707065643a2063617020697320300000000000000000000000604482015260640160405180910390fd5b608052601b80546001600160a01b0319166001600160a01b039290921691909117905562000361565b3390565b600080546001600160a01b038381166001600160a01b0319831681178455604051919092169283917f8be0079c531659141344cd1fd0a4f28419497f9722a3daafe3b4186f6b6457e09190a35050565b600060208284031215620001d157600080fd5b81516001600160a01b0381168114620001e957600080fd5b9392505050565b634e487b7160e01b600052604160045260246000fd5b600181811c908216806200021b57607f821691505b6020821081036200023c57634e487b7160e01b600052602260045260246000fd5b50919050565b601f8211156200029057600081815260208120601f850160051c810160208610156200026b5750805b601f850160051c820191505b818110156200028c5782815560010162000277565b5050505b505050565b81516001600160401b03811115620002b157620002b1620001f0565b620002c981620002c2845462000206565b8462000242565b602080601f831160018114620003015760008415620002e85750858301515b600019600386901b1c1916600185901b1785556200028c565b600085815260208120601f198616915b82811015620003325788860151825594840194600190910190840162000311565b5085821015620003515787850151600019600388901b60f8161c191681555b5050505050600190811b01905550565b6080516156496200037d6000396000610c6901526156496000f3fe608060405234801561001057600080fd5b506004361061034e5760003560e01c806306fdde031461035357806307d3345514610371578063095ea7b314610388578063141961bc146103ab5780631677aa3d146103d257806318160ddd146103db57806318d9adab146103e35780631b06cfbc146103f657806323b872dd1461042157806325076468146104345780632a11ced01461043d5780632c1e816d14610450578063313ce5671461046557806333c24bd314610474578063355274ea14610487578063395093511461048f5780633ca75e56146104a25780633ec62c0b146104b5578063402c5133146104c8578063419a7c5d146104db5780634259d8a2146104f057806346c33dd5146104f95780634969a9691461050c5780634ba593c6146105155780634bd38e261461052857806358cea7d2146105485780635d03e4871461055b5780635e6134231461056e5780635fe8e7cc146105775780636717d7a81461058c57806368841a46146105ac5780636b6a4ad0146105b55780636f1c7617146105d857806370a08231146105e0578063715018a6146105f357806379dec48b146105fb5780637d98e20f1461060357806381d036f514610629578063894d71e1146106655780638b69633d146106785780638bec13cf1461068b5780638da5cb5b1461069457806390537d1f1461069c5780639314b214146106af57806395d89b41146106b857806396cad0db146106c0578063978bbdb9146106d35780639938e929146106dc5780639bd40aee146106ef5780639dfceaaa14610702578063a457c2d714610715578063a9059cbb14610728578063ae2e933b1461073b578063be26ed7f14610744578063c3d03cd41461074c578063c55b6bb714610761578063cdada3b614610774578063d0b0ce9514610789578063d8c44f5014610791578063dbc5bdc414610799578063dd62ed3e146107ac578063e4c1be2e146107bf578063ec8b436c146107c8578063f1a12cbc14610834578063f2a40db81461083d578063f2fde38b146108a4578063f3401bc3146108b7578063f398c241146108ca578063f7d97577146108d2578063f851a440146108e5578063fa7fb4d8146108f8578063fdb265b014610928578063fee0117714610953578063ff3f18861461095b575b600080fd5b61035b610963565b6040516103689190614169565b60405180910390f35b61037a600c5481565b604051908152602001610368565b61039b61039636600461419f565b6109f5565b6040519015158152602001610368565b6103be6103b93660046141c9565b610a0f565b60405161036898979695949392919061421a565b61037a60205481565b60035461037a565b61035b6103f13660046141c9565b610af3565b6104096104043660046141c9565b610b9f565b6040516001600160a01b039091168152602001610368565b61039b61042f36600461426b565b610bbf565b61037a60225481565b61040961044b3660046141c9565b610be3565b61046361045e3660046142a7565b610c0d565b005b60405160128152602001610368565b61037a6104823660046141c9565b610c46565b61037a610c67565b61039b61049d36600461419f565b610c8b565b6104636104b036600461430d565b610cad565b6104636104c336600461430d565b610e19565b6104636104d6366004614392565b610f69565b6104e3611162565b60405161036891906143c7565b6213c68061037a565b61046361050736600461430d565b6111a7565b61037a60245481565b610463610523366004614392565b6112b7565b61037a6105363660046142a7565b60146020526000908152604090205481565b61046361055636600461430d565b6113bb565b6104636105693660046142a7565b611522565b61037a600e5481565b61057f6116d0565b6040516103689190614401565b61037a61059a3660046142a7565b60086020526000908152604090205481565b61037a60105481565b61039b6105c33660046142a7565b601d6020526000908152604090205460ff1681565b6104636117a9565b61037a6105ee3660046142a7565b6117ce565b6104636117e9565b61037a6117fd565b6106166106113660046141c9565b61181a565b6040516103689796959493929190614463565b6106506106373660046142a7565b6011602052600090815260409020805460019091015482565b60408051928352602083019190915201610368565b61046361067336600461430d565b6118f4565b61039b610686366004614595565b611a29565b61037a60165481565b610409611ac5565b6104636106aa36600461430d565b611ad4565b61037a600f5481565b61035b611c32565b601f54610409906001600160a01b031681565b61037a600d5481565b6104636106ea366004614392565b611c41565b6104636106fd36600461430d565b6124a2565b6104636107103660046141c9565b612724565b61039b61072336600461419f565b612837565b61039b61073636600461419f565b6128b2565b61037a60215481565b61037a6128c0565b6107546128cf565b6040516103689190614633565b61046361076f366004614786565b612c1e565b61077c612c7f565b60405161036891906147b9565b610463612ceb565b610463612e88565b6104636107a736600461430d565b612e91565b61037a6107ba366004614786565b612f8f565b61037a60155481565b61080a6107d63660046142a7565b601260205260009081526040902080546001820154600283015460039093015491926001600160a01b039091169160ff1684565b604080519485526001600160a01b0390931660208501529183015215156060820152608001610368565b61037a60235481565b61087c61084b3660046141c9565b600760205260009081526040902080546001820154600283015460039093015491926001600160a01b039091169184565b604080519485526001600160a01b039093166020850152918301526060820152608001610368565b6104636108b23660046142a7565b612fba565b6104636108c53660046142a7565b613033565b610463613189565b6104636108e0366004614811565b613192565b601e54610409906001600160a01b031681565b61090b6109063660046141c9565b613220565b604080519283526001600160a01b03909116602083015201610368565b61093b6109363660046141c9565b613257565b6040516103689c9b9a99989796959493929190614833565b61057f61346c565b60205461037a565b606060048054610972906148c5565b80601f016020809104026020016040519081016040528092919081815260200182805461099e906148c5565b80156109eb5780601f106109c0576101008083540402835291602001916109eb565b820191906000526020600020905b8154815290600101906020018083116109ce57829003601f168201915b5050505050905090565b600033610a0381858561353c565b60019150505b92915050565b600a8181548110610a1f57600080fd5b6000918252602090912060099091020180546001820154600283015460038401546004850154600586018054959750939560ff909316949193909291610a64906148c5565b80601f0160208091040260200160405190810160405280929190818152602001828054610a90906148c5565b8015610add5780601f10610ab257610100808354040283529160200191610add565b820191906000526020600020905b815481529060010190602001808311610ac057829003601f168201915b5050505050908060060154908060080154905088565b601a8181548110610b0357600080fd5b906000526020600020016000915090508054610b1e906148c5565b80601f0160208091040260200160405190810160405280929190818152602001828054610b4a906148c5565b8015610b975780601f10610b6c57610100808354040283529160200191610b97565b820191906000526020600020905b815481529060010190602001808311610b7a57829003601f168201915b505050505081565b60178160038110610baf57600080fd5b01546001600160a01b0316905081565b600033610bcd858285613660565b610bd88585856136d4565b506001949350505050565b601c8181548110610bf357600080fd5b6000918252602090912001546001600160a01b0316905081565b601f546001600160a01b03163314610c2457600080fd5b601e80546001600160a01b0319166001600160a01b0392909216919091179055565b60068181548110610c5657600080fd5b600091825260209091200154905081565b7f000000000000000000000000000000000000000000000000000000000000000090565b600033610a03818585610c9e8383612f8f565b610ca89190614915565b61353c565b60005b81811015610e14576000600a6001858585818110610cd057610cd0614928565b90506020020135610ce1919061493e565b81548110610cf157610cf1614928565b906000526020600020906009020190506000816000015411610d1257600080fd5b6000816004015411610d2357600080fd5b42816008015410610d3357600080fd5b60018082015460009081526007602052604090819020601b5492810154600480860154935163a9059cbb60e01b815292946001600160a01b039081169463a9059cbb94610d869490921692909101614951565b6020604051808303816000875af1158015610da5573d6000803e3d6000fd5b505050506040513d601f19601f82011682018060405250810190610dc99190614978565b610dd257600080fd5b6000600483015560405160008051602061559483398151915290610df7908490614a47565b60405180910390a150508080610e0c90614ae2565b915050610cb0565b505050565b601e546001600160a01b0316331480610e4a5750610e35611ac5565b6001600160a01b0316336001600160a01b0316145b610e5357600080fd5b60005b81811015610e1457600060096001858585818110610e7657610e76614928565b9050602002810190610e889190614afb565b610e9391903561493e565b81548110610ea357610ea3614928565b90600052602060002090600e02019050838383818110610ec557610ec5614928565b9050602002810190610ed79190614afb565b60200135600b820155838383818110610ef257610ef2614928565b9050602002810190610f049190614afb565b610f12906040810190614b1b565b610f2091600c84019161402a565b5060088101805460ff191660011790556040516000805160206155b483398151915290610f4e908390614b64565b60405180910390a15080610f6181614ae2565b915050610e56565b601e546001600160a01b0316331480610f9a5750610f85611ac5565b6001600160a01b0316336001600160a01b0316145b610fa357600080fd5b60005b81811015610e145736838383818110610fc157610fc1614928565b9050604002019050610fd68160000135613878565b8035600090815260076020526040902060018101546001600160a01b031615610ffe57600080fd5b81356008600061101460408601602087016142a7565b6001600160a01b03166001600160a01b031681526020019081526020016000208190555081602001602081019061104b91906142a7565b6001820180546001600160a01b0319166001600160a01b039290921691909117905560028101541561109b576000600282015561109b61109160408401602085016142a7565b82600201546138cf565b60038101541561112857600060038201819055601b54600183015460405163a9059cbb60e01b81526001600160a01b039283169363a9059cbb936110e3931691600401614951565b6020604051808303816000875af1158015611102573d6000803e3d6000fd5b505050506040513d601f19601f820116820180604052508101906111269190614978565b505b6000805160206155d4833981519152816040516111459190614c70565b60405180910390a15050808061115a90614ae2565b915050610fa6565b61116a614075565b6040805160608101918290529060179060039082845b81546001600160a01b03168152600190910190602001808311611180575050505050905090565b3360009081526008602090815260408083205483526007909152902060018101546001600160a01b03166111da57600080fd5b60005b828110156112b15760008484838181106111f9576111f9614928565b905060200281019061120b9190614cf8565b61121490614e32565b905061129e83604051806101200160405280600a8054905060016112389190614915565b8152865460208201528451604090910190600481111561125a5761125a6141e2565b815260200184602001518152602001846020015181526020018460400151815260200184606001518152602001846080015181526020018460a00151815250613916565b50806112a981614ae2565b9150506111dd565b50505050565b601e546001600160a01b03163314806112e857506112d3611ac5565b6001600160a01b0316336001600160a01b0316145b6112f157600080fd5b60005b81811015610e145760006009600185858581811061131457611314614928565b90506040020160000135611328919061493e565b8154811061133857611338614928565b600091825260208083206001600e909302018281015484526007909152604090922090810154919250906001600160a01b03161580156113785750805415155b61138157600080fd5b6113a68286868681811061139757611397614928565b90506040020160200135613b16565b505080806113b390614ae2565b9150506112f4565b601e546001600160a01b03163314806113ec57506113d7611ac5565b6001600160a01b0316336001600160a01b0316145b6113f557600080fd5b60005b81811015610e1457600083838381811061141457611414614928565b90506020028101906114269190614e3e565b61142f90614e54565b905061143e8160000151613878565b8051600090815260076020526040902060018101546001600160a01b03161561146657600080fd5b61150d81604051806101200160405280600a8054905060016114889190614915565b81526020018460000154815260200185602001516000015160048111156114b1576114b16141e2565b815260200185602001516020015181526020018560200151602001518152602001856020015160400151815260200185602001516060015181526020018560200151608001518152602001856020015160a00151815250613916565b5050808061151a90614ae2565b9150506113f8565b6001600160a01b0381166000908152601460205260409020548061154557600080fd5b6000601361155460018461493e565b8154811061156457611564614928565b9060005260206000209060020201905060026015546115839190614ebe565b8154116115bf5760405162461bcd60e51b8152602060048201526005602482015264070637720360dc1b60448201526064015b60405180910390fd5b6000601554116115f95760405162461bcd60e51b8152602060048201526005602482015264706377203160d81b60448201526064016115b6565b60006116036128c0565b9050806016541061163e5760405162461bcd60e51b81526020600482015260056024820152643831bb901960d91b60448201526064016115b6565b601681905560188054601980546001600160a01b038084166001600160a01b031992831617909255601780548084169483168517909555931690871690811790925514801561169a57506019546001600160a01b038581169116145b156112b157601e80546001600160a01b0386166001600160a01b03199182168117909255601f8054909116909117905550505050565b6060601a805480602002602001604051908101604052809291908181526020016000905b828210156117a0578382906000526020600020018054611713906148c5565b80601f016020809104026020016040519081016040528092919081815260200182805461173f906148c5565b801561178c5780601f106117615761010080835404028352916020019161178c565b820191906000526020600020905b81548152906001019060200180831161176f57829003601f168201915b5050505050815260200190600101906116f4565b50505050905090565b60006117b36128c0565b905060105481036117c357600080fd5b600e54600d55601055565b6001600160a01b031660009081526001602052604090205490565b6117f1613b57565b6117fb6000613bb6565b565b60006213c68061180b6128c0565b6118159190614915565b905090565b600b818154811061182a57600080fd5b906000526020600020906007020160009150905080600001549080600101549080600201549080600301549080600401549080600501805461186b906148c5565b80601f0160208091040260200160405190810160405280929190818152602001828054611897906148c5565b80156118e45780601f106118b9576101008083540402835291602001916118e4565b820191906000526020600020905b8154815290600101906020018083116118c757829003601f168201915b5050505050908060060154905087565b601e546001600160a01b03163314806119255750611910611ac5565b6001600160a01b0316336001600160a01b0316145b61192e57600080fd5b60005b81811015610e145761196983838381811061194e5761194e614928565b90506020028101906119609190614ee0565b60200135613878565b600983838381811061197d5761197d614928565b905060200281019061198f9190614ee0565b8154600181018355600092835260209092209091600e02016119b18282615145565b505060098054600091906119c79060019061493e565b815481106119d7576119d7614928565b60009182526020909120600954600e909202019081556040519091506000805160206155b483398151915290611a0e908390614b64565b60405180910390a15080611a2181614ae2565b915050611931565b6000805b8251811015611abb576000805b8551811015611a9757858181518110611a5557611a55614928565b6020026020010151858481518110611a6f57611a6f614928565b602002602001015103611a855760019150611a97565b80611a8f81614ae2565b915050611a3a565b5080611aa857600092505050610a09565b5080611ab381614ae2565b915050611a2d565b5060019392505050565b6000546001600160a01b031690565b6000611ade6128c0565b905060005b828110156112b15760006009858584818110611b0157611b01614928565b9050602002013581548110611b1857611b18614928565b90600052602060002090600e020190508281600d015403611b4b5760405162461bcd60e51b81526004016115b690615260565b600881015460ff16611b6f5760405162461bcd60e51b81526004016115b690615260565b60088101805460ff19169055600d810183905560098101805460009190611b95906148c5565b90501115611bb05760068101611bae600983018261527f565b505b600a81015415611bc557600a81015460038201555b600481015415611bda57600b81015460048201555b600c81015415611bfa57600c81018054611bf8916005840191614093565b505b6000805160206155b483398151915281604051611c179190614b64565b60405180910390a15080611c2a81614ae2565b915050611ae3565b606060058054610972906148c5565b601e546001600160a01b0316331480611c725750611c5d611ac5565b6001600160a01b0316336001600160a01b0316145b611c7b57600080fd5b60005b81811015610e1457600060096001858585818110611c9e57611c9e614928565b90506040020160200135611cb2919061493e565b81548110611cc257611cc2614928565b90600052602060002090600e020190506000816000015411611d0a5760405162461bcd60e51b81526020600482015260016024820152603160f81b60448201526064016115b6565b600180820154600090815260076020526040812091600a90878787818110611d3457611d34614928565b90506040020160000135611d48919061493e565b81548110611d5857611d58614928565b906000526020600020906009020190506000816000015411611da05760405162461bcd60e51b81526020600482015260016024820152603360f81b60448201526064016115b6565b42816008015411611dd75760405162461bcd60e51b81526020600482015260016024820152600d60fa1b60448201526064016115b6565b611e8583600501805480602002602001604051908101604052809291908181526020018280548015611e2857602002820191906000526020600020905b815481526020019060010190808311611e14575b505050505082600701805480602002602001604051908101604052809291908181526020018280548015611e7b57602002820191906000526020600020905b815481526020019060010190808311611e67575b5050505050611a29565b611eb55760405162461bcd60e51b81526020600482015260016024820152603560f81b60448201526064016115b6565b826003015481600401541015611ef15760405162461bcd60e51b81526020600482015260016024820152601b60f91b60448201526064016115b6565b600283015460ff166004811115611f0a57611f0a6141e2565b600282015460ff166004811115611f2357611f236141e2565b14611f545760405162461bcd60e51b81526020600482015260016024820152603760f81b60448201526064016115b6565b806006015483600401548460030154611f6d9190614ebe565b1115611f9f5760405162461bcd60e51b81526020600482015260016024820152600760fb1b60448201526064016115b6565b600181015460009081526007602052604081206003850154600d549192909168056bc75e2d6310000090611fd39084614f35565b611fdd9190614ebe565b90506000611feb828461493e565b905060006040518060e00160405280600b80549050600161200c9190614915565b8152895460208083019190915288546040808401919091526060808401899052608080850189905282518085018452600080825260a0808801929092524260c090970196909652600b80546001810182559652865160079096027f0175b7a638427703f0dbe7bb9bbf987a2551717b34e79f33b5b1008d1fa01db98101968755948701517f0175b7a638427703f0dbe7bb9bbf987a2551717b34e79f33b5b1008d1fa01dba860155928601517f0175b7a638427703f0dbe7bb9bbf987a2551717b34e79f33b5b1008d1fa01dbb850155908501517f0175b7a638427703f0dbe7bb9bbf987a2551717b34e79f33b5b1008d1fa01dbc8401558401517f0175b7a638427703f0dbe7bb9bbf987a2551717b34e79f33b5b1008d1fa01dbd83015583015192935083927f0175b7a638427703f0dbe7bb9bbf987a2551717b34e79f33b5b1008d1fa01dbe909101906121629082615355565b5060c0919091015160069182015581519088018054600181018255600091825260208220019190915560048701805486929061219f90849061493e565b9250508190555082602160008282546121b89190614915565b90915550506020546000906121cb610c67565b6121d5919061493e565b905060008185116121e657846121e8565b815b905080602060008282546121fc9190614915565b909155506000905068056bc75e2d6310000061221983600a614f35565b61222b90670de0b6b3a7640000614f35565b6122359190614ebe565b9050600068056bc75e2d6310000061224e84600f614f35565b61226090670de0b6b3a7640000614f35565b61226a9190614ebe565b9050600081612279848661493e565b612283919061493e565b905080156122a157601f546122a1906001600160a01b0316826138cf565b60018c01546001600160a01b03166123175781156122d357818c60020160008282546122cd9190614915565b90915550505b868c60030160008282546122e79190614915565b90915550506040516000805160206155d48339815191529061230a908e90614c70565b60405180910390a16123b2565b81156123355760018c0154612335906001600160a01b0316836138cf565b601b5460018d015460405163a9059cbb60e01b81526001600160a01b039283169263a9059cbb9261236d929116908b90600401614951565b6020604051808303816000875af115801561238c573d6000803e3d6000fd5b505050506040513d601f19601f820116820180604052508101906123b09190614978565b505b82156124265760018a01546001600160a01b031661240e57828a60020160008282546123de9190614915565b90915550506040516000805160206155d483398151915290612401908c90614c70565b60405180910390a1612426565b60018a0154612426906001600160a01b0316846138cf565b7f163f215ebbfd927d87234e39d082b1b03b551dadbca611aab6568ee11a75e8d786604051612455919061540c565b60405180910390a16000805160206155948339815191528b60405161247a9190614a47565b60405180910390a150505050505050505050505050808061249a90614ae2565b915050611c7e565b60006124ac6128c0565b905060005b828110156112b1576000601260008686858181106124d1576124d1614928565b90506020020160208101906124e691906142a7565b6001600160a01b03166001600160a01b03168152602001908152602001600020905060008160020154116125445760405162461bcd60e51b8152602060048201526005602482015264076617620360dc1b60448201526064016115b6565b8281600201541061257f5760405162461bcd60e51b8152602060048201526005602482015264766176203160d81b60448201526064016115b6565b600381015460ff16156125bc5760405162461bcd60e51b81526020600482015260056024820152643b30bb101960d91b60448201526064016115b6565b60038101805460ff191660011790558054601580546000906125df908490614915565b909155505060018101546001600160a01b0316600090815260146020526040902054801561265a576000601361261660018461493e565b8154811061262657612626614928565b90600052602060002090600202019050826000015481600001600082825461264e9190614915565b909155506126ea915050565b6013805460018181018355845460029092027f66de8ffda797e3de9c05e8fc57b3bf0ec28a930d40b0d285d93c06501cf6a090810192909255840180547f66de8ffda797e3de9c05e8fc57b3bf0ec28a930d40b0d285d93c06501cf6a09190920180546001600160a01b0319166001600160a01b0393841617905591549154166000908152601460205260409020555b600080516020615574833981519152826040516127079190615471565b60405180910390a15050808061271c90614ae2565b9150506124b1565b60008111801561273c575068056bc75e2d6310000081105b6127715760405162461bcd60e51b815260206004820152600660248201526507366727620360d41b60448201526064016115b6565b3360009081526011602052604090208054156127905761279033613c06565b600061279b336117ce565b9050600081116127d65760405162461bcd60e51b815260206004820152600660248201526573667276203160d01b60448201526064016115b6565b80600f546127e49190614915565b6127ee8483614f35565b600f54600e546127fe9190614f35565b6128089190614915565b6128129190614ebe565b600e8190555080600f600082825461282a9190614915565b9091555050815560010155565b600033816128458286612f8f565b9050838110156128a55760405162461bcd60e51b815260206004820152602560248201527f45524332303a2064656372656173656420616c6c6f77616e63652062656c6f77604482015264207a65726f60d81b60648201526084016115b6565b610bd8828686840361353c565b600033610a038185856136d4565b60006118156213c68042614ebe565b60606009805480602002602001604051908101604052809291908181526020016000905b828210156117a057838290600052602060002090600e0201604051806101c001604052908160008201548152602001600182015481526020016002820160009054906101000a900460ff16600481111561294f5761294f6141e2565b6004811115612960576129606141e2565b81526020016003820154815260200160048201548152602001600582018054806020026020016040519081016040528092919081815260200182805480156129c757602002820191906000526020600020905b8154815260200190600101908083116129b3575b505050505081526020016006820180546129e0906148c5565b80601f0160208091040260200160405190810160405280929190818152602001828054612a0c906148c5565b8015612a595780601f10612a2e57610100808354040283529160200191612a59565b820191906000526020600020905b815481529060010190602001808311612a3c57829003601f168201915b50505050508152602001600782018054612a72906148c5565b80601f0160208091040260200160405190810160405280929190818152602001828054612a9e906148c5565b8015612aeb5780601f10612ac057610100808354040283529160200191612aeb565b820191906000526020600020905b815481529060010190602001808311612ace57829003601f168201915b5050509183525050600882015460ff1615156020820152600982018054604090920191612b17906148c5565b80601f0160208091040260200160405190810160405280929190818152602001828054612b43906148c5565b8015612b905780601f10612b6557610100808354040283529160200191612b90565b820191906000526020600020905b815481529060010190602001808311612b7357829003601f168201915b50505050508152602001600a8201548152602001600b8201548152602001600c8201805480602002602001604051908101604052809291908181526020018280548015612bfc57602002820191906000526020600020905b815481526020019060010190808311612be8575b50505050508152602001600d82015481525050815260200190600101906128f3565b612c26613b57565b601e546001600160a01b0316158015612c485750601f546001600160a01b0316155b612c5157600080fd5b601e80546001600160a01b039384166001600160a01b031991821617909155601f8054929093169116179055565b60606013805480602002602001604051908101604052809291908181526020016000905b828210156117a05760008481526020908190206040805180820190915260028502909101805482526001908101546001600160a01b0316828401529083529092019101612ca3565b6000612cf660035490565b9050602254600003612d2b57601c5460238190556022556000612d176128c0565b90506024548103612d2757600080fd5b6024555b6000602254602354612d3d919061493e565b90506000602254826064612d519190614915565b1115612d5f57602254612d6a565b612d6a826064614915565b9050815b81811015612e5c576000601c8281548110612d8b57612d8b614928565b60009182526020822001546001600160a01b03169150612daa826117ce565b905060008660215483612dbd9190614f35565b612dc79190614ebe565b601b5460405163a9059cbb60e01b81529192506001600160a01b03169063a9059cbb90612dfa9086908590600401614951565b6020604051808303816000875af1158015612e19573d6000803e3d6000fd5b505050506040513d601f19601f82011682018060405250810190612e3d9190614978565b612e4657600080fd5b5050508080612e5490614ae2565b915050612d6e565b508060226000828254612e6f919061493e565b9091555050602254600003610e14576000602155505050565b6117fb33613c06565b601e546001600160a01b0316331480612ec25750612ead611ac5565b6001600160a01b0316336001600160a01b0316145b612ecb57600080fd5b60005b81811015610e1457601a838383818110612eea57612eea614928565b9050602002810190612efc9190614fe4565b82546001810184556000938452602090932090920191612f1c918361507f565b50601a547f08581e03117d96ad4b36d978f525bfe879526d97ffb59cecf67eb24a801e03cf90848484818110612f5457612f54614928565b9050602002810190612f669190614fe4565b604051612f75939291906154aa565b60405180910390a180612f8781614ae2565b915050612ece565b6001600160a01b03918216600090815260026020908152604080832093909416825291909152205490565b612fc2613b57565b6001600160a01b0381166130275760405162461bcd60e51b815260206004820152602660248201527f4f776e61626c653a206e6577206f776e657220697320746865207a65726f206160448201526564647265737360d01b60648201526084016115b6565b61303081613bb6565b50565b6001600160a01b0381166130715760405162461bcd60e51b8152602060048201526005602482015264073617620360dc1b60448201526064016115b6565b600061307c336117ce565b9050600081116130b65760405162461bcd60e51b8152602060048201526005602482015264736176203160d81b60448201526064016115b6565b3360009081526012602052604090208054156130d5576130d533613d00565b6040518060800160405280838152602001846001600160a01b031681526020016130fd6128c0565b8152600060209182018190523381526012825260409081902083518155918301516001830180546001600160a01b0319166001600160a01b0390921691909117905582810151600283015560609092015160038201805460ff191691151591909117905590516000805160206155748339815191529161317c91615471565b60405180910390a1505050565b6117fb33613d00565b3360009081526008602090815260408083205483526007909152902060018101546001600160a01b03166131c557600080fd5b600060096131d460018661493e565b815481106131e4576131e4614928565b90600052602060002090600e02019050600081600001541161320557600080fd5b815460018201541461321657600080fd5b6112b18184613b16565b6013818154811061323057600080fd5b6000918252602090912060029091020180546001909101549091506001600160a01b031682565b6009818154811061326757600080fd5b60009182526020909120600e9091020180546001820154600283015460038401546004850154600686018054959750939560ff9093169491939092916132ac906148c5565b80601f01602080910402602001604051908101604052809291908181526020018280546132d8906148c5565b80156133255780601f106132fa57610100808354040283529160200191613325565b820191906000526020600020905b81548152906001019060200180831161330857829003601f168201915b50505050509080600701805461333a906148c5565b80601f0160208091040260200160405190810160405280929190818152602001828054613366906148c5565b80156133b35780601f10613388576101008083540402835291602001916133b3565b820191906000526020600020905b81548152906001019060200180831161339657829003601f168201915b5050506008840154600985018054949560ff9092169491935091506133d7906148c5565b80601f0160208091040260200160405190810160405280929190818152602001828054613403906148c5565b80156134505780601f1061342557610100808354040283529160200191613450565b820191906000526020600020905b81548152906001019060200180831161343357829003601f168201915b50505050509080600a01549080600b01549080600d015490508c565b6060601a805480602002602001604051908101604052809291908181526020016000905b828210156117a05783829060005260206000200180546134af906148c5565b80601f01602080910402602001604051908101604052809291908181526020018280546134db906148c5565b80156135285780601f106134fd57610100808354040283529160200191613528565b820191906000526020600020905b81548152906001019060200180831161350b57829003601f168201915b505050505081526020019060010190613490565b6001600160a01b03831661359e5760405162461bcd60e51b8152602060048201526024808201527f45524332303a20617070726f76652066726f6d20746865207a65726f206164646044820152637265737360e01b60648201526084016115b6565b6001600160a01b0382166135ff5760405162461bcd60e51b815260206004820152602260248201527f45524332303a20617070726f766520746f20746865207a65726f206164647265604482015261737360f01b60648201526084016115b6565b6001600160a01b0383811660008181526002602090815260408083209487168084529482529182902085905590518481527f8c5be1e5ebec7d5bd14f71427d1e84f3dd0314c0f7b2291e5b200ac8c7c3b925910160405180910390a3505050565b600061366c8484612f8f565b905060001981146112b157818110156136c75760405162461bcd60e51b815260206004820152601d60248201527f45524332303a20696e73756666696369656e7420616c6c6f77616e636500000060448201526064016115b6565b6112b1848484840361353c565b6001600160a01b0383166137385760405162461bcd60e51b815260206004820152602560248201527f45524332303a207472616e736665722066726f6d20746865207a65726f206164604482015264647265737360d81b60648201526084016115b6565b6001600160a01b03821661379a5760405162461bcd60e51b815260206004820152602360248201527f45524332303a207472616e7366657220746f20746865207a65726f206164647260448201526265737360e81b60648201526084016115b6565b6137a5838383613e24565b6001600160a01b0383166000908152600160205260409020548181101561381d5760405162461bcd60e51b815260206004820152602660248201527f45524332303a207472616e7366657220616d6f756e7420657863656564732062604482015265616c616e636560d01b60648201526084016115b6565b6001600160a01b0380851660008181526001602052604080822086860390559286168082529083902080548601905591516000805160206155f48339815191529061386b9086815260200190565b60405180910390a36112b1565b60008181526007602052604081205490036130305760008181526007602052604081208290556006805460018101825591527ff652222313e28459528d920b65115c16c04f3efc82aaedc97be59f3f377c0d3f0155565b602254156139085760405162461bcd60e51b81526004016115b6906020808252600490820152630534d20360e41b604082015260600190565b6139128282613f04565b5050565b600081606001511161392757600080fd5b60008160a00151511161393957600080fd5b601b5460608201516040516323b872dd60e01b815233600482015230602482015260448101919091526001600160a01b03909116906323b872dd906064016020604051808303816000875af1158015613996573d6000803e3d6000fd5b505050506040513d601f19601f820116820180604052508101906139ba9190614978565b6139c357600080fd5b600a805460018181018355600092909252825160099091027fc65a7bb8d6351c1cf70c95a316cc6a92839c986682d98bc35f958f4883f9d2a8810191825560208401517fc65a7bb8d6351c1cf70c95a316cc6a92839c986682d98bc35f958f4883f9d2a982015560408401517fc65a7bb8d6351c1cf70c95a316cc6a92839c986682d98bc35f958f4883f9d2aa9091018054859460ff1990911690836004811115613a7057613a706141e2565b0217905550606082015160038201556080820151600482015560a08201516005820190613a9d9082615355565b5060c0820151600682015560e08201518051613ac39160078401916020909101906140d3565b506101009190910151600890910155805160058301805460018101825560009182526020909120015560405160008051602061559483398151915290613b0a9083906154e0565b60405180910390a15050565b60008111613b2357600080fd5b600a820181905560088201805460ff191660011790556040516000805160206155b483398151915290613b0a908490614b64565b33613b60611ac5565b6001600160a01b0316146117fb5760405162461bcd60e51b815260206004820181905260248201527f4f776e61626c653a2063616c6c6572206973206e6f7420746865206f776e657260448201526064016115b6565b600080546001600160a01b038381166001600160a01b0319831681178455604051919092169283917f8be0079c531659141344cd1fd0a4f28419497f9722a3daafe3b4186f6b6457e09190a35050565b6001600160a01b03811660009081526011602052604090208054613c555760405162461bcd60e51b815260206004820152600660248201526507266727620360d41b60448201526064016115b6565b8054600f54600091613c669161493e565b90506000600f54600e54613c7a9190614f35565b9050600083600101548460000154613c929190614f35565b90506000818311613ca4576000613cae565b613cae828461493e565b90508315613ccd57613cc08482614ebe565b600e55600f849055613cd9565b600c54600e556000600f555b5050506001600160a01b039092166000908152601160205260408120818155600101555050565b6001600160a01b03811660009081526012602052604090208054613d4f5760405162461bcd60e51b815260206004820152600660248201526507261766820360d41b60448201526064016115b6565b600381015460ff1615613de257805460158054600090613d7090849061493e565b909155505060018101546001600160a01b031660009081526014602052604090205480613d9c57600080fd5b81546013613dab60018461493e565b81548110613dbb57613dbb614928565b90600052602060002090600202016000016000828254613ddb919061493e565b9091555050505b506001600160a01b031660009081526012602052604081208181556001810180546001600160a01b03191690556002810191909155600301805460ff19169055565b6001600160a01b0382166000908152601d602052604090205460ff16158015613e4d5750600081115b15613eb657601c805460018082019092557f0e4562a10381dec21b205ed72637e6b1b523bdd0e4d4d50af5cd23dd4500a2110180546001600160a01b0319166001600160a01b0385169081179091556000908152601d60205260409020805460ff191690911790555b6001600160a01b03831660009081526011602052604090205415613edd57613edd83613c06565b6001600160a01b03831660009081526012602052604090205415610e1457610e1483613d00565b613f0c610c67565b81613f1660035490565b613f209190614915565b1115613f6a5760405162461bcd60e51b8152602060048201526019602482015278115490cc8c10d85c1c19590e8818d85c08195e18d959591959603a1b60448201526064016115b6565b61391282826001600160a01b038216613fc55760405162461bcd60e51b815260206004820152601f60248201527f45524332303a206d696e7420746f20746865207a65726f20616464726573730060448201526064016115b6565b613fd160008383613e24565b8060036000828254613fe39190614915565b90915550506001600160a01b0382166000818152600160209081526040808320805486019055518481526000805160206155f4833981519152910160405180910390a35050565b828054828255906000526020600020908101928215614065579160200282015b8281111561406557823582559160200191906001019061404a565b5061407192915061410e565b5090565b60405180606001604052806003906020820280368337509192915050565b8280548282559060005260206000209081019282156140655760005260206000209182015b828111156140655782548255916001019190600101906140b8565b828054828255906000526020600020908101928215614065579160200282015b828111156140655782518255916020019190600101906140f3565b5b80821115614071576000815560010161410f565b6000815180845260005b818110156141495760208185018101518683018201520161412d565b506000602082860101526020601f19601f83011685010191505092915050565b60208152600061417c6020830184614123565b9392505050565b80356001600160a01b038116811461419a57600080fd5b919050565b600080604083850312156141b257600080fd5b6141bb83614183565b946020939093013593505050565b6000602082840312156141db57600080fd5b5035919050565b634e487b7160e01b600052602160045260246000fd5b6005811061421657634e487b7160e01b600052602160045260246000fd5b9052565b60006101008a8352896020840152614235604084018a6141f8565b8760608401528660808401528060a084015261425381840187614123565b60c0840195909552505060e001529695505050505050565b60008060006060848603121561428057600080fd5b61428984614183565b925061429760208501614183565b9150604084013590509250925092565b6000602082840312156142b957600080fd5b61417c82614183565b60008083601f8401126142d457600080fd5b5081356001600160401b038111156142eb57600080fd5b6020830191508360208260051b850101111561430657600080fd5b9250929050565b6000806020838503121561432057600080fd5b82356001600160401b0381111561433657600080fd5b614342858286016142c2565b90969095509350505050565b60008083601f84011261436057600080fd5b5081356001600160401b0381111561437757600080fd5b6020830191508360208260061b850101111561430657600080fd5b600080602083850312156143a557600080fd5b82356001600160401b038111156143bb57600080fd5b6143428582860161434e565b60608101818360005b60038110156143f85781516001600160a01b03168352602092830192909101906001016143d0565b50505092915050565b6000602080830181845280855180835260408601915060408160051b870101925083870160005b8281101561445657603f19888603018452614444858351614123565b94509285019290850190600101614428565b5092979650505050505050565b87815286602082015285604082015284606082015283608082015260e060a0820152600061449460e0830185614123565b90508260c083015298975050505050505050565b634e487b7160e01b600052604160045260246000fd5b60405160c081016001600160401b03811182821017156144e0576144e06144a8565b60405290565b604051601f8201601f191681016001600160401b038111828210171561450e5761450e6144a8565b604052919050565b600082601f83011261452757600080fd5b813560206001600160401b03821115614542576145426144a8565b8160051b6145518282016144e6565b928352848101820192828101908785111561456b57600080fd5b83870192505b8483101561458a57823582529183019190830190614571565b979650505050505050565b600080604083850312156145a857600080fd5b82356001600160401b03808211156145bf57600080fd5b6145cb86838701614516565b935060208501359150808211156145e157600080fd5b506145ee85828601614516565b9150509250929050565b600081518084526020808501945080840160005b838110156146285781518752958201959082019060010161460c565b509495945050505050565b60006020808301818452808551808352604092508286019150828160051b87010184880160005b8381101561477857603f1989840301855281516101c08151855288820151898601528782015161468c898701826141f8565b50606082810151908601526080808301519086015260a0808301518187018390526146b9838801826145f8565b9250505060c080830151868303828801526146d48382614123565b9250505060e080830151868303828801526146ef8382614123565b92505050610100808301516147078288018215159052565b505061012080830151868303828801526147218382614123565b92505050610140808301518187015250610160808301518187015250610180808301518683038288015261475583826145f8565b6101a094850151979094019690965250509487019492509086019060010161465a565b509098975050505050505050565b6000806040838503121561479957600080fd5b6147a283614183565b91506147b060208401614183565b90509250929050565b602080825282518282018190526000919060409081850190868401855b82811015614804578151805185528601516001600160a01b03168685015292840192908501906001016147d6565b5091979650505050505050565b6000806040838503121561482457600080fd5b50508035926020909101359150565b60006101808e83528d602084015261484e604084018e6141f8565b8b60608401528a60808401528060a084015261486c8184018b614123565b905082810360c0840152614880818a614123565b905087151560e084015282810361010084015261489d8188614123565b6101208401969096525050610140810192909252610160909101529998505050505050505050565b600181811c908216806148d957607f821691505b6020821081036148f957634e487b7160e01b600052602260045260246000fd5b50919050565b634e487b7160e01b600052601160045260246000fd5b80820180821115610a0957610a096148ff565b634e487b7160e01b600052603260045260246000fd5b81810381811115610a0957610a096148ff565b6001600160a01b03929092168252602082015260400190565b801515811461303057600080fd5b60006020828403121561498a57600080fd5b815161417c8161496a565b600081546149a2816148c5565b8085526020600183811680156149bf57600181146149d957614a07565b60ff1985168884015283151560051b880183019550614a07565b866000528260002060005b858110156149ff5781548a82018601529083019084016149e4565b890184019650505b505050505092915050565b6000815480845260208085019450836000528060002060005b8381101561462857815487529582019560019182019101614a2b565b6020815281546020820152600182015460408201526000614a6c600284015460ff1690565b614a7960608401826141f8565b5060038301546080830152600483015460a08301526101208060c0840152614aa8610140840160058601614995565b600685015460e0850152838103601f1901610100850152614acc8160078701614a12565b9050600885015482850152809250505092915050565b600060018201614af457614af46148ff565b5060010190565b60008235605e19833603018112614b1157600080fd5b9190910192915050565b6000808335601e19843603018112614b3257600080fd5b8301803591506001600160401b03821115614b4c57600080fd5b6020019150600581901b360382131561430657600080fd5b6020815281546020820152600182015460408201526000614b89600284015460ff1690565b614b9660608401826141f8565b5060038301546080830152600483015460a08301526101c08060c0840152614bc56101e0840160058601614a12565b601f19808583030160e0860152614bdf8260068801614995565b91508085830301610100860152614bf98260078801614995565b9150614c09600887015460ff1690565b15156101208601528482038101610140860152614c298260098801614995565b9150600a860154610160860152600b86015461018086015280858303016101a086015250614c5a81600c8701614a12565b9050600d85015482850152809250505092915050565b602080825282549082015260018201546001600160a01b03166040820152600282015460608201526003820154608082015260e060a08201526000614cbc610100830160048501614a12565b601f19808483030160c0850152614cd68260058701614a12565b9150808483030160e085015250614cf08160068601614a12565b949350505050565b6000823560be19833603018112614b1157600080fd5b6005811061303057600080fd5b803561419a81614d0e565b600082601f830112614d3757600080fd5b81356001600160401b03811115614d5057614d506144a8565b614d63601f8201601f19166020016144e6565b818152846020838601011115614d7857600080fd5b816020850160208301376000918101602001919091529392505050565b600060c08284031215614da757600080fd5b614daf6144be565b9050614dba82614d1b565b81526020828101359082015260408201356001600160401b0380821115614de057600080fd5b614dec85838601614d26565b6040840152606084013560608401526080840135915080821115614e0f57600080fd5b50614e1c84828501614516565b60808301525060a082013560a082015292915050565b6000610a093683614d95565b60008235603e19833603018112614b1157600080fd5b600060408236031215614e6657600080fd5b604080519081016001600160401b038082118383101715614e8957614e896144a8565b81604052843583526020850135915080821115614ea557600080fd5b50614eb236828601614d95565b60208301525092915050565b600082614edb57634e487b7160e01b600052601260045260246000fd5b500490565b600082356101be19833603018112614b1157600080fd5b60008135610a0981614d0e565b60058210614f2257634e487b7160e01b600052602160045260246000fd5b60ff1981541660ff831681178255505050565b8082028115828204841417610a0957610a096148ff565b5b818110156139125760008155600101614f4d565b6001600160401b03831115614f7857614f786144a8565b600160401b831115614f8c57614f8c6144a8565b805483825580841015614fb257816000526020600020614fb0828201868301614f4c565b505b50818160005260208060002060005b86811015614fdb5783358282015592820192600101614fc1565b50505050505050565b6000808335601e19843603018112614ffb57600080fd5b8301803591506001600160401b0382111561501557600080fd5b60200191503681900382131561430657600080fd5b601f821115610e1457806000526020600020601f840160051c810160208510156150515750805b615063601f850160051c830182614f4c565b5050505050565b600019600383901b1c191660019190911b1790565b6001600160401b03831115615096576150966144a8565b6150aa836150a483546148c5565b8361502a565b6000601f8411600181146150d857600085156150c65750838201355b6150d0868261506a565b845550615063565b600083815260209020601f19861690835b8281101561510957868501358255602094850194600190920191016150e9565b50868210156151265760001960f88860031b161c19848701351681555b505060018560011b0183555050505050565b60008135610a098161496a565b813581556020820135600182015561516b61516260408401614ef7565b60028301614f04565b606082013560038201556080820135600482015561518c60a0830183614b1b565b61519a818360058601614f61565b50506151a960c0830183614fe4565b6151b781836006860161507f565b50506151c660e0830183614fe4565b6151d481836007860161507f565b50506151ff6151e66101008401615138565b6008830160ff1981541660ff8315151681178255505050565b61520d610120830183614fe4565b61521b81836009860161507f565b5050610140820135600a820155610160820135600b820155615241610180830183614b1b565b61524f8183600c8601614f61565b50506101a0820135600d8201555050565b602080825260059082015264061687520360dc1b604082015260600190565b81810361528a575050565b61529482546148c5565b6001600160401b038111156152ab576152ab6144a8565b6152bf816152b984546148c5565b8461502a565b6000601f8211600181146152ed57600083156152db5750848201545b6152e5848261506a565b855550615063565b600085815260209020601f19841690600086815260209020845b838110156153275782860154825560019586019590910190602001615307565b50858310156153455781850154600019600388901b60f8161c191681555b5050505050600190811b01905550565b81516001600160401b0381111561536e5761536e6144a8565b61537c816152b984546148c5565b602080601f8311600181146153ab57600084156153995750858301515b6153a3858261506a565b865550615404565b600085815260208120601f198616915b828110156153da578886015182559484019460019091019084016153bb565b50858210156153f85787850151600019600388901b60f8161c191681555b505060018460011b0185555b505050505050565b6020815281516020820152602082015160408201526040820151606082015260608201516080820152608082015160a0820152600060a083015160e060c084015261545b610100840182614123565b905060c084015160e08401528091505092915050565b8154815260018201546001600160a01b0316602082015260028201546040820152600382015460ff161515606082015260808101610a09565b83815260406020820152816040820152818360608301376000818301606090810191909152601f909201601f1916010192915050565b6020815281516020820152602082015160408201526000604083015161550960608401826141f8565b5060608301516080830152608083015160a083015260a08301516101208060c085015261553a610140850183614123565b915060c085015160e085015260e0850151610100601f19868503018187015261556384836145f8565b960151919094015250919291505056fee08472d1275fefbb15ff0aea278bb1f42c491be3fa4358160826ba7e420ae613988cbfdf9710a9b89faec272f5e449b4eb56c67d8b31a40c3eec1f6b6cc544af96e9914f87caf53079f3441ee12036434bc4ea93f85df92beb30c7c918984e9fe1ab017037dfdbe8aeea88ca10733a62fe91b3791c7ab2f30b54a9e2a0b0d319ddf252ad1be2c89b69c2b068fc378daa952ba7f163c4a11628f55a4df523b3efa2646970667358221220a8b13a77ed6e3e0e2dd92921360c34ee23499aaf5e43b66f3012ba7105afcfbc64736f6c63430008130033",
  "immutableReferences": {
    "785": [
      {
        "length": 32,
        "start": 3177
      }
    ]
  },
  "source": "// SPDX-License-Identifier: MIT\npragma solidity ^0.8.9;\nimport \"@openzeppelin/contracts/access/Ownable.sol\";\nimport \"@openzeppelin/contracts/token/ERC20/extensions/ERC20Capped.sol\";\n\ncontract Asami is Ownable, ERC20Capped {\n  enum Site { X, Instagram, LinkedIn, Facebook, Nostr}\n\n  struct Account {\n    uint256 id;\n    address addr;\n    uint256 unclaimedAsamiTokens;\n    uint256 unclaimedDocRewards;\n    uint256[] handles;\n    uint256[] campaigns;\n    uint256[] collabs;\n  }\n  uint256[] public accountIds;\n  mapping(uint256 => Account) public accounts;\n  mapping(address => uint256) public accountIdByAddress;\n  event AccountSaved(Account account);\n\n  struct Handle {\n    uint256 id;\n    uint256 accountId;\n    Site site;\n    uint256 price;\n    uint256 score;\n    uint256[] topics;\n    string username;\n    string userId;\n    bool needsUpdate;\n    string newUsername;\n    uint256 newPrice;\n    uint256 newScore;\n    uint256[] newTopics;\n    uint256 lastUpdated;\n  }\n  Handle[] public handles;\n  event HandleSaved(Handle handle);\n\n  function getHandles() public view returns (Handle[] memory) {\n    return handles;\n  }\n\n  struct Campaign {\n    uint256 id;\n    uint256 accountId;\n    Site site;\n    uint256 budget;\n    uint256 remaining;\n    string contentId;\n    uint256 priceScoreRatio;\n    uint256[] topics;\n    uint256 validUntil;\n  }\n  Campaign[] public campaigns;\n  event CampaignSaved(Campaign campaign);\n\n  struct Collab {\n    uint256 id;\n    uint256 handleId;\n    uint256 campaignId;\n    uint256 gross;\n    uint256 fee;\n    string proof;\n    uint256 createdAt;\n  }\n  Collab[] public collabs;\n  event CollabSaved(Collab collab);\n\n  uint256 public defaultFeeRate = 10 * 1e18;\n  uint256 public feeRate = defaultFeeRate;\n  uint256 public votedFeeRate = defaultFeeRate;\n  uint256 public votedFeeRateVoteCount = 0;\n  /* To make the protocol more predictable, changes are applied only once every period */\n  uint256 public lastVotedFeeRateAppliedOn = 0;\n\n  struct FeeRateVote {\n    uint256 votes;\n    uint256 rate;\n  }\n  mapping(address => FeeRateVote) public feeRateVotes;\n\n  struct AdminVote {\n    uint256 votes;\n    address candidate;\n    uint256 cycle;\n    bool vested;\n  }\n  /* Maps holders to their vote */\n  mapping(address => AdminVote) public submittedAdminVotes;\n  event AdminVoteSaved(AdminVote vote);\n\n  struct AdminVoteCount {\n    uint256 votes;\n    address candidate;\n  }\n\n  /*\n  We're only storing all historic vote counts to have a view function that helps find out\n  which candidate to proclaim without relying on events.\n  */\n  AdminVoteCount[] public adminVoteCounts;\n  mapping(address => uint256) public adminVoteCountIdByCandidate;\n\n  function allAdminVoteCounts() public view returns (AdminVoteCount[] memory) {\n    return adminVoteCounts;\n  }\n\n  uint256 public vestedAdminVotesTotal;\n  uint256 public lastAdminElection;\n  address[3] public latestAdminElections;\n\n  function getLatestAdminElections() public view returns (address[3] memory) {\n    return latestAdminElections;\n  }\n\n  string[] public topics;\n  event TopicSaved(uint256 id, string name);\n\n  IERC20 internal doc;\n  address[] public holders;\n  mapping(address => bool) public trackedHolders;\n\n  address public admin; // An address that may be stored on a server.\n  address public adminTreasury; // A cold storage address for admin money.\n\n  uint256 public claimedAsamiTokens;\n\n  modifier onlyAdmin() {\n    require(msg.sender == admin || msg.sender == owner());\n    _;\n  }\n\n  constructor(address _dollarOnChainAddress) ERC20(\"AsamiToken\", \"ASAMI\") ERC20Capped(21 * 1e24) {\n    doc = IERC20(_dollarOnChainAddress);\n  }\n\n  function _beforeTokenTransfer(address from, address to, uint256 amount) internal override {\n    super._beforeTokenTransfer(from, to, amount);\n    if (!trackedHolders[to] && amount > 0) {\n      holders.push(to);\n      trackedHolders[to] = true;\n    }\n\n    if (feeRateVotes[from].votes > 0) { removeFeeRateVoteHelper(from); }\n    if (submittedAdminVotes[from].votes > 0) { removeAdminVoteHelper(from); }\n  }\n\n  function setAdmin(address _admin, address _adminTreasury) external onlyOwner {\n    require(admin == address(0) && adminTreasury == address(0));\n    admin = _admin;\n    adminTreasury = _adminTreasury;\n  }\n\n  function getHolders() public view returns (string[] memory) {\n    return topics;\n  }\n\n  function getClaimedAsamiTokens() public view returns (uint256) {\n    return claimedAsamiTokens;\n  }\n\n  function getTopics() public view returns (string[] memory) {\n    return topics;\n  }\n\n  function adminAddTopics(string[] calldata _names) public onlyAdmin {\n    for( uint256 i = 0; i < _names.length; i++) {\n      topics.push(_names[i]);\n      emit TopicSaved(topics.length, _names[i]);\n    }\n  }\n\n  function ensureAccount(uint256 _accountId) private {\n    if(accounts[_accountId].id == 0) {\n      accounts[_accountId].id = _accountId;\n      accountIds.push(_accountId);\n    }\n  }\n\n  struct AdminClaimAccountsInput {\n    uint256 accountId;\n    address addr;\n  }\n\n  function claimAccounts (\n    AdminClaimAccountsInput[] calldata _input\n  ) public onlyAdmin {\n    for( uint256 i = 0; i < _input.length; i++) {\n      AdminClaimAccountsInput calldata claim = _input[i];\n      ensureAccount(claim.accountId);\n\n      Account storage account = accounts[claim.accountId];\n      require(account.addr == address(0));\n\n      accountIdByAddress[claim.addr] = claim.accountId;\n      account.addr = claim.addr;\n\n      if(account.unclaimedAsamiTokens > 0) {\n        account.unclaimedAsamiTokens = 0;\n        _safeMint(claim.addr, account.unclaimedAsamiTokens);\n      }\n\n      if(account.unclaimedDocRewards > 0) {\n        account.unclaimedDocRewards = 0;\n        doc.transfer(account.addr, account.unclaimedDocRewards);\n      }\n\n      emit AccountSaved(account);\n    }\n  }\n\n  function adminMakeHandles (\n    Handle[] calldata _inputs\n  ) external onlyAdmin {\n\n    for( uint256 i = 0; i < _inputs.length; i++) {\n      ensureAccount(_inputs[i].accountId);\n\n      handles.push(_inputs[i]);\n      Handle storage h = handles[handles.length - 1];\n      h.id = handles.length;\n      emit HandleSaved(h);\n    }\n  }\n\n  struct CampaignInput {\n    Site site;\n    uint256 budget;\n    string contentId;\n    uint256 priceScoreRatio;\n    uint256[] topics;\n    uint256 validUntil;\n  }\n  function makeCampaigns(\n    CampaignInput[] calldata _inputs\n  ) public {\n    Account storage account = accounts[accountIdByAddress[msg.sender]];\n    require(account.addr != address(0));\n\n    for( uint i = 0; i < _inputs.length; i++) {\n      CampaignInput memory input = _inputs[i];\n      _saveCampaignHelper(account, Campaign({\n        id: campaigns.length + 1,\n        accountId: account.id,\n        site: input.site,\n        budget: input.budget,\n        remaining: input.budget,\n        contentId: input.contentId,\n        priceScoreRatio: input.priceScoreRatio,\n        topics: input.topics,\n        validUntil: input.validUntil\n      }));\n    }\n  }\n\n  struct AdminCampaignInput {\n    uint256 accountId;\n    CampaignInput attrs;\n  }\n\n  function adminMakeCampaigns(\n    AdminCampaignInput[] calldata _inputs\n  ) public onlyAdmin {\n\n    for( uint i = 0; i < _inputs.length; i++) {\n      AdminCampaignInput memory input = _inputs[i];\n      ensureAccount(input.accountId);\n      Account storage account = accounts[input.accountId];\n      require(account.addr == address(0));\n\n      _saveCampaignHelper(account, Campaign({\n        id: campaigns.length + 1,\n        accountId: account.id,\n        site: input.attrs.site,\n        budget: input.attrs.budget,\n        remaining: input.attrs.budget,\n        contentId: input.attrs.contentId,\n        priceScoreRatio: input.attrs.priceScoreRatio,\n        topics: input.attrs.topics,\n        validUntil: input.attrs.validUntil\n      }));\n    }\n  }\n\n  function _saveCampaignHelper(\n    Account storage _account,\n    Campaign memory _campaign\n  ) private {\n    require(_campaign.budget > 0);\n    require(bytes(_campaign.contentId).length > 0);\n    require(doc.transferFrom(msg.sender, address(this), _campaign.budget));\n\n    campaigns.push(_campaign);\n    _account.campaigns.push(_campaign.id);\n    emit CampaignSaved(_campaign);\n  }\n\n  struct AdminMakeCollabsInput {\n    uint256 campaignId;\n    uint256 handleId;\n  }\n\n  function adminMakeCollabs(AdminMakeCollabsInput[] calldata _collabs) external onlyAdmin {\n    for( uint256 i = 0; i < _collabs.length; i++) {\n      Handle storage handle = handles[_collabs[i].handleId - 1];\n      require(handle.id > 0, \"1\");\n      Account storage member = accounts[handle.accountId];\n\n      Campaign storage campaign = campaigns[_collabs[i].campaignId - 1];\n      require(campaign.id > 0, \"3\");\n      require(campaign.validUntil > block.timestamp, \"4\");\n      require(isSubset(handle.topics, campaign.topics), \"5\");\n\n      require(campaign.remaining >= handle.price, \"6\");\n      require(campaign.site == handle.site, \"7\");\n      require((handle.price / handle.score) <= campaign.priceScoreRatio, \"8\");\n\n      Account storage advertiser = accounts[campaign.accountId];\n\n      uint256 gross = handle.price;\n      uint256 fee = (gross * feeRate) / 1e20;\n      uint256 reward = gross - fee;\n\n      Collab memory collab = Collab({\n        id: collabs.length + 1,\n        handleId: handle.id,\n        campaignId: campaign.id,\n        gross: gross,\n        fee: fee,\n        proof: \"\",\n        createdAt: block.timestamp\n      });\n      collabs.push(collab);\n      member.collabs.push(collab.id);\n\n      campaign.remaining -= gross;\n      feePool += fee;\n\n      uint256 remainingToCap = cap() - claimedAsamiTokens;\n      uint256 newTokens = (fee > remainingToCap) ? remainingToCap : fee;\n      claimedAsamiTokens += newTokens;\n\n      uint256 advertiserTokens = (newTokens * 10 * 1e18) / 100e18;\n      uint256 memberTokens = (newTokens * 15 * 1e18) / 100e18;\n      uint256 adminTokens = newTokens - advertiserTokens - memberTokens;\n\n      if (adminTokens > 0) {\n        _safeMint(adminTreasury, adminTokens);\n      }\n\n      if ( member.addr == address(0) ) {\n        if( memberTokens > 0) {\n          member.unclaimedAsamiTokens += memberTokens;\n        }\n        member.unclaimedDocRewards += reward;\n        emit AccountSaved(member);\n      } else {\n        if( memberTokens > 0) {\n          _safeMint(member.addr, memberTokens);\n        }\n        doc.transfer(member.addr, reward);\n      }\n\n      if ( advertiserTokens > 0 ) {\n        if ( advertiser.addr == address(0) ) {\n          advertiser.unclaimedAsamiTokens += advertiserTokens;\n          emit AccountSaved(advertiser);\n        } else {\n          _safeMint(advertiser.addr, advertiserTokens);\n        }\n      }\n\n      emit CollabSaved(collab);\n      emit CampaignSaved(campaign);\n    }\n  }\n\n  function reimburseDueCampaigns(uint256[] calldata _campaignIds) public {\n    for(uint i = 0; i < _campaignIds.length; i++) {\n      Campaign storage campaign = campaigns[_campaignIds[i] - 1];\n      require(campaign.id > 0);\n      require(campaign.remaining > 0);\n      require(campaign.validUntil < block.timestamp);\n\n      Account storage advertiser = accounts[campaign.accountId];\n      require(doc.transfer(advertiser.addr, campaign.remaining));\n\n      campaign.remaining = 0;\n      emit CampaignSaved(campaign);\n    }\n  }\n\n  // To prevent race conditions, we never mint while we're in the middle of a payout.\n  function _safeMint(address _addr, uint256 _amount) private {\n    require(payoutsRemaining == 0, \"SM 0\");\n    _mint(_addr, _amount);\n  }\n\n  struct AdminSetPriceInput {\n    uint256 handleId;\n    uint256 price;\n  }\n\n  function adminSetPrice(AdminSetPriceInput[] calldata _inputs) external onlyAdmin {\n    for( uint256 i = 0; i < _inputs.length; i++) {\n      Handle storage handle = handles[_inputs[i].handleId - 1];\n      Account storage account = accounts[handle.accountId];\n      require(account.addr == address(0) && account.id > 0);\n\n      _setPriceHelper(handle, _inputs[i].price);\n    }\n  }\n\n  function setPrice(uint256 _handleId, uint256 _price) external {\n    Account storage account = accounts[accountIdByAddress[msg.sender]];\n    require(account.addr != address(0));\n\n    Handle storage handle = handles[_handleId - 1];\n    require(handle.id > 0);\n    require(handle.accountId == account.id);\n\n    _setPriceHelper(handle, _price);\n  }\n\n  function _setPriceHelper(Handle storage handle, uint256 _price) private {\n    require(_price > 0);\n    handle.newPrice = _price;\n    handle.needsUpdate = true;\n    emit HandleSaved(handle);\n  }\n\n  struct AdminSetScoreAndTopicsInput {\n    uint256 handleId;\n    uint256 score;\n    uint256[] topics;\n  }\n\n  function adminSetScoreAndTopics(\n    AdminSetScoreAndTopicsInput[] calldata _inputs\n  ) external onlyAdmin {\n    for( uint256 i = 0; i < _inputs.length; i++) {\n      Handle storage handle = handles[_inputs[i].handleId - 1];\n      handle.newScore = _inputs[i].score;\n      handle.newTopics = _inputs[i].topics;\n      handle.needsUpdate = true;\n      emit HandleSaved(handle);\n    }\n  }\n\n  function getCycleLength() public pure returns (uint256) {\n    return 60 * 60 * 24 * 15;\n  }\n\n  function getCurrentCycle() public view returns (uint256) {\n     return block.timestamp / getCycleLength();\n  }\n\n  function getNextCycle() public view returns (uint256) {\n    return getCurrentCycle() + getCycleLength();\n  }\n\n  /*\n    Distributes the fee pool among token holders.\n    To prevent going over the gas limit, it does up to 100 a time, and can be called many times in a row.\n    Always returns the pending holders.\n    Anyone can call this at any time, but just once per period. It would usually be the admin though.\n  */\n  uint256 public feePool;\n  uint256 public payoutsRemaining = 0;\n  uint256 public payoutsTotal = 0;\n  uint256 public lastPayoutCycle = 0;\n\n  function distributeFeePool() external {\n    uint256 totalSupply = totalSupply();\n\n    if(payoutsRemaining == 0) {\n      // We're starting a new payout of the feePool.\n      // We can only start one payout in each 15 day period.\n      payoutsTotal = holders.length;\n      payoutsRemaining = payoutsTotal;\n      uint256 currentCycle = getCurrentCycle();\n      require(currentCycle != lastPayoutCycle);\n      lastPayoutCycle = currentCycle;\n    }\n\n    uint256 startAt = payoutsTotal - payoutsRemaining;\n\n    uint256 until = (startAt + 100) <= payoutsRemaining ? (startAt + 100) : payoutsRemaining;\n\n    for (uint256 i = startAt; i < until; i++) {\n      address holder = holders[i];\n      uint256 balance = balanceOf(holder);\n      uint256 reward = (balance * feePool) / totalSupply;\n      require(doc.transfer(holder, reward));\n    }\n\n    payoutsRemaining -= until;\n\n    if(payoutsRemaining == 0) {\n      feePool = 0;\n    }\n  }\n\n  function applyHandleUpdates(uint256[] calldata _indexes) external {\n    uint256 currentCycle = getCurrentCycle();\n\n    for (uint256 i = 0; i < _indexes.length; i++) {\n      Handle storage handle = handles[_indexes[i]];\n      require(handle.lastUpdated != currentCycle, \"ahu 0\");\n      require(handle.needsUpdate, \"ahu 0\");\n\n      handle.needsUpdate = false;\n      handle.lastUpdated = currentCycle;\n\n      if (bytes(handle.newUsername).length > 0) {\n        handle.username = handle.newUsername;\n      }\n\n      if (handle.newPrice != 0) {\n        handle.price = handle.newPrice;\n      }\n\n      if (handle.score != 0) {\n        handle.score = handle.newScore;\n      }\n\n      if (handle.newTopics.length > 0) {\n        handle.topics = handle.newTopics;\n      }\n\n      emit HandleSaved(handle);\n    }\n  }\n\n  function applyVotedFeeRate() external {\n    uint256 currentCycle = getCurrentCycle();\n    require(currentCycle != lastVotedFeeRateAppliedOn);\n    feeRate = votedFeeRate;\n    lastVotedFeeRateAppliedOn = currentCycle;\n  }\n\n  function submitFeeRateVote(uint256 _rate) external {\n    require(_rate > 0 && _rate < 1e20, \"sfrv 0\");\n\n    FeeRateVote storage vote = feeRateVotes[msg.sender];\n    if (vote.votes > 0) { removeFeeRateVoteHelper(msg.sender); }\n\n    uint256 votes = balanceOf(msg.sender);\n    require(votes > 0, \"sfrv 1\");\n\n    votedFeeRate = ((votedFeeRate * votedFeeRateVoteCount) + (votes * _rate)) / (votedFeeRateVoteCount + votes);\n    votedFeeRateVoteCount += votes;\n    vote.votes = votes;\n    vote.rate = _rate;\n  }\n\n  function removeFeeRateVote() external {\n    removeFeeRateVoteHelper(msg.sender);\n  }\n\n  function removeFeeRateVoteHelper(address _holder) private {\n    FeeRateVote storage vote = feeRateVotes[_holder];\n    require(vote.votes > 0, \"rfrv 0\");\n    uint256 nextVoteCount = votedFeeRateVoteCount - vote.votes;\n    uint256 currentVolume = votedFeeRate * votedFeeRateVoteCount;\n    uint256 removedVolume = vote.votes * vote.rate;\n    uint256 nextVolume = currentVolume > removedVolume ? currentVolume - removedVolume : 0;\n\n    if (nextVoteCount > 0) {\n      votedFeeRate = nextVolume / nextVoteCount;\n      votedFeeRateVoteCount = nextVoteCount;\n    } else {\n      votedFeeRate = defaultFeeRate;\n      votedFeeRateVoteCount = 0;\n    }\n    delete feeRateVotes[_holder];\n  }\n\n  function submitAdminVote(address _candidate) external {\n    require(_candidate != address(0), \"sav 0\");\n    uint256 votes = balanceOf(msg.sender);\n    require(votes > 0, \"sav 1\");\n\n    AdminVote storage existing = submittedAdminVotes[msg.sender];\n    if (existing.votes > 0 ){\n      removeAdminVoteHelper(msg.sender);\n    }\n\n    submittedAdminVotes[msg.sender] = AdminVote({\n      candidate: _candidate,\n      votes: votes,\n      cycle: getCurrentCycle(),\n      vested: false\n    });\n\n    emit AdminVoteSaved(submittedAdminVotes[msg.sender]);\n  }\n\n  function vestAdminVotes(address[] calldata _holders) external {\n    uint256 thisCycle = getCurrentCycle();\n\n    for (uint256 i = 0; i < _holders.length; i++) {\n      AdminVote storage vote = submittedAdminVotes[_holders[i]];\n      require(vote.cycle > 0, \"vav 0\");\n      require(vote.cycle < thisCycle, \"vav 1\");\n      require(!vote.vested, \"vav 2\");\n      vote.vested = true;\n      vestedAdminVotesTotal += vote.votes;\n\n      uint256 voteCountId = adminVoteCountIdByCandidate[vote.candidate];\n      if (voteCountId > 0) {\n        AdminVoteCount storage count = adminVoteCounts[voteCountId - 1];\n        count.votes += vote.votes;\n      } else {\n        AdminVoteCount storage count = adminVoteCounts.push();\n        count.votes = vote.votes;\n        count.candidate = vote.candidate; \n        adminVoteCountIdByCandidate[vote.candidate] = adminVoteCounts.length;\n      }\n      emit AdminVoteSaved(vote);\n    }\n  }\n\n  function proclaimCycleAdminWinner(address _candidate) external {\n    uint256 voteCountId = adminVoteCountIdByCandidate[_candidate];\n    require(voteCountId > 0);\n    AdminVoteCount storage count = adminVoteCounts[voteCountId - 1];\n\n    require(count.votes > vestedAdminVotesTotal / 2, \"pcw 0\");\n    require(vestedAdminVotesTotal > 0, \"pcw 1\");\n    uint256 thisCycle = getCurrentCycle();\n    require(lastAdminElection < thisCycle, \"pcw 2\");\n\n    lastAdminElection = thisCycle;\n    latestAdminElections[2] = latestAdminElections[1];\n    latestAdminElections[1] = latestAdminElections[0];\n    latestAdminElections[0] = _candidate;\n\n    if (_candidate == latestAdminElections[1] && _candidate == latestAdminElections[2]) {\n      admin = _candidate;\n      adminTreasury = _candidate;\n    }\n  }\n\n  function removeAdminVote() external {\n    removeAdminVoteHelper(msg.sender);\n  }\n\n  function removeAdminVoteHelper(address _holder) private {\n    AdminVote storage vote = submittedAdminVotes[_holder];\n    require(vote.votes > 0, \"ravh 0\");\n    if ( vote.vested ) {\n      vestedAdminVotesTotal -= vote.votes;\n\n      uint256 voteCountId = adminVoteCountIdByCandidate[vote.candidate];\n      require(voteCountId > 0);\n      adminVoteCounts[voteCountId - 1].votes -= vote.votes;\n    }\n    delete submittedAdminVotes[_holder];\n  }\n\n  function setAdminAddress(address _admin) external {\n    require(msg.sender == adminTreasury);\n    admin = _admin;\n  }\n\n  function isSubset(uint256[] memory mainSet, uint256[] memory subset) public pure returns (bool) {\n    for (uint256 i = 0; i < subset.length; i++) {\n      bool found = false;\n\n      for (uint256 j = 0; j < mainSet.length; j++) {\n        if (subset[i] == mainSet[j]) {\n          found = true;\n          break;\n        }\n      }\n\n      if (!found) {\n        return false;\n      }\n    }\n\n    return true;\n  }\n}\n",
  "sourcePath": "/home/nubis/asami/contract/contracts/Asami.sol",
  "compiler": {
    "name": "solc",
    "version": "0.8.19+commit.7dd6d404.Emscripten.clang"
  },
  "schemaVersion": "3.4.15",
  "updatedAt": "2024-02-06T19:46:24.937Z",
  "networkType": "ethereum",
  "devdoc": {
    "events": {
      "Approval(address,address,uint256)": {
        "details": "Emitted when the allowance of a `spender` for an `owner` is set by a call to {approve}. `value` is the new allowance."
      },
      "Transfer(address,address,uint256)": {
        "details": "Emitted when `value` tokens are moved from one account (`from`) to another (`to`). Note that `value` may be zero."
      }
    },
    "kind": "dev",
    "methods": {
      "allowance(address,address)": {
        "details": "See {IERC20-allowance}."
      },
      "approve(address,uint256)": {
        "details": "See {IERC20-approve}. NOTE: If `amount` is the maximum `uint256`, the allowance is not updated on `transferFrom`. This is semantically equivalent to an infinite approval. Requirements: - `spender` cannot be the zero address."
      },
      "balanceOf(address)": {
        "details": "See {IERC20-balanceOf}."
      },
      "cap()": {
        "details": "Returns the cap on the token's total supply."
      },
      "decimals()": {
        "details": "Returns the number of decimals used to get its user representation. For example, if `decimals` equals `2`, a balance of `505` tokens should be displayed to a user as `5.05` (`505 / 10 ** 2`). Tokens usually opt for a value of 18, imitating the relationship between Ether and Wei. This is the default value returned by this function, unless it's overridden. NOTE: This information is only used for _display_ purposes: it in no way affects any of the arithmetic of the contract, including {IERC20-balanceOf} and {IERC20-transfer}."
      },
      "decreaseAllowance(address,uint256)": {
        "details": "Atomically decreases the allowance granted to `spender` by the caller. This is an alternative to {approve} that can be used as a mitigation for problems described in {IERC20-approve}. Emits an {Approval} event indicating the updated allowance. Requirements: - `spender` cannot be the zero address. - `spender` must have allowance for the caller of at least `subtractedValue`."
      },
      "increaseAllowance(address,uint256)": {
        "details": "Atomically increases the allowance granted to `spender` by the caller. This is an alternative to {approve} that can be used as a mitigation for problems described in {IERC20-approve}. Emits an {Approval} event indicating the updated allowance. Requirements: - `spender` cannot be the zero address."
      },
      "name()": {
        "details": "Returns the name of the token."
      },
      "owner()": {
        "details": "Returns the address of the current owner."
      },
      "renounceOwnership()": {
        "details": "Leaves the contract without owner. It will not be possible to call `onlyOwner` functions. Can only be called by the current owner. NOTE: Renouncing ownership will leave the contract without an owner, thereby disabling any functionality that is only available to the owner."
      },
      "symbol()": {
        "details": "Returns the symbol of the token, usually a shorter version of the name."
      },
      "totalSupply()": {
        "details": "See {IERC20-totalSupply}."
      },
      "transfer(address,uint256)": {
        "details": "See {IERC20-transfer}. Requirements: - `to` cannot be the zero address. - the caller must have a balance of at least `amount`."
      },
      "transferFrom(address,address,uint256)": {
        "details": "See {IERC20-transferFrom}. Emits an {Approval} event indicating the updated allowance. This is not required by the EIP. See the note at the beginning of {ERC20}. NOTE: Does not update the allowance if the current allowance is the maximum `uint256`. Requirements: - `from` and `to` cannot be the zero address. - `from` must have a balance of at least `amount`. - the caller must have allowance for ``from``'s tokens of at least `amount`."
      },
      "transferOwnership(address)": {
        "details": "Transfers ownership of the contract to a new account (`newOwner`). Can only be called by the current owner."
      }
    },
    "version": 1
  },
  "userdoc": {
    "kind": "user",
    "methods": {},
    "version": 1
  }
}