{
  "contractName": "AsamiCore",
  "abi": [
    {
      "inputs": [
        {
          "internalType": "address",
          "name": "_dollarOnChainAddress",
          "type": "address"
        },
        {
          "internalType": "address",
          "name": "_adminAddress",
          "type": "address"
        }
      ],
      "stateMutability": "nonpayable",
      "type": "constructor"
    },
    {
      "anonymous": false,
      "inputs": [
        {
          "indexed": false,
          "internalType": "uint256",
          "name": "accountId",
          "type": "uint256"
        }
      ],
      "name": "AccountUpdated",
      "type": "event"
    },
    {
      "anonymous": false,
      "inputs": [
        {
          "components": [
            {
              "internalType": "uint256",
              "name": "votes",
              "type": "uint256"
            },
            {
              "internalType": "address",
              "name": "candidate",
              "type": "address"
            },
            {
              "internalType": "uint256",
              "name": "cycle",
              "type": "uint256"
            },
            {
              "internalType": "bool",
              "name": "vested",
              "type": "bool"
            }
          ],
          "indexed": false,
          "internalType": "struct AsamiCore.AdminVote",
          "name": "vote",
          "type": "tuple"
        }
      ],
      "name": "AdminVoteSaved",
      "type": "event"
    },
    {
      "anonymous": false,
      "inputs": [
        {
          "indexed": true,
          "internalType": "address",
          "name": "owner",
          "type": "address"
        },
        {
          "indexed": true,
          "internalType": "address",
          "name": "spender",
          "type": "address"
        },
        {
          "indexed": false,
          "internalType": "uint256",
          "name": "value",
          "type": "uint256"
        }
      ],
      "name": "Approval",
      "type": "event"
    },
    {
      "anonymous": false,
      "inputs": [
        {
          "indexed": false,
          "internalType": "uint256",
          "name": "accountId",
          "type": "uint256"
        },
        {
          "indexed": false,
          "internalType": "uint256",
          "name": "briefing",
          "type": "uint256"
        }
      ],
      "name": "CampaignCreated",
      "type": "event"
    },
    {
      "anonymous": false,
      "inputs": [
        {
          "indexed": false,
          "internalType": "uint256",
          "name": "campaignId",
          "type": "uint256"
        }
      ],
      "name": "CampaignReimbursed",
      "type": "event"
    },
    {
      "anonymous": false,
      "inputs": [
        {
          "indexed": false,
          "internalType": "uint256",
          "name": "campaignId",
          "type": "uint256"
        }
      ],
      "name": "CampaignSaved",
      "type": "event"
    },
    {
      "anonymous": false,
      "inputs": [
        {
          "indexed": false,
          "internalType": "uint256",
          "name": "advertiserId",
          "type": "uint256"
        },
        {
          "indexed": false,
          "internalType": "uint256",
          "name": "briefing",
          "type": "uint256"
        },
        {
          "indexed": false,
          "internalType": "uint256",
          "name": "accountId",
          "type": "uint256"
        },
        {
          "indexed": false,
          "internalType": "uint256",
          "name": "gross",
          "type": "uint256"
        },
        {
          "indexed": false,
          "internalType": "uint256",
          "name": "fee",
          "type": "uint256"
        }
      ],
      "name": "CollabSaved",
      "type": "event"
    },
    {
      "anonymous": false,
      "inputs": [
        {
          "indexed": true,
          "internalType": "address",
          "name": "from",
          "type": "address"
        },
        {
          "indexed": true,
          "internalType": "address",
          "name": "to",
          "type": "address"
        },
        {
          "indexed": false,
          "internalType": "uint256",
          "name": "value",
          "type": "uint256"
        }
      ],
      "name": "Transfer",
      "type": "event"
    },
    {
      "inputs": [
        {
          "internalType": "address",
          "name": "",
          "type": "address"
        }
      ],
      "name": "accountIdByAddress",
      "outputs": [
        {
          "internalType": "uint256",
          "name": "",
          "type": "uint256"
        }
      ],
      "stateMutability": "view",
      "type": "function",
      "constant": true
    },
    {
      "inputs": [
        {
          "internalType": "uint256",
          "name": "",
          "type": "uint256"
        }
      ],
      "name": "accounts",
      "outputs": [
        {
          "internalType": "address",
          "name": "addr",
          "type": "address"
        },
        {
          "internalType": "uint256",
          "name": "approvedGaslessAmount",
          "type": "uint256"
        },
        {
          "internalType": "uint256",
          "name": "unclaimedAsamiBalance",
          "type": "uint256"
        },
        {
          "internalType": "uint256",
          "name": "unclaimedDocBalance",
          "type": "uint256"
        }
      ],
      "stateMutability": "view",
      "type": "function",
      "constant": true
    },
    {
      "inputs": [],
      "name": "admin",
      "outputs": [
        {
          "internalType": "address",
          "name": "",
          "type": "address"
        }
      ],
      "stateMutability": "view",
      "type": "function",
      "constant": true
    },
    {
      "inputs": [],
      "name": "adminGaslessClaimAccountPrice",
      "outputs": [
        {
          "internalType": "uint256",
          "name": "",
          "type": "uint256"
        }
      ],
      "stateMutability": "view",
      "type": "function",
      "constant": true
    },
    {
      "inputs": [],
      "name": "adminGaslessClaimRewardPrice",
      "outputs": [
        {
          "internalType": "uint256",
          "name": "",
          "type": "uint256"
        }
      ],
      "stateMutability": "view",
      "type": "function",
      "constant": true
    },
    {
      "inputs": [],
      "name": "adminTreasury",
      "outputs": [
        {
          "internalType": "address",
          "name": "",
          "type": "address"
        }
      ],
      "stateMutability": "view",
      "type": "function",
      "constant": true
    },
    {
      "inputs": [],
      "name": "adminUnclaimedAsamiBalance",
      "outputs": [
        {
          "internalType": "uint256",
          "name": "",
          "type": "uint256"
        }
      ],
      "stateMutability": "view",
      "type": "function",
      "constant": true
    },
    {
      "inputs": [],
      "name": "adminUnclaimedDoc",
      "outputs": [
        {
          "internalType": "uint256",
          "name": "",
          "type": "uint256"
        }
      ],
      "stateMutability": "view",
      "type": "function",
      "constant": true
    },
    {
      "inputs": [],
      "name": "adminUnclaimedDocBalance",
      "outputs": [
        {
          "internalType": "uint256",
          "name": "",
          "type": "uint256"
        }
      ],
      "stateMutability": "view",
      "type": "function",
      "constant": true
    },
    {
      "inputs": [],
      "name": "adminUnclaimedTokens",
      "outputs": [
        {
          "internalType": "uint256",
          "name": "",
          "type": "uint256"
        }
      ],
      "stateMutability": "view",
      "type": "function",
      "constant": true
    },
    {
      "inputs": [
        {
          "internalType": "address",
          "name": "",
          "type": "address"
        }
      ],
      "name": "adminVoteCountIdByCandidate",
      "outputs": [
        {
          "internalType": "uint256",
          "name": "",
          "type": "uint256"
        }
      ],
      "stateMutability": "view",
      "type": "function",
      "constant": true
    },
    {
      "inputs": [
        {
          "internalType": "uint256",
          "name": "",
          "type": "uint256"
        }
      ],
      "name": "adminVoteCounts",
      "outputs": [
        {
          "internalType": "uint256",
          "name": "votes",
          "type": "uint256"
        },
        {
          "internalType": "address",
          "name": "candidate",
          "type": "address"
        }
      ],
      "stateMutability": "view",
      "type": "function",
      "constant": true
    },
    {
      "inputs": [
        {
          "internalType": "address",
          "name": "owner",
          "type": "address"
        },
        {
          "internalType": "address",
          "name": "spender",
          "type": "address"
        }
      ],
      "name": "allowance",
      "outputs": [
        {
          "internalType": "uint256",
          "name": "",
          "type": "uint256"
        }
      ],
      "stateMutability": "view",
      "type": "function",
      "constant": true
    },
    {
      "inputs": [
        {
          "internalType": "address",
          "name": "spender",
          "type": "address"
        },
        {
          "internalType": "uint256",
          "name": "amount",
          "type": "uint256"
        }
      ],
      "name": "approve",
      "outputs": [
        {
          "internalType": "bool",
          "name": "",
          "type": "bool"
        }
      ],
      "stateMutability": "nonpayable",
      "type": "function"
    },
    {
      "inputs": [],
      "name": "assignedAsamiTokens",
      "outputs": [
        {
          "internalType": "uint256",
          "name": "",
          "type": "uint256"
        }
      ],
      "stateMutability": "view",
      "type": "function",
      "constant": true
    },
    {
      "inputs": [
        {
          "internalType": "address",
          "name": "account",
          "type": "address"
        }
      ],
      "name": "balanceOf",
      "outputs": [
        {
          "internalType": "uint256",
          "name": "",
          "type": "uint256"
        }
      ],
      "stateMutability": "view",
      "type": "function",
      "constant": true
    },
    {
      "inputs": [],
      "name": "cap",
      "outputs": [
        {
          "internalType": "uint256",
          "name": "",
          "type": "uint256"
        }
      ],
      "stateMutability": "view",
      "type": "function",
      "constant": true
    },
    {
      "inputs": [],
      "name": "decimals",
      "outputs": [
        {
          "internalType": "uint8",
          "name": "",
          "type": "uint8"
        }
      ],
      "stateMutability": "view",
      "type": "function",
      "constant": true
    },
    {
      "inputs": [
        {
          "internalType": "address",
          "name": "spender",
          "type": "address"
        },
        {
          "internalType": "uint256",
          "name": "subtractedValue",
          "type": "uint256"
        }
      ],
      "name": "decreaseAllowance",
      "outputs": [
        {
          "internalType": "bool",
          "name": "",
          "type": "bool"
        }
      ],
      "stateMutability": "nonpayable",
      "type": "function"
    },
    {
      "inputs": [],
      "name": "defaultFeeRate",
      "outputs": [
        {
          "internalType": "uint256",
          "name": "",
          "type": "uint256"
        }
      ],
      "stateMutability": "view",
      "type": "function",
      "constant": true
    },
    {
      "inputs": [],
      "name": "feePool",
      "outputs": [
        {
          "internalType": "uint256",
          "name": "",
          "type": "uint256"
        }
      ],
      "stateMutability": "view",
      "type": "function",
      "constant": true
    },
    {
      "inputs": [],
      "name": "feeRate",
      "outputs": [
        {
          "internalType": "uint256",
          "name": "",
          "type": "uint256"
        }
      ],
      "stateMutability": "view",
      "type": "function",
      "constant": true
    },
    {
      "inputs": [
        {
          "internalType": "address",
          "name": "",
          "type": "address"
        }
      ],
      "name": "feeRateVotes",
      "outputs": [
        {
          "internalType": "uint256",
          "name": "votes",
          "type": "uint256"
        },
        {
          "internalType": "uint256",
          "name": "rate",
          "type": "uint256"
        }
      ],
      "stateMutability": "view",
      "type": "function",
      "constant": true
    },
    {
      "inputs": [
        {
          "internalType": "address",
          "name": "spender",
          "type": "address"
        },
        {
          "internalType": "uint256",
          "name": "addedValue",
          "type": "uint256"
        }
      ],
      "name": "increaseAllowance",
      "outputs": [
        {
          "internalType": "bool",
          "name": "",
          "type": "bool"
        }
      ],
      "stateMutability": "nonpayable",
      "type": "function"
    },
    {
      "inputs": [],
      "name": "lastAdminElection",
      "outputs": [
        {
          "internalType": "uint256",
          "name": "",
          "type": "uint256"
        }
      ],
      "stateMutability": "view",
      "type": "function",
      "constant": true
    },
    {
      "inputs": [
        {
          "internalType": "address",
          "name": "",
          "type": "address"
        }
      ],
      "name": "lastFeePoolShareCycles",
      "outputs": [
        {
          "internalType": "uint256",
          "name": "",
          "type": "uint256"
        }
      ],
      "stateMutability": "view",
      "type": "function",
      "constant": true
    },
    {
      "inputs": [],
      "name": "lastVotedFeeRateAppliedOn",
      "outputs": [
        {
          "internalType": "uint256",
          "name": "",
          "type": "uint256"
        }
      ],
      "stateMutability": "view",
      "type": "function",
      "constant": true
    },
    {
      "inputs": [
        {
          "internalType": "uint256",
          "name": "",
          "type": "uint256"
        }
      ],
      "name": "latestAdminElections",
      "outputs": [
        {
          "internalType": "address",
          "name": "",
          "type": "address"
        }
      ],
      "stateMutability": "view",
      "type": "function",
      "constant": true
    },
    {
      "inputs": [],
      "name": "migrationAccountsDone",
      "outputs": [
        {
          "internalType": "bool",
          "name": "",
          "type": "bool"
        }
      ],
      "stateMutability": "view",
      "type": "function",
      "constant": true
    },
    {
      "inputs": [],
      "name": "migrationCursor",
      "outputs": [
        {
          "internalType": "uint256",
          "name": "",
          "type": "uint256"
        }
      ],
      "stateMutability": "view",
      "type": "function",
      "constant": true
    },
    {
      "inputs": [],
      "name": "migrationHoldersDone",
      "outputs": [
        {
          "internalType": "bool",
          "name": "",
          "type": "bool"
        }
      ],
      "stateMutability": "view",
      "type": "function",
      "constant": true
    },
    {
      "inputs": [],
      "name": "name",
      "outputs": [
        {
          "internalType": "string",
          "name": "",
          "type": "string"
        }
      ],
      "stateMutability": "view",
      "type": "function",
      "constant": true
    },
    {
      "inputs": [
        {
          "internalType": "uint256",
          "name": "",
          "type": "uint256"
        },
        {
          "internalType": "address",
          "name": "",
          "type": "address"
        }
      ],
      "name": "recentBalanceChanges",
      "outputs": [
        {
          "internalType": "uint256",
          "name": "added",
          "type": "uint256"
        },
        {
          "internalType": "uint256",
          "name": "substracted",
          "type": "uint256"
        }
      ],
      "stateMutability": "view",
      "type": "function",
      "constant": true
    },
    {
      "inputs": [
        {
          "internalType": "uint256",
          "name": "",
          "type": "uint256"
        }
      ],
      "name": "recentFeePoolChanges",
      "outputs": [
        {
          "internalType": "uint256",
          "name": "added",
          "type": "uint256"
        },
        {
          "internalType": "uint256",
          "name": "substracted",
          "type": "uint256"
        }
      ],
      "stateMutability": "view",
      "type": "function",
      "constant": true
    },
    {
      "inputs": [
        {
          "internalType": "uint256",
          "name": "",
          "type": "uint256"
        }
      ],
      "name": "recentTokens",
      "outputs": [
        {
          "internalType": "uint256",
          "name": "",
          "type": "uint256"
        }
      ],
      "stateMutability": "view",
      "type": "function",
      "constant": true
    },
    {
      "inputs": [
        {
          "internalType": "address",
          "name": "",
          "type": "address"
        }
      ],
      "name": "submittedAdminVotes",
      "outputs": [
        {
          "internalType": "uint256",
          "name": "votes",
          "type": "uint256"
        },
        {
          "internalType": "address",
          "name": "candidate",
          "type": "address"
        },
        {
          "internalType": "uint256",
          "name": "cycle",
          "type": "uint256"
        },
        {
          "internalType": "bool",
          "name": "vested",
          "type": "bool"
        }
      ],
      "stateMutability": "view",
      "type": "function",
      "constant": true
    },
    {
      "inputs": [],
      "name": "symbol",
      "outputs": [
        {
          "internalType": "string",
          "name": "",
          "type": "string"
        }
      ],
      "stateMutability": "view",
      "type": "function",
      "constant": true
    },
    {
      "inputs": [],
      "name": "totalSupply",
      "outputs": [
        {
          "internalType": "uint256",
          "name": "",
          "type": "uint256"
        }
      ],
      "stateMutability": "view",
      "type": "function",
      "constant": true
    },
    {
      "inputs": [
        {
          "internalType": "address",
          "name": "to",
          "type": "address"
        },
        {
          "internalType": "uint256",
          "name": "amount",
          "type": "uint256"
        }
      ],
      "name": "transfer",
      "outputs": [
        {
          "internalType": "bool",
          "name": "",
          "type": "bool"
        }
      ],
      "stateMutability": "nonpayable",
      "type": "function"
    },
    {
      "inputs": [
        {
          "internalType": "address",
          "name": "from",
          "type": "address"
        },
        {
          "internalType": "address",
          "name": "to",
          "type": "address"
        },
        {
          "internalType": "uint256",
          "name": "amount",
          "type": "uint256"
        }
      ],
      "name": "transferFrom",
      "outputs": [
        {
          "internalType": "bool",
          "name": "",
          "type": "bool"
        }
      ],
      "stateMutability": "nonpayable",
      "type": "function"
    },
    {
      "inputs": [],
      "name": "vestedAdminVotesTotal",
      "outputs": [
        {
          "internalType": "uint256",
          "name": "",
          "type": "uint256"
        }
      ],
      "stateMutability": "view",
      "type": "function",
      "constant": true
    },
    {
      "inputs": [],
      "name": "votedFeeRate",
      "outputs": [
        {
          "internalType": "uint256",
          "name": "",
          "type": "uint256"
        }
      ],
      "stateMutability": "view",
      "type": "function",
      "constant": true
    },
    {
      "inputs": [],
      "name": "votedFeeRateVoteCount",
      "outputs": [
        {
          "internalType": "uint256",
          "name": "",
          "type": "uint256"
        }
      ],
      "stateMutability": "view",
      "type": "function",
      "constant": true
    },
    {
      "inputs": [],
      "name": "allAdminVoteCounts",
      "outputs": [
        {
          "components": [
            {
              "internalType": "uint256",
              "name": "votes",
              "type": "uint256"
            },
            {
              "internalType": "address",
              "name": "candidate",
              "type": "address"
            }
          ],
          "internalType": "struct AsamiCore.AdminVoteCount[]",
          "name": "",
          "type": "tuple[]"
        }
      ],
      "stateMutability": "view",
      "type": "function",
      "constant": true
    },
    {
      "inputs": [],
      "name": "getLatestAdminElections",
      "outputs": [
        {
          "internalType": "address[3]",
          "name": "",
          "type": "address[3]"
        }
      ],
      "stateMutability": "view",
      "type": "function",
      "constant": true
    },
    {
      "inputs": [
        {
          "components": [
            {
              "internalType": "uint256",
              "name": "accountId",
              "type": "uint256"
            },
            {
              "internalType": "address",
              "name": "addr",
              "type": "address"
            }
          ],
          "internalType": "struct AsamiCore.ClaimAccountsParam[]",
          "name": "_input",
          "type": "tuple[]"
        }
      ],
      "name": "claimAccounts",
      "outputs": [],
      "stateMutability": "nonpayable",
      "type": "function"
    },
    {
      "inputs": [
        {
          "internalType": "uint256[]",
          "name": "_accountIds",
          "type": "uint256[]"
        }
      ],
      "name": "claimBalances",
      "outputs": [],
      "stateMutability": "nonpayable",
      "type": "function"
    },
    {
      "inputs": [
        {
          "internalType": "uint256",
          "name": "_fee",
          "type": "uint256"
        },
        {
          "internalType": "uint256",
          "name": "_rbtcAmount",
          "type": "uint256"
        },
        {
          "internalType": "uint256[]",
          "name": "_accountIds",
          "type": "uint256[]"
        }
      ],
      "name": "gaslessClaimBalances",
      "outputs": [],
      "stateMutability": "payable",
      "type": "function",
      "payable": true
    },
    {
      "inputs": [
        {
          "internalType": "uint256",
          "name": "newAmount",
          "type": "uint256"
        }
      ],
      "name": "changeGaslessApproval",
      "outputs": [],
      "stateMutability": "nonpayable",
      "type": "function"
    },
    {
      "inputs": [],
      "name": "claimAdminUnclaimedBalances",
      "outputs": [],
      "stateMutability": "nonpayable",
      "type": "function"
    },
    {
      "inputs": [],
      "name": "withdrawAccidentallySentRbtc",
      "outputs": [],
      "stateMutability": "nonpayable",
      "type": "function"
    },
    {
      "inputs": [
        {
          "components": [
            {
              "internalType": "uint256",
              "name": "budget",
              "type": "uint256"
            },
            {
              "internalType": "uint256",
              "name": "validUntil",
              "type": "uint256"
            },
            {
              "internalType": "uint256",
              "name": "briefing",
              "type": "uint256"
            }
          ],
          "internalType": "struct AsamiCore.MakeCampaignsParam[]",
          "name": "_inputs",
          "type": "tuple[]"
        }
      ],
      "name": "makeCampaigns",
      "outputs": [],
      "stateMutability": "nonpayable",
      "type": "function"
    },
    {
      "inputs": [
        {
          "components": [
            {
              "internalType": "uint256",
              "name": "advertiserId",
              "type": "uint256"
            },
            {
              "internalType": "uint256",
              "name": "briefing",
              "type": "uint256"
            },
            {
              "components": [
                {
                  "internalType": "uint256",
                  "name": "accountId",
                  "type": "uint256"
                },
                {
                  "internalType": "uint256",
                  "name": "docReward",
                  "type": "uint256"
                }
              ],
              "internalType": "struct AsamiCore.MakeCollabsParamItem[]",
              "name": "collabs",
              "type": "tuple[]"
            }
          ],
          "internalType": "struct AsamiCore.MakeCollabsParam[]",
          "name": "_input",
          "type": "tuple[]"
        }
      ],
      "name": "adminMakeCollabs",
      "outputs": [],
      "stateMutability": "nonpayable",
      "type": "function"
    },
    {
      "inputs": [],
      "name": "getCycleLength",
      "outputs": [
        {
          "internalType": "uint256",
          "name": "",
          "type": "uint256"
        }
      ],
      "stateMutability": "pure",
      "type": "function",
      "constant": true
    },
    {
      "inputs": [],
      "name": "getCurrentCycle",
      "outputs": [
        {
          "internalType": "uint256",
          "name": "",
          "type": "uint256"
        }
      ],
      "stateMutability": "view",
      "type": "function",
      "constant": true
    },
    {
      "inputs": [],
      "name": "getNextCycle",
      "outputs": [
        {
          "internalType": "uint256",
          "name": "",
          "type": "uint256"
        }
      ],
      "stateMutability": "view",
      "type": "function",
      "constant": true
    },
    {
      "inputs": [
        {
          "internalType": "address",
          "name": "_holder",
          "type": "address"
        }
      ],
      "name": "getRecentBalanceChange",
      "outputs": [
        {
          "components": [
            {
              "internalType": "uint256",
              "name": "added",
              "type": "uint256"
            },
            {
              "internalType": "uint256",
              "name": "substracted",
              "type": "uint256"
            }
          ],
          "internalType": "struct AsamiCore.BalanceChange",
          "name": "",
          "type": "tuple"
        }
      ],
      "stateMutability": "view",
      "type": "function",
      "constant": true
    },
    {
      "inputs": [
        {
          "internalType": "address",
          "name": "_holder",
          "type": "address"
        }
      ],
      "name": "getBalanceBeforeRecentChanges",
      "outputs": [
        {
          "internalType": "uint256",
          "name": "",
          "type": "uint256"
        }
      ],
      "stateMutability": "view",
      "type": "function",
      "constant": true
    },
    {
      "inputs": [],
      "name": "getFeePoolBeforeRecentChanges",
      "outputs": [
        {
          "internalType": "uint256",
          "name": "",
          "type": "uint256"
        }
      ],
      "stateMutability": "view",
      "type": "function",
      "constant": true
    },
    {
      "inputs": [
        {
          "internalType": "address[]",
          "name": "_holders",
          "type": "address[]"
        }
      ],
      "name": "claimFeePoolShare",
      "outputs": [],
      "stateMutability": "nonpayable",
      "type": "function"
    },
    {
      "inputs": [],
      "name": "applyVotedFeeRate",
      "outputs": [],
      "stateMutability": "nonpayable",
      "type": "function"
    },
    {
      "inputs": [
        {
          "internalType": "uint256",
          "name": "_rate",
          "type": "uint256"
        }
      ],
      "name": "submitFeeRateVote",
      "outputs": [],
      "stateMutability": "nonpayable",
      "type": "function"
    },
    {
      "inputs": [],
      "name": "removeFeeRateVote",
      "outputs": [],
      "stateMutability": "nonpayable",
      "type": "function"
    },
    {
      "inputs": [
        {
          "internalType": "address",
          "name": "_candidate",
          "type": "address"
        }
      ],
      "name": "submitAdminVote",
      "outputs": [],
      "stateMutability": "nonpayable",
      "type": "function"
    },
    {
      "inputs": [
        {
          "internalType": "address[]",
          "name": "_holders",
          "type": "address[]"
        }
      ],
      "name": "vestAdminVotes",
      "outputs": [],
      "stateMutability": "nonpayable",
      "type": "function"
    },
    {
      "inputs": [
        {
          "internalType": "address",
          "name": "_candidate",
          "type": "address"
        }
      ],
      "name": "proclaimCycleAdminWinner",
      "outputs": [],
      "stateMutability": "nonpayable",
      "type": "function"
    },
    {
      "inputs": [],
      "name": "removeAdminVote",
      "outputs": [],
      "stateMutability": "nonpayable",
      "type": "function"
    },
    {
      "inputs": [
        {
          "internalType": "address",
          "name": "_admin",
          "type": "address"
        }
      ],
      "name": "setAdminAddress",
      "outputs": [],
      "stateMutability": "nonpayable",
      "type": "function"
    },
    {
      "inputs": [
        {
          "internalType": "address",
          "name": "_oldContract",
          "type": "address"
        },
        {
          "internalType": "uint256",
          "name": "_items",
          "type": "uint256"
        }
      ],
      "name": "migrateTokensFromOldContract",
      "outputs": [],
      "stateMutability": "nonpayable",
      "type": "function"
    }
  ],
  "bytecode": "0x60a060405260006008556000600955678ac7230489e80000600a55600a54600b55600a54600c556000600d556000600e553480156200003d57600080fd5b5060405162003f8d38038062003f8d833981016040819052620000609162000186565b6a115eec47f6cf7e350000006040518060400160405280600a8152602001694173616d6920436f726560b01b815250604051806040016040528060058152602001644153414d4960d81b8152508160039081620000be919062000263565b506004620000cd828262000263565b50505060008111620001255760405162461bcd60e51b815260206004820152601560248201527f45524332304361707065643a2063617020697320300000000000000000000000604482015260640160405180910390fd5b6080526001600555601880546001600160a01b039384166001600160a01b031991821617909155601a8054821633179055601980549290931691161790556200032f565b80516001600160a01b03811681146200018157600080fd5b919050565b600080604083850312156200019a57600080fd5b620001a58362000169565b9150620001b56020840162000169565b90509250929050565b634e487b7160e01b600052604160045260246000fd5b600181811c90821680620001e957607f821691505b6020821081036200020a57634e487b7160e01b600052602260045260246000fd5b50919050565b601f8211156200025e57600081815260208120601f850160051c81016020861015620002395750805b601f850160051c820191505b818110156200025a5782815560010162000245565b5050505b505050565b81516001600160401b038111156200027f576200027f620001be565b6200029781620002908454620001d4565b8462000210565b602080601f831160018114620002cf5760008415620002b65750858301515b600019600386901b1c1916600185901b1785556200025a565b600085815260208120601f198616915b828110156200030057888601518255948401946001909101908401620002df565b50858210156200031f5787850151600019600388901b60f8161c191681555b5050505050600190811b01905550565b608051613c346200035960003960008181610622015281816123d001526133510152613c346000f3fe6080604052600436106103fa5760003560e01c806374f1ea1611610213578063bd5ff42311610123578063e4c1be2e116100ab578063f2a40db81161007a578063f2a40db814610c4e578063f3401bc314610cc4578063f398c24114610ce4578063f851a44014610cf9578063fa7fb4d814610d1957600080fd5b8063e4c1be2e14610b94578063ec8b436c14610baa578063ecaed41f14610c23578063eea1bf8314610c3957600080fd5b8063c5187a91116100f2578063c5187a9114610b07578063c966948514610b27578063cdada3b614610b3d578063d8c44f5014610b5f578063dd62ed3e14610b7457600080fd5b8063bd5ff42314610a9c578063be26ed7f14610abc578063be81462514610ad1578063c31b3b5514610ae757600080fd5b806395d89b41116101a65780639dfceaaa116101755780639dfceaaa14610a10578063a45753ed14610a30578063a457c2d714610a46578063a9059cbb14610a66578063ae2e933b14610a8657600080fd5b806395d89b41146109a557806396cad0db146109ba578063978bbdb9146109da5780639bd40aee146109f057600080fd5b8063882d1b54116101e2578063882d1b54146109435780638a89a2d8146109635780638bec13cf146109795780639314b2141461098f57600080fd5b806374f1ea16146108ac57806379dec48b146108e75780637cf2fcdf146108fc57806381d036f51461090f57600080fd5b806340bbced01161030e5780635d03e487116102a15780636782eb0d116102705780636782eb0d146107fe57806368841a461461081e5780636bd1c230146108345780636f1c76171461086157806370a082311461087657600080fd5b80635d03e487146107865780635e613423146107a657806365e5d1bc146107bc5780636717d7a8146107d157600080fd5b80634a8bcf14116102dd5780634a8bcf14146107135780634bd38e261461072957806354e974961461075657806357b53ae51461077057600080fd5b806340bbced01461069c578063419a7c5d146106bc5780634259d8a2146106de57806348a23ba8146106f457600080fd5b80631b15212711610391578063313ce56711610360578063313ce567146105f7578063355274ea14610613578063368e600f14610646578063395093511461065c578063402c51331461067c57600080fd5b80631b1521271461058057806320841544146105a257806323b872dd146105b75780632c1e816d146105d757600080fd5b80630dff55ed116103cd5780630dff55ed146104d2578063139fd1c21461050657806318160ddd146105335780631b06cfbc1461054857600080fd5b806306fdde03146103ff57806307d334551461042a578063080b06481461044e578063095ea7b3146104a2575b600080fd5b34801561040b57600080fd5b50610414610d56565b60405161042191906135ce565b60405180910390f35b34801561043657600080fd5b50610440600a5481565b604051908152602001610421565b34801561045a57600080fd5b5061048d610469366004613631565b60216020908152600092835260408084209091529082529020805460019091015482565b60408051928352602083019190915201610421565b3480156104ae57600080fd5b506104c26104bd366004613661565b610de8565b6040519015158152602001610421565b3480156104de57600080fd5b5061048d6104ed36600461368d565b6022602052600090815260409020805460019091015482565b34801561051257600080fd5b5061044061052136600461368d565b60236020526000908152604090205481565b34801561053f57600080fd5b50600254610440565b34801561055457600080fd5b5061056861056336600461368d565b610e02565b6040516001600160a01b039091168152602001610421565b34801561058c57600080fd5b506105a061059b366004613661565b610e22565b005b3480156105ae57600080fd5b506104406111ce565b3480156105c357600080fd5b506104c26105d23660046136a6565b611214565b3480156105e357600080fd5b506105a06105f23660046136e7565b611238565b34801561060357600080fd5b5060405160128152602001610421565b34801561061f57600080fd5b507f0000000000000000000000000000000000000000000000000000000000000000610440565b34801561065257600080fd5b50610440601e5481565b34801561066857600080fd5b506104c2610677366004613661565b61129d565b34801561068857600080fd5b506105a0610697366004613704565b6112bf565b3480156106a857600080fd5b506105a06106b736600461368d565b611468565b3480156106c857600080fd5b506106d16114d0565b6040516104219190613779565b3480156106ea57600080fd5b506213c680610440565b34801561070057600080fd5b506026546104c290610100900460ff1681565b34801561071f57600080fd5b5061044060085481565b34801561073557600080fd5b506104406107443660046136e7565b60126020526000908152604090205481565b34801561076257600080fd5b506026546104c29060ff1681565b34801561077c57600080fd5b50610440601b5481565b34801561079257600080fd5b506105a06107a13660046136e7565b611515565b3480156107b257600080fd5b50610440600c5481565b3480156107c857600080fd5b506105a06116ee565b3480156107dd57600080fd5b506104406107ec3660046136e7565b60076020526000908152604090205481565b34801561080a57600080fd5b506104406108193660046136e7565b611756565b34801561082a57600080fd5b50610440600e5481565b34801561084057600080fd5b5061044061084f3660046136e7565b60246020526000908152604090205481565b34801561086d57600080fd5b506105a06117ba565b34801561088257600080fd5b506104406108913660046136e7565b6001600160a01b031660009081526020819052604090205490565b3480156108b857600080fd5b506108cc6108c73660046136e7565b61180b565b60408051825181526020928301519281019290925201610421565b3480156108f357600080fd5b5061044061186c565b6105a061090a3660046137ff565b611889565b34801561091b57600080fd5b5061048d61092a3660046136e7565b600f602052600090815260409020805460019091015482565b34801561094f57600080fd5b506105a061095e366004613852565b611b64565b34801561096f57600080fd5b5061044060255481565b34801561098557600080fd5b5061044060145481565b34801561099b57600080fd5b50610440600d5481565b3480156109b157600080fd5b50610414611cb7565b3480156109c657600080fd5b50601a54610568906001600160a01b031681565b3480156109e657600080fd5b50610440600b5481565b3480156109fc57600080fd5b506105a0610a0b366004613852565b611cc6565b348015610a1c57600080fd5b506105a0610a2b36600461368d565b611f5a565b348015610a3c57600080fd5b50610440601f5481565b348015610a5257600080fd5b506104c2610a61366004613661565b61206d565b348015610a7257600080fd5b506104c2610a81366004613661565b6120e8565b348015610a9257600080fd5b5061044060205481565b348015610aa857600080fd5b506105a0610ab7366004613852565b6120f6565b348015610ac857600080fd5b5061044061238b565b348015610add57600080fd5b50610440601d5481565b348015610af357600080fd5b506105a0610b02366004613852565b61239a565b348015610b1357600080fd5b506105a0610b22366004613894565b6127aa565b348015610b3357600080fd5b5061044060095481565b348015610b4957600080fd5b50610b526129b2565b60405161042191906138f7565b348015610b6b57600080fd5b506105a0612a27565b348015610b8057600080fd5b50610440610b8f36600461394f565b612a32565b348015610ba057600080fd5b5061044060135481565b348015610bb657600080fd5b50610bf9610bc53660046136e7565b601060205260009081526040902080546001820154600283015460039093015491926001600160a01b039091169160ff1684565b604080519485526001600160a01b0390931660208501529183015215156060820152608001610421565b348015610c2f57600080fd5b50610440601c5481565b348015610c4557600080fd5b506105a0612a5d565b348015610c5a57600080fd5b50610c9a610c6936600461368d565b60066020526000908152604090208054600182015460028301546003909301546001600160a01b0390921692909184565b604080516001600160a01b0390951685526020850193909352918301526060820152608001610421565b348015610cd057600080fd5b506105a0610cdf3660046136e7565b612b22565b348015610cf057600080fd5b506105a0612c8c565b348015610d0557600080fd5b50601954610568906001600160a01b031681565b348015610d2557600080fd5b50610d39610d3436600461368d565b612c95565b604080519283526001600160a01b03909116602083015201610421565b606060038054610d659061397d565b80601f0160208091040260200160405190810160405280929190818152602001828054610d919061397d565b8015610dde5780601f10610db357610100808354040283529160200191610dde565b820191906000526020600020905b815481529060010190602001808311610dc157829003601f168201915b5050505050905090565b600033610df6818585612ccc565b60019150505b92915050565b60158160038110610e1257600080fd5b01546001600160a01b0316905081565b60265460ff161580610e3c5750602654610100900460ff16155b610e7a5760405162461bcd60e51b8152600401610e719060208082526004908201526306d6967360e41b604082015260600190565b60405180910390fd5b602654829060ff1661101c5760005b8281101561101a57816001600160a01b0316632a11ced082602554610eae91906139cd565b6040518263ffffffff1660e01b8152600401610ecc91815260200190565b602060405180830381865afa925050508015610f05575060408051601f3d908101601f19168201909252610f02918101906139e0565b60015b610f1b576026805460ff1916600117905561101a565b6040516370a0823160e01b81526001600160a01b038281166004830152600091908516906370a0823190602401602060405180830381865afa158015610f65573d6000803e3d6000fd5b505050506040513d601f19601f82011682018060405250810190610f8991906139fd565b90508015611006576040516370a0823160e01b81526001600160a01b0380841660048301526110069184918716906370a0823190602401602060405180830381865afa158015610fdd573d6000803e3d6000fd5b505050506040513d601f19601f8201168201806040525081019061100191906139fd565b612df0565b50508061101281613a16565b915050610e89565b505b602654610100900460ff166111b25760005b828110156111b057816001600160a01b03166333c24bd38260255461105391906139cd565b6040518263ffffffff1660e01b815260040161107191815260200190565b602060405180830381865afa9250505080156110aa575060408051601f3d908101601f191682019092526110a7918101906139fd565b60015b6110c2576026805461ff0019166101001790556111b0565b604051631e5481b760e31b81526004810182905260009081906001600160a01b0386169063f2a40db890602401608060405180830381865afa15801561110c573d6000803e3d6000fd5b505050506040513d601f19601f820116820180604052508101906111309190613a2f565b506000868152600660205260409020919450925090506001600160a01b03831615611192576001600160a01b038316600081815260076020526040902085905581546001600160a01b031916178155674563918244f40000600182015561119a565b600281018290555b50505050806111a881613a16565b91505061102e565b505b81602560008282546111c491906139cd565b9091555050505050565b600080602260006111dd61238b565b815260200190815260200160002090508060000154816001015460205461120491906139cd565b61120e9190613a6d565b91505090565b600033611222858285612e2a565b61122d858585612e9e565b506001949350505050565b601a546001600160a01b0316331461127b5760405162461bcd60e51b8152600401610e71906020808252600490820152630736161360e41b604082015260600190565b601980546001600160a01b0319166001600160a01b0392909216919091179055565b600033610df68185856112b08383612a32565b6112ba91906139cd565b612ccc565b6019546001600160a01b03163314806112e25750601a546001600160a01b031633145b6112eb57600080fd5b6112f361304d565b60005b81811015611459573683838381811061131157611311613a80565b604090810292909201803560009081526006602052929092208054929350916001600160a01b031615905061136e5760405162461bcd60e51b815260206004820152600360248201526206361360ec1b6044820152606401610e71565b6007600061138260408501602086016136e7565b6001600160a01b03168152602081019190915260400160002054156113cf5760405162461bcd60e51b815260206004820152600360248201526263613160e81b6044820152606401610e71565b8135600760006113e560408601602087016136e7565b6001600160a01b03166001600160a01b031681526020019081526020016000208190555081602001602081019061141c91906136e7565b81546001600160a01b0319166001600160a01b0391909116178155674563918244f40000600190910155508061145181613a16565b9150506112f6565b506114646001600555565b5050565b33600090815260076020908152604080832054808452600690925290912080546001600160a01b03166114c65760405162461bcd60e51b8152600401610e71906020808252600490820152630636761360e41b604082015260600190565b6001019190915550565b6114d86135b0565b6040805160608101918290529060159060039082845b81546001600160a01b031681526001909101906020018083116114ee575050505050905090565b6001600160a01b038116600090815260126020526040902054806115645760405162461bcd60e51b8152600401610e71906020808252600490820152630706377360e41b604082015260600190565b60006011611573600184613a6d565b8154811061158357611583613a80565b906000526020600020906002020190506000601354116115ce5760405162461bcd60e51b8152600401610e71906020808252600490820152637063773160e01b604082015260600190565b60026013546115dd9190613a96565b8154116116155760405162461bcd60e51b8152600401610e71906020808252600490820152633831bb9960e11b604082015260600190565b600061161f61238b565b9050806014541061165b5760405162461bcd60e51b8152600401610e71906020808252600490820152637063773360e01b604082015260600190565b601481905560168054601780546001600160a01b038084166001600160a01b03199283161790925560158054808416948316851790955593169087169081179092551480156116b757506017546001600160a01b038581169116145b156116e857601980546001600160a01b0386166001600160a01b03199182168117909255601a805490911690911790555b50505050565b6019546001600160a01b03163314806117115750601a546001600160a01b031633145b61171a57600080fd5b601a546040516001600160a01b03909116904780156108fc02916000818181858888f19350505050158015611753573d6000803e3d6000fd5b50565b6000806021600061176561238b565b8152602080820192909252604090810160009081206001600160a01b038716825283528181208054600182015494839052929091205490935090916117a9916139cd565b6117b39190613a6d565b9392505050565b60006117c461238b565b9050600e5481036118005760405162461bcd60e51b8152600401610e71906020808252600490820152630616672360e41b604082015260600190565b600c54600b55600e55565b60408051808201909152600080825260208201526021600061182b61238b565b8152602080820192909252604090810160009081206001600160a01b0390951681529382529283902083518085019094528054845260010154908301525090565b60006213c68061187a61238b565b61188491906139cd565b905090565b61189161304d565b6019546001600160a01b03163314806118b45750601a546001600160a01b031633145b6118bd57600080fd5b64174876e80083116118fa5760405162461bcd60e51b8152600401610e71906020808252600490820152630676362360e41b604082015260600190565b6119048184613ab8565b341461193b5760405162461bcd60e51b8152600401610e71906020808252600490820152636763623160e01b604082015260600190565b60005b81811015611b595760006006600085858581811061195e5761195e613a80565b6020908102929092013583525081019190915260400160002080549091506001600160a01b03166119ba5760405162461bcd60e51b8152600401610e719060208082526004908201526333b1b11960e11b604082015260600190565b858160030154116119f65760405162461bcd60e51b8152600401610e71906020808252600490820152636763623360e01b604082015260600190565b8581600101541015611a335760405162461bcd60e51b8152600401610e719060208082526004908201526319d8d88d60e21b604082015260600190565b6000868260030154611a459190613a6d565b60006003840155601854835460405163a9059cbb60e01b81526001600160a01b03918216600482015260248101849052929350169063a9059cbb906044016020604051808303816000875af1158015611aa2573d6000803e3d6000fd5b505050506040513d601f19601f82011682018060405250810190611ac69190613acf565b508660096000828254611ad991906139cd565b909155505081546040516001600160a01b039091169087156108fc029088906000818181858888f19350505050158015611b17573d6000803e3d6000fd5b50600282015415611b445760028201805460009091558254611b42906001600160a01b031682612df0565b505b50508080611b5190613a16565b91505061193e565b506116e86001600555565b611b6c61304d565b60005b8181101561145957600060066000858585818110611b8f57611b8f613a80565b6020908102929092013583525081019190915260400160002080549091506001600160a01b0316611be85760405162461bcd60e51b815260206004820152600360248201526206362360ec1b6044820152606401610e71565b600281015415611c145760028101805460009091558154611c12906001600160a01b031682612df0565b505b600381015415611ca4576003810180546000909155601854825460405163a9059cbb60e01b81526001600160a01b0391821660048201526024810184905291169063a9059cbb906044016020604051808303816000875af1158015611c7d573d6000803e3d6000fd5b505050506040513d601f19601f82011682018060405250810190611ca19190613acf565b50505b5080611caf81613a16565b915050611b6f565b606060048054610d659061397d565b6000611cd061238b565b905060005b828110156116e857600060106000868685818110611cf557611cf5613a80565b9050602002016020810190611d0a91906136e7565b6001600160a01b03166001600160a01b0316815260200190815260200160002090506000816002015411611d685760405162461bcd60e51b8152602060048201526005602482015264076617620360dc1b6044820152606401610e71565b82816002015410611da35760405162461bcd60e51b8152602060048201526005602482015264766176203160d81b6044820152606401610e71565b600381015460ff1615611de05760405162461bcd60e51b81526020600482015260056024820152643b30bb101960d91b6044820152606401610e71565b60038101805460ff19166001179055805460138054600090611e039084906139cd565b909155505060018101546001600160a01b03166000908152601260205260409020548015611e7e5760006011611e3a600184613a6d565b81548110611e4a57611e4a613a80565b906000526020600020906002020190508260000154816000016000828254611e7291906139cd565b90915550611f0e915050565b6011805460018181018355845460029092027f31ecc21a745e3968a04e9570e4425bc18fa8019c68028196b546d1669c200c68810192909255840180547f31ecc21a745e3968a04e9570e4425bc18fa8019c68028196b546d1669c200c6990920180546001600160a01b0319166001600160a01b0393841617905591549154166000908152601260205260409020555b7fe08472d1275fefbb15ff0aea278bb1f42c491be3fa4358160826ba7e420ae61382604051611f3d9190613af1565b60405180910390a150508080611f5290613a16565b915050611cd5565b600081118015611f72575068056bc75e2d6310000081105b611fa75760405162461bcd60e51b8152600401610e71906020808252600490820152630737276360e41b604082015260600190565b336000908152600f60205260409020805415611fc657611fc6336130a6565b336000908152602081905260409020548061200c5760405162461bcd60e51b8152600401610e71906020808252600490820152637372763160e01b604082015260600190565b80600d5461201a91906139cd565b6120248483613ab8565b600d54600c546120349190613ab8565b61203e91906139cd565b6120489190613a96565b600c8190555080600d600082825461206091906139cd565b9091555050815560010155565b6000338161207b8286612a32565b9050838110156120db5760405162461bcd60e51b815260206004820152602560248201527f45524332303a2064656372656173656420616c6c6f77616e63652062656c6f77604482015264207a65726f60d81b6064820152608401610e71565b61122d8286868403612ccc565b600033610df6818585612e9e565b6120fe61304d565b600061210861238b565b6000818152602360205260408120549192509061212460025490565b61212e9190613a6d565b9050600061213a6111ce565b9050600082116121755760405162461bcd60e51b8152600401610e71906020808252600490820152630636670360e41b604082015260600190565b600081116121ae5760405162461bcd60e51b8152600401610e71906020808252600490820152636366703160e01b604082015260600190565b60005b8481101561237d5760008686838181106121cd576121cd613a80565b90506020020160208101906121e291906136e7565b6001600160a01b03811660009081526024602052604090205490915085116122355760405162461bcd60e51b8152600401610e719060208082526004908201526331b3381960e11b604082015260600190565b600061224082611756565b90506000811161227b5760405162461bcd60e51b8152600401610e71906020808252600490820152636366703360e01b604082015260600190565b6000856122888684613ab8565b6122929190613a96565b6001600160a01b03841660009081526024602052604081208990559091506122bb9082906131a0565b60185460405163a9059cbb60e01b81526001600160a01b038581166004830152602482018490529091169063a9059cbb906044016020604051808303816000875af115801561230e573d6000803e3d6000fd5b505050506040513d601f19601f820116820180604052508101906123329190613acf565b6123675760405162461bcd60e51b8152600401610e719060208082526004908201526318d99c0d60e21b604082015260600190565b505050808061237590613a16565b9150506121b1565b505050506114646001600555565b60006118846213c68042613a96565b6019546001600160a01b03163314806123bd5750601a546001600160a01b031633145b6123c657600080fd5b6123ce61304d565b7f000000000000000000000000000000000000000000000000000000000000000060005b8281101561279e5760006006600086868581811061241257612412613a80565b90506020028101906124249190613b2a565b6000013581526020019081526020016000209050600081600401600087878681811061245257612452613a80565b90506020028101906124649190613b2a565b6020013581526020019081526020016000209050600080600083600001549050428460010154116124c05760405162461bcd60e51b8152600401610e7190602080825260049082015263616d633160e01b604082015260600190565b60005b8989888181106124d5576124d5613a80565b90506020028101906124e79190613b2a565b6124f5906040810190613b4a565b905081101561275957368a8a8981811061251157612511613a80565b90506020028101906125239190613b2a565b612531906040810190613b4a565b8381811061254157612541613a80565b905060400201905060008160000135116125865760405162461bcd60e51b8152600401610e719060208082526004908201526330b6b19960e11b604082015260600190565b8035600090815260066020908152604090912090820135808510156125d65760405162461bcd60e51b8152600401610e7190602080825260049082015263185b58cd60e21b604082015260600190565b6125e08186613a6d565b9450600068056bc75e2d63100000600b54836125fc9190613ab8565b6126069190613a96565b905060006126148284613a6d565b90506000601b548e6126269190613a6d565b905060008184116126375783612639565b815b9050600068056bc75e2d6310000061265283600a613ab8565b61266490670de0b6b3a7640000613ab8565b61266e9190613a96565b9050600068056bc75e2d6310000061268784600f613ab8565b61269990670de0b6b3a7640000613ab8565b6126a39190613a96565b90506000816126b28486613a6d565b6126bc9190613a6d565b905080600860008282546126d091906139cd565b909155506126e09050838f6139cd565b9d50818960020160008282546126f691906139cd565b925050819055508589600301600082825461271191906139cd565b9250508190555083601b600082825461272a91906139cd565b9091555061273a9050878e6139cd565b9c5050505050505050505050808061275190613a16565b9150506124c3565b506127658260016131a0565b80845560028501805484919060009061277f9084906139cd565b925050819055505050505050808061279690613a16565b9150506123f2565b50506114646001600555565b6127b261304d565b33600090815260076020908152604080832054808452600690925290912080546001600160a01b03166128105760405162461bcd60e51b8152600401610e719060208082526004908201526306d6320360e41b604082015260600190565b60005b838110156129a557600085858381811061282f5761282f613a80565b9050606002018036038101906128459190613b94565b805190915061287f5760405162461bcd60e51b8152600401610e71906020808252600490820152636d63203160e01b604082015260600190565b60185481516040516323b872dd60e01b815233600482015230602482015260448101919091526001600160a01b03909116906323b872dd906064016020604051808303816000875af11580156128d9573d6000803e3d6000fd5b505050506040513d601f19601f820116820180604052508101906128fd9190613acf565b6129325760405162461bcd60e51b8152600401610e719060208082526004908201526336b1901960e11b604082015260600190565b6040818101805160009081526004860160209081529083902084518155818501516001820155915183518881529182015290917fdf1ccadd90c8987aa73568b11e0c57744db13dccf98de0a82f2b9bc6edb3d104910160405180910390a15050808061299d90613a16565b915050612813565b5050506114646001600555565b60606011805480602002602001604051908101604052809291908181526020016000905b82821015612a1e5760008481526020908190206040805180820190915260028502909101805482526001908101546001600160a01b03168284015290835290920191016129d6565b50505050905090565b612a30336130a6565b565b6001600160a01b03918216600090815260016020908152604080832093909416825291909152205490565b612a6561304d565b60085415612a8c57601954600854612a86916001600160a01b031690612df0565b60006008555b60095415612b1857601854601a5460095460405163a9059cbb60e01b81526001600160a01b039283166004820152602481019190915291169063a9059cbb906044016020604051808303816000875af1158015612aed573d6000803e3d6000fd5b505050506040513d601f19601f82011682018060405250810190612b119190613acf565b5060006009555b612a306001600555565b6001600160a01b038116612b615760405162461bcd60e51b8152600401610e71906020808252600490820152630736176360e41b604082015260600190565b3360009081526020819052604090205480612ba75760405162461bcd60e51b8152600401610e71906020808252600490820152637361763160e01b604082015260600190565b336000908152601060205260409020805415612bc657612bc63361322c565b6040518060800160405280838152602001846001600160a01b03168152602001612bee61238b565b8152600060209182018190523381526010825260409081902083518155918301516001830180546001600160a01b0319166001600160a01b0390921691909117905582810151600283015560609092015160038201805460ff191691151591909117905590517fe08472d1275fefbb15ff0aea278bb1f42c491be3fa4358160826ba7e420ae61391612c7f91613af1565b60405180910390a1505050565b612a303361322c565b60118181548110612ca557600080fd5b6000918252602090912060029091020180546001909101549091506001600160a01b031682565b6001600160a01b038316612d2e5760405162461bcd60e51b8152602060048201526024808201527f45524332303a20617070726f76652066726f6d20746865207a65726f206164646044820152637265737360e01b6064820152608401610e71565b6001600160a01b038216612d8f5760405162461bcd60e51b815260206004820152602260248201527f45524332303a20617070726f766520746f20746865207a65726f206164647265604482015261737360f01b6064820152608401610e71565b6001600160a01b0383811660008181526001602090815260408083209487168084529482529182902085905590518481527f8c5be1e5ebec7d5bd14f71427d1e84f3dd0314c0f7b2291e5b200ac8c7c3b925910160405180910390a3505050565b8060236000612dfd61238b565b81526020019081526020016000206000828254612e1a91906139cd565b909155506114649050828261334f565b6000612e368484612a32565b905060001981146116e85781811015612e915760405162461bcd60e51b815260206004820152601d60248201527f45524332303a20696e73756666696369656e7420616c6c6f77616e63650000006044820152606401610e71565b6116e88484848403612ccc565b6001600160a01b038316612f025760405162461bcd60e51b815260206004820152602560248201527f45524332303a207472616e736665722066726f6d20746865207a65726f206164604482015264647265737360d81b6064820152608401610e71565b6001600160a01b038216612f645760405162461bcd60e51b815260206004820152602360248201527f45524332303a207472616e7366657220746f20746865207a65726f206164647260448201526265737360e81b6064820152608401610e71565b612f6f8383836133dc565b6001600160a01b03831660009081526020819052604090205481811015612fe75760405162461bcd60e51b815260206004820152602660248201527f45524332303a207472616e7366657220616d6f756e7420657863656564732062604482015265616c616e636560d01b6064820152608401610e71565b6001600160a01b03848116600081815260208181526040808320878703905593871680835291849020805487019055925185815290927fddf252ad1be2c89b69c2b068fc378daa952ba7f163c4a11628f55a4df523b3ef910160405180910390a36116e8565b60026005540361309f5760405162461bcd60e51b815260206004820152601f60248201527f5265656e7472616e637947756172643a207265656e7472616e742063616c6c006044820152606401610e71565b6002600555565b6001600160a01b0381166000908152600f6020526040902080546130f55760405162461bcd60e51b815260206004820152600660248201526507266727620360d41b6044820152606401610e71565b8054600d5460009161310691613a6d565b90506000600d54600c5461311a9190613ab8565b90506000836001015484600001546131329190613ab8565b9050600081831161314457600061314e565b61314e8284613a6d565b9050831561316d576131608482613a96565b600c55600d849055613179565b600a54600c556000600d555b5050506001600160a01b039092166000908152600f60205260408120818155600101555050565b6000602260006131ae61238b565b8152602001908152602001600020905081156131fa5782602060008282546131d691906139cd565b90915550508054839082906000906131ef9084906139cd565b909155506132279050565b826020600082825461320c9190613a6d565b92505081905550828160010160008282546111c491906139cd565b505050565b6001600160a01b0381166000908152601060205260409020805461327a5760405162461bcd60e51b8152602060048201526005602482015264072617668360dc1b6044820152606401610e71565b600381015460ff161561330d5780546013805460009061329b908490613a6d565b909155505060018101546001600160a01b0316600090815260126020526040902054806132c757600080fd5b815460116132d6600184613a6d565b815481106132e6576132e6613a80565b906000526020600020906002020160000160008282546133069190613a6d565b9091555050505b506001600160a01b031660009081526010602052604081208181556001810180546001600160a01b03191690556002810191909155600301805460ff19169055565b7f00000000000000000000000000000000000000000000000000000000000000008161337a60025490565b61338491906139cd565b11156133d25760405162461bcd60e51b815260206004820152601960248201527f45524332304361707065643a20636170206578636565646564000000000000006044820152606401610e71565b6114648282613460565b6001600160a01b03831615613445576133f78382600061352b565b6001600160a01b0383166000908152600f60205260409020541561341e5761341e836130a6565b6001600160a01b03831660009081526010602052604090205415613445576134458361322c565b6001600160a01b03821615613227576132278282600161352b565b6001600160a01b0382166134b65760405162461bcd60e51b815260206004820152601f60248201527f45524332303a206d696e7420746f20746865207a65726f2061646472657373006044820152606401610e71565b6134c2600083836133dc565b80600260008282546134d491906139cd565b90915550506001600160a01b038216600081815260208181526040808320805486019055518481527fddf252ad1be2c89b69c2b068fc378daa952ba7f163c4a11628f55a4df523b3ef910160405180910390a35050565b60006021600061353961238b565b81526020019081526020016000206000856001600160a01b03166001600160a01b0316815260200190815260200160002090508115613591578281600001600082825461358691906139cd565b909155506116e89050565b828160010160008282546135a591906139cd565b909155505050505050565b60405180606001604052806003906020820280368337509192915050565b600060208083528351808285015260005b818110156135fb578581018301518582016040015282016135df565b506000604082860101526040601f19601f8301168501019250505092915050565b6001600160a01b038116811461175357600080fd5b6000806040838503121561364457600080fd5b8235915060208301356136568161361c565b809150509250929050565b6000806040838503121561367457600080fd5b823561367f8161361c565b946020939093013593505050565b60006020828403121561369f57600080fd5b5035919050565b6000806000606084860312156136bb57600080fd5b83356136c68161361c565b925060208401356136d68161361c565b929592945050506040919091013590565b6000602082840312156136f957600080fd5b81356117b38161361c565b6000806020838503121561371757600080fd5b823567ffffffffffffffff8082111561372f57600080fd5b818501915085601f83011261374357600080fd5b81358181111561375257600080fd5b8660208260061b850101111561376757600080fd5b60209290920196919550909350505050565b60608101818360005b60038110156137aa5781516001600160a01b0316835260209283019290910190600101613782565b50505092915050565b60008083601f8401126137c557600080fd5b50813567ffffffffffffffff8111156137dd57600080fd5b6020830191508360208260051b85010111156137f857600080fd5b9250929050565b6000806000806060858703121561381557600080fd5b8435935060208501359250604085013567ffffffffffffffff81111561383a57600080fd5b613846878288016137b3565b95989497509550505050565b6000806020838503121561386557600080fd5b823567ffffffffffffffff81111561387c57600080fd5b613888858286016137b3565b90969095509350505050565b600080602083850312156138a757600080fd5b823567ffffffffffffffff808211156138bf57600080fd5b818501915085601f8301126138d357600080fd5b8135818111156138e257600080fd5b86602060608302850101111561376757600080fd5b602080825282518282018190526000919060409081850190868401855b82811015613942578151805185528601516001600160a01b0316868501529284019290850190600101613914565b5091979650505050505050565b6000806040838503121561396257600080fd5b823561396d8161361c565b915060208301356136568161361c565b600181811c9082168061399157607f821691505b6020821081036139b157634e487b7160e01b600052602260045260246000fd5b50919050565b634e487b7160e01b600052601160045260246000fd5b80820180821115610dfc57610dfc6139b7565b6000602082840312156139f257600080fd5b81516117b38161361c565b600060208284031215613a0f57600080fd5b5051919050565b600060018201613a2857613a286139b7565b5060010190565b60008060008060808587031215613a4557600080fd5b845193506020850151613a578161361c565b6040860151606090960151949790965092505050565b81810381811115610dfc57610dfc6139b7565b634e487b7160e01b600052603260045260246000fd5b600082613ab357634e487b7160e01b600052601260045260246000fd5b500490565b8082028115828204841417610dfc57610dfc6139b7565b600060208284031215613ae157600080fd5b815180151581146117b357600080fd5b8154815260018201546001600160a01b0316602082015260028201546040820152600382015460ff161515606082015260808101610dfc565b60008235605e19833603018112613b4057600080fd5b9190910192915050565b6000808335601e19843603018112613b6157600080fd5b83018035915067ffffffffffffffff821115613b7c57600080fd5b6020019150600681901b36038213156137f857600080fd5b600060608284031215613ba657600080fd5b6040516060810181811067ffffffffffffffff82111715613bd757634e487b7160e01b600052604160045260246000fd5b8060405250823581526020830135602082015260408301356040820152809150509291505056fea2646970667358221220e8003c9e70f1e45a6d7cd512aa5a9380fbf934506167512c2e94e7caeac9d03564736f6c63430008130033",
  "immutableReferences": {
    "737": [
      {
        "length": 32,
        "start": 1570
      },
      {
        "length": 32,
        "start": 9168
      },
      {
        "length": 32,
        "start": 13137
      }
    ]
  },
  "source": "// SPDX-License-Identifier: MIT\npragma solidity 0.8.19;\nimport \"@openzeppelin/contracts/token/ERC20/extensions/ERC20Capped.sol\";\nimport \"@openzeppelin/contracts/security/ReentrancyGuard.sol\";\nimport \"./Asami.sol\";\n\ncontract AsamiCore is ERC20Capped, ReentrancyGuard {\n    struct Account {\n      address addr;\n      uint256 approvedGaslessAmount;\n      uint256 unclaimedAsamiBalance;\n      uint256 unclaimedDocBalance;\n      mapping( uint256 => Campaign ) campaigns;\n    }\n    mapping(uint256 => Account) public accounts;\n    mapping(address => uint256) public accountIdByAddress;\n\n    struct Campaign {\n        uint256 budget;\n        uint256 validUntil;\n        uint256 reportHash;\n        mapping( uint256 => bool ) collabMemberIds;\n    }\n\n    uint256 public adminUnclaimedAsamiBalance = 0;\n    uint256 public adminUnclaimedDocBalance = 0;\n\n    uint256 public defaultFeeRate = 10 * 1e18;\n    uint256 public feeRate = defaultFeeRate;\n    uint256 public votedFeeRate = defaultFeeRate;\n    uint256 public votedFeeRateVoteCount = 0;\n    /* To make the protocol more predictable, changes are applied only once every period */\n    uint256 public lastVotedFeeRateAppliedOn = 0;\n\n    struct FeeRateVote {\n        uint256 votes;\n        uint256 rate;\n    }\n    mapping(address => FeeRateVote) public feeRateVotes;\n\n    struct AdminVote {\n        uint256 votes;\n        address candidate;\n        uint256 cycle;\n        bool vested;\n    }\n    /* Maps holders to their vote */\n    mapping(address => AdminVote) public submittedAdminVotes;\n\n    struct AdminVoteCount {\n        uint256 votes;\n        address candidate;\n    }\n\n    /*\n    We're only storing all historic vote counts to have a view function that helps find out\n    which candidate to proclaim without relying on events.\n    */\n    AdminVoteCount[] public adminVoteCounts;\n    mapping(address => uint256) public adminVoteCountIdByCandidate;\n\n    function allAdminVoteCounts()\n        public\n        view\n        returns (AdminVoteCount[] memory)\n    {\n        return adminVoteCounts;\n    }\n\n    uint256 public vestedAdminVotesTotal;\n    uint256 public lastAdminElection;\n    address[3] public latestAdminElections;\n\n    function getLatestAdminElections() public view returns (address[3] memory) {\n        return latestAdminElections;\n    }\n\n    IERC20 internal doc;\n    address public admin; // An address that may be stored on a server.\n    address public adminTreasury; // A cold storage address for admin money.\n\n    uint256 public assignedAsamiTokens;\n\n    event AdminVoteSaved(AdminVote vote);\n    event AccountUpdated(uint256 accountId);\n    event CampaignCreated(uint256 accountId, uint256 briefing);\n    event CampaignSaved(uint256 campaignId);\n    event CampaignReimbursed(uint256 campaignId);\n    event CollabSaved(uint256 advertiserId, uint256 briefing, uint256 accountId, uint256 gross, uint256 fee);\n\n    modifier onlyAdmin() {\n        require(msg.sender == admin || msg.sender == adminTreasury);\n        _;\n    }\n\n    constructor(\n        address _dollarOnChainAddress,\n        address _adminAddress\n    ) ERC20(\"Asami Core\", \"ASAMI\") ERC20Capped(21 * 1e24) {\n        doc = IERC20(_dollarOnChainAddress);\n        adminTreasury = msg.sender;\n        admin = _adminAddress;\n    }\n\n    function _beforeTokenTransfer(\n        address from,\n        address to,\n        uint256 amount\n    ) internal override {\n        super._beforeTokenTransfer(from, to, amount);\n        if (from != address(0)) {\n          _registerRecentBalanceChange(from, amount, false);\n\n          if (feeRateVotes[from].votes > 0) {\n              removeFeeRateVoteHelper(from);\n          }\n          if (submittedAdminVotes[from].votes > 0) {\n              removeAdminVoteHelper(from);\n          }\n        }\n\n        if (to != address(0)) {\n          _registerRecentBalanceChange(to, amount, true);\n        }\n    }\n\n    struct ClaimAccountsParam {\n        uint256 accountId;\n        address addr;\n    }\n\n    function claimAccounts(\n        ClaimAccountsParam[] calldata _input\n    ) external onlyAdmin nonReentrant {\n        for (uint256 i = 0; i < _input.length; i++) {\n            ClaimAccountsParam calldata claim = _input[i];\n\n            Account storage account = accounts[claim.accountId];\n            require(account.addr == address(0), \"ca0\");\n            require(accountIdByAddress[claim.addr] == 0, \"ca1\");\n\n            accountIdByAddress[claim.addr] = claim.accountId;\n            account.addr = claim.addr;\n            account.approvedGaslessAmount = 5e18; \n        }\n    }\n\n    function claimBalances(uint256[] calldata _accountIds) external nonReentrant {\n      for (uint256 i = 0; i < _accountIds.length; i++){\n        Account storage account = accounts[_accountIds[i]];\n        require(account.addr != address(0), \"cb0\");\n\n        if (account.unclaimedAsamiBalance > 0) {\n          uint256 balance = account.unclaimedAsamiBalance;\n          account.unclaimedAsamiBalance = 0;\n          _safeMint(account.addr, balance);\n        }\n\n        if (account.unclaimedDocBalance > 0) {\n          uint256 balance = account.unclaimedDocBalance;\n          account.unclaimedDocBalance = 0;\n          doc.transfer(account.addr, balance);\n        }\n      }\n    }\n\n    function gaslessClaimBalances(\n      uint256 _fee,\n      uint256 _rbtcAmount,\n      uint256[] calldata _accountIds\n    ) external payable nonReentrant onlyAdmin {\n      require(_rbtcAmount > 1e11, \"gcb0\");\n      require(msg.value == (_rbtcAmount * _accountIds.length), \"gcb1\");\n\n      for (uint256 i = 0; i < _accountIds.length; i++){\n        Account storage account = accounts[_accountIds[i]];\n        require(account.addr != address(0), \"gcb2\");\n        require(account.unclaimedDocBalance > _fee, \"gcb3\");\n        require(account.approvedGaslessAmount >= _fee, \"gcb4\");\n\n        uint256 docs = account.unclaimedDocBalance - _fee;\n        account.unclaimedDocBalance = 0;\n        doc.transfer(account.addr, docs);\n        adminUnclaimedDocBalance += _fee;\n        payable(account.addr).transfer(_rbtcAmount);\n\n        if (account.unclaimedAsamiBalance > 0) {\n          uint256 balance = account.unclaimedAsamiBalance;\n          account.unclaimedAsamiBalance = 0;\n          _safeMint(account.addr, balance);\n        }\n      }\n    }\n\n    function changeGaslessApproval(uint256 newAmount) external {\n        uint256 accountId = accountIdByAddress[msg.sender];\n        Account storage account = accounts[accountId];\n        require(account.addr != address(0), \"cga0\");\n        account.approvedGaslessAmount = newAmount;\n    }\n\n    function claimAdminUnclaimedBalances() external nonReentrant {\n      if (adminUnclaimedAsamiBalance > 0) {\n        _safeMint(admin, adminUnclaimedAsamiBalance);\n        adminUnclaimedAsamiBalance = 0;\n      }\n\n      if (adminUnclaimedDocBalance > 0) {\n        doc.transfer(adminTreasury, adminUnclaimedDocBalance);\n        adminUnclaimedDocBalance = 0;\n      }\n    }\n\n    function withdrawAccidentallySentRbtc() external onlyAdmin {\n      payable(adminTreasury).transfer(address(this).balance);\n    }\n\n    struct MakeCampaignsParam {\n        uint256 budget;\n        uint256 validUntil;\n        uint256 briefing;\n    }\n\n    function makeCampaigns(\n        MakeCampaignsParam[] calldata _inputs\n    ) public nonReentrant {\n        uint256 accountId = accountIdByAddress[msg.sender];\n        Account storage account = accounts[accountId];\n        require(account.addr != address(0), \"mc 0\");\n\n        for (uint i = 0; i < _inputs.length; i++) {\n            MakeCampaignsParam memory input = _inputs[i];\n            require(input.budget > 0, \"mc 1\");\n            require(doc.transferFrom(msg.sender, address(this), input.budget), \"mc 2\");\n            Campaign storage c = account.campaigns[input.briefing];\n            c.budget = input.budget;\n            c.validUntil = input.validUntil;\n\n            emit CampaignCreated(accountId, input.briefing);\n        }\n    }\n\n    struct MakeCollabsParam {\n        uint256 advertiserId;\n        uint256 briefing;\n        MakeCollabsParamItem[] collabs;\n    }\n\n    struct MakeCollabsParamItem {\n        uint256 accountId;\n        uint256 docReward;\n    }\n\n    function adminMakeCollabs(\n        MakeCollabsParam[] calldata _input\n    ) external onlyAdmin nonReentrant {\n        uint256 asamiTokenCap = cap();\n\n        for (uint256 i = 0; i < _input.length; i++) {\n          Account storage advertiser = accounts[_input[i].advertiserId];\n          Campaign storage campaign = advertiser.campaigns[_input[i].briefing];\n          uint256 newAdvertiserTokens = 0;\n          uint256 newFees = 0;\n          uint256 budget = campaign.budget;\n          require(campaign.validUntil > block.timestamp, \"amc1\");\n\n          for (uint256 j = 0; j < _input[i].collabs.length; j++) {\n            MakeCollabsParamItem calldata item = _input[i].collabs[j];\n            require(item.accountId > 0, \"amc2\");\n\n            Account storage member = accounts[item.accountId];\n\n            uint256 gross = item.docReward;\n            require(budget >= gross, \"amc4\");\n            budget -= gross;\n\n            uint256 fee = (gross * feeRate) / 1e20;\n            uint256 reward = gross - fee;\n\n            uint256 remainingToCap = asamiTokenCap - assignedAsamiTokens;\n            uint256 newTokens = (fee > remainingToCap) ? remainingToCap : fee;\n            uint256 advertiserTokens = (newTokens * 10 * 1e18) / 100e18;\n            uint256 memberTokens = (newTokens * 15 * 1e18) / 100e18;\n            uint256 adminTokens = newTokens - advertiserTokens - memberTokens;\n\n            adminUnclaimedAsamiBalance += adminTokens;\n            newAdvertiserTokens += advertiserTokens;\n            member.unclaimedAsamiBalance += memberTokens;\n            member.unclaimedDocBalance += reward;\n            assignedAsamiTokens += newTokens;\n            newFees += fee;\n          }\n          changeFeePool(newFees, true);\n          campaign.budget = budget;\n          advertiser.unclaimedAsamiBalance += newAdvertiserTokens;\n      }\n    }\n\n    function _safeMint(address _addr, uint256 _amount) private {\n        recentTokens[getCurrentCycle()] += _amount;\n        _mint(_addr, _amount);\n    }\n\n    function getCycleLength() public pure returns (uint256) {\n        return 60 * 60 * 24 * 15;\n    }\n\n    function getCurrentCycle() public view returns (uint256) {\n        return block.timestamp / getCycleLength();\n    }\n\n    function getNextCycle() public view returns (uint256) {\n        return getCurrentCycle() + getCycleLength();\n    }\n\n    /* Accounts with unclaimed DOC rewards always have an option to have their funds sent by the admin paying for the transaction fees. */\n    uint256 public adminUnclaimedDoc;\n    uint256 public adminUnclaimedTokens;\n    uint256 public adminGaslessClaimRewardPrice;\n    uint256 public adminGaslessClaimAccountPrice;\n\n    uint256 public feePool;\n\n    struct BalanceChange {\n      uint256 added;\n      uint256 substracted;\n    }\n    mapping (uint256 => mapping(address => BalanceChange)) public recentBalanceChanges;\n    mapping (uint256 => BalanceChange) public recentFeePoolChanges;\n    mapping (uint256 => uint256) public recentTokens;\n    mapping(address => uint256) public lastFeePoolShareCycles;\n\n    function getRecentBalanceChange(address _holder) public view returns (BalanceChange memory) {\n      return recentBalanceChanges[getCurrentCycle()][_holder];\n    }\n\n    function getBalanceBeforeRecentChanges(address _holder) public view returns (uint256) {\n      BalanceChange storage recent = recentBalanceChanges[getCurrentCycle()][_holder];\n      return (balanceOf(_holder) + recent.substracted) - recent.added;\n    }\n\n    function _registerRecentBalanceChange(address _holder, uint256 _amount, bool _added) private {\n      BalanceChange storage recent = recentBalanceChanges[getCurrentCycle()][_holder];\n      if(_added){\n        recent.added += _amount;\n      } else {\n        recent.substracted += _amount;\n      }\n    }\n\n    function changeFeePool(uint256 _amount, bool _added) private {\n      BalanceChange storage recent = recentFeePoolChanges[getCurrentCycle()];\n      if(_added){\n        feePool += _amount;\n        recent.added += _amount;\n      } else {\n        feePool -= _amount;\n        recent.substracted += _amount;\n      }\n    }\n\n    function getFeePoolBeforeRecentChanges() public view returns (uint256) {\n      BalanceChange storage recent = recentFeePoolChanges[getCurrentCycle()];\n      return (feePool + recent.substracted) - recent.added;\n    }\n\n    function claimFeePoolShare(address[] calldata _holders) external nonReentrant {\n        uint256 current = getCurrentCycle();\n        uint256 supply = totalSupply() - recentTokens[current];\n        uint256 pool = getFeePoolBeforeRecentChanges();\n        require(supply > 0, \"cfp0\");\n        require(pool > 0, \"cfp1\");\n\n        for (uint256 i = 0; i < _holders.length; i++) {\n          address holder = _holders[i];\n\n          require(lastFeePoolShareCycles[holder] < current, \"cfp2\");\n\n          uint256 balance = getBalanceBeforeRecentChanges(holder);\n          require(balance > 0, \"cfp3\");\n          uint256 reward = (balance * pool) / supply;\n\n          lastFeePoolShareCycles[holder] = current;\n          changeFeePool(reward, false);\n\n          require(doc.transfer(holder, reward), \"cfp4\");\n        }\n    }\n\n    function applyVotedFeeRate() external {\n        uint256 currentCycle = getCurrentCycle();\n        require(currentCycle != lastVotedFeeRateAppliedOn, \"afr0\");\n        feeRate = votedFeeRate;\n        lastVotedFeeRateAppliedOn = currentCycle;\n    }\n\n    function submitFeeRateVote(uint256 _rate) external {\n        require(_rate > 0 && _rate < 1e20, \"srv0\");\n\n        FeeRateVote storage vote = feeRateVotes[msg.sender];\n        if (vote.votes > 0) {\n            removeFeeRateVoteHelper(msg.sender);\n        }\n\n        uint256 votes = balanceOf(msg.sender);\n        require(votes > 0, \"srv1\");\n\n        votedFeeRate =\n            ((votedFeeRate * votedFeeRateVoteCount) + (votes * _rate)) /\n            (votedFeeRateVoteCount + votes);\n        votedFeeRateVoteCount += votes;\n        vote.votes = votes;\n        vote.rate = _rate;\n    }\n\n    function removeFeeRateVote() external {\n        removeFeeRateVoteHelper(msg.sender);\n    }\n\n    function removeFeeRateVoteHelper(address _holder) private {\n        FeeRateVote storage vote = feeRateVotes[_holder];\n        require(vote.votes > 0, \"rfrv 0\");\n        uint256 nextVoteCount = votedFeeRateVoteCount - vote.votes;\n        uint256 currentVolume = votedFeeRate * votedFeeRateVoteCount;\n        uint256 removedVolume = vote.votes * vote.rate;\n        uint256 nextVolume = currentVolume > removedVolume\n            ? currentVolume - removedVolume\n            : 0;\n\n        if (nextVoteCount > 0) {\n            votedFeeRate = nextVolume / nextVoteCount;\n            votedFeeRateVoteCount = nextVoteCount;\n        } else {\n            votedFeeRate = defaultFeeRate;\n            votedFeeRateVoteCount = 0;\n        }\n        delete feeRateVotes[_holder];\n    }\n\n    function submitAdminVote(address _candidate) external {\n        require(_candidate != address(0), \"sav0\");\n        uint256 votes = balanceOf(msg.sender);\n        require(votes > 0, \"sav1\");\n\n        AdminVote storage existing = submittedAdminVotes[msg.sender];\n        if (existing.votes > 0) {\n            removeAdminVoteHelper(msg.sender);\n        }\n\n        submittedAdminVotes[msg.sender] = AdminVote({\n            candidate: _candidate,\n            votes: votes,\n            cycle: getCurrentCycle(),\n            vested: false\n        });\n\n        emit AdminVoteSaved(submittedAdminVotes[msg.sender]);\n    }\n\n    function vestAdminVotes(address[] calldata _holders) external {\n        uint256 thisCycle = getCurrentCycle();\n\n        for (uint256 i = 0; i < _holders.length; i++) {\n            AdminVote storage vote = submittedAdminVotes[_holders[i]];\n            require(vote.cycle > 0, \"vav 0\");\n            require(vote.cycle < thisCycle, \"vav 1\");\n            require(!vote.vested, \"vav 2\");\n            vote.vested = true;\n            vestedAdminVotesTotal += vote.votes;\n\n            uint256 voteCountId = adminVoteCountIdByCandidate[vote.candidate];\n            if (voteCountId > 0) {\n                AdminVoteCount storage count = adminVoteCounts[voteCountId - 1];\n                count.votes += vote.votes;\n            } else {\n                AdminVoteCount storage count = adminVoteCounts.push();\n                count.votes = vote.votes;\n                count.candidate = vote.candidate;\n                adminVoteCountIdByCandidate[vote.candidate] = adminVoteCounts\n                    .length;\n            }\n            emit AdminVoteSaved(vote);\n        }\n    }\n\n    function proclaimCycleAdminWinner(address _candidate) external {\n        uint256 voteCountId = adminVoteCountIdByCandidate[_candidate];\n        require(voteCountId > 0, \"pcw0\");\n        AdminVoteCount storage count = adminVoteCounts[voteCountId - 1];\n\n        require(vestedAdminVotesTotal > 0, \"pcw1\");\n        require(count.votes > vestedAdminVotesTotal / 2, \"pcw2\");\n        uint256 thisCycle = getCurrentCycle();\n        require(lastAdminElection < thisCycle, \"pcw3\");\n\n        lastAdminElection = thisCycle;\n        latestAdminElections[2] = latestAdminElections[1];\n        latestAdminElections[1] = latestAdminElections[0];\n        latestAdminElections[0] = _candidate;\n\n        if (\n            _candidate == latestAdminElections[1] &&\n            _candidate == latestAdminElections[2]\n        ) {\n            admin = _candidate;\n            adminTreasury = _candidate;\n        }\n    }\n\n    function removeAdminVote() external {\n        removeAdminVoteHelper(msg.sender);\n    }\n\n    function removeAdminVoteHelper(address _holder) private {\n        AdminVote storage vote = submittedAdminVotes[_holder];\n        require(vote.votes > 0, \"ravh0\");\n        if (vote.vested) {\n            vestedAdminVotesTotal -= vote.votes;\n\n            uint256 voteCountId = adminVoteCountIdByCandidate[vote.candidate];\n            require(voteCountId > 0);\n            adminVoteCounts[voteCountId - 1].votes -= vote.votes;\n        }\n        delete submittedAdminVotes[_holder];\n    }\n\n    function setAdminAddress(address _admin) external {\n        require(msg.sender == adminTreasury, \"saa0\");\n        admin = _admin;\n    }\n\n    uint256 public migrationCursor;\n    bool public migrationHoldersDone;\n    bool public migrationAccountsDone;\n\n    function migrateTokensFromOldContract(address _oldContract, uint256 _items) external {\n      require(!migrationHoldersDone || !migrationAccountsDone, \"mig0\");\n      Asami oldContract = Asami(_oldContract);\n\n      if (!migrationHoldersDone) {\n        for (uint256 i = 0; i < _items; i++) {\n          try oldContract.holders(migrationCursor+i) returns (address holder) {\n            uint256 balance = oldContract.balanceOf(holder);\n            if(balance > 0){\n              _safeMint(holder, oldContract.balanceOf(holder));\n            }\n          } catch {\n              migrationHoldersDone = true;\n              break;\n          }\n        }\n      }\n\n      if (!migrationAccountsDone) {\n        for (uint256 i = 0; i < _items; i++) {\n          try oldContract.accountIds(migrationCursor + i) returns (uint256 oldAccountId) {\n            ( , address addr, uint256 oldUnclaimedAsami,) = oldContract.accounts(oldAccountId);\n            Account storage account = accounts[oldAccountId];\n            if(addr != address(0)) {\n              accountIdByAddress[addr] = oldAccountId;\n              account.addr = addr;\n              account.approvedGaslessAmount = 5e18; \n            } else {\n              account.unclaimedAsamiBalance = oldUnclaimedAsami;\n            }\n          } catch {\n              migrationAccountsDone = true;\n              break;\n          }\n        }\n      }\n\n      migrationCursor += _items;\n    }\n}\n",
  "sourcePath": "/home/nubis/asami/contract/contracts/AsamiCore.sol",
  "compiler": {
    "name": "solc",
    "version": "0.8.19+commit.7dd6d404.Emscripten.clang"
  },
  "schemaVersion": "3.4.15",
  "updatedAt": "2024-04-10T22:17:17.709Z",
  "networkType": "ethereum",
  "devdoc": {
    "events": {
      "Approval(address,address,uint256)": {
        "details": "Emitted when the allowance of a `spender` for an `owner` is set by a call to {approve}. `value` is the new allowance."
      },
      "Transfer(address,address,uint256)": {
        "details": "Emitted when `value` tokens are moved from one account (`from`) to another (`to`). Note that `value` may be zero."
      }
    },
    "kind": "dev",
    "methods": {
      "allowance(address,address)": {
        "details": "See {IERC20-allowance}."
      },
      "approve(address,uint256)": {
        "details": "See {IERC20-approve}. NOTE: If `amount` is the maximum `uint256`, the allowance is not updated on `transferFrom`. This is semantically equivalent to an infinite approval. Requirements: - `spender` cannot be the zero address."
      },
      "balanceOf(address)": {
        "details": "See {IERC20-balanceOf}."
      },
      "cap()": {
        "details": "Returns the cap on the token's total supply."
      },
      "decimals()": {
        "details": "Returns the number of decimals used to get its user representation. For example, if `decimals` equals `2`, a balance of `505` tokens should be displayed to a user as `5.05` (`505 / 10 ** 2`). Tokens usually opt for a value of 18, imitating the relationship between Ether and Wei. This is the default value returned by this function, unless it's overridden. NOTE: This information is only used for _display_ purposes: it in no way affects any of the arithmetic of the contract, including {IERC20-balanceOf} and {IERC20-transfer}."
      },
      "decreaseAllowance(address,uint256)": {
        "details": "Atomically decreases the allowance granted to `spender` by the caller. This is an alternative to {approve} that can be used as a mitigation for problems described in {IERC20-approve}. Emits an {Approval} event indicating the updated allowance. Requirements: - `spender` cannot be the zero address. - `spender` must have allowance for the caller of at least `subtractedValue`."
      },
      "increaseAllowance(address,uint256)": {
        "details": "Atomically increases the allowance granted to `spender` by the caller. This is an alternative to {approve} that can be used as a mitigation for problems described in {IERC20-approve}. Emits an {Approval} event indicating the updated allowance. Requirements: - `spender` cannot be the zero address."
      },
      "name()": {
        "details": "Returns the name of the token."
      },
      "symbol()": {
        "details": "Returns the symbol of the token, usually a shorter version of the name."
      },
      "totalSupply()": {
        "details": "See {IERC20-totalSupply}."
      },
      "transfer(address,uint256)": {
        "details": "See {IERC20-transfer}. Requirements: - `to` cannot be the zero address. - the caller must have a balance of at least `amount`."
      },
      "transferFrom(address,address,uint256)": {
        "details": "See {IERC20-transferFrom}. Emits an {Approval} event indicating the updated allowance. This is not required by the EIP. See the note at the beginning of {ERC20}. NOTE: Does not update the allowance if the current allowance is the maximum `uint256`. Requirements: - `from` and `to` cannot be the zero address. - `from` must have a balance of at least `amount`. - the caller must have allowance for ``from``'s tokens of at least `amount`."
      }
    },
    "version": 1
  },
  "userdoc": {
    "kind": "user",
    "methods": {},
    "version": 1
  }
}