{
  "contractName": "Asami",
  "abi": [
    {
      "inputs": [
        {
          "internalType": "address",
          "name": "_dollarOnChainAddress",
          "type": "address"
        }
      ],
      "stateMutability": "nonpayable",
      "type": "constructor"
    },
    {
      "anonymous": false,
      "inputs": [
        {
          "indexed": true,
          "internalType": "address",
          "name": "previousOwner",
          "type": "address"
        },
        {
          "indexed": true,
          "internalType": "address",
          "name": "newOwner",
          "type": "address"
        }
      ],
      "name": "OwnershipTransferred",
      "type": "event"
    },
    {
      "anonymous": false,
      "inputs": [
        {
          "indexed": false,
          "internalType": "uint256",
          "name": "accountId",
          "type": "uint256"
        },
        {
          "indexed": false,
          "internalType": "uint256",
          "name": "campaignId",
          "type": "uint256"
        },
        {
          "components": [
            {
              "internalType": "uint256",
              "name": "budget",
              "type": "uint256"
            },
            {
              "internalType": "uint256",
              "name": "remaining",
              "type": "uint256"
            },
            {
              "internalType": "string",
              "name": "contentId",
              "type": "string"
            }
          ],
          "indexed": false,
          "internalType": "struct Asami.Campaign",
          "name": "campaign",
          "type": "tuple"
        }
      ],
      "name": "XCampaignAdded",
      "type": "event"
    },
    {
      "anonymous": false,
      "inputs": [
        {
          "indexed": false,
          "internalType": "uint256",
          "name": "accountId",
          "type": "uint256"
        },
        {
          "components": [
            {
              "internalType": "uint256",
              "name": "accountId",
              "type": "uint256"
            },
            {
              "internalType": "uint256",
              "name": "campaignId",
              "type": "uint256"
            },
            {
              "internalType": "uint256",
              "name": "reward",
              "type": "uint256"
            }
          ],
          "indexed": false,
          "internalType": "struct Asami.Collab",
          "name": "collab",
          "type": "tuple"
        }
      ],
      "name": "XCollabAdded",
      "type": "event"
    },
    {
      "anonymous": false,
      "inputs": [
        {
          "indexed": false,
          "internalType": "uint256",
          "name": "accountId",
          "type": "uint256"
        },
        {
          "components": [
            {
              "internalType": "string",
              "name": "value",
              "type": "string"
            },
            {
              "internalType": "string",
              "name": "fixedId",
              "type": "string"
            },
            {
              "internalType": "uint256",
              "name": "price",
              "type": "uint256"
            },
            {
              "internalType": "uint256",
              "name": "score",
              "type": "uint256"
            },
            {
              "internalType": "uint256[]",
              "name": "topics",
              "type": "uint256[]"
            },
            {
              "internalType": "string",
              "name": "verificationMessageId",
              "type": "string"
            }
          ],
          "indexed": false,
          "internalType": "struct Asami.Handle",
          "name": "handle",
          "type": "tuple"
        }
      ],
      "name": "XHandleAdded",
      "type": "event"
    },
    {
      "inputs": [
        {
          "internalType": "address",
          "name": "",
          "type": "address"
        }
      ],
      "name": "accountByAddress",
      "outputs": [
        {
          "internalType": "bool",
          "name": "active",
          "type": "bool"
        },
        {
          "internalType": "uint256",
          "name": "docBalance",
          "type": "uint256"
        },
        {
          "internalType": "uint256",
          "name": "asamiTokens",
          "type": "uint256"
        },
        {
          "internalType": "address",
          "name": "addr",
          "type": "address"
        },
        {
          "components": [
            {
              "internalType": "string",
              "name": "value",
              "type": "string"
            },
            {
              "internalType": "string",
              "name": "fixedId",
              "type": "string"
            },
            {
              "internalType": "uint256",
              "name": "price",
              "type": "uint256"
            },
            {
              "internalType": "uint256",
              "name": "score",
              "type": "uint256"
            },
            {
              "internalType": "uint256[]",
              "name": "topics",
              "type": "uint256[]"
            },
            {
              "internalType": "string",
              "name": "verificationMessageId",
              "type": "string"
            }
          ],
          "internalType": "struct Asami.Handle",
          "name": "x",
          "type": "tuple"
        },
        {
          "components": [
            {
              "internalType": "string",
              "name": "value",
              "type": "string"
            },
            {
              "internalType": "string",
              "name": "fixedId",
              "type": "string"
            },
            {
              "internalType": "uint256",
              "name": "price",
              "type": "uint256"
            },
            {
              "internalType": "uint256",
              "name": "score",
              "type": "uint256"
            },
            {
              "internalType": "uint256[]",
              "name": "topics",
              "type": "uint256[]"
            },
            {
              "internalType": "string",
              "name": "verificationMessageId",
              "type": "string"
            }
          ],
          "internalType": "struct Asami.Handle",
          "name": "nostr",
          "type": "tuple"
        },
        {
          "components": [
            {
              "internalType": "string",
              "name": "value",
              "type": "string"
            },
            {
              "internalType": "string",
              "name": "fixedId",
              "type": "string"
            },
            {
              "internalType": "uint256",
              "name": "price",
              "type": "uint256"
            },
            {
              "internalType": "uint256",
              "name": "score",
              "type": "uint256"
            },
            {
              "internalType": "uint256[]",
              "name": "topics",
              "type": "uint256[]"
            },
            {
              "internalType": "string",
              "name": "verificationMessageId",
              "type": "string"
            }
          ],
          "internalType": "struct Asami.Handle",
          "name": "instagram",
          "type": "tuple"
        }
      ],
      "stateMutability": "view",
      "type": "function",
      "constant": true
    },
    {
      "inputs": [
        {
          "internalType": "uint256",
          "name": "",
          "type": "uint256"
        }
      ],
      "name": "accountIds",
      "outputs": [
        {
          "internalType": "uint256",
          "name": "",
          "type": "uint256"
        }
      ],
      "stateMutability": "view",
      "type": "function",
      "constant": true
    },
    {
      "inputs": [
        {
          "internalType": "uint256",
          "name": "",
          "type": "uint256"
        }
      ],
      "name": "accounts",
      "outputs": [
        {
          "internalType": "bool",
          "name": "active",
          "type": "bool"
        },
        {
          "internalType": "uint256",
          "name": "docBalance",
          "type": "uint256"
        },
        {
          "internalType": "uint256",
          "name": "asamiTokens",
          "type": "uint256"
        },
        {
          "internalType": "address",
          "name": "addr",
          "type": "address"
        },
        {
          "components": [
            {
              "internalType": "string",
              "name": "value",
              "type": "string"
            },
            {
              "internalType": "string",
              "name": "fixedId",
              "type": "string"
            },
            {
              "internalType": "uint256",
              "name": "price",
              "type": "uint256"
            },
            {
              "internalType": "uint256",
              "name": "score",
              "type": "uint256"
            },
            {
              "internalType": "uint256[]",
              "name": "topics",
              "type": "uint256[]"
            },
            {
              "internalType": "string",
              "name": "verificationMessageId",
              "type": "string"
            }
          ],
          "internalType": "struct Asami.Handle",
          "name": "x",
          "type": "tuple"
        },
        {
          "components": [
            {
              "internalType": "string",
              "name": "value",
              "type": "string"
            },
            {
              "internalType": "string",
              "name": "fixedId",
              "type": "string"
            },
            {
              "internalType": "uint256",
              "name": "price",
              "type": "uint256"
            },
            {
              "internalType": "uint256",
              "name": "score",
              "type": "uint256"
            },
            {
              "internalType": "uint256[]",
              "name": "topics",
              "type": "uint256[]"
            },
            {
              "internalType": "string",
              "name": "verificationMessageId",
              "type": "string"
            }
          ],
          "internalType": "struct Asami.Handle",
          "name": "nostr",
          "type": "tuple"
        },
        {
          "components": [
            {
              "internalType": "string",
              "name": "value",
              "type": "string"
            },
            {
              "internalType": "string",
              "name": "fixedId",
              "type": "string"
            },
            {
              "internalType": "uint256",
              "name": "price",
              "type": "uint256"
            },
            {
              "internalType": "uint256",
              "name": "score",
              "type": "uint256"
            },
            {
              "internalType": "uint256[]",
              "name": "topics",
              "type": "uint256[]"
            },
            {
              "internalType": "string",
              "name": "verificationMessageId",
              "type": "string"
            }
          ],
          "internalType": "struct Asami.Handle",
          "name": "instagram",
          "type": "tuple"
        }
      ],
      "stateMutability": "view",
      "type": "function",
      "constant": true
    },
    {
      "inputs": [],
      "name": "owner",
      "outputs": [
        {
          "internalType": "address",
          "name": "",
          "type": "address"
        }
      ],
      "stateMutability": "view",
      "type": "function",
      "constant": true
    },
    {
      "inputs": [],
      "name": "renounceOwnership",
      "outputs": [],
      "stateMutability": "nonpayable",
      "type": "function"
    },
    {
      "inputs": [
        {
          "internalType": "uint256",
          "name": "",
          "type": "uint256"
        }
      ],
      "name": "topics",
      "outputs": [
        {
          "internalType": "string",
          "name": "",
          "type": "string"
        }
      ],
      "stateMutability": "view",
      "type": "function",
      "constant": true
    },
    {
      "inputs": [
        {
          "internalType": "address",
          "name": "newOwner",
          "type": "address"
        }
      ],
      "name": "transferOwnership",
      "outputs": [],
      "stateMutability": "nonpayable",
      "type": "function"
    },
    {
      "inputs": [],
      "name": "getTopics",
      "outputs": [
        {
          "internalType": "string[]",
          "name": "",
          "type": "string[]"
        }
      ],
      "stateMutability": "view",
      "type": "function",
      "constant": true
    },
    {
      "inputs": [
        {
          "internalType": "address",
          "name": "_admin",
          "type": "address"
        }
      ],
      "name": "setAdmin",
      "outputs": [],
      "stateMutability": "nonpayable",
      "type": "function"
    },
    {
      "inputs": [
        {
          "internalType": "string",
          "name": "_name",
          "type": "string"
        }
      ],
      "name": "addTopic",
      "outputs": [],
      "stateMutability": "nonpayable",
      "type": "function"
    },
    {
      "inputs": [
        {
          "internalType": "uint256",
          "name": "_accountId",
          "type": "uint256"
        },
        {
          "components": [
            {
              "internalType": "string",
              "name": "value",
              "type": "string"
            },
            {
              "internalType": "string",
              "name": "fixedId",
              "type": "string"
            },
            {
              "internalType": "uint256",
              "name": "price",
              "type": "uint256"
            },
            {
              "internalType": "uint256",
              "name": "score",
              "type": "uint256"
            },
            {
              "internalType": "uint256[]",
              "name": "topics",
              "type": "uint256[]"
            },
            {
              "internalType": "string",
              "name": "verificationMessageId",
              "type": "string"
            }
          ],
          "internalType": "struct Asami.Handle",
          "name": "_handle",
          "type": "tuple"
        }
      ],
      "name": "addXHandle",
      "outputs": [],
      "stateMutability": "nonpayable",
      "type": "function"
    },
    {
      "inputs": [
        {
          "internalType": "uint256",
          "name": "_accountId",
          "type": "uint256"
        },
        {
          "components": [
            {
              "internalType": "uint256",
              "name": "budget",
              "type": "uint256"
            },
            {
              "internalType": "uint256",
              "name": "remaining",
              "type": "uint256"
            },
            {
              "internalType": "string",
              "name": "contentId",
              "type": "string"
            }
          ],
          "internalType": "struct Asami.Campaign",
          "name": "_campaign",
          "type": "tuple"
        }
      ],
      "name": "addRequestedXCampaign",
      "outputs": [],
      "stateMutability": "nonpayable",
      "type": "function"
    },
    {
      "inputs": [
        {
          "internalType": "uint256",
          "name": "_accountId",
          "type": "uint256"
        },
        {
          "components": [
            {
              "internalType": "uint256",
              "name": "accountId",
              "type": "uint256"
            },
            {
              "internalType": "uint256",
              "name": "campaignId",
              "type": "uint256"
            },
            {
              "internalType": "uint256",
              "name": "reward",
              "type": "uint256"
            }
          ],
          "internalType": "struct Asami.Collab",
          "name": "_collab",
          "type": "tuple"
        }
      ],
      "name": "addXCollab",
      "outputs": [],
      "stateMutability": "nonpayable",
      "type": "function"
    }
  ],
  "bytecode": "0x608060405234801561001057600080fd5b5060405162001b9a38038062001b9a833981016040819052610031916100af565b61003a3361005f565b600180546001600160a01b0319166001600160a01b03929092169190911790556100df565b600080546001600160a01b038381166001600160a01b0319831681178455604051919092169283917f8be0079c531659141344cd1fd0a4f28419497f9722a3daafe3b4186f6b6457e09190a35050565b6000602082840312156100c157600080fd5b81516001600160a01b03811681146100d857600080fd5b9392505050565b611aab80620000ef6000396000f3fe608060405234801561001057600080fd5b50600436106100af5760003560e01c806318d9adab146100b457806333c24bd3146100dd578063704b6c02146100fe578063715018a61461011357806373a4ba4f1461011b5780638da5cb5b1461012e57806398853ec31461014e578063a62586dd14610161578063b41fcb9414610187578063c4ac65b71461019a578063f2a40db8146101ad578063f2fde38b146101c0578063fee01177146101d3575b600080fd5b6100c76100c2366004611033565b6101e8565b6040516100d49190611092565b60405180910390f35b6100f06100eb366004611033565b610294565b6040519081526020016100d4565b61011161010c3660046110ac565b6102b5565b005b6101116102df565b6101116101293660046110ed565b6102f3565b610136610455565b6040516001600160a01b0390911681526020016100d4565b61011161015c36600461111a565b610464565b61017461016f3660046110ac565b6105e5565b6040516100d4979695949392919061120c565b610111610195366004611275565b610cb4565b6101116101a83660046112c2565b610d5a565b6101746101bb366004611033565b610dd6565b6101116101ce3660046110ac565b610e2d565b6101db610eab565b6040516100d49190611333565b600381815481106101f857600080fd5b90600052602060002001600091509050805461021390611395565b80601f016020809104026020016040519081016040528092919081815260200182805461023f90611395565b801561028c5780601f106102615761010080835404028352916020019161028c565b820191906000526020600020905b81548152906001019060200180831161026f57829003601f168201915b505050505081565b600581815481106102a457600080fd5b600091825260209091200154905081565b6102bd610f84565b600280546001600160a01b0319166001600160a01b0392909216919091179055565b6102e7610f84565b6102f16000610fe3565b565b6002546001600160a01b0316331480610324575061030f610455565b6001600160a01b0316336001600160a01b0316145b61032d57600080fd5b6000828152600460205260409020805460ff1661034957600080fd5b81356000908152600460205260409020805460ff1661036757600080fd5b600081601601846020013581548110610382576103826113c9565b9060005260206000209060030201905060008160020180546103a390611395565b9050116103af57600080fd5b60068301546001820154116103c357600080fd5b60068301546001840180546000906103dc9084906113f5565b909155505060068301546001820180546000906103fa90849061140e565b9091555050604080518681528535602080830191909152860135818301529085013560608201527f54e3be21b4f97c51c8848b410bd59dd149a21f40b1c330e17941a70ae261b44e9060800160405180910390a15050505050565b6000546001600160a01b031690565b6002546001600160a01b03163314806104955750610480610455565b6001600160a01b0316336001600160a01b0316145b61049e57600080fd5b80356104a957600080fd5b60006104b86040830183611421565b9050116104c457600080fd5b6000828152600460205260409020805460ff1680156104ee575060038101546001600160a01b0316155b6104f757600080fd5b6001546040516323b872dd60e01b8152336004820152306024820152833560448201526001600160a01b03909116906323b872dd906064016020604051808303816000875af115801561054e573d6000803e3d6000fd5b505050506040513d601f19601f82011682018060405250810190610572919061146e565b61057b57600080fd5b60168101805460018101825560009182526020909120839060038302016105a282826115cd565b50507fbe7d9a023f7fe539bc24ca04d041d0ff62977f5f78025bd0ffa7dbf0fa0c30938482856040516105d793929190611715565b60405180910390a150505050565b600660205260009081526040908190208054600182015460028301546003840154855160c0810190965260048501805460ff90951696939592946001600160a01b0390921693918290829061063990611395565b80601f016020809104026020016040519081016040528092919081815260200182805461066590611395565b80156106b25780601f10610687576101008083540402835291602001916106b2565b820191906000526020600020905b81548152906001019060200180831161069557829003601f168201915b505050505081526020016001820180546106cb90611395565b80601f01602080910402602001604051908101604052809291908181526020018280546106f790611395565b80156107445780601f1061071957610100808354040283529160200191610744565b820191906000526020600020905b81548152906001019060200180831161072757829003601f168201915b505050505081526020016002820154815260200160038201548152602001600482018054806020026020016040519081016040528092919081815260200182805480156107b057602002820191906000526020600020905b81548152602001906001019080831161079c575b505050505081526020016005820180546107c990611395565b80601f01602080910402602001604051908101604052809291908181526020018280546107f590611395565b80156108425780601f1061081757610100808354040283529160200191610842565b820191906000526020600020905b81548152906001019060200180831161082557829003601f168201915b5050505050815250509080600a016040518060c001604052908160008201805461086b90611395565b80601f016020809104026020016040519081016040528092919081815260200182805461089790611395565b80156108e45780601f106108b9576101008083540402835291602001916108e4565b820191906000526020600020905b8154815290600101906020018083116108c757829003601f168201915b505050505081526020016001820180546108fd90611395565b80601f016020809104026020016040519081016040528092919081815260200182805461092990611395565b80156109765780601f1061094b57610100808354040283529160200191610976565b820191906000526020600020905b81548152906001019060200180831161095957829003601f168201915b505050505081526020016002820154815260200160038201548152602001600482018054806020026020016040519081016040528092919081815260200182805480156109e257602002820191906000526020600020905b8154815260200190600101908083116109ce575b505050505081526020016005820180546109fb90611395565b80601f0160208091040260200160405190810160405280929190818152602001828054610a2790611395565b8015610a745780601f10610a4957610100808354040283529160200191610a74565b820191906000526020600020905b815481529060010190602001808311610a5757829003601f168201915b50505050508152505090806010016040518060c0016040529081600082018054610a9d90611395565b80601f0160208091040260200160405190810160405280929190818152602001828054610ac990611395565b8015610b165780601f10610aeb57610100808354040283529160200191610b16565b820191906000526020600020905b815481529060010190602001808311610af957829003601f168201915b50505050508152602001600182018054610b2f90611395565b80601f0160208091040260200160405190810160405280929190818152602001828054610b5b90611395565b8015610ba85780601f10610b7d57610100808354040283529160200191610ba8565b820191906000526020600020905b815481529060010190602001808311610b8b57829003601f168201915b50505050508152602001600282015481526020016003820154815260200160048201805480602002602001604051908101604052809291908181526020018280548015610c1457602002820191906000526020600020905b815481526020019060010190808311610c00575b50505050508152602001600582018054610c2d90611395565b80601f0160208091040260200160405190810160405280929190818152602001828054610c5990611395565b8015610ca65780601f10610c7b57610100808354040283529160200191610ca6565b820191906000526020600020905b815481529060010190602001808311610c8957829003601f168201915b505050505081525050905087565b6002546001600160a01b0316331480610ce55750610cd0610455565b6001600160a01b0316336001600160a01b0316145b610cee57600080fd5b6000828152600460208190526040909120805460ff191660011781559082908201610d198282611826565b9050507fda7fa1fe62ed8166225388d6dea6e0d5c0f271f57163e4a269d4f4a66e91b6798383604051610d4d929190611982565b60405180910390a1505050565b6002546001600160a01b0316331480610d8b5750610d76610455565b6001600160a01b0316336001600160a01b0316145b610d9457600080fd5b600380546001810182556000919091527fc2575a0e9e593c00f959f8c92f12db2869c3395a3b0502d05e2516446f71f85b01610dd1828483611514565b505050565b6004602081905260009182526040918290208054600182015460028301546003840154865160c08101909752948401805460ff90941696929591946001600160a01b03909216939192918290829061063990611395565b610e35610f84565b6001600160a01b038116610e9f5760405162461bcd60e51b815260206004820152602660248201527f4f776e61626c653a206e6577206f776e657220697320746865207a65726f206160448201526564647265737360d01b60648201526084015b60405180910390fd5b610ea881610fe3565b50565b60606003805480602002602001604051908101604052809291908181526020016000905b82821015610f7b578382906000526020600020018054610eee90611395565b80601f0160208091040260200160405190810160405280929190818152602001828054610f1a90611395565b8015610f675780601f10610f3c57610100808354040283529160200191610f67565b820191906000526020600020905b815481529060010190602001808311610f4a57829003601f168201915b505050505081526020019060010190610ecf565b50505050905090565b33610f8d610455565b6001600160a01b0316146102f15760405162461bcd60e51b815260206004820181905260248201527f4f776e61626c653a2063616c6c6572206973206e6f7420746865206f776e65726044820152606401610e96565b600080546001600160a01b038381166001600160a01b0319831681178455604051919092169283917f8be0079c531659141344cd1fd0a4f28419497f9722a3daafe3b4186f6b6457e09190a35050565b60006020828403121561104557600080fd5b5035919050565b6000815180845260005b8181101561107257602081850181015186830182015201611056565b506000602082860101526020601f19601f83011685010191505092915050565b6020815260006110a5602083018461104c565b9392505050565b6000602082840312156110be57600080fd5b81356001600160a01b03811681146110a557600080fd5b6000606082840312156110e757600080fd5b50919050565b6000806080838503121561110057600080fd5b8235915061111184602085016110d5565b90509250929050565b6000806040838503121561112d57600080fd5b8235915060208301356001600160401b0381111561114a57600080fd5b611156858286016110d5565b9150509250929050565b6000815160c0845261117560c085018261104c565b90506020808401518583038287015261118e838261104c565b92505060408401516040860152606084015160608601526080840151858303608087015282815180855283850191508383019450600092505b808310156111e757845182529383019360019290920191908301906111c7565b5060a0860151935086810360a0880152611201818561104c565b979650505050505050565b871515815286602082015285604082015260018060a01b038516606082015260e06080820152600061124160e0830186611160565b82810360a08401526112538186611160565b905082810360c08401526112678185611160565b9a9950505050505050505050565b6000806040838503121561128857600080fd5b8235915060208301356001600160401b038111156112a557600080fd5b830160c081860312156112b757600080fd5b809150509250929050565b600080602083850312156112d557600080fd5b82356001600160401b03808211156112ec57600080fd5b818501915085601f83011261130057600080fd5b81358181111561130f57600080fd5b86602082850101111561132157600080fd5b60209290920196919550909350505050565b6000602080830181845280855180835260408601915060408160051b870101925083870160005b8281101561138857603f1988860301845261137685835161104c565b9450928501929085019060010161135a565b5092979650505050505050565b600181811c908216806113a957607f821691505b6020821081036110e757634e487b7160e01b600052602260045260246000fd5b634e487b7160e01b600052603260045260246000fd5b634e487b7160e01b600052601160045260246000fd5b80820180821115611408576114086113df565b92915050565b81810381811115611408576114086113df565b6000808335601e1984360301811261143857600080fd5b8301803591506001600160401b0382111561145257600080fd5b60200191503681900382131561146757600080fd5b9250929050565b60006020828403121561148057600080fd5b815180151581146110a557600080fd5b634e487b7160e01b600052604160045260246000fd5b5b818110156114bb57600081556001016114a7565b5050565b601f821115610dd157806000526020600020601f840160051c810160208510156114e65750805b6114f8601f850160051c8301826114a6565b5050505050565b600019600383901b1c191660019190911b1790565b6001600160401b0383111561152b5761152b611490565b61153f836115398354611395565b836114bf565b6000601f84116001811461156d576000851561155b5750838201355b61156586826114ff565b8455506114f8565b600083815260209020601f19861690835b8281101561159e578685013582556020948501946001909201910161157e565b50868210156115bb5760001960f88860031b161c19848701351681555b505060018560011b0183555050505050565b81358155600160208084013582840155600283016115ee6040860186611421565b6001600160401b0381111561160557611605611490565b611619816116138554611395565b856114bf565b6000601f82116001811461164757600083156116355750838201355b61163f84826114ff565b86555061169c565b600085815260209020601f19841690835b828110156116755786850135825593880193908901908801611658565b50848210156116925760001960f88660031b161c19848701351681555b50508683881b0185555b505050505050505050565b6000808335601e198436030181126116be57600080fd5b83016020810192503590506001600160401b038111156116dd57600080fd5b80360382131561146757600080fd5b81835281816020850137506000828201602090810191909152601f909101601f19169091010190565b838152826020820152606060408201528135606082015260208201356080820152600061174560408401846116a7565b606060a085015261120160c0850182846116ec565b6000808335601e1984360301811261177157600080fd5b8301803591506001600160401b0382111561178b57600080fd5b6020019150600581901b360382131561146757600080fd5b6001600160401b038311156117ba576117ba611490565b600160401b8311156117ce576117ce611490565b8054838255808410156117f4578160005260206000206117f28282018683016114a6565b505b50818160005260208060002060005b8681101561181d5783358282015592820192600101611803565b50505050505050565b6118308283611421565b6001600160401b0381111561184757611847611490565b611855816116138554611395565b6000601f82116001811461188357600083156118715750838201355b61187b84826114ff565b8655506118dd565b600085815260209020601f19841690835b828110156118b45786850135825560209485019460019092019101611894565b50848210156118d15760001960f88660031b161c19848701351681555b505060018360011b0185555b505050506118ee6020830183611421565b6118fc818360018601611514565b5050604082013560028201556060820135600382015561191f608083018361175a565b61192d8183600486016117a3565b505061193c60a0830183611421565b61194a818360058601611514565b50505050565b81835260006001600160fb1b0383111561196957600080fd5b8260051b80836020870137939093016020019392505050565b82815260406020820152600061199883846116a7565b60c060408501526119ae610100850182846116ec565b9150506119be60208501856116a7565b603f19808685030160608701526119d68483856116ec565b935060408701356080870152606087013560a087015260808701359250601e19873603018312611a0557600080fd5b6020928701928301923591506001600160401b03821115611a2557600080fd5b8160051b3603831315611a3757600080fd5b808685030160c0870152611a4c848385611950565b9350611a5b60a08801886116a7565b93509150808685030160e0870152506112018383836116ec56fea26469706673582212201145bef5864298ec29237ebca6f482abcfe1acf16b7157941b9c7a699281c5b764736f6c63430008130033",
  "immutableReferences": {},
  "source": "// SPDX-License-Identifier: MIT\npragma solidity ^0.8.9;\nimport \"@openzeppelin/contracts/utils/Strings.sol\";\nimport \"@openzeppelin/contracts/token/ERC20/ERC20.sol\";\nimport \"@openzeppelin/contracts/access/Ownable.sol\";\n//import \"./AsamiClassic.sol\";\n//import \"./AsamiNostr.sol\";\n\ncontract Asami is Ownable {\n  IERC20 internal rewardToken;\n  \n  address admin;\n\n  string[] public topics;\n\n  mapping(uint256 => Account) public accounts;\n  uint256[] public accountIds;\n  mapping(address => Account) public accountByAddress;\n\n  PendingPriceUpdate[] pendingPriceUpdates;\n\n  struct PendingPriceUpdate {\n    uint256 accountId;\n    uint256 price;\n  }\n\n  PendingAppraisalUpdate[] pendingAppraisalUpdates;\n\n  struct PendingAppraisalUpdate {\n    uint256 accountId;\n    uint256 score;\n    uint256[] addTopics;\n    uint256[] removeTopics;\n  }\n\n  event XHandleAdded(uint256 accountId, Handle handle);\n  event XCampaignAdded(uint256 accountId, uint256 campaignId, Campaign campaign);\n  event XCollabAdded(uint256 accountId, Collab collab);\n\n  struct Account {\n      bool active;\n      uint256 docBalance;\n      uint256 asamiTokens;\n      address addr;\n      Handle x;\n      Handle nostr;\n      Handle instagram;\n      Campaign[] xCampaigns;\n      Campaign[] nostrCampaigns;\n      Campaign[] instagramCampaigns;\n      Collab[] xCollabs;\n      Collab[] nostrCollabs;\n      Collab[] instagramCollabs;\n  }\n\n  struct Handle {\n    string value;\n    string fixedId;\n    uint256 price;\n    uint256 score;\n    uint256[] topics;\n    string verificationMessageId;\n  }\n\n  struct Campaign {\n    uint256 budget;\n    uint256 remaining;\n    string contentId;\n  }\n\n  struct Collab {\n    uint256 accountId;\n    uint256 campaignId;\n    uint256 reward;\n  }\n\n  constructor(address _dollarOnChainAddress) {\n      rewardToken = IERC20(_dollarOnChainAddress);\n  }\n\n  function getTopics() external view returns (string[] memory) {\n    return topics;\n  }\n\n  function setAdmin(address _admin) external onlyOwner {\n    admin = _admin;\n  }\n\n  function addTopic(string calldata _name) external {\n    require(msg.sender == admin || msg.sender == owner());\n    topics.push(_name);\n  }\n\n  function addXHandle (\n    uint256 _accountId,\n    Handle calldata _handle\n  ) external {\n    require(msg.sender == admin || msg.sender == owner());\n    Account storage account = accounts[_accountId];\n    account.active = true;\n    account.x = _handle;\n    emit XHandleAdded(_accountId, _handle);\n  }\n\n  function addRequestedXCampaign(\n    uint256 _accountId,\n    Campaign calldata _campaign\n  ) external {\n    require(msg.sender == admin || msg.sender == owner());\n\n    require(_campaign.budget > 0);\n    require(bytes(_campaign.contentId).length > 0);\n\n    Account storage account = accounts[_accountId];\n    require(account.active && account.addr == address(0));\n    \n    require(rewardToken.transferFrom(msg.sender, address(this), _campaign.budget));\n\n    uint256 campaignId = account.xCampaigns.length;\n    account.xCampaigns.push(_campaign);\n    emit XCampaignAdded(_accountId, campaignId, _campaign);\n  }\n\n  /* A self-managed account can add its own campaign too function addXCampaign() { } */\n\n  function addXCollab(\n    uint256 _accountId,\n    Collab calldata _collab\n  ) external {\n    require(msg.sender == admin || msg.sender == owner());\n\n    Account storage member = accounts[_accountId];\n    require(member.active);\n\n    Account storage advertiser = accounts[_collab.accountId];\n    require(advertiser.active);\n\n    Campaign storage campaign = advertiser.xCampaigns[_collab.campaignId];\n    require(bytes(campaign.contentId).length > 0);\n\n    require(campaign.remaining > member.x.price);\n\n    member.docBalance += member.x.price;\n    campaign.remaining -= member.x.price;\n\n    emit XCollabAdded(_accountId, _collab);\n  }\n\n  /*\n  function addHandleTopicsForX(\n    uint256 calldata _accountId,\n    Handle calldata _handle\n  ) external onlyOwner {\n  }\n  */\n  \n  /*\n    uint constant oneDay = 60 * 60 * 24;\n    uint constant campaignDuration = oneDay * 14;\n\n    uint internal feePerOffer = 1e18;\n    uint internal maxFeePerCampaign = 50e18 ;\n    uint internal fees = 0;\n    address internal feesAddress;\n\n    event DebugEvent(string);\n\n    struct Campaign {\n        uint256 funding;\n        address advertiser;\n        uint256 startDate;\n        AsamiNostr.Terms nostrTerms;\n        AsamiClassic.Terms classicTerms;\n    }\n\n    Campaign[] internal campaigns;\n\n    string[] internal socialNetworks;\n\n    struct DeletionPenalty {\n        address payable creditor;\n        uint256 amount;\n    }\n    mapping(address => DeletionPenalty[]) internal deletionPenalties;\n\n    mapping(address => uint256) internal oracleFees;\n\n    struct OfferPointer {\n        uint campaignId;\n        uint offerId;\n    }\n\n    IERC20 internal rewardToken;\n    \n    constructor(address _dollarOnChainAddress) {\n        rewardToken = IERC20(_dollarOnChainAddress);\n    }\n\n    function nostrCreateCampaign(\n      uint256 _funding,\n      uint256 _startDate,\n      string calldata _requestedContent,\n      AsamiNostr.NewOffer[] calldata _newOffers\n    ) external {\n        require(_newOffers.length > 0);\n        require(_funding > 0);\n        require(bytes(_requestedContent).length > 0);\n\n        Campaign storage campaign = campaigns.push();\n        campaign.funding = _funding;\n        campaign.startDate = _startDate;\n        campaign.advertiser = payable(msg.sender);\n        campaign.nostrTerms.requestedContent = _requestedContent;\n\n        uint256 totalRewards = 0;\n        uint256 totalFees = 0;\n        for (uint i = 0; i < _newOffers.length; i++) {\n            require(_newOffers[i].rewardAmount > 0);\n            totalRewards += _newOffers[i].rewardAmount;\n            totalFees += feePerOffer;\n            AsamiNostr.Offer storage offer = campaign.nostrTerms.offers.push();\n            offer.state = AsamiNostr.OfferState.Assumed;\n            offer.collected = false;\n            offer.nostrHexPubkey = _newOffers[i].nostrHexPubkey;\n            offer.rewardAmount = _newOffers[i].rewardAmount;\n            offer.rewardAddress = payable(_newOffers[i].rewardAddress);\n            offer.nostrAffineX = _newOffers[i].nostrAffineX;\n            offer.nostrAffineY = _newOffers[i].nostrAffineY;\n            offer.messageId = bytes32(0);\n        }\n\n        if (totalFees > maxFeePerCampaign) {\n          totalFees = maxFeePerCampaign;\n        }\n\n        require((totalRewards + totalFees) == _funding);\n        require(rewardToken.transferFrom(msg.sender, address(this), _funding));\n    }\n\n    struct NewClassicCampaign{\n      uint256 funding;\n      uint256 startDate;\n      uint socialNetworkId;\n      string rulesUrl;\n      bytes32 rulesHash;\n      address oracleAddress;\n      uint256 oracleFee;\n      AsamiClassic.NewOffer[] newOffers;\n    }\n\n    function classicCreateCampaign(\n      NewClassicCampaign calldata _c\n    ) external {\n        require(_c.newOffers.length > 0, \"0\");\n        require(_c.funding > 0, \"1\");\n        require(bytes(_c.rulesUrl).length > 5, \"2\");\n        require(_c.rulesHash != bytes32(0), \"3\");\n        require(_c.oracleAddress != address(0), \"4\");\n        require(_c.oracleFee > 0, \"5\");\n        require(_c.socialNetworkId < socialNetworks.length, \"6\");\n\n        Campaign storage campaign = campaigns.push();\n        campaign.funding = _c.funding;\n        campaign.startDate = _c.startDate;\n        campaign.advertiser = payable(msg.sender);\n\n        AsamiClassic.Terms storage terms = campaign.classicTerms;\n        terms.socialNetworkId = _c.socialNetworkId;\n        terms.rulesUrl = _c.rulesUrl;\n        terms.rulesHash = _c.rulesHash;\n        terms.oracleAddress = _c.oracleAddress;\n        terms.oracleFee = _c.oracleFee;\n\n        uint256 totalRewards = 0;\n        uint256 totalFees = 0;\n        for (uint i = 0; i < _c.newOffers.length; i++) {\n            require(_c.newOffers[i].rewardAmount > 0);\n            totalRewards += _c.newOffers[i].rewardAmount;\n            totalFees += feePerOffer;\n\n            AsamiClassic.Offer storage offer = campaign.classicTerms.offers.push();\n            offer.state = AsamiClassic.OfferState.Assumed;\n            offer.username = _c.newOffers[i].username;\n            offer.rewardAmount = _c.newOffers[i].rewardAmount;\n            offer.rewardAddress = payable(_c.newOffers[i].rewardAddress);\n        }\n\n        if (totalFees > maxFeePerCampaign) {\n          totalFees = maxFeePerCampaign;\n        }\n\n        require((totalRewards + totalFees) == _c.funding, \"7\");\n        require(rewardToken.transferFrom(msg.sender, address(this), _c.funding), \"8\");\n    }\n\n    function nostrChallenge(OfferPointer calldata _p) public {\n        Campaign storage campaign = getCampaignInTimeWindow(_p, 0, oneDay);\n        require(campaign.advertiser == msg.sender);\n\n        AsamiNostr.Offer storage offer = campaign.nostrTerms.offers[_p.offerId];\n        require(offer.state == AsamiNostr.OfferState.Assumed, \"1\");\n        offer.state = AsamiNostr.OfferState.Challenged;\n    }\n\n    // Anyone can submit proof of a message being published, likely a Collaborator or someone on their behalf.\n    // The r value is the first 32 bytes of the signature, and the s value are the remaining 32,\n    function nostrConfirm(\n        OfferPointer calldata _p,\n        AsamiNostr.MessageProof calldata _proof\n    ) external {\n        Campaign storage campaign = getCampaignInTimeWindow(_p, 0, oneDay * 2);\n\n        AsamiNostr.Offer storage offer = campaign.nostrTerms.offers[_p.offerId];\n        require(offer.state == AsamiNostr.OfferState.Challenged);\n\n        bytes32 messageId = AsamiNostr.verifyCampaignMessage(\n          campaign.nostrTerms.requestedContent,\n          offer.nostrHexPubkey,\n          _proof,\n          offer.nostrAffineX,\n          offer.nostrAffineY\n        );\n\n        offer.messageId = messageId;\n        offer.state = AsamiNostr.OfferState.Confirmed;\n    }\n\n    function nostrRenounce(OfferPointer calldata _p) external {\n        Campaign storage campaign = getCampaignInTimeWindow(_p, 0, campaignDuration);\n        AsamiNostr.Offer storage offer = campaign.nostrTerms.offers[_p.offerId];\n\n        require(offer.rewardAddress == msg.sender);\n\n        require(\n          offer.state == AsamiNostr.OfferState.Assumed ||\n          offer.state == AsamiNostr.OfferState.Challenged ||\n          offer.state == AsamiNostr.OfferState.Confirmed\n        );\n\n        offer.state = AsamiNostr.OfferState.Renounced;\n    }\n\n    function nostrReportConfirmed(\n        OfferPointer calldata _p,\n        AsamiNostr.DeletionProof calldata _deletionProof\n    ) external {\n        uint256 startGas = gasleft();\n\n        Campaign storage campaign = getCampaignInTimeWindow(_p, 0, campaignDuration);\n\n        AsamiNostr.Offer storage offer = campaign.nostrTerms.offers[_p.offerId];\n        require(offer.state == AsamiNostr.OfferState.Confirmed);\n\n        require(AsamiNostr.idInTags(offer.messageId, _deletionProof.tags));\n\n        AsamiNostr.verifyDeletionMessage(\n          offer.nostrHexPubkey,\n          _deletionProof,\n          offer.nostrAffineX,\n          offer.nostrAffineY\n        );\n\n        offer.state = AsamiNostr.OfferState.ReportedDeletion;\n\n        uint256 refund = ((startGas - gasleft()) * 11) / 10;\n        deletionPenalties[offer.rewardAddress].push(DeletionPenalty(payable(msg.sender), refund));\n    }\n\n    function nostrReportAssumed (\n        OfferPointer calldata _p,\n        AsamiNostr.MessageProof calldata _messageProof,\n        AsamiNostr.DeletionProof calldata _deletionProof\n    )\n        external \n    {\n        uint256 startGas = gasleft();\n\n        Campaign storage campaign = getCampaignInTimeWindow(_p, 0, campaignDuration);\n\n        AsamiNostr.Offer storage offer = campaign.nostrTerms.offers[_p.offerId];\n        require(offer.state == AsamiNostr.OfferState.Assumed);\n\n        bytes32 messageId = AsamiNostr.verifyCampaignMessage(\n            campaign.nostrTerms.requestedContent,\n            offer.nostrHexPubkey,\n            _messageProof,\n            offer.nostrAffineX,\n            offer.nostrAffineY\n        );\n\n        offer.messageId = messageId;\n\n        require(AsamiNostr.idInTags(offer.messageId, _deletionProof.tags));\n\n        AsamiNostr.verifyDeletionMessage(\n          offer.nostrHexPubkey,\n          _deletionProof,\n          offer.nostrAffineX,\n          offer.nostrAffineY\n        );\n\n        offer.state = AsamiNostr.OfferState.ReportedDeletion;\n\n        uint256 refund = ((startGas - gasleft()) * 11) / 10;\n        deletionPenalties[offer.rewardAddress].push(DeletionPenalty(payable(msg.sender), refund));\n    }\n\n    function classicChallenge(\n      OfferPointer calldata _p\n    ) external {\n        Campaign storage campaign = getCampaignInTimeWindow(_p, 0, oneDay);\n        require(campaign.advertiser == msg.sender);\n\n        AsamiClassic.Offer storage offer = campaign.classicTerms.offers[_p.offerId];\n        require(offer.state == AsamiClassic.OfferState.Assumed);\n\n        offer.state = AsamiClassic.OfferState.Challenged;\n    }\n\n    function classicRequestConfirmation(\n      OfferPointer calldata _p\n    ) external {\n        Campaign storage campaign = getCampaignInTimeWindow(_p, 0, oneDay * 2 );\n\n        AsamiClassic.Offer storage offer = campaign.classicTerms.offers[_p.offerId];\n        require(offer.state == AsamiClassic.OfferState.Challenged);\n\n        require(rewardToken.transferFrom(msg.sender, address(this), campaign.classicTerms.oracleFee));\n\n        offer.state = AsamiClassic.OfferState.ConfirmationRequested;\n    }\n\n    function classicConfirm(\n      OfferPointer calldata _p,\n      bool _found\n    ) external {\n        Campaign storage campaign = getCampaignInTimeWindow(_p, 0, oneDay * 3 );\n        require(campaign.classicTerms.oracleAddress == msg.sender);\n\n        AsamiClassic.Offer storage offer = campaign.classicTerms.offers[_p.offerId];\n        require(offer.state == AsamiClassic.OfferState.ConfirmationRequested);\n        \n        oracleFees[campaign.classicTerms.oracleAddress] += campaign.classicTerms.oracleFee;\n\n        if (_found) {\n          offer.state = AsamiClassic.OfferState.Confirmed;\n        } else {\n          offer.state = AsamiClassic.OfferState.Refuted;\n        }\n    }\n\n    function classicConfirmFree(\n      OfferPointer calldata _p,\n      bool _found\n    ) external {\n        Campaign storage campaign = getCampaignInTimeWindow(_p, 0, oneDay * 3 );\n\n        require(campaign.classicTerms.oracleAddress == msg.sender);\n\n        AsamiClassic.Offer storage offer = campaign.classicTerms.offers[_p.offerId];\n        require(offer.state == AsamiClassic.OfferState.Challenged);\n        \n        if (_found) {\n          offer.state = AsamiClassic.OfferState.Confirmed;\n        } else {\n          offer.state = AsamiClassic.OfferState.Refuted;\n        }\n    }\n\n    function classicRenounce(\n      OfferPointer calldata _p\n    ) external {\n        Campaign storage campaign = getCampaignInTimeWindow(_p, 0, campaignDuration);\n        AsamiClassic.Offer storage offer = campaign.classicTerms.offers[_p.offerId];\n\n        require(offer.rewardAddress == msg.sender);\n\n        require(\n          offer.state == AsamiClassic.OfferState.Assumed ||\n          offer.state == AsamiClassic.OfferState.Challenged ||\n          offer.state == AsamiClassic.OfferState.Confirmed\n        );\n\n        offer.state = AsamiClassic.OfferState.Renounced;\n    }\n\n    function classicReportDeletion(\n      OfferPointer calldata _p\n    ) external {\n        Campaign storage campaign = getCampaignInTimeWindow(_p, 0, campaignDuration);\n        require(campaign.advertiser == msg.sender);\n\n        AsamiClassic.Offer storage offer = campaign.classicTerms.offers[_p.offerId];\n\n        require(\n          offer.state == AsamiClassic.OfferState.Assumed ||\n          offer.state == AsamiClassic.OfferState.Confirmed\n        );\n\n        require(rewardToken.transferFrom(msg.sender, address(this), campaign.classicTerms.oracleFee));\n\n        offer.deletionReportedAt = block.timestamp;\n        offer.state = AsamiClassic.OfferState.DeletionReported;\n    }\n\n    function classicConfirmDeletion(\n      OfferPointer calldata _p,\n      bool _wasDeleted\n    ) external {\n        Campaign storage campaign = getCampaignInTimeWindow(_p, 0, campaignDuration);\n        require(campaign.classicTerms.oracleAddress == msg.sender);\n\n        AsamiClassic.Offer storage offer = campaign.classicTerms.offers[_p.offerId];\n        require(offer.state == AsamiClassic.OfferState.DeletionReported);\n\n        oracleFees[campaign.classicTerms.oracleAddress] += campaign.classicTerms.oracleFee;\n\n        if (_wasDeleted) {\n          offer.state = AsamiClassic.OfferState.DeletionConfirmed;\n        } else {\n          offer.state = AsamiClassic.OfferState.Confirmed;\n        }\n    }\n\n    function getCollectableCollaboratorOffers(\n        address _collaborator\n    )\n        external view returns (OfferPointer[] memory, OfferPointer[] memory) \n    {\n        OfferPointer[] memory nostrPointers = new OfferPointer[](0);\n        OfferPointer[] memory classicPointers = new OfferPointer[](0);\n\n        for(uint i = 0; i < campaigns.length; i++) {\n          Campaign storage campaign = campaigns[i];\n          if( block.timestamp < (campaign.startDate + campaignDuration) ) {\n            continue;\n          }\n\n          if (campaign.nostrTerms.offers.length > 0) {\n            for(uint j = 0; j < campaign.nostrTerms.offers.length; j++) {\n              AsamiNostr.Offer storage offer = campaign.nostrTerms.offers[j];\n              if(\n                offer.rewardAddress == _collaborator && \n                AsamiNostr.collaboratorCanCollect(offer)\n              ) {\n                nostrPointers = pushPointer(nostrPointers, i, j);\n              }\n            }\n          } else {\n            for(uint j = 0; j < campaign.classicTerms.offers.length; j++) {\n              AsamiClassic.Offer memory offer = campaign.classicTerms.offers[j];\n              if(\n                offer.rewardAddress == _collaborator && \n                !offer.collaboratorCollected &&\n                offer.state != AsamiClassic.OfferState.Challenged &&\n                offer.state != AsamiClassic.OfferState.Refuted &&\n                offer.state != AsamiClassic.OfferState.Renounced &&\n                offer.state != AsamiClassic.OfferState.DeletionConfirmed\n              ) {\n                classicPointers = pushPointer(classicPointers, i, j);\n              }\n            }\n          }\n        }\n        return (nostrPointers, classicPointers);\n    }\n\n    function collectCollaboratorOffers(\n        address _collaborator,\n        OfferPointer[] calldata _nostrPointers,\n        OfferPointer[] calldata _classicPointers\n    ) external {\n        require(deletionPenalties[_collaborator].length == 0);\n\n        uint256 total = 0;\n\n        for (uint i = 0; i < _nostrPointers.length; i++) {\n            Campaign storage campaign = campaigns[_nostrPointers[i].campaignId];\n            require(block.timestamp >= (campaign.startDate + campaignDuration), \"1\"); // Campaign not ended.\n\n            AsamiNostr.Offer storage offer = campaign.nostrTerms.offers[_nostrPointers[i].offerId];\n\n            require(offer.rewardAddress == _collaborator, \"2\"); // Wrong collaborator.\n            require(AsamiNostr.collaboratorCanCollect(offer));\n\n            total = offer.rewardAmount;\n            offer.collected = true;\n        }\n\n        for (uint i = 0; i < _classicPointers.length; i++) {\n            Campaign storage campaign = campaigns[_classicPointers[i].campaignId];\n            require(block.timestamp >= (campaign.startDate + campaignDuration));\n\n            AsamiClassic.Offer storage offer = campaign.classicTerms.offers[_classicPointers[i].offerId];\n\n            require(offer.rewardAddress == _collaborator);\n            require(!offer.collaboratorCollected);\n\n            if( offer.state == AsamiClassic.OfferState.Assumed || offer.state == AsamiClassic.OfferState.Confirmed) {\n              total += offer.rewardAmount;\n            } else if( offer.state == AsamiClassic.OfferState.ConfirmationRequested ) {\n              total += campaign.classicTerms.oracleFee;\n            } else if( offer.state == AsamiClassic.OfferState.DeletionReported ) {\n              total += (offer.deletionReportedAt - campaign.startDate) * offer.rewardAmount / campaignDuration;\n            } else {\n              revert();\n            }\n            offer.collaboratorCollected = true;\n        }\n\n        require(rewardToken.transfer(_collaborator, total));\n    }\n\n    function getCollectableAdvertiserOffers(\n      address _advertiser\n    )\n        external view returns (OfferPointer[] memory, OfferPointer[] memory) \n    {\n        OfferPointer[] memory nostrPointers = new OfferPointer[](0);\n        OfferPointer[] memory classicPointers = new OfferPointer[](0);\n\n        for(uint i = 0; i < campaigns.length; i++) {\n          Campaign storage campaign = campaigns[i];\n\n          if( \n            campaign.advertiser != _advertiser ||\n            block.timestamp < (campaign.startDate + campaignDuration)\n          ){\n            continue;\n          }\n\n          if (campaign.nostrTerms.offers.length > 0) {\n            for(uint j = 0; j < campaign.nostrTerms.offers.length; j++) {\n              AsamiNostr.Offer storage offer = campaign.nostrTerms.offers[j];\n              if( AsamiNostr.advertiserCanCollect(offer) ) {\n                nostrPointers = pushPointer(nostrPointers, i, j);\n              }\n            }\n          } else {\n            for(uint j = 0; j < campaign.classicTerms.offers.length; j++) {\n              AsamiClassic.Offer memory offer = campaign.classicTerms.offers[j];\n              if(\n                !offer.advertiserCollected &&\n                offer.state != AsamiClassic.OfferState.Assumed &&\n                offer.state != AsamiClassic.OfferState.Confirmed\n              ) {\n                nostrPointers = pushPointer(nostrPointers, i, j);\n              }\n            }\n          }\n        }\n        return (nostrPointers, classicPointers);\n    }\n\n    function collectAdvertiserOffers(\n      address payable _advertiser,\n      OfferPointer[] calldata _nostrOffers,\n      OfferPointer[] calldata _classicOffers\n    ) external {\n        uint256 total = 0;\n\n        for (uint i = 0; i < _nostrOffers.length; i++) {\n            OfferPointer memory p = _nostrOffers[i];\n\n            Campaign storage campaign = campaigns[p.campaignId];\n            require(campaign.advertiser == _advertiser);\n            require(block.timestamp >= (campaign.startDate + campaignDuration));\n\n            AsamiNostr.Offer storage offer = campaign.nostrTerms.offers[p.offerId];\n\n            require(AsamiNostr.advertiserCanCollect(offer));\n\n            total += offer.rewardAmount;\n            offer.collected = true;\n        }\n\n        for (uint i = 0; i < _classicOffers.length; i++) {\n            OfferPointer memory p = _classicOffers[i];\n\n            Campaign storage campaign = campaigns[p.campaignId];\n            require(campaign.advertiser == _advertiser);\n            require(block.timestamp >= (campaign.startDate + campaignDuration));\n\n            AsamiClassic.Offer storage offer = campaign.classicTerms.offers[p.offerId];\n            require(!offer.advertiserCollected);\n\n            if(\n              offer.state == AsamiClassic.OfferState.Challenged ||\n              offer.state == AsamiClassic.OfferState.ConfirmationRequested ||\n              offer.state == AsamiClassic.OfferState.Refuted ||\n              offer.state == AsamiClassic.OfferState.Renounced ||\n              offer.state == AsamiClassic.OfferState.DeletionConfirmed\n            ) {\n              total += offer.rewardAmount;\n            } else if( offer.state == AsamiClassic.OfferState.DeletionReported ) {\n              total += (campaignDuration - (offer.deletionReportedAt - campaign.startDate)) * offer.rewardAmount / campaignDuration;\n            } else {\n              revert();\n            }\n            offer.advertiserCollected = true;\n        }\n\n        require(rewardToken.transfer(_advertiser, total));\n    }\n\n    function payDeletionPenalties(\n      address _debtor\n    ) external payable {\n        DeletionPenalty[] storage penalties = deletionPenalties[_debtor];\n        uint256 total = 0;\n\n        for (uint256 i = 0; i < penalties.length; i++) {\n            total += penalties[i].amount;\n        }\n\n        require(total > 0);\n        require(msg.value == total);\n\n        for (uint256 i = 0; i < penalties.length; i++) {\n            payable(penalties[i].creditor).transfer(penalties[i].amount);\n        }\n\n        delete deletionPenalties[_debtor];\n    }\n\n\n    function setAsamiFeePerOffer(uint256 _fee) external onlyOwner {\n        feePerOffer = _fee;\n    }\n\n    function setAsamiMaxFeePerCampaign(uint256 _fee) external onlyOwner {\n        maxFeePerCampaign = _fee;\n    }\n\n    function setAsamiFeesAddress(address _feesAddress) external onlyOwner {\n        feesAddress = _feesAddress;\n    }\n\n    function collectAsamiFees() external {\n        require(fees > 0);\n        require(rewardToken.transferFrom(address(this), feesAddress, fees));\n        fees = 0;\n    }\n\n    function collectOracleFees(address _oracle) external {\n        require(oracleFees[_oracle] > 0);\n        require(rewardToken.transferFrom(address(this), _oracle, oracleFees[_oracle]));\n        oracleFees[_oracle] = 0;\n    }\n\n    function nostrGetCampaignOffer(OfferPointer memory _p) external view returns (AsamiNostr.Offer memory) {\n        return campaigns[_p.campaignId].nostrTerms.offers[_p.offerId];\n    }\n\n    function classicGetCampaignOffer(OfferPointer memory _p) external view returns (AsamiClassic.Offer memory) {\n        return campaigns[_p.campaignId].classicTerms.offers[_p.offerId];\n    }\n\n    function calculateCampaignFees(uint _offerCount) external view returns (uint256) {\n        uint256 total = _offerCount * feePerOffer;\n        return total > maxFeePerCampaign ? maxFeePerCampaign : total;\n    }\n\n    function getCampaigns() external view returns (Campaign[] memory) {\n        return campaigns;\n    }\n\n    function getSocialNetworks() external view returns (string[] memory) {\n        return socialNetworks;\n    }\n\n    function getCampaignInTimeWindow(\n      OfferPointer calldata _p,\n      uint256 _offset,\n      uint256 _duration\n    ) internal view returns (Campaign storage) {\n        Campaign storage campaign = campaigns[_p.campaignId];\n        require(block.timestamp >= (campaign.startDate + _offset), \"99\");\n        require(block.timestamp <= (campaign.startDate + _offset + _duration), \"99\");\n        return campaign;\n    }\n\n    function pushPointer(\n      OfferPointer[] memory _pointers,\n      uint256 _campaignId,\n      uint256 _offerId\n    ) internal pure returns (OfferPointer[] memory) {\n      OfferPointer[] memory tmp = new OfferPointer[](_pointers.length + 1);\n      for (uint k = 0; k < _pointers.length; k++) {\n          tmp[k] = _pointers[k];\n      }\n      tmp[_pointers.length] = OfferPointer(_campaignId, _offerId);\n      return tmp;\n    }\n  */\n}\n",
  "sourcePath": "/home/nubis/asami/contract/contracts/Asami.sol",
  "compiler": {
    "name": "solc",
    "version": "0.8.19+commit.7dd6d404.Emscripten.clang"
  },
  "schemaVersion": "3.4.15",
  "updatedAt": "2023-10-24T18:27:20.979Z",
  "networkType": "ethereum",
  "devdoc": {
    "kind": "dev",
    "methods": {
      "owner()": {
        "details": "Returns the address of the current owner."
      },
      "renounceOwnership()": {
        "details": "Leaves the contract without owner. It will not be possible to call `onlyOwner` functions. Can only be called by the current owner. NOTE: Renouncing ownership will leave the contract without an owner, thereby disabling any functionality that is only available to the owner."
      },
      "transferOwnership(address)": {
        "details": "Transfers ownership of the contract to a new account (`newOwner`). Can only be called by the current owner."
      }
    },
    "version": 1
  },
  "userdoc": {
    "kind": "user",
    "methods": {},
    "version": 1
  }
}