{
  "contractName": "Asami",
  "abi": [
    {
      "inputs": [
        {
          "internalType": "address",
          "name": "_dollarOnChainAddress",
          "type": "address"
        },
        {
          "internalType": "address",
          "name": "_nostrUtilsAddress",
          "type": "address"
        }
      ],
      "stateMutability": "nonpayable",
      "type": "constructor"
    },
    {
      "anonymous": false,
      "inputs": [
        {
          "components": [
            {
              "internalType": "uint256",
              "name": "id",
              "type": "uint256"
            },
            {
              "internalType": "address",
              "name": "addr",
              "type": "address"
            },
            {
              "internalType": "uint256",
              "name": "unclaimedAsamiTokens",
              "type": "uint256"
            },
            {
              "internalType": "uint256",
              "name": "unclaimedDocRewards",
              "type": "uint256"
            },
            {
              "internalType": "bool",
              "name": "nostrSelfManaged",
              "type": "bool"
            },
            {
              "internalType": "bool",
              "name": "nostrAbuseProven",
              "type": "bool"
            },
            {
              "internalType": "uint256[]",
              "name": "handles",
              "type": "uint256[]"
            },
            {
              "internalType": "uint256[]",
              "name": "campaigns",
              "type": "uint256[]"
            },
            {
              "internalType": "uint256[]",
              "name": "collabs",
              "type": "uint256[]"
            }
          ],
          "indexed": false,
          "internalType": "struct Asami.Account",
          "name": "account",
          "type": "tuple"
        }
      ],
      "name": "AccountSaved",
      "type": "event"
    },
    {
      "anonymous": false,
      "inputs": [
        {
          "indexed": true,
          "internalType": "address",
          "name": "owner",
          "type": "address"
        },
        {
          "indexed": true,
          "internalType": "address",
          "name": "spender",
          "type": "address"
        },
        {
          "indexed": false,
          "internalType": "uint256",
          "name": "value",
          "type": "uint256"
        }
      ],
      "name": "Approval",
      "type": "event"
    },
    {
      "anonymous": false,
      "inputs": [
        {
          "components": [
            {
              "internalType": "uint256",
              "name": "id",
              "type": "uint256"
            },
            {
              "internalType": "uint256",
              "name": "accountId",
              "type": "uint256"
            },
            {
              "internalType": "enum Asami.Site",
              "name": "site",
              "type": "uint8"
            },
            {
              "internalType": "uint256",
              "name": "budget",
              "type": "uint256"
            },
            {
              "internalType": "uint256",
              "name": "remaining",
              "type": "uint256"
            },
            {
              "internalType": "string",
              "name": "contentId",
              "type": "string"
            },
            {
              "internalType": "uint256",
              "name": "priceScoreRatio",
              "type": "uint256"
            },
            {
              "internalType": "uint256[]",
              "name": "topics",
              "type": "uint256[]"
            },
            {
              "internalType": "uint256",
              "name": "validUntil",
              "type": "uint256"
            }
          ],
          "indexed": false,
          "internalType": "struct Asami.Campaign",
          "name": "campaign",
          "type": "tuple"
        }
      ],
      "name": "CampaignSaved",
      "type": "event"
    },
    {
      "anonymous": false,
      "inputs": [
        {
          "components": [
            {
              "internalType": "uint256",
              "name": "id",
              "type": "uint256"
            },
            {
              "internalType": "uint256",
              "name": "handleId",
              "type": "uint256"
            },
            {
              "internalType": "uint256",
              "name": "campaignId",
              "type": "uint256"
            },
            {
              "internalType": "uint256",
              "name": "gross",
              "type": "uint256"
            },
            {
              "internalType": "uint256",
              "name": "fee",
              "type": "uint256"
            },
            {
              "internalType": "string",
              "name": "proof",
              "type": "string"
            },
            {
              "internalType": "uint256",
              "name": "createdAt",
              "type": "uint256"
            }
          ],
          "indexed": false,
          "internalType": "struct Asami.Collab",
          "name": "collab",
          "type": "tuple"
        }
      ],
      "name": "CollabSaved",
      "type": "event"
    },
    {
      "anonymous": false,
      "inputs": [
        {
          "components": [
            {
              "internalType": "uint256",
              "name": "id",
              "type": "uint256"
            },
            {
              "internalType": "uint256",
              "name": "accountId",
              "type": "uint256"
            },
            {
              "internalType": "enum Asami.Site",
              "name": "site",
              "type": "uint8"
            },
            {
              "internalType": "uint256",
              "name": "price",
              "type": "uint256"
            },
            {
              "internalType": "uint256",
              "name": "score",
              "type": "uint256"
            },
            {
              "internalType": "uint256[]",
              "name": "topics",
              "type": "uint256[]"
            },
            {
              "internalType": "string",
              "name": "username",
              "type": "string"
            },
            {
              "internalType": "string",
              "name": "userId",
              "type": "string"
            },
            {
              "internalType": "uint256",
              "name": "nostrAffineX",
              "type": "uint256"
            },
            {
              "internalType": "uint256",
              "name": "nostrAffineY",
              "type": "uint256"
            }
          ],
          "indexed": false,
          "internalType": "struct Asami.Handle",
          "name": "handle",
          "type": "tuple"
        }
      ],
      "name": "HandleSaved",
      "type": "event"
    },
    {
      "anonymous": false,
      "inputs": [
        {
          "components": [
            {
              "internalType": "uint256",
              "name": "id",
              "type": "uint256"
            },
            {
              "internalType": "uint256",
              "name": "handleId",
              "type": "uint256"
            },
            {
              "internalType": "string",
              "name": "username",
              "type": "string"
            },
            {
              "internalType": "uint256",
              "name": "price",
              "type": "uint256"
            },
            {
              "internalType": "uint256",
              "name": "score",
              "type": "uint256"
            },
            {
              "internalType": "uint256[]",
              "name": "topics",
              "type": "uint256[]"
            }
          ],
          "indexed": false,
          "internalType": "struct Asami.HandleUpdate",
          "name": "handleUpdate",
          "type": "tuple"
        }
      ],
      "name": "HandleUpdateSaved",
      "type": "event"
    },
    {
      "anonymous": false,
      "inputs": [
        {
          "indexed": true,
          "internalType": "address",
          "name": "previousOwner",
          "type": "address"
        },
        {
          "indexed": true,
          "internalType": "address",
          "name": "newOwner",
          "type": "address"
        }
      ],
      "name": "OwnershipTransferred",
      "type": "event"
    },
    {
      "anonymous": false,
      "inputs": [
        {
          "indexed": true,
          "internalType": "address",
          "name": "from",
          "type": "address"
        },
        {
          "indexed": true,
          "internalType": "address",
          "name": "to",
          "type": "address"
        },
        {
          "indexed": false,
          "internalType": "uint256",
          "name": "value",
          "type": "uint256"
        }
      ],
      "name": "Transfer",
      "type": "event"
    },
    {
      "inputs": [
        {
          "internalType": "address",
          "name": "",
          "type": "address"
        }
      ],
      "name": "accountIdByAddress",
      "outputs": [
        {
          "internalType": "uint256",
          "name": "",
          "type": "uint256"
        }
      ],
      "stateMutability": "view",
      "type": "function",
      "constant": true
    },
    {
      "inputs": [
        {
          "internalType": "uint256",
          "name": "",
          "type": "uint256"
        }
      ],
      "name": "accountIds",
      "outputs": [
        {
          "internalType": "uint256",
          "name": "",
          "type": "uint256"
        }
      ],
      "stateMutability": "view",
      "type": "function",
      "constant": true
    },
    {
      "inputs": [
        {
          "internalType": "uint256",
          "name": "",
          "type": "uint256"
        }
      ],
      "name": "accounts",
      "outputs": [
        {
          "internalType": "uint256",
          "name": "id",
          "type": "uint256"
        },
        {
          "internalType": "address",
          "name": "addr",
          "type": "address"
        },
        {
          "internalType": "uint256",
          "name": "unclaimedAsamiTokens",
          "type": "uint256"
        },
        {
          "internalType": "uint256",
          "name": "unclaimedDocRewards",
          "type": "uint256"
        },
        {
          "internalType": "bool",
          "name": "nostrSelfManaged",
          "type": "bool"
        },
        {
          "internalType": "bool",
          "name": "nostrAbuseProven",
          "type": "bool"
        }
      ],
      "stateMutability": "view",
      "type": "function",
      "constant": true
    },
    {
      "inputs": [],
      "name": "admin",
      "outputs": [
        {
          "internalType": "address",
          "name": "",
          "type": "address"
        }
      ],
      "stateMutability": "view",
      "type": "function",
      "constant": true
    },
    {
      "inputs": [],
      "name": "adminTreasury",
      "outputs": [
        {
          "internalType": "address",
          "name": "",
          "type": "address"
        }
      ],
      "stateMutability": "view",
      "type": "function",
      "constant": true
    },
    {
      "inputs": [
        {
          "internalType": "address",
          "name": "owner",
          "type": "address"
        },
        {
          "internalType": "address",
          "name": "spender",
          "type": "address"
        }
      ],
      "name": "allowance",
      "outputs": [
        {
          "internalType": "uint256",
          "name": "",
          "type": "uint256"
        }
      ],
      "stateMutability": "view",
      "type": "function",
      "constant": true
    },
    {
      "inputs": [
        {
          "internalType": "address",
          "name": "spender",
          "type": "address"
        },
        {
          "internalType": "uint256",
          "name": "amount",
          "type": "uint256"
        }
      ],
      "name": "approve",
      "outputs": [
        {
          "internalType": "bool",
          "name": "",
          "type": "bool"
        }
      ],
      "stateMutability": "nonpayable",
      "type": "function"
    },
    {
      "inputs": [
        {
          "internalType": "address",
          "name": "account",
          "type": "address"
        }
      ],
      "name": "balanceOf",
      "outputs": [
        {
          "internalType": "uint256",
          "name": "",
          "type": "uint256"
        }
      ],
      "stateMutability": "view",
      "type": "function",
      "constant": true
    },
    {
      "inputs": [
        {
          "internalType": "uint256",
          "name": "",
          "type": "uint256"
        }
      ],
      "name": "campaigns",
      "outputs": [
        {
          "internalType": "uint256",
          "name": "id",
          "type": "uint256"
        },
        {
          "internalType": "uint256",
          "name": "accountId",
          "type": "uint256"
        },
        {
          "internalType": "enum Asami.Site",
          "name": "site",
          "type": "uint8"
        },
        {
          "internalType": "uint256",
          "name": "budget",
          "type": "uint256"
        },
        {
          "internalType": "uint256",
          "name": "remaining",
          "type": "uint256"
        },
        {
          "internalType": "string",
          "name": "contentId",
          "type": "string"
        },
        {
          "internalType": "uint256",
          "name": "priceScoreRatio",
          "type": "uint256"
        },
        {
          "internalType": "uint256",
          "name": "validUntil",
          "type": "uint256"
        }
      ],
      "stateMutability": "view",
      "type": "function",
      "constant": true
    },
    {
      "inputs": [
        {
          "internalType": "uint256",
          "name": "",
          "type": "uint256"
        }
      ],
      "name": "collabs",
      "outputs": [
        {
          "internalType": "uint256",
          "name": "id",
          "type": "uint256"
        },
        {
          "internalType": "uint256",
          "name": "handleId",
          "type": "uint256"
        },
        {
          "internalType": "uint256",
          "name": "campaignId",
          "type": "uint256"
        },
        {
          "internalType": "uint256",
          "name": "gross",
          "type": "uint256"
        },
        {
          "internalType": "uint256",
          "name": "fee",
          "type": "uint256"
        },
        {
          "internalType": "string",
          "name": "proof",
          "type": "string"
        },
        {
          "internalType": "uint256",
          "name": "createdAt",
          "type": "uint256"
        }
      ],
      "stateMutability": "view",
      "type": "function",
      "constant": true
    },
    {
      "inputs": [],
      "name": "decimals",
      "outputs": [
        {
          "internalType": "uint8",
          "name": "",
          "type": "uint8"
        }
      ],
      "stateMutability": "view",
      "type": "function",
      "constant": true
    },
    {
      "inputs": [
        {
          "internalType": "address",
          "name": "spender",
          "type": "address"
        },
        {
          "internalType": "uint256",
          "name": "subtractedValue",
          "type": "uint256"
        }
      ],
      "name": "decreaseAllowance",
      "outputs": [
        {
          "internalType": "bool",
          "name": "",
          "type": "bool"
        }
      ],
      "stateMutability": "nonpayable",
      "type": "function"
    },
    {
      "inputs": [],
      "name": "feePool",
      "outputs": [
        {
          "internalType": "uint256",
          "name": "",
          "type": "uint256"
        }
      ],
      "stateMutability": "view",
      "type": "function",
      "constant": true
    },
    {
      "inputs": [],
      "name": "feeRate",
      "outputs": [
        {
          "internalType": "uint256",
          "name": "",
          "type": "uint256"
        }
      ],
      "stateMutability": "view",
      "type": "function",
      "constant": true
    },
    {
      "inputs": [
        {
          "internalType": "uint256",
          "name": "",
          "type": "uint256"
        }
      ],
      "name": "handleUpdateByHandleId",
      "outputs": [
        {
          "internalType": "uint256",
          "name": "",
          "type": "uint256"
        }
      ],
      "stateMutability": "view",
      "type": "function",
      "constant": true
    },
    {
      "inputs": [
        {
          "internalType": "uint256",
          "name": "",
          "type": "uint256"
        }
      ],
      "name": "handleUpdates",
      "outputs": [
        {
          "internalType": "uint256",
          "name": "id",
          "type": "uint256"
        },
        {
          "internalType": "uint256",
          "name": "handleId",
          "type": "uint256"
        },
        {
          "internalType": "string",
          "name": "username",
          "type": "string"
        },
        {
          "internalType": "uint256",
          "name": "price",
          "type": "uint256"
        },
        {
          "internalType": "uint256",
          "name": "score",
          "type": "uint256"
        }
      ],
      "stateMutability": "view",
      "type": "function",
      "constant": true
    },
    {
      "inputs": [
        {
          "internalType": "uint256",
          "name": "",
          "type": "uint256"
        }
      ],
      "name": "handles",
      "outputs": [
        {
          "internalType": "uint256",
          "name": "id",
          "type": "uint256"
        },
        {
          "internalType": "uint256",
          "name": "accountId",
          "type": "uint256"
        },
        {
          "internalType": "enum Asami.Site",
          "name": "site",
          "type": "uint8"
        },
        {
          "internalType": "uint256",
          "name": "price",
          "type": "uint256"
        },
        {
          "internalType": "uint256",
          "name": "score",
          "type": "uint256"
        },
        {
          "internalType": "string",
          "name": "username",
          "type": "string"
        },
        {
          "internalType": "string",
          "name": "userId",
          "type": "string"
        },
        {
          "internalType": "uint256",
          "name": "nostrAffineX",
          "type": "uint256"
        },
        {
          "internalType": "uint256",
          "name": "nostrAffineY",
          "type": "uint256"
        }
      ],
      "stateMutability": "view",
      "type": "function",
      "constant": true
    },
    {
      "inputs": [
        {
          "internalType": "uint256",
          "name": "",
          "type": "uint256"
        }
      ],
      "name": "holders",
      "outputs": [
        {
          "internalType": "address",
          "name": "",
          "type": "address"
        }
      ],
      "stateMutability": "view",
      "type": "function",
      "constant": true
    },
    {
      "inputs": [
        {
          "internalType": "address",
          "name": "spender",
          "type": "address"
        },
        {
          "internalType": "uint256",
          "name": "addedValue",
          "type": "uint256"
        }
      ],
      "name": "increaseAllowance",
      "outputs": [
        {
          "internalType": "bool",
          "name": "",
          "type": "bool"
        }
      ],
      "stateMutability": "nonpayable",
      "type": "function"
    },
    {
      "inputs": [],
      "name": "lastPayoutCycle",
      "outputs": [
        {
          "internalType": "uint256",
          "name": "",
          "type": "uint256"
        }
      ],
      "stateMutability": "view",
      "type": "function",
      "constant": true
    },
    {
      "inputs": [],
      "name": "lastUpdateCycle",
      "outputs": [
        {
          "internalType": "uint256",
          "name": "",
          "type": "uint256"
        }
      ],
      "stateMutability": "view",
      "type": "function",
      "constant": true
    },
    {
      "inputs": [],
      "name": "lastVoteCycle",
      "outputs": [
        {
          "internalType": "uint256",
          "name": "",
          "type": "uint256"
        }
      ],
      "stateMutability": "view",
      "type": "function",
      "constant": true
    },
    {
      "inputs": [],
      "name": "name",
      "outputs": [
        {
          "internalType": "string",
          "name": "",
          "type": "string"
        }
      ],
      "stateMutability": "view",
      "type": "function",
      "constant": true
    },
    {
      "inputs": [],
      "name": "nostrUtils",
      "outputs": [
        {
          "internalType": "contract NostrUtils",
          "name": "",
          "type": "address"
        }
      ],
      "stateMutability": "view",
      "type": "function",
      "constant": true
    },
    {
      "inputs": [],
      "name": "owner",
      "outputs": [
        {
          "internalType": "address",
          "name": "",
          "type": "address"
        }
      ],
      "stateMutability": "view",
      "type": "function",
      "constant": true
    },
    {
      "inputs": [],
      "name": "payoutsRemaining",
      "outputs": [
        {
          "internalType": "uint256",
          "name": "",
          "type": "uint256"
        }
      ],
      "stateMutability": "view",
      "type": "function",
      "constant": true
    },
    {
      "inputs": [],
      "name": "payoutsTotal",
      "outputs": [
        {
          "internalType": "uint256",
          "name": "",
          "type": "uint256"
        }
      ],
      "stateMutability": "view",
      "type": "function",
      "constant": true
    },
    {
      "inputs": [],
      "name": "renounceOwnership",
      "outputs": [],
      "stateMutability": "nonpayable",
      "type": "function"
    },
    {
      "inputs": [],
      "name": "symbol",
      "outputs": [
        {
          "internalType": "string",
          "name": "",
          "type": "string"
        }
      ],
      "stateMutability": "view",
      "type": "function",
      "constant": true
    },
    {
      "inputs": [
        {
          "internalType": "uint256",
          "name": "",
          "type": "uint256"
        }
      ],
      "name": "topics",
      "outputs": [
        {
          "internalType": "string",
          "name": "",
          "type": "string"
        }
      ],
      "stateMutability": "view",
      "type": "function",
      "constant": true
    },
    {
      "inputs": [],
      "name": "totalSupply",
      "outputs": [
        {
          "internalType": "uint256",
          "name": "",
          "type": "uint256"
        }
      ],
      "stateMutability": "view",
      "type": "function",
      "constant": true
    },
    {
      "inputs": [
        {
          "internalType": "address",
          "name": "to",
          "type": "address"
        },
        {
          "internalType": "uint256",
          "name": "amount",
          "type": "uint256"
        }
      ],
      "name": "transfer",
      "outputs": [
        {
          "internalType": "bool",
          "name": "",
          "type": "bool"
        }
      ],
      "stateMutability": "nonpayable",
      "type": "function"
    },
    {
      "inputs": [
        {
          "internalType": "address",
          "name": "from",
          "type": "address"
        },
        {
          "internalType": "address",
          "name": "to",
          "type": "address"
        },
        {
          "internalType": "uint256",
          "name": "amount",
          "type": "uint256"
        }
      ],
      "name": "transferFrom",
      "outputs": [
        {
          "internalType": "bool",
          "name": "",
          "type": "bool"
        }
      ],
      "stateMutability": "nonpayable",
      "type": "function"
    },
    {
      "inputs": [
        {
          "internalType": "address",
          "name": "newOwner",
          "type": "address"
        }
      ],
      "name": "transferOwnership",
      "outputs": [],
      "stateMutability": "nonpayable",
      "type": "function"
    },
    {
      "inputs": [],
      "name": "updatesRemaining",
      "outputs": [
        {
          "internalType": "uint256",
          "name": "",
          "type": "uint256"
        }
      ],
      "stateMutability": "view",
      "type": "function",
      "constant": true
    },
    {
      "inputs": [],
      "name": "updatesTotal",
      "outputs": [
        {
          "internalType": "uint256",
          "name": "",
          "type": "uint256"
        }
      ],
      "stateMutability": "view",
      "type": "function",
      "constant": true
    },
    {
      "inputs": [
        {
          "internalType": "uint256",
          "name": "",
          "type": "uint256"
        }
      ],
      "name": "voteIdByAccountId",
      "outputs": [
        {
          "internalType": "uint256",
          "name": "",
          "type": "uint256"
        }
      ],
      "stateMutability": "view",
      "type": "function",
      "constant": true
    },
    {
      "inputs": [],
      "name": "votedAverage",
      "outputs": [
        {
          "internalType": "uint256",
          "name": "",
          "type": "uint256"
        }
      ],
      "stateMutability": "view",
      "type": "function",
      "constant": true
    },
    {
      "inputs": [
        {
          "internalType": "uint256",
          "name": "",
          "type": "uint256"
        }
      ],
      "name": "votes",
      "outputs": [
        {
          "internalType": "uint256",
          "name": "",
          "type": "uint256"
        }
      ],
      "stateMutability": "view",
      "type": "function",
      "constant": true
    },
    {
      "inputs": [],
      "name": "votesRemaining",
      "outputs": [
        {
          "internalType": "uint256",
          "name": "",
          "type": "uint256"
        }
      ],
      "stateMutability": "view",
      "type": "function",
      "constant": true
    },
    {
      "inputs": [],
      "name": "votesTotal",
      "outputs": [
        {
          "internalType": "uint256",
          "name": "",
          "type": "uint256"
        }
      ],
      "stateMutability": "view",
      "type": "function",
      "constant": true
    },
    {
      "inputs": [
        {
          "internalType": "address",
          "name": "_admin",
          "type": "address"
        },
        {
          "internalType": "address",
          "name": "_adminTreasury",
          "type": "address"
        }
      ],
      "name": "setAdmin",
      "outputs": [],
      "stateMutability": "nonpayable",
      "type": "function"
    },
    {
      "inputs": [],
      "name": "getTopics",
      "outputs": [
        {
          "internalType": "string[]",
          "name": "",
          "type": "string[]"
        }
      ],
      "stateMutability": "view",
      "type": "function",
      "constant": true
    },
    {
      "inputs": [
        {
          "internalType": "string",
          "name": "_name",
          "type": "string"
        }
      ],
      "name": "addTopic",
      "outputs": [],
      "stateMutability": "nonpayable",
      "type": "function"
    },
    {
      "inputs": [
        {
          "components": [
            {
              "internalType": "uint256",
              "name": "accountId",
              "type": "uint256"
            },
            {
              "internalType": "address",
              "name": "addr",
              "type": "address"
            }
          ],
          "internalType": "struct Asami.AdminClaimAccountsInput[]",
          "name": "_input",
          "type": "tuple[]"
        }
      ],
      "name": "claimAccounts",
      "outputs": [],
      "stateMutability": "nonpayable",
      "type": "function"
    },
    {
      "inputs": [
        {
          "components": [
            {
              "internalType": "uint256",
              "name": "id",
              "type": "uint256"
            },
            {
              "internalType": "uint256",
              "name": "accountId",
              "type": "uint256"
            },
            {
              "internalType": "enum Asami.Site",
              "name": "site",
              "type": "uint8"
            },
            {
              "internalType": "uint256",
              "name": "price",
              "type": "uint256"
            },
            {
              "internalType": "uint256",
              "name": "score",
              "type": "uint256"
            },
            {
              "internalType": "uint256[]",
              "name": "topics",
              "type": "uint256[]"
            },
            {
              "internalType": "string",
              "name": "username",
              "type": "string"
            },
            {
              "internalType": "string",
              "name": "userId",
              "type": "string"
            },
            {
              "internalType": "uint256",
              "name": "nostrAffineX",
              "type": "uint256"
            },
            {
              "internalType": "uint256",
              "name": "nostrAffineY",
              "type": "uint256"
            }
          ],
          "internalType": "struct Asami.Handle[]",
          "name": "_inputs",
          "type": "tuple[]"
        }
      ],
      "name": "adminMakeHandles",
      "outputs": [],
      "stateMutability": "nonpayable",
      "type": "function"
    },
    {
      "inputs": [
        {
          "components": [
            {
              "internalType": "enum Asami.Site",
              "name": "site",
              "type": "uint8"
            },
            {
              "internalType": "uint256",
              "name": "budget",
              "type": "uint256"
            },
            {
              "internalType": "string",
              "name": "contentId",
              "type": "string"
            },
            {
              "internalType": "uint256",
              "name": "priceScoreRatio",
              "type": "uint256"
            },
            {
              "internalType": "uint256[]",
              "name": "topics",
              "type": "uint256[]"
            },
            {
              "internalType": "uint256",
              "name": "validUntil",
              "type": "uint256"
            }
          ],
          "internalType": "struct Asami.CampaignInput[]",
          "name": "_inputs",
          "type": "tuple[]"
        }
      ],
      "name": "makeCampaigns",
      "outputs": [],
      "stateMutability": "nonpayable",
      "type": "function"
    },
    {
      "inputs": [
        {
          "components": [
            {
              "internalType": "uint256",
              "name": "accountId",
              "type": "uint256"
            },
            {
              "components": [
                {
                  "internalType": "enum Asami.Site",
                  "name": "site",
                  "type": "uint8"
                },
                {
                  "internalType": "uint256",
                  "name": "budget",
                  "type": "uint256"
                },
                {
                  "internalType": "string",
                  "name": "contentId",
                  "type": "string"
                },
                {
                  "internalType": "uint256",
                  "name": "priceScoreRatio",
                  "type": "uint256"
                },
                {
                  "internalType": "uint256[]",
                  "name": "topics",
                  "type": "uint256[]"
                },
                {
                  "internalType": "uint256",
                  "name": "validUntil",
                  "type": "uint256"
                }
              ],
              "internalType": "struct Asami.CampaignInput",
              "name": "attrs",
              "type": "tuple"
            }
          ],
          "internalType": "struct Asami.AdminCampaignInput[]",
          "name": "_inputs",
          "type": "tuple[]"
        }
      ],
      "name": "adminMakeCampaigns",
      "outputs": [],
      "stateMutability": "nonpayable",
      "type": "function"
    },
    {
      "inputs": [
        {
          "components": [
            {
              "internalType": "uint256",
              "name": "campaignId",
              "type": "uint256"
            },
            {
              "internalType": "uint256",
              "name": "handleId",
              "type": "uint256"
            }
          ],
          "internalType": "struct Asami.AdminMakeCollabsInput[]",
          "name": "_collabs",
          "type": "tuple[]"
        }
      ],
      "name": "adminMakeCollabs",
      "outputs": [],
      "stateMutability": "nonpayable",
      "type": "function"
    },
    {
      "inputs": [
        {
          "internalType": "uint256[]",
          "name": "_campaignIds",
          "type": "uint256[]"
        }
      ],
      "name": "reimburseDueCampaigns",
      "outputs": [],
      "stateMutability": "nonpayable",
      "type": "function"
    },
    {
      "inputs": [
        {
          "internalType": "uint256",
          "name": "_handleId",
          "type": "uint256"
        },
        {
          "internalType": "uint256",
          "name": "_price",
          "type": "uint256"
        }
      ],
      "name": "adminSetPrice",
      "outputs": [],
      "stateMutability": "nonpayable",
      "type": "function"
    },
    {
      "inputs": [
        {
          "internalType": "uint256",
          "name": "_handleId",
          "type": "uint256"
        },
        {
          "internalType": "uint256",
          "name": "_price",
          "type": "uint256"
        }
      ],
      "name": "setPrice",
      "outputs": [],
      "stateMutability": "nonpayable",
      "type": "function"
    },
    {
      "inputs": [
        {
          "internalType": "uint256",
          "name": "_handleId",
          "type": "uint256"
        },
        {
          "internalType": "uint256",
          "name": "_score",
          "type": "uint256"
        },
        {
          "internalType": "uint256[]",
          "name": "_topics",
          "type": "uint256[]"
        }
      ],
      "name": "adminSetScoreAndTopics",
      "outputs": [],
      "stateMutability": "nonpayable",
      "type": "function"
    },
    {
      "inputs": [],
      "name": "getCycleLength",
      "outputs": [
        {
          "internalType": "uint256",
          "name": "",
          "type": "uint256"
        }
      ],
      "stateMutability": "pure",
      "type": "function",
      "constant": true
    },
    {
      "inputs": [],
      "name": "getCurrentCycle",
      "outputs": [
        {
          "internalType": "uint256",
          "name": "",
          "type": "uint256"
        }
      ],
      "stateMutability": "view",
      "type": "function",
      "constant": true
    },
    {
      "inputs": [],
      "name": "getNextCycle",
      "outputs": [
        {
          "internalType": "uint256",
          "name": "",
          "type": "uint256"
        }
      ],
      "stateMutability": "view",
      "type": "function",
      "constant": true
    },
    {
      "inputs": [],
      "name": "distributeFeePool",
      "outputs": [],
      "stateMutability": "nonpayable",
      "type": "function"
    },
    {
      "inputs": [],
      "name": "applyHandleUpdates",
      "outputs": [],
      "stateMutability": "nonpayable",
      "type": "function"
    },
    {
      "inputs": [
        {
          "internalType": "uint256",
          "name": "_feeRate",
          "type": "uint256"
        }
      ],
      "name": "makeVote",
      "outputs": [],
      "stateMutability": "nonpayable",
      "type": "function"
    },
    {
      "inputs": [],
      "name": "tallyVotes",
      "outputs": [],
      "stateMutability": "nonpayable",
      "type": "function"
    },
    {
      "inputs": [
        {
          "internalType": "uint256",
          "name": "_handleId",
          "type": "uint256"
        },
        {
          "internalType": "uint256",
          "name": "_campaignId",
          "type": "uint256"
        },
        {
          "internalType": "string",
          "name": "_tagsAfterPostId",
          "type": "string"
        },
        {
          "internalType": "uint256",
          "name": "_createdAt",
          "type": "uint256"
        },
        {
          "internalType": "uint256",
          "name": "_sigR",
          "type": "uint256"
        },
        {
          "internalType": "uint256",
          "name": "_sigS",
          "type": "uint256"
        }
      ],
      "name": "makeNostrCollab",
      "outputs": [],
      "stateMutability": "nonpayable",
      "type": "function"
    },
    {
      "inputs": [
        {
          "internalType": "uint256",
          "name": "_collabId",
          "type": "uint256"
        },
        {
          "internalType": "string",
          "name": "_content",
          "type": "string"
        },
        {
          "internalType": "string",
          "name": "_tags",
          "type": "string"
        },
        {
          "internalType": "uint256",
          "name": "_createdAt",
          "type": "uint256"
        },
        {
          "internalType": "uint256",
          "name": "_sigR",
          "type": "uint256"
        },
        {
          "internalType": "uint256",
          "name": "_sigS",
          "type": "uint256"
        }
      ],
      "name": "reportNostrAbuse",
      "outputs": [],
      "stateMutability": "nonpayable",
      "type": "function"
    },
    {
      "inputs": [
        {
          "internalType": "uint256",
          "name": "_handleId",
          "type": "uint256"
        },
        {
          "internalType": "bool",
          "name": "_value",
          "type": "bool"
        }
      ],
      "name": "setNostrSelfManaged",
      "outputs": [],
      "stateMutability": "nonpayable",
      "type": "function"
    },
    {
      "inputs": [
        {
          "internalType": "uint256",
          "name": "_a",
          "type": "uint256"
        },
        {
          "internalType": "uint256",
          "name": "_b",
          "type": "uint256"
        }
      ],
      "name": "max",
      "outputs": [
        {
          "internalType": "uint256",
          "name": "",
          "type": "uint256"
        }
      ],
      "stateMutability": "pure",
      "type": "function",
      "constant": true
    },
    {
      "inputs": [
        {
          "internalType": "uint256",
          "name": "_a",
          "type": "uint256"
        },
        {
          "internalType": "uint256",
          "name": "_b",
          "type": "uint256"
        }
      ],
      "name": "min",
      "outputs": [
        {
          "internalType": "uint256",
          "name": "",
          "type": "uint256"
        }
      ],
      "stateMutability": "pure",
      "type": "function",
      "constant": true
    },
    {
      "inputs": [
        {
          "internalType": "uint256[]",
          "name": "mainSet",
          "type": "uint256[]"
        },
        {
          "internalType": "uint256[]",
          "name": "subset",
          "type": "uint256[]"
        }
      ],
      "name": "isSubset",
      "outputs": [
        {
          "internalType": "bool",
          "name": "",
          "type": "bool"
        }
      ],
      "stateMutability": "pure",
      "type": "function",
      "constant": true
    }
  ],
  "bytecode": "0x60806040526000601755600060185560006019556000601a556000601b556000601c55600a601d556000601e556000601f55600060205560006021553480156200004857600080fd5b50604051620053e6380380620053e68339810160408190526200006b916200018d565b6040518060400160405280600a81526020016920b9b0b6b4aa37b5b2b760b11b815250604051806040016040528060058152602001644153414d4960d81b815250620000c6620000c06200011c60201b60201c565b62000120565b6004620000d483826200026a565b506005620000e382826200026a565b5050601280546001600160a01b039485166001600160a01b03199182161790915560068054939094169216919091179091555062000336565b3390565b600080546001600160a01b038381166001600160a01b0319831681178455604051919092169283917f8be0079c531659141344cd1fd0a4f28419497f9722a3daafe3b4186f6b6457e09190a35050565b80516001600160a01b03811681146200018857600080fd5b919050565b60008060408385031215620001a157600080fd5b620001ac8362000170565b9150620001bc6020840162000170565b90509250929050565b634e487b7160e01b600052604160045260246000fd5b600181811c90821680620001f057607f821691505b6020821081036200021157634e487b7160e01b600052602260045260246000fd5b50919050565b601f8211156200026557600081815260208120601f850160051c81016020861015620002405750805b601f850160051c820191505b8181101562000261578281556001016200024c565b5050505b505050565b81516001600160401b03811115620002865762000286620001c5565b6200029e81620002978454620001db565b8462000217565b602080601f831160018114620002d65760008415620002bd5750858301515b600019600386901b1c1916600185901b17855562000261565b600085815260208120601f198616915b828110156200030757888601518255948401946001909101908401620002e6565b5085821015620003265787850151600019600388901b60f8161c191681555b5050505050600190811b01905550565b6150a080620003466000396000f3fe608060405234801561001057600080fd5b50600436106102f55760003560e01c8062f84a36146102fa57806306fdde031461030f578063095ea7b31461032d57806313e9da5114610350578063141961bc1461036757806318160ddd1461038e57806318d9adab146103965780631aa4bf35146103a95780631b430983146103b257806323b872dd146103dd57806325076468146103f05780632a11ced0146103f957806330370ba01461040c578063313ce5671461042c57806333c24bd31461043b578063378a21781461044e578063378f448f1461045657806339509351146104695780633c4fa48a1461047c5780633ca75e56146104855780633eaf759114610498578063402c5133146104ab5780634259d8a2146104be57806346c33dd5146104c7578063479b563a146104da5780634969a969146104e357806354218cd8146104ec57806358cea7d2146104f55780635df81330146105085780636717d7a81461051b5780636d5433e61461053b57806370a082311461054e578063715018a61461056157806379dec48b146105695780637ae2b5c7146105715780637d98e20f146105845780637dfed63b146105aa5780638202c073146105ce5780638b69633d146105e15780638da5cb5b146105f45780638e1e6de2146105fc57806395d89b411461060457806396cad0db1461060c578063978bbdb91461061f57806398435ee0146106285780639938e92914610648578063a091a8701461065b578063a457c2d71461066e578063a9059cbb14610681578063ae2e933b14610694578063b448e95c1461069d578063be26ed7f146106a6578063c08b8f3d146106ae578063c4890d05146106c1578063c4ac65b7146106ca578063c55b6bb7146106dd578063d0b0ce95146106f0578063dd62ed3e146106f8578063f1a12cbc1461070b578063f2a40db814610714578063f2fde38b146107a0578063f7d97577146107b3578063f851a440146107c6578063fdb265b0146107d9578063fe95e88614610801578063fee0117714610814575b600080fd5b61030d610308366004613a0d565b610829565b005b610317610a43565b6040516103249190613aed565b60405180910390f35b61034061033b366004613b1c565b610ad5565b6040519015158152602001610324565b610359601f5481565b604051908152602001610324565b61037a610375366004613b46565b610aef565b604051610324989796959493929190613b97565b600354610359565b6103176103a4366004613b46565b610bd3565b610359601a5481565b6006546103c5906001600160a01b031681565b6040516001600160a01b039091168152602001610324565b6103406103eb366004613be8565b610c7f565b61035960175481565b6103c5610407366004613b46565b610ca3565b61035961041a366004613b46565b600c6020526000908152604090205481565b60405160128152602001610324565b610359610449366004613b46565b610ccd565b61030d610cee565b61030d610464366004613c32565b610e07565b610340610477366004613b1c565b610ed9565b61035960215481565b61030d610493366004613ca6565b610efb565b61030d6104a6366004613b46565b611062565b61030d6104b9366004613d2b565b611128565b6213c680610359565b61030d6104d5366004613ca6565b611326565b610359601b5481565b61035960195481565b610359601e5481565b61030d610503366004613ca6565b611436565b610359610516366004613b46565b61159d565b610359610529366004613d60565b60096020526000908152604090205481565b610359610549366004613d7b565b6115ad565b61035961055c366004613d60565b6115c5565b61030d6115e0565b6103596115f4565b61035961057f366004613d7b565b611611565b610597610592366004613b46565b611626565b6040516103249796959493929190613d9d565b6105bd6105b8366004613b46565b611700565b604051610324959493929190613de2565b61030d6105dc366004613e15565b6117ce565b6103406105ef366004613f54565b611857565b6103c56118f3565b61030d611902565b610317611abc565b6015546103c5906001600160a01b031681565b610359601d5481565b610359610636366004613b46565b60106020526000908152604090205481565b61030d610656366004613d2b565b611acb565b61030d610669366004614034565b61228e565b61034061067c366004613b1c565b61274d565b61034061068f366004613b1c565b6127c8565b61035960165481565b61035960205481565b6103596127d6565b61030d6106bc366004613d7b565b6127e5565b610359601c5481565b61030d6106d836600461409f565b612891565b61030d6106eb3660046140d4565b612908565b61030d61293e565b6103596107063660046140d4565b612adb565b61035960185481565b610767610722366004613b46565b6008602052600090815260409020805460018201546002830154600384015460049094015492936001600160a01b039092169290919060ff8082169161010090041686565b604080519687526001600160a01b03909516602087015293850192909252606084015215156080830152151560a082015260c001610324565b61030d6107ae366004613d60565b612b06565b61030d6107c1366004613d7b565b612b7f565b6014546103c5906001600160a01b031681565b6107ec6107e7366004613b46565b612c0d565b60405161032499989796959493929190614107565b61030d61080f366004613ca6565b612d7f565b61081c612eb2565b604051610324919061416e565b6000600e61083860018b6141e6565b81548110610848576108486141f9565b906000526020600020906007020190506203f48081600601548561086c91906141e6565b1061087657600080fd5b6006546040516302dc501f60e21b81526001600160a01b0390911690630b71407c906108ad9060058501908a908a906004016142e9565b602060405180830381865afa1580156108ca573d6000803e3d6000fd5b505050506040513d601f19601f820116820180604052508101906108ee9190614319565b6108f757600080fd5b6000600a6001836001015461090c91906141e6565b8154811061091c5761091c6141f9565b60009182526020909120600a909102019050600160028083015460ff169081111561094957610949613b5f565b1461095357600080fd5b60018101546000908152600860205260409020805461097157600080fd5b600660009054906101000a90046001600160a01b03166001600160a01b0316630d9e0f38836007018c8c8c8c8c89600801548a600901548e8e6040518b63ffffffff1660e01b81526004016109cf9a99989796959493929190614336565b60006040518083038186803b1580156109e757600080fd5b505afa1580156109fb573d6000803e3d6000fd5b50505060048201805461ff00191661010017905550604051600080516020614fab83398151915290610a2e9084906143e2565b60405180910390a15050505050505050505050565b606060048054610a529061420f565b80601f0160208091040260200160405190810160405280929190818152602001828054610a7e9061420f565b8015610acb5780601f10610aa057610100808354040283529160200191610acb565b820191906000526020600020905b815481529060010190602001808311610aae57829003601f168201915b5050505050905090565b600033610ae3818585612f8b565b60019150505b92915050565b600d8181548110610aff57600080fd5b6000918252602090912060099091020180546001820154600283015460038401546004850154600586018054959750939560ff909316949193909291610b449061420f565b80601f0160208091040260200160405190810160405280929190818152602001828054610b709061420f565b8015610bbd5780601f10610b9257610100808354040283529160200191610bbd565b820191906000526020600020905b815481529060010190602001808311610ba057829003601f168201915b5050505050908060060154908060080154905088565b60118181548110610be357600080fd5b906000526020600020016000915090508054610bfe9061420f565b80601f0160208091040260200160405190810160405280929190818152602001828054610c2a9061420f565b8015610c775780601f10610c4c57610100808354040283529160200191610c77565b820191906000526020600020905b815481529060010190602001808311610c5a57829003601f168201915b505050505081565b600033610c8d8582856130af565b610c98858585613123565b506001949350505050565b60138181548110610cb357600080fd5b6000918252602090912001546001600160a01b0316905081565b60078181548110610cdd57600080fd5b600091825260209091200154905081565b601f54600003610d2157600f54601e819055601f556000610d0d6127d6565b90506020548103610d1d57600080fd5b6020555b6000601f54601e54610d3391906141e6565b90506000610d4d610d45836064614495565b601e54611611565b90506000825b82811015610d9857600f8181548110610d6e57610d6e6141f9565b906000526020600020015482610d849190614495565b915080610d90816144a8565b915050610d53565b50818184602154610da991906144c1565b610db39190614495565b610dbd91906144d8565b60218190555081601f6000828254610dd591906141e6565b9091555050601f54600003610e025760218054601d556000601e81905590819055610e0290600f90613827565b505050565b6000600a610e166001856141e6565b81548110610e2657610e266141f9565b60009182526020808320338452600982526040808520548552600890925292206001810154600a90920290920192506001600160a01b0316610e6757600080fd5b6001820154815414610e7857600080fd5b600160028084015460ff1690811115610e9357610e93613b5f565b14610e9d57600080fd5b60048101805460ff1916841515179055604051600080516020614fab83398151915290610ecb9084906143e2565b60405180910390a150505050565b600033610ae3818585610eec8383612adb565b610ef69190614495565b612f8b565b60005b81811015610e02576000600d6001858585818110610f1e57610f1e6141f9565b90506020020135610f2f91906141e6565b81548110610f3f57610f3f6141f9565b906000526020600020906009020190506000816000015411610f6057600080fd5b6000816004015411610f7157600080fd5b42816008015410610f8157600080fd5b6001808201546000908152600860205260409081902060125492810154600480860154935163a9059cbb60e01b815292946001600160a01b039081169463a9059cbb94610fd494909216929091016144fa565b6020604051808303816000875af1158015610ff3573d6000803e3d6000fd5b505050506040513d601f19601f820116820180604052508101906110179190614319565b61102057600080fd5b60006004830155604051600080516020614f6b83398151915290611045908490614513565b60405180910390a15050808061105a906144a8565b915050610efe565b61106d6032826115ad565b336000908152600960209081526040808320548352600890915290206001810154919250906001600160a01b03166110a457600080fd5b80546000908152601060205260408120549081900361110357600f80546001810182557f8d1108e10bcb7c27dddfc02ed9d693a074039d026cf4ea4240b40f7d581ac80201849055548254600090815260106020526040902055505050565b82600f8281548110611117576111176141f9565b600091825260209091200155505050565b6014546001600160a01b031633148061115957506111446118f3565b6001600160a01b0316336001600160a01b0316145b61116257600080fd5b60005b81811015610e025736838383818110611180576111806141f9565b905060400201905061119581600001356132c7565b8035600090815260086020526040902060018101546001600160a01b0316156111bd57600080fd5b8135600960006111d36040860160208701613d60565b6001600160a01b03166001600160a01b031681526020019081526020016000208190555081602001602081019061120a9190613d60565b6001820180546001600160a01b0319166001600160a01b039290921691909117905560028101541561125b576112536112496040840160208501613d60565b826002015461331e565b600060028201555b6003810154156112ec576012546001820154600383015460405163a9059cbb60e01b81526001600160a01b039384169363a9059cbb936112a0939116916004016144fa565b6020604051808303816000875af11580156112bf573d6000803e3d6000fd5b505050506040513d601f19601f820116820180604052508101906112e39190614319565b50600060038201555b600080516020614fcb8339815191528160405161130991906145ae565b60405180910390a15050808061131e906144a8565b915050611165565b3360009081526009602090815260408083205483526008909152902060018101546001600160a01b031661135957600080fd5b60005b82811015611430576000848483818110611378576113786141f9565b905060200281019061138a9190614667565b6113939061473c565b905061141d83604051806101200160405280600d8054905060016113b79190614495565b815286546020820152845160409091019060028111156113d9576113d9613b5f565b815260200184602001518152602001846020015181526020018460400151815260200184606001518152602001846080015181526020018460a00151815250613335565b5080611428816144a8565b91505061135c565b50505050565b6014546001600160a01b031633148061146757506114526118f3565b6001600160a01b0316336001600160a01b0316145b61147057600080fd5b60005b81811015610e0257600083838381811061148f5761148f6141f9565b90506020028101906114a19190614748565b6114aa9061475e565b90506114b981600001516132c7565b8051600090815260086020526040902060018101546001600160a01b0316156114e157600080fd5b61158881604051806101200160405280600d8054905060016115039190614495565b815260200184600001548152602001856020015160000151600281111561152c5761152c613b5f565b815260200185602001516020015181526020018560200151602001518152602001856020015160400151815260200185602001516060015181526020018560200151608001518152602001856020015160a00151815250613335565b50508080611595906144a8565b915050611473565b600f8181548110610cdd57600080fd5b60008183116115bc57816115be565b825b9392505050565b6001600160a01b031660009081526001602052604090205490565b6115e8613535565b6115f26000613594565b565b60006213c6806116026127d6565b61160c9190614495565b905090565b600081831161162057826115be565b50919050565b600e818154811061163657600080fd5b90600052602060002090600702016000915090508060000154908060010154908060020154908060030154908060040154908060050180546116779061420f565b80601f01602080910402602001604051908101604052809291908181526020018280546116a39061420f565b80156116f05780601f106116c5576101008083540402835291602001916116f0565b820191906000526020600020905b8154815290600101906020018083116116d357829003601f168201915b5050505050908060060154905087565b600b818154811061171057600080fd5b906000526020600020906006020160009150905080600001549080600101549080600201805461173f9061420f565b80601f016020809104026020016040519081016040528092919081815260200182805461176b9061420f565b80156117b85780601f1061178d576101008083540402835291602001916117b8565b820191906000526020600020905b81548152906001019060200180831161179b57829003601f168201915b5050505050908060030154908060040154905085565b6014546001600160a01b03163314806117ff57506117ea6118f3565b6001600160a01b0316336001600160a01b0316145b61180857600080fd5b6000611813856135e4565b60048101859055905061182a600582018484613845565b50600080516020614f8b8339815191528160405161184891906147c8565b60405180910390a15050505050565b6000805b82518110156118e9576000805b85518110156118c557858181518110611883576118836141f9565b602002602001015185848151811061189d5761189d6141f9565b6020026020010151036118b357600191506118c5565b806118bd816144a8565b915050611868565b50806118d657600092505050610ae9565b50806118e1816144a8565b91505061185b565b5060019392505050565b6000546001600160a01b031690565b601a5460000361193557600b54601b819055601a5560006119216127d6565b9050601c54810361193157600080fd5b601c555b6000601a54601b5461194791906141e6565b90506000601b5482606461195b9190614495565b111561196957601b54611974565b611974826064614495565b9050815b81811015611a8a576000600b8281548110611995576119956141f9565b906000526020600020906006020190506000600a600183600101546119ba91906141e6565b815481106119ca576119ca6141f9565b90600052602060002090600a0201905060008260020180546119eb9061420f565b90501115611a065760068101611a046002840182614895565b505b600382015415611a1b57600380830154908201555b600482015415611a3057600480830154908201555b600582015415611a505760058083018054611a4e9284019190613890565b505b600080516020614fab83398151915281604051611a6d91906143e2565b60405180910390a150508080611a82906144a8565b915050611978565b5080601a6000828254611a9d91906141e6565b9091555050601a54600003611ab857611ab8600b60006138d0565b5050565b606060058054610a529061420f565b6014546001600160a01b0316331480611afc5750611ae76118f3565b6001600160a01b0316336001600160a01b0316145b611b0557600080fd5b60005b81811015610e02576000600a6001858585818110611b2857611b286141f9565b90506040020160200135611b3c91906141e6565b81548110611b4c57611b4c6141f9565b90600052602060002090600a020190506000816000015411611b995760405162461bcd60e51b81526020600482015260016024820152603160f81b60448201526064015b60405180910390fd5b60018082015460009081526008602052604090209060028084015460ff1690811115611bc757611bc7613b5f565b141580611bee5750600481015460ff16158015611bee57506004810154610100900460ff16155b611c1e5760405162461bcd60e51b81526020600482015260016024820152601960f91b6044820152606401611b90565b6000600d6001878787818110611c3657611c366141f9565b90506040020160000135611c4a91906141e6565b81548110611c5a57611c5a6141f9565b906000526020600020906009020190506000816000015411611ca25760405162461bcd60e51b81526020600482015260016024820152603360f81b6044820152606401611b90565b42816008015411611cd95760405162461bcd60e51b81526020600482015260016024820152600d60fa1b6044820152606401611b90565b611d8783600501805480602002602001604051908101604052809291908181526020018280548015611d2a57602002820191906000526020600020905b815481526020019060010190808311611d16575b505050505082600701805480602002602001604051908101604052809291908181526020018280548015611d7d57602002820191906000526020600020905b815481526020019060010190808311611d69575b5050505050611857565b611db75760405162461bcd60e51b81526020600482015260016024820152603560f81b6044820152606401611b90565b8260030154816004015411611df25760405162461bcd60e51b81526020600482015260016024820152601b60f91b6044820152606401611b90565b60028084015460ff1690811115611e0b57611e0b613b5f565b60028083015460ff1690811115611e2457611e24613b5f565b14611e555760405162461bcd60e51b81526020600482015260016024820152603760f81b6044820152606401611b90565b806006015483600401548460030154611e6e91906144d8565b1115611ea05760405162461bcd60e51b81526020600482015260016024820152600760fb1b6044820152606401611b90565b600181015460009081526008602052604081206003850154601d5491929091606490611ecc90846144c1565b611ed691906144d8565b90506000611ee482846141e6565b905060006040518060e00160405280600e805490506001611f059190614495565b8152895460208083019190915288546040808401919091526060808401899052608080850189905282518085018452600080825260a0808801929092524260c090970196909652600e8054600181018255965286516007909602600080516020614eeb833981519152810196875594870151600080516020614f0b83398151915286015592860151600080516020614f2b83398151915285015590850151600080516020614f4b83398151915284015584015160008051602061504b833981519152830155830151929350839260008051602061500b83398151915290910190611fef908261496b565b5060c091909101516006909101558051600788018054600181018255600091825260208220019190915560048701805486929061202d9084906141e6565b9250508190555082601660008282546120469190614495565b9091555060009050606461205b85604b6144c1565b61206591906144d8565b90506000606461207686600f6144c1565b61208091906144d8565b905060008161208f84886141e6565b61209991906141e6565b6015549091506120b2906001600160a01b03168461331e565b60018a01546001600160a01b031661212357818a60020160008282546120d89190614495565b92505081905550848a60030160008282546120f39190614495565b9091555050604051600080516020614fcb83398151915290612116908c906145ae565b60405180910390a16121b8565b60018a015461213b906001600160a01b03168361331e565b60125460018b015460405163a9059cbb60e01b81526001600160a01b039283169263a9059cbb926121739291169089906004016144fa565b6020604051808303816000875af1158015612192573d6000803e3d6000fd5b505050506040513d601f19601f820116820180604052508101906121b69190614319565b505b60018801546001600160a01b031661220e57808860020160008282546121de9190614495565b9091555050604051600080516020614fcb83398151915290612201908a906145ae565b60405180910390a1612226565b6001880154612226906001600160a01b03168261331e565b60008051602061502b833981519152846040516122439190614a22565b60405180910390a1600080516020614f6b833981519152896040516122689190614513565b60405180910390a150505050505050505050508080612286906144a8565b915050611b08565b6000600a61229d6001896141e6565b815481106122ad576122ad6141f9565b600091825260208083206001600a909302018281015484526008909152604090922090810154919250906001600160a01b03166122e957600080fd5b600160028084015460ff169081111561230457612304613b5f565b1461230e57600080fd5b600481015460ff1661231f57600080fd5b6004810154610100900460ff161561233657600080fd5b6000600d61234560018a6141e6565b81548110612355576123556141f9565b906000526020600020906009020190506000600860008360010154815260200190815260200160002090506000600660009054906101000a90046001600160a01b03166001600160a01b031663e224d97a86600701856005018c8c8a600801548b600901548e8e6040518963ffffffff1660e01b81526004016123df989796959493929190614a87565b600060405180830381865afa1580156123fc573d6000803e3d6000fd5b505050506040513d6000823e601f3d908101601f191682016040526124249190810190614aef565b9050600085600301549050600060646003601d5461244291906144d8565b61244c90846144c1565b61245691906144d8565b9050600061246482846141e6565b905060006040518060e00160405280600e8054905060016124859190614495565b81528a5460208083019190915289546040808401919091526060808401899052608080850189905260a08086018c90524260c090960195909552600e805460018101825560009190915286516007909102600080516020614eeb833981519152810191825594870151600080516020614f0b83398151915286015592860151600080516020614f2b83398151915285015590850151600080516020614f4b83398151915284015584015160008051602061504b83398151915283015591830151929350839260008051602061500b83398151915290910190612567908261496b565b5060c09190910151600690910155805160078901805460018101825560009182526020822001919091556004880180548692906125a59084906141e6565b9250508190555082601660008282546125be9190614495565b909155506000905060646125d385603c6144c1565b6125dd91906144d8565b905060006125eb82866141e6565b60018b0154909150612606906001600160a01b03168361331e565b60125460018b015460405163a9059cbb60e01b81526001600160a01b039283169263a9059cbb9261263e9291169088906004016144fa565b6020604051808303816000875af115801561265d573d6000803e3d6000fd5b505050506040513d601f19601f820116820180604052508101906126819190614319565b5060018801546001600160a01b03166126d857808860020160008282546126a89190614495565b9091555050604051600080516020614fcb833981519152906126cb908a906145ae565b60405180910390a16126f0565b60018801546126f0906001600160a01b03168261331e565b60008051602061502b8339815191528360405161270d9190614a22565b60405180910390a1600080516020614f6b833981519152896040516127329190614513565b60405180910390a15050505050505050505050505050505050565b6000338161275b8286612adb565b9050838110156127bb5760405162461bcd60e51b815260206004820152602560248201527f45524332303a2064656372656173656420616c6c6f77616e63652062656c6f77604482015264207a65726f60d81b6064820152608401611b90565b610c988286868403612f8b565b600033610ae3818585613123565b600061160c6213c680426144d8565b6014546001600160a01b031633148061281657506128016118f3565b6001600160a01b0316336001600160a01b0316145b61281f57600080fd5b6000600a61282e6001856141e6565b8154811061283e5761283e6141f9565b600091825260208083206001600a909302018281015484526008909152604090922090810154919250906001600160a01b031615801561287e5750805415155b61288757600080fd5b61143082846136ae565b6014546001600160a01b03163314806128c257506128ad6118f3565b6001600160a01b0316336001600160a01b0316145b6128cb57600080fd5b601180546001810182556000919091527f31ecc21a745e3968a04e9570e4425bc18fa8019c68028196b546d1669c200c6801610e02828483614b5c565b612910613535565b601480546001600160a01b039384166001600160a01b03199182161790915560158054929093169116179055565b600061294960035490565b905060175460000361297e576013546018819055601755600061296a6127d6565b9050601954810361297a57600080fd5b6019555b600060175460185461299091906141e6565b905060006017548260646129a49190614495565b11156129b2576017546129bd565b6129bd826064614495565b9050815b81811015612aaf576000601382815481106129de576129de6141f9565b60009182526020822001546001600160a01b031691506129fd826115c5565b905060008660165483612a1091906144c1565b612a1a91906144d8565b60125460405163a9059cbb60e01b81529192506001600160a01b03169063a9059cbb90612a4d90869085906004016144fa565b6020604051808303816000875af1158015612a6c573d6000803e3d6000fd5b505050506040513d601f19601f82011682018060405250810190612a909190614319565b612a9957600080fd5b5050508080612aa7906144a8565b9150506129c1565b508060176000828254612ac291906141e6565b9091555050601754600003610e02576000601655505050565b6001600160a01b03918216600090815260026020908152604080832093909416825291909152205490565b612b0e613535565b6001600160a01b038116612b735760405162461bcd60e51b815260206004820152602660248201527f4f776e61626c653a206e6577206f776e657220697320746865207a65726f206160448201526564647265737360d01b6064820152608401611b90565b612b7c81613594565b50565b3360009081526009602090815260408083205483526008909152902060018101546001600160a01b0316612bb257600080fd5b6000600a612bc16001866141e6565b81548110612bd157612bd16141f9565b90600052602060002090600a020190506000816000015411612bf257600080fd5b8154600182015414612c0357600080fd5b61143081846136ae565b600a8181548110612c1d57600080fd5b60009182526020909120600a9091020180546001820154600283015460038401546004850154600686018054959750939560ff909316949193909291612c629061420f565b80601f0160208091040260200160405190810160405280929190818152602001828054612c8e9061420f565b8015612cdb5780601f10612cb057610100808354040283529160200191612cdb565b820191906000526020600020905b815481529060010190602001808311612cbe57829003601f168201915b505050505090806007018054612cf09061420f565b80601f0160208091040260200160405190810160405280929190818152602001828054612d1c9061420f565b8015612d695780601f10612d3e57610100808354040283529160200191612d69565b820191906000526020600020905b815481529060010190602001808311612d4c57829003601f168201915b5050505050908060080154908060090154905089565b6014546001600160a01b0316331480612db05750612d9b6118f3565b6001600160a01b0316336001600160a01b0316145b612db957600080fd5b60005b81811015610e0257612df4838383818110612dd957612dd96141f9565b9050602002810190612deb9190614c15565b602001356132c7565b600a838383818110612e0857612e086141f9565b9050602002810190612e1a9190614c15565b8154600181018355600092835260209092209091600a0201612e3c8282614d7c565b5050600a805460009190612e52906001906141e6565b81548110612e6257612e626141f9565b60009182526020909120600a8054920201908155604051909150600080516020614fab83398151915290612e979083906143e2565b60405180910390a15080612eaa816144a8565b915050612dbc565b60606011805480602002602001604051908101604052809291908181526020016000905b82821015612f82578382906000526020600020018054612ef59061420f565b80601f0160208091040260200160405190810160405280929190818152602001828054612f219061420f565b8015612f6e5780601f10612f4357610100808354040283529160200191612f6e565b820191906000526020600020905b815481529060010190602001808311612f5157829003601f168201915b505050505081526020019060010190612ed6565b50505050905090565b6001600160a01b038316612fed5760405162461bcd60e51b8152602060048201526024808201527f45524332303a20617070726f76652066726f6d20746865207a65726f206164646044820152637265737360e01b6064820152608401611b90565b6001600160a01b03821661304e5760405162461bcd60e51b815260206004820152602260248201527f45524332303a20617070726f766520746f20746865207a65726f206164647265604482015261737360f01b6064820152608401611b90565b6001600160a01b0383811660008181526002602090815260408083209487168084529482529182902085905590518481527f8c5be1e5ebec7d5bd14f71427d1e84f3dd0314c0f7b2291e5b200ac8c7c3b925910160405180910390a3505050565b60006130bb8484612adb565b9050600019811461143057818110156131165760405162461bcd60e51b815260206004820152601d60248201527f45524332303a20696e73756666696369656e7420616c6c6f77616e63650000006044820152606401611b90565b6114308484848403612f8b565b6001600160a01b0383166131875760405162461bcd60e51b815260206004820152602560248201527f45524332303a207472616e736665722066726f6d20746865207a65726f206164604482015264647265737360d81b6064820152608401611b90565b6001600160a01b0382166131e95760405162461bcd60e51b815260206004820152602360248201527f45524332303a207472616e7366657220746f20746865207a65726f206164647260448201526265737360e81b6064820152608401611b90565b6131f48383836136ff565b6001600160a01b0383166000908152600160205260409020548181101561326c5760405162461bcd60e51b815260206004820152602660248201527f45524332303a207472616e7366657220616d6f756e7420657863656564732062604482015265616c616e636560d01b6064820152608401611b90565b6001600160a01b038085166000818152600160205260408082208686039055928616808252908390208054860190559151600080516020614feb833981519152906132ba9086815260200190565b60405180910390a3611430565b6000818152600860205260408120549003612b7c5760008181526008602052604081208290556007805460018101825591527fa66cc928b5edb82af9bd49922954155ab7b0942694bea4ce44661d9a8736c6880155565b6017541561332b57600080fd5b611ab8828261376c565b600081606001511161334657600080fd5b60008160a00151511161335857600080fd5b60125460608201516040516323b872dd60e01b815233600482015230602482015260448101919091526001600160a01b03909116906323b872dd906064016020604051808303816000875af11580156133b5573d6000803e3d6000fd5b505050506040513d601f19601f820116820180604052508101906133d99190614319565b6133e257600080fd5b600d805460018181018355600092909252825160099091027fd7b6990105719101dabeb77144f2a3385c8033acd3af97e9423a695e81ad1eb5810191825560208401517fd7b6990105719101dabeb77144f2a3385c8033acd3af97e9423a695e81ad1eb682015560408401517fd7b6990105719101dabeb77144f2a3385c8033acd3af97e9423a695e81ad1eb79091018054859460ff199091169083600281111561348f5761348f613b5f565b0217905550606082015160038201556080820151600482015560a082015160058201906134bc908261496b565b5060c0820151600682015560e082015180516134e29160078401916020909101906138f1565b5061010091909101516008909101558051600683018054600181018255600091825260209091200155604051600080516020614f6b83398151915290613529908390614e57565b60405180910390a15050565b3361353e6118f3565b6001600160a01b0316146115f25760405162461bcd60e51b815260206004820181905260248201527f4f776e61626c653a2063616c6c6572206973206e6f7420746865206f776e65726044820152606401611b90565b600080546001600160a01b038381166001600160a01b0319831681178455604051919092169283917f8be0079c531659141344cd1fd0a4f28419497f9722a3daafe3b4186f6b6457e09190a35050565b6000601a546000146135f557600080fd5b6000828152600c6020526040902054801561363d57600b6136176001836141e6565b81548110613627576136276141f9565b9060005260206000209060060201915050919050565b5050600b805460018101918290556006027f0175b7a638427703f0dbe7bb9bbf987a2551717b34e79f33b5b1008d1fa01db981018281557f0175b7a638427703f0dbe7bb9bbf987a2551717b34e79f33b5b1008d1fa01dba9091018390556000928352600c60205260409092205590565b600081116136bb57600080fd5b60006136ca83600001546135e4565b9050818160030181905550600080516020614f8b833981519152816040516136f291906147c8565b60405180910390a1505050565b613708826115c5565b1580156137155750600081115b15610e0257601380546001810182556000919091527f66de8ffda797e3de9c05e8fc57b3bf0ec28a930d40b0d285d93c06501cf6a0900180546001600160a01b0384166001600160a01b0319909116179055505050565b6001600160a01b0382166137c25760405162461bcd60e51b815260206004820152601f60248201527f45524332303a206d696e7420746f20746865207a65726f2061646472657373006044820152606401611b90565b6137ce600083836136ff565b80600360008282546137e09190614495565b90915550506001600160a01b038216600081815260016020908152604080832080548601905551848152600080516020614feb833981519152910160405180910390a35050565b5080546000825590600052602060002090810190612b7c919061392c565b828054828255906000526020600020908101928215613880579160200282015b82811115613880578235825591602001919060010190613865565b5061388c92915061392c565b5090565b8280548282559060005260206000209081019282156138805760005260206000209182015b828111156138805782548255916001019190600101906138b5565b5080546000825560060290600052602060002090810190612b7c9190613941565b828054828255906000526020600020908101928215613880579160200282015b82811115613880578251825591602001919060010190613911565b5b8082111561388c576000815560010161392d565b8082111561388c57600080825560018201819055613962600283018261398b565b600382016000905560048201600090556005820160006139829190613827565b50600601613941565b5080546139979061420f565b6000825580601f106139a7575050565b601f016020900490600052602060002090810190612b7c919061392c565b60008083601f8401126139d757600080fd5b5081356001600160401b038111156139ee57600080fd5b602083019150836020828501011115613a0657600080fd5b9250929050565b60008060008060008060008060c0898b031215613a2957600080fd5b8835975060208901356001600160401b0380821115613a4757600080fd5b613a538c838d016139c5565b909950975060408b0135915080821115613a6c57600080fd5b50613a798b828c016139c5565b999c989b5096999698976060880135976080810135975060a0013595509350505050565b60005b83811015613ab8578181015183820152602001613aa0565b50506000910152565b60008151808452613ad9816020860160208601613a9d565b601f01601f19169290920160200192915050565b6020815260006115be6020830184613ac1565b80356001600160a01b0381168114613b1757600080fd5b919050565b60008060408385031215613b2f57600080fd5b613b3883613b00565b946020939093013593505050565b600060208284031215613b5857600080fd5b5035919050565b634e487b7160e01b600052602160045260246000fd5b60038110613b9357634e487b7160e01b600052602160045260246000fd5b9052565b60006101008a8352896020840152613bb2604084018a613b75565b8760608401528660808401528060a0840152613bd081840187613ac1565b60c0840195909552505060e001529695505050505050565b600080600060608486031215613bfd57600080fd5b613c0684613b00565b9250613c1460208501613b00565b9150604084013590509250925092565b8015158114612b7c57600080fd5b60008060408385031215613c4557600080fd5b823591506020830135613c5781613c24565b809150509250929050565b60008083601f840112613c7457600080fd5b5081356001600160401b03811115613c8b57600080fd5b6020830191508360208260051b8501011115613a0657600080fd5b60008060208385031215613cb957600080fd5b82356001600160401b03811115613ccf57600080fd5b613cdb85828601613c62565b90969095509350505050565b60008083601f840112613cf957600080fd5b5081356001600160401b03811115613d1057600080fd5b6020830191508360208260061b8501011115613a0657600080fd5b60008060208385031215613d3e57600080fd5b82356001600160401b03811115613d5457600080fd5b613cdb85828601613ce7565b600060208284031215613d7257600080fd5b6115be82613b00565b60008060408385031215613d8e57600080fd5b50508035926020909101359150565b87815286602082015285604082015284606082015283608082015260e060a08201526000613dce60e0830185613ac1565b90508260c083015298975050505050505050565b85815284602082015260a060408201526000613e0160a0830186613ac1565b606083019490945250608001529392505050565b60008060008060608587031215613e2b57600080fd5b843593506020850135925060408501356001600160401b03811115613e4f57600080fd5b613e5b87828801613c62565b95989497509550505050565b634e487b7160e01b600052604160045260246000fd5b60405160c081016001600160401b0381118282101715613e9f57613e9f613e67565b60405290565b604051601f8201601f191681016001600160401b0381118282101715613ecd57613ecd613e67565b604052919050565b600082601f830112613ee657600080fd5b813560206001600160401b03821115613f0157613f01613e67565b8160051b613f10828201613ea5565b9283528481018201928281019087851115613f2a57600080fd5b83870192505b84831015613f4957823582529183019190830190613f30565b979650505050505050565b60008060408385031215613f6757600080fd5b82356001600160401b0380821115613f7e57600080fd5b613f8a86838701613ed5565b93506020850135915080821115613fa057600080fd5b50613fad85828601613ed5565b9150509250929050565b60006001600160401b03821115613fd057613fd0613e67565b50601f01601f191660200190565b600082601f830112613fef57600080fd5b8135614002613ffd82613fb7565b613ea5565b81815284602083860101111561401757600080fd5b816020850160208301376000918101602001919091529392505050565b60008060008060008060c0878903121561404d57600080fd5b863595506020870135945060408701356001600160401b0381111561407157600080fd5b61407d89828a01613fde565b945050606087013592506080870135915060a087013590509295509295509295565b600080602083850312156140b257600080fd5b82356001600160401b038111156140c857600080fd5b613cdb858286016139c5565b600080604083850312156140e757600080fd5b6140f083613b00565b91506140fe60208401613b00565b90509250929050565b60006101208b83528a6020840152614122604084018b613b75565b8860608401528760808401528060a084015261414081840188613ac1565b905082810360c08401526141548187613ac1565b60e084019590955250506101000152979650505050505050565b6000602080830181845280855180835260408601915060408160051b870101925083870160005b828110156141c357603f198886030184526141b1858351613ac1565b94509285019290850190600101614195565b5092979650505050505050565b634e487b7160e01b600052601160045260246000fd5b81810381811115610ae957610ae96141d0565b634e487b7160e01b600052603260045260246000fd5b600181811c9082168061422357607f821691505b60208210810361162057634e487b7160e01b600052602260045260246000fd5b600081546142508161420f565b80855260206001838116801561426d5760018114614287576142b5565b60ff1985168884015283151560051b8801830195506142b5565b866000528260002060005b858110156142ad5781548a8201860152908301908401614292565b890184019650505b505050505092915050565b81835281816020850137506000828201602090810191909152601f909101601f19169091010190565b6040815260006142fc6040830186614243565b828103602084015261430f8185876142c0565b9695505050505050565b60006020828403121561432b57600080fd5b81516115be81613c24565b600061010080835261434a8184018e614243565b9050828103602084015261435f818c8e6142c0565b90508281036040840152614374818a8c6142c0565b60608401989098525050608081019490945260a084019290925260c083015260e09091015295945050505050565b6000815480845260208085019450836000528060002060005b838110156143d7578154875295820195600191820191016143bb565b509495945050505050565b6020815281546020820152600182015460408201526000614407600284015460ff1690565b6144146060840182613b75565b5060038301546080830152600483015460a08301526101408060c08401526144436101608401600586016143a2565b601f19808583030160e086015261445d8260068801614243565b91508085830301610100860152506144788160078701614243565b600886015461012086015260099095015491909301525090919050565b80820180821115610ae957610ae96141d0565b6000600182016144ba576144ba6141d0565b5060010190565b8082028115828204841417610ae957610ae96141d0565b6000826144f557634e487b7160e01b600052601260045260246000fd5b500490565b6001600160a01b03929092168252602082015260400190565b6020815281546020820152600182015460408201526000614538600284015460ff1690565b6145456060840182613b75565b5060038301546080830152600483015460a08301526101208060c0840152614574610140840160058601614243565b600685015460e0850152838103601f190161010085015261459881600787016143a2565b9050600885015482850152809250505092915050565b602081528154602082015260006145cf60018401546001600160a01b031690565b6001600160a01b031660408301526002830154606083015260038301546080830152600483015460ff808216151560a0850152600882901c16151560c0840152506101208060e084015261462a6101408401600586016143a2565b601f19808583030161010086015261464582600688016143a2565b91508085830301838601525061465e81600787016143a2565b95945050505050565b6000823560be1983360301811261467d57600080fd5b9190910192915050565b60038110612b7c57600080fd5b8035613b1781614687565b600060c082840312156146b157600080fd5b6146b9613e7d565b90506146c482614694565b81526020828101359082015260408201356001600160401b03808211156146ea57600080fd5b6146f685838601613fde565b604084015260608401356060840152608084013591508082111561471957600080fd5b5061472684828501613ed5565b60808301525060a082013560a082015292915050565b6000610ae9368361469f565b60008235603e1983360301811261467d57600080fd5b60006040823603121561477057600080fd5b604080519081016001600160401b03808211838310171561479357614793613e67565b816040528435835260208501359150808211156147af57600080fd5b506147bc3682860161469f565b60208301525092915050565b60208152815460208201526001820154604082015260c0606082015260006147f660e0830160028501614243565b60038401546080840152600484015460a0840152828103601f190160c084015261482381600586016143a2565b949350505050565b5b81811015611ab8576000815560010161482c565b601f821115610e0257806000526020600020601f840160051c810160208510156148675750805b614879601f850160051c83018261482b565b5050505050565b600019600383901b1c191660019190911b1790565b8181036148a0575050565b6148aa825461420f565b6001600160401b038111156148c1576148c1613e67565b6148d5816148cf845461420f565b84614840565b6000601f82116001811461490357600083156148f15750848201545b6148fb8482614880565b855550614879565b600085815260209020601f19841690600086815260209020845b8381101561493d578286015482556001958601959091019060200161491d565b508583101561495b5781850154600019600388901b60f8161c191681555b5050505050600190811b01905550565b81516001600160401b0381111561498457614984613e67565b614992816148cf845461420f565b602080601f8311600181146149c157600084156149af5750858301515b6149b98582614880565b865550614a1a565b600085815260208120601f198616915b828110156149f0578886015182559484019460019091019084016149d1565b5085821015614a0e5787850151600019600388901b60f8161c191681555b505060018460011b0185555b505050505050565b6020815281516020820152602082015160408201526040820151606082015260608201516080820152608082015160a0820152600060a083015160e060c0840152614a71610100840182613ac1565b905060c084015160e08401528091505092915050565b6000610100808352614a9b8184018c614243565b90508281036020840152614aaf818b614243565b90508281036040840152614ac3818a613ac1565b60608401989098525050608081019490945260a084019290925260c083015260e0909101529392505050565b600060208284031215614b0157600080fd5b81516001600160401b03811115614b1757600080fd5b8201601f81018413614b2857600080fd5b8051614b36613ffd82613fb7565b818152856020838501011115614b4b57600080fd5b61465e826020830160208601613a9d565b6001600160401b03831115614b7357614b73613e67565b614b8783614b81835461420f565b83614840565b6000601f841160018114614bb55760008515614ba35750838201355b614bad8682614880565b845550614879565b600083815260209020601f19861690835b82811015614be65786850135825560209485019460019092019101614bc6565b5086821015614c035760001960f88860031b161c19848701351681555b505060018560011b0183555050505050565b6000823561013e1983360301811261467d57600080fd5b60008135610ae981614687565b60038210614c5757634e487b7160e01b600052602160045260246000fd5b60ff1981541660ff831681178255505050565b6000808335601e19843603018112614c8157600080fd5b8301803591506001600160401b03821115614c9b57600080fd5b6020019150600581901b3603821315613a0657600080fd5b6001600160401b03831115614cca57614cca613e67565b600160401b831115614cde57614cde613e67565b805483825580841015614d0457816000526020600020614d0282820186830161482b565b505b50818160005260208060002060005b86811015614d2d5783358282015592820192600101614d13565b50505050505050565b6000808335601e19843603018112614d4d57600080fd5b8301803591506001600160401b03821115614d6757600080fd5b602001915036819003821315613a0657600080fd5b8135815560208201356001820155614da2614d9960408401614c2c565b60028301614c39565b6060820135600382015560808201356004820155614dc360a0830183614c6a565b614dd1818360058601614cb3565b5050614de060c0830183614d36565b614dee818360068601614b5c565b5050614dfd60e0830183614d36565b614e0b818360078601614b5c565b5050610100820135600882015561012082013560098201555050565b600081518084526020808501945080840160005b838110156143d757815187529582019590820190600101614e3b565b60208152815160208201526020820151604082015260006040830151614e806060840182613b75565b5060608301516080830152608083015160a083015260a08301516101208060c0850152614eb1610140850183613ac1565b915060c085015160e085015260e0850151610100601f198685030181870152614eda8483614e27565b960151919094015250919291505056febb7b4a454dc3493923482f07822329ed19e8244eff582cc204f8554c3620c3fdbb7b4a454dc3493923482f07822329ed19e8244eff582cc204f8554c3620c3febb7b4a454dc3493923482f07822329ed19e8244eff582cc204f8554c3620c3ffbb7b4a454dc3493923482f07822329ed19e8244eff582cc204f8554c3620c400988cbfdf9710a9b89faec272f5e449b4eb56c67d8b31a40c3eec1f6b6cc544af5fec2c3deda50104f2a05317dee057b5944c230a7ccc2c95ed3b4f5c064d8e5d7170a8c13a0ec09eb2cc60e12bc4ad4b30635af27c32fd3c5c87802f65721e7fb1abe14dd3c958ed70ece94cbd936792522f4e0fc6571cc55102f4f3f63418e7ddf252ad1be2c89b69c2b068fc378daa952ba7f163c4a11628f55a4df523b3efbb7b4a454dc3493923482f07822329ed19e8244eff582cc204f8554c3620c402163f215ebbfd927d87234e39d082b1b03b551dadbca611aab6568ee11a75e8d7bb7b4a454dc3493923482f07822329ed19e8244eff582cc204f8554c3620c401a26469706673582212201dfe954833e22c9d9b31ac9bee64563b625a13ac29a587fd28e5d3fdbf92916f64736f6c63430008130033",
  "immutableReferences": {},
  "source": "// SPDX-License-Identifier: MIT\npragma solidity ^0.8.9;\nimport \"@openzeppelin/contracts/token/ERC20/ERC20.sol\";\nimport \"@openzeppelin/contracts/access/Ownable.sol\";\nimport \"./NostrUtils.sol\";\n\ncontract Asami is Ownable, ERC20 {\n  NostrUtils public nostrUtils;\n\n  enum Site { X, Nostr, Instagram }\n\n  struct Account {\n    uint256 id;\n    address addr;\n    uint256 unclaimedAsamiTokens;\n    uint256 unclaimedDocRewards;\n    bool nostrSelfManaged;\n    bool nostrAbuseProven;\n    uint256[] handles;\n    uint256[] campaigns;\n    uint256[] collabs;\n  }\n  uint256[] public accountIds;\n  mapping(uint256 => Account) public accounts;\n  mapping(address => uint256) public accountIdByAddress;\n  event AccountSaved(Account account);\n\n  struct Handle {\n    uint256 id;\n    uint256 accountId;\n    Site site;\n    uint256 price;\n    uint256 score;\n    uint256[] topics;\n    string username;\n    string userId;\n    // Only when Site is Nostr.\n    uint256 nostrAffineX;\n    uint256 nostrAffineY;\n  }\n  Handle[] public handles;\n  event HandleSaved(Handle handle);\n\n  struct HandleUpdate {\n    uint256 id;\n    uint256 handleId;\n    string username;\n    uint256 price;\n    uint256 score;\n    uint256[] topics;\n  }\n  HandleUpdate[] public handleUpdates;\n  mapping(uint256 => uint256) public handleUpdateByHandleId;\n  event HandleUpdateSaved(HandleUpdate handleUpdate);\n\n  struct Campaign {\n    uint256 id;\n    uint256 accountId;\n    Site site;\n    uint256 budget;\n    uint256 remaining;\n    string contentId;\n    uint256 priceScoreRatio;\n    uint256[] topics;\n    uint256 validUntil;\n  }\n  Campaign[] public campaigns;\n  event CampaignSaved(Campaign campaign);\n\n  struct Collab {\n    uint256 id;\n    uint256 handleId;\n    uint256 campaignId;\n    uint256 gross;\n    uint256 fee;\n    string proof;\n    uint256 createdAt;\n  }\n  Collab[] public collabs;\n  event CollabSaved(Collab collab);\n\n  uint256[] public votes;\n  mapping(uint256 => uint256) public voteIdByAccountId;\n\n  string[] public topics;\n\n  IERC20 internal doc;\n  address[] public holders;\n\n  address public admin; // An address that may be stored on a server.\n  address public adminTreasury; // A cold storage address for admin money.\n\n  modifier onlyAdmin() {\n    require(msg.sender == admin || msg.sender == owner());\n    _;\n  }\n\n  constructor(address _dollarOnChainAddress, address _nostrUtilsAddress) ERC20(\"AsamiToken\", \"ASAMI\") {\n    doc = IERC20(_dollarOnChainAddress);\n    nostrUtils = NostrUtils(_nostrUtilsAddress);\n  }\n\n  function _beforeTokenTransfer(address from, address to, uint256 amount) internal override {\n    super._beforeTokenTransfer(from, to, amount);\n    if (balanceOf(to) == 0 && amount > 0) {\n      holders.push(to);\n    }\n  }\n\n  function setAdmin(address _admin, address _adminTreasury) external onlyOwner {\n    admin = _admin;\n    adminTreasury = _adminTreasury;\n  }\n\n  function getTopics() public view returns (string[] memory) {\n    return topics;\n  }\n\n  function addTopic(string calldata _name) public onlyAdmin {\n    topics.push(_name);\n  }\n\n  function ensureAccount(uint256 _accountId) private {\n    if(accounts[_accountId].id == 0) {\n      accounts[_accountId].id = _accountId;\n      accountIds.push(_accountId);\n    }\n  }\n\n  struct AdminClaimAccountsInput {\n    uint256 accountId;\n    address addr;\n  }\n\n  function claimAccounts (\n    AdminClaimAccountsInput[] calldata _input\n  ) public onlyAdmin {\n    for( uint256 i = 0; i < _input.length; i++) {\n      AdminClaimAccountsInput calldata claim = _input[i];\n      ensureAccount(claim.accountId);\n\n      Account storage account = accounts[claim.accountId];\n      require(account.addr == address(0));\n\n      accountIdByAddress[claim.addr] = claim.accountId;\n      account.addr = claim.addr;\n\n      if(account.unclaimedAsamiTokens > 0) {\n        _safeMint(claim.addr, account.unclaimedAsamiTokens);\n        account.unclaimedAsamiTokens = 0;\n      }\n\n      if(account.unclaimedDocRewards > 0) {\n        doc.transfer(account.addr, account.unclaimedDocRewards);\n        account.unclaimedDocRewards = 0;\n      }\n\n      emit AccountSaved(account);\n    }\n  }\n\n  function adminMakeHandles (\n    Handle[] calldata _inputs\n  ) external onlyAdmin {\n\n    for( uint256 i = 0; i < _inputs.length; i++) {\n      ensureAccount(_inputs[i].accountId);\n\n      handles.push(_inputs[i]);\n      Handle storage h = handles[handles.length - 1];\n      h.id = handles.length;\n      emit HandleSaved(h);\n    }\n  }\n\n  struct CampaignInput {\n    Site site;\n    uint256 budget;\n    string contentId;\n    uint256 priceScoreRatio;\n    uint256[] topics;\n    uint256 validUntil;\n  }\n  function makeCampaigns(\n    CampaignInput[] calldata _inputs\n  ) public {\n    Account storage account = accounts[accountIdByAddress[msg.sender]];\n    require(account.addr != address(0));\n\n    for( uint i = 0; i < _inputs.length; i++) {\n      CampaignInput memory input = _inputs[i];\n      _saveCampaignHelper(account, Campaign({\n        id: campaigns.length + 1,\n        accountId: account.id,\n        site: input.site,\n        budget: input.budget,\n        remaining: input.budget,\n        contentId: input.contentId,\n        priceScoreRatio: input.priceScoreRatio,\n        topics: input.topics,\n        validUntil: input.validUntil\n      }));\n    }\n  }\n\n  struct AdminCampaignInput {\n    uint256 accountId;\n    CampaignInput attrs;\n  }\n\n  function adminMakeCampaigns(\n    AdminCampaignInput[] calldata _inputs\n  ) public onlyAdmin {\n\n    for( uint i = 0; i < _inputs.length; i++) {\n      AdminCampaignInput memory input = _inputs[i];\n      ensureAccount(input.accountId);\n      Account storage account = accounts[input.accountId];\n      require(account.addr == address(0));\n\n      _saveCampaignHelper(account, Campaign({\n        id: campaigns.length + 1,\n        accountId: account.id,\n        site: input.attrs.site,\n        budget: input.attrs.budget,\n        remaining: input.attrs.budget,\n        contentId: input.attrs.contentId,\n        priceScoreRatio: input.attrs.priceScoreRatio,\n        topics: input.attrs.topics,\n        validUntil: input.attrs.validUntil\n      }));\n    }\n  }\n\n  function _saveCampaignHelper(\n    Account storage _account,\n    Campaign memory _campaign\n  ) private {\n    require(_campaign.budget > 0);\n    require(bytes(_campaign.contentId).length > 0);\n    require(doc.transferFrom(msg.sender, address(this), _campaign.budget));\n\n    campaigns.push(_campaign);\n    _account.campaigns.push(_campaign.id);\n    emit CampaignSaved(_campaign);\n  }\n\n  struct AdminMakeCollabsInput {\n    uint256 campaignId;\n    uint256 handleId;\n  }\n\n  function adminMakeCollabs(AdminMakeCollabsInput[] calldata _collabs) external onlyAdmin {\n    for( uint256 i = 0; i < _collabs.length; i++) {\n      Handle storage handle = handles[_collabs[i].handleId - 1];\n      require(handle.id > 0, \"1\");\n      Account storage member = accounts[handle.accountId];\n\n      require(\n        handle.site != Site.Nostr ||\n        (!member.nostrSelfManaged && !member.nostrAbuseProven),\n        \"2\"\n      );\n\n      Campaign storage campaign = campaigns[_collabs[i].campaignId - 1];\n      require(campaign.id > 0, \"3\");\n      require(campaign.validUntil > block.timestamp, \"4\");\n      require(isSubset(handle.topics, campaign.topics), \"5\");\n\n      require(campaign.remaining > handle.price, \"6\");\n      require(campaign.site == handle.site, \"7\");\n      require((handle.price / handle.score) <= campaign.priceScoreRatio, \"8\");\n\n      Account storage advertiser = accounts[campaign.accountId];\n\n      uint256 gross = handle.price;\n      uint256 fee = (gross * feeRate) / 100;\n      uint256 reward = gross - fee;\n\n      Collab memory collab = Collab({\n        id: collabs.length + 1,\n        handleId: handle.id,\n        campaignId: campaign.id,\n        gross: gross,\n        fee: fee,\n        proof: \"\",\n        createdAt: block.timestamp\n      });\n      collabs.push(collab);\n      member.collabs.push(collab.id);\n\n      campaign.remaining -= gross;\n      feePool += fee;\n\n      uint256 adminTokens = (fee * 75) / 100;\n      uint256 memberTokens = (fee * 15) / 100;\n      uint256 advertiserTokens = fee - adminTokens - memberTokens;\n\n      _safeMint(adminTreasury, adminTokens);\n\n      if ( member.addr == address(0) ) {\n        member.unclaimedAsamiTokens += memberTokens;\n        member.unclaimedDocRewards += reward;\n        emit AccountSaved(member);\n      } else {\n        _safeMint(member.addr, memberTokens);\n        doc.transfer(member.addr, reward);\n      }\n\n      if ( advertiser.addr == address(0) ) {\n        advertiser.unclaimedAsamiTokens += advertiserTokens;\n        emit AccountSaved(advertiser);\n      } else {\n        _safeMint(advertiser.addr, advertiserTokens);\n      }\n\n      emit CollabSaved(collab);\n      emit CampaignSaved(campaign);\n    }\n  }\n\n  function reimburseDueCampaigns(uint256[] calldata _campaignIds) public {\n    for(uint i = 0; i < _campaignIds.length; i++) {\n      Campaign storage campaign = campaigns[_campaignIds[i] - 1];\n      require(campaign.id > 0);\n      require(campaign.remaining > 0);\n      require(campaign.validUntil < block.timestamp);\n\n      Account storage advertiser = accounts[campaign.accountId];\n      require(doc.transfer(advertiser.addr, campaign.remaining));\n\n      campaign.remaining = 0;\n      emit CampaignSaved(campaign);\n    }\n  }\n\n  // To prevent race conditions, we never mint while we're in the middle of a payout.\n  function _safeMint(address _addr, uint256 _amount) private {\n    require(payoutsRemaining == 0);\n    _mint(_addr, _amount);\n  }\n\n  function adminSetPrice(uint256 _handleId, uint256 _price) external onlyAdmin {\n    Handle storage handle = handles[_handleId - 1];\n    Account storage account = accounts[handle.accountId];\n    require(account.addr == address(0) && account.id > 0);\n\n    _setPriceHelper(handle, _price);\n  }\n\n  function setPrice(uint256 _handleId, uint256 _price) external {\n    Account storage account = accounts[accountIdByAddress[msg.sender]];\n    require(account.addr != address(0));\n\n    Handle storage handle = handles[_handleId - 1];\n    require(handle.id > 0);\n    require(handle.accountId == account.id);\n\n    _setPriceHelper(handle, _price);\n  }\n\n  function _setPriceHelper(Handle storage handle, uint256 _price) private {\n    require(_price > 0);\n    HandleUpdate storage update = _getOrCreateHandleUpdate(handle.id);\n    update.price = _price;\n    emit HandleUpdateSaved(update);\n  }\n\n  function adminSetScoreAndTopics(\n    uint256 _handleId,\n    uint256 _score,\n    uint256[] calldata _topics\n  ) external onlyAdmin {\n    HandleUpdate storage update = _getOrCreateHandleUpdate(_handleId);\n    update.score = _score;\n    update.topics = _topics;\n    emit HandleUpdateSaved(update);\n  }\n\n  function _getOrCreateHandleUpdate(uint256 _handleId) private returns (HandleUpdate storage) {\n    // To prevent race conditions in the incremental updating process,\n    // handle updates are inaccesible while they are being applied to handles.\n    require(updatesRemaining == 0);\n\n    uint256 existingId = handleUpdateByHandleId[_handleId];\n\n    if(existingId > 0) {\n      return handleUpdates[existingId - 1];\n    } else {\n      HandleUpdate storage update = handleUpdates.push();\n      update.id = handleUpdates.length;\n      update.handleId = _handleId;\n      handleUpdateByHandleId[_handleId] = update.id;\n      return update;\n    }\n  }\n\n  function getCycleLength() public pure returns (uint256) {\n    return 60 * 60 * 24 * 15;\n  }\n\n  function getCurrentCycle() public view returns (uint256) {\n     return block.timestamp / getCycleLength();\n  }\n\n  function getNextCycle() public view returns (uint256) {\n    return getCurrentCycle() + getCycleLength();\n  }\n\n  /*\n    Distributes the fee pool among token holders.\n    To prevent going over the gas limit, it does up to 100 a time, and can be called many times in a row.\n    Always returns the pending holders.\n    Anyone can call this at any time, but just once per period. It would usually be the admin though.\n  */\n  uint256 public feePool;\n  uint256 public payoutsRemaining = 0;\n  uint256 public payoutsTotal = 0;\n  uint256 public lastPayoutCycle = 0;\n\n  function distributeFeePool() external {\n    uint256 totalSupply = totalSupply();\n\n    if(payoutsRemaining == 0) {\n      // We're starting a new payout of the feePool.\n      // We can only start one payout in each 15 day period.\n      payoutsTotal = holders.length;\n      payoutsRemaining = payoutsTotal;\n      uint256 currentCycle = getCurrentCycle();\n      require(currentCycle != lastPayoutCycle);\n      lastPayoutCycle = currentCycle;\n    }\n\n    uint256 startAt = payoutsTotal - payoutsRemaining;\n\n    uint256 until = (startAt + 100) <= payoutsRemaining ? (startAt + 100) : payoutsRemaining;\n\n    for (uint256 i = startAt; i < until; i++) {\n      address holder = holders[i];\n      uint256 balance = balanceOf(holder);\n      uint256 reward = (balance * feePool) / totalSupply;\n      require(doc.transfer(holder, reward));\n    }\n\n    payoutsRemaining -= until;\n\n    if(payoutsRemaining == 0) {\n      feePool = 0;\n    }\n  }\n\n  uint256 public updatesRemaining = 0;\n  uint256 public updatesTotal = 0;\n  uint256 public lastUpdateCycle = 0;\n\n  function applyHandleUpdates() external {\n    if(updatesRemaining == 0) {\n      // We're starting a new updates cycle.\n      // We can only start one payout in each 15 day period.\n      updatesTotal = handleUpdates.length;\n      updatesRemaining = updatesTotal;\n      uint256 currentCycle = getCurrentCycle();\n      require(currentCycle != lastUpdateCycle);\n      lastUpdateCycle = currentCycle;\n    }\n\n    uint256 startAt = updatesTotal - updatesRemaining;\n\n    uint256 until = (startAt + 100) <= updatesTotal ? (startAt + 100) : updatesTotal;\n\n    for (uint256 i = startAt; i < until; i++) {\n      HandleUpdate storage update = handleUpdates[i];\n      Handle storage handle = handles[update.handleId - 1];\n\n      if (bytes(update.username).length > 0) {\n        handle.username = update.username;\n      }\n\n      if (update.price != 0) {\n        handle.price = update.price;\n      }\n\n      if (update.score != 0) {\n        handle.score = update.score;\n      }\n\n      if (update.topics.length > 0) {\n        handle.topics = update.topics;\n      }\n\n      emit HandleSaved(handle);\n    }\n\n    updatesRemaining -= until;\n\n    if(updatesRemaining == 0) {\n      delete handleUpdates;\n    }\n  }\n\n  uint256 public feeRate = 10; // It's a percentage.\n\n  function makeVote(\n    uint256 _feeRate\n  ) external {\n    _feeRate = max(50, _feeRate);\n    Account storage account = accounts[accountIdByAddress[msg.sender]];\n    require(account.addr != address(0));\n    uint256 voteId = voteIdByAccountId[account.id];\n    if(voteId == 0) {\n      votes.push(_feeRate);\n      voteIdByAccountId[account.id] = votes.length;\n    } else {\n      votes[voteId] = _feeRate;\n    }\n  }\n\n  uint256 public votesTotal = 0;\n  uint256 public votesRemaining = 0;\n  uint256 public lastVoteCycle = 0;\n  uint256 public votedAverage = 0;\n\n  function tallyVotes() external {\n    if(votesRemaining == 0) {\n      // We're starting a new updates cycle.\n      // We can only start one payout in each 15 day period.\n      votesTotal = votes.length;\n      votesRemaining = votesTotal;\n      uint256 currentCycle = getCurrentCycle();\n      require(currentCycle != lastVoteCycle);\n      lastVoteCycle = currentCycle;\n    }\n\n    uint256 startAt = votesTotal - votesRemaining;\n    uint256 until = min((startAt + 100), votesTotal);\n\n    uint256 sum = 0;\n    for (uint256 i = startAt; i < until; i++) {\n      sum += votes[i];\n    }\n\n    votedAverage = ((votedAverage * startAt) + sum) / until;\n    votesRemaining -= until;\n\n    if(votesRemaining == 0) {\n      feeRate = votedAverage;\n      votesTotal = 0;\n      votedAverage = 0;\n      delete votes;\n    }\n  }\n\n  // Accounts can choose to submit their own Nostr collaborations.\n  // Sending the collaboration themselves is a bit more expensive in terms of on-chain fees.\n  // But they get a big discount in the Asami fee (they pay just one third).\n  // Also, all new tokens issued for that fee are split 60-40 between the member and the advertiser.\n  // The admin does not get any tokens issued for this transaction.\n  // Nostr collabs can be submitted by accounts themselves.\n\n  function makeNostrCollab(\n    uint256 _handleId,\n    uint256 _campaignId,\n    string memory _tagsAfterPostId,\n    uint256 _createdAt,\n    uint256 _sigR,\n    uint256 _sigS\n  ) external {\n    Handle storage handle = handles[_handleId - 1];\n    Account storage member = accounts[handle.accountId];\n    require(member.addr != address(0));\n\n    require(handle.site == Site.Nostr);\n    require(member.nostrSelfManaged);\n    require(!member.nostrAbuseProven);\n\n    Campaign storage campaign = campaigns[_campaignId - 1];\n    Account storage advertiser = accounts[campaign.accountId];\n\n    string memory messageId = nostrUtils.verifyRepost(\n      handle.userId,\n      campaign.contentId,\n      _tagsAfterPostId,\n      _createdAt,\n      handle.nostrAffineX,\n      handle.nostrAffineY,\n      _sigR,\n      _sigS\n    );\n\n    uint256 gross = handle.price;\n    uint256 fee = (gross * (feeRate / 3) ) / 100;\n    uint256 reward = gross - fee;\n\n    Collab memory collab = Collab({\n      id: collabs.length + 1,\n      handleId: handle.id,\n      campaignId: campaign.id,\n      gross: gross,\n      fee: fee,\n      proof: messageId,\n      createdAt: block.timestamp\n    });\n    collabs.push(collab);\n    member.collabs.push(collab.id);\n\n    campaign.remaining -= gross;\n    feePool += fee;\n\n    uint256 memberTokens = (fee * 60) / 100;\n    uint256 advertiserTokens = fee - memberTokens;\n\n    _safeMint(member.addr, memberTokens);\n    doc.transfer(member.addr, reward);\n\n    if ( advertiser.addr == address(0) ) {\n      advertiser.unclaimedAsamiTokens += advertiserTokens;\n      emit AccountSaved(advertiser);\n    } else {\n      _safeMint(advertiser.addr, advertiserTokens);\n    }\n\n    emit CollabSaved(collab);\n    emit CampaignSaved(campaign);\n  }\n\n  // If a Nostr handle is caught reposting and deleting their reposts\n  // to get paid without reposting, the deletion message may be posted which\n  // will disable their nostr handle for all future campaigns.\n  // The contract admin may re-enable their account.\n  function reportNostrAbuse(\n    uint256 _collabId,\n    string calldata _content,\n    string calldata _tags,\n    uint256 _createdAt,\n    uint256 _sigR,\n    uint256 _sigS\n  ) external {\n    Collab storage collab = collabs[_collabId - 1];\n    require((_createdAt - collab.createdAt) < 60 * 60 * 24 * 3);\n    require(nostrUtils.idInTags(collab.proof, _tags));\n\n    Handle storage handle = handles[collab.handleId - 1];\n    require(handle.site == Site.Nostr);\n\n    Account storage account = accounts[handle.accountId];\n    require(account.id > 0);\n\n    nostrUtils.verifyDeletionMessage(\n      handle.userId,\n      _content,\n      _tags,\n      _createdAt,\n      handle.nostrAffineX,\n      handle.nostrAffineY,\n      _sigR,\n      _sigS);\n    \n    account.nostrAbuseProven = true;\n    emit HandleSaved(handle);\n  }\n\n  function setNostrSelfManaged(\n    uint256 _handleId,\n    bool _value\n  ) external {\n    Handle storage handle = handles[_handleId - 1];\n    Account storage account = accounts[accountIdByAddress[msg.sender]];\n    require(account.addr != address(0));\n    require(account.id == handle.accountId);\n    require(handle.site == Site.Nostr);\n    account.nostrSelfManaged = _value;\n    emit HandleSaved(handle);\n  }\n\n  function max(uint256 _a, uint256 _b) public pure returns (uint256) {\n    return _a > _b ? _a : _b;\n  }\n\n  function min(uint256 _a, uint256 _b) public pure returns (uint256) {\n    return _a > _b ? _b : _a;\n  }\n\n  function isSubset(uint256[] memory mainSet, uint256[] memory subset) public pure returns (bool) {\n    for (uint256 i = 0; i < subset.length; i++) {\n      bool found = false;\n\n      for (uint256 j = 0; j < mainSet.length; j++) {\n        if (subset[i] == mainSet[j]) {\n          found = true;\n          break;\n        }\n      }\n\n      if (!found) {\n        return false;\n      }\n    }\n\n    return true;\n  }\n}\n",
  "sourcePath": "/home/nubis/asami/contract/contracts/Asami.sol",
  "compiler": {
    "name": "solc",
    "version": "0.8.19+commit.7dd6d404.Emscripten.clang"
  },
  "schemaVersion": "3.4.15",
  "updatedAt": "2023-11-25T13:46:32.880Z",
  "networkType": "ethereum",
  "devdoc": {
    "events": {
      "Approval(address,address,uint256)": {
        "details": "Emitted when the allowance of a `spender` for an `owner` is set by a call to {approve}. `value` is the new allowance."
      },
      "Transfer(address,address,uint256)": {
        "details": "Emitted when `value` tokens are moved from one account (`from`) to another (`to`). Note that `value` may be zero."
      }
    },
    "kind": "dev",
    "methods": {
      "allowance(address,address)": {
        "details": "See {IERC20-allowance}."
      },
      "approve(address,uint256)": {
        "details": "See {IERC20-approve}. NOTE: If `amount` is the maximum `uint256`, the allowance is not updated on `transferFrom`. This is semantically equivalent to an infinite approval. Requirements: - `spender` cannot be the zero address."
      },
      "balanceOf(address)": {
        "details": "See {IERC20-balanceOf}."
      },
      "decimals()": {
        "details": "Returns the number of decimals used to get its user representation. For example, if `decimals` equals `2`, a balance of `505` tokens should be displayed to a user as `5.05` (`505 / 10 ** 2`). Tokens usually opt for a value of 18, imitating the relationship between Ether and Wei. This is the default value returned by this function, unless it's overridden. NOTE: This information is only used for _display_ purposes: it in no way affects any of the arithmetic of the contract, including {IERC20-balanceOf} and {IERC20-transfer}."
      },
      "decreaseAllowance(address,uint256)": {
        "details": "Atomically decreases the allowance granted to `spender` by the caller. This is an alternative to {approve} that can be used as a mitigation for problems described in {IERC20-approve}. Emits an {Approval} event indicating the updated allowance. Requirements: - `spender` cannot be the zero address. - `spender` must have allowance for the caller of at least `subtractedValue`."
      },
      "increaseAllowance(address,uint256)": {
        "details": "Atomically increases the allowance granted to `spender` by the caller. This is an alternative to {approve} that can be used as a mitigation for problems described in {IERC20-approve}. Emits an {Approval} event indicating the updated allowance. Requirements: - `spender` cannot be the zero address."
      },
      "name()": {
        "details": "Returns the name of the token."
      },
      "owner()": {
        "details": "Returns the address of the current owner."
      },
      "renounceOwnership()": {
        "details": "Leaves the contract without owner. It will not be possible to call `onlyOwner` functions. Can only be called by the current owner. NOTE: Renouncing ownership will leave the contract without an owner, thereby disabling any functionality that is only available to the owner."
      },
      "symbol()": {
        "details": "Returns the symbol of the token, usually a shorter version of the name."
      },
      "totalSupply()": {
        "details": "See {IERC20-totalSupply}."
      },
      "transfer(address,uint256)": {
        "details": "See {IERC20-transfer}. Requirements: - `to` cannot be the zero address. - the caller must have a balance of at least `amount`."
      },
      "transferFrom(address,address,uint256)": {
        "details": "See {IERC20-transferFrom}. Emits an {Approval} event indicating the updated allowance. This is not required by the EIP. See the note at the beginning of {ERC20}. NOTE: Does not update the allowance if the current allowance is the maximum `uint256`. Requirements: - `from` and `to` cannot be the zero address. - `from` must have a balance of at least `amount`. - the caller must have allowance for ``from``'s tokens of at least `amount`."
      },
      "transferOwnership(address)": {
        "details": "Transfers ownership of the contract to a new account (`newOwner`). Can only be called by the current owner."
      }
    },
    "version": 1
  },
  "userdoc": {
    "kind": "user",
    "methods": {},
    "version": 1
  }
}