{
  "contractName": "Asami",
  "abi": [
    {
      "inputs": [
        {
          "internalType": "address",
          "name": "_dollarOnChainAddress",
          "type": "address"
        }
      ],
      "stateMutability": "nonpayable",
      "type": "constructor"
    },
    {
      "anonymous": false,
      "inputs": [
        {
          "indexed": false,
          "internalType": "string",
          "name": "",
          "type": "string"
        }
      ],
      "name": "DebugEvent",
      "type": "event"
    },
    {
      "anonymous": false,
      "inputs": [
        {
          "indexed": true,
          "internalType": "address",
          "name": "previousOwner",
          "type": "address"
        },
        {
          "indexed": true,
          "internalType": "address",
          "name": "newOwner",
          "type": "address"
        }
      ],
      "name": "OwnershipTransferred",
      "type": "event"
    },
    {
      "inputs": [],
      "name": "owner",
      "outputs": [
        {
          "internalType": "address",
          "name": "",
          "type": "address"
        }
      ],
      "stateMutability": "view",
      "type": "function",
      "constant": true
    },
    {
      "inputs": [],
      "name": "renounceOwnership",
      "outputs": [],
      "stateMutability": "nonpayable",
      "type": "function"
    },
    {
      "inputs": [
        {
          "internalType": "address",
          "name": "newOwner",
          "type": "address"
        }
      ],
      "name": "transferOwnership",
      "outputs": [],
      "stateMutability": "nonpayable",
      "type": "function"
    },
    {
      "inputs": [
        {
          "internalType": "uint256",
          "name": "_funding",
          "type": "uint256"
        },
        {
          "internalType": "uint256",
          "name": "_startDate",
          "type": "uint256"
        },
        {
          "internalType": "string",
          "name": "_requestedContent",
          "type": "string"
        },
        {
          "components": [
            {
              "internalType": "uint256",
              "name": "rewardAmount",
              "type": "uint256"
            },
            {
              "internalType": "address",
              "name": "rewardAddress",
              "type": "address"
            },
            {
              "internalType": "string",
              "name": "nostrHexPubkey",
              "type": "string"
            },
            {
              "internalType": "uint256",
              "name": "nostrAffineX",
              "type": "uint256"
            },
            {
              "internalType": "uint256",
              "name": "nostrAffineY",
              "type": "uint256"
            }
          ],
          "internalType": "struct AsamiNostr.NewOffer[]",
          "name": "_newOffers",
          "type": "tuple[]"
        }
      ],
      "name": "nostrCreateCampaign",
      "outputs": [],
      "stateMutability": "nonpayable",
      "type": "function"
    },
    {
      "inputs": [
        {
          "components": [
            {
              "internalType": "uint256",
              "name": "funding",
              "type": "uint256"
            },
            {
              "internalType": "uint256",
              "name": "startDate",
              "type": "uint256"
            },
            {
              "internalType": "uint256",
              "name": "socialNetworkId",
              "type": "uint256"
            },
            {
              "internalType": "string",
              "name": "rulesUrl",
              "type": "string"
            },
            {
              "internalType": "bytes32",
              "name": "rulesHash",
              "type": "bytes32"
            },
            {
              "internalType": "address",
              "name": "oracleAddress",
              "type": "address"
            },
            {
              "internalType": "uint256",
              "name": "oracleFee",
              "type": "uint256"
            },
            {
              "components": [
                {
                  "internalType": "uint256",
                  "name": "rewardAmount",
                  "type": "uint256"
                },
                {
                  "internalType": "address",
                  "name": "rewardAddress",
                  "type": "address"
                },
                {
                  "internalType": "string",
                  "name": "username",
                  "type": "string"
                }
              ],
              "internalType": "struct AsamiClassic.NewOffer[]",
              "name": "newOffers",
              "type": "tuple[]"
            }
          ],
          "internalType": "struct Asami.NewClassicCampaign",
          "name": "_c",
          "type": "tuple"
        }
      ],
      "name": "classicCreateCampaign",
      "outputs": [],
      "stateMutability": "nonpayable",
      "type": "function"
    },
    {
      "inputs": [
        {
          "components": [
            {
              "internalType": "uint256",
              "name": "campaignId",
              "type": "uint256"
            },
            {
              "internalType": "uint256",
              "name": "offerId",
              "type": "uint256"
            }
          ],
          "internalType": "struct Asami.OfferPointer",
          "name": "_p",
          "type": "tuple"
        }
      ],
      "name": "nostrChallenge",
      "outputs": [],
      "stateMutability": "nonpayable",
      "type": "function"
    },
    {
      "inputs": [
        {
          "components": [
            {
              "internalType": "uint256",
              "name": "campaignId",
              "type": "uint256"
            },
            {
              "internalType": "uint256",
              "name": "offerId",
              "type": "uint256"
            }
          ],
          "internalType": "struct Asami.OfferPointer",
          "name": "_p",
          "type": "tuple"
        },
        {
          "components": [
            {
              "internalType": "uint256",
              "name": "createdAt",
              "type": "uint256"
            },
            {
              "internalType": "uint256",
              "name": "sigR",
              "type": "uint256"
            },
            {
              "internalType": "uint256",
              "name": "sigS",
              "type": "uint256"
            }
          ],
          "internalType": "struct AsamiNostr.MessageProof",
          "name": "_proof",
          "type": "tuple"
        }
      ],
      "name": "nostrConfirm",
      "outputs": [],
      "stateMutability": "nonpayable",
      "type": "function"
    },
    {
      "inputs": [
        {
          "components": [
            {
              "internalType": "uint256",
              "name": "campaignId",
              "type": "uint256"
            },
            {
              "internalType": "uint256",
              "name": "offerId",
              "type": "uint256"
            }
          ],
          "internalType": "struct Asami.OfferPointer",
          "name": "_p",
          "type": "tuple"
        }
      ],
      "name": "nostrRenounce",
      "outputs": [],
      "stateMutability": "nonpayable",
      "type": "function"
    },
    {
      "inputs": [
        {
          "components": [
            {
              "internalType": "uint256",
              "name": "campaignId",
              "type": "uint256"
            },
            {
              "internalType": "uint256",
              "name": "offerId",
              "type": "uint256"
            }
          ],
          "internalType": "struct Asami.OfferPointer",
          "name": "_p",
          "type": "tuple"
        },
        {
          "components": [
            {
              "internalType": "string",
              "name": "content",
              "type": "string"
            },
            {
              "internalType": "string",
              "name": "tags",
              "type": "string"
            },
            {
              "internalType": "uint256",
              "name": "createdAt",
              "type": "uint256"
            },
            {
              "internalType": "uint256",
              "name": "sigR",
              "type": "uint256"
            },
            {
              "internalType": "uint256",
              "name": "sigS",
              "type": "uint256"
            }
          ],
          "internalType": "struct AsamiNostr.DeletionProof",
          "name": "_deletionProof",
          "type": "tuple"
        }
      ],
      "name": "nostrReportConfirmed",
      "outputs": [],
      "stateMutability": "nonpayable",
      "type": "function"
    },
    {
      "inputs": [
        {
          "components": [
            {
              "internalType": "uint256",
              "name": "campaignId",
              "type": "uint256"
            },
            {
              "internalType": "uint256",
              "name": "offerId",
              "type": "uint256"
            }
          ],
          "internalType": "struct Asami.OfferPointer",
          "name": "_p",
          "type": "tuple"
        },
        {
          "components": [
            {
              "internalType": "uint256",
              "name": "createdAt",
              "type": "uint256"
            },
            {
              "internalType": "uint256",
              "name": "sigR",
              "type": "uint256"
            },
            {
              "internalType": "uint256",
              "name": "sigS",
              "type": "uint256"
            }
          ],
          "internalType": "struct AsamiNostr.MessageProof",
          "name": "_messageProof",
          "type": "tuple"
        },
        {
          "components": [
            {
              "internalType": "string",
              "name": "content",
              "type": "string"
            },
            {
              "internalType": "string",
              "name": "tags",
              "type": "string"
            },
            {
              "internalType": "uint256",
              "name": "createdAt",
              "type": "uint256"
            },
            {
              "internalType": "uint256",
              "name": "sigR",
              "type": "uint256"
            },
            {
              "internalType": "uint256",
              "name": "sigS",
              "type": "uint256"
            }
          ],
          "internalType": "struct AsamiNostr.DeletionProof",
          "name": "_deletionProof",
          "type": "tuple"
        }
      ],
      "name": "nostrReportAssumed",
      "outputs": [],
      "stateMutability": "nonpayable",
      "type": "function"
    },
    {
      "inputs": [
        {
          "components": [
            {
              "internalType": "uint256",
              "name": "campaignId",
              "type": "uint256"
            },
            {
              "internalType": "uint256",
              "name": "offerId",
              "type": "uint256"
            }
          ],
          "internalType": "struct Asami.OfferPointer",
          "name": "_p",
          "type": "tuple"
        }
      ],
      "name": "classicChallenge",
      "outputs": [],
      "stateMutability": "nonpayable",
      "type": "function"
    },
    {
      "inputs": [
        {
          "components": [
            {
              "internalType": "uint256",
              "name": "campaignId",
              "type": "uint256"
            },
            {
              "internalType": "uint256",
              "name": "offerId",
              "type": "uint256"
            }
          ],
          "internalType": "struct Asami.OfferPointer",
          "name": "_p",
          "type": "tuple"
        }
      ],
      "name": "classicRequestConfirmation",
      "outputs": [],
      "stateMutability": "nonpayable",
      "type": "function"
    },
    {
      "inputs": [
        {
          "components": [
            {
              "internalType": "uint256",
              "name": "campaignId",
              "type": "uint256"
            },
            {
              "internalType": "uint256",
              "name": "offerId",
              "type": "uint256"
            }
          ],
          "internalType": "struct Asami.OfferPointer",
          "name": "_p",
          "type": "tuple"
        },
        {
          "internalType": "bool",
          "name": "_found",
          "type": "bool"
        }
      ],
      "name": "classicConfirm",
      "outputs": [],
      "stateMutability": "nonpayable",
      "type": "function"
    },
    {
      "inputs": [
        {
          "components": [
            {
              "internalType": "uint256",
              "name": "campaignId",
              "type": "uint256"
            },
            {
              "internalType": "uint256",
              "name": "offerId",
              "type": "uint256"
            }
          ],
          "internalType": "struct Asami.OfferPointer",
          "name": "_p",
          "type": "tuple"
        },
        {
          "internalType": "bool",
          "name": "_found",
          "type": "bool"
        }
      ],
      "name": "classicConfirmFree",
      "outputs": [],
      "stateMutability": "nonpayable",
      "type": "function"
    },
    {
      "inputs": [
        {
          "components": [
            {
              "internalType": "uint256",
              "name": "campaignId",
              "type": "uint256"
            },
            {
              "internalType": "uint256",
              "name": "offerId",
              "type": "uint256"
            }
          ],
          "internalType": "struct Asami.OfferPointer",
          "name": "_p",
          "type": "tuple"
        }
      ],
      "name": "classicRenounce",
      "outputs": [],
      "stateMutability": "nonpayable",
      "type": "function"
    },
    {
      "inputs": [
        {
          "components": [
            {
              "internalType": "uint256",
              "name": "campaignId",
              "type": "uint256"
            },
            {
              "internalType": "uint256",
              "name": "offerId",
              "type": "uint256"
            }
          ],
          "internalType": "struct Asami.OfferPointer",
          "name": "_p",
          "type": "tuple"
        }
      ],
      "name": "classicReportDeletion",
      "outputs": [],
      "stateMutability": "nonpayable",
      "type": "function"
    },
    {
      "inputs": [
        {
          "components": [
            {
              "internalType": "uint256",
              "name": "campaignId",
              "type": "uint256"
            },
            {
              "internalType": "uint256",
              "name": "offerId",
              "type": "uint256"
            }
          ],
          "internalType": "struct Asami.OfferPointer",
          "name": "_p",
          "type": "tuple"
        },
        {
          "internalType": "bool",
          "name": "_wasDeleted",
          "type": "bool"
        }
      ],
      "name": "classicConfirmDeletion",
      "outputs": [],
      "stateMutability": "nonpayable",
      "type": "function"
    },
    {
      "inputs": [
        {
          "internalType": "address",
          "name": "_collaborator",
          "type": "address"
        }
      ],
      "name": "getCollectableCollaboratorOffers",
      "outputs": [
        {
          "components": [
            {
              "internalType": "uint256",
              "name": "campaignId",
              "type": "uint256"
            },
            {
              "internalType": "uint256",
              "name": "offerId",
              "type": "uint256"
            }
          ],
          "internalType": "struct Asami.OfferPointer[]",
          "name": "",
          "type": "tuple[]"
        },
        {
          "components": [
            {
              "internalType": "uint256",
              "name": "campaignId",
              "type": "uint256"
            },
            {
              "internalType": "uint256",
              "name": "offerId",
              "type": "uint256"
            }
          ],
          "internalType": "struct Asami.OfferPointer[]",
          "name": "",
          "type": "tuple[]"
        }
      ],
      "stateMutability": "view",
      "type": "function",
      "constant": true
    },
    {
      "inputs": [
        {
          "internalType": "address",
          "name": "_collaborator",
          "type": "address"
        },
        {
          "components": [
            {
              "internalType": "uint256",
              "name": "campaignId",
              "type": "uint256"
            },
            {
              "internalType": "uint256",
              "name": "offerId",
              "type": "uint256"
            }
          ],
          "internalType": "struct Asami.OfferPointer[]",
          "name": "_nostrPointers",
          "type": "tuple[]"
        },
        {
          "components": [
            {
              "internalType": "uint256",
              "name": "campaignId",
              "type": "uint256"
            },
            {
              "internalType": "uint256",
              "name": "offerId",
              "type": "uint256"
            }
          ],
          "internalType": "struct Asami.OfferPointer[]",
          "name": "_classicPointers",
          "type": "tuple[]"
        }
      ],
      "name": "collectCollaboratorOffers",
      "outputs": [],
      "stateMutability": "nonpayable",
      "type": "function"
    },
    {
      "inputs": [
        {
          "internalType": "address",
          "name": "_advertiser",
          "type": "address"
        }
      ],
      "name": "getCollectableAdvertiserOffers",
      "outputs": [
        {
          "components": [
            {
              "internalType": "uint256",
              "name": "campaignId",
              "type": "uint256"
            },
            {
              "internalType": "uint256",
              "name": "offerId",
              "type": "uint256"
            }
          ],
          "internalType": "struct Asami.OfferPointer[]",
          "name": "",
          "type": "tuple[]"
        },
        {
          "components": [
            {
              "internalType": "uint256",
              "name": "campaignId",
              "type": "uint256"
            },
            {
              "internalType": "uint256",
              "name": "offerId",
              "type": "uint256"
            }
          ],
          "internalType": "struct Asami.OfferPointer[]",
          "name": "",
          "type": "tuple[]"
        }
      ],
      "stateMutability": "view",
      "type": "function",
      "constant": true
    },
    {
      "inputs": [
        {
          "internalType": "address payable",
          "name": "_advertiser",
          "type": "address"
        },
        {
          "components": [
            {
              "internalType": "uint256",
              "name": "campaignId",
              "type": "uint256"
            },
            {
              "internalType": "uint256",
              "name": "offerId",
              "type": "uint256"
            }
          ],
          "internalType": "struct Asami.OfferPointer[]",
          "name": "_nostrOffers",
          "type": "tuple[]"
        },
        {
          "components": [
            {
              "internalType": "uint256",
              "name": "campaignId",
              "type": "uint256"
            },
            {
              "internalType": "uint256",
              "name": "offerId",
              "type": "uint256"
            }
          ],
          "internalType": "struct Asami.OfferPointer[]",
          "name": "_classicOffers",
          "type": "tuple[]"
        }
      ],
      "name": "collectAdvertiserOffers",
      "outputs": [],
      "stateMutability": "nonpayable",
      "type": "function"
    },
    {
      "inputs": [
        {
          "internalType": "address",
          "name": "_debtor",
          "type": "address"
        }
      ],
      "name": "payDeletionPenalties",
      "outputs": [],
      "stateMutability": "payable",
      "type": "function",
      "payable": true
    },
    {
      "inputs": [
        {
          "internalType": "uint256",
          "name": "_fee",
          "type": "uint256"
        }
      ],
      "name": "setAsamiFeePerOffer",
      "outputs": [],
      "stateMutability": "nonpayable",
      "type": "function"
    },
    {
      "inputs": [
        {
          "internalType": "uint256",
          "name": "_fee",
          "type": "uint256"
        }
      ],
      "name": "setAsamiMaxFeePerCampaign",
      "outputs": [],
      "stateMutability": "nonpayable",
      "type": "function"
    },
    {
      "inputs": [
        {
          "internalType": "address",
          "name": "_feesAddress",
          "type": "address"
        }
      ],
      "name": "setAsamiFeesAddress",
      "outputs": [],
      "stateMutability": "nonpayable",
      "type": "function"
    },
    {
      "inputs": [
        {
          "internalType": "string",
          "name": "_name",
          "type": "string"
        }
      ],
      "name": "addSocialNetwork",
      "outputs": [],
      "stateMutability": "nonpayable",
      "type": "function"
    },
    {
      "inputs": [],
      "name": "collectAsamiFees",
      "outputs": [],
      "stateMutability": "nonpayable",
      "type": "function"
    },
    {
      "inputs": [
        {
          "internalType": "address",
          "name": "_oracle",
          "type": "address"
        }
      ],
      "name": "collectOracleFees",
      "outputs": [],
      "stateMutability": "nonpayable",
      "type": "function"
    },
    {
      "inputs": [
        {
          "components": [
            {
              "internalType": "uint256",
              "name": "campaignId",
              "type": "uint256"
            },
            {
              "internalType": "uint256",
              "name": "offerId",
              "type": "uint256"
            }
          ],
          "internalType": "struct Asami.OfferPointer",
          "name": "_p",
          "type": "tuple"
        }
      ],
      "name": "nostrGetCampaignOffer",
      "outputs": [
        {
          "components": [
            {
              "internalType": "enum AsamiNostr.OfferState",
              "name": "state",
              "type": "uint8"
            },
            {
              "internalType": "bool",
              "name": "collected",
              "type": "bool"
            },
            {
              "internalType": "string",
              "name": "nostrHexPubkey",
              "type": "string"
            },
            {
              "internalType": "uint256",
              "name": "rewardAmount",
              "type": "uint256"
            },
            {
              "internalType": "address",
              "name": "rewardAddress",
              "type": "address"
            },
            {
              "internalType": "uint256",
              "name": "nostrAffineX",
              "type": "uint256"
            },
            {
              "internalType": "uint256",
              "name": "nostrAffineY",
              "type": "uint256"
            },
            {
              "internalType": "bytes32",
              "name": "messageId",
              "type": "bytes32"
            }
          ],
          "internalType": "struct AsamiNostr.Offer",
          "name": "",
          "type": "tuple"
        }
      ],
      "stateMutability": "view",
      "type": "function",
      "constant": true
    },
    {
      "inputs": [
        {
          "components": [
            {
              "internalType": "uint256",
              "name": "campaignId",
              "type": "uint256"
            },
            {
              "internalType": "uint256",
              "name": "offerId",
              "type": "uint256"
            }
          ],
          "internalType": "struct Asami.OfferPointer",
          "name": "_p",
          "type": "tuple"
        }
      ],
      "name": "classicGetCampaignOffer",
      "outputs": [
        {
          "components": [
            {
              "internalType": "enum AsamiClassic.OfferState",
              "name": "state",
              "type": "uint8"
            },
            {
              "internalType": "string",
              "name": "username",
              "type": "string"
            },
            {
              "internalType": "uint256",
              "name": "rewardAmount",
              "type": "uint256"
            },
            {
              "internalType": "address",
              "name": "rewardAddress",
              "type": "address"
            },
            {
              "internalType": "string",
              "name": "publicationUrl",
              "type": "string"
            },
            {
              "internalType": "uint256",
              "name": "deletionReportedAt",
              "type": "uint256"
            },
            {
              "internalType": "bool",
              "name": "advertiserCollected",
              "type": "bool"
            },
            {
              "internalType": "bool",
              "name": "collaboratorCollected",
              "type": "bool"
            },
            {
              "internalType": "bool",
              "name": "oracleCollected",
              "type": "bool"
            }
          ],
          "internalType": "struct AsamiClassic.Offer",
          "name": "",
          "type": "tuple"
        }
      ],
      "stateMutability": "view",
      "type": "function",
      "constant": true
    },
    {
      "inputs": [
        {
          "internalType": "uint256",
          "name": "_offerCount",
          "type": "uint256"
        }
      ],
      "name": "calculateCampaignFees",
      "outputs": [
        {
          "internalType": "uint256",
          "name": "",
          "type": "uint256"
        }
      ],
      "stateMutability": "view",
      "type": "function",
      "constant": true
    },
    {
      "inputs": [],
      "name": "getCampaigns",
      "outputs": [
        {
          "components": [
            {
              "internalType": "uint256",
              "name": "funding",
              "type": "uint256"
            },
            {
              "internalType": "address",
              "name": "advertiser",
              "type": "address"
            },
            {
              "internalType": "uint256",
              "name": "startDate",
              "type": "uint256"
            },
            {
              "components": [
                {
                  "internalType": "string",
                  "name": "requestedContent",
                  "type": "string"
                },
                {
                  "components": [
                    {
                      "internalType": "enum AsamiNostr.OfferState",
                      "name": "state",
                      "type": "uint8"
                    },
                    {
                      "internalType": "bool",
                      "name": "collected",
                      "type": "bool"
                    },
                    {
                      "internalType": "string",
                      "name": "nostrHexPubkey",
                      "type": "string"
                    },
                    {
                      "internalType": "uint256",
                      "name": "rewardAmount",
                      "type": "uint256"
                    },
                    {
                      "internalType": "address",
                      "name": "rewardAddress",
                      "type": "address"
                    },
                    {
                      "internalType": "uint256",
                      "name": "nostrAffineX",
                      "type": "uint256"
                    },
                    {
                      "internalType": "uint256",
                      "name": "nostrAffineY",
                      "type": "uint256"
                    },
                    {
                      "internalType": "bytes32",
                      "name": "messageId",
                      "type": "bytes32"
                    }
                  ],
                  "internalType": "struct AsamiNostr.Offer[]",
                  "name": "offers",
                  "type": "tuple[]"
                }
              ],
              "internalType": "struct AsamiNostr.Terms",
              "name": "nostrTerms",
              "type": "tuple"
            },
            {
              "components": [
                {
                  "internalType": "uint256",
                  "name": "socialNetworkId",
                  "type": "uint256"
                },
                {
                  "internalType": "string",
                  "name": "rulesUrl",
                  "type": "string"
                },
                {
                  "internalType": "bytes32",
                  "name": "rulesHash",
                  "type": "bytes32"
                },
                {
                  "internalType": "address",
                  "name": "oracleAddress",
                  "type": "address"
                },
                {
                  "internalType": "uint256",
                  "name": "oracleFee",
                  "type": "uint256"
                },
                {
                  "components": [
                    {
                      "internalType": "enum AsamiClassic.OfferState",
                      "name": "state",
                      "type": "uint8"
                    },
                    {
                      "internalType": "string",
                      "name": "username",
                      "type": "string"
                    },
                    {
                      "internalType": "uint256",
                      "name": "rewardAmount",
                      "type": "uint256"
                    },
                    {
                      "internalType": "address",
                      "name": "rewardAddress",
                      "type": "address"
                    },
                    {
                      "internalType": "string",
                      "name": "publicationUrl",
                      "type": "string"
                    },
                    {
                      "internalType": "uint256",
                      "name": "deletionReportedAt",
                      "type": "uint256"
                    },
                    {
                      "internalType": "bool",
                      "name": "advertiserCollected",
                      "type": "bool"
                    },
                    {
                      "internalType": "bool",
                      "name": "collaboratorCollected",
                      "type": "bool"
                    },
                    {
                      "internalType": "bool",
                      "name": "oracleCollected",
                      "type": "bool"
                    }
                  ],
                  "internalType": "struct AsamiClassic.Offer[]",
                  "name": "offers",
                  "type": "tuple[]"
                }
              ],
              "internalType": "struct AsamiClassic.Terms",
              "name": "classicTerms",
              "type": "tuple"
            }
          ],
          "internalType": "struct Asami.Campaign[]",
          "name": "",
          "type": "tuple[]"
        }
      ],
      "stateMutability": "view",
      "type": "function",
      "constant": true
    },
    {
      "inputs": [],
      "name": "getSocialNetworks",
      "outputs": [
        {
          "internalType": "string[]",
          "name": "",
          "type": "string[]"
        }
      ],
      "stateMutability": "view",
      "type": "function",
      "constant": true
    }
  ],
  "bytecode": "0x6080604052670de0b6b3a76400006001556802b5e3af16b188000060025560006003553480156200002f57600080fd5b506040516200601f3803806200601f8339810160408190526200005291620000d3565b6200005d3362000083565b600980546001600160a01b0319166001600160a01b039290921691909117905562000105565b600080546001600160a01b038381166001600160a01b0319831681178455604051919092169283917f8be0079c531659141344cd1fd0a4f28419497f9722a3daafe3b4186f6b6457e09190a35050565b600060208284031215620000e657600080fd5b81516001600160a01b0381168114620000fe57600080fd5b9392505050565b615f0a80620001156000396000f3fe60806040526004361061018e5760003560e01c80636dbcf8fc116100dd5780636dbcf8fc146103ae5780636facf85c146103ce578063715018a6146103ee5780637aeb9581146104035780637aed528e146104305780638da5cb5b146104505780639cfd58d91461047d578063a6b036331461049d578063a89054f3146104bf578063b1693ad0146104df578063bf000e28146104ff578063d3a43a861461052d578063e6a8dc0c1461054d578063eae0d0fb14610562578063ebb7593414610582578063ed8dd3bf146105a2578063f2fde38b146105c257600080fd5b80630500db4e1461019357806305ac9a46146101b557806312ad0808146101d5578063131886161461020b5780631dd489d01461022b578063224f29b11461024b57806323c7a79c1461026b5780632d48b9691461028b57806333e93a0c1461029e5780633d11e6da146102be5780634c670d05146102de5780634ee47dcd146102fe5780635aa501421461031e5780635b036bf9146103405780635e3490e214610360578063694ac1b31461038e575b600080fd5b34801561019f57600080fd5b506101b36101ae366004614f90565b6105e2565b005b3480156101c157600080fd5b506101b36101d0366004614fba565b6106ec565b3480156101e157600080fd5b506101f56101f0366004615008565b6107e1565b6040516102029190615157565b60405180910390f35b34801561021757600080fd5b506101b361022636600461517c565b61099b565b34801561023757600080fd5b506101b36102463660046151b1565b610b5b565b34801561025757600080fd5b506101b36102663660046151dc565b610b68565b34801561027757600080fd5b506101b3610286366004614f90565b610d75565b6101b361029936600461523f565b610e4c565b3480156102aa57600080fd5b506101b36102b93660046152a7565b610f97565b3480156102ca57600080fd5b506101b36102d93660046151b1565b611379565b3480156102ea57600080fd5b506101b36102f9366004614f90565b611386565b34801561030a57600080fd5b506101b3610319366004614fba565b6114c2565b34801561032a57600080fd5b506103336115a9565b6040516102029190615329565b34801561034c57600080fd5b506101b361035b366004614f90565b611682565b34801561036c57600080fd5b5061038061037b36600461523f565b611710565b6040516102029291906153d1565b34801561039a57600080fd5b506101b36103a9366004615437565b611af9565b3480156103ba57600080fd5b506101b36103c93660046152a7565b611e69565b3480156103da57600080fd5b506101b36103e9366004614f90565b6121c4565b3480156103fa57600080fd5b506101b361229b565b34801561040f57600080fd5b5061042361041e366004615008565b6122af565b60405161020291906155a5565b34801561043c57600080fd5b5061038061044b36600461523f565b612525565b34801561045c57600080fd5b50610465612962565b6040516001600160a01b039091168152602001610202565b34801561048957600080fd5b506101b3610498366004614fba565b612971565b3480156104a957600080fd5b506104b2612a0d565b6040516102029190615662565b3480156104cb57600080fd5b506101b36104da366004614f90565b612fb3565b3480156104eb57600080fd5b506101b36104fa366004615780565b613042565b34801561050b57600080fd5b5061051f61051a3660046151b1565b613087565b604051908152602001610202565b34801561053957600080fd5b506101b361054836600461523f565b6130b4565b34801561055957600080fd5b506101b3613183565b34801561056e57600080fd5b506101b361057d3660046157c1565b61321d565b34801561058e57600080fd5b506101b361059d366004615820565b613525565b3480156105ae57600080fd5b506101b36105bd36600461523f565b613a8a565b3480156105ce57600080fd5b506101b36105dd36600461523f565b613ab4565b60006105fc82826105f7620151806002615871565b613b2d565b905060008160050160050183602001358154811061061c5761061c615888565b6000918252602090912060079091020190506001815460ff16600781111561064657610646615056565b1461065057600080fd5b60098054908301546040516323b872dd60e01b81526001600160a01b03909216916323b872dd91610687913391309160040161589e565b6020604051808303816000875af11580156106a6573d6000803e3d6000fd5b505050506040513d601f19601f820116820180604052508101906106ca91906158c2565b6106d357600080fd5b8054600290829060ff19166001835b0217905550505050565b600061070183826105f7620151806003615871565b60088101549091506001600160a01b0316331461071d57600080fd5b60008160050160050184602001358154811061073b5761073b615888565b6000918252602090912060079091020190506002815460ff16600781111561076557610765615056565b1461076f57600080fd5b60098201546008808401546001600160a01b031660009081526020919091526040812080549091906107a29084906158df565b909155505082156107c6578054600390829060ff19166001835b02179055506107db565b8054600490829060ff19166001835b02179055505b50505050565b61082a604080516101008101909152806000815260006020820181905260606040830181905282018190526080820181905260a0820181905260c0820181905260e09091015290565b600582600001518154811061084157610841615888565b90600052602060002090600b020160030160010182602001518154811061086a5761086a615888565b600091825260209091206040805161010081019091526007909202018054829060ff16600481111561089e5761089e615056565b60048111156108af576108af615056565b81528154610100900460ff16151560208201526001820180546040909201916108d7906158f2565b80601f0160208091040260200160405190810160405280929190818152602001828054610903906158f2565b80156109505780601f1061092557610100808354040283529160200191610950565b820191906000526020600020905b81548152906001019060200180831161093357829003601f168201915b50505091835250506002820154602082015260038201546001600160a01b03166040820152600482015460608201526005820154608082015260069091015460a09091015292915050565b60006109b083826105f7620151806002615871565b90506000816003016001018460200135815481106109d0576109d0615888565b6000918252602090912060079091020190506001815460ff1660048111156109fa576109fa615056565b14610a0457600080fd5b6000610b45836003016000018054610a1b906158f2565b80601f0160208091040260200160405190810160405280929190818152602001828054610a47906158f2565b8015610a945780601f10610a6957610100808354040283529160200191610a94565b820191906000526020600020905b815481529060010190602001808311610a7757829003601f168201915b5050505050836001018054610aa8906158f2565b80601f0160208091040260200160405190810160405280929190818152602001828054610ad4906158f2565b8015610b215780601f10610af657610100808354040283529160200191610b21565b820191906000526020600020905b815481529060010190602001808311610b0457829003601f168201915b50610b36935050505036889003880188615926565b85600401548660050154613bc8565b600683015550805460ff19166002179055505050565b610b63613caf565b600255565b60005a90506000610b8284826105f762015180600e615871565b9050600081600301600101856020013581548110610ba257610ba2615888565b6000918252602090912060079091020190506002815460ff166004811115610bcc57610bcc615056565b14610bd657600080fd5b6006810154610c2690610bec6020870187615981565b8080601f016020809104026020016040519081016040528093929190818152602001838380828437600092019190915250613d0e92505050565b610c2f57600080fd5b610cd8816001018054610c41906158f2565b80601f0160208091040260200160405190810160405280929190818152602001828054610c6d906158f2565b8015610cba5780601f10610c8f57610100808354040283529160200191610cba565b820191906000526020600020905b815481529060010190602001808311610c9d57829003601f168201915b505050505085610cc990615a53565b83600401548460050154613e07565b805460ff191660041781556000600a5a610cf29086615af9565b610cfd90600b615871565b610d079190615b22565b600392909201546001600160a01b039081166000908152600760209081526040808320815180830190925233825281830196875280546001808201835591855292909320905160029092020180546001600160a01b0319169190931617825592519201919091555050505050565b6000610d8a82826105f762015180600e615871565b9050600081600301600101836020013581548110610daa57610daa615888565b600091825260209091206003600790920201908101549091506001600160a01b03163314610dd757600080fd5b6000815460ff166004811115610def57610def615056565b1480610e1057506001815460ff166004811115610e0e57610e0e615056565b145b80610e3057506002815460ff166004811115610e2e57610e2e615056565b145b610e3957600080fd5b8054600390829060ff19166001836106e2565b6001600160a01b038116600090815260076020526040812090805b8254811015610eb357828181548110610e8257610e82615888565b90600052602060002090600202016001015482610e9f91906158df565b915080610eab81615b36565b915050610e67565b5060008111610ec157600080fd5b803414610ecd57600080fd5b60005b8254811015610f7057828181548110610eeb57610eeb615888565b600091825260209091206002909102015483546001600160a01b03909116906108fc90859084908110610f2057610f20615888565b9060005260206000209060020201600101549081150290604051600060405180830381858888f19350505050158015610f5d573d6000803e3d6000fd5b5080610f6881615b36565b915050610ed0565b506001600160a01b0383166000908152600760205260408120610f9291614ef5565b505050565b6001600160a01b03851660009081526007602052604090205415610fba57600080fd5b6000805b848110156110fc5760006005878784818110610fdc57610fdc615888565b9050604002016000013581548110610ff657610ff6615888565b90600052602060002090600b0201905062015180600e6110169190615871565b816002015461102591906158df565b42101561104d5760405162461bcd60e51b815260040161104490615b4f565b60405180910390fd5b60006004820188888581811061106557611065615888565b905060400201602001358154811061107f5761107f615888565b6000918252602090912060079091020160038101549091506001600160a01b038a81169116146110c15760405162461bcd60e51b815260040161104490615b6a565b6110ca81613ee8565b6110d357600080fd5b6002810154815461ff0019166101001790915592508190506110f481615b36565b915050610fbe565b5060005b828110156112f0576000600585858481811061111e5761111e615888565b905060400201600001358154811061113857611138615888565b90600052602060002090600b0201905062015180600e6111589190615871565b816002015461116791906158df565b42101561117357600080fd5b6000600a820186868581811061118b5761118b615888565b90506040020160200135815481106111a5576111a5615888565b6000918252602090912060079091020160038101549091506001600160a01b038a81169116146111d457600080fd5b6006810154610100900460ff16156111eb57600080fd5b6000815460ff16600781111561120357611203615056565b148061122457506003815460ff16600781111561122257611222615056565b145b1561123f57600281015461123890856158df565b93506112cd565b6002815460ff16600781111561125757611257615056565b0361126b57600982015461123890856158df565b6006815460ff16600781111561128357611283615056565b0361018e5761129662015180600e615871565b8160020154836002015483600501546112af9190615af9565b6112b99190615871565b6112c39190615b22565b61123890856158df565b600601805461ff00191661010017905550806112e881615b36565b915050611100565b5060095460405163a9059cbb60e01b81526001600160a01b038881166004830152602482018490529091169063a9059cbb906044016020604051808303816000875af1158015611344573d6000803e3d6000fd5b505050506040513d601f19601f8201168201806040525081019061136891906158c2565b61137157600080fd5b505050505050565b611381613caf565b600155565b600061139b82826105f762015180600e615871565b60018101549091506001600160a01b031633146113b757600080fd5b6000816005016005018360200135815481106113d5576113d5615888565b6000918252602082206007909102019150815460ff1660078111156113fc576113fc615056565b148061141d57506003815460ff16600781111561141b5761141b615056565b145b61142657600080fd5b60098054908301546040516323b872dd60e01b81526001600160a01b03909216916323b872dd9161145d913391309160040161589e565b6020604051808303816000875af115801561147c573d6000803e3d6000fd5b505050506040513d601f19601f820116820180604052508101906114a091906158c2565b6114a957600080fd5b4260058201558054600690829060ff19166001836106e2565b60006114d783826105f762015180600e615871565b60088101549091506001600160a01b031633146114f357600080fd5b60008160050160050184602001358154811061151157611511615888565b6000918252602090912060079091020190506006815460ff16600781111561153b5761153b615056565b1461154557600080fd5b60098201546008808401546001600160a01b031660009081526020919091526040812080549091906115789084906158df565b90915550508215611596578054600790829060ff19166001836107bc565b8054600390829060ff19166001836107d5565b60606006805480602002602001604051908101604052809291908181526020016000905b828210156116795783829060005260206000200180546115ec906158f2565b80601f0160208091040260200160405190810160405280929190818152602001828054611618906158f2565b80156116655780601f1061163a57610100808354040283529160200191611665565b820191906000526020600020905b81548152906001019060200180831161164857829003601f168201915b5050505050815260200190600101906115cd565b50505050905090565b600061169382600062015180613b2d565b60018101549091506001600160a01b031633146116af57600080fd5b6000816005016005018360200135815481106116cd576116cd615888565b6000918252602082206007909102019150815460ff1660078111156116f4576116f4615056565b146116fe57600080fd5b8054600190829060ff191682806106e2565b60408051600080825260208201909252606091829181611746565b611733614f16565b81526020019060019003908161172b5790505b5060408051600080825260208201909252919250908161177c565b611769614f16565b8152602001906001900390816117615790505b50905060005b600554811015611aee576000600582815481106117a1576117a1615888565b60009182526020909120600b9091020160018101549091506001600160a01b0388811691161415806117ee57506117dc62015180600e615871565b81600201546117eb91906158df565b42105b156117f95750611adc565b6004810154156118715760005b600482015481101561186b57600082600301600101828154811061182c5761182c615888565b9060005260206000209060070201905061184581613f3c565b1561185857611855868584613f97565b95505b508061186381615b36565b915050611806565b50611ada565b60005b600a820154811015611ad857600082600501600501828154811061189a5761189a615888565b9060005260206000209060070201604051806101200160405290816000820160009054906101000a900460ff1660078111156118d8576118d8615056565b60078111156118e9576118e9615056565b81526020016001820180546118fd906158f2565b80601f0160208091040260200160405190810160405280929190818152602001828054611929906158f2565b80156119765780601f1061194b57610100808354040283529160200191611976565b820191906000526020600020905b81548152906001019060200180831161195957829003601f168201915b50505091835250506002820154602082015260038201546001600160a01b031660408201526004820180546060909201916119b0906158f2565b80601f01602080910402602001604051908101604052809291908181526020018280546119dc906158f2565b8015611a295780601f106119fe57610100808354040283529160200191611a29565b820191906000526020600020905b815481529060010190602001808311611a0c57829003601f168201915b50505091835250506005820154602082015260069091015460ff8082161515604084015261010082048116151560608401526201000090910416151560809091015260c0810151909150158015611a935750600081516007811115611a9057611a90615056565b14155b8015611ab25750600381516007811115611aaf57611aaf615056565b14155b15611ac557611ac2868584613f97565b95505b5080611ad081615b36565b915050611874565b505b505b80611ae681615b36565b915050611782565b509094909350915050565b80611b0357600080fd5b60008611611b1057600080fd5b82611b1a57600080fd5b60058054600181018255600091909152600b027f036b6384b5eca791c62761152d0c79bb0604c104a5fb6f4eb0703f3154bb3db081018781557f036b6384b5eca791c62761152d0c79bb0604c104a5fb6f4eb0703f3154bb3db282018790557f036b6384b5eca791c62761152d0c79bb0604c104a5fb6f4eb0703f3154bb3db1820180546001600160a01b03191633179055907f036b6384b5eca791c62761152d0c79bb0604c104a5fb6f4eb0703f3154bb3db301611bda858783615bcb565b5060008060005b84811015611db9576000868683818110611bfd57611bfd615888565b9050602002810190611c0f9190615c8a565b3511611c1a57600080fd5b858582818110611c2c57611c2c615888565b9050602002810190611c3e9190615c8a565b611c499035846158df565b925060015482611c5991906158df565b60048501805460018101825560009182526020909120600790910201805461ffff19168155909250868683818110611c9357611c93615888565b9050602002810190611ca59190615c8a565b611cb3906040810190615981565b6001830191611cc3919083615bcb565b50868683818110611cd657611cd6615888565b9050602002810190611ce89190615c8a565b356002820155868683818110611d0057611d00615888565b9050602002810190611d129190615c8a565b611d2390604081019060200161523f565b6003820180546001600160a01b0319166001600160a01b0392909216919091179055868683818110611d5757611d57615888565b9050602002810190611d699190615c8a565b606001356004820155868683818110611d8457611d84615888565b9050602002810190611d969190615c8a565b608001356005820155600060069091015580611db181615b36565b915050611be1565b50600254811115611dc957506002545b88611dd482846158df565b14611dde57600080fd5b6009546040516323b872dd60e01b81526001600160a01b03909116906323b872dd90611e1290339030908e9060040161589e565b6020604051808303816000875af1158015611e31573d6000803e3d6000fd5b505050506040513d601f19601f82011682018060405250810190611e5591906158c2565b611e5e57600080fd5b505050505050505050565b6000805b84811015611f87576000868683818110611e8957611e89615888565b905060400201803603810190611e9f9190615008565b905060006005826000015181548110611eba57611eba615888565b60009182526020909120600b9091020160018101549091506001600160a01b038a8116911614611ee957600080fd5b611ef762015180600e615871565b8160020154611f0691906158df565b421015611f1257600080fd5b600081600301600101836020015181548110611f3057611f30615888565b90600052602060002090600702019050611f4981613f3c565b611f5257600080fd5b6002810154611f6190866158df565b815461ff001916610100179091559350829150611f7f905081615b36565b915050611e6d565b5060005b828110156112f0576000848483818110611fa757611fa7615888565b905060400201803603810190611fbd9190615008565b905060006005826000015181548110611fd857611fd8615888565b60009182526020909120600b9091020160018101549091506001600160a01b038a811691161461200757600080fd5b61201562015180600e615871565b816002015461202491906158df565b42101561203057600080fd5b60008160050160050183602001518154811061204e5761204e615888565b60009182526020909120600790910201600681015490915060ff161561207357600080fd5b6001815460ff16600781111561208b5761208b615056565b14806120ac57506002815460ff1660078111156120aa576120aa615056565b145b806120cc57506004815460ff1660078111156120ca576120ca615056565b145b806120ec57506005815460ff1660078111156120ea576120ea615056565b145b8061210c57506007815460ff16600781111561210a5761210a615056565b145b1561212757600281015461212090866158df565b94506121a1565b6006815460ff16600781111561213f5761213f615056565b0361018e5761215262015180600e615871565b81600201548360020154836005015461216b9190615af9565b61217962015180600e615871565b6121839190615af9565b61218d9190615871565b6121979190615b22565b61212090866158df565b600601805460ff19166001179055508190506121bc81615b36565b915050611f8b565b60006121d982826105f762015180600e615871565b90506000816005016005018360200135815481106121f9576121f9615888565b600091825260209091206003600790920201908101549091506001600160a01b0316331461222657600080fd5b6000815460ff16600781111561223e5761223e615056565b148061225f57506001815460ff16600781111561225d5761225d615056565b145b8061227f57506003815460ff16600781111561227d5761227d615056565b145b61228857600080fd5b8054600590829060ff19166001836106e2565b6122a3613caf565b6122ad600061408e565b565b61230e6040805161012081019091528060008152602001606081526020016000815260200160006001600160a01b0316815260200160608152602001600081526020016000151581526020016000151581526020016000151581525090565b600582600001518154811061232557612325615888565b90600052602060002090600b020160050160050182602001518154811061234e5761234e615888565b9060005260206000209060070201604051806101200160405290816000820160009054906101000a900460ff16600781111561238c5761238c615056565b600781111561239d5761239d615056565b81526020016001820180546123b1906158f2565b80601f01602080910402602001604051908101604052809291908181526020018280546123dd906158f2565b801561242a5780601f106123ff5761010080835404028352916020019161242a565b820191906000526020600020905b81548152906001019060200180831161240d57829003601f168201915b50505091835250506002820154602082015260038201546001600160a01b03166040820152600482018054606090920191612464906158f2565b80601f0160208091040260200160405190810160405280929190818152602001828054612490906158f2565b80156124dd5780601f106124b2576101008083540402835291602001916124dd565b820191906000526020600020905b8154815290600101906020018083116124c057829003601f168201915b50505091835250506005820154602082015260069091015460ff8082161515604084015261010082048116151560608401526201000090910416151560809091015292915050565b6040805160008082526020820190925260609182918161255b565b612548614f16565b8152602001906001900390816125405790505b50604080516000808252602082019092529192509081612591565b61257e614f16565b8152602001906001900390816125765790505b50905060005b600554811015611aee576000600582815481106125b6576125b6615888565b90600052602060002090600b0201905062015180600e6125d69190615871565b81600201546125e591906158df565b4210156125f25750612950565b6004810154156126875760005b600482015481101561268157600082600301600101828154811061262557612625615888565b6000918252602090912060079091020160038101549091506001600160a01b038a8116911614801561265b575061265b81613ee8565b1561266e5761266b868584613f97565b95505b508061267981615b36565b9150506125ff565b5061294e565b60005b600a82015481101561294c5760008260050160050182815481106126b0576126b0615888565b9060005260206000209060070201604051806101200160405290816000820160009054906101000a900460ff1660078111156126ee576126ee615056565b60078111156126ff576126ff615056565b8152602001600182018054612713906158f2565b80601f016020809104026020016040519081016040528092919081815260200182805461273f906158f2565b801561278c5780601f106127615761010080835404028352916020019161278c565b820191906000526020600020905b81548152906001019060200180831161276f57829003601f168201915b50505091835250506002820154602082015260038201546001600160a01b031660408201526004820180546060909201916127c6906158f2565b80601f01602080910402602001604051908101604052809291908181526020018280546127f2906158f2565b801561283f5780601f106128145761010080835404028352916020019161283f565b820191906000526020600020905b81548152906001019060200180831161282257829003601f168201915b50505091835250506005820154602082015260069091015460ff80821615156040840152610100820481161515606080850191909152620100009092041615156080909201919091528101519091506001600160a01b038a811691161480156128aa57508060e00151155b80156128c957506001815160078111156128c6576128c6615056565b14155b80156128e857506004815160078111156128e5576128e5615056565b14155b8015612907575060058151600781111561290457612904615056565b14155b8015612926575060078151600781111561292357612923615056565b14155b1561293957612936858584613f97565b94505b508061294481615b36565b91505061268a565b505b505b8061295a81615b36565b915050612597565b6000546001600160a01b031690565b600061298683826105f7620151806003615871565b60088101549091506001600160a01b031633146129a257600080fd5b6000816005016005018460200135815481106129c0576129c0615888565b6000918252602090912060079091020190506001815460ff1660078111156129ea576129ea615056565b146129f457600080fd5b82156107c6578054600390829060ff19166001836107bc565b60606005805480602002602001604051908101604052809291908181526020016000905b828210156116795760008481526020908190206040805160a081018252600b86029092018054835260018101546001600160a01b03169383019390935260028301548282015280518082019091526003830180549293926060850192919082908290612a9c906158f2565b80601f0160208091040260200160405190810160405280929190818152602001828054612ac8906158f2565b8015612b155780601f10612aea57610100808354040283529160200191612b15565b820191906000526020600020905b815481529060010190602001808311612af857829003601f168201915b5050505050815260200160018201805480602002602001604051908101604052809291908181526020016000905b82821015612c8a57600084815260209020604080516101008101909152600784029091018054829060ff166004811115612b7f57612b7f615056565b6004811115612b9057612b90615056565b81528154610100900460ff1615156020820152600182018054604090920191612bb8906158f2565b80601f0160208091040260200160405190810160405280929190818152602001828054612be4906158f2565b8015612c315780601f10612c0657610100808354040283529160200191612c31565b820191906000526020600020905b815481529060010190602001808311612c1457829003601f168201915b5050509183525050600282015460208083019190915260038301546001600160a01b03166040830152600483015460608301526005830154608083015260069092015460a0909101529082526001929092019101612b43565b50505050815250508152602001600582016040518060c001604052908160008201548152602001600182018054612cc0906158f2565b80601f0160208091040260200160405190810160405280929190818152602001828054612cec906158f2565b8015612d395780601f10612d0e57610100808354040283529160200191612d39565b820191906000526020600020905b815481529060010190602001808311612d1c57829003601f168201915b50505050508152602001600282015481526020016003820160009054906101000a90046001600160a01b03166001600160a01b03166001600160a01b031681526020016004820154815260200160058201805480602002602001604051908101604052809291908181526020016000905b82821015612f995783829060005260206000209060070201604051806101200160405290816000820160009054906101000a900460ff166007811115612df257612df2615056565b6007811115612e0357612e03615056565b8152602001600182018054612e17906158f2565b80601f0160208091040260200160405190810160405280929190818152602001828054612e43906158f2565b8015612e905780601f10612e6557610100808354040283529160200191612e90565b820191906000526020600020905b815481529060010190602001808311612e7357829003601f168201915b50505091835250506002820154602082015260038201546001600160a01b03166040820152600482018054606090920191612eca906158f2565b80601f0160208091040260200160405190810160405280929190818152602001828054612ef6906158f2565b8015612f435780601f10612f1857610100808354040283529160200191612f43565b820191906000526020600020905b815481529060010190602001808311612f2657829003601f168201915b5050509183525050600582015460208083019190915260069092015460ff808216151560408401526101008204811615156060840152620100009091041615156080909101529082526001929092019101612daa565b505050915250509052508152600190910190602001612a31565b6000612fc482600062015180613b2d565b60018101549091506001600160a01b03163314612fe057600080fd5b600081600301600101836020013581548110612ffe57612ffe615888565b6000918252602082206007909102019150815460ff16600481111561302557613025615056565b146116fe5760405162461bcd60e51b815260040161104490615b4f565b61304a613caf565b600680546001810182556000919091527ff652222313e28459528d920b65115c16c04f3efc82aaedc97be59f3f377c0d3f01610f92828483615bcb565b600080600154836130989190615871565b905060025481116130a957806130ad565b6002545b9392505050565b6001600160a01b0381166000908152600860205260409020546130d657600080fd5b6009546001600160a01b03828116600090815260086020526040908190205490516323b872dd60e01b815291909216916323b872dd9161311d91309186919060040161589e565b6020604051808303816000875af115801561313c573d6000803e3d6000fd5b505050506040513d601f19601f8201168201806040525081019061316091906158c2565b61316957600080fd5b6001600160a01b0316600090815260086020526040812055565b60006003541161319257600080fd5b600954600480546003546040516323b872dd60e01b81526001600160a01b03948516946323b872dd946131ca9430949216920161589e565b6020604051808303816000875af11580156131e9573d6000803e3d6000fd5b505050506040513d601f19601f8201168201806040525081019061320d91906158c2565b61321657600080fd5b6000600355565b60005a9050600061323785826105f762015180600e615871565b905060008160030160010186602001358154811061325757613257615888565b6000918252602082206007909102019150815460ff16600481111561327e5761327e615056565b1461328857600080fd5b60006133ba83600301600001805461329f906158f2565b80601f01602080910402602001604051908101604052809291908181526020018280546132cb906158f2565b80156133185780601f106132ed57610100808354040283529160200191613318565b820191906000526020600020905b8154815290600101906020018083116132fb57829003601f168201915b505050505083600101805461332c906158f2565b80601f0160208091040260200160405190810160405280929190818152602001828054613358906158f2565b80156133a55780601f1061337a576101008083540402835291602001916133a5565b820191906000526020600020905b81548152906001019060200180831161338857829003601f168201915b50610b369350505050368a90038a018a615926565b6006830181905590506133d481610bec6020880188615981565b6133dd57600080fd5b6134868260010180546133ef906158f2565b80601f016020809104026020016040519081016040528092919081815260200182805461341b906158f2565b80156134685780601f1061343d57610100808354040283529160200191613468565b820191906000526020600020905b81548152906001019060200180831161344b57829003601f168201915b50505050508661347790615a53565b84600401548560050154613e07565b815460ff191660041782556000600a5a6134a09087615af9565b6134ab90600b615871565b6134b59190615b22565b600393909301546001600160a01b039081166000908152600760209081526040808320815180830190925233825281830197885280546001808201835591855292909320905160029092020180546001600160a01b03191691909316178255935193019290925550505050505050565b600061353460e0830183615caa565b9050116135675760405162461bcd60e51b81526020600482015260016024820152600360fc1b6044820152606401611044565b80356135855760405162461bcd60e51b815260040161104490615b4f565b60056135946060830183615981565b9050116135b35760405162461bcd60e51b815260040161104490615b6a565b60808101356135e85760405162461bcd60e51b81526020600482015260016024820152603360f81b6044820152606401611044565b60006135fa60c0830160a0840161523f565b6001600160a01b0316036136345760405162461bcd60e51b81526020600482015260016024820152600d60fa1b6044820152606401611044565b60008160c001351161366c5760405162461bcd60e51b81526020600482015260016024820152603560f81b6044820152606401611044565b6006546040820135106136a55760405162461bcd60e51b81526020600482015260016024820152601b60f91b6044820152606401611044565b600580546001810182556000919091528135600b9091027f036b6384b5eca791c62761152d0c79bb0604c104a5fb6f4eb0703f3154bb3db0810191825560208301357f036b6384b5eca791c62761152d0c79bb0604c104a5fb6f4eb0703f3154bb3db28201557f036b6384b5eca791c62761152d0c79bb0604c104a5fb6f4eb0703f3154bb3db1810180546001600160a01b0319163317905560408301357f036b6384b5eca791c62761152d0c79bb0604c104a5fb6f4eb0703f3154bb3db59091019081556137776060840184615981565b6001830191613787919083615bcb565b50608083013560028201556137a260c0840160a0850161523f565b6003820180546001600160a01b0319166001600160a01b039290921691909117905560c08301356004820155600080805b6137e060e0870187615caa565b905081101561398e5760006137f860e0880188615caa565b8381811061380857613808615888565b905060200281019061381a9190615cf3565b351161382557600080fd5b61383260e0870187615caa565b8281811061384257613842615888565b90506020028101906138549190615cf3565b61385f9035846158df565b92506001548261386f91906158df565b600a8601805460018101825560009182526020909120600790910201805460ff191681559092506138a360e0880188615caa565b838181106138b3576138b3615888565b90506020028101906138c59190615cf3565b6138d3906040810190615981565b60018301916138e3919083615bcb565b506138f160e0880188615caa565b8381811061390157613901615888565b90506020028101906139139190615cf3565b35600282015561392660e0880188615caa565b8381811061393657613936615888565b90506020028101906139489190615cf3565b61395990604081019060200161523f565b60039190910180546001600160a01b0319166001600160a01b039092169190911790558061398681615b36565b9150506137d3565b5060025481111561399e57506002545b84356139aa82846158df565b146139db5760405162461bcd60e51b81526020600482015260016024820152603760f81b6044820152606401611044565b6009546040516323b872dd60e01b81526001600160a01b03909116906323b872dd90613a1090339030908a359060040161589e565b6020604051808303816000875af1158015613a2f573d6000803e3d6000fd5b505050506040513d601f19601f82011682018060405250810190613a5391906158c2565b613a835760405162461bcd60e51b81526020600482015260016024820152600760fb1b6044820152606401611044565b5050505050565b613a92613caf565b600480546001600160a01b0319166001600160a01b0392909216919091179055565b613abc613caf565b6001600160a01b038116613b215760405162461bcd60e51b815260206004820152602660248201527f4f776e61626c653a206e6577206f776e657220697320746865207a65726f206160448201526564647265737360d01b6064820152608401611044565b613b2a8161408e565b50565b6000806005856000013581548110613b4757613b47615888565b90600052602060002090600b02019050838160020154613b6791906158df565b421015613b865760405162461bcd60e51b815260040161104490615d09565b82848260020154613b9791906158df565b613ba191906158df565b421115613bc05760405162461bcd60e51b815260040161104490615d09565b949350505050565b60008085613bd986600001516140de565b88604051602001613bec93929190615d25565b60405160208183030381529060405290506000600282604051613c0f9190615dab565b602060405180830381855afa158015613c2c573d6000803e3d6000fd5b5050506040513d601f19601f82011682018060405250810190613c4f9190615dbd565b9050613c6681868689602001518a60400151614170565b613ca25760405162461bcd60e51b815260206004820152600d60248201526c34b73b30b634b22fb83937b7b360991b6044820152606401611044565b9150505b95945050505050565b33613cb8612962565b6001600160a01b0316146122ad5760405162461bcd60e51b815260206004820181905260248201527f4f776e61626c653a2063616c6c6572206973206e6f7420746865206f776e65726044820152606401611044565b600080613d1a846142b2565b9050808360005b82518251613d2f9190615af9565b613d3a9060016158df565b811015613df857600160005b60028551613d549190615af9565b811015613dd05784613d678260026158df565b81518110613d7757613d77615888565b01602001516001600160f81b03191684613d9183866158df565b81518110613da157613da1615888565b01602001516001600160f81b03191614613dbe5760009150613dd0565b80613dc881615b36565b915050613d46565b508015613de557600195505050505050613e01565b5080613df081615b36565b915050613d21565b50600093505050505b92915050565b600084613e1785604001516140de565b6020808701518751604051613e2e95949301615dd6565b6040516020818303038152906040529050613ea3600282604051613e529190615dab565b602060405180830381855afa158015613e6f573d6000803e3d6000fd5b5050506040513d601f19601f82011682018060405250810190613e929190615dbd565b848487606001518860800151614170565b613a835760405162461bcd60e51b815260206004820152601660248201527534b73b30b634b22fb232b632ba34b7b72fb83937b7b360511b6044820152606401611044565b8054600090610100900460ff16158015613e0157506000825460ff166004811115613f1557613f15615056565b1480613e01575060025b825460ff166004811115613f3557613f35615056565b1492915050565b8054600090610100900460ff16158015613e0157506001825460ff166004811115613f6957613f69615056565b1480613f8a57506003825460ff166004811115613f8857613f88615056565b145b80613e0157506004613f1f565b6060600084516001613fa991906158df565b6001600160401b03811115613fc057613fc0614ff2565b604051908082528060200260200182016040528015613ff957816020015b613fe6614f16565b815260200190600190039081613fde5790505b50905060005b85518110156140525785818151811061401a5761401a615888565b602002602001015182828151811061403457614034615888565b6020026020010181905250808061404a90615b36565b915050613fff565b506040518060400160405280858152602001848152508186518151811061407b5761407b615888565b6020908102919091010152949350505050565b600080546001600160a01b038381166001600160a01b0319831681178455604051919092169283917f8be0079c531659141344cd1fd0a4f28419497f9722a3daafe3b4186f6b6457e09190a35050565b606060006140eb836142c9565b60010190506000816001600160401b0381111561410a5761410a614ff2565b6040519080825280601f01601f191660200182016040528015614134576020820181803683370190505b5090508181016020015b600019016f181899199a1a9b1b9c1cb0b131b232b360811b600a86061a8153600a850494508461413e57509392505050565b600070014551231950b75fc4402da1732fc9bebe19831015806141a5575070014551231950b75fc4402da1732fc9bebe198210155b156141b257506000613ca6565b60006141bf84878961439f565b9050600080614218857f79be667ef9dcbbac55a06295ce870b07029bfcdb2dce28d959f2815b16f817987f483ada7726a3c4655da4fbfc0e1108a8fd17b448a68554199c47d08ffb10d4b860006401000003d0196144e2565b91509150600080614233858b8b60006401000003d0196144e2565b909250905060008061426a8686866401000003d0196142528882615af9565b61425c9190615e7c565b60006401000003d01961451c565b9150915089821480156142855750614283600282615e7c565b155b80156142a157506142a18282600060076401000003d0196145a4565b9d9c50505050505050505050505050565b6060613e01826142c18461465d565b6001016146c7565b60008072184f03e93ff9f4daa797ed6e38ed64bf6a1f0160401b83106143085772184f03e93ff9f4daa797ed6e38ed64bf6a1f0160401b830492506040015b6904ee2d6d415b85acef8160201b8310614332576904ee2d6d415b85acef8160201b830492506020015b662386f26fc10000831061435057662386f26fc10000830492506010015b6305f5e1008310614368576305f5e100830492506008015b612710831061437c57612710830492506004015b6064831061438e576064830492506002015b600a8310613e015760010192915050565b604080516020810185905290810183905260608101829052600090819060800160408051601f1981840301815282820182526011835270424950303334302f6368616c6c656e676560781b602084015290519092506000916002916144049190615dab565b602060405180830381855afa158015614421573d6000803e3d6000fd5b5050506040513d601f19601f820116820180604052508101906144449190615dbd565b90506000600282838560405160200161445f93929190615e90565b60408051601f198184030181529082905261447991615dab565b602060405180830381855afa158015614496573d6000803e3d6000fd5b5050506040513d601f19601f820116820180604052508101906144b99190615dbd565b90506144d770014551231950b75fc4402da1732fc9bebe1982615e7c565b979650505050505050565b60008060008060006144f98a8a8a60018b8b614862565b92509250925061450b838383896148e4565b945094505050509550959350505050565b6000806000806000888b0361456c57858061453957614539615b0c565b888b086000036145525760008094509450505050614599565b6145608b8b60018a8a614953565b91945092509050614585565b61457d8b8b60018c8c60018c614af6565b919450925090505b614591838383896148e4565b945094505050505b965096945050505050565b60008515806145b35750818610155b806145bc575084155b806145c75750818510155b156145d457506000613ca6565b600082806145e4576145e4615b0c565b8687099050600083806145f9576145f9615b0c565b88858061460857614608615b0c565b8a8b09099050851561463857838061462257614622615b0c565b848061463057614630615b0c565b878a09820890505b841561465257838061464c5761464c615b0c565b85820890505b149695505050505050565b600080608083901c156146755760809290921c916010015b604083901c1561468a5760409290921c916008015b602083901c1561469f5760209290921c916004015b601083901c156146b45760109290921c916002015b600883901c15613e015760010192915050565b606060006146d6836002615871565b6146e19060026158df565b6001600160401b038111156146f8576146f8614ff2565b6040519080825280601f01601f191660200182016040528015614722576020820181803683370190505b509050600360fc1b8160008151811061473d5761473d615888565b60200101906001600160f81b031916908160001a905350600f60fb1b8160018151811061476c5761476c615888565b60200101906001600160f81b031916908160001a9053506000614790846002615871565b61479b9060016158df565b90505b6001811115614813576f181899199a1a9b1b9c1cb0b131b232b360811b85600f16601081106147cf576147cf615888565b1a60f81b8282815181106147e5576147e5615888565b60200101906001600160f81b031916908160001a90535060049490941c9361480c81615ebd565b905061479e565b5083156130ad5760405162461bcd60e51b815260206004820181905260248201527f537472696e67733a20686578206c656e67746820696e73756666696369656e746044820152606401611044565b60008060008860000361487c5750869150859050846148d8565b8860008060015b83156148cf5760018416156148a9576148a18383838f8f8f8e614af6565b919450925090505b6148b4600285615b22565b93506148c38c8c8c8c8c614953565b919d509b509950614883565b91955093509150505b96509650969350505050565b60008060006148f38585614e29565b90506000848061490557614905615b0c565b82830990506000858061491a5761491a615b0c565b828a0990506000868061492f5761492f615b0c565b878061493d5761493d615b0c565b8486098a09919a91995090975050505050505050565b60008060008560000361496d575086915085905084614aeb565b6000848061497d5761497d615b0c565b898a0990506000858061499257614992615b0c565b898a099050600086806149a7576149a7615b0c565b898a099050600087806149bc576149bc615b0c565b88806149ca576149ca615b0c565b848e096004099050600088806149e2576149e2615b0c565b89806149f0576149f0615b0c565b8a806149fe576149fe615b0c565b8586098c098a80614a1157614a11615b0c565b876003090890508880614a2657614a26615b0c565b8980614a3457614a34615b0c565b838408614a41908b615af9565b8a80614a4f57614a4f615b0c565b8384090894508880614a6357614a63615b0c565b8980614a7157614a71615b0c565b8a80614a7f57614a7f615b0c565b868709600809614a8f908b615af9565b8a80614a9d57614a9d615b0c565b8b80614aab57614aab615b0c565b614ab5898e615af9565b860884090893508880614aca57614aca615b0c565b8980614ad857614ad8615b0c565b8c8e096002099497509295509293505050505b955095509592505050565b6000808089158015614b06575088155b15614b18575085915084905083614e1c565b86158015614b24575085155b15614b36575088915087905086614e1c565b614b3e614f30565b8480614b4c57614b4c615b0c565b898a0981528480614b5f57614b5f615b0c565b81518a0960208201528480614b7657614b76615b0c565b86870960408201528480614b8c57614b8c615b0c565b6040820151870960608201526040805160808101909152808680614bb257614bb2615b0c565b60408401518e0981526020018680614bcc57614bcc615b0c565b60608401518d0981526020018680614be657614be6615b0c565b83518b0981526020018680614bfd57614bfd615b0c565b60208401518a09905260408101518151919250141580614c2557506060810151602082015114155b614c715760405162461bcd60e51b815260206004820152601e60248201527f557365206a6163446f75626c652066756e6374696f6e20696e737465616400006044820152606401611044565b614c79614f30565b8580614c8757614c87615b0c565b8251614c939088615af9565b60408401510881528580614ca957614ca9615b0c565b6020830151614cb89088615af9565b60608401510860208201528580614cd157614cd1615b0c565b8151800960408201528580614ce857614ce8615b0c565b8151604083015109606082015260008680614d0557614d05615b0c565b6060830151614d149089615af9565b8880614d2257614d22615b0c565b602085015180090890508680614d3a57614d3a615b0c565b8780614d4857614d48615b0c565b8880614d5657614d56615b0c565b6040850151865109600209614d6b9089615af9565b8208905060008780614d7f57614d7f615b0c565b8880614d8d57614d8d615b0c565b614d97848b615af9565b8a80614da557614da5615b0c565b60408701518851090860208501510990508780614dc457614dc4615b0c565b8880614dd257614dd2615b0c565b6060850151602087015109614de7908a615af9565b8208905060008880614dfb57614dfb615b0c565b8980614e0957614e09615b0c565b8b8f098551099297509095509093505050505b9750975097945050505050565b60008215801590614e3a5750818314155b8015614e4557508115155b614e825760405162461bcd60e51b815260206004820152600e60248201526d24b73b30b634b210373ab6b132b960911b6044820152606401611044565b6000600183825b8615614eea57614e998783615b22565b9050828680614eaa57614eaa615b0c565b8780614eb857614eb8615b0c565b858409614ec59089615af9565b8608909450925086614ed78183615871565b614ee19084615af9565b97509150614e89565b509195945050505050565b5080546000825560020290600052602060002090810190613b2a9190614f4e565b604051806040016040528060008152602001600081525090565b60405180608001604052806004906020820280368337509192915050565b5b80821115614f745780546001600160a01b031916815560006001820155600201614f4f565b5090565b600060408284031215614f8a57600080fd5b50919050565b600060408284031215614fa257600080fd5b6130ad8383614f78565b8015158114613b2a57600080fd5b60008060608385031215614fcd57600080fd5b614fd78484614f78565b91506040830135614fe781614fac565b809150509250929050565b634e487b7160e01b600052604160045260246000fd5b60006040828403121561501a57600080fd5b604051604081018181106001600160401b038211171561503c5761503c614ff2565b604052823581526020928301359281019290925250919050565b634e487b7160e01b600052602160045260246000fd5b60005b8381101561508757818101518382015260200161506f565b50506000910152565b600081518084526150a881602086016020860161506c565b601f01601f19169290920160200192915050565b6001600160a01b03169052565b60006101008251600581106150e0576150e0615056565b8085525060208301516150f7602086018215159052565b50604083015181604086015261510f82860182615090565b91505060608301516060850152608083015161512e60808601826150bc565b5060a083015160a085015260c083015160c085015260e083015160e08501528091505092915050565b6020815260006130ad60208301846150c9565b600060608284031215614f8a57600080fd5b60008060a0838503121561518f57600080fd5b6151998484614f78565b91506151a8846040850161516a565b90509250929050565b6000602082840312156151c357600080fd5b5035919050565b600060a08284031215614f8a57600080fd5b600080606083850312156151ef57600080fd5b6151f98484614f78565b915060408301356001600160401b0381111561521457600080fd5b615220858286016151ca565b9150509250929050565b6001600160a01b0381168114613b2a57600080fd5b60006020828403121561525157600080fd5b81356130ad8161522a565b60008083601f84011261526e57600080fd5b5081356001600160401b0381111561528557600080fd5b6020830191508360208260061b85010111156152a057600080fd5b9250929050565b6000806000806000606086880312156152bf57600080fd5b85356152ca8161522a565b945060208601356001600160401b03808211156152e657600080fd5b6152f289838a0161525c565b9096509450604088013591508082111561530b57600080fd5b506153188882890161525c565b969995985093965092949392505050565b6000602080830181845280855180835260408601915060408160051b870101925083870160005b8281101561537e57603f1988860301845261536c858351615090565b94509285019290850190600101615350565b5092979650505050505050565b600081518084526020808501945080840160005b838110156153c657815180518852830151838801526040909601959082019060010161539f565b509495945050505050565b6040815260006153e4604083018561538b565b8281036020840152613ca6818561538b565b60008083601f84011261540857600080fd5b5081356001600160401b0381111561541f57600080fd5b6020830191508360208285010111156152a057600080fd5b6000806000806000806080878903121561545057600080fd5b863595506020870135945060408701356001600160401b038082111561547557600080fd5b6154818a838b016153f6565b9096509450606089013591508082111561549a57600080fd5b818901915089601f8301126154ae57600080fd5b8135818111156154bd57600080fd5b8a60208260051b85010111156154d257600080fd5b6020830194508093505050509295509295509295565b600881106154f8576154f8615056565b9052565b600061012061550c8484516154e8565b602083015181602086015261552382860182615090565b91505060408301516040850152606083015161554260608601826150bc565b506080830151848203608086015261555a8282615090565b91505060a083015160a085015260c083015161557a60c086018215159052565b5060e083015161558e60e086018215159052565b506101009283015115159390920192909252919050565b6020815260006130ad60208301846154fc565b80518252600060208083015160c0828601526155d760c0860182615090565b90506040840151604086015260018060a01b0360608501511660608601526080840151608086015260a084015185820360a08701528181518084528484019150848160051b850101858401935060005b8281101561565557601f198683030184526156438286516154fc565b94870194938701939150600101615627565b5098975050505050505050565b602080825282518282018190526000919060409081850190600581811b8701840188860187805b85811015615770578a8403603f19018752825180518552898101516001600160a01b03168a860152888101518986015260608082015160a091870182905280518288018c9052906156dd60e0890183615090565b908d0151888203609f190160c08a015280518083529193508d0191508c830190808a1b84018e01875b8281101561573957601f198683030184526157228286516150c9565b91508f850194508f84019350600181019050615706565b506080958601518a82038b88015295945061575481876155b8565b9c8f019c99505050958c01955050506001919091019050615689565b50919a9950505050505050505050565b6000806020838503121561579357600080fd5b82356001600160401b038111156157a957600080fd5b6157b5858286016153f6565b90969095509350505050565b600080600060c084860312156157d657600080fd5b6157e08585614f78565b92506157ef856040860161516a565b915060a08401356001600160401b0381111561580a57600080fd5b615816868287016151ca565b9150509250925092565b60006020828403121561583257600080fd5b81356001600160401b0381111561584857600080fd5b820161010081850312156130ad57600080fd5b634e487b7160e01b600052601160045260246000fd5b8082028115828204841417613e0157613e0161585b565b634e487b7160e01b600052603260045260246000fd5b6001600160a01b039384168152919092166020820152604081019190915260600190565b6000602082840312156158d457600080fd5b81516130ad81614fac565b80820180821115613e0157613e0161585b565b600181811c9082168061590657607f821691505b602082108103614f8a57634e487b7160e01b600052602260045260246000fd5b60006060828403121561593857600080fd5b604051606081018181106001600160401b038211171561595a5761595a614ff2565b80604052508235815260208301356020820152604083013560408201528091505092915050565b6000808335601e1984360301811261599857600080fd5b8301803591506001600160401b038211156159b257600080fd5b6020019150368190038213156152a057600080fd5b600082601f8301126159d857600080fd5b81356001600160401b03808211156159f2576159f2614ff2565b604051601f8301601f19908116603f01168101908282118183101715615a1a57615a1a614ff2565b81604052838152866020858801011115615a3357600080fd5b836020870160208301376000602085830101528094505050505092915050565b600060a08236031215615a6557600080fd5b60405160a081016001600160401b038282108183111715615a8857615a88614ff2565b816040528435915080821115615a9d57600080fd5b615aa9368387016159c7565b83526020850135915080821115615abf57600080fd5b50615acc368286016159c7565b60208301525060408301356040820152606083013560608201526080830135608082015280915050919050565b81810381811115613e0157613e0161585b565b634e487b7160e01b600052601260045260246000fd5b600082615b3157615b31615b0c565b500490565b600060018201615b4857615b4861585b565b5060010190565b6020808252600190820152603160f81b604082015260600190565b6020808252600190820152601960f91b604082015260600190565b601f821115610f9257600081815260208120601f850160051c81016020861015615bac5750805b601f850160051c820191505b8181101561137157828155600101615bb8565b6001600160401b03831115615be257615be2614ff2565b615bf683615bf083546158f2565b83615b85565b6000601f841160018114615c2a5760008515615c125750838201355b600019600387901b1c1916600186901b178355613a83565b600083815260209020601f19861690835b82811015615c5b5786850135825560209485019460019092019101615c3b565b5086821015615c785760001960f88860031b161c19848701351681555b505060018560011b0183555050505050565b60008235609e19833603018112615ca057600080fd5b9190910192915050565b6000808335601e19843603018112615cc157600080fd5b8301803591506001600160401b03821115615cdb57600080fd5b6020019150600581901b36038213156152a057600080fd5b60008235605e19833603018112615ca057600080fd5b602080825260029082015261393960f01b604082015260600190565b632d98161160e11b81528351600090615d4581600485016020890161506c565b61088b60f21b6004918401918201528451615d6781600684016020890161506c565b661618962dae961160c91b600692909101918201528351615d8f81600d84016020880161506c565b61225d60f01b600d9290910191820152600f0195945050505050565b60008251615ca081846020870161506c565b600060208284031215615dcf57600080fd5b5051919050565b632d98161160e11b81528451600090615df6816004850160208a0161506c565b61088b60f21b6004918401918201528551615e18816006840160208a0161506c565b620b0d4b60ea1b600692909101918201528451615e3c81600984016020890161506c565b61161160f11b600992909101918201528351615e5f81600b84016020880161506c565b61225d60f01b600b9290910191820152600d019695505050505050565b600082615e8b57615e8b615b0c565b500690565b83815282602082015260008251615eae81604085016020870161506c565b91909101604001949350505050565b600081615ecc57615ecc61585b565b50600019019056fea2646970667358221220dac3ea6d95e62d62d4121bcc90ca858951bf347cc7de9fc9bd83e558931c7c4e64736f6c63430008130033",
  "immutableReferences": {},
  "source": "// SPDX-License-Identifier: MIT\npragma solidity ^0.8.9;\nimport \"@openzeppelin/contracts/utils/Strings.sol\";\nimport \"@openzeppelin/contracts/token/ERC20/ERC20.sol\";\nimport \"@openzeppelin/contracts/access/Ownable.sol\";\nimport \"./AsamiClassic.sol\";\nimport \"./AsamiNostr.sol\";\n\ncontract Asami is Ownable {\n    uint constant oneDay = 60 * 60 * 24;\n    uint constant campaignDuration = oneDay * 14;\n\n    uint internal feePerOffer = 1e18;\n    uint internal maxFeePerCampaign = 50e18 ;\n    uint internal fees = 0;\n    address internal feesAddress;\n\n    event DebugEvent(string);\n\n    struct Campaign {\n        uint256 funding;\n        address advertiser;\n        uint256 startDate;\n        AsamiNostr.Terms nostrTerms;\n        AsamiClassic.Terms classicTerms;\n    }\n\n    Campaign[] internal campaigns;\n\n    string[] internal socialNetworks;\n\n    struct DeletionPenalty {\n        address payable creditor;\n        uint256 amount;\n    }\n    mapping(address => DeletionPenalty[]) internal deletionPenalties;\n\n    mapping(address => uint256) internal oracleFees;\n\n    /* An offer pointer represents a specific offer made in a campaign */\n    struct OfferPointer {\n        uint campaignId;\n        uint offerId;\n    }\n\n    IERC20 internal rewardToken;\n    \n    constructor(address _dollarOnChainAddress) {\n        rewardToken = IERC20(_dollarOnChainAddress);\n    }\n\n    function nostrCreateCampaign(\n      uint256 _funding,\n      uint256 _startDate,\n      string calldata _requestedContent,\n      AsamiNostr.NewOffer[] calldata _newOffers\n    ) external {\n        require(_newOffers.length > 0);\n        require(_funding > 0);\n        require(bytes(_requestedContent).length > 0);\n\n        Campaign storage campaign = campaigns.push();\n        campaign.funding = _funding;\n        campaign.startDate = _startDate;\n        campaign.advertiser = payable(msg.sender);\n        campaign.nostrTerms.requestedContent = _requestedContent;\n\n        uint256 totalRewards = 0;\n        uint256 totalFees = 0;\n        for (uint i = 0; i < _newOffers.length; i++) {\n            require(_newOffers[i].rewardAmount > 0);\n            totalRewards += _newOffers[i].rewardAmount;\n            totalFees += feePerOffer;\n            AsamiNostr.Offer storage offer = campaign.nostrTerms.offers.push();\n            offer.state = AsamiNostr.OfferState.Assumed;\n            offer.collected = false;\n            offer.nostrHexPubkey = _newOffers[i].nostrHexPubkey;\n            offer.rewardAmount = _newOffers[i].rewardAmount;\n            offer.rewardAddress = payable(_newOffers[i].rewardAddress);\n            offer.nostrAffineX = _newOffers[i].nostrAffineX;\n            offer.nostrAffineY = _newOffers[i].nostrAffineY;\n            offer.messageId = bytes32(0);\n        }\n\n        if (totalFees > maxFeePerCampaign) {\n          totalFees = maxFeePerCampaign;\n        }\n\n        require((totalRewards + totalFees) == _funding);\n        require(rewardToken.transferFrom(msg.sender, address(this), _funding));\n    }\n\n    struct NewClassicCampaign{\n      uint256 funding;\n      uint256 startDate;\n      uint socialNetworkId;\n      string rulesUrl;\n      bytes32 rulesHash;\n      address oracleAddress;\n      uint256 oracleFee;\n      AsamiClassic.NewOffer[] newOffers;\n    }\n\n    function classicCreateCampaign(\n      NewClassicCampaign calldata _c\n    ) external {\n        require(_c.newOffers.length > 0, \"0\");\n        require(_c.funding > 0, \"1\");\n        require(bytes(_c.rulesUrl).length > 5, \"2\");\n        require(_c.rulesHash != bytes32(0), \"3\");\n        require(_c.oracleAddress != address(0), \"4\");\n        require(_c.oracleFee > 0, \"5\");\n        require(_c.socialNetworkId < socialNetworks.length, \"6\");\n\n        Campaign storage campaign = campaigns.push();\n        campaign.funding = _c.funding;\n        campaign.startDate = _c.startDate;\n        campaign.advertiser = payable(msg.sender);\n\n        AsamiClassic.Terms storage terms = campaign.classicTerms;\n        terms.socialNetworkId = _c.socialNetworkId;\n        terms.rulesUrl = _c.rulesUrl;\n        terms.rulesHash = _c.rulesHash;\n        terms.oracleAddress = _c.oracleAddress;\n        terms.oracleFee = _c.oracleFee;\n\n        uint256 totalRewards = 0;\n        uint256 totalFees = 0;\n        for (uint i = 0; i < _c.newOffers.length; i++) {\n            require(_c.newOffers[i].rewardAmount > 0);\n            totalRewards += _c.newOffers[i].rewardAmount;\n            totalFees += feePerOffer;\n\n            AsamiClassic.Offer storage offer = campaign.classicTerms.offers.push();\n            offer.state = AsamiClassic.OfferState.Assumed;\n            offer.username = _c.newOffers[i].username;\n            offer.rewardAmount = _c.newOffers[i].rewardAmount;\n            offer.rewardAddress = payable(_c.newOffers[i].rewardAddress);\n        }\n\n        if (totalFees > maxFeePerCampaign) {\n          totalFees = maxFeePerCampaign;\n        }\n\n        require((totalRewards + totalFees) == _c.funding, \"7\");\n        require(rewardToken.transferFrom(msg.sender, address(this), _c.funding), \"8\");\n    }\n\n    function nostrChallenge(OfferPointer calldata _p) public {\n        Campaign storage campaign = getCampaignInTimeWindow(_p, 0, oneDay);\n        require(campaign.advertiser == msg.sender);\n\n        AsamiNostr.Offer storage offer = campaign.nostrTerms.offers[_p.offerId];\n        require(offer.state == AsamiNostr.OfferState.Assumed, \"1\");\n        offer.state = AsamiNostr.OfferState.Challenged;\n    }\n\n    // Anyone can submit proof of a message being published, likely a Collaborator or someone on their behalf.\n    // The r value is the first 32 bytes of the signature, and the s value are the remaining 32,\n    function nostrConfirm(\n        OfferPointer calldata _p,\n        AsamiNostr.MessageProof calldata _proof\n    ) external {\n        Campaign storage campaign = getCampaignInTimeWindow(_p, 0, oneDay * 2);\n\n        AsamiNostr.Offer storage offer = campaign.nostrTerms.offers[_p.offerId];\n        require(offer.state == AsamiNostr.OfferState.Challenged);\n\n        bytes32 messageId = AsamiNostr.verifyCampaignMessage(\n          campaign.nostrTerms.requestedContent,\n          offer.nostrHexPubkey,\n          _proof,\n          offer.nostrAffineX,\n          offer.nostrAffineY\n        );\n\n        offer.messageId = messageId;\n        offer.state = AsamiNostr.OfferState.Confirmed;\n    }\n\n    /*\n     The collaborator can always force a refund.\n     If the collaborator deletes a message, the advertiser can submit proof of deletion\n     to prevent payment from happening.\n     Submitting the proof of deletion for a message may be very costly for the advertiser,\n     so when this happens a penalty is applied on the collaborator in favor of the advertiser.\n     To prevent this penalty, the collaborator may forfeit the reward\n     voluntarily before deleting the message.\n    */\n    function nostrRenounce(OfferPointer calldata _p) external {\n        Campaign storage campaign = getCampaignInTimeWindow(_p, 0, campaignDuration);\n        AsamiNostr.Offer storage offer = campaign.nostrTerms.offers[_p.offerId];\n\n        require(offer.rewardAddress == msg.sender);\n\n        require(\n          offer.state == AsamiNostr.OfferState.Assumed ||\n          offer.state == AsamiNostr.OfferState.Challenged ||\n          offer.state == AsamiNostr.OfferState.Confirmed\n        );\n\n        offer.state = AsamiNostr.OfferState.Renounced;\n    }\n\n    /*\n      Submitting a deletion proof is very costly on the advertiser, so if it comes to that,\n      the collaborator gets penalized and is banned from the system until he pays for the penalties.\n      To reduce gas usage, this method does not parse the tags json, it just does a raw string search,\n      which initially may be enough.\n      The r value is the first 32 bytes of the signature, and the s value are the remaining 32,\n    */\n    function nostrReportConfirmed(\n        OfferPointer calldata _p,\n        AsamiNostr.DeletionProof calldata _deletionProof\n    ) external {\n        uint256 startGas = gasleft();\n\n        Campaign storage campaign = getCampaignInTimeWindow(_p, 0, campaignDuration);\n\n        AsamiNostr.Offer storage offer = campaign.nostrTerms.offers[_p.offerId];\n        require(offer.state == AsamiNostr.OfferState.Confirmed);\n\n        require(AsamiNostr.idInTags(offer.messageId, _deletionProof.tags));\n\n        AsamiNostr.verifyDeletionMessage(\n          offer.nostrHexPubkey,\n          _deletionProof,\n          offer.nostrAffineX,\n          offer.nostrAffineY\n        );\n\n        offer.state = AsamiNostr.OfferState.ReportedDeletion;\n\n        uint256 refund = ((startGas - gasleft()) * 11) / 10;\n        deletionPenalties[offer.rewardAddress].push(DeletionPenalty(payable(msg.sender), refund));\n    }\n\n    function nostrReportAssumed (\n        OfferPointer calldata _p,\n        AsamiNostr.MessageProof calldata _messageProof,\n        AsamiNostr.DeletionProof calldata _deletionProof\n    )\n        external \n    {\n        uint256 startGas = gasleft();\n\n        Campaign storage campaign = getCampaignInTimeWindow(_p, 0, campaignDuration);\n\n        AsamiNostr.Offer storage offer = campaign.nostrTerms.offers[_p.offerId];\n        require(offer.state == AsamiNostr.OfferState.Assumed);\n\n        bytes32 messageId = AsamiNostr.verifyCampaignMessage(\n            campaign.nostrTerms.requestedContent,\n            offer.nostrHexPubkey,\n            _messageProof,\n            offer.nostrAffineX,\n            offer.nostrAffineY\n        );\n\n        offer.messageId = messageId;\n\n        require(AsamiNostr.idInTags(offer.messageId, _deletionProof.tags));\n\n        AsamiNostr.verifyDeletionMessage(\n          offer.nostrHexPubkey,\n          _deletionProof,\n          offer.nostrAffineX,\n          offer.nostrAffineY\n        );\n\n        offer.state = AsamiNostr.OfferState.ReportedDeletion;\n\n        uint256 refund = ((startGas - gasleft()) * 11) / 10;\n        deletionPenalties[offer.rewardAddress].push(DeletionPenalty(payable(msg.sender), refund));\n    }\n\n    function classicChallenge(\n      OfferPointer calldata _p\n    ) external {\n        Campaign storage campaign = getCampaignInTimeWindow(_p, 0, oneDay);\n        require(campaign.advertiser == msg.sender);\n\n        AsamiClassic.Offer storage offer = campaign.classicTerms.offers[_p.offerId];\n        require(offer.state == AsamiClassic.OfferState.Assumed);\n\n        offer.state = AsamiClassic.OfferState.Challenged;\n    }\n\n    function classicRequestConfirmation(\n      OfferPointer calldata _p\n    ) external {\n        Campaign storage campaign = getCampaignInTimeWindow(_p, 0, oneDay * 2 );\n\n        AsamiClassic.Offer storage offer = campaign.classicTerms.offers[_p.offerId];\n        require(offer.state == AsamiClassic.OfferState.Challenged);\n\n        require(rewardToken.transferFrom(msg.sender, address(this), campaign.classicTerms.oracleFee));\n\n        offer.state = AsamiClassic.OfferState.ConfirmationRequested;\n    }\n\n    function classicConfirm(\n      OfferPointer calldata _p,\n      bool _found\n    ) external {\n        Campaign storage campaign = getCampaignInTimeWindow(_p, 0, oneDay * 3 );\n        require(campaign.classicTerms.oracleAddress == msg.sender);\n\n        AsamiClassic.Offer storage offer = campaign.classicTerms.offers[_p.offerId];\n        require(offer.state == AsamiClassic.OfferState.ConfirmationRequested);\n        \n        oracleFees[campaign.classicTerms.oracleAddress] += campaign.classicTerms.oracleFee;\n\n        if (_found) {\n          offer.state = AsamiClassic.OfferState.Confirmed;\n        } else {\n          offer.state = AsamiClassic.OfferState.Refuted;\n        }\n    }\n\n    function classicConfirmFree(\n      OfferPointer calldata _p,\n      bool _found\n    ) external {\n        Campaign storage campaign = getCampaignInTimeWindow(_p, 0, oneDay * 3 );\n\n        require(campaign.classicTerms.oracleAddress == msg.sender);\n\n        AsamiClassic.Offer storage offer = campaign.classicTerms.offers[_p.offerId];\n        require(offer.state == AsamiClassic.OfferState.Challenged);\n        \n        if (_found) {\n          offer.state = AsamiClassic.OfferState.Confirmed;\n        } else {\n          offer.state = AsamiClassic.OfferState.Refuted;\n        }\n    }\n\n    function classicRenounce(\n      OfferPointer calldata _p\n    ) external {\n        Campaign storage campaign = getCampaignInTimeWindow(_p, 0, campaignDuration);\n        AsamiClassic.Offer storage offer = campaign.classicTerms.offers[_p.offerId];\n\n        require(offer.rewardAddress == msg.sender);\n\n        require(\n          offer.state == AsamiClassic.OfferState.Assumed ||\n          offer.state == AsamiClassic.OfferState.Challenged ||\n          offer.state == AsamiClassic.OfferState.Confirmed\n        );\n\n        offer.state = AsamiClassic.OfferState.Renounced;\n    }\n\n    function classicReportDeletion(\n      OfferPointer calldata _p\n    ) external {\n        Campaign storage campaign = getCampaignInTimeWindow(_p, 0, campaignDuration);\n        require(campaign.advertiser == msg.sender);\n\n        AsamiClassic.Offer storage offer = campaign.classicTerms.offers[_p.offerId];\n\n        require(\n          offer.state == AsamiClassic.OfferState.Assumed ||\n          offer.state == AsamiClassic.OfferState.Confirmed\n        );\n\n        require(rewardToken.transferFrom(msg.sender, address(this), campaign.classicTerms.oracleFee));\n\n        offer.deletionReportedAt = block.timestamp;\n        offer.state = AsamiClassic.OfferState.DeletionReported;\n    }\n\n    function classicConfirmDeletion(\n      OfferPointer calldata _p,\n      bool _wasDeleted\n    ) external {\n        Campaign storage campaign = getCampaignInTimeWindow(_p, 0, campaignDuration);\n        require(campaign.classicTerms.oracleAddress == msg.sender);\n\n        AsamiClassic.Offer storage offer = campaign.classicTerms.offers[_p.offerId];\n        require(offer.state == AsamiClassic.OfferState.DeletionReported);\n\n        oracleFees[campaign.classicTerms.oracleAddress] += campaign.classicTerms.oracleFee;\n\n        if (_wasDeleted) {\n          offer.state = AsamiClassic.OfferState.DeletionConfirmed;\n        } else {\n          offer.state = AsamiClassic.OfferState.Confirmed;\n        }\n    }\n\n    /*\n      Collects pointers to all offers which are interesting for a collaborator.\n      It could be because the collaborator has a reward to receive or a refund of oracle fees.\n    */\n    function getCollectableCollaboratorOffers(\n        address _collaborator\n    )\n        external view returns (OfferPointer[] memory, OfferPointer[] memory) \n    {\n        OfferPointer[] memory nostrPointers = new OfferPointer[](0);\n        OfferPointer[] memory classicPointers = new OfferPointer[](0);\n\n        for(uint i = 0; i < campaigns.length; i++) {\n          Campaign storage campaign = campaigns[i];\n          if( block.timestamp < (campaign.startDate + campaignDuration) ) {\n            continue;\n          }\n\n          if (campaign.nostrTerms.offers.length > 0) {\n            for(uint j = 0; j < campaign.nostrTerms.offers.length; j++) {\n              AsamiNostr.Offer storage offer = campaign.nostrTerms.offers[j];\n              if(\n                offer.rewardAddress == _collaborator && \n                AsamiNostr.collaboratorCanCollect(offer)\n              ) {\n                nostrPointers = pushPointer(nostrPointers, i, j);\n              }\n            }\n          } else {\n            for(uint j = 0; j < campaign.classicTerms.offers.length; j++) {\n              AsamiClassic.Offer memory offer = campaign.classicTerms.offers[j];\n              if(\n                offer.rewardAddress == _collaborator && \n                !offer.collaboratorCollected &&\n                offer.state != AsamiClassic.OfferState.Challenged &&\n                offer.state != AsamiClassic.OfferState.Refuted &&\n                offer.state != AsamiClassic.OfferState.Renounced &&\n                offer.state != AsamiClassic.OfferState.DeletionConfirmed\n              ) {\n                classicPointers = pushPointer(classicPointers, i, j);\n              }\n            }\n          }\n        }\n        return (nostrPointers, classicPointers);\n    }\n\n    /*\n      This function can be called by anyone to collect offers for a collaborator.\n    */\n    function collectCollaboratorOffers(\n        address _collaborator,\n        OfferPointer[] calldata _nostrPointers,\n        OfferPointer[] calldata _classicPointers\n    ) external {\n        require(deletionPenalties[_collaborator].length == 0);\n\n        uint256 total = 0;\n\n        for (uint i = 0; i < _nostrPointers.length; i++) {\n            Campaign storage campaign = campaigns[_nostrPointers[i].campaignId];\n            require(block.timestamp >= (campaign.startDate + campaignDuration), \"1\"); // Campaign not ended.\n\n            AsamiNostr.Offer storage offer = campaign.nostrTerms.offers[_nostrPointers[i].offerId];\n\n            require(offer.rewardAddress == _collaborator, \"2\"); // Wrong collaborator.\n            require(AsamiNostr.collaboratorCanCollect(offer));\n\n            total = offer.rewardAmount;\n            offer.collected = true;\n        }\n\n        for (uint i = 0; i < _classicPointers.length; i++) {\n            Campaign storage campaign = campaigns[_classicPointers[i].campaignId];\n            require(block.timestamp >= (campaign.startDate + campaignDuration));\n\n            AsamiClassic.Offer storage offer = campaign.classicTerms.offers[_classicPointers[i].offerId];\n\n            require(offer.rewardAddress == _collaborator);\n            require(!offer.collaboratorCollected);\n\n            if( offer.state == AsamiClassic.OfferState.Assumed || offer.state == AsamiClassic.OfferState.Confirmed) {\n              total += offer.rewardAmount;\n            } else if( offer.state == AsamiClassic.OfferState.ConfirmationRequested ) {\n              total += campaign.classicTerms.oracleFee;\n            } else if( offer.state == AsamiClassic.OfferState.DeletionReported ) {\n              total += (offer.deletionReportedAt - campaign.startDate) * offer.rewardAmount / campaignDuration;\n            } else {\n              revert();\n            }\n            offer.collaboratorCollected = true;\n        }\n\n        require(rewardToken.transfer(_collaborator, total));\n    }\n\n    function getCollectableAdvertiserOffers(\n      address _advertiser\n    )\n        external view returns (OfferPointer[] memory, OfferPointer[] memory) \n    {\n        OfferPointer[] memory nostrPointers = new OfferPointer[](0);\n        OfferPointer[] memory classicPointers = new OfferPointer[](0);\n\n        for(uint i = 0; i < campaigns.length; i++) {\n          Campaign storage campaign = campaigns[i];\n\n          if( \n            campaign.advertiser != _advertiser ||\n            block.timestamp < (campaign.startDate + campaignDuration)\n          ){\n            continue;\n          }\n\n          if (campaign.nostrTerms.offers.length > 0) {\n            for(uint j = 0; j < campaign.nostrTerms.offers.length; j++) {\n              AsamiNostr.Offer storage offer = campaign.nostrTerms.offers[j];\n              if( AsamiNostr.advertiserCanCollect(offer) ) {\n                nostrPointers = pushPointer(nostrPointers, i, j);\n              }\n            }\n          } else {\n            for(uint j = 0; j < campaign.classicTerms.offers.length; j++) {\n              AsamiClassic.Offer memory offer = campaign.classicTerms.offers[j];\n              if(\n                !offer.advertiserCollected &&\n                offer.state != AsamiClassic.OfferState.Assumed &&\n                offer.state != AsamiClassic.OfferState.Confirmed\n              ) {\n                nostrPointers = pushPointer(nostrPointers, i, j);\n              }\n            }\n          }\n        }\n        return (nostrPointers, classicPointers);\n    }\n\n    /*\n      This function is called by the Advertiser to collect refunds from non-awarded offers.\n      It may also be called by third parties to give the refunds to the Advertiser.\n      The Advertiser must provide a known list of offers that are ready to be refunded.\n      The list can be built by calling the getCollectableRefunds function in the contract.\n    */\n    function collectAdvertiserOffers(\n      address payable _advertiser,\n      OfferPointer[] calldata _nostrOffers,\n      OfferPointer[] calldata _classicOffers\n    ) external {\n        uint256 total = 0;\n\n        for (uint i = 0; i < _nostrOffers.length; i++) {\n            OfferPointer memory p = _nostrOffers[i];\n\n            Campaign storage campaign = campaigns[p.campaignId];\n            require(campaign.advertiser == _advertiser);\n            require(block.timestamp >= (campaign.startDate + campaignDuration));\n\n            AsamiNostr.Offer storage offer = campaign.nostrTerms.offers[p.offerId];\n\n            require(AsamiNostr.advertiserCanCollect(offer));\n\n            total += offer.rewardAmount;\n            offer.collected = true;\n        }\n\n        for (uint i = 0; i < _classicOffers.length; i++) {\n            OfferPointer memory p = _classicOffers[i];\n\n            Campaign storage campaign = campaigns[p.campaignId];\n            require(campaign.advertiser == _advertiser);\n            require(block.timestamp >= (campaign.startDate + campaignDuration));\n\n            AsamiClassic.Offer storage offer = campaign.classicTerms.offers[p.offerId];\n            require(!offer.advertiserCollected);\n\n            if(\n              offer.state == AsamiClassic.OfferState.Challenged ||\n              offer.state == AsamiClassic.OfferState.ConfirmationRequested ||\n              offer.state == AsamiClassic.OfferState.Refuted ||\n              offer.state == AsamiClassic.OfferState.Renounced ||\n              offer.state == AsamiClassic.OfferState.DeletionConfirmed\n            ) {\n              total += offer.rewardAmount;\n            } else if( offer.state == AsamiClassic.OfferState.DeletionReported ) {\n              total += (campaignDuration - (offer.deletionReportedAt - campaign.startDate)) * offer.rewardAmount / campaignDuration;\n            } else {\n              revert();\n            }\n            offer.advertiserCollected = true;\n        }\n\n        require(rewardToken.transfer(_advertiser, total));\n    }\n\n    function payDeletionPenalties(\n      address _debtor\n    ) external payable {\n        DeletionPenalty[] storage penalties = deletionPenalties[_debtor];\n        uint256 total = 0;\n\n        for (uint256 i = 0; i < penalties.length; i++) {\n            total += penalties[i].amount;\n        }\n\n        require(total > 0);\n        require(msg.value == total);\n\n        for (uint256 i = 0; i < penalties.length; i++) {\n            payable(penalties[i].creditor).transfer(penalties[i].amount);\n        }\n\n        delete deletionPenalties[_debtor];\n    }\n\n\n    function setAsamiFeePerOffer(uint256 _fee) external onlyOwner {\n        feePerOffer = _fee;\n    }\n\n    function setAsamiMaxFeePerCampaign(uint256 _fee) external onlyOwner {\n        maxFeePerCampaign = _fee;\n    }\n\n    function setAsamiFeesAddress(address _feesAddress) external onlyOwner {\n        feesAddress = _feesAddress;\n    }\n\n    function addSocialNetwork(string calldata _name) external onlyOwner {\n        socialNetworks.push(_name);\n    }\n\n    function collectAsamiFees() external {\n        require(fees > 0);\n        require(rewardToken.transferFrom(address(this), feesAddress, fees));\n        fees = 0;\n    }\n\n    function collectOracleFees(address _oracle) external {\n        require(oracleFees[_oracle] > 0);\n        require(rewardToken.transferFrom(address(this), _oracle, oracleFees[_oracle]));\n        oracleFees[_oracle] = 0;\n    }\n\n    function nostrGetCampaignOffer(OfferPointer memory _p) external view returns (AsamiNostr.Offer memory) {\n        return campaigns[_p.campaignId].nostrTerms.offers[_p.offerId];\n    }\n\n    function classicGetCampaignOffer(OfferPointer memory _p) external view returns (AsamiClassic.Offer memory) {\n        return campaigns[_p.campaignId].classicTerms.offers[_p.offerId];\n    }\n\n    function calculateCampaignFees(uint _offerCount) external view returns (uint256) {\n        uint256 total = _offerCount * feePerOffer;\n        return total > maxFeePerCampaign ? maxFeePerCampaign : total;\n    }\n\n    function getCampaigns() external view returns (Campaign[] memory) {\n        return campaigns;\n    }\n\n    function getSocialNetworks() external view returns (string[] memory) {\n        return socialNetworks;\n    }\n\n    function getCampaignInTimeWindow(\n      OfferPointer calldata _p,\n      uint256 _offset,\n      uint256 _duration\n    ) internal view returns (Campaign storage) {\n        Campaign storage campaign = campaigns[_p.campaignId];\n        require(block.timestamp >= (campaign.startDate + _offset), \"99\");\n        require(block.timestamp <= (campaign.startDate + _offset + _duration), \"99\");\n        return campaign;\n    }\n\n    function pushPointer(\n      OfferPointer[] memory _pointers,\n      uint256 _campaignId,\n      uint256 _offerId\n    ) internal pure returns (OfferPointer[] memory) {\n      OfferPointer[] memory tmp = new OfferPointer[](_pointers.length + 1);\n      for (uint k = 0; k < _pointers.length; k++) {\n          tmp[k] = _pointers[k];\n      }\n      tmp[_pointers.length] = OfferPointer(_campaignId, _offerId);\n      return tmp;\n    }\n}\n",
  "sourcePath": "/home/nubis/asami/contract/contracts/Asami.sol",
  "compiler": {
    "name": "solc",
    "version": "0.8.19+commit.7dd6d404.Emscripten.clang"
  },
  "schemaVersion": "3.4.15",
  "updatedAt": "2023-09-04T08:56:56.210Z",
  "networkType": "ethereum",
  "devdoc": {
    "kind": "dev",
    "methods": {
      "owner()": {
        "details": "Returns the address of the current owner."
      },
      "renounceOwnership()": {
        "details": "Leaves the contract without owner. It will not be possible to call `onlyOwner` functions. Can only be called by the current owner. NOTE: Renouncing ownership will leave the contract without an owner, thereby disabling any functionality that is only available to the owner."
      },
      "transferOwnership(address)": {
        "details": "Transfers ownership of the contract to a new account (`newOwner`). Can only be called by the current owner."
      }
    },
    "version": 1
  },
  "userdoc": {
    "kind": "user",
    "methods": {},
    "version": 1
  }
}