{
  "contractName": "Asami",
  "abi": [
    {
      "inputs": [
        {
          "internalType": "address",
          "name": "_dollarOnChainAddress",
          "type": "address"
        },
        {
          "internalType": "address",
          "name": "_adminAddress",
          "type": "address"
        }
      ],
      "stateMutability": "nonpayable",
      "type": "constructor"
    },
    {
      "anonymous": false,
      "inputs": [
        {
          "components": [
            {
              "internalType": "uint256",
              "name": "id",
              "type": "uint256"
            },
            {
              "internalType": "address",
              "name": "addr",
              "type": "address"
            },
            {
              "internalType": "uint256",
              "name": "unclaimedAsamiTokens",
              "type": "uint256"
            },
            {
              "internalType": "uint256",
              "name": "unclaimedDocRewards",
              "type": "uint256"
            },
            {
              "internalType": "uint256[]",
              "name": "handles",
              "type": "uint256[]"
            },
            {
              "internalType": "uint256[]",
              "name": "campaigns",
              "type": "uint256[]"
            },
            {
              "internalType": "uint256[]",
              "name": "collabs",
              "type": "uint256[]"
            }
          ],
          "indexed": false,
          "internalType": "struct Asami.Account",
          "name": "account",
          "type": "tuple"
        }
      ],
      "name": "AccountSaved",
      "type": "event"
    },
    {
      "anonymous": false,
      "inputs": [
        {
          "components": [
            {
              "internalType": "uint256",
              "name": "votes",
              "type": "uint256"
            },
            {
              "internalType": "address",
              "name": "candidate",
              "type": "address"
            },
            {
              "internalType": "uint256",
              "name": "cycle",
              "type": "uint256"
            },
            {
              "internalType": "bool",
              "name": "vested",
              "type": "bool"
            }
          ],
          "indexed": false,
          "internalType": "struct Asami.AdminVote",
          "name": "vote",
          "type": "tuple"
        }
      ],
      "name": "AdminVoteSaved",
      "type": "event"
    },
    {
      "anonymous": false,
      "inputs": [
        {
          "indexed": true,
          "internalType": "address",
          "name": "owner",
          "type": "address"
        },
        {
          "indexed": true,
          "internalType": "address",
          "name": "spender",
          "type": "address"
        },
        {
          "indexed": false,
          "internalType": "uint256",
          "name": "value",
          "type": "uint256"
        }
      ],
      "name": "Approval",
      "type": "event"
    },
    {
      "anonymous": false,
      "inputs": [
        {
          "components": [
            {
              "internalType": "uint256",
              "name": "id",
              "type": "uint256"
            },
            {
              "internalType": "uint256",
              "name": "accountId",
              "type": "uint256"
            },
            {
              "internalType": "enum Asami.Site",
              "name": "site",
              "type": "uint8"
            },
            {
              "internalType": "uint256",
              "name": "budget",
              "type": "uint256"
            },
            {
              "internalType": "uint256",
              "name": "remaining",
              "type": "uint256"
            },
            {
              "internalType": "string",
              "name": "contentId",
              "type": "string"
            },
            {
              "internalType": "uint256",
              "name": "priceScoreRatio",
              "type": "uint256"
            },
            {
              "internalType": "uint256[]",
              "name": "topics",
              "type": "uint256[]"
            },
            {
              "internalType": "uint256",
              "name": "validUntil",
              "type": "uint256"
            },
            {
              "internalType": "bool",
              "name": "fundedByAdmin",
              "type": "bool"
            }
          ],
          "indexed": false,
          "internalType": "struct Asami.Campaign",
          "name": "campaign",
          "type": "tuple"
        }
      ],
      "name": "CampaignSaved",
      "type": "event"
    },
    {
      "anonymous": false,
      "inputs": [
        {
          "components": [
            {
              "internalType": "uint256",
              "name": "id",
              "type": "uint256"
            },
            {
              "internalType": "uint256",
              "name": "handleId",
              "type": "uint256"
            },
            {
              "internalType": "uint256",
              "name": "campaignId",
              "type": "uint256"
            },
            {
              "internalType": "uint256",
              "name": "gross",
              "type": "uint256"
            },
            {
              "internalType": "uint256",
              "name": "fee",
              "type": "uint256"
            },
            {
              "internalType": "string",
              "name": "proof",
              "type": "string"
            },
            {
              "internalType": "uint256",
              "name": "createdAt",
              "type": "uint256"
            }
          ],
          "indexed": false,
          "internalType": "struct Asami.Collab",
          "name": "collab",
          "type": "tuple"
        }
      ],
      "name": "CollabSaved",
      "type": "event"
    },
    {
      "anonymous": false,
      "inputs": [
        {
          "components": [
            {
              "internalType": "uint256",
              "name": "id",
              "type": "uint256"
            },
            {
              "internalType": "uint256",
              "name": "accountId",
              "type": "uint256"
            },
            {
              "internalType": "enum Asami.Site",
              "name": "site",
              "type": "uint8"
            },
            {
              "internalType": "uint256",
              "name": "price",
              "type": "uint256"
            },
            {
              "internalType": "uint256",
              "name": "score",
              "type": "uint256"
            },
            {
              "internalType": "uint256[]",
              "name": "topics",
              "type": "uint256[]"
            },
            {
              "internalType": "string",
              "name": "username",
              "type": "string"
            },
            {
              "internalType": "string",
              "name": "userId",
              "type": "string"
            },
            {
              "internalType": "bool",
              "name": "needsUpdate",
              "type": "bool"
            },
            {
              "internalType": "string",
              "name": "newUsername",
              "type": "string"
            },
            {
              "internalType": "uint256",
              "name": "newPrice",
              "type": "uint256"
            },
            {
              "internalType": "uint256",
              "name": "newScore",
              "type": "uint256"
            },
            {
              "internalType": "uint256[]",
              "name": "newTopics",
              "type": "uint256[]"
            },
            {
              "internalType": "uint256",
              "name": "lastUpdated",
              "type": "uint256"
            }
          ],
          "indexed": false,
          "internalType": "struct Asami.Handle",
          "name": "handle",
          "type": "tuple"
        }
      ],
      "name": "HandleSaved",
      "type": "event"
    },
    {
      "anonymous": false,
      "inputs": [
        {
          "indexed": false,
          "internalType": "uint256",
          "name": "id",
          "type": "uint256"
        },
        {
          "indexed": false,
          "internalType": "string",
          "name": "name",
          "type": "string"
        }
      ],
      "name": "TopicSaved",
      "type": "event"
    },
    {
      "anonymous": false,
      "inputs": [
        {
          "indexed": true,
          "internalType": "address",
          "name": "from",
          "type": "address"
        },
        {
          "indexed": true,
          "internalType": "address",
          "name": "to",
          "type": "address"
        },
        {
          "indexed": false,
          "internalType": "uint256",
          "name": "value",
          "type": "uint256"
        }
      ],
      "name": "Transfer",
      "type": "event"
    },
    {
      "inputs": [
        {
          "internalType": "address",
          "name": "",
          "type": "address"
        }
      ],
      "name": "accountIdByAddress",
      "outputs": [
        {
          "internalType": "uint256",
          "name": "",
          "type": "uint256"
        }
      ],
      "stateMutability": "view",
      "type": "function",
      "constant": true
    },
    {
      "inputs": [
        {
          "internalType": "uint256",
          "name": "",
          "type": "uint256"
        }
      ],
      "name": "accountIds",
      "outputs": [
        {
          "internalType": "uint256",
          "name": "",
          "type": "uint256"
        }
      ],
      "stateMutability": "view",
      "type": "function",
      "constant": true
    },
    {
      "inputs": [
        {
          "internalType": "uint256",
          "name": "",
          "type": "uint256"
        }
      ],
      "name": "accounts",
      "outputs": [
        {
          "internalType": "uint256",
          "name": "id",
          "type": "uint256"
        },
        {
          "internalType": "address",
          "name": "addr",
          "type": "address"
        },
        {
          "internalType": "uint256",
          "name": "unclaimedAsamiTokens",
          "type": "uint256"
        },
        {
          "internalType": "uint256",
          "name": "unclaimedDocRewards",
          "type": "uint256"
        }
      ],
      "stateMutability": "view",
      "type": "function",
      "constant": true
    },
    {
      "inputs": [],
      "name": "admin",
      "outputs": [
        {
          "internalType": "address",
          "name": "",
          "type": "address"
        }
      ],
      "stateMutability": "view",
      "type": "function",
      "constant": true
    },
    {
      "inputs": [],
      "name": "adminTreasury",
      "outputs": [
        {
          "internalType": "address",
          "name": "",
          "type": "address"
        }
      ],
      "stateMutability": "view",
      "type": "function",
      "constant": true
    },
    {
      "inputs": [
        {
          "internalType": "address",
          "name": "",
          "type": "address"
        }
      ],
      "name": "adminVoteCountIdByCandidate",
      "outputs": [
        {
          "internalType": "uint256",
          "name": "",
          "type": "uint256"
        }
      ],
      "stateMutability": "view",
      "type": "function",
      "constant": true
    },
    {
      "inputs": [
        {
          "internalType": "uint256",
          "name": "",
          "type": "uint256"
        }
      ],
      "name": "adminVoteCounts",
      "outputs": [
        {
          "internalType": "uint256",
          "name": "votes",
          "type": "uint256"
        },
        {
          "internalType": "address",
          "name": "candidate",
          "type": "address"
        }
      ],
      "stateMutability": "view",
      "type": "function",
      "constant": true
    },
    {
      "inputs": [
        {
          "internalType": "address",
          "name": "owner",
          "type": "address"
        },
        {
          "internalType": "address",
          "name": "spender",
          "type": "address"
        }
      ],
      "name": "allowance",
      "outputs": [
        {
          "internalType": "uint256",
          "name": "",
          "type": "uint256"
        }
      ],
      "stateMutability": "view",
      "type": "function",
      "constant": true
    },
    {
      "inputs": [
        {
          "internalType": "address",
          "name": "spender",
          "type": "address"
        },
        {
          "internalType": "uint256",
          "name": "amount",
          "type": "uint256"
        }
      ],
      "name": "approve",
      "outputs": [
        {
          "internalType": "bool",
          "name": "",
          "type": "bool"
        }
      ],
      "stateMutability": "nonpayable",
      "type": "function"
    },
    {
      "inputs": [
        {
          "internalType": "address",
          "name": "account",
          "type": "address"
        }
      ],
      "name": "balanceOf",
      "outputs": [
        {
          "internalType": "uint256",
          "name": "",
          "type": "uint256"
        }
      ],
      "stateMutability": "view",
      "type": "function",
      "constant": true
    },
    {
      "inputs": [
        {
          "internalType": "uint256",
          "name": "",
          "type": "uint256"
        }
      ],
      "name": "campaigns",
      "outputs": [
        {
          "internalType": "uint256",
          "name": "id",
          "type": "uint256"
        },
        {
          "internalType": "uint256",
          "name": "accountId",
          "type": "uint256"
        },
        {
          "internalType": "enum Asami.Site",
          "name": "site",
          "type": "uint8"
        },
        {
          "internalType": "uint256",
          "name": "budget",
          "type": "uint256"
        },
        {
          "internalType": "uint256",
          "name": "remaining",
          "type": "uint256"
        },
        {
          "internalType": "string",
          "name": "contentId",
          "type": "string"
        },
        {
          "internalType": "uint256",
          "name": "priceScoreRatio",
          "type": "uint256"
        },
        {
          "internalType": "uint256",
          "name": "validUntil",
          "type": "uint256"
        },
        {
          "internalType": "bool",
          "name": "fundedByAdmin",
          "type": "bool"
        }
      ],
      "stateMutability": "view",
      "type": "function",
      "constant": true
    },
    {
      "inputs": [],
      "name": "cap",
      "outputs": [
        {
          "internalType": "uint256",
          "name": "",
          "type": "uint256"
        }
      ],
      "stateMutability": "view",
      "type": "function",
      "constant": true
    },
    {
      "inputs": [],
      "name": "claimedAsamiTokens",
      "outputs": [
        {
          "internalType": "uint256",
          "name": "",
          "type": "uint256"
        }
      ],
      "stateMutability": "view",
      "type": "function",
      "constant": true
    },
    {
      "inputs": [
        {
          "internalType": "uint256",
          "name": "",
          "type": "uint256"
        }
      ],
      "name": "collabs",
      "outputs": [
        {
          "internalType": "uint256",
          "name": "id",
          "type": "uint256"
        },
        {
          "internalType": "uint256",
          "name": "handleId",
          "type": "uint256"
        },
        {
          "internalType": "uint256",
          "name": "campaignId",
          "type": "uint256"
        },
        {
          "internalType": "uint256",
          "name": "gross",
          "type": "uint256"
        },
        {
          "internalType": "uint256",
          "name": "fee",
          "type": "uint256"
        },
        {
          "internalType": "string",
          "name": "proof",
          "type": "string"
        },
        {
          "internalType": "uint256",
          "name": "createdAt",
          "type": "uint256"
        }
      ],
      "stateMutability": "view",
      "type": "function",
      "constant": true
    },
    {
      "inputs": [],
      "name": "decimals",
      "outputs": [
        {
          "internalType": "uint8",
          "name": "",
          "type": "uint8"
        }
      ],
      "stateMutability": "view",
      "type": "function",
      "constant": true
    },
    {
      "inputs": [
        {
          "internalType": "address",
          "name": "spender",
          "type": "address"
        },
        {
          "internalType": "uint256",
          "name": "subtractedValue",
          "type": "uint256"
        }
      ],
      "name": "decreaseAllowance",
      "outputs": [
        {
          "internalType": "bool",
          "name": "",
          "type": "bool"
        }
      ],
      "stateMutability": "nonpayable",
      "type": "function"
    },
    {
      "inputs": [],
      "name": "defaultFeeRate",
      "outputs": [
        {
          "internalType": "uint256",
          "name": "",
          "type": "uint256"
        }
      ],
      "stateMutability": "view",
      "type": "function",
      "constant": true
    },
    {
      "inputs": [],
      "name": "feePool",
      "outputs": [
        {
          "internalType": "uint256",
          "name": "",
          "type": "uint256"
        }
      ],
      "stateMutability": "view",
      "type": "function",
      "constant": true
    },
    {
      "inputs": [],
      "name": "feeRate",
      "outputs": [
        {
          "internalType": "uint256",
          "name": "",
          "type": "uint256"
        }
      ],
      "stateMutability": "view",
      "type": "function",
      "constant": true
    },
    {
      "inputs": [
        {
          "internalType": "address",
          "name": "",
          "type": "address"
        }
      ],
      "name": "feeRateVotes",
      "outputs": [
        {
          "internalType": "uint256",
          "name": "votes",
          "type": "uint256"
        },
        {
          "internalType": "uint256",
          "name": "rate",
          "type": "uint256"
        }
      ],
      "stateMutability": "view",
      "type": "function",
      "constant": true
    },
    {
      "inputs": [
        {
          "internalType": "uint256",
          "name": "",
          "type": "uint256"
        }
      ],
      "name": "handles",
      "outputs": [
        {
          "internalType": "uint256",
          "name": "id",
          "type": "uint256"
        },
        {
          "internalType": "uint256",
          "name": "accountId",
          "type": "uint256"
        },
        {
          "internalType": "enum Asami.Site",
          "name": "site",
          "type": "uint8"
        },
        {
          "internalType": "uint256",
          "name": "price",
          "type": "uint256"
        },
        {
          "internalType": "uint256",
          "name": "score",
          "type": "uint256"
        },
        {
          "internalType": "string",
          "name": "username",
          "type": "string"
        },
        {
          "internalType": "string",
          "name": "userId",
          "type": "string"
        },
        {
          "internalType": "bool",
          "name": "needsUpdate",
          "type": "bool"
        },
        {
          "internalType": "string",
          "name": "newUsername",
          "type": "string"
        },
        {
          "internalType": "uint256",
          "name": "newPrice",
          "type": "uint256"
        },
        {
          "internalType": "uint256",
          "name": "newScore",
          "type": "uint256"
        },
        {
          "internalType": "uint256",
          "name": "lastUpdated",
          "type": "uint256"
        }
      ],
      "stateMutability": "view",
      "type": "function",
      "constant": true
    },
    {
      "inputs": [
        {
          "internalType": "uint256",
          "name": "",
          "type": "uint256"
        }
      ],
      "name": "holders",
      "outputs": [
        {
          "internalType": "address",
          "name": "",
          "type": "address"
        }
      ],
      "stateMutability": "view",
      "type": "function",
      "constant": true
    },
    {
      "inputs": [
        {
          "internalType": "address",
          "name": "spender",
          "type": "address"
        },
        {
          "internalType": "uint256",
          "name": "addedValue",
          "type": "uint256"
        }
      ],
      "name": "increaseAllowance",
      "outputs": [
        {
          "internalType": "bool",
          "name": "",
          "type": "bool"
        }
      ],
      "stateMutability": "nonpayable",
      "type": "function"
    },
    {
      "inputs": [],
      "name": "lastAdminElection",
      "outputs": [
        {
          "internalType": "uint256",
          "name": "",
          "type": "uint256"
        }
      ],
      "stateMutability": "view",
      "type": "function",
      "constant": true
    },
    {
      "inputs": [
        {
          "internalType": "address",
          "name": "",
          "type": "address"
        }
      ],
      "name": "lastFeePoolShareCycles",
      "outputs": [
        {
          "internalType": "uint256",
          "name": "",
          "type": "uint256"
        }
      ],
      "stateMutability": "view",
      "type": "function",
      "constant": true
    },
    {
      "inputs": [],
      "name": "lastVotedFeeRateAppliedOn",
      "outputs": [
        {
          "internalType": "uint256",
          "name": "",
          "type": "uint256"
        }
      ],
      "stateMutability": "view",
      "type": "function",
      "constant": true
    },
    {
      "inputs": [
        {
          "internalType": "uint256",
          "name": "",
          "type": "uint256"
        }
      ],
      "name": "latestAdminElections",
      "outputs": [
        {
          "internalType": "address",
          "name": "",
          "type": "address"
        }
      ],
      "stateMutability": "view",
      "type": "function",
      "constant": true
    },
    {
      "inputs": [],
      "name": "name",
      "outputs": [
        {
          "internalType": "string",
          "name": "",
          "type": "string"
        }
      ],
      "stateMutability": "view",
      "type": "function",
      "constant": true
    },
    {
      "inputs": [
        {
          "internalType": "uint256",
          "name": "",
          "type": "uint256"
        },
        {
          "internalType": "address",
          "name": "",
          "type": "address"
        }
      ],
      "name": "recentBalanceChanges",
      "outputs": [
        {
          "internalType": "uint256",
          "name": "added",
          "type": "uint256"
        },
        {
          "internalType": "uint256",
          "name": "substracted",
          "type": "uint256"
        }
      ],
      "stateMutability": "view",
      "type": "function",
      "constant": true
    },
    {
      "inputs": [
        {
          "internalType": "uint256",
          "name": "",
          "type": "uint256"
        }
      ],
      "name": "recentFeePoolChanges",
      "outputs": [
        {
          "internalType": "uint256",
          "name": "added",
          "type": "uint256"
        },
        {
          "internalType": "uint256",
          "name": "substracted",
          "type": "uint256"
        }
      ],
      "stateMutability": "view",
      "type": "function",
      "constant": true
    },
    {
      "inputs": [
        {
          "internalType": "uint256",
          "name": "",
          "type": "uint256"
        }
      ],
      "name": "recentTokens",
      "outputs": [
        {
          "internalType": "uint256",
          "name": "",
          "type": "uint256"
        }
      ],
      "stateMutability": "view",
      "type": "function",
      "constant": true
    },
    {
      "inputs": [
        {
          "internalType": "address",
          "name": "",
          "type": "address"
        }
      ],
      "name": "submittedAdminVotes",
      "outputs": [
        {
          "internalType": "uint256",
          "name": "votes",
          "type": "uint256"
        },
        {
          "internalType": "address",
          "name": "candidate",
          "type": "address"
        },
        {
          "internalType": "uint256",
          "name": "cycle",
          "type": "uint256"
        },
        {
          "internalType": "bool",
          "name": "vested",
          "type": "bool"
        }
      ],
      "stateMutability": "view",
      "type": "function",
      "constant": true
    },
    {
      "inputs": [],
      "name": "symbol",
      "outputs": [
        {
          "internalType": "string",
          "name": "",
          "type": "string"
        }
      ],
      "stateMutability": "view",
      "type": "function",
      "constant": true
    },
    {
      "inputs": [
        {
          "internalType": "uint256",
          "name": "",
          "type": "uint256"
        }
      ],
      "name": "topics",
      "outputs": [
        {
          "internalType": "string",
          "name": "",
          "type": "string"
        }
      ],
      "stateMutability": "view",
      "type": "function",
      "constant": true
    },
    {
      "inputs": [],
      "name": "totalSupply",
      "outputs": [
        {
          "internalType": "uint256",
          "name": "",
          "type": "uint256"
        }
      ],
      "stateMutability": "view",
      "type": "function",
      "constant": true
    },
    {
      "inputs": [
        {
          "internalType": "address",
          "name": "",
          "type": "address"
        }
      ],
      "name": "trackedHolders",
      "outputs": [
        {
          "internalType": "bool",
          "name": "",
          "type": "bool"
        }
      ],
      "stateMutability": "view",
      "type": "function",
      "constant": true
    },
    {
      "inputs": [
        {
          "internalType": "address",
          "name": "to",
          "type": "address"
        },
        {
          "internalType": "uint256",
          "name": "amount",
          "type": "uint256"
        }
      ],
      "name": "transfer",
      "outputs": [
        {
          "internalType": "bool",
          "name": "",
          "type": "bool"
        }
      ],
      "stateMutability": "nonpayable",
      "type": "function"
    },
    {
      "inputs": [
        {
          "internalType": "address",
          "name": "from",
          "type": "address"
        },
        {
          "internalType": "address",
          "name": "to",
          "type": "address"
        },
        {
          "internalType": "uint256",
          "name": "amount",
          "type": "uint256"
        }
      ],
      "name": "transferFrom",
      "outputs": [
        {
          "internalType": "bool",
          "name": "",
          "type": "bool"
        }
      ],
      "stateMutability": "nonpayable",
      "type": "function"
    },
    {
      "inputs": [],
      "name": "vestedAdminVotesTotal",
      "outputs": [
        {
          "internalType": "uint256",
          "name": "",
          "type": "uint256"
        }
      ],
      "stateMutability": "view",
      "type": "function",
      "constant": true
    },
    {
      "inputs": [],
      "name": "votedFeeRate",
      "outputs": [
        {
          "internalType": "uint256",
          "name": "",
          "type": "uint256"
        }
      ],
      "stateMutability": "view",
      "type": "function",
      "constant": true
    },
    {
      "inputs": [],
      "name": "votedFeeRateVoteCount",
      "outputs": [
        {
          "internalType": "uint256",
          "name": "",
          "type": "uint256"
        }
      ],
      "stateMutability": "view",
      "type": "function",
      "constant": true
    },
    {
      "inputs": [],
      "name": "getHandles",
      "outputs": [
        {
          "components": [
            {
              "internalType": "uint256",
              "name": "id",
              "type": "uint256"
            },
            {
              "internalType": "uint256",
              "name": "accountId",
              "type": "uint256"
            },
            {
              "internalType": "enum Asami.Site",
              "name": "site",
              "type": "uint8"
            },
            {
              "internalType": "uint256",
              "name": "price",
              "type": "uint256"
            },
            {
              "internalType": "uint256",
              "name": "score",
              "type": "uint256"
            },
            {
              "internalType": "uint256[]",
              "name": "topics",
              "type": "uint256[]"
            },
            {
              "internalType": "string",
              "name": "username",
              "type": "string"
            },
            {
              "internalType": "string",
              "name": "userId",
              "type": "string"
            },
            {
              "internalType": "bool",
              "name": "needsUpdate",
              "type": "bool"
            },
            {
              "internalType": "string",
              "name": "newUsername",
              "type": "string"
            },
            {
              "internalType": "uint256",
              "name": "newPrice",
              "type": "uint256"
            },
            {
              "internalType": "uint256",
              "name": "newScore",
              "type": "uint256"
            },
            {
              "internalType": "uint256[]",
              "name": "newTopics",
              "type": "uint256[]"
            },
            {
              "internalType": "uint256",
              "name": "lastUpdated",
              "type": "uint256"
            }
          ],
          "internalType": "struct Asami.Handle[]",
          "name": "",
          "type": "tuple[]"
        }
      ],
      "stateMutability": "view",
      "type": "function",
      "constant": true
    },
    {
      "inputs": [],
      "name": "getCampaigns",
      "outputs": [
        {
          "components": [
            {
              "internalType": "uint256",
              "name": "id",
              "type": "uint256"
            },
            {
              "internalType": "uint256",
              "name": "accountId",
              "type": "uint256"
            },
            {
              "internalType": "enum Asami.Site",
              "name": "site",
              "type": "uint8"
            },
            {
              "internalType": "uint256",
              "name": "budget",
              "type": "uint256"
            },
            {
              "internalType": "uint256",
              "name": "remaining",
              "type": "uint256"
            },
            {
              "internalType": "string",
              "name": "contentId",
              "type": "string"
            },
            {
              "internalType": "uint256",
              "name": "priceScoreRatio",
              "type": "uint256"
            },
            {
              "internalType": "uint256[]",
              "name": "topics",
              "type": "uint256[]"
            },
            {
              "internalType": "uint256",
              "name": "validUntil",
              "type": "uint256"
            },
            {
              "internalType": "bool",
              "name": "fundedByAdmin",
              "type": "bool"
            }
          ],
          "internalType": "struct Asami.Campaign[]",
          "name": "",
          "type": "tuple[]"
        }
      ],
      "stateMutability": "view",
      "type": "function",
      "constant": true
    },
    {
      "inputs": [],
      "name": "allAdminVoteCounts",
      "outputs": [
        {
          "components": [
            {
              "internalType": "uint256",
              "name": "votes",
              "type": "uint256"
            },
            {
              "internalType": "address",
              "name": "candidate",
              "type": "address"
            }
          ],
          "internalType": "struct Asami.AdminVoteCount[]",
          "name": "",
          "type": "tuple[]"
        }
      ],
      "stateMutability": "view",
      "type": "function",
      "constant": true
    },
    {
      "inputs": [],
      "name": "getLatestAdminElections",
      "outputs": [
        {
          "internalType": "address[3]",
          "name": "",
          "type": "address[3]"
        }
      ],
      "stateMutability": "view",
      "type": "function",
      "constant": true
    },
    {
      "inputs": [],
      "name": "getHolders",
      "outputs": [
        {
          "internalType": "address[]",
          "name": "",
          "type": "address[]"
        }
      ],
      "stateMutability": "view",
      "type": "function",
      "constant": true
    },
    {
      "inputs": [],
      "name": "getClaimedAsamiTokens",
      "outputs": [
        {
          "internalType": "uint256",
          "name": "",
          "type": "uint256"
        }
      ],
      "stateMutability": "view",
      "type": "function",
      "constant": true
    },
    {
      "inputs": [],
      "name": "getTopics",
      "outputs": [
        {
          "internalType": "string[]",
          "name": "",
          "type": "string[]"
        }
      ],
      "stateMutability": "view",
      "type": "function",
      "constant": true
    },
    {
      "inputs": [
        {
          "internalType": "string[]",
          "name": "_names",
          "type": "string[]"
        }
      ],
      "name": "adminAddTopics",
      "outputs": [],
      "stateMutability": "nonpayable",
      "type": "function"
    },
    {
      "inputs": [
        {
          "components": [
            {
              "internalType": "uint256",
              "name": "accountId",
              "type": "uint256"
            },
            {
              "internalType": "address",
              "name": "addr",
              "type": "address"
            }
          ],
          "internalType": "struct Asami.AdminClaimAccountsInput[]",
          "name": "_input",
          "type": "tuple[]"
        }
      ],
      "name": "claimAccounts",
      "outputs": [],
      "stateMutability": "nonpayable",
      "type": "function"
    },
    {
      "inputs": [
        {
          "components": [
            {
              "internalType": "uint256",
              "name": "id",
              "type": "uint256"
            },
            {
              "internalType": "uint256",
              "name": "accountId",
              "type": "uint256"
            },
            {
              "internalType": "enum Asami.Site",
              "name": "site",
              "type": "uint8"
            },
            {
              "internalType": "uint256",
              "name": "price",
              "type": "uint256"
            },
            {
              "internalType": "uint256",
              "name": "score",
              "type": "uint256"
            },
            {
              "internalType": "uint256[]",
              "name": "topics",
              "type": "uint256[]"
            },
            {
              "internalType": "string",
              "name": "username",
              "type": "string"
            },
            {
              "internalType": "string",
              "name": "userId",
              "type": "string"
            },
            {
              "internalType": "bool",
              "name": "needsUpdate",
              "type": "bool"
            },
            {
              "internalType": "string",
              "name": "newUsername",
              "type": "string"
            },
            {
              "internalType": "uint256",
              "name": "newPrice",
              "type": "uint256"
            },
            {
              "internalType": "uint256",
              "name": "newScore",
              "type": "uint256"
            },
            {
              "internalType": "uint256[]",
              "name": "newTopics",
              "type": "uint256[]"
            },
            {
              "internalType": "uint256",
              "name": "lastUpdated",
              "type": "uint256"
            }
          ],
          "internalType": "struct Asami.Handle[]",
          "name": "_inputs",
          "type": "tuple[]"
        }
      ],
      "name": "adminMakeHandles",
      "outputs": [],
      "stateMutability": "nonpayable",
      "type": "function"
    },
    {
      "inputs": [
        {
          "components": [
            {
              "internalType": "enum Asami.Site",
              "name": "site",
              "type": "uint8"
            },
            {
              "internalType": "uint256",
              "name": "budget",
              "type": "uint256"
            },
            {
              "internalType": "string",
              "name": "contentId",
              "type": "string"
            },
            {
              "internalType": "uint256",
              "name": "priceScoreRatio",
              "type": "uint256"
            },
            {
              "internalType": "uint256[]",
              "name": "topics",
              "type": "uint256[]"
            },
            {
              "internalType": "uint256",
              "name": "validUntil",
              "type": "uint256"
            }
          ],
          "internalType": "struct Asami.CampaignInput[]",
          "name": "_inputs",
          "type": "tuple[]"
        }
      ],
      "name": "makeCampaigns",
      "outputs": [],
      "stateMutability": "nonpayable",
      "type": "function"
    },
    {
      "inputs": [
        {
          "components": [
            {
              "internalType": "uint256",
              "name": "accountId",
              "type": "uint256"
            },
            {
              "components": [
                {
                  "internalType": "enum Asami.Site",
                  "name": "site",
                  "type": "uint8"
                },
                {
                  "internalType": "uint256",
                  "name": "budget",
                  "type": "uint256"
                },
                {
                  "internalType": "string",
                  "name": "contentId",
                  "type": "string"
                },
                {
                  "internalType": "uint256",
                  "name": "priceScoreRatio",
                  "type": "uint256"
                },
                {
                  "internalType": "uint256[]",
                  "name": "topics",
                  "type": "uint256[]"
                },
                {
                  "internalType": "uint256",
                  "name": "validUntil",
                  "type": "uint256"
                }
              ],
              "internalType": "struct Asami.CampaignInput",
              "name": "attrs",
              "type": "tuple"
            }
          ],
          "internalType": "struct Asami.AdminCampaignInput[]",
          "name": "_inputs",
          "type": "tuple[]"
        }
      ],
      "name": "adminMakeCampaigns",
      "outputs": [],
      "stateMutability": "nonpayable",
      "type": "function"
    },
    {
      "inputs": [
        {
          "components": [
            {
              "internalType": "uint256",
              "name": "campaignId",
              "type": "uint256"
            },
            {
              "internalType": "uint256",
              "name": "handleId",
              "type": "uint256"
            }
          ],
          "internalType": "struct Asami.AdminMakeCollabsInput[]",
          "name": "_collabs",
          "type": "tuple[]"
        }
      ],
      "name": "adminMakeCollabs",
      "outputs": [],
      "stateMutability": "nonpayable",
      "type": "function"
    },
    {
      "inputs": [
        {
          "internalType": "uint256[]",
          "name": "_campaignIds",
          "type": "uint256[]"
        }
      ],
      "name": "reimburseDueCampaigns",
      "outputs": [],
      "stateMutability": "nonpayable",
      "type": "function"
    },
    {
      "inputs": [
        {
          "components": [
            {
              "internalType": "uint256",
              "name": "handleId",
              "type": "uint256"
            },
            {
              "internalType": "uint256",
              "name": "price",
              "type": "uint256"
            }
          ],
          "internalType": "struct Asami.AdminSetPriceInput[]",
          "name": "_inputs",
          "type": "tuple[]"
        }
      ],
      "name": "adminSetPrice",
      "outputs": [],
      "stateMutability": "nonpayable",
      "type": "function"
    },
    {
      "inputs": [
        {
          "internalType": "uint256",
          "name": "_handleId",
          "type": "uint256"
        },
        {
          "internalType": "uint256",
          "name": "_price",
          "type": "uint256"
        }
      ],
      "name": "setPrice",
      "outputs": [],
      "stateMutability": "nonpayable",
      "type": "function"
    },
    {
      "inputs": [
        {
          "components": [
            {
              "internalType": "uint256",
              "name": "handleId",
              "type": "uint256"
            },
            {
              "internalType": "uint256",
              "name": "score",
              "type": "uint256"
            },
            {
              "internalType": "uint256[]",
              "name": "topics",
              "type": "uint256[]"
            }
          ],
          "internalType": "struct Asami.AdminSetScoreAndTopicsInput[]",
          "name": "_inputs",
          "type": "tuple[]"
        }
      ],
      "name": "adminSetScoreAndTopics",
      "outputs": [],
      "stateMutability": "nonpayable",
      "type": "function"
    },
    {
      "inputs": [],
      "name": "getCycleLength",
      "outputs": [
        {
          "internalType": "uint256",
          "name": "",
          "type": "uint256"
        }
      ],
      "stateMutability": "pure",
      "type": "function",
      "constant": true
    },
    {
      "inputs": [],
      "name": "getCurrentCycle",
      "outputs": [
        {
          "internalType": "uint256",
          "name": "",
          "type": "uint256"
        }
      ],
      "stateMutability": "view",
      "type": "function",
      "constant": true
    },
    {
      "inputs": [],
      "name": "getNextCycle",
      "outputs": [
        {
          "internalType": "uint256",
          "name": "",
          "type": "uint256"
        }
      ],
      "stateMutability": "view",
      "type": "function",
      "constant": true
    },
    {
      "inputs": [
        {
          "internalType": "address",
          "name": "_holder",
          "type": "address"
        }
      ],
      "name": "getRecentBalanceChange",
      "outputs": [
        {
          "components": [
            {
              "internalType": "uint256",
              "name": "added",
              "type": "uint256"
            },
            {
              "internalType": "uint256",
              "name": "substracted",
              "type": "uint256"
            }
          ],
          "internalType": "struct Asami.BalanceChange",
          "name": "",
          "type": "tuple"
        }
      ],
      "stateMutability": "view",
      "type": "function",
      "constant": true
    },
    {
      "inputs": [
        {
          "internalType": "address",
          "name": "_holder",
          "type": "address"
        }
      ],
      "name": "getBalanceBeforeRecentChanges",
      "outputs": [
        {
          "internalType": "uint256",
          "name": "",
          "type": "uint256"
        }
      ],
      "stateMutability": "view",
      "type": "function",
      "constant": true
    },
    {
      "inputs": [],
      "name": "getFeePoolBeforeRecentChanges",
      "outputs": [
        {
          "internalType": "uint256",
          "name": "",
          "type": "uint256"
        }
      ],
      "stateMutability": "view",
      "type": "function",
      "constant": true
    },
    {
      "inputs": [
        {
          "internalType": "address[]",
          "name": "_holders",
          "type": "address[]"
        }
      ],
      "name": "claimFeePoolShare",
      "outputs": [],
      "stateMutability": "nonpayable",
      "type": "function"
    },
    {
      "inputs": [
        {
          "internalType": "uint256[]",
          "name": "_indexes",
          "type": "uint256[]"
        }
      ],
      "name": "applyHandleUpdates",
      "outputs": [],
      "stateMutability": "nonpayable",
      "type": "function"
    },
    {
      "inputs": [],
      "name": "applyVotedFeeRate",
      "outputs": [],
      "stateMutability": "nonpayable",
      "type": "function"
    },
    {
      "inputs": [
        {
          "internalType": "uint256",
          "name": "_rate",
          "type": "uint256"
        }
      ],
      "name": "submitFeeRateVote",
      "outputs": [],
      "stateMutability": "nonpayable",
      "type": "function"
    },
    {
      "inputs": [],
      "name": "removeFeeRateVote",
      "outputs": [],
      "stateMutability": "nonpayable",
      "type": "function"
    },
    {
      "inputs": [
        {
          "internalType": "address",
          "name": "_candidate",
          "type": "address"
        }
      ],
      "name": "submitAdminVote",
      "outputs": [],
      "stateMutability": "nonpayable",
      "type": "function"
    },
    {
      "inputs": [
        {
          "internalType": "address[]",
          "name": "_holders",
          "type": "address[]"
        }
      ],
      "name": "vestAdminVotes",
      "outputs": [],
      "stateMutability": "nonpayable",
      "type": "function"
    },
    {
      "inputs": [
        {
          "internalType": "address",
          "name": "_candidate",
          "type": "address"
        }
      ],
      "name": "proclaimCycleAdminWinner",
      "outputs": [],
      "stateMutability": "nonpayable",
      "type": "function"
    },
    {
      "inputs": [],
      "name": "removeAdminVote",
      "outputs": [],
      "stateMutability": "nonpayable",
      "type": "function"
    },
    {
      "inputs": [
        {
          "internalType": "address",
          "name": "_admin",
          "type": "address"
        }
      ],
      "name": "setAdminAddress",
      "outputs": [],
      "stateMutability": "nonpayable",
      "type": "function"
    },
    {
      "inputs": [
        {
          "internalType": "uint256[]",
          "name": "mainSet",
          "type": "uint256[]"
        },
        {
          "internalType": "uint256[]",
          "name": "subset",
          "type": "uint256[]"
        }
      ],
      "name": "isSubset",
      "outputs": [
        {
          "internalType": "bool",
          "name": "",
          "type": "bool"
        }
      ],
      "stateMutability": "pure",
      "type": "function",
      "constant": true
    }
  ],
  "bytecode": "0x60a0604052678ac7230489e80000600c55600c54600d55600c54600e556000600f5560006010553480156200003357600080fd5b506040516200612d3803806200612d83398101604081905262000056916200017c565b6a115eec47f6cf7e350000006040518060400160405280600a81526020016920b9b0b6b4aa37b5b2b760b11b815250604051806040016040528060058152602001644153414d4960d81b8152508160039081620000b4919062000259565b506004620000c3828262000259565b505050600081116200011b5760405162461bcd60e51b815260206004820152601560248201527f45524332304361707065643a2063617020697320300000000000000000000000604482015260640160405180910390fd5b6080526001600555601b80546001600160a01b039384166001600160a01b031991821617909155601f8054821633179055601e805492909316911617905562000325565b80516001600160a01b03811681146200017757600080fd5b919050565b600080604083850312156200019057600080fd5b6200019b836200015f565b9150620001ab602084016200015f565b90509250929050565b634e487b7160e01b600052604160045260246000fd5b600181811c90821680620001df57607f821691505b6020821081036200020057634e487b7160e01b600052602260045260246000fd5b50919050565b601f8211156200025457600081815260208120601f850160051c810160208610156200022f5750805b601f850160051c820191505b8181101562000250578281556001016200023b565b5050505b505050565b81516001600160401b03811115620002755762000275620001b4565b6200028d81620002868454620001ca565b8462000206565b602080601f831160018114620002c55760008415620002ac5750858301515b600019600386901b1c1916600185901b17855562000250565b600085815260208120601f198616915b82811015620002f657888601518255948401946001909101908401620002d5565b5085821015620003155787850151600019600388901b60f8161c191681555b5050505050600190811b01905550565b608051615dde6200034f600039600081816106120152818161256001526145980152615dde6000f3fe608060405234801561001057600080fd5b50600436106104495760003560e01c806370a0823111610241578063ae2e933b1161013b578063ec8b436c116100c3578063f851a44011610087578063f851a44014610ac6578063fa7fb4d814610ad9578063fdb265b014610b09578063fee0117714610b34578063ff3f188614610b4957600080fd5b8063ec8b436c146109c5578063f2a40db814610a31578063f3401bc314610a98578063f398c24114610aab578063f7d9757714610ab357600080fd5b8063cdada3b61161010a578063cdada3b614610979578063d8c44f501461098e578063dbc5bdc414610996578063dd62ed3e146109a9578063e4c1be2e146109bc57600080fd5b8063ae2e933b14610940578063bd5ff42314610949578063be26ed7f1461095c578063c3d03cd41461096457600080fd5b80639314b214116101c95780639bd40aee1161018d5780639bd40aee146108df5780639dfceaaa146108f2578063a457c2d714610905578063a6b0363314610918578063a9059cbb1461092d57600080fd5b80639314b2141461089f57806395d89b41146108a857806396cad0db146108b0578063978bbdb9146108c35780639938e929146108cc57600080fd5b806381d036f51161021057806381d036f514610836578063894d71e11461085d5780638b69633d146108705780638bec13cf1461088357806390537d1f1461088c57600080fd5b806370a08231146107b157806374f1ea16146107da57806379dec48b146108085780637d98e20f1461081057600080fd5b8063395093511161035257806358cea7d2116102da5780636782eb0d1161029e5780636782eb0d1461074a57806368841a461461075d5780636b6a4ad0146107665780636bd1c230146107895780636f1c7617146107a957600080fd5b806358cea7d2146106e65780635d03e487146106f95780635e6134231461070c5780635fe8e7cc146107155780636717d7a81461072a57600080fd5b8063419a7c5d11610321578063419a7c5d146106825780634259d8a21461069757806346c33dd5146106a05780634ba593c6146106b35780634bd38e26146106c657600080fd5b806339509351146106365780633ca75e56146106495780633ec62c0b1461065c578063402c51331461066f57600080fd5b806318d9adab116103d55780632a11ced0116103a45780632a11ced0146105c65780632c1e816d146105d9578063313ce567146105ee57806333c24bd3146105fd578063355274ea1461061057600080fd5b806318d9adab1461056d5780631b06cfbc1461058057806320841544146105ab57806323b872dd146105b357600080fd5b80630dff55ed1161041c5780630dff55ed146104ed578063139fd1c214610514578063141961bc146105345780631677aa3d1461055c57806318160ddd1461056557600080fd5b806306fdde031461044e57806307d334551461046c578063080b064814610483578063095ea7b3146104ca575b600080fd5b610456610b51565b60405161046391906148b2565b60405180910390f35b610475600c5481565b604051908152602001610463565b6104b56104913660046148e1565b60226020908152600092835260408084209091529082529020805460019091015482565b60408051928352602083019190915201610463565b6104dd6104d836600461490d565b610be3565b6040519015158152602001610463565b6104b56104fb366004614937565b6023602052600090815260409020805460019091015482565b610475610522366004614937565b60246020526000908152604090205481565b610547610542366004614937565b610bfd565b60405161046399989796959493929190614988565b61047560205481565b600254610475565b61045661057b366004614937565b610cec565b61059361058e366004614937565b610d98565b6040516001600160a01b039091168152602001610463565b610475610db8565b6104dd6105c13660046149e6565b610dfe565b6105936105d4366004614937565b610e22565b6105ec6105e7366004614a22565b610e4c565b005b60405160128152602001610463565b61047561060b366004614937565b610e85565b7f0000000000000000000000000000000000000000000000000000000000000000610475565b6104dd61064436600461490d565b610ea6565b6105ec610657366004614a88565b610ec8565b6105ec61066a366004614a88565b611133565b6105ec61067d366004614b0d565b61127a565b61068a611487565b6040516104639190614b42565b6213c680610475565b6105ec6106ae366004614a88565b6114cc565b6105ec6106c1366004614b0d565b61161f565b6104756106d4366004614a22565b60146020526000908152604090205481565b6105ec6106f4366004614a88565b611715565b6105ec610707366004614a22565b61187f565b610475600e5481565b61071d611a29565b6040516104639190614b7c565b610475610738366004614a22565b60086020526000908152604090205481565b610475610758366004614a22565b611a89565b61047560105481565b6104dd610774366004614a22565b601d6020526000908152604090205460ff1681565b610475610797366004614a22565b60256020526000908152604090205481565b6105ec611aed565b6104756107bf366004614a22565b6001600160a01b031660009081526020819052604090205490565b6107ed6107e8366004614a22565b611b12565b60408051825181526020928301519281019290925201610463565b610475611b73565b61082361081e366004614937565b611b90565b6040516104639796959493929190614bc9565b6104b5610844366004614a22565b6011602052600090815260409020805460019091015482565b6105ec61086b366004614a88565b611c6a565b6104dd61087e366004614cfb565b611d91565b61047560165481565b6105ec61089a366004614a88565b611e2d565b610475600f5481565b610456611fbb565b601f54610593906001600160a01b031681565b610475600d5481565b6105ec6108da366004614b0d565b611fca565b6105ec6108ed366004614a88565b61288f565b6105ec610900366004614937565b612b23565b6104dd61091336600461490d565b612c36565b610920612cb1565b6040516104639190614e3b565b6104dd61093b36600461490d565b612e85565b61047560215481565b6105ec610957366004614a88565b612e93565b610475613123565b61096c613132565b6040516104639190614e9d565b610981613481565b6040516104639190614ff0565b6105ec6134ed565b6105ec6109a4366004614a88565b6134f8565b6104756109b7366004615048565b6135e8565b61047560155481565b610a076109d3366004614a22565b601260205260009081526040902080546001820154600283015460039093015491926001600160a01b039091169160ff1684565b604080519485526001600160a01b0390931660208501529183015215156060820152608001610463565b610a70610a3f366004614937565b600760205260009081526040902080546001820154600283015460039093015491926001600160a01b039091169184565b604080519485526001600160a01b039093166020850152918301526060820152608001610463565b6105ec610aa6366004614a22565b613613565b6105ec61377b565b6105ec610ac1366004615072565b613784565b601e54610593906001600160a01b031681565b610aec610ae7366004614937565b613812565b604080519283526001600160a01b03909116602083015201610463565b610b1c610b17366004614937565b613849565b6040516104639c9b9a99989796959493929190615094565b610b3c613a5e565b6040516104639190615126565b602054610475565b606060038054610b609061517b565b80601f0160208091040260200160405190810160405280929190818152602001828054610b8c9061517b565b8015610bd95780601f10610bae57610100808354040283529160200191610bd9565b820191906000526020600020905b815481529060010190602001808311610bbc57829003601f168201915b5050505050905090565b600033610bf1818585613b2e565b60019150505b92915050565b600a8181548110610c0d57600080fd5b60009182526020909120600a9091020180546001820154600283015460038401546004850154600586018054959750939560ff909316949193909291610c529061517b565b80601f0160208091040260200160405190810160405280929190818152602001828054610c7e9061517b565b8015610ccb5780601f10610ca057610100808354040283529160200191610ccb565b820191906000526020600020905b815481529060010190602001808311610cae57829003601f168201915b50505050600683015460088401546009909401549293909290915060ff1689565b601a8181548110610cfc57600080fd5b906000526020600020016000915090508054610d179061517b565b80601f0160208091040260200160405190810160405280929190818152602001828054610d439061517b565b8015610d905780601f10610d6557610100808354040283529160200191610d90565b820191906000526020600020905b815481529060010190602001808311610d7357829003601f168201915b505050505081565b60178160038110610da857600080fd5b01546001600160a01b0316905081565b60008060236000610dc7613123565b8152602001908152602001600020905080600001548160010154602154610dee91906151cb565b610df891906151de565b91505090565b600033610e0c858285613c52565b610e17858585613cc6565b506001949350505050565b601c8181548110610e3257600080fd5b6000918252602090912001546001600160a01b0316905081565b601f546001600160a01b03163314610e6357600080fd5b601e80546001600160a01b0319166001600160a01b0392909216919091179055565b60068181548110610e9557600080fd5b600091825260209091200154905081565b600033610bf1818585610eb983836135e8565b610ec391906151cb565b613b2e565b610ed0613e75565b60005b81811015611124576000600a6001858585818110610ef357610ef36151f1565b90506020020135610f0491906151de565b81548110610f1457610f146151f1565b90600052602060002090600a020190506000816000015411610f655760405162461bcd60e51b8152602060048201526005602482015264072646320360dc1b60448201526064015b60405180910390fd5b6000816004015411610fa15760405162461bcd60e51b8152602060048201526005602482015264726463203160d81b6044820152606401610f5c565b42816008015410610fdc5760405162461bcd60e51b8152602060048201526005602482015264393231901960d91b6044820152606401610f5c565b600181015460009081526007602052604081206004830180549083905560098401549192909160ff1661101c5760018301546001600160a01b0316611029565b601f546001600160a01b03165b601b5460405163a9059cbb60e01b81526001600160a01b0380841660048301526024820186905292935091169063a9059cbb906044016020604051808303816000875af115801561107e573d6000803e3d6000fd5b505050506040513d601f19601f820116820180604052508101906110a29190615215565b6110d65760405162461bcd60e51b8152602060048201526005602482015264726463203360d81b6044820152606401610f5c565b7fe4aca3c0fc408b3a8ce278b40b298311b8dca09ac3c3d5d1068f014e01ac551b8460405161110591906152e4565b60405180910390a150505050808061111c90615391565b915050610ed3565b5061112f6001600555565b5050565b601e546001600160a01b03163314806111565750601f546001600160a01b031633145b61115f57600080fd5b60005b8181101561127557600060096001858585818110611182576111826151f1565b905060200281019061119491906153aa565b61119f9190356151de565b815481106111af576111af6151f1565b90600052602060002090600e020190508383838181106111d1576111d16151f1565b90506020028101906111e391906153aa565b60200135600b8201558383838181106111fe576111fe6151f1565b905060200281019061121091906153aa565b61121e9060408101906153ca565b61122c91600c840191614773565b5060088101805460ff19166001179055604051600080516020615d898339815191529061125a908390615413565b60405180910390a1508061126d81615391565b915050611162565b505050565b601e546001600160a01b031633148061129d5750601f546001600160a01b031633145b6112a657600080fd5b6112ae613e75565b60005b8181101561112457368383838181106112cc576112cc6151f1565b90506040020190506112e18160000135613ece565b8035600090815260076020526040902060018101546001600160a01b03161561130957600080fd5b81356008600061131f6040860160208701614a22565b6001600160a01b03166001600160a01b03168152602001908152602001600020819055508160200160208101906113569190614a22565b6001820180546001600160a01b0319166001600160a01b03929092169190911790556002810154156113a85760028101805460009091556113a66113a06040850160208601614a22565b82613f29565b505b60038101541561143b576003810180546000909155601b54600183015460405163a9059cbb60e01b81526001600160a01b0391821660048201526024810184905291169063a9059cbb906044016020604051808303816000875af1158015611414573d6000803e3d6000fd5b505050506040513d601f19601f820116820180604052508101906114389190615215565b50505b7fe1ab017037dfdbe8aeea88ca10733a62fe91b3791c7ab2f30b54a9e2a0b0d3198160405161146a919061551f565b60405180910390a15050808061147f90615391565b9150506112b1565b61148f6147be565b6040805160608101918290529060179060039082845b81546001600160a01b031681526001909101906020018083116114a5575050505050905090565b6114d4613e75565b3360009081526008602090815260408083205483526007909152902060018101546001600160a01b03166115335760405162461bcd60e51b8152600401610f5c9060208082526004908201526306d6320360e41b604082015260600190565b60005b82811015611613576000848483818110611552576115526151f1565b905060200281019061156491906155a7565b61156d906156e1565b905061160083604051806101400160405280600a80549050600161159191906151cb565b8152865460208201528451604090910190600d8111156115b3576115b3614950565b815260200184602001518152602001846020015181526020018460400151815260200184606001518152602001846080015181526020018460a00151815260200160001515815250613f63565b508061160b81615391565b915050611536565b505061112f6001600555565b601e546001600160a01b03163314806116425750601f546001600160a01b031633145b61164b57600080fd5b60005b818110156112755760006009600185858581811061166e5761166e6151f1565b9050604002016000013561168291906151de565b81548110611692576116926151f1565b600091825260208083206001600e909302018281015484526007909152604090922090810154919250906001600160a01b03161580156116d25750805415155b6116db57600080fd5b611700828686868181106116f1576116f16151f1565b9050604002016020013561418b565b5050808061170d90615391565b91505061164e565b601e546001600160a01b03163314806117385750601f546001600160a01b031633145b61174157600080fd5b611749613e75565b60005b81811015611124576000838383818110611768576117686151f1565b905060200281019061177a91906156ed565b61178390615703565b90506117928160000151613ece565b8051600090815260076020526040902060018101546001600160a01b0316156117ba57600080fd5b61186a81604051806101400160405280600a8054905060016117dc91906151cb565b815260200184600001548152602001856020015160000151600d81111561180557611805614950565b815260200185602001516020015181526020018560200151602001518152602001856020015160400151815260200185602001516060015181526020018560200151608001518152602001856020015160a00151815260200160011515815250613f63565b5050808061187790615391565b91505061174c565b6001600160a01b038116600090815260146020526040902054806118a257600080fd5b600060136118b16001846151de565b815481106118c1576118c16151f1565b9060005260206000209060020201905060026015546118e0919061576d565b8154116119175760405162461bcd60e51b8152602060048201526005602482015264070637720360dc1b6044820152606401610f5c565b6000601554116119515760405162461bcd60e51b8152602060048201526005602482015264706377203160d81b6044820152606401610f5c565b600061195b613123565b905080601654106119965760405162461bcd60e51b81526020600482015260056024820152643831bb901960d91b6044820152606401610f5c565b601681905560188054601980546001600160a01b038084166001600160a01b03199283161790925560178054808416948316851790955593169087169081179092551480156119f257506019546001600160a01b038581169116145b15611a2357601e80546001600160a01b0386166001600160a01b03199182168117909255601f805490911690911790555b50505050565b6060601c805480602002602001604051908101604052809291908181526020018280548015610bd9576020028201919060005260206000209081546001600160a01b031681526001909101906020018083116114a5575050505050905090565b60008060226000611a98613123565b8152602080820192909252604090810160009081206001600160a01b03871682528352818120805460018201549483905292909120549093509091611adc916151cb565b611ae691906151de565b9392505050565b6000611af7613123565b90506010548103611b0757600080fd5b600e54600d55601055565b604080518082019091526000808252602082015260226000611b32613123565b8152602080820192909252604090810160009081206001600160a01b0390951681529382529283902083518085019094528054845260010154908301525090565b60006213c680611b81613123565b611b8b91906151cb565b905090565b600b8181548110611ba057600080fd5b9060005260206000209060070201600091509050806000015490806001015490806002015490806003015490806004015490806005018054611be19061517b565b80601f0160208091040260200160405190810160405280929190818152602001828054611c0d9061517b565b8015611c5a5780601f10611c2f57610100808354040283529160200191611c5a565b820191906000526020600020905b815481529060010190602001808311611c3d57829003601f168201915b5050505050908060060154905087565b601e546001600160a01b0316331480611c8d5750601f546001600160a01b031633145b611c9657600080fd5b60005b8181101561127557611cd1838383818110611cb657611cb66151f1565b9050602002810190611cc8919061578f565b60200135613ece565b6009838383818110611ce557611ce56151f1565b9050602002810190611cf7919061578f565b8154600181018355600092835260209092209091600e0201611d1982826159f9565b50506009805460009190611d2f906001906151de565b81548110611d3f57611d3f6151f1565b60009182526020909120600954600e90920201908155604051909150600080516020615d8983398151915290611d76908390615413565b60405180910390a15080611d8981615391565b915050611c99565b6000805b8251811015611e23576000805b8551811015611dff57858181518110611dbd57611dbd6151f1565b6020026020010151858481518110611dd757611dd76151f1565b602002602001015103611ded5760019150611dff565b80611df781615391565b915050611da2565b5080611e1057600092505050610bf7565b5080611e1b81615391565b915050611d95565b5060019392505050565b6000611e37613123565b905060005b82811015611a235760006009858584818110611e5a57611e5a6151f1565b9050602002013581548110611e7157611e716151f1565b90600052602060002090600e020190508281600d015403611ebc5760405162461bcd60e51b8152602060048201526005602482015264061687520360dc1b6044820152606401610f5c565b600881015460ff16611ef85760405162461bcd60e51b8152602060048201526005602482015264061687520360dc1b6044820152606401610f5c565b60088101805460ff19169055600d810183905560098101805460009190611f1e9061517b565b90501115611f395760068101611f376009830182615b14565b505b600a81015415611f4e57600a81015460038201555b600481015415611f6357600b81015460048201555b600c81015415611f8357600c81018054611f819160058401916147dc565b505b600080516020615d8983398151915281604051611fa09190615413565b60405180910390a15080611fb381615391565b915050611e3c565b606060048054610b609061517b565b601e546001600160a01b0316331480611fed5750601f546001600160a01b031633145b611ff657600080fd5b611ffe613e75565b60005b8181101561112457600060096001858585818110612021576120216151f1565b9050604002016020013561203591906151de565b81548110612045576120456151f1565b90600052602060002090600e0201905060008160000154116120925760405162461bcd60e51b8152600401610f5c90602080825260049082015263616d633160e01b604082015260600190565b600180820154600090815260076020526040812091600a908787878181106120bc576120bc6151f1565b905060400201600001356120d091906151de565b815481106120e0576120e06151f1565b90600052602060002090600a02019050600081600001541161212d5760405162461bcd60e51b8152600401610f5c9060208082526004908201526330b6b19960e11b604082015260600190565b428160080154116121695760405162461bcd60e51b8152600401610f5c90602080825260049082015263616d633360e01b604082015260600190565b612217836005018054806020026020016040519081016040528092919081815260200182805480156121ba57602002820191906000526020600020905b8154815260200190600101908083116121a6575b50505050508260070180548060200260200160405190810160405280929190818152602001828054801561220d57602002820191906000526020600020905b8154815260200190600101908083116121f9575b5050505050611d91565b61224c5760405162461bcd60e51b8152600401610f5c90602080825260049082015263185b58cd60e21b604082015260600190565b82600301548160040154101561228d5760405162461bcd60e51b8152600401610f5c90602080825260049082015263616d633560e01b604082015260600190565b600283015460ff16600d8111156122a6576122a6614950565b600282015460ff16600d8111156122bf576122bf614950565b146122f55760405162461bcd60e51b8152600401610f5c9060208082526004908201526330b6b19b60e11b604082015260600190565b80600601548360040154846003015461230e919061576d565b11156123455760405162461bcd60e51b8152600401610f5c90602080825260049082015263616d633760e01b604082015260600190565b600181015460009081526007602052604081206003850154600d549192909168056bc75e2d631000009061237990846157e4565b612383919061576d565b9050600061239182846151de565b905060006040518060e00160405280600b8054905060016123b291906151cb565b8152895460208083019190915288546040808401919091526060808401899052608080850189905282518085018452600080825260a0808801929092524260c090970196909652600b80546001810182559652865160079096027f0175b7a638427703f0dbe7bb9bbf987a2551717b34e79f33b5b1008d1fa01db98101968755948701517f0175b7a638427703f0dbe7bb9bbf987a2551717b34e79f33b5b1008d1fa01dba860155928601517f0175b7a638427703f0dbe7bb9bbf987a2551717b34e79f33b5b1008d1fa01dbb850155908501517f0175b7a638427703f0dbe7bb9bbf987a2551717b34e79f33b5b1008d1fa01dbc8401558401517f0175b7a638427703f0dbe7bb9bbf987a2551717b34e79f33b5b1008d1fa01dbd83015583015192935083927f0175b7a638427703f0dbe7bb9bbf987a2551717b34e79f33b5b1008d1fa01dbe909101906125089082615bea565b5060c091909101516006918201558151908801805460018101825560009182526020822001919091556004870180548692906125459084906151de565b9091555061255690508360016141cc565b60006020546125827f000000000000000000000000000000000000000000000000000000000000000090565b61258c91906151de565b9050600081851161259d578461259f565b815b905080602060008282546125b391906151cb565b909155506000905068056bc75e2d631000006125d083600a6157e4565b6125e290670de0b6b3a76400006157e4565b6125ec919061576d565b9050600068056bc75e2d6310000061260584600f6157e4565b61261790670de0b6b3a76400006157e4565b612621919061576d565b905060008161263084866151de565b61263a91906151de565b9050801561265857601f54612658906001600160a01b031682613f29565b60018c01546001600160a01b03166126e057811561268a57818c600201600082825461268491906151cb565b90915550505b868c600301600082825461269e91906151cb565b90915550506040517fe1ab017037dfdbe8aeea88ca10733a62fe91b3791c7ab2f30b54a9e2a0b0d319906126d3908e9061551f565b60405180910390a161277b565b81156126fe5760018c01546126fe906001600160a01b031683613f29565b601b5460018d015460405163a9059cbb60e01b81526001600160a01b039182166004820152602481018a905291169063a9059cbb906044016020604051808303816000875af1158015612755573d6000803e3d6000fd5b505050506040513d601f19601f820116820180604052508101906127799190615215565b505b82156128015760018a01546001600160a01b03166127e957828a60020160008282546127a791906151cb565b90915550506040517fe1ab017037dfdbe8aeea88ca10733a62fe91b3791c7ab2f30b54a9e2a0b0d319906127dc908c9061551f565b60405180910390a1612801565b60018a0154612801906001600160a01b031684613f29565b7f163f215ebbfd927d87234e39d082b1b03b551dadbca611aab6568ee11a75e8d7866040516128309190615ca1565b60405180910390a17fe4aca3c0fc408b3a8ce278b40b298311b8dca09ac3c3d5d1068f014e01ac551b8b60405161286791906152e4565b60405180910390a150505050505050505050505050808061288790615391565b915050612001565b6000612899613123565b905060005b82811015611a23576000601260008686858181106128be576128be6151f1565b90506020020160208101906128d39190614a22565b6001600160a01b03166001600160a01b03168152602001908152602001600020905060008160020154116129315760405162461bcd60e51b8152602060048201526005602482015264076617620360dc1b6044820152606401610f5c565b8281600201541061296c5760405162461bcd60e51b8152602060048201526005602482015264766176203160d81b6044820152606401610f5c565b600381015460ff16156129a95760405162461bcd60e51b81526020600482015260056024820152643b30bb101960d91b6044820152606401610f5c565b60038101805460ff191660011790558054601580546000906129cc9084906151cb565b909155505060018101546001600160a01b03166000908152601460205260409020548015612a475760006013612a036001846151de565b81548110612a1357612a136151f1565b906000526020600020906002020190508260000154816000016000828254612a3b91906151cb565b90915550612ad7915050565b6013805460018181018355845460029092027f66de8ffda797e3de9c05e8fc57b3bf0ec28a930d40b0d285d93c06501cf6a090810192909255840180547f66de8ffda797e3de9c05e8fc57b3bf0ec28a930d40b0d285d93c06501cf6a09190920180546001600160a01b0319166001600160a01b0393841617905591549154166000908152601460205260409020555b7fe08472d1275fefbb15ff0aea278bb1f42c491be3fa4358160826ba7e420ae61382604051612b069190615d06565b60405180910390a150508080612b1b90615391565b91505061289e565b600081118015612b3b575068056bc75e2d6310000081105b612b705760405162461bcd60e51b815260206004820152600660248201526507366727620360d41b6044820152606401610f5c565b336000908152601160205260409020805415612b8f57612b8f3361425d565b3360009081526020819052604090205480612bd55760405162461bcd60e51b815260206004820152600660248201526573667276203160d01b6044820152606401610f5c565b80600f54612be391906151cb565b612bed84836157e4565b600f54600e54612bfd91906157e4565b612c0791906151cb565b612c11919061576d565b600e8190555080600f6000828254612c2991906151cb565b9091555050815560010155565b60003381612c4482866135e8565b905083811015612ca45760405162461bcd60e51b815260206004820152602560248201527f45524332303a2064656372656173656420616c6c6f77616e63652062656c6f77604482015264207a65726f60d81b6064820152608401610f5c565b610e178286868403613b2e565b6060600a805480602002602001604051908101604052809291908181526020016000905b82821015612e7c57838290600052602060002090600a02016040518061014001604052908160008201548152602001600182015481526020016002820160009054906101000a900460ff16600d811115612d3157612d31614950565b600d811115612d4257612d42614950565b81526020016003820154815260200160048201548152602001600582018054612d6a9061517b565b80601f0160208091040260200160405190810160405280929190818152602001828054612d969061517b565b8015612de35780601f10612db857610100808354040283529160200191612de3565b820191906000526020600020905b815481529060010190602001808311612dc657829003601f168201915b505050505081526020016006820154815260200160078201805480602002602001604051908101604052809291908181526020018280548015612e4557602002820191906000526020600020905b815481526020019060010190808311612e31575b5050509183525050600882015460208083019190915260099092015460ff1615156040909101529082526001929092019101612cd5565b50505050905090565b600033610bf1818585613cc6565b612e9b613e75565b6000612ea5613123565b60008181526024602052604081205491925090612ec160025490565b612ecb91906151de565b90506000612ed7610db8565b905060008211612f115760405162461bcd60e51b8152602060048201526005602482015264063667073360dc1b6044820152606401610f5c565b60008111612f495760405162461bcd60e51b8152602060048201526005602482015264636670733160d81b6044820152606401610f5c565b60005b84811015613115576000868683818110612f6857612f686151f1565b9050602002016020810190612f7d9190614a22565b6001600160a01b0381166000908152602560205260409020549091508511612fcf5760405162461bcd60e51b815260206004820152600560248201526431b338399960d91b6044820152606401610f5c565b6000612fda82611a89565b9050600081116130145760405162461bcd60e51b8152602060048201526005602482015264636670733360d81b6044820152606401610f5c565b60008561302186846157e4565b61302b919061576d565b6001600160a01b03841660009081526025602052604081208990559091506130549082906141cc565b601b5460405163a9059cbb60e01b81526001600160a01b038581166004830152602482018490529091169063a9059cbb906044016020604051808303816000875af11580156130a7573d6000803e3d6000fd5b505050506040513d601f19601f820116820180604052508101906130cb9190615215565b6130ff5760405162461bcd60e51b815260206004820152600560248201526418d99c1ccd60da1b6044820152606401610f5c565b505050808061310d90615391565b915050612f4c565b5050505061112f6001600555565b6000611b8b6213c6804261576d565b60606009805480602002602001604051908101604052809291908181526020016000905b82821015612e7c57838290600052602060002090600e0201604051806101c001604052908160008201548152602001600182015481526020016002820160009054906101000a900460ff16600d8111156131b2576131b2614950565b600d8111156131c3576131c3614950565b815260200160038201548152602001600482015481526020016005820180548060200260200160405190810160405280929190818152602001828054801561322a57602002820191906000526020600020905b815481526020019060010190808311613216575b505050505081526020016006820180546132439061517b565b80601f016020809104026020016040519081016040528092919081815260200182805461326f9061517b565b80156132bc5780601f10613291576101008083540402835291602001916132bc565b820191906000526020600020905b81548152906001019060200180831161329f57829003601f168201915b505050505081526020016007820180546132d59061517b565b80601f01602080910402602001604051908101604052809291908181526020018280546133019061517b565b801561334e5780601f106133235761010080835404028352916020019161334e565b820191906000526020600020905b81548152906001019060200180831161333157829003601f168201915b5050509183525050600882015460ff161515602082015260098201805460409092019161337a9061517b565b80601f01602080910402602001604051908101604052809291908181526020018280546133a69061517b565b80156133f35780601f106133c8576101008083540402835291602001916133f3565b820191906000526020600020905b8154815290600101906020018083116133d657829003601f168201915b50505050508152602001600a8201548152602001600b8201548152602001600c820180548060200260200160405190810160405280929190818152602001828054801561345f57602002820191906000526020600020905b81548152602001906001019080831161344b575b50505050508152602001600d8201548152505081526020019060010190613156565b60606013805480602002602001604051908101604052809291908181526020016000905b82821015612e7c5760008481526020908190206040805180820190915260028502909101805482526001908101546001600160a01b03168284015290835290920191016134a5565b6134f63361425d565b565b601e546001600160a01b031633148061351b5750601f546001600160a01b031633145b61352457600080fd5b60005b8181101561127557601a838383818110613543576135436151f1565b90506020028101906135559190615898565b825460018101845560009384526020909320909201916135759183615933565b50601a547f08581e03117d96ad4b36d978f525bfe879526d97ffb59cecf67eb24a801e03cf908484848181106135ad576135ad6151f1565b90506020028101906135bf9190615898565b6040516135ce93929190615d3f565b60405180910390a1806135e081615391565b915050613527565b6001600160a01b03918216600090815260016020908152604080832093909416825291909152205490565b6001600160a01b0381166136515760405162461bcd60e51b8152602060048201526005602482015264073617620360dc1b6044820152606401610f5c565b33600090815260208190526040902054806136965760405162461bcd60e51b8152602060048201526005602482015264736176203160d81b6044820152606401610f5c565b3360009081526012602052604090208054156136b5576136b533614357565b6040518060800160405280838152602001846001600160a01b031681526020016136dd613123565b8152600060209182018190523381526012825260409081902083518155918301516001830180546001600160a01b0319166001600160a01b0390921691909117905582810151600283015560609092015160038201805460ff191691151591909117905590517fe08472d1275fefbb15ff0aea278bb1f42c491be3fa4358160826ba7e420ae6139161376e91615d06565b60405180910390a1505050565b6134f633614357565b3360009081526008602090815260408083205483526007909152902060018101546001600160a01b03166137b757600080fd5b600060096137c66001866151de565b815481106137d6576137d66151f1565b90600052602060002090600e0201905060008160000154116137f757600080fd5b815460018201541461380857600080fd5b611a23818461418b565b6013818154811061382257600080fd5b6000918252602090912060029091020180546001909101549091506001600160a01b031682565b6009818154811061385957600080fd5b60009182526020909120600e9091020180546001820154600283015460038401546004850154600686018054959750939560ff90931694919390929161389e9061517b565b80601f01602080910402602001604051908101604052809291908181526020018280546138ca9061517b565b80156139175780601f106138ec57610100808354040283529160200191613917565b820191906000526020600020905b8154815290600101906020018083116138fa57829003601f168201915b50505050509080600701805461392c9061517b565b80601f01602080910402602001604051908101604052809291908181526020018280546139589061517b565b80156139a55780601f1061397a576101008083540402835291602001916139a5565b820191906000526020600020905b81548152906001019060200180831161398857829003601f168201915b5050506008840154600985018054949560ff9092169491935091506139c99061517b565b80601f01602080910402602001604051908101604052809291908181526020018280546139f59061517b565b8015613a425780601f10613a1757610100808354040283529160200191613a42565b820191906000526020600020905b815481529060010190602001808311613a2557829003601f168201915b50505050509080600a01549080600b01549080600d015490508c565b6060601a805480602002602001604051908101604052809291908181526020016000905b82821015612e7c578382906000526020600020018054613aa19061517b565b80601f0160208091040260200160405190810160405280929190818152602001828054613acd9061517b565b8015613b1a5780601f10613aef57610100808354040283529160200191613b1a565b820191906000526020600020905b815481529060010190602001808311613afd57829003601f168201915b505050505081526020019060010190613a82565b6001600160a01b038316613b905760405162461bcd60e51b8152602060048201526024808201527f45524332303a20617070726f76652066726f6d20746865207a65726f206164646044820152637265737360e01b6064820152608401610f5c565b6001600160a01b038216613bf15760405162461bcd60e51b815260206004820152602260248201527f45524332303a20617070726f766520746f20746865207a65726f206164647265604482015261737360f01b6064820152608401610f5c565b6001600160a01b0383811660008181526001602090815260408083209487168084529482529182902085905590518481527f8c5be1e5ebec7d5bd14f71427d1e84f3dd0314c0f7b2291e5b200ac8c7c3b925910160405180910390a3505050565b6000613c5e84846135e8565b90506000198114611a235781811015613cb95760405162461bcd60e51b815260206004820152601d60248201527f45524332303a20696e73756666696369656e7420616c6c6f77616e63650000006044820152606401610f5c565b611a238484848403613b2e565b6001600160a01b038316613d2a5760405162461bcd60e51b815260206004820152602560248201527f45524332303a207472616e736665722066726f6d20746865207a65726f206164604482015264647265737360d81b6064820152608401610f5c565b6001600160a01b038216613d8c5760405162461bcd60e51b815260206004820152602360248201527f45524332303a207472616e7366657220746f20746865207a65726f206164647260448201526265737360e81b6064820152608401610f5c565b613d9783838361447b565b6001600160a01b03831660009081526020819052604090205481811015613e0f5760405162461bcd60e51b815260206004820152602660248201527f45524332303a207472616e7366657220616d6f756e7420657863656564732062604482015265616c616e636560d01b6064820152608401610f5c565b6001600160a01b03848116600081815260208181526040808320878703905593871680835291849020805487019055925185815290927fddf252ad1be2c89b69c2b068fc378daa952ba7f163c4a11628f55a4df523b3ef910160405180910390a3611a23565b600260055403613ec75760405162461bcd60e51b815260206004820152601f60248201527f5265656e7472616e637947756172643a207265656e7472616e742063616c6c006044820152606401610f5c565b6002600555565b6000818152600760205260408120549003613f265760008181526007602052604081208290556006805460018101825591527ff652222313e28459528d920b65115c16c04f3efc82aaedc97be59f3f377c0d3f018190555b50565b8060246000613f36613123565b81526020019081526020016000206000828254613f5391906151cb565b9091555061112f90508282614596565b6000816060015111613f7457600080fd5b60008160a001515111613f8657600080fd5b601b5460608201516040516323b872dd60e01b815233600482015230602482015260448101919091526001600160a01b03909116906323b872dd906064016020604051808303816000875af1158015613fe3573d6000803e3d6000fd5b505050506040513d601f19601f820116820180604052508101906140079190615215565b61401057600080fd5b600a80546001818101835560008390528351919092027fc65a7bb8d6351c1cf70c95a316cc6a92839c986682d98bc35f958f4883f9d2a8810191825560208401517fc65a7bb8d6351c1cf70c95a316cc6a92839c986682d98bc35f958f4883f9d2a982015560408401517fc65a7bb8d6351c1cf70c95a316cc6a92839c986682d98bc35f958f4883f9d2aa9091018054859460ff199091169083600d8111156140bb576140bb614950565b0217905550606082015160038201556080820151600482015560a082015160058201906140e89082615bea565b5060c0820151600682015560e0820151805161410e91600784019160209091019061481c565b506101008201516008820155610120909101516009909101805460ff191691151591909117905580516005830180546001810182556000918252602090912001556040517fe4aca3c0fc408b3a8ce278b40b298311b8dca09ac3c3d5d1068f014e01ac551b9061417f908390615d75565b60405180910390a15050565b6000811161419857600080fd5b600a820181905560088201805460ff19166001179055604051600080516020615d898339815191529061417f908490615413565b6000602360006141da613123565b81526020019081526020016000209050811561422657826021600082825461420291906151cb565b909155505080548390829060009061421b9084906151cb565b909155506112759050565b826021600082825461423891906151de565b925050819055508281600101600082825461425391906151cb565b9091555050505050565b6001600160a01b038116600090815260116020526040902080546142ac5760405162461bcd60e51b815260206004820152600660248201526507266727620360d41b6044820152606401610f5c565b8054600f546000916142bd916151de565b90506000600f54600e546142d191906157e4565b90506000836001015484600001546142e991906157e4565b905060008183116142fb576000614305565b61430582846151de565b9050831561432457614317848261576d565b600e55600f849055614330565b600c54600e556000600f555b5050506001600160a01b039092166000908152601160205260408120818155600101555050565b6001600160a01b038116600090815260126020526040902080546143a65760405162461bcd60e51b815260206004820152600660248201526507261766820360d41b6044820152606401610f5c565b600381015460ff1615614439578054601580546000906143c79084906151de565b909155505060018101546001600160a01b0316600090815260146020526040902054806143f357600080fd5b815460136144026001846151de565b81548110614412576144126151f1565b9060005260206000209060020201600001600082825461443291906151de565b9091555050505b506001600160a01b031660009081526012602052604081208181556001810180546001600160a01b03191690556002810191909155600301805460ff19169055565b6001600160a01b038316156144e45761449683826000614623565b6001600160a01b038316600090815260116020526040902054156144bd576144bd8361425d565b6001600160a01b038316600090815260126020526040902054156144e4576144e483614357565b6001600160a01b03821615611275576144ff82826001614623565b6001600160a01b0382166000908152601d602052604090205460ff161580156145285750600081115b1561127557601c805460018181019092557f0e4562a10381dec21b205ed72637e6b1b523bdd0e4d4d50af5cd23dd4500a2110180546001600160a01b0385166001600160a01b031990911681179091556000908152601d60205260409020805460ff19169091179055505050565b7f0000000000000000000000000000000000000000000000000000000000000000816145c160025490565b6145cb91906151cb565b11156146195760405162461bcd60e51b815260206004820152601960248201527f45524332304361707065643a20636170206578636565646564000000000000006044820152606401610f5c565b61112f82826146a8565b600060226000614631613123565b81526020019081526020016000206000856001600160a01b03166001600160a01b0316815260200190815260200160002090508115614689578281600001600082825461467e91906151cb565b90915550611a239050565b8281600101600082825461469d91906151cb565b909155505050505050565b6001600160a01b0382166146fe5760405162461bcd60e51b815260206004820152601f60248201527f45524332303a206d696e7420746f20746865207a65726f2061646472657373006044820152606401610f5c565b61470a6000838361447b565b806002600082825461471c91906151cb565b90915550506001600160a01b038216600081815260208181526040808320805486019055518481527fddf252ad1be2c89b69c2b068fc378daa952ba7f163c4a11628f55a4df523b3ef910160405180910390a35050565b8280548282559060005260206000209081019282156147ae579160200282015b828111156147ae578235825591602001919060010190614793565b506147ba929150614857565b5090565b60405180606001604052806003906020820280368337509192915050565b8280548282559060005260206000209081019282156147ae5760005260206000209182015b828111156147ae578254825591600101919060010190614801565b8280548282559060005260206000209081019282156147ae579160200282015b828111156147ae57825182559160200191906001019061483c565b5b808211156147ba5760008155600101614858565b6000815180845260005b8181101561489257602081850181015186830182015201614876565b506000602082860101526020601f19601f83011685010191505092915050565b602081526000611ae6602083018461486c565b80356001600160a01b03811681146148dc57600080fd5b919050565b600080604083850312156148f457600080fd5b82359150614904602084016148c5565b90509250929050565b6000806040838503121561492057600080fd5b614929836148c5565b946020939093013593505050565b60006020828403121561494957600080fd5b5035919050565b634e487b7160e01b600052602160045260246000fd5b600e811061498457634e487b7160e01b600052602160045260246000fd5b9052565b60006101208b83528a60208401526149a3604084018b614966565b8860608401528760808401528060a08401526149c18184018861486c565b60c0840196909652505060e08101929092521515610100909101529695505050505050565b6000806000606084860312156149fb57600080fd5b614a04846148c5565b9250614a12602085016148c5565b9150604084013590509250925092565b600060208284031215614a3457600080fd5b611ae6826148c5565b60008083601f840112614a4f57600080fd5b5081356001600160401b03811115614a6657600080fd5b6020830191508360208260051b8501011115614a8157600080fd5b9250929050565b60008060208385031215614a9b57600080fd5b82356001600160401b03811115614ab157600080fd5b614abd85828601614a3d565b90969095509350505050565b60008083601f840112614adb57600080fd5b5081356001600160401b03811115614af257600080fd5b6020830191508360208260061b8501011115614a8157600080fd5b60008060208385031215614b2057600080fd5b82356001600160401b03811115614b3657600080fd5b614abd85828601614ac9565b60608101818360005b6003811015614b735781516001600160a01b0316835260209283019290910190600101614b4b565b50505092915050565b6020808252825182820181905260009190848201906040850190845b81811015614bbd5783516001600160a01b031683529284019291840191600101614b98565b50909695505050505050565b87815286602082015285604082015284606082015283608082015260e060a08201526000614bfa60e083018561486c565b90508260c083015298975050505050505050565b634e487b7160e01b600052604160045260246000fd5b60405160c081016001600160401b0381118282101715614c4657614c46614c0e565b60405290565b604051601f8201601f191681016001600160401b0381118282101715614c7457614c74614c0e565b604052919050565b600082601f830112614c8d57600080fd5b813560206001600160401b03821115614ca857614ca8614c0e565b8160051b614cb7828201614c4c565b9283528481018201928281019087851115614cd157600080fd5b83870192505b84831015614cf057823582529183019190830190614cd7565b979650505050505050565b60008060408385031215614d0e57600080fd5b82356001600160401b0380821115614d2557600080fd5b614d3186838701614c7c565b93506020850135915080821115614d4757600080fd5b50614d5485828601614c7c565b9150509250929050565b600081518084526020808501945080840160005b83811015614d8e57815187529582019590820190600101614d72565b509495945050505050565b600061014082518452602083015160208501526040830151614dbe6040860182614966565b50606083015160608501526080830151608085015260a08301518160a0860152614dea8286018261486c565b91505060c083015160c085015260e083015184820360e0860152614e0e8282614d5e565b91505061010080840151818601525061012080840151614e318287018215159052565b5090949350505050565b6000602080830181845280855180835260408601915060408160051b870101925083870160005b82811015614e9057603f19888603018452614e7e858351614d99565b94509285019290850190600101614e62565b5092979650505050505050565b60006020808301818452808551808352604092508286019150828160051b87010184880160005b83811015614fe257603f1989840301855281516101c081518552888201518986015287820151614ef689870182614966565b50606082810151908601526080808301519086015260a080830151818701839052614f2383880182614d5e565b9250505060c08083015186830382880152614f3e838261486c565b9250505060e08083015186830382880152614f59838261486c565b9250505061010080830151614f718288018215159052565b50506101208083015186830382880152614f8b838261486c565b925050506101408083015181870152506101608083015181870152506101808083015186830382880152614fbf8382614d5e565b6101a0948501519790940196909652505094870194925090860190600101614ec4565b509098975050505050505050565b602080825282518282018190526000919060409081850190868401855b8281101561503b578151805185528601516001600160a01b031686850152928401929085019060010161500d565b5091979650505050505050565b6000806040838503121561505b57600080fd5b615064836148c5565b9150614904602084016148c5565b6000806040838503121561508557600080fd5b50508035926020909101359150565b60006101808e83528d60208401526150af604084018e614966565b8b60608401528a60808401528060a08401526150cd8184018b61486c565b905082810360c08401526150e1818a61486c565b905087151560e08401528281036101008401526150fe818861486c565b6101208401969096525050610140810192909252610160909101529998505050505050505050565b6000602080830181845280855180835260408601915060408160051b870101925083870160005b82811015614e9057603f1988860301845261516985835161486c565b9450928501929085019060010161514d565b600181811c9082168061518f57607f821691505b6020821081036151af57634e487b7160e01b600052602260045260246000fd5b50919050565b634e487b7160e01b600052601160045260246000fd5b80820180821115610bf757610bf76151b5565b81810381811115610bf757610bf76151b5565b634e487b7160e01b600052603260045260246000fd5b8015158114613f2657600080fd5b60006020828403121561522757600080fd5b8151611ae681615207565b6000815461523f8161517b565b80855260206001838116801561525c5760018114615276576152a4565b60ff1985168884015283151560051b8801830195506152a4565b866000528260002060005b8581101561529c5781548a8201860152908301908401615281565b890184019650505b505050505092915050565b6000815480845260208085019450836000528060002060005b83811015614d8e578154875295820195600191820191016152c8565b6020815281546020820152600182015460408201526000615309600284015460ff1690565b6153166060840182614966565b5060038301546080830152600483015460a08301526101408060c0840152615345610160840160058601615232565b600685015460e0850152838103601f190161010085015261536981600787016152af565b90506008850154610120850152615384600986015460ff1690565b1515919093015250919050565b6000600182016153a3576153a36151b5565b5060010190565b60008235605e198336030181126153c057600080fd5b9190910192915050565b6000808335601e198436030181126153e157600080fd5b8301803591506001600160401b038211156153fb57600080fd5b6020019150600581901b3603821315614a8157600080fd5b6020815281546020820152600182015460408201526000615438600284015460ff1690565b6154456060840182614966565b5060038301546080830152600483015460a08301526101c08060c08401526154746101e08401600586016152af565b601f19808583030160e086015261548e8260068801615232565b915080858303016101008601526154a88260078801615232565b91506154b8600887015460ff1690565b151561012086015284820381016101408601526154d88260098801615232565b9150600a860154610160860152600b86015461018086015280858303016101a08601525061550981600c87016152af565b9050600d85015482850152809250505092915050565b602080825282549082015260018201546001600160a01b03166040820152600282015460608201526003820154608082015260e060a0820152600061556b6101008301600485016152af565b601f19808483030160c085015261558582600587016152af565b9150808483030160e08501525061559f81600686016152af565b949350505050565b6000823560be198336030181126153c057600080fd5b600e8110613f2657600080fd5b80356148dc816155bd565b600082601f8301126155e657600080fd5b81356001600160401b038111156155ff576155ff614c0e565b615612601f8201601f1916602001614c4c565b81815284602083860101111561562757600080fd5b816020850160208301376000918101602001919091529392505050565b600060c0828403121561565657600080fd5b61565e614c24565b9050615669826155ca565b81526020820135602082015260408201356001600160401b038082111561568f57600080fd5b61569b858386016155d5565b60408401526060840135606084015260808401359150808211156156be57600080fd5b506156cb84828501614c7c565b60808301525060a082013560a082015292915050565b6000610bf73683615644565b60008235603e198336030181126153c057600080fd5b60006040823603121561571557600080fd5b604051604081016001600160401b03828210818311171561573857615738614c0e565b8160405284358352602085013591508082111561575457600080fd5b5061576136828601615644565b60208301525092915050565b60008261578a57634e487b7160e01b600052601260045260246000fd5b500490565b600082356101be198336030181126153c057600080fd5b60008135610bf7816155bd565b600e82106157d157634e487b7160e01b600052602160045260246000fd5b60ff1981541660ff831681178255505050565b8082028115828204841417610bf757610bf76151b5565b5b8181101561112f57600081556001016157fc565b6001600160401b0383111561582757615827614c0e565b6801000000000000000083111561584057615840614c0e565b805483825580841015615866578160005260206000206158648282018683016157fb565b505b50818160005260208060002060005b8681101561588f5783358282015592820192600101615875565b50505050505050565b6000808335601e198436030181126158af57600080fd5b8301803591506001600160401b038211156158c957600080fd5b602001915036819003821315614a8157600080fd5b601f82111561127557806000526020600020601f840160051c810160208510156159055750805b615917601f850160051c8301826157fb565b5050505050565b600019600383901b1c191660019190911b1790565b6001600160401b0383111561594a5761594a614c0e565b61595e83615958835461517b565b836158de565b6000601f84116001811461598c576000851561597a5750838201355b615984868261591e565b845550615917565b600083815260209020601f19861690835b828110156159bd578685013582556020948501946001909201910161599d565b50868210156159da5760001960f88860031b161c19848701351681555b505060018560011b0183555050505050565b60008135610bf781615207565b8135815560208201356001820155615a1f615a16604084016157a6565b600283016157b3565b6060820135600382015560808201356004820155615a4060a08301836153ca565b615a4e818360058601615810565b5050615a5d60c0830183615898565b615a6b818360068601615933565b5050615a7a60e0830183615898565b615a88818360078601615933565b5050615ab3615a9a61010084016159ec565b6008830160ff1981541660ff8315151681178255505050565b615ac1610120830183615898565b615acf818360098601615933565b5050610140820135600a820155610160820135600b820155615af56101808301836153ca565b615b038183600c8601615810565b50506101a0820135600d8201555050565b818103615b1f575050565b615b29825461517b565b6001600160401b03811115615b4057615b40614c0e565b615b5481615b4e845461517b565b846158de565b6000601f821160018114615b825760008315615b705750848201545b615b7a848261591e565b855550615917565b600085815260209020601f19841690600086815260209020845b83811015615bbc5782860154825560019586019590910190602001615b9c565b5085831015615bda5781850154600019600388901b60f8161c191681555b5050505050600190811b01905550565b81516001600160401b03811115615c0357615c03614c0e565b615c1181615b4e845461517b565b602080601f831160018114615c405760008415615c2e5750858301515b615c38858261591e565b865550615c99565b600085815260208120601f198616915b82811015615c6f57888601518255948401946001909101908401615c50565b5085821015615c8d5787850151600019600388901b60f8161c191681555b505060018460011b0185555b505050505050565b6020815281516020820152602082015160408201526040820151606082015260608201516080820152608082015160a0820152600060a083015160e060c0840152615cf061010084018261486c565b905060c084015160e08401528091505092915050565b8154815260018201546001600160a01b0316602082015260028201546040820152600382015460ff161515606082015260808101610bf7565b83815260406020820152816040820152818360608301376000818301606090810191909152601f909201601f1916010192915050565b602081526000611ae66020830184614d9956fe96e9914f87caf53079f3441ee12036434bc4ea93f85df92beb30c7c918984e9fa2646970667358221220a0e555683c49306e0b4a8415289a3e42b34ea0029bc202d4b5ba0bdc95063a3964736f6c63430008130033",
  "immutableReferences": {
    "737": [
      {
        "length": 32,
        "start": 1554
      },
      {
        "length": 32,
        "start": 9568
      },
      {
        "length": 32,
        "start": 17816
      }
    ]
  },
  "source": "// SPDX-License-Identifier: MIT\npragma solidity 0.8.19;\nimport \"@openzeppelin/contracts/token/ERC20/extensions/ERC20Capped.sol\";\nimport \"@openzeppelin/contracts/security/ReentrancyGuard.sol\";\n\ncontract Asami is ERC20Capped, ReentrancyGuard {\n    enum Site {\n      X,\n      Instagram,\n      LinkedIn,\n      Facebook,\n      TikTok,\n      Youtube,\n      Nostr,\n      Bluesky,\n      Reserved1,\n      Reserved2,\n      Reserved3,\n      Reserved4,\n      Reserved5,\n      Reserved6\n    }\n\n    struct Account {\n        uint256 id;\n        address addr;\n        uint256 unclaimedAsamiTokens;\n        uint256 unclaimedDocRewards;\n        uint256[] handles;\n        uint256[] campaigns;\n        uint256[] collabs;\n    }\n    uint256[] public accountIds;\n    mapping(uint256 => Account) public accounts;\n    mapping(address => uint256) public accountIdByAddress;\n    event AccountSaved(Account account);\n\n    struct Handle {\n        uint256 id;\n        uint256 accountId;\n        Site site;\n        uint256 price;\n        uint256 score;\n        uint256[] topics;\n        string username;\n        string userId;\n        bool needsUpdate;\n        string newUsername;\n        uint256 newPrice;\n        uint256 newScore;\n        uint256[] newTopics;\n        uint256 lastUpdated;\n    }\n    Handle[] public handles;\n    event HandleSaved(Handle handle);\n\n    function getHandles() public view returns (Handle[] memory) {\n        return handles;\n    }\n\n    struct Campaign {\n        uint256 id;\n        uint256 accountId;\n        Site site;\n        uint256 budget;\n        uint256 remaining;\n        string contentId;\n        uint256 priceScoreRatio;\n        uint256[] topics;\n        uint256 validUntil;\n        bool fundedByAdmin;\n    }\n    Campaign[] public campaigns;\n    event CampaignSaved(Campaign campaign);\n    function getCampaigns() public view returns (Campaign[] memory) {\n        return campaigns;\n    }\n\n    struct Collab {\n        uint256 id;\n        uint256 handleId;\n        uint256 campaignId;\n        uint256 gross;\n        uint256 fee;\n        string proof;\n        uint256 createdAt;\n    }\n    Collab[] public collabs;\n    event CollabSaved(Collab collab);\n\n    uint256 public defaultFeeRate = 10 * 1e18;\n    uint256 public feeRate = defaultFeeRate;\n    uint256 public votedFeeRate = defaultFeeRate;\n    uint256 public votedFeeRateVoteCount = 0;\n    /* To make the protocol more predictable, changes are applied only once every period */\n    uint256 public lastVotedFeeRateAppliedOn = 0;\n\n    struct FeeRateVote {\n        uint256 votes;\n        uint256 rate;\n    }\n    mapping(address => FeeRateVote) public feeRateVotes;\n\n    struct AdminVote {\n        uint256 votes;\n        address candidate;\n        uint256 cycle;\n        bool vested;\n    }\n    /* Maps holders to their vote */\n    mapping(address => AdminVote) public submittedAdminVotes;\n    event AdminVoteSaved(AdminVote vote);\n\n    struct AdminVoteCount {\n        uint256 votes;\n        address candidate;\n    }\n\n    /*\n    We're only storing all historic vote counts to have a view function that helps find out\n    which candidate to proclaim without relying on events.\n    */\n    AdminVoteCount[] public adminVoteCounts;\n    mapping(address => uint256) public adminVoteCountIdByCandidate;\n\n    function allAdminVoteCounts()\n        public\n        view\n        returns (AdminVoteCount[] memory)\n    {\n        return adminVoteCounts;\n    }\n\n    uint256 public vestedAdminVotesTotal;\n    uint256 public lastAdminElection;\n    address[3] public latestAdminElections;\n\n    function getLatestAdminElections() public view returns (address[3] memory) {\n        return latestAdminElections;\n    }\n\n    string[] public topics;\n    event TopicSaved(uint256 id, string name);\n\n    IERC20 internal doc;\n    address[] public holders;\n    mapping(address => bool) public trackedHolders;\n\n    address public admin; // An address that may be stored on a server.\n    address public adminTreasury; // A cold storage address for admin money.\n\n    uint256 public claimedAsamiTokens;\n\n    modifier onlyAdmin() {\n        require(msg.sender == admin || msg.sender == adminTreasury);\n        _;\n    }\n\n    constructor(\n        address _dollarOnChainAddress,\n        address _adminAddress\n    ) ERC20(\"AsamiToken\", \"ASAMI\") ERC20Capped(21 * 1e24) {\n        doc = IERC20(_dollarOnChainAddress);\n        adminTreasury = msg.sender;\n        admin = _adminAddress;\n    }\n\n    function _beforeTokenTransfer(\n        address from,\n        address to,\n        uint256 amount\n    ) internal override {\n        super._beforeTokenTransfer(from, to, amount);\n\n        if (from != address(0)) {\n          _registerRecentBalanceChange(from, amount, false);\n\n          if (feeRateVotes[from].votes > 0) {\n              removeFeeRateVoteHelper(from);\n          }\n          if (submittedAdminVotes[from].votes > 0) {\n              removeAdminVoteHelper(from);\n          }\n        }\n\n        if (to != address(0)) {\n          _registerRecentBalanceChange(to, amount, true);\n\n          if (!trackedHolders[to] && amount > 0) {\n              holders.push(to);\n              trackedHolders[to] = true;\n          }\n        }\n    }\n\n    function getHolders() public view returns (address[] memory) {\n        return holders;\n    }\n\n    function getClaimedAsamiTokens() public view returns (uint256) {\n        return claimedAsamiTokens;\n    }\n\n    function getTopics() public view returns (string[] memory) {\n        return topics;\n    }\n\n    function adminAddTopics(string[] calldata _names) public onlyAdmin {\n        for (uint256 i = 0; i < _names.length; i++) {\n            topics.push(_names[i]);\n            emit TopicSaved(topics.length, _names[i]);\n        }\n    }\n\n    function ensureAccount(uint256 _accountId) private {\n        if (accounts[_accountId].id == 0) {\n            accounts[_accountId].id = _accountId;\n            accountIds.push(_accountId);\n        }\n    }\n\n    struct AdminClaimAccountsInput {\n        uint256 accountId;\n        address addr;\n    }\n\n    function claimAccounts(\n        AdminClaimAccountsInput[] calldata _input\n    ) external onlyAdmin nonReentrant {\n        for (uint256 i = 0; i < _input.length; i++) {\n            AdminClaimAccountsInput calldata claim = _input[i];\n            ensureAccount(claim.accountId);\n\n            Account storage account = accounts[claim.accountId];\n            require(account.addr == address(0));\n\n            accountIdByAddress[claim.addr] = claim.accountId;\n            account.addr = claim.addr;\n\n            if (account.unclaimedAsamiTokens > 0) {\n                uint256 unclaimed = account.unclaimedAsamiTokens;\n                account.unclaimedAsamiTokens = 0;\n                _safeMint(claim.addr, unclaimed);\n            }\n\n            if (account.unclaimedDocRewards > 0) {\n                uint256 unclaimed = account.unclaimedDocRewards;\n                account.unclaimedDocRewards = 0;\n                doc.transfer(account.addr, unclaimed);\n            }\n\n            emit AccountSaved(account);\n        }\n    }\n\n    function adminMakeHandles(Handle[] calldata _inputs) external onlyAdmin {\n        for (uint256 i = 0; i < _inputs.length; i++) {\n            ensureAccount(_inputs[i].accountId);\n\n            handles.push(_inputs[i]);\n            Handle storage h = handles[handles.length - 1];\n            h.id = handles.length;\n            emit HandleSaved(h);\n        }\n    }\n\n    struct CampaignInput {\n        Site site;\n        uint256 budget;\n        string contentId;\n        uint256 priceScoreRatio;\n        uint256[] topics;\n        uint256 validUntil;\n    }\n    function makeCampaigns(\n        CampaignInput[] calldata _inputs\n    ) public nonReentrant {\n        Account storage account = accounts[accountIdByAddress[msg.sender]];\n        require(account.addr != address(0), \"mc 0\");\n\n        for (uint i = 0; i < _inputs.length; i++) {\n            CampaignInput memory input = _inputs[i];\n            _saveCampaignHelper(\n                account,\n                Campaign({\n                    id: campaigns.length + 1,\n                    accountId: account.id,\n                    site: input.site,\n                    budget: input.budget,\n                    remaining: input.budget,\n                    contentId: input.contentId,\n                    priceScoreRatio: input.priceScoreRatio,\n                    topics: input.topics,\n                    validUntil: input.validUntil,\n                    fundedByAdmin: false\n                })\n            );\n        }\n    }\n\n    struct AdminCampaignInput {\n        uint256 accountId;\n        CampaignInput attrs;\n    }\n\n    function adminMakeCampaigns(\n        AdminCampaignInput[] calldata _inputs\n    ) public onlyAdmin nonReentrant {\n        for (uint i = 0; i < _inputs.length; i++) {\n            AdminCampaignInput memory input = _inputs[i];\n            ensureAccount(input.accountId);\n            Account storage account = accounts[input.accountId];\n            require(account.addr == address(0));\n\n            _saveCampaignHelper(\n                account,\n                Campaign({\n                    id: campaigns.length + 1,\n                    accountId: account.id,\n                    site: input.attrs.site,\n                    budget: input.attrs.budget,\n                    remaining: input.attrs.budget,\n                    contentId: input.attrs.contentId,\n                    priceScoreRatio: input.attrs.priceScoreRatio,\n                    topics: input.attrs.topics,\n                    validUntil: input.attrs.validUntil,\n                    fundedByAdmin: true\n                })\n            );\n        }\n    }\n\n    function _saveCampaignHelper(\n        Account storage _account,\n        Campaign memory _campaign\n    ) private {\n        require(_campaign.budget > 0);\n        require(bytes(_campaign.contentId).length > 0);\n        require(doc.transferFrom(msg.sender, address(this), _campaign.budget));\n\n        campaigns.push(_campaign);\n        _account.campaigns.push(_campaign.id);\n        emit CampaignSaved(_campaign);\n    }\n\n    struct AdminMakeCollabsInput {\n        uint256 campaignId;\n        uint256 handleId;\n    }\n\n    function adminMakeCollabs(\n        AdminMakeCollabsInput[] calldata _collabs\n    ) external onlyAdmin nonReentrant {\n        for (uint256 i = 0; i < _collabs.length; i++) {\n            Handle storage handle = handles[_collabs[i].handleId - 1];\n            require(handle.id > 0, \"amc1\");\n            Account storage member = accounts[handle.accountId];\n\n            Campaign storage campaign = campaigns[_collabs[i].campaignId - 1];\n            require(campaign.id > 0, \"amc2\");\n            require(campaign.validUntil > block.timestamp, \"amc3\");\n            require(isSubset(handle.topics, campaign.topics), \"amc4\");\n\n            require(campaign.remaining >= handle.price, \"amc5\");\n            require(campaign.site == handle.site, \"amc6\");\n            require(\n                (handle.price / handle.score) <= campaign.priceScoreRatio,\n                \"amc7\"\n            );\n\n            Account storage advertiser = accounts[campaign.accountId];\n\n            uint256 gross = handle.price;\n            uint256 fee = (gross * feeRate) / 1e20;\n            uint256 reward = gross - fee;\n\n            Collab memory collab = Collab({\n                id: collabs.length + 1,\n                handleId: handle.id,\n                campaignId: campaign.id,\n                gross: gross,\n                fee: fee,\n                proof: \"\",\n                createdAt: block.timestamp\n            });\n            collabs.push(collab);\n            member.collabs.push(collab.id);\n\n            campaign.remaining -= gross;\n            changeFeePool(fee, true);\n\n            uint256 remainingToCap = cap() - claimedAsamiTokens;\n            uint256 newTokens = (fee > remainingToCap) ? remainingToCap : fee;\n            claimedAsamiTokens += newTokens;\n\n            uint256 advertiserTokens = (newTokens * 10 * 1e18) / 100e18;\n            uint256 memberTokens = (newTokens * 15 * 1e18) / 100e18;\n            uint256 adminTokens = newTokens - advertiserTokens - memberTokens;\n\n            if (adminTokens > 0) {\n                _safeMint(adminTreasury, adminTokens);\n            }\n\n            if (member.addr == address(0)) {\n                if (memberTokens > 0) {\n                    member.unclaimedAsamiTokens += memberTokens;\n                }\n                member.unclaimedDocRewards += reward;\n                emit AccountSaved(member);\n            } else {\n                if (memberTokens > 0) {\n                    _safeMint(member.addr, memberTokens);\n                }\n                doc.transfer(member.addr, reward);\n            }\n\n            if (advertiserTokens > 0) {\n                if (advertiser.addr == address(0)) {\n                    advertiser.unclaimedAsamiTokens += advertiserTokens;\n                    emit AccountSaved(advertiser);\n                } else {\n                    _safeMint(advertiser.addr, advertiserTokens);\n                }\n            }\n\n            emit CollabSaved(collab);\n            emit CampaignSaved(campaign);\n        }\n    }\n\n    function reimburseDueCampaigns(\n        uint256[] calldata _campaignIds\n    ) external nonReentrant {\n        for (uint i = 0; i < _campaignIds.length; i++) {\n            Campaign storage campaign = campaigns[_campaignIds[i] - 1];\n            require(campaign.id > 0, \"rdc 0\");\n            require(campaign.remaining > 0, \"rdc 1\");\n            require(campaign.validUntil < block.timestamp, \"rdc 2\");\n\n            Account storage advertiser = accounts[campaign.accountId];\n            uint256 remaining = campaign.remaining;\n            campaign.remaining = 0;\n            address fundedBy = campaign.fundedByAdmin ? adminTreasury : advertiser.addr;\n            require(doc.transfer(fundedBy, remaining), \"rdc 3\");\n            emit CampaignSaved(campaign);\n        }\n    }\n\n    // To prevent race conditions, we never mint while we're in the middle of a payout.\n    function _safeMint(address _addr, uint256 _amount) private {\n        recentTokens[getCurrentCycle()] += _amount;\n        _mint(_addr, _amount);\n    }\n\n    struct AdminSetPriceInput {\n        uint256 handleId;\n        uint256 price;\n    }\n\n    function adminSetPrice(\n        AdminSetPriceInput[] calldata _inputs\n    ) external onlyAdmin {\n        for (uint256 i = 0; i < _inputs.length; i++) {\n            Handle storage handle = handles[_inputs[i].handleId - 1];\n            Account storage account = accounts[handle.accountId];\n            require(account.addr == address(0) && account.id > 0);\n\n            _setPriceHelper(handle, _inputs[i].price);\n        }\n    }\n\n    function setPrice(uint256 _handleId, uint256 _price) external {\n        Account storage account = accounts[accountIdByAddress[msg.sender]];\n        require(account.addr != address(0));\n\n        Handle storage handle = handles[_handleId - 1];\n        require(handle.id > 0);\n        require(handle.accountId == account.id);\n\n        _setPriceHelper(handle, _price);\n    }\n\n    function _setPriceHelper(Handle storage handle, uint256 _price) private {\n        require(_price > 0);\n        handle.newPrice = _price;\n        handle.needsUpdate = true;\n        emit HandleSaved(handle);\n    }\n\n    struct AdminSetScoreAndTopicsInput {\n        uint256 handleId;\n        uint256 score;\n        uint256[] topics;\n    }\n\n    function adminSetScoreAndTopics(\n        AdminSetScoreAndTopicsInput[] calldata _inputs\n    ) external onlyAdmin {\n        for (uint256 i = 0; i < _inputs.length; i++) {\n            Handle storage handle = handles[_inputs[i].handleId - 1];\n            handle.newScore = _inputs[i].score;\n            handle.newTopics = _inputs[i].topics;\n            handle.needsUpdate = true;\n            emit HandleSaved(handle);\n        }\n    }\n\n    function getCycleLength() public pure returns (uint256) {\n        return 60 * 60 * 24 * 15;\n    }\n\n    function getCurrentCycle() public view returns (uint256) {\n        return block.timestamp / getCycleLength();\n    }\n\n    function getNextCycle() public view returns (uint256) {\n        return getCurrentCycle() + getCycleLength();\n    }\n\n    uint256 public feePool;\n    struct BalanceChange {\n      uint256 added;\n      uint256 substracted;\n    }\n    mapping (uint256 => mapping(address => BalanceChange)) public recentBalanceChanges;\n    mapping (uint256 => BalanceChange) public recentFeePoolChanges;\n    mapping (uint256 => uint256) public recentTokens;\n    mapping(address => uint256) public lastFeePoolShareCycles;\n\n    function getRecentBalanceChange(address _holder) public view returns (BalanceChange memory) {\n      return recentBalanceChanges[getCurrentCycle()][_holder];\n    }\n\n    function getBalanceBeforeRecentChanges(address _holder) public view returns (uint256) {\n      BalanceChange storage recent = recentBalanceChanges[getCurrentCycle()][_holder];\n      return (balanceOf(_holder) + recent.substracted) - recent.added;\n    }\n\n    function _registerRecentBalanceChange(address _holder, uint256 _amount, bool _added) private {\n      BalanceChange storage recent = recentBalanceChanges[getCurrentCycle()][_holder];\n      if(_added){\n        recent.added += _amount;\n      } else {\n        recent.substracted += _amount;\n      }\n    }\n\n    function changeFeePool(uint256 _amount, bool _added) private {\n      BalanceChange storage recent = recentFeePoolChanges[getCurrentCycle()];\n      if(_added){\n        feePool += _amount;\n        recent.added += _amount;\n      } else {\n        feePool -= _amount;\n        recent.substracted += _amount;\n      }\n    }\n\n    function getFeePoolBeforeRecentChanges() public view returns (uint256) {\n      BalanceChange storage recent = recentFeePoolChanges[getCurrentCycle()];\n      return (feePool + recent.substracted) - recent.added;\n    }\n\n    function claimFeePoolShare(address[] calldata _holders) external nonReentrant {\n        uint256 current = getCurrentCycle();\n        uint256 supply = totalSupply() - recentTokens[current];\n        uint256 pool = getFeePoolBeforeRecentChanges();\n        require(supply > 0, \"cfps0\");\n        require(pool > 0, \"cfps1\");\n\n        for (uint256 i = 0; i < _holders.length; i++) {\n          address holder = _holders[i];\n\n          require(lastFeePoolShareCycles[holder] < current, \"cfps2\");\n\n          uint256 balance = getBalanceBeforeRecentChanges(holder);\n          require(balance > 0, \"cfps3\");\n          uint256 reward = (balance * pool) / supply;\n\n          lastFeePoolShareCycles[holder] = current;\n          changeFeePool(reward, false);\n\n          require(doc.transfer(holder, reward), \"cfps4\");\n        }\n    }\n\n    function applyHandleUpdates(uint256[] calldata _indexes) external {\n        uint256 currentCycle = getCurrentCycle();\n\n        for (uint256 i = 0; i < _indexes.length; i++) {\n            Handle storage handle = handles[_indexes[i]];\n            require(handle.lastUpdated != currentCycle, \"ahu 0\");\n            require(handle.needsUpdate, \"ahu 0\");\n\n            handle.needsUpdate = false;\n            handle.lastUpdated = currentCycle;\n\n            if (bytes(handle.newUsername).length > 0) {\n                handle.username = handle.newUsername;\n            }\n\n            if (handle.newPrice != 0) {\n                handle.price = handle.newPrice;\n            }\n\n            if (handle.score != 0) {\n                handle.score = handle.newScore;\n            }\n\n            if (handle.newTopics.length > 0) {\n                handle.topics = handle.newTopics;\n            }\n\n            emit HandleSaved(handle);\n        }\n    }\n\n    function applyVotedFeeRate() external {\n        uint256 currentCycle = getCurrentCycle();\n        require(currentCycle != lastVotedFeeRateAppliedOn);\n        feeRate = votedFeeRate;\n        lastVotedFeeRateAppliedOn = currentCycle;\n    }\n\n    function submitFeeRateVote(uint256 _rate) external {\n        require(_rate > 0 && _rate < 1e20, \"sfrv 0\");\n\n        FeeRateVote storage vote = feeRateVotes[msg.sender];\n        if (vote.votes > 0) {\n            removeFeeRateVoteHelper(msg.sender);\n        }\n\n        uint256 votes = balanceOf(msg.sender);\n        require(votes > 0, \"sfrv 1\");\n\n        votedFeeRate =\n            ((votedFeeRate * votedFeeRateVoteCount) + (votes * _rate)) /\n            (votedFeeRateVoteCount + votes);\n        votedFeeRateVoteCount += votes;\n        vote.votes = votes;\n        vote.rate = _rate;\n    }\n\n    function removeFeeRateVote() external {\n        removeFeeRateVoteHelper(msg.sender);\n    }\n\n    function removeFeeRateVoteHelper(address _holder) private {\n        FeeRateVote storage vote = feeRateVotes[_holder];\n        require(vote.votes > 0, \"rfrv 0\");\n        uint256 nextVoteCount = votedFeeRateVoteCount - vote.votes;\n        uint256 currentVolume = votedFeeRate * votedFeeRateVoteCount;\n        uint256 removedVolume = vote.votes * vote.rate;\n        uint256 nextVolume = currentVolume > removedVolume\n            ? currentVolume - removedVolume\n            : 0;\n\n        if (nextVoteCount > 0) {\n            votedFeeRate = nextVolume / nextVoteCount;\n            votedFeeRateVoteCount = nextVoteCount;\n        } else {\n            votedFeeRate = defaultFeeRate;\n            votedFeeRateVoteCount = 0;\n        }\n        delete feeRateVotes[_holder];\n    }\n\n    function submitAdminVote(address _candidate) external {\n        require(_candidate != address(0), \"sav 0\");\n        uint256 votes = balanceOf(msg.sender);\n        require(votes > 0, \"sav 1\");\n\n        AdminVote storage existing = submittedAdminVotes[msg.sender];\n        if (existing.votes > 0) {\n            removeAdminVoteHelper(msg.sender);\n        }\n\n        submittedAdminVotes[msg.sender] = AdminVote({\n            candidate: _candidate,\n            votes: votes,\n            cycle: getCurrentCycle(),\n            vested: false\n        });\n\n        emit AdminVoteSaved(submittedAdminVotes[msg.sender]);\n    }\n\n    function vestAdminVotes(address[] calldata _holders) external {\n        uint256 thisCycle = getCurrentCycle();\n\n        for (uint256 i = 0; i < _holders.length; i++) {\n            AdminVote storage vote = submittedAdminVotes[_holders[i]];\n            require(vote.cycle > 0, \"vav 0\");\n            require(vote.cycle < thisCycle, \"vav 1\");\n            require(!vote.vested, \"vav 2\");\n            vote.vested = true;\n            vestedAdminVotesTotal += vote.votes;\n\n            uint256 voteCountId = adminVoteCountIdByCandidate[vote.candidate];\n            if (voteCountId > 0) {\n                AdminVoteCount storage count = adminVoteCounts[voteCountId - 1];\n                count.votes += vote.votes;\n            } else {\n                AdminVoteCount storage count = adminVoteCounts.push();\n                count.votes = vote.votes;\n                count.candidate = vote.candidate;\n                adminVoteCountIdByCandidate[vote.candidate] = adminVoteCounts\n                    .length;\n            }\n            emit AdminVoteSaved(vote);\n        }\n    }\n\n    function proclaimCycleAdminWinner(address _candidate) external {\n        uint256 voteCountId = adminVoteCountIdByCandidate[_candidate];\n        require(voteCountId > 0);\n        AdminVoteCount storage count = adminVoteCounts[voteCountId - 1];\n\n        require(count.votes > vestedAdminVotesTotal / 2, \"pcw 0\");\n        require(vestedAdminVotesTotal > 0, \"pcw 1\");\n        uint256 thisCycle = getCurrentCycle();\n        require(lastAdminElection < thisCycle, \"pcw 2\");\n\n        lastAdminElection = thisCycle;\n        latestAdminElections[2] = latestAdminElections[1];\n        latestAdminElections[1] = latestAdminElections[0];\n        latestAdminElections[0] = _candidate;\n\n        if (\n            _candidate == latestAdminElections[1] &&\n            _candidate == latestAdminElections[2]\n        ) {\n            admin = _candidate;\n            adminTreasury = _candidate;\n        }\n    }\n\n    function removeAdminVote() external {\n        removeAdminVoteHelper(msg.sender);\n    }\n\n    function removeAdminVoteHelper(address _holder) private {\n        AdminVote storage vote = submittedAdminVotes[_holder];\n        require(vote.votes > 0, \"ravh 0\");\n        if (vote.vested) {\n            vestedAdminVotesTotal -= vote.votes;\n\n            uint256 voteCountId = adminVoteCountIdByCandidate[vote.candidate];\n            require(voteCountId > 0);\n            adminVoteCounts[voteCountId - 1].votes -= vote.votes;\n        }\n        delete submittedAdminVotes[_holder];\n    }\n\n    function setAdminAddress(address _admin) external {\n        require(msg.sender == adminTreasury);\n        admin = _admin;\n    }\n\n    function isSubset(\n        uint256[] memory mainSet,\n        uint256[] memory subset\n    ) public pure returns (bool) {\n        for (uint256 i = 0; i < subset.length; i++) {\n            bool found = false;\n\n            for (uint256 j = 0; j < mainSet.length; j++) {\n                if (subset[i] == mainSet[j]) {\n                    found = true;\n                    break;\n                }\n            }\n\n            if (!found) {\n                return false;\n            }\n        }\n\n        return true;\n    }\n}\n",
  "sourcePath": "/home/nubis/asami/contract/contracts/Asami.sol",
  "compiler": {
    "name": "solc",
    "version": "0.8.19+commit.7dd6d404.Emscripten.clang"
  },
  "schemaVersion": "3.4.15",
  "updatedAt": "2024-05-04T23:52:52.437Z",
  "networkType": "ethereum",
  "devdoc": {
    "events": {
      "Approval(address,address,uint256)": {
        "details": "Emitted when the allowance of a `spender` for an `owner` is set by a call to {approve}. `value` is the new allowance."
      },
      "Transfer(address,address,uint256)": {
        "details": "Emitted when `value` tokens are moved from one account (`from`) to another (`to`). Note that `value` may be zero."
      }
    },
    "kind": "dev",
    "methods": {
      "allowance(address,address)": {
        "details": "See {IERC20-allowance}."
      },
      "approve(address,uint256)": {
        "details": "See {IERC20-approve}. NOTE: If `amount` is the maximum `uint256`, the allowance is not updated on `transferFrom`. This is semantically equivalent to an infinite approval. Requirements: - `spender` cannot be the zero address."
      },
      "balanceOf(address)": {
        "details": "See {IERC20-balanceOf}."
      },
      "cap()": {
        "details": "Returns the cap on the token's total supply."
      },
      "decimals()": {
        "details": "Returns the number of decimals used to get its user representation. For example, if `decimals` equals `2`, a balance of `505` tokens should be displayed to a user as `5.05` (`505 / 10 ** 2`). Tokens usually opt for a value of 18, imitating the relationship between Ether and Wei. This is the default value returned by this function, unless it's overridden. NOTE: This information is only used for _display_ purposes: it in no way affects any of the arithmetic of the contract, including {IERC20-balanceOf} and {IERC20-transfer}."
      },
      "decreaseAllowance(address,uint256)": {
        "details": "Atomically decreases the allowance granted to `spender` by the caller. This is an alternative to {approve} that can be used as a mitigation for problems described in {IERC20-approve}. Emits an {Approval} event indicating the updated allowance. Requirements: - `spender` cannot be the zero address. - `spender` must have allowance for the caller of at least `subtractedValue`."
      },
      "increaseAllowance(address,uint256)": {
        "details": "Atomically increases the allowance granted to `spender` by the caller. This is an alternative to {approve} that can be used as a mitigation for problems described in {IERC20-approve}. Emits an {Approval} event indicating the updated allowance. Requirements: - `spender` cannot be the zero address."
      },
      "name()": {
        "details": "Returns the name of the token."
      },
      "symbol()": {
        "details": "Returns the symbol of the token, usually a shorter version of the name."
      },
      "totalSupply()": {
        "details": "See {IERC20-totalSupply}."
      },
      "transfer(address,uint256)": {
        "details": "See {IERC20-transfer}. Requirements: - `to` cannot be the zero address. - the caller must have a balance of at least `amount`."
      },
      "transferFrom(address,address,uint256)": {
        "details": "See {IERC20-transferFrom}. Emits an {Approval} event indicating the updated allowance. This is not required by the EIP. See the note at the beginning of {ERC20}. NOTE: Does not update the allowance if the current allowance is the maximum `uint256`. Requirements: - `from` and `to` cannot be the zero address. - `from` must have a balance of at least `amount`. - the caller must have allowance for ``from``'s tokens of at least `amount`."
      }
    },
    "version": 1
  },
  "userdoc": {
    "kind": "user",
    "methods": {},
    "version": 1
  }
}