{
  "contractName": "Asami",
  "abi": [
    {
      "inputs": [
        {
          "internalType": "address",
          "name": "_dollarOnChainAddress",
          "type": "address"
        }
      ],
      "stateMutability": "nonpayable",
      "type": "constructor"
    },
    {
      "anonymous": false,
      "inputs": [
        {
          "components": [
            {
              "internalType": "uint256",
              "name": "id",
              "type": "uint256"
            },
            {
              "internalType": "address",
              "name": "addr",
              "type": "address"
            },
            {
              "internalType": "uint256",
              "name": "unclaimedAsamiTokens",
              "type": "uint256"
            },
            {
              "internalType": "uint256",
              "name": "unclaimedDocRewards",
              "type": "uint256"
            },
            {
              "internalType": "uint256[]",
              "name": "handles",
              "type": "uint256[]"
            },
            {
              "internalType": "uint256[]",
              "name": "campaigns",
              "type": "uint256[]"
            },
            {
              "internalType": "uint256[]",
              "name": "collabs",
              "type": "uint256[]"
            }
          ],
          "indexed": false,
          "internalType": "struct Asami.Account",
          "name": "account",
          "type": "tuple"
        }
      ],
      "name": "AccountSaved",
      "type": "event"
    },
    {
      "anonymous": false,
      "inputs": [
        {
          "indexed": true,
          "internalType": "address",
          "name": "owner",
          "type": "address"
        },
        {
          "indexed": true,
          "internalType": "address",
          "name": "spender",
          "type": "address"
        },
        {
          "indexed": false,
          "internalType": "uint256",
          "name": "value",
          "type": "uint256"
        }
      ],
      "name": "Approval",
      "type": "event"
    },
    {
      "anonymous": false,
      "inputs": [
        {
          "components": [
            {
              "internalType": "uint256",
              "name": "id",
              "type": "uint256"
            },
            {
              "internalType": "uint256",
              "name": "accountId",
              "type": "uint256"
            },
            {
              "internalType": "enum Asami.Site",
              "name": "site",
              "type": "uint8"
            },
            {
              "internalType": "uint256",
              "name": "budget",
              "type": "uint256"
            },
            {
              "internalType": "uint256",
              "name": "remaining",
              "type": "uint256"
            },
            {
              "internalType": "string",
              "name": "contentId",
              "type": "string"
            },
            {
              "internalType": "uint256",
              "name": "priceScoreRatio",
              "type": "uint256"
            },
            {
              "internalType": "uint256[]",
              "name": "topics",
              "type": "uint256[]"
            },
            {
              "internalType": "uint256",
              "name": "validUntil",
              "type": "uint256"
            }
          ],
          "indexed": false,
          "internalType": "struct Asami.Campaign",
          "name": "campaign",
          "type": "tuple"
        }
      ],
      "name": "CampaignSaved",
      "type": "event"
    },
    {
      "anonymous": false,
      "inputs": [
        {
          "components": [
            {
              "internalType": "uint256",
              "name": "id",
              "type": "uint256"
            },
            {
              "internalType": "uint256",
              "name": "handleId",
              "type": "uint256"
            },
            {
              "internalType": "uint256",
              "name": "campaignId",
              "type": "uint256"
            },
            {
              "internalType": "uint256",
              "name": "gross",
              "type": "uint256"
            },
            {
              "internalType": "uint256",
              "name": "fee",
              "type": "uint256"
            },
            {
              "internalType": "string",
              "name": "proof",
              "type": "string"
            },
            {
              "internalType": "uint256",
              "name": "createdAt",
              "type": "uint256"
            }
          ],
          "indexed": false,
          "internalType": "struct Asami.Collab",
          "name": "collab",
          "type": "tuple"
        }
      ],
      "name": "CollabSaved",
      "type": "event"
    },
    {
      "anonymous": false,
      "inputs": [
        {
          "components": [
            {
              "internalType": "uint256",
              "name": "id",
              "type": "uint256"
            },
            {
              "internalType": "uint256",
              "name": "accountId",
              "type": "uint256"
            },
            {
              "internalType": "enum Asami.Site",
              "name": "site",
              "type": "uint8"
            },
            {
              "internalType": "uint256",
              "name": "price",
              "type": "uint256"
            },
            {
              "internalType": "uint256",
              "name": "score",
              "type": "uint256"
            },
            {
              "internalType": "uint256[]",
              "name": "topics",
              "type": "uint256[]"
            },
            {
              "internalType": "string",
              "name": "username",
              "type": "string"
            },
            {
              "internalType": "string",
              "name": "userId",
              "type": "string"
            }
          ],
          "indexed": false,
          "internalType": "struct Asami.Handle",
          "name": "handle",
          "type": "tuple"
        }
      ],
      "name": "HandleSaved",
      "type": "event"
    },
    {
      "anonymous": false,
      "inputs": [
        {
          "components": [
            {
              "internalType": "uint256",
              "name": "id",
              "type": "uint256"
            },
            {
              "internalType": "uint256",
              "name": "handleId",
              "type": "uint256"
            },
            {
              "internalType": "string",
              "name": "username",
              "type": "string"
            },
            {
              "internalType": "uint256",
              "name": "price",
              "type": "uint256"
            },
            {
              "internalType": "uint256",
              "name": "score",
              "type": "uint256"
            },
            {
              "internalType": "uint256[]",
              "name": "topics",
              "type": "uint256[]"
            }
          ],
          "indexed": false,
          "internalType": "struct Asami.HandleUpdate",
          "name": "handleUpdate",
          "type": "tuple"
        }
      ],
      "name": "HandleUpdateSaved",
      "type": "event"
    },
    {
      "anonymous": false,
      "inputs": [
        {
          "indexed": true,
          "internalType": "address",
          "name": "previousOwner",
          "type": "address"
        },
        {
          "indexed": true,
          "internalType": "address",
          "name": "newOwner",
          "type": "address"
        }
      ],
      "name": "OwnershipTransferred",
      "type": "event"
    },
    {
      "anonymous": false,
      "inputs": [
        {
          "indexed": true,
          "internalType": "address",
          "name": "from",
          "type": "address"
        },
        {
          "indexed": true,
          "internalType": "address",
          "name": "to",
          "type": "address"
        },
        {
          "indexed": false,
          "internalType": "uint256",
          "name": "value",
          "type": "uint256"
        }
      ],
      "name": "Transfer",
      "type": "event"
    },
    {
      "inputs": [
        {
          "internalType": "address",
          "name": "",
          "type": "address"
        }
      ],
      "name": "accountIdByAddress",
      "outputs": [
        {
          "internalType": "uint256",
          "name": "",
          "type": "uint256"
        }
      ],
      "stateMutability": "view",
      "type": "function"
    },
    {
      "inputs": [
        {
          "internalType": "uint256",
          "name": "",
          "type": "uint256"
        }
      ],
      "name": "accountIds",
      "outputs": [
        {
          "internalType": "uint256",
          "name": "",
          "type": "uint256"
        }
      ],
      "stateMutability": "view",
      "type": "function"
    },
    {
      "inputs": [
        {
          "internalType": "uint256",
          "name": "",
          "type": "uint256"
        }
      ],
      "name": "accounts",
      "outputs": [
        {
          "internalType": "uint256",
          "name": "id",
          "type": "uint256"
        },
        {
          "internalType": "address",
          "name": "addr",
          "type": "address"
        },
        {
          "internalType": "uint256",
          "name": "unclaimedAsamiTokens",
          "type": "uint256"
        },
        {
          "internalType": "uint256",
          "name": "unclaimedDocRewards",
          "type": "uint256"
        }
      ],
      "stateMutability": "view",
      "type": "function"
    },
    {
      "inputs": [],
      "name": "admin",
      "outputs": [
        {
          "internalType": "address",
          "name": "",
          "type": "address"
        }
      ],
      "stateMutability": "view",
      "type": "function"
    },
    {
      "inputs": [],
      "name": "adminTreasury",
      "outputs": [
        {
          "internalType": "address",
          "name": "",
          "type": "address"
        }
      ],
      "stateMutability": "view",
      "type": "function"
    },
    {
      "inputs": [
        {
          "internalType": "address",
          "name": "owner",
          "type": "address"
        },
        {
          "internalType": "address",
          "name": "spender",
          "type": "address"
        }
      ],
      "name": "allowance",
      "outputs": [
        {
          "internalType": "uint256",
          "name": "",
          "type": "uint256"
        }
      ],
      "stateMutability": "view",
      "type": "function"
    },
    {
      "inputs": [
        {
          "internalType": "address",
          "name": "spender",
          "type": "address"
        },
        {
          "internalType": "uint256",
          "name": "amount",
          "type": "uint256"
        }
      ],
      "name": "approve",
      "outputs": [
        {
          "internalType": "bool",
          "name": "",
          "type": "bool"
        }
      ],
      "stateMutability": "nonpayable",
      "type": "function"
    },
    {
      "inputs": [
        {
          "internalType": "address",
          "name": "account",
          "type": "address"
        }
      ],
      "name": "balanceOf",
      "outputs": [
        {
          "internalType": "uint256",
          "name": "",
          "type": "uint256"
        }
      ],
      "stateMutability": "view",
      "type": "function"
    },
    {
      "inputs": [
        {
          "internalType": "uint256",
          "name": "",
          "type": "uint256"
        }
      ],
      "name": "campaigns",
      "outputs": [
        {
          "internalType": "uint256",
          "name": "id",
          "type": "uint256"
        },
        {
          "internalType": "uint256",
          "name": "accountId",
          "type": "uint256"
        },
        {
          "internalType": "enum Asami.Site",
          "name": "site",
          "type": "uint8"
        },
        {
          "internalType": "uint256",
          "name": "budget",
          "type": "uint256"
        },
        {
          "internalType": "uint256",
          "name": "remaining",
          "type": "uint256"
        },
        {
          "internalType": "string",
          "name": "contentId",
          "type": "string"
        },
        {
          "internalType": "uint256",
          "name": "priceScoreRatio",
          "type": "uint256"
        },
        {
          "internalType": "uint256",
          "name": "validUntil",
          "type": "uint256"
        }
      ],
      "stateMutability": "view",
      "type": "function"
    },
    {
      "inputs": [],
      "name": "cap",
      "outputs": [
        {
          "internalType": "uint256",
          "name": "",
          "type": "uint256"
        }
      ],
      "stateMutability": "view",
      "type": "function"
    },
    {
      "inputs": [],
      "name": "claimedAsamiTokens",
      "outputs": [
        {
          "internalType": "uint256",
          "name": "",
          "type": "uint256"
        }
      ],
      "stateMutability": "view",
      "type": "function"
    },
    {
      "inputs": [
        {
          "internalType": "uint256",
          "name": "",
          "type": "uint256"
        }
      ],
      "name": "collabs",
      "outputs": [
        {
          "internalType": "uint256",
          "name": "id",
          "type": "uint256"
        },
        {
          "internalType": "uint256",
          "name": "handleId",
          "type": "uint256"
        },
        {
          "internalType": "uint256",
          "name": "campaignId",
          "type": "uint256"
        },
        {
          "internalType": "uint256",
          "name": "gross",
          "type": "uint256"
        },
        {
          "internalType": "uint256",
          "name": "fee",
          "type": "uint256"
        },
        {
          "internalType": "string",
          "name": "proof",
          "type": "string"
        },
        {
          "internalType": "uint256",
          "name": "createdAt",
          "type": "uint256"
        }
      ],
      "stateMutability": "view",
      "type": "function"
    },
    {
      "inputs": [],
      "name": "decimals",
      "outputs": [
        {
          "internalType": "uint8",
          "name": "",
          "type": "uint8"
        }
      ],
      "stateMutability": "view",
      "type": "function"
    },
    {
      "inputs": [
        {
          "internalType": "address",
          "name": "spender",
          "type": "address"
        },
        {
          "internalType": "uint256",
          "name": "subtractedValue",
          "type": "uint256"
        }
      ],
      "name": "decreaseAllowance",
      "outputs": [
        {
          "internalType": "bool",
          "name": "",
          "type": "bool"
        }
      ],
      "stateMutability": "nonpayable",
      "type": "function"
    },
    {
      "inputs": [],
      "name": "defaultVotedFeeRate",
      "outputs": [
        {
          "internalType": "uint256",
          "name": "",
          "type": "uint256"
        }
      ],
      "stateMutability": "view",
      "type": "function"
    },
    {
      "inputs": [],
      "name": "feePool",
      "outputs": [
        {
          "internalType": "uint256",
          "name": "",
          "type": "uint256"
        }
      ],
      "stateMutability": "view",
      "type": "function"
    },
    {
      "inputs": [],
      "name": "feeRate",
      "outputs": [
        {
          "internalType": "uint256",
          "name": "",
          "type": "uint256"
        }
      ],
      "stateMutability": "view",
      "type": "function"
    },
    {
      "inputs": [
        {
          "internalType": "address",
          "name": "",
          "type": "address"
        }
      ],
      "name": "feeRateVotes",
      "outputs": [
        {
          "internalType": "uint256",
          "name": "votes",
          "type": "uint256"
        },
        {
          "internalType": "uint256",
          "name": "rate",
          "type": "uint256"
        }
      ],
      "stateMutability": "view",
      "type": "function"
    },
    {
      "inputs": [
        {
          "internalType": "uint256",
          "name": "",
          "type": "uint256"
        }
      ],
      "name": "handleUpdateByHandleId",
      "outputs": [
        {
          "internalType": "uint256",
          "name": "",
          "type": "uint256"
        }
      ],
      "stateMutability": "view",
      "type": "function"
    },
    {
      "inputs": [
        {
          "internalType": "uint256",
          "name": "",
          "type": "uint256"
        }
      ],
      "name": "handleUpdates",
      "outputs": [
        {
          "internalType": "uint256",
          "name": "id",
          "type": "uint256"
        },
        {
          "internalType": "uint256",
          "name": "handleId",
          "type": "uint256"
        },
        {
          "internalType": "string",
          "name": "username",
          "type": "string"
        },
        {
          "internalType": "uint256",
          "name": "price",
          "type": "uint256"
        },
        {
          "internalType": "uint256",
          "name": "score",
          "type": "uint256"
        }
      ],
      "stateMutability": "view",
      "type": "function"
    },
    {
      "inputs": [
        {
          "internalType": "uint256",
          "name": "",
          "type": "uint256"
        }
      ],
      "name": "handles",
      "outputs": [
        {
          "internalType": "uint256",
          "name": "id",
          "type": "uint256"
        },
        {
          "internalType": "uint256",
          "name": "accountId",
          "type": "uint256"
        },
        {
          "internalType": "enum Asami.Site",
          "name": "site",
          "type": "uint8"
        },
        {
          "internalType": "uint256",
          "name": "price",
          "type": "uint256"
        },
        {
          "internalType": "uint256",
          "name": "score",
          "type": "uint256"
        },
        {
          "internalType": "string",
          "name": "username",
          "type": "string"
        },
        {
          "internalType": "string",
          "name": "userId",
          "type": "string"
        }
      ],
      "stateMutability": "view",
      "type": "function"
    },
    {
      "inputs": [
        {
          "internalType": "uint256",
          "name": "",
          "type": "uint256"
        }
      ],
      "name": "holders",
      "outputs": [
        {
          "internalType": "address",
          "name": "",
          "type": "address"
        }
      ],
      "stateMutability": "view",
      "type": "function"
    },
    {
      "inputs": [
        {
          "internalType": "address",
          "name": "spender",
          "type": "address"
        },
        {
          "internalType": "uint256",
          "name": "addedValue",
          "type": "uint256"
        }
      ],
      "name": "increaseAllowance",
      "outputs": [
        {
          "internalType": "bool",
          "name": "",
          "type": "bool"
        }
      ],
      "stateMutability": "nonpayable",
      "type": "function"
    },
    {
      "inputs": [],
      "name": "lastPayoutCycle",
      "outputs": [
        {
          "internalType": "uint256",
          "name": "",
          "type": "uint256"
        }
      ],
      "stateMutability": "view",
      "type": "function"
    },
    {
      "inputs": [],
      "name": "lastUpdateCycle",
      "outputs": [
        {
          "internalType": "uint256",
          "name": "",
          "type": "uint256"
        }
      ],
      "stateMutability": "view",
      "type": "function"
    },
    {
      "inputs": [],
      "name": "lastVotedFeeRateAppliedOn",
      "outputs": [
        {
          "internalType": "uint256",
          "name": "",
          "type": "uint256"
        }
      ],
      "stateMutability": "view",
      "type": "function"
    },
    {
      "inputs": [],
      "name": "name",
      "outputs": [
        {
          "internalType": "string",
          "name": "",
          "type": "string"
        }
      ],
      "stateMutability": "view",
      "type": "function"
    },
    {
      "inputs": [],
      "name": "owner",
      "outputs": [
        {
          "internalType": "address",
          "name": "",
          "type": "address"
        }
      ],
      "stateMutability": "view",
      "type": "function"
    },
    {
      "inputs": [],
      "name": "payoutsRemaining",
      "outputs": [
        {
          "internalType": "uint256",
          "name": "",
          "type": "uint256"
        }
      ],
      "stateMutability": "view",
      "type": "function"
    },
    {
      "inputs": [],
      "name": "payoutsTotal",
      "outputs": [
        {
          "internalType": "uint256",
          "name": "",
          "type": "uint256"
        }
      ],
      "stateMutability": "view",
      "type": "function"
    },
    {
      "inputs": [],
      "name": "renounceOwnership",
      "outputs": [],
      "stateMutability": "nonpayable",
      "type": "function"
    },
    {
      "inputs": [],
      "name": "symbol",
      "outputs": [
        {
          "internalType": "string",
          "name": "",
          "type": "string"
        }
      ],
      "stateMutability": "view",
      "type": "function"
    },
    {
      "inputs": [
        {
          "internalType": "uint256",
          "name": "",
          "type": "uint256"
        }
      ],
      "name": "topics",
      "outputs": [
        {
          "internalType": "string",
          "name": "",
          "type": "string"
        }
      ],
      "stateMutability": "view",
      "type": "function"
    },
    {
      "inputs": [],
      "name": "totalSupply",
      "outputs": [
        {
          "internalType": "uint256",
          "name": "",
          "type": "uint256"
        }
      ],
      "stateMutability": "view",
      "type": "function"
    },
    {
      "inputs": [
        {
          "internalType": "address",
          "name": "",
          "type": "address"
        }
      ],
      "name": "trackedHolders",
      "outputs": [
        {
          "internalType": "bool",
          "name": "",
          "type": "bool"
        }
      ],
      "stateMutability": "view",
      "type": "function"
    },
    {
      "inputs": [
        {
          "internalType": "address",
          "name": "to",
          "type": "address"
        },
        {
          "internalType": "uint256",
          "name": "amount",
          "type": "uint256"
        }
      ],
      "name": "transfer",
      "outputs": [
        {
          "internalType": "bool",
          "name": "",
          "type": "bool"
        }
      ],
      "stateMutability": "nonpayable",
      "type": "function"
    },
    {
      "inputs": [
        {
          "internalType": "address",
          "name": "from",
          "type": "address"
        },
        {
          "internalType": "address",
          "name": "to",
          "type": "address"
        },
        {
          "internalType": "uint256",
          "name": "amount",
          "type": "uint256"
        }
      ],
      "name": "transferFrom",
      "outputs": [
        {
          "internalType": "bool",
          "name": "",
          "type": "bool"
        }
      ],
      "stateMutability": "nonpayable",
      "type": "function"
    },
    {
      "inputs": [
        {
          "internalType": "address",
          "name": "newOwner",
          "type": "address"
        }
      ],
      "name": "transferOwnership",
      "outputs": [],
      "stateMutability": "nonpayable",
      "type": "function"
    },
    {
      "inputs": [],
      "name": "updatesRemaining",
      "outputs": [
        {
          "internalType": "uint256",
          "name": "",
          "type": "uint256"
        }
      ],
      "stateMutability": "view",
      "type": "function"
    },
    {
      "inputs": [],
      "name": "updatesTotal",
      "outputs": [
        {
          "internalType": "uint256",
          "name": "",
          "type": "uint256"
        }
      ],
      "stateMutability": "view",
      "type": "function"
    },
    {
      "inputs": [],
      "name": "votedFeeRate",
      "outputs": [
        {
          "internalType": "uint256",
          "name": "",
          "type": "uint256"
        }
      ],
      "stateMutability": "view",
      "type": "function"
    },
    {
      "inputs": [],
      "name": "votedFeeRateVoteCount",
      "outputs": [
        {
          "internalType": "uint256",
          "name": "",
          "type": "uint256"
        }
      ],
      "stateMutability": "view",
      "type": "function"
    },
    {
      "inputs": [
        {
          "internalType": "address",
          "name": "_admin",
          "type": "address"
        },
        {
          "internalType": "address",
          "name": "_adminTreasury",
          "type": "address"
        }
      ],
      "name": "setAdmin",
      "outputs": [],
      "stateMutability": "nonpayable",
      "type": "function"
    },
    {
      "inputs": [],
      "name": "getHolders",
      "outputs": [
        {
          "internalType": "string[]",
          "name": "",
          "type": "string[]"
        }
      ],
      "stateMutability": "view",
      "type": "function"
    },
    {
      "inputs": [],
      "name": "getClaimedAsamiTokens",
      "outputs": [
        {
          "internalType": "uint256",
          "name": "",
          "type": "uint256"
        }
      ],
      "stateMutability": "view",
      "type": "function"
    },
    {
      "inputs": [],
      "name": "getTopics",
      "outputs": [
        {
          "internalType": "string[]",
          "name": "",
          "type": "string[]"
        }
      ],
      "stateMutability": "view",
      "type": "function"
    },
    {
      "inputs": [
        {
          "internalType": "string",
          "name": "_name",
          "type": "string"
        }
      ],
      "name": "addTopic",
      "outputs": [],
      "stateMutability": "nonpayable",
      "type": "function"
    },
    {
      "inputs": [
        {
          "components": [
            {
              "internalType": "uint256",
              "name": "accountId",
              "type": "uint256"
            },
            {
              "internalType": "address",
              "name": "addr",
              "type": "address"
            }
          ],
          "internalType": "struct Asami.AdminClaimAccountsInput[]",
          "name": "_input",
          "type": "tuple[]"
        }
      ],
      "name": "claimAccounts",
      "outputs": [],
      "stateMutability": "nonpayable",
      "type": "function"
    },
    {
      "inputs": [
        {
          "components": [
            {
              "internalType": "uint256",
              "name": "id",
              "type": "uint256"
            },
            {
              "internalType": "uint256",
              "name": "accountId",
              "type": "uint256"
            },
            {
              "internalType": "enum Asami.Site",
              "name": "site",
              "type": "uint8"
            },
            {
              "internalType": "uint256",
              "name": "price",
              "type": "uint256"
            },
            {
              "internalType": "uint256",
              "name": "score",
              "type": "uint256"
            },
            {
              "internalType": "uint256[]",
              "name": "topics",
              "type": "uint256[]"
            },
            {
              "internalType": "string",
              "name": "username",
              "type": "string"
            },
            {
              "internalType": "string",
              "name": "userId",
              "type": "string"
            }
          ],
          "internalType": "struct Asami.Handle[]",
          "name": "_inputs",
          "type": "tuple[]"
        }
      ],
      "name": "adminMakeHandles",
      "outputs": [],
      "stateMutability": "nonpayable",
      "type": "function"
    },
    {
      "inputs": [
        {
          "components": [
            {
              "internalType": "enum Asami.Site",
              "name": "site",
              "type": "uint8"
            },
            {
              "internalType": "uint256",
              "name": "budget",
              "type": "uint256"
            },
            {
              "internalType": "string",
              "name": "contentId",
              "type": "string"
            },
            {
              "internalType": "uint256",
              "name": "priceScoreRatio",
              "type": "uint256"
            },
            {
              "internalType": "uint256[]",
              "name": "topics",
              "type": "uint256[]"
            },
            {
              "internalType": "uint256",
              "name": "validUntil",
              "type": "uint256"
            }
          ],
          "internalType": "struct Asami.CampaignInput[]",
          "name": "_inputs",
          "type": "tuple[]"
        }
      ],
      "name": "makeCampaigns",
      "outputs": [],
      "stateMutability": "nonpayable",
      "type": "function"
    },
    {
      "inputs": [
        {
          "components": [
            {
              "internalType": "uint256",
              "name": "accountId",
              "type": "uint256"
            },
            {
              "components": [
                {
                  "internalType": "enum Asami.Site",
                  "name": "site",
                  "type": "uint8"
                },
                {
                  "internalType": "uint256",
                  "name": "budget",
                  "type": "uint256"
                },
                {
                  "internalType": "string",
                  "name": "contentId",
                  "type": "string"
                },
                {
                  "internalType": "uint256",
                  "name": "priceScoreRatio",
                  "type": "uint256"
                },
                {
                  "internalType": "uint256[]",
                  "name": "topics",
                  "type": "uint256[]"
                },
                {
                  "internalType": "uint256",
                  "name": "validUntil",
                  "type": "uint256"
                }
              ],
              "internalType": "struct Asami.CampaignInput",
              "name": "attrs",
              "type": "tuple"
            }
          ],
          "internalType": "struct Asami.AdminCampaignInput[]",
          "name": "_inputs",
          "type": "tuple[]"
        }
      ],
      "name": "adminMakeCampaigns",
      "outputs": [],
      "stateMutability": "nonpayable",
      "type": "function"
    },
    {
      "inputs": [
        {
          "components": [
            {
              "internalType": "uint256",
              "name": "campaignId",
              "type": "uint256"
            },
            {
              "internalType": "uint256",
              "name": "handleId",
              "type": "uint256"
            }
          ],
          "internalType": "struct Asami.AdminMakeCollabsInput[]",
          "name": "_collabs",
          "type": "tuple[]"
        }
      ],
      "name": "adminMakeCollabs",
      "outputs": [],
      "stateMutability": "nonpayable",
      "type": "function"
    },
    {
      "inputs": [
        {
          "internalType": "uint256[]",
          "name": "_campaignIds",
          "type": "uint256[]"
        }
      ],
      "name": "reimburseDueCampaigns",
      "outputs": [],
      "stateMutability": "nonpayable",
      "type": "function"
    },
    {
      "inputs": [
        {
          "internalType": "uint256",
          "name": "_handleId",
          "type": "uint256"
        },
        {
          "internalType": "uint256",
          "name": "_price",
          "type": "uint256"
        }
      ],
      "name": "adminSetPrice",
      "outputs": [],
      "stateMutability": "nonpayable",
      "type": "function"
    },
    {
      "inputs": [
        {
          "internalType": "uint256",
          "name": "_handleId",
          "type": "uint256"
        },
        {
          "internalType": "uint256",
          "name": "_price",
          "type": "uint256"
        }
      ],
      "name": "setPrice",
      "outputs": [],
      "stateMutability": "nonpayable",
      "type": "function"
    },
    {
      "inputs": [
        {
          "internalType": "uint256",
          "name": "_handleId",
          "type": "uint256"
        },
        {
          "internalType": "uint256",
          "name": "_score",
          "type": "uint256"
        },
        {
          "internalType": "uint256[]",
          "name": "_topics",
          "type": "uint256[]"
        }
      ],
      "name": "adminSetScoreAndTopics",
      "outputs": [],
      "stateMutability": "nonpayable",
      "type": "function"
    },
    {
      "inputs": [],
      "name": "getCycleLength",
      "outputs": [
        {
          "internalType": "uint256",
          "name": "",
          "type": "uint256"
        }
      ],
      "stateMutability": "pure",
      "type": "function"
    },
    {
      "inputs": [],
      "name": "getCurrentCycle",
      "outputs": [
        {
          "internalType": "uint256",
          "name": "",
          "type": "uint256"
        }
      ],
      "stateMutability": "view",
      "type": "function"
    },
    {
      "inputs": [],
      "name": "getNextCycle",
      "outputs": [
        {
          "internalType": "uint256",
          "name": "",
          "type": "uint256"
        }
      ],
      "stateMutability": "view",
      "type": "function"
    },
    {
      "inputs": [],
      "name": "distributeFeePool",
      "outputs": [],
      "stateMutability": "nonpayable",
      "type": "function"
    },
    {
      "inputs": [],
      "name": "applyHandleUpdates",
      "outputs": [],
      "stateMutability": "nonpayable",
      "type": "function"
    },
    {
      "inputs": [],
      "name": "applyVotedFeeRate",
      "outputs": [],
      "stateMutability": "nonpayable",
      "type": "function"
    },
    {
      "inputs": [
        {
          "internalType": "uint256",
          "name": "_rate",
          "type": "uint256"
        }
      ],
      "name": "submitFeeRateVote",
      "outputs": [],
      "stateMutability": "nonpayable",
      "type": "function"
    },
    {
      "inputs": [],
      "name": "removeFeeRateVote",
      "outputs": [],
      "stateMutability": "nonpayable",
      "type": "function"
    },
    {
      "inputs": [
        {
          "internalType": "uint256[]",
          "name": "mainSet",
          "type": "uint256[]"
        },
        {
          "internalType": "uint256[]",
          "name": "subset",
          "type": "uint256[]"
        }
      ],
      "name": "isSubset",
      "outputs": [
        {
          "internalType": "bool",
          "name": "",
          "type": "bool"
        }
      ],
      "stateMutability": "pure",
      "type": "function"
    }
  ],
  "bytecode": "0x60a0604052600a600e55678ac7230489e80000600f55600f54601055600060115560006012556000601c556000601d556000601e556000601f55600060205560006021553480156200005057600080fd5b5060405162004a6038038062004a608339810160408190526200007391620001cc565b6a115eec47f6cf7e350000006040518060400160405280600a81526020016920b9b0b6b4aa37b5b2b760b11b815250604051806040016040528060058152602001644153414d4960d81b815250620000da620000d46200017860201b60201c565b6200017c565b6004620000e88382620002a3565b506005620000f78282620002a3565b505050600081116200014f5760405162461bcd60e51b815260206004820152601560248201527f45524332304361707065643a2063617020697320300000000000000000000000604482015260640160405180910390fd5b608052601580546001600160a01b0319166001600160a01b03929092169190911790556200036f565b3390565b600080546001600160a01b038381166001600160a01b0319831681178455604051919092169283917f8be0079c531659141344cd1fd0a4f28419497f9722a3daafe3b4186f6b6457e09190a35050565b600060208284031215620001df57600080fd5b81516001600160a01b0381168114620001f757600080fd5b9392505050565b634e487b7160e01b600052604160045260246000fd5b600181811c908216806200022957607f821691505b6020821081036200024a57634e487b7160e01b600052602260045260246000fd5b50919050565b601f8211156200029e57600081815260208120601f850160051c81016020861015620002795750805b601f850160051c820191505b818110156200029a5782815560010162000285565b5050505b505050565b81516001600160401b03811115620002bf57620002bf620001fe565b620002d781620002d0845462000214565b8462000250565b602080601f8311600181146200030f5760008415620002f65750858301515b600019600386901b1c1916600185901b1785556200029a565b600085815260208120601f198616915b8281101562000340578886015182559484019460019091019084016200031f565b50858210156200035f5787850151600019600388901b60f8161c191681555b5050505050600190811b01905550565b6080516146d56200038b6000396000610a8801526146d56000f3fe608060405234801561001057600080fd5b50600436106102eb5760003560e01c806306fdde03146102f0578063095ea7b31461030e578063141961bc146103315780631677aa3d1461035857806318160ddd1461036f57806318d9adab146103775780631aa4bf351461038a57806323b872dd1461039357806325076468146103a65780632a11ced0146103af57806330370ba0146103da578063313ce567146103fa57806333c24bd314610409578063355274ea1461041c57806339509351146104245780633ca75e5614610437578063402c51331461044c5780634259d8a21461045f57806346c33dd514610468578063479b563a1461047b5780634969a9691461048457806358cea7d21461048d5780635e613423146104a05780635fe8e7cc146104a9578063607c6402146104be5780636717d7a8146104c757806368841a46146104e75780636b6a4ad0146104f05780636f1c76171461051357806370a082311461051b578063715018a61461052e57806379dec48b146105365780637d98e20f1461053e5780637dfed63b1461056457806381d036f5146105885780638202c073146105c45780638b69633d146105d75780638da5cb5b146105ea5780638e1e6de2146105f25780639314b214146105fa57806395d89b411461060357806396cad0db1461060b578063978bbdb91461061e5780639938e929146106275780639dfceaaa1461063a578063a457c2d71461064d578063a9059cbb14610660578063ae2e933b14610673578063be26ed7f1461067c578063c08b8f3d14610684578063c4890d0514610697578063c4ac65b7146106a0578063c55b6bb7146106b3578063d0b0ce95146106c6578063d8c44f50146106ce578063dd62ed3e146106d6578063f1a12cbc146106e9578063f2a40db8146106f2578063f2fde38b14610759578063f7d975771461076c578063f851a4401461077f578063fdb265b014610792578063fdb4b822146107b8578063fee01177146107cb578063ff3f1886146107d3575b600080fd5b6102f86107db565b6040516103059190613494565b60405180910390f35b61032161031c3660046134ca565b61086d565b6040519015158152602001610305565b61034461033f3660046134f4565b610887565b604051610305989796959493929190613545565b610361601a5481565b604051908152602001610305565b600354610361565b6102f86103853660046134f4565b61096b565b610361601f5481565b6103216103a1366004613596565b610a17565b610361601c5481565b6103c26103bd3660046134f4565b610a3b565b6040516001600160a01b039091168152602001610305565b6103616103e83660046134f4565b600b6020526000908152604090205481565b60405160128152602001610305565b6103616104173660046134f4565b610a65565b610361610a86565b6103216104323660046134ca565b610aaa565b61044a61044536600461361d565b610acc565b005b61044a61045a3660046136a2565b610c38565b6213c680610361565b61044a61047636600461361d565b610e36565b61036160205481565b610361601e5481565b61044a61049b36600461361d565b610f46565b61036160105481565b6104b16110ad565b60405161030591906136d7565b610361600f5481565b6103616104d5366004613739565b60086020526000908152604090205481565b61036160125481565b6103216104fe366004613739565b60176020526000908152604090205460ff1681565b61044a611186565b610361610529366004613739565b6111be565b61044a6111d9565b6103616111ed565b61055161054c3660046134f4565b61120a565b6040516103059796959493929190613754565b6105776105723660046134f4565b6112e4565b604051610305959493929190613799565b6105af610596366004613739565b6013602052600090815260409020805460019091015482565b60408051928352602083019190915201610305565b61044a6105d23660046137cc565b6113b2565b6103216105e536600461390b565b61143b565b6103c26114d7565b61044a6114e6565b61036160115481565b6102f86116a0565b6019546103c2906001600160a01b031681565b610361600e5481565b61044a6106353660046136a2565b6116af565b61044a6106483660046134f4565b611ed9565b61032161065b3660046134ca565b611ffd565b61032161066e3660046134ca565b612078565b610361601b5481565b610361612086565b61044a61069236600461396e565b612095565b61036160215481565b61044a6106ae366004613990565b612141565b61044a6106c1366004613a01565b6121b8565b61044a6121ee565b61044a61238b565b6103616106e4366004613a01565b612394565b610361601d5481565b6107316107003660046134f4565b600760205260009081526040902080546001820154600283015460039093015491926001600160a01b039091169184565b604080519485526001600160a01b039093166020850152918301526060820152608001610305565b61044a610767366004613739565b6123bf565b61044a61077a36600461396e565b612438565b6018546103c2906001600160a01b031681565b6107a56107a03660046134f4565b6124c6565b6040516103059796959493929190613a34565b61044a6107c636600461361d565b61262c565b6104b1612761565b601a54610361565b6060600480546107ea90613a8c565b80601f016020809104026020016040519081016040528092919081815260200182805461081690613a8c565b80156108635780601f1061083857610100808354040283529160200191610863565b820191906000526020600020905b81548152906001019060200180831161084657829003601f168201915b5050505050905090565b60003361087b818585612831565b60019150505b92915050565b600c818154811061089757600080fd5b6000918252602090912060099091020180546001820154600283015460038401546004850154600586018054959750939560ff9093169491939092916108dc90613a8c565b80601f016020809104026020016040519081016040528092919081815260200182805461090890613a8c565b80156109555780601f1061092a57610100808354040283529160200191610955565b820191906000526020600020905b81548152906001019060200180831161093857829003601f168201915b5050505050908060060154908060080154905088565b6014818154811061097b57600080fd5b90600052602060002001600091509050805461099690613a8c565b80601f01602080910402602001604051908101604052809291908181526020018280546109c290613a8c565b8015610a0f5780601f106109e457610100808354040283529160200191610a0f565b820191906000526020600020905b8154815290600101906020018083116109f257829003601f168201915b505050505081565b600033610a25858285612955565b610a308585856129c9565b506001949350505050565b60168181548110610a4b57600080fd5b6000918252602090912001546001600160a01b0316905081565b60068181548110610a7557600080fd5b600091825260209091200154905081565b7f000000000000000000000000000000000000000000000000000000000000000090565b60003361087b818585610abd8383612394565b610ac79190613ad6565b612831565b60005b81811015610c33576000600c6001858585818110610aef57610aef613ae9565b90506020020135610b009190613aff565b81548110610b1057610b10613ae9565b906000526020600020906009020190506000816000015411610b3157600080fd5b6000816004015411610b4257600080fd5b42816008015410610b5257600080fd5b6001808201546000908152600760205260409081902060155492810154600480860154935163a9059cbb60e01b815292946001600160a01b039081169463a9059cbb94610ba59490921692909101613b12565b6020604051808303816000875af1158015610bc4573d6000803e3d6000fd5b505050506040513d601f19601f82011682018060405250810190610be89190613b2b565b610bf157600080fd5b6000600483015560405160008051602061460083398151915290610c16908490613c0a565b60405180910390a150508080610c2b90613ca5565b915050610acf565b505050565b6018546001600160a01b0316331480610c695750610c546114d7565b6001600160a01b0316336001600160a01b0316145b610c7257600080fd5b60005b81811015610c335736838383818110610c9057610c90613ae9565b9050604002019050610ca58160000135612b6d565b8035600090815260076020526040902060018101546001600160a01b031615610ccd57600080fd5b813560086000610ce36040860160208701613739565b6001600160a01b03166001600160a01b0316815260200190815260200160002081905550816020016020810190610d1a9190613739565b6001820180546001600160a01b0319166001600160a01b0392909216919091179055600281015415610d6b57610d63610d596040840160208501613739565b8260020154612bc4565b600060028201555b600381015415610dfc576015546001820154600383015460405163a9059cbb60e01b81526001600160a01b039384169363a9059cbb93610db093911691600401613b12565b6020604051808303816000875af1158015610dcf573d6000803e3d6000fd5b505050506040513d601f19601f82011682018060405250810190610df39190613b2b565b50600060038201555b60008051602061466083398151915281604051610e199190613cbe565b60405180910390a150508080610e2e90613ca5565b915050610c75565b3360009081526008602090815260408083205483526007909152902060018101546001600160a01b0316610e6957600080fd5b60005b82811015610f40576000848483818110610e8857610e88613ae9565b9050602002810190610e9a9190613d46565b610ea390613e8a565b9050610f2d83604051806101200160405280600c805490506001610ec79190613ad6565b81528654602082015284516040909101906004811115610ee957610ee961350d565b815260200184602001518152602001846020015181526020018460400151815260200184606001518152602001846080015181526020018460a00151815250612c07565b5080610f3881613ca5565b915050610e6c565b50505050565b6018546001600160a01b0316331480610f775750610f626114d7565b6001600160a01b0316336001600160a01b0316145b610f8057600080fd5b60005b81811015610c33576000838383818110610f9f57610f9f613ae9565b9050602002810190610fb19190613e96565b610fba90613eac565b9050610fc98160000151612b6d565b8051600090815260076020526040902060018101546001600160a01b031615610ff157600080fd5b61109881604051806101200160405280600c8054905060016110139190613ad6565b815260200184600001548152602001856020015160000151600481111561103c5761103c61350d565b815260200185602001516020015181526020018560200151602001518152602001856020015160400151815260200185602001516060015181526020018560200151608001518152602001856020015160a00151815250612c07565b505080806110a590613ca5565b915050610f83565b60606014805480602002602001604051908101604052809291908181526020016000905b8282101561117d5783829060005260206000200180546110f090613a8c565b80601f016020809104026020016040519081016040528092919081815260200182805461111c90613a8c565b80156111695780601f1061113e57610100808354040283529160200191611169565b820191906000526020600020905b81548152906001019060200180831161114c57829003601f168201915b5050505050815260200190600101906110d1565b50505050905090565b6000611190612086565b905060125481036111a057600080fd5b670de0b6b3a76400006010546111b69190613f16565b600e55601255565b6001600160a01b031660009081526001602052604090205490565b6111e1612e07565b6111eb6000612e66565b565b60006213c6806111fb612086565b6112059190613ad6565b905090565b600d818154811061121a57600080fd5b906000526020600020906007020160009150905080600001549080600101549080600201549080600301549080600401549080600501805461125b90613a8c565b80601f016020809104026020016040519081016040528092919081815260200182805461128790613a8c565b80156112d45780601f106112a9576101008083540402835291602001916112d4565b820191906000526020600020905b8154815290600101906020018083116112b757829003601f168201915b5050505050908060060154905087565b600a81815481106112f457600080fd5b906000526020600020906006020160009150905080600001549080600101549080600201805461132390613a8c565b80601f016020809104026020016040519081016040528092919081815260200182805461134f90613a8c565b801561139c5780601f106113715761010080835404028352916020019161139c565b820191906000526020600020905b81548152906001019060200180831161137f57829003601f168201915b5050505050908060030154908060040154905085565b6018546001600160a01b03163314806113e357506113ce6114d7565b6001600160a01b0316336001600160a01b0316145b6113ec57600080fd5b60006113f785612eb6565b60048101859055905061140e6005820184846132b0565b506000805160206146208339815191528160405161142c9190613f38565b60405180910390a15050505050565b6000805b82518110156114cd576000805b85518110156114a95785818151811061146757611467613ae9565b602002602001015185848151811061148157611481613ae9565b60200260200101510361149757600191506114a9565b806114a181613ca5565b91505061144c565b50806114ba57600092505050610881565b50806114c581613ca5565b91505061143f565b5060019392505050565b6000546001600160a01b031690565b601f5460000361151957600a546020819055601f556000611505612086565b9050602154810361151557600080fd5b6021555b6000601f5460205461152b9190613aff565b9050600060205482606461153f9190613ad6565b111561154d57602054611558565b611558826064613ad6565b9050815b8181101561166e576000600a828154811061157957611579613ae9565b90600052602060002090600602019050600060096001836001015461159e9190613aff565b815481106115ae576115ae613ae9565b9060005260206000209060080201905060008260020180546115cf90613a8c565b905011156115ea57600681016115e86002840182613ffd565b505b6003820154156115ff57600380830154908201555b60048201541561161457600480830154908201555b600582015415611634576005808301805461163292840191906132fb565b505b6000805160206146408339815191528160405161165191906140d3565b60405180910390a15050808061166690613ca5565b91505061155c565b5080601f60008282546116819190613aff565b9091555050601f5460000361169c5761169c600a600061333b565b5050565b6060600580546107ea90613a8c565b6018546001600160a01b03163314806116e057506116cb6114d7565b6001600160a01b0316336001600160a01b0316145b6116e957600080fd5b60005b81811015610c335760006009600185858581811061170c5761170c613ae9565b905060400201602001356117209190613aff565b8154811061173057611730613ae9565b90600052602060002090600802019050600081600001541161177d5760405162461bcd60e51b81526020600482015260016024820152603160f81b60448201526064015b60405180910390fd5b600180820154600090815260076020526040812091600c908787878181106117a7576117a7613ae9565b905060400201600001356117bb9190613aff565b815481106117cb576117cb613ae9565b9060005260206000209060090201905060008160000154116118135760405162461bcd60e51b81526020600482015260016024820152603360f81b6044820152606401611774565b4281600801541161184a5760405162461bcd60e51b81526020600482015260016024820152600d60fa1b6044820152606401611774565b6118f88360050180548060200260200160405190810160405280929190818152602001828054801561189b57602002820191906000526020600020905b815481526020019060010190808311611887575b5050505050826007018054806020026020016040519081016040528092919081815260200182805480156118ee57602002820191906000526020600020905b8154815260200190600101908083116118da575b505050505061143b565b6119285760405162461bcd60e51b81526020600482015260016024820152603560f81b6044820152606401611774565b8260030154816004015410156119645760405162461bcd60e51b81526020600482015260016024820152601b60f91b6044820152606401611774565b600283015460ff16600481111561197d5761197d61350d565b600282015460ff1660048111156119965761199661350d565b146119c75760405162461bcd60e51b81526020600482015260016024820152603760f81b6044820152606401611774565b8060060154836004015484600301546119e09190613f16565b1115611a125760405162461bcd60e51b81526020600482015260016024820152600760fb1b6044820152606401611774565b600181015460009081526007602052604081206003850154600e5491929091606490611a3e9084614170565b611a489190613f16565b90506000611a568284613aff565b905060006040518060e00160405280600d805490506001611a779190613ad6565b8152895460208083019190915288546040808401919091526060808401899052608080850189905282518085018452600080825260a0808801929092524260c090970196909652600d80546001810182559652865160079096027fd7b6990105719101dabeb77144f2a3385c8033acd3af97e9423a695e81ad1eb58101968755948701517fd7b6990105719101dabeb77144f2a3385c8033acd3af97e9423a695e81ad1eb6860155928601517fd7b6990105719101dabeb77144f2a3385c8033acd3af97e9423a695e81ad1eb7850155908501517fd7b6990105719101dabeb77144f2a3385c8033acd3af97e9423a695e81ad1eb88401558401517fd7b6990105719101dabeb77144f2a3385c8033acd3af97e9423a695e81ad1eb983015583015192935083927fd7b6990105719101dabeb77144f2a3385c8033acd3af97e9423a695e81ad1eba90910190611bcd9082614187565b5060c09190910151600691820155815190880180546001810182556000918252602082200191909155600487018054869290611c0a908490613aff565b9250508190555082601b6000828254611c239190613ad6565b9091555050601a54600090611c36610a86565b611c409190613aff565b90506000818511611c515784611c53565b815b905080601a6000828254611c679190613ad6565b90915550600090506064611c7c83600a614170565b611c869190613f16565b905060006064611c9784600f614170565b611ca19190613f16565b9050600081611cb08486613aff565b611cba9190613aff565b90508015611cd857601954611cd8906001600160a01b031682612bc4565b60018c01546001600160a01b0316611d4e578115611d0a57818c6002016000828254611d049190613ad6565b90915550505b868c6003016000828254611d1e9190613ad6565b909155505060405160008051602061466083398151915290611d41908e90613cbe565b60405180910390a1611de9565b8115611d6c5760018c0154611d6c906001600160a01b031683612bc4565b60155460018d015460405163a9059cbb60e01b81526001600160a01b039283169263a9059cbb92611da4929116908b90600401613b12565b6020604051808303816000875af1158015611dc3573d6000803e3d6000fd5b505050506040513d601f19601f82011682018060405250810190611de79190613b2b565b505b8215611e5d5760018a01546001600160a01b0316611e4557828a6002016000828254611e159190613ad6565b909155505060405160008051602061466083398151915290611e38908c90613cbe565b60405180910390a1611e5d565b60018a0154611e5d906001600160a01b031684612bc4565b7f163f215ebbfd927d87234e39d082b1b03b551dadbca611aab6568ee11a75e8d786604051611e8c919061423e565b60405180910390a16000805160206146008339815191528b604051611eb19190613c0a565b60405180910390a1505050505050505050505050508080611ed190613ca5565b9150506116ec565b600081118015611ee95750606481105b611f1e5760405162461bcd60e51b815260206004820152600660248201526507366727620360d41b6044820152606401611774565b6000611f3282670de0b6b3a7640000614170565b33600090815260136020526040902080549192509015611f5557611f5533612f86565b6000611f60336111be565b905060008111611f9b5760405162461bcd60e51b815260206004820152600660248201526573667276203160d01b6044820152606401611774565b80601154611fa99190613ad6565b611fb38483614170565b601154601054611fc39190614170565b611fcd9190613ad6565b611fd79190613f16565b6010819055508060116000828254611fef9190613ad6565b909155505081556001015550565b6000338161200b8286612394565b90508381101561206b5760405162461bcd60e51b815260206004820152602560248201527f45524332303a2064656372656173656420616c6c6f77616e63652062656c6f77604482015264207a65726f60d81b6064820152608401611774565b610a308286868403612831565b60003361087b8185856129c9565b60006112056213c68042613f16565b6018546001600160a01b03163314806120c657506120b16114d7565b6001600160a01b0316336001600160a01b0316145b6120cf57600080fd5b600060096120de600185613aff565b815481106120ee576120ee613ae9565b6000918252602080832060016008909302018281015484526007909152604090922090810154919250906001600160a01b031615801561212e5750805415155b61213757600080fd5b610f408284613080565b6018546001600160a01b0316331480612172575061215d6114d7565b6001600160a01b0316336001600160a01b0316145b61217b57600080fd5b601480546001810182556000919091527fce6d7b5282bd9a3661ae061feed1dbda4e52ab073b1f9285be6e155d9c38d4ec01610c338284836142a3565b6121c0612e07565b601880546001600160a01b039384166001600160a01b03199182161790915560198054929093169116179055565b60006121f960035490565b9050601c5460000361222e57601654601d819055601c55600061221a612086565b9050601e54810361222a57600080fd5b601e555b6000601c54601d546122409190613aff565b90506000601c548260646122549190613ad6565b111561226257601c5461226d565b61226d826064613ad6565b9050815b8181101561235f5760006016828154811061228e5761228e613ae9565b60009182526020822001546001600160a01b031691506122ad826111be565b9050600086601b54836122c09190614170565b6122ca9190613f16565b60155460405163a9059cbb60e01b81529192506001600160a01b03169063a9059cbb906122fd9086908590600401613b12565b6020604051808303816000875af115801561231c573d6000803e3d6000fd5b505050506040513d601f19601f820116820180604052508101906123409190613b2b565b61234957600080fd5b505050808061235790613ca5565b915050612271565b5080601c60008282546123729190613aff565b9091555050601c54600003610c33576000601b55505050565b6111eb33612f86565b6001600160a01b03918216600090815260026020908152604080832093909416825291909152205490565b6123c7612e07565b6001600160a01b03811661242c5760405162461bcd60e51b815260206004820152602660248201527f4f776e61626c653a206e6577206f776e657220697320746865207a65726f206160448201526564647265737360d01b6064820152608401611774565b61243581612e66565b50565b3360009081526008602090815260408083205483526007909152902060018101546001600160a01b031661246b57600080fd5b6000600961247a600186613aff565b8154811061248a5761248a613ae9565b9060005260206000209060080201905060008160000154116124ab57600080fd5b81546001820154146124bc57600080fd5b610f408184613080565b600981815481106124d657600080fd5b6000918252602090912060089091020180546001820154600283015460038401546004850154600686018054959750939560ff90931694919390929161251b90613a8c565b80601f016020809104026020016040519081016040528092919081815260200182805461254790613a8c565b80156125945780601f1061256957610100808354040283529160200191612594565b820191906000526020600020905b81548152906001019060200180831161257757829003601f168201915b5050505050908060070180546125a990613a8c565b80601f01602080910402602001604051908101604052809291908181526020018280546125d590613a8c565b80156126225780601f106125f757610100808354040283529160200191612622565b820191906000526020600020905b81548152906001019060200180831161260557829003601f168201915b5050505050905087565b6018546001600160a01b031633148061265d57506126486114d7565b6001600160a01b0316336001600160a01b0316145b61266657600080fd5b60005b81811015610c33576126a183838381811061268657612686613ae9565b9050602002810190612698919061435c565b60200135612b6d565b60098383838181106126b5576126b5613ae9565b90506020028101906126c7919061435c565b8154600181018355600092835260209092209091600802016126e98282614484565b505060098054600091906126ff90600190613aff565b8154811061270f5761270f613ae9565b60009182526020909120600954600890920201908155604051909150600080516020614640833981519152906127469083906140d3565b60405180910390a1508061275981613ca5565b915050612669565b60606014805480602002602001604051908101604052809291908181526020016000905b8282101561117d5783829060005260206000200180546127a490613a8c565b80601f01602080910402602001604051908101604052809291908181526020018280546127d090613a8c565b801561281d5780601f106127f25761010080835404028352916020019161281d565b820191906000526020600020905b81548152906001019060200180831161280057829003601f168201915b505050505081526020019060010190612785565b6001600160a01b0383166128935760405162461bcd60e51b8152602060048201526024808201527f45524332303a20617070726f76652066726f6d20746865207a65726f206164646044820152637265737360e01b6064820152608401611774565b6001600160a01b0382166128f45760405162461bcd60e51b815260206004820152602260248201527f45524332303a20617070726f766520746f20746865207a65726f206164647265604482015261737360f01b6064820152608401611774565b6001600160a01b0383811660008181526002602090815260408083209487168084529482529182902085905590518481527f8c5be1e5ebec7d5bd14f71427d1e84f3dd0314c0f7b2291e5b200ac8c7c3b925910160405180910390a3505050565b60006129618484612394565b90506000198114610f4057818110156129bc5760405162461bcd60e51b815260206004820152601d60248201527f45524332303a20696e73756666696369656e7420616c6c6f77616e63650000006044820152606401611774565b610f408484848403612831565b6001600160a01b038316612a2d5760405162461bcd60e51b815260206004820152602560248201527f45524332303a207472616e736665722066726f6d20746865207a65726f206164604482015264647265737360d81b6064820152608401611774565b6001600160a01b038216612a8f5760405162461bcd60e51b815260206004820152602360248201527f45524332303a207472616e7366657220746f20746865207a65726f206164647260448201526265737360e81b6064820152608401611774565b612a9a8383836130d1565b6001600160a01b03831660009081526001602052604090205481811015612b125760405162461bcd60e51b815260206004820152602660248201527f45524332303a207472616e7366657220616d6f756e7420657863656564732062604482015265616c616e636560d01b6064820152608401611774565b6001600160a01b03808516600081815260016020526040808220868603905592861680825290839020805486019055915160008051602061468083398151915290612b609086815260200190565b60405180910390a3610f40565b60008181526007602052604081205490036124355760008181526007602052604081208290556006805460018101825591527ff652222313e28459528d920b65115c16c04f3efc82aaedc97be59f3f377c0d3f0155565b601c5415612bfd5760405162461bcd60e51b8152600401611774906020808252600490820152630534d20360e41b604082015260600190565b61169c828261318a565b6000816060015111612c1857600080fd5b60008160a001515111612c2a57600080fd5b60155460608201516040516323b872dd60e01b815233600482015230602482015260448101919091526001600160a01b03909116906323b872dd906064016020604051808303816000875af1158015612c87573d6000803e3d6000fd5b505050506040513d601f19601f82011682018060405250810190612cab9190613b2b565b612cb457600080fd5b600c805460018181018355600092909252825160099091027fdf6966c971051c3d54ec59162606531493a51404a002842f56009d7e5cf4a8c7810191825560208401517fdf6966c971051c3d54ec59162606531493a51404a002842f56009d7e5cf4a8c882015560408401517fdf6966c971051c3d54ec59162606531493a51404a002842f56009d7e5cf4a8c99091018054859460ff1990911690836004811115612d6157612d6161350d565b0217905550606082015160038201556080820151600482015560a08201516005820190612d8e9082614187565b5060c0820151600682015560e08201518051612db491600784019160209091019061335c565b506101009190910151600890910155805160058301805460018101825560009182526020909120015560405160008051602061460083398151915290612dfb90839061456c565b60405180910390a15050565b33612e106114d7565b6001600160a01b0316146111eb5760405162461bcd60e51b815260206004820181905260248201527f4f776e61626c653a2063616c6c6572206973206e6f7420746865206f776e65726044820152606401611774565b600080546001600160a01b038381166001600160a01b0319831681178455604051919092169283917f8be0079c531659141344cd1fd0a4f28419497f9722a3daafe3b4186f6b6457e09190a35050565b6000601f54600014612ec757600080fd5b6000828152600b60205260409020548015612f0f57600a612ee9600183613aff565b81548110612ef957612ef9613ae9565b9060005260206000209060060201915050919050565b5050600a805460018101918290556006027fc65a7bb8d6351c1cf70c95a316cc6a92839c986682d98bc35f958f4883f9d2a881018281557fc65a7bb8d6351c1cf70c95a316cc6a92839c986682d98bc35f958f4883f9d2a99091018390556000928352600b60205260409092205590565b50919050565b6001600160a01b03811660009081526013602052604090208054612fd55760405162461bcd60e51b815260206004820152600660248201526507266727620360d41b6044820152606401611774565b8054601154600091612fe691613aff565b90506000601154601054612ffa9190614170565b90506000836001015484600001546130129190614170565b9050600081831161302457600061302e565b61302e8284613aff565b9050831561304d576130408482613f16565b6010556011849055613059565b600f5460105560006011555b5050506001600160a01b039092166000908152601360205260408120818155600101555050565b6000811161308d57600080fd5b600061309c8360000154612eb6565b9050818160030181905550600080516020614620833981519152816040516130c49190613f38565b60405180910390a1505050565b6001600160a01b03821660009081526017602052604090205460ff161580156130fa5750600081115b15613163576016805460018082019092557fd833147d7dc355ba459fc788f669e58cfaf9dc25ddcd0702e87d69c7b51242890180546001600160a01b0319166001600160a01b0385169081179091556000908152601760205260409020805460ff191690911790555b6001600160a01b03831660009081526013602052604090205415610c3357610c3383612f86565b613192610a86565b8161319c60035490565b6131a69190613ad6565b11156131f05760405162461bcd60e51b8152602060048201526019602482015278115490cc8c10d85c1c19590e8818d85c08195e18d959591959603a1b6044820152606401611774565b61169c82826001600160a01b03821661324b5760405162461bcd60e51b815260206004820152601f60248201527f45524332303a206d696e7420746f20746865207a65726f2061646472657373006044820152606401611774565b613257600083836130d1565b80600360008282546132699190613ad6565b90915550506001600160a01b038216600081815260016020908152604080832080548601905551848152600080516020614680833981519152910160405180910390a35050565b8280548282559060005260206000209081019282156132eb579160200282015b828111156132eb5782358255916020019190600101906132d0565b506132f7929150613397565b5090565b8280548282559060005260206000209081019282156132eb5760005260206000209182015b828111156132eb578254825591600101919060010190613320565b508054600082556006029060005260206000209081019061243591906133ac565b8280548282559060005260206000209081019282156132eb579160200282015b828111156132eb57825182559160200191906001019061337c565b5b808211156132f75760008155600101613398565b808211156132f7576000808255600182018190556133cd60028301826133f6565b600382016000905560048201600090556005820160006133ed9190613430565b506006016133ac565b50805461340290613a8c565b6000825580601f10613412575050565b601f0160209004906000526020600020908101906124359190613397565b50805460008255906000526020600020908101906124359190613397565b6000815180845260005b8181101561347457602081850181015186830182015201613458565b506000602082860101526020601f19601f83011685010191505092915050565b6020815260006134a7602083018461344e565b9392505050565b80356001600160a01b03811681146134c557600080fd5b919050565b600080604083850312156134dd57600080fd5b6134e6836134ae565b946020939093013593505050565b60006020828403121561350657600080fd5b5035919050565b634e487b7160e01b600052602160045260246000fd5b6005811061354157634e487b7160e01b600052602160045260246000fd5b9052565b60006101008a8352896020840152613560604084018a613523565b8760608401528660808401528060a084015261357e8184018761344e565b60c0840195909552505060e001529695505050505050565b6000806000606084860312156135ab57600080fd5b6135b4846134ae565b92506135c2602085016134ae565b9150604084013590509250925092565b60008083601f8401126135e457600080fd5b5081356001600160401b038111156135fb57600080fd5b6020830191508360208260051b850101111561361657600080fd5b9250929050565b6000806020838503121561363057600080fd5b82356001600160401b0381111561364657600080fd5b613652858286016135d2565b90969095509350505050565b60008083601f84011261367057600080fd5b5081356001600160401b0381111561368757600080fd5b6020830191508360208260061b850101111561361657600080fd5b600080602083850312156136b557600080fd5b82356001600160401b038111156136cb57600080fd5b6136528582860161365e565b6000602080830181845280855180835260408601915060408160051b870101925083870160005b8281101561372c57603f1988860301845261371a85835161344e565b945092850192908501906001016136fe565b5092979650505050505050565b60006020828403121561374b57600080fd5b6134a7826134ae565b87815286602082015285604082015284606082015283608082015260e060a0820152600061378560e083018561344e565b90508260c083015298975050505050505050565b85815284602082015260a0604082015260006137b860a083018661344e565b606083019490945250608001529392505050565b600080600080606085870312156137e257600080fd5b843593506020850135925060408501356001600160401b0381111561380657600080fd5b613812878288016135d2565b95989497509550505050565b634e487b7160e01b600052604160045260246000fd5b60405160c081016001600160401b03811182821017156138565761385661381e565b60405290565b604051601f8201601f191681016001600160401b03811182821017156138845761388461381e565b604052919050565b600082601f83011261389d57600080fd5b813560206001600160401b038211156138b8576138b861381e565b8160051b6138c782820161385c565b92835284810182019282810190878511156138e157600080fd5b83870192505b84831015613900578235825291830191908301906138e7565b979650505050505050565b6000806040838503121561391e57600080fd5b82356001600160401b038082111561393557600080fd5b6139418683870161388c565b9350602085013591508082111561395757600080fd5b506139648582860161388c565b9150509250929050565b6000806040838503121561398157600080fd5b50508035926020909101359150565b600080602083850312156139a357600080fd5b82356001600160401b03808211156139ba57600080fd5b818501915085601f8301126139ce57600080fd5b8135818111156139dd57600080fd5b8660208285010111156139ef57600080fd5b60209290920196919550909350505050565b60008060408385031215613a1457600080fd5b613a1d836134ae565b9150613a2b602084016134ae565b90509250929050565b878152866020820152613a4a6040820187613523565b84606082015283608082015260e060a08201526000613a6c60e083018561344e565b82810360c0840152613a7e818561344e565b9a9950505050505050505050565b600181811c90821680613aa057607f821691505b602082108103612f8057634e487b7160e01b600052602260045260246000fd5b634e487b7160e01b600052601160045260246000fd5b8082018082111561088157610881613ac0565b634e487b7160e01b600052603260045260246000fd5b8181038181111561088157610881613ac0565b6001600160a01b03929092168252602082015260400190565b600060208284031215613b3d57600080fd5b815180151581146134a757600080fd5b60008154613b5a81613a8c565b808552602060018381168015613b775760018114613b9157613bbf565b60ff1985168884015283151560051b880183019550613bbf565b866000528260002060005b85811015613bb75781548a8201860152908301908401613b9c565b890184019650505b505050505092915050565b6000815480845260208085019450836000528060002060005b83811015613bff57815487529582019560019182019101613be3565b509495945050505050565b6020815281546020820152600182015460408201526000613c2f600284015460ff1690565b613c3c6060840182613523565b5060038301546080830152600483015460a08301526101208060c0840152613c6b610140840160058601613b4d565b600685015460e0850152838103601f1901610100850152613c8f8160078701613bca565b9050600885015482850152809250505092915050565b600060018201613cb757613cb7613ac0565b5060010190565b602080825282549082015260018201546001600160a01b03166040820152600282015460608201526003820154608082015260e060a08201526000613d0a610100830160048501613bca565b601f19808483030160c0850152613d248260058701613bca565b9150808483030160e085015250613d3e8160068601613bca565b949350505050565b6000823560be19833603018112613d5c57600080fd5b9190910192915050565b6005811061243557600080fd5b80356134c581613d66565b600082601f830112613d8f57600080fd5b81356001600160401b03811115613da857613da861381e565b613dbb601f8201601f191660200161385c565b818152846020838601011115613dd057600080fd5b816020850160208301376000918101602001919091529392505050565b600060c08284031215613dff57600080fd5b613e07613834565b9050613e1282613d73565b81526020828101359082015260408201356001600160401b0380821115613e3857600080fd5b613e4485838601613d7e565b6040840152606084013560608401526080840135915080821115613e6757600080fd5b50613e748482850161388c565b60808301525060a082013560a082015292915050565b60006108813683613ded565b60008235603e19833603018112613d5c57600080fd5b600060408236031215613ebe57600080fd5b604080519081016001600160401b038082118383101715613ee157613ee161381e565b81604052843583526020850135915080821115613efd57600080fd5b50613f0a36828601613ded565b60208301525092915050565b600082613f3357634e487b7160e01b600052601260045260246000fd5b500490565b60208152815460208201526001820154604082015260c060608201526000613f6660e0830160028501613b4d565b60038401546080840152600484015460a0840152828103601f190160c0840152613d3e8160058601613bca565b5b8181101561169c5760008155600101613f94565b601f821115610c3357806000526020600020601f840160051c81016020851015613fcf5750805b613fe1601f850160051c830182613f93565b5050505050565b600019600383901b1c191660019190911b1790565b818103614008575050565b6140128254613a8c565b6001600160401b038111156140295761402961381e565b61403d816140378454613a8c565b84613fa8565b6000601f82116001811461406b57600083156140595750848201545b6140638482613fe8565b855550613fe1565b600085815260209020601f19841690600086815260209020845b838110156140a55782860154825560019586019590910190602001614085565b50858310156140c35781850154600019600388901b60f8161c191681555b5050505050600190811b01905550565b60208152815460208201526001820154604082015260006140f8600284015460ff1690565b6141056060840182613523565b5060038301546080830152600483015460a08301526101008060c0840152614134610120840160058601613bca565b601f19808583030160e086015261414e8260068801613b4d565b9150808583030183860152506141678160078701613b4d565b95945050505050565b808202811582820484141761088157610881613ac0565b81516001600160401b038111156141a0576141a061381e565b6141ae816140378454613a8c565b602080601f8311600181146141dd57600084156141cb5750858301515b6141d58582613fe8565b865550614236565b600085815260208120601f198616915b8281101561420c578886015182559484019460019091019084016141ed565b508582101561422a5787850151600019600388901b60f8161c191681555b505060018460011b0185555b505050505050565b6020815281516020820152602082015160408201526040820151606082015260608201516080820152608082015160a0820152600060a083015160e060c084015261428d61010084018261344e565b905060c084015160e08401528091505092915050565b6001600160401b038311156142ba576142ba61381e565b6142ce836142c88354613a8c565b83613fa8565b6000601f8411600181146142fc57600085156142ea5750838201355b6142f48682613fe8565b845550613fe1565b600083815260209020601f19861690835b8281101561432d578685013582556020948501946001909201910161430d565b508682101561434a5760001960f88860031b161c19848701351681555b505060018560011b0183555050505050565b6000823560fe19833603018112613d5c57600080fd5b6000808335601e1984360301811261438957600080fd5b8301803591506001600160401b038211156143a357600080fd5b6020019150600581901b360382131561361657600080fd5b6001600160401b038311156143d2576143d261381e565b600160401b8311156143e6576143e661381e565b80548382558084101561440c5781600052602060002061440a828201868301613f93565b505b50818160005260208060002060005b86811015614435578335828201559282019260010161441b565b50505050505050565b6000808335601e1984360301811261445557600080fd5b8301803591506001600160401b0382111561446f57600080fd5b60200191503681900382131561361657600080fd5b81358155602082013560018201556002810160408301356144a481613d66565b600581106144c257634e487b7160e01b600052602160045260246000fd5b60ff1982541660ff82168117835550505060608201356003820155608082013560048201556144f460a0830183614372565b6145028183600586016143bb565b505061451160c083018361443e565b61451f8183600686016142a3565b505061452e60e083018361443e565b610f408183600786016142a3565b600081518084526020808501945080840160005b83811015613bff57815187529582019590820190600101614550565b602081528151602082015260208201516040820152600060408301516145956060840182613523565b5060608301516080830152608083015160a083015260a08301516101208060c08501526145c661014085018361344e565b915060c085015160e085015260e0850151610100601f1986850301818701526145ef848361453c565b960151919094015250919291505056fe988cbfdf9710a9b89faec272f5e449b4eb56c67d8b31a40c3eec1f6b6cc544af5fec2c3deda50104f2a05317dee057b5944c230a7ccc2c95ed3b4f5c064d8e5dedd5439ee2c38625cd5c8112e1cf787e9018e2d495cde02f0c9414216bfc9282e1ab017037dfdbe8aeea88ca10733a62fe91b3791c7ab2f30b54a9e2a0b0d319ddf252ad1be2c89b69c2b068fc378daa952ba7f163c4a11628f55a4df523b3efa2646970667358221220f0c18bb41ea1df953ea6eadc8d2190ad60fb0b8665a2e7d63ac753069d2c4c1b64736f6c63430008130033",
  "immutableReferences": {
    "785": [
      {
        "length": 32,
        "start": 2696
      }
    ]
  },
  "source": "// SPDX-License-Identifier: MIT\npragma solidity ^0.8.9;\nimport \"@openzeppelin/contracts/access/Ownable.sol\";\nimport \"@openzeppelin/contracts/token/ERC20/extensions/ERC20Capped.sol\";\n\ncontract Asami is Ownable, ERC20Capped {\n  enum Site { X, Instagram, LinkedIn, Facebook, Nostr}\n\n  struct Account {\n    uint256 id;\n    address addr;\n    uint256 unclaimedAsamiTokens;\n    uint256 unclaimedDocRewards;\n    uint256[] handles;\n    uint256[] campaigns;\n    uint256[] collabs;\n  }\n  uint256[] public accountIds;\n  mapping(uint256 => Account) public accounts;\n  mapping(address => uint256) public accountIdByAddress;\n  event AccountSaved(Account account);\n\n  struct Handle {\n    uint256 id;\n    uint256 accountId;\n    Site site;\n    uint256 price;\n    uint256 score;\n    uint256[] topics;\n    string username;\n    string userId;\n  }\n  Handle[] public handles;\n  event HandleSaved(Handle handle);\n\n  struct HandleUpdate {\n    uint256 id;\n    uint256 handleId;\n    string username;\n    uint256 price;\n    uint256 score;\n    uint256[] topics;\n  }\n  HandleUpdate[] public handleUpdates;\n  mapping(uint256 => uint256) public handleUpdateByHandleId;\n  event HandleUpdateSaved(HandleUpdate handleUpdate);\n\n  struct Campaign {\n    uint256 id;\n    uint256 accountId;\n    Site site;\n    uint256 budget;\n    uint256 remaining;\n    string contentId;\n    uint256 priceScoreRatio;\n    uint256[] topics;\n    uint256 validUntil;\n  }\n  Campaign[] public campaigns;\n  event CampaignSaved(Campaign campaign);\n\n  struct Collab {\n    uint256 id;\n    uint256 handleId;\n    uint256 campaignId;\n    uint256 gross;\n    uint256 fee;\n    string proof;\n    uint256 createdAt;\n  }\n  Collab[] public collabs;\n  event CollabSaved(Collab collab);\n\n  uint256 public feeRate = 10; // It's a percentage.\n  uint256 public defaultVotedFeeRate = 10 * 1e18;\n  uint256 public votedFeeRate = defaultVotedFeeRate;\n  uint256 public votedFeeRateVoteCount = 0;\n  /* To make the protocol more predictable, changes are applied only once every period */\n  uint256 public lastVotedFeeRateAppliedOn = 0;\n\n  struct FeeRateVote {\n    uint256 votes;\n    uint256 rate;\n  }\n  mapping(address => FeeRateVote) public feeRateVotes;\n\n  string[] public topics;\n\n  IERC20 internal doc;\n  address[] public holders;\n  mapping(address => bool) public trackedHolders;\n\n  address public admin; // An address that may be stored on a server.\n  address public adminTreasury; // A cold storage address for admin money.\n\n  uint256 public claimedAsamiTokens;\n\n  modifier onlyAdmin() {\n    require(msg.sender == admin || msg.sender == owner());\n    _;\n  }\n\n  constructor(address _dollarOnChainAddress) ERC20(\"AsamiToken\", \"ASAMI\") ERC20Capped(21 * 1e24) {\n    doc = IERC20(_dollarOnChainAddress);\n  }\n\n  function _beforeTokenTransfer(address from, address to, uint256 amount) internal override {\n    super._beforeTokenTransfer(from, to, amount);\n    if (!trackedHolders[to] && amount > 0) {\n      holders.push(to);\n      trackedHolders[to] = true;\n    }\n\n    if (feeRateVotes[from].votes > 0) { removeFeeRateVoteHelper(from); }\n  }\n\n  function setAdmin(address _admin, address _adminTreasury) external onlyOwner {\n    admin = _admin;\n    adminTreasury = _adminTreasury;\n  }\n\n  function getHolders() public view returns (string[] memory) {\n    return topics;\n  }\n\n  function getClaimedAsamiTokens() public view returns (uint256) {\n    return claimedAsamiTokens;\n  }\n\n  function getTopics() public view returns (string[] memory) {\n    return topics;\n  }\n\n  function addTopic(string calldata _name) public onlyAdmin {\n    topics.push(_name);\n  }\n\n  function ensureAccount(uint256 _accountId) private {\n    if(accounts[_accountId].id == 0) {\n      accounts[_accountId].id = _accountId;\n      accountIds.push(_accountId);\n    }\n  }\n\n  struct AdminClaimAccountsInput {\n    uint256 accountId;\n    address addr;\n  }\n\n  function claimAccounts (\n    AdminClaimAccountsInput[] calldata _input\n  ) public onlyAdmin {\n    for( uint256 i = 0; i < _input.length; i++) {\n      AdminClaimAccountsInput calldata claim = _input[i];\n      ensureAccount(claim.accountId);\n\n      Account storage account = accounts[claim.accountId];\n      require(account.addr == address(0));\n\n      accountIdByAddress[claim.addr] = claim.accountId;\n      account.addr = claim.addr;\n\n      if(account.unclaimedAsamiTokens > 0) {\n        _safeMint(claim.addr, account.unclaimedAsamiTokens);\n        account.unclaimedAsamiTokens = 0;\n      }\n\n      if(account.unclaimedDocRewards > 0) {\n        doc.transfer(account.addr, account.unclaimedDocRewards);\n        account.unclaimedDocRewards = 0;\n      }\n\n      emit AccountSaved(account);\n    }\n  }\n\n  function adminMakeHandles (\n    Handle[] calldata _inputs\n  ) external onlyAdmin {\n\n    for( uint256 i = 0; i < _inputs.length; i++) {\n      ensureAccount(_inputs[i].accountId);\n\n      handles.push(_inputs[i]);\n      Handle storage h = handles[handles.length - 1];\n      h.id = handles.length;\n      emit HandleSaved(h);\n    }\n  }\n\n  struct CampaignInput {\n    Site site;\n    uint256 budget;\n    string contentId;\n    uint256 priceScoreRatio;\n    uint256[] topics;\n    uint256 validUntil;\n  }\n  function makeCampaigns(\n    CampaignInput[] calldata _inputs\n  ) public {\n    Account storage account = accounts[accountIdByAddress[msg.sender]];\n    require(account.addr != address(0));\n\n    for( uint i = 0; i < _inputs.length; i++) {\n      CampaignInput memory input = _inputs[i];\n      _saveCampaignHelper(account, Campaign({\n        id: campaigns.length + 1,\n        accountId: account.id,\n        site: input.site,\n        budget: input.budget,\n        remaining: input.budget,\n        contentId: input.contentId,\n        priceScoreRatio: input.priceScoreRatio,\n        topics: input.topics,\n        validUntil: input.validUntil\n      }));\n    }\n  }\n\n  struct AdminCampaignInput {\n    uint256 accountId;\n    CampaignInput attrs;\n  }\n\n  function adminMakeCampaigns(\n    AdminCampaignInput[] calldata _inputs\n  ) public onlyAdmin {\n\n    for( uint i = 0; i < _inputs.length; i++) {\n      AdminCampaignInput memory input = _inputs[i];\n      ensureAccount(input.accountId);\n      Account storage account = accounts[input.accountId];\n      require(account.addr == address(0));\n\n      _saveCampaignHelper(account, Campaign({\n        id: campaigns.length + 1,\n        accountId: account.id,\n        site: input.attrs.site,\n        budget: input.attrs.budget,\n        remaining: input.attrs.budget,\n        contentId: input.attrs.contentId,\n        priceScoreRatio: input.attrs.priceScoreRatio,\n        topics: input.attrs.topics,\n        validUntil: input.attrs.validUntil\n      }));\n    }\n  }\n\n  function _saveCampaignHelper(\n    Account storage _account,\n    Campaign memory _campaign\n  ) private {\n    require(_campaign.budget > 0);\n    require(bytes(_campaign.contentId).length > 0);\n    require(doc.transferFrom(msg.sender, address(this), _campaign.budget));\n\n    campaigns.push(_campaign);\n    _account.campaigns.push(_campaign.id);\n    emit CampaignSaved(_campaign);\n  }\n\n  struct AdminMakeCollabsInput {\n    uint256 campaignId;\n    uint256 handleId;\n  }\n\n  function adminMakeCollabs(AdminMakeCollabsInput[] calldata _collabs) external onlyAdmin {\n    for( uint256 i = 0; i < _collabs.length; i++) {\n      Handle storage handle = handles[_collabs[i].handleId - 1];\n      require(handle.id > 0, \"1\");\n      Account storage member = accounts[handle.accountId];\n\n      Campaign storage campaign = campaigns[_collabs[i].campaignId - 1];\n      require(campaign.id > 0, \"3\");\n      require(campaign.validUntil > block.timestamp, \"4\");\n      require(isSubset(handle.topics, campaign.topics), \"5\");\n\n      require(campaign.remaining >= handle.price, \"6\");\n      require(campaign.site == handle.site, \"7\");\n      require((handle.price / handle.score) <= campaign.priceScoreRatio, \"8\");\n\n      Account storage advertiser = accounts[campaign.accountId];\n\n      uint256 gross = handle.price;\n      uint256 fee = (gross * feeRate) / 100;\n      uint256 reward = gross - fee;\n\n      Collab memory collab = Collab({\n        id: collabs.length + 1,\n        handleId: handle.id,\n        campaignId: campaign.id,\n        gross: gross,\n        fee: fee,\n        proof: \"\",\n        createdAt: block.timestamp\n      });\n      collabs.push(collab);\n      member.collabs.push(collab.id);\n\n      campaign.remaining -= gross;\n      feePool += fee;\n\n      uint256 remainingToCap = cap() - claimedAsamiTokens;\n      uint256 newTokens = (fee > remainingToCap) ? remainingToCap : fee;\n      claimedAsamiTokens += newTokens;\n\n      uint256 advertiserTokens = (newTokens * 10) / 100;\n      uint256 memberTokens = (newTokens * 15) / 100;\n      uint256 adminTokens = newTokens - advertiserTokens - memberTokens;\n\n      if (adminTokens > 0) {\n        _safeMint(adminTreasury, adminTokens);\n      }\n\n      if ( member.addr == address(0) ) {\n        if( memberTokens > 0) {\n          member.unclaimedAsamiTokens += memberTokens;\n        }\n        member.unclaimedDocRewards += reward;\n        emit AccountSaved(member);\n      } else {\n        if( memberTokens > 0) {\n          _safeMint(member.addr, memberTokens);\n        }\n        doc.transfer(member.addr, reward);\n      }\n\n      if ( advertiserTokens > 0 ) {\n        if ( advertiser.addr == address(0) ) {\n          advertiser.unclaimedAsamiTokens += advertiserTokens;\n          emit AccountSaved(advertiser);\n        } else {\n          _safeMint(advertiser.addr, advertiserTokens);\n        }\n      }\n\n      emit CollabSaved(collab);\n      emit CampaignSaved(campaign);\n    }\n  }\n\n  function reimburseDueCampaigns(uint256[] calldata _campaignIds) public {\n    for(uint i = 0; i < _campaignIds.length; i++) {\n      Campaign storage campaign = campaigns[_campaignIds[i] - 1];\n      require(campaign.id > 0);\n      require(campaign.remaining > 0);\n      require(campaign.validUntil < block.timestamp);\n\n      Account storage advertiser = accounts[campaign.accountId];\n      require(doc.transfer(advertiser.addr, campaign.remaining));\n\n      campaign.remaining = 0;\n      emit CampaignSaved(campaign);\n    }\n  }\n\n  // To prevent race conditions, we never mint while we're in the middle of a payout.\n  function _safeMint(address _addr, uint256 _amount) private {\n    require(payoutsRemaining == 0, \"SM 0\");\n    _mint(_addr, _amount);\n  }\n\n  function adminSetPrice(uint256 _handleId, uint256 _price) external onlyAdmin {\n    Handle storage handle = handles[_handleId - 1];\n    Account storage account = accounts[handle.accountId];\n    require(account.addr == address(0) && account.id > 0);\n\n    _setPriceHelper(handle, _price);\n  }\n\n  function setPrice(uint256 _handleId, uint256 _price) external {\n    Account storage account = accounts[accountIdByAddress[msg.sender]];\n    require(account.addr != address(0));\n\n    Handle storage handle = handles[_handleId - 1];\n    require(handle.id > 0);\n    require(handle.accountId == account.id);\n\n    _setPriceHelper(handle, _price);\n  }\n\n  function _setPriceHelper(Handle storage handle, uint256 _price) private {\n    require(_price > 0);\n    HandleUpdate storage update = _getOrCreateHandleUpdate(handle.id);\n    update.price = _price;\n    emit HandleUpdateSaved(update);\n  }\n\n  function adminSetScoreAndTopics(\n    uint256 _handleId,\n    uint256 _score,\n    uint256[] calldata _topics\n  ) external onlyAdmin {\n    HandleUpdate storage update = _getOrCreateHandleUpdate(_handleId);\n    update.score = _score;\n    update.topics = _topics;\n    emit HandleUpdateSaved(update);\n  }\n\n  function _getOrCreateHandleUpdate(uint256 _handleId) private returns (HandleUpdate storage) {\n    // To prevent race conditions in the incremental updating process,\n    // handle updates are inaccesible while they are being applied to handles.\n    require(updatesRemaining == 0);\n\n    uint256 existingId = handleUpdateByHandleId[_handleId];\n\n    if(existingId > 0) {\n      return handleUpdates[existingId - 1];\n    } else {\n      HandleUpdate storage update = handleUpdates.push();\n      update.id = handleUpdates.length;\n      update.handleId = _handleId;\n      handleUpdateByHandleId[_handleId] = update.id;\n      return update;\n    }\n  }\n\n  function getCycleLength() public pure returns (uint256) {\n    return 60 * 60 * 24 * 15;\n  }\n\n  function getCurrentCycle() public view returns (uint256) {\n     return block.timestamp / getCycleLength();\n  }\n\n  function getNextCycle() public view returns (uint256) {\n    return getCurrentCycle() + getCycleLength();\n  }\n\n  /*\n    Distributes the fee pool among token holders.\n    To prevent going over the gas limit, it does up to 100 a time, and can be called many times in a row.\n    Always returns the pending holders.\n    Anyone can call this at any time, but just once per period. It would usually be the admin though.\n  */\n  uint256 public feePool;\n  uint256 public payoutsRemaining = 0;\n  uint256 public payoutsTotal = 0;\n  uint256 public lastPayoutCycle = 0;\n\n  function distributeFeePool() external {\n    uint256 totalSupply = totalSupply();\n\n    if(payoutsRemaining == 0) {\n      // We're starting a new payout of the feePool.\n      // We can only start one payout in each 15 day period.\n      payoutsTotal = holders.length;\n      payoutsRemaining = payoutsTotal;\n      uint256 currentCycle = getCurrentCycle();\n      require(currentCycle != lastPayoutCycle);\n      lastPayoutCycle = currentCycle;\n    }\n\n    uint256 startAt = payoutsTotal - payoutsRemaining;\n\n    uint256 until = (startAt + 100) <= payoutsRemaining ? (startAt + 100) : payoutsRemaining;\n\n    for (uint256 i = startAt; i < until; i++) {\n      address holder = holders[i];\n      uint256 balance = balanceOf(holder);\n      uint256 reward = (balance * feePool) / totalSupply;\n      require(doc.transfer(holder, reward));\n    }\n\n    payoutsRemaining -= until;\n\n    if(payoutsRemaining == 0) {\n      feePool = 0;\n    }\n  }\n\n  uint256 public updatesRemaining = 0;\n  uint256 public updatesTotal = 0;\n  uint256 public lastUpdateCycle = 0;\n\n  function applyHandleUpdates() external {\n    if(updatesRemaining == 0) {\n      // We're starting a new updates cycle.\n      // We can only start one payout in each 15 day period.\n      updatesTotal = handleUpdates.length;\n      updatesRemaining = updatesTotal;\n      uint256 currentCycle = getCurrentCycle();\n      require(currentCycle != lastUpdateCycle);\n      lastUpdateCycle = currentCycle;\n    }\n\n    uint256 startAt = updatesTotal - updatesRemaining;\n\n    uint256 until = (startAt + 100) <= updatesTotal ? (startAt + 100) : updatesTotal;\n\n    for (uint256 i = startAt; i < until; i++) {\n      HandleUpdate storage update = handleUpdates[i];\n      Handle storage handle = handles[update.handleId - 1];\n\n      if (bytes(update.username).length > 0) {\n        handle.username = update.username;\n      }\n\n      if (update.price != 0) {\n        handle.price = update.price;\n      }\n\n      if (update.score != 0) {\n        handle.score = update.score;\n      }\n\n      if (update.topics.length > 0) {\n        handle.topics = update.topics;\n      }\n\n      emit HandleSaved(handle);\n    }\n\n    updatesRemaining -= until;\n\n    if(updatesRemaining == 0) {\n      delete handleUpdates;\n    }\n  }\n\n  function applyVotedFeeRate() external {\n    uint256 currentCycle = getCurrentCycle();\n    require(currentCycle != lastVotedFeeRateAppliedOn);\n    feeRate = votedFeeRate / 1e18;\n    lastVotedFeeRateAppliedOn = currentCycle;\n  }\n\n  function submitFeeRateVote(uint256 _rate) external {\n    require(_rate > 0 && _rate < 100, \"sfrv 0\");\n\n    uint256 preciseRate = _rate * 1e18;\n\n    FeeRateVote storage vote = feeRateVotes[msg.sender];\n    if (vote.votes > 0) { removeFeeRateVoteHelper(msg.sender); }\n\n    uint256 votes = balanceOf(msg.sender);\n    require(votes > 0, \"sfrv 1\");\n\n    votedFeeRate = ((votedFeeRate * votedFeeRateVoteCount) + (votes * preciseRate)) / (votedFeeRateVoteCount + votes);\n    votedFeeRateVoteCount += votes;\n    vote.votes = votes;\n    vote.rate = preciseRate;\n  }\n\n  function removeFeeRateVote() external {\n    removeFeeRateVoteHelper(msg.sender);\n  }\n\n  function removeFeeRateVoteHelper(address _holder) private {\n    FeeRateVote storage vote = feeRateVotes[_holder];\n    require(vote.votes > 0, \"rfrv 0\");\n    uint256 nextVoteCount = votedFeeRateVoteCount - vote.votes;\n    uint256 currentVolume = votedFeeRate * votedFeeRateVoteCount;\n    uint256 removedVolume = vote.votes * vote.rate;\n    uint256 nextVolume = currentVolume > removedVolume ? currentVolume - removedVolume : 0;\n\n    if (nextVoteCount > 0) {\n      votedFeeRate = nextVolume / nextVoteCount;\n      votedFeeRateVoteCount = nextVoteCount;\n    } else {\n      votedFeeRate = defaultVotedFeeRate;\n      votedFeeRateVoteCount = 0;\n    }\n    delete feeRateVotes[_holder];\n  }\n\n  function isSubset(uint256[] memory mainSet, uint256[] memory subset) public pure returns (bool) {\n    for (uint256 i = 0; i < subset.length; i++) {\n      bool found = false;\n\n      for (uint256 j = 0; j < mainSet.length; j++) {\n        if (subset[i] == mainSet[j]) {\n          found = true;\n          break;\n        }\n      }\n\n      if (!found) {\n        return false;\n      }\n    }\n\n    return true;\n  }\n}\n",
  "sourcePath": "/home/nubis/asami/contract/contracts/Asami.sol",
  "compiler": {
    "name": "solc",
    "version": "0.8.19+commit.7dd6d404.Emscripten.clang"
  },
  "schemaVersion": "3.4.15",
  "updatedAt": "2024-01-14T12:25:29.660Z",
  "devdoc": {
    "events": {
      "Approval(address,address,uint256)": {
        "details": "Emitted when the allowance of a `spender` for an `owner` is set by a call to {approve}. `value` is the new allowance."
      },
      "Transfer(address,address,uint256)": {
        "details": "Emitted when `value` tokens are moved from one account (`from`) to another (`to`). Note that `value` may be zero."
      }
    },
    "kind": "dev",
    "methods": {
      "allowance(address,address)": {
        "details": "See {IERC20-allowance}."
      },
      "approve(address,uint256)": {
        "details": "See {IERC20-approve}. NOTE: If `amount` is the maximum `uint256`, the allowance is not updated on `transferFrom`. This is semantically equivalent to an infinite approval. Requirements: - `spender` cannot be the zero address."
      },
      "balanceOf(address)": {
        "details": "See {IERC20-balanceOf}."
      },
      "cap()": {
        "details": "Returns the cap on the token's total supply."
      },
      "decimals()": {
        "details": "Returns the number of decimals used to get its user representation. For example, if `decimals` equals `2`, a balance of `505` tokens should be displayed to a user as `5.05` (`505 / 10 ** 2`). Tokens usually opt for a value of 18, imitating the relationship between Ether and Wei. This is the default value returned by this function, unless it's overridden. NOTE: This information is only used for _display_ purposes: it in no way affects any of the arithmetic of the contract, including {IERC20-balanceOf} and {IERC20-transfer}."
      },
      "decreaseAllowance(address,uint256)": {
        "details": "Atomically decreases the allowance granted to `spender` by the caller. This is an alternative to {approve} that can be used as a mitigation for problems described in {IERC20-approve}. Emits an {Approval} event indicating the updated allowance. Requirements: - `spender` cannot be the zero address. - `spender` must have allowance for the caller of at least `subtractedValue`."
      },
      "increaseAllowance(address,uint256)": {
        "details": "Atomically increases the allowance granted to `spender` by the caller. This is an alternative to {approve} that can be used as a mitigation for problems described in {IERC20-approve}. Emits an {Approval} event indicating the updated allowance. Requirements: - `spender` cannot be the zero address."
      },
      "name()": {
        "details": "Returns the name of the token."
      },
      "owner()": {
        "details": "Returns the address of the current owner."
      },
      "renounceOwnership()": {
        "details": "Leaves the contract without owner. It will not be possible to call `onlyOwner` functions. Can only be called by the current owner. NOTE: Renouncing ownership will leave the contract without an owner, thereby disabling any functionality that is only available to the owner."
      },
      "symbol()": {
        "details": "Returns the symbol of the token, usually a shorter version of the name."
      },
      "totalSupply()": {
        "details": "See {IERC20-totalSupply}."
      },
      "transfer(address,uint256)": {
        "details": "See {IERC20-transfer}. Requirements: - `to` cannot be the zero address. - the caller must have a balance of at least `amount`."
      },
      "transferFrom(address,address,uint256)": {
        "details": "See {IERC20-transferFrom}. Emits an {Approval} event indicating the updated allowance. This is not required by the EIP. See the note at the beginning of {ERC20}. NOTE: Does not update the allowance if the current allowance is the maximum `uint256`. Requirements: - `from` and `to` cannot be the zero address. - `from` must have a balance of at least `amount`. - the caller must have allowance for ``from``'s tokens of at least `amount`."
      },
      "transferOwnership(address)": {
        "details": "Transfers ownership of the contract to a new account (`newOwner`). Can only be called by the current owner."
      }
    },
    "version": 1
  },
  "userdoc": {
    "kind": "user",
    "methods": {},
    "version": 1
  }
}