{
  "contractName": "NostrUtils",
  "abi": [
    {
      "inputs": [
        {
          "internalType": "string",
          "name": "_pubkey",
          "type": "string"
        },
        {
          "internalType": "string",
          "name": "_postId",
          "type": "string"
        },
        {
          "internalType": "string",
          "name": "_tagsAfterPostId",
          "type": "string"
        },
        {
          "internalType": "uint256",
          "name": "_createdAt",
          "type": "uint256"
        },
        {
          "internalType": "uint256",
          "name": "_affineX",
          "type": "uint256"
        },
        {
          "internalType": "uint256",
          "name": "_affineY",
          "type": "uint256"
        },
        {
          "internalType": "uint256",
          "name": "_sigR",
          "type": "uint256"
        },
        {
          "internalType": "uint256",
          "name": "_sigS",
          "type": "uint256"
        }
      ],
      "name": "verifyRepost",
      "outputs": [
        {
          "internalType": "string",
          "name": "",
          "type": "string"
        }
      ],
      "stateMutability": "pure",
      "type": "function",
      "constant": true
    },
    {
      "inputs": [
        {
          "internalType": "string",
          "name": "_pubkey",
          "type": "string"
        },
        {
          "internalType": "string",
          "name": "_content",
          "type": "string"
        },
        {
          "internalType": "string",
          "name": "_tags",
          "type": "string"
        },
        {
          "internalType": "uint256",
          "name": "_createdAt",
          "type": "uint256"
        },
        {
          "internalType": "uint256",
          "name": "_affineX",
          "type": "uint256"
        },
        {
          "internalType": "uint256",
          "name": "_affineY",
          "type": "uint256"
        },
        {
          "internalType": "uint256",
          "name": "_sigR",
          "type": "uint256"
        },
        {
          "internalType": "uint256",
          "name": "_sigS",
          "type": "uint256"
        }
      ],
      "name": "verifyDeletionMessage",
      "outputs": [],
      "stateMutability": "pure",
      "type": "function",
      "constant": true
    },
    {
      "inputs": [
        {
          "internalType": "string",
          "name": "needleHex",
          "type": "string"
        },
        {
          "internalType": "string",
          "name": "haystack",
          "type": "string"
        }
      ],
      "name": "idInTags",
      "outputs": [
        {
          "internalType": "bool",
          "name": "",
          "type": "bool"
        }
      ],
      "stateMutability": "pure",
      "type": "function",
      "constant": true
    }
  ],
  "bytecode": "0x608060405234801561001057600080fd5b50611665806100206000396000f3fe608060405234801561001057600080fd5b50600436106100415760003560e01c80630b71407c146100465780630d9e0f381461006e578063e224d97a14610083575b600080fd5b610059610054366004611239565b6100a3565b60405190151581526020015b60405180910390f35b61008161007c36600461129c565b61018d565b005b61009661009136600461129c565b610270565b6040516100659190611375565b60008282825b825182516100b791906113be565b6100c29060016113d1565b81101561017f57600160005b600285516100dc91906113be565b81101561015857846100ef8260026113d1565b815181106100ff576100ff6113e4565b01602001516001600160f81b0319168461011983866113d1565b81518110610129576101296113e4565b01602001516001600160f81b031916146101465760009150610158565b80610150816113fa565b9150506100ce565b50801561016c576001945050505050610187565b5080610177816113fa565b9150506100a9565b506000925050505b92915050565b60008861019987610359565b888a6040516020016101ae9493929190611413565b604051602081830303815290604052905061021b6002826040516101d291906114b9565b602060405180830381855afa1580156101ef573d6000803e3d6000fd5b5050506040513d601f19601f8201168201806040525081019061021291906114d5565b868686866103eb565b6102655760405162461bcd60e51b815260206004820152601660248201527534b73b30b634b22fb232b632ba34b7b72fb83937b7b360511b60448201526064015b60405180910390fd5b505050505050505050565b606060008961027e88610359565b8a8a60405160200161029394939291906114ee565b604051602081830303815290604052905060006002826040516102b691906114b9565b602060405180830381855afa1580156102d3573d6000803e3d6000fd5b5050506040513d601f19601f820116820180604052508101906102f691906114d5565b905061030581888888886103eb565b6103415760405162461bcd60e51b815260206004820152600d60248201526c34b73b30b634b22fb83937b7b360991b604482015260640161025c565b61034a8161052f565b9b9a5050505050505050505050565b6060600061036683610546565b60010190506000816001600160401b0381111561038557610385611197565b6040519080825280601f01601f1916602001820160405280156103af576020820181803683370190505b5090508181016020015b600019016f181899199a1a9b1b9c1cb0b131b232b360811b600a86061a8153600a85049450846103b957509392505050565b600070014551231950b75fc4402da1732fc9bebe1983101580610420575070014551231950b75fc4402da1732fc9bebe198210155b1561042d57506000610526565b600061043a84878961061c565b9050600080610493857f79be667ef9dcbbac55a06295ce870b07029bfcdb2dce28d959f2815b16f817987f483ada7726a3c4655da4fbfc0e1108a8fd17b448a68554199c47d08ffb10d4b860006401000003d01961075f565b915091506000806104ae858b8b60006401000003d01961075f565b90925090506000806104e58686866401000003d0196104cd88826113be565b6104d791906115ac565b60006401000003d019610799565b91509150898214801561050057506104fe6002826115ac565b155b801561051c575061051c8282600060076401000003d019610821565b9750505050505050505b95945050505050565b60606101878261053e846108da565b600101610944565b60008072184f03e93ff9f4daa797ed6e38ed64bf6a1f0160401b83106105855772184f03e93ff9f4daa797ed6e38ed64bf6a1f0160401b830492506040015b6904ee2d6d415b85acef8160201b83106105af576904ee2d6d415b85acef8160201b830492506020015b662386f26fc1000083106105cd57662386f26fc10000830492506010015b6305f5e10083106105e5576305f5e100830492506008015b61271083106105f957612710830492506004015b6064831061060b576064830492506002015b600a83106101875760010192915050565b604080516020810185905290810183905260608101829052600090819060800160408051601f1981840301815282820182526011835270424950303334302f6368616c6c656e676560781b6020840152905190925060009160029161068191906114b9565b602060405180830381855afa15801561069e573d6000803e3d6000fd5b5050506040513d601f19601f820116820180604052508101906106c191906114d5565b9050600060028283856040516020016106dc939291906115c0565b60408051601f19818403018152908290526106f6916114b9565b602060405180830381855afa158015610713573d6000803e3d6000fd5b5050506040513d601f19601f8201168201806040525081019061073691906114d5565b905061075470014551231950b75fc4402da1732fc9bebe19826115ac565b979650505050505050565b60008060008060006107768a8a8a60018b8b610ae6565b92509250925061078883838389610b68565b945094505050509550959350505050565b6000806000806000888b036107e95785806107b6576107b6611596565b888b086000036107cf5760008094509450505050610816565b6107dd8b8b60018a8a610bd7565b91945092509050610802565b6107fa8b8b60018c8c60018c610d7a565b919450925090505b61080e83838389610b68565b945094505050505b965096945050505050565b60008515806108305750818610155b80610839575084155b806108445750818510155b1561085157506000610526565b6000828061086157610861611596565b86870990506000838061087657610876611596565b88858061088557610885611596565b8a8b0909905085156108b557838061089f5761089f611596565b84806108ad576108ad611596565b878a09820890505b84156108cf5783806108c9576108c9611596565b85820890505b149695505050505050565b600080608083901c156108f25760809290921c916010015b604083901c156109075760409290921c916008015b602083901c1561091c5760209290921c916004015b601083901c156109315760109290921c916002015b600883901c156101875760010192915050565b606060006109538360026115ed565b61095e9060026113d1565b6001600160401b0381111561097557610975611197565b6040519080825280601f01601f19166020018201604052801561099f576020820181803683370190505b509050600360fc1b816000815181106109ba576109ba6113e4565b60200101906001600160f81b031916908160001a905350600f60fb1b816001815181106109e9576109e96113e4565b60200101906001600160f81b031916908160001a9053506000610a0d8460026115ed565b610a189060016113d1565b90505b6001811115610a90576f181899199a1a9b1b9c1cb0b131b232b360811b85600f1660108110610a4c57610a4c6113e4565b1a60f81b828281518110610a6257610a626113e4565b60200101906001600160f81b031916908160001a90535060049490941c93610a8981611604565b9050610a1b565b508315610adf5760405162461bcd60e51b815260206004820181905260248201527f537472696e67733a20686578206c656e67746820696e73756666696369656e74604482015260640161025c565b9392505050565b600080600088600003610b00575086915085905084610b5c565b8860008060015b8315610b53576001841615610b2d57610b258383838f8f8f8e610d7a565b919450925090505b610b3860028561161b565b9350610b478c8c8c8c8c610bd7565b919d509b509950610b07565b91955093509150505b96509650969350505050565b6000806000610b7785856110ad565b905060008480610b8957610b89611596565b828309905060008580610b9e57610b9e611596565b828a09905060008680610bb357610bb3611596565b8780610bc157610bc1611596565b8486098a09919a91995090975050505050505050565b600080600085600003610bf1575086915085905084610d6f565b60008480610c0157610c01611596565b898a09905060008580610c1657610c16611596565b898a09905060008680610c2b57610c2b611596565b898a09905060008780610c4057610c40611596565b8880610c4e57610c4e611596565b848e09600409905060008880610c6657610c66611596565b8980610c7457610c74611596565b8a80610c8257610c82611596565b8586098c098a80610c9557610c95611596565b876003090890508880610caa57610caa611596565b8980610cb857610cb8611596565b838408610cc5908b6113be565b8a80610cd357610cd3611596565b8384090894508880610ce757610ce7611596565b8980610cf557610cf5611596565b8a80610d0357610d03611596565b868709600809610d13908b6113be565b8a80610d2157610d21611596565b8b80610d2f57610d2f611596565b610d39898e6113be565b860884090893508880610d4e57610d4e611596565b8980610d5c57610d5c611596565b8c8e096002099497509295509293505050505b955095509592505050565b6000808089158015610d8a575088155b15610d9c5750859150849050836110a0565b86158015610da8575085155b15610dba5750889150879050866110a0565b610dc2611179565b8480610dd057610dd0611596565b898a0981528480610de357610de3611596565b81518a0960208201528480610dfa57610dfa611596565b86870960408201528480610e1057610e10611596565b6040820151870960608201526040805160808101909152808680610e3657610e36611596565b60408401518e0981526020018680610e5057610e50611596565b60608401518d0981526020018680610e6a57610e6a611596565b83518b0981526020018680610e8157610e81611596565b60208401518a09905260408101518151919250141580610ea957506060810151602082015114155b610ef55760405162461bcd60e51b815260206004820152601e60248201527f557365206a6163446f75626c652066756e6374696f6e20696e73746561640000604482015260640161025c565b610efd611179565b8580610f0b57610f0b611596565b8251610f1790886113be565b60408401510881528580610f2d57610f2d611596565b6020830151610f3c90886113be565b60608401510860208201528580610f5557610f55611596565b8151800960408201528580610f6c57610f6c611596565b8151604083015109606082015260008680610f8957610f89611596565b6060830151610f9890896113be565b8880610fa657610fa6611596565b602085015180090890508680610fbe57610fbe611596565b8780610fcc57610fcc611596565b8880610fda57610fda611596565b6040850151865109600209610fef90896113be565b820890506000878061100357611003611596565b888061101157611011611596565b61101b848b6113be565b8a8061102957611029611596565b6040870151885109086020850151099050878061104857611048611596565b888061105657611056611596565b606085015160208701510961106b908a6113be565b820890506000888061107f5761107f611596565b898061108d5761108d611596565b8b8f098551099297509095509093505050505b9750975097945050505050565b600082158015906110be5750818314155b80156110c957508115155b6111065760405162461bcd60e51b815260206004820152600e60248201526d24b73b30b634b210373ab6b132b960911b604482015260640161025c565b6000600183825b861561116e5761111d878361161b565b905082868061112e5761112e611596565b878061113c5761113c611596565b85840961114990896113be565b860890945092508661115b81836115ed565b61116590846113be565b9750915061110d565b509195945050505050565b60405180608001604052806004906020820280368337509192915050565b634e487b7160e01b600052604160045260246000fd5b600082601f8301126111be57600080fd5b81356001600160401b03808211156111d8576111d8611197565b604051601f8301601f19908116603f0116810190828211818310171561120057611200611197565b8160405283815286602085880101111561121957600080fd5b836020870160208301376000602085830101528094505050505092915050565b6000806040838503121561124c57600080fd5b82356001600160401b038082111561126357600080fd5b61126f868387016111ad565b9350602085013591508082111561128557600080fd5b50611292858286016111ad565b9150509250929050565b600080600080600080600080610100898b0312156112b957600080fd5b88356001600160401b03808211156112d057600080fd5b6112dc8c838d016111ad565b995060208b01359150808211156112f257600080fd5b6112fe8c838d016111ad565b985060408b013591508082111561131457600080fd5b506113218b828c016111ad565b989b979a5097986060810135985060808101359760a0820135975060c0820135965060e090910135945092505050565b60005b8381101561136c578181015183820152602001611354565b50506000910152565b6020815260008251806020840152611394816040850160208701611351565b601f01601f19169190910160400192915050565b634e487b7160e01b600052601160045260246000fd5b81810381811115610187576101876113a8565b80820180821115610187576101876113a8565b634e487b7160e01b600052603260045260246000fd5b60006001820161140c5761140c6113a8565b5060010190565b632d98161160e11b81528451600090611433816004850160208a01611351565b61088b60f21b6004918401918201528551611455816006840160208a01611351565b620b0d4b60ea1b600692909101918201528451611479816009840160208901611351565b61161160f11b60099290910191820152835161149c81600b840160208801611351565b61225d60f01b600b9290910191820152600d019695505050505050565b600082516114cb818460208701611351565b9190910192915050565b6000602082840312156114e757600080fd5b5051919050565b632d98161160e11b8152845160009061150e816004850160208a01611351565b61088b60f21b6004918401918201528551611530816006840160208a01611351565b620b0c4b60ea1b60069290910191820152662dad913291161160c91b60098201528451611564816010840160208901611351565b845191019061157a816010840160208801611351565b605d60f81b601092909101918201526011019695505050505050565b634e487b7160e01b600052601260045260246000fd5b6000826115bb576115bb611596565b500690565b838152826020820152600082516115de816040850160208701611351565b91909101604001949350505050565b8082028115828204841417610187576101876113a8565b600081611613576116136113a8565b506000190190565b60008261162a5761162a611596565b50049056fea2646970667358221220c051686836df6e35368059ac92bc2d1a240231c1a826b74c7ee7c2241be9dd7b64736f6c63430008130033",
  "immutableReferences": {},
  "source": "// SPDX-License-Identifier: MIT\npragma solidity ^0.8.9;\nimport \"@openzeppelin/contracts/utils/Strings.sol\";\nimport \"./Schnorr.sol\";\n\ncontract NostrUtils {\n    // The first tag of a repost es always \"e\", so we can reconstruct that part, which saves gas.\n    // But the rest of the tags is hard to reconstruct, so we take it as a string.\n    // The _tagsAfterPostId is the raw string with the rest of the tags, it's not valid json.\n    function verifyRepost(\n        string memory _pubkey,\n        string memory _postId,\n        string memory _tagsAfterPostId,\n        uint256 _createdAt,\n        uint256 _affineX,\n        uint256 _affineY,\n        uint256 _sigR,\n        uint256 _sigS\n    )\n        public pure returns (string memory)\n    {\n        bytes memory message = abi.encodePacked(\n            \"[0,\\\"\",\n            _pubkey,\n            \"\\\",\",\n            Strings.toString(_createdAt),\n            \",1,\",\n            \"[[\\\"e\\\",\\\"\",\n            _postId,\n            _tagsAfterPostId,\n            \"]\"\n        );\n\n        bytes32 messageId = sha256(message);\n\n        require(Schnorr.verify(\n            messageId,\n            _affineX,\n            _affineY,\n            _sigR,\n            _sigS\n        ), \"invalid_proof\");\n\n        return Strings.toHexString(uint256(messageId));\n    }\n\n    function verifyDeletionMessage(\n        string memory _pubkey,\n        string memory _content,\n        string memory _tags,\n        uint256 _createdAt,\n        uint256 _affineX,\n        uint256 _affineY,\n        uint256 _sigR,\n        uint256 _sigS\n    )\n        public pure\n    {\n        bytes memory message = abi.encodePacked(\n            \"[0,\\\"\",\n            _pubkey,\n            \"\\\",\",\n            Strings.toString(_createdAt),\n            \",5,\",\n            _tags,\n            \",\\\"\",\n            _content,\n            \"\\\"]\"\n        );\n\n        require(Schnorr.verify(\n            sha256(message),\n            _affineX,\n            _affineY,\n            _sigR,\n            _sigS\n        ), \"invalid_deletion_proof\");\n    }\n\n    function idInTags(\n        string memory needleHex,\n        string memory haystack\n    )\n        public pure returns (bool)\n    {\n        bytes memory needleHexBytes = bytes(needleHex);\n        bytes memory haystackBytes = bytes(haystack);\n\n        for(uint i = 0; i < haystackBytes.length - needleHexBytes.length + 1; i++) {\n            bool found = true;\n            for(uint j = 0; j < needleHexBytes.length - 2; j++) {\n                if(haystackBytes[i + j] != needleHexBytes[j+2]) {\n                    found = false;\n                    break;\n                }\n            }\n            if(found) {\n                return true;\n            }\n        }\n        return false;\n    }\n}\n",
  "sourcePath": "/home/nubis/asami/contract/contracts/NostrUtils.sol",
  "compiler": {
    "name": "solc",
    "version": "0.8.19+commit.7dd6d404.Emscripten.clang"
  },
  "schemaVersion": "3.4.15",
  "updatedAt": "2023-11-13T22:03:44.358Z",
  "networkType": "ethereum",
  "devdoc": {
    "kind": "dev",
    "methods": {},
    "version": 1
  },
  "userdoc": {
    "kind": "user",
    "methods": {},
    "version": 1
  }
}