{"contracts/Asami.sol":{"Asami":{"abi":[{"inputs":[{"internalType":"address","name":"_dollarOnChainAddress","type":"address"},{"internalType":"address","name":"_adminAddress","type":"address"}],"stateMutability":"nonpayable","type":"constructor"},{"anonymous":false,"inputs":[{"components":[{"internalType":"uint256","name":"id","type":"uint256"},{"internalType":"address","name":"addr","type":"address"},{"internalType":"uint256","name":"unclaimedAsamiTokens","type":"uint256"},{"internalType":"uint256","name":"unclaimedDocRewards","type":"uint256"},{"internalType":"uint256[]","name":"handles","type":"uint256[]"},{"internalType":"uint256[]","name":"campaigns","type":"uint256[]"},{"internalType":"uint256[]","name":"collabs","type":"uint256[]"}],"indexed":false,"internalType":"struct Asami.Account","name":"account","type":"tuple"}],"name":"AccountSaved","type":"event"},{"anonymous":false,"inputs":[{"components":[{"internalType":"uint256","name":"votes","type":"uint256"},{"internalType":"address","name":"candidate","type":"address"},{"internalType":"uint256","name":"cycle","type":"uint256"},{"internalType":"bool","name":"vested","type":"bool"}],"indexed":false,"internalType":"struct Asami.AdminVote","name":"vote","type":"tuple"}],"name":"AdminVoteSaved","type":"event"},{"anonymous":false,"inputs":[{"indexed":true,"internalType":"address","name":"owner","type":"address"},{"indexed":true,"internalType":"address","name":"spender","type":"address"},{"indexed":false,"internalType":"uint256","name":"value","type":"uint256"}],"name":"Approval","type":"event"},{"anonymous":false,"inputs":[{"components":[{"internalType":"uint256","name":"id","type":"uint256"},{"internalType":"uint256","name":"accountId","type":"uint256"},{"internalType":"enum Asami.Site","name":"site","type":"uint8"},{"internalType":"uint256","name":"budget","type":"uint256"},{"internalType":"uint256","name":"remaining","type":"uint256"},{"internalType":"string","name":"contentId","type":"string"},{"internalType":"uint256","name":"priceScoreRatio","type":"uint256"},{"internalType":"uint256[]","name":"topics","type":"uint256[]"},{"internalType":"uint256","name":"validUntil","type":"uint256"},{"internalType":"bool","name":"fundedByAdmin","type":"bool"}],"indexed":false,"internalType":"struct Asami.Campaign","name":"campaign","type":"tuple"}],"name":"CampaignSaved","type":"event"},{"anonymous":false,"inputs":[{"components":[{"internalType":"uint256","name":"id","type":"uint256"},{"internalType":"uint256","name":"handleId","type":"uint256"},{"internalType":"uint256","name":"campaignId","type":"uint256"},{"internalType":"uint256","name":"gross","type":"uint256"},{"internalType":"uint256","name":"fee","type":"uint256"},{"internalType":"string","name":"proof","type":"string"},{"internalType":"uint256","name":"createdAt","type":"uint256"}],"indexed":false,"internalType":"struct Asami.Collab","name":"collab","type":"tuple"}],"name":"CollabSaved","type":"event"},{"anonymous":false,"inputs":[{"components":[{"internalType":"uint256","name":"id","type":"uint256"},{"internalType":"uint256","name":"accountId","type":"uint256"},{"internalType":"enum Asami.Site","name":"site","type":"uint8"},{"internalType":"uint256","name":"price","type":"uint256"},{"internalType":"uint256","name":"score","type":"uint256"},{"internalType":"uint256[]","name":"topics","type":"uint256[]"},{"internalType":"string","name":"username","type":"string"},{"internalType":"string","name":"userId","type":"string"},{"internalType":"bool","name":"needsUpdate","type":"bool"},{"internalType":"string","name":"newUsername","type":"string"},{"internalType":"uint256","name":"newPrice","type":"uint256"},{"internalType":"uint256","name":"newScore","type":"uint256"},{"internalType":"uint256[]","name":"newTopics","type":"uint256[]"},{"internalType":"uint256","name":"lastUpdated","type":"uint256"}],"indexed":false,"internalType":"struct Asami.Handle","name":"handle","type":"tuple"}],"name":"HandleSaved","type":"event"},{"anonymous":false,"inputs":[{"indexed":false,"internalType":"uint256","name":"id","type":"uint256"},{"indexed":false,"internalType":"string","name":"name","type":"string"}],"name":"TopicSaved","type":"event"},{"anonymous":false,"inputs":[{"indexed":true,"internalType":"address","name":"from","type":"address"},{"indexed":true,"internalType":"address","name":"to","type":"address"},{"indexed":false,"internalType":"uint256","name":"value","type":"uint256"}],"name":"Transfer","type":"event"},{"inputs":[{"internalType":"address","name":"","type":"address"}],"name":"accountIdByAddress","outputs":[{"internalType":"uint256","name":"","type":"uint256"}],"stateMutability":"view","type":"function"},{"inputs":[{"internalType":"uint256","name":"","type":"uint256"}],"name":"accountIds","outputs":[{"internalType":"uint256","name":"","type":"uint256"}],"stateMutability":"view","type":"function"},{"inputs":[{"internalType":"uint256","name":"","type":"uint256"}],"name":"accounts","outputs":[{"internalType":"uint256","name":"id","type":"uint256"},{"internalType":"address","name":"addr","type":"address"},{"internalType":"uint256","name":"unclaimedAsamiTokens","type":"uint256"},{"internalType":"uint256","name":"unclaimedDocRewards","type":"uint256"}],"stateMutability":"view","type":"function"},{"inputs":[],"name":"admin","outputs":[{"internalType":"address","name":"","type":"address"}],"stateMutability":"view","type":"function"},{"inputs":[{"internalType":"string[]","name":"_names","type":"string[]"}],"name":"adminAddTopics","outputs":[],"stateMutability":"nonpayable","type":"function"},{"inputs":[{"components":[{"internalType":"uint256","name":"accountId","type":"uint256"},{"components":[{"internalType":"enum Asami.Site","name":"site","type":"uint8"},{"internalType":"uint256","name":"budget","type":"uint256"},{"internalType":"string","name":"contentId","type":"string"},{"internalType":"uint256","name":"priceScoreRatio","type":"uint256"},{"internalType":"uint256[]","name":"topics","type":"uint256[]"},{"internalType":"uint256","name":"validUntil","type":"uint256"}],"internalType":"struct Asami.CampaignInput","name":"attrs","type":"tuple"}],"internalType":"struct Asami.AdminCampaignInput[]","name":"_inputs","type":"tuple[]"}],"name":"adminMakeCampaigns","outputs":[],"stateMutability":"nonpayable","type":"function"},{"inputs":[{"components":[{"internalType":"uint256","name":"campaignId","type":"uint256"},{"internalType":"uint256","name":"handleId","type":"uint256"}],"internalType":"struct Asami.AdminMakeCollabsInput[]","name":"_collabs","type":"tuple[]"}],"name":"adminMakeCollabs","outputs":[],"stateMutability":"nonpayable","type":"function"},{"inputs":[{"components":[{"internalType":"uint256","name":"id","type":"uint256"},{"internalType":"uint256","name":"accountId","type":"uint256"},{"internalType":"enum Asami.Site","name":"site","type":"uint8"},{"internalType":"uint256","name":"price","type":"uint256"},{"internalType":"uint256","name":"score","type":"uint256"},{"internalType":"uint256[]","name":"topics","type":"uint256[]"},{"internalType":"string","name":"username","type":"string"},{"internalType":"string","name":"userId","type":"string"},{"internalType":"bool","name":"needsUpdate","type":"bool"},{"internalType":"string","name":"newUsername","type":"string"},{"internalType":"uint256","name":"newPrice","type":"uint256"},{"internalType":"uint256","name":"newScore","type":"uint256"},{"internalType":"uint256[]","name":"newTopics","type":"uint256[]"},{"internalType":"uint256","name":"lastUpdated","type":"uint256"}],"internalType":"struct Asami.Handle[]","name":"_inputs","type":"tuple[]"}],"name":"adminMakeHandles","outputs":[],"stateMutability":"nonpayable","type":"function"},{"inputs":[{"components":[{"internalType":"uint256","name":"handleId","type":"uint256"},{"internalType":"uint256","name":"price","type":"uint256"}],"internalType":"struct Asami.AdminSetPriceInput[]","name":"_inputs","type":"tuple[]"}],"name":"adminSetPrice","outputs":[],"stateMutability":"nonpayable","type":"function"},{"inputs":[{"components":[{"internalType":"uint256","name":"handleId","type":"uint256"},{"internalType":"uint256","name":"score","type":"uint256"},{"internalType":"uint256[]","name":"topics","type":"uint256[]"}],"internalType":"struct Asami.AdminSetScoreAndTopicsInput[]","name":"_inputs","type":"tuple[]"}],"name":"adminSetScoreAndTopics","outputs":[],"stateMutability":"nonpayable","type":"function"},{"inputs":[],"name":"adminTreasury","outputs":[{"internalType":"address","name":"","type":"address"}],"stateMutability":"view","type":"function"},{"inputs":[{"internalType":"address","name":"","type":"address"}],"name":"adminVoteCountIdByCandidate","outputs":[{"internalType":"uint256","name":"","type":"uint256"}],"stateMutability":"view","type":"function"},{"inputs":[{"internalType":"uint256","name":"","type":"uint256"}],"name":"adminVoteCounts","outputs":[{"internalType":"uint256","name":"votes","type":"uint256"},{"internalType":"address","name":"candidate","type":"address"}],"stateMutability":"view","type":"function"},{"inputs":[],"name":"allAdminVoteCounts","outputs":[{"components":[{"internalType":"uint256","name":"votes","type":"uint256"},{"internalType":"address","name":"candidate","type":"address"}],"internalType":"struct Asami.AdminVoteCount[]","name":"","type":"tuple[]"}],"stateMutability":"view","type":"function"},{"inputs":[{"internalType":"address","name":"owner","type":"address"},{"internalType":"address","name":"spender","type":"address"}],"name":"allowance","outputs":[{"internalType":"uint256","name":"","type":"uint256"}],"stateMutability":"view","type":"function"},{"inputs":[{"internalType":"uint256[]","name":"_indexes","type":"uint256[]"}],"name":"applyHandleUpdates","outputs":[],"stateMutability":"nonpayable","type":"function"},{"inputs":[],"name":"applyVotedFeeRate","outputs":[],"stateMutability":"nonpayable","type":"function"},{"inputs":[{"internalType":"address","name":"spender","type":"address"},{"internalType":"uint256","name":"amount","type":"uint256"}],"name":"approve","outputs":[{"internalType":"bool","name":"","type":"bool"}],"stateMutability":"nonpayable","type":"function"},{"inputs":[{"internalType":"address","name":"account","type":"address"}],"name":"balanceOf","outputs":[{"internalType":"uint256","name":"","type":"uint256"}],"stateMutability":"view","type":"function"},{"inputs":[{"internalType":"uint256","name":"","type":"uint256"}],"name":"campaigns","outputs":[{"internalType":"uint256","name":"id","type":"uint256"},{"internalType":"uint256","name":"accountId","type":"uint256"},{"internalType":"enum Asami.Site","name":"site","type":"uint8"},{"internalType":"uint256","name":"budget","type":"uint256"},{"internalType":"uint256","name":"remaining","type":"uint256"},{"internalType":"string","name":"contentId","type":"string"},{"internalType":"uint256","name":"priceScoreRatio","type":"uint256"},{"internalType":"uint256","name":"validUntil","type":"uint256"},{"internalType":"bool","name":"fundedByAdmin","type":"bool"}],"stateMutability":"view","type":"function"},{"inputs":[],"name":"cap","outputs":[{"internalType":"uint256","name":"","type":"uint256"}],"stateMutability":"view","type":"function"},{"inputs":[{"components":[{"internalType":"uint256","name":"accountId","type":"uint256"},{"internalType":"address","name":"addr","type":"address"}],"internalType":"struct Asami.AdminClaimAccountsInput[]","name":"_input","type":"tuple[]"}],"name":"claimAccounts","outputs":[],"stateMutability":"nonpayable","type":"function"},{"inputs":[{"internalType":"address[]","name":"_holders","type":"address[]"}],"name":"claimFeePoolShare","outputs":[],"stateMutability":"nonpayable","type":"function"},{"inputs":[],"name":"claimedAsamiTokens","outputs":[{"internalType":"uint256","name":"","type":"uint256"}],"stateMutability":"view","type":"function"},{"inputs":[{"internalType":"uint256","name":"","type":"uint256"}],"name":"collabs","outputs":[{"internalType":"uint256","name":"id","type":"uint256"},{"internalType":"uint256","name":"handleId","type":"uint256"},{"internalType":"uint256","name":"campaignId","type":"uint256"},{"internalType":"uint256","name":"gross","type":"uint256"},{"internalType":"uint256","name":"fee","type":"uint256"},{"internalType":"string","name":"proof","type":"string"},{"internalType":"uint256","name":"createdAt","type":"uint256"}],"stateMutability":"view","type":"function"},{"inputs":[],"name":"decimals","outputs":[{"internalType":"uint8","name":"","type":"uint8"}],"stateMutability":"view","type":"function"},{"inputs":[{"internalType":"address","name":"spender","type":"address"},{"internalType":"uint256","name":"subtractedValue","type":"uint256"}],"name":"decreaseAllowance","outputs":[{"internalType":"bool","name":"","type":"bool"}],"stateMutability":"nonpayable","type":"function"},{"inputs":[],"name":"defaultFeeRate","outputs":[{"internalType":"uint256","name":"","type":"uint256"}],"stateMutability":"view","type":"function"},{"inputs":[],"name":"feePool","outputs":[{"internalType":"uint256","name":"","type":"uint256"}],"stateMutability":"view","type":"function"},{"inputs":[],"name":"feeRate","outputs":[{"internalType":"uint256","name":"","type":"uint256"}],"stateMutability":"view","type":"function"},{"inputs":[{"internalType":"address","name":"","type":"address"}],"name":"feeRateVotes","outputs":[{"internalType":"uint256","name":"votes","type":"uint256"},{"internalType":"uint256","name":"rate","type":"uint256"}],"stateMutability":"view","type":"function"},{"inputs":[{"internalType":"address","name":"_holder","type":"address"}],"name":"getBalanceBeforeRecentChanges","outputs":[{"internalType":"uint256","name":"","type":"uint256"}],"stateMutability":"view","type":"function"},{"inputs":[],"name":"getCampaigns","outputs":[{"components":[{"internalType":"uint256","name":"id","type":"uint256"},{"internalType":"uint256","name":"accountId","type":"uint256"},{"internalType":"enum Asami.Site","name":"site","type":"uint8"},{"internalType":"uint256","name":"budget","type":"uint256"},{"internalType":"uint256","name":"remaining","type":"uint256"},{"internalType":"string","name":"contentId","type":"string"},{"internalType":"uint256","name":"priceScoreRatio","type":"uint256"},{"internalType":"uint256[]","name":"topics","type":"uint256[]"},{"internalType":"uint256","name":"validUntil","type":"uint256"},{"internalType":"bool","name":"fundedByAdmin","type":"bool"}],"internalType":"struct Asami.Campaign[]","name":"","type":"tuple[]"}],"stateMutability":"view","type":"function"},{"inputs":[],"name":"getClaimedAsamiTokens","outputs":[{"internalType":"uint256","name":"","type":"uint256"}],"stateMutability":"view","type":"function"},{"inputs":[],"name":"getCurrentCycle","outputs":[{"internalType":"uint256","name":"","type":"uint256"}],"stateMutability":"view","type":"function"},{"inputs":[],"name":"getCycleLength","outputs":[{"internalType":"uint256","name":"","type":"uint256"}],"stateMutability":"pure","type":"function"},{"inputs":[],"name":"getFeePoolBeforeRecentChanges","outputs":[{"internalType":"uint256","name":"","type":"uint256"}],"stateMutability":"view","type":"function"},{"inputs":[],"name":"getHandles","outputs":[{"components":[{"internalType":"uint256","name":"id","type":"uint256"},{"internalType":"uint256","name":"accountId","type":"uint256"},{"internalType":"enum Asami.Site","name":"site","type":"uint8"},{"internalType":"uint256","name":"price","type":"uint256"},{"internalType":"uint256","name":"score","type":"uint256"},{"internalType":"uint256[]","name":"topics","type":"uint256[]"},{"internalType":"string","name":"username","type":"string"},{"internalType":"string","name":"userId","type":"string"},{"internalType":"bool","name":"needsUpdate","type":"bool"},{"internalType":"string","name":"newUsername","type":"string"},{"internalType":"uint256","name":"newPrice","type":"uint256"},{"internalType":"uint256","name":"newScore","type":"uint256"},{"internalType":"uint256[]","name":"newTopics","type":"uint256[]"},{"internalType":"uint256","name":"lastUpdated","type":"uint256"}],"internalType":"struct Asami.Handle[]","name":"","type":"tuple[]"}],"stateMutability":"view","type":"function"},{"inputs":[],"name":"getHolders","outputs":[{"internalType":"address[]","name":"","type":"address[]"}],"stateMutability":"view","type":"function"},{"inputs":[],"name":"getLatestAdminElections","outputs":[{"internalType":"address[3]","name":"","type":"address[3]"}],"stateMutability":"view","type":"function"},{"inputs":[],"name":"getNextCycle","outputs":[{"internalType":"uint256","name":"","type":"uint256"}],"stateMutability":"view","type":"function"},{"inputs":[{"internalType":"address","name":"_holder","type":"address"}],"name":"getRecentBalanceChange","outputs":[{"components":[{"internalType":"uint256","name":"added","type":"uint256"},{"internalType":"uint256","name":"substracted","type":"uint256"}],"internalType":"struct Asami.BalanceChange","name":"","type":"tuple"}],"stateMutability":"view","type":"function"},{"inputs":[],"name":"getTopics","outputs":[{"internalType":"string[]","name":"","type":"string[]"}],"stateMutability":"view","type":"function"},{"inputs":[{"internalType":"uint256","name":"","type":"uint256"}],"name":"handles","outputs":[{"internalType":"uint256","name":"id","type":"uint256"},{"internalType":"uint256","name":"accountId","type":"uint256"},{"internalType":"enum Asami.Site","name":"site","type":"uint8"},{"internalType":"uint256","name":"price","type":"uint256"},{"internalType":"uint256","name":"score","type":"uint256"},{"internalType":"string","name":"username","type":"string"},{"internalType":"string","name":"userId","type":"string"},{"internalType":"bool","name":"needsUpdate","type":"bool"},{"internalType":"string","name":"newUsername","type":"string"},{"internalType":"uint256","name":"newPrice","type":"uint256"},{"internalType":"uint256","name":"newScore","type":"uint256"},{"internalType":"uint256","name":"lastUpdated","type":"uint256"}],"stateMutability":"view","type":"function"},{"inputs":[{"internalType":"uint256","name":"","type":"uint256"}],"name":"holders","outputs":[{"internalType":"address","name":"","type":"address"}],"stateMutability":"view","type":"function"},{"inputs":[{"internalType":"address","name":"spender","type":"address"},{"internalType":"uint256","name":"addedValue","type":"uint256"}],"name":"increaseAllowance","outputs":[{"internalType":"bool","name":"","type":"bool"}],"stateMutability":"nonpayable","type":"function"},{"inputs":[{"internalType":"uint256[]","name":"mainSet","type":"uint256[]"},{"internalType":"uint256[]","name":"subset","type":"uint256[]"}],"name":"isSubset","outputs":[{"internalType":"bool","name":"","type":"bool"}],"stateMutability":"pure","type":"function"},{"inputs":[],"name":"lastAdminElection","outputs":[{"internalType":"uint256","name":"","type":"uint256"}],"stateMutability":"view","type":"function"},{"inputs":[{"internalType":"address","name":"","type":"address"}],"name":"lastFeePoolShareCycles","outputs":[{"internalType":"uint256","name":"","type":"uint256"}],"stateMutability":"view","type":"function"},{"inputs":[],"name":"lastVotedFeeRateAppliedOn","outputs":[{"internalType":"uint256","name":"","type":"uint256"}],"stateMutability":"view","type":"function"},{"inputs":[{"internalType":"uint256","name":"","type":"uint256"}],"name":"latestAdminElections","outputs":[{"internalType":"address","name":"","type":"address"}],"stateMutability":"view","type":"function"},{"inputs":[{"components":[{"internalType":"enum Asami.Site","name":"site","type":"uint8"},{"internalType":"uint256","name":"budget","type":"uint256"},{"internalType":"string","name":"contentId","type":"string"},{"internalType":"uint256","name":"priceScoreRatio","type":"uint256"},{"internalType":"uint256[]","name":"topics","type":"uint256[]"},{"internalType":"uint256","name":"validUntil","type":"uint256"}],"internalType":"struct Asami.CampaignInput[]","name":"_inputs","type":"tuple[]"}],"name":"makeCampaigns","outputs":[],"stateMutability":"nonpayable","type":"function"},{"inputs":[],"name":"name","outputs":[{"internalType":"string","name":"","type":"string"}],"stateMutability":"view","type":"function"},{"inputs":[{"internalType":"address","name":"_candidate","type":"address"}],"name":"proclaimCycleAdminWinner","outputs":[],"stateMutability":"nonpayable","type":"function"},{"inputs":[{"internalType":"uint256","name":"","type":"uint256"},{"internalType":"address","name":"","type":"address"}],"name":"recentBalanceChanges","outputs":[{"internalType":"uint256","name":"added","type":"uint256"},{"internalType":"uint256","name":"substracted","type":"uint256"}],"stateMutability":"view","type":"function"},{"inputs":[{"internalType":"uint256","name":"","type":"uint256"}],"name":"recentFeePoolChanges","outputs":[{"internalType":"uint256","name":"added","type":"uint256"},{"internalType":"uint256","name":"substracted","type":"uint256"}],"stateMutability":"view","type":"function"},{"inputs":[{"internalType":"uint256","name":"","type":"uint256"}],"name":"recentTokens","outputs":[{"internalType":"uint256","name":"","type":"uint256"}],"stateMutability":"view","type":"function"},{"inputs":[{"internalType":"uint256[]","name":"_campaignIds","type":"uint256[]"}],"name":"reimburseDueCampaigns","outputs":[],"stateMutability":"nonpayable","type":"function"},{"inputs":[],"name":"removeAdminVote","outputs":[],"stateMutability":"nonpayable","type":"function"},{"inputs":[],"name":"removeFeeRateVote","outputs":[],"stateMutability":"nonpayable","type":"function"},{"inputs":[{"internalType":"address","name":"_admin","type":"address"}],"name":"setAdminAddress","outputs":[],"stateMutability":"nonpayable","type":"function"},{"inputs":[{"internalType":"uint256","name":"_handleId","type":"uint256"},{"internalType":"uint256","name":"_price","type":"uint256"}],"name":"setPrice","outputs":[],"stateMutability":"nonpayable","type":"function"},{"inputs":[{"internalType":"address","name":"_candidate","type":"address"}],"name":"submitAdminVote","outputs":[],"stateMutability":"nonpayable","type":"function"},{"inputs":[{"internalType":"uint256","name":"_rate","type":"uint256"}],"name":"submitFeeRateVote","outputs":[],"stateMutability":"nonpayable","type":"function"},{"inputs":[{"internalType":"address","name":"","type":"address"}],"name":"submittedAdminVotes","outputs":[{"internalType":"uint256","name":"votes","type":"uint256"},{"internalType":"address","name":"candidate","type":"address"},{"internalType":"uint256","name":"cycle","type":"uint256"},{"internalType":"bool","name":"vested","type":"bool"}],"stateMutability":"view","type":"function"},{"inputs":[],"name":"symbol","outputs":[{"internalType":"string","name":"","type":"string"}],"stateMutability":"view","type":"function"},{"inputs":[{"internalType":"uint256","name":"","type":"uint256"}],"name":"topics","outputs":[{"internalType":"string","name":"","type":"string"}],"stateMutability":"view","type":"function"},{"inputs":[],"name":"totalSupply","outputs":[{"internalType":"uint256","name":"","type":"uint256"}],"stateMutability":"view","type":"function"},{"inputs":[{"internalType":"address","name":"","type":"address"}],"name":"trackedHolders","outputs":[{"internalType":"bool","name":"","type":"bool"}],"stateMutability":"view","type":"function"},{"inputs":[{"internalType":"address","name":"to","type":"address"},{"internalType":"uint256","name":"amount","type":"uint256"}],"name":"transfer","outputs":[{"internalType":"bool","name":"","type":"bool"}],"stateMutability":"nonpayable","type":"function"},{"inputs":[{"internalType":"address","name":"from","type":"address"},{"internalType":"address","name":"to","type":"address"},{"internalType":"uint256","name":"amount","type":"uint256"}],"name":"transferFrom","outputs":[{"internalType":"bool","name":"","type":"bool"}],"stateMutability":"nonpayable","type":"function"},{"inputs":[{"internalType":"address[]","name":"_holders","type":"address[]"}],"name":"vestAdminVotes","outputs":[],"stateMutability":"nonpayable","type":"function"},{"inputs":[],"name":"vestedAdminVotesTotal","outputs":[{"internalType":"uint256","name":"","type":"uint256"}],"stateMutability":"view","type":"function"},{"inputs":[],"name":"votedFeeRate","outputs":[{"internalType":"uint256","name":"","type":"uint256"}],"stateMutability":"view","type":"function"},{"inputs":[],"name":"votedFeeRateVoteCount","outputs":[{"internalType":"uint256","name":"","type":"uint256"}],"stateMutability":"view","type":"function"}],"evm":{"bytecode":{"linkReferences":{},"object":"60a0604052678ac7230489e80000600c55600c54600d55600c54600e556000600f5560006010553480156200003357600080fd5b506040516200612d3803806200612d83398101604081905262000056916200017c565b6a115eec47f6cf7e350000006040518060400160405280600a81526020016920b9b0b6b4aa37b5b2b760b11b815250604051806040016040528060058152602001644153414d4960d81b8152508160039081620000b4919062000259565b506004620000c3828262000259565b505050600081116200011b5760405162461bcd60e51b815260206004820152601560248201527f45524332304361707065643a2063617020697320300000000000000000000000604482015260640160405180910390fd5b6080526001600555601b80546001600160a01b039384166001600160a01b031991821617909155601f8054821633179055601e805492909316911617905562000325565b80516001600160a01b03811681146200017757600080fd5b919050565b600080604083850312156200019057600080fd5b6200019b836200015f565b9150620001ab602084016200015f565b90509250929050565b634e487b7160e01b600052604160045260246000fd5b600181811c90821680620001df57607f821691505b6020821081036200020057634e487b7160e01b600052602260045260246000fd5b50919050565b601f8211156200025457600081815260208120601f850160051c810160208610156200022f5750805b601f850160051c820191505b8181101562000250578281556001016200023b565b5050505b505050565b81516001600160401b03811115620002755762000275620001b4565b6200028d81620002868454620001ca565b8462000206565b602080601f831160018114620002c55760008415620002ac5750858301515b600019600386901b1c1916600185901b17855562000250565b600085815260208120601f198616915b82811015620002f657888601518255948401946001909101908401620002d5565b5085821015620003155787850151600019600388901b60f8161c191681555b5050505050600190811b01905550565b608051615dde6200034f600039600081816106120152818161256001526145980152615dde6000f3fe608060405234801561001057600080fd5b50600436106104495760003560e01c806370a0823111610241578063ae2e933b1161013b578063ec8b436c116100c3578063f851a44011610087578063f851a44014610ac6578063fa7fb4d814610ad9578063fdb265b014610b09578063fee0117714610b34578063ff3f188614610b4957600080fd5b8063ec8b436c146109c5578063f2a40db814610a31578063f3401bc314610a98578063f398c24114610aab578063f7d9757714610ab357600080fd5b8063cdada3b61161010a578063cdada3b614610979578063d8c44f501461098e578063dbc5bdc414610996578063dd62ed3e146109a9578063e4c1be2e146109bc57600080fd5b8063ae2e933b14610940578063bd5ff42314610949578063be26ed7f1461095c578063c3d03cd41461096457600080fd5b80639314b214116101c95780639bd40aee1161018d5780639bd40aee146108df5780639dfceaaa146108f2578063a457c2d714610905578063a6b0363314610918578063a9059cbb1461092d57600080fd5b80639314b2141461089f57806395d89b41146108a857806396cad0db146108b0578063978bbdb9146108c35780639938e929146108cc57600080fd5b806381d036f51161021057806381d036f514610836578063894d71e11461085d5780638b69633d146108705780638bec13cf1461088357806390537d1f1461088c57600080fd5b806370a08231146107b157806374f1ea16146107da57806379dec48b146108085780637d98e20f1461081057600080fd5b8063395093511161035257806358cea7d2116102da5780636782eb0d1161029e5780636782eb0d1461074a57806368841a461461075d5780636b6a4ad0146107665780636bd1c230146107895780636f1c7617146107a957600080fd5b806358cea7d2146106e65780635d03e487146106f95780635e6134231461070c5780635fe8e7cc146107155780636717d7a81461072a57600080fd5b8063419a7c5d11610321578063419a7c5d146106825780634259d8a21461069757806346c33dd5146106a05780634ba593c6146106b35780634bd38e26146106c657600080fd5b806339509351146106365780633ca75e56146106495780633ec62c0b1461065c578063402c51331461066f57600080fd5b806318d9adab116103d55780632a11ced0116103a45780632a11ced0146105c65780632c1e816d146105d9578063313ce567146105ee57806333c24bd3146105fd578063355274ea1461061057600080fd5b806318d9adab1461056d5780631b06cfbc1461058057806320841544146105ab57806323b872dd146105b357600080fd5b80630dff55ed1161041c5780630dff55ed146104ed578063139fd1c214610514578063141961bc146105345780631677aa3d1461055c57806318160ddd1461056557600080fd5b806306fdde031461044e57806307d334551461046c578063080b064814610483578063095ea7b3146104ca575b600080fd5b610456610b51565b60405161046391906148b2565b60405180910390f35b610475600c5481565b604051908152602001610463565b6104b56104913660046148e1565b60226020908152600092835260408084209091529082529020805460019091015482565b60408051928352602083019190915201610463565b6104dd6104d836600461490d565b610be3565b6040519015158152602001610463565b6104b56104fb366004614937565b6023602052600090815260409020805460019091015482565b610475610522366004614937565b60246020526000908152604090205481565b610547610542366004614937565b610bfd565b60405161046399989796959493929190614988565b61047560205481565b600254610475565b61045661057b366004614937565b610cec565b61059361058e366004614937565b610d98565b6040516001600160a01b039091168152602001610463565b610475610db8565b6104dd6105c13660046149e6565b610dfe565b6105936105d4366004614937565b610e22565b6105ec6105e7366004614a22565b610e4c565b005b60405160128152602001610463565b61047561060b366004614937565b610e85565b7f0000000000000000000000000000000000000000000000000000000000000000610475565b6104dd61064436600461490d565b610ea6565b6105ec610657366004614a88565b610ec8565b6105ec61066a366004614a88565b611133565b6105ec61067d366004614b0d565b61127a565b61068a611487565b6040516104639190614b42565b6213c680610475565b6105ec6106ae366004614a88565b6114cc565b6105ec6106c1366004614b0d565b61161f565b6104756106d4366004614a22565b60146020526000908152604090205481565b6105ec6106f4366004614a88565b611715565b6105ec610707366004614a22565b61187f565b610475600e5481565b61071d611a29565b6040516104639190614b7c565b610475610738366004614a22565b60086020526000908152604090205481565b610475610758366004614a22565b611a89565b61047560105481565b6104dd610774366004614a22565b601d6020526000908152604090205460ff1681565b610475610797366004614a22565b60256020526000908152604090205481565b6105ec611aed565b6104756107bf366004614a22565b6001600160a01b031660009081526020819052604090205490565b6107ed6107e8366004614a22565b611b12565b60408051825181526020928301519281019290925201610463565b610475611b73565b61082361081e366004614937565b611b90565b6040516104639796959493929190614bc9565b6104b5610844366004614a22565b6011602052600090815260409020805460019091015482565b6105ec61086b366004614a88565b611c6a565b6104dd61087e366004614cfb565b611d91565b61047560165481565b6105ec61089a366004614a88565b611e2d565b610475600f5481565b610456611fbb565b601f54610593906001600160a01b031681565b610475600d5481565b6105ec6108da366004614b0d565b611fca565b6105ec6108ed366004614a88565b61288f565b6105ec610900366004614937565b612b23565b6104dd61091336600461490d565b612c36565b610920612cb1565b6040516104639190614e3b565b6104dd61093b36600461490d565b612e85565b61047560215481565b6105ec610957366004614a88565b612e93565b610475613123565b61096c613132565b6040516104639190614e9d565b610981613481565b6040516104639190614ff0565b6105ec6134ed565b6105ec6109a4366004614a88565b6134f8565b6104756109b7366004615048565b6135e8565b61047560155481565b610a076109d3366004614a22565b601260205260009081526040902080546001820154600283015460039093015491926001600160a01b039091169160ff1684565b604080519485526001600160a01b0390931660208501529183015215156060820152608001610463565b610a70610a3f366004614937565b600760205260009081526040902080546001820154600283015460039093015491926001600160a01b039091169184565b604080519485526001600160a01b039093166020850152918301526060820152608001610463565b6105ec610aa6366004614a22565b613613565b6105ec61377b565b6105ec610ac1366004615072565b613784565b601e54610593906001600160a01b031681565b610aec610ae7366004614937565b613812565b604080519283526001600160a01b03909116602083015201610463565b610b1c610b17366004614937565b613849565b6040516104639c9b9a99989796959493929190615094565b610b3c613a5e565b6040516104639190615126565b602054610475565b606060038054610b609061517b565b80601f0160208091040260200160405190810160405280929190818152602001828054610b8c9061517b565b8015610bd95780601f10610bae57610100808354040283529160200191610bd9565b820191906000526020600020905b815481529060010190602001808311610bbc57829003601f168201915b5050505050905090565b600033610bf1818585613b2e565b60019150505b92915050565b600a8181548110610c0d57600080fd5b60009182526020909120600a9091020180546001820154600283015460038401546004850154600586018054959750939560ff909316949193909291610c529061517b565b80601f0160208091040260200160405190810160405280929190818152602001828054610c7e9061517b565b8015610ccb5780601f10610ca057610100808354040283529160200191610ccb565b820191906000526020600020905b815481529060010190602001808311610cae57829003601f168201915b50505050600683015460088401546009909401549293909290915060ff1689565b601a8181548110610cfc57600080fd5b906000526020600020016000915090508054610d179061517b565b80601f0160208091040260200160405190810160405280929190818152602001828054610d439061517b565b8015610d905780601f10610d6557610100808354040283529160200191610d90565b820191906000526020600020905b815481529060010190602001808311610d7357829003601f168201915b505050505081565b60178160038110610da857600080fd5b01546001600160a01b0316905081565b60008060236000610dc7613123565b8152602001908152602001600020905080600001548160010154602154610dee91906151cb565b610df891906151de565b91505090565b600033610e0c858285613c52565b610e17858585613cc6565b506001949350505050565b601c8181548110610e3257600080fd5b6000918252602090912001546001600160a01b0316905081565b601f546001600160a01b03163314610e6357600080fd5b601e80546001600160a01b0319166001600160a01b0392909216919091179055565b60068181548110610e9557600080fd5b600091825260209091200154905081565b600033610bf1818585610eb983836135e8565b610ec391906151cb565b613b2e565b610ed0613e75565b60005b81811015611124576000600a6001858585818110610ef357610ef36151f1565b90506020020135610f0491906151de565b81548110610f1457610f146151f1565b90600052602060002090600a020190506000816000015411610f655760405162461bcd60e51b8152602060048201526005602482015264072646320360dc1b60448201526064015b60405180910390fd5b6000816004015411610fa15760405162461bcd60e51b8152602060048201526005602482015264726463203160d81b6044820152606401610f5c565b42816008015410610fdc5760405162461bcd60e51b8152602060048201526005602482015264393231901960d91b6044820152606401610f5c565b600181015460009081526007602052604081206004830180549083905560098401549192909160ff1661101c5760018301546001600160a01b0316611029565b601f546001600160a01b03165b601b5460405163a9059cbb60e01b81526001600160a01b0380841660048301526024820186905292935091169063a9059cbb906044016020604051808303816000875af115801561107e573d6000803e3d6000fd5b505050506040513d601f19601f820116820180604052508101906110a29190615215565b6110d65760405162461bcd60e51b8152602060048201526005602482015264726463203360d81b6044820152606401610f5c565b7fe4aca3c0fc408b3a8ce278b40b298311b8dca09ac3c3d5d1068f014e01ac551b8460405161110591906152e4565b60405180910390a150505050808061111c90615391565b915050610ed3565b5061112f6001600555565b5050565b601e546001600160a01b03163314806111565750601f546001600160a01b031633145b61115f57600080fd5b60005b8181101561127557600060096001858585818110611182576111826151f1565b905060200281019061119491906153aa565b61119f9190356151de565b815481106111af576111af6151f1565b90600052602060002090600e020190508383838181106111d1576111d16151f1565b90506020028101906111e391906153aa565b60200135600b8201558383838181106111fe576111fe6151f1565b905060200281019061121091906153aa565b61121e9060408101906153ca565b61122c91600c840191614773565b5060088101805460ff19166001179055604051600080516020615d898339815191529061125a908390615413565b60405180910390a1508061126d81615391565b915050611162565b505050565b601e546001600160a01b031633148061129d5750601f546001600160a01b031633145b6112a657600080fd5b6112ae613e75565b60005b8181101561112457368383838181106112cc576112cc6151f1565b90506040020190506112e18160000135613ece565b8035600090815260076020526040902060018101546001600160a01b03161561130957600080fd5b81356008600061131f6040860160208701614a22565b6001600160a01b03166001600160a01b03168152602001908152602001600020819055508160200160208101906113569190614a22565b6001820180546001600160a01b0319166001600160a01b03929092169190911790556002810154156113a85760028101805460009091556113a66113a06040850160208601614a22565b82613f29565b505b60038101541561143b576003810180546000909155601b54600183015460405163a9059cbb60e01b81526001600160a01b0391821660048201526024810184905291169063a9059cbb906044016020604051808303816000875af1158015611414573d6000803e3d6000fd5b505050506040513d601f19601f820116820180604052508101906114389190615215565b50505b7fe1ab017037dfdbe8aeea88ca10733a62fe91b3791c7ab2f30b54a9e2a0b0d3198160405161146a919061551f565b60405180910390a15050808061147f90615391565b9150506112b1565b61148f6147be565b6040805160608101918290529060179060039082845b81546001600160a01b031681526001909101906020018083116114a5575050505050905090565b6114d4613e75565b3360009081526008602090815260408083205483526007909152902060018101546001600160a01b03166115335760405162461bcd60e51b8152600401610f5c9060208082526004908201526306d6320360e41b604082015260600190565b60005b82811015611613576000848483818110611552576115526151f1565b905060200281019061156491906155a7565b61156d906156e1565b905061160083604051806101400160405280600a80549050600161159191906151cb565b8152865460208201528451604090910190600d8111156115b3576115b3614950565b815260200184602001518152602001846020015181526020018460400151815260200184606001518152602001846080015181526020018460a00151815260200160001515815250613f63565b508061160b81615391565b915050611536565b505061112f6001600555565b601e546001600160a01b03163314806116425750601f546001600160a01b031633145b61164b57600080fd5b60005b818110156112755760006009600185858581811061166e5761166e6151f1565b9050604002016000013561168291906151de565b81548110611692576116926151f1565b600091825260208083206001600e909302018281015484526007909152604090922090810154919250906001600160a01b03161580156116d25750805415155b6116db57600080fd5b611700828686868181106116f1576116f16151f1565b9050604002016020013561418b565b5050808061170d90615391565b91505061164e565b601e546001600160a01b03163314806117385750601f546001600160a01b031633145b61174157600080fd5b611749613e75565b60005b81811015611124576000838383818110611768576117686151f1565b905060200281019061177a91906156ed565b61178390615703565b90506117928160000151613ece565b8051600090815260076020526040902060018101546001600160a01b0316156117ba57600080fd5b61186a81604051806101400160405280600a8054905060016117dc91906151cb565b815260200184600001548152602001856020015160000151600d81111561180557611805614950565b815260200185602001516020015181526020018560200151602001518152602001856020015160400151815260200185602001516060015181526020018560200151608001518152602001856020015160a00151815260200160011515815250613f63565b5050808061187790615391565b91505061174c565b6001600160a01b038116600090815260146020526040902054806118a257600080fd5b600060136118b16001846151de565b815481106118c1576118c16151f1565b9060005260206000209060020201905060026015546118e0919061576d565b8154116119175760405162461bcd60e51b8152602060048201526005602482015264070637720360dc1b6044820152606401610f5c565b6000601554116119515760405162461bcd60e51b8152602060048201526005602482015264706377203160d81b6044820152606401610f5c565b600061195b613123565b905080601654106119965760405162461bcd60e51b81526020600482015260056024820152643831bb901960d91b6044820152606401610f5c565b601681905560188054601980546001600160a01b038084166001600160a01b03199283161790925560178054808416948316851790955593169087169081179092551480156119f257506019546001600160a01b038581169116145b15611a2357601e80546001600160a01b0386166001600160a01b03199182168117909255601f805490911690911790555b50505050565b6060601c805480602002602001604051908101604052809291908181526020018280548015610bd9576020028201919060005260206000209081546001600160a01b031681526001909101906020018083116114a5575050505050905090565b60008060226000611a98613123565b8152602080820192909252604090810160009081206001600160a01b03871682528352818120805460018201549483905292909120549093509091611adc916151cb565b611ae691906151de565b9392505050565b6000611af7613123565b90506010548103611b0757600080fd5b600e54600d55601055565b604080518082019091526000808252602082015260226000611b32613123565b8152602080820192909252604090810160009081206001600160a01b0390951681529382529283902083518085019094528054845260010154908301525090565b60006213c680611b81613123565b611b8b91906151cb565b905090565b600b8181548110611ba057600080fd5b9060005260206000209060070201600091509050806000015490806001015490806002015490806003015490806004015490806005018054611be19061517b565b80601f0160208091040260200160405190810160405280929190818152602001828054611c0d9061517b565b8015611c5a5780601f10611c2f57610100808354040283529160200191611c5a565b820191906000526020600020905b815481529060010190602001808311611c3d57829003601f168201915b5050505050908060060154905087565b601e546001600160a01b0316331480611c8d5750601f546001600160a01b031633145b611c9657600080fd5b60005b8181101561127557611cd1838383818110611cb657611cb66151f1565b9050602002810190611cc8919061578f565b60200135613ece565b6009838383818110611ce557611ce56151f1565b9050602002810190611cf7919061578f565b8154600181018355600092835260209092209091600e0201611d1982826159f9565b50506009805460009190611d2f906001906151de565b81548110611d3f57611d3f6151f1565b60009182526020909120600954600e90920201908155604051909150600080516020615d8983398151915290611d76908390615413565b60405180910390a15080611d8981615391565b915050611c99565b6000805b8251811015611e23576000805b8551811015611dff57858181518110611dbd57611dbd6151f1565b6020026020010151858481518110611dd757611dd76151f1565b602002602001015103611ded5760019150611dff565b80611df781615391565b915050611da2565b5080611e1057600092505050610bf7565b5080611e1b81615391565b915050611d95565b5060019392505050565b6000611e37613123565b905060005b82811015611a235760006009858584818110611e5a57611e5a6151f1565b9050602002013581548110611e7157611e716151f1565b90600052602060002090600e020190508281600d015403611ebc5760405162461bcd60e51b8152602060048201526005602482015264061687520360dc1b6044820152606401610f5c565b600881015460ff16611ef85760405162461bcd60e51b8152602060048201526005602482015264061687520360dc1b6044820152606401610f5c565b60088101805460ff19169055600d810183905560098101805460009190611f1e9061517b565b90501115611f395760068101611f376009830182615b14565b505b600a81015415611f4e57600a81015460038201555b600481015415611f6357600b81015460048201555b600c81015415611f8357600c81018054611f819160058401916147dc565b505b600080516020615d8983398151915281604051611fa09190615413565b60405180910390a15080611fb381615391565b915050611e3c565b606060048054610b609061517b565b601e546001600160a01b0316331480611fed5750601f546001600160a01b031633145b611ff657600080fd5b611ffe613e75565b60005b8181101561112457600060096001858585818110612021576120216151f1565b9050604002016020013561203591906151de565b81548110612045576120456151f1565b90600052602060002090600e0201905060008160000154116120925760405162461bcd60e51b8152600401610f5c90602080825260049082015263616d633160e01b604082015260600190565b600180820154600090815260076020526040812091600a908787878181106120bc576120bc6151f1565b905060400201600001356120d091906151de565b815481106120e0576120e06151f1565b90600052602060002090600a02019050600081600001541161212d5760405162461bcd60e51b8152600401610f5c9060208082526004908201526330b6b19960e11b604082015260600190565b428160080154116121695760405162461bcd60e51b8152600401610f5c90602080825260049082015263616d633360e01b604082015260600190565b612217836005018054806020026020016040519081016040528092919081815260200182805480156121ba57602002820191906000526020600020905b8154815260200190600101908083116121a6575b50505050508260070180548060200260200160405190810160405280929190818152602001828054801561220d57602002820191906000526020600020905b8154815260200190600101908083116121f9575b5050505050611d91565b61224c5760405162461bcd60e51b8152600401610f5c90602080825260049082015263185b58cd60e21b604082015260600190565b82600301548160040154101561228d5760405162461bcd60e51b8152600401610f5c90602080825260049082015263616d633560e01b604082015260600190565b600283015460ff16600d8111156122a6576122a6614950565b600282015460ff16600d8111156122bf576122bf614950565b146122f55760405162461bcd60e51b8152600401610f5c9060208082526004908201526330b6b19b60e11b604082015260600190565b80600601548360040154846003015461230e919061576d565b11156123455760405162461bcd60e51b8152600401610f5c90602080825260049082015263616d633760e01b604082015260600190565b600181015460009081526007602052604081206003850154600d549192909168056bc75e2d631000009061237990846157e4565b612383919061576d565b9050600061239182846151de565b905060006040518060e00160405280600b8054905060016123b291906151cb565b8152895460208083019190915288546040808401919091526060808401899052608080850189905282518085018452600080825260a0808801929092524260c090970196909652600b80546001810182559652865160079096027f0175b7a638427703f0dbe7bb9bbf987a2551717b34e79f33b5b1008d1fa01db98101968755948701517f0175b7a638427703f0dbe7bb9bbf987a2551717b34e79f33b5b1008d1fa01dba860155928601517f0175b7a638427703f0dbe7bb9bbf987a2551717b34e79f33b5b1008d1fa01dbb850155908501517f0175b7a638427703f0dbe7bb9bbf987a2551717b34e79f33b5b1008d1fa01dbc8401558401517f0175b7a638427703f0dbe7bb9bbf987a2551717b34e79f33b5b1008d1fa01dbd83015583015192935083927f0175b7a638427703f0dbe7bb9bbf987a2551717b34e79f33b5b1008d1fa01dbe909101906125089082615bea565b5060c091909101516006918201558151908801805460018101825560009182526020822001919091556004870180548692906125459084906151de565b9091555061255690508360016141cc565b60006020546125827f000000000000000000000000000000000000000000000000000000000000000090565b61258c91906151de565b9050600081851161259d578461259f565b815b905080602060008282546125b391906151cb565b909155506000905068056bc75e2d631000006125d083600a6157e4565b6125e290670de0b6b3a76400006157e4565b6125ec919061576d565b9050600068056bc75e2d6310000061260584600f6157e4565b61261790670de0b6b3a76400006157e4565b612621919061576d565b905060008161263084866151de565b61263a91906151de565b9050801561265857601f54612658906001600160a01b031682613f29565b60018c01546001600160a01b03166126e057811561268a57818c600201600082825461268491906151cb565b90915550505b868c600301600082825461269e91906151cb565b90915550506040517fe1ab017037dfdbe8aeea88ca10733a62fe91b3791c7ab2f30b54a9e2a0b0d319906126d3908e9061551f565b60405180910390a161277b565b81156126fe5760018c01546126fe906001600160a01b031683613f29565b601b5460018d015460405163a9059cbb60e01b81526001600160a01b039182166004820152602481018a905291169063a9059cbb906044016020604051808303816000875af1158015612755573d6000803e3d6000fd5b505050506040513d601f19601f820116820180604052508101906127799190615215565b505b82156128015760018a01546001600160a01b03166127e957828a60020160008282546127a791906151cb565b90915550506040517fe1ab017037dfdbe8aeea88ca10733a62fe91b3791c7ab2f30b54a9e2a0b0d319906127dc908c9061551f565b60405180910390a1612801565b60018a0154612801906001600160a01b031684613f29565b7f163f215ebbfd927d87234e39d082b1b03b551dadbca611aab6568ee11a75e8d7866040516128309190615ca1565b60405180910390a17fe4aca3c0fc408b3a8ce278b40b298311b8dca09ac3c3d5d1068f014e01ac551b8b60405161286791906152e4565b60405180910390a150505050505050505050505050808061288790615391565b915050612001565b6000612899613123565b905060005b82811015611a23576000601260008686858181106128be576128be6151f1565b90506020020160208101906128d39190614a22565b6001600160a01b03166001600160a01b03168152602001908152602001600020905060008160020154116129315760405162461bcd60e51b8152602060048201526005602482015264076617620360dc1b6044820152606401610f5c565b8281600201541061296c5760405162461bcd60e51b8152602060048201526005602482015264766176203160d81b6044820152606401610f5c565b600381015460ff16156129a95760405162461bcd60e51b81526020600482015260056024820152643b30bb101960d91b6044820152606401610f5c565b60038101805460ff191660011790558054601580546000906129cc9084906151cb565b909155505060018101546001600160a01b03166000908152601460205260409020548015612a475760006013612a036001846151de565b81548110612a1357612a136151f1565b906000526020600020906002020190508260000154816000016000828254612a3b91906151cb565b90915550612ad7915050565b6013805460018181018355845460029092027f66de8ffda797e3de9c05e8fc57b3bf0ec28a930d40b0d285d93c06501cf6a090810192909255840180547f66de8ffda797e3de9c05e8fc57b3bf0ec28a930d40b0d285d93c06501cf6a09190920180546001600160a01b0319166001600160a01b0393841617905591549154166000908152601460205260409020555b7fe08472d1275fefbb15ff0aea278bb1f42c491be3fa4358160826ba7e420ae61382604051612b069190615d06565b60405180910390a150508080612b1b90615391565b91505061289e565b600081118015612b3b575068056bc75e2d6310000081105b612b705760405162461bcd60e51b815260206004820152600660248201526507366727620360d41b6044820152606401610f5c565b336000908152601160205260409020805415612b8f57612b8f3361425d565b3360009081526020819052604090205480612bd55760405162461bcd60e51b815260206004820152600660248201526573667276203160d01b6044820152606401610f5c565b80600f54612be391906151cb565b612bed84836157e4565b600f54600e54612bfd91906157e4565b612c0791906151cb565b612c11919061576d565b600e8190555080600f6000828254612c2991906151cb565b9091555050815560010155565b60003381612c4482866135e8565b905083811015612ca45760405162461bcd60e51b815260206004820152602560248201527f45524332303a2064656372656173656420616c6c6f77616e63652062656c6f77604482015264207a65726f60d81b6064820152608401610f5c565b610e178286868403613b2e565b6060600a805480602002602001604051908101604052809291908181526020016000905b82821015612e7c57838290600052602060002090600a02016040518061014001604052908160008201548152602001600182015481526020016002820160009054906101000a900460ff16600d811115612d3157612d31614950565b600d811115612d4257612d42614950565b81526020016003820154815260200160048201548152602001600582018054612d6a9061517b565b80601f0160208091040260200160405190810160405280929190818152602001828054612d969061517b565b8015612de35780601f10612db857610100808354040283529160200191612de3565b820191906000526020600020905b815481529060010190602001808311612dc657829003601f168201915b505050505081526020016006820154815260200160078201805480602002602001604051908101604052809291908181526020018280548015612e4557602002820191906000526020600020905b815481526020019060010190808311612e31575b5050509183525050600882015460208083019190915260099092015460ff1615156040909101529082526001929092019101612cd5565b50505050905090565b600033610bf1818585613cc6565b612e9b613e75565b6000612ea5613123565b60008181526024602052604081205491925090612ec160025490565b612ecb91906151de565b90506000612ed7610db8565b905060008211612f115760405162461bcd60e51b8152602060048201526005602482015264063667073360dc1b6044820152606401610f5c565b60008111612f495760405162461bcd60e51b8152602060048201526005602482015264636670733160d81b6044820152606401610f5c565b60005b84811015613115576000868683818110612f6857612f686151f1565b9050602002016020810190612f7d9190614a22565b6001600160a01b0381166000908152602560205260409020549091508511612fcf5760405162461bcd60e51b815260206004820152600560248201526431b338399960d91b6044820152606401610f5c565b6000612fda82611a89565b9050600081116130145760405162461bcd60e51b8152602060048201526005602482015264636670733360d81b6044820152606401610f5c565b60008561302186846157e4565b61302b919061576d565b6001600160a01b03841660009081526025602052604081208990559091506130549082906141cc565b601b5460405163a9059cbb60e01b81526001600160a01b038581166004830152602482018490529091169063a9059cbb906044016020604051808303816000875af11580156130a7573d6000803e3d6000fd5b505050506040513d601f19601f820116820180604052508101906130cb9190615215565b6130ff5760405162461bcd60e51b815260206004820152600560248201526418d99c1ccd60da1b6044820152606401610f5c565b505050808061310d90615391565b915050612f4c565b5050505061112f6001600555565b6000611b8b6213c6804261576d565b60606009805480602002602001604051908101604052809291908181526020016000905b82821015612e7c57838290600052602060002090600e0201604051806101c001604052908160008201548152602001600182015481526020016002820160009054906101000a900460ff16600d8111156131b2576131b2614950565b600d8111156131c3576131c3614950565b815260200160038201548152602001600482015481526020016005820180548060200260200160405190810160405280929190818152602001828054801561322a57602002820191906000526020600020905b815481526020019060010190808311613216575b505050505081526020016006820180546132439061517b565b80601f016020809104026020016040519081016040528092919081815260200182805461326f9061517b565b80156132bc5780601f10613291576101008083540402835291602001916132bc565b820191906000526020600020905b81548152906001019060200180831161329f57829003601f168201915b505050505081526020016007820180546132d59061517b565b80601f01602080910402602001604051908101604052809291908181526020018280546133019061517b565b801561334e5780601f106133235761010080835404028352916020019161334e565b820191906000526020600020905b81548152906001019060200180831161333157829003601f168201915b5050509183525050600882015460ff161515602082015260098201805460409092019161337a9061517b565b80601f01602080910402602001604051908101604052809291908181526020018280546133a69061517b565b80156133f35780601f106133c8576101008083540402835291602001916133f3565b820191906000526020600020905b8154815290600101906020018083116133d657829003601f168201915b50505050508152602001600a8201548152602001600b8201548152602001600c820180548060200260200160405190810160405280929190818152602001828054801561345f57602002820191906000526020600020905b81548152602001906001019080831161344b575b50505050508152602001600d8201548152505081526020019060010190613156565b60606013805480602002602001604051908101604052809291908181526020016000905b82821015612e7c5760008481526020908190206040805180820190915260028502909101805482526001908101546001600160a01b03168284015290835290920191016134a5565b6134f63361425d565b565b601e546001600160a01b031633148061351b5750601f546001600160a01b031633145b61352457600080fd5b60005b8181101561127557601a838383818110613543576135436151f1565b90506020028101906135559190615898565b825460018101845560009384526020909320909201916135759183615933565b50601a547f08581e03117d96ad4b36d978f525bfe879526d97ffb59cecf67eb24a801e03cf908484848181106135ad576135ad6151f1565b90506020028101906135bf9190615898565b6040516135ce93929190615d3f565b60405180910390a1806135e081615391565b915050613527565b6001600160a01b03918216600090815260016020908152604080832093909416825291909152205490565b6001600160a01b0381166136515760405162461bcd60e51b8152602060048201526005602482015264073617620360dc1b6044820152606401610f5c565b33600090815260208190526040902054806136965760405162461bcd60e51b8152602060048201526005602482015264736176203160d81b6044820152606401610f5c565b3360009081526012602052604090208054156136b5576136b533614357565b6040518060800160405280838152602001846001600160a01b031681526020016136dd613123565b8152600060209182018190523381526012825260409081902083518155918301516001830180546001600160a01b0319166001600160a01b0390921691909117905582810151600283015560609092015160038201805460ff191691151591909117905590517fe08472d1275fefbb15ff0aea278bb1f42c491be3fa4358160826ba7e420ae6139161376e91615d06565b60405180910390a1505050565b6134f633614357565b3360009081526008602090815260408083205483526007909152902060018101546001600160a01b03166137b757600080fd5b600060096137c66001866151de565b815481106137d6576137d66151f1565b90600052602060002090600e0201905060008160000154116137f757600080fd5b815460018201541461380857600080fd5b611a23818461418b565b6013818154811061382257600080fd5b6000918252602090912060029091020180546001909101549091506001600160a01b031682565b6009818154811061385957600080fd5b60009182526020909120600e9091020180546001820154600283015460038401546004850154600686018054959750939560ff90931694919390929161389e9061517b565b80601f01602080910402602001604051908101604052809291908181526020018280546138ca9061517b565b80156139175780601f106138ec57610100808354040283529160200191613917565b820191906000526020600020905b8154815290600101906020018083116138fa57829003601f168201915b50505050509080600701805461392c9061517b565b80601f01602080910402602001604051908101604052809291908181526020018280546139589061517b565b80156139a55780601f1061397a576101008083540402835291602001916139a5565b820191906000526020600020905b81548152906001019060200180831161398857829003601f168201915b5050506008840154600985018054949560ff9092169491935091506139c99061517b565b80601f01602080910402602001604051908101604052809291908181526020018280546139f59061517b565b8015613a425780601f10613a1757610100808354040283529160200191613a42565b820191906000526020600020905b815481529060010190602001808311613a2557829003601f168201915b50505050509080600a01549080600b01549080600d015490508c565b6060601a805480602002602001604051908101604052809291908181526020016000905b82821015612e7c578382906000526020600020018054613aa19061517b565b80601f0160208091040260200160405190810160405280929190818152602001828054613acd9061517b565b8015613b1a5780601f10613aef57610100808354040283529160200191613b1a565b820191906000526020600020905b815481529060010190602001808311613afd57829003601f168201915b505050505081526020019060010190613a82565b6001600160a01b038316613b905760405162461bcd60e51b8152602060048201526024808201527f45524332303a20617070726f76652066726f6d20746865207a65726f206164646044820152637265737360e01b6064820152608401610f5c565b6001600160a01b038216613bf15760405162461bcd60e51b815260206004820152602260248201527f45524332303a20617070726f766520746f20746865207a65726f206164647265604482015261737360f01b6064820152608401610f5c565b6001600160a01b0383811660008181526001602090815260408083209487168084529482529182902085905590518481527f8c5be1e5ebec7d5bd14f71427d1e84f3dd0314c0f7b2291e5b200ac8c7c3b925910160405180910390a3505050565b6000613c5e84846135e8565b90506000198114611a235781811015613cb95760405162461bcd60e51b815260206004820152601d60248201527f45524332303a20696e73756666696369656e7420616c6c6f77616e63650000006044820152606401610f5c565b611a238484848403613b2e565b6001600160a01b038316613d2a5760405162461bcd60e51b815260206004820152602560248201527f45524332303a207472616e736665722066726f6d20746865207a65726f206164604482015264647265737360d81b6064820152608401610f5c565b6001600160a01b038216613d8c5760405162461bcd60e51b815260206004820152602360248201527f45524332303a207472616e7366657220746f20746865207a65726f206164647260448201526265737360e81b6064820152608401610f5c565b613d9783838361447b565b6001600160a01b03831660009081526020819052604090205481811015613e0f5760405162461bcd60e51b815260206004820152602660248201527f45524332303a207472616e7366657220616d6f756e7420657863656564732062604482015265616c616e636560d01b6064820152608401610f5c565b6001600160a01b03848116600081815260208181526040808320878703905593871680835291849020805487019055925185815290927fddf252ad1be2c89b69c2b068fc378daa952ba7f163c4a11628f55a4df523b3ef910160405180910390a3611a23565b600260055403613ec75760405162461bcd60e51b815260206004820152601f60248201527f5265656e7472616e637947756172643a207265656e7472616e742063616c6c006044820152606401610f5c565b6002600555565b6000818152600760205260408120549003613f265760008181526007602052604081208290556006805460018101825591527ff652222313e28459528d920b65115c16c04f3efc82aaedc97be59f3f377c0d3f018190555b50565b8060246000613f36613123565b81526020019081526020016000206000828254613f5391906151cb565b9091555061112f90508282614596565b6000816060015111613f7457600080fd5b60008160a001515111613f8657600080fd5b601b5460608201516040516323b872dd60e01b815233600482015230602482015260448101919091526001600160a01b03909116906323b872dd906064016020604051808303816000875af1158015613fe3573d6000803e3d6000fd5b505050506040513d601f19601f820116820180604052508101906140079190615215565b61401057600080fd5b600a80546001818101835560008390528351919092027fc65a7bb8d6351c1cf70c95a316cc6a92839c986682d98bc35f958f4883f9d2a8810191825560208401517fc65a7bb8d6351c1cf70c95a316cc6a92839c986682d98bc35f958f4883f9d2a982015560408401517fc65a7bb8d6351c1cf70c95a316cc6a92839c986682d98bc35f958f4883f9d2aa9091018054859460ff199091169083600d8111156140bb576140bb614950565b0217905550606082015160038201556080820151600482015560a082015160058201906140e89082615bea565b5060c0820151600682015560e0820151805161410e91600784019160209091019061481c565b506101008201516008820155610120909101516009909101805460ff191691151591909117905580516005830180546001810182556000918252602090912001556040517fe4aca3c0fc408b3a8ce278b40b298311b8dca09ac3c3d5d1068f014e01ac551b9061417f908390615d75565b60405180910390a15050565b6000811161419857600080fd5b600a820181905560088201805460ff19166001179055604051600080516020615d898339815191529061417f908490615413565b6000602360006141da613123565b81526020019081526020016000209050811561422657826021600082825461420291906151cb565b909155505080548390829060009061421b9084906151cb565b909155506112759050565b826021600082825461423891906151de565b925050819055508281600101600082825461425391906151cb565b9091555050505050565b6001600160a01b038116600090815260116020526040902080546142ac5760405162461bcd60e51b815260206004820152600660248201526507266727620360d41b6044820152606401610f5c565b8054600f546000916142bd916151de565b90506000600f54600e546142d191906157e4565b90506000836001015484600001546142e991906157e4565b905060008183116142fb576000614305565b61430582846151de565b9050831561432457614317848261576d565b600e55600f849055614330565b600c54600e556000600f555b5050506001600160a01b039092166000908152601160205260408120818155600101555050565b6001600160a01b038116600090815260126020526040902080546143a65760405162461bcd60e51b815260206004820152600660248201526507261766820360d41b6044820152606401610f5c565b600381015460ff1615614439578054601580546000906143c79084906151de565b909155505060018101546001600160a01b0316600090815260146020526040902054806143f357600080fd5b815460136144026001846151de565b81548110614412576144126151f1565b9060005260206000209060020201600001600082825461443291906151de565b9091555050505b506001600160a01b031660009081526012602052604081208181556001810180546001600160a01b03191690556002810191909155600301805460ff19169055565b6001600160a01b038316156144e45761449683826000614623565b6001600160a01b038316600090815260116020526040902054156144bd576144bd8361425d565b6001600160a01b038316600090815260126020526040902054156144e4576144e483614357565b6001600160a01b03821615611275576144ff82826001614623565b6001600160a01b0382166000908152601d602052604090205460ff161580156145285750600081115b1561127557601c805460018181019092557f0e4562a10381dec21b205ed72637e6b1b523bdd0e4d4d50af5cd23dd4500a2110180546001600160a01b0385166001600160a01b031990911681179091556000908152601d60205260409020805460ff19169091179055505050565b7f0000000000000000000000000000000000000000000000000000000000000000816145c160025490565b6145cb91906151cb565b11156146195760405162461bcd60e51b815260206004820152601960248201527f45524332304361707065643a20636170206578636565646564000000000000006044820152606401610f5c565b61112f82826146a8565b600060226000614631613123565b81526020019081526020016000206000856001600160a01b03166001600160a01b0316815260200190815260200160002090508115614689578281600001600082825461467e91906151cb565b90915550611a239050565b8281600101600082825461469d91906151cb565b909155505050505050565b6001600160a01b0382166146fe5760405162461bcd60e51b815260206004820152601f60248201527f45524332303a206d696e7420746f20746865207a65726f2061646472657373006044820152606401610f5c565b61470a6000838361447b565b806002600082825461471c91906151cb565b90915550506001600160a01b038216600081815260208181526040808320805486019055518481527fddf252ad1be2c89b69c2b068fc378daa952ba7f163c4a11628f55a4df523b3ef910160405180910390a35050565b8280548282559060005260206000209081019282156147ae579160200282015b828111156147ae578235825591602001919060010190614793565b506147ba929150614857565b5090565b60405180606001604052806003906020820280368337509192915050565b8280548282559060005260206000209081019282156147ae5760005260206000209182015b828111156147ae578254825591600101919060010190614801565b8280548282559060005260206000209081019282156147ae579160200282015b828111156147ae57825182559160200191906001019061483c565b5b808211156147ba5760008155600101614858565b6000815180845260005b8181101561489257602081850181015186830182015201614876565b506000602082860101526020601f19601f83011685010191505092915050565b602081526000611ae6602083018461486c565b80356001600160a01b03811681146148dc57600080fd5b919050565b600080604083850312156148f457600080fd5b82359150614904602084016148c5565b90509250929050565b6000806040838503121561492057600080fd5b614929836148c5565b946020939093013593505050565b60006020828403121561494957600080fd5b5035919050565b634e487b7160e01b600052602160045260246000fd5b600e811061498457634e487b7160e01b600052602160045260246000fd5b9052565b60006101208b83528a60208401526149a3604084018b614966565b8860608401528760808401528060a08401526149c18184018861486c565b60c0840196909652505060e08101929092521515610100909101529695505050505050565b6000806000606084860312156149fb57600080fd5b614a04846148c5565b9250614a12602085016148c5565b9150604084013590509250925092565b600060208284031215614a3457600080fd5b611ae6826148c5565b60008083601f840112614a4f57600080fd5b5081356001600160401b03811115614a6657600080fd5b6020830191508360208260051b8501011115614a8157600080fd5b9250929050565b60008060208385031215614a9b57600080fd5b82356001600160401b03811115614ab157600080fd5b614abd85828601614a3d565b90969095509350505050565b60008083601f840112614adb57600080fd5b5081356001600160401b03811115614af257600080fd5b6020830191508360208260061b8501011115614a8157600080fd5b60008060208385031215614b2057600080fd5b82356001600160401b03811115614b3657600080fd5b614abd85828601614ac9565b60608101818360005b6003811015614b735781516001600160a01b0316835260209283019290910190600101614b4b565b50505092915050565b6020808252825182820181905260009190848201906040850190845b81811015614bbd5783516001600160a01b031683529284019291840191600101614b98565b50909695505050505050565b87815286602082015285604082015284606082015283608082015260e060a08201526000614bfa60e083018561486c565b90508260c083015298975050505050505050565b634e487b7160e01b600052604160045260246000fd5b60405160c081016001600160401b0381118282101715614c4657614c46614c0e565b60405290565b604051601f8201601f191681016001600160401b0381118282101715614c7457614c74614c0e565b604052919050565b600082601f830112614c8d57600080fd5b813560206001600160401b03821115614ca857614ca8614c0e565b8160051b614cb7828201614c4c565b9283528481018201928281019087851115614cd157600080fd5b83870192505b84831015614cf057823582529183019190830190614cd7565b979650505050505050565b60008060408385031215614d0e57600080fd5b82356001600160401b0380821115614d2557600080fd5b614d3186838701614c7c565b93506020850135915080821115614d4757600080fd5b50614d5485828601614c7c565b9150509250929050565b600081518084526020808501945080840160005b83811015614d8e57815187529582019590820190600101614d72565b509495945050505050565b600061014082518452602083015160208501526040830151614dbe6040860182614966565b50606083015160608501526080830151608085015260a08301518160a0860152614dea8286018261486c565b91505060c083015160c085015260e083015184820360e0860152614e0e8282614d5e565b91505061010080840151818601525061012080840151614e318287018215159052565b5090949350505050565b6000602080830181845280855180835260408601915060408160051b870101925083870160005b82811015614e9057603f19888603018452614e7e858351614d99565b94509285019290850190600101614e62565b5092979650505050505050565b60006020808301818452808551808352604092508286019150828160051b87010184880160005b83811015614fe257603f1989840301855281516101c081518552888201518986015287820151614ef689870182614966565b50606082810151908601526080808301519086015260a080830151818701839052614f2383880182614d5e565b9250505060c08083015186830382880152614f3e838261486c565b9250505060e08083015186830382880152614f59838261486c565b9250505061010080830151614f718288018215159052565b50506101208083015186830382880152614f8b838261486c565b925050506101408083015181870152506101608083015181870152506101808083015186830382880152614fbf8382614d5e565b6101a0948501519790940196909652505094870194925090860190600101614ec4565b509098975050505050505050565b602080825282518282018190526000919060409081850190868401855b8281101561503b578151805185528601516001600160a01b031686850152928401929085019060010161500d565b5091979650505050505050565b6000806040838503121561505b57600080fd5b615064836148c5565b9150614904602084016148c5565b6000806040838503121561508557600080fd5b50508035926020909101359150565b60006101808e83528d60208401526150af604084018e614966565b8b60608401528a60808401528060a08401526150cd8184018b61486c565b905082810360c08401526150e1818a61486c565b905087151560e08401528281036101008401526150fe818861486c565b6101208401969096525050610140810192909252610160909101529998505050505050505050565b6000602080830181845280855180835260408601915060408160051b870101925083870160005b82811015614e9057603f1988860301845261516985835161486c565b9450928501929085019060010161514d565b600181811c9082168061518f57607f821691505b6020821081036151af57634e487b7160e01b600052602260045260246000fd5b50919050565b634e487b7160e01b600052601160045260246000fd5b80820180821115610bf757610bf76151b5565b81810381811115610bf757610bf76151b5565b634e487b7160e01b600052603260045260246000fd5b8015158114613f2657600080fd5b60006020828403121561522757600080fd5b8151611ae681615207565b6000815461523f8161517b565b80855260206001838116801561525c5760018114615276576152a4565b60ff1985168884015283151560051b8801830195506152a4565b866000528260002060005b8581101561529c5781548a8201860152908301908401615281565b890184019650505b505050505092915050565b6000815480845260208085019450836000528060002060005b83811015614d8e578154875295820195600191820191016152c8565b6020815281546020820152600182015460408201526000615309600284015460ff1690565b6153166060840182614966565b5060038301546080830152600483015460a08301526101408060c0840152615345610160840160058601615232565b600685015460e0850152838103601f190161010085015261536981600787016152af565b90506008850154610120850152615384600986015460ff1690565b1515919093015250919050565b6000600182016153a3576153a36151b5565b5060010190565b60008235605e198336030181126153c057600080fd5b9190910192915050565b6000808335601e198436030181126153e157600080fd5b8301803591506001600160401b038211156153fb57600080fd5b6020019150600581901b3603821315614a8157600080fd5b6020815281546020820152600182015460408201526000615438600284015460ff1690565b6154456060840182614966565b5060038301546080830152600483015460a08301526101c08060c08401526154746101e08401600586016152af565b601f19808583030160e086015261548e8260068801615232565b915080858303016101008601526154a88260078801615232565b91506154b8600887015460ff1690565b151561012086015284820381016101408601526154d88260098801615232565b9150600a860154610160860152600b86015461018086015280858303016101a08601525061550981600c87016152af565b9050600d85015482850152809250505092915050565b602080825282549082015260018201546001600160a01b03166040820152600282015460608201526003820154608082015260e060a0820152600061556b6101008301600485016152af565b601f19808483030160c085015261558582600587016152af565b9150808483030160e08501525061559f81600686016152af565b949350505050565b6000823560be198336030181126153c057600080fd5b600e8110613f2657600080fd5b80356148dc816155bd565b600082601f8301126155e657600080fd5b81356001600160401b038111156155ff576155ff614c0e565b615612601f8201601f1916602001614c4c565b81815284602083860101111561562757600080fd5b816020850160208301376000918101602001919091529392505050565b600060c0828403121561565657600080fd5b61565e614c24565b9050615669826155ca565b81526020820135602082015260408201356001600160401b038082111561568f57600080fd5b61569b858386016155d5565b60408401526060840135606084015260808401359150808211156156be57600080fd5b506156cb84828501614c7c565b60808301525060a082013560a082015292915050565b6000610bf73683615644565b60008235603e198336030181126153c057600080fd5b60006040823603121561571557600080fd5b604051604081016001600160401b03828210818311171561573857615738614c0e565b8160405284358352602085013591508082111561575457600080fd5b5061576136828601615644565b60208301525092915050565b60008261578a57634e487b7160e01b600052601260045260246000fd5b500490565b600082356101be198336030181126153c057600080fd5b60008135610bf7816155bd565b600e82106157d157634e487b7160e01b600052602160045260246000fd5b60ff1981541660ff831681178255505050565b8082028115828204841417610bf757610bf76151b5565b5b8181101561112f57600081556001016157fc565b6001600160401b0383111561582757615827614c0e565b6801000000000000000083111561584057615840614c0e565b805483825580841015615866578160005260206000206158648282018683016157fb565b505b50818160005260208060002060005b8681101561588f5783358282015592820192600101615875565b50505050505050565b6000808335601e198436030181126158af57600080fd5b8301803591506001600160401b038211156158c957600080fd5b602001915036819003821315614a8157600080fd5b601f82111561127557806000526020600020601f840160051c810160208510156159055750805b615917601f850160051c8301826157fb565b5050505050565b600019600383901b1c191660019190911b1790565b6001600160401b0383111561594a5761594a614c0e565b61595e83615958835461517b565b836158de565b6000601f84116001811461598c576000851561597a5750838201355b615984868261591e565b845550615917565b600083815260209020601f19861690835b828110156159bd578685013582556020948501946001909201910161599d565b50868210156159da5760001960f88860031b161c19848701351681555b505060018560011b0183555050505050565b60008135610bf781615207565b8135815560208201356001820155615a1f615a16604084016157a6565b600283016157b3565b6060820135600382015560808201356004820155615a4060a08301836153ca565b615a4e818360058601615810565b5050615a5d60c0830183615898565b615a6b818360068601615933565b5050615a7a60e0830183615898565b615a88818360078601615933565b5050615ab3615a9a61010084016159ec565b6008830160ff1981541660ff8315151681178255505050565b615ac1610120830183615898565b615acf818360098601615933565b5050610140820135600a820155610160820135600b820155615af56101808301836153ca565b615b038183600c8601615810565b50506101a0820135600d8201555050565b818103615b1f575050565b615b29825461517b565b6001600160401b03811115615b4057615b40614c0e565b615b5481615b4e845461517b565b846158de565b6000601f821160018114615b825760008315615b705750848201545b615b7a848261591e565b855550615917565b600085815260209020601f19841690600086815260209020845b83811015615bbc5782860154825560019586019590910190602001615b9c565b5085831015615bda5781850154600019600388901b60f8161c191681555b5050505050600190811b01905550565b81516001600160401b03811115615c0357615c03614c0e565b615c1181615b4e845461517b565b602080601f831160018114615c405760008415615c2e5750858301515b615c38858261591e565b865550615c99565b600085815260208120601f198616915b82811015615c6f57888601518255948401946001909101908401615c50565b5085821015615c8d5787850151600019600388901b60f8161c191681555b505060018460011b0185555b505050505050565b6020815281516020820152602082015160408201526040820151606082015260608201516080820152608082015160a0820152600060a083015160e060c0840152615cf061010084018261486c565b905060c084015160e08401528091505092915050565b8154815260018201546001600160a01b0316602082015260028201546040820152600382015460ff161515606082015260808101610bf7565b83815260406020820152816040820152818360608301376000818301606090810191909152601f909201601f1916010192915050565b602081526000611ae66020830184614d9956fe96e9914f87caf53079f3441ee12036434bc4ea93f85df92beb30c7c918984e9fa26469706673582212204cf6364ac80fbca287541b80b6e982d1725cbbc4585887f3b548d4cbe702d90864736f6c63430008130033","opcodes":"PUSH1 0xA0 PUSH1 0x40 MSTORE PUSH8 0x8AC7230489E80000 PUSH1 0xC SSTORE PUSH1 0xC SLOAD PUSH1 0xD SSTORE PUSH1 0xC SLOAD PUSH1 0xE SSTORE PUSH1 0x0 PUSH1 0xF SSTORE PUSH1 0x0 PUSH1 0x10 SSTORE CALLVALUE DUP1 ISZERO PUSH3 0x33 JUMPI PUSH1 0x0 DUP1 REVERT JUMPDEST POP PUSH1 0x40 MLOAD PUSH3 0x612D CODESIZE SUB DUP1 PUSH3 0x612D DUP4 CODECOPY DUP2 ADD PUSH1 0x40 DUP2 SWAP1 MSTORE PUSH3 0x56 SWAP2 PUSH3 0x17C JUMP JUMPDEST PUSH11 0x115EEC47F6CF7E35000000 PUSH1 0x40 MLOAD DUP1 PUSH1 0x40 ADD PUSH1 0x40 MSTORE DUP1 PUSH1 0xA DUP2 MSTORE PUSH1 0x20 ADD PUSH10 0x20B9B0B6B4AA37B5B2B7 PUSH1 0xB1 SHL DUP2 MSTORE POP PUSH1 0x40 MLOAD DUP1 PUSH1 0x40 ADD PUSH1 0x40 MSTORE DUP1 PUSH1 0x5 DUP2 MSTORE PUSH1 0x20 ADD PUSH5 0x4153414D49 PUSH1 0xD8 SHL DUP2 MSTORE POP DUP2 PUSH1 0x3 SWAP1 DUP2 PUSH3 0xB4 SWAP2 SWAP1 PUSH3 0x259 JUMP JUMPDEST POP PUSH1 0x4 PUSH3 0xC3 DUP3 DUP3 PUSH3 0x259 JUMP JUMPDEST POP POP POP PUSH1 0x0 DUP2 GT PUSH3 0x11B JUMPI PUSH1 0x40 MLOAD PUSH3 0x461BCD PUSH1 0xE5 SHL DUP2 MSTORE PUSH1 0x20 PUSH1 0x4 DUP3 ADD MSTORE PUSH1 0x15 PUSH1 0x24 DUP3 ADD MSTORE PUSH32 0x45524332304361707065643A2063617020697320300000000000000000000000 PUSH1 0x44 DUP3 ADD MSTORE PUSH1 0x64 ADD PUSH1 0x40 MLOAD DUP1 SWAP2 SUB SWAP1 REVERT JUMPDEST PUSH1 0x80 MSTORE PUSH1 0x1 PUSH1 0x5 SSTORE PUSH1 0x1B DUP1 SLOAD PUSH1 0x1 PUSH1 0x1 PUSH1 0xA0 SHL SUB SWAP4 DUP5 AND PUSH1 0x1 PUSH1 0x1 PUSH1 0xA0 SHL SUB NOT SWAP2 DUP3 AND OR SWAP1 SWAP2 SSTORE PUSH1 0x1F DUP1 SLOAD DUP3 AND CALLER OR SWAP1 SSTORE PUSH1 0x1E DUP1 SLOAD SWAP3 SWAP1 SWAP4 AND SWAP2 AND OR SWAP1 SSTORE PUSH3 0x325 JUMP JUMPDEST DUP1 MLOAD PUSH1 0x1 PUSH1 0x1 PUSH1 0xA0 SHL SUB DUP2 AND DUP2 EQ PUSH3 0x177 JUMPI PUSH1 0x0 DUP1 REVERT JUMPDEST SWAP2 SWAP1 POP JUMP JUMPDEST PUSH1 0x0 DUP1 PUSH1 0x40 DUP4 DUP6 SUB SLT ISZERO PUSH3 0x190 JUMPI PUSH1 0x0 DUP1 REVERT JUMPDEST PUSH3 0x19B DUP4 PUSH3 0x15F JUMP JUMPDEST SWAP2 POP PUSH3 0x1AB PUSH1 0x20 DUP5 ADD PUSH3 0x15F JUMP JUMPDEST SWAP1 POP SWAP3 POP SWAP3 SWAP1 POP JUMP JUMPDEST PUSH4 0x4E487B71 PUSH1 0xE0 SHL PUSH1 0x0 MSTORE PUSH1 0x41 PUSH1 0x4 MSTORE PUSH1 0x24 PUSH1 0x0 REVERT JUMPDEST PUSH1 0x1 DUP2 DUP2 SHR SWAP1 DUP3 AND DUP1 PUSH3 0x1DF JUMPI PUSH1 0x7F DUP3 AND SWAP2 POP JUMPDEST PUSH1 0x20 DUP3 LT DUP2 SUB PUSH3 0x200 JUMPI PUSH4 0x4E487B71 PUSH1 0xE0 SHL PUSH1 0x0 MSTORE PUSH1 0x22 PUSH1 0x4 MSTORE PUSH1 0x24 PUSH1 0x0 REVERT JUMPDEST POP SWAP2 SWAP1 POP JUMP JUMPDEST PUSH1 0x1F DUP3 GT ISZERO PUSH3 0x254 JUMPI PUSH1 0x0 DUP2 DUP2 MSTORE PUSH1 0x20 DUP2 KECCAK256 PUSH1 0x1F DUP6 ADD PUSH1 0x5 SHR DUP2 ADD PUSH1 0x20 DUP7 LT ISZERO PUSH3 0x22F JUMPI POP DUP1 JUMPDEST PUSH1 0x1F DUP6 ADD PUSH1 0x5 SHR DUP3 ADD SWAP2 POP JUMPDEST DUP2 DUP2 LT ISZERO PUSH3 0x250 JUMPI DUP3 DUP2 SSTORE PUSH1 0x1 ADD PUSH3 0x23B JUMP JUMPDEST POP POP POP JUMPDEST POP POP POP JUMP JUMPDEST DUP2 MLOAD PUSH1 0x1 PUSH1 0x1 PUSH1 0x40 SHL SUB DUP2 GT ISZERO PUSH3 0x275 JUMPI PUSH3 0x275 PUSH3 0x1B4 JUMP JUMPDEST PUSH3 0x28D DUP2 PUSH3 0x286 DUP5 SLOAD PUSH3 0x1CA JUMP JUMPDEST DUP5 PUSH3 0x206 JUMP JUMPDEST PUSH1 0x20 DUP1 PUSH1 0x1F DUP4 GT PUSH1 0x1 DUP2 EQ PUSH3 0x2C5 JUMPI PUSH1 0x0 DUP5 ISZERO PUSH3 0x2AC JUMPI POP DUP6 DUP4 ADD MLOAD JUMPDEST PUSH1 0x0 NOT PUSH1 0x3 DUP7 SWAP1 SHL SHR NOT AND PUSH1 0x1 DUP6 SWAP1 SHL OR DUP6 SSTORE PUSH3 0x250 JUMP JUMPDEST PUSH1 0x0 DUP6 DUP2 MSTORE PUSH1 0x20 DUP2 KECCAK256 PUSH1 0x1F NOT DUP7 AND SWAP2 JUMPDEST DUP3 DUP2 LT ISZERO PUSH3 0x2F6 JUMPI DUP9 DUP7 ADD MLOAD DUP3 SSTORE SWAP5 DUP5 ADD SWAP5 PUSH1 0x1 SWAP1 SWAP2 ADD SWAP1 DUP5 ADD PUSH3 0x2D5 JUMP JUMPDEST POP DUP6 DUP3 LT ISZERO PUSH3 0x315 JUMPI DUP8 DUP6 ADD MLOAD PUSH1 0x0 NOT PUSH1 0x3 DUP9 SWAP1 SHL PUSH1 0xF8 AND SHR NOT AND DUP2 SSTORE JUMPDEST POP POP POP POP POP PUSH1 0x1 SWAP1 DUP2 SHL ADD SWAP1 SSTORE POP JUMP JUMPDEST PUSH1 0x80 MLOAD PUSH2 0x5DDE PUSH3 0x34F PUSH1 0x0 CODECOPY PUSH1 0x0 DUP2 DUP2 PUSH2 0x612 ADD MSTORE DUP2 DUP2 PUSH2 0x2560 ADD MSTORE PUSH2 0x4598 ADD MSTORE PUSH2 0x5DDE PUSH1 0x0 RETURN INVALID PUSH1 0x80 PUSH1 0x40 MSTORE CALLVALUE DUP1 ISZERO PUSH2 0x10 JUMPI PUSH1 0x0 DUP1 REVERT JUMPDEST POP PUSH1 0x4 CALLDATASIZE LT PUSH2 0x449 JUMPI PUSH1 0x0 CALLDATALOAD PUSH1 0xE0 SHR DUP1 PUSH4 0x70A08231 GT PUSH2 0x241 JUMPI DUP1 PUSH4 0xAE2E933B GT PUSH2 0x13B JUMPI DUP1 PUSH4 0xEC8B436C GT PUSH2 0xC3 JUMPI DUP1 PUSH4 0xF851A440 GT PUSH2 0x87 JUMPI DUP1 PUSH4 0xF851A440 EQ PUSH2 0xAC6 JUMPI DUP1 PUSH4 0xFA7FB4D8 EQ PUSH2 0xAD9 JUMPI DUP1 PUSH4 0xFDB265B0 EQ PUSH2 0xB09 JUMPI DUP1 PUSH4 0xFEE01177 EQ PUSH2 0xB34 JUMPI DUP1 PUSH4 0xFF3F1886 EQ PUSH2 0xB49 JUMPI PUSH1 0x0 DUP1 REVERT JUMPDEST DUP1 PUSH4 0xEC8B436C EQ PUSH2 0x9C5 JUMPI DUP1 PUSH4 0xF2A40DB8 EQ PUSH2 0xA31 JUMPI DUP1 PUSH4 0xF3401BC3 EQ PUSH2 0xA98 JUMPI DUP1 PUSH4 0xF398C241 EQ PUSH2 0xAAB JUMPI DUP1 PUSH4 0xF7D97577 EQ PUSH2 0xAB3 JUMPI PUSH1 0x0 DUP1 REVERT JUMPDEST DUP1 PUSH4 0xCDADA3B6 GT PUSH2 0x10A JUMPI DUP1 PUSH4 0xCDADA3B6 EQ PUSH2 0x979 JUMPI DUP1 PUSH4 0xD8C44F50 EQ PUSH2 0x98E JUMPI DUP1 PUSH4 0xDBC5BDC4 EQ PUSH2 0x996 JUMPI DUP1 PUSH4 0xDD62ED3E EQ PUSH2 0x9A9 JUMPI DUP1 PUSH4 0xE4C1BE2E EQ PUSH2 0x9BC JUMPI PUSH1 0x0 DUP1 REVERT JUMPDEST DUP1 PUSH4 0xAE2E933B EQ PUSH2 0x940 JUMPI DUP1 PUSH4 0xBD5FF423 EQ PUSH2 0x949 JUMPI DUP1 PUSH4 0xBE26ED7F EQ PUSH2 0x95C JUMPI DUP1 PUSH4 0xC3D03CD4 EQ PUSH2 0x964 JUMPI PUSH1 0x0 DUP1 REVERT JUMPDEST DUP1 PUSH4 0x9314B214 GT PUSH2 0x1C9 JUMPI DUP1 PUSH4 0x9BD40AEE GT PUSH2 0x18D JUMPI DUP1 PUSH4 0x9BD40AEE EQ PUSH2 0x8DF JUMPI DUP1 PUSH4 0x9DFCEAAA EQ PUSH2 0x8F2 JUMPI DUP1 PUSH4 0xA457C2D7 EQ PUSH2 0x905 JUMPI DUP1 PUSH4 0xA6B03633 EQ PUSH2 0x918 JUMPI DUP1 PUSH4 0xA9059CBB EQ PUSH2 0x92D JUMPI PUSH1 0x0 DUP1 REVERT JUMPDEST DUP1 PUSH4 0x9314B214 EQ PUSH2 0x89F JUMPI DUP1 PUSH4 0x95D89B41 EQ PUSH2 0x8A8 JUMPI DUP1 PUSH4 0x96CAD0DB EQ PUSH2 0x8B0 JUMPI DUP1 PUSH4 0x978BBDB9 EQ PUSH2 0x8C3 JUMPI DUP1 PUSH4 0x9938E929 EQ PUSH2 0x8CC JUMPI PUSH1 0x0 DUP1 REVERT JUMPDEST DUP1 PUSH4 0x81D036F5 GT PUSH2 0x210 JUMPI DUP1 PUSH4 0x81D036F5 EQ PUSH2 0x836 JUMPI DUP1 PUSH4 0x894D71E1 EQ PUSH2 0x85D JUMPI DUP1 PUSH4 0x8B69633D EQ PUSH2 0x870 JUMPI DUP1 PUSH4 0x8BEC13CF EQ PUSH2 0x883 JUMPI DUP1 PUSH4 0x90537D1F EQ PUSH2 0x88C JUMPI PUSH1 0x0 DUP1 REVERT JUMPDEST DUP1 PUSH4 0x70A08231 EQ PUSH2 0x7B1 JUMPI DUP1 PUSH4 0x74F1EA16 EQ PUSH2 0x7DA JUMPI DUP1 PUSH4 0x79DEC48B EQ PUSH2 0x808 JUMPI DUP1 PUSH4 0x7D98E20F EQ PUSH2 0x810 JUMPI PUSH1 0x0 DUP1 REVERT JUMPDEST DUP1 PUSH4 0x39509351 GT PUSH2 0x352 JUMPI DUP1 PUSH4 0x58CEA7D2 GT PUSH2 0x2DA JUMPI DUP1 PUSH4 0x6782EB0D GT PUSH2 0x29E JUMPI DUP1 PUSH4 0x6782EB0D EQ PUSH2 0x74A JUMPI DUP1 PUSH4 0x68841A46 EQ PUSH2 0x75D JUMPI DUP1 PUSH4 0x6B6A4AD0 EQ PUSH2 0x766 JUMPI DUP1 PUSH4 0x6BD1C230 EQ PUSH2 0x789 JUMPI DUP1 PUSH4 0x6F1C7617 EQ PUSH2 0x7A9 JUMPI PUSH1 0x0 DUP1 REVERT JUMPDEST DUP1 PUSH4 0x58CEA7D2 EQ PUSH2 0x6E6 JUMPI DUP1 PUSH4 0x5D03E487 EQ PUSH2 0x6F9 JUMPI DUP1 PUSH4 0x5E613423 EQ PUSH2 0x70C JUMPI DUP1 PUSH4 0x5FE8E7CC EQ PUSH2 0x715 JUMPI DUP1 PUSH4 0x6717D7A8 EQ PUSH2 0x72A JUMPI PUSH1 0x0 DUP1 REVERT JUMPDEST DUP1 PUSH4 0x419A7C5D GT PUSH2 0x321 JUMPI DUP1 PUSH4 0x419A7C5D EQ PUSH2 0x682 JUMPI DUP1 PUSH4 0x4259D8A2 EQ PUSH2 0x697 JUMPI DUP1 PUSH4 0x46C33DD5 EQ PUSH2 0x6A0 JUMPI DUP1 PUSH4 0x4BA593C6 EQ PUSH2 0x6B3 JUMPI DUP1 PUSH4 0x4BD38E26 EQ PUSH2 0x6C6 JUMPI PUSH1 0x0 DUP1 REVERT JUMPDEST DUP1 PUSH4 0x39509351 EQ PUSH2 0x636 JUMPI DUP1 PUSH4 0x3CA75E56 EQ PUSH2 0x649 JUMPI DUP1 PUSH4 0x3EC62C0B EQ PUSH2 0x65C JUMPI DUP1 PUSH4 0x402C5133 EQ PUSH2 0x66F JUMPI PUSH1 0x0 DUP1 REVERT JUMPDEST DUP1 PUSH4 0x18D9ADAB GT PUSH2 0x3D5 JUMPI DUP1 PUSH4 0x2A11CED0 GT PUSH2 0x3A4 JUMPI DUP1 PUSH4 0x2A11CED0 EQ PUSH2 0x5C6 JUMPI DUP1 PUSH4 0x2C1E816D EQ PUSH2 0x5D9 JUMPI DUP1 PUSH4 0x313CE567 EQ PUSH2 0x5EE JUMPI DUP1 PUSH4 0x33C24BD3 EQ PUSH2 0x5FD JUMPI DUP1 PUSH4 0x355274EA EQ PUSH2 0x610 JUMPI PUSH1 0x0 DUP1 REVERT JUMPDEST DUP1 PUSH4 0x18D9ADAB EQ PUSH2 0x56D JUMPI DUP1 PUSH4 0x1B06CFBC EQ PUSH2 0x580 JUMPI DUP1 PUSH4 0x20841544 EQ PUSH2 0x5AB JUMPI DUP1 PUSH4 0x23B872DD EQ PUSH2 0x5B3 JUMPI PUSH1 0x0 DUP1 REVERT JUMPDEST DUP1 PUSH4 0xDFF55ED GT PUSH2 0x41C JUMPI DUP1 PUSH4 0xDFF55ED EQ PUSH2 0x4ED JUMPI DUP1 PUSH4 0x139FD1C2 EQ PUSH2 0x514 JUMPI DUP1 PUSH4 0x141961BC EQ PUSH2 0x534 JUMPI DUP1 PUSH4 0x1677AA3D EQ PUSH2 0x55C JUMPI DUP1 PUSH4 0x18160DDD EQ PUSH2 0x565 JUMPI PUSH1 0x0 DUP1 REVERT JUMPDEST DUP1 PUSH4 0x6FDDE03 EQ PUSH2 0x44E JUMPI DUP1 PUSH4 0x7D33455 EQ PUSH2 0x46C JUMPI DUP1 PUSH4 0x80B0648 EQ PUSH2 0x483 JUMPI DUP1 PUSH4 0x95EA7B3 EQ PUSH2 0x4CA JUMPI JUMPDEST PUSH1 0x0 DUP1 REVERT JUMPDEST PUSH2 0x456 PUSH2 0xB51 JUMP JUMPDEST PUSH1 0x40 MLOAD PUSH2 0x463 SWAP2 SWAP1 PUSH2 0x48B2 JUMP JUMPDEST PUSH1 0x40 MLOAD DUP1 SWAP2 SUB SWAP1 RETURN JUMPDEST PUSH2 0x475 PUSH1 0xC SLOAD DUP2 JUMP JUMPDEST PUSH1 0x40 MLOAD SWAP1 DUP2 MSTORE PUSH1 0x20 ADD PUSH2 0x463 JUMP JUMPDEST PUSH2 0x4B5 PUSH2 0x491 CALLDATASIZE PUSH1 0x4 PUSH2 0x48E1 JUMP JUMPDEST PUSH1 0x22 PUSH1 0x20 SWAP1 DUP2 MSTORE PUSH1 0x0 SWAP3 DUP4 MSTORE PUSH1 0x40 DUP1 DUP5 KECCAK256 SWAP1 SWAP2 MSTORE SWAP1 DUP3 MSTORE SWAP1 KECCAK256 DUP1 SLOAD PUSH1 0x1 SWAP1 SWAP2 ADD SLOAD DUP3 JUMP JUMPDEST PUSH1 0x40 DUP1 MLOAD SWAP3 DUP4 MSTORE PUSH1 0x20 DUP4 ADD SWAP2 SWAP1 SWAP2 MSTORE ADD PUSH2 0x463 JUMP JUMPDEST PUSH2 0x4DD PUSH2 0x4D8 CALLDATASIZE PUSH1 0x4 PUSH2 0x490D JUMP JUMPDEST PUSH2 0xBE3 JUMP JUMPDEST PUSH1 0x40 MLOAD SWAP1 ISZERO ISZERO DUP2 MSTORE PUSH1 0x20 ADD PUSH2 0x463 JUMP JUMPDEST PUSH2 0x4B5 PUSH2 0x4FB CALLDATASIZE PUSH1 0x4 PUSH2 0x4937 JUMP JUMPDEST PUSH1 0x23 PUSH1 0x20 MSTORE PUSH1 0x0 SWAP1 DUP2 MSTORE PUSH1 0x40 SWAP1 KECCAK256 DUP1 SLOAD PUSH1 0x1 SWAP1 SWAP2 ADD SLOAD DUP3 JUMP JUMPDEST PUSH2 0x475 PUSH2 0x522 CALLDATASIZE PUSH1 0x4 PUSH2 0x4937 JUMP JUMPDEST PUSH1 0x24 PUSH1 0x20 MSTORE PUSH1 0x0 SWAP1 DUP2 MSTORE PUSH1 0x40 SWAP1 KECCAK256 SLOAD DUP2 JUMP JUMPDEST PUSH2 0x547 PUSH2 0x542 CALLDATASIZE PUSH1 0x4 PUSH2 0x4937 JUMP JUMPDEST PUSH2 0xBFD JUMP JUMPDEST PUSH1 0x40 MLOAD PUSH2 0x463 SWAP10 SWAP9 SWAP8 SWAP7 SWAP6 SWAP5 SWAP4 SWAP3 SWAP2 SWAP1 PUSH2 0x4988 JUMP JUMPDEST PUSH2 0x475 PUSH1 0x20 SLOAD DUP2 JUMP JUMPDEST PUSH1 0x2 SLOAD PUSH2 0x475 JUMP JUMPDEST PUSH2 0x456 PUSH2 0x57B CALLDATASIZE PUSH1 0x4 PUSH2 0x4937 JUMP JUMPDEST PUSH2 0xCEC JUMP JUMPDEST PUSH2 0x593 PUSH2 0x58E CALLDATASIZE PUSH1 0x4 PUSH2 0x4937 JUMP JUMPDEST PUSH2 0xD98 JUMP JUMPDEST PUSH1 0x40 MLOAD PUSH1 0x1 PUSH1 0x1 PUSH1 0xA0 SHL SUB SWAP1 SWAP2 AND DUP2 MSTORE PUSH1 0x20 ADD PUSH2 0x463 JUMP JUMPDEST PUSH2 0x475 PUSH2 0xDB8 JUMP JUMPDEST PUSH2 0x4DD PUSH2 0x5C1 CALLDATASIZE PUSH1 0x4 PUSH2 0x49E6 JUMP JUMPDEST PUSH2 0xDFE JUMP JUMPDEST PUSH2 0x593 PUSH2 0x5D4 CALLDATASIZE PUSH1 0x4 PUSH2 0x4937 JUMP JUMPDEST PUSH2 0xE22 JUMP JUMPDEST PUSH2 0x5EC PUSH2 0x5E7 CALLDATASIZE PUSH1 0x4 PUSH2 0x4A22 JUMP JUMPDEST PUSH2 0xE4C JUMP JUMPDEST STOP JUMPDEST PUSH1 0x40 MLOAD PUSH1 0x12 DUP2 MSTORE PUSH1 0x20 ADD PUSH2 0x463 JUMP JUMPDEST PUSH2 0x475 PUSH2 0x60B CALLDATASIZE PUSH1 0x4 PUSH2 0x4937 JUMP JUMPDEST PUSH2 0xE85 JUMP JUMPDEST PUSH32 0x0 PUSH2 0x475 JUMP JUMPDEST PUSH2 0x4DD PUSH2 0x644 CALLDATASIZE PUSH1 0x4 PUSH2 0x490D JUMP JUMPDEST PUSH2 0xEA6 JUMP JUMPDEST PUSH2 0x5EC PUSH2 0x657 CALLDATASIZE PUSH1 0x4 PUSH2 0x4A88 JUMP JUMPDEST PUSH2 0xEC8 JUMP JUMPDEST PUSH2 0x5EC PUSH2 0x66A CALLDATASIZE PUSH1 0x4 PUSH2 0x4A88 JUMP JUMPDEST PUSH2 0x1133 JUMP JUMPDEST PUSH2 0x5EC PUSH2 0x67D CALLDATASIZE PUSH1 0x4 PUSH2 0x4B0D JUMP JUMPDEST PUSH2 0x127A JUMP JUMPDEST PUSH2 0x68A PUSH2 0x1487 JUMP JUMPDEST PUSH1 0x40 MLOAD PUSH2 0x463 SWAP2 SWAP1 PUSH2 0x4B42 JUMP JUMPDEST PUSH3 0x13C680 PUSH2 0x475 JUMP JUMPDEST PUSH2 0x5EC PUSH2 0x6AE CALLDATASIZE PUSH1 0x4 PUSH2 0x4A88 JUMP JUMPDEST PUSH2 0x14CC JUMP JUMPDEST PUSH2 0x5EC PUSH2 0x6C1 CALLDATASIZE PUSH1 0x4 PUSH2 0x4B0D JUMP JUMPDEST PUSH2 0x161F JUMP JUMPDEST PUSH2 0x475 PUSH2 0x6D4 CALLDATASIZE PUSH1 0x4 PUSH2 0x4A22 JUMP JUMPDEST PUSH1 0x14 PUSH1 0x20 MSTORE PUSH1 0x0 SWAP1 DUP2 MSTORE PUSH1 0x40 SWAP1 KECCAK256 SLOAD DUP2 JUMP JUMPDEST PUSH2 0x5EC PUSH2 0x6F4 CALLDATASIZE PUSH1 0x4 PUSH2 0x4A88 JUMP JUMPDEST PUSH2 0x1715 JUMP JUMPDEST PUSH2 0x5EC PUSH2 0x707 CALLDATASIZE PUSH1 0x4 PUSH2 0x4A22 JUMP JUMPDEST PUSH2 0x187F JUMP JUMPDEST PUSH2 0x475 PUSH1 0xE SLOAD DUP2 JUMP JUMPDEST PUSH2 0x71D PUSH2 0x1A29 JUMP JUMPDEST PUSH1 0x40 MLOAD PUSH2 0x463 SWAP2 SWAP1 PUSH2 0x4B7C JUMP JUMPDEST PUSH2 0x475 PUSH2 0x738 CALLDATASIZE PUSH1 0x4 PUSH2 0x4A22 JUMP JUMPDEST PUSH1 0x8 PUSH1 0x20 MSTORE PUSH1 0x0 SWAP1 DUP2 MSTORE PUSH1 0x40 SWAP1 KECCAK256 SLOAD DUP2 JUMP JUMPDEST PUSH2 0x475 PUSH2 0x758 CALLDATASIZE PUSH1 0x4 PUSH2 0x4A22 JUMP JUMPDEST PUSH2 0x1A89 JUMP JUMPDEST PUSH2 0x475 PUSH1 0x10 SLOAD DUP2 JUMP JUMPDEST PUSH2 0x4DD PUSH2 0x774 CALLDATASIZE PUSH1 0x4 PUSH2 0x4A22 JUMP JUMPDEST PUSH1 0x1D PUSH1 0x20 MSTORE PUSH1 0x0 SWAP1 DUP2 MSTORE PUSH1 0x40 SWAP1 KECCAK256 SLOAD PUSH1 0xFF AND DUP2 JUMP JUMPDEST PUSH2 0x475 PUSH2 0x797 CALLDATASIZE PUSH1 0x4 PUSH2 0x4A22 JUMP JUMPDEST PUSH1 0x25 PUSH1 0x20 MSTORE PUSH1 0x0 SWAP1 DUP2 MSTORE PUSH1 0x40 SWAP1 KECCAK256 SLOAD DUP2 JUMP JUMPDEST PUSH2 0x5EC PUSH2 0x1AED JUMP JUMPDEST PUSH2 0x475 PUSH2 0x7BF CALLDATASIZE PUSH1 0x4 PUSH2 0x4A22 JUMP JUMPDEST PUSH1 0x1 PUSH1 0x1 PUSH1 0xA0 SHL SUB AND PUSH1 0x0 SWAP1 DUP2 MSTORE PUSH1 0x20 DUP2 SWAP1 MSTORE PUSH1 0x40 SWAP1 KECCAK256 SLOAD SWAP1 JUMP JUMPDEST PUSH2 0x7ED PUSH2 0x7E8 CALLDATASIZE PUSH1 0x4 PUSH2 0x4A22 JUMP JUMPDEST PUSH2 0x1B12 JUMP JUMPDEST PUSH1 0x40 DUP1 MLOAD DUP3 MLOAD DUP2 MSTORE PUSH1 0x20 SWAP3 DUP4 ADD MLOAD SWAP3 DUP2 ADD SWAP3 SWAP1 SWAP3 MSTORE ADD PUSH2 0x463 JUMP JUMPDEST PUSH2 0x475 PUSH2 0x1B73 JUMP JUMPDEST PUSH2 0x823 PUSH2 0x81E CALLDATASIZE PUSH1 0x4 PUSH2 0x4937 JUMP JUMPDEST PUSH2 0x1B90 JUMP JUMPDEST PUSH1 0x40 MLOAD PUSH2 0x463 SWAP8 SWAP7 SWAP6 SWAP5 SWAP4 SWAP3 SWAP2 SWAP1 PUSH2 0x4BC9 JUMP JUMPDEST PUSH2 0x4B5 PUSH2 0x844 CALLDATASIZE PUSH1 0x4 PUSH2 0x4A22 JUMP JUMPDEST PUSH1 0x11 PUSH1 0x20 MSTORE PUSH1 0x0 SWAP1 DUP2 MSTORE PUSH1 0x40 SWAP1 KECCAK256 DUP1 SLOAD PUSH1 0x1 SWAP1 SWAP2 ADD SLOAD DUP3 JUMP JUMPDEST PUSH2 0x5EC PUSH2 0x86B CALLDATASIZE PUSH1 0x4 PUSH2 0x4A88 JUMP JUMPDEST PUSH2 0x1C6A JUMP JUMPDEST PUSH2 0x4DD PUSH2 0x87E CALLDATASIZE PUSH1 0x4 PUSH2 0x4CFB JUMP JUMPDEST PUSH2 0x1D91 JUMP JUMPDEST PUSH2 0x475 PUSH1 0x16 SLOAD DUP2 JUMP JUMPDEST PUSH2 0x5EC PUSH2 0x89A CALLDATASIZE PUSH1 0x4 PUSH2 0x4A88 JUMP JUMPDEST PUSH2 0x1E2D JUMP JUMPDEST PUSH2 0x475 PUSH1 0xF SLOAD DUP2 JUMP JUMPDEST PUSH2 0x456 PUSH2 0x1FBB JUMP JUMPDEST PUSH1 0x1F SLOAD PUSH2 0x593 SWAP1 PUSH1 0x1 PUSH1 0x1 PUSH1 0xA0 SHL SUB AND DUP2 JUMP JUMPDEST PUSH2 0x475 PUSH1 0xD SLOAD DUP2 JUMP JUMPDEST PUSH2 0x5EC PUSH2 0x8DA CALLDATASIZE PUSH1 0x4 PUSH2 0x4B0D JUMP JUMPDEST PUSH2 0x1FCA JUMP JUMPDEST PUSH2 0x5EC PUSH2 0x8ED CALLDATASIZE PUSH1 0x4 PUSH2 0x4A88 JUMP JUMPDEST PUSH2 0x288F JUMP JUMPDEST PUSH2 0x5EC PUSH2 0x900 CALLDATASIZE PUSH1 0x4 PUSH2 0x4937 JUMP JUMPDEST PUSH2 0x2B23 JUMP JUMPDEST PUSH2 0x4DD PUSH2 0x913 CALLDATASIZE PUSH1 0x4 PUSH2 0x490D JUMP JUMPDEST PUSH2 0x2C36 JUMP JUMPDEST PUSH2 0x920 PUSH2 0x2CB1 JUMP JUMPDEST PUSH1 0x40 MLOAD PUSH2 0x463 SWAP2 SWAP1 PUSH2 0x4E3B JUMP JUMPDEST PUSH2 0x4DD PUSH2 0x93B CALLDATASIZE PUSH1 0x4 PUSH2 0x490D JUMP JUMPDEST PUSH2 0x2E85 JUMP JUMPDEST PUSH2 0x475 PUSH1 0x21 SLOAD DUP2 JUMP JUMPDEST PUSH2 0x5EC PUSH2 0x957 CALLDATASIZE PUSH1 0x4 PUSH2 0x4A88 JUMP JUMPDEST PUSH2 0x2E93 JUMP JUMPDEST PUSH2 0x475 PUSH2 0x3123 JUMP JUMPDEST PUSH2 0x96C PUSH2 0x3132 JUMP JUMPDEST PUSH1 0x40 MLOAD PUSH2 0x463 SWAP2 SWAP1 PUSH2 0x4E9D JUMP JUMPDEST PUSH2 0x981 PUSH2 0x3481 JUMP JUMPDEST PUSH1 0x40 MLOAD PUSH2 0x463 SWAP2 SWAP1 PUSH2 0x4FF0 JUMP JUMPDEST PUSH2 0x5EC PUSH2 0x34ED JUMP JUMPDEST PUSH2 0x5EC PUSH2 0x9A4 CALLDATASIZE PUSH1 0x4 PUSH2 0x4A88 JUMP JUMPDEST PUSH2 0x34F8 JUMP JUMPDEST PUSH2 0x475 PUSH2 0x9B7 CALLDATASIZE PUSH1 0x4 PUSH2 0x5048 JUMP JUMPDEST PUSH2 0x35E8 JUMP JUMPDEST PUSH2 0x475 PUSH1 0x15 SLOAD DUP2 JUMP JUMPDEST PUSH2 0xA07 PUSH2 0x9D3 CALLDATASIZE PUSH1 0x4 PUSH2 0x4A22 JUMP JUMPDEST PUSH1 0x12 PUSH1 0x20 MSTORE PUSH1 0x0 SWAP1 DUP2 MSTORE PUSH1 0x40 SWAP1 KECCAK256 DUP1 SLOAD PUSH1 0x1 DUP3 ADD SLOAD PUSH1 0x2 DUP4 ADD SLOAD PUSH1 0x3 SWAP1 SWAP4 ADD SLOAD SWAP2 SWAP3 PUSH1 0x1 PUSH1 0x1 PUSH1 0xA0 SHL SUB SWAP1 SWAP2 AND SWAP2 PUSH1 0xFF AND DUP5 JUMP JUMPDEST PUSH1 0x40 DUP1 MLOAD SWAP5 DUP6 MSTORE PUSH1 0x1 PUSH1 0x1 PUSH1 0xA0 SHL SUB SWAP1 SWAP4 AND PUSH1 0x20 DUP6 ADD MSTORE SWAP2 DUP4 ADD MSTORE ISZERO ISZERO PUSH1 0x60 DUP3 ADD MSTORE PUSH1 0x80 ADD PUSH2 0x463 JUMP JUMPDEST PUSH2 0xA70 PUSH2 0xA3F CALLDATASIZE PUSH1 0x4 PUSH2 0x4937 JUMP JUMPDEST PUSH1 0x7 PUSH1 0x20 MSTORE PUSH1 0x0 SWAP1 DUP2 MSTORE PUSH1 0x40 SWAP1 KECCAK256 DUP1 SLOAD PUSH1 0x1 DUP3 ADD SLOAD PUSH1 0x2 DUP4 ADD SLOAD PUSH1 0x3 SWAP1 SWAP4 ADD SLOAD SWAP2 SWAP3 PUSH1 0x1 PUSH1 0x1 PUSH1 0xA0 SHL SUB SWAP1 SWAP2 AND SWAP2 DUP5 JUMP JUMPDEST PUSH1 0x40 DUP1 MLOAD SWAP5 DUP6 MSTORE PUSH1 0x1 PUSH1 0x1 PUSH1 0xA0 SHL SUB SWAP1 SWAP4 AND PUSH1 0x20 DUP6 ADD MSTORE SWAP2 DUP4 ADD MSTORE PUSH1 0x60 DUP3 ADD MSTORE PUSH1 0x80 ADD PUSH2 0x463 JUMP JUMPDEST PUSH2 0x5EC PUSH2 0xAA6 CALLDATASIZE PUSH1 0x4 PUSH2 0x4A22 JUMP JUMPDEST PUSH2 0x3613 JUMP JUMPDEST PUSH2 0x5EC PUSH2 0x377B JUMP JUMPDEST PUSH2 0x5EC PUSH2 0xAC1 CALLDATASIZE PUSH1 0x4 PUSH2 0x5072 JUMP JUMPDEST PUSH2 0x3784 JUMP JUMPDEST PUSH1 0x1E SLOAD PUSH2 0x593 SWAP1 PUSH1 0x1 PUSH1 0x1 PUSH1 0xA0 SHL SUB AND DUP2 JUMP JUMPDEST PUSH2 0xAEC PUSH2 0xAE7 CALLDATASIZE PUSH1 0x4 PUSH2 0x4937 JUMP JUMPDEST PUSH2 0x3812 JUMP JUMPDEST PUSH1 0x40 DUP1 MLOAD SWAP3 DUP4 MSTORE PUSH1 0x1 PUSH1 0x1 PUSH1 0xA0 SHL SUB SWAP1 SWAP2 AND PUSH1 0x20 DUP4 ADD MSTORE ADD PUSH2 0x463 JUMP JUMPDEST PUSH2 0xB1C PUSH2 0xB17 CALLDATASIZE PUSH1 0x4 PUSH2 0x4937 JUMP JUMPDEST PUSH2 0x3849 JUMP JUMPDEST PUSH1 0x40 MLOAD PUSH2 0x463 SWAP13 SWAP12 SWAP11 SWAP10 SWAP9 SWAP8 SWAP7 SWAP6 SWAP5 SWAP4 SWAP3 SWAP2 SWAP1 PUSH2 0x5094 JUMP JUMPDEST PUSH2 0xB3C PUSH2 0x3A5E JUMP JUMPDEST PUSH1 0x40 MLOAD PUSH2 0x463 SWAP2 SWAP1 PUSH2 0x5126 JUMP JUMPDEST PUSH1 0x20 SLOAD PUSH2 0x475 JUMP JUMPDEST PUSH1 0x60 PUSH1 0x3 DUP1 SLOAD PUSH2 0xB60 SWAP1 PUSH2 0x517B JUMP JUMPDEST DUP1 PUSH1 0x1F ADD PUSH1 0x20 DUP1 SWAP2 DIV MUL PUSH1 0x20 ADD PUSH1 0x40 MLOAD SWAP1 DUP2 ADD PUSH1 0x40 MSTORE DUP1 SWAP3 SWAP2 SWAP1 DUP2 DUP2 MSTORE PUSH1 0x20 ADD DUP3 DUP1 SLOAD PUSH2 0xB8C SWAP1 PUSH2 0x517B JUMP JUMPDEST DUP1 ISZERO PUSH2 0xBD9 JUMPI DUP1 PUSH1 0x1F LT PUSH2 0xBAE JUMPI PUSH2 0x100 DUP1 DUP4 SLOAD DIV MUL DUP4 MSTORE SWAP2 PUSH1 0x20 ADD SWAP2 PUSH2 0xBD9 JUMP JUMPDEST DUP3 ADD SWAP2 SWAP1 PUSH1 0x0 MSTORE PUSH1 0x20 PUSH1 0x0 KECCAK256 SWAP1 JUMPDEST DUP2 SLOAD DUP2 MSTORE SWAP1 PUSH1 0x1 ADD SWAP1 PUSH1 0x20 ADD DUP1 DUP4 GT PUSH2 0xBBC JUMPI DUP3 SWAP1 SUB PUSH1 0x1F AND DUP3 ADD SWAP2 JUMPDEST POP POP POP POP POP SWAP1 POP SWAP1 JUMP JUMPDEST PUSH1 0x0 CALLER PUSH2 0xBF1 DUP2 DUP6 DUP6 PUSH2 0x3B2E JUMP JUMPDEST PUSH1 0x1 SWAP2 POP POP JUMPDEST SWAP3 SWAP2 POP POP JUMP JUMPDEST PUSH1 0xA DUP2 DUP2 SLOAD DUP2 LT PUSH2 0xC0D JUMPI PUSH1 0x0 DUP1 REVERT JUMPDEST PUSH1 0x0 SWAP2 DUP3 MSTORE PUSH1 0x20 SWAP1 SWAP2 KECCAK256 PUSH1 0xA SWAP1 SWAP2 MUL ADD DUP1 SLOAD PUSH1 0x1 DUP3 ADD SLOAD PUSH1 0x2 DUP4 ADD SLOAD PUSH1 0x3 DUP5 ADD SLOAD PUSH1 0x4 DUP6 ADD SLOAD PUSH1 0x5 DUP7 ADD DUP1 SLOAD SWAP6 SWAP8 POP SWAP4 SWAP6 PUSH1 0xFF SWAP1 SWAP4 AND SWAP5 SWAP2 SWAP4 SWAP1 SWAP3 SWAP2 PUSH2 0xC52 SWAP1 PUSH2 0x517B JUMP JUMPDEST DUP1 PUSH1 0x1F ADD PUSH1 0x20 DUP1 SWAP2 DIV MUL PUSH1 0x20 ADD PUSH1 0x40 MLOAD SWAP1 DUP2 ADD PUSH1 0x40 MSTORE DUP1 SWAP3 SWAP2 SWAP1 DUP2 DUP2 MSTORE PUSH1 0x20 ADD DUP3 DUP1 SLOAD PUSH2 0xC7E SWAP1 PUSH2 0x517B JUMP JUMPDEST DUP1 ISZERO PUSH2 0xCCB JUMPI DUP1 PUSH1 0x1F LT PUSH2 0xCA0 JUMPI PUSH2 0x100 DUP1 DUP4 SLOAD DIV MUL DUP4 MSTORE SWAP2 PUSH1 0x20 ADD SWAP2 PUSH2 0xCCB JUMP JUMPDEST DUP3 ADD SWAP2 SWAP1 PUSH1 0x0 MSTORE PUSH1 0x20 PUSH1 0x0 KECCAK256 SWAP1 JUMPDEST DUP2 SLOAD DUP2 MSTORE SWAP1 PUSH1 0x1 ADD SWAP1 PUSH1 0x20 ADD DUP1 DUP4 GT PUSH2 0xCAE JUMPI DUP3 SWAP1 SUB PUSH1 0x1F AND DUP3 ADD SWAP2 JUMPDEST POP POP POP POP PUSH1 0x6 DUP4 ADD SLOAD PUSH1 0x8 DUP5 ADD SLOAD PUSH1 0x9 SWAP1 SWAP5 ADD SLOAD SWAP3 SWAP4 SWAP1 SWAP3 SWAP1 SWAP2 POP PUSH1 0xFF AND DUP10 JUMP JUMPDEST PUSH1 0x1A DUP2 DUP2 SLOAD DUP2 LT PUSH2 0xCFC JUMPI PUSH1 0x0 DUP1 REVERT JUMPDEST SWAP1 PUSH1 0x0 MSTORE PUSH1 0x20 PUSH1 0x0 KECCAK256 ADD PUSH1 0x0 SWAP2 POP SWAP1 POP DUP1 SLOAD PUSH2 0xD17 SWAP1 PUSH2 0x517B JUMP JUMPDEST DUP1 PUSH1 0x1F ADD PUSH1 0x20 DUP1 SWAP2 DIV MUL PUSH1 0x20 ADD PUSH1 0x40 MLOAD SWAP1 DUP2 ADD PUSH1 0x40 MSTORE DUP1 SWAP3 SWAP2 SWAP1 DUP2 DUP2 MSTORE PUSH1 0x20 ADD DUP3 DUP1 SLOAD PUSH2 0xD43 SWAP1 PUSH2 0x517B JUMP JUMPDEST DUP1 ISZERO PUSH2 0xD90 JUMPI DUP1 PUSH1 0x1F LT PUSH2 0xD65 JUMPI PUSH2 0x100 DUP1 DUP4 SLOAD DIV MUL DUP4 MSTORE SWAP2 PUSH1 0x20 ADD SWAP2 PUSH2 0xD90 JUMP JUMPDEST DUP3 ADD SWAP2 SWAP1 PUSH1 0x0 MSTORE PUSH1 0x20 PUSH1 0x0 KECCAK256 SWAP1 JUMPDEST DUP2 SLOAD DUP2 MSTORE SWAP1 PUSH1 0x1 ADD SWAP1 PUSH1 0x20 ADD DUP1 DUP4 GT PUSH2 0xD73 JUMPI DUP3 SWAP1 SUB PUSH1 0x1F AND DUP3 ADD SWAP2 JUMPDEST POP POP POP POP POP DUP2 JUMP JUMPDEST PUSH1 0x17 DUP2 PUSH1 0x3 DUP2 LT PUSH2 0xDA8 JUMPI PUSH1 0x0 DUP1 REVERT JUMPDEST ADD SLOAD PUSH1 0x1 PUSH1 0x1 PUSH1 0xA0 SHL SUB AND SWAP1 POP DUP2 JUMP JUMPDEST PUSH1 0x0 DUP1 PUSH1 0x23 PUSH1 0x0 PUSH2 0xDC7 PUSH2 0x3123 JUMP JUMPDEST DUP2 MSTORE PUSH1 0x20 ADD SWAP1 DUP2 MSTORE PUSH1 0x20 ADD PUSH1 0x0 KECCAK256 SWAP1 POP DUP1 PUSH1 0x0 ADD SLOAD DUP2 PUSH1 0x1 ADD SLOAD PUSH1 0x21 SLOAD PUSH2 0xDEE SWAP2 SWAP1 PUSH2 0x51CB JUMP JUMPDEST PUSH2 0xDF8 SWAP2 SWAP1 PUSH2 0x51DE JUMP JUMPDEST SWAP2 POP POP SWAP1 JUMP JUMPDEST PUSH1 0x0 CALLER PUSH2 0xE0C DUP6 DUP3 DUP6 PUSH2 0x3C52 JUMP JUMPDEST PUSH2 0xE17 DUP6 DUP6 DUP6 PUSH2 0x3CC6 JUMP JUMPDEST POP PUSH1 0x1 SWAP5 SWAP4 POP POP POP POP JUMP JUMPDEST PUSH1 0x1C DUP2 DUP2 SLOAD DUP2 LT PUSH2 0xE32 JUMPI PUSH1 0x0 DUP1 REVERT JUMPDEST PUSH1 0x0 SWAP2 DUP3 MSTORE PUSH1 0x20 SWAP1 SWAP2 KECCAK256 ADD SLOAD PUSH1 0x1 PUSH1 0x1 PUSH1 0xA0 SHL SUB AND SWAP1 POP DUP2 JUMP JUMPDEST PUSH1 0x1F SLOAD PUSH1 0x1 PUSH1 0x1 PUSH1 0xA0 SHL SUB AND CALLER EQ PUSH2 0xE63 JUMPI PUSH1 0x0 DUP1 REVERT JUMPDEST PUSH1 0x1E DUP1 SLOAD PUSH1 0x1 PUSH1 0x1 PUSH1 0xA0 SHL SUB NOT AND PUSH1 0x1 PUSH1 0x1 PUSH1 0xA0 SHL SUB SWAP3 SWAP1 SWAP3 AND SWAP2 SWAP1 SWAP2 OR SWAP1 SSTORE JUMP JUMPDEST PUSH1 0x6 DUP2 DUP2 SLOAD DUP2 LT PUSH2 0xE95 JUMPI PUSH1 0x0 DUP1 REVERT JUMPDEST PUSH1 0x0 SWAP2 DUP3 MSTORE PUSH1 0x20 SWAP1 SWAP2 KECCAK256 ADD SLOAD SWAP1 POP DUP2 JUMP JUMPDEST PUSH1 0x0 CALLER PUSH2 0xBF1 DUP2 DUP6 DUP6 PUSH2 0xEB9 DUP4 DUP4 PUSH2 0x35E8 JUMP JUMPDEST PUSH2 0xEC3 SWAP2 SWAP1 PUSH2 0x51CB JUMP JUMPDEST PUSH2 0x3B2E JUMP JUMPDEST PUSH2 0xED0 PUSH2 0x3E75 JUMP JUMPDEST PUSH1 0x0 JUMPDEST DUP2 DUP2 LT ISZERO PUSH2 0x1124 JUMPI PUSH1 0x0 PUSH1 0xA PUSH1 0x1 DUP6 DUP6 DUP6 DUP2 DUP2 LT PUSH2 0xEF3 JUMPI PUSH2 0xEF3 PUSH2 0x51F1 JUMP JUMPDEST SWAP1 POP PUSH1 0x20 MUL ADD CALLDATALOAD PUSH2 0xF04 SWAP2 SWAP1 PUSH2 0x51DE JUMP JUMPDEST DUP2 SLOAD DUP2 LT PUSH2 0xF14 JUMPI PUSH2 0xF14 PUSH2 0x51F1 JUMP JUMPDEST SWAP1 PUSH1 0x0 MSTORE PUSH1 0x20 PUSH1 0x0 KECCAK256 SWAP1 PUSH1 0xA MUL ADD SWAP1 POP PUSH1 0x0 DUP2 PUSH1 0x0 ADD SLOAD GT PUSH2 0xF65 JUMPI PUSH1 0x40 MLOAD PUSH3 0x461BCD PUSH1 0xE5 SHL DUP2 MSTORE PUSH1 0x20 PUSH1 0x4 DUP3 ADD MSTORE PUSH1 0x5 PUSH1 0x24 DUP3 ADD MSTORE PUSH5 0x726463203 PUSH1 0xDC SHL PUSH1 0x44 DUP3 ADD MSTORE PUSH1 0x64 ADD JUMPDEST PUSH1 0x40 MLOAD DUP1 SWAP2 SUB SWAP1 REVERT JUMPDEST PUSH1 0x0 DUP2 PUSH1 0x4 ADD SLOAD GT PUSH2 0xFA1 JUMPI PUSH1 0x40 MLOAD PUSH3 0x461BCD PUSH1 0xE5 SHL DUP2 MSTORE PUSH1 0x20 PUSH1 0x4 DUP3 ADD MSTORE PUSH1 0x5 PUSH1 0x24 DUP3 ADD MSTORE PUSH5 0x7264632031 PUSH1 0xD8 SHL PUSH1 0x44 DUP3 ADD MSTORE PUSH1 0x64 ADD PUSH2 0xF5C JUMP JUMPDEST TIMESTAMP DUP2 PUSH1 0x8 ADD SLOAD LT PUSH2 0xFDC JUMPI PUSH1 0x40 MLOAD PUSH3 0x461BCD PUSH1 0xE5 SHL DUP2 MSTORE PUSH1 0x20 PUSH1 0x4 DUP3 ADD MSTORE PUSH1 0x5 PUSH1 0x24 DUP3 ADD MSTORE PUSH5 0x3932319019 PUSH1 0xD9 SHL PUSH1 0x44 DUP3 ADD MSTORE PUSH1 0x64 ADD PUSH2 0xF5C JUMP JUMPDEST PUSH1 0x1 DUP2 ADD SLOAD PUSH1 0x0 SWAP1 DUP2 MSTORE PUSH1 0x7 PUSH1 0x20 MSTORE PUSH1 0x40 DUP2 KECCAK256 PUSH1 0x4 DUP4 ADD DUP1 SLOAD SWAP1 DUP4 SWAP1 SSTORE PUSH1 0x9 DUP5 ADD SLOAD SWAP2 SWAP3 SWAP1 SWAP2 PUSH1 0xFF AND PUSH2 0x101C JUMPI PUSH1 0x1 DUP4 ADD SLOAD PUSH1 0x1 PUSH1 0x1 PUSH1 0xA0 SHL SUB AND PUSH2 0x1029 JUMP JUMPDEST PUSH1 0x1F SLOAD PUSH1 0x1 PUSH1 0x1 PUSH1 0xA0 SHL SUB AND JUMPDEST PUSH1 0x1B SLOAD PUSH1 0x40 MLOAD PUSH4 0xA9059CBB PUSH1 0xE0 SHL DUP2 MSTORE PUSH1 0x1 PUSH1 0x1 PUSH1 0xA0 SHL SUB DUP1 DUP5 AND PUSH1 0x4 DUP4 ADD MSTORE PUSH1 0x24 DUP3 ADD DUP7 SWAP1 MSTORE SWAP3 SWAP4 POP SWAP2 AND SWAP1 PUSH4 0xA9059CBB SWAP1 PUSH1 0x44 ADD PUSH1 0x20 PUSH1 0x40 MLOAD DUP1 DUP4 SUB DUP2 PUSH1 0x0 DUP8 GAS CALL ISZERO DUP1 ISZERO PUSH2 0x107E JUMPI RETURNDATASIZE PUSH1 0x0 DUP1 RETURNDATACOPY RETURNDATASIZE PUSH1 0x0 REVERT JUMPDEST POP POP POP POP PUSH1 0x40 MLOAD RETURNDATASIZE PUSH1 0x1F NOT PUSH1 0x1F DUP3 ADD AND DUP3 ADD DUP1 PUSH1 0x40 MSTORE POP DUP2 ADD SWAP1 PUSH2 0x10A2 SWAP2 SWAP1 PUSH2 0x5215 JUMP JUMPDEST PUSH2 0x10D6 JUMPI PUSH1 0x40 MLOAD PUSH3 0x461BCD PUSH1 0xE5 SHL DUP2 MSTORE PUSH1 0x20 PUSH1 0x4 DUP3 ADD MSTORE PUSH1 0x5 PUSH1 0x24 DUP3 ADD MSTORE PUSH5 0x7264632033 PUSH1 0xD8 SHL PUSH1 0x44 DUP3 ADD MSTORE PUSH1 0x64 ADD PUSH2 0xF5C JUMP JUMPDEST PUSH32 0xE4ACA3C0FC408B3A8CE278B40B298311B8DCA09AC3C3D5D1068F014E01AC551B DUP5 PUSH1 0x40 MLOAD PUSH2 0x1105 SWAP2 SWAP1 PUSH2 0x52E4 JUMP JUMPDEST PUSH1 0x40 MLOAD DUP1 SWAP2 SUB SWAP1 LOG1 POP POP POP POP DUP1 DUP1 PUSH2 0x111C SWAP1 PUSH2 0x5391 JUMP JUMPDEST SWAP2 POP POP PUSH2 0xED3 JUMP JUMPDEST POP PUSH2 0x112F PUSH1 0x1 PUSH1 0x5 SSTORE JUMP JUMPDEST POP POP JUMP JUMPDEST PUSH1 0x1E SLOAD PUSH1 0x1 PUSH1 0x1 PUSH1 0xA0 SHL SUB AND CALLER EQ DUP1 PUSH2 0x1156 JUMPI POP PUSH1 0x1F SLOAD PUSH1 0x1 PUSH1 0x1 PUSH1 0xA0 SHL SUB AND CALLER EQ JUMPDEST PUSH2 0x115F JUMPI PUSH1 0x0 DUP1 REVERT JUMPDEST PUSH1 0x0 JUMPDEST DUP2 DUP2 LT ISZERO PUSH2 0x1275 JUMPI PUSH1 0x0 PUSH1 0x9 PUSH1 0x1 DUP6 DUP6 DUP6 DUP2 DUP2 LT PUSH2 0x1182 JUMPI PUSH2 0x1182 PUSH2 0x51F1 JUMP JUMPDEST SWAP1 POP PUSH1 0x20 MUL DUP2 ADD SWAP1 PUSH2 0x1194 SWAP2 SWAP1 PUSH2 0x53AA JUMP JUMPDEST PUSH2 0x119F SWAP2 SWAP1 CALLDATALOAD PUSH2 0x51DE JUMP JUMPDEST DUP2 SLOAD DUP2 LT PUSH2 0x11AF JUMPI PUSH2 0x11AF PUSH2 0x51F1 JUMP JUMPDEST SWAP1 PUSH1 0x0 MSTORE PUSH1 0x20 PUSH1 0x0 KECCAK256 SWAP1 PUSH1 0xE MUL ADD SWAP1 POP DUP4 DUP4 DUP4 DUP2 DUP2 LT PUSH2 0x11D1 JUMPI PUSH2 0x11D1 PUSH2 0x51F1 JUMP JUMPDEST SWAP1 POP PUSH1 0x20 MUL DUP2 ADD SWAP1 PUSH2 0x11E3 SWAP2 SWAP1 PUSH2 0x53AA JUMP JUMPDEST PUSH1 0x20 ADD CALLDATALOAD PUSH1 0xB DUP3 ADD SSTORE DUP4 DUP4 DUP4 DUP2 DUP2 LT PUSH2 0x11FE JUMPI PUSH2 0x11FE PUSH2 0x51F1 JUMP JUMPDEST SWAP1 POP PUSH1 0x20 MUL DUP2 ADD SWAP1 PUSH2 0x1210 SWAP2 SWAP1 PUSH2 0x53AA JUMP JUMPDEST PUSH2 0x121E SWAP1 PUSH1 0x40 DUP2 ADD SWAP1 PUSH2 0x53CA JUMP JUMPDEST PUSH2 0x122C SWAP2 PUSH1 0xC DUP5 ADD SWAP2 PUSH2 0x4773 JUMP JUMPDEST POP PUSH1 0x8 DUP2 ADD DUP1 SLOAD PUSH1 0xFF NOT AND PUSH1 0x1 OR SWAP1 SSTORE PUSH1 0x40 MLOAD PUSH1 0x0 DUP1 MLOAD PUSH1 0x20 PUSH2 0x5D89 DUP4 CODECOPY DUP2 MLOAD SWAP2 MSTORE SWAP1 PUSH2 0x125A SWAP1 DUP4 SWAP1 PUSH2 0x5413 JUMP JUMPDEST PUSH1 0x40 MLOAD DUP1 SWAP2 SUB SWAP1 LOG1 POP DUP1 PUSH2 0x126D DUP2 PUSH2 0x5391 JUMP JUMPDEST SWAP2 POP POP PUSH2 0x1162 JUMP JUMPDEST POP POP POP JUMP JUMPDEST PUSH1 0x1E SLOAD PUSH1 0x1 PUSH1 0x1 PUSH1 0xA0 SHL SUB AND CALLER EQ DUP1 PUSH2 0x129D JUMPI POP PUSH1 0x1F SLOAD PUSH1 0x1 PUSH1 0x1 PUSH1 0xA0 SHL SUB AND CALLER EQ JUMPDEST PUSH2 0x12A6 JUMPI PUSH1 0x0 DUP1 REVERT JUMPDEST PUSH2 0x12AE PUSH2 0x3E75 JUMP JUMPDEST PUSH1 0x0 JUMPDEST DUP2 DUP2 LT ISZERO PUSH2 0x1124 JUMPI CALLDATASIZE DUP4 DUP4 DUP4 DUP2 DUP2 LT PUSH2 0x12CC JUMPI PUSH2 0x12CC PUSH2 0x51F1 JUMP JUMPDEST SWAP1 POP PUSH1 0x40 MUL ADD SWAP1 POP PUSH2 0x12E1 DUP2 PUSH1 0x0 ADD CALLDATALOAD PUSH2 0x3ECE JUMP JUMPDEST DUP1 CALLDATALOAD PUSH1 0x0 SWAP1 DUP2 MSTORE PUSH1 0x7 PUSH1 0x20 MSTORE PUSH1 0x40 SWAP1 KECCAK256 PUSH1 0x1 DUP2 ADD SLOAD PUSH1 0x1 PUSH1 0x1 PUSH1 0xA0 SHL SUB AND ISZERO PUSH2 0x1309 JUMPI PUSH1 0x0 DUP1 REVERT JUMPDEST DUP2 CALLDATALOAD PUSH1 0x8 PUSH1 0x0 PUSH2 0x131F PUSH1 0x40 DUP7 ADD PUSH1 0x20 DUP8 ADD PUSH2 0x4A22 JUMP JUMPDEST PUSH1 0x1 PUSH1 0x1 PUSH1 0xA0 SHL SUB AND PUSH1 0x1 PUSH1 0x1 PUSH1 0xA0 SHL SUB AND DUP2 MSTORE PUSH1 0x20 ADD SWAP1 DUP2 MSTORE PUSH1 0x20 ADD PUSH1 0x0 KECCAK256 DUP2 SWAP1 SSTORE POP DUP2 PUSH1 0x20 ADD PUSH1 0x20 DUP2 ADD SWAP1 PUSH2 0x1356 SWAP2 SWAP1 PUSH2 0x4A22 JUMP JUMPDEST PUSH1 0x1 DUP3 ADD DUP1 SLOAD PUSH1 0x1 PUSH1 0x1 PUSH1 0xA0 SHL SUB NOT AND PUSH1 0x1 PUSH1 0x1 PUSH1 0xA0 SHL SUB SWAP3 SWAP1 SWAP3 AND SWAP2 SWAP1 SWAP2 OR SWAP1 SSTORE PUSH1 0x2 DUP2 ADD SLOAD ISZERO PUSH2 0x13A8 JUMPI PUSH1 0x2 DUP2 ADD DUP1 SLOAD PUSH1 0x0 SWAP1 SWAP2 SSTORE PUSH2 0x13A6 PUSH2 0x13A0 PUSH1 0x40 DUP6 ADD PUSH1 0x20 DUP7 ADD PUSH2 0x4A22 JUMP JUMPDEST DUP3 PUSH2 0x3F29 JUMP JUMPDEST POP JUMPDEST PUSH1 0x3 DUP2 ADD SLOAD ISZERO PUSH2 0x143B JUMPI PUSH1 0x3 DUP2 ADD DUP1 SLOAD PUSH1 0x0 SWAP1 SWAP2 SSTORE PUSH1 0x1B SLOAD PUSH1 0x1 DUP4 ADD SLOAD PUSH1 0x40 MLOAD PUSH4 0xA9059CBB PUSH1 0xE0 SHL DUP2 MSTORE PUSH1 0x1 PUSH1 0x1 PUSH1 0xA0 SHL SUB SWAP2 DUP3 AND PUSH1 0x4 DUP3 ADD MSTORE PUSH1 0x24 DUP2 ADD DUP5 SWAP1 MSTORE SWAP2 AND SWAP1 PUSH4 0xA9059CBB SWAP1 PUSH1 0x44 ADD PUSH1 0x20 PUSH1 0x40 MLOAD DUP1 DUP4 SUB DUP2 PUSH1 0x0 DUP8 GAS CALL ISZERO DUP1 ISZERO PUSH2 0x1414 JUMPI RETURNDATASIZE PUSH1 0x0 DUP1 RETURNDATACOPY RETURNDATASIZE PUSH1 0x0 REVERT JUMPDEST POP POP POP POP PUSH1 0x40 MLOAD RETURNDATASIZE PUSH1 0x1F NOT PUSH1 0x1F DUP3 ADD AND DUP3 ADD DUP1 PUSH1 0x40 MSTORE POP DUP2 ADD SWAP1 PUSH2 0x1438 SWAP2 SWAP1 PUSH2 0x5215 JUMP JUMPDEST POP POP JUMPDEST PUSH32 0xE1AB017037DFDBE8AEEA88CA10733A62FE91B3791C7AB2F30B54A9E2A0B0D319 DUP2 PUSH1 0x40 MLOAD PUSH2 0x146A SWAP2 SWAP1 PUSH2 0x551F JUMP JUMPDEST PUSH1 0x40 MLOAD DUP1 SWAP2 SUB SWAP1 LOG1 POP POP DUP1 DUP1 PUSH2 0x147F SWAP1 PUSH2 0x5391 JUMP JUMPDEST SWAP2 POP POP PUSH2 0x12B1 JUMP JUMPDEST PUSH2 0x148F PUSH2 0x47BE JUMP JUMPDEST PUSH1 0x40 DUP1 MLOAD PUSH1 0x60 DUP2 ADD SWAP2 DUP3 SWAP1 MSTORE SWAP1 PUSH1 0x17 SWAP1 PUSH1 0x3 SWAP1 DUP3 DUP5 JUMPDEST DUP2 SLOAD PUSH1 0x1 PUSH1 0x1 PUSH1 0xA0 SHL SUB AND DUP2 MSTORE PUSH1 0x1 SWAP1 SWAP2 ADD SWAP1 PUSH1 0x20 ADD DUP1 DUP4 GT PUSH2 0x14A5 JUMPI POP POP POP POP POP SWAP1 POP SWAP1 JUMP JUMPDEST PUSH2 0x14D4 PUSH2 0x3E75 JUMP JUMPDEST CALLER PUSH1 0x0 SWAP1 DUP2 MSTORE PUSH1 0x8 PUSH1 0x20 SWAP1 DUP2 MSTORE PUSH1 0x40 DUP1 DUP4 KECCAK256 SLOAD DUP4 MSTORE PUSH1 0x7 SWAP1 SWAP2 MSTORE SWAP1 KECCAK256 PUSH1 0x1 DUP2 ADD SLOAD PUSH1 0x1 PUSH1 0x1 PUSH1 0xA0 SHL SUB AND PUSH2 0x1533 JUMPI PUSH1 0x40 MLOAD PUSH3 0x461BCD PUSH1 0xE5 SHL DUP2 MSTORE PUSH1 0x4 ADD PUSH2 0xF5C SWAP1 PUSH1 0x20 DUP1 DUP3 MSTORE PUSH1 0x4 SWAP1 DUP3 ADD MSTORE PUSH4 0x6D63203 PUSH1 0xE4 SHL PUSH1 0x40 DUP3 ADD MSTORE PUSH1 0x60 ADD SWAP1 JUMP JUMPDEST PUSH1 0x0 JUMPDEST DUP3 DUP2 LT ISZERO PUSH2 0x1613 JUMPI PUSH1 0x0 DUP5 DUP5 DUP4 DUP2 DUP2 LT PUSH2 0x1552 JUMPI PUSH2 0x1552 PUSH2 0x51F1 JUMP JUMPDEST SWAP1 POP PUSH1 0x20 MUL DUP2 ADD SWAP1 PUSH2 0x1564 SWAP2 SWAP1 PUSH2 0x55A7 JUMP JUMPDEST PUSH2 0x156D SWAP1 PUSH2 0x56E1 JUMP JUMPDEST SWAP1 POP PUSH2 0x1600 DUP4 PUSH1 0x40 MLOAD DUP1 PUSH2 0x140 ADD PUSH1 0x40 MSTORE DUP1 PUSH1 0xA DUP1 SLOAD SWAP1 POP PUSH1 0x1 PUSH2 0x1591 SWAP2 SWAP1 PUSH2 0x51CB JUMP JUMPDEST DUP2 MSTORE DUP7 SLOAD PUSH1 0x20 DUP3 ADD MSTORE DUP5 MLOAD PUSH1 0x40 SWAP1 SWAP2 ADD SWAP1 PUSH1 0xD DUP2 GT ISZERO PUSH2 0x15B3 JUMPI PUSH2 0x15B3 PUSH2 0x4950 JUMP JUMPDEST DUP2 MSTORE PUSH1 0x20 ADD DUP5 PUSH1 0x20 ADD MLOAD DUP2 MSTORE PUSH1 0x20 ADD DUP5 PUSH1 0x20 ADD MLOAD DUP2 MSTORE PUSH1 0x20 ADD DUP5 PUSH1 0x40 ADD MLOAD DUP2 MSTORE PUSH1 0x20 ADD DUP5 PUSH1 0x60 ADD MLOAD DUP2 MSTORE PUSH1 0x20 ADD DUP5 PUSH1 0x80 ADD MLOAD DUP2 MSTORE PUSH1 0x20 ADD DUP5 PUSH1 0xA0 ADD MLOAD DUP2 MSTORE PUSH1 0x20 ADD PUSH1 0x0 ISZERO ISZERO DUP2 MSTORE POP PUSH2 0x3F63 JUMP JUMPDEST POP DUP1 PUSH2 0x160B DUP2 PUSH2 0x5391 JUMP JUMPDEST SWAP2 POP POP PUSH2 0x1536 JUMP JUMPDEST POP POP PUSH2 0x112F PUSH1 0x1 PUSH1 0x5 SSTORE JUMP JUMPDEST PUSH1 0x1E SLOAD PUSH1 0x1 PUSH1 0x1 PUSH1 0xA0 SHL SUB AND CALLER EQ DUP1 PUSH2 0x1642 JUMPI POP PUSH1 0x1F SLOAD PUSH1 0x1 PUSH1 0x1 PUSH1 0xA0 SHL SUB AND CALLER EQ JUMPDEST PUSH2 0x164B JUMPI PUSH1 0x0 DUP1 REVERT JUMPDEST PUSH1 0x0 JUMPDEST DUP2 DUP2 LT ISZERO PUSH2 0x1275 JUMPI PUSH1 0x0 PUSH1 0x9 PUSH1 0x1 DUP6 DUP6 DUP6 DUP2 DUP2 LT PUSH2 0x166E JUMPI PUSH2 0x166E PUSH2 0x51F1 JUMP JUMPDEST SWAP1 POP PUSH1 0x40 MUL ADD PUSH1 0x0 ADD CALLDATALOAD PUSH2 0x1682 SWAP2 SWAP1 PUSH2 0x51DE JUMP JUMPDEST DUP2 SLOAD DUP2 LT PUSH2 0x1692 JUMPI PUSH2 0x1692 PUSH2 0x51F1 JUMP JUMPDEST PUSH1 0x0 SWAP2 DUP3 MSTORE PUSH1 0x20 DUP1 DUP4 KECCAK256 PUSH1 0x1 PUSH1 0xE SWAP1 SWAP4 MUL ADD DUP3 DUP2 ADD SLOAD DUP5 MSTORE PUSH1 0x7 SWAP1 SWAP2 MSTORE PUSH1 0x40 SWAP1 SWAP3 KECCAK256 SWAP1 DUP2 ADD SLOAD SWAP2 SWAP3 POP SWAP1 PUSH1 0x1 PUSH1 0x1 PUSH1 0xA0 SHL SUB AND ISZERO DUP1 ISZERO PUSH2 0x16D2 JUMPI POP DUP1 SLOAD ISZERO ISZERO JUMPDEST PUSH2 0x16DB JUMPI PUSH1 0x0 DUP1 REVERT JUMPDEST PUSH2 0x1700 DUP3 DUP7 DUP7 DUP7 DUP2 DUP2 LT PUSH2 0x16F1 JUMPI PUSH2 0x16F1 PUSH2 0x51F1 JUMP JUMPDEST SWAP1 POP PUSH1 0x40 MUL ADD PUSH1 0x20 ADD CALLDATALOAD PUSH2 0x418B JUMP JUMPDEST POP POP DUP1 DUP1 PUSH2 0x170D SWAP1 PUSH2 0x5391 JUMP JUMPDEST SWAP2 POP POP PUSH2 0x164E JUMP JUMPDEST PUSH1 0x1E SLOAD PUSH1 0x1 PUSH1 0x1 PUSH1 0xA0 SHL SUB AND CALLER EQ DUP1 PUSH2 0x1738 JUMPI POP PUSH1 0x1F SLOAD PUSH1 0x1 PUSH1 0x1 PUSH1 0xA0 SHL SUB AND CALLER EQ JUMPDEST PUSH2 0x1741 JUMPI PUSH1 0x0 DUP1 REVERT JUMPDEST PUSH2 0x1749 PUSH2 0x3E75 JUMP JUMPDEST PUSH1 0x0 JUMPDEST DUP2 DUP2 LT ISZERO PUSH2 0x1124 JUMPI PUSH1 0x0 DUP4 DUP4 DUP4 DUP2 DUP2 LT PUSH2 0x1768 JUMPI PUSH2 0x1768 PUSH2 0x51F1 JUMP JUMPDEST SWAP1 POP PUSH1 0x20 MUL DUP2 ADD SWAP1 PUSH2 0x177A SWAP2 SWAP1 PUSH2 0x56ED JUMP JUMPDEST PUSH2 0x1783 SWAP1 PUSH2 0x5703 JUMP JUMPDEST SWAP1 POP PUSH2 0x1792 DUP2 PUSH1 0x0 ADD MLOAD PUSH2 0x3ECE JUMP JUMPDEST DUP1 MLOAD PUSH1 0x0 SWAP1 DUP2 MSTORE PUSH1 0x7 PUSH1 0x20 MSTORE PUSH1 0x40 SWAP1 KECCAK256 PUSH1 0x1 DUP2 ADD SLOAD PUSH1 0x1 PUSH1 0x1 PUSH1 0xA0 SHL SUB AND ISZERO PUSH2 0x17BA JUMPI PUSH1 0x0 DUP1 REVERT JUMPDEST PUSH2 0x186A DUP2 PUSH1 0x40 MLOAD DUP1 PUSH2 0x140 ADD PUSH1 0x40 MSTORE DUP1 PUSH1 0xA DUP1 SLOAD SWAP1 POP PUSH1 0x1 PUSH2 0x17DC SWAP2 SWAP1 PUSH2 0x51CB JUMP JUMPDEST DUP2 MSTORE PUSH1 0x20 ADD DUP5 PUSH1 0x0 ADD SLOAD DUP2 MSTORE PUSH1 0x20 ADD DUP6 PUSH1 0x20 ADD MLOAD PUSH1 0x0 ADD MLOAD PUSH1 0xD DUP2 GT ISZERO PUSH2 0x1805 JUMPI PUSH2 0x1805 PUSH2 0x4950 JUMP JUMPDEST DUP2 MSTORE PUSH1 0x20 ADD DUP6 PUSH1 0x20 ADD MLOAD PUSH1 0x20 ADD MLOAD DUP2 MSTORE PUSH1 0x20 ADD DUP6 PUSH1 0x20 ADD MLOAD PUSH1 0x20 ADD MLOAD DUP2 MSTORE PUSH1 0x20 ADD DUP6 PUSH1 0x20 ADD MLOAD PUSH1 0x40 ADD MLOAD DUP2 MSTORE PUSH1 0x20 ADD DUP6 PUSH1 0x20 ADD MLOAD PUSH1 0x60 ADD MLOAD DUP2 MSTORE PUSH1 0x20 ADD DUP6 PUSH1 0x20 ADD MLOAD PUSH1 0x80 ADD MLOAD DUP2 MSTORE PUSH1 0x20 ADD DUP6 PUSH1 0x20 ADD MLOAD PUSH1 0xA0 ADD MLOAD DUP2 MSTORE PUSH1 0x20 ADD PUSH1 0x1 ISZERO ISZERO DUP2 MSTORE POP PUSH2 0x3F63 JUMP JUMPDEST POP POP DUP1 DUP1 PUSH2 0x1877 SWAP1 PUSH2 0x5391 JUMP JUMPDEST SWAP2 POP POP PUSH2 0x174C JUMP JUMPDEST PUSH1 0x1 PUSH1 0x1 PUSH1 0xA0 SHL SUB DUP2 AND PUSH1 0x0 SWAP1 DUP2 MSTORE PUSH1 0x14 PUSH1 0x20 MSTORE PUSH1 0x40 SWAP1 KECCAK256 SLOAD DUP1 PUSH2 0x18A2 JUMPI PUSH1 0x0 DUP1 REVERT JUMPDEST PUSH1 0x0 PUSH1 0x13 PUSH2 0x18B1 PUSH1 0x1 DUP5 PUSH2 0x51DE JUMP JUMPDEST DUP2 SLOAD DUP2 LT PUSH2 0x18C1 JUMPI PUSH2 0x18C1 PUSH2 0x51F1 JUMP JUMPDEST SWAP1 PUSH1 0x0 MSTORE PUSH1 0x20 PUSH1 0x0 KECCAK256 SWAP1 PUSH1 0x2 MUL ADD SWAP1 POP PUSH1 0x2 PUSH1 0x15 SLOAD PUSH2 0x18E0 SWAP2 SWAP1 PUSH2 0x576D JUMP JUMPDEST DUP2 SLOAD GT PUSH2 0x1917 JUMPI PUSH1 0x40 MLOAD PUSH3 0x461BCD PUSH1 0xE5 SHL DUP2 MSTORE PUSH1 0x20 PUSH1 0x4 DUP3 ADD MSTORE PUSH1 0x5 PUSH1 0x24 DUP3 ADD MSTORE PUSH5 0x706377203 PUSH1 0xDC SHL PUSH1 0x44 DUP3 ADD MSTORE PUSH1 0x64 ADD PUSH2 0xF5C JUMP JUMPDEST PUSH1 0x0 PUSH1 0x15 SLOAD GT PUSH2 0x1951 JUMPI PUSH1 0x40 MLOAD PUSH3 0x461BCD PUSH1 0xE5 SHL DUP2 MSTORE PUSH1 0x20 PUSH1 0x4 DUP3 ADD MSTORE PUSH1 0x5 PUSH1 0x24 DUP3 ADD MSTORE PUSH5 0x7063772031 PUSH1 0xD8 SHL PUSH1 0x44 DUP3 ADD MSTORE PUSH1 0x64 ADD PUSH2 0xF5C JUMP JUMPDEST PUSH1 0x0 PUSH2 0x195B PUSH2 0x3123 JUMP JUMPDEST SWAP1 POP DUP1 PUSH1 0x16 SLOAD LT PUSH2 0x1996 JUMPI PUSH1 0x40 MLOAD PUSH3 0x461BCD PUSH1 0xE5 SHL DUP2 MSTORE PUSH1 0x20 PUSH1 0x4 DUP3 ADD MSTORE PUSH1 0x5 PUSH1 0x24 DUP3 ADD MSTORE PUSH5 0x3831BB9019 PUSH1 0xD9 SHL PUSH1 0x44 DUP3 ADD MSTORE PUSH1 0x64 ADD PUSH2 0xF5C JUMP JUMPDEST PUSH1 0x16 DUP2 SWAP1 SSTORE PUSH1 0x18 DUP1 SLOAD PUSH1 0x19 DUP1 SLOAD PUSH1 0x1 PUSH1 0x1 PUSH1 0xA0 SHL SUB DUP1 DUP5 AND PUSH1 0x1 PUSH1 0x1 PUSH1 0xA0 SHL SUB NOT SWAP3 DUP4 AND OR SWAP1 SWAP3 SSTORE PUSH1 0x17 DUP1 SLOAD DUP1 DUP5 AND SWAP5 DUP4 AND DUP6 OR SWAP1 SWAP6 SSTORE SWAP4 AND SWAP1 DUP8 AND SWAP1 DUP2 OR SWAP1 SWAP3 SSTORE EQ DUP1 ISZERO PUSH2 0x19F2 JUMPI POP PUSH1 0x19 SLOAD PUSH1 0x1 PUSH1 0x1 PUSH1 0xA0 SHL SUB DUP6 DUP2 AND SWAP2 AND EQ JUMPDEST ISZERO PUSH2 0x1A23 JUMPI PUSH1 0x1E DUP1 SLOAD PUSH1 0x1 PUSH1 0x1 PUSH1 0xA0 SHL SUB DUP7 AND PUSH1 0x1 PUSH1 0x1 PUSH1 0xA0 SHL SUB NOT SWAP2 DUP3 AND DUP2 OR SWAP1 SWAP3 SSTORE PUSH1 0x1F DUP1 SLOAD SWAP1 SWAP2 AND SWAP1 SWAP2 OR SWAP1 SSTORE JUMPDEST POP POP POP POP JUMP JUMPDEST PUSH1 0x60 PUSH1 0x1C DUP1 SLOAD DUP1 PUSH1 0x20 MUL PUSH1 0x20 ADD PUSH1 0x40 MLOAD SWAP1 DUP2 ADD PUSH1 0x40 MSTORE DUP1 SWAP3 SWAP2 SWAP1 DUP2 DUP2 MSTORE PUSH1 0x20 ADD DUP3 DUP1 SLOAD DUP1 ISZERO PUSH2 0xBD9 JUMPI PUSH1 0x20 MUL DUP3 ADD SWAP2 SWAP1 PUSH1 0x0 MSTORE PUSH1 0x20 PUSH1 0x0 KECCAK256 SWAP1 DUP2 SLOAD PUSH1 0x1 PUSH1 0x1 PUSH1 0xA0 SHL SUB AND DUP2 MSTORE PUSH1 0x1 SWAP1 SWAP2 ADD SWAP1 PUSH1 0x20 ADD DUP1 DUP4 GT PUSH2 0x14A5 JUMPI POP POP POP POP POP SWAP1 POP SWAP1 JUMP JUMPDEST PUSH1 0x0 DUP1 PUSH1 0x22 PUSH1 0x0 PUSH2 0x1A98 PUSH2 0x3123 JUMP JUMPDEST DUP2 MSTORE PUSH1 0x20 DUP1 DUP3 ADD SWAP3 SWAP1 SWAP3 MSTORE PUSH1 0x40 SWAP1 DUP2 ADD PUSH1 0x0 SWAP1 DUP2 KECCAK256 PUSH1 0x1 PUSH1 0x1 PUSH1 0xA0 SHL SUB DUP8 AND DUP3 MSTORE DUP4 MSTORE DUP2 DUP2 KECCAK256 DUP1 SLOAD PUSH1 0x1 DUP3 ADD SLOAD SWAP5 DUP4 SWAP1 MSTORE SWAP3 SWAP1 SWAP2 KECCAK256 SLOAD SWAP1 SWAP4 POP SWAP1 SWAP2 PUSH2 0x1ADC SWAP2 PUSH2 0x51CB JUMP JUMPDEST PUSH2 0x1AE6 SWAP2 SWAP1 PUSH2 0x51DE JUMP JUMPDEST SWAP4 SWAP3 POP POP POP JUMP JUMPDEST PUSH1 0x0 PUSH2 0x1AF7 PUSH2 0x3123 JUMP JUMPDEST SWAP1 POP PUSH1 0x10 SLOAD DUP2 SUB PUSH2 0x1B07 JUMPI PUSH1 0x0 DUP1 REVERT JUMPDEST PUSH1 0xE SLOAD PUSH1 0xD SSTORE PUSH1 0x10 SSTORE JUMP JUMPDEST PUSH1 0x40 DUP1 MLOAD DUP1 DUP3 ADD SWAP1 SWAP2 MSTORE PUSH1 0x0 DUP1 DUP3 MSTORE PUSH1 0x20 DUP3 ADD MSTORE PUSH1 0x22 PUSH1 0x0 PUSH2 0x1B32 PUSH2 0x3123 JUMP JUMPDEST DUP2 MSTORE PUSH1 0x20 DUP1 DUP3 ADD SWAP3 SWAP1 SWAP3 MSTORE PUSH1 0x40 SWAP1 DUP2 ADD PUSH1 0x0 SWAP1 DUP2 KECCAK256 PUSH1 0x1 PUSH1 0x1 PUSH1 0xA0 SHL SUB SWAP1 SWAP6 AND DUP2 MSTORE SWAP4 DUP3 MSTORE SWAP3 DUP4 SWAP1 KECCAK256 DUP4 MLOAD DUP1 DUP6 ADD SWAP1 SWAP5 MSTORE DUP1 SLOAD DUP5 MSTORE PUSH1 0x1 ADD SLOAD SWAP1 DUP4 ADD MSTORE POP SWAP1 JUMP JUMPDEST PUSH1 0x0 PUSH3 0x13C680 PUSH2 0x1B81 PUSH2 0x3123 JUMP JUMPDEST PUSH2 0x1B8B SWAP2 SWAP1 PUSH2 0x51CB JUMP JUMPDEST SWAP1 POP SWAP1 JUMP JUMPDEST PUSH1 0xB DUP2 DUP2 SLOAD DUP2 LT PUSH2 0x1BA0 JUMPI PUSH1 0x0 DUP1 REVERT JUMPDEST SWAP1 PUSH1 0x0 MSTORE PUSH1 0x20 PUSH1 0x0 KECCAK256 SWAP1 PUSH1 0x7 MUL ADD PUSH1 0x0 SWAP2 POP SWAP1 POP DUP1 PUSH1 0x0 ADD SLOAD SWAP1 DUP1 PUSH1 0x1 ADD SLOAD SWAP1 DUP1 PUSH1 0x2 ADD SLOAD SWAP1 DUP1 PUSH1 0x3 ADD SLOAD SWAP1 DUP1 PUSH1 0x4 ADD SLOAD SWAP1 DUP1 PUSH1 0x5 ADD DUP1 SLOAD PUSH2 0x1BE1 SWAP1 PUSH2 0x517B JUMP JUMPDEST DUP1 PUSH1 0x1F ADD PUSH1 0x20 DUP1 SWAP2 DIV MUL PUSH1 0x20 ADD PUSH1 0x40 MLOAD SWAP1 DUP2 ADD PUSH1 0x40 MSTORE DUP1 SWAP3 SWAP2 SWAP1 DUP2 DUP2 MSTORE PUSH1 0x20 ADD DUP3 DUP1 SLOAD PUSH2 0x1C0D SWAP1 PUSH2 0x517B JUMP JUMPDEST DUP1 ISZERO PUSH2 0x1C5A JUMPI DUP1 PUSH1 0x1F LT PUSH2 0x1C2F JUMPI PUSH2 0x100 DUP1 DUP4 SLOAD DIV MUL DUP4 MSTORE SWAP2 PUSH1 0x20 ADD SWAP2 PUSH2 0x1C5A JUMP JUMPDEST DUP3 ADD SWAP2 SWAP1 PUSH1 0x0 MSTORE PUSH1 0x20 PUSH1 0x0 KECCAK256 SWAP1 JUMPDEST DUP2 SLOAD DUP2 MSTORE SWAP1 PUSH1 0x1 ADD SWAP1 PUSH1 0x20 ADD DUP1 DUP4 GT PUSH2 0x1C3D JUMPI DUP3 SWAP1 SUB PUSH1 0x1F AND DUP3 ADD SWAP2 JUMPDEST POP POP POP POP POP SWAP1 DUP1 PUSH1 0x6 ADD SLOAD SWAP1 POP DUP8 JUMP JUMPDEST PUSH1 0x1E SLOAD PUSH1 0x1 PUSH1 0x1 PUSH1 0xA0 SHL SUB AND CALLER EQ DUP1 PUSH2 0x1C8D JUMPI POP PUSH1 0x1F SLOAD PUSH1 0x1 PUSH1 0x1 PUSH1 0xA0 SHL SUB AND CALLER EQ JUMPDEST PUSH2 0x1C96 JUMPI PUSH1 0x0 DUP1 REVERT JUMPDEST PUSH1 0x0 JUMPDEST DUP2 DUP2 LT ISZERO PUSH2 0x1275 JUMPI PUSH2 0x1CD1 DUP4 DUP4 DUP4 DUP2 DUP2 LT PUSH2 0x1CB6 JUMPI PUSH2 0x1CB6 PUSH2 0x51F1 JUMP JUMPDEST SWAP1 POP PUSH1 0x20 MUL DUP2 ADD SWAP1 PUSH2 0x1CC8 SWAP2 SWAP1 PUSH2 0x578F JUMP JUMPDEST PUSH1 0x20 ADD CALLDATALOAD PUSH2 0x3ECE JUMP JUMPDEST PUSH1 0x9 DUP4 DUP4 DUP4 DUP2 DUP2 LT PUSH2 0x1CE5 JUMPI PUSH2 0x1CE5 PUSH2 0x51F1 JUMP JUMPDEST SWAP1 POP PUSH1 0x20 MUL DUP2 ADD SWAP1 PUSH2 0x1CF7 SWAP2 SWAP1 PUSH2 0x578F JUMP JUMPDEST DUP2 SLOAD PUSH1 0x1 DUP2 ADD DUP4 SSTORE PUSH1 0x0 SWAP3 DUP4 MSTORE PUSH1 0x20 SWAP1 SWAP3 KECCAK256 SWAP1 SWAP2 PUSH1 0xE MUL ADD PUSH2 0x1D19 DUP3 DUP3 PUSH2 0x59F9 JUMP JUMPDEST POP POP PUSH1 0x9 DUP1 SLOAD PUSH1 0x0 SWAP2 SWAP1 PUSH2 0x1D2F SWAP1 PUSH1 0x1 SWAP1 PUSH2 0x51DE JUMP JUMPDEST DUP2 SLOAD DUP2 LT PUSH2 0x1D3F JUMPI PUSH2 0x1D3F PUSH2 0x51F1 JUMP JUMPDEST PUSH1 0x0 SWAP2 DUP3 MSTORE PUSH1 0x20 SWAP1 SWAP2 KECCAK256 PUSH1 0x9 SLOAD PUSH1 0xE SWAP1 SWAP3 MUL ADD SWAP1 DUP2 SSTORE PUSH1 0x40 MLOAD SWAP1 SWAP2 POP PUSH1 0x0 DUP1 MLOAD PUSH1 0x20 PUSH2 0x5D89 DUP4 CODECOPY DUP2 MLOAD SWAP2 MSTORE SWAP1 PUSH2 0x1D76 SWAP1 DUP4 SWAP1 PUSH2 0x5413 JUMP JUMPDEST PUSH1 0x40 MLOAD DUP1 SWAP2 SUB SWAP1 LOG1 POP DUP1 PUSH2 0x1D89 DUP2 PUSH2 0x5391 JUMP JUMPDEST SWAP2 POP POP PUSH2 0x1C99 JUMP JUMPDEST PUSH1 0x0 DUP1 JUMPDEST DUP3 MLOAD DUP2 LT ISZERO PUSH2 0x1E23 JUMPI PUSH1 0x0 DUP1 JUMPDEST DUP6 MLOAD DUP2 LT ISZERO PUSH2 0x1DFF JUMPI DUP6 DUP2 DUP2 MLOAD DUP2 LT PUSH2 0x1DBD JUMPI PUSH2 0x1DBD PUSH2 0x51F1 JUMP JUMPDEST PUSH1 0x20 MUL PUSH1 0x20 ADD ADD MLOAD DUP6 DUP5 DUP2 MLOAD DUP2 LT PUSH2 0x1DD7 JUMPI PUSH2 0x1DD7 PUSH2 0x51F1 JUMP JUMPDEST PUSH1 0x20 MUL PUSH1 0x20 ADD ADD MLOAD SUB PUSH2 0x1DED JUMPI PUSH1 0x1 SWAP2 POP PUSH2 0x1DFF JUMP JUMPDEST DUP1 PUSH2 0x1DF7 DUP2 PUSH2 0x5391 JUMP JUMPDEST SWAP2 POP POP PUSH2 0x1DA2 JUMP JUMPDEST POP DUP1 PUSH2 0x1E10 JUMPI PUSH1 0x0 SWAP3 POP POP POP PUSH2 0xBF7 JUMP JUMPDEST POP DUP1 PUSH2 0x1E1B DUP2 PUSH2 0x5391 JUMP JUMPDEST SWAP2 POP POP PUSH2 0x1D95 JUMP JUMPDEST POP PUSH1 0x1 SWAP4 SWAP3 POP POP POP JUMP JUMPDEST PUSH1 0x0 PUSH2 0x1E37 PUSH2 0x3123 JUMP JUMPDEST SWAP1 POP PUSH1 0x0 JUMPDEST DUP3 DUP2 LT ISZERO PUSH2 0x1A23 JUMPI PUSH1 0x0 PUSH1 0x9 DUP6 DUP6 DUP5 DUP2 DUP2 LT PUSH2 0x1E5A JUMPI PUSH2 0x1E5A PUSH2 0x51F1 JUMP JUMPDEST SWAP1 POP PUSH1 0x20 MUL ADD CALLDATALOAD DUP2 SLOAD DUP2 LT PUSH2 0x1E71 JUMPI PUSH2 0x1E71 PUSH2 0x51F1 JUMP JUMPDEST SWAP1 PUSH1 0x0 MSTORE PUSH1 0x20 PUSH1 0x0 KECCAK256 SWAP1 PUSH1 0xE MUL ADD SWAP1 POP DUP3 DUP2 PUSH1 0xD ADD SLOAD SUB PUSH2 0x1EBC JUMPI PUSH1 0x40 MLOAD PUSH3 0x461BCD PUSH1 0xE5 SHL DUP2 MSTORE PUSH1 0x20 PUSH1 0x4 DUP3 ADD MSTORE PUSH1 0x5 PUSH1 0x24 DUP3 ADD MSTORE PUSH5 0x616875203 PUSH1 0xDC SHL PUSH1 0x44 DUP3 ADD MSTORE PUSH1 0x64 ADD PUSH2 0xF5C JUMP JUMPDEST PUSH1 0x8 DUP2 ADD SLOAD PUSH1 0xFF AND PUSH2 0x1EF8 JUMPI PUSH1 0x40 MLOAD PUSH3 0x461BCD PUSH1 0xE5 SHL DUP2 MSTORE PUSH1 0x20 PUSH1 0x4 DUP3 ADD MSTORE PUSH1 0x5 PUSH1 0x24 DUP3 ADD MSTORE PUSH5 0x616875203 PUSH1 0xDC SHL PUSH1 0x44 DUP3 ADD MSTORE PUSH1 0x64 ADD PUSH2 0xF5C JUMP JUMPDEST PUSH1 0x8 DUP2 ADD DUP1 SLOAD PUSH1 0xFF NOT AND SWAP1 SSTORE PUSH1 0xD DUP2 ADD DUP4 SWAP1 SSTORE PUSH1 0x9 DUP2 ADD DUP1 SLOAD PUSH1 0x0 SWAP2 SWAP1 PUSH2 0x1F1E SWAP1 PUSH2 0x517B JUMP JUMPDEST SWAP1 POP GT ISZERO PUSH2 0x1F39 JUMPI PUSH1 0x6 DUP2 ADD PUSH2 0x1F37 PUSH1 0x9 DUP4 ADD DUP3 PUSH2 0x5B14 JUMP JUMPDEST POP JUMPDEST PUSH1 0xA DUP2 ADD SLOAD ISZERO PUSH2 0x1F4E JUMPI PUSH1 0xA DUP2 ADD SLOAD PUSH1 0x3 DUP3 ADD SSTORE JUMPDEST PUSH1 0x4 DUP2 ADD SLOAD ISZERO PUSH2 0x1F63 JUMPI PUSH1 0xB DUP2 ADD SLOAD PUSH1 0x4 DUP3 ADD SSTORE JUMPDEST PUSH1 0xC DUP2 ADD SLOAD ISZERO PUSH2 0x1F83 JUMPI PUSH1 0xC DUP2 ADD DUP1 SLOAD PUSH2 0x1F81 SWAP2 PUSH1 0x5 DUP5 ADD SWAP2 PUSH2 0x47DC JUMP JUMPDEST POP JUMPDEST PUSH1 0x0 DUP1 MLOAD PUSH1 0x20 PUSH2 0x5D89 DUP4 CODECOPY DUP2 MLOAD SWAP2 MSTORE DUP2 PUSH1 0x40 MLOAD PUSH2 0x1FA0 SWAP2 SWAP1 PUSH2 0x5413 JUMP JUMPDEST PUSH1 0x40 MLOAD DUP1 SWAP2 SUB SWAP1 LOG1 POP DUP1 PUSH2 0x1FB3 DUP2 PUSH2 0x5391 JUMP JUMPDEST SWAP2 POP POP PUSH2 0x1E3C JUMP JUMPDEST PUSH1 0x60 PUSH1 0x4 DUP1 SLOAD PUSH2 0xB60 SWAP1 PUSH2 0x517B JUMP JUMPDEST PUSH1 0x1E SLOAD PUSH1 0x1 PUSH1 0x1 PUSH1 0xA0 SHL SUB AND CALLER EQ DUP1 PUSH2 0x1FED JUMPI POP PUSH1 0x1F SLOAD PUSH1 0x1 PUSH1 0x1 PUSH1 0xA0 SHL SUB AND CALLER EQ JUMPDEST PUSH2 0x1FF6 JUMPI PUSH1 0x0 DUP1 REVERT JUMPDEST PUSH2 0x1FFE PUSH2 0x3E75 JUMP JUMPDEST PUSH1 0x0 JUMPDEST DUP2 DUP2 LT ISZERO PUSH2 0x1124 JUMPI PUSH1 0x0 PUSH1 0x9 PUSH1 0x1 DUP6 DUP6 DUP6 DUP2 DUP2 LT PUSH2 0x2021 JUMPI PUSH2 0x2021 PUSH2 0x51F1 JUMP JUMPDEST SWAP1 POP PUSH1 0x40 MUL ADD PUSH1 0x20 ADD CALLDATALOAD PUSH2 0x2035 SWAP2 SWAP1 PUSH2 0x51DE JUMP JUMPDEST DUP2 SLOAD DUP2 LT PUSH2 0x2045 JUMPI PUSH2 0x2045 PUSH2 0x51F1 JUMP JUMPDEST SWAP1 PUSH1 0x0 MSTORE PUSH1 0x20 PUSH1 0x0 KECCAK256 SWAP1 PUSH1 0xE MUL ADD SWAP1 POP PUSH1 0x0 DUP2 PUSH1 0x0 ADD SLOAD GT PUSH2 0x2092 JUMPI PUSH1 0x40 MLOAD PUSH3 0x461BCD PUSH1 0xE5 SHL DUP2 MSTORE PUSH1 0x4 ADD PUSH2 0xF5C SWAP1 PUSH1 0x20 DUP1 DUP3 MSTORE PUSH1 0x4 SWAP1 DUP3 ADD MSTORE PUSH4 0x616D6331 PUSH1 0xE0 SHL PUSH1 0x40 DUP3 ADD MSTORE PUSH1 0x60 ADD SWAP1 JUMP JUMPDEST PUSH1 0x1 DUP1 DUP3 ADD SLOAD PUSH1 0x0 SWAP1 DUP2 MSTORE PUSH1 0x7 PUSH1 0x20 MSTORE PUSH1 0x40 DUP2 KECCAK256 SWAP2 PUSH1 0xA SWAP1 DUP8 DUP8 DUP8 DUP2 DUP2 LT PUSH2 0x20BC JUMPI PUSH2 0x20BC PUSH2 0x51F1 JUMP JUMPDEST SWAP1 POP PUSH1 0x40 MUL ADD PUSH1 0x0 ADD CALLDATALOAD PUSH2 0x20D0 SWAP2 SWAP1 PUSH2 0x51DE JUMP JUMPDEST DUP2 SLOAD DUP2 LT PUSH2 0x20E0 JUMPI PUSH2 0x20E0 PUSH2 0x51F1 JUMP JUMPDEST SWAP1 PUSH1 0x0 MSTORE PUSH1 0x20 PUSH1 0x0 KECCAK256 SWAP1 PUSH1 0xA MUL ADD SWAP1 POP PUSH1 0x0 DUP2 PUSH1 0x0 ADD SLOAD GT PUSH2 0x212D JUMPI PUSH1 0x40 MLOAD PUSH3 0x461BCD PUSH1 0xE5 SHL DUP2 MSTORE PUSH1 0x4 ADD PUSH2 0xF5C SWAP1 PUSH1 0x20 DUP1 DUP3 MSTORE PUSH1 0x4 SWAP1 DUP3 ADD MSTORE PUSH4 0x30B6B199 PUSH1 0xE1 SHL PUSH1 0x40 DUP3 ADD MSTORE PUSH1 0x60 ADD SWAP1 JUMP JUMPDEST TIMESTAMP DUP2 PUSH1 0x8 ADD SLOAD GT PUSH2 0x2169 JUMPI PUSH1 0x40 MLOAD PUSH3 0x461BCD PUSH1 0xE5 SHL DUP2 MSTORE PUSH1 0x4 ADD PUSH2 0xF5C SWAP1 PUSH1 0x20 DUP1 DUP3 MSTORE PUSH1 0x4 SWAP1 DUP3 ADD MSTORE PUSH4 0x616D6333 PUSH1 0xE0 SHL PUSH1 0x40 DUP3 ADD MSTORE PUSH1 0x60 ADD SWAP1 JUMP JUMPDEST PUSH2 0x2217 DUP4 PUSH1 0x5 ADD DUP1 SLOAD DUP1 PUSH1 0x20 MUL PUSH1 0x20 ADD PUSH1 0x40 MLOAD SWAP1 DUP2 ADD PUSH1 0x40 MSTORE DUP1 SWAP3 SWAP2 SWAP1 DUP2 DUP2 MSTORE PUSH1 0x20 ADD DUP3 DUP1 SLOAD DUP1 ISZERO PUSH2 0x21BA JUMPI PUSH1 0x20 MUL DUP3 ADD SWAP2 SWAP1 PUSH1 0x0 MSTORE PUSH1 0x20 PUSH1 0x0 KECCAK256 SWAP1 JUMPDEST DUP2 SLOAD DUP2 MSTORE PUSH1 0x20 ADD SWAP1 PUSH1 0x1 ADD SWAP1 DUP1 DUP4 GT PUSH2 0x21A6 JUMPI JUMPDEST POP POP POP POP POP DUP3 PUSH1 0x7 ADD DUP1 SLOAD DUP1 PUSH1 0x20 MUL PUSH1 0x20 ADD PUSH1 0x40 MLOAD SWAP1 DUP2 ADD PUSH1 0x40 MSTORE DUP1 SWAP3 SWAP2 SWAP1 DUP2 DUP2 MSTORE PUSH1 0x20 ADD DUP3 DUP1 SLOAD DUP1 ISZERO PUSH2 0x220D JUMPI PUSH1 0x20 MUL DUP3 ADD SWAP2 SWAP1 PUSH1 0x0 MSTORE PUSH1 0x20 PUSH1 0x0 KECCAK256 SWAP1 JUMPDEST DUP2 SLOAD DUP2 MSTORE PUSH1 0x20 ADD SWAP1 PUSH1 0x1 ADD SWAP1 DUP1 DUP4 GT PUSH2 0x21F9 JUMPI JUMPDEST POP POP POP POP POP PUSH2 0x1D91 JUMP JUMPDEST PUSH2 0x224C JUMPI PUSH1 0x40 MLOAD PUSH3 0x461BCD PUSH1 0xE5 SHL DUP2 MSTORE PUSH1 0x4 ADD PUSH2 0xF5C SWAP1 PUSH1 0x20 DUP1 DUP3 MSTORE PUSH1 0x4 SWAP1 DUP3 ADD MSTORE PUSH4 0x185B58CD PUSH1 0xE2 SHL PUSH1 0x40 DUP3 ADD MSTORE PUSH1 0x60 ADD SWAP1 JUMP JUMPDEST DUP3 PUSH1 0x3 ADD SLOAD DUP2 PUSH1 0x4 ADD SLOAD LT ISZERO PUSH2 0x228D JUMPI PUSH1 0x40 MLOAD PUSH3 0x461BCD PUSH1 0xE5 SHL DUP2 MSTORE PUSH1 0x4 ADD PUSH2 0xF5C SWAP1 PUSH1 0x20 DUP1 DUP3 MSTORE PUSH1 0x4 SWAP1 DUP3 ADD MSTORE PUSH4 0x616D6335 PUSH1 0xE0 SHL PUSH1 0x40 DUP3 ADD MSTORE PUSH1 0x60 ADD SWAP1 JUMP JUMPDEST PUSH1 0x2 DUP4 ADD SLOAD PUSH1 0xFF AND PUSH1 0xD DUP2 GT ISZERO PUSH2 0x22A6 JUMPI PUSH2 0x22A6 PUSH2 0x4950 JUMP JUMPDEST PUSH1 0x2 DUP3 ADD SLOAD PUSH1 0xFF AND PUSH1 0xD DUP2 GT ISZERO PUSH2 0x22BF JUMPI PUSH2 0x22BF PUSH2 0x4950 JUMP JUMPDEST EQ PUSH2 0x22F5 JUMPI PUSH1 0x40 MLOAD PUSH3 0x461BCD PUSH1 0xE5 SHL DUP2 MSTORE PUSH1 0x4 ADD PUSH2 0xF5C SWAP1 PUSH1 0x20 DUP1 DUP3 MSTORE PUSH1 0x4 SWAP1 DUP3 ADD MSTORE PUSH4 0x30B6B19B PUSH1 0xE1 SHL PUSH1 0x40 DUP3 ADD MSTORE PUSH1 0x60 ADD SWAP1 JUMP JUMPDEST DUP1 PUSH1 0x6 ADD SLOAD DUP4 PUSH1 0x4 ADD SLOAD DUP5 PUSH1 0x3 ADD SLOAD PUSH2 0x230E SWAP2 SWAP1 PUSH2 0x576D JUMP JUMPDEST GT ISZERO PUSH2 0x2345 JUMPI PUSH1 0x40 MLOAD PUSH3 0x461BCD PUSH1 0xE5 SHL DUP2 MSTORE PUSH1 0x4 ADD PUSH2 0xF5C SWAP1 PUSH1 0x20 DUP1 DUP3 MSTORE PUSH1 0x4 SWAP1 DUP3 ADD MSTORE PUSH4 0x616D6337 PUSH1 0xE0 SHL PUSH1 0x40 DUP3 ADD MSTORE PUSH1 0x60 ADD SWAP1 JUMP JUMPDEST PUSH1 0x1 DUP2 ADD SLOAD PUSH1 0x0 SWAP1 DUP2 MSTORE PUSH1 0x7 PUSH1 0x20 MSTORE PUSH1 0x40 DUP2 KECCAK256 PUSH1 0x3 DUP6 ADD SLOAD PUSH1 0xD SLOAD SWAP2 SWAP3 SWAP1 SWAP2 PUSH9 0x56BC75E2D63100000 SWAP1 PUSH2 0x2379 SWAP1 DUP5 PUSH2 0x57E4 JUMP JUMPDEST PUSH2 0x2383 SWAP2 SWAP1 PUSH2 0x576D JUMP JUMPDEST SWAP1 POP PUSH1 0x0 PUSH2 0x2391 DUP3 DUP5 PUSH2 0x51DE JUMP JUMPDEST SWAP1 POP PUSH1 0x0 PUSH1 0x40 MLOAD DUP1 PUSH1 0xE0 ADD PUSH1 0x40 MSTORE DUP1 PUSH1 0xB DUP1 SLOAD SWAP1 POP PUSH1 0x1 PUSH2 0x23B2 SWAP2 SWAP1 PUSH2 0x51CB JUMP JUMPDEST DUP2 MSTORE DUP10 SLOAD PUSH1 0x20 DUP1 DUP4 ADD SWAP2 SWAP1 SWAP2 MSTORE DUP9 SLOAD PUSH1 0x40 DUP1 DUP5 ADD SWAP2 SWAP1 SWAP2 MSTORE PUSH1 0x60 DUP1 DUP5 ADD DUP10 SWAP1 MSTORE PUSH1 0x80 DUP1 DUP6 ADD DUP10 SWAP1 MSTORE DUP3 MLOAD DUP1 DUP6 ADD DUP5 MSTORE PUSH1 0x0 DUP1 DUP3 MSTORE PUSH1 0xA0 DUP1 DUP9 ADD SWAP3 SWAP1 SWAP3 MSTORE TIMESTAMP PUSH1 0xC0 SWAP1 SWAP8 ADD SWAP7 SWAP1 SWAP7 MSTORE PUSH1 0xB DUP1 SLOAD PUSH1 0x1 DUP2 ADD DUP3 SSTORE SWAP7 MSTORE DUP7 MLOAD PUSH1 0x7 SWAP1 SWAP7 MUL PUSH32 0x175B7A638427703F0DBE7BB9BBF987A2551717B34E79F33B5B1008D1FA01DB9 DUP2 ADD SWAP7 DUP8 SSTORE SWAP5 DUP8 ADD MLOAD PUSH32 0x175B7A638427703F0DBE7BB9BBF987A2551717B34E79F33B5B1008D1FA01DBA DUP7 ADD SSTORE SWAP3 DUP7 ADD MLOAD PUSH32 0x175B7A638427703F0DBE7BB9BBF987A2551717B34E79F33B5B1008D1FA01DBB DUP6 ADD SSTORE SWAP1 DUP6 ADD MLOAD PUSH32 0x175B7A638427703F0DBE7BB9BBF987A2551717B34E79F33B5B1008D1FA01DBC DUP5 ADD SSTORE DUP5 ADD MLOAD PUSH32 0x175B7A638427703F0DBE7BB9BBF987A2551717B34E79F33B5B1008D1FA01DBD DUP4 ADD SSTORE DUP4 ADD MLOAD SWAP3 SWAP4 POP DUP4 SWAP3 PUSH32 0x175B7A638427703F0DBE7BB9BBF987A2551717B34E79F33B5B1008D1FA01DBE SWAP1 SWAP2 ADD SWAP1 PUSH2 0x2508 SWAP1 DUP3 PUSH2 0x5BEA JUMP JUMPDEST POP PUSH1 0xC0 SWAP2 SWAP1 SWAP2 ADD MLOAD PUSH1 0x6 SWAP2 DUP3 ADD SSTORE DUP2 MLOAD SWAP1 DUP9 ADD DUP1 SLOAD PUSH1 0x1 DUP2 ADD DUP3 SSTORE PUSH1 0x0 SWAP2 DUP3 MSTORE PUSH1 0x20 DUP3 KECCAK256 ADD SWAP2 SWAP1 SWAP2 SSTORE PUSH1 0x4 DUP8 ADD DUP1 SLOAD DUP7 SWAP3 SWAP1 PUSH2 0x2545 SWAP1 DUP5 SWAP1 PUSH2 0x51DE JUMP JUMPDEST SWAP1 SWAP2 SSTORE POP PUSH2 0x2556 SWAP1 POP DUP4 PUSH1 0x1 PUSH2 0x41CC JUMP JUMPDEST PUSH1 0x0 PUSH1 0x20 SLOAD PUSH2 0x2582 PUSH32 0x0 SWAP1 JUMP JUMPDEST PUSH2 0x258C SWAP2 SWAP1 PUSH2 0x51DE JUMP JUMPDEST SWAP1 POP PUSH1 0x0 DUP2 DUP6 GT PUSH2 0x259D JUMPI DUP5 PUSH2 0x259F JUMP JUMPDEST DUP2 JUMPDEST SWAP1 POP DUP1 PUSH1 0x20 PUSH1 0x0 DUP3 DUP3 SLOAD PUSH2 0x25B3 SWAP2 SWAP1 PUSH2 0x51CB JUMP JUMPDEST SWAP1 SWAP2 SSTORE POP PUSH1 0x0 SWAP1 POP PUSH9 0x56BC75E2D63100000 PUSH2 0x25D0 DUP4 PUSH1 0xA PUSH2 0x57E4 JUMP JUMPDEST PUSH2 0x25E2 SWAP1 PUSH8 0xDE0B6B3A7640000 PUSH2 0x57E4 JUMP JUMPDEST PUSH2 0x25EC SWAP2 SWAP1 PUSH2 0x576D JUMP JUMPDEST SWAP1 POP PUSH1 0x0 PUSH9 0x56BC75E2D63100000 PUSH2 0x2605 DUP5 PUSH1 0xF PUSH2 0x57E4 JUMP JUMPDEST PUSH2 0x2617 SWAP1 PUSH8 0xDE0B6B3A7640000 PUSH2 0x57E4 JUMP JUMPDEST PUSH2 0x2621 SWAP2 SWAP1 PUSH2 0x576D JUMP JUMPDEST SWAP1 POP PUSH1 0x0 DUP2 PUSH2 0x2630 DUP5 DUP7 PUSH2 0x51DE JUMP JUMPDEST PUSH2 0x263A SWAP2 SWAP1 PUSH2 0x51DE JUMP JUMPDEST SWAP1 POP DUP1 ISZERO PUSH2 0x2658 JUMPI PUSH1 0x1F SLOAD PUSH2 0x2658 SWAP1 PUSH1 0x1 PUSH1 0x1 PUSH1 0xA0 SHL SUB AND DUP3 PUSH2 0x3F29 JUMP JUMPDEST PUSH1 0x1 DUP13 ADD SLOAD PUSH1 0x1 PUSH1 0x1 PUSH1 0xA0 SHL SUB AND PUSH2 0x26E0 JUMPI DUP2 ISZERO PUSH2 0x268A JUMPI DUP2 DUP13 PUSH1 0x2 ADD PUSH1 0x0 DUP3 DUP3 SLOAD PUSH2 0x2684 SWAP2 SWAP1 PUSH2 0x51CB JUMP JUMPDEST SWAP1 SWAP2 SSTORE POP POP JUMPDEST DUP7 DUP13 PUSH1 0x3 ADD PUSH1 0x0 DUP3 DUP3 SLOAD PUSH2 0x269E SWAP2 SWAP1 PUSH2 0x51CB JUMP JUMPDEST SWAP1 SWAP2 SSTORE POP POP PUSH1 0x40 MLOAD PUSH32 0xE1AB017037DFDBE8AEEA88CA10733A62FE91B3791C7AB2F30B54A9E2A0B0D319 SWAP1 PUSH2 0x26D3 SWAP1 DUP15 SWAP1 PUSH2 0x551F JUMP JUMPDEST PUSH1 0x40 MLOAD DUP1 SWAP2 SUB SWAP1 LOG1 PUSH2 0x277B JUMP JUMPDEST DUP2 ISZERO PUSH2 0x26FE JUMPI PUSH1 0x1 DUP13 ADD SLOAD PUSH2 0x26FE SWAP1 PUSH1 0x1 PUSH1 0x1 PUSH1 0xA0 SHL SUB AND DUP4 PUSH2 0x3F29 JUMP JUMPDEST PUSH1 0x1B SLOAD PUSH1 0x1 DUP14 ADD SLOAD PUSH1 0x40 MLOAD PUSH4 0xA9059CBB PUSH1 0xE0 SHL DUP2 MSTORE PUSH1 0x1 PUSH1 0x1 PUSH1 0xA0 SHL SUB SWAP2 DUP3 AND PUSH1 0x4 DUP3 ADD MSTORE PUSH1 0x24 DUP2 ADD DUP11 SWAP1 MSTORE SWAP2 AND SWAP1 PUSH4 0xA9059CBB SWAP1 PUSH1 0x44 ADD PUSH1 0x20 PUSH1 0x40 MLOAD DUP1 DUP4 SUB DUP2 PUSH1 0x0 DUP8 GAS CALL ISZERO DUP1 ISZERO PUSH2 0x2755 JUMPI RETURNDATASIZE PUSH1 0x0 DUP1 RETURNDATACOPY RETURNDATASIZE PUSH1 0x0 REVERT JUMPDEST POP POP POP POP PUSH1 0x40 MLOAD RETURNDATASIZE PUSH1 0x1F NOT PUSH1 0x1F DUP3 ADD AND DUP3 ADD DUP1 PUSH1 0x40 MSTORE POP DUP2 ADD SWAP1 PUSH2 0x2779 SWAP2 SWAP1 PUSH2 0x5215 JUMP JUMPDEST POP JUMPDEST DUP3 ISZERO PUSH2 0x2801 JUMPI PUSH1 0x1 DUP11 ADD SLOAD PUSH1 0x1 PUSH1 0x1 PUSH1 0xA0 SHL SUB AND PUSH2 0x27E9 JUMPI DUP3 DUP11 PUSH1 0x2 ADD PUSH1 0x0 DUP3 DUP3 SLOAD PUSH2 0x27A7 SWAP2 SWAP1 PUSH2 0x51CB JUMP JUMPDEST SWAP1 SWAP2 SSTORE POP POP PUSH1 0x40 MLOAD PUSH32 0xE1AB017037DFDBE8AEEA88CA10733A62FE91B3791C7AB2F30B54A9E2A0B0D319 SWAP1 PUSH2 0x27DC SWAP1 DUP13 SWAP1 PUSH2 0x551F JUMP JUMPDEST PUSH1 0x40 MLOAD DUP1 SWAP2 SUB SWAP1 LOG1 PUSH2 0x2801 JUMP JUMPDEST PUSH1 0x1 DUP11 ADD SLOAD PUSH2 0x2801 SWAP1 PUSH1 0x1 PUSH1 0x1 PUSH1 0xA0 SHL SUB AND DUP5 PUSH2 0x3F29 JUMP JUMPDEST PUSH32 0x163F215EBBFD927D87234E39D082B1B03B551DADBCA611AAB6568EE11A75E8D7 DUP7 PUSH1 0x40 MLOAD PUSH2 0x2830 SWAP2 SWAP1 PUSH2 0x5CA1 JUMP JUMPDEST PUSH1 0x40 MLOAD DUP1 SWAP2 SUB SWAP1 LOG1 PUSH32 0xE4ACA3C0FC408B3A8CE278B40B298311B8DCA09AC3C3D5D1068F014E01AC551B DUP12 PUSH1 0x40 MLOAD PUSH2 0x2867 SWAP2 SWAP1 PUSH2 0x52E4 JUMP JUMPDEST PUSH1 0x40 MLOAD DUP1 SWAP2 SUB SWAP1 LOG1 POP POP POP POP POP POP POP POP POP POP POP POP POP DUP1 DUP1 PUSH2 0x2887 SWAP1 PUSH2 0x5391 JUMP JUMPDEST SWAP2 POP POP PUSH2 0x2001 JUMP JUMPDEST PUSH1 0x0 PUSH2 0x2899 PUSH2 0x3123 JUMP JUMPDEST SWAP1 POP PUSH1 0x0 JUMPDEST DUP3 DUP2 LT ISZERO PUSH2 0x1A23 JUMPI PUSH1 0x0 PUSH1 0x12 PUSH1 0x0 DUP7 DUP7 DUP6 DUP2 DUP2 LT PUSH2 0x28BE JUMPI PUSH2 0x28BE PUSH2 0x51F1 JUMP JUMPDEST SWAP1 POP PUSH1 0x20 MUL ADD PUSH1 0x20 DUP2 ADD SWAP1 PUSH2 0x28D3 SWAP2 SWAP1 PUSH2 0x4A22 JUMP JUMPDEST PUSH1 0x1 PUSH1 0x1 PUSH1 0xA0 SHL SUB AND PUSH1 0x1 PUSH1 0x1 PUSH1 0xA0 SHL SUB AND DUP2 MSTORE PUSH1 0x20 ADD SWAP1 DUP2 MSTORE PUSH1 0x20 ADD PUSH1 0x0 KECCAK256 SWAP1 POP PUSH1 0x0 DUP2 PUSH1 0x2 ADD SLOAD GT PUSH2 0x2931 JUMPI PUSH1 0x40 MLOAD PUSH3 0x461BCD PUSH1 0xE5 SHL DUP2 MSTORE PUSH1 0x20 PUSH1 0x4 DUP3 ADD MSTORE PUSH1 0x5 PUSH1 0x24 DUP3 ADD MSTORE PUSH5 0x766176203 PUSH1 0xDC SHL PUSH1 0x44 DUP3 ADD MSTORE PUSH1 0x64 ADD PUSH2 0xF5C JUMP JUMPDEST DUP3 DUP2 PUSH1 0x2 ADD SLOAD LT PUSH2 0x296C JUMPI PUSH1 0x40 MLOAD PUSH3 0x461BCD PUSH1 0xE5 SHL DUP2 MSTORE PUSH1 0x20 PUSH1 0x4 DUP3 ADD MSTORE PUSH1 0x5 PUSH1 0x24 DUP3 ADD MSTORE PUSH5 0x7661762031 PUSH1 0xD8 SHL PUSH1 0x44 DUP3 ADD MSTORE PUSH1 0x64 ADD PUSH2 0xF5C JUMP JUMPDEST PUSH1 0x3 DUP2 ADD SLOAD PUSH1 0xFF AND ISZERO PUSH2 0x29A9 JUMPI PUSH1 0x40 MLOAD PUSH3 0x461BCD PUSH1 0xE5 SHL DUP2 MSTORE PUSH1 0x20 PUSH1 0x4 DUP3 ADD MSTORE PUSH1 0x5 PUSH1 0x24 DUP3 ADD MSTORE PUSH5 0x3B30BB1019 PUSH1 0xD9 SHL PUSH1 0x44 DUP3 ADD MSTORE PUSH1 0x64 ADD PUSH2 0xF5C JUMP JUMPDEST PUSH1 0x3 DUP2 ADD DUP1 SLOAD PUSH1 0xFF NOT AND PUSH1 0x1 OR SWAP1 SSTORE DUP1 SLOAD PUSH1 0x15 DUP1 SLOAD PUSH1 0x0 SWAP1 PUSH2 0x29CC SWAP1 DUP5 SWAP1 PUSH2 0x51CB JUMP JUMPDEST SWAP1 SWAP2 SSTORE POP POP PUSH1 0x1 DUP2 ADD SLOAD PUSH1 0x1 PUSH1 0x1 PUSH1 0xA0 SHL SUB AND PUSH1 0x0 SWAP1 DUP2 MSTORE PUSH1 0x14 PUSH1 0x20 MSTORE PUSH1 0x40 SWAP1 KECCAK256 SLOAD DUP1 ISZERO PUSH2 0x2A47 JUMPI PUSH1 0x0 PUSH1 0x13 PUSH2 0x2A03 PUSH1 0x1 DUP5 PUSH2 0x51DE JUMP JUMPDEST DUP2 SLOAD DUP2 LT PUSH2 0x2A13 JUMPI PUSH2 0x2A13 PUSH2 0x51F1 JUMP JUMPDEST SWAP1 PUSH1 0x0 MSTORE PUSH1 0x20 PUSH1 0x0 KECCAK256 SWAP1 PUSH1 0x2 MUL ADD SWAP1 POP DUP3 PUSH1 0x0 ADD SLOAD DUP2 PUSH1 0x0 ADD PUSH1 0x0 DUP3 DUP3 SLOAD PUSH2 0x2A3B SWAP2 SWAP1 PUSH2 0x51CB JUMP JUMPDEST SWAP1 SWAP2 SSTORE POP PUSH2 0x2AD7 SWAP2 POP POP JUMP JUMPDEST PUSH1 0x13 DUP1 SLOAD PUSH1 0x1 DUP2 DUP2 ADD DUP4 SSTORE DUP5 SLOAD PUSH1 0x2 SWAP1 SWAP3 MUL PUSH32 0x66DE8FFDA797E3DE9C05E8FC57B3BF0EC28A930D40B0D285D93C06501CF6A090 DUP2 ADD SWAP3 SWAP1 SWAP3 SSTORE DUP5 ADD DUP1 SLOAD PUSH32 0x66DE8FFDA797E3DE9C05E8FC57B3BF0EC28A930D40B0D285D93C06501CF6A091 SWAP1 SWAP3 ADD DUP1 SLOAD PUSH1 0x1 PUSH1 0x1 PUSH1 0xA0 SHL SUB NOT AND PUSH1 0x1 PUSH1 0x1 PUSH1 0xA0 SHL SUB SWAP4 DUP5 AND OR SWAP1 SSTORE SWAP2 SLOAD SWAP2 SLOAD AND PUSH1 0x0 SWAP1 DUP2 MSTORE PUSH1 0x14 PUSH1 0x20 MSTORE PUSH1 0x40 SWAP1 KECCAK256 SSTORE JUMPDEST PUSH32 0xE08472D1275FEFBB15FF0AEA278BB1F42C491BE3FA4358160826BA7E420AE613 DUP3 PUSH1 0x40 MLOAD PUSH2 0x2B06 SWAP2 SWAP1 PUSH2 0x5D06 JUMP JUMPDEST PUSH1 0x40 MLOAD DUP1 SWAP2 SUB SWAP1 LOG1 POP POP DUP1 DUP1 PUSH2 0x2B1B SWAP1 PUSH2 0x5391 JUMP JUMPDEST SWAP2 POP POP PUSH2 0x289E JUMP JUMPDEST PUSH1 0x0 DUP2 GT DUP1 ISZERO PUSH2 0x2B3B JUMPI POP PUSH9 0x56BC75E2D63100000 DUP2 LT JUMPDEST PUSH2 0x2B70 JUMPI PUSH1 0x40 MLOAD PUSH3 0x461BCD PUSH1 0xE5 SHL DUP2 MSTORE PUSH1 0x20 PUSH1 0x4 DUP3 ADD MSTORE PUSH1 0x6 PUSH1 0x24 DUP3 ADD MSTORE PUSH6 0x73667276203 PUSH1 0xD4 SHL PUSH1 0x44 DUP3 ADD MSTORE PUSH1 0x64 ADD PUSH2 0xF5C JUMP JUMPDEST CALLER PUSH1 0x0 SWAP1 DUP2 MSTORE PUSH1 0x11 PUSH1 0x20 MSTORE PUSH1 0x40 SWAP1 KECCAK256 DUP1 SLOAD ISZERO PUSH2 0x2B8F JUMPI PUSH2 0x2B8F CALLER PUSH2 0x425D JUMP JUMPDEST CALLER PUSH1 0x0 SWAP1 DUP2 MSTORE PUSH1 0x20 DUP2 SWAP1 MSTORE PUSH1 0x40 SWAP1 KECCAK256 SLOAD DUP1 PUSH2 0x2BD5 JUMPI PUSH1 0x40 MLOAD PUSH3 0x461BCD PUSH1 0xE5 SHL DUP2 MSTORE PUSH1 0x20 PUSH1 0x4 DUP3 ADD MSTORE PUSH1 0x6 PUSH1 0x24 DUP3 ADD MSTORE PUSH6 0x736672762031 PUSH1 0xD0 SHL PUSH1 0x44 DUP3 ADD MSTORE PUSH1 0x64 ADD PUSH2 0xF5C JUMP JUMPDEST DUP1 PUSH1 0xF SLOAD PUSH2 0x2BE3 SWAP2 SWAP1 PUSH2 0x51CB JUMP JUMPDEST PUSH2 0x2BED DUP5 DUP4 PUSH2 0x57E4 JUMP JUMPDEST PUSH1 0xF SLOAD PUSH1 0xE SLOAD PUSH2 0x2BFD SWAP2 SWAP1 PUSH2 0x57E4 JUMP JUMPDEST PUSH2 0x2C07 SWAP2 SWAP1 PUSH2 0x51CB JUMP JUMPDEST PUSH2 0x2C11 SWAP2 SWAP1 PUSH2 0x576D JUMP JUMPDEST PUSH1 0xE DUP2 SWAP1 SSTORE POP DUP1 PUSH1 0xF PUSH1 0x0 DUP3 DUP3 SLOAD PUSH2 0x2C29 SWAP2 SWAP1 PUSH2 0x51CB JUMP JUMPDEST SWAP1 SWAP2 SSTORE POP POP DUP2 SSTORE PUSH1 0x1 ADD SSTORE JUMP JUMPDEST PUSH1 0x0 CALLER DUP2 PUSH2 0x2C44 DUP3 DUP7 PUSH2 0x35E8 JUMP JUMPDEST SWAP1 POP DUP4 DUP2 LT ISZERO PUSH2 0x2CA4 JUMPI PUSH1 0x40 MLOAD PUSH3 0x461BCD PUSH1 0xE5 SHL DUP2 MSTORE PUSH1 0x20 PUSH1 0x4 DUP3 ADD MSTORE PUSH1 0x25 PUSH1 0x24 DUP3 ADD MSTORE PUSH32 0x45524332303A2064656372656173656420616C6C6F77616E63652062656C6F77 PUSH1 0x44 DUP3 ADD MSTORE PUSH5 0x207A65726F PUSH1 0xD8 SHL PUSH1 0x64 DUP3 ADD MSTORE PUSH1 0x84 ADD PUSH2 0xF5C JUMP JUMPDEST PUSH2 0xE17 DUP3 DUP7 DUP7 DUP5 SUB PUSH2 0x3B2E JUMP JUMPDEST PUSH1 0x60 PUSH1 0xA DUP1 SLOAD DUP1 PUSH1 0x20 MUL PUSH1 0x20 ADD PUSH1 0x40 MLOAD SWAP1 DUP2 ADD PUSH1 0x40 MSTORE DUP1 SWAP3 SWAP2 SWAP1 DUP2 DUP2 MSTORE PUSH1 0x20 ADD PUSH1 0x0 SWAP1 JUMPDEST DUP3 DUP3 LT ISZERO PUSH2 0x2E7C JUMPI DUP4 DUP3 SWAP1 PUSH1 0x0 MSTORE PUSH1 0x20 PUSH1 0x0 KECCAK256 SWAP1 PUSH1 0xA MUL ADD PUSH1 0x40 MLOAD DUP1 PUSH2 0x140 ADD PUSH1 0x40 MSTORE SWAP1 DUP2 PUSH1 0x0 DUP3 ADD SLOAD DUP2 MSTORE PUSH1 0x20 ADD PUSH1 0x1 DUP3 ADD SLOAD DUP2 MSTORE PUSH1 0x20 ADD PUSH1 0x2 DUP3 ADD PUSH1 0x0 SWAP1 SLOAD SWAP1 PUSH2 0x100 EXP SWAP1 DIV PUSH1 0xFF AND PUSH1 0xD DUP2 GT ISZERO PUSH2 0x2D31 JUMPI PUSH2 0x2D31 PUSH2 0x4950 JUMP JUMPDEST PUSH1 0xD DUP2 GT ISZERO PUSH2 0x2D42 JUMPI PUSH2 0x2D42 PUSH2 0x4950 JUMP JUMPDEST DUP2 MSTORE PUSH1 0x20 ADD PUSH1 0x3 DUP3 ADD SLOAD DUP2 MSTORE PUSH1 0x20 ADD PUSH1 0x4 DUP3 ADD SLOAD DUP2 MSTORE PUSH1 0x20 ADD PUSH1 0x5 DUP3 ADD DUP1 SLOAD PUSH2 0x2D6A SWAP1 PUSH2 0x517B JUMP JUMPDEST DUP1 PUSH1 0x1F ADD PUSH1 0x20 DUP1 SWAP2 DIV MUL PUSH1 0x20 ADD PUSH1 0x40 MLOAD SWAP1 DUP2 ADD PUSH1 0x40 MSTORE DUP1 SWAP3 SWAP2 SWAP1 DUP2 DUP2 MSTORE PUSH1 0x20 ADD DUP3 DUP1 SLOAD PUSH2 0x2D96 SWAP1 PUSH2 0x517B JUMP JUMPDEST DUP1 ISZERO PUSH2 0x2DE3 JUMPI DUP1 PUSH1 0x1F LT PUSH2 0x2DB8 JUMPI PUSH2 0x100 DUP1 DUP4 SLOAD DIV MUL DUP4 MSTORE SWAP2 PUSH1 0x20 ADD SWAP2 PUSH2 0x2DE3 JUMP JUMPDEST DUP3 ADD SWAP2 SWAP1 PUSH1 0x0 MSTORE PUSH1 0x20 PUSH1 0x0 KECCAK256 SWAP1 JUMPDEST DUP2 SLOAD DUP2 MSTORE SWAP1 PUSH1 0x1 ADD SWAP1 PUSH1 0x20 ADD DUP1 DUP4 GT PUSH2 0x2DC6 JUMPI DUP3 SWAP1 SUB PUSH1 0x1F AND DUP3 ADD SWAP2 JUMPDEST POP POP POP POP POP DUP2 MSTORE PUSH1 0x20 ADD PUSH1 0x6 DUP3 ADD SLOAD DUP2 MSTORE PUSH1 0x20 ADD PUSH1 0x7 DUP3 ADD DUP1 SLOAD DUP1 PUSH1 0x20 MUL PUSH1 0x20 ADD PUSH1 0x40 MLOAD SWAP1 DUP2 ADD PUSH1 0x40 MSTORE DUP1 SWAP3 SWAP2 SWAP1 DUP2 DUP2 MSTORE PUSH1 0x20 ADD DUP3 DUP1 SLOAD DUP1 ISZERO PUSH2 0x2E45 JUMPI PUSH1 0x20 MUL DUP3 ADD SWAP2 SWAP1 PUSH1 0x0 MSTORE PUSH1 0x20 PUSH1 0x0 KECCAK256 SWAP1 JUMPDEST DUP2 SLOAD DUP2 MSTORE PUSH1 0x20 ADD SWAP1 PUSH1 0x1 ADD SWAP1 DUP1 DUP4 GT PUSH2 0x2E31 JUMPI JUMPDEST POP POP POP SWAP2 DUP4 MSTORE POP POP PUSH1 0x8 DUP3 ADD SLOAD PUSH1 0x20 DUP1 DUP4 ADD SWAP2 SWAP1 SWAP2 MSTORE PUSH1 0x9 SWAP1 SWAP3 ADD SLOAD PUSH1 0xFF AND ISZERO ISZERO PUSH1 0x40 SWAP1 SWAP2 ADD MSTORE SWAP1 DUP3 MSTORE PUSH1 0x1 SWAP3 SWAP1 SWAP3 ADD SWAP2 ADD PUSH2 0x2CD5 JUMP JUMPDEST POP POP POP POP SWAP1 POP SWAP1 JUMP JUMPDEST PUSH1 0x0 CALLER PUSH2 0xBF1 DUP2 DUP6 DUP6 PUSH2 0x3CC6 JUMP JUMPDEST PUSH2 0x2E9B PUSH2 0x3E75 JUMP JUMPDEST PUSH1 0x0 PUSH2 0x2EA5 PUSH2 0x3123 JUMP JUMPDEST PUSH1 0x0 DUP2 DUP2 MSTORE PUSH1 0x24 PUSH1 0x20 MSTORE PUSH1 0x40 DUP2 KECCAK256 SLOAD SWAP2 SWAP3 POP SWAP1 PUSH2 0x2EC1 PUSH1 0x2 SLOAD SWAP1 JUMP JUMPDEST PUSH2 0x2ECB SWAP2 SWAP1 PUSH2 0x51DE JUMP JUMPDEST SWAP1 POP PUSH1 0x0 PUSH2 0x2ED7 PUSH2 0xDB8 JUMP JUMPDEST SWAP1 POP PUSH1 0x0 DUP3 GT PUSH2 0x2F11 JUMPI PUSH1 0x40 MLOAD PUSH3 0x461BCD PUSH1 0xE5 SHL DUP2 MSTORE PUSH1 0x20 PUSH1 0x4 DUP3 ADD MSTORE PUSH1 0x5 PUSH1 0x24 DUP3 ADD MSTORE PUSH5 0x636670733 PUSH1 0xDC SHL PUSH1 0x44 DUP3 ADD MSTORE PUSH1 0x64 ADD PUSH2 0xF5C JUMP JUMPDEST PUSH1 0x0 DUP2 GT PUSH2 0x2F49 JUMPI PUSH1 0x40 MLOAD PUSH3 0x461BCD PUSH1 0xE5 SHL DUP2 MSTORE PUSH1 0x20 PUSH1 0x4 DUP3 ADD MSTORE PUSH1 0x5 PUSH1 0x24 DUP3 ADD MSTORE PUSH5 0x6366707331 PUSH1 0xD8 SHL PUSH1 0x44 DUP3 ADD MSTORE PUSH1 0x64 ADD PUSH2 0xF5C JUMP JUMPDEST PUSH1 0x0 JUMPDEST DUP5 DUP2 LT ISZERO PUSH2 0x3115 JUMPI PUSH1 0x0 DUP7 DUP7 DUP4 DUP2 DUP2 LT PUSH2 0x2F68 JUMPI PUSH2 0x2F68 PUSH2 0x51F1 JUMP JUMPDEST SWAP1 POP PUSH1 0x20 MUL ADD PUSH1 0x20 DUP2 ADD SWAP1 PUSH2 0x2F7D SWAP2 SWAP1 PUSH2 0x4A22 JUMP JUMPDEST PUSH1 0x1 PUSH1 0x1 PUSH1 0xA0 SHL SUB DUP2 AND PUSH1 0x0 SWAP1 DUP2 MSTORE PUSH1 0x25 PUSH1 0x20 MSTORE PUSH1 0x40 SWAP1 KECCAK256 SLOAD SWAP1 SWAP2 POP DUP6 GT PUSH2 0x2FCF JUMPI PUSH1 0x40 MLOAD PUSH3 0x461BCD PUSH1 0xE5 SHL DUP2 MSTORE PUSH1 0x20 PUSH1 0x4 DUP3 ADD MSTORE PUSH1 0x5 PUSH1 0x24 DUP3 ADD MSTORE PUSH5 0x31B3383999 PUSH1 0xD9 SHL PUSH1 0x44 DUP3 ADD MSTORE PUSH1 0x64 ADD PUSH2 0xF5C JUMP JUMPDEST PUSH1 0x0 PUSH2 0x2FDA DUP3 PUSH2 0x1A89 JUMP JUMPDEST SWAP1 POP PUSH1 0x0 DUP2 GT PUSH2 0x3014 JUMPI PUSH1 0x40 MLOAD PUSH3 0x461BCD PUSH1 0xE5 SHL DUP2 MSTORE PUSH1 0x20 PUSH1 0x4 DUP3 ADD MSTORE PUSH1 0x5 PUSH1 0x24 DUP3 ADD MSTORE PUSH5 0x6366707333 PUSH1 0xD8 SHL PUSH1 0x44 DUP3 ADD MSTORE PUSH1 0x64 ADD PUSH2 0xF5C JUMP JUMPDEST PUSH1 0x0 DUP6 PUSH2 0x3021 DUP7 DUP5 PUSH2 0x57E4 JUMP JUMPDEST PUSH2 0x302B SWAP2 SWAP1 PUSH2 0x576D JUMP JUMPDEST PUSH1 0x1 PUSH1 0x1 PUSH1 0xA0 SHL SUB DUP5 AND PUSH1 0x0 SWAP1 DUP2 MSTORE PUSH1 0x25 PUSH1 0x20 MSTORE PUSH1 0x40 DUP2 KECCAK256 DUP10 SWAP1 SSTORE SWAP1 SWAP2 POP PUSH2 0x3054 SWAP1 DUP3 SWAP1 PUSH2 0x41CC JUMP JUMPDEST PUSH1 0x1B SLOAD PUSH1 0x40 MLOAD PUSH4 0xA9059CBB PUSH1 0xE0 SHL DUP2 MSTORE PUSH1 0x1 PUSH1 0x1 PUSH1 0xA0 SHL SUB DUP6 DUP2 AND PUSH1 0x4 DUP4 ADD MSTORE PUSH1 0x24 DUP3 ADD DUP5 SWAP1 MSTORE SWAP1 SWAP2 AND SWAP1 PUSH4 0xA9059CBB SWAP1 PUSH1 0x44 ADD PUSH1 0x20 PUSH1 0x40 MLOAD DUP1 DUP4 SUB DUP2 PUSH1 0x0 DUP8 GAS CALL ISZERO DUP1 ISZERO PUSH2 0x30A7 JUMPI RETURNDATASIZE PUSH1 0x0 DUP1 RETURNDATACOPY RETURNDATASIZE PUSH1 0x0 REVERT JUMPDEST POP POP POP POP PUSH1 0x40 MLOAD RETURNDATASIZE PUSH1 0x1F NOT PUSH1 0x1F DUP3 ADD AND DUP3 ADD DUP1 PUSH1 0x40 MSTORE POP DUP2 ADD SWAP1 PUSH2 0x30CB SWAP2 SWAP1 PUSH2 0x5215 JUMP JUMPDEST PUSH2 0x30FF JUMPI PUSH1 0x40 MLOAD PUSH3 0x461BCD PUSH1 0xE5 SHL DUP2 MSTORE PUSH1 0x20 PUSH1 0x4 DUP3 ADD MSTORE PUSH1 0x5 PUSH1 0x24 DUP3 ADD MSTORE PUSH5 0x18D99C1CCD PUSH1 0xDA SHL PUSH1 0x44 DUP3 ADD MSTORE PUSH1 0x64 ADD PUSH2 0xF5C JUMP JUMPDEST POP POP POP DUP1 DUP1 PUSH2 0x310D SWAP1 PUSH2 0x5391 JUMP JUMPDEST SWAP2 POP POP PUSH2 0x2F4C JUMP JUMPDEST POP POP POP POP PUSH2 0x112F PUSH1 0x1 PUSH1 0x5 SSTORE JUMP JUMPDEST PUSH1 0x0 PUSH2 0x1B8B PUSH3 0x13C680 TIMESTAMP PUSH2 0x576D JUMP JUMPDEST PUSH1 0x60 PUSH1 0x9 DUP1 SLOAD DUP1 PUSH1 0x20 MUL PUSH1 0x20 ADD PUSH1 0x40 MLOAD SWAP1 DUP2 ADD PUSH1 0x40 MSTORE DUP1 SWAP3 SWAP2 SWAP1 DUP2 DUP2 MSTORE PUSH1 0x20 ADD PUSH1 0x0 SWAP1 JUMPDEST DUP3 DUP3 LT ISZERO PUSH2 0x2E7C JUMPI DUP4 DUP3 SWAP1 PUSH1 0x0 MSTORE PUSH1 0x20 PUSH1 0x0 KECCAK256 SWAP1 PUSH1 0xE MUL ADD PUSH1 0x40 MLOAD DUP1 PUSH2 0x1C0 ADD PUSH1 0x40 MSTORE SWAP1 DUP2 PUSH1 0x0 DUP3 ADD SLOAD DUP2 MSTORE PUSH1 0x20 ADD PUSH1 0x1 DUP3 ADD SLOAD DUP2 MSTORE PUSH1 0x20 ADD PUSH1 0x2 DUP3 ADD PUSH1 0x0 SWAP1 SLOAD SWAP1 PUSH2 0x100 EXP SWAP1 DIV PUSH1 0xFF AND PUSH1 0xD DUP2 GT ISZERO PUSH2 0x31B2 JUMPI PUSH2 0x31B2 PUSH2 0x4950 JUMP JUMPDEST PUSH1 0xD DUP2 GT ISZERO PUSH2 0x31C3 JUMPI PUSH2 0x31C3 PUSH2 0x4950 JUMP JUMPDEST DUP2 MSTORE PUSH1 0x20 ADD PUSH1 0x3 DUP3 ADD SLOAD DUP2 MSTORE PUSH1 0x20 ADD PUSH1 0x4 DUP3 ADD SLOAD DUP2 MSTORE PUSH1 0x20 ADD PUSH1 0x5 DUP3 ADD DUP1 SLOAD DUP1 PUSH1 0x20 MUL PUSH1 0x20 ADD PUSH1 0x40 MLOAD SWAP1 DUP2 ADD PUSH1 0x40 MSTORE DUP1 SWAP3 SWAP2 SWAP1 DUP2 DUP2 MSTORE PUSH1 0x20 ADD DUP3 DUP1 SLOAD DUP1 ISZERO PUSH2 0x322A JUMPI PUSH1 0x20 MUL DUP3 ADD SWAP2 SWAP1 PUSH1 0x0 MSTORE PUSH1 0x20 PUSH1 0x0 KECCAK256 SWAP1 JUMPDEST DUP2 SLOAD DUP2 MSTORE PUSH1 0x20 ADD SWAP1 PUSH1 0x1 ADD SWAP1 DUP1 DUP4 GT PUSH2 0x3216 JUMPI JUMPDEST POP POP POP POP POP DUP2 MSTORE PUSH1 0x20 ADD PUSH1 0x6 DUP3 ADD DUP1 SLOAD PUSH2 0x3243 SWAP1 PUSH2 0x517B JUMP JUMPDEST DUP1 PUSH1 0x1F ADD PUSH1 0x20 DUP1 SWAP2 DIV MUL PUSH1 0x20 ADD PUSH1 0x40 MLOAD SWAP1 DUP2 ADD PUSH1 0x40 MSTORE DUP1 SWAP3 SWAP2 SWAP1 DUP2 DUP2 MSTORE PUSH1 0x20 ADD DUP3 DUP1 SLOAD PUSH2 0x326F SWAP1 PUSH2 0x517B JUMP JUMPDEST DUP1 ISZERO PUSH2 0x32BC JUMPI DUP1 PUSH1 0x1F LT PUSH2 0x3291 JUMPI PUSH2 0x100 DUP1 DUP4 SLOAD DIV MUL DUP4 MSTORE SWAP2 PUSH1 0x20 ADD SWAP2 PUSH2 0x32BC JUMP JUMPDEST DUP3 ADD SWAP2 SWAP1 PUSH1 0x0 MSTORE PUSH1 0x20 PUSH1 0x0 KECCAK256 SWAP1 JUMPDEST DUP2 SLOAD DUP2 MSTORE SWAP1 PUSH1 0x1 ADD SWAP1 PUSH1 0x20 ADD DUP1 DUP4 GT PUSH2 0x329F JUMPI DUP3 SWAP1 SUB PUSH1 0x1F AND DUP3 ADD SWAP2 JUMPDEST POP POP POP POP POP DUP2 MSTORE PUSH1 0x20 ADD PUSH1 0x7 DUP3 ADD DUP1 SLOAD PUSH2 0x32D5 SWAP1 PUSH2 0x517B JUMP JUMPDEST DUP1 PUSH1 0x1F ADD PUSH1 0x20 DUP1 SWAP2 DIV MUL PUSH1 0x20 ADD PUSH1 0x40 MLOAD SWAP1 DUP2 ADD PUSH1 0x40 MSTORE DUP1 SWAP3 SWAP2 SWAP1 DUP2 DUP2 MSTORE PUSH1 0x20 ADD DUP3 DUP1 SLOAD PUSH2 0x3301 SWAP1 PUSH2 0x517B JUMP JUMPDEST DUP1 ISZERO PUSH2 0x334E JUMPI DUP1 PUSH1 0x1F LT PUSH2 0x3323 JUMPI PUSH2 0x100 DUP1 DUP4 SLOAD DIV MUL DUP4 MSTORE SWAP2 PUSH1 0x20 ADD SWAP2 PUSH2 0x334E JUMP JUMPDEST DUP3 ADD SWAP2 SWAP1 PUSH1 0x0 MSTORE PUSH1 0x20 PUSH1 0x0 KECCAK256 SWAP1 JUMPDEST DUP2 SLOAD DUP2 MSTORE SWAP1 PUSH1 0x1 ADD SWAP1 PUSH1 0x20 ADD DUP1 DUP4 GT PUSH2 0x3331 JUMPI DUP3 SWAP1 SUB PUSH1 0x1F AND DUP3 ADD SWAP2 JUMPDEST POP POP POP SWAP2 DUP4 MSTORE POP POP PUSH1 0x8 DUP3 ADD SLOAD PUSH1 0xFF AND ISZERO ISZERO PUSH1 0x20 DUP3 ADD MSTORE PUSH1 0x9 DUP3 ADD DUP1 SLOAD PUSH1 0x40 SWAP1 SWAP3 ADD SWAP2 PUSH2 0x337A SWAP1 PUSH2 0x517B JUMP JUMPDEST DUP1 PUSH1 0x1F ADD PUSH1 0x20 DUP1 SWAP2 DIV MUL PUSH1 0x20 ADD PUSH1 0x40 MLOAD SWAP1 DUP2 ADD PUSH1 0x40 MSTORE DUP1 SWAP3 SWAP2 SWAP1 DUP2 DUP2 MSTORE PUSH1 0x20 ADD DUP3 DUP1 SLOAD PUSH2 0x33A6 SWAP1 PUSH2 0x517B JUMP JUMPDEST DUP1 ISZERO PUSH2 0x33F3 JUMPI DUP1 PUSH1 0x1F LT PUSH2 0x33C8 JUMPI PUSH2 0x100 DUP1 DUP4 SLOAD DIV MUL DUP4 MSTORE SWAP2 PUSH1 0x20 ADD SWAP2 PUSH2 0x33F3 JUMP JUMPDEST DUP3 ADD SWAP2 SWAP1 PUSH1 0x0 MSTORE PUSH1 0x20 PUSH1 0x0 KECCAK256 SWAP1 JUMPDEST DUP2 SLOAD DUP2 MSTORE SWAP1 PUSH1 0x1 ADD SWAP1 PUSH1 0x20 ADD DUP1 DUP4 GT PUSH2 0x33D6 JUMPI DUP3 SWAP1 SUB PUSH1 0x1F AND DUP3 ADD SWAP2 JUMPDEST POP POP POP POP POP DUP2 MSTORE PUSH1 0x20 ADD PUSH1 0xA DUP3 ADD SLOAD DUP2 MSTORE PUSH1 0x20 ADD PUSH1 0xB DUP3 ADD SLOAD DUP2 MSTORE PUSH1 0x20 ADD PUSH1 0xC DUP3 ADD DUP1 SLOAD DUP1 PUSH1 0x20 MUL PUSH1 0x20 ADD PUSH1 0x40 MLOAD SWAP1 DUP2 ADD PUSH1 0x40 MSTORE DUP1 SWAP3 SWAP2 SWAP1 DUP2 DUP2 MSTORE PUSH1 0x20 ADD DUP3 DUP1 SLOAD DUP1 ISZERO PUSH2 0x345F JUMPI PUSH1 0x20 MUL DUP3 ADD SWAP2 SWAP1 PUSH1 0x0 MSTORE PUSH1 0x20 PUSH1 0x0 KECCAK256 SWAP1 JUMPDEST DUP2 SLOAD DUP2 MSTORE PUSH1 0x20 ADD SWAP1 PUSH1 0x1 ADD SWAP1 DUP1 DUP4 GT PUSH2 0x344B JUMPI JUMPDEST POP POP POP POP POP DUP2 MSTORE PUSH1 0x20 ADD PUSH1 0xD DUP3 ADD SLOAD DUP2 MSTORE POP POP DUP2 MSTORE PUSH1 0x20 ADD SWAP1 PUSH1 0x1 ADD SWAP1 PUSH2 0x3156 JUMP JUMPDEST PUSH1 0x60 PUSH1 0x13 DUP1 SLOAD DUP1 PUSH1 0x20 MUL PUSH1 0x20 ADD PUSH1 0x40 MLOAD SWAP1 DUP2 ADD PUSH1 0x40 MSTORE DUP1 SWAP3 SWAP2 SWAP1 DUP2 DUP2 MSTORE PUSH1 0x20 ADD PUSH1 0x0 SWAP1 JUMPDEST DUP3 DUP3 LT ISZERO PUSH2 0x2E7C JUMPI PUSH1 0x0 DUP5 DUP2 MSTORE PUSH1 0x20 SWAP1 DUP2 SWAP1 KECCAK256 PUSH1 0x40 DUP1 MLOAD DUP1 DUP3 ADD SWAP1 SWAP2 MSTORE PUSH1 0x2 DUP6 MUL SWAP1 SWAP2 ADD DUP1 SLOAD DUP3 MSTORE PUSH1 0x1 SWAP1 DUP2 ADD SLOAD PUSH1 0x1 PUSH1 0x1 PUSH1 0xA0 SHL SUB AND DUP3 DUP5 ADD MSTORE SWAP1 DUP4 MSTORE SWAP1 SWAP3 ADD SWAP2 ADD PUSH2 0x34A5 JUMP JUMPDEST PUSH2 0x34F6 CALLER PUSH2 0x425D JUMP JUMPDEST JUMP JUMPDEST PUSH1 0x1E SLOAD PUSH1 0x1 PUSH1 0x1 PUSH1 0xA0 SHL SUB AND CALLER EQ DUP1 PUSH2 0x351B JUMPI POP PUSH1 0x1F SLOAD PUSH1 0x1 PUSH1 0x1 PUSH1 0xA0 SHL SUB AND CALLER EQ JUMPDEST PUSH2 0x3524 JUMPI PUSH1 0x0 DUP1 REVERT JUMPDEST PUSH1 0x0 JUMPDEST DUP2 DUP2 LT ISZERO PUSH2 0x1275 JUMPI PUSH1 0x1A DUP4 DUP4 DUP4 DUP2 DUP2 LT PUSH2 0x3543 JUMPI PUSH2 0x3543 PUSH2 0x51F1 JUMP JUMPDEST SWAP1 POP PUSH1 0x20 MUL DUP2 ADD SWAP1 PUSH2 0x3555 SWAP2 SWAP1 PUSH2 0x5898 JUMP JUMPDEST DUP3 SLOAD PUSH1 0x1 DUP2 ADD DUP5 SSTORE PUSH1 0x0 SWAP4 DUP5 MSTORE PUSH1 0x20 SWAP1 SWAP4 KECCAK256 SWAP1 SWAP3 ADD SWAP2 PUSH2 0x3575 SWAP2 DUP4 PUSH2 0x5933 JUMP JUMPDEST POP PUSH1 0x1A SLOAD PUSH32 0x8581E03117D96AD4B36D978F525BFE879526D97FFB59CECF67EB24A801E03CF SWAP1 DUP5 DUP5 DUP5 DUP2 DUP2 LT PUSH2 0x35AD JUMPI PUSH2 0x35AD PUSH2 0x51F1 JUMP JUMPDEST SWAP1 POP PUSH1 0x20 MUL DUP2 ADD SWAP1 PUSH2 0x35BF SWAP2 SWAP1 PUSH2 0x5898 JUMP JUMPDEST PUSH1 0x40 MLOAD PUSH2 0x35CE SWAP4 SWAP3 SWAP2 SWAP1 PUSH2 0x5D3F JUMP JUMPDEST PUSH1 0x40 MLOAD DUP1 SWAP2 SUB SWAP1 LOG1 DUP1 PUSH2 0x35E0 DUP2 PUSH2 0x5391 JUMP JUMPDEST SWAP2 POP POP PUSH2 0x3527 JUMP JUMPDEST PUSH1 0x1 PUSH1 0x1 PUSH1 0xA0 SHL SUB SWAP2 DUP3 AND PUSH1 0x0 SWAP1 DUP2 MSTORE PUSH1 0x1 PUSH1 0x20 SWAP1 DUP2 MSTORE PUSH1 0x40 DUP1 DUP4 KECCAK256 SWAP4 SWAP1 SWAP5 AND DUP3 MSTORE SWAP2 SWAP1 SWAP2 MSTORE KECCAK256 SLOAD SWAP1 JUMP JUMPDEST PUSH1 0x1 PUSH1 0x1 PUSH1 0xA0 SHL SUB DUP2 AND PUSH2 0x3651 JUMPI PUSH1 0x40 MLOAD PUSH3 0x461BCD PUSH1 0xE5 SHL DUP2 MSTORE PUSH1 0x20 PUSH1 0x4 DUP3 ADD MSTORE PUSH1 0x5 PUSH1 0x24 DUP3 ADD MSTORE PUSH5 0x736176203 PUSH1 0xDC SHL PUSH1 0x44 DUP3 ADD MSTORE PUSH1 0x64 ADD PUSH2 0xF5C JUMP JUMPDEST CALLER PUSH1 0x0 SWAP1 DUP2 MSTORE PUSH1 0x20 DUP2 SWAP1 MSTORE PUSH1 0x40 SWAP1 KECCAK256 SLOAD DUP1 PUSH2 0x3696 JUMPI PUSH1 0x40 MLOAD PUSH3 0x461BCD PUSH1 0xE5 SHL DUP2 MSTORE PUSH1 0x20 PUSH1 0x4 DUP3 ADD MSTORE PUSH1 0x5 PUSH1 0x24 DUP3 ADD MSTORE PUSH5 0x7361762031 PUSH1 0xD8 SHL PUSH1 0x44 DUP3 ADD MSTORE PUSH1 0x64 ADD PUSH2 0xF5C JUMP JUMPDEST CALLER PUSH1 0x0 SWAP1 DUP2 MSTORE PUSH1 0x12 PUSH1 0x20 MSTORE PUSH1 0x40 SWAP1 KECCAK256 DUP1 SLOAD ISZERO PUSH2 0x36B5 JUMPI PUSH2 0x36B5 CALLER PUSH2 0x4357 JUMP JUMPDEST PUSH1 0x40 MLOAD DUP1 PUSH1 0x80 ADD PUSH1 0x40 MSTORE DUP1 DUP4 DUP2 MSTORE PUSH1 0x20 ADD DUP5 PUSH1 0x1 PUSH1 0x1 PUSH1 0xA0 SHL SUB AND DUP2 MSTORE PUSH1 0x20 ADD PUSH2 0x36DD PUSH2 0x3123 JUMP JUMPDEST DUP2 MSTORE PUSH1 0x0 PUSH1 0x20 SWAP2 DUP3 ADD DUP2 SWAP1 MSTORE CALLER DUP2 MSTORE PUSH1 0x12 DUP3 MSTORE PUSH1 0x40 SWAP1 DUP2 SWAP1 KECCAK256 DUP4 MLOAD DUP2 SSTORE SWAP2 DUP4 ADD MLOAD PUSH1 0x1 DUP4 ADD DUP1 SLOAD PUSH1 0x1 PUSH1 0x1 PUSH1 0xA0 SHL SUB NOT AND PUSH1 0x1 PUSH1 0x1 PUSH1 0xA0 SHL SUB SWAP1 SWAP3 AND SWAP2 SWAP1 SWAP2 OR SWAP1 SSTORE DUP3 DUP2 ADD MLOAD PUSH1 0x2 DUP4 ADD SSTORE PUSH1 0x60 SWAP1 SWAP3 ADD MLOAD PUSH1 0x3 DUP3 ADD DUP1 SLOAD PUSH1 0xFF NOT AND SWAP2 ISZERO ISZERO SWAP2 SWAP1 SWAP2 OR SWAP1 SSTORE SWAP1 MLOAD PUSH32 0xE08472D1275FEFBB15FF0AEA278BB1F42C491BE3FA4358160826BA7E420AE613 SWAP2 PUSH2 0x376E SWAP2 PUSH2 0x5D06 JUMP JUMPDEST PUSH1 0x40 MLOAD DUP1 SWAP2 SUB SWAP1 LOG1 POP POP POP JUMP JUMPDEST PUSH2 0x34F6 CALLER PUSH2 0x4357 JUMP JUMPDEST CALLER PUSH1 0x0 SWAP1 DUP2 MSTORE PUSH1 0x8 PUSH1 0x20 SWAP1 DUP2 MSTORE PUSH1 0x40 DUP1 DUP4 KECCAK256 SLOAD DUP4 MSTORE PUSH1 0x7 SWAP1 SWAP2 MSTORE SWAP1 KECCAK256 PUSH1 0x1 DUP2 ADD SLOAD PUSH1 0x1 PUSH1 0x1 PUSH1 0xA0 SHL SUB AND PUSH2 0x37B7 JUMPI PUSH1 0x0 DUP1 REVERT JUMPDEST PUSH1 0x0 PUSH1 0x9 PUSH2 0x37C6 PUSH1 0x1 DUP7 PUSH2 0x51DE JUMP JUMPDEST DUP2 SLOAD DUP2 LT PUSH2 0x37D6 JUMPI PUSH2 0x37D6 PUSH2 0x51F1 JUMP JUMPDEST SWAP1 PUSH1 0x0 MSTORE PUSH1 0x20 PUSH1 0x0 KECCAK256 SWAP1 PUSH1 0xE MUL ADD SWAP1 POP PUSH1 0x0 DUP2 PUSH1 0x0 ADD SLOAD GT PUSH2 0x37F7 JUMPI PUSH1 0x0 DUP1 REVERT JUMPDEST DUP2 SLOAD PUSH1 0x1 DUP3 ADD SLOAD EQ PUSH2 0x3808 JUMPI PUSH1 0x0 DUP1 REVERT JUMPDEST PUSH2 0x1A23 DUP2 DUP5 PUSH2 0x418B JUMP JUMPDEST PUSH1 0x13 DUP2 DUP2 SLOAD DUP2 LT PUSH2 0x3822 JUMPI PUSH1 0x0 DUP1 REVERT JUMPDEST PUSH1 0x0 SWAP2 DUP3 MSTORE PUSH1 0x20 SWAP1 SWAP2 KECCAK256 PUSH1 0x2 SWAP1 SWAP2 MUL ADD DUP1 SLOAD PUSH1 0x1 SWAP1 SWAP2 ADD SLOAD SWAP1 SWAP2 POP PUSH1 0x1 PUSH1 0x1 PUSH1 0xA0 SHL SUB AND DUP3 JUMP JUMPDEST PUSH1 0x9 DUP2 DUP2 SLOAD DUP2 LT PUSH2 0x3859 JUMPI PUSH1 0x0 DUP1 REVERT JUMPDEST PUSH1 0x0 SWAP2 DUP3 MSTORE PUSH1 0x20 SWAP1 SWAP2 KECCAK256 PUSH1 0xE SWAP1 SWAP2 MUL ADD DUP1 SLOAD PUSH1 0x1 DUP3 ADD SLOAD PUSH1 0x2 DUP4 ADD SLOAD PUSH1 0x3 DUP5 ADD SLOAD PUSH1 0x4 DUP6 ADD SLOAD PUSH1 0x6 DUP7 ADD DUP1 SLOAD SWAP6 SWAP8 POP SWAP4 SWAP6 PUSH1 0xFF SWAP1 SWAP4 AND SWAP5 SWAP2 SWAP4 SWAP1 SWAP3 SWAP2 PUSH2 0x389E SWAP1 PUSH2 0x517B JUMP JUMPDEST DUP1 PUSH1 0x1F ADD PUSH1 0x20 DUP1 SWAP2 DIV MUL PUSH1 0x20 ADD PUSH1 0x40 MLOAD SWAP1 DUP2 ADD PUSH1 0x40 MSTORE DUP1 SWAP3 SWAP2 SWAP1 DUP2 DUP2 MSTORE PUSH1 0x20 ADD DUP3 DUP1 SLOAD PUSH2 0x38CA SWAP1 PUSH2 0x517B JUMP JUMPDEST DUP1 ISZERO PUSH2 0x3917 JUMPI DUP1 PUSH1 0x1F LT PUSH2 0x38EC JUMPI PUSH2 0x100 DUP1 DUP4 SLOAD DIV MUL DUP4 MSTORE SWAP2 PUSH1 0x20 ADD SWAP2 PUSH2 0x3917 JUMP JUMPDEST DUP3 ADD SWAP2 SWAP1 PUSH1 0x0 MSTORE PUSH1 0x20 PUSH1 0x0 KECCAK256 SWAP1 JUMPDEST DUP2 SLOAD DUP2 MSTORE SWAP1 PUSH1 0x1 ADD SWAP1 PUSH1 0x20 ADD DUP1 DUP4 GT PUSH2 0x38FA JUMPI DUP3 SWAP1 SUB PUSH1 0x1F AND DUP3 ADD SWAP2 JUMPDEST POP POP POP POP POP SWAP1 DUP1 PUSH1 0x7 ADD DUP1 SLOAD PUSH2 0x392C SWAP1 PUSH2 0x517B JUMP JUMPDEST DUP1 PUSH1 0x1F ADD PUSH1 0x20 DUP1 SWAP2 DIV MUL PUSH1 0x20 ADD PUSH1 0x40 MLOAD SWAP1 DUP2 ADD PUSH1 0x40 MSTORE DUP1 SWAP3 SWAP2 SWAP1 DUP2 DUP2 MSTORE PUSH1 0x20 ADD DUP3 DUP1 SLOAD PUSH2 0x3958 SWAP1 PUSH2 0x517B JUMP JUMPDEST DUP1 ISZERO PUSH2 0x39A5 JUMPI DUP1 PUSH1 0x1F LT PUSH2 0x397A JUMPI PUSH2 0x100 DUP1 DUP4 SLOAD DIV MUL DUP4 MSTORE SWAP2 PUSH1 0x20 ADD SWAP2 PUSH2 0x39A5 JUMP JUMPDEST DUP3 ADD SWAP2 SWAP1 PUSH1 0x0 MSTORE PUSH1 0x20 PUSH1 0x0 KECCAK256 SWAP1 JUMPDEST DUP2 SLOAD DUP2 MSTORE SWAP1 PUSH1 0x1 ADD SWAP1 PUSH1 0x20 ADD DUP1 DUP4 GT PUSH2 0x3988 JUMPI DUP3 SWAP1 SUB PUSH1 0x1F AND DUP3 ADD SWAP2 JUMPDEST POP POP POP PUSH1 0x8 DUP5 ADD SLOAD PUSH1 0x9 DUP6 ADD DUP1 SLOAD SWAP5 SWAP6 PUSH1 0xFF SWAP1 SWAP3 AND SWAP5 SWAP2 SWAP4 POP SWAP2 POP PUSH2 0x39C9 SWAP1 PUSH2 0x517B JUMP JUMPDEST DUP1 PUSH1 0x1F ADD PUSH1 0x20 DUP1 SWAP2 DIV MUL PUSH1 0x20 ADD PUSH1 0x40 MLOAD SWAP1 DUP2 ADD PUSH1 0x40 MSTORE DUP1 SWAP3 SWAP2 SWAP1 DUP2 DUP2 MSTORE PUSH1 0x20 ADD DUP3 DUP1 SLOAD PUSH2 0x39F5 SWAP1 PUSH2 0x517B JUMP JUMPDEST DUP1 ISZERO PUSH2 0x3A42 JUMPI DUP1 PUSH1 0x1F LT PUSH2 0x3A17 JUMPI PUSH2 0x100 DUP1 DUP4 SLOAD DIV MUL DUP4 MSTORE SWAP2 PUSH1 0x20 ADD SWAP2 PUSH2 0x3A42 JUMP JUMPDEST DUP3 ADD SWAP2 SWAP1 PUSH1 0x0 MSTORE PUSH1 0x20 PUSH1 0x0 KECCAK256 SWAP1 JUMPDEST DUP2 SLOAD DUP2 MSTORE SWAP1 PUSH1 0x1 ADD SWAP1 PUSH1 0x20 ADD DUP1 DUP4 GT PUSH2 0x3A25 JUMPI DUP3 SWAP1 SUB PUSH1 0x1F AND DUP3 ADD SWAP2 JUMPDEST POP POP POP POP POP SWAP1 DUP1 PUSH1 0xA ADD SLOAD SWAP1 DUP1 PUSH1 0xB ADD SLOAD SWAP1 DUP1 PUSH1 0xD ADD SLOAD SWAP1 POP DUP13 JUMP JUMPDEST PUSH1 0x60 PUSH1 0x1A DUP1 SLOAD DUP1 PUSH1 0x20 MUL PUSH1 0x20 ADD PUSH1 0x40 MLOAD SWAP1 DUP2 ADD PUSH1 0x40 MSTORE DUP1 SWAP3 SWAP2 SWAP1 DUP2 DUP2 MSTORE PUSH1 0x20 ADD PUSH1 0x0 SWAP1 JUMPDEST DUP3 DUP3 LT ISZERO PUSH2 0x2E7C JUMPI DUP4 DUP3 SWAP1 PUSH1 0x0 MSTORE PUSH1 0x20 PUSH1 0x0 KECCAK256 ADD DUP1 SLOAD PUSH2 0x3AA1 SWAP1 PUSH2 0x517B JUMP JUMPDEST DUP1 PUSH1 0x1F ADD PUSH1 0x20 DUP1 SWAP2 DIV MUL PUSH1 0x20 ADD PUSH1 0x40 MLOAD SWAP1 DUP2 ADD PUSH1 0x40 MSTORE DUP1 SWAP3 SWAP2 SWAP1 DUP2 DUP2 MSTORE PUSH1 0x20 ADD DUP3 DUP1 SLOAD PUSH2 0x3ACD SWAP1 PUSH2 0x517B JUMP JUMPDEST DUP1 ISZERO PUSH2 0x3B1A JUMPI DUP1 PUSH1 0x1F LT PUSH2 0x3AEF JUMPI PUSH2 0x100 DUP1 DUP4 SLOAD DIV MUL DUP4 MSTORE SWAP2 PUSH1 0x20 ADD SWAP2 PUSH2 0x3B1A JUMP JUMPDEST DUP3 ADD SWAP2 SWAP1 PUSH1 0x0 MSTORE PUSH1 0x20 PUSH1 0x0 KECCAK256 SWAP1 JUMPDEST DUP2 SLOAD DUP2 MSTORE SWAP1 PUSH1 0x1 ADD SWAP1 PUSH1 0x20 ADD DUP1 DUP4 GT PUSH2 0x3AFD JUMPI DUP3 SWAP1 SUB PUSH1 0x1F AND DUP3 ADD SWAP2 JUMPDEST POP POP POP POP POP DUP2 MSTORE PUSH1 0x20 ADD SWAP1 PUSH1 0x1 ADD SWAP1 PUSH2 0x3A82 JUMP JUMPDEST PUSH1 0x1 PUSH1 0x1 PUSH1 0xA0 SHL SUB DUP4 AND PUSH2 0x3B90 JUMPI PUSH1 0x40 MLOAD PUSH3 0x461BCD PUSH1 0xE5 SHL DUP2 MSTORE PUSH1 0x20 PUSH1 0x4 DUP3 ADD MSTORE PUSH1 0x24 DUP1 DUP3 ADD MSTORE PUSH32 0x45524332303A20617070726F76652066726F6D20746865207A65726F20616464 PUSH1 0x44 DUP3 ADD MSTORE PUSH4 0x72657373 PUSH1 0xE0 SHL PUSH1 0x64 DUP3 ADD MSTORE PUSH1 0x84 ADD PUSH2 0xF5C JUMP JUMPDEST PUSH1 0x1 PUSH1 0x1 PUSH1 0xA0 SHL SUB DUP3 AND PUSH2 0x3BF1 JUMPI PUSH1 0x40 MLOAD PUSH3 0x461BCD PUSH1 0xE5 SHL DUP2 MSTORE PUSH1 0x20 PUSH1 0x4 DUP3 ADD MSTORE PUSH1 0x22 PUSH1 0x24 DUP3 ADD MSTORE PUSH32 0x45524332303A20617070726F766520746F20746865207A65726F206164647265 PUSH1 0x44 DUP3 ADD MSTORE PUSH2 0x7373 PUSH1 0xF0 SHL PUSH1 0x64 DUP3 ADD MSTORE PUSH1 0x84 ADD PUSH2 0xF5C JUMP JUMPDEST PUSH1 0x1 PUSH1 0x1 PUSH1 0xA0 SHL SUB DUP4 DUP2 AND PUSH1 0x0 DUP2 DUP2 MSTORE PUSH1 0x1 PUSH1 0x20 SWAP1 DUP2 MSTORE PUSH1 0x40 DUP1 DUP4 KECCAK256 SWAP5 DUP8 AND DUP1 DUP5 MSTORE SWAP5 DUP3 MSTORE SWAP2 DUP3 SWAP1 KECCAK256 DUP6 SWAP1 SSTORE SWAP1 MLOAD DUP5 DUP2 MSTORE PUSH32 0x8C5BE1E5EBEC7D5BD14F71427D1E84F3DD0314C0F7B2291E5B200AC8C7C3B925 SWAP2 ADD PUSH1 0x40 MLOAD DUP1 SWAP2 SUB SWAP1 LOG3 POP POP POP JUMP JUMPDEST PUSH1 0x0 PUSH2 0x3C5E DUP5 DUP5 PUSH2 0x35E8 JUMP JUMPDEST SWAP1 POP PUSH1 0x0 NOT DUP2 EQ PUSH2 0x1A23 JUMPI DUP2 DUP2 LT ISZERO PUSH2 0x3CB9 JUMPI PUSH1 0x40 MLOAD PUSH3 0x461BCD PUSH1 0xE5 SHL DUP2 MSTORE PUSH1 0x20 PUSH1 0x4 DUP3 ADD MSTORE PUSH1 0x1D PUSH1 0x24 DUP3 ADD MSTORE PUSH32 0x45524332303A20696E73756666696369656E7420616C6C6F77616E6365000000 PUSH1 0x44 DUP3 ADD MSTORE PUSH1 0x64 ADD PUSH2 0xF5C JUMP JUMPDEST PUSH2 0x1A23 DUP5 DUP5 DUP5 DUP5 SUB PUSH2 0x3B2E JUMP JUMPDEST PUSH1 0x1 PUSH1 0x1 PUSH1 0xA0 SHL SUB DUP4 AND PUSH2 0x3D2A JUMPI PUSH1 0x40 MLOAD PUSH3 0x461BCD PUSH1 0xE5 SHL DUP2 MSTORE PUSH1 0x20 PUSH1 0x4 DUP3 ADD MSTORE PUSH1 0x25 PUSH1 0x24 DUP3 ADD MSTORE PUSH32 0x45524332303A207472616E736665722066726F6D20746865207A65726F206164 PUSH1 0x44 DUP3 ADD MSTORE PUSH5 0x6472657373 PUSH1 0xD8 SHL PUSH1 0x64 DUP3 ADD MSTORE PUSH1 0x84 ADD PUSH2 0xF5C JUMP JUMPDEST PUSH1 0x1 PUSH1 0x1 PUSH1 0xA0 SHL SUB DUP3 AND PUSH2 0x3D8C JUMPI PUSH1 0x40 MLOAD PUSH3 0x461BCD PUSH1 0xE5 SHL DUP2 MSTORE PUSH1 0x20 PUSH1 0x4 DUP3 ADD MSTORE PUSH1 0x23 PUSH1 0x24 DUP3 ADD MSTORE PUSH32 0x45524332303A207472616E7366657220746F20746865207A65726F2061646472 PUSH1 0x44 DUP3 ADD MSTORE PUSH3 0x657373 PUSH1 0xE8 SHL PUSH1 0x64 DUP3 ADD MSTORE PUSH1 0x84 ADD PUSH2 0xF5C JUMP JUMPDEST PUSH2 0x3D97 DUP4 DUP4 DUP4 PUSH2 0x447B JUMP JUMPDEST PUSH1 0x1 PUSH1 0x1 PUSH1 0xA0 SHL SUB DUP4 AND PUSH1 0x0 SWAP1 DUP2 MSTORE PUSH1 0x20 DUP2 SWAP1 MSTORE PUSH1 0x40 SWAP1 KECCAK256 SLOAD DUP2 DUP2 LT ISZERO PUSH2 0x3E0F JUMPI PUSH1 0x40 MLOAD PUSH3 0x461BCD PUSH1 0xE5 SHL DUP2 MSTORE PUSH1 0x20 PUSH1 0x4 DUP3 ADD MSTORE PUSH1 0x26 PUSH1 0x24 DUP3 ADD MSTORE PUSH32 0x45524332303A207472616E7366657220616D6F756E7420657863656564732062 PUSH1 0x44 DUP3 ADD MSTORE PUSH6 0x616C616E6365 PUSH1 0xD0 SHL PUSH1 0x64 DUP3 ADD MSTORE PUSH1 0x84 ADD PUSH2 0xF5C JUMP JUMPDEST PUSH1 0x1 PUSH1 0x1 PUSH1 0xA0 SHL SUB DUP5 DUP2 AND PUSH1 0x0 DUP2 DUP2 MSTORE PUSH1 0x20 DUP2 DUP2 MSTORE PUSH1 0x40 DUP1 DUP4 KECCAK256 DUP8 DUP8 SUB SWAP1 SSTORE SWAP4 DUP8 AND DUP1 DUP4 MSTORE SWAP2 DUP5 SWAP1 KECCAK256 DUP1 SLOAD DUP8 ADD SWAP1 SSTORE SWAP3 MLOAD DUP6 DUP2 MSTORE SWAP1 SWAP3 PUSH32 0xDDF252AD1BE2C89B69C2B068FC378DAA952BA7F163C4A11628F55A4DF523B3EF SWAP2 ADD PUSH1 0x40 MLOAD DUP1 SWAP2 SUB SWAP1 LOG3 PUSH2 0x1A23 JUMP JUMPDEST PUSH1 0x2 PUSH1 0x5 SLOAD SUB PUSH2 0x3EC7 JUMPI PUSH1 0x40 MLOAD PUSH3 0x461BCD PUSH1 0xE5 SHL DUP2 MSTORE PUSH1 0x20 PUSH1 0x4 DUP3 ADD MSTORE PUSH1 0x1F PUSH1 0x24 DUP3 ADD MSTORE PUSH32 0x5265656E7472616E637947756172643A207265656E7472616E742063616C6C00 PUSH1 0x44 DUP3 ADD MSTORE PUSH1 0x64 ADD PUSH2 0xF5C JUMP JUMPDEST PUSH1 0x2 PUSH1 0x5 SSTORE JUMP JUMPDEST PUSH1 0x0 DUP2 DUP2 MSTORE PUSH1 0x7 PUSH1 0x20 MSTORE PUSH1 0x40 DUP2 KECCAK256 SLOAD SWAP1 SUB PUSH2 0x3F26 JUMPI PUSH1 0x0 DUP2 DUP2 MSTORE PUSH1 0x7 PUSH1 0x20 MSTORE PUSH1 0x40 DUP2 KECCAK256 DUP3 SWAP1 SSTORE PUSH1 0x6 DUP1 SLOAD PUSH1 0x1 DUP2 ADD DUP3 SSTORE SWAP2 MSTORE PUSH32 0xF652222313E28459528D920B65115C16C04F3EFC82AAEDC97BE59F3F377C0D3F ADD DUP2 SWAP1 SSTORE JUMPDEST POP JUMP JUMPDEST DUP1 PUSH1 0x24 PUSH1 0x0 PUSH2 0x3F36 PUSH2 0x3123 JUMP JUMPDEST DUP2 MSTORE PUSH1 0x20 ADD SWAP1 DUP2 MSTORE PUSH1 0x20 ADD PUSH1 0x0 KECCAK256 PUSH1 0x0 DUP3 DUP3 SLOAD PUSH2 0x3F53 SWAP2 SWAP1 PUSH2 0x51CB JUMP JUMPDEST SWAP1 SWAP2 SSTORE POP PUSH2 0x112F SWAP1 POP DUP3 DUP3 PUSH2 0x4596 JUMP JUMPDEST PUSH1 0x0 DUP2 PUSH1 0x60 ADD MLOAD GT PUSH2 0x3F74 JUMPI PUSH1 0x0 DUP1 REVERT JUMPDEST PUSH1 0x0 DUP2 PUSH1 0xA0 ADD MLOAD MLOAD GT PUSH2 0x3F86 JUMPI PUSH1 0x0 DUP1 REVERT JUMPDEST PUSH1 0x1B SLOAD PUSH1 0x60 DUP3 ADD MLOAD PUSH1 0x40 MLOAD PUSH4 0x23B872DD PUSH1 0xE0 SHL DUP2 MSTORE CALLER PUSH1 0x4 DUP3 ADD MSTORE ADDRESS PUSH1 0x24 DUP3 ADD MSTORE PUSH1 0x44 DUP2 ADD SWAP2 SWAP1 SWAP2 MSTORE PUSH1 0x1 PUSH1 0x1 PUSH1 0xA0 SHL SUB SWAP1 SWAP2 AND SWAP1 PUSH4 0x23B872DD SWAP1 PUSH1 0x64 ADD PUSH1 0x20 PUSH1 0x40 MLOAD DUP1 DUP4 SUB DUP2 PUSH1 0x0 DUP8 GAS CALL ISZERO DUP1 ISZERO PUSH2 0x3FE3 JUMPI RETURNDATASIZE PUSH1 0x0 DUP1 RETURNDATACOPY RETURNDATASIZE PUSH1 0x0 REVERT JUMPDEST POP POP POP POP PUSH1 0x40 MLOAD RETURNDATASIZE PUSH1 0x1F NOT PUSH1 0x1F DUP3 ADD AND DUP3 ADD DUP1 PUSH1 0x40 MSTORE POP DUP2 ADD SWAP1 PUSH2 0x4007 SWAP2 SWAP1 PUSH2 0x5215 JUMP JUMPDEST PUSH2 0x4010 JUMPI PUSH1 0x0 DUP1 REVERT JUMPDEST PUSH1 0xA DUP1 SLOAD PUSH1 0x1 DUP2 DUP2 ADD DUP4 SSTORE PUSH1 0x0 DUP4 SWAP1 MSTORE DUP4 MLOAD SWAP2 SWAP1 SWAP3 MUL PUSH32 0xC65A7BB8D6351C1CF70C95A316CC6A92839C986682D98BC35F958F4883F9D2A8 DUP2 ADD SWAP2 DUP3 SSTORE PUSH1 0x20 DUP5 ADD MLOAD PUSH32 0xC65A7BB8D6351C1CF70C95A316CC6A92839C986682D98BC35F958F4883F9D2A9 DUP3 ADD SSTORE PUSH1 0x40 DUP5 ADD MLOAD PUSH32 0xC65A7BB8D6351C1CF70C95A316CC6A92839C986682D98BC35F958F4883F9D2AA SWAP1 SWAP2 ADD DUP1 SLOAD DUP6 SWAP5 PUSH1 0xFF NOT SWAP1 SWAP2 AND SWAP1 DUP4 PUSH1 0xD DUP2 GT ISZERO PUSH2 0x40BB JUMPI PUSH2 0x40BB PUSH2 0x4950 JUMP JUMPDEST MUL OR SWAP1 SSTORE POP PUSH1 0x60 DUP3 ADD MLOAD PUSH1 0x3 DUP3 ADD SSTORE PUSH1 0x80 DUP3 ADD MLOAD PUSH1 0x4 DUP3 ADD SSTORE PUSH1 0xA0 DUP3 ADD MLOAD PUSH1 0x5 DUP3 ADD SWAP1 PUSH2 0x40E8 SWAP1 DUP3 PUSH2 0x5BEA JUMP JUMPDEST POP PUSH1 0xC0 DUP3 ADD MLOAD PUSH1 0x6 DUP3 ADD SSTORE PUSH1 0xE0 DUP3 ADD MLOAD DUP1 MLOAD PUSH2 0x410E SWAP2 PUSH1 0x7 DUP5 ADD SWAP2 PUSH1 0x20 SWAP1 SWAP2 ADD SWAP1 PUSH2 0x481C JUMP JUMPDEST POP PUSH2 0x100 DUP3 ADD MLOAD PUSH1 0x8 DUP3 ADD SSTORE PUSH2 0x120 SWAP1 SWAP2 ADD MLOAD PUSH1 0x9 SWAP1 SWAP2 ADD DUP1 SLOAD PUSH1 0xFF NOT AND SWAP2 ISZERO ISZERO SWAP2 SWAP1 SWAP2 OR SWAP1 SSTORE DUP1 MLOAD PUSH1 0x5 DUP4 ADD DUP1 SLOAD PUSH1 0x1 DUP2 ADD DUP3 SSTORE PUSH1 0x0 SWAP2 DUP3 MSTORE PUSH1 0x20 SWAP1 SWAP2 KECCAK256 ADD SSTORE PUSH1 0x40 MLOAD PUSH32 0xE4ACA3C0FC408B3A8CE278B40B298311B8DCA09AC3C3D5D1068F014E01AC551B SWAP1 PUSH2 0x417F SWAP1 DUP4 SWAP1 PUSH2 0x5D75 JUMP JUMPDEST PUSH1 0x40 MLOAD DUP1 SWAP2 SUB SWAP1 LOG1 POP POP JUMP JUMPDEST PUSH1 0x0 DUP2 GT PUSH2 0x4198 JUMPI PUSH1 0x0 DUP1 REVERT JUMPDEST PUSH1 0xA DUP3 ADD DUP2 SWAP1 SSTORE PUSH1 0x8 DUP3 ADD DUP1 SLOAD PUSH1 0xFF NOT AND PUSH1 0x1 OR SWAP1 SSTORE PUSH1 0x40 MLOAD PUSH1 0x0 DUP1 MLOAD PUSH1 0x20 PUSH2 0x5D89 DUP4 CODECOPY DUP2 MLOAD SWAP2 MSTORE SWAP1 PUSH2 0x417F SWAP1 DUP5 SWAP1 PUSH2 0x5413 JUMP JUMPDEST PUSH1 0x0 PUSH1 0x23 PUSH1 0x0 PUSH2 0x41DA PUSH2 0x3123 JUMP JUMPDEST DUP2 MSTORE PUSH1 0x20 ADD SWAP1 DUP2 MSTORE PUSH1 0x20 ADD PUSH1 0x0 KECCAK256 SWAP1 POP DUP2 ISZERO PUSH2 0x4226 JUMPI DUP3 PUSH1 0x21 PUSH1 0x0 DUP3 DUP3 SLOAD PUSH2 0x4202 SWAP2 SWAP1 PUSH2 0x51CB JUMP JUMPDEST SWAP1 SWAP2 SSTORE POP POP DUP1 SLOAD DUP4 SWAP1 DUP3 SWAP1 PUSH1 0x0 SWAP1 PUSH2 0x421B SWAP1 DUP5 SWAP1 PUSH2 0x51CB JUMP JUMPDEST SWAP1 SWAP2 SSTORE POP PUSH2 0x1275 SWAP1 POP JUMP JUMPDEST DUP3 PUSH1 0x21 PUSH1 0x0 DUP3 DUP3 SLOAD PUSH2 0x4238 SWAP2 SWAP1 PUSH2 0x51DE JUMP JUMPDEST SWAP3 POP POP DUP2 SWAP1 SSTORE POP DUP3 DUP2 PUSH1 0x1 ADD PUSH1 0x0 DUP3 DUP3 SLOAD PUSH2 0x4253 SWAP2 SWAP1 PUSH2 0x51CB JUMP JUMPDEST SWAP1 SWAP2 SSTORE POP POP POP POP POP JUMP JUMPDEST PUSH1 0x1 PUSH1 0x1 PUSH1 0xA0 SHL SUB DUP2 AND PUSH1 0x0 SWAP1 DUP2 MSTORE PUSH1 0x11 PUSH1 0x20 MSTORE PUSH1 0x40 SWAP1 KECCAK256 DUP1 SLOAD PUSH2 0x42AC JUMPI PUSH1 0x40 MLOAD PUSH3 0x461BCD PUSH1 0xE5 SHL DUP2 MSTORE PUSH1 0x20 PUSH1 0x4 DUP3 ADD MSTORE PUSH1 0x6 PUSH1 0x24 DUP3 ADD MSTORE PUSH6 0x72667276203 PUSH1 0xD4 SHL PUSH1 0x44 DUP3 ADD MSTORE PUSH1 0x64 ADD PUSH2 0xF5C JUMP JUMPDEST DUP1 SLOAD PUSH1 0xF SLOAD PUSH1 0x0 SWAP2 PUSH2 0x42BD SWAP2 PUSH2 0x51DE JUMP JUMPDEST SWAP1 POP PUSH1 0x0 PUSH1 0xF SLOAD PUSH1 0xE SLOAD PUSH2 0x42D1 SWAP2 SWAP1 PUSH2 0x57E4 JUMP JUMPDEST SWAP1 POP PUSH1 0x0 DUP4 PUSH1 0x1 ADD SLOAD DUP5 PUSH1 0x0 ADD SLOAD PUSH2 0x42E9 SWAP2 SWAP1 PUSH2 0x57E4 JUMP JUMPDEST SWAP1 POP PUSH1 0x0 DUP2 DUP4 GT PUSH2 0x42FB JUMPI PUSH1 0x0 PUSH2 0x4305 JUMP JUMPDEST PUSH2 0x4305 DUP3 DUP5 PUSH2 0x51DE JUMP JUMPDEST SWAP1 POP DUP4 ISZERO PUSH2 0x4324 JUMPI PUSH2 0x4317 DUP5 DUP3 PUSH2 0x576D JUMP JUMPDEST PUSH1 0xE SSTORE PUSH1 0xF DUP5 SWAP1 SSTORE PUSH2 0x4330 JUMP JUMPDEST PUSH1 0xC SLOAD PUSH1 0xE SSTORE PUSH1 0x0 PUSH1 0xF SSTORE JUMPDEST POP POP POP PUSH1 0x1 PUSH1 0x1 PUSH1 0xA0 SHL SUB SWAP1 SWAP3 AND PUSH1 0x0 SWAP1 DUP2 MSTORE PUSH1 0x11 PUSH1 0x20 MSTORE PUSH1 0x40 DUP2 KECCAK256 DUP2 DUP2 SSTORE PUSH1 0x1 ADD SSTORE POP POP JUMP JUMPDEST PUSH1 0x1 PUSH1 0x1 PUSH1 0xA0 SHL SUB DUP2 AND PUSH1 0x0 SWAP1 DUP2 MSTORE PUSH1 0x12 PUSH1 0x20 MSTORE PUSH1 0x40 SWAP1 KECCAK256 DUP1 SLOAD PUSH2 0x43A6 JUMPI PUSH1 0x40 MLOAD PUSH3 0x461BCD PUSH1 0xE5 SHL DUP2 MSTORE PUSH1 0x20 PUSH1 0x4 DUP3 ADD MSTORE PUSH1 0x6 PUSH1 0x24 DUP3 ADD MSTORE PUSH6 0x72617668203 PUSH1 0xD4 SHL PUSH1 0x44 DUP3 ADD MSTORE PUSH1 0x64 ADD PUSH2 0xF5C JUMP JUMPDEST PUSH1 0x3 DUP2 ADD SLOAD PUSH1 0xFF AND ISZERO PUSH2 0x4439 JUMPI DUP1 SLOAD PUSH1 0x15 DUP1 SLOAD PUSH1 0x0 SWAP1 PUSH2 0x43C7 SWAP1 DUP5 SWAP1 PUSH2 0x51DE JUMP JUMPDEST SWAP1 SWAP2 SSTORE POP POP PUSH1 0x1 DUP2 ADD SLOAD PUSH1 0x1 PUSH1 0x1 PUSH1 0xA0 SHL SUB AND PUSH1 0x0 SWAP1 DUP2 MSTORE PUSH1 0x14 PUSH1 0x20 MSTORE PUSH1 0x40 SWAP1 KECCAK256 SLOAD DUP1 PUSH2 0x43F3 JUMPI PUSH1 0x0 DUP1 REVERT JUMPDEST DUP2 SLOAD PUSH1 0x13 PUSH2 0x4402 PUSH1 0x1 DUP5 PUSH2 0x51DE JUMP JUMPDEST DUP2 SLOAD DUP2 LT PUSH2 0x4412 JUMPI PUSH2 0x4412 PUSH2 0x51F1 JUMP JUMPDEST SWAP1 PUSH1 0x0 MSTORE PUSH1 0x20 PUSH1 0x0 KECCAK256 SWAP1 PUSH1 0x2 MUL ADD PUSH1 0x0 ADD PUSH1 0x0 DUP3 DUP3 SLOAD PUSH2 0x4432 SWAP2 SWAP1 PUSH2 0x51DE JUMP JUMPDEST SWAP1 SWAP2 SSTORE POP POP POP JUMPDEST POP PUSH1 0x1 PUSH1 0x1 PUSH1 0xA0 SHL SUB AND PUSH1 0x0 SWAP1 DUP2 MSTORE PUSH1 0x12 PUSH1 0x20 MSTORE PUSH1 0x40 DUP2 KECCAK256 DUP2 DUP2 SSTORE PUSH1 0x1 DUP2 ADD DUP1 SLOAD PUSH1 0x1 PUSH1 0x1 PUSH1 0xA0 SHL SUB NOT AND SWAP1 SSTORE PUSH1 0x2 DUP2 ADD SWAP2 SWAP1 SWAP2 SSTORE PUSH1 0x3 ADD DUP1 SLOAD PUSH1 0xFF NOT AND SWAP1 SSTORE JUMP JUMPDEST PUSH1 0x1 PUSH1 0x1 PUSH1 0xA0 SHL SUB DUP4 AND ISZERO PUSH2 0x44E4 JUMPI PUSH2 0x4496 DUP4 DUP3 PUSH1 0x0 PUSH2 0x4623 JUMP JUMPDEST PUSH1 0x1 PUSH1 0x1 PUSH1 0xA0 SHL SUB DUP4 AND PUSH1 0x0 SWAP1 DUP2 MSTORE PUSH1 0x11 PUSH1 0x20 MSTORE PUSH1 0x40 SWAP1 KECCAK256 SLOAD ISZERO PUSH2 0x44BD JUMPI PUSH2 0x44BD DUP4 PUSH2 0x425D JUMP JUMPDEST PUSH1 0x1 PUSH1 0x1 PUSH1 0xA0 SHL SUB DUP4 AND PUSH1 0x0 SWAP1 DUP2 MSTORE PUSH1 0x12 PUSH1 0x20 MSTORE PUSH1 0x40 SWAP1 KECCAK256 SLOAD ISZERO PUSH2 0x44E4 JUMPI PUSH2 0x44E4 DUP4 PUSH2 0x4357 JUMP JUMPDEST PUSH1 0x1 PUSH1 0x1 PUSH1 0xA0 SHL SUB DUP3 AND ISZERO PUSH2 0x1275 JUMPI PUSH2 0x44FF DUP3 DUP3 PUSH1 0x1 PUSH2 0x4623 JUMP JUMPDEST PUSH1 0x1 PUSH1 0x1 PUSH1 0xA0 SHL SUB DUP3 AND PUSH1 0x0 SWAP1 DUP2 MSTORE PUSH1 0x1D PUSH1 0x20 MSTORE PUSH1 0x40 SWAP1 KECCAK256 SLOAD PUSH1 0xFF AND ISZERO DUP1 ISZERO PUSH2 0x4528 JUMPI POP PUSH1 0x0 DUP2 GT JUMPDEST ISZERO PUSH2 0x1275 JUMPI PUSH1 0x1C DUP1 SLOAD PUSH1 0x1 DUP2 DUP2 ADD SWAP1 SWAP3 SSTORE PUSH32 0xE4562A10381DEC21B205ED72637E6B1B523BDD0E4D4D50AF5CD23DD4500A211 ADD DUP1 SLOAD PUSH1 0x1 PUSH1 0x1 PUSH1 0xA0 SHL SUB DUP6 AND PUSH1 0x1 PUSH1 0x1 PUSH1 0xA0 SHL SUB NOT SWAP1 SWAP2 AND DUP2 OR SWAP1 SWAP2 SSTORE PUSH1 0x0 SWAP1 DUP2 MSTORE PUSH1 0x1D PUSH1 0x20 MSTORE PUSH1 0x40 SWAP1 KECCAK256 DUP1 SLOAD PUSH1 0xFF NOT AND SWAP1 SWAP2 OR SWAP1 SSTORE POP POP POP JUMP JUMPDEST PUSH32 0x0 DUP2 PUSH2 0x45C1 PUSH1 0x2 SLOAD SWAP1 JUMP JUMPDEST PUSH2 0x45CB SWAP2 SWAP1 PUSH2 0x51CB JUMP JUMPDEST GT ISZERO PUSH2 0x4619 JUMPI PUSH1 0x40 MLOAD PUSH3 0x461BCD PUSH1 0xE5 SHL DUP2 MSTORE PUSH1 0x20 PUSH1 0x4 DUP3 ADD MSTORE PUSH1 0x19 PUSH1 0x24 DUP3 ADD MSTORE PUSH32 0x45524332304361707065643A2063617020657863656564656400000000000000 PUSH1 0x44 DUP3 ADD MSTORE PUSH1 0x64 ADD PUSH2 0xF5C JUMP JUMPDEST PUSH2 0x112F DUP3 DUP3 PUSH2 0x46A8 JUMP JUMPDEST PUSH1 0x0 PUSH1 0x22 PUSH1 0x0 PUSH2 0x4631 PUSH2 0x3123 JUMP JUMPDEST DUP2 MSTORE PUSH1 0x20 ADD SWAP1 DUP2 MSTORE PUSH1 0x20 ADD PUSH1 0x0 KECCAK256 PUSH1 0x0 DUP6 PUSH1 0x1 PUSH1 0x1 PUSH1 0xA0 SHL SUB AND PUSH1 0x1 PUSH1 0x1 PUSH1 0xA0 SHL SUB AND DUP2 MSTORE PUSH1 0x20 ADD SWAP1 DUP2 MSTORE PUSH1 0x20 ADD PUSH1 0x0 KECCAK256 SWAP1 POP DUP2 ISZERO PUSH2 0x4689 JUMPI DUP3 DUP2 PUSH1 0x0 ADD PUSH1 0x0 DUP3 DUP3 SLOAD PUSH2 0x467E SWAP2 SWAP1 PUSH2 0x51CB JUMP JUMPDEST SWAP1 SWAP2 SSTORE POP PUSH2 0x1A23 SWAP1 POP JUMP JUMPDEST DUP3 DUP2 PUSH1 0x1 ADD PUSH1 0x0 DUP3 DUP3 SLOAD PUSH2 0x469D SWAP2 SWAP1 PUSH2 0x51CB JUMP JUMPDEST SWAP1 SWAP2 SSTORE POP POP POP POP POP POP JUMP JUMPDEST PUSH1 0x1 PUSH1 0x1 PUSH1 0xA0 SHL SUB DUP3 AND PUSH2 0x46FE JUMPI PUSH1 0x40 MLOAD PUSH3 0x461BCD PUSH1 0xE5 SHL DUP2 MSTORE PUSH1 0x20 PUSH1 0x4 DUP3 ADD MSTORE PUSH1 0x1F PUSH1 0x24 DUP3 ADD MSTORE PUSH32 0x45524332303A206D696E7420746F20746865207A65726F206164647265737300 PUSH1 0x44 DUP3 ADD MSTORE PUSH1 0x64 ADD PUSH2 0xF5C JUMP JUMPDEST PUSH2 0x470A PUSH1 0x0 DUP4 DUP4 PUSH2 0x447B JUMP JUMPDEST DUP1 PUSH1 0x2 PUSH1 0x0 DUP3 DUP3 SLOAD PUSH2 0x471C SWAP2 SWAP1 PUSH2 0x51CB JUMP JUMPDEST SWAP1 SWAP2 SSTORE POP POP PUSH1 0x1 PUSH1 0x1 PUSH1 0xA0 SHL SUB DUP3 AND PUSH1 0x0 DUP2 DUP2 MSTORE PUSH1 0x20 DUP2 DUP2 MSTORE PUSH1 0x40 DUP1 DUP4 KECCAK256 DUP1 SLOAD DUP7 ADD SWAP1 SSTORE MLOAD DUP5 DUP2 MSTORE PUSH32 0xDDF252AD1BE2C89B69C2B068FC378DAA952BA7F163C4A11628F55A4DF523B3EF SWAP2 ADD PUSH1 0x40 MLOAD DUP1 SWAP2 SUB SWAP1 LOG3 POP POP JUMP JUMPDEST DUP3 DUP1 SLOAD DUP3 DUP3 SSTORE SWAP1 PUSH1 0x0 MSTORE PUSH1 0x20 PUSH1 0x0 KECCAK256 SWAP1 DUP2 ADD SWAP3 DUP3 ISZERO PUSH2 0x47AE JUMPI SWAP2 PUSH1 0x20 MUL DUP3 ADD JUMPDEST DUP3 DUP2 GT ISZERO PUSH2 0x47AE JUMPI DUP3 CALLDATALOAD DUP3 SSTORE SWAP2 PUSH1 0x20 ADD SWAP2 SWAP1 PUSH1 0x1 ADD SWAP1 PUSH2 0x4793 JUMP JUMPDEST POP PUSH2 0x47BA SWAP3 SWAP2 POP PUSH2 0x4857 JUMP JUMPDEST POP SWAP1 JUMP JUMPDEST PUSH1 0x40 MLOAD DUP1 PUSH1 0x60 ADD PUSH1 0x40 MSTORE DUP1 PUSH1 0x3 SWAP1 PUSH1 0x20 DUP3 MUL DUP1 CALLDATASIZE DUP4 CALLDATACOPY POP SWAP2 SWAP3 SWAP2 POP POP JUMP JUMPDEST DUP3 DUP1 SLOAD DUP3 DUP3 SSTORE SWAP1 PUSH1 0x0 MSTORE PUSH1 0x20 PUSH1 0x0 KECCAK256 SWAP1 DUP2 ADD SWAP3 DUP3 ISZERO PUSH2 0x47AE JUMPI PUSH1 0x0 MSTORE PUSH1 0x20 PUSH1 0x0 KECCAK256 SWAP2 DUP3 ADD JUMPDEST DUP3 DUP2 GT ISZERO PUSH2 0x47AE JUMPI DUP3 SLOAD DUP3 SSTORE SWAP2 PUSH1 0x1 ADD SWAP2 SWAP1 PUSH1 0x1 ADD SWAP1 PUSH2 0x4801 JUMP JUMPDEST DUP3 DUP1 SLOAD DUP3 DUP3 SSTORE SWAP1 PUSH1 0x0 MSTORE PUSH1 0x20 PUSH1 0x0 KECCAK256 SWAP1 DUP2 ADD SWAP3 DUP3 ISZERO PUSH2 0x47AE JUMPI SWAP2 PUSH1 0x20 MUL DUP3 ADD JUMPDEST DUP3 DUP2 GT ISZERO PUSH2 0x47AE JUMPI DUP3 MLOAD DUP3 SSTORE SWAP2 PUSH1 0x20 ADD SWAP2 SWAP1 PUSH1 0x1 ADD SWAP1 PUSH2 0x483C JUMP JUMPDEST JUMPDEST DUP1 DUP3 GT ISZERO PUSH2 0x47BA JUMPI PUSH1 0x0 DUP2 SSTORE PUSH1 0x1 ADD PUSH2 0x4858 JUMP JUMPDEST PUSH1 0x0 DUP2 MLOAD DUP1 DUP5 MSTORE PUSH1 0x0 JUMPDEST DUP2 DUP2 LT ISZERO PUSH2 0x4892 JUMPI PUSH1 0x20 DUP2 DUP6 ADD DUP2 ADD MLOAD DUP7 DUP4 ADD DUP3 ADD MSTORE ADD PUSH2 0x4876 JUMP JUMPDEST POP PUSH1 0x0 PUSH1 0x20 DUP3 DUP7 ADD ADD MSTORE PUSH1 0x20 PUSH1 0x1F NOT PUSH1 0x1F DUP4 ADD AND DUP6 ADD ADD SWAP2 POP POP SWAP3 SWAP2 POP POP JUMP JUMPDEST PUSH1 0x20 DUP2 MSTORE PUSH1 0x0 PUSH2 0x1AE6 PUSH1 0x20 DUP4 ADD DUP5 PUSH2 0x486C JUMP JUMPDEST DUP1 CALLDATALOAD PUSH1 0x1 PUSH1 0x1 PUSH1 0xA0 SHL SUB DUP2 AND DUP2 EQ PUSH2 0x48DC JUMPI PUSH1 0x0 DUP1 REVERT JUMPDEST SWAP2 SWAP1 POP JUMP JUMPDEST PUSH1 0x0 DUP1 PUSH1 0x40 DUP4 DUP6 SUB SLT ISZERO PUSH2 0x48F4 JUMPI PUSH1 0x0 DUP1 REVERT JUMPDEST DUP3 CALLDATALOAD SWAP2 POP PUSH2 0x4904 PUSH1 0x20 DUP5 ADD PUSH2 0x48C5 JUMP JUMPDEST SWAP1 POP SWAP3 POP SWAP3 SWAP1 POP JUMP JUMPDEST PUSH1 0x0 DUP1 PUSH1 0x40 DUP4 DUP6 SUB SLT ISZERO PUSH2 0x4920 JUMPI PUSH1 0x0 DUP1 REVERT JUMPDEST PUSH2 0x4929 DUP4 PUSH2 0x48C5 JUMP JUMPDEST SWAP5 PUSH1 0x20 SWAP4 SWAP1 SWAP4 ADD CALLDATALOAD SWAP4 POP POP POP JUMP JUMPDEST PUSH1 0x0 PUSH1 0x20 DUP3 DUP5 SUB SLT ISZERO PUSH2 0x4949 JUMPI PUSH1 0x0 DUP1 REVERT JUMPDEST POP CALLDATALOAD SWAP2 SWAP1 POP JUMP JUMPDEST PUSH4 0x4E487B71 PUSH1 0xE0 SHL PUSH1 0x0 MSTORE PUSH1 0x21 PUSH1 0x4 MSTORE PUSH1 0x24 PUSH1 0x0 REVERT JUMPDEST PUSH1 0xE DUP2 LT PUSH2 0x4984 JUMPI PUSH4 0x4E487B71 PUSH1 0xE0 SHL PUSH1 0x0 MSTORE PUSH1 0x21 PUSH1 0x4 MSTORE PUSH1 0x24 PUSH1 0x0 REVERT JUMPDEST SWAP1 MSTORE JUMP JUMPDEST PUSH1 0x0 PUSH2 0x120 DUP12 DUP4 MSTORE DUP11 PUSH1 0x20 DUP5 ADD MSTORE PUSH2 0x49A3 PUSH1 0x40 DUP5 ADD DUP12 PUSH2 0x4966 JUMP JUMPDEST DUP9 PUSH1 0x60 DUP5 ADD MSTORE DUP8 PUSH1 0x80 DUP5 ADD MSTORE DUP1 PUSH1 0xA0 DUP5 ADD MSTORE PUSH2 0x49C1 DUP2 DUP5 ADD DUP9 PUSH2 0x486C JUMP JUMPDEST PUSH1 0xC0 DUP5 ADD SWAP7 SWAP1 SWAP7 MSTORE POP POP PUSH1 0xE0 DUP2 ADD SWAP3 SWAP1 SWAP3 MSTORE ISZERO ISZERO PUSH2 0x100 SWAP1 SWAP2 ADD MSTORE SWAP7 SWAP6 POP POP POP POP POP POP JUMP JUMPDEST PUSH1 0x0 DUP1 PUSH1 0x0 PUSH1 0x60 DUP5 DUP7 SUB SLT ISZERO PUSH2 0x49FB JUMPI PUSH1 0x0 DUP1 REVERT JUMPDEST PUSH2 0x4A04 DUP5 PUSH2 0x48C5 JUMP JUMPDEST SWAP3 POP PUSH2 0x4A12 PUSH1 0x20 DUP6 ADD PUSH2 0x48C5 JUMP JUMPDEST SWAP2 POP PUSH1 0x40 DUP5 ADD CALLDATALOAD SWAP1 POP SWAP3 POP SWAP3 POP SWAP3 JUMP JUMPDEST PUSH1 0x0 PUSH1 0x20 DUP3 DUP5 SUB SLT ISZERO PUSH2 0x4A34 JUMPI PUSH1 0x0 DUP1 REVERT JUMPDEST PUSH2 0x1AE6 DUP3 PUSH2 0x48C5 JUMP JUMPDEST PUSH1 0x0 DUP1 DUP4 PUSH1 0x1F DUP5 ADD SLT PUSH2 0x4A4F JUMPI PUSH1 0x0 DUP1 REVERT JUMPDEST POP DUP2 CALLDATALOAD PUSH1 0x1 PUSH1 0x1 PUSH1 0x40 SHL SUB DUP2 GT ISZERO PUSH2 0x4A66 JUMPI PUSH1 0x0 DUP1 REVERT JUMPDEST PUSH1 0x20 DUP4 ADD SWAP2 POP DUP4 PUSH1 0x20 DUP3 PUSH1 0x5 SHL DUP6 ADD ADD GT ISZERO PUSH2 0x4A81 JUMPI PUSH1 0x0 DUP1 REVERT JUMPDEST SWAP3 POP SWAP3 SWAP1 POP JUMP JUMPDEST PUSH1 0x0 DUP1 PUSH1 0x20 DUP4 DUP6 SUB SLT ISZERO PUSH2 0x4A9B JUMPI PUSH1 0x0 DUP1 REVERT JUMPDEST DUP3 CALLDATALOAD PUSH1 0x1 PUSH1 0x1 PUSH1 0x40 SHL SUB DUP2 GT ISZERO PUSH2 0x4AB1 JUMPI PUSH1 0x0 DUP1 REVERT JUMPDEST PUSH2 0x4ABD DUP6 DUP3 DUP7 ADD PUSH2 0x4A3D JUMP JUMPDEST SWAP1 SWAP7 SWAP1 SWAP6 POP SWAP4 POP POP POP POP JUMP JUMPDEST PUSH1 0x0 DUP1 DUP4 PUSH1 0x1F DUP5 ADD SLT PUSH2 0x4ADB JUMPI PUSH1 0x0 DUP1 REVERT JUMPDEST POP DUP2 CALLDATALOAD PUSH1 0x1 PUSH1 0x1 PUSH1 0x40 SHL SUB DUP2 GT ISZERO PUSH2 0x4AF2 JUMPI PUSH1 0x0 DUP1 REVERT JUMPDEST PUSH1 0x20 DUP4 ADD SWAP2 POP DUP4 PUSH1 0x20 DUP3 PUSH1 0x6 SHL DUP6 ADD ADD GT ISZERO PUSH2 0x4A81 JUMPI PUSH1 0x0 DUP1 REVERT JUMPDEST PUSH1 0x0 DUP1 PUSH1 0x20 DUP4 DUP6 SUB SLT ISZERO PUSH2 0x4B20 JUMPI PUSH1 0x0 DUP1 REVERT JUMPDEST DUP3 CALLDATALOAD PUSH1 0x1 PUSH1 0x1 PUSH1 0x40 SHL SUB DUP2 GT ISZERO PUSH2 0x4B36 JUMPI PUSH1 0x0 DUP1 REVERT JUMPDEST PUSH2 0x4ABD DUP6 DUP3 DUP7 ADD PUSH2 0x4AC9 JUMP JUMPDEST PUSH1 0x60 DUP2 ADD DUP2 DUP4 PUSH1 0x0 JUMPDEST PUSH1 0x3 DUP2 LT ISZERO PUSH2 0x4B73 JUMPI DUP2 MLOAD PUSH1 0x1 PUSH1 0x1 PUSH1 0xA0 SHL SUB AND DUP4 MSTORE PUSH1 0x20 SWAP3 DUP4 ADD SWAP3 SWAP1 SWAP2 ADD SWAP1 PUSH1 0x1 ADD PUSH2 0x4B4B JUMP JUMPDEST POP POP POP SWAP3 SWAP2 POP POP JUMP JUMPDEST PUSH1 0x20 DUP1 DUP3 MSTORE DUP3 MLOAD DUP3 DUP3 ADD DUP2 SWAP1 MSTORE PUSH1 0x0 SWAP2 SWAP1 DUP5 DUP3 ADD SWAP1 PUSH1 0x40 DUP6 ADD SWAP1 DUP5 JUMPDEST DUP2 DUP2 LT ISZERO PUSH2 0x4BBD JUMPI DUP4 MLOAD PUSH1 0x1 PUSH1 0x1 PUSH1 0xA0 SHL SUB AND DUP4 MSTORE SWAP3 DUP5 ADD SWAP3 SWAP2 DUP5 ADD SWAP2 PUSH1 0x1 ADD PUSH2 0x4B98 JUMP JUMPDEST POP SWAP1 SWAP7 SWAP6 POP POP POP POP POP POP JUMP JUMPDEST DUP8 DUP2 MSTORE DUP7 PUSH1 0x20 DUP3 ADD MSTORE DUP6 PUSH1 0x40 DUP3 ADD MSTORE DUP5 PUSH1 0x60 DUP3 ADD MSTORE DUP4 PUSH1 0x80 DUP3 ADD MSTORE PUSH1 0xE0 PUSH1 0xA0 DUP3 ADD MSTORE PUSH1 0x0 PUSH2 0x4BFA PUSH1 0xE0 DUP4 ADD DUP6 PUSH2 0x486C JUMP JUMPDEST SWAP1 POP DUP3 PUSH1 0xC0 DUP4 ADD MSTORE SWAP9 SWAP8 POP POP POP POP POP POP POP POP JUMP JUMPDEST PUSH4 0x4E487B71 PUSH1 0xE0 SHL PUSH1 0x0 MSTORE PUSH1 0x41 PUSH1 0x4 MSTORE PUSH1 0x24 PUSH1 0x0 REVERT JUMPDEST PUSH1 0x40 MLOAD PUSH1 0xC0 DUP2 ADD PUSH1 0x1 PUSH1 0x1 PUSH1 0x40 SHL SUB DUP2 GT DUP3 DUP3 LT OR ISZERO PUSH2 0x4C46 JUMPI PUSH2 0x4C46 PUSH2 0x4C0E JUMP JUMPDEST PUSH1 0x40 MSTORE SWAP1 JUMP JUMPDEST PUSH1 0x40 MLOAD PUSH1 0x1F DUP3 ADD PUSH1 0x1F NOT AND DUP2 ADD PUSH1 0x1 PUSH1 0x1 PUSH1 0x40 SHL SUB DUP2 GT DUP3 DUP3 LT OR ISZERO PUSH2 0x4C74 JUMPI PUSH2 0x4C74 PUSH2 0x4C0E JUMP JUMPDEST PUSH1 0x40 MSTORE SWAP2 SWAP1 POP JUMP JUMPDEST PUSH1 0x0 DUP3 PUSH1 0x1F DUP4 ADD SLT PUSH2 0x4C8D JUMPI PUSH1 0x0 DUP1 REVERT JUMPDEST DUP2 CALLDATALOAD PUSH1 0x20 PUSH1 0x1 PUSH1 0x1 PUSH1 0x40 SHL SUB DUP3 GT ISZERO PUSH2 0x4CA8 JUMPI PUSH2 0x4CA8 PUSH2 0x4C0E JUMP JUMPDEST DUP2 PUSH1 0x5 SHL PUSH2 0x4CB7 DUP3 DUP3 ADD PUSH2 0x4C4C JUMP JUMPDEST SWAP3 DUP4 MSTORE DUP5 DUP2 ADD DUP3 ADD SWAP3 DUP3 DUP2 ADD SWAP1 DUP8 DUP6 GT ISZERO PUSH2 0x4CD1 JUMPI PUSH1 0x0 DUP1 REVERT JUMPDEST DUP4 DUP8 ADD SWAP3 POP JUMPDEST DUP5 DUP4 LT ISZERO PUSH2 0x4CF0 JUMPI DUP3 CALLDATALOAD DUP3 MSTORE SWAP2 DUP4 ADD SWAP2 SWAP1 DUP4 ADD SWAP1 PUSH2 0x4CD7 JUMP JUMPDEST SWAP8 SWAP7 POP POP POP POP POP POP POP JUMP JUMPDEST PUSH1 0x0 DUP1 PUSH1 0x40 DUP4 DUP6 SUB SLT ISZERO PUSH2 0x4D0E JUMPI PUSH1 0x0 DUP1 REVERT JUMPDEST DUP3 CALLDATALOAD PUSH1 0x1 PUSH1 0x1 PUSH1 0x40 SHL SUB DUP1 DUP3 GT ISZERO PUSH2 0x4D25 JUMPI PUSH1 0x0 DUP1 REVERT JUMPDEST PUSH2 0x4D31 DUP7 DUP4 DUP8 ADD PUSH2 0x4C7C JUMP JUMPDEST SWAP4 POP PUSH1 0x20 DUP6 ADD CALLDATALOAD SWAP2 POP DUP1 DUP3 GT ISZERO PUSH2 0x4D47 JUMPI PUSH1 0x0 DUP1 REVERT JUMPDEST POP PUSH2 0x4D54 DUP6 DUP3 DUP7 ADD PUSH2 0x4C7C JUMP JUMPDEST SWAP2 POP POP SWAP3 POP SWAP3 SWAP1 POP JUMP JUMPDEST PUSH1 0x0 DUP2 MLOAD DUP1 DUP5 MSTORE PUSH1 0x20 DUP1 DUP6 ADD SWAP5 POP DUP1 DUP5 ADD PUSH1 0x0 JUMPDEST DUP4 DUP2 LT ISZERO PUSH2 0x4D8E JUMPI DUP2 MLOAD DUP8 MSTORE SWAP6 DUP3 ADD SWAP6 SWAP1 DUP3 ADD SWAP1 PUSH1 0x1 ADD PUSH2 0x4D72 JUMP JUMPDEST POP SWAP5 SWAP6 SWAP5 POP POP POP POP POP JUMP JUMPDEST PUSH1 0x0 PUSH2 0x140 DUP3 MLOAD DUP5 MSTORE PUSH1 0x20 DUP4 ADD MLOAD PUSH1 0x20 DUP6 ADD MSTORE PUSH1 0x40 DUP4 ADD MLOAD PUSH2 0x4DBE PUSH1 0x40 DUP7 ADD DUP3 PUSH2 0x4966 JUMP JUMPDEST POP PUSH1 0x60 DUP4 ADD MLOAD PUSH1 0x60 DUP6 ADD MSTORE PUSH1 0x80 DUP4 ADD MLOAD PUSH1 0x80 DUP6 ADD MSTORE PUSH1 0xA0 DUP4 ADD MLOAD DUP2 PUSH1 0xA0 DUP7 ADD MSTORE PUSH2 0x4DEA DUP3 DUP7 ADD DUP3 PUSH2 0x486C JUMP JUMPDEST SWAP2 POP POP PUSH1 0xC0 DUP4 ADD MLOAD PUSH1 0xC0 DUP6 ADD MSTORE PUSH1 0xE0 DUP4 ADD MLOAD DUP5 DUP3 SUB PUSH1 0xE0 DUP7 ADD MSTORE PUSH2 0x4E0E DUP3 DUP3 PUSH2 0x4D5E JUMP JUMPDEST SWAP2 POP POP PUSH2 0x100 DUP1 DUP5 ADD MLOAD DUP2 DUP7 ADD MSTORE POP PUSH2 0x120 DUP1 DUP5 ADD MLOAD PUSH2 0x4E31 DUP3 DUP8 ADD DUP3 ISZERO ISZERO SWAP1 MSTORE JUMP JUMPDEST POP SWAP1 SWAP5 SWAP4 POP POP POP POP JUMP JUMPDEST PUSH1 0x0 PUSH1 0x20 DUP1 DUP4 ADD DUP2 DUP5 MSTORE DUP1 DUP6 MLOAD DUP1 DUP4 MSTORE PUSH1 0x40 DUP7 ADD SWAP2 POP PUSH1 0x40 DUP2 PUSH1 0x5 SHL DUP8 ADD ADD SWAP3 POP DUP4 DUP8 ADD PUSH1 0x0 JUMPDEST DUP3 DUP2 LT ISZERO PUSH2 0x4E90 JUMPI PUSH1 0x3F NOT DUP9 DUP7 SUB ADD DUP5 MSTORE PUSH2 0x4E7E DUP6 DUP4 MLOAD PUSH2 0x4D99 JUMP JUMPDEST SWAP5 POP SWAP3 DUP6 ADD SWAP3 SWAP1 DUP6 ADD SWAP1 PUSH1 0x1 ADD PUSH2 0x4E62 JUMP JUMPDEST POP SWAP3 SWAP8 SWAP7 POP POP POP POP POP POP POP JUMP JUMPDEST PUSH1 0x0 PUSH1 0x20 DUP1 DUP4 ADD DUP2 DUP5 MSTORE DUP1 DUP6 MLOAD DUP1 DUP4 MSTORE PUSH1 0x40 SWAP3 POP DUP3 DUP7 ADD SWAP2 POP DUP3 DUP2 PUSH1 0x5 SHL DUP8 ADD ADD DUP5 DUP9 ADD PUSH1 0x0 JUMPDEST DUP4 DUP2 LT ISZERO PUSH2 0x4FE2 JUMPI PUSH1 0x3F NOT DUP10 DUP5 SUB ADD DUP6 MSTORE DUP2 MLOAD PUSH2 0x1C0 DUP2 MLOAD DUP6 MSTORE DUP9 DUP3 ADD MLOAD DUP10 DUP7 ADD MSTORE DUP8 DUP3 ADD MLOAD PUSH2 0x4EF6 DUP10 DUP8 ADD DUP3 PUSH2 0x4966 JUMP JUMPDEST POP PUSH1 0x60 DUP3 DUP2 ADD MLOAD SWAP1 DUP7 ADD MSTORE PUSH1 0x80 DUP1 DUP4 ADD MLOAD SWAP1 DUP7 ADD MSTORE PUSH1 0xA0 DUP1 DUP4 ADD MLOAD DUP2 DUP8 ADD DUP4 SWAP1 MSTORE PUSH2 0x4F23 DUP4 DUP9 ADD DUP3 PUSH2 0x4D5E JUMP JUMPDEST SWAP3 POP POP POP PUSH1 0xC0 DUP1 DUP4 ADD MLOAD DUP7 DUP4 SUB DUP3 DUP9 ADD MSTORE PUSH2 0x4F3E DUP4 DUP3 PUSH2 0x486C JUMP JUMPDEST SWAP3 POP POP POP PUSH1 0xE0 DUP1 DUP4 ADD MLOAD DUP7 DUP4 SUB DUP3 DUP9 ADD MSTORE PUSH2 0x4F59 DUP4 DUP3 PUSH2 0x486C JUMP JUMPDEST SWAP3 POP POP POP PUSH2 0x100 DUP1 DUP4 ADD MLOAD PUSH2 0x4F71 DUP3 DUP9 ADD DUP3 ISZERO ISZERO SWAP1 MSTORE JUMP JUMPDEST POP POP PUSH2 0x120 DUP1 DUP4 ADD MLOAD DUP7 DUP4 SUB DUP3 DUP9 ADD MSTORE PUSH2 0x4F8B DUP4 DUP3 PUSH2 0x486C JUMP JUMPDEST SWAP3 POP POP POP PUSH2 0x140 DUP1 DUP4 ADD MLOAD DUP2 DUP8 ADD MSTORE POP PUSH2 0x160 DUP1 DUP4 ADD MLOAD DUP2 DUP8 ADD MSTORE POP PUSH2 0x180 DUP1 DUP4 ADD MLOAD DUP7 DUP4 SUB DUP3 DUP9 ADD MSTORE PUSH2 0x4FBF DUP4 DUP3 PUSH2 0x4D5E JUMP JUMPDEST PUSH2 0x1A0 SWAP5 DUP6 ADD MLOAD SWAP8 SWAP1 SWAP5 ADD SWAP7 SWAP1 SWAP7 MSTORE POP POP SWAP5 DUP8 ADD SWAP5 SWAP3 POP SWAP1 DUP7 ADD SWAP1 PUSH1 0x1 ADD PUSH2 0x4EC4 JUMP JUMPDEST POP SWAP1 SWAP9 SWAP8 POP POP POP POP POP POP POP POP JUMP JUMPDEST PUSH1 0x20 DUP1 DUP3 MSTORE DUP3 MLOAD DUP3 DUP3 ADD DUP2 SWAP1 MSTORE PUSH1 0x0 SWAP2 SWAP1 PUSH1 0x40 SWAP1 DUP2 DUP6 ADD SWAP1 DUP7 DUP5 ADD DUP6 JUMPDEST DUP3 DUP2 LT ISZERO PUSH2 0x503B JUMPI DUP2 MLOAD DUP1 MLOAD DUP6 MSTORE DUP7 ADD MLOAD PUSH1 0x1 PUSH1 0x1 PUSH1 0xA0 SHL SUB AND DUP7 DUP6 ADD MSTORE SWAP3 DUP5 ADD SWAP3 SWAP1 DUP6 ADD SWAP1 PUSH1 0x1 ADD PUSH2 0x500D JUMP JUMPDEST POP SWAP2 SWAP8 SWAP7 POP POP POP POP POP POP POP JUMP JUMPDEST PUSH1 0x0 DUP1 PUSH1 0x40 DUP4 DUP6 SUB SLT ISZERO PUSH2 0x505B JUMPI PUSH1 0x0 DUP1 REVERT JUMPDEST PUSH2 0x5064 DUP4 PUSH2 0x48C5 JUMP JUMPDEST SWAP2 POP PUSH2 0x4904 PUSH1 0x20 DUP5 ADD PUSH2 0x48C5 JUMP JUMPDEST PUSH1 0x0 DUP1 PUSH1 0x40 DUP4 DUP6 SUB SLT ISZERO PUSH2 0x5085 JUMPI PUSH1 0x0 DUP1 REVERT JUMPDEST POP POP DUP1 CALLDATALOAD SWAP3 PUSH1 0x20 SWAP1 SWAP2 ADD CALLDATALOAD SWAP2 POP JUMP JUMPDEST PUSH1 0x0 PUSH2 0x180 DUP15 DUP4 MSTORE DUP14 PUSH1 0x20 DUP5 ADD MSTORE PUSH2 0x50AF PUSH1 0x40 DUP5 ADD DUP15 PUSH2 0x4966 JUMP JUMPDEST DUP12 PUSH1 0x60 DUP5 ADD MSTORE DUP11 PUSH1 0x80 DUP5 ADD MSTORE DUP1 PUSH1 0xA0 DUP5 ADD MSTORE PUSH2 0x50CD DUP2 DUP5 ADD DUP12 PUSH2 0x486C JUMP JUMPDEST SWAP1 POP DUP3 DUP2 SUB PUSH1 0xC0 DUP5 ADD MSTORE PUSH2 0x50E1 DUP2 DUP11 PUSH2 0x486C JUMP JUMPDEST SWAP1 POP DUP8 ISZERO ISZERO PUSH1 0xE0 DUP5 ADD MSTORE DUP3 DUP2 SUB PUSH2 0x100 DUP5 ADD MSTORE PUSH2 0x50FE DUP2 DUP9 PUSH2 0x486C JUMP JUMPDEST PUSH2 0x120 DUP5 ADD SWAP7 SWAP1 SWAP7 MSTORE POP POP PUSH2 0x140 DUP2 ADD SWAP3 SWAP1 SWAP3 MSTORE PUSH2 0x160 SWAP1 SWAP2 ADD MSTORE SWAP10 SWAP9 POP POP POP POP POP POP POP POP POP JUMP JUMPDEST PUSH1 0x0 PUSH1 0x20 DUP1 DUP4 ADD DUP2 DUP5 MSTORE DUP1 DUP6 MLOAD DUP1 DUP4 MSTORE PUSH1 0x40 DUP7 ADD SWAP2 POP PUSH1 0x40 DUP2 PUSH1 0x5 SHL DUP8 ADD ADD SWAP3 POP DUP4 DUP8 ADD PUSH1 0x0 JUMPDEST DUP3 DUP2 LT ISZERO PUSH2 0x4E90 JUMPI PUSH1 0x3F NOT DUP9 DUP7 SUB ADD DUP5 MSTORE PUSH2 0x5169 DUP6 DUP4 MLOAD PUSH2 0x486C JUMP JUMPDEST SWAP5 POP SWAP3 DUP6 ADD SWAP3 SWAP1 DUP6 ADD SWAP1 PUSH1 0x1 ADD PUSH2 0x514D JUMP JUMPDEST PUSH1 0x1 DUP2 DUP2 SHR SWAP1 DUP3 AND DUP1 PUSH2 0x518F JUMPI PUSH1 0x7F DUP3 AND SWAP2 POP JUMPDEST PUSH1 0x20 DUP3 LT DUP2 SUB PUSH2 0x51AF JUMPI PUSH4 0x4E487B71 PUSH1 0xE0 SHL PUSH1 0x0 MSTORE PUSH1 0x22 PUSH1 0x4 MSTORE PUSH1 0x24 PUSH1 0x0 REVERT JUMPDEST POP SWAP2 SWAP1 POP JUMP JUMPDEST PUSH4 0x4E487B71 PUSH1 0xE0 SHL PUSH1 0x0 MSTORE PUSH1 0x11 PUSH1 0x4 MSTORE PUSH1 0x24 PUSH1 0x0 REVERT JUMPDEST DUP1 DUP3 ADD DUP1 DUP3 GT ISZERO PUSH2 0xBF7 JUMPI PUSH2 0xBF7 PUSH2 0x51B5 JUMP JUMPDEST DUP2 DUP2 SUB DUP2 DUP2 GT ISZERO PUSH2 0xBF7 JUMPI PUSH2 0xBF7 PUSH2 0x51B5 JUMP JUMPDEST PUSH4 0x4E487B71 PUSH1 0xE0 SHL PUSH1 0x0 MSTORE PUSH1 0x32 PUSH1 0x4 MSTORE PUSH1 0x24 PUSH1 0x0 REVERT JUMPDEST DUP1 ISZERO ISZERO DUP2 EQ PUSH2 0x3F26 JUMPI PUSH1 0x0 DUP1 REVERT JUMPDEST PUSH1 0x0 PUSH1 0x20 DUP3 DUP5 SUB SLT ISZERO PUSH2 0x5227 JUMPI PUSH1 0x0 DUP1 REVERT JUMPDEST DUP2 MLOAD PUSH2 0x1AE6 DUP2 PUSH2 0x5207 JUMP JUMPDEST PUSH1 0x0 DUP2 SLOAD PUSH2 0x523F DUP2 PUSH2 0x517B JUMP JUMPDEST DUP1 DUP6 MSTORE PUSH1 0x20 PUSH1 0x1 DUP4 DUP2 AND DUP1 ISZERO PUSH2 0x525C JUMPI PUSH1 0x1 DUP2 EQ PUSH2 0x5276 JUMPI PUSH2 0x52A4 JUMP JUMPDEST PUSH1 0xFF NOT DUP6 AND DUP9 DUP5 ADD MSTORE DUP4 ISZERO ISZERO PUSH1 0x5 SHL DUP9 ADD DUP4 ADD SWAP6 POP PUSH2 0x52A4 JUMP JUMPDEST DUP7 PUSH1 0x0 MSTORE DUP3 PUSH1 0x0 KECCAK256 PUSH1 0x0 JUMPDEST DUP6 DUP2 LT ISZERO PUSH2 0x529C JUMPI DUP2 SLOAD DUP11 DUP3 ADD DUP7 ADD MSTORE SWAP1 DUP4 ADD SWAP1 DUP5 ADD PUSH2 0x5281 JUMP JUMPDEST DUP10 ADD DUP5 ADD SWAP7 POP POP JUMPDEST POP POP POP POP POP SWAP3 SWAP2 POP POP JUMP JUMPDEST PUSH1 0x0 DUP2 SLOAD DUP1 DUP5 MSTORE PUSH1 0x20 DUP1 DUP6 ADD SWAP5 POP DUP4 PUSH1 0x0 MSTORE DUP1 PUSH1 0x0 KECCAK256 PUSH1 0x0 JUMPDEST DUP4 DUP2 LT ISZERO PUSH2 0x4D8E JUMPI DUP2 SLOAD DUP8 MSTORE SWAP6 DUP3 ADD SWAP6 PUSH1 0x1 SWAP2 DUP3 ADD SWAP2 ADD PUSH2 0x52C8 JUMP JUMPDEST PUSH1 0x20 DUP2 MSTORE DUP2 SLOAD PUSH1 0x20 DUP3 ADD MSTORE PUSH1 0x1 DUP3 ADD SLOAD PUSH1 0x40 DUP3 ADD MSTORE PUSH1 0x0 PUSH2 0x5309 PUSH1 0x2 DUP5 ADD SLOAD PUSH1 0xFF AND SWAP1 JUMP JUMPDEST PUSH2 0x5316 PUSH1 0x60 DUP5 ADD DUP3 PUSH2 0x4966 JUMP JUMPDEST POP PUSH1 0x3 DUP4 ADD SLOAD PUSH1 0x80 DUP4 ADD MSTORE PUSH1 0x4 DUP4 ADD SLOAD PUSH1 0xA0 DUP4 ADD MSTORE PUSH2 0x140 DUP1 PUSH1 0xC0 DUP5 ADD MSTORE PUSH2 0x5345 PUSH2 0x160 DUP5 ADD PUSH1 0x5 DUP7 ADD PUSH2 0x5232 JUMP JUMPDEST PUSH1 0x6 DUP6 ADD SLOAD PUSH1 0xE0 DUP6 ADD MSTORE DUP4 DUP2 SUB PUSH1 0x1F NOT ADD PUSH2 0x100 DUP6 ADD MSTORE PUSH2 0x5369 DUP2 PUSH1 0x7 DUP8 ADD PUSH2 0x52AF JUMP JUMPDEST SWAP1 POP PUSH1 0x8 DUP6 ADD SLOAD PUSH2 0x120 DUP6 ADD MSTORE PUSH2 0x5384 PUSH1 0x9 DUP7 ADD SLOAD PUSH1 0xFF AND SWAP1 JUMP JUMPDEST ISZERO ISZERO SWAP2 SWAP1 SWAP4 ADD MSTORE POP SWAP2 SWAP1 POP JUMP JUMPDEST PUSH1 0x0 PUSH1 0x1 DUP3 ADD PUSH2 0x53A3 JUMPI PUSH2 0x53A3 PUSH2 0x51B5 JUMP JUMPDEST POP PUSH1 0x1 ADD SWAP1 JUMP JUMPDEST PUSH1 0x0 DUP3 CALLDATALOAD PUSH1 0x5E NOT DUP4 CALLDATASIZE SUB ADD DUP2 SLT PUSH2 0x53C0 JUMPI PUSH1 0x0 DUP1 REVERT JUMPDEST SWAP2 SWAP1 SWAP2 ADD SWAP3 SWAP2 POP POP JUMP JUMPDEST PUSH1 0x0 DUP1 DUP4 CALLDATALOAD PUSH1 0x1E NOT DUP5 CALLDATASIZE SUB ADD DUP2 SLT PUSH2 0x53E1 JUMPI PUSH1 0x0 DUP1 REVERT JUMPDEST DUP4 ADD DUP1 CALLDATALOAD SWAP2 POP PUSH1 0x1 PUSH1 0x1 PUSH1 0x40 SHL SUB DUP3 GT ISZERO PUSH2 0x53FB JUMPI PUSH1 0x0 DUP1 REVERT JUMPDEST PUSH1 0x20 ADD SWAP2 POP PUSH1 0x5 DUP2 SWAP1 SHL CALLDATASIZE SUB DUP3 SGT ISZERO PUSH2 0x4A81 JUMPI PUSH1 0x0 DUP1 REVERT JUMPDEST PUSH1 0x20 DUP2 MSTORE DUP2 SLOAD PUSH1 0x20 DUP3 ADD MSTORE PUSH1 0x1 DUP3 ADD SLOAD PUSH1 0x40 DUP3 ADD MSTORE PUSH1 0x0 PUSH2 0x5438 PUSH1 0x2 DUP5 ADD SLOAD PUSH1 0xFF AND SWAP1 JUMP JUMPDEST PUSH2 0x5445 PUSH1 0x60 DUP5 ADD DUP3 PUSH2 0x4966 JUMP JUMPDEST POP PUSH1 0x3 DUP4 ADD SLOAD PUSH1 0x80 DUP4 ADD MSTORE PUSH1 0x4 DUP4 ADD SLOAD PUSH1 0xA0 DUP4 ADD MSTORE PUSH2 0x1C0 DUP1 PUSH1 0xC0 DUP5 ADD MSTORE PUSH2 0x5474 PUSH2 0x1E0 DUP5 ADD PUSH1 0x5 DUP7 ADD PUSH2 0x52AF JUMP JUMPDEST PUSH1 0x1F NOT DUP1 DUP6 DUP4 SUB ADD PUSH1 0xE0 DUP7 ADD MSTORE PUSH2 0x548E DUP3 PUSH1 0x6 DUP9 ADD PUSH2 0x5232 JUMP JUMPDEST SWAP2 POP DUP1 DUP6 DUP4 SUB ADD PUSH2 0x100 DUP7 ADD MSTORE PUSH2 0x54A8 DUP3 PUSH1 0x7 DUP9 ADD PUSH2 0x5232 JUMP JUMPDEST SWAP2 POP PUSH2 0x54B8 PUSH1 0x8 DUP8 ADD SLOAD PUSH1 0xFF AND SWAP1 JUMP JUMPDEST ISZERO ISZERO PUSH2 0x120 DUP7 ADD MSTORE DUP5 DUP3 SUB DUP2 ADD PUSH2 0x140 DUP7 ADD MSTORE PUSH2 0x54D8 DUP3 PUSH1 0x9 DUP9 ADD PUSH2 0x5232 JUMP JUMPDEST SWAP2 POP PUSH1 0xA DUP7 ADD SLOAD PUSH2 0x160 DUP7 ADD MSTORE PUSH1 0xB DUP7 ADD SLOAD PUSH2 0x180 DUP7 ADD MSTORE DUP1 DUP6 DUP4 SUB ADD PUSH2 0x1A0 DUP7 ADD MSTORE POP PUSH2 0x5509 DUP2 PUSH1 0xC DUP8 ADD PUSH2 0x52AF JUMP JUMPDEST SWAP1 POP PUSH1 0xD DUP6 ADD SLOAD DUP3 DUP6 ADD MSTORE DUP1 SWAP3 POP POP POP SWAP3 SWAP2 POP POP JUMP JUMPDEST PUSH1 0x20 DUP1 DUP3 MSTORE DUP3 SLOAD SWAP1 DUP3 ADD MSTORE PUSH1 0x1 DUP3 ADD SLOAD PUSH1 0x1 PUSH1 0x1 PUSH1 0xA0 SHL SUB AND PUSH1 0x40 DUP3 ADD MSTORE PUSH1 0x2 DUP3 ADD SLOAD PUSH1 0x60 DUP3 ADD MSTORE PUSH1 0x3 DUP3 ADD SLOAD PUSH1 0x80 DUP3 ADD MSTORE PUSH1 0xE0 PUSH1 0xA0 DUP3 ADD MSTORE PUSH1 0x0 PUSH2 0x556B PUSH2 0x100 DUP4 ADD PUSH1 0x4 DUP6 ADD PUSH2 0x52AF JUMP JUMPDEST PUSH1 0x1F NOT DUP1 DUP5 DUP4 SUB ADD PUSH1 0xC0 DUP6 ADD MSTORE PUSH2 0x5585 DUP3 PUSH1 0x5 DUP8 ADD PUSH2 0x52AF JUMP JUMPDEST SWAP2 POP DUP1 DUP5 DUP4 SUB ADD PUSH1 0xE0 DUP6 ADD MSTORE POP PUSH2 0x559F DUP2 PUSH1 0x6 DUP7 ADD PUSH2 0x52AF JUMP JUMPDEST SWAP5 SWAP4 POP POP POP POP JUMP JUMPDEST PUSH1 0x0 DUP3 CALLDATALOAD PUSH1 0xBE NOT DUP4 CALLDATASIZE SUB ADD DUP2 SLT PUSH2 0x53C0 JUMPI PUSH1 0x0 DUP1 REVERT JUMPDEST PUSH1 0xE DUP2 LT PUSH2 0x3F26 JUMPI PUSH1 0x0 DUP1 REVERT JUMPDEST DUP1 CALLDATALOAD PUSH2 0x48DC DUP2 PUSH2 0x55BD JUMP JUMPDEST PUSH1 0x0 DUP3 PUSH1 0x1F DUP4 ADD SLT PUSH2 0x55E6 JUMPI PUSH1 0x0 DUP1 REVERT JUMPDEST DUP2 CALLDATALOAD PUSH1 0x1 PUSH1 0x1 PUSH1 0x40 SHL SUB DUP2 GT ISZERO PUSH2 0x55FF JUMPI PUSH2 0x55FF PUSH2 0x4C0E JUMP JUMPDEST PUSH2 0x5612 PUSH1 0x1F DUP3 ADD PUSH1 0x1F NOT AND PUSH1 0x20 ADD PUSH2 0x4C4C JUMP JUMPDEST DUP2 DUP2 MSTORE DUP5 PUSH1 0x20 DUP4 DUP7 ADD ADD GT ISZERO PUSH2 0x5627 JUMPI PUSH1 0x0 DUP1 REVERT JUMPDEST DUP2 PUSH1 0x20 DUP6 ADD PUSH1 0x20 DUP4 ADD CALLDATACOPY PUSH1 0x0 SWAP2 DUP2 ADD PUSH1 0x20 ADD SWAP2 SWAP1 SWAP2 MSTORE SWAP4 SWAP3 POP POP POP JUMP JUMPDEST PUSH1 0x0 PUSH1 0xC0 DUP3 DUP5 SUB SLT ISZERO PUSH2 0x5656 JUMPI PUSH1 0x0 DUP1 REVERT JUMPDEST PUSH2 0x565E PUSH2 0x4C24 JUMP JUMPDEST SWAP1 POP PUSH2 0x5669 DUP3 PUSH2 0x55CA JUMP JUMPDEST DUP2 MSTORE PUSH1 0x20 DUP3 ADD CALLDATALOAD PUSH1 0x20 DUP3 ADD MSTORE PUSH1 0x40 DUP3 ADD CALLDATALOAD PUSH1 0x1 PUSH1 0x1 PUSH1 0x40 SHL SUB DUP1 DUP3 GT ISZERO PUSH2 0x568F JUMPI PUSH1 0x0 DUP1 REVERT JUMPDEST PUSH2 0x569B DUP6 DUP4 DUP7 ADD PUSH2 0x55D5 JUMP JUMPDEST PUSH1 0x40 DUP5 ADD MSTORE PUSH1 0x60 DUP5 ADD CALLDATALOAD PUSH1 0x60 DUP5 ADD MSTORE PUSH1 0x80 DUP5 ADD CALLDATALOAD SWAP2 POP DUP1 DUP3 GT ISZERO PUSH2 0x56BE JUMPI PUSH1 0x0 DUP1 REVERT JUMPDEST POP PUSH2 0x56CB DUP5 DUP3 DUP6 ADD PUSH2 0x4C7C JUMP JUMPDEST PUSH1 0x80 DUP4 ADD MSTORE POP PUSH1 0xA0 DUP3 ADD CALLDATALOAD PUSH1 0xA0 DUP3 ADD MSTORE SWAP3 SWAP2 POP POP JUMP JUMPDEST PUSH1 0x0 PUSH2 0xBF7 CALLDATASIZE DUP4 PUSH2 0x5644 JUMP JUMPDEST PUSH1 0x0 DUP3 CALLDATALOAD PUSH1 0x3E NOT DUP4 CALLDATASIZE SUB ADD DUP2 SLT PUSH2 0x53C0 JUMPI PUSH1 0x0 DUP1 REVERT JUMPDEST PUSH1 0x0 PUSH1 0x40 DUP3 CALLDATASIZE SUB SLT ISZERO PUSH2 0x5715 JUMPI PUSH1 0x0 DUP1 REVERT JUMPDEST PUSH1 0x40 MLOAD PUSH1 0x40 DUP2 ADD PUSH1 0x1 PUSH1 0x1 PUSH1 0x40 SHL SUB DUP3 DUP3 LT DUP2 DUP4 GT OR ISZERO PUSH2 0x5738 JUMPI PUSH2 0x5738 PUSH2 0x4C0E JUMP JUMPDEST DUP2 PUSH1 0x40 MSTORE DUP5 CALLDATALOAD DUP4 MSTORE PUSH1 0x20 DUP6 ADD CALLDATALOAD SWAP2 POP DUP1 DUP3 GT ISZERO PUSH2 0x5754 JUMPI PUSH1 0x0 DUP1 REVERT JUMPDEST POP PUSH2 0x5761 CALLDATASIZE DUP3 DUP7 ADD PUSH2 0x5644 JUMP JUMPDEST PUSH1 0x20 DUP4 ADD MSTORE POP SWAP3 SWAP2 POP POP JUMP JUMPDEST PUSH1 0x0 DUP3 PUSH2 0x578A JUMPI PUSH4 0x4E487B71 PUSH1 0xE0 SHL PUSH1 0x0 MSTORE PUSH1 0x12 PUSH1 0x4 MSTORE PUSH1 0x24 PUSH1 0x0 REVERT JUMPDEST POP DIV SWAP1 JUMP JUMPDEST PUSH1 0x0 DUP3 CALLDATALOAD PUSH2 0x1BE NOT DUP4 CALLDATASIZE SUB ADD DUP2 SLT PUSH2 0x53C0 JUMPI PUSH1 0x0 DUP1 REVERT JUMPDEST PUSH1 0x0 DUP2 CALLDATALOAD PUSH2 0xBF7 DUP2 PUSH2 0x55BD JUMP JUMPDEST PUSH1 0xE DUP3 LT PUSH2 0x57D1 JUMPI PUSH4 0x4E487B71 PUSH1 0xE0 SHL PUSH1 0x0 MSTORE PUSH1 0x21 PUSH1 0x4 MSTORE PUSH1 0x24 PUSH1 0x0 REVERT JUMPDEST PUSH1 0xFF NOT DUP2 SLOAD AND PUSH1 0xFF DUP4 AND DUP2 OR DUP3 SSTORE POP POP POP JUMP JUMPDEST DUP1 DUP3 MUL DUP2 ISZERO DUP3 DUP3 DIV DUP5 EQ OR PUSH2 0xBF7 JUMPI PUSH2 0xBF7 PUSH2 0x51B5 JUMP JUMPDEST JUMPDEST DUP2 DUP2 LT ISZERO PUSH2 0x112F JUMPI PUSH1 0x0 DUP2 SSTORE PUSH1 0x1 ADD PUSH2 0x57FC JUMP JUMPDEST PUSH1 0x1 PUSH1 0x1 PUSH1 0x40 SHL SUB DUP4 GT ISZERO PUSH2 0x5827 JUMPI PUSH2 0x5827 PUSH2 0x4C0E JUMP JUMPDEST PUSH9 0x10000000000000000 DUP4 GT ISZERO PUSH2 0x5840 JUMPI PUSH2 0x5840 PUSH2 0x4C0E JUMP JUMPDEST DUP1 SLOAD DUP4 DUP3 SSTORE DUP1 DUP5 LT ISZERO PUSH2 0x5866 JUMPI DUP2 PUSH1 0x0 MSTORE PUSH1 0x20 PUSH1 0x0 KECCAK256 PUSH2 0x5864 DUP3 DUP3 ADD DUP7 DUP4 ADD PUSH2 0x57FB JUMP JUMPDEST POP JUMPDEST POP DUP2 DUP2 PUSH1 0x0 MSTORE PUSH1 0x20 DUP1 PUSH1 0x0 KECCAK256 PUSH1 0x0 JUMPDEST DUP7 DUP2 LT ISZERO PUSH2 0x588F JUMPI DUP4 CALLDATALOAD DUP3 DUP3 ADD SSTORE SWAP3 DUP3 ADD SWAP3 PUSH1 0x1 ADD PUSH2 0x5875 JUMP JUMPDEST POP POP POP POP POP POP POP JUMP JUMPDEST PUSH1 0x0 DUP1 DUP4 CALLDATALOAD PUSH1 0x1E NOT DUP5 CALLDATASIZE SUB ADD DUP2 SLT PUSH2 0x58AF JUMPI PUSH1 0x0 DUP1 REVERT JUMPDEST DUP4 ADD DUP1 CALLDATALOAD SWAP2 POP PUSH1 0x1 PUSH1 0x1 PUSH1 0x40 SHL SUB DUP3 GT ISZERO PUSH2 0x58C9 JUMPI PUSH1 0x0 DUP1 REVERT JUMPDEST PUSH1 0x20 ADD SWAP2 POP CALLDATASIZE DUP2 SWAP1 SUB DUP3 SGT ISZERO PUSH2 0x4A81 JUMPI PUSH1 0x0 DUP1 REVERT JUMPDEST PUSH1 0x1F DUP3 GT ISZERO PUSH2 0x1275 JUMPI DUP1 PUSH1 0x0 MSTORE PUSH1 0x20 PUSH1 0x0 KECCAK256 PUSH1 0x1F DUP5 ADD PUSH1 0x5 SHR DUP2 ADD PUSH1 0x20 DUP6 LT ISZERO PUSH2 0x5905 JUMPI POP DUP1 JUMPDEST PUSH2 0x5917 PUSH1 0x1F DUP6 ADD PUSH1 0x5 SHR DUP4 ADD DUP3 PUSH2 0x57FB JUMP JUMPDEST POP POP POP POP POP JUMP JUMPDEST PUSH1 0x0 NOT PUSH1 0x3 DUP4 SWAP1 SHL SHR NOT AND PUSH1 0x1 SWAP2 SWAP1 SWAP2 SHL OR SWAP1 JUMP JUMPDEST PUSH1 0x1 PUSH1 0x1 PUSH1 0x40 SHL SUB DUP4 GT ISZERO PUSH2 0x594A JUMPI PUSH2 0x594A PUSH2 0x4C0E JUMP JUMPDEST PUSH2 0x595E DUP4 PUSH2 0x5958 DUP4 SLOAD PUSH2 0x517B JUMP JUMPDEST DUP4 PUSH2 0x58DE JUMP JUMPDEST PUSH1 0x0 PUSH1 0x1F DUP5 GT PUSH1 0x1 DUP2 EQ PUSH2 0x598C JUMPI PUSH1 0x0 DUP6 ISZERO PUSH2 0x597A JUMPI POP DUP4 DUP3 ADD CALLDATALOAD JUMPDEST PUSH2 0x5984 DUP7 DUP3 PUSH2 0x591E JUMP JUMPDEST DUP5 SSTORE POP PUSH2 0x5917 JUMP JUMPDEST PUSH1 0x0 DUP4 DUP2 MSTORE PUSH1 0x20 SWAP1 KECCAK256 PUSH1 0x1F NOT DUP7 AND SWAP1 DUP4 JUMPDEST DUP3 DUP2 LT ISZERO PUSH2 0x59BD JUMPI DUP7 DUP6 ADD CALLDATALOAD DUP3 SSTORE PUSH1 0x20 SWAP5 DUP6 ADD SWAP5 PUSH1 0x1 SWAP1 SWAP3 ADD SWAP2 ADD PUSH2 0x599D JUMP JUMPDEST POP DUP7 DUP3 LT ISZERO PUSH2 0x59DA JUMPI PUSH1 0x0 NOT PUSH1 0xF8 DUP9 PUSH1 0x3 SHL AND SHR NOT DUP5 DUP8 ADD CALLDATALOAD AND DUP2 SSTORE JUMPDEST POP POP PUSH1 0x1 DUP6 PUSH1 0x1 SHL ADD DUP4 SSTORE POP POP POP POP POP JUMP JUMPDEST PUSH1 0x0 DUP2 CALLDATALOAD PUSH2 0xBF7 DUP2 PUSH2 0x5207 JUMP JUMPDEST DUP2 CALLDATALOAD DUP2 SSTORE PUSH1 0x20 DUP3 ADD CALLDATALOAD PUSH1 0x1 DUP3 ADD SSTORE PUSH2 0x5A1F PUSH2 0x5A16 PUSH1 0x40 DUP5 ADD PUSH2 0x57A6 JUMP JUMPDEST PUSH1 0x2 DUP4 ADD PUSH2 0x57B3 JUMP JUMPDEST PUSH1 0x60 DUP3 ADD CALLDATALOAD PUSH1 0x3 DUP3 ADD SSTORE PUSH1 0x80 DUP3 ADD CALLDATALOAD PUSH1 0x4 DUP3 ADD SSTORE PUSH2 0x5A40 PUSH1 0xA0 DUP4 ADD DUP4 PUSH2 0x53CA JUMP JUMPDEST PUSH2 0x5A4E DUP2 DUP4 PUSH1 0x5 DUP7 ADD PUSH2 0x5810 JUMP JUMPDEST POP POP PUSH2 0x5A5D PUSH1 0xC0 DUP4 ADD DUP4 PUSH2 0x5898 JUMP JUMPDEST PUSH2 0x5A6B DUP2 DUP4 PUSH1 0x6 DUP7 ADD PUSH2 0x5933 JUMP JUMPDEST POP POP PUSH2 0x5A7A PUSH1 0xE0 DUP4 ADD DUP4 PUSH2 0x5898 JUMP JUMPDEST PUSH2 0x5A88 DUP2 DUP4 PUSH1 0x7 DUP7 ADD PUSH2 0x5933 JUMP JUMPDEST POP POP PUSH2 0x5AB3 PUSH2 0x5A9A PUSH2 0x100 DUP5 ADD PUSH2 0x59EC JUMP JUMPDEST PUSH1 0x8 DUP4 ADD PUSH1 0xFF NOT DUP2 SLOAD AND PUSH1 0xFF DUP4 ISZERO ISZERO AND DUP2 OR DUP3 SSTORE POP POP POP JUMP JUMPDEST PUSH2 0x5AC1 PUSH2 0x120 DUP4 ADD DUP4 PUSH2 0x5898 JUMP JUMPDEST PUSH2 0x5ACF DUP2 DUP4 PUSH1 0x9 DUP7 ADD PUSH2 0x5933 JUMP JUMPDEST POP POP PUSH2 0x140 DUP3 ADD CALLDATALOAD PUSH1 0xA DUP3 ADD SSTORE PUSH2 0x160 DUP3 ADD CALLDATALOAD PUSH1 0xB DUP3 ADD SSTORE PUSH2 0x5AF5 PUSH2 0x180 DUP4 ADD DUP4 PUSH2 0x53CA JUMP JUMPDEST PUSH2 0x5B03 DUP2 DUP4 PUSH1 0xC DUP7 ADD PUSH2 0x5810 JUMP JUMPDEST POP POP PUSH2 0x1A0 DUP3 ADD CALLDATALOAD PUSH1 0xD DUP3 ADD SSTORE POP POP JUMP JUMPDEST DUP2 DUP2 SUB PUSH2 0x5B1F JUMPI POP POP JUMP JUMPDEST PUSH2 0x5B29 DUP3 SLOAD PUSH2 0x517B JUMP JUMPDEST PUSH1 0x1 PUSH1 0x1 PUSH1 0x40 SHL SUB DUP2 GT ISZERO PUSH2 0x5B40 JUMPI PUSH2 0x5B40 PUSH2 0x4C0E JUMP JUMPDEST PUSH2 0x5B54 DUP2 PUSH2 0x5B4E DUP5 SLOAD PUSH2 0x517B JUMP JUMPDEST DUP5 PUSH2 0x58DE JUMP JUMPDEST PUSH1 0x0 PUSH1 0x1F DUP3 GT PUSH1 0x1 DUP2 EQ PUSH2 0x5B82 JUMPI PUSH1 0x0 DUP4 ISZERO PUSH2 0x5B70 JUMPI POP DUP5 DUP3 ADD SLOAD JUMPDEST PUSH2 0x5B7A DUP5 DUP3 PUSH2 0x591E JUMP JUMPDEST DUP6 SSTORE POP PUSH2 0x5917 JUMP JUMPDEST PUSH1 0x0 DUP6 DUP2 MSTORE PUSH1 0x20 SWAP1 KECCAK256 PUSH1 0x1F NOT DUP5 AND SWAP1 PUSH1 0x0 DUP7 DUP2 MSTORE PUSH1 0x20 SWAP1 KECCAK256 DUP5 JUMPDEST DUP4 DUP2 LT ISZERO PUSH2 0x5BBC JUMPI DUP3 DUP7 ADD SLOAD DUP3 SSTORE PUSH1 0x1 SWAP6 DUP7 ADD SWAP6 SWAP1 SWAP2 ADD SWAP1 PUSH1 0x20 ADD PUSH2 0x5B9C JUMP JUMPDEST POP DUP6 DUP4 LT ISZERO PUSH2 0x5BDA JUMPI DUP2 DUP6 ADD SLOAD PUSH1 0x0 NOT PUSH1 0x3 DUP9 SWAP1 SHL PUSH1 0xF8 AND SHR NOT AND DUP2 SSTORE JUMPDEST POP POP POP POP POP PUSH1 0x1 SWAP1 DUP2 SHL ADD SWAP1 SSTORE POP JUMP JUMPDEST DUP2 MLOAD PUSH1 0x1 PUSH1 0x1 PUSH1 0x40 SHL SUB DUP2 GT ISZERO PUSH2 0x5C03 JUMPI PUSH2 0x5C03 PUSH2 0x4C0E JUMP JUMPDEST PUSH2 0x5C11 DUP2 PUSH2 0x5B4E DUP5 SLOAD PUSH2 0x517B JUMP JUMPDEST PUSH1 0x20 DUP1 PUSH1 0x1F DUP4 GT PUSH1 0x1 DUP2 EQ PUSH2 0x5C40 JUMPI PUSH1 0x0 DUP5 ISZERO PUSH2 0x5C2E JUMPI POP DUP6 DUP4 ADD MLOAD JUMPDEST PUSH2 0x5C38 DUP6 DUP3 PUSH2 0x591E JUMP JUMPDEST DUP7 SSTORE POP PUSH2 0x5C99 JUMP JUMPDEST PUSH1 0x0 DUP6 DUP2 MSTORE PUSH1 0x20 DUP2 KECCAK256 PUSH1 0x1F NOT DUP7 AND SWAP2 JUMPDEST DUP3 DUP2 LT ISZERO PUSH2 0x5C6F JUMPI DUP9 DUP7 ADD MLOAD DUP3 SSTORE SWAP5 DUP5 ADD SWAP5 PUSH1 0x1 SWAP1 SWAP2 ADD SWAP1 DUP5 ADD PUSH2 0x5C50 JUMP JUMPDEST POP DUP6 DUP3 LT ISZERO PUSH2 0x5C8D JUMPI DUP8 DUP6 ADD MLOAD PUSH1 0x0 NOT PUSH1 0x3 DUP9 SWAP1 SHL PUSH1 0xF8 AND SHR NOT AND DUP2 SSTORE JUMPDEST POP POP PUSH1 0x1 DUP5 PUSH1 0x1 SHL ADD DUP6 SSTORE JUMPDEST POP POP POP POP POP POP JUMP JUMPDEST PUSH1 0x20 DUP2 MSTORE DUP2 MLOAD PUSH1 0x20 DUP3 ADD MSTORE PUSH1 0x20 DUP3 ADD MLOAD PUSH1 0x40 DUP3 ADD MSTORE PUSH1 0x40 DUP3 ADD MLOAD PUSH1 0x60 DUP3 ADD MSTORE PUSH1 0x60 DUP3 ADD MLOAD PUSH1 0x80 DUP3 ADD MSTORE PUSH1 0x80 DUP3 ADD MLOAD PUSH1 0xA0 DUP3 ADD MSTORE PUSH1 0x0 PUSH1 0xA0 DUP4 ADD MLOAD PUSH1 0xE0 PUSH1 0xC0 DUP5 ADD MSTORE PUSH2 0x5CF0 PUSH2 0x100 DUP5 ADD DUP3 PUSH2 0x486C JUMP JUMPDEST SWAP1 POP PUSH1 0xC0 DUP5 ADD MLOAD PUSH1 0xE0 DUP5 ADD MSTORE DUP1 SWAP2 POP POP SWAP3 SWAP2 POP POP JUMP JUMPDEST DUP2 SLOAD DUP2 MSTORE PUSH1 0x1 DUP3 ADD SLOAD PUSH1 0x1 PUSH1 0x1 PUSH1 0xA0 SHL SUB AND PUSH1 0x20 DUP3 ADD MSTORE PUSH1 0x2 DUP3 ADD SLOAD PUSH1 0x40 DUP3 ADD MSTORE PUSH1 0x3 DUP3 ADD SLOAD PUSH1 0xFF AND ISZERO ISZERO PUSH1 0x60 DUP3 ADD MSTORE PUSH1 0x80 DUP2 ADD PUSH2 0xBF7 JUMP JUMPDEST DUP4 DUP2 MSTORE PUSH1 0x40 PUSH1 0x20 DUP3 ADD MSTORE DUP2 PUSH1 0x40 DUP3 ADD MSTORE DUP2 DUP4 PUSH1 0x60 DUP4 ADD CALLDATACOPY PUSH1 0x0 DUP2 DUP4 ADD PUSH1 0x60 SWAP1 DUP2 ADD SWAP2 SWAP1 SWAP2 MSTORE PUSH1 0x1F SWAP1 SWAP3 ADD PUSH1 0x1F NOT AND ADD ADD SWAP3 SWAP2 POP POP JUMP JUMPDEST PUSH1 0x20 DUP2 MSTORE PUSH1 0x0 PUSH2 0x1AE6 PUSH1 0x20 DUP4 ADD DUP5 PUSH2 0x4D99 JUMP INVALID SWAP7 0xE9 SWAP2 0x4F DUP8 0xCA CREATE2 ADDRESS PUSH26 0xF3441EE12036434BC4EA93F85DF92BEB30C7C918984E9FA26469 PUSH17 0x6673582212204CF6364AC80FBCA287541B DUP1 0xB6 0xE9 DUP3 0xD1 PUSH19 0x5CBBC4585887F3B548D4CBE702D90864736F6C PUSH4 0x43000813 STOP CALLER "},"methodIdentifiers":{"accountIdByAddress(address)":"6717d7a8","accountIds(uint256)":"33c24bd3","accounts(uint256)":"f2a40db8","admin()":"f851a440","adminAddTopics(string[])":"dbc5bdc4","adminMakeCampaigns((uint256,(uint8,uint256,string,uint256,uint256[],uint256))[])":"58cea7d2","adminMakeCollabs((uint256,uint256)[])":"9938e929","adminMakeHandles((uint256,uint256,uint8,uint256,uint256,uint256[],string,string,bool,string,uint256,uint256,uint256[],uint256)[])":"894d71e1","adminSetPrice((uint256,uint256)[])":"4ba593c6","adminSetScoreAndTopics((uint256,uint256,uint256[])[])":"3ec62c0b","adminTreasury()":"96cad0db","adminVoteCountIdByCandidate(address)":"4bd38e26","adminVoteCounts(uint256)":"fa7fb4d8","allAdminVoteCounts()":"cdada3b6","allowance(address,address)":"dd62ed3e","applyHandleUpdates(uint256[])":"90537d1f","applyVotedFeeRate()":"6f1c7617","approve(address,uint256)":"095ea7b3","balanceOf(address)":"70a08231","campaigns(uint256)":"141961bc","cap()":"355274ea","claimAccounts((uint256,address)[])":"402c5133","claimFeePoolShare(address[])":"bd5ff423","claimedAsamiTokens()":"1677aa3d","collabs(uint256)":"7d98e20f","decimals()":"313ce567","decreaseAllowance(address,uint256)":"a457c2d7","defaultFeeRate()":"07d33455","feePool()":"ae2e933b","feeRate()":"978bbdb9","feeRateVotes(address)":"81d036f5","getBalanceBeforeRecentChanges(address)":"6782eb0d","getCampaigns()":"a6b03633","getClaimedAsamiTokens()":"ff3f1886","getCurrentCycle()":"be26ed7f","getCycleLength()":"4259d8a2","getFeePoolBeforeRecentChanges()":"20841544","getHandles()":"c3d03cd4","getHolders()":"5fe8e7cc","getLatestAdminElections()":"419a7c5d","getNextCycle()":"79dec48b","getRecentBalanceChange(address)":"74f1ea16","getTopics()":"fee01177","handles(uint256)":"fdb265b0","holders(uint256)":"2a11ced0","increaseAllowance(address,uint256)":"39509351","isSubset(uint256[],uint256[])":"8b69633d","lastAdminElection()":"8bec13cf","lastFeePoolShareCycles(address)":"6bd1c230","lastVotedFeeRateAppliedOn()":"68841a46","latestAdminElections(uint256)":"1b06cfbc","makeCampaigns((uint8,uint256,string,uint256,uint256[],uint256)[])":"46c33dd5","name()":"06fdde03","proclaimCycleAdminWinner(address)":"5d03e487","recentBalanceChanges(uint256,address)":"080b0648","recentFeePoolChanges(uint256)":"0dff55ed","recentTokens(uint256)":"139fd1c2","reimburseDueCampaigns(uint256[])":"3ca75e56","removeAdminVote()":"f398c241","removeFeeRateVote()":"d8c44f50","setAdminAddress(address)":"2c1e816d","setPrice(uint256,uint256)":"f7d97577","submitAdminVote(address)":"f3401bc3","submitFeeRateVote(uint256)":"9dfceaaa","submittedAdminVotes(address)":"ec8b436c","symbol()":"95d89b41","topics(uint256)":"18d9adab","totalSupply()":"18160ddd","trackedHolders(address)":"6b6a4ad0","transfer(address,uint256)":"a9059cbb","transferFrom(address,address,uint256)":"23b872dd","vestAdminVotes(address[])":"9bd40aee","vestedAdminVotesTotal()":"e4c1be2e","votedFeeRate()":"5e613423","votedFeeRateVoteCount()":"9314b214"}}}}}