{
  "contractName": "Asami",
  "abi": [
    {
      "inputs": [
        {
          "internalType": "address",
          "name": "_dollarOnChainAddress",
          "type": "address"
        }
      ],
      "stateMutability": "nonpayable",
      "type": "constructor"
    },
    {
      "anonymous": false,
      "inputs": [
        {
          "indexed": false,
          "internalType": "string",
          "name": "",
          "type": "string"
        }
      ],
      "name": "DebugEvent",
      "type": "event"
    },
    {
      "anonymous": false,
      "inputs": [
        {
          "indexed": true,
          "internalType": "address",
          "name": "previousOwner",
          "type": "address"
        },
        {
          "indexed": true,
          "internalType": "address",
          "name": "newOwner",
          "type": "address"
        }
      ],
      "name": "OwnershipTransferred",
      "type": "event"
    },
    {
      "inputs": [],
      "name": "owner",
      "outputs": [
        {
          "internalType": "address",
          "name": "",
          "type": "address"
        }
      ],
      "stateMutability": "view",
      "type": "function"
    },
    {
      "inputs": [],
      "name": "renounceOwnership",
      "outputs": [],
      "stateMutability": "nonpayable",
      "type": "function"
    },
    {
      "inputs": [
        {
          "internalType": "address",
          "name": "newOwner",
          "type": "address"
        }
      ],
      "name": "transferOwnership",
      "outputs": [],
      "stateMutability": "nonpayable",
      "type": "function"
    },
    {
      "inputs": [
        {
          "internalType": "uint256",
          "name": "_funding",
          "type": "uint256"
        },
        {
          "internalType": "uint256",
          "name": "_startDate",
          "type": "uint256"
        },
        {
          "internalType": "string",
          "name": "_requestedContent",
          "type": "string"
        },
        {
          "components": [
            {
              "internalType": "uint256",
              "name": "rewardAmount",
              "type": "uint256"
            },
            {
              "internalType": "address",
              "name": "rewardAddress",
              "type": "address"
            },
            {
              "internalType": "string",
              "name": "nostrHexPubkey",
              "type": "string"
            },
            {
              "internalType": "uint256",
              "name": "nostrAffineX",
              "type": "uint256"
            },
            {
              "internalType": "uint256",
              "name": "nostrAffineY",
              "type": "uint256"
            }
          ],
          "internalType": "struct AsamiNostr.NewOffer[]",
          "name": "_newOffers",
          "type": "tuple[]"
        }
      ],
      "name": "nostrCreateCampaign",
      "outputs": [],
      "stateMutability": "nonpayable",
      "type": "function"
    },
    {
      "inputs": [
        {
          "components": [
            {
              "internalType": "uint256",
              "name": "funding",
              "type": "uint256"
            },
            {
              "internalType": "uint256",
              "name": "startDate",
              "type": "uint256"
            },
            {
              "internalType": "uint256",
              "name": "socialNetworkId",
              "type": "uint256"
            },
            {
              "internalType": "string",
              "name": "rulesUrl",
              "type": "string"
            },
            {
              "internalType": "bytes32",
              "name": "rulesHash",
              "type": "bytes32"
            },
            {
              "internalType": "address",
              "name": "oracleAddress",
              "type": "address"
            },
            {
              "internalType": "uint256",
              "name": "oracleFee",
              "type": "uint256"
            },
            {
              "components": [
                {
                  "internalType": "uint256",
                  "name": "rewardAmount",
                  "type": "uint256"
                },
                {
                  "internalType": "address",
                  "name": "rewardAddress",
                  "type": "address"
                },
                {
                  "internalType": "string",
                  "name": "username",
                  "type": "string"
                }
              ],
              "internalType": "struct AsamiClassic.NewOffer[]",
              "name": "newOffers",
              "type": "tuple[]"
            }
          ],
          "internalType": "struct Asami.NewClassicCampaign",
          "name": "_c",
          "type": "tuple"
        }
      ],
      "name": "classicCreateCampaign",
      "outputs": [],
      "stateMutability": "nonpayable",
      "type": "function"
    },
    {
      "inputs": [
        {
          "components": [
            {
              "internalType": "uint256",
              "name": "campaignId",
              "type": "uint256"
            },
            {
              "internalType": "uint256",
              "name": "offerId",
              "type": "uint256"
            }
          ],
          "internalType": "struct Asami.OfferPointer",
          "name": "_p",
          "type": "tuple"
        }
      ],
      "name": "nostrChallenge",
      "outputs": [],
      "stateMutability": "nonpayable",
      "type": "function"
    },
    {
      "inputs": [
        {
          "components": [
            {
              "internalType": "uint256",
              "name": "campaignId",
              "type": "uint256"
            },
            {
              "internalType": "uint256",
              "name": "offerId",
              "type": "uint256"
            }
          ],
          "internalType": "struct Asami.OfferPointer",
          "name": "_p",
          "type": "tuple"
        },
        {
          "components": [
            {
              "internalType": "uint256",
              "name": "createdAt",
              "type": "uint256"
            },
            {
              "internalType": "uint256",
              "name": "sigR",
              "type": "uint256"
            },
            {
              "internalType": "uint256",
              "name": "sigS",
              "type": "uint256"
            }
          ],
          "internalType": "struct AsamiNostr.MessageProof",
          "name": "_proof",
          "type": "tuple"
        }
      ],
      "name": "nostrConfirm",
      "outputs": [],
      "stateMutability": "nonpayable",
      "type": "function"
    },
    {
      "inputs": [
        {
          "components": [
            {
              "internalType": "uint256",
              "name": "campaignId",
              "type": "uint256"
            },
            {
              "internalType": "uint256",
              "name": "offerId",
              "type": "uint256"
            }
          ],
          "internalType": "struct Asami.OfferPointer",
          "name": "_p",
          "type": "tuple"
        }
      ],
      "name": "nostrRenounce",
      "outputs": [],
      "stateMutability": "nonpayable",
      "type": "function"
    },
    {
      "inputs": [
        {
          "components": [
            {
              "internalType": "uint256",
              "name": "campaignId",
              "type": "uint256"
            },
            {
              "internalType": "uint256",
              "name": "offerId",
              "type": "uint256"
            }
          ],
          "internalType": "struct Asami.OfferPointer",
          "name": "_p",
          "type": "tuple"
        },
        {
          "components": [
            {
              "internalType": "string",
              "name": "content",
              "type": "string"
            },
            {
              "internalType": "string",
              "name": "tags",
              "type": "string"
            },
            {
              "internalType": "uint256",
              "name": "createdAt",
              "type": "uint256"
            },
            {
              "internalType": "uint256",
              "name": "sigR",
              "type": "uint256"
            },
            {
              "internalType": "uint256",
              "name": "sigS",
              "type": "uint256"
            }
          ],
          "internalType": "struct AsamiNostr.DeletionProof",
          "name": "_deletionProof",
          "type": "tuple"
        }
      ],
      "name": "nostrReportConfirmed",
      "outputs": [],
      "stateMutability": "nonpayable",
      "type": "function"
    },
    {
      "inputs": [
        {
          "components": [
            {
              "internalType": "uint256",
              "name": "campaignId",
              "type": "uint256"
            },
            {
              "internalType": "uint256",
              "name": "offerId",
              "type": "uint256"
            }
          ],
          "internalType": "struct Asami.OfferPointer",
          "name": "_p",
          "type": "tuple"
        },
        {
          "components": [
            {
              "internalType": "uint256",
              "name": "createdAt",
              "type": "uint256"
            },
            {
              "internalType": "uint256",
              "name": "sigR",
              "type": "uint256"
            },
            {
              "internalType": "uint256",
              "name": "sigS",
              "type": "uint256"
            }
          ],
          "internalType": "struct AsamiNostr.MessageProof",
          "name": "_messageProof",
          "type": "tuple"
        },
        {
          "components": [
            {
              "internalType": "string",
              "name": "content",
              "type": "string"
            },
            {
              "internalType": "string",
              "name": "tags",
              "type": "string"
            },
            {
              "internalType": "uint256",
              "name": "createdAt",
              "type": "uint256"
            },
            {
              "internalType": "uint256",
              "name": "sigR",
              "type": "uint256"
            },
            {
              "internalType": "uint256",
              "name": "sigS",
              "type": "uint256"
            }
          ],
          "internalType": "struct AsamiNostr.DeletionProof",
          "name": "_deletionProof",
          "type": "tuple"
        }
      ],
      "name": "nostrReportAssumed",
      "outputs": [],
      "stateMutability": "nonpayable",
      "type": "function"
    },
    {
      "inputs": [
        {
          "components": [
            {
              "internalType": "uint256",
              "name": "campaignId",
              "type": "uint256"
            },
            {
              "internalType": "uint256",
              "name": "offerId",
              "type": "uint256"
            }
          ],
          "internalType": "struct Asami.OfferPointer",
          "name": "_p",
          "type": "tuple"
        }
      ],
      "name": "classicChallenge",
      "outputs": [],
      "stateMutability": "nonpayable",
      "type": "function"
    },
    {
      "inputs": [
        {
          "components": [
            {
              "internalType": "uint256",
              "name": "campaignId",
              "type": "uint256"
            },
            {
              "internalType": "uint256",
              "name": "offerId",
              "type": "uint256"
            }
          ],
          "internalType": "struct Asami.OfferPointer",
          "name": "_p",
          "type": "tuple"
        }
      ],
      "name": "classicRequestConfirmation",
      "outputs": [],
      "stateMutability": "nonpayable",
      "type": "function"
    },
    {
      "inputs": [
        {
          "components": [
            {
              "internalType": "uint256",
              "name": "campaignId",
              "type": "uint256"
            },
            {
              "internalType": "uint256",
              "name": "offerId",
              "type": "uint256"
            }
          ],
          "internalType": "struct Asami.OfferPointer",
          "name": "_p",
          "type": "tuple"
        },
        {
          "internalType": "bool",
          "name": "_found",
          "type": "bool"
        }
      ],
      "name": "classicConfirm",
      "outputs": [],
      "stateMutability": "nonpayable",
      "type": "function"
    },
    {
      "inputs": [
        {
          "components": [
            {
              "internalType": "uint256",
              "name": "campaignId",
              "type": "uint256"
            },
            {
              "internalType": "uint256",
              "name": "offerId",
              "type": "uint256"
            }
          ],
          "internalType": "struct Asami.OfferPointer",
          "name": "_p",
          "type": "tuple"
        },
        {
          "internalType": "bool",
          "name": "_found",
          "type": "bool"
        }
      ],
      "name": "classicConfirmFree",
      "outputs": [],
      "stateMutability": "nonpayable",
      "type": "function"
    },
    {
      "inputs": [
        {
          "components": [
            {
              "internalType": "uint256",
              "name": "campaignId",
              "type": "uint256"
            },
            {
              "internalType": "uint256",
              "name": "offerId",
              "type": "uint256"
            }
          ],
          "internalType": "struct Asami.OfferPointer",
          "name": "_p",
          "type": "tuple"
        }
      ],
      "name": "classicRenounce",
      "outputs": [],
      "stateMutability": "nonpayable",
      "type": "function"
    },
    {
      "inputs": [
        {
          "components": [
            {
              "internalType": "uint256",
              "name": "campaignId",
              "type": "uint256"
            },
            {
              "internalType": "uint256",
              "name": "offerId",
              "type": "uint256"
            }
          ],
          "internalType": "struct Asami.OfferPointer",
          "name": "_p",
          "type": "tuple"
        }
      ],
      "name": "classicReportDeletion",
      "outputs": [],
      "stateMutability": "nonpayable",
      "type": "function"
    },
    {
      "inputs": [
        {
          "components": [
            {
              "internalType": "uint256",
              "name": "campaignId",
              "type": "uint256"
            },
            {
              "internalType": "uint256",
              "name": "offerId",
              "type": "uint256"
            }
          ],
          "internalType": "struct Asami.OfferPointer",
          "name": "_p",
          "type": "tuple"
        },
        {
          "internalType": "bool",
          "name": "_wasDeleted",
          "type": "bool"
        }
      ],
      "name": "classicConfirmDeletion",
      "outputs": [],
      "stateMutability": "nonpayable",
      "type": "function"
    },
    {
      "inputs": [
        {
          "internalType": "address",
          "name": "_collaborator",
          "type": "address"
        }
      ],
      "name": "getCollectableCollaboratorOffers",
      "outputs": [
        {
          "components": [
            {
              "internalType": "uint256",
              "name": "campaignId",
              "type": "uint256"
            },
            {
              "internalType": "uint256",
              "name": "offerId",
              "type": "uint256"
            }
          ],
          "internalType": "struct Asami.OfferPointer[]",
          "name": "",
          "type": "tuple[]"
        },
        {
          "components": [
            {
              "internalType": "uint256",
              "name": "campaignId",
              "type": "uint256"
            },
            {
              "internalType": "uint256",
              "name": "offerId",
              "type": "uint256"
            }
          ],
          "internalType": "struct Asami.OfferPointer[]",
          "name": "",
          "type": "tuple[]"
        }
      ],
      "stateMutability": "view",
      "type": "function"
    },
    {
      "inputs": [
        {
          "internalType": "address",
          "name": "_collaborator",
          "type": "address"
        },
        {
          "components": [
            {
              "internalType": "uint256",
              "name": "campaignId",
              "type": "uint256"
            },
            {
              "internalType": "uint256",
              "name": "offerId",
              "type": "uint256"
            }
          ],
          "internalType": "struct Asami.OfferPointer[]",
          "name": "_nostrPointers",
          "type": "tuple[]"
        },
        {
          "components": [
            {
              "internalType": "uint256",
              "name": "campaignId",
              "type": "uint256"
            },
            {
              "internalType": "uint256",
              "name": "offerId",
              "type": "uint256"
            }
          ],
          "internalType": "struct Asami.OfferPointer[]",
          "name": "_classicPointers",
          "type": "tuple[]"
        }
      ],
      "name": "collectCollaboratorOffers",
      "outputs": [],
      "stateMutability": "nonpayable",
      "type": "function"
    },
    {
      "inputs": [
        {
          "internalType": "address",
          "name": "_advertiser",
          "type": "address"
        }
      ],
      "name": "getCollectableAdvertiserOffers",
      "outputs": [
        {
          "components": [
            {
              "internalType": "uint256",
              "name": "campaignId",
              "type": "uint256"
            },
            {
              "internalType": "uint256",
              "name": "offerId",
              "type": "uint256"
            }
          ],
          "internalType": "struct Asami.OfferPointer[]",
          "name": "",
          "type": "tuple[]"
        },
        {
          "components": [
            {
              "internalType": "uint256",
              "name": "campaignId",
              "type": "uint256"
            },
            {
              "internalType": "uint256",
              "name": "offerId",
              "type": "uint256"
            }
          ],
          "internalType": "struct Asami.OfferPointer[]",
          "name": "",
          "type": "tuple[]"
        }
      ],
      "stateMutability": "view",
      "type": "function"
    },
    {
      "inputs": [
        {
          "internalType": "address payable",
          "name": "_advertiser",
          "type": "address"
        },
        {
          "components": [
            {
              "internalType": "uint256",
              "name": "campaignId",
              "type": "uint256"
            },
            {
              "internalType": "uint256",
              "name": "offerId",
              "type": "uint256"
            }
          ],
          "internalType": "struct Asami.OfferPointer[]",
          "name": "_nostrOffers",
          "type": "tuple[]"
        },
        {
          "components": [
            {
              "internalType": "uint256",
              "name": "campaignId",
              "type": "uint256"
            },
            {
              "internalType": "uint256",
              "name": "offerId",
              "type": "uint256"
            }
          ],
          "internalType": "struct Asami.OfferPointer[]",
          "name": "_classicOffers",
          "type": "tuple[]"
        }
      ],
      "name": "collectAdvertiserOffers",
      "outputs": [],
      "stateMutability": "nonpayable",
      "type": "function"
    },
    {
      "inputs": [
        {
          "internalType": "address",
          "name": "_debtor",
          "type": "address"
        }
      ],
      "name": "payDeletionPenalties",
      "outputs": [],
      "stateMutability": "payable",
      "type": "function"
    },
    {
      "inputs": [
        {
          "internalType": "uint256",
          "name": "_fee",
          "type": "uint256"
        }
      ],
      "name": "setAsamiFeePerOffer",
      "outputs": [],
      "stateMutability": "nonpayable",
      "type": "function"
    },
    {
      "inputs": [
        {
          "internalType": "uint256",
          "name": "_fee",
          "type": "uint256"
        }
      ],
      "name": "setAsamiMaxFeePerCampaign",
      "outputs": [],
      "stateMutability": "nonpayable",
      "type": "function"
    },
    {
      "inputs": [
        {
          "internalType": "address",
          "name": "_feesAddress",
          "type": "address"
        }
      ],
      "name": "setAsamiFeesAddress",
      "outputs": [],
      "stateMutability": "nonpayable",
      "type": "function"
    },
    {
      "inputs": [
        {
          "internalType": "string",
          "name": "_name",
          "type": "string"
        }
      ],
      "name": "addSocialNetwork",
      "outputs": [],
      "stateMutability": "nonpayable",
      "type": "function"
    },
    {
      "inputs": [],
      "name": "collectAsamiFees",
      "outputs": [],
      "stateMutability": "nonpayable",
      "type": "function"
    },
    {
      "inputs": [
        {
          "internalType": "address",
          "name": "_oracle",
          "type": "address"
        }
      ],
      "name": "collectOracleFees",
      "outputs": [],
      "stateMutability": "nonpayable",
      "type": "function"
    },
    {
      "inputs": [
        {
          "components": [
            {
              "internalType": "uint256",
              "name": "campaignId",
              "type": "uint256"
            },
            {
              "internalType": "uint256",
              "name": "offerId",
              "type": "uint256"
            }
          ],
          "internalType": "struct Asami.OfferPointer",
          "name": "_p",
          "type": "tuple"
        }
      ],
      "name": "nostrGetCampaignOffer",
      "outputs": [
        {
          "components": [
            {
              "internalType": "enum AsamiNostr.OfferState",
              "name": "state",
              "type": "uint8"
            },
            {
              "internalType": "bool",
              "name": "collected",
              "type": "bool"
            },
            {
              "internalType": "string",
              "name": "nostrHexPubkey",
              "type": "string"
            },
            {
              "internalType": "uint256",
              "name": "rewardAmount",
              "type": "uint256"
            },
            {
              "internalType": "address",
              "name": "rewardAddress",
              "type": "address"
            },
            {
              "internalType": "uint256",
              "name": "nostrAffineX",
              "type": "uint256"
            },
            {
              "internalType": "uint256",
              "name": "nostrAffineY",
              "type": "uint256"
            },
            {
              "internalType": "bytes32",
              "name": "messageId",
              "type": "bytes32"
            }
          ],
          "internalType": "struct AsamiNostr.Offer",
          "name": "",
          "type": "tuple"
        }
      ],
      "stateMutability": "view",
      "type": "function"
    },
    {
      "inputs": [
        {
          "components": [
            {
              "internalType": "uint256",
              "name": "campaignId",
              "type": "uint256"
            },
            {
              "internalType": "uint256",
              "name": "offerId",
              "type": "uint256"
            }
          ],
          "internalType": "struct Asami.OfferPointer",
          "name": "_p",
          "type": "tuple"
        }
      ],
      "name": "classicGetCampaignOffer",
      "outputs": [
        {
          "components": [
            {
              "internalType": "enum AsamiClassic.OfferState",
              "name": "state",
              "type": "uint8"
            },
            {
              "internalType": "string",
              "name": "username",
              "type": "string"
            },
            {
              "internalType": "uint256",
              "name": "rewardAmount",
              "type": "uint256"
            },
            {
              "internalType": "address",
              "name": "rewardAddress",
              "type": "address"
            },
            {
              "internalType": "string",
              "name": "publicationUrl",
              "type": "string"
            },
            {
              "internalType": "uint256",
              "name": "deletionReportedAt",
              "type": "uint256"
            },
            {
              "internalType": "bool",
              "name": "advertiserCollected",
              "type": "bool"
            },
            {
              "internalType": "bool",
              "name": "collaboratorCollected",
              "type": "bool"
            },
            {
              "internalType": "bool",
              "name": "oracleCollected",
              "type": "bool"
            }
          ],
          "internalType": "struct AsamiClassic.Offer",
          "name": "",
          "type": "tuple"
        }
      ],
      "stateMutability": "view",
      "type": "function"
    },
    {
      "inputs": [
        {
          "internalType": "uint256",
          "name": "_offerCount",
          "type": "uint256"
        }
      ],
      "name": "calculateCampaignFees",
      "outputs": [
        {
          "internalType": "uint256",
          "name": "",
          "type": "uint256"
        }
      ],
      "stateMutability": "view",
      "type": "function"
    }
  ],
  "bytecode": "0x6080604052670de0b6b3a76400006001556802b5e3af16b188000060025560006003553480156200002f57600080fd5b50604051620055c8380380620055c88339810160408190526200005291620000d3565b6200005d3362000083565b600980546001600160a01b0319166001600160a01b039290921691909117905562000105565b600080546001600160a01b038381166001600160a01b0319831681178455604051919092169283917f8be0079c531659141344cd1fd0a4f28419497f9722a3daafe3b4186f6b6457e09190a35050565b600060208284031215620000e657600080fd5b81516001600160a01b0381168114620000fe57600080fd5b9392505050565b6154b380620001156000396000f3fe6080604052600436106101685760003560e01c80630500db4e1461016d57806305ac9a461461018f57806312ad0808146101af57806313188616146101e55780631dd489d014610205578063224f29b11461022557806323c7a79c146102455780632d48b9691461026557806333e93a0c146102785780633d11e6da146102985780634c670d05146102b85780634ee47dcd146102d85780635b036bf9146102f85780635e3490e214610318578063694ac1b3146103465780636dbcf8fc146103665780636facf85c14610386578063715018a6146103a65780637aeb9581146103bb5780637aed528e146103e85780638da5cb5b146104085780639cfd58d914610435578063a89054f314610455578063b1693ad014610475578063bf000e2814610495578063d3a43a86146104c3578063e6a8dc0c146104e3578063eae0d0fb146104f8578063ebb7593414610518578063ed8dd3bf14610538578063f2fde38b14610558575b600080fd5b34801561017957600080fd5b5061018d610188366004614793565b610578565b005b34801561019b57600080fd5b5061018d6101aa3660046147bd565b610682565b3480156101bb57600080fd5b506101cf6101ca36600461480b565b610777565b6040516101dc91906148cc565b60405180910390f35b3480156101f157600080fd5b5061018d610200366004614974565b610931565b34801561021157600080fd5b5061018d6102203660046149a9565b610af1565b34801561023157600080fd5b5061018d6102403660046149d4565b610afe565b34801561025157600080fd5b5061018d610260366004614793565b610d0b565b61018d610273366004614a37565b610de2565b34801561028457600080fd5b5061018d610293366004614a9f565b610f2d565b3480156102a457600080fd5b5061018d6102b33660046149a9565b611323565b3480156102c457600080fd5b5061018d6102d3366004614793565b611330565b3480156102e457600080fd5b5061018d6102f33660046147bd565b61146c565b34801561030457600080fd5b5061018d610313366004614793565b611553565b34801561032457600080fd5b50610338610333366004614a37565b6115e1565b6040516101dc929190614b67565b34801561035257600080fd5b5061018d610361366004614bcd565b6119ca565b34801561037257600080fd5b5061018d610381366004614a9f565b611d3a565b34801561039257600080fd5b5061018d6103a1366004614793565b612095565b3480156103b257600080fd5b5061018d61216c565b3480156103c757600080fd5b506103db6103d636600461480b565b612180565b6040516101dc9190614c92565b3480156103f457600080fd5b50610338610403366004614a37565b6123f6565b34801561041457600080fd5b5061041d612833565b6040516001600160a01b0390911681526020016101dc565b34801561044157600080fd5b5061018d6104503660046147bd565b612842565b34801561046157600080fd5b5061018d610470366004614793565b6128de565b34801561048157600080fd5b5061018d610490366004614d44565b61296d565b3480156104a157600080fd5b506104b56104b03660046149a9565b6129b2565b6040519081526020016101dc565b3480156104cf57600080fd5b5061018d6104de366004614a37565b6129df565b3480156104ef57600080fd5b5061018d612aae565b34801561050457600080fd5b5061018d610513366004614d85565b612b48565b34801561052457600080fd5b5061018d610533366004614de4565b612e50565b34801561054457600080fd5b5061018d610553366004614a37565b61328d565b34801561056457600080fd5b5061018d610573366004614a37565b6132b7565b6000610592828261058d620151806002614e35565b613330565b90506000816005016005018360200135815481106105b2576105b2614e4c565b6000918252602090912060079091020190506001815460ff1660078111156105dc576105dc614859565b146105e657600080fd5b60098054908301546040516323b872dd60e01b81526001600160a01b03909216916323b872dd9161061d9133913091600401614e62565b6020604051808303816000875af115801561063c573d6000803e3d6000fd5b505050506040513d601f19601f820116820180604052508101906106609190614e86565b61066957600080fd5b8054600290829060ff19166001835b0217905550505050565b6000610697838261058d620151806003614e35565b60088101549091506001600160a01b031633146106b357600080fd5b6000816005016005018460200135815481106106d1576106d1614e4c565b6000918252602090912060079091020190506002815460ff1660078111156106fb576106fb614859565b1461070557600080fd5b60098201546008808401546001600160a01b03166000908152602091909152604081208054909190610738908490614ea3565b9091555050821561075c578054600390829060ff19166001835b0217905550610771565b8054600490829060ff19166001835b02179055505b50505050565b6107c0604080516101008101909152806000815260006020820181905260606040830181905282018190526080820181905260a0820181905260c0820181905260e09091015290565b60058260000151815481106107d7576107d7614e4c565b90600052602060002090600b020160030160010182602001518154811061080057610800614e4c565b600091825260209091206040805161010081019091526007909202018054829060ff16600481111561083457610834614859565b600481111561084557610845614859565b81528154610100900460ff161515602082015260018201805460409092019161086d90614eb6565b80601f016020809104026020016040519081016040528092919081815260200182805461089990614eb6565b80156108e65780601f106108bb576101008083540402835291602001916108e6565b820191906000526020600020905b8154815290600101906020018083116108c957829003601f168201915b50505091835250506002820154602082015260038201546001600160a01b03166040820152600482015460608201526005820154608082015260069091015460a09091015292915050565b6000610946838261058d620151806002614e35565b905060008160030160010184602001358154811061096657610966614e4c565b6000918252602090912060079091020190506001815460ff16600481111561099057610990614859565b1461099a57600080fd5b6000610adb8360030160000180546109b190614eb6565b80601f01602080910402602001604051908101604052809291908181526020018280546109dd90614eb6565b8015610a2a5780601f106109ff57610100808354040283529160200191610a2a565b820191906000526020600020905b815481529060010190602001808311610a0d57829003601f168201915b5050505050836001018054610a3e90614eb6565b80601f0160208091040260200160405190810160405280929190818152602001828054610a6a90614eb6565b8015610ab75780601f10610a8c57610100808354040283529160200191610ab7565b820191906000526020600020905b815481529060010190602001808311610a9a57829003601f168201915b50610acc935050505036889003880188614eea565b856004015486600501546133cb565b600683015550805460ff19166002179055505050565b610af96134b2565b600255565b60005a90506000610b18848261058d62015180600e614e35565b9050600081600301600101856020013581548110610b3857610b38614e4c565b6000918252602090912060079091020190506002815460ff166004811115610b6257610b62614859565b14610b6c57600080fd5b6006810154610bbc90610b826020870187614f45565b8080601f01602080910402602001604051908101604052809392919081815260200183838082843760009201919091525061351192505050565b610bc557600080fd5b610c6e816001018054610bd790614eb6565b80601f0160208091040260200160405190810160405280929190818152602001828054610c0390614eb6565b8015610c505780601f10610c2557610100808354040283529160200191610c50565b820191906000526020600020905b815481529060010190602001808311610c3357829003601f168201915b505050505085610c5f90615017565b8360040154846005015461360a565b805460ff191660041781556000600a5a610c8890866150bd565b610c9390600b614e35565b610c9d91906150e6565b600392909201546001600160a01b039081166000908152600760209081526040808320815180830190925233825281830196875280546001808201835591855292909320905160029092020180546001600160a01b0319169190931617825592519201919091555050505050565b6000610d20828261058d62015180600e614e35565b9050600081600301600101836020013581548110610d4057610d40614e4c565b600091825260209091206003600790920201908101549091506001600160a01b03163314610d6d57600080fd5b6000815460ff166004811115610d8557610d85614859565b1480610da657506001815460ff166004811115610da457610da4614859565b145b80610dc657506002815460ff166004811115610dc457610dc4614859565b145b610dcf57600080fd5b8054600390829060ff1916600183610678565b6001600160a01b038116600090815260076020526040812090805b8254811015610e4957828181548110610e1857610e18614e4c565b90600052602060002090600202016001015482610e359190614ea3565b915080610e41816150fa565b915050610dfd565b5060008111610e5757600080fd5b803414610e6357600080fd5b60005b8254811015610f0657828181548110610e8157610e81614e4c565b600091825260209091206002909102015483546001600160a01b03909116906108fc90859084908110610eb657610eb6614e4c565b9060005260206000209060020201600101549081150290604051600060405180830381858888f19350505050158015610ef3573d6000803e3d6000fd5b5080610efe816150fa565b915050610e66565b506001600160a01b0383166000908152600760205260408120610f28916146f8565b505050565b6001600160a01b03851660009081526007602052604090205415610f5057600080fd5b6000805b848110156110a65760006005878784818110610f7257610f72614e4c565b9050604002016000013581548110610f8c57610f8c614e4c565b90600052602060002090600b0201905062015180600e610fac9190614e35565b8160020154610fbb9190614ea3565b421015610fe35760405162461bcd60e51b8152600401610fda90615113565b60405180910390fd5b600060048201888885818110610ffb57610ffb614e4c565b905060400201602001358154811061101557611015614e4c565b6000918252602090912060079091020160038101549091506001600160a01b038a811691161461106b5760405162461bcd60e51b81526020600482015260016024820152601960f91b6044820152606401610fda565b611074816136eb565b61107d57600080fd5b6002810154815461ff00191661010017909155925081905061109e816150fa565b915050610f54565b5060005b8281101561129a57600060058585848181106110c8576110c8614e4c565b90506040020160000135815481106110e2576110e2614e4c565b90600052602060002090600b0201905062015180600e6111029190614e35565b81600201546111119190614ea3565b42101561111d57600080fd5b6000600a820186868581811061113557611135614e4c565b905060400201602001358154811061114f5761114f614e4c565b6000918252602090912060079091020160038101549091506001600160a01b038a811691161461117e57600080fd5b6006810154610100900460ff161561119557600080fd5b6000815460ff1660078111156111ad576111ad614859565b14806111ce57506003815460ff1660078111156111cc576111cc614859565b145b156111e95760028101546111e29085614ea3565b9350611277565b6002815460ff16600781111561120157611201614859565b036112155760098201546111e29085614ea3565b6006815460ff16600781111561122d5761122d614859565b036101685761124062015180600e614e35565b81600201548360020154836005015461125991906150bd565b6112639190614e35565b61126d91906150e6565b6111e29085614ea3565b600601805461ff0019166101001790555080611292816150fa565b9150506110aa565b5060095460405163a9059cbb60e01b81526001600160a01b038881166004830152602482018490529091169063a9059cbb906044016020604051808303816000875af11580156112ee573d6000803e3d6000fd5b505050506040513d601f19601f820116820180604052508101906113129190614e86565b61131b57600080fd5b505050505050565b61132b6134b2565b600155565b6000611345828261058d62015180600e614e35565b60018101549091506001600160a01b0316331461136157600080fd5b60008160050160050183602001358154811061137f5761137f614e4c565b6000918252602082206007909102019150815460ff1660078111156113a6576113a6614859565b14806113c757506003815460ff1660078111156113c5576113c5614859565b145b6113d057600080fd5b60098054908301546040516323b872dd60e01b81526001600160a01b03909216916323b872dd916114079133913091600401614e62565b6020604051808303816000875af1158015611426573d6000803e3d6000fd5b505050506040513d601f19601f8201168201806040525081019061144a9190614e86565b61145357600080fd5b4260058201558054600690829060ff1916600183610678565b6000611481838261058d62015180600e614e35565b60088101549091506001600160a01b0316331461149d57600080fd5b6000816005016005018460200135815481106114bb576114bb614e4c565b6000918252602090912060079091020190506006815460ff1660078111156114e5576114e5614859565b146114ef57600080fd5b60098201546008808401546001600160a01b03166000908152602091909152604081208054909190611522908490614ea3565b90915550508215611540578054600790829060ff1916600183610752565b8054600390829060ff191660018361076b565b600061156482600062015180613330565b60018101549091506001600160a01b0316331461158057600080fd5b60008160050160050183602001358154811061159e5761159e614e4c565b6000918252602082206007909102019150815460ff1660078111156115c5576115c5614859565b146115cf57600080fd5b8054600190829060ff19168280610678565b60408051600080825260208201909252606091829181611617565b611604614719565b8152602001906001900390816115fc5790505b5060408051600080825260208201909252919250908161164d565b61163a614719565b8152602001906001900390816116325790505b50905060005b6005548110156119bf5760006005828154811061167257611672614e4c565b60009182526020909120600b9091020160018101549091506001600160a01b0388811691161415806116bf57506116ad62015180600e614e35565b81600201546116bc9190614ea3565b42105b156116ca57506119ad565b6004810154156117425760005b600482015481101561173c5760008260030160010182815481106116fd576116fd614e4c565b906000526020600020906007020190506117168161373f565b156117295761172686858461379a565b95505b5080611734816150fa565b9150506116d7565b506119ab565b60005b600a8201548110156119a957600082600501600501828154811061176b5761176b614e4c565b9060005260206000209060070201604051806101200160405290816000820160009054906101000a900460ff1660078111156117a9576117a9614859565b60078111156117ba576117ba614859565b81526020016001820180546117ce90614eb6565b80601f01602080910402602001604051908101604052809291908181526020018280546117fa90614eb6565b80156118475780601f1061181c57610100808354040283529160200191611847565b820191906000526020600020905b81548152906001019060200180831161182a57829003601f168201915b50505091835250506002820154602082015260038201546001600160a01b0316604082015260048201805460609092019161188190614eb6565b80601f01602080910402602001604051908101604052809291908181526020018280546118ad90614eb6565b80156118fa5780601f106118cf576101008083540402835291602001916118fa565b820191906000526020600020905b8154815290600101906020018083116118dd57829003601f168201915b50505091835250506005820154602082015260069091015460ff8082161515604084015261010082048116151560608401526201000090910416151560809091015260c0810151909150158015611964575060008151600781111561196157611961614859565b14155b8015611983575060038151600781111561198057611980614859565b14155b156119965761199386858461379a565b95505b50806119a1816150fa565b915050611745565b505b505b806119b7816150fa565b915050611653565b509094909350915050565b806119d457600080fd5b600086116119e157600080fd5b826119eb57600080fd5b60058054600181018255600091909152600b027f036b6384b5eca791c62761152d0c79bb0604c104a5fb6f4eb0703f3154bb3db081018781557f036b6384b5eca791c62761152d0c79bb0604c104a5fb6f4eb0703f3154bb3db282018790557f036b6384b5eca791c62761152d0c79bb0604c104a5fb6f4eb0703f3154bb3db1820180546001600160a01b03191633179055907f036b6384b5eca791c62761152d0c79bb0604c104a5fb6f4eb0703f3154bb3db301611aab858783615174565b5060008060005b84811015611c8a576000868683818110611ace57611ace614e4c565b9050602002810190611ae09190615233565b3511611aeb57600080fd5b858582818110611afd57611afd614e4c565b9050602002810190611b0f9190615233565b611b1a903584614ea3565b925060015482611b2a9190614ea3565b60048501805460018101825560009182526020909120600790910201805461ffff19168155909250868683818110611b6457611b64614e4c565b9050602002810190611b769190615233565b611b84906040810190614f45565b6001830191611b94919083615174565b50868683818110611ba757611ba7614e4c565b9050602002810190611bb99190615233565b356002820155868683818110611bd157611bd1614e4c565b9050602002810190611be39190615233565b611bf4906040810190602001614a37565b6003820180546001600160a01b0319166001600160a01b0392909216919091179055868683818110611c2857611c28614e4c565b9050602002810190611c3a9190615233565b606001356004820155868683818110611c5557611c55614e4c565b9050602002810190611c679190615233565b608001356005820155600060069091015580611c82816150fa565b915050611ab2565b50600254811115611c9a57506002545b88611ca58284614ea3565b14611caf57600080fd5b6009546040516323b872dd60e01b81526001600160a01b03909116906323b872dd90611ce390339030908e90600401614e62565b6020604051808303816000875af1158015611d02573d6000803e3d6000fd5b505050506040513d601f19601f82011682018060405250810190611d269190614e86565b611d2f57600080fd5b505050505050505050565b6000805b84811015611e58576000868683818110611d5a57611d5a614e4c565b905060400201803603810190611d70919061480b565b905060006005826000015181548110611d8b57611d8b614e4c565b60009182526020909120600b9091020160018101549091506001600160a01b038a8116911614611dba57600080fd5b611dc862015180600e614e35565b8160020154611dd79190614ea3565b421015611de357600080fd5b600081600301600101836020015181548110611e0157611e01614e4c565b90600052602060002090600702019050611e1a8161373f565b611e2357600080fd5b6002810154611e329086614ea3565b815461ff001916610100179091559350829150611e509050816150fa565b915050611d3e565b5060005b8281101561129a576000848483818110611e7857611e78614e4c565b905060400201803603810190611e8e919061480b565b905060006005826000015181548110611ea957611ea9614e4c565b60009182526020909120600b9091020160018101549091506001600160a01b038a8116911614611ed857600080fd5b611ee662015180600e614e35565b8160020154611ef59190614ea3565b421015611f0157600080fd5b600081600501600501836020015181548110611f1f57611f1f614e4c565b60009182526020909120600790910201600681015490915060ff1615611f4457600080fd5b6001815460ff166007811115611f5c57611f5c614859565b1480611f7d57506002815460ff166007811115611f7b57611f7b614859565b145b80611f9d57506004815460ff166007811115611f9b57611f9b614859565b145b80611fbd57506005815460ff166007811115611fbb57611fbb614859565b145b80611fdd57506007815460ff166007811115611fdb57611fdb614859565b145b15611ff8576002810154611ff19086614ea3565b9450612072565b6006815460ff16600781111561201057612010614859565b036101685761202362015180600e614e35565b81600201548360020154836005015461203c91906150bd565b61204a62015180600e614e35565b61205491906150bd565b61205e9190614e35565b61206891906150e6565b611ff19086614ea3565b600601805460ff191660011790555081905061208d816150fa565b915050611e5c565b60006120aa828261058d62015180600e614e35565b90506000816005016005018360200135815481106120ca576120ca614e4c565b600091825260209091206003600790920201908101549091506001600160a01b031633146120f757600080fd5b6000815460ff16600781111561210f5761210f614859565b148061213057506001815460ff16600781111561212e5761212e614859565b145b8061215057506003815460ff16600781111561214e5761214e614859565b145b61215957600080fd5b8054600590829060ff1916600183610678565b6121746134b2565b61217e6000613891565b565b6121df6040805161012081019091528060008152602001606081526020016000815260200160006001600160a01b0316815260200160608152602001600081526020016000151581526020016000151581526020016000151581525090565b60058260000151815481106121f6576121f6614e4c565b90600052602060002090600b020160050160050182602001518154811061221f5761221f614e4c565b9060005260206000209060070201604051806101200160405290816000820160009054906101000a900460ff16600781111561225d5761225d614859565b600781111561226e5761226e614859565b815260200160018201805461228290614eb6565b80601f01602080910402602001604051908101604052809291908181526020018280546122ae90614eb6565b80156122fb5780601f106122d0576101008083540402835291602001916122fb565b820191906000526020600020905b8154815290600101906020018083116122de57829003601f168201915b50505091835250506002820154602082015260038201546001600160a01b0316604082015260048201805460609092019161233590614eb6565b80601f016020809104026020016040519081016040528092919081815260200182805461236190614eb6565b80156123ae5780601f10612383576101008083540402835291602001916123ae565b820191906000526020600020905b81548152906001019060200180831161239157829003601f168201915b50505091835250506005820154602082015260069091015460ff8082161515604084015261010082048116151560608401526201000090910416151560809091015292915050565b6040805160008082526020820190925260609182918161242c565b612419614719565b8152602001906001900390816124115790505b50604080516000808252602082019092529192509081612462565b61244f614719565b8152602001906001900390816124475790505b50905060005b6005548110156119bf5760006005828154811061248757612487614e4c565b90600052602060002090600b0201905062015180600e6124a79190614e35565b81600201546124b69190614ea3565b4210156124c35750612821565b6004810154156125585760005b60048201548110156125525760008260030160010182815481106124f6576124f6614e4c565b6000918252602090912060079091020160038101549091506001600160a01b038a8116911614801561252c575061252c816136eb565b1561253f5761253c86858461379a565b95505b508061254a816150fa565b9150506124d0565b5061281f565b60005b600a82015481101561281d57600082600501600501828154811061258157612581614e4c565b9060005260206000209060070201604051806101200160405290816000820160009054906101000a900460ff1660078111156125bf576125bf614859565b60078111156125d0576125d0614859565b81526020016001820180546125e490614eb6565b80601f016020809104026020016040519081016040528092919081815260200182805461261090614eb6565b801561265d5780601f106126325761010080835404028352916020019161265d565b820191906000526020600020905b81548152906001019060200180831161264057829003601f168201915b50505091835250506002820154602082015260038201546001600160a01b0316604082015260048201805460609092019161269790614eb6565b80601f01602080910402602001604051908101604052809291908181526020018280546126c390614eb6565b80156127105780601f106126e557610100808354040283529160200191612710565b820191906000526020600020905b8154815290600101906020018083116126f357829003601f168201915b50505091835250506005820154602082015260069091015460ff80821615156040840152610100820481161515606080850191909152620100009092041615156080909201919091528101519091506001600160a01b038a8116911614801561277b57508060e00151155b801561279a575060018151600781111561279757612797614859565b14155b80156127b957506004815160078111156127b6576127b6614859565b14155b80156127d857506005815160078111156127d5576127d5614859565b14155b80156127f757506007815160078111156127f4576127f4614859565b14155b1561280a5761280785858461379a565b94505b5080612815816150fa565b91505061255b565b505b505b8061282b816150fa565b915050612468565b6000546001600160a01b031690565b6000612857838261058d620151806003614e35565b60088101549091506001600160a01b0316331461287357600080fd5b60008160050160050184602001358154811061289157612891614e4c565b6000918252602090912060079091020190506001815460ff1660078111156128bb576128bb614859565b146128c557600080fd5b821561075c578054600390829060ff1916600183610752565b60006128ef82600062015180613330565b60018101549091506001600160a01b0316331461290b57600080fd5b60008160030160010183602001358154811061292957612929614e4c565b6000918252602082206007909102019150815460ff16600481111561295057612950614859565b146115cf5760405162461bcd60e51b8152600401610fda90615113565b6129756134b2565b600680546001810182556000919091527ff652222313e28459528d920b65115c16c04f3efc82aaedc97be59f3f377c0d3f01610f28828483615174565b600080600154836129c39190614e35565b905060025481116129d457806129d8565b6002545b9392505050565b6001600160a01b038116600090815260086020526040902054612a0157600080fd5b6009546001600160a01b03828116600090815260086020526040908190205490516323b872dd60e01b815291909216916323b872dd91612a48913091869190600401614e62565b6020604051808303816000875af1158015612a67573d6000803e3d6000fd5b505050506040513d601f19601f82011682018060405250810190612a8b9190614e86565b612a9457600080fd5b6001600160a01b0316600090815260086020526040812055565b600060035411612abd57600080fd5b600954600480546003546040516323b872dd60e01b81526001600160a01b03948516946323b872dd94612af594309492169201614e62565b6020604051808303816000875af1158015612b14573d6000803e3d6000fd5b505050506040513d601f19601f82011682018060405250810190612b389190614e86565b612b4157600080fd5b6000600355565b60005a90506000612b62858261058d62015180600e614e35565b9050600081600301600101866020013581548110612b8257612b82614e4c565b6000918252602082206007909102019150815460ff166004811115612ba957612ba9614859565b14612bb357600080fd5b6000612ce5836003016000018054612bca90614eb6565b80601f0160208091040260200160405190810160405280929190818152602001828054612bf690614eb6565b8015612c435780601f10612c1857610100808354040283529160200191612c43565b820191906000526020600020905b815481529060010190602001808311612c2657829003601f168201915b5050505050836001018054612c5790614eb6565b80601f0160208091040260200160405190810160405280929190818152602001828054612c8390614eb6565b8015612cd05780601f10612ca557610100808354040283529160200191612cd0565b820191906000526020600020905b815481529060010190602001808311612cb357829003601f168201915b50610acc9350505050368a90038a018a614eea565b600683018190559050612cff81610b826020880188614f45565b612d0857600080fd5b612db1826001018054612d1a90614eb6565b80601f0160208091040260200160405190810160405280929190818152602001828054612d4690614eb6565b8015612d935780601f10612d6857610100808354040283529160200191612d93565b820191906000526020600020905b815481529060010190602001808311612d7657829003601f168201915b505050505086612da290615017565b8460040154856005015461360a565b815460ff191660041782556000600a5a612dcb90876150bd565b612dd690600b614e35565b612de091906150e6565b600393909301546001600160a01b039081166000908152600760209081526040808320815180830190925233825281830197885280546001808201835591855292909320905160029092020180546001600160a01b03191691909316178255935193019290925550505050505050565b6000612e5f60e0830183615253565b905011612e6b57600080fd5b8035612e7657600080fd5b6005612e856060830183614f45565b905011612e9157600080fd5b6080810135612e9f57600080fd5b6000612eb160c0830160a08401614a37565b6001600160a01b031603612ec457600080fd5b60008160c0013511612ed557600080fd5b600654604082013510612ee757600080fd5b600580546001810182556000919091528135600b9091027f036b6384b5eca791c62761152d0c79bb0604c104a5fb6f4eb0703f3154bb3db0810191825560208301357f036b6384b5eca791c62761152d0c79bb0604c104a5fb6f4eb0703f3154bb3db28201557f036b6384b5eca791c62761152d0c79bb0604c104a5fb6f4eb0703f3154bb3db1810180546001600160a01b0319163317905560408301357f036b6384b5eca791c62761152d0c79bb0604c104a5fb6f4eb0703f3154bb3db5909101908155612fb96060840184614f45565b6001830191612fc9919083615174565b5060808301356002820155612fe460c0840160a08501614a37565b6003820180546001600160a01b0319166001600160a01b039290921691909117905560c08301356004820155600080805b61302260e0870187615253565b90508110156131df57600061303a60e0880188615253565b8381811061304a5761304a614e4c565b905060200281019061305c919061529c565b351161306757600080fd5b61307460e0870187615253565b8281811061308457613084614e4c565b9050602002810190613096919061529c565b6130a1903584614ea3565b9250600154826130b19190614ea3565b915060008560050160050182815481106130cd576130cd614e4c565b60009182526020909120600790910201805460ff1916815590506130f460e0880188615253565b8381811061310457613104614e4c565b9050602002810190613116919061529c565b613124906040810190614f45565b6001830191613134919083615174565b5061314260e0880188615253565b8381811061315257613152614e4c565b9050602002810190613164919061529c565b35600282015561317760e0880188615253565b8381811061318757613187614e4c565b9050602002810190613199919061529c565b6131aa906040810190602001614a37565b60039190910180546001600160a01b0319166001600160a01b03909216919091179055806131d7816150fa565b915050613015565b506002548111156131ef57506002545b84356131fb8284614ea3565b1461320557600080fd5b6009546040516323b872dd60e01b81526001600160a01b03909116906323b872dd9061323a90339030908a3590600401614e62565b6020604051808303816000875af1158015613259573d6000803e3d6000fd5b505050506040513d601f19601f8201168201806040525081019061327d9190614e86565b61328657600080fd5b5050505050565b6132956134b2565b600480546001600160a01b0319166001600160a01b0392909216919091179055565b6132bf6134b2565b6001600160a01b0381166133245760405162461bcd60e51b815260206004820152602660248201527f4f776e61626c653a206e6577206f776e657220697320746865207a65726f206160448201526564647265737360d01b6064820152608401610fda565b61332d81613891565b50565b600080600585600001358154811061334a5761334a614e4c565b90600052602060002090600b0201905083816002015461336a9190614ea3565b4210156133895760405162461bcd60e51b8152600401610fda906152b2565b8284826002015461339a9190614ea3565b6133a49190614ea3565b4211156133c35760405162461bcd60e51b8152600401610fda906152b2565b949350505050565b600080856133dc86600001516138e1565b886040516020016133ef939291906152ce565b604051602081830303815290604052905060006002826040516134129190615354565b602060405180830381855afa15801561342f573d6000803e3d6000fd5b5050506040513d601f19601f820116820180604052508101906134529190615366565b905061346981868689602001518a60400151613973565b6134a55760405162461bcd60e51b815260206004820152600d60248201526c34b73b30b634b22fb83937b7b360991b6044820152606401610fda565b9150505b95945050505050565b336134bb612833565b6001600160a01b03161461217e5760405162461bcd60e51b815260206004820181905260248201527f4f776e61626c653a2063616c6c6572206973206e6f7420746865206f776e65726044820152606401610fda565b60008061351d84613ab5565b9050808360005b8251825161353291906150bd565b61353d906001614ea3565b8110156135fb57600160005b6002855161355791906150bd565b8110156135d3578461356a826002614ea3565b8151811061357a5761357a614e4c565b01602001516001600160f81b031916846135948386614ea3565b815181106135a4576135a4614e4c565b01602001516001600160f81b031916146135c157600091506135d3565b806135cb816150fa565b915050613549565b5080156135e857600195505050505050613604565b50806135f3816150fa565b915050613524565b50600093505050505b92915050565b60008461361a85604001516138e1565b60208087015187516040516136319594930161537f565b60405160208183030381529060405290506136a66002826040516136559190615354565b602060405180830381855afa158015613672573d6000803e3d6000fd5b5050506040513d601f19601f820116820180604052508101906136959190615366565b848487606001518860800151613973565b6132865760405162461bcd60e51b815260206004820152601660248201527534b73b30b634b22fb232b632ba34b7b72fb83937b7b360511b6044820152606401610fda565b8054600090610100900460ff1615801561360457506000825460ff16600481111561371857613718614859565b1480613604575060025b825460ff16600481111561373857613738614859565b1492915050565b8054600090610100900460ff1615801561360457506001825460ff16600481111561376c5761376c614859565b148061378d57506003825460ff16600481111561378b5761378b614859565b145b8061360457506004613722565b60606000845160016137ac9190614ea3565b6001600160401b038111156137c3576137c36147f5565b6040519080825280602002602001820160405280156137fc57816020015b6137e9614719565b8152602001906001900390816137e15790505b50905060005b85518110156138555785818151811061381d5761381d614e4c565b602002602001015182828151811061383757613837614e4c565b6020026020010181905250808061384d906150fa565b915050613802565b506040518060400160405280858152602001848152508186518151811061387e5761387e614e4c565b6020908102919091010152949350505050565b600080546001600160a01b038381166001600160a01b0319831681178455604051919092169283917f8be0079c531659141344cd1fd0a4f28419497f9722a3daafe3b4186f6b6457e09190a35050565b606060006138ee83613acc565b60010190506000816001600160401b0381111561390d5761390d6147f5565b6040519080825280601f01601f191660200182016040528015613937576020820181803683370190505b5090508181016020015b600019016f181899199a1a9b1b9c1cb0b131b232b360811b600a86061a8153600a850494508461394157509392505050565b600070014551231950b75fc4402da1732fc9bebe19831015806139a8575070014551231950b75fc4402da1732fc9bebe198210155b156139b5575060006134a9565b60006139c2848789613ba2565b9050600080613a1b857f79be667ef9dcbbac55a06295ce870b07029bfcdb2dce28d959f2815b16f817987f483ada7726a3c4655da4fbfc0e1108a8fd17b448a68554199c47d08ffb10d4b860006401000003d019613ce5565b91509150600080613a36858b8b60006401000003d019613ce5565b9092509050600080613a6d8686866401000003d019613a5588826150bd565b613a5f9190615425565b60006401000003d019613d1f565b915091508982148015613a885750613a86600282615425565b155b8015613aa45750613aa48282600060076401000003d019613da7565b9d9c50505050505050505050505050565b606061360482613ac484613e60565b600101613eca565b60008072184f03e93ff9f4daa797ed6e38ed64bf6a1f0160401b8310613b0b5772184f03e93ff9f4daa797ed6e38ed64bf6a1f0160401b830492506040015b6904ee2d6d415b85acef8160201b8310613b35576904ee2d6d415b85acef8160201b830492506020015b662386f26fc100008310613b5357662386f26fc10000830492506010015b6305f5e1008310613b6b576305f5e100830492506008015b6127108310613b7f57612710830492506004015b60648310613b91576064830492506002015b600a83106136045760010192915050565b604080516020810185905290810183905260608101829052600090819060800160408051601f1981840301815282820182526011835270424950303334302f6368616c6c656e676560781b60208401529051909250600091600291613c079190615354565b602060405180830381855afa158015613c24573d6000803e3d6000fd5b5050506040513d601f19601f82011682018060405250810190613c479190615366565b905060006002828385604051602001613c6293929190615439565b60408051601f1981840301815290829052613c7c91615354565b602060405180830381855afa158015613c99573d6000803e3d6000fd5b5050506040513d601f19601f82011682018060405250810190613cbc9190615366565b9050613cda70014551231950b75fc4402da1732fc9bebe1982615425565b979650505050505050565b6000806000806000613cfc8a8a8a60018b8b614065565b925092509250613d0e838383896140e7565b945094505050509550959350505050565b6000806000806000888b03613d6f578580613d3c57613d3c6150d0565b888b08600003613d555760008094509450505050613d9c565b613d638b8b60018a8a614156565b91945092509050613d88565b613d808b8b60018c8c60018c6142f9565b919450925090505b613d94838383896140e7565b945094505050505b965096945050505050565b6000851580613db65750818610155b80613dbf575084155b80613dca5750818510155b15613dd7575060006134a9565b60008280613de757613de76150d0565b868709905060008380613dfc57613dfc6150d0565b888580613e0b57613e0b6150d0565b8a8b090990508515613e3b578380613e2557613e256150d0565b8480613e3357613e336150d0565b878a09820890505b8415613e55578380613e4f57613e4f6150d0565b85820890505b149695505050505050565b600080608083901c15613e785760809290921c916010015b604083901c15613e8d5760409290921c916008015b602083901c15613ea25760209290921c916004015b601083901c15613eb75760109290921c916002015b600883901c156136045760010192915050565b60606000613ed9836002614e35565b613ee4906002614ea3565b6001600160401b03811115613efb57613efb6147f5565b6040519080825280601f01601f191660200182016040528015613f25576020820181803683370190505b509050600360fc1b81600081518110613f4057613f40614e4c565b60200101906001600160f81b031916908160001a905350600f60fb1b81600181518110613f6f57613f6f614e4c565b60200101906001600160f81b031916908160001a9053506000613f93846002614e35565b613f9e906001614ea3565b90505b6001811115614016576f181899199a1a9b1b9c1cb0b131b232b360811b85600f1660108110613fd257613fd2614e4c565b1a60f81b828281518110613fe857613fe8614e4c565b60200101906001600160f81b031916908160001a90535060049490941c9361400f81615466565b9050613fa1565b5083156129d85760405162461bcd60e51b815260206004820181905260248201527f537472696e67733a20686578206c656e67746820696e73756666696369656e746044820152606401610fda565b60008060008860000361407f5750869150859050846140db565b8860008060015b83156140d25760018416156140ac576140a48383838f8f8f8e6142f9565b919450925090505b6140b76002856150e6565b93506140c68c8c8c8c8c614156565b919d509b509950614086565b91955093509150505b96509650969350505050565b60008060006140f6858561462c565b905060008480614108576141086150d0565b82830990506000858061411d5761411d6150d0565b828a09905060008680614132576141326150d0565b8780614140576141406150d0565b8486098a09919a91995090975050505050505050565b6000806000856000036141705750869150859050846142ee565b60008480614180576141806150d0565b898a09905060008580614195576141956150d0565b898a099050600086806141aa576141aa6150d0565b898a099050600087806141bf576141bf6150d0565b88806141cd576141cd6150d0565b848e096004099050600088806141e5576141e56150d0565b89806141f3576141f36150d0565b8a80614201576142016150d0565b8586098c098a80614214576142146150d0565b876003090890508880614229576142296150d0565b8980614237576142376150d0565b838408614244908b6150bd565b8a80614252576142526150d0565b8384090894508880614266576142666150d0565b8980614274576142746150d0565b8a80614282576142826150d0565b868709600809614292908b6150bd565b8a806142a0576142a06150d0565b8b806142ae576142ae6150d0565b6142b8898e6150bd565b8608840908935088806142cd576142cd6150d0565b89806142db576142db6150d0565b8c8e096002099497509295509293505050505b955095509592505050565b6000808089158015614309575088155b1561431b57508591508490508361461f565b86158015614327575085155b1561433957508891508790508661461f565b614341614733565b848061434f5761434f6150d0565b898a0981528480614362576143626150d0565b81518a0960208201528480614379576143796150d0565b8687096040820152848061438f5761438f6150d0565b60408201518709606082015260408051608081019091528086806143b5576143b56150d0565b60408401518e09815260200186806143cf576143cf6150d0565b60608401518d09815260200186806143e9576143e96150d0565b83518b0981526020018680614400576144006150d0565b60208401518a0990526040810151815191925014158061442857506060810151602082015114155b6144745760405162461bcd60e51b815260206004820152601e60248201527f557365206a6163446f75626c652066756e6374696f6e20696e737465616400006044820152606401610fda565b61447c614733565b858061448a5761448a6150d0565b825161449690886150bd565b604084015108815285806144ac576144ac6150d0565b60208301516144bb90886150bd565b606084015108602082015285806144d4576144d46150d0565b81518009604082015285806144eb576144eb6150d0565b8151604083015109606082015260008680614508576145086150d0565b606083015161451790896150bd565b8880614525576145256150d0565b60208501518009089050868061453d5761453d6150d0565b878061454b5761454b6150d0565b8880614559576145596150d0565b604085015186510960020961456e90896150bd565b8208905060008780614582576145826150d0565b8880614590576145906150d0565b61459a848b6150bd565b8a806145a8576145a86150d0565b604087015188510908602085015109905087806145c7576145c76150d0565b88806145d5576145d56150d0565b60608501516020870151096145ea908a6150bd565b82089050600088806145fe576145fe6150d0565b898061460c5761460c6150d0565b8b8f098551099297509095509093505050505b9750975097945050505050565b6000821580159061463d5750818314155b801561464857508115155b6146855760405162461bcd60e51b815260206004820152600e60248201526d24b73b30b634b210373ab6b132b960911b6044820152606401610fda565b6000600183825b86156146ed5761469c87836150e6565b90508286806146ad576146ad6150d0565b87806146bb576146bb6150d0565b8584096146c890896150bd565b86089094509250866146da8183614e35565b6146e490846150bd565b9750915061468c565b509195945050505050565b508054600082556002029060005260206000209081019061332d9190614751565b604051806040016040528060008152602001600081525090565b60405180608001604052806004906020820280368337509192915050565b5b808211156147775780546001600160a01b031916815560006001820155600201614752565b5090565b60006040828403121561478d57600080fd5b50919050565b6000604082840312156147a557600080fd5b6129d8838361477b565b801515811461332d57600080fd5b600080606083850312156147d057600080fd5b6147da848461477b565b915060408301356147ea816147af565b809150509250929050565b634e487b7160e01b600052604160045260246000fd5b60006040828403121561481d57600080fd5b604051604081018181106001600160401b038211171561483f5761483f6147f5565b604052823581526020928301359281019290925250919050565b634e487b7160e01b600052602160045260246000fd5b60005b8381101561488a578181015183820152602001614872565b50506000910152565b600081518084526148ab81602086016020860161486f565b601f01601f19169290920160200192915050565b6001600160a01b03169052565b6020815260008251600581106148e4576148e4614859565b8060208401525060208301516148fe604084018215159052565b50604083015161010080606085015261491b610120850183614893565b915060608501516080850152608085015161493960a08601826148bf565b5060a085015160c085015260c085015160e085015260e085015181850152508091505092915050565b60006060828403121561478d57600080fd5b60008060a0838503121561498757600080fd5b614991848461477b565b91506149a08460408501614962565b90509250929050565b6000602082840312156149bb57600080fd5b5035919050565b600060a0828403121561478d57600080fd5b600080606083850312156149e757600080fd5b6149f1848461477b565b915060408301356001600160401b03811115614a0c57600080fd5b614a18858286016149c2565b9150509250929050565b6001600160a01b038116811461332d57600080fd5b600060208284031215614a4957600080fd5b81356129d881614a22565b60008083601f840112614a6657600080fd5b5081356001600160401b03811115614a7d57600080fd5b6020830191508360208260061b8501011115614a9857600080fd5b9250929050565b600080600080600060608688031215614ab757600080fd5b8535614ac281614a22565b945060208601356001600160401b0380821115614ade57600080fd5b614aea89838a01614a54565b90965094506040880135915080821115614b0357600080fd5b50614b1088828901614a54565b969995985093965092949392505050565b600081518084526020808501945080840160005b83811015614b5c578151805188528301518388015260409096019590820190600101614b35565b509495945050505050565b604081526000614b7a6040830185614b21565b82810360208401526134a98185614b21565b60008083601f840112614b9e57600080fd5b5081356001600160401b03811115614bb557600080fd5b602083019150836020828501011115614a9857600080fd5b60008060008060008060808789031215614be657600080fd5b863595506020870135945060408701356001600160401b0380821115614c0b57600080fd5b614c178a838b01614b8c565b90965094506060890135915080821115614c3057600080fd5b818901915089601f830112614c4457600080fd5b813581811115614c5357600080fd5b8a60208260051b8501011115614c6857600080fd5b6020830194508093505050509295509295509295565b60088110614c8e57614c8e614859565b9052565b60208152614ca4602082018351614c7e565b60006020830151610120806040850152614cc2610140850183614893565b9150604085015160608501526060850151614ce060808601826148bf565b506080850151848303601f190160a0860152614cfc8382614893565b92505060a085015160c085015260c0850151614d1c60e086018215159052565b5060e0850151610100614d328187018315159052565b90950151151593019290925250919050565b60008060208385031215614d5757600080fd5b82356001600160401b03811115614d6d57600080fd5b614d7985828601614b8c565b90969095509350505050565b600080600060c08486031215614d9a57600080fd5b614da4858561477b565b9250614db38560408601614962565b915060a08401356001600160401b03811115614dce57600080fd5b614dda868287016149c2565b9150509250925092565b600060208284031215614df657600080fd5b81356001600160401b03811115614e0c57600080fd5b820161010081850312156129d857600080fd5b634e487b7160e01b600052601160045260246000fd5b808202811582820484141761360457613604614e1f565b634e487b7160e01b600052603260045260246000fd5b6001600160a01b039384168152919092166020820152604081019190915260600190565b600060208284031215614e9857600080fd5b81516129d8816147af565b8082018082111561360457613604614e1f565b600181811c90821680614eca57607f821691505b60208210810361478d57634e487b7160e01b600052602260045260246000fd5b600060608284031215614efc57600080fd5b604051606081018181106001600160401b0382111715614f1e57614f1e6147f5565b80604052508235815260208301356020820152604083013560408201528091505092915050565b6000808335601e19843603018112614f5c57600080fd5b8301803591506001600160401b03821115614f7657600080fd5b602001915036819003821315614a9857600080fd5b600082601f830112614f9c57600080fd5b81356001600160401b0380821115614fb657614fb66147f5565b604051601f8301601f19908116603f01168101908282118183101715614fde57614fde6147f5565b81604052838152866020858801011115614ff757600080fd5b836020870160208301376000602085830101528094505050505092915050565b600060a0823603121561502957600080fd5b60405160a081016001600160401b03828210818311171561504c5761504c6147f5565b81604052843591508082111561506157600080fd5b61506d36838701614f8b565b8352602085013591508082111561508357600080fd5b5061509036828601614f8b565b60208301525060408301356040820152606083013560608201526080830135608082015280915050919050565b8181038181111561360457613604614e1f565b634e487b7160e01b600052601260045260246000fd5b6000826150f5576150f56150d0565b500490565b60006001820161510c5761510c614e1f565b5060010190565b6020808252600190820152603160f81b604082015260600190565b601f821115610f2857600081815260208120601f850160051c810160208610156151555750805b601f850160051c820191505b8181101561131b57828155600101615161565b6001600160401b0383111561518b5761518b6147f5565b61519f836151998354614eb6565b8361512e565b6000601f8411600181146151d357600085156151bb5750838201355b600019600387901b1c1916600186901b178355613286565b600083815260209020601f19861690835b8281101561520457868501358255602094850194600190920191016151e4565b50868210156152215760001960f88860031b161c19848701351681555b505060018560011b0183555050505050565b60008235609e1983360301811261524957600080fd5b9190910192915050565b6000808335601e1984360301811261526a57600080fd5b8301803591506001600160401b0382111561528457600080fd5b6020019150600581901b3603821315614a9857600080fd5b60008235605e1983360301811261524957600080fd5b602080825260029082015261393960f01b604082015260600190565b632d98161160e11b815283516000906152ee81600485016020890161486f565b61088b60f21b600491840191820152845161531081600684016020890161486f565b661618962dae961160c91b60069290910191820152835161533881600d84016020880161486f565b61225d60f01b600d9290910191820152600f0195945050505050565b6000825161524981846020870161486f565b60006020828403121561537857600080fd5b5051919050565b632d98161160e11b8152845160009061539f816004850160208a0161486f565b61088b60f21b60049184019182015285516153c1816006840160208a0161486f565b620b0d4b60ea1b6006929091019182015284516153e581600984016020890161486f565b61161160f11b60099290910191820152835161540881600b84016020880161486f565b61225d60f01b600b9290910191820152600d019695505050505050565b600082615434576154346150d0565b500690565b8381528260208201526000825161545781604085016020870161486f565b91909101604001949350505050565b60008161547557615475614e1f565b50600019019056fea26469706673582212208585542122f50ec5229ba137aa119c61d3891470d6f1234dde8451b738490c9c64736f6c63430008130033",
  "immutableReferences": {},
  "source": "// SPDX-License-Identifier: MIT\npragma solidity ^0.8.9;\nimport \"@openzeppelin/contracts/utils/Strings.sol\";\nimport \"@openzeppelin/contracts/token/ERC20/ERC20.sol\";\nimport \"@openzeppelin/contracts/access/Ownable.sol\";\nimport \"./AsamiClassic.sol\";\nimport \"./AsamiNostr.sol\";\n\ncontract Asami is Ownable {\n    uint constant oneDay = 60 * 60 * 24;\n    uint constant campaignDuration = oneDay * 14;\n\n    uint internal feePerOffer = 1e18;\n    uint internal maxFeePerCampaign = 50e18 ;\n    uint internal fees = 0;\n    address internal feesAddress;\n\n    event DebugEvent(string);\n\n    struct Campaign {\n        uint256 funding;\n        address advertiser;\n        uint256 startDate;\n        AsamiNostr.Terms nostrTerms;\n        AsamiClassic.Terms classicTerms;\n    }\n\n    Campaign[] internal campaigns;\n\n    string[] internal socialNetworks;\n\n    struct DeletionPenalty {\n        address payable creditor;\n        uint256 amount;\n    }\n    mapping(address => DeletionPenalty[]) internal deletionPenalties;\n\n    mapping(address => uint256) internal oracleFees;\n\n    /* An offer pointer represents a specific offer made in a campaign */\n    struct OfferPointer {\n        uint campaignId;\n        uint offerId;\n    }\n\n    IERC20 internal rewardToken;\n    \n    constructor(address _dollarOnChainAddress) {\n        rewardToken = IERC20(_dollarOnChainAddress);\n    }\n\n    function nostrCreateCampaign(\n      uint256 _funding,\n      uint256 _startDate,\n      string calldata _requestedContent,\n      AsamiNostr.NewOffer[] calldata _newOffers\n    ) external {\n        require(_newOffers.length > 0);\n        require(_funding > 0);\n        require(bytes(_requestedContent).length > 0);\n\n        Campaign storage campaign = campaigns.push();\n        campaign.funding = _funding;\n        campaign.startDate = _startDate;\n        campaign.advertiser = payable(msg.sender);\n        campaign.nostrTerms.requestedContent = _requestedContent;\n\n        uint256 totalRewards = 0;\n        uint256 totalFees = 0;\n        for (uint i = 0; i < _newOffers.length; i++) {\n            require(_newOffers[i].rewardAmount > 0);\n            totalRewards += _newOffers[i].rewardAmount;\n            totalFees += feePerOffer;\n            AsamiNostr.Offer storage offer = campaign.nostrTerms.offers.push();\n            offer.state = AsamiNostr.OfferState.Assumed;\n            offer.collected = false;\n            offer.nostrHexPubkey = _newOffers[i].nostrHexPubkey;\n            offer.rewardAmount = _newOffers[i].rewardAmount;\n            offer.rewardAddress = payable(_newOffers[i].rewardAddress);\n            offer.nostrAffineX = _newOffers[i].nostrAffineX;\n            offer.nostrAffineY = _newOffers[i].nostrAffineY;\n            offer.messageId = bytes32(0);\n        }\n\n        if (totalFees > maxFeePerCampaign) {\n          totalFees = maxFeePerCampaign;\n        }\n\n        require((totalRewards + totalFees) == _funding);\n        require(rewardToken.transferFrom(msg.sender, address(this), _funding));\n    }\n\n    struct NewClassicCampaign{\n      uint256 funding;\n      uint256 startDate;\n      uint socialNetworkId;\n      string rulesUrl;\n      bytes32 rulesHash;\n      address oracleAddress;\n      uint256 oracleFee;\n      AsamiClassic.NewOffer[] newOffers;\n    }\n\n    function classicCreateCampaign(\n      NewClassicCampaign calldata _c\n    ) external {\n        require(_c.newOffers.length > 0);\n        require(_c.funding > 0);\n        require(bytes(_c.rulesUrl).length > 5);\n        require(_c.rulesHash != bytes32(0));\n        require(_c.oracleAddress != address(0));\n        require(_c.oracleFee > 0);\n        require(_c.socialNetworkId < socialNetworks.length);\n\n        Campaign storage campaign = campaigns.push();\n        campaign.funding = _c.funding;\n        campaign.startDate = _c.startDate;\n        campaign.advertiser = payable(msg.sender);\n\n        AsamiClassic.Terms storage terms = campaign.classicTerms;\n        terms.socialNetworkId = _c.socialNetworkId;\n        terms.rulesUrl = _c.rulesUrl;\n        terms.rulesHash = _c.rulesHash;\n        terms.oracleAddress = _c.oracleAddress;\n        terms.oracleFee = _c.oracleFee;\n\n        uint256 totalRewards = 0;\n        uint256 totalFees = 0;\n        for (uint i = 0; i < _c.newOffers.length; i++) {\n            require(_c.newOffers[i].rewardAmount > 0);\n            totalRewards += _c.newOffers[i].rewardAmount;\n            totalFees += feePerOffer;\n\n            AsamiClassic.Offer storage offer = campaign.classicTerms.offers[i];\n            offer.state = AsamiClassic.OfferState.Assumed;\n            offer.username = _c.newOffers[i].username;\n            offer.rewardAmount = _c.newOffers[i].rewardAmount;\n            offer.rewardAddress = payable(_c.newOffers[i].rewardAddress);\n        }\n\n        if (totalFees > maxFeePerCampaign) {\n          totalFees = maxFeePerCampaign;\n        }\n\n        require((totalRewards + totalFees) == _c.funding);\n        require(rewardToken.transferFrom(msg.sender, address(this), _c.funding));\n    }\n\n    function nostrChallenge(OfferPointer calldata _p) public {\n        Campaign storage campaign = getCampaignInTimeWindow(_p, 0, oneDay);\n        require(campaign.advertiser == msg.sender);\n\n        AsamiNostr.Offer storage offer = campaign.nostrTerms.offers[_p.offerId];\n        require(offer.state == AsamiNostr.OfferState.Assumed, \"1\");\n        offer.state = AsamiNostr.OfferState.Challenged;\n    }\n\n    // Anyone can submit proof of a message being published, likely a Collaborator or someone on their behalf.\n    // The r value is the first 32 bytes of the signature, and the s value are the remaining 32,\n    function nostrConfirm(\n        OfferPointer calldata _p,\n        AsamiNostr.MessageProof calldata _proof\n    ) external {\n        Campaign storage campaign = getCampaignInTimeWindow(_p, 0, oneDay * 2);\n\n        AsamiNostr.Offer storage offer = campaign.nostrTerms.offers[_p.offerId];\n        require(offer.state == AsamiNostr.OfferState.Challenged);\n\n        bytes32 messageId = AsamiNostr.verifyCampaignMessage(\n          campaign.nostrTerms.requestedContent,\n          offer.nostrHexPubkey,\n          _proof,\n          offer.nostrAffineX,\n          offer.nostrAffineY\n        );\n\n        offer.messageId = messageId;\n        offer.state = AsamiNostr.OfferState.Confirmed;\n    }\n\n    /*\n     The collaborator can always force a refund.\n     If the collaborator deletes a message, the advertiser can submit proof of deletion\n     to prevent payment from happening.\n     Submitting the proof of deletion for a message may be very costly for the advertiser,\n     so when this happens a penalty is applied on the collaborator in favor of the advertiser.\n     To prevent this penalty, the collaborator may forfeit the reward\n     voluntarily before deleting the message.\n    */\n    function nostrRenounce(OfferPointer calldata _p) external {\n        Campaign storage campaign = getCampaignInTimeWindow(_p, 0, campaignDuration);\n        AsamiNostr.Offer storage offer = campaign.nostrTerms.offers[_p.offerId];\n\n        require(offer.rewardAddress == msg.sender);\n\n        require(\n          offer.state == AsamiNostr.OfferState.Assumed ||\n          offer.state == AsamiNostr.OfferState.Challenged ||\n          offer.state == AsamiNostr.OfferState.Confirmed\n        );\n\n        offer.state = AsamiNostr.OfferState.Renounced;\n    }\n\n    /*\n      Submitting a deletion proof is very costly on the advertiser, so if it comes to that,\n      the collaborator gets penalized and is banned from the system until he pays for the penalties.\n      To reduce gas usage, this method does not parse the tags json, it just does a raw string search,\n      which initially may be enough.\n      The r value is the first 32 bytes of the signature, and the s value are the remaining 32,\n    */\n    function nostrReportConfirmed(\n        OfferPointer calldata _p,\n        AsamiNostr.DeletionProof calldata _deletionProof\n    ) external {\n        uint256 startGas = gasleft();\n\n        Campaign storage campaign = getCampaignInTimeWindow(_p, 0, campaignDuration);\n\n        AsamiNostr.Offer storage offer = campaign.nostrTerms.offers[_p.offerId];\n        require(offer.state == AsamiNostr.OfferState.Confirmed);\n\n        require(AsamiNostr.idInTags(offer.messageId, _deletionProof.tags));\n\n        AsamiNostr.verifyDeletionMessage(\n          offer.nostrHexPubkey,\n          _deletionProof,\n          offer.nostrAffineX,\n          offer.nostrAffineY\n        );\n\n        offer.state = AsamiNostr.OfferState.ReportedDeletion;\n\n        uint256 refund = ((startGas - gasleft()) * 11) / 10;\n        deletionPenalties[offer.rewardAddress].push(DeletionPenalty(payable(msg.sender), refund));\n    }\n\n    function nostrReportAssumed (\n        OfferPointer calldata _p,\n        AsamiNostr.MessageProof calldata _messageProof,\n        AsamiNostr.DeletionProof calldata _deletionProof\n    )\n        external \n    {\n        uint256 startGas = gasleft();\n\n        Campaign storage campaign = getCampaignInTimeWindow(_p, 0, campaignDuration);\n\n        AsamiNostr.Offer storage offer = campaign.nostrTerms.offers[_p.offerId];\n        require(offer.state == AsamiNostr.OfferState.Assumed);\n\n        bytes32 messageId = AsamiNostr.verifyCampaignMessage(\n            campaign.nostrTerms.requestedContent,\n            offer.nostrHexPubkey,\n            _messageProof,\n            offer.nostrAffineX,\n            offer.nostrAffineY\n        );\n\n        offer.messageId = messageId;\n\n        require(AsamiNostr.idInTags(offer.messageId, _deletionProof.tags));\n\n        AsamiNostr.verifyDeletionMessage(\n          offer.nostrHexPubkey,\n          _deletionProof,\n          offer.nostrAffineX,\n          offer.nostrAffineY\n        );\n\n        offer.state = AsamiNostr.OfferState.ReportedDeletion;\n\n        uint256 refund = ((startGas - gasleft()) * 11) / 10;\n        deletionPenalties[offer.rewardAddress].push(DeletionPenalty(payable(msg.sender), refund));\n    }\n\n    function classicChallenge(\n      OfferPointer calldata _p\n    ) external {\n        Campaign storage campaign = getCampaignInTimeWindow(_p, 0, oneDay);\n        require(campaign.advertiser == msg.sender);\n\n        AsamiClassic.Offer storage offer = campaign.classicTerms.offers[_p.offerId];\n        require(offer.state == AsamiClassic.OfferState.Assumed);\n\n        offer.state = AsamiClassic.OfferState.Challenged;\n    }\n\n    function classicRequestConfirmation(\n      OfferPointer calldata _p\n    ) external {\n        Campaign storage campaign = getCampaignInTimeWindow(_p, 0, oneDay * 2 );\n\n        AsamiClassic.Offer storage offer = campaign.classicTerms.offers[_p.offerId];\n        require(offer.state == AsamiClassic.OfferState.Challenged);\n\n        require(rewardToken.transferFrom(msg.sender, address(this), campaign.classicTerms.oracleFee));\n\n        offer.state = AsamiClassic.OfferState.ConfirmationRequested;\n    }\n\n    function classicConfirm(\n      OfferPointer calldata _p,\n      bool _found\n    ) external {\n        Campaign storage campaign = getCampaignInTimeWindow(_p, 0, oneDay * 3 );\n        require(campaign.classicTerms.oracleAddress == msg.sender);\n\n        AsamiClassic.Offer storage offer = campaign.classicTerms.offers[_p.offerId];\n        require(offer.state == AsamiClassic.OfferState.ConfirmationRequested);\n        \n        oracleFees[campaign.classicTerms.oracleAddress] += campaign.classicTerms.oracleFee;\n\n        if (_found) {\n          offer.state = AsamiClassic.OfferState.Confirmed;\n        } else {\n          offer.state = AsamiClassic.OfferState.Refuted;\n        }\n    }\n\n    function classicConfirmFree(\n      OfferPointer calldata _p,\n      bool _found\n    ) external {\n        Campaign storage campaign = getCampaignInTimeWindow(_p, 0, oneDay * 3 );\n\n        require(campaign.classicTerms.oracleAddress == msg.sender);\n\n        AsamiClassic.Offer storage offer = campaign.classicTerms.offers[_p.offerId];\n        require(offer.state == AsamiClassic.OfferState.Challenged);\n        \n        if (_found) {\n          offer.state = AsamiClassic.OfferState.Confirmed;\n        } else {\n          offer.state = AsamiClassic.OfferState.Refuted;\n        }\n    }\n\n    function classicRenounce(\n      OfferPointer calldata _p\n    ) external {\n        Campaign storage campaign = getCampaignInTimeWindow(_p, 0, campaignDuration);\n        AsamiClassic.Offer storage offer = campaign.classicTerms.offers[_p.offerId];\n\n        require(offer.rewardAddress == msg.sender);\n\n        require(\n          offer.state == AsamiClassic.OfferState.Assumed ||\n          offer.state == AsamiClassic.OfferState.Challenged ||\n          offer.state == AsamiClassic.OfferState.Confirmed\n        );\n\n        offer.state = AsamiClassic.OfferState.Renounced;\n    }\n\n    function classicReportDeletion(\n      OfferPointer calldata _p\n    ) external {\n        Campaign storage campaign = getCampaignInTimeWindow(_p, 0, campaignDuration);\n        require(campaign.advertiser == msg.sender);\n\n        AsamiClassic.Offer storage offer = campaign.classicTerms.offers[_p.offerId];\n\n        require(\n          offer.state == AsamiClassic.OfferState.Assumed ||\n          offer.state == AsamiClassic.OfferState.Confirmed\n        );\n\n        require(rewardToken.transferFrom(msg.sender, address(this), campaign.classicTerms.oracleFee));\n\n        offer.deletionReportedAt = block.timestamp;\n        offer.state = AsamiClassic.OfferState.DeletionReported;\n    }\n\n    function classicConfirmDeletion(\n      OfferPointer calldata _p,\n      bool _wasDeleted\n    ) external {\n        Campaign storage campaign = getCampaignInTimeWindow(_p, 0, campaignDuration);\n        require(campaign.classicTerms.oracleAddress == msg.sender);\n\n        AsamiClassic.Offer storage offer = campaign.classicTerms.offers[_p.offerId];\n        require(offer.state == AsamiClassic.OfferState.DeletionReported);\n\n        oracleFees[campaign.classicTerms.oracleAddress] += campaign.classicTerms.oracleFee;\n\n        if (_wasDeleted) {\n          offer.state = AsamiClassic.OfferState.DeletionConfirmed;\n        } else {\n          offer.state = AsamiClassic.OfferState.Confirmed;\n        }\n    }\n\n    /*\n      Collects pointers to all offers which are interesting for a collaborator.\n      It could be because the collaborator has a reward to receive or a refund of oracle fees.\n    */\n    function getCollectableCollaboratorOffers(\n        address _collaborator\n    )\n        external view returns (OfferPointer[] memory, OfferPointer[] memory) \n    {\n        OfferPointer[] memory nostrPointers = new OfferPointer[](0);\n        OfferPointer[] memory classicPointers = new OfferPointer[](0);\n\n        for(uint i = 0; i < campaigns.length; i++) {\n          Campaign storage campaign = campaigns[i];\n          if( block.timestamp < (campaign.startDate + campaignDuration) ) {\n            continue;\n          }\n\n          if (campaign.nostrTerms.offers.length > 0) {\n            for(uint j = 0; j < campaign.nostrTerms.offers.length; j++) {\n              AsamiNostr.Offer storage offer = campaign.nostrTerms.offers[j];\n              if(\n                offer.rewardAddress == _collaborator && \n                AsamiNostr.collaboratorCanCollect(offer)\n              ) {\n                nostrPointers = pushPointer(nostrPointers, i, j);\n              }\n            }\n          } else {\n            for(uint j = 0; j < campaign.classicTerms.offers.length; j++) {\n              AsamiClassic.Offer memory offer = campaign.classicTerms.offers[j];\n              if(\n                offer.rewardAddress == _collaborator && \n                !offer.collaboratorCollected &&\n                offer.state != AsamiClassic.OfferState.Challenged &&\n                offer.state != AsamiClassic.OfferState.Refuted &&\n                offer.state != AsamiClassic.OfferState.Renounced &&\n                offer.state != AsamiClassic.OfferState.DeletionConfirmed\n              ) {\n                classicPointers = pushPointer(classicPointers, i, j);\n              }\n            }\n          }\n        }\n        return (nostrPointers, classicPointers);\n    }\n\n    /*\n      This function can be called by anyone to collect offers for a collaborator.\n    */\n    function collectCollaboratorOffers(\n        address _collaborator,\n        OfferPointer[] calldata _nostrPointers,\n        OfferPointer[] calldata _classicPointers\n    ) external {\n        require(deletionPenalties[_collaborator].length == 0);\n\n        uint256 total = 0;\n\n        for (uint i = 0; i < _nostrPointers.length; i++) {\n            Campaign storage campaign = campaigns[_nostrPointers[i].campaignId];\n            require(block.timestamp >= (campaign.startDate + campaignDuration), \"1\"); // Campaign not ended.\n\n            AsamiNostr.Offer storage offer = campaign.nostrTerms.offers[_nostrPointers[i].offerId];\n\n            require(offer.rewardAddress == _collaborator, \"2\"); // Wrong collaborator.\n            require(AsamiNostr.collaboratorCanCollect(offer));\n\n            total = offer.rewardAmount;\n            offer.collected = true;\n        }\n\n        for (uint i = 0; i < _classicPointers.length; i++) {\n            Campaign storage campaign = campaigns[_classicPointers[i].campaignId];\n            require(block.timestamp >= (campaign.startDate + campaignDuration));\n\n            AsamiClassic.Offer storage offer = campaign.classicTerms.offers[_classicPointers[i].offerId];\n\n            require(offer.rewardAddress == _collaborator);\n            require(!offer.collaboratorCollected);\n\n            if( offer.state == AsamiClassic.OfferState.Assumed || offer.state == AsamiClassic.OfferState.Confirmed) {\n              total += offer.rewardAmount;\n            } else if( offer.state == AsamiClassic.OfferState.ConfirmationRequested ) {\n              total += campaign.classicTerms.oracleFee;\n            } else if( offer.state == AsamiClassic.OfferState.DeletionReported ) {\n              total += (offer.deletionReportedAt - campaign.startDate) * offer.rewardAmount / campaignDuration;\n            } else {\n              revert();\n            }\n            offer.collaboratorCollected = true;\n        }\n\n        require(rewardToken.transfer(_collaborator, total));\n    }\n\n    function getCollectableAdvertiserOffers(\n      address _advertiser\n    )\n        external view returns (OfferPointer[] memory, OfferPointer[] memory) \n    {\n        OfferPointer[] memory nostrPointers = new OfferPointer[](0);\n        OfferPointer[] memory classicPointers = new OfferPointer[](0);\n\n        for(uint i = 0; i < campaigns.length; i++) {\n          Campaign storage campaign = campaigns[i];\n\n          if( \n            campaign.advertiser != _advertiser ||\n            block.timestamp < (campaign.startDate + campaignDuration)\n          ){\n            continue;\n          }\n\n          if (campaign.nostrTerms.offers.length > 0) {\n            for(uint j = 0; j < campaign.nostrTerms.offers.length; j++) {\n              AsamiNostr.Offer storage offer = campaign.nostrTerms.offers[j];\n              if( AsamiNostr.advertiserCanCollect(offer) ) {\n                nostrPointers = pushPointer(nostrPointers, i, j);\n              }\n            }\n          } else {\n            for(uint j = 0; j < campaign.classicTerms.offers.length; j++) {\n              AsamiClassic.Offer memory offer = campaign.classicTerms.offers[j];\n              if(\n                !offer.advertiserCollected &&\n                offer.state != AsamiClassic.OfferState.Assumed &&\n                offer.state != AsamiClassic.OfferState.Confirmed\n              ) {\n                nostrPointers = pushPointer(nostrPointers, i, j);\n              }\n            }\n          }\n        }\n        return (nostrPointers, classicPointers);\n    }\n\n    /*\n      This function is called by the Advertiser to collect refunds from non-awarded offers.\n      It may also be called by third parties to give the refunds to the Advertiser.\n      The Advertiser must provide a known list of offers that are ready to be refunded.\n      The list can be built by calling the getCollectableRefunds function in the contract.\n    */\n    function collectAdvertiserOffers(\n      address payable _advertiser,\n      OfferPointer[] calldata _nostrOffers,\n      OfferPointer[] calldata _classicOffers\n    ) external {\n        uint256 total = 0;\n\n        for (uint i = 0; i < _nostrOffers.length; i++) {\n            OfferPointer memory p = _nostrOffers[i];\n\n            Campaign storage campaign = campaigns[p.campaignId];\n            require(campaign.advertiser == _advertiser);\n            require(block.timestamp >= (campaign.startDate + campaignDuration));\n\n            AsamiNostr.Offer storage offer = campaign.nostrTerms.offers[p.offerId];\n\n            require(AsamiNostr.advertiserCanCollect(offer));\n\n            total += offer.rewardAmount;\n            offer.collected = true;\n        }\n\n        for (uint i = 0; i < _classicOffers.length; i++) {\n            OfferPointer memory p = _classicOffers[i];\n\n            Campaign storage campaign = campaigns[p.campaignId];\n            require(campaign.advertiser == _advertiser);\n            require(block.timestamp >= (campaign.startDate + campaignDuration));\n\n            AsamiClassic.Offer storage offer = campaign.classicTerms.offers[p.offerId];\n            require(!offer.advertiserCollected);\n\n            if(\n              offer.state == AsamiClassic.OfferState.Challenged ||\n              offer.state == AsamiClassic.OfferState.ConfirmationRequested ||\n              offer.state == AsamiClassic.OfferState.Refuted ||\n              offer.state == AsamiClassic.OfferState.Renounced ||\n              offer.state == AsamiClassic.OfferState.DeletionConfirmed\n            ) {\n              total += offer.rewardAmount;\n            } else if( offer.state == AsamiClassic.OfferState.DeletionReported ) {\n              total += (campaignDuration - (offer.deletionReportedAt - campaign.startDate)) * offer.rewardAmount / campaignDuration;\n            } else {\n              revert();\n            }\n            offer.advertiserCollected = true;\n        }\n\n        require(rewardToken.transfer(_advertiser, total));\n    }\n\n    function payDeletionPenalties(\n      address _debtor\n    ) external payable {\n        DeletionPenalty[] storage penalties = deletionPenalties[_debtor];\n        uint256 total = 0;\n\n        for (uint256 i = 0; i < penalties.length; i++) {\n            total += penalties[i].amount;\n        }\n\n        require(total > 0);\n        require(msg.value == total);\n\n        for (uint256 i = 0; i < penalties.length; i++) {\n            payable(penalties[i].creditor).transfer(penalties[i].amount);\n        }\n\n        delete deletionPenalties[_debtor];\n    }\n\n\n    function setAsamiFeePerOffer(uint256 _fee) external onlyOwner {\n        feePerOffer = _fee;\n    }\n\n    function setAsamiMaxFeePerCampaign(uint256 _fee) external onlyOwner {\n        maxFeePerCampaign = _fee;\n    }\n\n    function setAsamiFeesAddress(address _feesAddress) external onlyOwner {\n        feesAddress = _feesAddress;\n    }\n\n    function addSocialNetwork(string calldata _name) external onlyOwner {\n        socialNetworks.push(_name);\n    }\n\n    function collectAsamiFees() external {\n        require(fees > 0);\n        require(rewardToken.transferFrom(address(this), feesAddress, fees));\n        fees = 0;\n    }\n\n    function collectOracleFees(address _oracle) external {\n        require(oracleFees[_oracle] > 0);\n        require(rewardToken.transferFrom(address(this), _oracle, oracleFees[_oracle]));\n        oracleFees[_oracle] = 0;\n    }\n\n    function nostrGetCampaignOffer(OfferPointer memory _p) external view returns (AsamiNostr.Offer memory) {\n        return campaigns[_p.campaignId].nostrTerms.offers[_p.offerId];\n    }\n\n    function classicGetCampaignOffer(OfferPointer memory _p) external view returns (AsamiClassic.Offer memory) {\n        return campaigns[_p.campaignId].classicTerms.offers[_p.offerId];\n    }\n\n    function calculateCampaignFees(uint _offerCount) external view returns (uint256) {\n        uint256 total = _offerCount * feePerOffer;\n        return total > maxFeePerCampaign ? maxFeePerCampaign : total;\n    }\n\n    function getCampaignInTimeWindow(\n      OfferPointer calldata _p,\n      uint256 _offset,\n      uint256 _duration\n    ) internal view returns (Campaign storage) {\n        Campaign storage campaign = campaigns[_p.campaignId];\n        require(block.timestamp >= (campaign.startDate + _offset), \"99\");\n        require(block.timestamp <= (campaign.startDate + _offset + _duration), \"99\");\n        return campaign;\n    }\n\n    function pushPointer(\n      OfferPointer[] memory _pointers,\n      uint256 _campaignId,\n      uint256 _offerId\n    ) internal pure returns (OfferPointer[] memory) {\n      OfferPointer[] memory tmp = new OfferPointer[](_pointers.length + 1);\n      for (uint k = 0; k < _pointers.length; k++) {\n          tmp[k] = _pointers[k];\n      }\n      tmp[_pointers.length] = OfferPointer(_campaignId, _offerId);\n      return tmp;\n    }\n}\n",
  "sourcePath": "/home/nubis/asami/contract/contracts/Asami.sol",
  "compiler": {
    "name": "solc",
    "version": "0.8.19+commit.7dd6d404.Emscripten.clang"
  },
  "schemaVersion": "3.4.15",
  "updatedAt": "2023-08-30T08:09:47.391Z",
  "devdoc": {
    "kind": "dev",
    "methods": {
      "owner()": {
        "details": "Returns the address of the current owner."
      },
      "renounceOwnership()": {
        "details": "Leaves the contract without owner. It will not be possible to call `onlyOwner` functions. Can only be called by the current owner. NOTE: Renouncing ownership will leave the contract without an owner, thereby disabling any functionality that is only available to the owner."
      },
      "transferOwnership(address)": {
        "details": "Transfers ownership of the contract to a new account (`newOwner`). Can only be called by the current owner."
      }
    },
    "version": 1
  },
  "userdoc": {
    "kind": "user",
    "methods": {},
    "version": 1
  }
}