{
  "contractName": "Asami",
  "abi": [
    {
      "inputs": [
        {
          "internalType": "address",
          "name": "_dollarOnChainAddress",
          "type": "address"
        },
        {
          "internalType": "address",
          "name": "_adminAddress",
          "type": "address"
        }
      ],
      "stateMutability": "nonpayable",
      "type": "constructor"
    },
    {
      "anonymous": false,
      "inputs": [
        {
          "components": [
            {
              "internalType": "uint256",
              "name": "id",
              "type": "uint256"
            },
            {
              "internalType": "address",
              "name": "addr",
              "type": "address"
            },
            {
              "internalType": "uint256",
              "name": "unclaimedAsamiTokens",
              "type": "uint256"
            },
            {
              "internalType": "uint256",
              "name": "unclaimedDocRewards",
              "type": "uint256"
            },
            {
              "internalType": "uint256[]",
              "name": "handles",
              "type": "uint256[]"
            },
            {
              "internalType": "uint256[]",
              "name": "campaigns",
              "type": "uint256[]"
            },
            {
              "internalType": "uint256[]",
              "name": "collabs",
              "type": "uint256[]"
            }
          ],
          "indexed": false,
          "internalType": "struct Asami.Account",
          "name": "account",
          "type": "tuple"
        }
      ],
      "name": "AccountSaved",
      "type": "event"
    },
    {
      "anonymous": false,
      "inputs": [
        {
          "components": [
            {
              "internalType": "uint256",
              "name": "votes",
              "type": "uint256"
            },
            {
              "internalType": "address",
              "name": "candidate",
              "type": "address"
            },
            {
              "internalType": "uint256",
              "name": "cycle",
              "type": "uint256"
            },
            {
              "internalType": "bool",
              "name": "vested",
              "type": "bool"
            }
          ],
          "indexed": false,
          "internalType": "struct Asami.AdminVote",
          "name": "vote",
          "type": "tuple"
        }
      ],
      "name": "AdminVoteSaved",
      "type": "event"
    },
    {
      "anonymous": false,
      "inputs": [
        {
          "indexed": true,
          "internalType": "address",
          "name": "owner",
          "type": "address"
        },
        {
          "indexed": true,
          "internalType": "address",
          "name": "spender",
          "type": "address"
        },
        {
          "indexed": false,
          "internalType": "uint256",
          "name": "value",
          "type": "uint256"
        }
      ],
      "name": "Approval",
      "type": "event"
    },
    {
      "anonymous": false,
      "inputs": [
        {
          "components": [
            {
              "internalType": "uint256",
              "name": "id",
              "type": "uint256"
            },
            {
              "internalType": "uint256",
              "name": "accountId",
              "type": "uint256"
            },
            {
              "internalType": "enum Asami.Site",
              "name": "site",
              "type": "uint8"
            },
            {
              "internalType": "uint256",
              "name": "budget",
              "type": "uint256"
            },
            {
              "internalType": "uint256",
              "name": "remaining",
              "type": "uint256"
            },
            {
              "internalType": "string",
              "name": "contentId",
              "type": "string"
            },
            {
              "internalType": "uint256",
              "name": "priceScoreRatio",
              "type": "uint256"
            },
            {
              "internalType": "uint256[]",
              "name": "topics",
              "type": "uint256[]"
            },
            {
              "internalType": "uint256",
              "name": "validUntil",
              "type": "uint256"
            },
            {
              "internalType": "bool",
              "name": "fundedByAdmin",
              "type": "bool"
            }
          ],
          "indexed": false,
          "internalType": "struct Asami.Campaign",
          "name": "campaign",
          "type": "tuple"
        }
      ],
      "name": "CampaignSaved",
      "type": "event"
    },
    {
      "anonymous": false,
      "inputs": [
        {
          "components": [
            {
              "internalType": "uint256",
              "name": "id",
              "type": "uint256"
            },
            {
              "internalType": "uint256",
              "name": "handleId",
              "type": "uint256"
            },
            {
              "internalType": "uint256",
              "name": "campaignId",
              "type": "uint256"
            },
            {
              "internalType": "uint256",
              "name": "gross",
              "type": "uint256"
            },
            {
              "internalType": "uint256",
              "name": "fee",
              "type": "uint256"
            },
            {
              "internalType": "string",
              "name": "proof",
              "type": "string"
            },
            {
              "internalType": "uint256",
              "name": "createdAt",
              "type": "uint256"
            }
          ],
          "indexed": false,
          "internalType": "struct Asami.Collab",
          "name": "collab",
          "type": "tuple"
        }
      ],
      "name": "CollabSaved",
      "type": "event"
    },
    {
      "anonymous": false,
      "inputs": [
        {
          "components": [
            {
              "internalType": "uint256",
              "name": "id",
              "type": "uint256"
            },
            {
              "internalType": "uint256",
              "name": "accountId",
              "type": "uint256"
            },
            {
              "internalType": "enum Asami.Site",
              "name": "site",
              "type": "uint8"
            },
            {
              "internalType": "uint256",
              "name": "price",
              "type": "uint256"
            },
            {
              "internalType": "uint256",
              "name": "score",
              "type": "uint256"
            },
            {
              "internalType": "uint256[]",
              "name": "topics",
              "type": "uint256[]"
            },
            {
              "internalType": "string",
              "name": "username",
              "type": "string"
            },
            {
              "internalType": "string",
              "name": "userId",
              "type": "string"
            },
            {
              "internalType": "bool",
              "name": "needsUpdate",
              "type": "bool"
            },
            {
              "internalType": "string",
              "name": "newUsername",
              "type": "string"
            },
            {
              "internalType": "uint256",
              "name": "newPrice",
              "type": "uint256"
            },
            {
              "internalType": "uint256",
              "name": "newScore",
              "type": "uint256"
            },
            {
              "internalType": "uint256[]",
              "name": "newTopics",
              "type": "uint256[]"
            },
            {
              "internalType": "uint256",
              "name": "lastUpdated",
              "type": "uint256"
            }
          ],
          "indexed": false,
          "internalType": "struct Asami.Handle",
          "name": "handle",
          "type": "tuple"
        }
      ],
      "name": "HandleSaved",
      "type": "event"
    },
    {
      "anonymous": false,
      "inputs": [
        {
          "indexed": false,
          "internalType": "uint256",
          "name": "id",
          "type": "uint256"
        },
        {
          "indexed": false,
          "internalType": "string",
          "name": "name",
          "type": "string"
        }
      ],
      "name": "TopicSaved",
      "type": "event"
    },
    {
      "anonymous": false,
      "inputs": [
        {
          "indexed": true,
          "internalType": "address",
          "name": "from",
          "type": "address"
        },
        {
          "indexed": true,
          "internalType": "address",
          "name": "to",
          "type": "address"
        },
        {
          "indexed": false,
          "internalType": "uint256",
          "name": "value",
          "type": "uint256"
        }
      ],
      "name": "Transfer",
      "type": "event"
    },
    {
      "inputs": [
        {
          "internalType": "address",
          "name": "",
          "type": "address"
        }
      ],
      "name": "accountIdByAddress",
      "outputs": [
        {
          "internalType": "uint256",
          "name": "",
          "type": "uint256"
        }
      ],
      "stateMutability": "view",
      "type": "function",
      "constant": true
    },
    {
      "inputs": [
        {
          "internalType": "uint256",
          "name": "",
          "type": "uint256"
        }
      ],
      "name": "accountIds",
      "outputs": [
        {
          "internalType": "uint256",
          "name": "",
          "type": "uint256"
        }
      ],
      "stateMutability": "view",
      "type": "function",
      "constant": true
    },
    {
      "inputs": [
        {
          "internalType": "uint256",
          "name": "",
          "type": "uint256"
        }
      ],
      "name": "accounts",
      "outputs": [
        {
          "internalType": "uint256",
          "name": "id",
          "type": "uint256"
        },
        {
          "internalType": "address",
          "name": "addr",
          "type": "address"
        },
        {
          "internalType": "uint256",
          "name": "unclaimedAsamiTokens",
          "type": "uint256"
        },
        {
          "internalType": "uint256",
          "name": "unclaimedDocRewards",
          "type": "uint256"
        }
      ],
      "stateMutability": "view",
      "type": "function",
      "constant": true
    },
    {
      "inputs": [],
      "name": "admin",
      "outputs": [
        {
          "internalType": "address",
          "name": "",
          "type": "address"
        }
      ],
      "stateMutability": "view",
      "type": "function",
      "constant": true
    },
    {
      "inputs": [],
      "name": "adminTreasury",
      "outputs": [
        {
          "internalType": "address",
          "name": "",
          "type": "address"
        }
      ],
      "stateMutability": "view",
      "type": "function",
      "constant": true
    },
    {
      "inputs": [
        {
          "internalType": "address",
          "name": "",
          "type": "address"
        }
      ],
      "name": "adminVoteCountIdByCandidate",
      "outputs": [
        {
          "internalType": "uint256",
          "name": "",
          "type": "uint256"
        }
      ],
      "stateMutability": "view",
      "type": "function",
      "constant": true
    },
    {
      "inputs": [
        {
          "internalType": "uint256",
          "name": "",
          "type": "uint256"
        }
      ],
      "name": "adminVoteCounts",
      "outputs": [
        {
          "internalType": "uint256",
          "name": "votes",
          "type": "uint256"
        },
        {
          "internalType": "address",
          "name": "candidate",
          "type": "address"
        }
      ],
      "stateMutability": "view",
      "type": "function",
      "constant": true
    },
    {
      "inputs": [
        {
          "internalType": "address",
          "name": "owner",
          "type": "address"
        },
        {
          "internalType": "address",
          "name": "spender",
          "type": "address"
        }
      ],
      "name": "allowance",
      "outputs": [
        {
          "internalType": "uint256",
          "name": "",
          "type": "uint256"
        }
      ],
      "stateMutability": "view",
      "type": "function",
      "constant": true
    },
    {
      "inputs": [
        {
          "internalType": "address",
          "name": "spender",
          "type": "address"
        },
        {
          "internalType": "uint256",
          "name": "amount",
          "type": "uint256"
        }
      ],
      "name": "approve",
      "outputs": [
        {
          "internalType": "bool",
          "name": "",
          "type": "bool"
        }
      ],
      "stateMutability": "nonpayable",
      "type": "function"
    },
    {
      "inputs": [
        {
          "internalType": "address",
          "name": "account",
          "type": "address"
        }
      ],
      "name": "balanceOf",
      "outputs": [
        {
          "internalType": "uint256",
          "name": "",
          "type": "uint256"
        }
      ],
      "stateMutability": "view",
      "type": "function",
      "constant": true
    },
    {
      "inputs": [
        {
          "internalType": "uint256",
          "name": "",
          "type": "uint256"
        }
      ],
      "name": "campaigns",
      "outputs": [
        {
          "internalType": "uint256",
          "name": "id",
          "type": "uint256"
        },
        {
          "internalType": "uint256",
          "name": "accountId",
          "type": "uint256"
        },
        {
          "internalType": "enum Asami.Site",
          "name": "site",
          "type": "uint8"
        },
        {
          "internalType": "uint256",
          "name": "budget",
          "type": "uint256"
        },
        {
          "internalType": "uint256",
          "name": "remaining",
          "type": "uint256"
        },
        {
          "internalType": "string",
          "name": "contentId",
          "type": "string"
        },
        {
          "internalType": "uint256",
          "name": "priceScoreRatio",
          "type": "uint256"
        },
        {
          "internalType": "uint256",
          "name": "validUntil",
          "type": "uint256"
        },
        {
          "internalType": "bool",
          "name": "fundedByAdmin",
          "type": "bool"
        }
      ],
      "stateMutability": "view",
      "type": "function",
      "constant": true
    },
    {
      "inputs": [],
      "name": "cap",
      "outputs": [
        {
          "internalType": "uint256",
          "name": "",
          "type": "uint256"
        }
      ],
      "stateMutability": "view",
      "type": "function",
      "constant": true
    },
    {
      "inputs": [],
      "name": "claimedAsamiTokens",
      "outputs": [
        {
          "internalType": "uint256",
          "name": "",
          "type": "uint256"
        }
      ],
      "stateMutability": "view",
      "type": "function",
      "constant": true
    },
    {
      "inputs": [
        {
          "internalType": "uint256",
          "name": "",
          "type": "uint256"
        }
      ],
      "name": "collabs",
      "outputs": [
        {
          "internalType": "uint256",
          "name": "id",
          "type": "uint256"
        },
        {
          "internalType": "uint256",
          "name": "handleId",
          "type": "uint256"
        },
        {
          "internalType": "uint256",
          "name": "campaignId",
          "type": "uint256"
        },
        {
          "internalType": "uint256",
          "name": "gross",
          "type": "uint256"
        },
        {
          "internalType": "uint256",
          "name": "fee",
          "type": "uint256"
        },
        {
          "internalType": "string",
          "name": "proof",
          "type": "string"
        },
        {
          "internalType": "uint256",
          "name": "createdAt",
          "type": "uint256"
        }
      ],
      "stateMutability": "view",
      "type": "function",
      "constant": true
    },
    {
      "inputs": [],
      "name": "decimals",
      "outputs": [
        {
          "internalType": "uint8",
          "name": "",
          "type": "uint8"
        }
      ],
      "stateMutability": "view",
      "type": "function",
      "constant": true
    },
    {
      "inputs": [
        {
          "internalType": "address",
          "name": "spender",
          "type": "address"
        },
        {
          "internalType": "uint256",
          "name": "subtractedValue",
          "type": "uint256"
        }
      ],
      "name": "decreaseAllowance",
      "outputs": [
        {
          "internalType": "bool",
          "name": "",
          "type": "bool"
        }
      ],
      "stateMutability": "nonpayable",
      "type": "function"
    },
    {
      "inputs": [],
      "name": "defaultFeeRate",
      "outputs": [
        {
          "internalType": "uint256",
          "name": "",
          "type": "uint256"
        }
      ],
      "stateMutability": "view",
      "type": "function",
      "constant": true
    },
    {
      "inputs": [],
      "name": "feePool",
      "outputs": [
        {
          "internalType": "uint256",
          "name": "",
          "type": "uint256"
        }
      ],
      "stateMutability": "view",
      "type": "function",
      "constant": true
    },
    {
      "inputs": [],
      "name": "feeRate",
      "outputs": [
        {
          "internalType": "uint256",
          "name": "",
          "type": "uint256"
        }
      ],
      "stateMutability": "view",
      "type": "function",
      "constant": true
    },
    {
      "inputs": [
        {
          "internalType": "address",
          "name": "",
          "type": "address"
        }
      ],
      "name": "feeRateVotes",
      "outputs": [
        {
          "internalType": "uint256",
          "name": "votes",
          "type": "uint256"
        },
        {
          "internalType": "uint256",
          "name": "rate",
          "type": "uint256"
        }
      ],
      "stateMutability": "view",
      "type": "function",
      "constant": true
    },
    {
      "inputs": [
        {
          "internalType": "uint256",
          "name": "",
          "type": "uint256"
        }
      ],
      "name": "handles",
      "outputs": [
        {
          "internalType": "uint256",
          "name": "id",
          "type": "uint256"
        },
        {
          "internalType": "uint256",
          "name": "accountId",
          "type": "uint256"
        },
        {
          "internalType": "enum Asami.Site",
          "name": "site",
          "type": "uint8"
        },
        {
          "internalType": "uint256",
          "name": "price",
          "type": "uint256"
        },
        {
          "internalType": "uint256",
          "name": "score",
          "type": "uint256"
        },
        {
          "internalType": "string",
          "name": "username",
          "type": "string"
        },
        {
          "internalType": "string",
          "name": "userId",
          "type": "string"
        },
        {
          "internalType": "bool",
          "name": "needsUpdate",
          "type": "bool"
        },
        {
          "internalType": "string",
          "name": "newUsername",
          "type": "string"
        },
        {
          "internalType": "uint256",
          "name": "newPrice",
          "type": "uint256"
        },
        {
          "internalType": "uint256",
          "name": "newScore",
          "type": "uint256"
        },
        {
          "internalType": "uint256",
          "name": "lastUpdated",
          "type": "uint256"
        }
      ],
      "stateMutability": "view",
      "type": "function",
      "constant": true
    },
    {
      "inputs": [
        {
          "internalType": "uint256",
          "name": "",
          "type": "uint256"
        }
      ],
      "name": "holders",
      "outputs": [
        {
          "internalType": "address",
          "name": "",
          "type": "address"
        }
      ],
      "stateMutability": "view",
      "type": "function",
      "constant": true
    },
    {
      "inputs": [
        {
          "internalType": "address",
          "name": "spender",
          "type": "address"
        },
        {
          "internalType": "uint256",
          "name": "addedValue",
          "type": "uint256"
        }
      ],
      "name": "increaseAllowance",
      "outputs": [
        {
          "internalType": "bool",
          "name": "",
          "type": "bool"
        }
      ],
      "stateMutability": "nonpayable",
      "type": "function"
    },
    {
      "inputs": [],
      "name": "lastAdminElection",
      "outputs": [
        {
          "internalType": "uint256",
          "name": "",
          "type": "uint256"
        }
      ],
      "stateMutability": "view",
      "type": "function",
      "constant": true
    },
    {
      "inputs": [
        {
          "internalType": "address",
          "name": "",
          "type": "address"
        }
      ],
      "name": "lastFeePoolShareCycles",
      "outputs": [
        {
          "internalType": "uint256",
          "name": "",
          "type": "uint256"
        }
      ],
      "stateMutability": "view",
      "type": "function",
      "constant": true
    },
    {
      "inputs": [],
      "name": "lastVotedFeeRateAppliedOn",
      "outputs": [
        {
          "internalType": "uint256",
          "name": "",
          "type": "uint256"
        }
      ],
      "stateMutability": "view",
      "type": "function",
      "constant": true
    },
    {
      "inputs": [
        {
          "internalType": "uint256",
          "name": "",
          "type": "uint256"
        }
      ],
      "name": "latestAdminElections",
      "outputs": [
        {
          "internalType": "address",
          "name": "",
          "type": "address"
        }
      ],
      "stateMutability": "view",
      "type": "function",
      "constant": true
    },
    {
      "inputs": [],
      "name": "name",
      "outputs": [
        {
          "internalType": "string",
          "name": "",
          "type": "string"
        }
      ],
      "stateMutability": "view",
      "type": "function",
      "constant": true
    },
    {
      "inputs": [
        {
          "internalType": "uint256",
          "name": "",
          "type": "uint256"
        },
        {
          "internalType": "address",
          "name": "",
          "type": "address"
        }
      ],
      "name": "recentBalanceChanges",
      "outputs": [
        {
          "internalType": "uint256",
          "name": "added",
          "type": "uint256"
        },
        {
          "internalType": "uint256",
          "name": "substracted",
          "type": "uint256"
        }
      ],
      "stateMutability": "view",
      "type": "function",
      "constant": true
    },
    {
      "inputs": [
        {
          "internalType": "uint256",
          "name": "",
          "type": "uint256"
        }
      ],
      "name": "recentFeePoolChanges",
      "outputs": [
        {
          "internalType": "uint256",
          "name": "added",
          "type": "uint256"
        },
        {
          "internalType": "uint256",
          "name": "substracted",
          "type": "uint256"
        }
      ],
      "stateMutability": "view",
      "type": "function",
      "constant": true
    },
    {
      "inputs": [
        {
          "internalType": "uint256",
          "name": "",
          "type": "uint256"
        }
      ],
      "name": "recentTokens",
      "outputs": [
        {
          "internalType": "uint256",
          "name": "",
          "type": "uint256"
        }
      ],
      "stateMutability": "view",
      "type": "function",
      "constant": true
    },
    {
      "inputs": [
        {
          "internalType": "address",
          "name": "",
          "type": "address"
        }
      ],
      "name": "submittedAdminVotes",
      "outputs": [
        {
          "internalType": "uint256",
          "name": "votes",
          "type": "uint256"
        },
        {
          "internalType": "address",
          "name": "candidate",
          "type": "address"
        },
        {
          "internalType": "uint256",
          "name": "cycle",
          "type": "uint256"
        },
        {
          "internalType": "bool",
          "name": "vested",
          "type": "bool"
        }
      ],
      "stateMutability": "view",
      "type": "function",
      "constant": true
    },
    {
      "inputs": [],
      "name": "symbol",
      "outputs": [
        {
          "internalType": "string",
          "name": "",
          "type": "string"
        }
      ],
      "stateMutability": "view",
      "type": "function",
      "constant": true
    },
    {
      "inputs": [
        {
          "internalType": "uint256",
          "name": "",
          "type": "uint256"
        }
      ],
      "name": "topics",
      "outputs": [
        {
          "internalType": "string",
          "name": "",
          "type": "string"
        }
      ],
      "stateMutability": "view",
      "type": "function",
      "constant": true
    },
    {
      "inputs": [],
      "name": "totalSupply",
      "outputs": [
        {
          "internalType": "uint256",
          "name": "",
          "type": "uint256"
        }
      ],
      "stateMutability": "view",
      "type": "function",
      "constant": true
    },
    {
      "inputs": [
        {
          "internalType": "address",
          "name": "",
          "type": "address"
        }
      ],
      "name": "trackedHolders",
      "outputs": [
        {
          "internalType": "bool",
          "name": "",
          "type": "bool"
        }
      ],
      "stateMutability": "view",
      "type": "function",
      "constant": true
    },
    {
      "inputs": [
        {
          "internalType": "address",
          "name": "to",
          "type": "address"
        },
        {
          "internalType": "uint256",
          "name": "amount",
          "type": "uint256"
        }
      ],
      "name": "transfer",
      "outputs": [
        {
          "internalType": "bool",
          "name": "",
          "type": "bool"
        }
      ],
      "stateMutability": "nonpayable",
      "type": "function"
    },
    {
      "inputs": [
        {
          "internalType": "address",
          "name": "from",
          "type": "address"
        },
        {
          "internalType": "address",
          "name": "to",
          "type": "address"
        },
        {
          "internalType": "uint256",
          "name": "amount",
          "type": "uint256"
        }
      ],
      "name": "transferFrom",
      "outputs": [
        {
          "internalType": "bool",
          "name": "",
          "type": "bool"
        }
      ],
      "stateMutability": "nonpayable",
      "type": "function"
    },
    {
      "inputs": [],
      "name": "vestedAdminVotesTotal",
      "outputs": [
        {
          "internalType": "uint256",
          "name": "",
          "type": "uint256"
        }
      ],
      "stateMutability": "view",
      "type": "function",
      "constant": true
    },
    {
      "inputs": [],
      "name": "votedFeeRate",
      "outputs": [
        {
          "internalType": "uint256",
          "name": "",
          "type": "uint256"
        }
      ],
      "stateMutability": "view",
      "type": "function",
      "constant": true
    },
    {
      "inputs": [],
      "name": "votedFeeRateVoteCount",
      "outputs": [
        {
          "internalType": "uint256",
          "name": "",
          "type": "uint256"
        }
      ],
      "stateMutability": "view",
      "type": "function",
      "constant": true
    },
    {
      "inputs": [],
      "name": "getHandles",
      "outputs": [
        {
          "components": [
            {
              "internalType": "uint256",
              "name": "id",
              "type": "uint256"
            },
            {
              "internalType": "uint256",
              "name": "accountId",
              "type": "uint256"
            },
            {
              "internalType": "enum Asami.Site",
              "name": "site",
              "type": "uint8"
            },
            {
              "internalType": "uint256",
              "name": "price",
              "type": "uint256"
            },
            {
              "internalType": "uint256",
              "name": "score",
              "type": "uint256"
            },
            {
              "internalType": "uint256[]",
              "name": "topics",
              "type": "uint256[]"
            },
            {
              "internalType": "string",
              "name": "username",
              "type": "string"
            },
            {
              "internalType": "string",
              "name": "userId",
              "type": "string"
            },
            {
              "internalType": "bool",
              "name": "needsUpdate",
              "type": "bool"
            },
            {
              "internalType": "string",
              "name": "newUsername",
              "type": "string"
            },
            {
              "internalType": "uint256",
              "name": "newPrice",
              "type": "uint256"
            },
            {
              "internalType": "uint256",
              "name": "newScore",
              "type": "uint256"
            },
            {
              "internalType": "uint256[]",
              "name": "newTopics",
              "type": "uint256[]"
            },
            {
              "internalType": "uint256",
              "name": "lastUpdated",
              "type": "uint256"
            }
          ],
          "internalType": "struct Asami.Handle[]",
          "name": "",
          "type": "tuple[]"
        }
      ],
      "stateMutability": "view",
      "type": "function",
      "constant": true
    },
    {
      "inputs": [],
      "name": "getCampaigns",
      "outputs": [
        {
          "components": [
            {
              "internalType": "uint256",
              "name": "id",
              "type": "uint256"
            },
            {
              "internalType": "uint256",
              "name": "accountId",
              "type": "uint256"
            },
            {
              "internalType": "enum Asami.Site",
              "name": "site",
              "type": "uint8"
            },
            {
              "internalType": "uint256",
              "name": "budget",
              "type": "uint256"
            },
            {
              "internalType": "uint256",
              "name": "remaining",
              "type": "uint256"
            },
            {
              "internalType": "string",
              "name": "contentId",
              "type": "string"
            },
            {
              "internalType": "uint256",
              "name": "priceScoreRatio",
              "type": "uint256"
            },
            {
              "internalType": "uint256[]",
              "name": "topics",
              "type": "uint256[]"
            },
            {
              "internalType": "uint256",
              "name": "validUntil",
              "type": "uint256"
            },
            {
              "internalType": "bool",
              "name": "fundedByAdmin",
              "type": "bool"
            }
          ],
          "internalType": "struct Asami.Campaign[]",
          "name": "",
          "type": "tuple[]"
        }
      ],
      "stateMutability": "view",
      "type": "function",
      "constant": true
    },
    {
      "inputs": [],
      "name": "allAdminVoteCounts",
      "outputs": [
        {
          "components": [
            {
              "internalType": "uint256",
              "name": "votes",
              "type": "uint256"
            },
            {
              "internalType": "address",
              "name": "candidate",
              "type": "address"
            }
          ],
          "internalType": "struct Asami.AdminVoteCount[]",
          "name": "",
          "type": "tuple[]"
        }
      ],
      "stateMutability": "view",
      "type": "function",
      "constant": true
    },
    {
      "inputs": [],
      "name": "getLatestAdminElections",
      "outputs": [
        {
          "internalType": "address[3]",
          "name": "",
          "type": "address[3]"
        }
      ],
      "stateMutability": "view",
      "type": "function",
      "constant": true
    },
    {
      "inputs": [],
      "name": "getHolders",
      "outputs": [
        {
          "internalType": "address[]",
          "name": "",
          "type": "address[]"
        }
      ],
      "stateMutability": "view",
      "type": "function",
      "constant": true
    },
    {
      "inputs": [],
      "name": "getClaimedAsamiTokens",
      "outputs": [
        {
          "internalType": "uint256",
          "name": "",
          "type": "uint256"
        }
      ],
      "stateMutability": "view",
      "type": "function",
      "constant": true
    },
    {
      "inputs": [],
      "name": "getTopics",
      "outputs": [
        {
          "internalType": "string[]",
          "name": "",
          "type": "string[]"
        }
      ],
      "stateMutability": "view",
      "type": "function",
      "constant": true
    },
    {
      "inputs": [
        {
          "internalType": "string[]",
          "name": "_names",
          "type": "string[]"
        }
      ],
      "name": "adminAddTopics",
      "outputs": [],
      "stateMutability": "nonpayable",
      "type": "function"
    },
    {
      "inputs": [
        {
          "components": [
            {
              "internalType": "uint256",
              "name": "accountId",
              "type": "uint256"
            },
            {
              "internalType": "address",
              "name": "addr",
              "type": "address"
            }
          ],
          "internalType": "struct Asami.AdminClaimAccountsInput[]",
          "name": "_input",
          "type": "tuple[]"
        }
      ],
      "name": "claimAccounts",
      "outputs": [],
      "stateMutability": "nonpayable",
      "type": "function"
    },
    {
      "inputs": [
        {
          "components": [
            {
              "internalType": "uint256",
              "name": "id",
              "type": "uint256"
            },
            {
              "internalType": "uint256",
              "name": "accountId",
              "type": "uint256"
            },
            {
              "internalType": "enum Asami.Site",
              "name": "site",
              "type": "uint8"
            },
            {
              "internalType": "uint256",
              "name": "price",
              "type": "uint256"
            },
            {
              "internalType": "uint256",
              "name": "score",
              "type": "uint256"
            },
            {
              "internalType": "uint256[]",
              "name": "topics",
              "type": "uint256[]"
            },
            {
              "internalType": "string",
              "name": "username",
              "type": "string"
            },
            {
              "internalType": "string",
              "name": "userId",
              "type": "string"
            },
            {
              "internalType": "bool",
              "name": "needsUpdate",
              "type": "bool"
            },
            {
              "internalType": "string",
              "name": "newUsername",
              "type": "string"
            },
            {
              "internalType": "uint256",
              "name": "newPrice",
              "type": "uint256"
            },
            {
              "internalType": "uint256",
              "name": "newScore",
              "type": "uint256"
            },
            {
              "internalType": "uint256[]",
              "name": "newTopics",
              "type": "uint256[]"
            },
            {
              "internalType": "uint256",
              "name": "lastUpdated",
              "type": "uint256"
            }
          ],
          "internalType": "struct Asami.Handle[]",
          "name": "_inputs",
          "type": "tuple[]"
        }
      ],
      "name": "adminMakeHandles",
      "outputs": [],
      "stateMutability": "nonpayable",
      "type": "function"
    },
    {
      "inputs": [
        {
          "components": [
            {
              "internalType": "enum Asami.Site",
              "name": "site",
              "type": "uint8"
            },
            {
              "internalType": "uint256",
              "name": "budget",
              "type": "uint256"
            },
            {
              "internalType": "string",
              "name": "contentId",
              "type": "string"
            },
            {
              "internalType": "uint256",
              "name": "priceScoreRatio",
              "type": "uint256"
            },
            {
              "internalType": "uint256[]",
              "name": "topics",
              "type": "uint256[]"
            },
            {
              "internalType": "uint256",
              "name": "validUntil",
              "type": "uint256"
            }
          ],
          "internalType": "struct Asami.CampaignInput[]",
          "name": "_inputs",
          "type": "tuple[]"
        }
      ],
      "name": "makeCampaigns",
      "outputs": [],
      "stateMutability": "nonpayable",
      "type": "function"
    },
    {
      "inputs": [
        {
          "components": [
            {
              "internalType": "uint256",
              "name": "accountId",
              "type": "uint256"
            },
            {
              "components": [
                {
                  "internalType": "enum Asami.Site",
                  "name": "site",
                  "type": "uint8"
                },
                {
                  "internalType": "uint256",
                  "name": "budget",
                  "type": "uint256"
                },
                {
                  "internalType": "string",
                  "name": "contentId",
                  "type": "string"
                },
                {
                  "internalType": "uint256",
                  "name": "priceScoreRatio",
                  "type": "uint256"
                },
                {
                  "internalType": "uint256[]",
                  "name": "topics",
                  "type": "uint256[]"
                },
                {
                  "internalType": "uint256",
                  "name": "validUntil",
                  "type": "uint256"
                }
              ],
              "internalType": "struct Asami.CampaignInput",
              "name": "attrs",
              "type": "tuple"
            }
          ],
          "internalType": "struct Asami.AdminCampaignInput[]",
          "name": "_inputs",
          "type": "tuple[]"
        }
      ],
      "name": "adminMakeCampaigns",
      "outputs": [],
      "stateMutability": "nonpayable",
      "type": "function"
    },
    {
      "inputs": [
        {
          "components": [
            {
              "internalType": "uint256",
              "name": "campaignId",
              "type": "uint256"
            },
            {
              "internalType": "uint256",
              "name": "handleId",
              "type": "uint256"
            }
          ],
          "internalType": "struct Asami.AdminMakeCollabsInput[]",
          "name": "_collabs",
          "type": "tuple[]"
        }
      ],
      "name": "adminMakeCollabs",
      "outputs": [],
      "stateMutability": "nonpayable",
      "type": "function"
    },
    {
      "inputs": [
        {
          "internalType": "uint256[]",
          "name": "_campaignIds",
          "type": "uint256[]"
        }
      ],
      "name": "reimburseDueCampaigns",
      "outputs": [],
      "stateMutability": "nonpayable",
      "type": "function"
    },
    {
      "inputs": [
        {
          "components": [
            {
              "internalType": "uint256",
              "name": "handleId",
              "type": "uint256"
            },
            {
              "internalType": "uint256",
              "name": "price",
              "type": "uint256"
            }
          ],
          "internalType": "struct Asami.AdminSetPriceInput[]",
          "name": "_inputs",
          "type": "tuple[]"
        }
      ],
      "name": "adminSetPrice",
      "outputs": [],
      "stateMutability": "nonpayable",
      "type": "function"
    },
    {
      "inputs": [
        {
          "internalType": "uint256",
          "name": "_handleId",
          "type": "uint256"
        },
        {
          "internalType": "uint256",
          "name": "_price",
          "type": "uint256"
        }
      ],
      "name": "setPrice",
      "outputs": [],
      "stateMutability": "nonpayable",
      "type": "function"
    },
    {
      "inputs": [
        {
          "components": [
            {
              "internalType": "uint256",
              "name": "handleId",
              "type": "uint256"
            },
            {
              "internalType": "uint256",
              "name": "score",
              "type": "uint256"
            },
            {
              "internalType": "uint256[]",
              "name": "topics",
              "type": "uint256[]"
            }
          ],
          "internalType": "struct Asami.AdminSetScoreAndTopicsInput[]",
          "name": "_inputs",
          "type": "tuple[]"
        }
      ],
      "name": "adminSetScoreAndTopics",
      "outputs": [],
      "stateMutability": "nonpayable",
      "type": "function"
    },
    {
      "inputs": [],
      "name": "getCycleLength",
      "outputs": [
        {
          "internalType": "uint256",
          "name": "",
          "type": "uint256"
        }
      ],
      "stateMutability": "pure",
      "type": "function",
      "constant": true
    },
    {
      "inputs": [],
      "name": "getCurrentCycle",
      "outputs": [
        {
          "internalType": "uint256",
          "name": "",
          "type": "uint256"
        }
      ],
      "stateMutability": "view",
      "type": "function",
      "constant": true
    },
    {
      "inputs": [],
      "name": "getNextCycle",
      "outputs": [
        {
          "internalType": "uint256",
          "name": "",
          "type": "uint256"
        }
      ],
      "stateMutability": "view",
      "type": "function",
      "constant": true
    },
    {
      "inputs": [
        {
          "internalType": "address",
          "name": "_holder",
          "type": "address"
        }
      ],
      "name": "getRecentBalanceChange",
      "outputs": [
        {
          "components": [
            {
              "internalType": "uint256",
              "name": "added",
              "type": "uint256"
            },
            {
              "internalType": "uint256",
              "name": "substracted",
              "type": "uint256"
            }
          ],
          "internalType": "struct Asami.BalanceChange",
          "name": "",
          "type": "tuple"
        }
      ],
      "stateMutability": "view",
      "type": "function",
      "constant": true
    },
    {
      "inputs": [
        {
          "internalType": "address",
          "name": "_holder",
          "type": "address"
        }
      ],
      "name": "getBalanceBeforeRecentChanges",
      "outputs": [
        {
          "internalType": "uint256",
          "name": "",
          "type": "uint256"
        }
      ],
      "stateMutability": "view",
      "type": "function",
      "constant": true
    },
    {
      "inputs": [],
      "name": "getFeePoolBeforeRecentChanges",
      "outputs": [
        {
          "internalType": "uint256",
          "name": "",
          "type": "uint256"
        }
      ],
      "stateMutability": "view",
      "type": "function",
      "constant": true
    },
    {
      "inputs": [
        {
          "internalType": "address[]",
          "name": "_holders",
          "type": "address[]"
        }
      ],
      "name": "claimFeePoolShare",
      "outputs": [],
      "stateMutability": "nonpayable",
      "type": "function"
    },
    {
      "inputs": [
        {
          "internalType": "uint256[]",
          "name": "_indexes",
          "type": "uint256[]"
        }
      ],
      "name": "applyHandleUpdates",
      "outputs": [],
      "stateMutability": "nonpayable",
      "type": "function"
    },
    {
      "inputs": [],
      "name": "applyVotedFeeRate",
      "outputs": [],
      "stateMutability": "nonpayable",
      "type": "function"
    },
    {
      "inputs": [
        {
          "internalType": "uint256",
          "name": "_rate",
          "type": "uint256"
        }
      ],
      "name": "submitFeeRateVote",
      "outputs": [],
      "stateMutability": "nonpayable",
      "type": "function"
    },
    {
      "inputs": [],
      "name": "removeFeeRateVote",
      "outputs": [],
      "stateMutability": "nonpayable",
      "type": "function"
    },
    {
      "inputs": [
        {
          "internalType": "address",
          "name": "_candidate",
          "type": "address"
        }
      ],
      "name": "submitAdminVote",
      "outputs": [],
      "stateMutability": "nonpayable",
      "type": "function"
    },
    {
      "inputs": [
        {
          "internalType": "address[]",
          "name": "_holders",
          "type": "address[]"
        }
      ],
      "name": "vestAdminVotes",
      "outputs": [],
      "stateMutability": "nonpayable",
      "type": "function"
    },
    {
      "inputs": [
        {
          "internalType": "address",
          "name": "_candidate",
          "type": "address"
        }
      ],
      "name": "proclaimCycleAdminWinner",
      "outputs": [],
      "stateMutability": "nonpayable",
      "type": "function"
    },
    {
      "inputs": [],
      "name": "removeAdminVote",
      "outputs": [],
      "stateMutability": "nonpayable",
      "type": "function"
    },
    {
      "inputs": [
        {
          "internalType": "address",
          "name": "_admin",
          "type": "address"
        }
      ],
      "name": "setAdminAddress",
      "outputs": [],
      "stateMutability": "nonpayable",
      "type": "function"
    },
    {
      "inputs": [
        {
          "internalType": "uint256[]",
          "name": "mainSet",
          "type": "uint256[]"
        },
        {
          "internalType": "uint256[]",
          "name": "subset",
          "type": "uint256[]"
        }
      ],
      "name": "isSubset",
      "outputs": [
        {
          "internalType": "bool",
          "name": "",
          "type": "bool"
        }
      ],
      "stateMutability": "pure",
      "type": "function",
      "constant": true
    }
  ],
  "bytecode": "0x60a0604052678ac7230489e80000600c55600c54600d55600c54600e556000600f5560006010553480156200003357600080fd5b5060405162005fd438038062005fd483398101604081905262000056916200017c565b6a115eec47f6cf7e350000006040518060400160405280600a81526020016920b9b0b6b4aa37b5b2b760b11b815250604051806040016040528060058152602001644153414d4960d81b8152508160039081620000b4919062000259565b506004620000c3828262000259565b505050600081116200011b5760405162461bcd60e51b815260206004820152601560248201527f45524332304361707065643a2063617020697320300000000000000000000000604482015260640160405180910390fd5b6080526001600555601b80546001600160a01b039384166001600160a01b031991821617909155601f8054821633179055601e805492909316911617905562000325565b80516001600160a01b03811681146200017757600080fd5b919050565b600080604083850312156200019057600080fd5b6200019b836200015f565b9150620001ab602084016200015f565b90509250929050565b634e487b7160e01b600052604160045260246000fd5b600181811c90821680620001df57607f821691505b6020821081036200020057634e487b7160e01b600052602260045260246000fd5b50919050565b601f8211156200025457600081815260208120601f850160051c810160208610156200022f5750805b601f850160051c820191505b8181101562000250578281556001016200023b565b5050505b505050565b81516001600160401b03811115620002755762000275620001b4565b6200028d81620002868454620001ca565b8462000206565b602080601f831160018114620002c55760008415620002ac5750858301515b600019600386901b1c1916600185901b17855562000250565b600085815260208120601f198616915b82811015620002f657888601518255948401946001909101908401620002d5565b5085821015620003155787850151600019600388901b60f8161c191681555b5050505050600190811b01905550565b608051615c93620003416000396000610d840152615c936000f3fe608060405234801561001057600080fd5b50600436106103595760003560e01c806306fdde031461035e57806307d334551461037c578063080b064814610393578063095ea7b3146103da5780630dff55ed146103fd578063139fd1c214610424578063141961bc146104445780631677aa3d1461046c57806318160ddd1461047557806318d9adab1461047d5780631b06cfbc1461049057806320841544146104bb57806323b872dd146104c35780632a11ced0146104d65780632c1e816d146104e9578063313ce567146104fe57806333c24bd31461050d578063355274ea1461052057806339509351146105285780633ca75e561461053b5780633ec62c0b1461054e578063402c513314610561578063419a7c5d146105745780634259d8a21461058957806346c33dd5146105925780634ba593c6146105a55780634bd38e26146105b857806358cea7d2146105d85780635d03e487146105eb5780635e613423146105fe5780635fe8e7cc146106075780636717d7a81461061c5780636782eb0d1461063c57806368841a461461064f5780636b6a4ad0146106585780636bd1c2301461067b5780636f1c76171461069b57806370a08231146106a357806374f1ea16146106b657806379dec48b146106e45780637d98e20f146106ec57806381d036f514610712578063894d71e1146107395780638b69633d1461074c5780638bec13cf1461075f57806390537d1f146107685780639314b2141461077b57806395d89b411461078457806396cad0db1461078c578063978bbdb91461079f5780639938e929146107a85780639bd40aee146107bb5780639dfceaaa146107ce578063a457c2d7146107e1578063a6b03633146107f4578063a9059cbb14610809578063ae2e933b1461081c578063bd5ff42314610825578063be26ed7f14610838578063c3d03cd414610840578063cdada3b614610855578063d8c44f501461086a578063dbc5bdc414610872578063dd62ed3e14610885578063e4c1be2e14610898578063ec8b436c146108a1578063f2a40db81461090d578063f3401bc314610974578063f398c24114610987578063f7d975771461098f578063f851a440146109a2578063fa7fb4d8146109b5578063fdb265b0146109e5578063fee0117714610a10578063ff3f188614610a25575b600080fd5b610366610a2d565b60405161037391906146b4565b60405180910390f35b610385600c5481565b604051908152602001610373565b6103c56103a13660046146e3565b60226020908152600092835260408084209091529082529020805460019091015482565b60408051928352602083019190915201610373565b6103ed6103e836600461470f565b610abf565b6040519015158152602001610373565b6103c561040b366004614739565b6023602052600090815260409020805460019091015482565b610385610432366004614739565b60246020526000908152604090205481565b610457610452366004614739565b610ad9565b6040516103739998979695949392919061478a565b61038560205481565b600254610385565b61036661048b366004614739565b610bc8565b6104a361049e366004614739565b610c74565b6040516001600160a01b039091168152602001610373565b610385610c94565b6103ed6104d13660046147e8565b610cda565b6104a36104e4366004614739565b610cfe565b6104fc6104f7366004614824565b610d28565b005b60405160128152602001610373565b61038561051b366004614739565b610d61565b610385610d82565b6103ed61053636600461470f565b610da6565b6104fc61054936600461488a565b610dc8565b6104fc61055c36600461488a565b61101e565b6104fc61056f36600461490f565b611165565b61057c611360565b6040516103739190614944565b6213c680610385565b6104fc6105a036600461488a565b6113a5565b6104fc6105b336600461490f565b6114f8565b6103856105c6366004614824565b60146020526000908152604090205481565b6104fc6105e636600461488a565b6115ee565b6104fc6105f9366004614824565b611758565b610385600e5481565b61060f611902565b604051610373919061497e565b61038561062a366004614824565b60086020526000908152604090205481565b61038561064a366004614824565b611962565b61038560105481565b6103ed610666366004614824565b601d6020526000908152604090205460ff1681565b610385610689366004614824565b60256020526000908152604090205481565b6104fc6119d2565b6103856106b1366004614824565b6119f7565b6106c96106c4366004614824565b611a12565b60408051825181526020928301519281019290925201610373565b610385611a73565b6106ff6106fa366004614739565b611a90565b60405161037397969594939291906149cb565b6103c5610720366004614824565b6011602052600090815260409020805460019091015482565b6104fc61074736600461488a565b611b6a565b6103ed61075a366004614afd565b611c91565b61038560165481565b6104fc61077636600461488a565b611d2d565b610385600f5481565b610366611e8b565b601f546104a3906001600160a01b031681565b610385600d5481565b6104fc6107b636600461490f565b611e9a565b6104fc6107c936600461488a565b61270a565b6104fc6107dc366004614739565b61298c565b6103ed6107ef36600461470f565b612a9f565b6107fc612b1a565b6040516103739190614c3d565b6103ed61081736600461470f565b612cee565b61038560215481565b6104fc61083336600461488a565b612cfc565b610385612f8a565b610848612f99565b6040516103739190614c9f565b61085d6132e8565b6040516103739190614df2565b6104fc613354565b6104fc61088036600461488a565b61335f565b610385610893366004614e4a565b61344f565b61038560155481565b6108e36108af366004614824565b601260205260009081526040902080546001820154600283015460039093015491926001600160a01b039091169160ff1684565b604080519485526001600160a01b0390931660208501529183015215156060820152608001610373565b61094c61091b366004614739565b600760205260009081526040902080546001820154600283015460039093015491926001600160a01b039091169184565b604080519485526001600160a01b039093166020850152918301526060820152608001610373565b6104fc610982366004614824565b61347a565b6104fc6135d0565b6104fc61099d366004614e74565b6135d9565b601e546104a3906001600160a01b031681565b6109c86109c3366004614739565b613667565b604080519283526001600160a01b03909116602083015201610373565b6109f86109f3366004614739565b61369e565b6040516103739c9b9a99989796959493929190614e96565b610a186138b3565b6040516103739190614f28565b602054610385565b606060038054610a3c90614f7d565b80601f0160208091040260200160405190810160405280929190818152602001828054610a6890614f7d565b8015610ab55780601f10610a8a57610100808354040283529160200191610ab5565b820191906000526020600020905b815481529060010190602001808311610a9857829003601f168201915b5050505050905090565b600033610acd818585613983565b60019150505b92915050565b600a8181548110610ae957600080fd5b60009182526020909120600a9091020180546001820154600283015460038401546004850154600586018054959750939560ff909316949193909291610b2e90614f7d565b80601f0160208091040260200160405190810160405280929190818152602001828054610b5a90614f7d565b8015610ba75780601f10610b7c57610100808354040283529160200191610ba7565b820191906000526020600020905b815481529060010190602001808311610b8a57829003601f168201915b50505050600683015460088401546009909401549293909290915060ff1689565b601a8181548110610bd857600080fd5b906000526020600020016000915090508054610bf390614f7d565b80601f0160208091040260200160405190810160405280929190818152602001828054610c1f90614f7d565b8015610c6c5780601f10610c4157610100808354040283529160200191610c6c565b820191906000526020600020905b815481529060010190602001808311610c4f57829003601f168201915b505050505081565b60178160038110610c8457600080fd5b01546001600160a01b0316905081565b60008060236000610ca3612f8a565b8152602001908152602001600020905080600001548160010154602154610cca9190614fcd565b610cd49190614fe0565b91505090565b600033610ce8858285613aa7565b610cf3858585613b1b565b506001949350505050565b601c8181548110610d0e57600080fd5b6000918252602090912001546001600160a01b0316905081565b601f546001600160a01b03163314610d3f57600080fd5b601e80546001600160a01b0319166001600160a01b0392909216919091179055565b60068181548110610d7157600080fd5b600091825260209091200154905081565b7f000000000000000000000000000000000000000000000000000000000000000090565b600033610acd818585610db9838361344f565b610dc39190614fcd565b613983565b610dd0613cb8565b60005b8181101561100f576000600a6001858585818110610df357610df3614ff3565b90506020020135610e049190614fe0565b81548110610e1457610e14614ff3565b90600052602060002090600a020190506000816000015411610e655760405162461bcd60e51b8152602060048201526005602482015264072646320360dc1b60448201526064015b60405180910390fd5b6000816004015411610ea15760405162461bcd60e51b8152602060048201526005602482015264726463203160d81b6044820152606401610e5c565b42816008015410610edc5760405162461bcd60e51b8152602060048201526005602482015264393231901960d91b6044820152606401610e5c565b600181015460009081526007602052604081206004830180549083905560098401549192909160ff16610f1c5760018301546001600160a01b0316610f29565b601f546001600160a01b03165b601b5460405163a9059cbb60e01b81529192506001600160a01b03169063a9059cbb90610f5c9084908690600401615009565b6020604051808303816000875af1158015610f7b573d6000803e3d6000fd5b505050506040513d601f19601f82011682018060405250810190610f9f9190615030565b610fd35760405162461bcd60e51b8152602060048201526005602482015264726463203360d81b6044820152606401610e5c565b600080516020615c3e83398151915284604051610ff091906150ff565b60405180910390a1505050508080611007906151ac565b915050610dd3565b5061101a6001600555565b5050565b601e546001600160a01b03163314806110415750601f546001600160a01b031633145b61104a57600080fd5b60005b818110156111605760006009600185858581811061106d5761106d614ff3565b905060200281019061107f91906151c5565b61108a919035614fe0565b8154811061109a5761109a614ff3565b90600052602060002090600e020190508383838181106110bc576110bc614ff3565b90506020028101906110ce91906151c5565b60200135600b8201558383838181106110e9576110e9614ff3565b90506020028101906110fb91906151c5565b6111099060408101906151e5565b61111791600c840191614575565b5060088101805460ff19166001179055604051600080516020615bde8339815191529061114590839061522e565b60405180910390a15080611158816151ac565b91505061104d565b505050565b601e546001600160a01b03163314806111885750601f546001600160a01b031633145b61119157600080fd5b611199613cb8565b60005b8181101561100f57368383838181106111b7576111b7614ff3565b90506040020190506111cc8160000135613d11565b8035600090815260076020526040902060018101546001600160a01b0316156111f457600080fd5b81356008600061120a6040860160208701614824565b6001600160a01b03166001600160a01b03168152602001908152602001600020819055508160200160208101906112419190614824565b6001820180546001600160a01b0319166001600160a01b039290921691909117905560028101541561129357600281018054600090915561129161128b6040850160208601614824565b82613d6c565b505b600381015415611326576003810180546000909155601b54600183015460405163a9059cbb60e01b81526001600160a01b039283169263a9059cbb926112e0929116908590600401615009565b6020604051808303816000875af11580156112ff573d6000803e3d6000fd5b505050506040513d601f19601f820116820180604052508101906113239190615030565b50505b600080516020615bfe83398151915281604051611343919061533a565b60405180910390a150508080611358906151ac565b91505061119c565b6113686145c0565b6040805160608101918290529060179060039082845b81546001600160a01b0316815260019091019060200180831161137e575050505050905090565b6113ad613cb8565b3360009081526008602090815260408083205483526007909152902060018101546001600160a01b031661140c5760405162461bcd60e51b8152600401610e5c9060208082526004908201526306d6320360e41b604082015260600190565b60005b828110156114ec57600084848381811061142b5761142b614ff3565b905060200281019061143d91906153c2565b611446906154fc565b90506114d983604051806101400160405280600a80549050600161146a9190614fcd565b8152865460208201528451604090910190600d81111561148c5761148c614752565b815260200184602001518152602001846020015181526020018460400151815260200184606001518152602001846080015181526020018460a00151815260200160001515815250613da6565b50806114e4816151ac565b91505061140f565b505061101a6001600555565b601e546001600160a01b031633148061151b5750601f546001600160a01b031633145b61152457600080fd5b60005b818110156111605760006009600185858581811061154757611547614ff3565b9050604002016000013561155b9190614fe0565b8154811061156b5761156b614ff3565b600091825260208083206001600e909302018281015484526007909152604090922090810154919250906001600160a01b03161580156115ab5750805415155b6115b457600080fd5b6115d9828686868181106115ca576115ca614ff3565b90506040020160200135613fbc565b505080806115e6906151ac565b915050611527565b601e546001600160a01b03163314806116115750601f546001600160a01b031633145b61161a57600080fd5b611622613cb8565b60005b8181101561100f57600083838381811061164157611641614ff3565b90506020028101906116539190615508565b61165c9061551e565b905061166b8160000151613d11565b8051600090815260076020526040902060018101546001600160a01b03161561169357600080fd5b61174381604051806101400160405280600a8054905060016116b59190614fcd565b815260200184600001548152602001856020015160000151600d8111156116de576116de614752565b815260200185602001516020015181526020018560200151602001518152602001856020015160400151815260200185602001516060015181526020018560200151608001518152602001856020015160a00151815260200160011515815250613da6565b50508080611750906151ac565b915050611625565b6001600160a01b0381166000908152601460205260409020548061177b57600080fd5b6000601361178a600184614fe0565b8154811061179a5761179a614ff3565b9060005260206000209060020201905060026015546117b99190615588565b8154116117f05760405162461bcd60e51b8152602060048201526005602482015264070637720360dc1b6044820152606401610e5c565b60006015541161182a5760405162461bcd60e51b8152602060048201526005602482015264706377203160d81b6044820152606401610e5c565b6000611834612f8a565b9050806016541061186f5760405162461bcd60e51b81526020600482015260056024820152643831bb901960d91b6044820152606401610e5c565b601681905560188054601980546001600160a01b038084166001600160a01b03199283161790925560178054808416948316851790955593169087169081179092551480156118cb57506019546001600160a01b038581169116145b156118fc57601e80546001600160a01b0386166001600160a01b03199182168117909255601f805490911690911790555b50505050565b6060601c805480602002602001604051908101604052809291908181526020018280548015610ab5576020028201919060005260206000209081546001600160a01b0316815260019091019060200180831161137e575050505050905090565b60008060226000611971612f8a565b81526020019081526020016000206000846001600160a01b03166001600160a01b031681526020019081526020016000209050806000015481600101546119b7856119f7565b6119c19190614fcd565b6119cb9190614fe0565b9392505050565b60006119dc612f8a565b905060105481036119ec57600080fd5b600e54600d55601055565b6001600160a01b031660009081526020819052604090205490565b604080518082019091526000808252602082015260226000611a32612f8a565b8152602080820192909252604090810160009081206001600160a01b0390951681529382529283902083518085019094528054845260010154908301525090565b60006213c680611a81612f8a565b611a8b9190614fcd565b905090565b600b8181548110611aa057600080fd5b9060005260206000209060070201600091509050806000015490806001015490806002015490806003015490806004015490806005018054611ae190614f7d565b80601f0160208091040260200160405190810160405280929190818152602001828054611b0d90614f7d565b8015611b5a5780601f10611b2f57610100808354040283529160200191611b5a565b820191906000526020600020905b815481529060010190602001808311611b3d57829003601f168201915b5050505050908060060154905087565b601e546001600160a01b0316331480611b8d5750601f546001600160a01b031633145b611b9657600080fd5b60005b8181101561116057611bd1838383818110611bb657611bb6614ff3565b9050602002810190611bc891906155aa565b60200135613d11565b6009838383818110611be557611be5614ff3565b9050602002810190611bf791906155aa565b8154600181018355600092835260209092209091600e0201611c19828261580f565b50506009805460009190611c2f90600190614fe0565b81548110611c3f57611c3f614ff3565b60009182526020909120600954600e90920201908155604051909150600080516020615bde83398151915290611c7690839061522e565b60405180910390a15080611c89816151ac565b915050611b99565b6000805b8251811015611d23576000805b8551811015611cff57858181518110611cbd57611cbd614ff3565b6020026020010151858481518110611cd757611cd7614ff3565b602002602001015103611ced5760019150611cff565b80611cf7816151ac565b915050611ca2565b5080611d1057600092505050610ad3565b5080611d1b816151ac565b915050611c95565b5060019392505050565b6000611d37612f8a565b905060005b828110156118fc5760006009858584818110611d5a57611d5a614ff3565b9050602002013581548110611d7157611d71614ff3565b90600052602060002090600e020190508281600d015403611da45760405162461bcd60e51b8152600401610e5c9061592a565b600881015460ff16611dc85760405162461bcd60e51b8152600401610e5c9061592a565b60088101805460ff19169055600d810183905560098101805460009190611dee90614f7d565b90501115611e095760068101611e076009830182615949565b505b600a81015415611e1e57600a81015460038201555b600481015415611e3357600b81015460048201555b600c81015415611e5357600c81018054611e519160058401916145de565b505b600080516020615bde83398151915281604051611e70919061522e565b60405180910390a15080611e83816151ac565b915050611d3c565b606060048054610a3c90614f7d565b601e546001600160a01b0316331480611ebd5750601f546001600160a01b031633145b611ec657600080fd5b611ece613cb8565b60005b8181101561100f57600060096001858585818110611ef157611ef1614ff3565b90506040020160200135611f059190614fe0565b81548110611f1557611f15614ff3565b90600052602060002090600e020190506000816000015411611f625760405162461bcd60e51b8152600401610e5c90602080825260049082015263616d633160e01b604082015260600190565b600180820154600090815260076020526040812091600a90878787818110611f8c57611f8c614ff3565b90506040020160000135611fa09190614fe0565b81548110611fb057611fb0614ff3565b90600052602060002090600a020190506000816000015411611ffd5760405162461bcd60e51b8152600401610e5c9060208082526004908201526330b6b19960e11b604082015260600190565b428160080154116120395760405162461bcd60e51b8152600401610e5c90602080825260049082015263616d633360e01b604082015260600190565b6120e78360050180548060200260200160405190810160405280929190818152602001828054801561208a57602002820191906000526020600020905b815481526020019060010190808311612076575b5050505050826007018054806020026020016040519081016040528092919081815260200182805480156120dd57602002820191906000526020600020905b8154815260200190600101908083116120c9575b5050505050611c91565b61211c5760405162461bcd60e51b8152600401610e5c90602080825260049082015263185b58cd60e21b604082015260600190565b82600301548160040154101561215d5760405162461bcd60e51b8152600401610e5c90602080825260049082015263616d633560e01b604082015260600190565b600283015460ff16600d81111561217657612176614752565b600282015460ff16600d81111561218f5761218f614752565b146121c55760405162461bcd60e51b8152600401610e5c9060208082526004908201526330b6b19b60e11b604082015260600190565b8060060154836004015484600301546121de9190615588565b11156122155760405162461bcd60e51b8152600401610e5c90602080825260049082015263616d633760e01b604082015260600190565b600181015460009081526007602052604081206003850154600d549192909168056bc75e2d631000009061224990846155ff565b6122539190615588565b905060006122618284614fe0565b905060006040518060e00160405280600b8054905060016122829190614fcd565b8152895460208083019190915288546040808401919091526060808401899052608080850189905282518085018452600080825260a0808801929092524260c090970196909652600b80546001810182559652865160079096027f0175b7a638427703f0dbe7bb9bbf987a2551717b34e79f33b5b1008d1fa01db98101968755948701517f0175b7a638427703f0dbe7bb9bbf987a2551717b34e79f33b5b1008d1fa01dba860155928601517f0175b7a638427703f0dbe7bb9bbf987a2551717b34e79f33b5b1008d1fa01dbb850155908501517f0175b7a638427703f0dbe7bb9bbf987a2551717b34e79f33b5b1008d1fa01dbc8401558401517f0175b7a638427703f0dbe7bb9bbf987a2551717b34e79f33b5b1008d1fa01dbd83015583015192935083927f0175b7a638427703f0dbe7bb9bbf987a2551717b34e79f33b5b1008d1fa01dbe909101906123d89082615a1f565b5060c09190910151600691820155815190880180546001810182556000918252602082200191909155600487018054869290612415908490614fe0565b909155506124269050836001613ffd565b6000602054612433610d82565b61243d9190614fe0565b9050600081851161244e5784612450565b815b905080602060008282546124649190614fcd565b909155506000905068056bc75e2d6310000061248183600a6155ff565b61249390670de0b6b3a76400006155ff565b61249d9190615588565b9050600068056bc75e2d631000006124b684600f6155ff565b6124c890670de0b6b3a76400006155ff565b6124d29190615588565b90506000816124e18486614fe0565b6124eb9190614fe0565b9050801561250957601f54612509906001600160a01b031682613d6c565b60018c01546001600160a01b031661257f57811561253b57818c60020160008282546125359190614fcd565b90915550505b868c600301600082825461254f9190614fcd565b9091555050604051600080516020615bfe83398151915290612572908e9061533a565b60405180910390a161261a565b811561259d5760018c015461259d906001600160a01b031683613d6c565b601b5460018d015460405163a9059cbb60e01b81526001600160a01b039283169263a9059cbb926125d5929116908b90600401615009565b6020604051808303816000875af11580156125f4573d6000803e3d6000fd5b505050506040513d601f19601f820116820180604052508101906126189190615030565b505b821561268e5760018a01546001600160a01b031661267657828a60020160008282546126469190614fcd565b9091555050604051600080516020615bfe83398151915290612669908c9061533a565b60405180910390a161268e565b60018a015461268e906001600160a01b031684613d6c565b7f163f215ebbfd927d87234e39d082b1b03b551dadbca611aab6568ee11a75e8d7866040516126bd9190615ad6565b60405180910390a1600080516020615c3e8339815191528b6040516126e291906150ff565b60405180910390a1505050505050505050505050508080612702906151ac565b915050611ed1565b6000612714612f8a565b905060005b828110156118fc5760006012600086868581811061273957612739614ff3565b905060200201602081019061274e9190614824565b6001600160a01b03166001600160a01b03168152602001908152602001600020905060008160020154116127ac5760405162461bcd60e51b8152602060048201526005602482015264076617620360dc1b6044820152606401610e5c565b828160020154106127e75760405162461bcd60e51b8152602060048201526005602482015264766176203160d81b6044820152606401610e5c565b600381015460ff16156128245760405162461bcd60e51b81526020600482015260056024820152643b30bb101960d91b6044820152606401610e5c565b60038101805460ff19166001179055805460158054600090612847908490614fcd565b909155505060018101546001600160a01b031660009081526014602052604090205480156128c2576000601361287e600184614fe0565b8154811061288e5761288e614ff3565b9060005260206000209060020201905082600001548160000160008282546128b69190614fcd565b90915550612952915050565b6013805460018181018355845460029092027f66de8ffda797e3de9c05e8fc57b3bf0ec28a930d40b0d285d93c06501cf6a090810192909255840180547f66de8ffda797e3de9c05e8fc57b3bf0ec28a930d40b0d285d93c06501cf6a09190920180546001600160a01b0319166001600160a01b0393841617905591549154166000908152601460205260409020555b600080516020615bbe8339815191528260405161296f9190615b3b565b60405180910390a150508080612984906151ac565b915050612719565b6000811180156129a4575068056bc75e2d6310000081105b6129d95760405162461bcd60e51b815260206004820152600660248201526507366727620360d41b6044820152606401610e5c565b3360009081526011602052604090208054156129f8576129f83361408e565b6000612a03336119f7565b905060008111612a3e5760405162461bcd60e51b815260206004820152600660248201526573667276203160d01b6044820152606401610e5c565b80600f54612a4c9190614fcd565b612a5684836155ff565b600f54600e54612a6691906155ff565b612a709190614fcd565b612a7a9190615588565b600e8190555080600f6000828254612a929190614fcd565b9091555050815560010155565b60003381612aad828661344f565b905083811015612b0d5760405162461bcd60e51b815260206004820152602560248201527f45524332303a2064656372656173656420616c6c6f77616e63652062656c6f77604482015264207a65726f60d81b6064820152608401610e5c565b610cf38286868403613983565b6060600a805480602002602001604051908101604052809291908181526020016000905b82821015612ce557838290600052602060002090600a02016040518061014001604052908160008201548152602001600182015481526020016002820160009054906101000a900460ff16600d811115612b9a57612b9a614752565b600d811115612bab57612bab614752565b81526020016003820154815260200160048201548152602001600582018054612bd390614f7d565b80601f0160208091040260200160405190810160405280929190818152602001828054612bff90614f7d565b8015612c4c5780601f10612c2157610100808354040283529160200191612c4c565b820191906000526020600020905b815481529060010190602001808311612c2f57829003601f168201915b505050505081526020016006820154815260200160078201805480602002602001604051908101604052809291908181526020018280548015612cae57602002820191906000526020600020905b815481526020019060010190808311612c9a575b5050509183525050600882015460208083019190915260099092015460ff1615156040909101529082526001929092019101612b3e565b50505050905090565b600033610acd818585613b1b565b612d04613cb8565b6000612d0e612f8a565b60008181526024602052604081205491925090612d2a60025490565b612d349190614fe0565b90506000612d40610c94565b905060008211612d7a5760405162461bcd60e51b8152602060048201526005602482015264063667073360dc1b6044820152606401610e5c565b60008111612db25760405162461bcd60e51b8152602060048201526005602482015264636670733160d81b6044820152606401610e5c565b60005b84811015612f7c576000868683818110612dd157612dd1614ff3565b9050602002016020810190612de69190614824565b6001600160a01b0381166000908152602560205260409020549091508511612e385760405162461bcd60e51b815260206004820152600560248201526431b338399960d91b6044820152606401610e5c565b6000612e4382611962565b905060008111612e7d5760405162461bcd60e51b8152602060048201526005602482015264636670733360d81b6044820152606401610e5c565b600085612e8a86846155ff565b612e949190615588565b6001600160a01b0384166000908152602560205260408120899055909150612ebd908290613ffd565b601b5460405163a9059cbb60e01b81526001600160a01b039091169063a9059cbb90612eef9086908590600401615009565b6020604051808303816000875af1158015612f0e573d6000803e3d6000fd5b505050506040513d601f19601f82011682018060405250810190612f329190615030565b612f665760405162461bcd60e51b815260206004820152600560248201526418d99c1ccd60da1b6044820152606401610e5c565b5050508080612f74906151ac565b915050612db5565b5050505061101a6001600555565b6000611a8b6213c68042615588565b60606009805480602002602001604051908101604052809291908181526020016000905b82821015612ce557838290600052602060002090600e0201604051806101c001604052908160008201548152602001600182015481526020016002820160009054906101000a900460ff16600d81111561301957613019614752565b600d81111561302a5761302a614752565b815260200160038201548152602001600482015481526020016005820180548060200260200160405190810160405280929190818152602001828054801561309157602002820191906000526020600020905b81548152602001906001019080831161307d575b505050505081526020016006820180546130aa90614f7d565b80601f01602080910402602001604051908101604052809291908181526020018280546130d690614f7d565b80156131235780601f106130f857610100808354040283529160200191613123565b820191906000526020600020905b81548152906001019060200180831161310657829003601f168201915b5050505050815260200160078201805461313c90614f7d565b80601f016020809104026020016040519081016040528092919081815260200182805461316890614f7d565b80156131b55780601f1061318a576101008083540402835291602001916131b5565b820191906000526020600020905b81548152906001019060200180831161319857829003601f168201915b5050509183525050600882015460ff16151560208201526009820180546040909201916131e190614f7d565b80601f016020809104026020016040519081016040528092919081815260200182805461320d90614f7d565b801561325a5780601f1061322f5761010080835404028352916020019161325a565b820191906000526020600020905b81548152906001019060200180831161323d57829003601f168201915b50505050508152602001600a8201548152602001600b8201548152602001600c82018054806020026020016040519081016040528092919081815260200182805480156132c657602002820191906000526020600020905b8154815260200190600101908083116132b2575b50505050508152602001600d8201548152505081526020019060010190612fbd565b60606013805480602002602001604051908101604052809291908181526020016000905b82821015612ce55760008481526020908190206040805180820190915260028502909101805482526001908101546001600160a01b031682840152908352909201910161330c565b61335d3361408e565b565b601e546001600160a01b03163314806133825750601f546001600160a01b031633145b61338b57600080fd5b60005b8181101561116057601a8383838181106133aa576133aa614ff3565b90506020028101906133bc91906156ae565b825460018101845560009384526020909320909201916133dc9183615749565b50601a547f08581e03117d96ad4b36d978f525bfe879526d97ffb59cecf67eb24a801e03cf9084848481811061341457613414614ff3565b905060200281019061342691906156ae565b60405161343593929190615b74565b60405180910390a180613447816151ac565b91505061338e565b6001600160a01b03918216600090815260016020908152604080832093909416825291909152205490565b6001600160a01b0381166134b85760405162461bcd60e51b8152602060048201526005602482015264073617620360dc1b6044820152606401610e5c565b60006134c3336119f7565b9050600081116134fd5760405162461bcd60e51b8152602060048201526005602482015264736176203160d81b6044820152606401610e5c565b33600090815260126020526040902080541561351c5761351c33614188565b6040518060800160405280838152602001846001600160a01b03168152602001613544612f8a565b8152600060209182018190523381526012825260409081902083518155918301516001830180546001600160a01b0319166001600160a01b0390921691909117905582810151600283015560609092015160038201805460ff19169115159190911790559051600080516020615bbe833981519152916135c391615b3b565b60405180910390a1505050565b61335d33614188565b3360009081526008602090815260408083205483526007909152902060018101546001600160a01b031661360c57600080fd5b6000600961361b600186614fe0565b8154811061362b5761362b614ff3565b90600052602060002090600e02019050600081600001541161364c57600080fd5b815460018201541461365d57600080fd5b6118fc8184613fbc565b6013818154811061367757600080fd5b6000918252602090912060029091020180546001909101549091506001600160a01b031682565b600981815481106136ae57600080fd5b60009182526020909120600e9091020180546001820154600283015460038401546004850154600686018054959750939560ff9093169491939092916136f390614f7d565b80601f016020809104026020016040519081016040528092919081815260200182805461371f90614f7d565b801561376c5780601f106137415761010080835404028352916020019161376c565b820191906000526020600020905b81548152906001019060200180831161374f57829003601f168201915b50505050509080600701805461378190614f7d565b80601f01602080910402602001604051908101604052809291908181526020018280546137ad90614f7d565b80156137fa5780601f106137cf576101008083540402835291602001916137fa565b820191906000526020600020905b8154815290600101906020018083116137dd57829003601f168201915b5050506008840154600985018054949560ff90921694919350915061381e90614f7d565b80601f016020809104026020016040519081016040528092919081815260200182805461384a90614f7d565b80156138975780601f1061386c57610100808354040283529160200191613897565b820191906000526020600020905b81548152906001019060200180831161387a57829003601f168201915b50505050509080600a01549080600b01549080600d015490508c565b6060601a805480602002602001604051908101604052809291908181526020016000905b82821015612ce55783829060005260206000200180546138f690614f7d565b80601f016020809104026020016040519081016040528092919081815260200182805461392290614f7d565b801561396f5780601f106139445761010080835404028352916020019161396f565b820191906000526020600020905b81548152906001019060200180831161395257829003601f168201915b5050505050815260200190600101906138d7565b6001600160a01b0383166139e55760405162461bcd60e51b8152602060048201526024808201527f45524332303a20617070726f76652066726f6d20746865207a65726f206164646044820152637265737360e01b6064820152608401610e5c565b6001600160a01b038216613a465760405162461bcd60e51b815260206004820152602260248201527f45524332303a20617070726f766520746f20746865207a65726f206164647265604482015261737360f01b6064820152608401610e5c565b6001600160a01b0383811660008181526001602090815260408083209487168084529482529182902085905590518481527f8c5be1e5ebec7d5bd14f71427d1e84f3dd0314c0f7b2291e5b200ac8c7c3b925910160405180910390a3505050565b6000613ab3848461344f565b905060001981146118fc5781811015613b0e5760405162461bcd60e51b815260206004820152601d60248201527f45524332303a20696e73756666696369656e7420616c6c6f77616e63650000006044820152606401610e5c565b6118fc8484848403613983565b6001600160a01b038316613b7f5760405162461bcd60e51b815260206004820152602560248201527f45524332303a207472616e736665722066726f6d20746865207a65726f206164604482015264647265737360d81b6064820152608401610e5c565b6001600160a01b038216613be15760405162461bcd60e51b815260206004820152602360248201527f45524332303a207472616e7366657220746f20746865207a65726f206164647260448201526265737360e81b6064820152608401610e5c565b613bec8383836142ac565b6001600160a01b03831660009081526020819052604090205481811015613c645760405162461bcd60e51b815260206004820152602660248201527f45524332303a207472616e7366657220616d6f756e7420657863656564732062604482015265616c616e636560d01b6064820152608401610e5c565b6001600160a01b0384811660008181526020818152604080832087870390559387168083529184902080548701905592518581529092600080516020615c1e833981519152910160405180910390a36118fc565b600260055403613d0a5760405162461bcd60e51b815260206004820152601f60248201527f5265656e7472616e637947756172643a207265656e7472616e742063616c6c006044820152606401610e5c565b6002600555565b6000818152600760205260408120549003613d695760008181526007602052604081208290556006805460018101825591527ff652222313e28459528d920b65115c16c04f3efc82aaedc97be59f3f377c0d3f018190555b50565b8060246000613d79612f8a565b81526020019081526020016000206000828254613d969190614fcd565b9091555061101a905082826143c7565b6000816060015111613db757600080fd5b60008160a001515111613dc957600080fd5b601b5460608201516040516323b872dd60e01b815233600482015230602482015260448101919091526001600160a01b03909116906323b872dd906064016020604051808303816000875af1158015613e26573d6000803e3d6000fd5b505050506040513d601f19601f82011682018060405250810190613e4a9190615030565b613e5357600080fd5b600a80546001818101835560008390528351919092027fc65a7bb8d6351c1cf70c95a316cc6a92839c986682d98bc35f958f4883f9d2a8810191825560208401517fc65a7bb8d6351c1cf70c95a316cc6a92839c986682d98bc35f958f4883f9d2a982015560408401517fc65a7bb8d6351c1cf70c95a316cc6a92839c986682d98bc35f958f4883f9d2aa9091018054859460ff199091169083600d811115613efe57613efe614752565b0217905550606082015160038201556080820151600482015560a08201516005820190613f2b9082615a1f565b5060c0820151600682015560e08201518051613f5191600784019160209091019061461e565b506101008201516008820155610120909101516009909101805460ff19169115159190911790558051600583018054600181018255600091825260209091200155604051600080516020615c3e83398151915290613fb0908390615baa565b60405180910390a15050565b60008111613fc957600080fd5b600a820181905560088201805460ff19166001179055604051600080516020615bde83398151915290613fb090849061522e565b60006023600061400b612f8a565b8152602001908152602001600020905081156140575782602160008282546140339190614fcd565b909155505080548390829060009061404c908490614fcd565b909155506111609050565b82602160008282546140699190614fe0565b92505081905550828160010160008282546140849190614fcd565b9091555050505050565b6001600160a01b038116600090815260116020526040902080546140dd5760405162461bcd60e51b815260206004820152600660248201526507266727620360d41b6044820152606401610e5c565b8054600f546000916140ee91614fe0565b90506000600f54600e5461410291906155ff565b905060008360010154846000015461411a91906155ff565b9050600081831161412c576000614136565b6141368284614fe0565b90508315614155576141488482615588565b600e55600f849055614161565b600c54600e556000600f555b5050506001600160a01b039092166000908152601160205260408120818155600101555050565b6001600160a01b038116600090815260126020526040902080546141d75760405162461bcd60e51b815260206004820152600660248201526507261766820360d41b6044820152606401610e5c565b600381015460ff161561426a578054601580546000906141f8908490614fe0565b909155505060018101546001600160a01b03166000908152601460205260409020548061422457600080fd5b81546013614233600184614fe0565b8154811061424357614243614ff3565b906000526020600020906002020160000160008282546142639190614fe0565b9091555050505b506001600160a01b031660009081526012602052604081208181556001810180546001600160a01b03191690556002810191909155600301805460ff19169055565b6001600160a01b03831615614315576142c783826000614437565b6001600160a01b038316600090815260116020526040902054156142ee576142ee8361408e565b6001600160a01b038316600090815260126020526040902054156143155761431583614188565b6001600160a01b038216156111605761433082826001614437565b6001600160a01b0382166000908152601d602052604090205460ff161580156143595750600081115b1561116057601c805460018181019092557f0e4562a10381dec21b205ed72637e6b1b523bdd0e4d4d50af5cd23dd4500a2110180546001600160a01b0385166001600160a01b031990911681179091556000908152601d60205260409020805460ff19169091179055505050565b6143cf610d82565b816143d960025490565b6143e39190614fcd565b111561442d5760405162461bcd60e51b8152602060048201526019602482015278115490cc8c10d85c1c19590e8818d85c08195e18d959591959603a1b6044820152606401610e5c565b61101a82826144bc565b600060226000614445612f8a565b81526020019081526020016000206000856001600160a01b03166001600160a01b031681526020019081526020016000209050811561449d57828160000160008282546144929190614fcd565b909155506118fc9050565b828160010160008282546144b19190614fcd565b909155505050505050565b6001600160a01b0382166145125760405162461bcd60e51b815260206004820152601f60248201527f45524332303a206d696e7420746f20746865207a65726f2061646472657373006044820152606401610e5c565b61451e600083836142ac565b80600260008282546145309190614fcd565b90915550506001600160a01b03821660008181526020818152604080832080548601905551848152600080516020615c1e833981519152910160405180910390a35050565b8280548282559060005260206000209081019282156145b0579160200282015b828111156145b0578235825591602001919060010190614595565b506145bc929150614659565b5090565b60405180606001604052806003906020820280368337509192915050565b8280548282559060005260206000209081019282156145b05760005260206000209182015b828111156145b0578254825591600101919060010190614603565b8280548282559060005260206000209081019282156145b0579160200282015b828111156145b057825182559160200191906001019061463e565b5b808211156145bc576000815560010161465a565b6000815180845260005b8181101561469457602081850181015186830182015201614678565b506000602082860101526020601f19601f83011685010191505092915050565b6020815260006119cb602083018461466e565b80356001600160a01b03811681146146de57600080fd5b919050565b600080604083850312156146f657600080fd5b82359150614706602084016146c7565b90509250929050565b6000806040838503121561472257600080fd5b61472b836146c7565b946020939093013593505050565b60006020828403121561474b57600080fd5b5035919050565b634e487b7160e01b600052602160045260246000fd5b600e811061478657634e487b7160e01b600052602160045260246000fd5b9052565b60006101208b83528a60208401526147a5604084018b614768565b8860608401528760808401528060a08401526147c38184018861466e565b60c0840196909652505060e08101929092521515610100909101529695505050505050565b6000806000606084860312156147fd57600080fd5b614806846146c7565b9250614814602085016146c7565b9150604084013590509250925092565b60006020828403121561483657600080fd5b6119cb826146c7565b60008083601f84011261485157600080fd5b5081356001600160401b0381111561486857600080fd5b6020830191508360208260051b850101111561488357600080fd5b9250929050565b6000806020838503121561489d57600080fd5b82356001600160401b038111156148b357600080fd5b6148bf8582860161483f565b90969095509350505050565b60008083601f8401126148dd57600080fd5b5081356001600160401b038111156148f457600080fd5b6020830191508360208260061b850101111561488357600080fd5b6000806020838503121561492257600080fd5b82356001600160401b0381111561493857600080fd5b6148bf858286016148cb565b60608101818360005b60038110156149755781516001600160a01b031683526020928301929091019060010161494d565b50505092915050565b6020808252825182820181905260009190848201906040850190845b818110156149bf5783516001600160a01b03168352928401929184019160010161499a565b50909695505050505050565b87815286602082015285604082015284606082015283608082015260e060a082015260006149fc60e083018561466e565b90508260c083015298975050505050505050565b634e487b7160e01b600052604160045260246000fd5b60405160c081016001600160401b0381118282101715614a4857614a48614a10565b60405290565b604051601f8201601f191681016001600160401b0381118282101715614a7657614a76614a10565b604052919050565b600082601f830112614a8f57600080fd5b813560206001600160401b03821115614aaa57614aaa614a10565b8160051b614ab9828201614a4e565b9283528481018201928281019087851115614ad357600080fd5b83870192505b84831015614af257823582529183019190830190614ad9565b979650505050505050565b60008060408385031215614b1057600080fd5b82356001600160401b0380821115614b2757600080fd5b614b3386838701614a7e565b93506020850135915080821115614b4957600080fd5b50614b5685828601614a7e565b9150509250929050565b600081518084526020808501945080840160005b83811015614b9057815187529582019590820190600101614b74565b509495945050505050565b600061014082518452602083015160208501526040830151614bc06040860182614768565b50606083015160608501526080830151608085015260a08301518160a0860152614bec8286018261466e565b91505060c083015160c085015260e083015184820360e0860152614c108282614b60565b91505061010080840151818601525061012080840151614c338287018215159052565b5090949350505050565b6000602080830181845280855180835260408601915060408160051b870101925083870160005b82811015614c9257603f19888603018452614c80858351614b9b565b94509285019290850190600101614c64565b5092979650505050505050565b60006020808301818452808551808352604092508286019150828160051b87010184880160005b83811015614de457603f1989840301855281516101c081518552888201518986015287820151614cf889870182614768565b50606082810151908601526080808301519086015260a080830151818701839052614d2583880182614b60565b9250505060c08083015186830382880152614d40838261466e565b9250505060e08083015186830382880152614d5b838261466e565b9250505061010080830151614d738288018215159052565b50506101208083015186830382880152614d8d838261466e565b925050506101408083015181870152506101608083015181870152506101808083015186830382880152614dc18382614b60565b6101a0948501519790940196909652505094870194925090860190600101614cc6565b509098975050505050505050565b602080825282518282018190526000919060409081850190868401855b82811015614e3d578151805185528601516001600160a01b0316868501529284019290850190600101614e0f565b5091979650505050505050565b60008060408385031215614e5d57600080fd5b614e66836146c7565b9150614706602084016146c7565b60008060408385031215614e8757600080fd5b50508035926020909101359150565b60006101808e83528d6020840152614eb1604084018e614768565b8b60608401528a60808401528060a0840152614ecf8184018b61466e565b905082810360c0840152614ee3818a61466e565b905087151560e0840152828103610100840152614f00818861466e565b6101208401969096525050610140810192909252610160909101529998505050505050505050565b6000602080830181845280855180835260408601915060408160051b870101925083870160005b82811015614c9257603f19888603018452614f6b85835161466e565b94509285019290850190600101614f4f565b600181811c90821680614f9157607f821691505b602082108103614fb157634e487b7160e01b600052602260045260246000fd5b50919050565b634e487b7160e01b600052601160045260246000fd5b80820180821115610ad357610ad3614fb7565b81810381811115610ad357610ad3614fb7565b634e487b7160e01b600052603260045260246000fd5b6001600160a01b03929092168252602082015260400190565b8015158114613d6957600080fd5b60006020828403121561504257600080fd5b81516119cb81615022565b6000815461505a81614f7d565b8085526020600183811680156150775760018114615091576150bf565b60ff1985168884015283151560051b8801830195506150bf565b866000528260002060005b858110156150b75781548a820186015290830190840161509c565b890184019650505b505050505092915050565b6000815480845260208085019450836000528060002060005b83811015614b90578154875295820195600191820191016150e3565b6020815281546020820152600182015460408201526000615124600284015460ff1690565b6151316060840182614768565b5060038301546080830152600483015460a08301526101408060c084015261516061016084016005860161504d565b600685015460e0850152838103601f190161010085015261518481600787016150ca565b9050600885015461012085015261519f600986015460ff1690565b1515919093015250919050565b6000600182016151be576151be614fb7565b5060010190565b60008235605e198336030181126151db57600080fd5b9190910192915050565b6000808335601e198436030181126151fc57600080fd5b8301803591506001600160401b0382111561521657600080fd5b6020019150600581901b360382131561488357600080fd5b6020815281546020820152600182015460408201526000615253600284015460ff1690565b6152606060840182614768565b5060038301546080830152600483015460a08301526101c08060c084015261528f6101e08401600586016150ca565b601f19808583030160e08601526152a9826006880161504d565b915080858303016101008601526152c3826007880161504d565b91506152d3600887015460ff1690565b151561012086015284820381016101408601526152f3826009880161504d565b9150600a860154610160860152600b86015461018086015280858303016101a08601525061532481600c87016150ca565b9050600d85015482850152809250505092915050565b602080825282549082015260018201546001600160a01b03166040820152600282015460608201526003820154608082015260e060a082015260006153866101008301600485016150ca565b601f19808483030160c08501526153a082600587016150ca565b9150808483030160e0850152506153ba81600686016150ca565b949350505050565b6000823560be198336030181126151db57600080fd5b600e8110613d6957600080fd5b80356146de816153d8565b600082601f83011261540157600080fd5b81356001600160401b0381111561541a5761541a614a10565b61542d601f8201601f1916602001614a4e565b81815284602083860101111561544257600080fd5b816020850160208301376000918101602001919091529392505050565b600060c0828403121561547157600080fd5b615479614a26565b9050615484826153e5565b81526020828101359082015260408201356001600160401b03808211156154aa57600080fd5b6154b6858386016153f0565b60408401526060840135606084015260808401359150808211156154d957600080fd5b506154e684828501614a7e565b60808301525060a082013560a082015292915050565b6000610ad3368361545f565b60008235603e198336030181126151db57600080fd5b60006040823603121561553057600080fd5b604080519081016001600160401b03808211838310171561555357615553614a10565b8160405284358352602085013591508082111561556f57600080fd5b5061557c3682860161545f565b60208301525092915050565b6000826155a557634e487b7160e01b600052601260045260246000fd5b500490565b600082356101be198336030181126151db57600080fd5b60008135610ad3816153d8565b600e82106155ec57634e487b7160e01b600052602160045260246000fd5b60ff1981541660ff831681178255505050565b8082028115828204841417610ad357610ad3614fb7565b5b8181101561101a5760008155600101615617565b6001600160401b0383111561564257615642614a10565b600160401b83111561565657615656614a10565b80548382558084101561567c5781600052602060002061567a828201868301615616565b505b50818160005260208060002060005b868110156156a5578335828201559282019260010161568b565b50505050505050565b6000808335601e198436030181126156c557600080fd5b8301803591506001600160401b038211156156df57600080fd5b60200191503681900382131561488357600080fd5b601f82111561116057806000526020600020601f840160051c8101602085101561571b5750805b61572d601f850160051c830182615616565b5050505050565b600019600383901b1c191660019190911b1790565b6001600160401b0383111561576057615760614a10565b6157748361576e8354614f7d565b836156f4565b6000601f8411600181146157a257600085156157905750838201355b61579a8682615734565b84555061572d565b600083815260209020601f19861690835b828110156157d357868501358255602094850194600190920191016157b3565b50868210156157f05760001960f88860031b161c19848701351681555b505060018560011b0183555050505050565b60008135610ad381615022565b813581556020820135600182015561583561582c604084016155c1565b600283016155ce565b606082013560038201556080820135600482015561585660a08301836151e5565b61586481836005860161562b565b505061587360c08301836156ae565b615881818360068601615749565b505061589060e08301836156ae565b61589e818360078601615749565b50506158c96158b06101008401615802565b6008830160ff1981541660ff8315151681178255505050565b6158d76101208301836156ae565b6158e5818360098601615749565b5050610140820135600a820155610160820135600b82015561590b6101808301836151e5565b6159198183600c860161562b565b50506101a0820135600d8201555050565b602080825260059082015264061687520360dc1b604082015260600190565b818103615954575050565b61595e8254614f7d565b6001600160401b0381111561597557615975614a10565b615989816159838454614f7d565b846156f4565b6000601f8211600181146159b757600083156159a55750848201545b6159af8482615734565b85555061572d565b600085815260209020601f19841690600086815260209020845b838110156159f157828601548255600195860195909101906020016159d1565b5085831015615a0f5781850154600019600388901b60f8161c191681555b5050505050600190811b01905550565b81516001600160401b03811115615a3857615a38614a10565b615a46816159838454614f7d565b602080601f831160018114615a755760008415615a635750858301515b615a6d8582615734565b865550615ace565b600085815260208120601f198616915b82811015615aa457888601518255948401946001909101908401615a85565b5085821015615ac25787850151600019600388901b60f8161c191681555b505060018460011b0185555b505050505050565b6020815281516020820152602082015160408201526040820151606082015260608201516080820152608082015160a0820152600060a083015160e060c0840152615b2561010084018261466e565b905060c084015160e08401528091505092915050565b8154815260018201546001600160a01b0316602082015260028201546040820152600382015460ff161515606082015260808101610ad3565b83815260406020820152816040820152818360608301376000818301606090810191909152601f909201601f1916010192915050565b6020815260006119cb6020830184614b9b56fee08472d1275fefbb15ff0aea278bb1f42c491be3fa4358160826ba7e420ae61396e9914f87caf53079f3441ee12036434bc4ea93f85df92beb30c7c918984e9fe1ab017037dfdbe8aeea88ca10733a62fe91b3791c7ab2f30b54a9e2a0b0d319ddf252ad1be2c89b69c2b068fc378daa952ba7f163c4a11628f55a4df523b3efe4aca3c0fc408b3a8ce278b40b298311b8dca09ac3c3d5d1068f014e01ac551ba2646970667358221220325d95b4f6c8a504f13b03aecc1ca5bebde8ce9ee2e17b613e2ca27dbbe737a364736f6c63430008130033",
  "immutableReferences": {
    "737": [
      {
        "length": 32,
        "start": 3460
      }
    ]
  },
  "source": "// SPDX-License-Identifier: MIT\npragma solidity 0.8.19;\nimport \"@openzeppelin/contracts/token/ERC20/extensions/ERC20Capped.sol\";\nimport \"@openzeppelin/contracts/security/ReentrancyGuard.sol\";\n\ncontract Asami is ERC20Capped, ReentrancyGuard {\n    enum Site {\n      X,\n      Instagram,\n      LinkedIn,\n      Facebook,\n      TikTok,\n      Youtube,\n      Nostr,\n      Bluesky,\n      Reserved1,\n      Reserved2,\n      Reserved3,\n      Reserved4,\n      Reserved5,\n      Reserved6\n    }\n\n    struct Account {\n        uint256 id;\n        address addr;\n        uint256 unclaimedAsamiTokens;\n        uint256 unclaimedDocRewards;\n        uint256[] handles;\n        uint256[] campaigns;\n        uint256[] collabs;\n    }\n    uint256[] public accountIds;\n    mapping(uint256 => Account) public accounts;\n    mapping(address => uint256) public accountIdByAddress;\n    event AccountSaved(Account account);\n\n    struct Handle {\n        uint256 id;\n        uint256 accountId;\n        Site site;\n        uint256 price;\n        uint256 score;\n        uint256[] topics;\n        string username;\n        string userId;\n        bool needsUpdate;\n        string newUsername;\n        uint256 newPrice;\n        uint256 newScore;\n        uint256[] newTopics;\n        uint256 lastUpdated;\n    }\n    Handle[] public handles;\n    event HandleSaved(Handle handle);\n\n    function getHandles() public view returns (Handle[] memory) {\n        return handles;\n    }\n\n    struct Campaign {\n        uint256 id;\n        uint256 accountId;\n        Site site;\n        uint256 budget;\n        uint256 remaining;\n        string contentId;\n        uint256 priceScoreRatio;\n        uint256[] topics;\n        uint256 validUntil;\n        bool fundedByAdmin;\n    }\n    Campaign[] public campaigns;\n    event CampaignSaved(Campaign campaign);\n    function getCampaigns() public view returns (Campaign[] memory) {\n        return campaigns;\n    }\n\n    struct Collab {\n        uint256 id;\n        uint256 handleId;\n        uint256 campaignId;\n        uint256 gross;\n        uint256 fee;\n        string proof;\n        uint256 createdAt;\n    }\n    Collab[] public collabs;\n    event CollabSaved(Collab collab);\n\n    uint256 public defaultFeeRate = 10 * 1e18;\n    uint256 public feeRate = defaultFeeRate;\n    uint256 public votedFeeRate = defaultFeeRate;\n    uint256 public votedFeeRateVoteCount = 0;\n    /* To make the protocol more predictable, changes are applied only once every period */\n    uint256 public lastVotedFeeRateAppliedOn = 0;\n\n    struct FeeRateVote {\n        uint256 votes;\n        uint256 rate;\n    }\n    mapping(address => FeeRateVote) public feeRateVotes;\n\n    struct AdminVote {\n        uint256 votes;\n        address candidate;\n        uint256 cycle;\n        bool vested;\n    }\n    /* Maps holders to their vote */\n    mapping(address => AdminVote) public submittedAdminVotes;\n    event AdminVoteSaved(AdminVote vote);\n\n    struct AdminVoteCount {\n        uint256 votes;\n        address candidate;\n    }\n\n    /*\n    We're only storing all historic vote counts to have a view function that helps find out\n    which candidate to proclaim without relying on events.\n    */\n    AdminVoteCount[] public adminVoteCounts;\n    mapping(address => uint256) public adminVoteCountIdByCandidate;\n\n    function allAdminVoteCounts()\n        public\n        view\n        returns (AdminVoteCount[] memory)\n    {\n        return adminVoteCounts;\n    }\n\n    uint256 public vestedAdminVotesTotal;\n    uint256 public lastAdminElection;\n    address[3] public latestAdminElections;\n\n    function getLatestAdminElections() public view returns (address[3] memory) {\n        return latestAdminElections;\n    }\n\n    string[] public topics;\n    event TopicSaved(uint256 id, string name);\n\n    IERC20 internal doc;\n    address[] public holders;\n    mapping(address => bool) public trackedHolders;\n\n    address public admin; // An address that may be stored on a server.\n    address public adminTreasury; // A cold storage address for admin money.\n\n    uint256 public claimedAsamiTokens;\n\n    modifier onlyAdmin() {\n        require(msg.sender == admin || msg.sender == adminTreasury);\n        _;\n    }\n\n    constructor(\n        address _dollarOnChainAddress,\n        address _adminAddress\n    ) ERC20(\"AsamiToken\", \"ASAMI\") ERC20Capped(21 * 1e24) {\n        doc = IERC20(_dollarOnChainAddress);\n        adminTreasury = msg.sender;\n        admin = _adminAddress;\n    }\n\n    function _beforeTokenTransfer(\n        address from,\n        address to,\n        uint256 amount\n    ) internal override {\n        super._beforeTokenTransfer(from, to, amount);\n\n        if (from != address(0)) {\n          _registerRecentBalanceChange(from, amount, false);\n\n          if (feeRateVotes[from].votes > 0) {\n              removeFeeRateVoteHelper(from);\n          }\n          if (submittedAdminVotes[from].votes > 0) {\n              removeAdminVoteHelper(from);\n          }\n        }\n\n        if (to != address(0)) {\n          _registerRecentBalanceChange(to, amount, true);\n\n          if (!trackedHolders[to] && amount > 0) {\n              holders.push(to);\n              trackedHolders[to] = true;\n          }\n        }\n    }\n\n    function getHolders() public view returns (address[] memory) {\n        return holders;\n    }\n\n    function getClaimedAsamiTokens() public view returns (uint256) {\n        return claimedAsamiTokens;\n    }\n\n    function getTopics() public view returns (string[] memory) {\n        return topics;\n    }\n\n    function adminAddTopics(string[] calldata _names) public onlyAdmin {\n        for (uint256 i = 0; i < _names.length; i++) {\n            topics.push(_names[i]);\n            emit TopicSaved(topics.length, _names[i]);\n        }\n    }\n\n    function ensureAccount(uint256 _accountId) private {\n        if (accounts[_accountId].id == 0) {\n            accounts[_accountId].id = _accountId;\n            accountIds.push(_accountId);\n        }\n    }\n\n    struct AdminClaimAccountsInput {\n        uint256 accountId;\n        address addr;\n    }\n\n    function claimAccounts(\n        AdminClaimAccountsInput[] calldata _input\n    ) external onlyAdmin nonReentrant {\n        for (uint256 i = 0; i < _input.length; i++) {\n            AdminClaimAccountsInput calldata claim = _input[i];\n            ensureAccount(claim.accountId);\n\n            Account storage account = accounts[claim.accountId];\n            require(account.addr == address(0));\n\n            accountIdByAddress[claim.addr] = claim.accountId;\n            account.addr = claim.addr;\n\n            if (account.unclaimedAsamiTokens > 0) {\n                uint256 unclaimed = account.unclaimedAsamiTokens;\n                account.unclaimedAsamiTokens = 0;\n                _safeMint(claim.addr, unclaimed);\n            }\n\n            if (account.unclaimedDocRewards > 0) {\n                uint256 unclaimed = account.unclaimedDocRewards;\n                account.unclaimedDocRewards = 0;\n                doc.transfer(account.addr, unclaimed);\n            }\n\n            emit AccountSaved(account);\n        }\n    }\n\n    function adminMakeHandles(Handle[] calldata _inputs) external onlyAdmin {\n        for (uint256 i = 0; i < _inputs.length; i++) {\n            ensureAccount(_inputs[i].accountId);\n\n            handles.push(_inputs[i]);\n            Handle storage h = handles[handles.length - 1];\n            h.id = handles.length;\n            emit HandleSaved(h);\n        }\n    }\n\n    struct CampaignInput {\n        Site site;\n        uint256 budget;\n        string contentId;\n        uint256 priceScoreRatio;\n        uint256[] topics;\n        uint256 validUntil;\n    }\n    function makeCampaigns(\n        CampaignInput[] calldata _inputs\n    ) public nonReentrant {\n        Account storage account = accounts[accountIdByAddress[msg.sender]];\n        require(account.addr != address(0), \"mc 0\");\n\n        for (uint i = 0; i < _inputs.length; i++) {\n            CampaignInput memory input = _inputs[i];\n            _saveCampaignHelper(\n                account,\n                Campaign({\n                    id: campaigns.length + 1,\n                    accountId: account.id,\n                    site: input.site,\n                    budget: input.budget,\n                    remaining: input.budget,\n                    contentId: input.contentId,\n                    priceScoreRatio: input.priceScoreRatio,\n                    topics: input.topics,\n                    validUntil: input.validUntil,\n                    fundedByAdmin: false\n                })\n            );\n        }\n    }\n\n    struct AdminCampaignInput {\n        uint256 accountId;\n        CampaignInput attrs;\n    }\n\n    function adminMakeCampaigns(\n        AdminCampaignInput[] calldata _inputs\n    ) public onlyAdmin nonReentrant {\n        for (uint i = 0; i < _inputs.length; i++) {\n            AdminCampaignInput memory input = _inputs[i];\n            ensureAccount(input.accountId);\n            Account storage account = accounts[input.accountId];\n            require(account.addr == address(0));\n\n            _saveCampaignHelper(\n                account,\n                Campaign({\n                    id: campaigns.length + 1,\n                    accountId: account.id,\n                    site: input.attrs.site,\n                    budget: input.attrs.budget,\n                    remaining: input.attrs.budget,\n                    contentId: input.attrs.contentId,\n                    priceScoreRatio: input.attrs.priceScoreRatio,\n                    topics: input.attrs.topics,\n                    validUntil: input.attrs.validUntil,\n                    fundedByAdmin: true\n                })\n            );\n        }\n    }\n\n    function _saveCampaignHelper(\n        Account storage _account,\n        Campaign memory _campaign\n    ) private {\n        require(_campaign.budget > 0);\n        require(bytes(_campaign.contentId).length > 0);\n        require(doc.transferFrom(msg.sender, address(this), _campaign.budget));\n\n        campaigns.push(_campaign);\n        _account.campaigns.push(_campaign.id);\n        emit CampaignSaved(_campaign);\n    }\n\n    struct AdminMakeCollabsInput {\n        uint256 campaignId;\n        uint256 handleId;\n    }\n\n    function adminMakeCollabs(\n        AdminMakeCollabsInput[] calldata _collabs\n    ) external onlyAdmin nonReentrant {\n        for (uint256 i = 0; i < _collabs.length; i++) {\n            Handle storage handle = handles[_collabs[i].handleId - 1];\n            require(handle.id > 0, \"amc1\");\n            Account storage member = accounts[handle.accountId];\n\n            Campaign storage campaign = campaigns[_collabs[i].campaignId - 1];\n            require(campaign.id > 0, \"amc2\");\n            require(campaign.validUntil > block.timestamp, \"amc3\");\n            require(isSubset(handle.topics, campaign.topics), \"amc4\");\n\n            require(campaign.remaining >= handle.price, \"amc5\");\n            require(campaign.site == handle.site, \"amc6\");\n            require(\n                (handle.price / handle.score) <= campaign.priceScoreRatio,\n                \"amc7\"\n            );\n\n            Account storage advertiser = accounts[campaign.accountId];\n\n            uint256 gross = handle.price;\n            uint256 fee = (gross * feeRate) / 1e20;\n            uint256 reward = gross - fee;\n\n            Collab memory collab = Collab({\n                id: collabs.length + 1,\n                handleId: handle.id,\n                campaignId: campaign.id,\n                gross: gross,\n                fee: fee,\n                proof: \"\",\n                createdAt: block.timestamp\n            });\n            collabs.push(collab);\n            member.collabs.push(collab.id);\n\n            campaign.remaining -= gross;\n            changeFeePool(fee, true);\n\n            uint256 remainingToCap = cap() - claimedAsamiTokens;\n            uint256 newTokens = (fee > remainingToCap) ? remainingToCap : fee;\n            claimedAsamiTokens += newTokens;\n\n            uint256 advertiserTokens = (newTokens * 10 * 1e18) / 100e18;\n            uint256 memberTokens = (newTokens * 15 * 1e18) / 100e18;\n            uint256 adminTokens = newTokens - advertiserTokens - memberTokens;\n\n            if (adminTokens > 0) {\n                _safeMint(adminTreasury, adminTokens);\n            }\n\n            if (member.addr == address(0)) {\n                if (memberTokens > 0) {\n                    member.unclaimedAsamiTokens += memberTokens;\n                }\n                member.unclaimedDocRewards += reward;\n                emit AccountSaved(member);\n            } else {\n                if (memberTokens > 0) {\n                    _safeMint(member.addr, memberTokens);\n                }\n                doc.transfer(member.addr, reward);\n            }\n\n            if (advertiserTokens > 0) {\n                if (advertiser.addr == address(0)) {\n                    advertiser.unclaimedAsamiTokens += advertiserTokens;\n                    emit AccountSaved(advertiser);\n                } else {\n                    _safeMint(advertiser.addr, advertiserTokens);\n                }\n            }\n\n            emit CollabSaved(collab);\n            emit CampaignSaved(campaign);\n        }\n    }\n\n    function reimburseDueCampaigns(\n        uint256[] calldata _campaignIds\n    ) external nonReentrant {\n        for (uint i = 0; i < _campaignIds.length; i++) {\n            Campaign storage campaign = campaigns[_campaignIds[i] - 1];\n            require(campaign.id > 0, \"rdc 0\");\n            require(campaign.remaining > 0, \"rdc 1\");\n            require(campaign.validUntil < block.timestamp, \"rdc 2\");\n\n            Account storage advertiser = accounts[campaign.accountId];\n            uint256 remaining = campaign.remaining;\n            campaign.remaining = 0;\n            address fundedBy = campaign.fundedByAdmin ? adminTreasury : advertiser.addr;\n            require(doc.transfer(fundedBy, remaining), \"rdc 3\");\n            emit CampaignSaved(campaign);\n        }\n    }\n\n    // To prevent race conditions, we never mint while we're in the middle of a payout.\n    function _safeMint(address _addr, uint256 _amount) private {\n        recentTokens[getCurrentCycle()] += _amount;\n        _mint(_addr, _amount);\n    }\n\n    struct AdminSetPriceInput {\n        uint256 handleId;\n        uint256 price;\n    }\n\n    function adminSetPrice(\n        AdminSetPriceInput[] calldata _inputs\n    ) external onlyAdmin {\n        for (uint256 i = 0; i < _inputs.length; i++) {\n            Handle storage handle = handles[_inputs[i].handleId - 1];\n            Account storage account = accounts[handle.accountId];\n            require(account.addr == address(0) && account.id > 0);\n\n            _setPriceHelper(handle, _inputs[i].price);\n        }\n    }\n\n    function setPrice(uint256 _handleId, uint256 _price) external {\n        Account storage account = accounts[accountIdByAddress[msg.sender]];\n        require(account.addr != address(0));\n\n        Handle storage handle = handles[_handleId - 1];\n        require(handle.id > 0);\n        require(handle.accountId == account.id);\n\n        _setPriceHelper(handle, _price);\n    }\n\n    function _setPriceHelper(Handle storage handle, uint256 _price) private {\n        require(_price > 0);\n        handle.newPrice = _price;\n        handle.needsUpdate = true;\n        emit HandleSaved(handle);\n    }\n\n    struct AdminSetScoreAndTopicsInput {\n        uint256 handleId;\n        uint256 score;\n        uint256[] topics;\n    }\n\n    function adminSetScoreAndTopics(\n        AdminSetScoreAndTopicsInput[] calldata _inputs\n    ) external onlyAdmin {\n        for (uint256 i = 0; i < _inputs.length; i++) {\n            Handle storage handle = handles[_inputs[i].handleId - 1];\n            handle.newScore = _inputs[i].score;\n            handle.newTopics = _inputs[i].topics;\n            handle.needsUpdate = true;\n            emit HandleSaved(handle);\n        }\n    }\n\n    function getCycleLength() public pure returns (uint256) {\n        return 60 * 60 * 24 * 15;\n    }\n\n    function getCurrentCycle() public view returns (uint256) {\n        return block.timestamp / getCycleLength();\n    }\n\n    function getNextCycle() public view returns (uint256) {\n        return getCurrentCycle() + getCycleLength();\n    }\n\n\n    uint256 public feePool;\n    struct BalanceChange {\n      uint256 added;\n      uint256 substracted;\n    }\n    mapping (uint256 => mapping(address => BalanceChange)) public recentBalanceChanges;\n    mapping (uint256 => BalanceChange) public recentFeePoolChanges;\n    mapping (uint256 => uint256) public recentTokens;\n    mapping(address => uint256) public lastFeePoolShareCycles;\n\n    function getRecentBalanceChange(address _holder) public view returns (BalanceChange memory) {\n      return recentBalanceChanges[getCurrentCycle()][_holder];\n    }\n\n    function getBalanceBeforeRecentChanges(address _holder) public view returns (uint256) {\n      BalanceChange storage recent = recentBalanceChanges[getCurrentCycle()][_holder];\n      return (balanceOf(_holder) + recent.substracted) - recent.added;\n    }\n\n    function _registerRecentBalanceChange(address _holder, uint256 _amount, bool _added) private {\n      BalanceChange storage recent = recentBalanceChanges[getCurrentCycle()][_holder];\n      if(_added){\n        recent.added += _amount;\n      } else {\n        recent.substracted += _amount;\n      }\n    }\n\n    function changeFeePool(uint256 _amount, bool _added) private {\n      BalanceChange storage recent = recentFeePoolChanges[getCurrentCycle()];\n      if(_added){\n        feePool += _amount;\n        recent.added += _amount;\n      } else {\n        feePool -= _amount;\n        recent.substracted += _amount;\n      }\n    }\n\n    function getFeePoolBeforeRecentChanges() public view returns (uint256) {\n      BalanceChange storage recent = recentFeePoolChanges[getCurrentCycle()];\n      return (feePool + recent.substracted) - recent.added;\n    }\n\n    function claimFeePoolShare(address[] calldata _holders) external nonReentrant {\n        uint256 current = getCurrentCycle();\n        uint256 supply = totalSupply() - recentTokens[current];\n        uint256 pool = getFeePoolBeforeRecentChanges();\n        require(supply > 0, \"cfps0\");\n        require(pool > 0, \"cfps1\");\n\n        for (uint256 i = 0; i < _holders.length; i++) {\n          address holder = _holders[i];\n\n          require(lastFeePoolShareCycles[holder] < current, \"cfps2\");\n\n          uint256 balance = getBalanceBeforeRecentChanges(holder);\n          require(balance > 0, \"cfps3\");\n          uint256 reward = (balance * pool) / supply;\n\n          lastFeePoolShareCycles[holder] = current;\n          changeFeePool(reward, false);\n\n          require(doc.transfer(holder, reward), \"cfps4\");\n        }\n    }\n\n    function applyHandleUpdates(uint256[] calldata _indexes) external {\n        uint256 currentCycle = getCurrentCycle();\n\n        for (uint256 i = 0; i < _indexes.length; i++) {\n            Handle storage handle = handles[_indexes[i]];\n            require(handle.lastUpdated != currentCycle, \"ahu 0\");\n            require(handle.needsUpdate, \"ahu 0\");\n\n            handle.needsUpdate = false;\n            handle.lastUpdated = currentCycle;\n\n            if (bytes(handle.newUsername).length > 0) {\n                handle.username = handle.newUsername;\n            }\n\n            if (handle.newPrice != 0) {\n                handle.price = handle.newPrice;\n            }\n\n            if (handle.score != 0) {\n                handle.score = handle.newScore;\n            }\n\n            if (handle.newTopics.length > 0) {\n                handle.topics = handle.newTopics;\n            }\n\n            emit HandleSaved(handle);\n        }\n    }\n\n    function applyVotedFeeRate() external {\n        uint256 currentCycle = getCurrentCycle();\n        require(currentCycle != lastVotedFeeRateAppliedOn);\n        feeRate = votedFeeRate;\n        lastVotedFeeRateAppliedOn = currentCycle;\n    }\n\n    function submitFeeRateVote(uint256 _rate) external {\n        require(_rate > 0 && _rate < 1e20, \"sfrv 0\");\n\n        FeeRateVote storage vote = feeRateVotes[msg.sender];\n        if (vote.votes > 0) {\n            removeFeeRateVoteHelper(msg.sender);\n        }\n\n        uint256 votes = balanceOf(msg.sender);\n        require(votes > 0, \"sfrv 1\");\n\n        votedFeeRate =\n            ((votedFeeRate * votedFeeRateVoteCount) + (votes * _rate)) /\n            (votedFeeRateVoteCount + votes);\n        votedFeeRateVoteCount += votes;\n        vote.votes = votes;\n        vote.rate = _rate;\n    }\n\n    function removeFeeRateVote() external {\n        removeFeeRateVoteHelper(msg.sender);\n    }\n\n    function removeFeeRateVoteHelper(address _holder) private {\n        FeeRateVote storage vote = feeRateVotes[_holder];\n        require(vote.votes > 0, \"rfrv 0\");\n        uint256 nextVoteCount = votedFeeRateVoteCount - vote.votes;\n        uint256 currentVolume = votedFeeRate * votedFeeRateVoteCount;\n        uint256 removedVolume = vote.votes * vote.rate;\n        uint256 nextVolume = currentVolume > removedVolume\n            ? currentVolume - removedVolume\n            : 0;\n\n        if (nextVoteCount > 0) {\n            votedFeeRate = nextVolume / nextVoteCount;\n            votedFeeRateVoteCount = nextVoteCount;\n        } else {\n            votedFeeRate = defaultFeeRate;\n            votedFeeRateVoteCount = 0;\n        }\n        delete feeRateVotes[_holder];\n    }\n\n    function submitAdminVote(address _candidate) external {\n        require(_candidate != address(0), \"sav 0\");\n        uint256 votes = balanceOf(msg.sender);\n        require(votes > 0, \"sav 1\");\n\n        AdminVote storage existing = submittedAdminVotes[msg.sender];\n        if (existing.votes > 0) {\n            removeAdminVoteHelper(msg.sender);\n        }\n\n        submittedAdminVotes[msg.sender] = AdminVote({\n            candidate: _candidate,\n            votes: votes,\n            cycle: getCurrentCycle(),\n            vested: false\n        });\n\n        emit AdminVoteSaved(submittedAdminVotes[msg.sender]);\n    }\n\n    function vestAdminVotes(address[] calldata _holders) external {\n        uint256 thisCycle = getCurrentCycle();\n\n        for (uint256 i = 0; i < _holders.length; i++) {\n            AdminVote storage vote = submittedAdminVotes[_holders[i]];\n            require(vote.cycle > 0, \"vav 0\");\n            require(vote.cycle < thisCycle, \"vav 1\");\n            require(!vote.vested, \"vav 2\");\n            vote.vested = true;\n            vestedAdminVotesTotal += vote.votes;\n\n            uint256 voteCountId = adminVoteCountIdByCandidate[vote.candidate];\n            if (voteCountId > 0) {\n                AdminVoteCount storage count = adminVoteCounts[voteCountId - 1];\n                count.votes += vote.votes;\n            } else {\n                AdminVoteCount storage count = adminVoteCounts.push();\n                count.votes = vote.votes;\n                count.candidate = vote.candidate;\n                adminVoteCountIdByCandidate[vote.candidate] = adminVoteCounts\n                    .length;\n            }\n            emit AdminVoteSaved(vote);\n        }\n    }\n\n    function proclaimCycleAdminWinner(address _candidate) external {\n        uint256 voteCountId = adminVoteCountIdByCandidate[_candidate];\n        require(voteCountId > 0);\n        AdminVoteCount storage count = adminVoteCounts[voteCountId - 1];\n\n        require(count.votes > vestedAdminVotesTotal / 2, \"pcw 0\");\n        require(vestedAdminVotesTotal > 0, \"pcw 1\");\n        uint256 thisCycle = getCurrentCycle();\n        require(lastAdminElection < thisCycle, \"pcw 2\");\n\n        lastAdminElection = thisCycle;\n        latestAdminElections[2] = latestAdminElections[1];\n        latestAdminElections[1] = latestAdminElections[0];\n        latestAdminElections[0] = _candidate;\n\n        if (\n            _candidate == latestAdminElections[1] &&\n            _candidate == latestAdminElections[2]\n        ) {\n            admin = _candidate;\n            adminTreasury = _candidate;\n        }\n    }\n\n    function removeAdminVote() external {\n        removeAdminVoteHelper(msg.sender);\n    }\n\n    function removeAdminVoteHelper(address _holder) private {\n        AdminVote storage vote = submittedAdminVotes[_holder];\n        require(vote.votes > 0, \"ravh 0\");\n        if (vote.vested) {\n            vestedAdminVotesTotal -= vote.votes;\n\n            uint256 voteCountId = adminVoteCountIdByCandidate[vote.candidate];\n            require(voteCountId > 0);\n            adminVoteCounts[voteCountId - 1].votes -= vote.votes;\n        }\n        delete submittedAdminVotes[_holder];\n    }\n\n    function setAdminAddress(address _admin) external {\n        require(msg.sender == adminTreasury);\n        admin = _admin;\n    }\n\n    function isSubset(\n        uint256[] memory mainSet,\n        uint256[] memory subset\n    ) public pure returns (bool) {\n        for (uint256 i = 0; i < subset.length; i++) {\n            bool found = false;\n\n            for (uint256 j = 0; j < mainSet.length; j++) {\n                if (subset[i] == mainSet[j]) {\n                    found = true;\n                    break;\n                }\n            }\n\n            if (!found) {\n                return false;\n            }\n        }\n\n        return true;\n    }\n}\n",
  "sourcePath": "/home/nubis/asami/contract/contracts/Asami.sol",
  "compiler": {
    "name": "solc",
    "version": "0.8.19+commit.7dd6d404.Emscripten.clang"
  },
  "schemaVersion": "3.4.15",
  "updatedAt": "2024-02-23T19:45:31.843Z",
  "networkType": "ethereum",
  "devdoc": {
    "events": {
      "Approval(address,address,uint256)": {
        "details": "Emitted when the allowance of a `spender` for an `owner` is set by a call to {approve}. `value` is the new allowance."
      },
      "Transfer(address,address,uint256)": {
        "details": "Emitted when `value` tokens are moved from one account (`from`) to another (`to`). Note that `value` may be zero."
      }
    },
    "kind": "dev",
    "methods": {
      "allowance(address,address)": {
        "details": "See {IERC20-allowance}."
      },
      "approve(address,uint256)": {
        "details": "See {IERC20-approve}. NOTE: If `amount` is the maximum `uint256`, the allowance is not updated on `transferFrom`. This is semantically equivalent to an infinite approval. Requirements: - `spender` cannot be the zero address."
      },
      "balanceOf(address)": {
        "details": "See {IERC20-balanceOf}."
      },
      "cap()": {
        "details": "Returns the cap on the token's total supply."
      },
      "decimals()": {
        "details": "Returns the number of decimals used to get its user representation. For example, if `decimals` equals `2`, a balance of `505` tokens should be displayed to a user as `5.05` (`505 / 10 ** 2`). Tokens usually opt for a value of 18, imitating the relationship between Ether and Wei. This is the default value returned by this function, unless it's overridden. NOTE: This information is only used for _display_ purposes: it in no way affects any of the arithmetic of the contract, including {IERC20-balanceOf} and {IERC20-transfer}."
      },
      "decreaseAllowance(address,uint256)": {
        "details": "Atomically decreases the allowance granted to `spender` by the caller. This is an alternative to {approve} that can be used as a mitigation for problems described in {IERC20-approve}. Emits an {Approval} event indicating the updated allowance. Requirements: - `spender` cannot be the zero address. - `spender` must have allowance for the caller of at least `subtractedValue`."
      },
      "increaseAllowance(address,uint256)": {
        "details": "Atomically increases the allowance granted to `spender` by the caller. This is an alternative to {approve} that can be used as a mitigation for problems described in {IERC20-approve}. Emits an {Approval} event indicating the updated allowance. Requirements: - `spender` cannot be the zero address."
      },
      "name()": {
        "details": "Returns the name of the token."
      },
      "symbol()": {
        "details": "Returns the symbol of the token, usually a shorter version of the name."
      },
      "totalSupply()": {
        "details": "See {IERC20-totalSupply}."
      },
      "transfer(address,uint256)": {
        "details": "See {IERC20-transfer}. Requirements: - `to` cannot be the zero address. - the caller must have a balance of at least `amount`."
      },
      "transferFrom(address,address,uint256)": {
        "details": "See {IERC20-transferFrom}. Emits an {Approval} event indicating the updated allowance. This is not required by the EIP. See the note at the beginning of {ERC20}. NOTE: Does not update the allowance if the current allowance is the maximum `uint256`. Requirements: - `from` and `to` cannot be the zero address. - `from` must have a balance of at least `amount`. - the caller must have allowance for ``from``'s tokens of at least `amount`."
      }
    },
    "version": 1
  },
  "userdoc": {
    "kind": "user",
    "methods": {},
    "version": 1
  }
}