{
  "contractName": "AsamiCore",
  "abi": [
    {
      "inputs": [
        {
          "internalType": "address",
          "name": "_dollarOnChainAddress",
          "type": "address"
        }
      ],
      "stateMutability": "nonpayable",
      "type": "constructor"
    },
    {
      "anonymous": false,
      "inputs": [
        {
          "indexed": true,
          "internalType": "address",
          "name": "owner",
          "type": "address"
        },
        {
          "indexed": true,
          "internalType": "address",
          "name": "spender",
          "type": "address"
        },
        {
          "indexed": false,
          "internalType": "uint256",
          "name": "value",
          "type": "uint256"
        }
      ],
      "name": "Approval",
      "type": "event"
    },
    {
      "anonymous": false,
      "inputs": [
        {
          "indexed": false,
          "internalType": "address",
          "name": "account",
          "type": "address"
        },
        {
          "indexed": false,
          "internalType": "uint256",
          "name": "campaignId",
          "type": "uint256"
        }
      ],
      "name": "CampaignCreated",
      "type": "event"
    },
    {
      "anonymous": false,
      "inputs": [
        {
          "indexed": false,
          "internalType": "address",
          "name": "account",
          "type": "address"
        },
        {
          "indexed": false,
          "internalType": "uint256",
          "name": "campaignId",
          "type": "uint256"
        }
      ],
      "name": "CampaignExtended",
      "type": "event"
    },
    {
      "anonymous": false,
      "inputs": [
        {
          "indexed": false,
          "internalType": "address",
          "name": "account",
          "type": "address"
        },
        {
          "indexed": false,
          "internalType": "uint256",
          "name": "campaignId",
          "type": "uint256"
        }
      ],
      "name": "CampaignReimbursed",
      "type": "event"
    },
    {
      "anonymous": false,
      "inputs": [
        {
          "indexed": false,
          "internalType": "address",
          "name": "account",
          "type": "address"
        },
        {
          "indexed": false,
          "internalType": "uint256",
          "name": "campaignId",
          "type": "uint256"
        }
      ],
      "name": "CampaignToppedUp",
      "type": "event"
    },
    {
      "anonymous": false,
      "inputs": [
        {
          "indexed": true,
          "internalType": "address",
          "name": "from",
          "type": "address"
        },
        {
          "indexed": true,
          "internalType": "address",
          "name": "to",
          "type": "address"
        },
        {
          "indexed": false,
          "internalType": "uint256",
          "name": "value",
          "type": "uint256"
        }
      ],
      "name": "Transfer",
      "type": "event"
    },
    {
      "inputs": [
        {
          "internalType": "address",
          "name": "",
          "type": "address"
        }
      ],
      "name": "accounts",
      "outputs": [
        {
          "internalType": "address",
          "name": "trustedAdmin",
          "type": "address"
        },
        {
          "internalType": "uint256",
          "name": "maxGaslessDocToSpend",
          "type": "uint256"
        },
        {
          "internalType": "uint256",
          "name": "minGaslessRbtcToReceive",
          "type": "uint256"
        },
        {
          "internalType": "uint256",
          "name": "unclaimedAsamiBalance",
          "type": "uint256"
        },
        {
          "internalType": "uint256",
          "name": "unclaimedDocBalance",
          "type": "uint256"
        },
        {
          "internalType": "uint256",
          "name": "feeRateWhenAdmin",
          "type": "uint256"
        },
        {
          "components": [
            {
              "internalType": "uint256",
              "name": "votes",
              "type": "uint256"
            },
            {
              "internalType": "uint256",
              "name": "rate",
              "type": "uint256"
            }
          ],
          "internalType": "struct AsamiCore.FeeRateVote",
          "name": "feeRateVote",
          "type": "tuple"
        }
      ],
      "stateMutability": "view",
      "type": "function",
      "constant": true
    },
    {
      "inputs": [],
      "name": "adminTreasury",
      "outputs": [
        {
          "internalType": "address",
          "name": "",
          "type": "address"
        }
      ],
      "stateMutability": "view",
      "type": "function",
      "constant": true
    },
    {
      "inputs": [
        {
          "internalType": "address",
          "name": "owner",
          "type": "address"
        },
        {
          "internalType": "address",
          "name": "spender",
          "type": "address"
        }
      ],
      "name": "allowance",
      "outputs": [
        {
          "internalType": "uint256",
          "name": "",
          "type": "uint256"
        }
      ],
      "stateMutability": "view",
      "type": "function",
      "constant": true
    },
    {
      "inputs": [
        {
          "internalType": "address",
          "name": "spender",
          "type": "address"
        },
        {
          "internalType": "uint256",
          "name": "amount",
          "type": "uint256"
        }
      ],
      "name": "approve",
      "outputs": [
        {
          "internalType": "bool",
          "name": "",
          "type": "bool"
        }
      ],
      "stateMutability": "nonpayable",
      "type": "function"
    },
    {
      "inputs": [],
      "name": "assignedAsamiTokens",
      "outputs": [
        {
          "internalType": "uint256",
          "name": "",
          "type": "uint256"
        }
      ],
      "stateMutability": "view",
      "type": "function",
      "constant": true
    },
    {
      "inputs": [
        {
          "internalType": "address",
          "name": "account",
          "type": "address"
        }
      ],
      "name": "balanceOf",
      "outputs": [
        {
          "internalType": "uint256",
          "name": "",
          "type": "uint256"
        }
      ],
      "stateMutability": "view",
      "type": "function",
      "constant": true
    },
    {
      "inputs": [],
      "name": "cap",
      "outputs": [
        {
          "internalType": "uint256",
          "name": "",
          "type": "uint256"
        }
      ],
      "stateMutability": "view",
      "type": "function",
      "constant": true
    },
    {
      "inputs": [],
      "name": "decimals",
      "outputs": [
        {
          "internalType": "uint8",
          "name": "",
          "type": "uint8"
        }
      ],
      "stateMutability": "view",
      "type": "function",
      "constant": true
    },
    {
      "inputs": [
        {
          "internalType": "address",
          "name": "spender",
          "type": "address"
        },
        {
          "internalType": "uint256",
          "name": "subtractedValue",
          "type": "uint256"
        }
      ],
      "name": "decreaseAllowance",
      "outputs": [
        {
          "internalType": "bool",
          "name": "",
          "type": "bool"
        }
      ],
      "stateMutability": "nonpayable",
      "type": "function"
    },
    {
      "inputs": [],
      "name": "defaultFeeRate",
      "outputs": [
        {
          "internalType": "uint256",
          "name": "",
          "type": "uint256"
        }
      ],
      "stateMutability": "view",
      "type": "function",
      "constant": true
    },
    {
      "inputs": [],
      "name": "feePool",
      "outputs": [
        {
          "internalType": "uint256",
          "name": "",
          "type": "uint256"
        }
      ],
      "stateMutability": "view",
      "type": "function",
      "constant": true
    },
    {
      "inputs": [],
      "name": "feeRate",
      "outputs": [
        {
          "internalType": "uint256",
          "name": "",
          "type": "uint256"
        }
      ],
      "stateMutability": "view",
      "type": "function",
      "constant": true
    },
    {
      "inputs": [
        {
          "internalType": "uint256",
          "name": "",
          "type": "uint256"
        }
      ],
      "name": "feesCollectedPerCycleDuringTokenIssuance",
      "outputs": [
        {
          "internalType": "uint256",
          "name": "",
          "type": "uint256"
        }
      ],
      "stateMutability": "view",
      "type": "function",
      "constant": true
    },
    {
      "inputs": [
        {
          "internalType": "address",
          "name": "spender",
          "type": "address"
        },
        {
          "internalType": "uint256",
          "name": "addedValue",
          "type": "uint256"
        }
      ],
      "name": "increaseAllowance",
      "outputs": [
        {
          "internalType": "bool",
          "name": "",
          "type": "bool"
        }
      ],
      "stateMutability": "nonpayable",
      "type": "function"
    },
    {
      "inputs": [
        {
          "internalType": "address",
          "name": "",
          "type": "address"
        }
      ],
      "name": "lastFeePoolShareCycles",
      "outputs": [
        {
          "internalType": "uint256",
          "name": "",
          "type": "uint256"
        }
      ],
      "stateMutability": "view",
      "type": "function",
      "constant": true
    },
    {
      "inputs": [],
      "name": "lastVotedFeeRateAppliedOn",
      "outputs": [
        {
          "internalType": "uint256",
          "name": "",
          "type": "uint256"
        }
      ],
      "stateMutability": "view",
      "type": "function",
      "constant": true
    },
    {
      "inputs": [],
      "name": "migrationAccountsDone",
      "outputs": [
        {
          "internalType": "bool",
          "name": "",
          "type": "bool"
        }
      ],
      "stateMutability": "view",
      "type": "function",
      "constant": true
    },
    {
      "inputs": [],
      "name": "migrationCursor",
      "outputs": [
        {
          "internalType": "uint256",
          "name": "",
          "type": "uint256"
        }
      ],
      "stateMutability": "view",
      "type": "function",
      "constant": true
    },
    {
      "inputs": [],
      "name": "migrationHoldersDone",
      "outputs": [
        {
          "internalType": "bool",
          "name": "",
          "type": "bool"
        }
      ],
      "stateMutability": "view",
      "type": "function",
      "constant": true
    },
    {
      "inputs": [],
      "name": "name",
      "outputs": [
        {
          "internalType": "string",
          "name": "",
          "type": "string"
        }
      ],
      "stateMutability": "view",
      "type": "function",
      "constant": true
    },
    {
      "inputs": [
        {
          "internalType": "uint256",
          "name": "",
          "type": "uint256"
        },
        {
          "internalType": "address",
          "name": "",
          "type": "address"
        }
      ],
      "name": "recentBalanceChanges",
      "outputs": [
        {
          "internalType": "uint256",
          "name": "added",
          "type": "uint256"
        },
        {
          "internalType": "uint256",
          "name": "substracted",
          "type": "uint256"
        }
      ],
      "stateMutability": "view",
      "type": "function",
      "constant": true
    },
    {
      "inputs": [
        {
          "internalType": "uint256",
          "name": "",
          "type": "uint256"
        }
      ],
      "name": "recentFeePoolChanges",
      "outputs": [
        {
          "internalType": "uint256",
          "name": "added",
          "type": "uint256"
        },
        {
          "internalType": "uint256",
          "name": "substracted",
          "type": "uint256"
        }
      ],
      "stateMutability": "view",
      "type": "function",
      "constant": true
    },
    {
      "inputs": [
        {
          "internalType": "uint256",
          "name": "",
          "type": "uint256"
        }
      ],
      "name": "recentTokens",
      "outputs": [
        {
          "internalType": "uint256",
          "name": "",
          "type": "uint256"
        }
      ],
      "stateMutability": "view",
      "type": "function",
      "constant": true
    },
    {
      "inputs": [],
      "name": "symbol",
      "outputs": [
        {
          "internalType": "string",
          "name": "",
          "type": "string"
        }
      ],
      "stateMutability": "view",
      "type": "function",
      "constant": true
    },
    {
      "inputs": [],
      "name": "tokensTargetPerCycle",
      "outputs": [
        {
          "internalType": "uint256",
          "name": "",
          "type": "uint256"
        }
      ],
      "stateMutability": "view",
      "type": "function",
      "constant": true
    },
    {
      "inputs": [],
      "name": "totalSupply",
      "outputs": [
        {
          "internalType": "uint256",
          "name": "",
          "type": "uint256"
        }
      ],
      "stateMutability": "view",
      "type": "function",
      "constant": true
    },
    {
      "inputs": [
        {
          "internalType": "address",
          "name": "to",
          "type": "address"
        },
        {
          "internalType": "uint256",
          "name": "amount",
          "type": "uint256"
        }
      ],
      "name": "transfer",
      "outputs": [
        {
          "internalType": "bool",
          "name": "",
          "type": "bool"
        }
      ],
      "stateMutability": "nonpayable",
      "type": "function"
    },
    {
      "inputs": [
        {
          "internalType": "address",
          "name": "from",
          "type": "address"
        },
        {
          "internalType": "address",
          "name": "to",
          "type": "address"
        },
        {
          "internalType": "uint256",
          "name": "amount",
          "type": "uint256"
        }
      ],
      "name": "transferFrom",
      "outputs": [
        {
          "internalType": "bool",
          "name": "",
          "type": "bool"
        }
      ],
      "stateMutability": "nonpayable",
      "type": "function"
    },
    {
      "inputs": [],
      "name": "votedFeeRate",
      "outputs": [
        {
          "internalType": "uint256",
          "name": "",
          "type": "uint256"
        }
      ],
      "stateMutability": "view",
      "type": "function",
      "constant": true
    },
    {
      "inputs": [],
      "name": "votedFeeRateVoteCount",
      "outputs": [
        {
          "internalType": "uint256",
          "name": "",
          "type": "uint256"
        }
      ],
      "stateMutability": "view",
      "type": "function",
      "constant": true
    },
    {
      "inputs": [],
      "name": "getCurrentCycle",
      "outputs": [
        {
          "internalType": "uint256",
          "name": "",
          "type": "uint256"
        }
      ],
      "stateMutability": "view",
      "type": "function",
      "constant": true
    },
    {
      "inputs": [
        {
          "internalType": "address",
          "name": "_account",
          "type": "address"
        },
        {
          "internalType": "uint256",
          "name": "_index",
          "type": "uint256"
        }
      ],
      "name": "getSubAccount",
      "outputs": [
        {
          "components": [
            {
              "internalType": "uint256",
              "name": "unclaimedAsamiBalance",
              "type": "uint256"
            },
            {
              "internalType": "uint256",
              "name": "unclaimedDocBalance",
              "type": "uint256"
            }
          ],
          "internalType": "struct AsamiCore.SubAccount",
          "name": "",
          "type": "tuple"
        }
      ],
      "stateMutability": "view",
      "type": "function",
      "constant": true
    },
    {
      "inputs": [
        {
          "internalType": "address",
          "name": "_account",
          "type": "address"
        },
        {
          "internalType": "uint256",
          "name": "_briefingHash",
          "type": "uint256"
        }
      ],
      "name": "getCampaign",
      "outputs": [
        {
          "components": [
            {
              "internalType": "uint256",
              "name": "budget",
              "type": "uint256"
            },
            {
              "internalType": "uint256",
              "name": "validUntil",
              "type": "uint256"
            },
            {
              "internalType": "uint256",
              "name": "reportHash",
              "type": "uint256"
            }
          ],
          "internalType": "struct AsamiCore.Campaign",
          "name": "",
          "type": "tuple"
        }
      ],
      "stateMutability": "view",
      "type": "function",
      "constant": true
    },
    {
      "inputs": [
        {
          "components": [
            {
              "internalType": "uint256",
              "name": "id",
              "type": "uint256"
            },
            {
              "internalType": "address",
              "name": "addr",
              "type": "address"
            }
          ],
          "internalType": "struct AsamiCore.PromoteSubAccountsParam[]",
          "name": "_params",
          "type": "tuple[]"
        }
      ],
      "name": "promoteSubAccounts",
      "outputs": [],
      "stateMutability": "nonpayable",
      "type": "function"
    },
    {
      "inputs": [
        {
          "internalType": "address",
          "name": "_trustedAdmin",
          "type": "address"
        },
        {
          "internalType": "uint256",
          "name": "_maxGaslessDocToSpend",
          "type": "uint256"
        },
        {
          "internalType": "uint256",
          "name": "_minGaslessRbtcToReceive",
          "type": "uint256"
        },
        {
          "internalType": "uint256",
          "name": "_feeRateWhenAdmin",
          "type": "uint256"
        }
      ],
      "name": "configAccount",
      "outputs": [],
      "stateMutability": "nonpayable",
      "type": "function"
    },
    {
      "inputs": [],
      "name": "claimBalances",
      "outputs": [],
      "stateMutability": "nonpayable",
      "type": "function"
    },
    {
      "inputs": [
        {
          "internalType": "address[]",
          "name": "_addresses",
          "type": "address[]"
        }
      ],
      "name": "adminClaimBalancesFree",
      "outputs": [],
      "stateMutability": "nonpayable",
      "type": "function"
    },
    {
      "inputs": [
        {
          "internalType": "uint256",
          "name": "_fee",
          "type": "uint256"
        },
        {
          "internalType": "uint256",
          "name": "_rbtcAmount",
          "type": "uint256"
        },
        {
          "internalType": "address[]",
          "name": "_addresses",
          "type": "address[]"
        }
      ],
      "name": "gaslessClaimBalances",
      "outputs": [],
      "stateMutability": "payable",
      "type": "function",
      "payable": true
    },
    {
      "inputs": [
        {
          "internalType": "address",
          "name": "_trustedAdmin",
          "type": "address"
        },
        {
          "components": [
            {
              "internalType": "uint256",
              "name": "budget",
              "type": "uint256"
            },
            {
              "internalType": "uint256",
              "name": "validUntil",
              "type": "uint256"
            },
            {
              "internalType": "uint256",
              "name": "briefingHash",
              "type": "uint256"
            }
          ],
          "internalType": "struct AsamiCore.MakeCampaignsParam[]",
          "name": "_inputs",
          "type": "tuple[]"
        }
      ],
      "name": "setTrustedAdminAndMakeCampaign",
      "outputs": [],
      "stateMutability": "nonpayable",
      "type": "function"
    },
    {
      "inputs": [
        {
          "components": [
            {
              "internalType": "uint256",
              "name": "budget",
              "type": "uint256"
            },
            {
              "internalType": "uint256",
              "name": "validUntil",
              "type": "uint256"
            },
            {
              "internalType": "uint256",
              "name": "briefingHash",
              "type": "uint256"
            }
          ],
          "internalType": "struct AsamiCore.MakeCampaignsParam[]",
          "name": "_inputs",
          "type": "tuple[]"
        }
      ],
      "name": "makeCampaigns",
      "outputs": [],
      "stateMutability": "nonpayable",
      "type": "function"
    },
    {
      "inputs": [
        {
          "components": [
            {
              "internalType": "uint256",
              "name": "validUntil",
              "type": "uint256"
            },
            {
              "internalType": "uint256",
              "name": "briefingHash",
              "type": "uint256"
            }
          ],
          "internalType": "struct AsamiCore.ExtendCampaignsParam[]",
          "name": "_inputs",
          "type": "tuple[]"
        }
      ],
      "name": "extendCampaigns",
      "outputs": [],
      "stateMutability": "nonpayable",
      "type": "function"
    },
    {
      "inputs": [
        {
          "components": [
            {
              "internalType": "address",
              "name": "account",
              "type": "address"
            },
            {
              "internalType": "uint256",
              "name": "budget",
              "type": "uint256"
            },
            {
              "internalType": "uint256",
              "name": "briefingHash",
              "type": "uint256"
            }
          ],
          "internalType": "struct AsamiCore.TopUpCampaignsParam[]",
          "name": "_inputs",
          "type": "tuple[]"
        }
      ],
      "name": "topUpCampaigns",
      "outputs": [],
      "stateMutability": "nonpayable",
      "type": "function"
    },
    {
      "inputs": [
        {
          "components": [
            {
              "internalType": "address",
              "name": "addr",
              "type": "address"
            },
            {
              "internalType": "uint256",
              "name": "briefingHash",
              "type": "uint256"
            }
          ],
          "internalType": "struct AsamiCore.ReimburseCampaignsParam[]",
          "name": "_inputs",
          "type": "tuple[]"
        }
      ],
      "name": "reimburseCampaigns",
      "outputs": [],
      "stateMutability": "nonpayable",
      "type": "function"
    },
    {
      "inputs": [
        {
          "components": [
            {
              "internalType": "address",
              "name": "account",
              "type": "address"
            },
            {
              "internalType": "uint256",
              "name": "briefingHash",
              "type": "uint256"
            },
            {
              "internalType": "uint256",
              "name": "reportHash",
              "type": "uint256"
            }
          ],
          "internalType": "struct AsamiCore.SubmitReportsParam[]",
          "name": "_inputs",
          "type": "tuple[]"
        }
      ],
      "name": "submitReports",
      "outputs": [],
      "stateMutability": "nonpayable",
      "type": "function"
    },
    {
      "inputs": [
        {
          "components": [
            {
              "internalType": "address",
              "name": "advertiserAddr",
              "type": "address"
            },
            {
              "internalType": "uint256",
              "name": "briefingHash",
              "type": "uint256"
            },
            {
              "components": [
                {
                  "internalType": "address",
                  "name": "accountAddr",
                  "type": "address"
                },
                {
                  "internalType": "uint256",
                  "name": "docReward",
                  "type": "uint256"
                }
              ],
              "internalType": "struct AsamiCore.MakeCollabsParamItem[]",
              "name": "collabs",
              "type": "tuple[]"
            }
          ],
          "internalType": "struct AsamiCore.MakeCollabsParam[]",
          "name": "_input",
          "type": "tuple[]"
        }
      ],
      "name": "adminMakeCollabs",
      "outputs": [],
      "stateMutability": "nonpayable",
      "type": "function"
    },
    {
      "inputs": [
        {
          "components": [
            {
              "internalType": "address",
              "name": "advertiserAddr",
              "type": "address"
            },
            {
              "internalType": "uint256",
              "name": "briefingHash",
              "type": "uint256"
            },
            {
              "components": [
                {
                  "internalType": "uint256",
                  "name": "subAccountId",
                  "type": "uint256"
                },
                {
                  "internalType": "uint256",
                  "name": "docReward",
                  "type": "uint256"
                }
              ],
              "internalType": "struct AsamiCore.MakeSubAccountCollabsParamItem[]",
              "name": "collabs",
              "type": "tuple[]"
            }
          ],
          "internalType": "struct AsamiCore.MakeSubAccountCollabsParam[]",
          "name": "_input",
          "type": "tuple[]"
        }
      ],
      "name": "adminMakeSubAccountCollabs",
      "outputs": [],
      "stateMutability": "nonpayable",
      "type": "function"
    },
    {
      "inputs": [
        {
          "internalType": "address",
          "name": "_holder",
          "type": "address"
        }
      ],
      "name": "getRecentBalanceChange",
      "outputs": [
        {
          "components": [
            {
              "internalType": "uint256",
              "name": "added",
              "type": "uint256"
            },
            {
              "internalType": "uint256",
              "name": "substracted",
              "type": "uint256"
            }
          ],
          "internalType": "struct AsamiCore.BalanceChange",
          "name": "",
          "type": "tuple"
        }
      ],
      "stateMutability": "view",
      "type": "function",
      "constant": true
    },
    {
      "inputs": [
        {
          "internalType": "address",
          "name": "_holder",
          "type": "address"
        }
      ],
      "name": "getBalanceBeforeRecentChanges",
      "outputs": [
        {
          "internalType": "uint256",
          "name": "",
          "type": "uint256"
        }
      ],
      "stateMutability": "view",
      "type": "function",
      "constant": true
    },
    {
      "inputs": [],
      "name": "getFeePoolBeforeRecentChanges",
      "outputs": [
        {
          "internalType": "uint256",
          "name": "",
          "type": "uint256"
        }
      ],
      "stateMutability": "view",
      "type": "function",
      "constant": true
    },
    {
      "inputs": [
        {
          "internalType": "address[]",
          "name": "_holders",
          "type": "address[]"
        }
      ],
      "name": "claimFeePoolShare",
      "outputs": [],
      "stateMutability": "nonpayable",
      "type": "function"
    },
    {
      "inputs": [],
      "name": "applyVotedFeeRate",
      "outputs": [],
      "stateMutability": "nonpayable",
      "type": "function"
    },
    {
      "inputs": [
        {
          "internalType": "uint256",
          "name": "_rate",
          "type": "uint256"
        }
      ],
      "name": "submitFeeRateVote",
      "outputs": [],
      "stateMutability": "nonpayable",
      "type": "function"
    },
    {
      "inputs": [],
      "name": "removeFeeRateVote",
      "outputs": [],
      "stateMutability": "nonpayable",
      "type": "function"
    },
    {
      "inputs": [
        {
          "internalType": "uint256",
          "name": "_docAmount",
          "type": "uint256"
        }
      ],
      "name": "getIssuanceFor",
      "outputs": [
        {
          "internalType": "uint256",
          "name": "",
          "type": "uint256"
        }
      ],
      "stateMutability": "view",
      "type": "function",
      "constant": true
    },
    {
      "inputs": [
        {
          "internalType": "uint256",
          "name": "_cycle",
          "type": "uint256"
        }
      ],
      "name": "getFeesCollected",
      "outputs": [
        {
          "internalType": "uint256",
          "name": "",
          "type": "uint256"
        }
      ],
      "stateMutability": "view",
      "type": "function",
      "constant": true
    },
    {
      "inputs": [],
      "name": "withdrawAccidentallySentRbtc",
      "outputs": [],
      "stateMutability": "nonpayable",
      "type": "function"
    },
    {
      "inputs": [
        {
          "internalType": "address",
          "name": "_oldContract",
          "type": "address"
        },
        {
          "internalType": "address",
          "name": "_adminAddr",
          "type": "address"
        },
        {
          "internalType": "uint256",
          "name": "_items",
          "type": "uint256"
        }
      ],
      "name": "migrateTokensFromOldContract",
      "outputs": [],
      "stateMutability": "nonpayable",
      "type": "function"
    }
  ],
  "bytecode": "0x60a06040526213c680600755678ac7230489e80000600955600954600a55600954600b556000600c556000600d5569152d02c7e14af68000006015553480156200004857600080fd5b50604051620045f5380380620045f58339810160408190526200006b916200017a565b6a115eec47f6cf7e350000006040518060400160405280600a8152602001694173616d6920436f726560b01b815250604051806040016040528060058152602001644153414d4960d81b8152508160039081620000c9919062000251565b506004620000d8828262000251565b50505060008111620001305760405162461bcd60e51b815260206004820152601560248201527f45524332304361707065643a2063617020697320300000000000000000000000604482015260640160405180910390fd5b6080526001600555600e80546001600160a01b0383166001600160a01b03199182161790915560178054909116331790556007546200017090426200031d565b6006555062000340565b6000602082840312156200018d57600080fd5b81516001600160a01b0381168114620001a557600080fd5b9392505050565b634e487b7160e01b600052604160045260246000fd5b600181811c90821680620001d757607f821691505b602082108103620001f857634e487b7160e01b600052602260045260246000fd5b50919050565b601f8211156200024c57600081815260208120601f850160051c81016020861015620002275750805b601f850160051c820191505b81811015620002485782815560010162000233565b5050505b505050565b81516001600160401b038111156200026d576200026d620001ac565b62000285816200027e8454620001c2565b84620001fe565b602080601f831160018114620002bd5760008415620002a45750858301515b600019600386901b1c1916600185901b17855562000248565b600085815260208120601f198616915b82811015620002ee57888601518255948401946001909101908401620002cd565b50858210156200030d5787850151600019600388901b60f8161c191681555b5050505050600190811b01905550565b6000826200033b57634e487b7160e01b600052601260045260246000fd5b500490565b60805161427d62000378600039600081816105e3015281816110f801528181611db1015281816133a901526138db015261427d6000f3fe6080604052600436106103765760003560e01c806369ae0be9116101d1578063978bbdb911610102578063bd5ff423116100a0578063d5f9b4be1161006f578063d5f9b4be14610b9d578063d8c44f5014610bbd578063dd62ed3e14610bd2578063dedbb1ef14610bf257600080fd5b8063bd5ff42314610b28578063be26ed7f14610b48578063c5187a9114610b5d578063d440703c14610b7d57600080fd5b8063a748ea2f116100dc578063a748ea2f14610a90578063a9059cbb14610ab0578063ae2e933b14610ad0578063b08328b414610ae657600080fd5b8063978bbdb914610a3a5780639dfceaaa14610a50578063a457c2d714610a7057600080fd5b80638a89a2d81161016f5780639314b214116101495780639314b214146109aa57806393c518fb146109c057806395d89b41146109ed57806396cad0db14610a0257600080fd5b80638a89a2d8146109695780638b1c374e1461097f5780638f95d7521461099557600080fd5b806370a08231116101ab57806370a08231146108d357806374f1ea16146109095780637a14fd5a146109295780637d3ae3a81461094957600080fd5b806369ae0be9146108195780636bd1c230146108915780636f1c7617146108be57600080fd5b8063355274ea116102ab57806357b53ae5116102495780635e613423116102235780635e613423146107b857806365e5d1bc146107ce5780636782eb0d146107e357806368841a461461080357600080fd5b806357b53ae5146106c05780635b33e492146106d65780635e5c06e2146106f657600080fd5b806342c662081161028557806342c662081461064757806348a23ba81461066757806352c6dd731461068657806354e97496146106a657600080fd5b8063355274ea146105d45780633950935114610607578063416be9b11461062757600080fd5b8063162c1cd1116103185780632384fba8116102f25780632384fba81461052857806323b872dd1461053b5780632a2786891461055b578063313ce567146105b857600080fd5b8063162c1cd1146104dc57806318160ddd146104fe578063208415441461051357600080fd5b8063095ea7b311610354578063095ea7b31461041e5780630dff55ed1461044e57806312b4dd8e14610482578063139fd1c2146104af57600080fd5b806306fdde031461037b57806307d33455146103a6578063080b0648146103ca575b600080fd5b34801561038757600080fd5b50610390610c12565b60405161039d9190613b16565b60405180910390f35b3480156103b257600080fd5b506103bc60095481565b60405190815260200161039d565b3480156103d657600080fd5b506104096103e5366004613b79565b60116020908152600092835260408084209091529082529020805460019091015482565b6040805192835260208301919091520161039d565b34801561042a57600080fd5b5061043e610439366004613ba9565b610ca4565b604051901515815260200161039d565b34801561045a57600080fd5b50610409610469366004613bd5565b6012602052600090815260409020805460019091015482565b34801561048e57600080fd5b506103bc61049d366004613bd5565b60009081526016602052604090205490565b3480156104bb57600080fd5b506103bc6104ca366004613bd5565b60136020526000908152604090205481565b3480156104e857600080fd5b506104fc6104f7366004613c3a565b610cbe565b005b34801561050a57600080fd5b506002546103bc565b34801561051f57600080fd5b506103bc611175565b6104fc610536366004613c7c565b6111bb565b34801561054757600080fd5b5061043e610556366004613ccf565b611555565b34801561056757600080fd5b506104fc610576366004613d10565b33600090815260086020526040902080546001600160a01b0319166001600160a01b039590951694909417845560018401929092556002830155600590910155565b3480156105c457600080fd5b506040516012815260200161039d565b3480156105e057600080fd5b507f00000000000000000000000000000000000000000000000000000000000000006103bc565b34801561061357600080fd5b5061043e610622366004613ba9565b61157b565b34801561063357600080fd5b506104fc610642366004613d90565b61159d565b34801561065357600080fd5b506104fc610662366004613e0b565b611747565b34801561067357600080fd5b5060195461043e90610100900460ff1681565b34801561069257600080fd5b506104fc6106a1366004613e0b565b6118c6565b3480156106b257600080fd5b5060195461043e9060ff1681565b3480156106cc57600080fd5b506103bc600f5481565b3480156106e257600080fd5b506104fc6106f1366004613c3a565b611a0c565b34801561070257600080fd5b5061076f610711366004613e41565b6008602090815260009182526040918290208054600182015460028301546003840154600485015460058601548851808a0190995260068701548952600790960154968801969096526001600160a01b039093169591949093909187565b604080516001600160a01b0390981688526020808901979097528701949094526060860192909252608085015260a0840152805160c0840152015160e08201526101000161039d565b3480156107c457600080fd5b506103bc600b5481565b3480156107da57600080fd5b506104fc611e1f565b3480156107ef57600080fd5b506103bc6107fe366004613e41565b611e9d565b34801561080f57600080fd5b506103bc600d5481565b34801561082557600080fd5b50610884610834366004613ba9565b604080518082018252600080825260209182018190526001600160a01b03949094168452600881528184209284526009909201825291829020825180840190935280548352600101549082015290565b60405161039d9190613e5e565b34801561089d57600080fd5b506103bc6108ac366004613e41565b60146020526000908152604090205481565b3480156108ca57600080fd5b506104fc611efa565b3480156108df57600080fd5b506103bc6108ee366004613e41565b6001600160a01b031660009081526020819052604090205490565b34801561091557600080fd5b50610884610924366004613e41565b611f4b565b34801561093557600080fd5b506104fc610944366004613ccf565b611fac565b34801561095557600080fd5b506103bc610964366004613bd5565b612395565b34801561097557600080fd5b506103bc60185481565b34801561098b57600080fd5b506103bc60155481565b3480156109a157600080fd5b506104fc61240f565b3480156109b657600080fd5b506103bc600c5481565b3480156109cc57600080fd5b506103bc6109db366004613bd5565b60166020526000908152604090205481565b3480156109f957600080fd5b506103906124e6565b348015610a0e57600080fd5b50601754610a22906001600160a01b031681565b6040516001600160a01b03909116815260200161039d565b348015610a4657600080fd5b506103bc600a5481565b348015610a5c57600080fd5b506104fc610a6b366004613bd5565b6124f5565b348015610a7c57600080fd5b5061043e610a8b366004613ba9565b61260b565b348015610a9c57600080fd5b506104fc610aab366004613c3a565b612691565b348015610abc57600080fd5b5061043e610acb366004613ba9565b612862565b348015610adc57600080fd5b506103bc60105481565b348015610af257600080fd5b50610b06610b01366004613ba9565b612870565b604080518251815260208084015190820152918101519082015260600161039d565b348015610b3457600080fd5b506104fc610b43366004613c3a565b6128e2565b348015610b5457600080fd5b506103bc612b77565b348015610b6957600080fd5b506104fc610b78366004613d90565b612b99565b348015610b8957600080fd5b506104fc610b98366004613e0b565b612d79565b348015610ba957600080fd5b506104fc610bb8366004613e75565b612f62565b348015610bc957600080fd5b506104fc612fa7565b348015610bde57600080fd5b506103bc610bed366004613eca565b612fb0565b348015610bfe57600080fd5b506104fc610c0d366004613d90565b612fdb565b606060038054610c2190613ef8565b80601f0160208091040260200160405190810160405280929190818152602001828054610c4d90613ef8565b8015610c9a5780601f10610c6f57610100808354040283529160200191610c9a565b820191906000526020600020905b815481529060010190602001808311610c7d57829003601f168201915b5050505050905090565b600033610cb2818585613221565b60019150505b92915050565b610cc6613345565b33600090815260086020526040902060050154600a5468056bc75e2d6310000091610cf091613f48565b10610d2f5760405162461bcd60e51b8152600401610d26906020808252600490820152630616d63360e41b604082015260600190565b60405180910390fd5b60005b8181101561116657600060086000858585818110610d5257610d52613f5b565b9050602002810190610d649190613f71565b610d72906020810190613e41565b6001600160a01b03166001600160a01b0316815260200190815260200160002090506000816008016000868686818110610dae57610dae613f5b565b9050602002810190610dc09190613f71565b602090810135825281019190915260400160002082549091506001600160a01b03163314610e195760405162461bcd60e51b8152600401610d2690602080825260049082015263616d633160e01b604082015260600190565b42816001015411610e555760405162461bcd60e51b8152600401610d269060208082526004908201526330b6b19960e11b604082015260600190565b6000805b868686818110610e6b57610e6b613f5b565b9050602002810190610e7d9190613f71565b610e8b906040810190613f91565b90508110156110ea5733600090815260086020526040902036888888818110610eb657610eb6613f5b565b9050602002810190610ec89190613f71565b610ed6906040810190613f91565b84818110610ee657610ee6613f5b565b60400291909101915060009050610f006020830183613e41565b6001600160a01b031603610f3f5760405162461bcd60e51b8152600401610d2690602080825260049082015263616d633360e01b604082015260600190565b8454602082013590811115610f7f5760405162461bcd60e51b8152600401610d2690602080825260049082015263185b58cd60e21b604082015260600190565b80866000016000828254610f939190613fdb565b9091555050600a5460009068056bc75e2d6310000090610fb39084613fee565b610fbd9190614005565b9050600068056bc75e2d63100000856005015484610fdb9190613fee565b610fe59190614005565b9050600081610ff48486613fdb565b610ffe9190613fdb565b9050600061100d848c8961339e565b9050801561105f57806008600061102760208a018a613e41565b6001600160a01b03166001600160a01b0316815260200190815260200160002060030160008282546110599190613f48565b90915550505b816008600061107160208a018a613e41565b6001600160a01b03166001600160a01b0316815260200190815260200160002060040160008282546110a39190613f48565b909155506110b39050848a613f48565b9850828760040160008282546110c99190613f48565b925050819055505050505050505080806110e290614027565b915050610e59565b506110f68160016134ea565b7f0000000000000000000000000000000000000000000000000000000000000000600f54101561115057806016600061112d612b77565b8152602001908152602001600020600082825461114a9190613f48565b90915550505b505050808061115e90614027565b915050610d32565b506111716001600555565b5050565b60008060126000611184612b77565b81526020019081526020016000209050806000015481600101546010546111ab9190613f48565b6111b59190613fdb565b91505090565b6111c3613345565b64174876e80083116112005760405162461bcd60e51b8152600401610d26906020808252600490820152630676362360e41b604082015260600190565b61120a8184613fee565b34146112415760405162461bcd60e51b8152600401610d26906020808252600490820152636763623160e01b604082015260600190565b60005b818110156115445760006008600085858581811061126457611264613f5b565b90506020020160208101906112799190613e41565b6001600160a01b03908116825260208201929092526040016000208054909250163314806112af575080546001600160a01b0316155b6112e45760405162461bcd60e51b8152600401610d269060208082526004908201526333b1b11960e11b604082015260600190565b858160040154116113205760405162461bcd60e51b8152600401610d26906020808252600490820152636763623360e01b604082015260600190565b858160010154101561135d5760405162461bcd60e51b8152600401610d269060208082526004908201526319d8d88d60e21b604082015260600190565b806002015485101561139a5760405162461bcd60e51b8152600401610d26906020808252600490820152636763623560e01b604082015260600190565b60008682600401546113ac9190613fdb565b60006004840155600e549091506001600160a01b031663a9059cbb8686868181106113d9576113d9613f5b565b90506020020160208101906113ee9190613e41565b6040516001600160e01b031960e084901b1681526001600160a01b039091166004820152602481018490526044016020604051808303816000875af115801561143b573d6000803e3d6000fd5b505050506040513d601f19601f8201168201806040525081019061145f9190614040565b503360009081526008602052604081206004018054899290611482908490613f48565b90915550859050848481811061149a5761149a613f5b565b90506020020160208101906114af9190613e41565b6001600160a01b03166108fc879081150290604051600060405180830381858888f193505050501580156114e7573d6000803e3d6000fd5b5060038201541561152f57600382018054600090915561152d86868681811061151257611512613f5b565b90506020020160208101906115279190613e41565b8261357b565b505b5050808061153c90614027565b915050611244565b5061154f6001600555565b50505050565b6000336115638582856135b5565b61156e858585613629565b60019150505b9392505050565b600033610cb281858561158e8383612fb0565b6115989190613f48565b613221565b60005b818110156117425760008383838181106115bc576115bc613f5b565b9050606002018036038101906115d2919061410f565b9050600081604001511161160e5760405162461bcd60e51b815260206004820152600360248201526207372360ec1b6044820152606401610d26565b80516001600160a01b039081166000908152600860205260409020805490911633146116625760405162461bcd60e51b815260206004820152600360248201526273723160e81b6044820152606401610d26565b6020808301516000908152600883019091526040902060018101546116af5760405162461bcd60e51b815260206004820152600360248201526239b91960e91b6044820152606401610d26565b428160010154106116e85760405162461bcd60e51b815260206004820152600360248201526273723360e81b6044820152606401610d26565b6002810154156117205760405162461bcd60e51b81526020600482015260036024820152621cdc8d60ea1b6044820152606401610d26565b604090920151600290920191909155508061173a81614027565b9150506115a0565b505050565b61174f613345565b60005b81811015611166573683838381811061176d5761176d613f5b565b33600090815260086020818152604080842094810296909601803584526009909401815285832093965092949193509183916117ae91908701908701613e41565b6001600160a01b03908116825260208201929092526040016000208054909250163314806117e4575080546001600160a01b0316155b6118195760405162461bcd60e51b8152600401610d26906020808252600490820152630707361360e41b604082015260600190565b815460038201805460009061182f908490613f48565b90915550506000808355600183015460048301805491928392611853908490613f48565b90915550506000600184015581546001600160a01b03166118af5781546001600160a01b03191633178255670de0b6b3a7640000811161189b57670de0b6b3a764000061189d565b805b6001830155650574fbde600060028301555b5050505080806118be90614027565b915050611752565b6118ce613345565b336000908152600860205260408120905b82811015611a005760008484838181106118fb576118fb613f5b565b905060400201803603810190611911919061412b565b6020808201516000908152600886019091526040812060018101549293509190036119645760405162461bcd60e51b815260206004820152600360248201526265633160e81b6044820152606401610d26565b600181015482511161199e5760405162461bcd60e51b815260206004820152600360248201526232b19960e91b6044820152606401610d26565b815160018201556000600282015560208083015160408051338152928301919091527f109bdc451e13fc769432699e1aa8f674e38e9501ab6e683566a7d22789f24ebd910160405180910390a1505080806119f890614027565b9150506118df565b50506111716001600555565b611a14613345565b33600090815260086020526040902060050154600a5468056bc75e2d6310000091611a3e91613f48565b10611a745760405162461bcd60e51b8152600401610d26906020808252600490820152630616d63360e41b604082015260600190565b60005b8181101561116657600060086000858585818110611a9757611a97613f5b565b9050602002810190611aa99190613f71565b611ab7906020810190613e41565b6001600160a01b03166001600160a01b0316815260200190815260200160002090506000816008016000868686818110611af357611af3613f5b565b9050602002810190611b059190613f71565b602090810135825281019190915260400160002082549091506001600160a01b03163314611b5e5760405162461bcd60e51b8152600401610d2690602080825260049082015263616d633160e01b604082015260600190565b42816001015411611b9a5760405162461bcd60e51b8152600401610d269060208082526004908201526330b6b19960e11b604082015260600190565b6000805b868686818110611bb057611bb0613f5b565b9050602002810190611bc29190613f71565b611bd0906040810190613f91565b9050811015611da35733600090815260086020526040902036888888818110611bfb57611bfb613f5b565b9050602002810190611c0d9190613f71565b611c1b906040810190613f91565b84818110611c2b57611c2b613f5b565b90506040020190506000816020013590508086600001541015611c795760405162461bcd60e51b8152600401610d2690602080825260049082015263185b58cd60e21b604082015260600190565b80866000016000828254611c8d9190613fdb565b9091555050600a5460009068056bc75e2d6310000090611cad9084613fee565b611cb79190614005565b9050600068056bc75e2d63100000856005015484611cd59190613fee565b611cdf9190614005565b9050600081611cee8486613fdb565b611cf89190613fdb565b90506000611d07848c8961339e565b90508015611d37578535600090815260098801602052604081208054839290611d31908490613f48565b90915550505b8535600090815260098801602052604081206001018054849290611d5c908490613f48565b90915550611d6c9050848a613f48565b985082876004016000828254611d829190613f48565b92505081905550505050505050508080611d9b90614027565b915050611b9e565b50611daf8160016134ea565b7f0000000000000000000000000000000000000000000000000000000000000000600f541015611e09578060166000611de6612b77565b81526020019081526020016000206000828254611e039190613f48565b90915550505b5050508080611e1790614027565b915050611a77565b6017546001600160a01b03163314611e615760405162461bcd60e51b8152602060048201526005602482015264077617372360dc1b6044820152606401610d26565b6017546040516001600160a01b03909116904780156108fc02916000818181858888f19350505050158015611e9a573d6000803e3d6000fd5b50565b60008060116000611eac612b77565b8152602080820192909252604090810160009081206001600160a01b03871682528352818120805460018201549483905292909120549093509091611ef091613f48565b6115749190613fdb565b6000611f04612b77565b9050600d548103611f405760405162461bcd60e51b8152600401610d26906020808252600490820152630616672360e41b604082015260600190565b600b54600a55600d55565b604080518082019091526000808252602082015260116000611f6b612b77565b8152602080820192909252604090810160009081206001600160a01b0390951681529382529283902083518085019094528054845260010154908301525090565b60195460ff161580611fc65750601954610100900460ff16155b611ffb5760405162461bcd60e51b8152600401610d269060208082526004908201526306d6967360e41b604082015260600190565b6000839050806001600160a01b0316631677aa3d6040518163ffffffff1660e01b8152600401602060405180830381865afa15801561203e573d6000803e3d6000fd5b505050506040513d601f19601f82011682018060405250810190612062919061415d565b600f556001600160a01b038316600090815260086020526040902060195460ff166121b55760005b838110156121b357826001600160a01b0316632a11ced0826018546120af9190613f48565b6040518263ffffffff1660e01b81526004016120cd91815260200190565b602060405180830381865afa925050508015612106575060408051601f3d908101601f1916820190925261210391810190614176565b60015b61211c576019805460ff191660011790556121b3565b6040516370a0823160e01b81526001600160a01b03828116600483015260009161218d918716906370a0823190602401602060405180830381865afa158015612169573d6000803e3d6000fd5b505050506040513d601f19601f82011682018060405250810190610964919061415d565b9050801561219f5761219f828261357b565b5050806121ab81614027565b91505061208a565b505b601954610100900460ff166123775760005b8381101561237557826001600160a01b03166333c24bd3826018546121ec9190613f48565b6040518263ffffffff1660e01b815260040161220a91815260200190565b602060405180830381865afa925050508015612243575060408051601f3d908101601f191682019092526122409181019061415d565b60015b61225b576019805461ff001916610100179055612375565b604051631e5481b760e31b81526004810182905260009081906001600160a01b0387169063f2a40db890602401608060405180830381865afa1580156122a5573d6000803e3d6000fd5b505050506040513d601f19601f820116820180604052508101906122c99190614193565b509093509150506001600160a01b0382161580156122e75750600081115b15612307576122f581612395565b60008481526009870160205260409020555b6001600160a01b03821615612360576001600160a01b03828116600090815260086020526040902080546001600160a01b031916918a16919091178155670de0b6b3a76400006001820155650574fbde60006002909101555b5050508061236d81614027565b9150506121c7565b505b82601860008282546123899190613f48565b90915550505050505050565b6000806123a0612b77565b9050806000036123b65761157483610fa0613fee565b60006016816123c6600185613fdb565b8152602001908152602001600020549050806000146123e557806123f0565b68056bc75e2d631000005b6015546123fd9086613fee565b6124079190614005565b949350505050565b612417613345565b336000908152600860205260409020600381015415612447576003810180546000909155612445338261357b565b505b6004810154156124d957600481810180546000909155600e5460405163a9059cbb60e01b815233938101939093526024830182905290916001600160a01b039091169063a9059cbb906044016020604051808303816000875af11580156124b2573d6000803e3d6000fd5b505050506040513d601f19601f820116820180604052508101906124d69190614040565b50505b506124e46001600555565b565b606060048054610c2190613ef8565b60008111801561250d575068056bc75e2d6310000081105b6125425760405162461bcd60e51b8152600401610d26906020808252600490820152630737276360e41b604082015260600190565b33600090815260086020526040902060060180541561256457612564336137d8565b33600090815260208190526040902054806125aa5760405162461bcd60e51b8152600401610d26906020808252600490820152637372763160e01b604082015260600190565b80600c546125b89190613f48565b6125c28483613fee565b600c54600b546125d29190613fee565b6125dc9190613f48565b6125e69190614005565b600b8190555080600c60008282546125fe9190613f48565b9091555050815560010155565b600033816126198286612fb0565b9050838110156126795760405162461bcd60e51b815260206004820152602560248201527f45524332303a2064656372656173656420616c6c6f77616e63652062656c6f77604482015264207a65726f60d81b6064820152608401610d26565b6126868286868403613221565b506001949350505050565b612699613345565b60005b81811015611166576000600860008585858181106126bc576126bc613f5b565b90506020020160208101906126d19190613e41565b6001600160a01b039081168252602082019290925260400160002080549092501633148061272d57503384848481811061270d5761270d613f5b565b90506020020160208101906127229190613e41565b6001600160a01b0316145b6127625760405162461bcd60e51b8152600401610d26906020808252600490820152630616362360e41b604082015260600190565b60038101541561278e57600381018054600090915561278c85858581811061151257611512613f5b565b505b60048101541561284f576004810180546000909155600e546001600160a01b031663a9059cbb8686868181106127c6576127c6613f5b565b90506020020160208101906127db9190613e41565b6040516001600160e01b031960e084901b1681526001600160a01b039091166004820152602481018490526044016020604051808303816000875af1158015612828573d6000803e3d6000fd5b505050506040513d601f19601f8201168201806040525081019061284c9190614040565b50505b508061285a81614027565b91505061269c565b600033610cb2818585613629565b61289460405180606001604052806000815260200160008152602001600081525090565b506001600160a01b0382166000908152600860208181526040808420858552909201815291819020815160608101835281548152600182015493810193909352600201549082015292915050565b6128ea613345565b60006128f4612b77565b6000818152601360205260408120549192509061291060025490565b61291a9190613fdb565b90506000612926611175565b9050600082116129615760405162461bcd60e51b8152600401610d26906020808252600490820152630636670360e41b604082015260600190565b6000811161299a5760405162461bcd60e51b8152600401610d26906020808252600490820152636366703160e01b604082015260600190565b60005b84811015612b695760008686838181106129b9576129b9613f5b565b90506020020160208101906129ce9190613e41565b6001600160a01b0381166000908152601460205260409020549091508511612a215760405162461bcd60e51b8152600401610d269060208082526004908201526331b3381960e11b604082015260600190565b6000612a2c82611e9d565b905060008111612a675760405162461bcd60e51b8152600401610d26906020808252600490820152636366703360e01b604082015260600190565b600085612a748684613fee565b612a7e9190614005565b6001600160a01b0384166000908152601460205260408120899055909150612aa79082906134ea565b600e5460405163a9059cbb60e01b81526001600160a01b038581166004830152602482018490529091169063a9059cbb906044016020604051808303816000875af1158015612afa573d6000803e3d6000fd5b505050506040513d601f19601f82011682018060405250810190612b1e9190614040565b612b535760405162461bcd60e51b8152600401610d269060208082526004908201526318d99c0d60e21b604082015260600190565b5050508080612b6190614027565b91505061299d565b505050506111716001600555565b600060065460075442612b8a9190614005565b612b949190613fdb565b905090565b612ba1613345565b336000908152600860205260408120905b82811015611a00576000848483818110612bce57612bce613f5b565b905060600201803603810190612be491906141d1565b8051909150612c1b5760405162461bcd60e51b815260206004820152600360248201526206d63360ec1b6044820152606401610d26565b42816020015111612c545760405162461bcd60e51b81526020600482015260036024820152626d633160e81b6044820152606401610d26565b6040818101516000908152600885016020908152908290208351808255918401516001820155600e5492516323b872dd60e01b81523360048201523060248201526044810192909252916001600160a01b0316906323b872dd906064016020604051808303816000875af1158015612cd0573d6000803e3d6000fd5b505050506040513d601f19601f82011682018060405250810190612cf49190614040565b612d265760405162461bcd60e51b815260206004820152600360248201526236b19960e91b6044820152606401610d26565b604080830151815133815260208101919091527ffc5b9d1c2c1134048e1792e3ae27d4eee04f460d341711c7088000d2ca218621910160405180910390a150508080612d7190614027565b915050612bb2565b612d81613345565b60005b81811015611166576000838383818110612da057612da0613f5b565b905060400201803603810190612db6919061420d565b80516001600160a01b0316600090815260086020818152604080842082860151855292830190915290912080549293509091612e1a5760405162461bcd60e51b815260206004820152600360248201526207263360ec1b6044820152606401610d26565b42816001015410612e535760405162461bcd60e51b815260206004820152600360248201526272633160e81b6044820152606401610d26565b600e548351825460405163a9059cbb60e01b81526001600160a01b039283166004820152602481019190915291169063a9059cbb906044016020604051808303816000875af1158015612eaa573d6000803e3d6000fd5b505050506040513d601f19601f82011682018060405250810190612ece9190614040565b612f005760405162461bcd60e51b815260206004820152600360248201526239319960e91b6044820152606401610d26565b600081558251602080850151604080516001600160a01b039094168452918301527f2a737480b18a5b9fc30999d479572d30c4f7fbd5dfd11acf6d16851060c80762910160405180910390a15050508080612f5a90614027565b915050612d84565b612f6a613345565b33600090815260086020526040902080546001600160a01b0319166001600160a01b038516178155612f9c8383612b99565b506117426001600555565b6124e4336137d8565b6001600160a01b03918216600090815260016020908152604080832093909416825291909152205490565b612fe3613345565b60005b8181101561116657600083838381811061300257613002613f5b565b905060600201803603810190613018919061410f565b905060008160200151116130545760405162461bcd60e51b815260206004820152600360248201526207463360ec1b6044820152606401610d26565b80516001600160a01b03166130915760405162461bcd60e51b815260206004820152600360248201526274633160e81b6044820152606401610d26565b80516001600160a01b03166000908152600860208181526040808420818601518552928301909152909120600181015442106130f55760405162461bcd60e51b81526020600482015260036024820152623a319960e91b6044820152606401610d26565b826020015181600001600082825461310d9190613f48565b9091555050600e5460208401516040516323b872dd60e01b815233600482015230602482015260448101919091526001600160a01b03909116906323b872dd906064016020604051808303816000875af115801561316f573d6000803e3d6000fd5b505050506040513d601f19601f820116820180604052508101906131939190614040565b6131c55760405162461bcd60e51b815260206004820152600360248201526274633360e81b6044820152606401610d26565b825160408085015181516001600160a01b03909316835260208301527e20cc663f6e40b36b83826b392bd83ce7c2d3436e7ec05e20258b3f63c327d5910160405180910390a1505050808061321990614027565b915050612fe6565b6001600160a01b0383166132835760405162461bcd60e51b8152602060048201526024808201527f45524332303a20617070726f76652066726f6d20746865207a65726f206164646044820152637265737360e01b6064820152608401610d26565b6001600160a01b0382166132e45760405162461bcd60e51b815260206004820152602260248201527f45524332303a20617070726f766520746f20746865207a65726f206164647265604482015261737360f01b6064820152608401610d26565b6001600160a01b0383811660008181526001602090815260408083209487168084529482529182902085905590518481527f8c5be1e5ebec7d5bd14f71427d1e84f3dd0314c0f7b2291e5b200ac8c7c3b925910160405180910390a3505050565b6002600554036133975760405162461bcd60e51b815260206004820152601f60248201527f5265656e7472616e637947756172643a207265656e7472616e742063616c6c006044820152606401610d26565b6002600555565b600080600f546133cb7f000000000000000000000000000000000000000000000000000000000000000090565b6133d59190613fdb565b905080156134df5760006133e886612395565b905060008282116133f957816133fb565b825b9050600068056bc75e2d6310000061341483601e613fee565b61342690670de0b6b3a7640000613fee565b6134309190614005565b9050600068056bc75e2d6310000061344984601e613fee565b61345b90670de0b6b3a7640000613fee565b6134659190614005565b905082156134da57818860030160008282546134819190613f48565b909155508190506134928385613fdb565b61349c9190613fdb565b8760030160008282546134af9190613f48565b9250508190555082600f60008282546134c89190613f48565b90915550909550611574945050505050565b505050505b506000949350505050565b6000601260006134f8612b77565b8152602001908152602001600020905081156135445782601060008282546135209190613f48565b9091555050805483908290600090613539908490613f48565b909155506117429050565b82601060008282546135569190613fdb565b92505081905550828160010160008282546135719190613f48565b9091555050505050565b8060136000613588612b77565b815260200190815260200160002060008282546135a59190613f48565b90915550611171905082826138d9565b60006135c18484612fb0565b9050600019811461154f578181101561361c5760405162461bcd60e51b815260206004820152601d60248201527f45524332303a20696e73756666696369656e7420616c6c6f77616e63650000006044820152606401610d26565b61154f8484848403613221565b6001600160a01b03831661368d5760405162461bcd60e51b815260206004820152602560248201527f45524332303a207472616e736665722066726f6d20746865207a65726f206164604482015264647265737360d81b6064820152608401610d26565b6001600160a01b0382166136ef5760405162461bcd60e51b815260206004820152602360248201527f45524332303a207472616e7366657220746f20746865207a65726f206164647260448201526265737360e81b6064820152608401610d26565b6136fa838383613966565b6001600160a01b038316600090815260208190526040902054818110156137725760405162461bcd60e51b815260206004820152602660248201527f45524332303a207472616e7366657220616d6f756e7420657863656564732062604482015265616c616e636560d01b6064820152608401610d26565b6001600160a01b03848116600081815260208181526040808320878703905593871680835291849020805487019055925185815290927fddf252ad1be2c89b69c2b068fc378daa952ba7f163c4a11628f55a4df523b3ef910160405180910390a361154f565b6001600160a01b0381166000908152600860205260409020600601805461382a5760405162461bcd60e51b815260206004820152600660248201526507266727620360d41b6044820152606401610d26565b8054600c5460009161383b91613fdb565b90506000600c54600b5461384f9190613fee565b90506000836001015484600001546138679190613fee565b90506000818311613879576000613883565b6138838284613fdb565b905083156138a2576138958482614005565b600b55600c8490556138ae565b600954600b556000600c555b5050506001600160a01b03909216600090815260086020526040812060068101829055600701555050565b7f00000000000000000000000000000000000000000000000000000000000000008161390460025490565b61390e9190613f48565b111561395c5760405162461bcd60e51b815260206004820152601960248201527f45524332304361707065643a20636170206578636565646564000000000000006044820152606401610d26565b61117182826139c6565b6001600160a01b038316156139ab5761398183826000613a91565b6001600160a01b038316600090815260086020526040902060060154156139ab576139ab836137d8565b6001600160a01b038216156117425761174282826001613a91565b6001600160a01b038216613a1c5760405162461bcd60e51b815260206004820152601f60248201527f45524332303a206d696e7420746f20746865207a65726f2061646472657373006044820152606401610d26565b613a2860008383613966565b8060026000828254613a3a9190613f48565b90915550506001600160a01b038216600081815260208181526040808320805486019055518481527fddf252ad1be2c89b69c2b068fc378daa952ba7f163c4a11628f55a4df523b3ef910160405180910390a35050565b600060116000613a9f612b77565b81526020019081526020016000206000856001600160a01b03166001600160a01b0316815260200190815260200160002090508115613af75782816000016000828254613aec9190613f48565b9091555061154f9050565b82816001016000828254613b0b9190613f48565b909155505050505050565b600060208083528351808285015260005b81811015613b4357858101830151858201604001528201613b27565b506000604082860101526040601f19601f8301168501019250505092915050565b6001600160a01b0381168114611e9a57600080fd5b60008060408385031215613b8c57600080fd5b823591506020830135613b9e81613b64565b809150509250929050565b60008060408385031215613bbc57600080fd5b8235613bc781613b64565b946020939093013593505050565b600060208284031215613be757600080fd5b5035919050565b60008083601f840112613c0057600080fd5b50813567ffffffffffffffff811115613c1857600080fd5b6020830191508360208260051b8501011115613c3357600080fd5b9250929050565b60008060208385031215613c4d57600080fd5b823567ffffffffffffffff811115613c6457600080fd5b613c7085828601613bee565b90969095509350505050565b60008060008060608587031215613c9257600080fd5b8435935060208501359250604085013567ffffffffffffffff811115613cb757600080fd5b613cc387828801613bee565b95989497509550505050565b600080600060608486031215613ce457600080fd5b8335613cef81613b64565b92506020840135613cff81613b64565b929592945050506040919091013590565b60008060008060808587031215613d2657600080fd5b8435613d3181613b64565b966020860135965060408601359560600135945092505050565b60008083601f840112613d5d57600080fd5b50813567ffffffffffffffff811115613d7557600080fd5b602083019150836020606083028501011115613c3357600080fd5b60008060208385031215613da357600080fd5b823567ffffffffffffffff811115613dba57600080fd5b613c7085828601613d4b565b60008083601f840112613dd857600080fd5b50813567ffffffffffffffff811115613df057600080fd5b6020830191508360208260061b8501011115613c3357600080fd5b60008060208385031215613e1e57600080fd5b823567ffffffffffffffff811115613e3557600080fd5b613c7085828601613dc6565b600060208284031215613e5357600080fd5b813561157481613b64565b815181526020808301519082015260408101610cb8565b600080600060408486031215613e8a57600080fd5b8335613e9581613b64565b9250602084013567ffffffffffffffff811115613eb157600080fd5b613ebd86828701613d4b565b9497909650939450505050565b60008060408385031215613edd57600080fd5b8235613ee881613b64565b91506020830135613b9e81613b64565b600181811c90821680613f0c57607f821691505b602082108103613f2c57634e487b7160e01b600052602260045260246000fd5b50919050565b634e487b7160e01b600052601160045260246000fd5b80820180821115610cb857610cb8613f32565b634e487b7160e01b600052603260045260246000fd5b60008235605e19833603018112613f8757600080fd5b9190910192915050565b6000808335601e19843603018112613fa857600080fd5b83018035915067ffffffffffffffff821115613fc357600080fd5b6020019150600681901b3603821315613c3357600080fd5b81810381811115610cb857610cb8613f32565b8082028115828204841417610cb857610cb8613f32565b60008261402257634e487b7160e01b600052601260045260246000fd5b500490565b60006001820161403957614039613f32565b5060010190565b60006020828403121561405257600080fd5b8151801515811461157457600080fd5b6040516060810167ffffffffffffffff8111828210171561409357634e487b7160e01b600052604160045260246000fd5b60405290565b6040805190810167ffffffffffffffff8111828210171561409357634e487b7160e01b600052604160045260246000fd5b6000606082840312156140dc57600080fd5b6140e4614062565b905081356140f181613b64565b80825250602082013560208201526040820135604082015292915050565b60006060828403121561412157600080fd5b61157483836140ca565b60006040828403121561413d57600080fd5b614145614099565b82358152602083013560208201528091505092915050565b60006020828403121561416f57600080fd5b5051919050565b60006020828403121561418857600080fd5b815161157481613b64565b600080600080608085870312156141a957600080fd5b8451935060208501516141bb81613b64565b6040860151606090960151949790965092505050565b6000606082840312156141e357600080fd5b6141eb614062565b8235815260208301356020820152604083013560408201528091505092915050565b60006040828403121561421f57600080fd5b614227614099565b823561423281613b64565b8152602092830135928101929092525091905056fea2646970667358221220ae9110e983416c95fb812f56f735a288ca95081590ad3fd32b0474bf6cea451c64736f6c63430008130033",
  "immutableReferences": {
    "737": [
      {
        "length": 32,
        "start": 1507
      },
      {
        "length": 32,
        "start": 4344
      },
      {
        "length": 32,
        "start": 7601
      },
      {
        "length": 32,
        "start": 13225
      },
      {
        "length": 32,
        "start": 14555
      }
    ]
  },
  "source": "// SPDX-License-Identifier: MIT\npragma solidity 0.8.19;\nimport \"@openzeppelin/contracts/token/ERC20/extensions/ERC20Capped.sol\";\nimport \"@openzeppelin/contracts/security/ReentrancyGuard.sol\";\nimport \"./Asami.sol\";\n\ncontract AsamiCore is ERC20Capped, ReentrancyGuard {\n    /* \n      Contract tracks time in 14 day cycles from the moment it was deployed.\n      This cycle marks how often new voted fee rates are applied, how often revenue sharing happens,\n      and the new asami token issuance.\n    */\n    uint256 initialCycle;\n    uint256 cycleLength = 60 * 60 * 24 * 15;\n\n    function getCurrentCycle() public view returns (uint256) {\n        return (block.timestamp / cycleLength) - initialCycle;\n    }\n\n    struct Account {\n      /* \n        The trusted admin is used to register collaborations in the campaigns this account creates.\n        Accounts with to trusted admin cannot run campaigns.\n\n        It can also perform gasless claims.\n        Accounts with no trusted admin can have their gasless claims executed by anyone.\n      */\n      address trustedAdmin;\n      uint256 maxGaslessDocToSpend;\n      uint256 minGaslessRbtcToReceive;\n      uint256 unclaimedAsamiBalance;\n      uint256 unclaimedDocBalance;\n      uint256 feeRateWhenAdmin;\n      FeeRateVote feeRateVote;\n      mapping( uint256 => Campaign ) campaigns;\n      mapping( uint256 => SubAccount ) subAccounts;\n    }\n    mapping(address => Account) public accounts;\n    \n    /*\n      Sub accounts can be used by someone acting as an admin to collect rewards on behalf\n      of someone who does not have an account yet, usually a web2 user.\n      Sub accounts can then be promoted to accounts by the admin.\n    */\n    struct SubAccount {\n      uint256 unclaimedAsamiBalance;\n      uint256 unclaimedDocBalance;\n    }\n\n    function getSubAccount(address _account, uint256 _index) public view returns (SubAccount memory) {\n      return accounts[_account].subAccounts[_index];\n    }\n\n    struct Campaign {\n      uint256 budget;\n      uint256 validUntil;\n      uint256 reportHash;\n    }\n\n    function getCampaign(address _account, uint256 _briefingHash) public view returns (Campaign memory) {\n      return accounts[_account].campaigns[_briefingHash];\n    }\n\n    /* To make the protocol more predictable, changes are applied only once every cycle */\n    uint256 public defaultFeeRate = 10 * 1e18;\n    uint256 public feeRate = defaultFeeRate;\n    uint256 public votedFeeRate = defaultFeeRate;\n    uint256 public votedFeeRateVoteCount = 0;\n    uint256 public lastVotedFeeRateAppliedOn = 0;\n\n    struct FeeRateVote {\n        uint256 votes;\n        uint256 rate;\n    }\n\n    IERC20 internal doc;\n    uint256 public assignedAsamiTokens;\n\n    event CampaignCreated(address account, uint256 campaignId);\n    event CampaignExtended(address account, uint256 campaignId);\n    event CampaignToppedUp(address account, uint256 campaignId);\n    event CampaignReimbursed(address account, uint256 campaignId);\n\n    constructor(\n        address _dollarOnChainAddress\n    ) ERC20(\"Asami Core\", \"ASAMI\") ERC20Capped(21 * 1e24) {\n        doc = IERC20(_dollarOnChainAddress);\n        adminTreasury = msg.sender;\n        initialCycle = block.timestamp / cycleLength;\n    }\n\n    function _beforeTokenTransfer(\n        address from,\n        address to,\n        uint256 amount\n    ) internal override {\n        super._beforeTokenTransfer(from, to, amount);\n        if (from != address(0)) {\n          _registerRecentBalanceChange(from, amount, false);\n\n          if (accounts[from].feeRateVote.votes > 0) {\n              removeFeeRateVoteHelper(from);\n          }\n        }\n\n        if (to != address(0)) {\n          _registerRecentBalanceChange(to, amount, true);\n        }\n    }\n\n    struct PromoteSubAccountsParam {\n        uint256 id;\n        address addr;\n    }\n\n\t\t// Anyone acting as an Admin can onboard web2 users as sub-accounts.\n\t\t// The admin still has full control of the subaccount funds until giving them away.\n\t\t// This function is only for convenience, it could easily be replaced by a custom admin\n\t\t// process that uses this function to send sub-account funds to the admin's own address,\n\t\t// and then decides how much to forward to the claiming user.\n    function promoteSubAccounts(PromoteSubAccountsParam[] calldata _params) external nonReentrant {\n      for(uint256 i = 0; i < _params.length; i++) {\n        PromoteSubAccountsParam calldata param = _params[i];\n        SubAccount storage sub = accounts[msg.sender].subAccounts[param.id];\n        Account storage account = accounts[param.addr];\n        require(account.trustedAdmin == msg.sender || account.trustedAdmin == address(0), \"psa0\");\n\n        account.unclaimedAsamiBalance += sub.unclaimedAsamiBalance;\n        sub.unclaimedAsamiBalance = 0;\n\n\t\t\t\tuint256 promotedDocAmount = sub.unclaimedDocBalance;\n        account.unclaimedDocBalance += sub.unclaimedDocBalance;\n        sub.unclaimedDocBalance = 0;\n\n\t\t\t\t// Accounts not claimed by anyone yet can be claimed by any admin.\n\t\t\t\t// The TrustedAdmin has no permissions other than for funding the account payouts.\n\t\t\t\t// The account holder can always configure this at will after getting some RBTC.\n\t\t\t\tif (account.trustedAdmin == address(0)) {\n\t\t\t\t\taccount.trustedAdmin = msg.sender;\n\t\t\t\t\t// The amount left in the sub account is the highest amount we know the \n\t\t\t\t\t// user is comfortable leaving to the admin's best judgement.\n\t\t\t\t\t// It should be at least 1 DOC, otherwise users who claim too early would\n\t\t\t\t\t// accidentally lock themselves out.\n\t\t\t\t\taccount.maxGaslessDocToSpend = promotedDocAmount > 1e18 ? promotedDocAmount : 1e18;\n\n\t\t\t\t\t// The admin must send at least enough RBTC for 100.000 gas.\n\t\t\t\t\t// 100.000 gas is more than enough for the user to reconfigure their account\n\t\t\t\t\t// selecting another admin and reducing these numbers.\n\t\t\t\t\t// Also to send their DOC and spend them somewhere.\n\t\t\t\t\taccount.minGaslessRbtcToReceive = 6e12;\n\t\t\t\t}\n      }\n    }\n\n    function configAccount(address _trustedAdmin, uint256 _maxGaslessDocToSpend, uint256 _minGaslessRbtcToReceive, uint256 _feeRateWhenAdmin) external {\n      Account storage account = accounts[msg.sender];\n      account.trustedAdmin = _trustedAdmin;\n      account.maxGaslessDocToSpend = _maxGaslessDocToSpend;\n      account.minGaslessRbtcToReceive = _minGaslessRbtcToReceive;\n      account.feeRateWhenAdmin = _feeRateWhenAdmin;\n    }\n\n    function claimBalances() external nonReentrant {\n      Account storage account = accounts[msg.sender];\n\n      if (account.unclaimedAsamiBalance > 0) {\n        uint256 balance = account.unclaimedAsamiBalance;\n        account.unclaimedAsamiBalance = 0;\n        _safeMint(msg.sender, balance);\n      }\n\n      if (account.unclaimedDocBalance > 0) {\n        uint256 balance = account.unclaimedDocBalance;\n        account.unclaimedDocBalance = 0;\n        doc.transfer(msg.sender, balance);\n      }\n    }\n\n    function adminClaimBalancesFree(address[] calldata _addresses) external nonReentrant {\n      for (uint256 i = 0; i < _addresses.length; i++){\n        Account storage account = accounts[_addresses[i]];\n        require(account.trustedAdmin == msg.sender || _addresses[i] == msg.sender, \"acb0\");\n\n        if (account.unclaimedAsamiBalance > 0) {\n          uint256 balance = account.unclaimedAsamiBalance;\n          account.unclaimedAsamiBalance = 0;\n          _safeMint(_addresses[i], balance);\n        }\n\n        if (account.unclaimedDocBalance > 0) {\n          uint256 balance = account.unclaimedDocBalance;\n          account.unclaimedDocBalance = 0;\n          doc.transfer(_addresses[i], balance);\n        }\n      }\n    }\n\n    function gaslessClaimBalances(\n      uint256 _fee,\n      uint256 _rbtcAmount,\n      address[] calldata _addresses\n    ) external payable nonReentrant {\n      require(_rbtcAmount > 1e11, \"gcb0\");\n      require(msg.value == (_rbtcAmount * _addresses.length), \"gcb1\");\n\n      for (uint256 i = 0; i < _addresses.length; i++){\n        Account storage account = accounts[_addresses[i]];\n        require(account.trustedAdmin == msg.sender || account.trustedAdmin == address(0), \"gcb2\");\n        require(account.unclaimedDocBalance > _fee, \"gcb3\");\n        require(account.maxGaslessDocToSpend >= _fee, \"gcb4\");\n        require(_rbtcAmount >= account.minGaslessRbtcToReceive, \"gcb5\");\n\n        uint256 docs = account.unclaimedDocBalance - _fee;\n        account.unclaimedDocBalance = 0;\n        doc.transfer(_addresses[i], docs);\n        accounts[msg.sender].unclaimedDocBalance += _fee;\n        payable(_addresses[i]).transfer(_rbtcAmount);\n\n        if (account.unclaimedAsamiBalance > 0) {\n          uint256 balance = account.unclaimedAsamiBalance;\n          account.unclaimedAsamiBalance = 0;\n          _safeMint(_addresses[i], balance);\n        }\n      }\n    }\n\n    struct MakeCampaignsParam {\n        uint256 budget;\n        uint256 validUntil;\n        uint256 briefingHash;\n    }\n\n    function setTrustedAdminAndMakeCampaign(\n        address _trustedAdmin,\n        MakeCampaignsParam[] calldata _inputs\n    ) public nonReentrant {\n        Account storage account = accounts[msg.sender];\n        account.trustedAdmin = _trustedAdmin;\n        makeCampaigns(_inputs);\n    }\n\n    function makeCampaigns(\n        MakeCampaignsParam[] calldata _inputs\n    ) public nonReentrant {\n        Account storage account = accounts[msg.sender];\n\n        for (uint i = 0; i < _inputs.length; i++) {\n            MakeCampaignsParam memory input = _inputs[i];\n            require(input.budget > 0, \"mc0\");\n            require(input.validUntil > block.timestamp, \"mc1\");\n            Campaign storage c = account.campaigns[input.briefingHash];\n            c.budget = input.budget;\n            c.validUntil = input.validUntil;\n            require(doc.transferFrom(msg.sender, address(this), input.budget), \"mc2\");\n\n            emit CampaignCreated(msg.sender, input.briefingHash);\n        }\n    }\n\n    /* A campaign's expiration can be extended, and this will mean that\n       people will be able to participate for longer, but also that the funds\n       locked in it will be held longer.\n       That's why only the advertiser can call this, knowing their money will be held longer.\n    */\n    struct ExtendCampaignsParam {\n        uint256 validUntil;\n        uint256 briefingHash;\n    }\n\n    function extendCampaigns(\n        ExtendCampaignsParam[] calldata _inputs\n    ) public nonReentrant {\n        Account storage account = accounts[msg.sender];\n\n        for (uint i = 0; i < _inputs.length; i++) {\n            ExtendCampaignsParam memory input = _inputs[i];\n            Campaign storage c = account.campaigns[input.briefingHash];\n            require(c.validUntil != 0, \"ec1\");\n            require(input.validUntil > c.validUntil, \"ec2\");\n            c.validUntil = input.validUntil;\n            c.reportHash = 0;\n\n            emit CampaignExtended(msg.sender, input.briefingHash);\n        }\n    }\n\n    struct TopUpCampaignsParam {\n        address account;\n        uint256 budget;\n        uint256 briefingHash;\n    }\n\n    function topUpCampaigns(\n        TopUpCampaignsParam[] calldata _inputs\n    ) public nonReentrant {\n        for (uint i = 0; i < _inputs.length; i++) {\n            TopUpCampaignsParam memory input = _inputs[i];\n            require(input.budget > 0, \"tc0\");\n            require(input.account != address(0), \"tc1\");\n\n            Account storage account = accounts[input.account];\n            Campaign storage c = account.campaigns[input.briefingHash];\n\n            require(c.validUntil > block.timestamp, \"tc2\");\n\n            c.budget += input.budget;\n\n            require(doc.transferFrom(msg.sender, address(this), input.budget), \"tc3\");\n            emit CampaignToppedUp(input.account, input.briefingHash);\n        }\n    }\n\n    struct ReimburseCampaignsParam {\n        address addr;\n        uint256 briefingHash;\n    }\n\n    function reimburseCampaigns(\n        ReimburseCampaignsParam[] calldata _inputs\n    ) external nonReentrant {\n        for (uint i = 0; i < _inputs.length; i++) {\n            ReimburseCampaignsParam memory input = _inputs[i];\n\n            Account storage account = accounts[input.addr];\n            Campaign storage campaign = account.campaigns[input.briefingHash];\n            require(campaign.budget > 0, \"rc0\");\n            require(campaign.validUntil < block.timestamp, \"rc1\");\n\n            require(doc.transfer(input.addr, campaign.budget), \"rc2\");\n            campaign.budget = 0;\n\n            emit CampaignReimbursed(input.addr, input.briefingHash);\n        }\n    }\n\n    struct SubmitReportsParam {\n        address account;\n        uint256 briefingHash;\n        uint256 reportHash;\n    }\n\n    function submitReports(\n        SubmitReportsParam[] calldata _inputs\n    ) external {\n        for (uint i = 0; i < _inputs.length; i++) {\n            SubmitReportsParam memory input = _inputs[i];\n            require(input.reportHash > 0, \"sr0\");\n\n            Account storage account = accounts[input.account];\n            require(account.trustedAdmin == msg.sender, \"sr1\");\n\n            Campaign storage campaign = account.campaigns[input.briefingHash];\n            require(campaign.validUntil > 0, \"sr2\");\n            require(campaign.validUntil < block.timestamp, \"sr3\");\n            require(campaign.reportHash == 0, \"sr4\");\n            campaign.reportHash = input.reportHash;\n        }\n    }\n\n    struct MakeCollabsParam {\n        address advertiserAddr;\n        uint256 briefingHash;\n        MakeCollabsParamItem[] collabs;\n    }\n\n    struct MakeCollabsParamItem {\n        address accountAddr;\n        uint256 docReward;\n    }\n\n    /* Make sure all the accounts involved are marked as claimed (?) */\n    function adminMakeCollabs(\n        MakeCollabsParam[] calldata _input\n    ) external nonReentrant {\n        /* It's impossible to make collabs if the fees would exceed the reward */\n        require((feeRate + accounts[msg.sender].feeRateWhenAdmin) < 100e18, \"amc0\");\n\n        for (uint256 i = 0; i < _input.length; i++) {\n          Account storage advertiser = accounts[_input[i].advertiserAddr];\n          Campaign storage campaign = advertiser.campaigns[_input[i].briefingHash];\n          require(advertiser.trustedAdmin == msg.sender, \"amc1\");\n          require(campaign.validUntil > block.timestamp, \"amc2\");\n\n          uint256 newFees = 0;\n\n          for (uint256 j = 0; j < _input[i].collabs.length; j++) {\n            Account storage admin = accounts[msg.sender];\n            MakeCollabsParamItem calldata item = _input[i].collabs[j];\n            require(item.accountAddr != address(0), \"amc3\");\n\n            uint256 gross = item.docReward;\n            require(campaign.budget >= gross, \"amc4\");\n            campaign.budget -= gross;\n\n            uint256 fee = (gross * feeRate) / 1e20;\n            uint256 adminFee = (gross * admin.feeRateWhenAdmin) / 1e20;\n            uint256 reward = gross - fee - adminFee;\n\n            uint256 memberTokens = _tryAssigningTokensAndReturnMemberTokens(fee, advertiser, admin);\n            if(memberTokens > 0 ) {\n               accounts[item.accountAddr].unclaimedAsamiBalance += memberTokens;\n            }\n            accounts[item.accountAddr].unclaimedDocBalance += reward;\n            newFees += fee;\n            admin.unclaimedDocBalance += adminFee;\n          }\n\n          /* To save on gas costs, values are added in memory then stored at once */\n          changeFeePool(newFees, true);\n\n          /* \n            Storing the fee amount collected in this cycle is only\n            useful to adjust the issuance rate on the next cycle.\n            If we've issued al tokens, there's no point in adjusting the\n            issuance rate on next cycle, therefore, no point in storing this value\n          */\n          if(assignedAsamiTokens < cap()) {\n            feesCollectedPerCycleDuringTokenIssuance[getCurrentCycle()] += newFees;\n          }\n      }\n    }\n\n    struct MakeSubAccountCollabsParam {\n        address advertiserAddr;\n        uint256 briefingHash;\n        MakeSubAccountCollabsParamItem[] collabs;\n    }\n\n    struct MakeSubAccountCollabsParamItem {\n        uint256 subAccountId;\n        uint256 docReward;\n    }\n\n\n    /* Make sure all the accounts involved are marked as claimed (?) */\n    function adminMakeSubAccountCollabs(\n        MakeSubAccountCollabsParam[] calldata _input\n    ) external nonReentrant {\n        /* It's impossible to make collabs if the fees would exceed the reward */\n        require((feeRate + accounts[msg.sender].feeRateWhenAdmin) < 100e18, \"amc0\");\n\n        for (uint256 i = 0; i < _input.length; i++) {\n          Account storage advertiser = accounts[_input[i].advertiserAddr];\n          Campaign storage campaign = advertiser.campaigns[_input[i].briefingHash];\n          require(advertiser.trustedAdmin == msg.sender, \"amc1\");\n          require(campaign.validUntil > block.timestamp, \"amc2\");\n\n          uint256 newFees = 0;\n\n          for (uint256 j = 0; j < _input[i].collabs.length; j++) {\n            Account storage admin = accounts[msg.sender];\n            MakeSubAccountCollabsParamItem calldata item = _input[i].collabs[j];\n\n            uint256 gross = item.docReward;\n            require(campaign.budget >= gross, \"amc4\");\n            campaign.budget -= gross;\n\n            uint256 fee = (gross * feeRate) / 1e20;\n            uint256 adminFee = (gross * admin.feeRateWhenAdmin) / 1e20;\n            uint256 reward = gross - fee - adminFee;\n\n            uint256 memberTokens = _tryAssigningTokensAndReturnMemberTokens(fee, advertiser, admin);\n            if(memberTokens > 0 ) {\n               admin.subAccounts[item.subAccountId].unclaimedAsamiBalance += memberTokens;\n            }\n            admin.subAccounts[item.subAccountId].unclaimedDocBalance += reward;\n            newFees += fee;\n            admin.unclaimedDocBalance += adminFee;\n          }\n\n          /* To save on gas costs, values are added in memory then stored at once */\n          changeFeePool(newFees, true);\n\n          /* \n            Storing the fee amount collected in this cycle is only\n            useful to adjust the issuance rate on the next cycle.\n            If we've issued al tokens, there's no point in adjusting the\n            issuance rate on next cycle, therefore, no point in storing this value\n          */\n          if(assignedAsamiTokens < cap()) {\n            feesCollectedPerCycleDuringTokenIssuance[getCurrentCycle()] += newFees;\n          }\n      }\n    }\n\n    function _tryAssigningTokensAndReturnMemberTokens(\n      uint256 _fee,\n      Account storage _advertiser,\n      Account storage _admin\n    ) private returns (uint256) {\n      uint256 remainingToCap = cap() - assignedAsamiTokens;\n\n      if (remainingToCap > 0) {\n        uint256 tokensAtRate = getIssuanceFor(_fee);\n        uint256 newTokens = (tokensAtRate > remainingToCap) ? remainingToCap : tokensAtRate;\n        uint256 advertiserTokens = (newTokens * 30 * 1e18) / 100e18;\n        uint256 memberTokens = (newTokens * 30 * 1e18) / 100e18;\n\n        if(newTokens > 0) {\n          _advertiser.unclaimedAsamiBalance += advertiserTokens;\n          _admin.unclaimedAsamiBalance += newTokens - advertiserTokens - memberTokens;\n          assignedAsamiTokens += newTokens; \n          return memberTokens;\n        }\n      }\n\n      return 0;\n    }\n\n    function _safeMint(address _addr, uint256 _amount) private {\n        recentTokens[getCurrentCycle()] += _amount;\n        _mint(_addr, _amount);\n    }\n\n    /* \n      The feePool accumulates all the protocol fees to be distributed at the end of each cycle.\n      The feePool is distributed based on holder balances at the end of the cycle.\n    */\n    uint256 public feePool;\n\n    struct BalanceChange {\n      uint256 added;\n      uint256 substracted;\n    }\n    mapping (uint256 => mapping(address => BalanceChange)) public recentBalanceChanges;\n    mapping (uint256 => BalanceChange) public recentFeePoolChanges;\n    mapping (uint256 => uint256) public recentTokens;\n    mapping(address => uint256) public lastFeePoolShareCycles;\n\n    function getRecentBalanceChange(address _holder) public view returns (BalanceChange memory) {\n      return recentBalanceChanges[getCurrentCycle()][_holder];\n    }\n\n    function getBalanceBeforeRecentChanges(address _holder) public view returns (uint256) {\n      BalanceChange storage recent = recentBalanceChanges[getCurrentCycle()][_holder];\n      return (balanceOf(_holder) + recent.substracted) - recent.added;\n    }\n\n    function _registerRecentBalanceChange(address _holder, uint256 _amount, bool _added) private {\n      BalanceChange storage recent = recentBalanceChanges[getCurrentCycle()][_holder];\n      if(_added){\n        recent.added += _amount;\n      } else {\n        recent.substracted += _amount;\n      }\n    }\n\n    function changeFeePool(uint256 _amount, bool _added) private {\n      BalanceChange storage recent = recentFeePoolChanges[getCurrentCycle()];\n      if(_added){\n        feePool += _amount;\n        recent.added += _amount;\n      } else {\n        feePool -= _amount;\n        recent.substracted += _amount;\n      }\n    }\n\n    function getFeePoolBeforeRecentChanges() public view returns (uint256) {\n      BalanceChange storage recent = recentFeePoolChanges[getCurrentCycle()];\n      return (feePool + recent.substracted) - recent.added;\n    }\n\n    function claimFeePoolShare(address[] calldata _holders) external nonReentrant {\n        uint256 current = getCurrentCycle();\n        uint256 supply = totalSupply() - recentTokens[current];\n        uint256 pool = getFeePoolBeforeRecentChanges();\n        require(supply > 0, \"cfp0\");\n        require(pool > 0, \"cfp1\");\n\n        for (uint256 i = 0; i < _holders.length; i++) {\n          address holder = _holders[i];\n\n          require(lastFeePoolShareCycles[holder] < current, \"cfp2\");\n\n          uint256 balance = getBalanceBeforeRecentChanges(holder);\n          require(balance > 0, \"cfp3\");\n          uint256 reward = (balance * pool) / supply;\n\n          lastFeePoolShareCycles[holder] = current;\n          changeFeePool(reward, false);\n\n          require(doc.transfer(holder, reward), \"cfp4\");\n        }\n    }\n\n    function applyVotedFeeRate() external {\n        uint256 currentCycle = getCurrentCycle();\n        require(currentCycle != lastVotedFeeRateAppliedOn, \"afr0\");\n        feeRate = votedFeeRate;\n        lastVotedFeeRateAppliedOn = currentCycle;\n    }\n\n    function submitFeeRateVote(uint256 _rate) external {\n        require(_rate > 0 && _rate < 100e18, \"srv0\");\n\n        FeeRateVote storage vote = accounts[msg.sender].feeRateVote;\n        if (vote.votes > 0) {\n            removeFeeRateVoteHelper(msg.sender);\n        }\n\n        uint256 votes = balanceOf(msg.sender);\n        require(votes > 0, \"srv1\");\n\n        votedFeeRate =\n            ((votedFeeRate * votedFeeRateVoteCount) + (votes * _rate)) /\n            (votedFeeRateVoteCount + votes);\n        votedFeeRateVoteCount += votes;\n        vote.votes = votes;\n        vote.rate = _rate;\n    }\n\n    function removeFeeRateVote() external {\n        removeFeeRateVoteHelper(msg.sender);\n    }\n\n    function removeFeeRateVoteHelper(address _holder) private {\n        FeeRateVote storage vote = accounts[_holder].feeRateVote;\n        require(vote.votes > 0, \"rfrv 0\");\n        uint256 nextVoteCount = votedFeeRateVoteCount - vote.votes;\n        uint256 currentVolume = votedFeeRate * votedFeeRateVoteCount;\n        uint256 removedVolume = vote.votes * vote.rate;\n        uint256 nextVolume = currentVolume > removedVolume\n            ? currentVolume - removedVolume\n            : 0;\n\n        if (nextVoteCount > 0) {\n            votedFeeRate = nextVolume / nextVoteCount;\n            votedFeeRateVoteCount = nextVoteCount;\n        } else {\n            votedFeeRate = defaultFeeRate;\n            votedFeeRateVoteCount = 0;\n        }\n        delete accounts[_holder].feeRateVote;\n    }\n\n    /* Asami token issuance rate:\n      The issuance goal is 100.000 tokens every 15 days until reaching 21.000.000 (a little above 1 year).\n      That is, tokens will be issued in 210 cycles.\n      Tokens are assigned to people paying into the fees pool.\n      For every cycle we calculate the previous 10 cycles average fees, and come up with an equivalence of DoC paid vs tokens awarded.\n      This equivalence is stored and updated for every cycle, and should adjust issuance to target 100.000 tokens every cycle.\n    */\n    uint256 public tokensTargetPerCycle = 100000e18;\n    mapping(uint256 => uint256) public feesCollectedPerCycleDuringTokenIssuance;\n\n    // The amount of tokens to issue for a given number of DOC collected as fee.\n    //  According to last cycle's collected fees and the tokens target per cycle.\n    function getIssuanceFor(uint256 _docAmount) public view returns (uint256) {\n\t\t\tuint256 current = getCurrentCycle();\n\n      /* The initial value is roughly based on the fees collected by V1 during it's lifetime */\n      if (current == 0) {\n        return _docAmount * 4000;\n      }\n\n\t\t\t// If for whatever reason we have a cycle in which we didn't collect fees,\n\t\t\t// we issue tokens like we had collected 100 DOC in fees for that period.\n\t\t\t// This is an intentionally low amount mostly to avoid dividing by zero.\n\t\t\tuint256 prev = feesCollectedPerCycleDuringTokenIssuance[current - 1];\n      return (_docAmount * tokensTargetPerCycle) / (prev == 0 ? 100e18 : prev );\n    }\n\n    function getFeesCollected(uint256 _cycle) public view returns (uint256) {\n\t\t\treturn feesCollectedPerCycleDuringTokenIssuance[_cycle];\n\t\t}\n\n    /* The adminTreasury address is the deployer address which can only be used to retrieve accidentally sent RBTC into the contract. */\n    address public adminTreasury;\n\n    function withdrawAccidentallySentRbtc() external {\n      require(msg.sender == adminTreasury, \"wasr0\");\n      payable(adminTreasury).transfer(address(this).balance);\n    }\n\n    /* \n       This is the migration from the old contract.\n       It only issues new asami tokens to these users again,\n       based on the tokens they had in the previous version of the contract.\n    */\n    uint256 public migrationCursor;\n    bool public migrationHoldersDone;\n    bool public migrationAccountsDone;\n\n    function migrateTokensFromOldContract(address _oldContract, address _adminAddr, uint256 _items) external {\n      require(!migrationHoldersDone || !migrationAccountsDone, \"mig0\");\n      Asami oldContract = Asami(_oldContract);\n      assignedAsamiTokens = oldContract.claimedAsamiTokens();\n      Account storage admin = accounts[_adminAddr];\n\n      if (!migrationHoldersDone) {\n        for (uint256 i = 0; i < _items; i++) {\n          try oldContract.holders(migrationCursor+i) returns (address holder) {\n            uint256 balance = getIssuanceFor(oldContract.balanceOf(holder));\n            if(balance > 0){\n              _safeMint(holder, balance);\n            }\n          } catch {\n              migrationHoldersDone = true;\n              break;\n          }\n        }\n      }\n\n      if (!migrationAccountsDone) {\n        for (uint256 i = 0; i < _items; i++) {\n          try oldContract.accountIds(migrationCursor + i) returns (uint256 oldAccountId) {\n            ( , address addr, uint256 oldUnclaimedAsami,) = oldContract.accounts(oldAccountId);\n            if(addr == address(0) && oldUnclaimedAsami > 0) {\n              admin.subAccounts[oldAccountId].unclaimedAsamiBalance = getIssuanceFor(oldUnclaimedAsami);\n            }\n\t\t\t\t\t\tif(addr != address(0)){\n\t\t\t\t\t\t\t// These values are set only once during the migration, for accounts\n\t\t\t\t\t\t\t// that existed in the previous contract.\n\t\t\t\t\t\t\t// This ensures a smooth migration and that the admin is immediately able\n\t\t\t\t\t\t\t// to manage these accounts, provinding gasless claims at reasonable prices.\n\t\t\t\t\t\t\taccounts[addr].trustedAdmin = _adminAddr;\n\t\t\t\t\t\t\taccounts[addr].maxGaslessDocToSpend = 1e18;\n\t\t\t\t\t\t\taccounts[addr].minGaslessRbtcToReceive = 6e12;\n\t\t\t\t\t\t}\n          } catch {\n            migrationAccountsDone = true;\n            break;\n          }\n        }\n      }\n\n      migrationCursor += _items;\n    }\n}\n",
  "sourcePath": "/home/nubis/asami/contract/contracts/AsamiCore.sol",
  "compiler": {
    "name": "solc",
    "version": "0.8.19+commit.7dd6d404.Emscripten.clang"
  },
  "schemaVersion": "3.4.15",
  "updatedAt": "2024-05-19T17:55:11.043Z",
  "networkType": "ethereum",
  "devdoc": {
    "events": {
      "Approval(address,address,uint256)": {
        "details": "Emitted when the allowance of a `spender` for an `owner` is set by a call to {approve}. `value` is the new allowance."
      },
      "Transfer(address,address,uint256)": {
        "details": "Emitted when `value` tokens are moved from one account (`from`) to another (`to`). Note that `value` may be zero."
      }
    },
    "kind": "dev",
    "methods": {
      "allowance(address,address)": {
        "details": "See {IERC20-allowance}."
      },
      "approve(address,uint256)": {
        "details": "See {IERC20-approve}. NOTE: If `amount` is the maximum `uint256`, the allowance is not updated on `transferFrom`. This is semantically equivalent to an infinite approval. Requirements: - `spender` cannot be the zero address."
      },
      "balanceOf(address)": {
        "details": "See {IERC20-balanceOf}."
      },
      "cap()": {
        "details": "Returns the cap on the token's total supply."
      },
      "decimals()": {
        "details": "Returns the number of decimals used to get its user representation. For example, if `decimals` equals `2`, a balance of `505` tokens should be displayed to a user as `5.05` (`505 / 10 ** 2`). Tokens usually opt for a value of 18, imitating the relationship between Ether and Wei. This is the default value returned by this function, unless it's overridden. NOTE: This information is only used for _display_ purposes: it in no way affects any of the arithmetic of the contract, including {IERC20-balanceOf} and {IERC20-transfer}."
      },
      "decreaseAllowance(address,uint256)": {
        "details": "Atomically decreases the allowance granted to `spender` by the caller. This is an alternative to {approve} that can be used as a mitigation for problems described in {IERC20-approve}. Emits an {Approval} event indicating the updated allowance. Requirements: - `spender` cannot be the zero address. - `spender` must have allowance for the caller of at least `subtractedValue`."
      },
      "increaseAllowance(address,uint256)": {
        "details": "Atomically increases the allowance granted to `spender` by the caller. This is an alternative to {approve} that can be used as a mitigation for problems described in {IERC20-approve}. Emits an {Approval} event indicating the updated allowance. Requirements: - `spender` cannot be the zero address."
      },
      "name()": {
        "details": "Returns the name of the token."
      },
      "symbol()": {
        "details": "Returns the symbol of the token, usually a shorter version of the name."
      },
      "totalSupply()": {
        "details": "See {IERC20-totalSupply}."
      },
      "transfer(address,uint256)": {
        "details": "See {IERC20-transfer}. Requirements: - `to` cannot be the zero address. - the caller must have a balance of at least `amount`."
      },
      "transferFrom(address,address,uint256)": {
        "details": "See {IERC20-transferFrom}. Emits an {Approval} event indicating the updated allowance. This is not required by the EIP. See the note at the beginning of {ERC20}. NOTE: Does not update the allowance if the current allowance is the maximum `uint256`. Requirements: - `from` and `to` cannot be the zero address. - `from` must have a balance of at least `amount`. - the caller must have allowance for ``from``'s tokens of at least `amount`."
      }
    },
    "version": 1
  },
  "userdoc": {
    "kind": "user",
    "methods": {},
    "version": 1
  }
}